{
  "_format": "hh-sol-artifact-1",
  "contractName": "Bridge",
  "sourceName": "contracts/Bridge.sol",
  "abi": [
    {
      "inputs": [
        {
          "internalType": "address",
          "name": "target",
          "type": "address"
        }
      ],
      "name": "AddressEmptyCode",
      "type": "error"
    },
    {
      "inputs": [],
      "name": "AmountTooLow",
      "type": "error"
    },
    {
      "inputs": [],
      "name": "BurnAmountZero",
      "type": "error"
    },
    {
      "inputs": [],
      "name": "ECDSAInvalidSignature",
      "type": "error"
    },
    {
      "inputs": [
        {
          "internalType": "uint256",
          "name": "length",
          "type": "uint256"
        }
      ],
      "name": "ECDSAInvalidSignatureLength",
      "type": "error"
    },
    {
      "inputs": [
        {
          "internalType": "bytes32",
          "name": "s",
          "type": "bytes32"
        }
      ],
      "name": "ECDSAInvalidSignatureS",
      "type": "error"
    },
    {
      "inputs": [
        {
          "internalType": "address",
          "name": "implementation",
          "type": "address"
        }
      ],
      "name": "ERC1967InvalidImplementation",
      "type": "error"
    },
    {
      "inputs": [],
      "name": "ERC1967NonPayable",
      "type": "error"
    },
    {
      "inputs": [],
      "name": "EthTransferFailed",
      "type": "error"
    },
    {
      "inputs": [],
      "name": "FailedCall",
      "type": "error"
    },
    {
      "inputs": [],
      "name": "FeeTransferFailed",
      "type": "error"
    },
    {
      "inputs": [],
      "name": "InsufficientAllowance",
      "type": "error"
    },
    {
      "inputs": [],
      "name": "InsufficientBalance",
      "type": "error"
    },
    {
      "inputs": [
        {
          "internalType": "address",
          "name": "token",
          "type": "address"
        }
      ],
      "name": "InsufficientPermits",
      "type": "error"
    },
    {
      "inputs": [],
      "name": "InvalidFeeCollector",
      "type": "error"
    },
    {
      "inputs": [],
      "name": "InvalidFeeRate",
      "type": "error"
    },
    {
      "inputs": [],
      "name": "InvalidInitialization",
      "type": "error"
    },
    {
      "inputs": [],
      "name": "InvalidOwnershipTransfer",
      "type": "error"
    },
    {
      "inputs": [],
      "name": "InvalidPrerotatedKeyHash",
      "type": "error"
    },
    {
      "inputs": [],
      "name": "InvalidPublicKey",
      "type": "error"
    },
    {
      "inputs": [],
      "name": "InvalidRecipientAmount",
      "type": "error"
    },
    {
      "inputs": [],
      "name": "InvalidSignature",
      "type": "error"
    },
    {
      "inputs": [],
      "name": "MissingPermit",
      "type": "error"
    },
    {
      "inputs": [],
      "name": "NoTokenPairs",
      "type": "error"
    },
    {
      "inputs": [],
      "name": "NotInitializing",
      "type": "error"
    },
    {
      "inputs": [
        {
          "internalType": "address",
          "name": "contractAddress",
          "type": "address"
        }
      ],
      "name": "NotOwnerOfTarget",
      "type": "error"
    },
    {
      "inputs": [
        {
          "internalType": "address",
          "name": "owner",
          "type": "address"
        }
      ],
      "name": "OwnableInvalidOwner",
      "type": "error"
    },
    {
      "inputs": [
        {
          "internalType": "address",
          "name": "account",
          "type": "address"
        }
      ],
      "name": "OwnableUnauthorizedAccount",
      "type": "error"
    },
    {
      "inputs": [],
      "name": "PermitDeadlineExpired",
      "type": "error"
    },
    {
      "inputs": [],
      "name": "ReentrancyGuardReentrantCall",
      "type": "error"
    },
    {
      "inputs": [
        {
          "internalType": "address",
          "name": "token",
          "type": "address"
        }
      ],
      "name": "SafeERC20FailedOperation",
      "type": "error"
    },
    {
      "inputs": [],
      "name": "TokenPairExists",
      "type": "error"
    },
    {
      "inputs": [],
      "name": "TokenPairNotSupported",
      "type": "error"
    },
    {
      "inputs": [],
      "name": "TransferFailed",
      "type": "error"
    },
    {
      "inputs": [],
      "name": "UUPSUnauthorizedCallContext",
      "type": "error"
    },
    {
      "inputs": [
        {
          "internalType": "bytes32",
          "name": "slot",
          "type": "bytes32"
        }
      ],
      "name": "UUPSUnsupportedProxiableUUID",
      "type": "error"
    },
    {
      "inputs": [
        {
          "internalType": "address",
          "name": "contractAddress",
          "type": "address"
        },
        {
          "internalType": "string",
          "name": "reason",
          "type": "string"
        }
      ],
      "name": "UpgradeFailed",
      "type": "error"
    },
    {
      "inputs": [],
      "name": "ZeroAddress",
      "type": "error"
    },
    {
      "anonymous": false,
      "inputs": [
        {
          "indexed": false,
          "internalType": "uint64",
          "name": "version",
          "type": "uint64"
        }
      ],
      "name": "Initialized",
      "type": "event"
    },
    {
      "anonymous": false,
      "inputs": [
        {
          "indexed": true,
          "internalType": "address",
          "name": "previousOwner",
          "type": "address"
        },
        {
          "indexed": true,
          "internalType": "address",
          "name": "newOwner",
          "type": "address"
        }
      ],
      "name": "OwnershipTransferred",
      "type": "event"
    },
    {
      "anonymous": false,
      "inputs": [
        {
          "indexed": true,
          "internalType": "address",
          "name": "implementation",
          "type": "address"
        }
      ],
      "name": "Upgraded",
      "type": "event"
    },
    {
      "inputs": [],
      "name": "UPGRADE_INTERFACE_VERSION",
      "outputs": [
        {
          "internalType": "string",
          "name": "",
          "type": "string"
        }
      ],
      "stateMutability": "view",
      "type": "function"
    },
    {
      "inputs": [
        {
          "internalType": "address",
          "name": "to",
          "type": "address"
        }
      ],
      "name": "emergencyWithdrawBNB",
      "outputs": [],
      "stateMutability": "nonpayable",
      "type": "function"
    },
    {
      "inputs": [],
      "name": "feeCollector",
      "outputs": [
        {
          "internalType": "address",
          "name": "",
          "type": "address"
        }
      ],
      "stateMutability": "view",
      "type": "function"
    },
    {
      "inputs": [],
      "name": "feeSigner",
      "outputs": [
        {
          "internalType": "address",
          "name": "",
          "type": "address"
        }
      ],
      "stateMutability": "view",
      "type": "function"
    },
    {
      "inputs": [
        {
          "internalType": "bytes",
          "name": "publicKey",
          "type": "bytes"
        }
      ],
      "name": "getAddressFromPublicKey",
      "outputs": [
        {
          "internalType": "address",
          "name": "",
          "type": "address"
        }
      ],
      "stateMutability": "pure",
      "type": "function"
    },
    {
      "inputs": [],
      "name": "getOwner",
      "outputs": [
        {
          "internalType": "address",
          "name": "",
          "type": "address"
        }
      ],
      "stateMutability": "view",
      "type": "function"
    },
    {
      "inputs": [],
      "name": "getSupportedTokens",
      "outputs": [
        {
          "internalType": "address[]",
          "name": "",
          "type": "address[]"
        }
      ],
      "stateMutability": "view",
      "type": "function"
    },
    {
      "inputs": [
        {
          "internalType": "address",
          "name": "_keyLogRegistry",
          "type": "address"
        },
        {
          "internalType": "address",
          "name": "_wrappedTokenBeacon",
          "type": "address"
        }
      ],
      "name": "initialize",
      "outputs": [],
      "stateMutability": "nonpayable",
      "type": "function"
    },
    {
      "inputs": [],
      "name": "keyLogRegistry",
      "outputs": [
        {
          "internalType": "contract KeyLogRegistry",
          "name": "",
          "type": "address"
        }
      ],
      "stateMutability": "view",
      "type": "function"
    },
    {
      "inputs": [
        {
          "internalType": "address",
          "name": "",
          "type": "address"
        }
      ],
      "name": "nonces",
      "outputs": [
        {
          "internalType": "uint256",
          "name": "",
          "type": "uint256"
        }
      ],
      "stateMutability": "view",
      "type": "function"
    },
    {
      "inputs": [
        {
          "internalType": "address",
          "name": "originalToken",
          "type": "address"
        }
      ],
      "name": "originalToWrapped",
      "outputs": [
        {
          "internalType": "address",
          "name": "",
          "type": "address"
        }
      ],
      "stateMutability": "view",
      "type": "function"
    },
    {
      "inputs": [],
      "name": "owner",
      "outputs": [
        {
          "internalType": "address",
          "name": "",
          "type": "address"
        }
      ],
      "stateMutability": "view",
      "type": "function"
    },
    {
      "inputs": [],
      "name": "proxiableUUID",
      "outputs": [
        {
          "internalType": "bytes32",
          "name": "",
          "type": "bytes32"
        }
      ],
      "stateMutability": "view",
      "type": "function"
    },
    {
      "inputs": [
        {
          "internalType": "address",
          "name": "token",
          "type": "address"
        },
        {
          "components": [
            {
              "internalType": "address",
              "name": "token",
              "type": "address"
            },
            {
              "internalType": "uint256",
              "name": "fee",
              "type": "uint256"
            },
            {
              "internalType": "uint256",
              "name": "expires",
              "type": "uint256"
            },
            {
              "internalType": "bytes",
              "name": "signature",
              "type": "bytes"
            }
          ],
          "internalType": "struct Bridge.FeeInfo",
          "name": "fee",
          "type": "tuple"
        },
        {
          "components": [
            {
              "internalType": "address",
              "name": "originalToken",
              "type": "address"
            },
            {
              "internalType": "string",
              "name": "tokenName",
              "type": "string"
            },
            {
              "internalType": "string",
              "name": "tokenSymbol",
              "type": "string"
            },
            {
              "internalType": "address",
              "name": "wrappedToken",
              "type": "address"
            }
          ],
          "internalType": "struct Bridge.TokenPair[]",
          "name": "newTokenPairs",
          "type": "tuple[]"
        },
        {
          "components": [
            {
              "internalType": "address",
              "name": "token",
              "type": "address"
            },
            {
              "internalType": "uint256",
              "name": "amount",
              "type": "uint256"
            },
            {
              "internalType": "uint256",
              "name": "deadline",
              "type": "uint256"
            },
            {
              "internalType": "uint8",
              "name": "v",
              "type": "uint8"
            },
            {
              "internalType": "bytes32",
              "name": "r",
              "type": "bytes32"
            },
            {
              "internalType": "bytes32",
              "name": "s",
              "type": "bytes32"
            },
            {
              "components": [
                {
                  "internalType": "address",
                  "name": "recipientAddress",
                  "type": "address"
                },
                {
                  "internalType": "uint256",
                  "name": "amount",
                  "type": "uint256"
                },
                {
                  "internalType": "bool",
                  "name": "wrap",
                  "type": "bool"
                },
                {
                  "internalType": "bool",
                  "name": "unwrap",
                  "type": "bool"
                },
                {
                  "internalType": "bool",
                  "name": "mint",
                  "type": "bool"
                },
                {
                  "internalType": "bool",
                  "name": "burn",
                  "type": "bool"
                }
              ],
              "internalType": "struct Bridge.Recipient[]",
              "name": "recipients",
              "type": "tuple[]"
            }
          ],
          "internalType": "struct Bridge.PermitData[]",
          "name": "permits",
          "type": "tuple[]"
        },
        {
          "components": [
            {
              "internalType": "uint256",
              "name": "amount",
              "type": "uint256"
            },
            {
              "internalType": "bytes",
              "name": "publicKey",
              "type": "bytes"
            },
            {
              "internalType": "address",
              "name": "prerotatedKeyHash",
              "type": "address"
            },
            {
              "internalType": "address",
              "name": "twicePrerotatedKeyHash",
              "type": "address"
            },
            {
              "internalType": "address",
              "name": "prevPublicKeyHash",
              "type": "address"
            },
            {
              "internalType": "address",
              "name": "outputAddress",
              "type": "address"
            }
          ],
          "internalType": "struct Bridge.Params",
          "name": "unconfirmed",
          "type": "tuple"
        },
        {
          "internalType": "bytes",
          "name": "unconfirmedSignature",
          "type": "bytes"
        },
        {
          "components": [
            {
              "internalType": "uint256",
              "name": "amount",
              "type": "uint256"
            },
            {
              "internalType": "bytes",
              "name": "publicKey",
              "type": "bytes"
            },
            {
              "internalType": "address",
              "name": "prerotatedKeyHash",
              "type": "address"
            },
            {
              "internalType": "address",
              "name": "twicePrerotatedKeyHash",
              "type": "address"
            },
            {
              "internalType": "address",
              "name": "prevPublicKeyHash",
              "type": "address"
            },
            {
              "internalType": "address",
              "name": "outputAddress",
              "type": "address"
            }
          ],
          "internalType": "struct Bridge.Params",
          "name": "confirming",
          "type": "tuple"
        },
        {
          "internalType": "bytes",
          "name": "confirmingSignature",
          "type": "bytes"
        }
      ],
      "name": "registerKeyPairWithTransfer",
      "outputs": [],
      "stateMutability": "payable",
      "type": "function"
    },
    {
      "inputs": [],
      "name": "relayer",
      "outputs": [
        {
          "internalType": "address",
          "name": "",
          "type": "address"
        }
      ],
      "stateMutability": "view",
      "type": "function"
    },
    {
      "inputs": [],
      "name": "renounceOwnership",
      "outputs": [],
      "stateMutability": "nonpayable",
      "type": "function"
    },
    {
      "inputs": [
        {
          "internalType": "address",
          "name": "_feeCollector",
          "type": "address"
        }
      ],
      "name": "setFeeCollector",
      "outputs": [],
      "stateMutability": "nonpayable",
      "type": "function"
    },
    {
      "inputs": [
        {
          "internalType": "address",
          "name": "_signer",
          "type": "address"
        }
      ],
      "name": "setFeeSigner",
      "outputs": [],
      "stateMutability": "nonpayable",
      "type": "function"
    },
    {
      "inputs": [
        {
          "internalType": "address",
          "name": "_wrappedTokenBeacon",
          "type": "address"
        }
      ],
      "name": "setWrappedTokenBeacon",
      "outputs": [],
      "stateMutability": "nonpayable",
      "type": "function"
    },
    {
      "inputs": [
        {
          "internalType": "uint256",
          "name": "",
          "type": "uint256"
        }
      ],
      "name": "supportedOriginalTokens",
      "outputs": [
        {
          "internalType": "address",
          "name": "",
          "type": "address"
        }
      ],
      "stateMutability": "view",
      "type": "function"
    },
    {
      "inputs": [
        {
          "internalType": "address",
          "name": "",
          "type": "address"
        }
      ],
      "name": "tokenPairs",
      "outputs": [
        {
          "internalType": "address",
          "name": "originalToken",
          "type": "address"
        },
        {
          "internalType": "address",
          "name": "wrappedToken",
          "type": "address"
        }
      ],
      "stateMutability": "view",
      "type": "function"
    },
    {
      "inputs": [
        {
          "internalType": "address",
          "name": "newOwner",
          "type": "address"
        }
      ],
      "name": "transferOwnership",
      "outputs": [],
      "stateMutability": "nonpayable",
      "type": "function"
    },
    {
      "inputs": [
        {
          "internalType": "address",
          "name": "newImplementation",
          "type": "address"
        },
        {
          "internalType": "bytes",
          "name": "data",
          "type": "bytes"
        }
      ],
      "name": "upgradeToAndCall",
      "outputs": [],
      "stateMutability": "payable",
      "type": "function"
    },
    {
      "inputs": [],
      "name": "wrappedTokenBeacon",
      "outputs": [
        {
          "internalType": "address",
          "name": "",
          "type": "address"
        }
      ],
      "stateMutability": "view",
      "type": "function"
    }
  ],
  "bytecode": "0x60a0806040523461002a57306080526133f290816100308239608051818181611edb0152611f8a0152f35b600080fdfe60808060405260043610156200001457600080fd5b60003560e01c90816307569339146200244657508063081da8c114620023e8578063276c1ac0146200239b57806342907696146200237057806347bbbdf51462002314578063485cc95514620021575780634f1ef2861462001f4657806352d1902d1462001ec6578063602db8901462001e7a578063715018a61462001e0b5780637e1aa1781462001dbc5780637ecebe001462001d7e5780638406c0791462001d53578063893d20e81462001d1a5780638da5cb5b1462001d1a5780638f2dd2de1462001ccb578063a42dce801462001c6a578063ad3cb1cc1462001c1a578063b5057a7b1462001bef578063bc04f56114620003bf578063c415b95c1462000394578063d3c7c2c714620002c4578063d8397fd5146200027d5763f2fde38b146200014057600080fd5b346200025157602036600319011262000251576200015d6200246c565b62000167620028ce565b6001600160a01b03818116919082156200026b576000546000805160206200337d8339815191525460405163031fb6df60e31b81529083166001600160a01b039081166004830152841660248201529160209183916044918391165afa9081156200025f5760009162000218575b5015620002065762000204916001600160601b0360a01b6002541617600255620001fe620028ce565b62002b4c565b005b60405163b012a29560e01b8152600490fd5b90506020813d60201162000256575b816200023660209383620024c8565b810103126200025157518015158103620002515738620001d5565b600080fd5b3d915062000227565b6040513d6000823e3d90fd5b60405163d92e233d60e01b8152600490fd5b346200025157602036600319011262000251576004356007548110156200025157620002ab60209162002608565b905460405160039290921b1c6001600160a01b03168152f35b34620002515760003660031901126200025157604051806007548083526020809301809160076000527fa66cc928b5edb82af9bd49922954155ab7b0942694bea4ce44661d9a8736c6889060005b86828210620003765786866200032b82880383620024c8565b604051928392818401908285525180915260408401929160005b8281106200035557505050500390f35b83516001600160a01b03168552869550938101939281019260010162000345565b83546001600160a01b03168552909301926001928301920162000312565b346200025157600036600319011262000251576002546040516001600160a01b039091168152602090f35b6101003660031901126200025157620003d76200246c565b6001600160401b0360243511620002515760806024353603600319011262000251576044356001600160401b03811162000251576200041b903690600401620025a5565b90916064356001600160401b03811162000251576200043f903690600401620025a5565b9290936001600160401b0360843511620002515760c06084353603600319011262000251576001600160401b0360a435116200025157620004863660a435600401620025d8565b6001600160401b0360c43511620002515760c060c4353603600319011262000251576001600160401b0360e435116200025157620004ca3660e435600401620025d8565b91909260026000805160206200339d833981519152541462001bdd5760026000805160206200339d833981519152553360005260066020526040600020549160405160208101906200053b816200052c878d8d8d6084356004019289620026fe565b03601f198101835282620024c8565b5190206001600160a01b036200055660843560a40162002876565b16156200026b576040620005756024608435016084356004016200288b565b90500362001bcb57620005bb620005c293620005b2620005ac620005a46024608435016084356004016200288b565b369162002506565b62002656565b93369162002506565b9062002909565b156200152e576001600160a01b03620005e060c43560a40162002876565b1662001b24575b50505060005b8281106200181b57506001600160a01b03915062000612905060c43560a40162002876565b161515928262000af6575b505050600014620008fe576000546001600160a01b03166200064960843560248101906004016200288b565b91906200065b60446084350162002876565b926200066c60646084350162002876565b936200067c608480350162002876565b6200068c60a46084350162002876565b620006a2602460c4350160c4356004016200288b565b90620006b3604460c4350162002876565b94620006c4606460c4350162002876565b92620006d5608460c4350162002876565b94620006e660a460c4350162002876565b968b3b1562000251576040516385687dcd60e01b815261014060048201529c8d9b8c9b6200071b916101448e019190620026dd565b6001600160a01b0395861660248d015290851660448c015290841660648b0152921660848901528782036003190160a48901526200075992620026dd565b6001600160a01b0394851660c487015290841660e4860152908316610104850152911661012483015203815a6000948591f180156200025f57620008ec575b506000805160206200337d833981519152546001600160a01b031633811462000807575b505b336000526006602052604060002080549060028201809211620007f1575560016000805160206200339d83398151915255005b634e487b7160e01b600052601160045260246000fd5b62000817604460c4350162002876565b62000821620028ce565b6001600160a01b0381169182156200026b5760005460405163031fb6df60e31b81526001600160a01b03928316600482015283831660248201529160209183916044918391165afa9081156200025f57600091620008aa575b50156200020657620008a3916001600160601b0360a01b6002541617600255620001fe620028ce565b80620007bc565b90506020813d602011620008e3575b81620008c860209383620024c8565b8101031262000251575180151581036200025157836200087a565b3d9150620008b9565b620008f790620024b4565b8062000798565b6000546001600160a01b03166200091f60843560248101906004016200288b565b6200093260446084949394350162002876565b916200094360646084350162002876565b9362000953608480350162002876565b6200096360a46084350162002876565b93833b1562000251576000956200099c958793604051998a98899788966330a6293b60e11b885260a0600489015260a4880191620026dd565b6001600160a01b039485166024870152908416604486015290831660648501529116608483015203925af180156200025f5762000ae4575b506000805160206200337d833981519152546001600160a01b0316338114620009ff575b50620007be565b62000a0f60446084350162002876565b62000a19620028ce565b6001600160a01b0381169182156200026b5760005460405163031fb6df60e31b81526001600160a01b03928316600482015283831660248201529160209183916044918391165afa9081156200025f5760009162000aa2575b5015620002065762000a9b916001600160601b0360a01b6002541617600255620001fe620028ce565b80620009f8565b90506020813d60201162000adb575b8162000ac060209383620024c8565b81010312620002515751801515810362000251578362000a72565b3d915062000ab1565b62000aef90620024b4565b80620009d4565b8315620018055762000b0d604460c4350162002876565b6000938480805b83811062001731575b50156200171f5780620016fb575b62000206576000929192935b81851062000b735750505050508062000b53575b80806200061d565b341062000b61578162000b4b565b604051631e9acf1760e31b8152600490fd5b62000b8f62000b898684869798999a9662002961565b62002993565b80519097600194909160009081906001600160a01b0386811691161462001635575b8a516001600160a01b0316151591826200162b575b508162001621575b506200157a575b841562001410575b88516001600160a01b03161593600091825b60c08c0151805185101562001373578462000c0a9162002b15565b5180519091906001600160a01b0316156200026b5760208201518d81156200136657602001511062001354578c60608301511515806200133d575b1562000ebb57516040516370a0823160e01b815233600482015290602090829060249082906001600160a01b03165afa9081156200025f5760009162000e83575b50602083015180911062000251578d5162000caf9190309033906001600160a01b031662002c04565b8c51602083015191906001600160a01b0316803b156200025157604051632770a7eb60e21b815230600482015260248101939093526000908390604490829084905af19283156200025f578e62000dd69360019562000e71575b50848060a01b0381511660005260056020528d6040600020906040519162000d318362002498565b878060a01b03815416835287808060a01b03910154166020830152670de0b6b3a764000062000d6b60208601516024803501359062002b2a565b049062000d7d82602087015162002b3e565b90888060a01b03845116801560001462000e2e575062000d9f92935062002c61565b8062000e12575b505b8d62000dbe602083015160208501519062002b3e565b918262000de0575b5050506020905b015190620028c0565b935b019262000bef565b9362000e018362000e0794936020969733908b8060a01b0390511662002c04565b620028c0565b91908f8e9062000dc6565b62000e2790868060a01b036002541662002c61565b3862000da6565b9062000e3b929162002c7f565b8062000e4a575b505062000da8565b62000e6991878060a01b03905116878060a01b03600254169062002c7f565b388062000e42565b62000e7c90620024b4565b3862000d09565b90506020813d60201162000eb2575b8162000ea160209383620024c8565b810103126200025157518e62000c86565b3d915062000e92565b5060a082015115158062001326575b1562000f57578c51825160208401516001600160a01b03928316939290911690833b156200025157604051632770a7eb60e21b81526001600160a01b0390921660048301526024820152916000908390818381604481015b03925af180156200025f5760019362000dd69360209262000f45575b5062000dcd565b62000f5090620024b4565b3862000f3e565b60808201511515806200130f575b1562000feb5762000f9a670de0b6b3a764000062000f8e60208501516024803501359062002b2a565b04602084015162002b3e565b8d5183516001600160a01b039182169392911690833b1562000251576040516340c10f1960e01b81526001600160a01b03909216600483015260248201529160009083908183816044810162000f22565b8c896040840151151580620012f8575b156200128f57505060018060a01b038d51166000526005602052604060002090604051916200102a8362002498565b80546001600160a01b03908116845260019091015416602083015288620012765781516040516370a0823160e01b815233600482015290602090829060249082906001600160a01b03165afa9081156200025f576000916200123e575b5060208401511162000251575b620010e0670de0b6b3a7640000620010b760208601516024803501359062002b2a565b04928a15620011ed5783620011ce575b602060018060a01b039101511692602085015162002b3e565b91803b1562000251576040516340c10f1960e01b81526001600160a01b038e16600482015260248101939093526000908390604490829084905af19283156200025f578c8f62000dd694600196620011bc575b506020830151602082015180821062001154575b5050505060209062000dcd565b90620011609162002b3e565b918b8362001172575b81935062001147565b918360209596926200119b95948a8060a01b031615600014620011a65762000e01925062002c61565b91908f8e8b62001169565b62000e019233908b8060a01b0390511662002c04565b620011c790620024b4565b3862001133565b600254620011e79085906001600160a01b031662002c61565b620010c7565b6200121660018060a01b038251166200120b86602089015162002b3e565b903090339062002c04565b8315620010c7578051600254620011e79186916001600160a01b039081169133911662002c04565b90506020813d6020116200126d575b816200125c60209383620024c8565b810103126200025157518f62001087565b3d91506200124d565b956200128890602084015190620028c0565b9562001094565b60019362000dd69392602092620012a7575062000dcd565b8b15620012ce5750620012c7858060a01b03825116838301519062002c61565b8f62000f3e565b620012f290868060a01b03905116868060a01b038351168484015191339062002c04565b620012c7565b5081516001600160a01b038a811691161462000ffb565b508c516001600160a01b0388811691161462000f65565b508c516001600160a01b0388811691161462000eca565b5080516001600160a01b0389811691161462000c45565b60405163143d1ae760e21b8152600490fd5b5050936001915062000dd8565b509399949896919550999150620013ae575b60200151036200139c576001019392919262000b37565b6040516312171d8360e31b8152600490fd5b620013be82602083015162002b3e565b80620013cc575b5062001385565b9091602091620013f1916001600160a01b038a16620013f95762000e01828962002c61565b9190620013c5565b62000e0182893360018060a01b0389511662002c04565b6001600160a01b03838116906200142c60046024350162002876565b160362001556574260446024350135106200156857670de0b6b3a76400006024803501351162001556576200146660243560040162002876565b6040519060018060a01b0316602082015260248035013560408201526060604460243501358183015281528060808101106001600160401b03608083011117620015405760808101604052602081519101207f19457468657265756d205369676e6564204d6573736167653a0a333200000000600052601c52620015176200150d603c60002062001506620005a46064602435016024356004016200288b565b9062002cc4565b9092919262002d03565b6003546001600160a01b0391821691161462000bdd575b604051638baa579f60e01b8152600490fd5b634e487b7160e01b600052604160045260246000fd5b604051630adad23360e31b8152600490fd5b6040516305787bdf60e01b8152600490fd5b604089015142116200156857885160208a015160408b015160608c015160808d015160a08e015160ff909216946001600160a01b03169390843b15620002515760009460e4938692604051988997889663d505accf60e01b885233600489015230602489015260448801526064870152608486015260a485015260c48401525af180156200025f576200160f575b5062000bd5565b6200161a90620024b4565b8962001608565b9050158a62000bce565b1591508b62000bc6565b9997959392949190989660005b60c08a01518051821015620016e957816200165d9162002b15565b51604081015115801590620016db575b8015620016cd575b8015620016bf575b620016b5575b6080810151620016ab575b60a00151620016a1575b60010162001642565b60019b5062001698565b60019b506200168e565b6000965062001683565b5060a081015115156200167d565b506060810151151562001675565b50608081015115156200166d565b50509698909194929395979962000bb1565b506000805160206200337d833981519152546001600160a01b031633141562000b2b565b604051633bee968760e01b8152600490fd5b6200174262000b8982868962002961565b80516001600160a01b03168015620017fb575b6001600160a01b0389161462001770575b5060010162000b14565b979593919096949260c060009901985b89518051821015620017e95781620017989162002b15565b5160808101511590811591620017da575b50620017b85760010162001780565b5050909294965060019591939591825b620017d4578962001766565b62000b1d565b60a09150015115158c620017a9565b505080939597919294969850620017c8565b6001935062001755565b6200181560446084350162002876565b62000b0d565b8060051b820135607e1983360301811215620002515760808184013603126200025157604051908160808101106001600160401b036080840111176200154057608082016040526200186f81850162002483565b82526001600160401b03602082860101351162000251576200189a3685830160208101350162002542565b60208301526001600160401b0360408286010135116200025157620018c83685830160408101350162002542565b6040830152620018de6060809286010162002483565b8282015281516001600160a01b039081166000908152600560205260409020600101541662001b12578101516001600160a01b0316801562001a2e575b8151604051906001600160a01b0316620019358262002498565b81526001600160a01b0391821660208083018281528551851660009081526005909252604091829020935184549086166001600160a01b031991821617855590516001948501805491871691831691909117905585519151929490939291166200199f8262002498565b815260208101938085526000526005602052604060002090828060a01b0390511683825416178155019160018060a01b039051169082541617905560018060a01b03905116906007549168010000000000000000831015620015405762001a0e83600180950160075562002608565b819291549060031b91821b91858060a01b03901b191617905501620005ed565b5062001a7662001aa46020830151604084015162001a8960018060a01b0360005416916040519586946323c56d0560e21b60208701526080602487015260a486019062002563565b8481036023190160448601529062002563565b90306064840152608483015203601f198101835282620024c8565b60045460405191906001600160a01b03166001600160401b036104948401908111908411176200154057829162001af79161049462002ee985396104948401908152604060208201819052019062002563565b03906000f080156200025f576001600160a01b03166200191b565b604051636bb9e87d60e01b8152600490fd5b600181018111620007f15760405162001b53816200052c600160208301950160c4356004018a8a8d89620026fe565b519020604062001b6e602460c4350160c4356004016200288b565b90500362001bcb576001600160a01b0362001b8e60c43560a40162002876565b16156200026b57620005bb62001bbc93620005b2620005ac620005a4602460c4350160c4356004016200288b565b156200152e57858080620005e7565b60405163145a1fdd60e31b8152600490fd5b604051633ee5aeb560e01b8152600490fd5b346200025157600036600319011262000251576000546040516001600160a01b039091168152602090f35b3462000251576000366003190112620002515762001c6660405162001c3f8162002498565b60058152640352e302e360dc1b602082015260405191829160208352602083019062002563565b0390f35b3462000251576020366003190112620002515762001c876200246c565b62001c91620028ce565b6001600160a01b0316801562001cb9576001600160601b0360a01b6002541617600255600080f35b60405163bb0bac9960e01b8152600490fd5b3462000251576020366003190112620002515762001ce86200246c565b62001cf2620028ce565b6001600160a01b031680156200026b576001600160601b0360a01b6004541617600455600080f35b346200025157600036600319011262000251576000805160206200337d833981519152546040516001600160a01b039091168152602090f35b346200025157600036600319011262000251576001546040516001600160a01b039091168152602090f35b346200025157602036600319011262000251576001600160a01b0362001da36200246c565b1660005260066020526020604060002054604051908152f35b3462000251576020366003190112620002515762001dd96200246c565b62001de3620028ce565b6001600160a01b031680156200026b576001600160601b0360a01b6003541617600355600080f35b3462000251576000366003190112620002515762001e28620028ce565b6000805160206200337d83398151915280546001600160a01b031981169091556000906001600160a01b03167f8be0079c531659141344cd1fd0a4f28419497f9722a3daafe3b4186f6b6457e08280a3005b3462000251576020366003190112620002515762001e976200246c565b62001ea1620028ce565b479081156200025157600080809381935af162001ebd62002674565b50156200025157005b346200025157600036600319011262000251577f00000000000000000000000000000000000000000000000000000000000000006001600160a01b0316300362001f345760206040517f360894a13ba1a3210667c828492db98dca3e2076cc3735a920a3ca505d382bbc8152f35b60405163703e46dd60e11b8152600490fd5b6040366003190112620002515762001f5d6200246c565b6024356001600160401b038111620002515762001f7f90369060040162002542565b906001600160a01b037f0000000000000000000000000000000000000000000000000000000000000000811630811490811562002128575b5062001f345762001fc7620028ce565b8116906040516352d1902d60e01b8152602081600481865afa60009181620020ee575b506200200957604051634c9c8ce360e01b815260048101849052602490fd5b7f360894a13ba1a3210667c828492db98dca3e2076cc3735a920a3ca505d382bbc92919290818103620020d65750823b15620020bd5780546001600160a01b03191682179055604051907fbc7cd75a20ee27fd9adebab32041f755214dbc6bffa90cc0225b39da2e5c2d3b600080a2825115620020a357506000808360206200020495519101845af46200209c62002674565b9162002ded565b91505034620020ae57005b63b398979f60e01b8152600490fd5b604051634c9c8ce360e01b815260048101839052602490fd5b60249060405190632a87526960e21b82526004820152fd5b9091506020813d6020116200211f575b816200210d60209383620024c8565b81010312620002515751908562001fea565b3d9150620020fe565b9050817f360894a13ba1a3210667c828492db98dca3e2076cc3735a920a3ca505d382bbc541614158462001fb7565b34620002515760403660031901126200025157620021746200246c565b6001600160a01b03906024358281169081900362000251577ff0c57e16840df040f15088dc2f81fe391c3923bec73e23a9662efc9c229c6a009283549260ff8460401c1615936001600160401b038116801590816200230b575b600114908162002300575b159081620022f6575b50620022e45767ffffffffffffffff198116600117865584620022c4575b506200220b62002bc2565b6200221562002bc2565b620022203362002b4c565b6200222a62002bc2565b6200223462002bc2565b6200223e62002bc2565b60016000805160206200339d833981519152551680156200026b576001600160601b0360a01b908160005416176000553381600254161760025560045416176004556200228757005b68ff00000000000000001981541690557fc7f505b2f371ae2175ee4913f4499e1f2633a7b5936321eed1cdaeb6115181d2602060405160018152a1005b68ffffffffffffffffff1916680100000000000000011785558562002200565b60405163f92ee8a960e01b8152600490fd5b90501587620021e2565b303b159150620021d9565b869150620021ce565b346200025157602036600319011262000251576001600160a01b03806200233a6200246c565b16600090815260056020908152604091829020805460019091015483516001600160a01b03928616831681529416169083015290f35b346200025157600036600319011262000251576004546040516001600160a01b039091168152602090f35b346200025157602036600319011262000251576004356001600160401b0381116200025157620023d6620005ac602092369060040162002542565b6040516001600160a01b039091168152f35b346200025157602036600319011262000251576020806001600160a01b0380620024116200246c565b1660005260058252604060002090600160405192620024308462002498565b8281541684520154169182910152604051908152f35b346200025157600036600319011262000251576003546001600160a01b03168152602090f35b600435906001600160a01b03821682036200025157565b35906001600160a01b03821682036200025157565b604081019081106001600160401b038211176200154057604052565b6001600160401b0381116200154057604052565b90601f801991011681019081106001600160401b038211176200154057604052565b6001600160401b0381116200154057601f01601f191660200190565b9291926200251482620024ea565b91620025246040519384620024c8565b82948184528183011162000251578281602093846000960137010152565b9080601f830112156200025157816020620025609335910162002506565b90565b919082519283825260005b84811062002590575050826000602080949584010152601f8019910116010190565b6020818301810151848301820152016200256e565b9181601f8401121562000251578235916001600160401b03831162000251576020808501948460051b0101116200025157565b9181601f8401121562000251578235916001600160401b0383116200025157602083818601950101116200025157565b600754811015620026405760076000527fa66cc928b5edb82af9bd49922954155ab7b0942694bea4ce44661d9a8736c6880190600090565b634e487b7160e01b600052603260045260246000fd5b604081510362001bcb5780516020909101206001600160a01b031690565b3d15620026a4573d906200268882620024ea565b91620026986040519384620024c8565b82523d6000602084013e565b606090565b9035601e1982360301811215620002515701602081359101916001600160401b038211620002515781360383136200025157565b908060209392818452848401376000828201840152601f01601f1916010190565b94929095936080928387019060018060a01b0380991688528360209286848b01525260a0880160a08560051b8a010194826000906000915b838310620027d15750505050505096620027c860a08093620027858a9b8b604060609b9c9d8a039101528235885260c06200277482850185620026a9565b9190928a015260c0890191620026dd565b9684620027956040840162002483565b16604088015284620027a98a840162002483565b168988015284620027bc82840162002483565b16908701520162002483565b16910152930152565b909192939497609f198d82030186528835607e19843603018112156200287257878f6001938d6200284f62002831898697019285620028108562002483565b1685526200282187850185620026a9565b90918089880152860191620026dd565b60406200284181850185620026a9565b9186840390870152620026dd565b926200285f606080930162002483565b169101529a019601949301919062002736565b8280fd5b356001600160a01b0381168103620002515790565b903590601e19813603018212156200025157018035906001600160401b03821162000251576020019181360383136200025157565b91908201809211620007f157565b6000805160206200337d833981519152546001600160a01b03163303620028f157565b60405163118cdaa760e01b8152336004820152602490fd5b62002950929162002946917f19457468657265756d205369676e6564204d6573736167653a0a333200000000600052601c52603c60002062002cc4565b9093919362002d03565b6001600160a01b0391821691161490565b9190811015620026405760051b8101359060de198136030182121562000251570190565b359081151582036200025157565b60e081360312620002515760408051916001600160401b0360e084018181118582101762001540578352620029c88262002483565b845260208083013581860152838301358486015260608084013560ff81168103620002515760608701526080926080850135608088015260a08086013560a089015260c09586810135908382116200025157019436601f870112156200025157853593838511620015405788519862002a47878760051b018b620024c8565b858a528689818c0197028901019736891162000251578701955b88871062002a785750505050505050505082015290565b898736031262000251578151908a8201908282108883111762002b00578b928a92855262002aa68a62002483565b8152828a01358382015262002abd858b0162002985565b8582015262002ace868b0162002985565b8682015262002adf878b0162002985565b8782015262002af0888b0162002985565b8882015281520196019562002a61565b60246000634e487b7160e01b81526041600452fd5b8051821015620026405760209160051b010190565b81810292918115918404141715620007f157565b91908203918211620007f157565b6001600160a01b0390811690811562002ba9576000805160206200337d83398151915280546001600160a01b031981168417909155167f8be0079c531659141344cd1fd0a4f28419497f9722a3daafe3b4186f6b6457e0600080a3565b604051631e4fbdf760e01b815260006004820152602490fd5b60ff7ff0c57e16840df040f15088dc2f81fe391c3923bec73e23a9662efc9c229c6a005460401c161562002bf257565b604051631afcd79f60e31b8152600490fd5b6040516323b872dd60e01b60208201526001600160a01b03928316602482015292909116604483015260648083019390935291815260a08101918183106001600160401b03841117620015405762002c5f9260405262002d8d565b565b60008080938193617530f162002c7662002674565b50156200139c57565b60405163a9059cbb60e01b60208201526001600160a01b0392909216602483015260448083019390935291815262002c5f9162002cbe606483620024c8565b62002d8d565b815191906041830362002cf85762002cf192506020820151906060604084015193015160001a9062002e55565b9192909190565b505060009160029190565b600481101562002d77578062002d17575050565b6001810362002d325760405163f645eedf60e01b8152600490fd5b6002810362002d545760405163fce698f760e01b815260048101839052602490fd5b60031462002d5f5750565b602490604051906335e2f38360e21b82526004820152fd5b634e487b7160e01b600052602160045260246000fd5b906000602091828151910182855af1156200025f576000513d62002de357506001600160a01b0381163b155b62002dc15750565b604051635274afe760e01b81526001600160a01b039091166004820152602490fd5b6001141562002db9565b9062002e16575080511562002e0457805190602001fd5b60405163d6bda27560e01b8152600490fd5b8151158062002e4b575b62002e29575090565b604051639996b31560e01b81526001600160a01b039091166004820152602490fd5b50803b1562002e20565b91907f7fffffffffffffffffffffffffffffff5d576e7357a4501ddfe92f46681b20a0841162002edc57926020929160ff608095604051948552168484015260408301526060820152600092839182805260015afa1562002ed05780516001600160a01b0381161562002ec757918190565b50809160019190565b604051903d90823e3d90fd5b5050506000916003919056fe60a0604090808252346101eb57610494803803809161001e828561029a565b8339810182828203126101eb57610034826102d3565b60208084015191939091906001600160401b0382116101eb570182601f820112156101eb57805190610065826102e7565b936100728751958661029a565b8285528383830101116101eb57829060005b83811061028657505060009184010152823b15610266577fa3f0ad74e5423aebfd80d3ef4346578335a9a72aeaee59ff6cb3582b35133d5080546001600160a01b0319166001600160a01b038581169182179092558551635c60da1b60e01b8082529194928482600481895afa91821561025b57600092610224575b50813b1561020b575050837f1cf3b03a6cf19fa2baba4df148e9dcabedea7f8a5c07840e207e5c089be95d3e600080a2815115610202578290600487518096819382525afa9283156101f7576000936101b5575b5091600080848461019296519101845af4903d156101ac573d610176816102e7565b906101838851928361029a565b8152600081943d92013e610302565b505b6080525161012e908161036682396080518160180152f35b60609250610302565b92508183813d83116101f0575b6101cc818361029a565b810103126101eb576000806101e3610192956102d3565b945050610154565b600080fd5b503d6101c2565b85513d6000823e3d90fd5b50505050610194565b8751634c9c8ce360e01b81529116600482015260249150fd5b9091508481813d8311610254575b61023c818361029a565b810103126101eb5761024d906102d3565b9038610100565b503d610232565b88513d6000823e3d90fd5b8351631933b43b60e21b81526001600160a01b0384166004820152602490fd5b818101830151868201840152849201610084565b601f909101601f19168101906001600160401b038211908210176102bd57604052565b634e487b7160e01b600052604160045260246000fd5b51906001600160a01b03821682036101eb57565b6001600160401b0381116102bd57601f01601f191660200190565b90610329575080511561031757805190602001fd5b60405163d6bda27560e01b8152600490fd5b8151158061035c575b61033a575090565b604051639996b31560e01b81526001600160a01b039091166004820152602490fd5b50803b1561033256fe60806040819052635c60da1b60e01b81526020816004817f00000000000000000000000000000000000000000000000000000000000000006001600160a01b03165afa90811560a9576000916054575b5060da565b905060203d60201160a3575b601f8101601f191682019167ffffffffffffffff831181841017608d576088926040520160b5565b38604f565b634e487b7160e01b600052604160045260246000fd5b503d6060565b6040513d6000823e3d90fd5b602090607f19011260d5576080516001600160a01b038116810360d55790565b600080fd5b6000808092368280378136915af43d82803e1560f4573d90f35b3d90fdfea2646970667358221220b642a315c875b99fe477933660ffe34497f9b4c9976cb8843c721c1c7db2123d64736f6c634300081800339016d09d72d40fdae2fd8ceac6b6234c7706214fd39c1cd1e609a0528c1993009b779b17422d0df92223018b32b4d1fa46e071723d6817e2486d003becc55f00a26469706673582212206c29aa76f0dc8ce2527b88a555c885efd668ac579a5a0cf246c69726674e396564736f6c63430008180033",
  "linkReferences": {},
  "deployedLinkReferences": {}
}