{
  "_format": "hh-sol-artifact-1",
  "contractName": "Bridge",
  "sourceName": "contracts/Bridge.sol",
  "abi": [
    {
      "inputs": [
        {
          "internalType": "address",
          "name": "target",
          "type": "address"
        }
      ],
      "name": "AddressEmptyCode",
      "type": "error"
    },
    {
      "inputs": [],
      "name": "AmountTooLow",
      "type": "error"
    },
    {
      "inputs": [],
      "name": "BurnAmountZero",
      "type": "error"
    },
    {
      "inputs": [],
      "name": "ECDSAInvalidSignature",
      "type": "error"
    },
    {
      "inputs": [
        {
          "internalType": "uint256",
          "name": "length",
          "type": "uint256"
        }
      ],
      "name": "ECDSAInvalidSignatureLength",
      "type": "error"
    },
    {
      "inputs": [
        {
          "internalType": "bytes32",
          "name": "s",
          "type": "bytes32"
        }
      ],
      "name": "ECDSAInvalidSignatureS",
      "type": "error"
    },
    {
      "inputs": [
        {
          "internalType": "address",
          "name": "implementation",
          "type": "address"
        }
      ],
      "name": "ERC1967InvalidImplementation",
      "type": "error"
    },
    {
      "inputs": [],
      "name": "ERC1967NonPayable",
      "type": "error"
    },
    {
      "inputs": [],
      "name": "EthTransferFailed",
      "type": "error"
    },
    {
      "inputs": [],
      "name": "FailedCall",
      "type": "error"
    },
    {
      "inputs": [],
      "name": "FeeTransferFailed",
      "type": "error"
    },
    {
      "inputs": [],
      "name": "InsufficientAllowance",
      "type": "error"
    },
    {
      "inputs": [
        {
          "internalType": "address",
          "name": "token",
          "type": "address"
        }
      ],
      "name": "InsufficientPermits",
      "type": "error"
    },
    {
      "inputs": [],
      "name": "InvalidFeeCollector",
      "type": "error"
    },
    {
      "inputs": [],
      "name": "InvalidFeeRate",
      "type": "error"
    },
    {
      "inputs": [],
      "name": "InvalidInitialization",
      "type": "error"
    },
    {
      "inputs": [],
      "name": "InvalidPrerotatedKeyHash",
      "type": "error"
    },
    {
      "inputs": [],
      "name": "InvalidPublicKey",
      "type": "error"
    },
    {
      "inputs": [],
      "name": "InvalidRecipientAmount",
      "type": "error"
    },
    {
      "inputs": [],
      "name": "InvalidSignature",
      "type": "error"
    },
    {
      "inputs": [],
      "name": "MissingPermit",
      "type": "error"
    },
    {
      "inputs": [],
      "name": "NoTokenPairs",
      "type": "error"
    },
    {
      "inputs": [],
      "name": "NotInitializing",
      "type": "error"
    },
    {
      "inputs": [
        {
          "internalType": "address",
          "name": "owner",
          "type": "address"
        }
      ],
      "name": "OwnableInvalidOwner",
      "type": "error"
    },
    {
      "inputs": [
        {
          "internalType": "address",
          "name": "account",
          "type": "address"
        }
      ],
      "name": "OwnableUnauthorizedAccount",
      "type": "error"
    },
    {
      "inputs": [],
      "name": "PermitDeadlineExpired",
      "type": "error"
    },
    {
      "inputs": [],
      "name": "ReentrancyGuardReentrantCall",
      "type": "error"
    },
    {
      "inputs": [],
      "name": "RestrictedToOwnerRelayer",
      "type": "error"
    },
    {
      "inputs": [
        {
          "internalType": "address",
          "name": "token",
          "type": "address"
        }
      ],
      "name": "SafeERC20FailedOperation",
      "type": "error"
    },
    {
      "inputs": [],
      "name": "TokenPairExists",
      "type": "error"
    },
    {
      "inputs": [],
      "name": "TokenPairNotSupported",
      "type": "error"
    },
    {
      "inputs": [],
      "name": "TransferFailed",
      "type": "error"
    },
    {
      "inputs": [],
      "name": "UUPSUnauthorizedCallContext",
      "type": "error"
    },
    {
      "inputs": [
        {
          "internalType": "bytes32",
          "name": "slot",
          "type": "bytes32"
        }
      ],
      "name": "UUPSUnsupportedProxiableUUID",
      "type": "error"
    },
    {
      "inputs": [],
      "name": "ZeroAddress",
      "type": "error"
    },
    {
      "anonymous": false,
      "inputs": [
        {
          "indexed": false,
          "internalType": "uint64",
          "name": "version",
          "type": "uint64"
        }
      ],
      "name": "Initialized",
      "type": "event"
    },
    {
      "anonymous": false,
      "inputs": [
        {
          "indexed": true,
          "internalType": "address",
          "name": "previousOwner",
          "type": "address"
        },
        {
          "indexed": true,
          "internalType": "address",
          "name": "newOwner",
          "type": "address"
        }
      ],
      "name": "OwnershipTransferred",
      "type": "event"
    },
    {
      "anonymous": false,
      "inputs": [
        {
          "indexed": true,
          "internalType": "address",
          "name": "implementation",
          "type": "address"
        }
      ],
      "name": "Upgraded",
      "type": "event"
    },
    {
      "inputs": [],
      "name": "UPGRADE_INTERFACE_VERSION",
      "outputs": [
        {
          "internalType": "string",
          "name": "",
          "type": "string"
        }
      ],
      "stateMutability": "view",
      "type": "function"
    },
    {
      "inputs": [
        {
          "internalType": "address",
          "name": "to",
          "type": "address"
        }
      ],
      "name": "emergencyWithdrawBNB",
      "outputs": [],
      "stateMutability": "nonpayable",
      "type": "function"
    },
    {
      "inputs": [],
      "name": "feeCollector",
      "outputs": [
        {
          "internalType": "address",
          "name": "",
          "type": "address"
        }
      ],
      "stateMutability": "view",
      "type": "function"
    },
    {
      "inputs": [],
      "name": "feeSigner",
      "outputs": [
        {
          "internalType": "address",
          "name": "",
          "type": "address"
        }
      ],
      "stateMutability": "view",
      "type": "function"
    },
    {
      "inputs": [
        {
          "internalType": "bytes",
          "name": "publicKey",
          "type": "bytes"
        }
      ],
      "name": "getAddressFromPublicKey",
      "outputs": [
        {
          "internalType": "address",
          "name": "",
          "type": "address"
        }
      ],
      "stateMutability": "pure",
      "type": "function"
    },
    {
      "inputs": [],
      "name": "getOwner",
      "outputs": [
        {
          "internalType": "address",
          "name": "",
          "type": "address"
        }
      ],
      "stateMutability": "view",
      "type": "function"
    },
    {
      "inputs": [],
      "name": "getSupportedTokens",
      "outputs": [
        {
          "internalType": "address[]",
          "name": "",
          "type": "address[]"
        }
      ],
      "stateMutability": "view",
      "type": "function"
    },
    {
      "inputs": [
        {
          "internalType": "address",
          "name": "_keyLogRegistry",
          "type": "address"
        }
      ],
      "name": "initialize",
      "outputs": [],
      "stateMutability": "nonpayable",
      "type": "function"
    },
    {
      "inputs": [],
      "name": "keyLogRegistry",
      "outputs": [
        {
          "internalType": "contract KeyLogRegistry",
          "name": "",
          "type": "address"
        }
      ],
      "stateMutability": "view",
      "type": "function"
    },
    {
      "inputs": [
        {
          "internalType": "address",
          "name": "",
          "type": "address"
        }
      ],
      "name": "nonces",
      "outputs": [
        {
          "internalType": "uint256",
          "name": "",
          "type": "uint256"
        }
      ],
      "stateMutability": "view",
      "type": "function"
    },
    {
      "inputs": [
        {
          "internalType": "address",
          "name": "originalToken",
          "type": "address"
        }
      ],
      "name": "originalToWrapped",
      "outputs": [
        {
          "internalType": "address",
          "name": "",
          "type": "address"
        }
      ],
      "stateMutability": "view",
      "type": "function"
    },
    {
      "inputs": [],
      "name": "owner",
      "outputs": [
        {
          "internalType": "address",
          "name": "",
          "type": "address"
        }
      ],
      "stateMutability": "view",
      "type": "function"
    },
    {
      "inputs": [],
      "name": "proxiableUUID",
      "outputs": [
        {
          "internalType": "bytes32",
          "name": "",
          "type": "bytes32"
        }
      ],
      "stateMutability": "view",
      "type": "function"
    },
    {
      "inputs": [
        {
          "internalType": "address",
          "name": "token",
          "type": "address"
        },
        {
          "components": [
            {
              "internalType": "address",
              "name": "token",
              "type": "address"
            },
            {
              "internalType": "uint256",
              "name": "fee",
              "type": "uint256"
            },
            {
              "internalType": "uint256",
              "name": "expires",
              "type": "uint256"
            },
            {
              "internalType": "bytes",
              "name": "signature",
              "type": "bytes"
            }
          ],
          "internalType": "struct Bridge.FeeInfo",
          "name": "fee",
          "type": "tuple"
        },
        {
          "components": [
            {
              "internalType": "address",
              "name": "originalToken",
              "type": "address"
            },
            {
              "internalType": "string",
              "name": "tokenName",
              "type": "string"
            },
            {
              "internalType": "string",
              "name": "tokenSymbol",
              "type": "string"
            },
            {
              "internalType": "address",
              "name": "wrappedToken",
              "type": "address"
            }
          ],
          "internalType": "struct Bridge.TokenPair[]",
          "name": "newTokenPairs",
          "type": "tuple[]"
        },
        {
          "components": [
            {
              "internalType": "address",
              "name": "token",
              "type": "address"
            },
            {
              "internalType": "uint256",
              "name": "amount",
              "type": "uint256"
            },
            {
              "internalType": "uint256",
              "name": "deadline",
              "type": "uint256"
            },
            {
              "internalType": "uint8",
              "name": "v",
              "type": "uint8"
            },
            {
              "internalType": "bytes32",
              "name": "r",
              "type": "bytes32"
            },
            {
              "internalType": "bytes32",
              "name": "s",
              "type": "bytes32"
            },
            {
              "components": [
                {
                  "internalType": "address",
                  "name": "recipientAddress",
                  "type": "address"
                },
                {
                  "internalType": "uint256",
                  "name": "amount",
                  "type": "uint256"
                },
                {
                  "internalType": "bool",
                  "name": "wrap",
                  "type": "bool"
                },
                {
                  "internalType": "bool",
                  "name": "unwrap",
                  "type": "bool"
                },
                {
                  "internalType": "bool",
                  "name": "mint",
                  "type": "bool"
                },
                {
                  "internalType": "bool",
                  "name": "burn",
                  "type": "bool"
                }
              ],
              "internalType": "struct Bridge.Recipient[]",
              "name": "recipients",
              "type": "tuple[]"
            }
          ],
          "internalType": "struct Bridge.PermitData[]",
          "name": "permits",
          "type": "tuple[]"
        },
        {
          "components": [
            {
              "internalType": "uint256",
              "name": "amount",
              "type": "uint256"
            },
            {
              "internalType": "bytes",
              "name": "publicKey",
              "type": "bytes"
            },
            {
              "internalType": "address",
              "name": "prerotatedKeyHash",
              "type": "address"
            },
            {
              "internalType": "address",
              "name": "twicePrerotatedKeyHash",
              "type": "address"
            },
            {
              "internalType": "address",
              "name": "prevPublicKeyHash",
              "type": "address"
            },
            {
              "internalType": "address",
              "name": "outputAddress",
              "type": "address"
            }
          ],
          "internalType": "struct Bridge.Params",
          "name": "unconfirmed",
          "type": "tuple"
        },
        {
          "internalType": "bytes",
          "name": "unconfirmedSignature",
          "type": "bytes"
        },
        {
          "components": [
            {
              "internalType": "uint256",
              "name": "amount",
              "type": "uint256"
            },
            {
              "internalType": "bytes",
              "name": "publicKey",
              "type": "bytes"
            },
            {
              "internalType": "address",
              "name": "prerotatedKeyHash",
              "type": "address"
            },
            {
              "internalType": "address",
              "name": "twicePrerotatedKeyHash",
              "type": "address"
            },
            {
              "internalType": "address",
              "name": "prevPublicKeyHash",
              "type": "address"
            },
            {
              "internalType": "address",
              "name": "outputAddress",
              "type": "address"
            }
          ],
          "internalType": "struct Bridge.Params",
          "name": "confirming",
          "type": "tuple"
        },
        {
          "internalType": "bytes",
          "name": "confirmingSignature",
          "type": "bytes"
        }
      ],
      "name": "registerKeyPairWithTransfer",
      "outputs": [],
      "stateMutability": "payable",
      "type": "function"
    },
    {
      "inputs": [],
      "name": "relayer",
      "outputs": [
        {
          "internalType": "address",
          "name": "",
          "type": "address"
        }
      ],
      "stateMutability": "view",
      "type": "function"
    },
    {
      "inputs": [],
      "name": "renounceOwnership",
      "outputs": [],
      "stateMutability": "nonpayable",
      "type": "function"
    },
    {
      "inputs": [
        {
          "internalType": "address",
          "name": "_feeCollector",
          "type": "address"
        }
      ],
      "name": "setFeeCollector",
      "outputs": [],
      "stateMutability": "nonpayable",
      "type": "function"
    },
    {
      "inputs": [
        {
          "internalType": "address",
          "name": "_signer",
          "type": "address"
        }
      ],
      "name": "setFeeSigner",
      "outputs": [],
      "stateMutability": "nonpayable",
      "type": "function"
    },
    {
      "inputs": [
        {
          "internalType": "uint256",
          "name": "",
          "type": "uint256"
        }
      ],
      "name": "supportedOriginalTokens",
      "outputs": [
        {
          "internalType": "address",
          "name": "",
          "type": "address"
        }
      ],
      "stateMutability": "view",
      "type": "function"
    },
    {
      "inputs": [
        {
          "internalType": "address",
          "name": "",
          "type": "address"
        }
      ],
      "name": "tokenPairs",
      "outputs": [
        {
          "internalType": "address",
          "name": "originalToken",
          "type": "address"
        },
        {
          "internalType": "address",
          "name": "wrappedToken",
          "type": "address"
        }
      ],
      "stateMutability": "view",
      "type": "function"
    },
    {
      "inputs": [
        {
          "internalType": "address",
          "name": "newOwner",
          "type": "address"
        }
      ],
      "name": "transferOwnership",
      "outputs": [],
      "stateMutability": "nonpayable",
      "type": "function"
    },
    {
      "inputs": [
        {
          "internalType": "address",
          "name": "newImplementation",
          "type": "address"
        },
        {
          "internalType": "bytes",
          "name": "data",
          "type": "bytes"
        }
      ],
      "name": "upgradeToAndCall",
      "outputs": [],
      "stateMutability": "payable",
      "type": "function"
    }
  ],
  "bytecode": "0x60a0806040523461002a57306080526144c490816100308239608051818181611bff0152611cae0152f35b600080fdfe60808060405260043610156200001457600080fd5b60003560e01c908163075693391462001f9157508063081da8c11462001f14578063276c1ac01462001ec757806347bbbdf51462001e7b5780634f1ef2861462001c6a57806352d1902d1462001bea578063602db8901462001b9e578063715018a61462001b2f5780637e1aa1781462001ae05780637ecebe001462001aa25780638406c0791462001a77578063893d20e81462001a3e5780638da5cb5b1462001a3e578063a42dce8014620019dd578063ad3cb1cc146200198d578063b5057a7b1462001962578063bc04f56114620004b9578063c415b95c146200048e578063c4d66de814620002e9578063d3c7c2c71462000219578063d8397fd514620001d25763f2fde38b146200012857600080fd5b34620001cd576020366003190112620001cd576200014562001fb7565b6200014f62002419565b6001600160a01b03908082168015620001bb5760025492806000805160206200444f833981519152541690841603620001a957620001a7926001600160601b0360a01b1617600255620001a162002419565b62002697565b005b60405163167c9f4d60e11b8152600490fd5b60405163d92e233d60e01b8152600490fd5b600080fd5b34620001cd576020366003190112620001cd57600435600654811015620001cd576200020060209162002153565b905460405160039290921b1c6001600160a01b03168152f35b34620001cd576000366003190112620001cd57604051806006548083526020809301809160066000527ff652222313e28459528d920b65115c16c04f3efc82aaedc97be59f3f377c0d3f9060005b86828210620002cb578686620002808288038362002013565b604051928392818401908285525180915260408401929160005b828110620002aa57505050500390f35b83516001600160a01b0316855286955093810193928101926001016200029a565b83546001600160a01b03168552909301926001928301920162000267565b34620001cd576020366003190112620001cd576200030662001fb7565b7ff0c57e16840df040f15088dc2f81fe391c3923bec73e23a9662efc9c229c6a009081549060ff8260401c1615916001600160401b0381168015908162000485575b60011490816200047a575b15908162000470575b506200045e5767ffffffffffffffff1981166001178455826200043e575b5062000385620027cd565b6200038f620027cd565b6200039a3362002697565b620003a4620027cd565b620003ae620027cd565b620003b8620027cd565b60016000805160206200446f833981519152556001600160a01b03168015620001bb576001600160601b0360a01b90816000541617600055339060025416176002556200040157005b68ff00000000000000001981541690557fc7f505b2f371ae2175ee4913f4499e1f2633a7b5936321eed1cdaeb6115181d2602060405160018152a1005b68ffffffffffffffffff191668010000000000000001178355836200037a565b60405163f92ee8a960e01b8152600490fd5b905015856200035c565b303b15915062000353565b84915062000348565b34620001cd576000366003190112620001cd576002546040516001600160a01b039091168152602090f35b610100366003190112620001cd57620004d162001fb7565b6001600160401b0360243511620001cd57608060243536036003190112620001cd576044356001600160401b038111620001cd5762000515903690600401620020f0565b906064356001600160401b038111620001cd5762000538903690600401620020f0565b9290916001600160401b0360843511620001cd5760c060843536036003190112620001cd576001600160401b0360a43511620001cd576200057f3660a43560040162002123565b6001600160401b0360c43511620001cd5760c060c43536036003190112620001cd576001600160401b0360e43511620001cd57620005c33660e43560040162002123565b91909260026000805160206200446f8339815191525414620019505760026000805160206200446f8339815191525533600052600560205260406000205491896040516200063481620006258760208301958d8d608435600401928962002249565b03601f19810183528262002013565b5190206001600160a01b036200064f60843560a401620023c1565b1615620001bb5760406200066e602460843501608435600401620023d6565b9050036200193e57620006b4620006bb93620006ab620006a56200069d602460843501608435600401620023d6565b369162002051565b620021a1565b93369162002051565b9062002454565b15620013a2576001600160a01b03620006d960c43560a401620023c1565b1662001896575b50505060005b828110620015cd57506001600160a01b0391506200070b905060c43560a401620023c1565b161515928262000afb575b50505060001462000983576000546001600160a01b0316620007426084356024810190600401620023d6565b919062000754604460843501620023c1565b9262000765606460843501620023c1565b93620007756084803501620023c1565b6200078560a460843501620023c1565b6200079b602460c4350160c435600401620023d6565b90620007ac604460c43501620023c1565b94620007bd606460c43501620023c1565b92620007ce608460c43501620023c1565b94620007df60a460c43501620023c1565b968b3b15620001cd576040516385687dcd60e01b815261014060048201529c8d9b8c9b62000814916101448e01919062002228565b6001600160a01b0395861660248d015290851660448c015290841660648b0152921660848901528782036003190160a4890152620008529262002228565b6001600160a01b0394851660c487015290841660e4860152908316610104850152911661012483015203815a6000948591f18015620009775762000965575b506000805160206200444f833981519152546001600160a01b031633811462000900575b505b336000526005602052604060002080549060028201809211620008ea575560016000805160206200446f83398151915255005b634e487b7160e01b600052601160045260246000fd5b62000910604460c43501620023c1565b6200091a62002419565b6001600160a01b0381168015620001bb57600254926001600160a01b03841603620001a9576200095e926001600160601b0360a01b1617600255620001a162002419565b80620008b5565b620009709062001fff565b8062000891565b6040513d6000823e3d90fd5b6000546001600160a01b0316620009a46084356024810190600401620023d6565b620009b7604460849493943501620023c1565b91620009c8606460843501620023c1565b93620009d86084803501620023c1565b620009e860a460843501620023c1565b93833b15620001cd5760009562000a21958793604051998a98899788966330a6293b60e11b885260a0600489015260a488019162002228565b6001600160a01b039485166024870152908416604486015290831660648501529116608483015203925af18015620009775762000ae9575b506000805160206200444f833981519152546001600160a01b031633811462000a84575b50620008b7565b62000a94604460843501620023c1565b62000a9e62002419565b6001600160a01b0381168015620001bb57600254926001600160a01b03841603620001a95762000ae2926001600160601b0360a01b1617600255620001a162002419565b8062000a7d565b62000af49062001fff565b8062000a59565b8315620015b65762000b12604460c43501620023c1565b925b6000805b828110620015815750156200156f5791906000925b80841062000b3d57505062000716565b62000b5862000b5285838699979899620024ac565b620024de565b80516001939192919060009081906001600160a01b03808516911614620014a9575b84516001600160a01b0316151591826200149f575b508162001495575b50620013ee575b600095841562001299575b83516001600160a01b03161592600091825b60c08701518051851015620011fc578462000bd69162002660565b5180519091906001600160a01b031615620001bb5760208201518015620011f057602089015110620011de576060820151151580620011c7575b1562000e00578751602083015162000c3591309033906001600160a01b03166200270d565b8751602083015191906001600160a01b0316803b15620001cd57604051632770a7eb60e21b815230600482015260248101939093526000908390604490829084905af192831562000977578e62000d549360019562000dee575b50848060a01b038b511660005260046020528d670de0b6b3a764000062000cea6040600020926040519362000cc48562001fe3565b898060a01b03815416855289808060a01b03910154166020850152602086015162002675565b0462000cfb81602086015162002689565b83888060a01b03845116801560001462000dab575062000d1d9293506200276a565b8062000d8f575b505b62000d3b60208c015160208401519062002689565b908b8262000d5e575b5050506020905b0151906200240b565b935b019262000bbb565b9362000d7f8362000d8594936020969733908b8060a01b039051166200270d565b6200240b565b91908f8b62000d44565b62000da490868060a01b03600254166200276a565b3862000d24565b9062000db8929162002788565b8062000dc7575b505062000d26565b62000de691878060a01b03905116878060a01b03600254169062002788565b388062000dbf565b62000df99062001fff565b3862000c8f565b60a0820151151580620011b0575b1562000e9b578751825160208401516001600160a01b03928316939290911690833b15620001cd57604051632770a7eb60e21b81526001600160a01b0390921660048301526024820152916000908390818381604481015b03925af18015620009775760019362000d549360209262000e89575b5062000d4b565b62000e949062001fff565b3862000e82565b608082015115158062001199575b1562000f295762000ed8670de0b6b3a764000062000ecc8d602086015162002675565b04602084015162002689565b885183516001600160a01b039182169392911690833b15620001cd576040516340c10f1960e01b81526001600160a01b03909216600483015260248201529160009083908183816044810162000e66565b88604083015115158062001182575b15620011295750670de0b6b3a764000062000f588c602085015162002675565b049060018060a01b03895116600052600460205262000fc860406000206040519062000f848262001fe3565b80546001600160a01b039081168084526001909201541660208301528a15620010e1575083620010c2575b602060018060a01b039101511692602085015162002689565b91803b15620001cd576200100d928f91600092836040518097819582946340c10f1960e01b84526004840160209093929193604081019460018060a01b031681520152565b03925af192831562000977578e62000d5493600195620010b0575b508a602083015160208201518082106200104a575b5050505060209062000d4b565b90620010569162002689565b918262001066575b91806200103d565b9382916200108f93602095968d8a8060a01b0316156000146200109a5762000d7f92506200276a565b91908f8b906200105e565b62000d7f9233908b8060a01b039051166200270d565b620010bb9062001fff565b3862001028565b600254620010db9085906001600160a01b03166200276a565b62000faf565b6200110190620010f686602089015162002689565b90309033906200270d565b831562000faf578051600254620010db9186916001600160a01b03908116913391166200270d565b90602060019362000d54931562000d4b5789156200115f5762001159858060a01b0382511683830151906200276a565b62000d4b565b62001159858060a01b038c5116868060a01b03835116848401519133906200270d565b5088516001600160a01b0388811691161462000f38565b5087516001600160a01b0387811691161462000ea9565b5087516001600160a01b0387811691161462000e0e565b5087516001600160a01b0387811691161462000c10565b60405163143d1ae760e21b8152600490fd5b50936001915062000d56565b5094509998949296975094905062001237575b6020015103620012255760010192919062000b2d565b6040516312171d8360e31b8152600490fd5b6200124782602083015162002689565b8062001255575b506200120f565b90916020916200127a916001600160a01b038816620012825762000d7f828b6200276a565b91906200124e565b62000d7f828b3360018060a01b038951166200270d565b9550426044602435013510620013dc57670de0b6b3a764000060248035013511620013ca57620012ce602435600401620023c1565b6040519060018060a01b0316602082015260248035013560408201526060604460243501358183015281528060808101106001600160401b03608083011117620013b45760808101604052602081519101207f19457468657265756d205369676e6564204d6573736167653a0a333200000000600052601c526200137f62001375603c6000206200136e6200069d606460243501602435600401620023d6565b906200280f565b909291926200284e565b6003546001600160a01b03908116911603620013a2576024803501359562000ba9565b604051638baa579f60e01b8152600490fd5b634e487b7160e01b600052604160045260246000fd5b604051630adad23360e31b8152600490fd5b6040516305787bdf60e01b8152600490fd5b60408301514211620013dc578251602084015160408501516060860151608087015160a088015160ff909216946001600160a01b03169390843b15620001cd5760009460e4938692604051988997889663d505accf60e01b885233600489015230602489015260448801526064870152608486015260a485015260c48401525af18015620009775762001483575b5062000b9e565b6200148e9062001fff565b886200147c565b9050158962000b97565b1591508a62000b8f565b9896600098969294959391985b60c087015180518210156200155d5781620014d19162002660565b516040810151158015906200154f575b801562001541575b801562001533575b62001529575b60808101516200151f575b60a0015162001515575b600101620014b6565b60019a506200150c565b60019a5062001502565b60009550620014f7565b5060a08101511515620014f1565b5060608101511515620014e9565b5060808101511515620014e1565b50509698979092949391959762000b7a565b604051633bee968760e01b8152600490fd5b6001600160a01b036200159a62000b52838689620024ac565b511615620015ac575b60010162000b18565b60019150620015a3565b620015c6604460843501620023c1565b9262000b14565b8060051b820135607e1983360301811215620001cd576080818401360312620001cd57604051908160808101106001600160401b03608084011117620013b457608082016040526200162181850162001fce565b82526001600160401b036020828601013511620001cd576200164c368583016020810135016200208d565b60208301526001600160401b036040828601013511620001cd57620016909060609062001682368783016040810135016200208d565b604085015285010162001fce565b606082015280516001600160a01b0390811660009081526004602052604090206001015416620018845760608101516001600160a01b03168015620017e3575b8151604051906001600160a01b0316620016ea8262001fe3565b81526001600160a01b0391821660208083018281528551851660009081526004909252604091829020935184549086166001600160a01b03199182161785559051600194850180549187169183169190911790558551915192949093929116620017548262001fe3565b815260208101938085526000526004602052604060002090828060a01b0390511683825416178155019160018060a01b039051169082541617905560018060a01b03905116906006549168010000000000000000831015620013b457620017c383600180950160065562002153565b819291549060031b91821b91858060a01b03901b191617905501620006e6565b506020810151604082015160018060a01b03600054166040519283611a1b8101106001600160401b03611a1b86011117620013b45783926200183e6200185592611a1b62002a3487396080611a1b87018181520190620020ae565b90611a1b850182036020611a1b87010152620020ae565b90306040611a1b850101526060611a1b8401015203906000f0801562000977576001600160a01b0316620016d0565b604051636bb9e87d60e01b8152600490fd5b600181018111620008ea57604051620018c6816200062560016020830195018c8a8a60c435600401928962002249565b5190206040620018e1602460c4350160c435600401620023d6565b9050036200193e576001600160a01b036200190160c43560a401620023c1565b1615620001bb57620006b46200192f93620006ab620006a56200069d602460c4350160c435600401620023d6565b15620013a257858080620006e0565b60405163145a1fdd60e31b8152600490fd5b604051633ee5aeb560e01b8152600490fd5b34620001cd576000366003190112620001cd576000546040516001600160a01b039091168152602090f35b34620001cd576000366003190112620001cd57620019d9604051620019b28162001fe3565b60058152640352e302e360dc1b6020820152604051918291602083526020830190620020ae565b0390f35b34620001cd576020366003190112620001cd57620019fa62001fb7565b62001a0462002419565b6001600160a01b0316801562001a2c576001600160601b0360a01b6002541617600255600080f35b60405163bb0bac9960e01b8152600490fd5b34620001cd576000366003190112620001cd576000805160206200444f833981519152546040516001600160a01b039091168152602090f35b34620001cd576000366003190112620001cd576001546040516001600160a01b039091168152602090f35b34620001cd576020366003190112620001cd576001600160a01b0362001ac762001fb7565b1660005260056020526020604060002054604051908152f35b34620001cd576020366003190112620001cd5762001afd62001fb7565b62001b0762002419565b6001600160a01b03168015620001bb576001600160601b0360a01b6003541617600355600080f35b34620001cd576000366003190112620001cd5762001b4c62002419565b6000805160206200444f83398151915280546001600160a01b031981169091556000906001600160a01b03167f8be0079c531659141344cd1fd0a4f28419497f9722a3daafe3b4186f6b6457e08280a3005b34620001cd576020366003190112620001cd5762001bbb62001fb7565b62001bc562002419565b47908115620001cd57600080809381935af162001be1620021bf565b5015620001cd57005b34620001cd576000366003190112620001cd577f00000000000000000000000000000000000000000000000000000000000000006001600160a01b0316300362001c585760206040517f360894a13ba1a3210667c828492db98dca3e2076cc3735a920a3ca505d382bbc8152f35b60405163703e46dd60e11b8152600490fd5b6040366003190112620001cd5762001c8162001fb7565b6024356001600160401b038111620001cd5762001ca39036906004016200208d565b906001600160a01b037f0000000000000000000000000000000000000000000000000000000000000000811630811490811562001e4c575b5062001c585762001ceb62002419565b8116906040516352d1902d60e01b8152602081600481865afa6000918162001e12575b5062001d2d57604051634c9c8ce360e01b815260048101849052602490fd5b7f360894a13ba1a3210667c828492db98dca3e2076cc3735a920a3ca505d382bbc9291929081810362001dfa5750823b1562001de15780546001600160a01b03191682179055604051907fbc7cd75a20ee27fd9adebab32041f755214dbc6bffa90cc0225b39da2e5c2d3b600080a282511562001dc75750600080836020620001a795519101845af462001dc0620021bf565b9162002938565b9150503462001dd257005b63b398979f60e01b8152600490fd5b604051634c9c8ce360e01b815260048101839052602490fd5b60249060405190632a87526960e21b82526004820152fd5b9091506020813d60201162001e43575b8162001e316020938362002013565b81010312620001cd5751908562001d0e565b3d915062001e22565b9050817f360894a13ba1a3210667c828492db98dca3e2076cc3735a920a3ca505d382bbc541614158462001cdb565b34620001cd576020366003190112620001cd5760406001600160a01b038062001ea362001fb7565b16600052600460205281600020906001818354169201541682519182526020820152f35b34620001cd576020366003190112620001cd576004356001600160401b038111620001cd5762001f02620006a560209236906004016200208d565b6040516001600160a01b039091168152f35b34620001cd576020366003190112620001cd576001600160a01b038062001f3a62001fb7565b16600052600460205260406000209060208160016040519462001f5d8662001fe3565b8281541686520154169201918083521562001f7f576020915116604051908152f35b604051637879bad160e01b8152600490fd5b34620001cd576000366003190112620001cd576003546001600160a01b03168152602090f35b600435906001600160a01b0382168203620001cd57565b35906001600160a01b0382168203620001cd57565b604081019081106001600160401b03821117620013b457604052565b6001600160401b038111620013b457604052565b90601f801991011681019081106001600160401b03821117620013b457604052565b6001600160401b038111620013b457601f01601f191660200190565b9291926200205f8262002035565b916200206f604051938462002013565b829481845281830111620001cd578281602093846000960137010152565b9080601f83011215620001cd57816020620020ab9335910162002051565b90565b919082519283825260005b848110620020db575050826000602080949584010152601f8019910116010190565b602081830181015184830182015201620020b9565b9181601f84011215620001cd578235916001600160401b038311620001cd576020808501948460051b010111620001cd57565b9181601f84011215620001cd578235916001600160401b038311620001cd5760208381860195010111620001cd57565b6006548110156200218b5760066000527ff652222313e28459528d920b65115c16c04f3efc82aaedc97be59f3f377c0d3f0190600090565b634e487b7160e01b600052603260045260246000fd5b60408151036200193e5780516020909101206001600160a01b031690565b3d15620021ef573d90620021d38262002035565b91620021e3604051938462002013565b82523d6000602084013e565b606090565b9035601e1982360301811215620001cd5701602081359101916001600160401b038211620001cd578136038313620001cd57565b908060209392818452848401376000828201840152601f01601f1916010190565b94929095936080928387019060018060a01b0380991688528360209286848b01525260a0880160a08560051b8a010194826000906000915b8383106200231c57505050505050966200231360a08093620022d08a9b8b604060609b9c9d8a039101528235885260c0620022bf82850185620021f4565b9190928a015260c089019162002228565b9684620022e06040840162001fce565b16604088015284620022f48a840162001fce565b1689880152846200230782840162001fce565b16908701520162001fce565b16910152930152565b909192939497609f198d82030186528835607e1984360301811215620023bd57878f6001938d6200239a6200237c8986970192856200235b8562001fce565b1685526200236c87850185620021f4565b9091808988015286019162002228565b60406200238c81850185620021f4565b918684039087015262002228565b92620023aa606080930162001fce565b169101529a019601949301919062002281565b8280fd5b356001600160a01b0381168103620001cd5790565b903590601e1981360301821215620001cd57018035906001600160401b038211620001cd57602001918136038313620001cd57565b91908201809211620008ea57565b6000805160206200444f833981519152546001600160a01b031633036200243c57565b60405163118cdaa760e01b8152336004820152602490fd5b6200249b929162002491917f19457468657265756d205369676e6564204d6573736167653a0a333200000000600052601c52603c6000206200280f565b909391936200284e565b6001600160a01b0391821691161490565b91908110156200218b5760051b8101359060de1981360301821215620001cd570190565b35908115158203620001cd57565b60e081360312620001cd5760408051916001600160401b0360e0840181811185821017620013b4578352620025138262001fce565b845260208083013581860152838301358486015260608084013560ff81168103620001cd5760608701526080926080850135608088015260a08086013560a089015260c0958681013590838211620001cd57019436601f87011215620001cd57853593838511620013b45788519862002592878760051b018b62002013565b858a528689818c01970289010197368911620001cd578701955b888710620025c35750505050505050505082015290565b8987360312620001cd578151908a820190828210888311176200264b578b928a928552620025f18a62001fce565b8152828a01358382015262002608858b01620024d0565b8582015262002619868b01620024d0565b868201526200262a878b01620024d0565b878201526200263b888b01620024d0565b88820152815201960195620025ac565b60246000634e487b7160e01b81526041600452fd5b80518210156200218b5760209160051b010190565b81810292918115918404141715620008ea57565b91908203918211620008ea57565b6001600160a01b03908116908115620026f4576000805160206200444f83398151915280546001600160a01b031981168417909155167f8be0079c531659141344cd1fd0a4f28419497f9722a3daafe3b4186f6b6457e0600080a3565b604051631e4fbdf760e01b815260006004820152602490fd5b6040516323b872dd60e01b60208201526001600160a01b03928316602482015292909116604483015260648083019390935291815260a08101918183106001600160401b03841117620013b4576200276892604052620028d8565b565b60008080938193617530f16200277f620021bf565b50156200122557565b60405163a9059cbb60e01b60208201526001600160a01b039290921660248301526044808301939093529181526200276891620027c760648362002013565b620028d8565b60ff7ff0c57e16840df040f15088dc2f81fe391c3923bec73e23a9662efc9c229c6a005460401c1615620027fd57565b604051631afcd79f60e31b8152600490fd5b815191906041830362002843576200283c92506020820151906060604084015193015160001a90620029a0565b9192909190565b505060009160029190565b6004811015620028c2578062002862575050565b600181036200287d5760405163f645eedf60e01b8152600490fd5b600281036200289f5760405163fce698f760e01b815260048101839052602490fd5b600314620028aa5750565b602490604051906335e2f38360e21b82526004820152fd5b634e487b7160e01b600052602160045260246000fd5b906000602091828151910182855af11562000977576000513d6200292e57506001600160a01b0381163b155b6200290c5750565b604051635274afe760e01b81526001600160a01b039091166004820152602490fd5b6001141562002904565b906200296157508051156200294f57805190602001fd5b60405163d6bda27560e01b8152600490fd5b8151158062002996575b62002974575090565b604051639996b31560e01b81526001600160a01b039091166004820152602490fd5b50803b156200296b565b91907f7fffffffffffffffffffffffffffffff5d576e7357a4501ddfe92f46681b20a0841162002a2757926020929160ff608095604051948552168484015260408301526060820152600092839182805260015afa1562002a1b5780516001600160a01b0381161562002a1257918190565b50809160019190565b604051903d90823e3d90fd5b5050506000916003919056fe610160604081815234620004775762001a1b80380380916200002282866200047c565b8439820191608081840312620004775780516001600160401b03929083811162000477578462000054918401620004c5565b916020948582015190858211620004775762000072918301620004c5565b946200008e60606200008685850162000520565b930162000520565b90835190848201828110888211176200037657855260019485835281830195603160f81b87528751898111620003765760038054918383811c931680156200046c575b868410146200045657601f928381116200040b575b50808684821160011462000398576000916200038c575b5060001982841b1c191690841b1781555b8b51918b8311620003765760049c8d548581811c911680156200036b575b8882101462000356578e8382116200030b575b50508d87928511600114620002a0575093839491849260009562000294575b50501b92600019911b1c19161789555b620001798762000535565b956101209687526200018b84620006da565b97610140988952838151910120938460e0525190209861010099808b524660a0528251938401947f8b73c3c69bb8fe3d512ecc4cf759cc79239f7b179b0ffacaa9a75d522b39400f86528385015260608401524660808401523060a084015260a0835260c0830198838a10908a11176200027f57508790525190206080523060c052600880546001600160a01b039384166001600160a01b031991821617909155600980549290931691161790556111e9938462000832853960805184610c77015260a05184610d43015260c05184610c41015260e05184610cc601525183610cec0152518261051a015251816105440152f35b604190634e487b7160e01b6000525260246000fd5b0151935038806200015e565b929190601f1985169360005284886000209460005b8a89838310620002f35750505010620002d8575b50505050811b0189556200016e565b01519060f884600019921b161c1916905538808080620002c9565b868601518955909701969485019488935001620002b5565b600052876000208380870160051c8201928a88106200034c575b0160051c019086905b8281106200033f5750508e6200013f565b600081550186906200032e565b9250819262000325565b60228f634e487b7160e01b6000525260246000fd5b90607f16906200012c565b634e487b7160e01b600052604160045260246000fd5b90508b015138620000fd565b8592508c90601f1983168560005289600020928a6000915b838310620003e9575050508311620003d0575b5050811b0181556200010e565b8d015160001983861b60f8161c191690553880620003c3565b948482949597989293960151815501940192019087949392918f8b90620003b0565b82600052866000208480840160051c8201928985106200044c575b0160051c019085905b8281106200043f575050620000e6565b600081550185906200042f565b9250819262000426565b634e487b7160e01b600052602260045260246000fd5b92607f1692620000d1565b600080fd5b601f909101601f19168101906001600160401b038211908210176200037657604052565b60005b838110620004b45750506000910152565b8181015183820152602001620004a3565b81601f82011215620004775780516001600160401b038111620003765760405192620004fc601f8301601f1916602001856200047c565b8184526020828401011162000477576200051d9160208085019101620004a0565b90565b51906001600160a01b03821682036200047757565b80516020919082811015620005b5575090601f8251116200057357808251920151908083106200056457501790565b82600019910360031b1b161790565b604490620005a79260405193849263305a27a960e01b845280600485015282519283918260248701528686019101620004a0565b601f01601f19168101030190fd5b6001600160401b03811162000376576005928354926001938481811c91168015620006cf575b838210146200045657601f811162000698575b5081601f84116001146200062e575092829391839260009462000622575b50501b916000199060031b1c191617905560ff90565b0151925038806200060c565b919083601f1981168760005284600020946000905b888383106200067d575050501062000663575b505050811b01905560ff90565b015160001960f88460031b161c1916905538808062000656565b85870151885590960195948501948793509081019062000643565b8560005284601f846000209201871c820191601f8601881c015b828110620006c2575050620005ee565b60008155018590620006b2565b90607f1690620005db565b805160209081811015620007075750601f8251116200057357808251920151908083106200056457501790565b906001600160401b0382116200037657600654926001938481811c9116801562000826575b838210146200045657601f8111620007ec575b5081601f841160011462000780575092829391839260009462000774575b50501b916000199060031b1c19161760065560ff90565b0151925038806200075d565b919083601f198116600660005284600020946000905b88838310620007d15750505010620007b7575b505050811b0160065560ff90565b015160001960f88460031b161c19169055388080620007a9565b85870151885590960195948501948793509081019062000796565b600660005284601f84600020920160051c820191601f860160051c015b828110620008195750506200073f565b6000815501859062000809565b90607f16906200072c56fe608060408181526004918236101561001657600080fd5b600092833560e01c91826306fdde03146108d757508163095ea7b3146108ad57816318160ddd1461088e57816323b872dd14610789578163313ce5671461076d5781633644e5151461074957816340c10f191461069157816370a082311461065a5781637ecebe001461062257816384b0196e1461050257816395d89b411461040e5781639dc29fac14610329578163a9059cbb146102e4578163b5057a7b146102bb578163d505accf1461015357508063dd62ed3e1461010b5763e78cea92146100e057600080fd5b3461010757816003193601126101075760085490516001600160a01b039091168152602090f35b5080fd5b5034610107578060031936011261010757806020926101286109ef565b610130610a0a565b6001600160a01b0391821683526001865283832091168252845220549051908152f35b839150346101075760e03660031901126101075761016f6109ef565b610177610a0a565b906044359260643560843560ff811681036102b7578142116102a05760018060a01b0390818516928389526007602052898920908154916001830190558a519060208201927f6e71edae12b1b97f4d1f60370fef10105fa2faae0126114a169c64845d6126c98452868d840152858a1660608401528a608084015260a083015260c082015260c0815260e0810181811067ffffffffffffffff82111761028d578b5251902061025b916102529161022c610c3e565b908c519161190160f01b83526002830152602282015260c43591604260a435922061109e565b9092919261112e565b16818103610272578661026f878787610d69565b80f35b87516325c0072360e11b815292830152602482015260449150fd5b634e487b7160e01b8b526041875260248bfd5b875163313c898160e11b8152808401839052602490fd5b8680fd5b50503461010757816003193601126101075760095490516001600160a01b039091168152602090f35b5050346101075780600319360112610107576102fe6109ef565b916103098333610acf565b15610326575061031f6020926024359033610dfc565b5160018152f35b80fd5b839150346101075782600319360112610107576103446109ef565b6008549091602435916001600160a01b03908116330361040a5783169283156103f3578385528460205285852054918383106103bf5750508184957fddf252ad1be2c89b69c2b068fc378daa952ba7f163c4a11628f55a4df523b3ef936020938688528785520381872055816002540360025551908152a380f35b865163391434e360e21b81526001600160a01b03909216908201908152602081018390526040810184905281906060010390fd5b8551634b637e8f60e11b8152808301869052602490fd5b8480fd5b919050346104fe57826003193601126104fe57805183819490845461043281610a20565b91828552602096600192886001821691826000146104d4575050600114610479575b858861047589610466848a0385610a8c565b519282849384528301906109af565b0390f35b815286935091907f8a35acfbc15ff81a39ae7d344fd709f28e8600b4aa8c65c6b64bfe7fe36bd19b5b8284106104bc575050508201018161046661047538610454565b8054848a0186015288955087949093019281016104a2565b60ff19168882015294151560051b8701909401945085935061046692506104759150389050610454565b8280fd5b919050346104fe57826003193601126104fe5761053e7f0000000000000000000000000000000000000000000000000000000000000000610eda565b926105687f0000000000000000000000000000000000000000000000000000000000000000610fde565b90825192602092602085019585871067ffffffffffffffff88111761060f57509260206105c58388966105b8998b9996528686528151998a99600f60f81b8b5260e0868c015260e08b01906109af565b91898303908a01526109af565b924660608801523060808801528460a088015286840360c088015251928381520193925b8281106105f857505050500390f35b8351855286955093810193928101926001016105e9565b634e487b7160e01b845260419052602483fd5b5050346101075760203660031901126101075760209181906001600160a01b0361064a6109ef565b1681526007845220549051908152f35b5050346101075760203660031901126101075760209181906001600160a01b036106826109ef565b16815280845220549051908152f35b919050346104fe57806003193601126104fe576106ac6109ef565b60085460243592916001600160a01b0391821633036107455716928315610730576002549083820180921161071d575084927fddf252ad1be2c89b69c2b068fc378daa952ba7f163c4a11628f55a4df523b3ef9260209260025585855284835280852082815401905551908152a380f35b634e487b7160e01b865260119052602485fd5b84602492519163ec442f0560e01b8352820152fd5b8580fd5b505034610107578160031936011261010757602090610766610c3e565b9051908152f35b5050346101075781600319360112610107576020905160128152f35b90508234610326576060366003190112610326576107a56109ef565b6107ad610a0a565b91604435936107bc8484610acf565b15610107576001600160a01b038316808352600160209081528784203385529052868320549160001983106107fa575b60208861031f898989610dfc565b86831061086257811561084b5733156108345750825260016020908152868320338452815291869020908590039055829061031f876107ec565b8751634a1406b160e11b8152908101849052602490fd5b875163e602df0560e01b8152908101849052602490fd5b8751637dc7a0d960e11b8152339181019182526020820193909352604081018790528291506060010390fd5b5050346101075781600319360112610107576020906002549051908152f35b50503461010757806003193601126101075760209061031f6108cd6109ef565b6024359033610d69565b84843461010757816003193601126101075782826003546108f781610a20565b908184526020956001918760018216918260001461098857505060011461092c575b5050506104759291610466910385610a8c565b9190869350600383527fc2575a0e9e593c00f959f8c92f12db2869c3395a3b0502d05e2516446f71f85b5b8284106109705750505082010181610466610475610919565b8054848a018601528895508794909301928101610957565b60ff19168782015293151560051b8601909301935084925061046691506104759050610919565b919082519283825260005b8481106109db575050826000602080949584010152601f8019910116010190565b6020818301810151848301820152016109ba565b600435906001600160a01b0382168203610a0557565b600080fd5b602435906001600160a01b0382168203610a0557565b90600182811c92168015610a50575b6020831014610a3a57565b634e487b7160e01b600052602260045260246000fd5b91607f1691610a2f565b6040810190811067ffffffffffffffff821117610a7657604052565b634e487b7160e01b600052604160045260246000fd5b90601f8019910116810190811067ffffffffffffffff821117610a7657604052565b51906001600160a01b0382168203610a0557565b51908115158203610a0557565b600954604080516324b9c44160e21b81526001600160a01b03938416600482018190529392610100929083908390602490829088165afa918215610c33576000938493610b4a575b505050610b275750505050600190565b602001518116918214928315610b3e575b50505090565b16149050388080610b38565b90809350819492943d8311610c2c575b610b648183610a8c565b8101039081126101075760e0136103265782519260e0840184811067ffffffffffffffff821117610c18578152610b9a83610aae565b8452610ba860208401610aae565b6020850152610bb8818401610aae565b90840152610bc860608301610aae565b6060840152610bd960808301610aae565b6080840152610bea60a08301610ac2565b60a084015260c0820151906003821015610326575060c0830152610c109060e001610ac2565b388080610b17565b634e487b7160e01b83526041600452602483fd5b503d610b5a565b50513d6000823e3d90fd5b307f00000000000000000000000000000000000000000000000000000000000000006001600160a01b03161480610d40575b15610c99577f000000000000000000000000000000000000000000000000000000000000000090565b60405160208101907f8b73c3c69bb8fe3d512ecc4cf759cc79239f7b179b0ffacaa9a75d522b39400f82527f000000000000000000000000000000000000000000000000000000000000000060408201527f000000000000000000000000000000000000000000000000000000000000000060608201524660808201523060a082015260a0815260c0810181811067ffffffffffffffff821117610a765760405251902090565b507f00000000000000000000000000000000000000000000000000000000000000004614610c70565b6001600160a01b03908116918215610de35716918215610dca5760207f8c5be1e5ebec7d5bd14f71427d1e84f3dd0314c0f7b2291e5b200ac8c7c3b925918360005260018252604060002085600052825280604060002055604051908152a3565b604051634a1406b160e11b815260006004820152602490fd5b60405163e602df0560e01b815260006004820152602490fd5b916001600160a01b03808416928315610ec15716928315610ea85760009083825281602052604082205490838210610e76575091604082827fddf252ad1be2c89b69c2b068fc378daa952ba7f163c4a11628f55a4df523b3ef958760209652828652038282205586815220818154019055604051908152a3565b60405163391434e360e21b81526001600160a01b03919091166004820152602481019190915260448101839052606490fd5b60405163ec442f0560e01b815260006004820152602490fd5b604051634b637e8f60e11b815260006004820152602490fd5b60ff8114610f185760ff811690601f8211610f065760405191610efc83610a5a565b8252602082015290565b604051632cd44ac360e21b8152600490fd5b50604051600554816000610f2b83610a20565b80835292602090600190818116908115610fba5750600114610f59575b5050610f5692500382610a8c565b90565b91509260056000527f036b6384b5eca791c62761152d0c79bb0604c104a5fb6f4eb0703f3154bb3db0936000925b828410610fa25750610f569450505081016020013880610f48565b85548785018301529485019486945092810192610f87565b91505060209250610f5694915060ff191682840152151560051b8201013880610f48565b60ff81146110005760ff811690601f8211610f065760405191610efc83610a5a565b5060405160065481600061101383610a20565b80835292602090600190818116908115610fba575060011461103d575050610f5692500382610a8c565b91509260066000527ff652222313e28459528d920b65115c16c04f3efc82aaedc97be59f3f377c0d3f936000925b8284106110865750610f569450505081016020013880610f48565b8554878501830152948501948694509281019261106b565b91907f7fffffffffffffffffffffffffffffff5d576e7357a4501ddfe92f46681b20a0841161112257926020929160ff608095604051948552168484015260408301526060820152600092839182805260015afa156111165780516001600160a01b0381161561110d57918190565b50809160019190565b604051903d90823e3d90fd5b50505060009160039190565b600481101561119d5780611140575050565b6001810361115a5760405163f645eedf60e01b8152600490fd5b6002810361117b5760405163fce698f760e01b815260048101839052602490fd5b6003146111855750565b602490604051906335e2f38360e21b82526004820152fd5b634e487b7160e01b600052602160045260246000fdfea26469706673582212208f7e064a754f45673ef1cb5be9ffdc3dce18c8f16c822b95b47dd22ed795b56864736f6c634300081800339016d09d72d40fdae2fd8ceac6b6234c7706214fd39c1cd1e609a0528c1993009b779b17422d0df92223018b32b4d1fa46e071723d6817e2486d003becc55f00a26469706673582212201f14807d6c60431cb76a94f3d8ed3c8a0b105ce836fb7062ec114fe20b7c635364736f6c63430008180033",
  "linkReferences": {},
  "deployedLinkReferences": {}
}