{
  "_format": "hh-sol-artifact-1",
  "contractName": "Bridge",
  "sourceName": "contracts/Bridge.sol",
  "abi": [
    {
      "inputs": [
        {
          "internalType": "address",
          "name": "target",
          "type": "address"
        }
      ],
      "name": "AddressEmptyCode",
      "type": "error"
    },
    {
      "inputs": [],
      "name": "ECDSAInvalidSignature",
      "type": "error"
    },
    {
      "inputs": [
        {
          "internalType": "uint256",
          "name": "length",
          "type": "uint256"
        }
      ],
      "name": "ECDSAInvalidSignatureLength",
      "type": "error"
    },
    {
      "inputs": [
        {
          "internalType": "bytes32",
          "name": "s",
          "type": "bytes32"
        }
      ],
      "name": "ECDSAInvalidSignatureS",
      "type": "error"
    },
    {
      "inputs": [
        {
          "internalType": "address",
          "name": "implementation",
          "type": "address"
        }
      ],
      "name": "ERC1967InvalidImplementation",
      "type": "error"
    },
    {
      "inputs": [],
      "name": "ERC1967NonPayable",
      "type": "error"
    },
    {
      "inputs": [],
      "name": "FailedCall",
      "type": "error"
    },
    {
      "inputs": [],
      "name": "InvalidInitialization",
      "type": "error"
    },
    {
      "inputs": [],
      "name": "NotInitializing",
      "type": "error"
    },
    {
      "inputs": [
        {
          "internalType": "address",
          "name": "owner",
          "type": "address"
        }
      ],
      "name": "OwnableInvalidOwner",
      "type": "error"
    },
    {
      "inputs": [
        {
          "internalType": "address",
          "name": "account",
          "type": "address"
        }
      ],
      "name": "OwnableUnauthorizedAccount",
      "type": "error"
    },
    {
      "inputs": [],
      "name": "ReentrancyGuardReentrantCall",
      "type": "error"
    },
    {
      "inputs": [],
      "name": "UUPSUnauthorizedCallContext",
      "type": "error"
    },
    {
      "inputs": [
        {
          "internalType": "bytes32",
          "name": "slot",
          "type": "bytes32"
        }
      ],
      "name": "UUPSUnsupportedProxiableUUID",
      "type": "error"
    },
    {
      "anonymous": false,
      "inputs": [
        {
          "indexed": true,
          "internalType": "address",
          "name": "from",
          "type": "address"
        },
        {
          "indexed": true,
          "internalType": "address",
          "name": "to",
          "type": "address"
        },
        {
          "indexed": false,
          "internalType": "uint256",
          "name": "amount",
          "type": "uint256"
        }
      ],
      "name": "EthTransferred",
      "type": "event"
    },
    {
      "anonymous": false,
      "inputs": [
        {
          "indexed": true,
          "internalType": "address",
          "name": "token",
          "type": "address"
        },
        {
          "indexed": false,
          "internalType": "uint256",
          "name": "amount",
          "type": "uint256"
        }
      ],
      "name": "FeesCollected",
      "type": "event"
    },
    {
      "anonymous": false,
      "inputs": [
        {
          "indexed": false,
          "internalType": "uint64",
          "name": "version",
          "type": "uint64"
        }
      ],
      "name": "Initialized",
      "type": "event"
    },
    {
      "anonymous": false,
      "inputs": [
        {
          "indexed": true,
          "internalType": "address",
          "name": "previousOwner",
          "type": "address"
        },
        {
          "indexed": true,
          "internalType": "address",
          "name": "newOwner",
          "type": "address"
        }
      ],
      "name": "OwnershipTransferred",
      "type": "event"
    },
    {
      "anonymous": false,
      "inputs": [
        {
          "indexed": true,
          "internalType": "address",
          "name": "previousOwner",
          "type": "address"
        },
        {
          "indexed": true,
          "internalType": "address",
          "name": "newOwner",
          "type": "address"
        }
      ],
      "name": "OwnershipTransferredToNextKey",
      "type": "event"
    },
    {
      "anonymous": false,
      "inputs": [
        {
          "indexed": true,
          "internalType": "address",
          "name": "user",
          "type": "address"
        },
        {
          "indexed": true,
          "internalType": "address",
          "name": "originalToken",
          "type": "address"
        },
        {
          "indexed": false,
          "internalType": "uint256",
          "name": "amount",
          "type": "uint256"
        }
      ],
      "name": "TokensLocked",
      "type": "event"
    },
    {
      "anonymous": false,
      "inputs": [
        {
          "indexed": true,
          "internalType": "address",
          "name": "wrappedToken",
          "type": "address"
        },
        {
          "indexed": true,
          "internalType": "address",
          "name": "user",
          "type": "address"
        },
        {
          "indexed": false,
          "internalType": "uint256",
          "name": "amount",
          "type": "uint256"
        }
      ],
      "name": "TokensMinted",
      "type": "event"
    },
    {
      "anonymous": false,
      "inputs": [
        {
          "indexed": true,
          "internalType": "address",
          "name": "user",
          "type": "address"
        },
        {
          "indexed": false,
          "internalType": "address",
          "name": "wrappedToken",
          "type": "address"
        },
        {
          "indexed": false,
          "internalType": "uint256",
          "name": "amount",
          "type": "uint256"
        }
      ],
      "name": "TokensWrapped",
      "type": "event"
    },
    {
      "anonymous": false,
      "inputs": [
        {
          "indexed": true,
          "internalType": "address",
          "name": "originalToken",
          "type": "address"
        },
        {
          "indexed": false,
          "internalType": "address",
          "name": "targetAddress",
          "type": "address"
        },
        {
          "indexed": false,
          "internalType": "uint256",
          "name": "amount",
          "type": "uint256"
        },
        {
          "indexed": true,
          "internalType": "address",
          "name": "user",
          "type": "address"
        }
      ],
      "name": "UnwrapCrossChain",
      "type": "event"
    },
    {
      "anonymous": false,
      "inputs": [
        {
          "indexed": true,
          "internalType": "address",
          "name": "implementation",
          "type": "address"
        }
      ],
      "name": "Upgraded",
      "type": "event"
    },
    {
      "inputs": [],
      "name": "FEE_CAP_USD",
      "outputs": [
        {
          "internalType": "uint256",
          "name": "",
          "type": "uint256"
        }
      ],
      "stateMutability": "view",
      "type": "function"
    },
    {
      "inputs": [],
      "name": "FEE_DENOMINATOR",
      "outputs": [
        {
          "internalType": "uint256",
          "name": "",
          "type": "uint256"
        }
      ],
      "stateMutability": "view",
      "type": "function"
    },
    {
      "inputs": [],
      "name": "UPGRADE_INTERFACE_VERSION",
      "outputs": [
        {
          "internalType": "string",
          "name": "",
          "type": "string"
        }
      ],
      "stateMutability": "view",
      "type": "function"
    },
    {
      "inputs": [
        {
          "internalType": "address",
          "name": "originalToken",
          "type": "address"
        },
        {
          "internalType": "address",
          "name": "wrappedToken",
          "type": "address"
        },
        {
          "internalType": "bool",
          "name": "_isCrossChain",
          "type": "bool"
        }
      ],
      "name": "addTokenPair",
      "outputs": [],
      "stateMutability": "nonpayable",
      "type": "function"
    },
    {
      "inputs": [],
      "name": "feeCollector",
      "outputs": [
        {
          "internalType": "address",
          "name": "",
          "type": "address"
        }
      ],
      "stateMutability": "view",
      "type": "function"
    },
    {
      "inputs": [],
      "name": "feePercentage",
      "outputs": [
        {
          "internalType": "uint256",
          "name": "",
          "type": "uint256"
        }
      ],
      "stateMutability": "view",
      "type": "function"
    },
    {
      "inputs": [
        {
          "internalType": "bytes",
          "name": "publicKey",
          "type": "bytes"
        }
      ],
      "name": "getAddressFromPublicKey",
      "outputs": [
        {
          "internalType": "address",
          "name": "",
          "type": "address"
        }
      ],
      "stateMutability": "pure",
      "type": "function"
    },
    {
      "inputs": [],
      "name": "getSupportedTokens",
      "outputs": [
        {
          "internalType": "address[]",
          "name": "",
          "type": "address[]"
        }
      ],
      "stateMutability": "view",
      "type": "function"
    },
    {
      "inputs": [
        {
          "internalType": "address",
          "name": "_keyLogRegistry",
          "type": "address"
        }
      ],
      "name": "initialize",
      "outputs": [],
      "stateMutability": "nonpayable",
      "type": "function"
    },
    {
      "inputs": [
        {
          "internalType": "address",
          "name": "",
          "type": "address"
        }
      ],
      "name": "isCrossChain",
      "outputs": [
        {
          "internalType": "bool",
          "name": "",
          "type": "bool"
        }
      ],
      "stateMutability": "view",
      "type": "function"
    },
    {
      "inputs": [],
      "name": "keyLogRegistry",
      "outputs": [
        {
          "internalType": "contract KeyLogRegistry",
          "name": "",
          "type": "address"
        }
      ],
      "stateMutability": "view",
      "type": "function"
    },
    {
      "inputs": [
        {
          "internalType": "address",
          "name": "",
          "type": "address"
        }
      ],
      "name": "nonces",
      "outputs": [
        {
          "internalType": "uint256",
          "name": "",
          "type": "uint256"
        }
      ],
      "stateMutability": "view",
      "type": "function"
    },
    {
      "inputs": [
        {
          "internalType": "address",
          "name": "",
          "type": "address"
        }
      ],
      "name": "originalToWrapped",
      "outputs": [
        {
          "internalType": "address",
          "name": "",
          "type": "address"
        }
      ],
      "stateMutability": "view",
      "type": "function"
    },
    {
      "inputs": [],
      "name": "owner",
      "outputs": [
        {
          "internalType": "address",
          "name": "",
          "type": "address"
        }
      ],
      "stateMutability": "view",
      "type": "function"
    },
    {
      "inputs": [
        {
          "internalType": "bytes32",
          "name": "",
          "type": "bytes32"
        }
      ],
      "name": "processedLocks",
      "outputs": [
        {
          "internalType": "bool",
          "name": "",
          "type": "bool"
        }
      ],
      "stateMutability": "view",
      "type": "function"
    },
    {
      "inputs": [],
      "name": "proxiableUUID",
      "outputs": [
        {
          "internalType": "bytes32",
          "name": "",
          "type": "bytes32"
        }
      ],
      "stateMutability": "view",
      "type": "function"
    },
    {
      "inputs": [
        {
          "components": [
            {
              "internalType": "uint256",
              "name": "amount",
              "type": "uint256"
            },
            {
              "internalType": "bytes",
              "name": "signature",
              "type": "bytes"
            },
            {
              "internalType": "bytes",
              "name": "publicKey",
              "type": "bytes"
            },
            {
              "internalType": "address",
              "name": "prerotatedKeyHash",
              "type": "address"
            },
            {
              "internalType": "address",
              "name": "twicePrerotatedKeyHash",
              "type": "address"
            },
            {
              "internalType": "address",
              "name": "prevPublicKeyHash",
              "type": "address"
            },
            {
              "internalType": "address",
              "name": "outputAddress",
              "type": "address"
            },
            {
              "internalType": "bool",
              "name": "hasRelationship",
              "type": "bool"
            },
            {
              "internalType": "address",
              "name": "tokenSource",
              "type": "address"
            },
            {
              "components": [
                {
                  "internalType": "address",
                  "name": "token",
                  "type": "address"
                },
                {
                  "internalType": "uint256",
                  "name": "amount",
                  "type": "uint256"
                },
                {
                  "internalType": "uint256",
                  "name": "deadline",
                  "type": "uint256"
                },
                {
                  "internalType": "uint8",
                  "name": "v",
                  "type": "uint8"
                },
                {
                  "internalType": "bytes32",
                  "name": "r",
                  "type": "bytes32"
                },
                {
                  "internalType": "bytes32",
                  "name": "s",
                  "type": "bytes32"
                },
                {
                  "internalType": "address",
                  "name": "recipient",
                  "type": "address"
                }
              ],
              "internalType": "struct Bridge.PermitData[]",
              "name": "permits",
              "type": "tuple[]"
            }
          ],
          "internalType": "struct Bridge.WrapParams",
          "name": "unconfirmed",
          "type": "tuple"
        },
        {
          "components": [
            {
              "internalType": "uint256",
              "name": "amount",
              "type": "uint256"
            },
            {
              "internalType": "bytes",
              "name": "signature",
              "type": "bytes"
            },
            {
              "internalType": "bytes",
              "name": "publicKey",
              "type": "bytes"
            },
            {
              "internalType": "address",
              "name": "prerotatedKeyHash",
              "type": "address"
            },
            {
              "internalType": "address",
              "name": "twicePrerotatedKeyHash",
              "type": "address"
            },
            {
              "internalType": "address",
              "name": "prevPublicKeyHash",
              "type": "address"
            },
            {
              "internalType": "address",
              "name": "outputAddress",
              "type": "address"
            },
            {
              "internalType": "bool",
              "name": "hasRelationship",
              "type": "bool"
            },
            {
              "internalType": "address",
              "name": "tokenSource",
              "type": "address"
            },
            {
              "components": [
                {
                  "internalType": "address",
                  "name": "token",
                  "type": "address"
                },
                {
                  "internalType": "uint256",
                  "name": "amount",
                  "type": "uint256"
                },
                {
                  "internalType": "uint256",
                  "name": "deadline",
                  "type": "uint256"
                },
                {
                  "internalType": "uint8",
                  "name": "v",
                  "type": "uint8"
                },
                {
                  "internalType": "bytes32",
                  "name": "r",
                  "type": "bytes32"
                },
                {
                  "internalType": "bytes32",
                  "name": "s",
                  "type": "bytes32"
                },
                {
                  "internalType": "address",
                  "name": "recipient",
                  "type": "address"
                }
              ],
              "internalType": "struct Bridge.PermitData[]",
              "name": "permits",
              "type": "tuple[]"
            }
          ],
          "internalType": "struct Bridge.WrapParams",
          "name": "confirming",
          "type": "tuple"
        }
      ],
      "name": "registerKeyPairWithTransfer",
      "outputs": [],
      "stateMutability": "payable",
      "type": "function"
    },
    {
      "inputs": [
        {
          "internalType": "bytes",
          "name": "publicKey",
          "type": "bytes"
        },
        {
          "internalType": "address",
          "name": "publicKeyHash",
          "type": "address"
        },
        {
          "internalType": "address",
          "name": "prerotatedKeyHash",
          "type": "address"
        },
        {
          "internalType": "address",
          "name": "twicePrerotatedKeyHash",
          "type": "address"
        },
        {
          "internalType": "address",
          "name": "prevPublicKeyHash",
          "type": "address"
        },
        {
          "internalType": "address",
          "name": "outputAddress",
          "type": "address"
        },
        {
          "internalType": "bool",
          "name": "hasRelationship",
          "type": "bool"
        },
        {
          "components": [
            {
              "internalType": "address",
              "name": "token",
              "type": "address"
            },
            {
              "internalType": "uint256",
              "name": "amount",
              "type": "uint256"
            },
            {
              "internalType": "uint256",
              "name": "deadline",
              "type": "uint256"
            },
            {
              "internalType": "uint8",
              "name": "v",
              "type": "uint8"
            },
            {
              "internalType": "bytes32",
              "name": "r",
              "type": "bytes32"
            },
            {
              "internalType": "bytes32",
              "name": "s",
              "type": "bytes32"
            },
            {
              "internalType": "address",
              "name": "recipient",
              "type": "address"
            }
          ],
          "internalType": "struct Bridge.PermitData[]",
          "name": "permits",
          "type": "tuple[]"
        }
      ],
      "name": "registerKeyWithTransfer",
      "outputs": [],
      "stateMutability": "payable",
      "type": "function"
    },
    {
      "inputs": [],
      "name": "relayer",
      "outputs": [
        {
          "internalType": "address",
          "name": "",
          "type": "address"
        }
      ],
      "stateMutability": "view",
      "type": "function"
    },
    {
      "inputs": [],
      "name": "renounceOwnership",
      "outputs": [],
      "stateMutability": "nonpayable",
      "type": "function"
    },
    {
      "inputs": [
        {
          "internalType": "address",
          "name": "_feeCollector",
          "type": "address"
        }
      ],
      "name": "setFeeCollector",
      "outputs": [],
      "stateMutability": "nonpayable",
      "type": "function"
    },
    {
      "inputs": [
        {
          "internalType": "uint256",
          "name": "_feePercentage",
          "type": "uint256"
        }
      ],
      "name": "setFeePercentage",
      "outputs": [],
      "stateMutability": "nonpayable",
      "type": "function"
    },
    {
      "inputs": [
        {
          "internalType": "address",
          "name": "_relayer",
          "type": "address"
        }
      ],
      "name": "setRelayer",
      "outputs": [],
      "stateMutability": "nonpayable",
      "type": "function"
    },
    {
      "inputs": [
        {
          "internalType": "address",
          "name": "token",
          "type": "address"
        },
        {
          "internalType": "address",
          "name": "priceFeed",
          "type": "address"
        }
      ],
      "name": "setTokenPriceFeed",
      "outputs": [],
      "stateMutability": "nonpayable",
      "type": "function"
    },
    {
      "inputs": [
        {
          "internalType": "uint256",
          "name": "",
          "type": "uint256"
        }
      ],
      "name": "supportedOriginalTokens",
      "outputs": [
        {
          "internalType": "address",
          "name": "",
          "type": "address"
        }
      ],
      "stateMutability": "view",
      "type": "function"
    },
    {
      "inputs": [
        {
          "internalType": "address",
          "name": "",
          "type": "address"
        }
      ],
      "name": "tokenPriceFeeds",
      "outputs": [
        {
          "internalType": "contract AggregatorV3Interface",
          "name": "",
          "type": "address"
        }
      ],
      "stateMutability": "view",
      "type": "function"
    },
    {
      "inputs": [
        {
          "internalType": "address",
          "name": "newOwner",
          "type": "address"
        }
      ],
      "name": "transferOwnership",
      "outputs": [],
      "stateMutability": "nonpayable",
      "type": "function"
    },
    {
      "inputs": [
        {
          "internalType": "address",
          "name": "wrappedToken",
          "type": "address"
        },
        {
          "components": [
            {
              "internalType": "uint256",
              "name": "amount",
              "type": "uint256"
            },
            {
              "internalType": "bytes",
              "name": "signature",
              "type": "bytes"
            },
            {
              "internalType": "bytes",
              "name": "publicKey",
              "type": "bytes"
            },
            {
              "internalType": "address",
              "name": "prerotatedKeyHash",
              "type": "address"
            },
            {
              "internalType": "address",
              "name": "twicePrerotatedKeyHash",
              "type": "address"
            },
            {
              "internalType": "address",
              "name": "prevPublicKeyHash",
              "type": "address"
            },
            {
              "internalType": "address",
              "name": "targetAddress",
              "type": "address"
            },
            {
              "internalType": "bool",
              "name": "hasRelationship",
              "type": "bool"
            },
            {
              "components": [
                {
                  "internalType": "address",
                  "name": "token",
                  "type": "address"
                },
                {
                  "internalType": "uint256",
                  "name": "amount",
                  "type": "uint256"
                },
                {
                  "internalType": "uint256",
                  "name": "deadline",
                  "type": "uint256"
                },
                {
                  "internalType": "uint8",
                  "name": "v",
                  "type": "uint8"
                },
                {
                  "internalType": "bytes32",
                  "name": "r",
                  "type": "bytes32"
                },
                {
                  "internalType": "bytes32",
                  "name": "s",
                  "type": "bytes32"
                },
                {
                  "internalType": "address",
                  "name": "recipient",
                  "type": "address"
                }
              ],
              "internalType": "struct Bridge.PermitData[]",
              "name": "permits",
              "type": "tuple[]"
            }
          ],
          "internalType": "struct Bridge.UnwrapParams",
          "name": "unconfirmed",
          "type": "tuple"
        },
        {
          "components": [
            {
              "internalType": "uint256",
              "name": "amount",
              "type": "uint256"
            },
            {
              "internalType": "bytes",
              "name": "signature",
              "type": "bytes"
            },
            {
              "internalType": "bytes",
              "name": "publicKey",
              "type": "bytes"
            },
            {
              "internalType": "address",
              "name": "prerotatedKeyHash",
              "type": "address"
            },
            {
              "internalType": "address",
              "name": "twicePrerotatedKeyHash",
              "type": "address"
            },
            {
              "internalType": "address",
              "name": "prevPublicKeyHash",
              "type": "address"
            },
            {
              "internalType": "address",
              "name": "targetAddress",
              "type": "address"
            },
            {
              "internalType": "bool",
              "name": "hasRelationship",
              "type": "bool"
            },
            {
              "components": [
                {
                  "internalType": "address",
                  "name": "token",
                  "type": "address"
                },
                {
                  "internalType": "uint256",
                  "name": "amount",
                  "type": "uint256"
                },
                {
                  "internalType": "uint256",
                  "name": "deadline",
                  "type": "uint256"
                },
                {
                  "internalType": "uint8",
                  "name": "v",
                  "type": "uint8"
                },
                {
                  "internalType": "bytes32",
                  "name": "r",
                  "type": "bytes32"
                },
                {
                  "internalType": "bytes32",
                  "name": "s",
                  "type": "bytes32"
                },
                {
                  "internalType": "address",
                  "name": "recipient",
                  "type": "address"
                }
              ],
              "internalType": "struct Bridge.PermitData[]",
              "name": "permits",
              "type": "tuple[]"
            }
          ],
          "internalType": "struct Bridge.UnwrapParams",
          "name": "confirming",
          "type": "tuple"
        }
      ],
      "name": "unwrapPairWithTransfer",
      "outputs": [],
      "stateMutability": "payable",
      "type": "function"
    },
    {
      "inputs": [
        {
          "internalType": "address",
          "name": "newImplementation",
          "type": "address"
        },
        {
          "internalType": "bytes",
          "name": "data",
          "type": "bytes"
        }
      ],
      "name": "upgradeToAndCall",
      "outputs": [],
      "stateMutability": "payable",
      "type": "function"
    },
    {
      "inputs": [
        {
          "internalType": "address",
          "name": "originalToken",
          "type": "address"
        },
        {
          "components": [
            {
              "internalType": "uint256",
              "name": "amount",
              "type": "uint256"
            },
            {
              "internalType": "bytes",
              "name": "signature",
              "type": "bytes"
            },
            {
              "internalType": "bytes",
              "name": "publicKey",
              "type": "bytes"
            },
            {
              "internalType": "address",
              "name": "prerotatedKeyHash",
              "type": "address"
            },
            {
              "internalType": "address",
              "name": "twicePrerotatedKeyHash",
              "type": "address"
            },
            {
              "internalType": "address",
              "name": "prevPublicKeyHash",
              "type": "address"
            },
            {
              "internalType": "address",
              "name": "outputAddress",
              "type": "address"
            },
            {
              "internalType": "bool",
              "name": "hasRelationship",
              "type": "bool"
            },
            {
              "internalType": "address",
              "name": "tokenSource",
              "type": "address"
            },
            {
              "components": [
                {
                  "internalType": "address",
                  "name": "token",
                  "type": "address"
                },
                {
                  "internalType": "uint256",
                  "name": "amount",
                  "type": "uint256"
                },
                {
                  "internalType": "uint256",
                  "name": "deadline",
                  "type": "uint256"
                },
                {
                  "internalType": "uint8",
                  "name": "v",
                  "type": "uint8"
                },
                {
                  "internalType": "bytes32",
                  "name": "r",
                  "type": "bytes32"
                },
                {
                  "internalType": "bytes32",
                  "name": "s",
                  "type": "bytes32"
                },
                {
                  "internalType": "address",
                  "name": "recipient",
                  "type": "address"
                }
              ],
              "internalType": "struct Bridge.PermitData[]",
              "name": "permits",
              "type": "tuple[]"
            }
          ],
          "internalType": "struct Bridge.WrapParams",
          "name": "unconfirmed",
          "type": "tuple"
        },
        {
          "components": [
            {
              "internalType": "uint256",
              "name": "amount",
              "type": "uint256"
            },
            {
              "internalType": "bytes",
              "name": "signature",
              "type": "bytes"
            },
            {
              "internalType": "bytes",
              "name": "publicKey",
              "type": "bytes"
            },
            {
              "internalType": "address",
              "name": "prerotatedKeyHash",
              "type": "address"
            },
            {
              "internalType": "address",
              "name": "twicePrerotatedKeyHash",
              "type": "address"
            },
            {
              "internalType": "address",
              "name": "prevPublicKeyHash",
              "type": "address"
            },
            {
              "internalType": "address",
              "name": "outputAddress",
              "type": "address"
            },
            {
              "internalType": "bool",
              "name": "hasRelationship",
              "type": "bool"
            },
            {
              "internalType": "address",
              "name": "tokenSource",
              "type": "address"
            },
            {
              "components": [
                {
                  "internalType": "address",
                  "name": "token",
                  "type": "address"
                },
                {
                  "internalType": "uint256",
                  "name": "amount",
                  "type": "uint256"
                },
                {
                  "internalType": "uint256",
                  "name": "deadline",
                  "type": "uint256"
                },
                {
                  "internalType": "uint8",
                  "name": "v",
                  "type": "uint8"
                },
                {
                  "internalType": "bytes32",
                  "name": "r",
                  "type": "bytes32"
                },
                {
                  "internalType": "bytes32",
                  "name": "s",
                  "type": "bytes32"
                },
                {
                  "internalType": "address",
                  "name": "recipient",
                  "type": "address"
                }
              ],
              "internalType": "struct Bridge.PermitData[]",
              "name": "permits",
              "type": "tuple[]"
            }
          ],
          "internalType": "struct Bridge.WrapParams",
          "name": "confirming",
          "type": "tuple"
        }
      ],
      "name": "wrapPairWithTransfer",
      "outputs": [],
      "stateMutability": "payable",
      "type": "function"
    },
    {
      "inputs": [
        {
          "internalType": "address",
          "name": "",
          "type": "address"
        }
      ],
      "name": "wrappedToOriginal",
      "outputs": [
        {
          "internalType": "address",
          "name": "",
          "type": "address"
        }
      ],
      "stateMutability": "view",
      "type": "function"
    }
  ],
  "bytecode": "0x60a0806040523461002a573060805261499a90816100308239608051818181612286015261232e0152f35b600080fdfe608080604052600436101561001357600080fd5b60003560e01c908163081da8c1146136eb5750806309765f53146136ba578063276c1ac014613673578063334976c7146135495780633d186d6e146124e85780634f1ef286146122f057806352d1902d1461227357806360fc437a14611e765780636548e9bc14611e33578063674417ae14611dd8578063684913a21461160d578063715018a6146115a35780637c0db610146115685780637ecebe001461152e5780638406c079146115055780638da5cb5b146114cf578063a001ecdd146114b1578063a42dce801461142c578063a8bc3e0a146113ed578063ad3cb1cc1461137b578063ae06c1b71461131d578063b5057a7b146112f4578063bd9c47e3146112b9578063c415b95c14611290578063c4d66de814611109578063d2a9ab5014610394578063d3c7c2c7146102cc578063d73792a9146102af578063d8397fd51461026d578063f2fde38b1461019d5763f9baf7bf1461017457600080fd5b34610198576000366003190112610198576020604051683635c9adc5dea000008152f35b600080fd5b34610198576020366003190112610198576101b6613723565b6101be613da3565b6001600160a01b0381811691821561021957600780546001600160a01b031916841790556101f3906101ee613da3565b6144be565b6000805160206148e58339815191525416600080516020614905833981519152600080a3005b60405162461bcd60e51b815260206004820152602660248201527f4f776e61626c653a206e6577206f776e657220697320746865207a65726f206160448201526564647265737360d01b6064820152608490fd5b34610198576020366003190112610198576004356006548110156101985761029660209161384f565b905460405160039290921b1c6001600160a01b03168152f35b346101985760003660031901126101985760206040516127108152f35b3461019857600036600319011261019857604051806006548083526020809301809160066000527ff652222313e28459528d920b65115c16c04f3efc82aaedc97be59f3f377c0d3f9060005b8682821061037757868661032e82880383613776565b604051928392818401908285525180915260408401929160005b82811061035757505050500390f35b83516001600160a01b031685528695509381019392810192600101610348565b83546001600160a01b031685529093019260019283019201610318565b600319606036820112610198576103a9613723565b906001600160401b03908160243511610198576101209182826024353603011261019857604435116101985760443536030112610198576103e8613ddc565b6001600160a01b03818116600090815260036020526040902054169061040f8215156138fe565b6001600160a01b03811660009081526004602052604090205460ff1661106f575b61045861045261044b6101046024350160243560040161395e565b3691613a18565b33613e50565b33600052600560205260406000205461047560c46024350161394a565b6040516104a181610493856020830195602435600401358988613a7f565b03601f198101835282613776565b5190206000805160206148c5833981519152600052601c526105376104f36104ea603c6000206104e46104dd6024803501602435600401613aac565b36916137b2565b906146cf565b9092919261470b565b61051f61052461050d604460243501602435600401613aac565b6001600160a01b0393913691906137b2565b61389c565b6001600160a01b03909216911614613ade565b61054560c46044350161394a565b600182018211610f85576040516105718161049360208201946001870190604435600401358988613a7f565b5190206000805160206148c5833981519152600052601c526105da6105ae6104ea603c6000206104e46104dd602460443501604435600401613aac565b61051f6105c761050d6044803501604435600401613aac565b6001600160a01b03909216911614613b37565b6000546001600160a01b03166105f96024356044810190600401613aac565b61061661051f6104dd604460249695963501602435600401613aac565b9061062560646024350161394a565b9361063460846024350161394a565b61064260a46024350161394a565b61065060c46024350161394a565b61065e60e460243501613c34565b61067761051f6104dd6044803501604435600401613aac565b61068560646044350161394a565b9061069460846044350161394a565b926106a360a46044350161394a565b946106b260c46044350161394a565b966106c160e460443501613c34565b988d3b15610198576040519e8f9d8e9d8e635988f59760e01b81526004019d6106e99e613c41565b03815a6000948591f1801561081d57611060575b506000805160206148e5833981519152546001600160a01b0316331480611041575b610f9b575b600281018111610f85576002903360005260056020520160406000205560005b6107596101046024350160243560040161395e565b90508110156108375761078b8161078661077e6101046024350160243560040161395e565b369391613ba4565b613993565b90602082015180151580610829575b6107aa575b506001915001610744565b60018060a01b0383511660408401519060ff6060860151169160a06080870151960151823b15610198576000946107fb8692604051998a978896879563d505accf60e01b8752303360048901613bb4565b03925af191821561081d576001921561079f5761081790613763565b8461079f565b6040513d6000823e3d90fd5b50604083015142111561079a565b50906024356004013515610f32576001600160a01b03821660009081526004602052604090205460ff1615610f2c5761087460c46024350161394a565b6001600160a01b0383163b1561019857604051632770a7eb60e21b81526001600160a01b039091166004808301919091526024803591909101359082015260008180604481010381836001600160a01b0388165af1801561081d57610f1d575b506108e56024356004013582614212565b806024356004013511600014610f15576109058160243560040135613d24565b925b6001600160a01b031660009081526004602052604090205460ff1615610d3f57507fcca356c69c0991b2f138fe7c7f64cf9be89604118a06017a49e0001782bc653661097e61095a60646044350161394a565b604080516001600160a01b0390921682526020820195909552339490918291820190565b0390a35b60005b600654811015610cc8576109988161384f565b60018060a01b0391549060031b1c169081600052600260205260018060a01b0360406000205416916040516370a0823160e01b8152336004820152602081602481855afa90811561081d57600091610c96575b5080610bb5575b505081610a04575b6001915001610985565b6040516370a0823160e01b815233600482015291602083602481845afa92831561081d57600093610b81575b5082610a3d575b506109fa565b610a88602084610a5160646044350161394a565b6040516323b872dd60e01b81523360048201526001600160a01b039091166024820152604481019190915291829081906064820190565b03816000865af190811561081d57600091610b47575b5015610b02576001927fb5187db8729022d088cc50f8b09bdeaec0ac84d7686d287a7dd82dc25704f7f3906001600160a01b03610adf60443560640161394a565b604080516001600160a01b0396909616865260208601939093521692a282610a37565b60405162461bcd60e51b815260206004820152601d60248201527f5772617070656420746f6b656e207472616e73666572206661696c65640000006044820152606490fd5b90506020813d602011610b79575b81610b6260209383613776565b8101031261019857610b7390613b97565b84610a9e565b3d9150610b55565b9092506020813d602011610bad575b81610b9d60209383613776565b8101031261019857519183610a30565b3d9150610b90565b610bc9602082610a5160646044350161394a565b03816000875af190811561081d57600091610c5c575b5015610c17576040519081527ee8ffc569c5f605999e8ad11ec9db2ef2254b66370f5b963df609fa59854eb260203392a382806109f2565b60405162461bcd60e51b815260206004820152601e60248201527f4f726967696e616c20746f6b656e207472616e73666572206661696c656400006044820152606490fd5b90506020813d602011610c8e575b81610c7760209383613776565b8101031261019857610c8890613b97565b85610bdf565b3d9150610c6a565b90506020813d602011610cc0575b81610cb160209383613776565b810103126101985751846109eb565b3d9150610ca4565b34610ce2575b600160008051602061492583398151915255005b610d09600080808034610cf960646044350161394a565b5af1610d03613d31565b50613d61565b6001600160a01b03610d1f60443560640161394a565b1660405134815260008051602061494583398151915260203392a3610cce565b80610e31575b5081610d53575b5050610982565b610da091602091610d6860646044350161394a565b60405163a9059cbb60e01b81526001600160a01b03909116600482015260248101929092529092839190829060009082906044820190565b03925af190811561081d57600091610df7575b5015610dc0578080610d4c565b60405162461bcd60e51b815260206004820152600f60248201526e151c985b9cd9995c8819985a5b1959608a1b6044820152606490fd5b90506020813d602011610e29575b81610e1260209383613776565b8101031261019857610e2390613b97565b81610db3565b3d9150610e05565b60075460405163a9059cbb60e01b81526001600160a01b03909116600482015260248101829052906020826044816000875af1801561081d578392600091610eaf575b507f9dc46f23cfb5ddcad0ae7ea2be38d47fec07bb9382ec7e564efc69e036dd66ce91610ea2602092613ce2565b604051908152a282610d45565b9250506020823d602011610f0d575b81610ecb60209383613776565b810103126101985760207f9dc46f23cfb5ddcad0ae7ea2be38d47fec07bb9382ec7e564efc69e036dd66ce91610ea2610f048695613b97565b92505091610e74565b3d9150610ebe565b600092610907565b610f2690613763565b826108d4565b33610874565b60405162461bcd60e51b815260206004820152602560248201527f4275726e20616d6f756e74206d7573742062652067726561746572207468616e604482015264207a65726f60d81b6064820152608490fd5b634e487b7160e01b600052601160045260246000fd5b610fa960646044350161394a565b610fb1613da3565b6001600160a01b0381161561021957600780546001600160a01b0319166001600160a01b038316179055610fe3613da3565b610fec816144be565b6000805160206148e583398151915254600080516020614905833981519152916001600160a01b03908116911682600080a36001600160a01b0361103460443560640161394a565b16903390600080a3610724565b506001600160a01b0361105860443560640161394a565b16151561071f565b61106990613763565b836106fd565b6000805160206148e5833981519152546001600160a01b0316331480156110f5575b6104305760405162461bcd60e51b815260206004820152603260248201527f43726f73732d636861696e206275726e696e6720726573747269637465642074604482015271379037bbb732b91037b9103932b630bcb2b960711b6064820152608490fd5b506001546001600160a01b03163314611091565b3461019857602036600319011261019857611122613723565b7ff0c57e16840df040f15088dc2f81fe391c3923bec73e23a9662efc9c229c6a009081549060ff8260401c1615916001600160401b03811680159081611288575b600114908161127e575b159081611275575b506112635767ffffffffffffffff198116600117845582611244575b5061119a614790565b6111a2614790565b6111ab336144be565b6111b3614790565b6111bb614790565b6111c3614790565b6001600080516020614925833981519152556001600160601b0360a01b9060018060a01b031681600054161760005533906007541617600755600160085561120757005b68ff00000000000000001981541690557fc7f505b2f371ae2175ee4913f4499e1f2633a7b5936321eed1cdaeb6115181d2602060405160018152a1005b68ffffffffffffffffff19166801000000000000000117835583611191565b60405163f92ee8a960e01b8152600490fd5b90501585611175565b303b15915061116d565b849150611163565b34610198576000366003190112610198576007546040516001600160a01b039091168152602090f35b346101985760203660031901126101985760206001600160a01b03806112dd613723565b16600052600a825260406000205416604051908152f35b34610198576000366003190112610198576000546040516001600160a01b039091168152602090f35b3461019857602036600319011261019857600435611339613da3565b612710811161134757600855005b60405162461bcd60e51b815260206004820152600c60248201526b08ccaca40e8dede40d0d2ced60a31b6044820152606490fd5b346101985760003660031901126101985760405160408101908082106001600160401b038311176113d7576113d39160405260058152640352e302e360dc1b602082015260405191829160208352602083019061382a565b0390f35b634e487b7160e01b600052604160045260246000fd5b34610198576020366003190112610198576001600160a01b0361140e613723565b166000526004602052602060ff604060002054166040519015158152f35b3461019857602036600319011261019857611445613723565b61144d613da3565b6001600160a01b03168015611474576001600160601b0360a01b6007541617600755600080f35b60405162461bcd60e51b815260206004820152601560248201527424b73b30b634b2103332b29031b7b63632b1ba37b960591b6044820152606490fd5b34610198576000366003190112610198576020600854604051908152f35b34610198576000366003190112610198576000805160206148e5833981519152546040516001600160a01b039091168152602090f35b34610198576000366003190112610198576001546040516001600160a01b039091168152602090f35b34610198576020366003190112610198576001600160a01b0361154f613723565b1660005260056020526020604060002054604051908152f35b346101985760203660031901126101985760206001600160a01b038061158c613723565b166000526003825260406000205416604051908152f35b34610198576000366003190112610198576115bc613da3565b6000805160206148e583398151915280546001600160a01b031981169091556000906001600160a01b03167f8be0079c531659141344cd1fd0a4f28419497f9722a3daafe3b4186f6b6457e08280a3005b60031960403682011261019857600435906001600160401b03908183116101985761014091828285360301126101985760243511610198576024353603011261019857611658613ddc565b61166f61045261044b61012484018460040161395e565b60009060005b61168661012483018360040161395e565b905081101561196d576116a78161078661077e61012486018660040161395e565b60208101518015158061194d575b6116c4575b5050600101611675565b8151919492916001600160a01b0316908161182c5750506116e9602085015183613b2a565b34106117ef5760c0840180519094906001600160a01b0316156117b257600080808060018060a01b03895116602086015190617530f1611727613d31565b501561176e57602061173f6001948284015190613b2a565b95848060a01b0390511691015160405190815260008051602061494583398151915260203392a35b90846116ba565b606460405162461bcd60e51b815260206004820152602060248201527f424e42207472616e7366657220746f20726563697069656e74206661696c65646044820152fd5b60405162461bcd60e51b8152602060048201526015602482015274125b9d985b1a5908109390881c9958da5c1a595b9d605a1b6044820152606490fd5b60405162461bcd60e51b8152602060048201526015602482015274125b9cdd59999a58da595b9d08109390881cd95b9d605a1b6044820152606490fd5b60408692949601519360ff6060840151169060808401519560a0850151823b156101985760009461187786926040519a8b978896879563d505accf60e01b8752303360048901613bb4565b03925af190811561081d576118da9360209261193e575b50805160c0820151918301516040516323b872dd60e01b81523360048201526001600160a01b039384166024820152604481019190915294859290911690829060009082906064820190565b03925af191821561081d576000926118fe575b506118f9600192613bf0565b611767565b91506020823d602011611936575b8161191960209383613776565b81010312610198576118f961192f600193613b97565b92506118ed565b3d915061190c565b61194790613763565b8661188e565b5081516001600160a01b031615806116b5575060408201514211156116b5565b50906000915b600654831015611ae7576119868361384f565b90546040516370a0823160e01b81523360048201526020959260031b9190911c6001600160a01b0316908581602481855afa90811561081d57600091611aba575b50806119da575b50506001019250611973565b6119ed8682610a5160c46024350161394a565b03816000875af190811561081d57600091611a85575b5015611a40577ee8ffc569c5f605999e8ad11ec9db2ef2254b66370f5b963df609fa59854eb260019495966040519283523392a3839291856119ce565b60405162461bcd60e51b815260048101879052601f60248201527f52656d61696e696e6720746f6b656e207472616e73666572206661696c6564006044820152606490fd5b90508681813d8311611ab3575b611a9c8183613776565b8101031261019857611aad90613b97565b87611a03565b503d611a92565b90508581813d8311611ae0575b611ad18183613776565b810103126101985751866119c7565b503d611ac7565b90803411611cd4575b506000805160206148e583398151915280546001600160a01b0391908216331480611cbc575b611c48575b5060005416604482016104dd611b4661051f611b3a8487600401613aac565b93909487600401613aac565b91611b536064860161394a565b94611b606084820161394a565b90611b6d60a4820161394a565b90611b8660e4611b7f60c4840161394a565b9201613c34565b611ba061051f6104dd604460243501602435600401613aac565b611bae60646024350161394a565b90611bbd60846024350161394a565b92611bcc60a46024350161394a565b94611bdb60c46024350161394a565b96611bea60e460243501613c34565b988d3b15610198576040519e8f9d8e9d8e635988f59760e01b81526004019d611c129e613c41565b03815a6000948591f1801561081d57611c3957600160008051602061492583398151915255005b611c4290613763565b80610cce565b60646024350190611c588261394a565b90611c61613da3565b8382169283156102195784611cae92611c918295876001600160601b0360a01b60075416176007556101ee613da3565b5416936000805160206149058339815191529485600080a361394a565b16903390600080a382611b1b565b5081611ccc60646024350161394a565b161515611b16565b611cde9034613d24565b8015611af0576001600160a01b0360243560c40181611cfc8261394a565b1615611d9357600080808086611d118661394a565b617530f1611d1d613d31565b5015611d4e57611d2c9061394a565b169060405190815260008051602061494583398151915260203392a381611af0565b60405162461bcd60e51b815260206004820152601d60248201527f52656d61696e696e6720424e42207472616e73666572206661696c65640000006044820152606490fd5b60405162461bcd60e51b815260206004820152601f60248201527f496e76616c69642072656d61696e696e6720424e4220726563697069656e74006044820152606490fd5b3461019857604036600319011261019857611df1613723565b611df9613739565b90611e02613da3565b6001600160a01b039081166000908152600a6020526040902080546001600160a01b03191692909116919091179055005b3461019857602036600319011261019857611e4c613723565b611e54613da3565b600180546001600160a01b0319166001600160a01b0392909216919091179055005b610100366003190112610198576001600160401b0360043581811161019857611ea39036906004016137e9565b611eab613739565b90604435906001600160a01b038216820361019857606435936001600160a01b0385168503610198576084356001600160a01b03811681036101985760a4356001600160a01b03811690036101985760c4359182151583036101985760e435908082116101985736602383011215610198578160040135116101985736602460e08360040135028301011161019857611f42613ddc565b611f5761045236836004013560248501613a18565b60005b816004013581106121095750506000805160206148e583398151915280546001600160a01b03163314806120f7575b61207a575b5034612036575b6000546001600160a01b031692833b1561019857600095611fd7938793604051998a988997889663151cdb2f60e11b885260e0600489015260e488019061382a565b6001600160a01b03958616602488015290851660448701529084166064860152908316608485015260a4803590931692840192909252151560c483015203925af1801561081d57611c3957600160008051602061492583398151915255005b61204c60008080803460a4355af1610d03613d31565b60405134815260a4356001600160a01b031690339060008051602061494583398151915290602090a3611f95565b612082613da3565b6001600160a01b0385161561021957600780546001600160a01b0319166001600160a01b0387161790556120b4613da3565b6120bd856144be565b54600080516020614905833981519152906001600160a01b03868116911682600080a36001600160a01b038516903390600080a386611f8e565b506001600160a01b0385161515611f89565b61211f3661078683856004013560248701613ba4565b90602082015180151580612265575b61213e575b506001915001611f5a565b60018060a01b038351169060408401519160ff6060860151169060808601519360a0870151823b156101985760009461219186926040519889978896879563d505accf60e01b8752303360048901613bb4565b03925af1801561081d576000936020926121f192612256575b508051908301516040516323b872dd60e01b81523360048201526001600160a01b0360a4358116602483015260448201929092529586939190921691839182906064820190565b03925af191821561081d57600092612216575b50612210600192613bf0565b89612133565b91506020823d60201161224e575b8161223160209383613776565b8101031261019857612210612247600193613b97565b9250612204565b3d9150612224565b61225f90613763565b8c6121aa565b50604083015142111561212e565b34610198576000366003190112610198577f00000000000000000000000000000000000000000000000000000000000000006001600160a01b031630036122de5760206040517f360894a13ba1a3210667c828492db98dca3e2076cc3735a920a3ca505d382bbc8152f35b60405163703e46dd60e11b8152600490fd5b604036600319011261019857612304613723565b6024356001600160401b038111610198576123239036906004016137e9565b906001600160a01b037f000000000000000000000000000000000000000000000000000000000000000081163081149081156124ba575b506122de57612367613da3565b8116906040516352d1902d60e01b8152602081600481865afa60009181612486575b506123a757604051634c9c8ce360e01b815260048101849052602490fd5b7f360894a13ba1a3210667c828492db98dca3e2076cc3735a920a3ca505d382bbc9291929081810361246e5750823b156124555780546001600160a01b03191682179055604051907fbc7cd75a20ee27fd9adebab32041f755214dbc6bffa90cc0225b39da2e5c2d3b600080a282511561243c575060008083602061243a95519101845af4612434613d31565b91614861565b005b9150503461244657005b63b398979f60e01b8152600490fd5b604051634c9c8ce360e01b815260048101839052602490fd5b60249060405190632a87526960e21b82526004820152fd5b9091506020813d6020116124b2575b816124a260209383613776565b8101031261019857519085612389565b3d9150612495565b9050817f360894a13ba1a3210667c828492db98dca3e2076cc3735a920a3ca505d382bbc541614158461235a565b600319606036820112610198576124fd613723565b906001600160401b03602435116101985761014090818160243536030112610198576001600160401b0360443511610198576044353603011261019857612542613ddc565b6001600160a01b03818116600090815260026020526040902054166125688115156138fe565b80600052600460205260ff604060002054166134af575b6125af6125916101046024350161394a565b6125a961044b6101246024350160243560040161395e565b90613e50565b336000526005602052604060002054906125cd60c46024350161394a565b6040516125eb81610493866020830195602435600401358a88613a7f565b5190206000805160206148c5833981519152600052601c526126376126276104ea603c6000206104e46104dd6024803501602435600401613aac565b6001600160a01b03163314613ade565b61264560c46044350161394a565b600183018311610f85576040516126718161049360208201946001880190604435600401358a88613a7f565b5190206000805160206148c5833981519152600052601c526126ae6105ae6104ea603c6000206104e46104dd602460443501604435600401613aac565b6000546001600160a01b03166101206126cb60243560c40161394a565b6040516324b9c44160e21b81526001600160a01b03909116600482015291829060249082905afa801561081d576000916000916133bc575b50613332575b506127206044356004013560243560040135613b2a565b61272a8185614212565b908181106132ed57801515806132d4575b613027575b5081600052600460205260ff6040600020541615612e46575b60005b6127716101246024350160243560040161395e565b905081101561293e576127968161078661077e6101246024350160243560040161395e565b9060208201519182151580612930575b80612919575b6127bc575b50600191500161275c565b80516001600160a01b03166127d66024356101040161394a565b9060408301519060ff6060850151169560808501519360a086015190833b15610198576128216000969287936040519b8c988997889663d505accf60e01b8852309060048901613bb4565b03925af190811561081d576128a59360209261290a575b5080516001600160a01b03166128536024356101040161394a565b9160008461286560646044350161394a565b9201516040516323b872dd60e01b81526001600160a01b039586166004820152949092166024850152604484019190915291948592839182906064820190565b03925af191821561081d576000926128ca575b506128c4600192613bf0565b866127b1565b91506020823d602011612902575b816128e560209383613776565b81010312610198576128c46128fb600193613b97565b92506128b8565b3d91506128d8565b61291390613763565b88612838565b5080516001600160a01b03888116911614156127ac565b5060408101514211156127a6565b50838360018060a01b0360005416604460243501906104dd61297961051f61296b85602435600401613aac565b939095602435600401613aac565b9061298860646024350161394a565b9361299760846024350161394a565b6129a560a46024350161394a565b6129b360c46024350161394a565b6129c160e460243501613c34565b6129da61051f6104dd6044803501604435600401613aac565b6129e860646044350161394a565b906129f760846044350161394a565b92612a0660a46044350161394a565b94612a1560c46044350161394a565b96612a2460e460443501613c34565b988d3b15610198576040519e8f9d8e9d8e635988f59760e01b81526004019d612a4c9e613c41565b03815a6000948591f1801561081d57612e37575b506000805160206148e5833981519152546001600160a01b0316331480612e18575b612d72575b60028101809111610f855733600052600560205260406000205581151580612d59575b612c89575b5060243560040135612bc2575b806044356004013511600014612bba57612adc9060443560040135613d24565b80612afd575b505034610ce257600160008051602061492583398151915255005b612b0b60646044350161394a565b90823b15610198576040516340c10f1960e01b81526001600160a01b039290921660048301526024820181905260008260448183875af191821561081d577fb5187db8729022d088cc50f8b09bdeaec0ac84d7686d287a7dd82dc25704f7f392612bab575b506001600160a01b03612b8760443560640161394a565b604080516001600160a01b0396909616865260208601939093521692a28080612ae2565b612bb490613763565b83612b70565b506000612adc565b612bd060c46024350161394a565b823b15610198576040516340c10f1960e01b81526001600160a01b039190911660048083019190915260248035909101359082015260008160448183875af1801561081d57612c7a575b506001600160a01b03612c3160243560c40161394a565b604080516001600160a01b038616815260243560040135602082015291909216917fb5187db8729022d088cc50f8b09bdeaec0ac84d7686d287a7dd82dc25704f7f391a2612abc565b612c8390613763565b82612c1a565b60075460405163a9059cbb60e01b81526001600160a01b039091166004820152602481018390526020818060448101038160006001600160a01b0387165af1801561081d57600090612d1e575b612ce09150613ce2565b6040518281526001600160a01b03909116907f9dc46f23cfb5ddcad0ae7ea2be38d47fec07bb9382ec7e564efc69e036dd66ce90602090a282612aaf565b506020813d602011612d51575b81612d3860209383613776565b8101031261019857612d4c612ce091613b97565b612cd6565b3d9150612d2b565b5082600052600460205260ff6040600020541615612aaa565b612d8060646044350161394a565b612d88613da3565b6001600160a01b0381161561021957600780546001600160a01b0319166001600160a01b038316179055612dba613da3565b612dc3816144be565b6000805160206148e583398151915254600080516020614905833981519152916001600160a01b03908116911682600080a36001600160a01b03612e0b60443560640161394a565b16903390600080a3612a87565b506001600160a01b03612e2f60443560640161394a565b161515612a82565b612e4090613763565b84612a60565b612e556101046024350161394a565b6040516370a0823160e01b81526001600160a01b039182166004820152906020908290602490829089165afa90811561081d57600091612ff5575b5080612e9d575b50612759565b806020612eaf6101046024350161394a565b612ebd60646044350161394a565b6040516323b872dd60e01b81526001600160a01b039283166004820152911660248201526044810192909252818060648101038160006001600160a01b038b165af190811561081d57600091612fbb575b5015612f65576001600160a01b03612f2b6024356101040161394a565b166040519182527ee8ffc569c5f605999e8ad11ec9db2ef2254b66370f5b963df609fa59854eb2602060018060a01b03881693a384612e97565b60405162461bcd60e51b815260206004820152602860248201527f52656d61696e696e67206f726967696e616c20746f6b656e207472616e7366656044820152671c8819985a5b195960c21b6064820152608490fd5b90506020813d602011612fed575b81612fd660209383613776565b8101031261019857612fe790613b97565b86612f0e565b3d9150612fc9565b90506020813d60201161301f575b8161301060209383613776565b81010312610198575185612e90565b3d9150613003565b92919060009360005b6130456101246024350160243560040161395e565b90508110156132ca5761306a8161078661077e6101246024350160243560040161395e565b80516001600160a01b03908116919089168214806132bc575b806132ae575b613097575050600101613030565b91509192939495506130ae6101046024350161394a565b9160208201519060408301519160ff6060850151169460a0608086015195015190833b15610198576130fe600096928793604051998a988997889663d505accf60e01b8852309060048901613bb4565b03925af1801561081d5761329f575b5060015b8015613210575b156131d2576020613169916131326101046024350161394a565b6040516323b872dd60e01b81526001600160a01b039091166004820152306024820152604481019190915291829081906064820190565b038160006001600160a01b038a165af1801561081d57600090613197575b6131919150613bf0565b84612740565b506020813d6020116131ca575b816131b160209383613776565b81010312610198576131c561319191613b97565b613187565b3d91506131a4565b60405162461bcd60e51b8152602060048201526016602482015275496e73756666696369656e7420616c6c6f77616e636560501b6044820152606490fd5b506132206101046024350161394a565b604051636eb1769f60e11b81526001600160a01b03918216600482015230602482015290602090829060449082908a165afa801561081d57829160009161326a575b501015613118565b9150506020813d602011613297575b8161328660209383613776565b810103126101985781905187613262565b3d9150613279565b6132a890613763565b8561310d565b506040810151421115613089565b508360208201511015613083565b5090919293613111565b5082600052600460205260ff604060002054161561273b565b60405162461bcd60e51b815260206004820152601b60248201527f416d6f756e7420746f6f206c6f7720746f20636f7665722066656500000000006044820152606490fd5b602001516001600160a01b039081169061335060243560c40161394a565b160361335c5783612709565b60405162461bcd60e51b815260206004820152603260248201527f4f75747075742061646472657373206973206e6f7420746865206c6174657374604482015271040e0e4cae4dee8c2e8cac896caf290c2e6d60731b6064820152608490fd5b915050806101203d610120116134a8575b6133d78183613776565b810103610120811261019857610100136101985760405190816101008101106001600160401b03610100840111176113d757610100820160405261341a81613b83565b825261342860208201613b83565b602083015261343960408201613b83565b604083015261344a60608201613b83565b606083015261345b60808201613b83565b608083015261346c60a08201613b97565b60a083015261347d60c08201613b97565b60c083015260e081015160038110156101985760e08301526134a29061010001613b97565b85612703565b503d6133cd565b6000805160206148e5833981519152546001600160a01b031633148015613535575b61257f5760405162461bcd60e51b815260206004820152603260248201527f43726f73732d636861696e206d696e74696e6720726573747269637465642074604482015271379037bbb732b91037b9103932b630bcb2b960711b6064820152608490fd5b506001546001600160a01b031633146134d1565b3461019857606036600319011261019857613562613723565b61356a613739565b6044358015158091036101985761357f613da3565b6001600160a01b03928316600081815260026020526040902054909290841661362e5782600052600260205283604060002091166001600160601b0360a01b918183825416179055600052600360205282604060002091825416179055600460205260406000209060ff80198354169116179055600654680100000000000000008110156113d757806001613617920160065561384f565b909283549160031b92831b921b1916179055600080f35b60405162461bcd60e51b815260206004820152601960248201527f546f6b656e207061697220616c726561647920657869737473000000000000006044820152606490fd5b34610198576020366003190112610198576004356001600160401b038111610198576136a861051f60209236906004016137e9565b6040516001600160a01b039091168152f35b34610198576020366003190112610198576004356000526009602052602060ff604060002054166040519015158152f35b34610198576020366003190112610198576020906001600160a01b0380613710613723565b1660005260028352604060002054168152f35b600435906001600160a01b038216820361019857565b602435906001600160a01b038216820361019857565b35906001600160a01b038216820361019857565b6001600160401b0381116113d757604052565b90601f801991011681019081106001600160401b038211176113d757604052565b6001600160401b0381116113d757601f01601f191660200190565b9291926137be82613797565b916137cc6040519384613776565b829481845281830111610198578281602093846000960137010152565b9080601f8301121561019857816020613804933591016137b2565b90565b60005b83811061381a5750506000910152565b818101518382015260200161380a565b9060209161384381518092818552858086019101613807565b601f01601f1916010190565b6006548110156138865760066000527ff652222313e28459528d920b65115c16c04f3efc82aaedc97be59f3f377c0d3f0190600090565b634e487b7160e01b600052603260045260246000fd5b60408151036138b95780516020909101206001600160a01b031690565b60405162461bcd60e51b815260206004820152601b60248201527f5075626c6963206b6579206d75737420626520363420627974657300000000006044820152606490fd5b1561390557565b60405162461bcd60e51b815260206004820152601860248201527f546f6b656e2070616972206e6f7420737570706f7274656400000000000000006044820152606490fd5b356001600160a01b03811681036101985790565b903590601e198136030182121561019857018035906001600160401b038211610198576020019160e082023603831361019857565b91908260e09103126101985760405160e081018181106001600160401b038211176113d75760405280926139c68161374f565b8252602081013560208301526040810135604083015260608101359060ff821682036101985760c0613a1391819360608601526080810135608086015260a081013560a08601520161374f565b910152565b9291926001600160401b0382116113d757602060405194613a3f60208560051b0187613776565b602086858152019060e080950284019381851161019857915b848310613a6757505050505050565b838691613a748486613993565b815201920191613a58565b92606894926001600160601b0319809360601b168552601485015260601b16603483015260488201520190565b903590601e198136030182121561019857018035906001600160401b0382116101985760200191813603831361019857565b15613ae557565b60405162461bcd60e51b815260206004820152601d60248201527f496e76616c696420756e636f6e6669726d6564207369676e61747572650000006044820152606490fd5b91908201809211610f8557565b15613b3e57565b60405162461bcd60e51b815260206004820152601c60248201527f496e76616c696420636f6e6669726d696e67207369676e6174757265000000006044820152606490fd5b51906001600160a01b038216820361019857565b5190811515820361019857565b91908110156138865760e0020190565b9360ff929897969360c0969260e087019a60018060a01b0380921688521660208701526040860152606085015216608083015260a08201520152565b15613bf757565b60405162461bcd60e51b8152602060048201526015602482015274151bdad95b881d1c985b9cd9995c8819985a5b1959605a1b6044820152606490fd5b3580151581036101985790565b9c999394969a959891979e9d9b978091818f816101a08083528201526101c094859384830137010160009052601f1990601f01168d01019d8c600160a01b60019003809c81809c81809c81809c81809c1660208a0152166040880152166060860152166080840152169060a00152151560c08d01521660e08b0152166101008901521661012087015216610140850152166101608301521515906101800152565b15613ce957565b60405162461bcd60e51b8152602060048201526013602482015272119959481d1c985b9cd9995c8819985a5b1959606a1b6044820152606490fd5b91908203918211610f8557565b3d15613d5c573d90613d4282613797565b91613d506040519384613776565b82523d6000602084013e565b606090565b15613d6857565b60405162461bcd60e51b8152602060048201526013602482015272115512081d1c985b9cd9995c8819985a5b1959606a1b6044820152606490fd5b6000805160206148e5833981519152546001600160a01b03163303613dc457565b60405163118cdaa760e01b8152336004820152602490fd5b6000805160206149258339815191526002815414613dfa5760029055565b604051633ee5aeb560e01b8152600490fd5b80518210156138865760209160051b010190565b15613e285750565b60405162461bcd60e51b815260206004820152908190613e4c90602483019061382a565b0390fd5b600654909160005b828110614014575060005b828110613e705750505050565b613e798161384f565b9060018060a01b03918291549060031b1c1660005260209060028252604091818360002054169283613eb2575b50505050600101613e63565b80516370a0823160e01b81528884166004820152938285602481845afa94851561400957600095613fd7575b5084613eeb575b50613ea6565b929660009896929591949896875b8451811015613f4c57613f0c8186613e0c565b51868b8251161480613f3f575b613f27575b50600101613ef9565b6001919989613f3892015190613b2a565b9890613f1e565b5087810151421115613f19565b50989194670103a37b5b2b71d160c51b9397919850600196613fc691613f74613fcd97614567565b81519687927f496e73756666696369656e74207065726d69747320666f72207772617070656485850152830152613fb660489382519283918686019101613807565b8101036028810186520184613776565b1015613e20565b9038808080613ee5565b90948382813d8311614002575b613fee8183613776565b81010312613fff5750519338613ede565b80fd5b503d613fe4565b82513d6000823e3d90fd5b61401d8161384f565b90546001600160a01b0360039290921b1c811690811561419457604080516370a0823160e01b8152878316600482015292602091908285602481845afa94851561400957600095614165575b508461407f575b50505050506001905b01613e58565b929660009896929591949896875b84518110156140e0576140a08186613e0c565b51868b82511614806140d3575b6140bb575b5060010161408d565b60019199896140cc92015190613b2a565b98906140b2565b50878101514211156140ad565b5098919468036103a37b5b2b71d160bd1b9397919850600196613fc69161410961415b97614567565b81519687927f496e73756666696369656e74207065726d69747320666f72206f726967696e618585015283015261414b60499382519283918686019101613807565b8101036029810186520184613776565b9038808080614070565b90948382813d831161418d575b61417c8183613776565b81010312613fff5750519338614069565b503d614172565b5050600190614079565b81810292918115918404141715610f8557565b81156141bb570490565b634e487b7160e01b600052601260045260246000fd5b519069ffffffffffffffffffff8216820361019857565b90816020910312610198575160ff811681036101985790565b60ff16604d8111610f8557600a0a90565b90614223612710916008549061419e565b0460018060a01b0380921660009281845260049060209180835260409160ff838820541615614257575b5050505050905090565b600a8452828720541693841561424d578251633fabe5a360e21b81529360a0858481895afa9485156144b4578895614462575b508785131561442b578351958187858163313ce56760e01b948582525afa968715614421578997614400575b5081908486518095819382525afa9384156143f7575087936143c8575b505060ff683635c9adc5dea0000092166012811160001461436657601119019060ff821161435357509061430961430f92614201565b9061419e565b915b60ff8116156143435761432f9261430961432a92614201565b6141b1565b915b508181111561433e575090565b905090565b5061434d916141b1565b91614331565b634e487b7160e01b875260119052602486fd5b60128195939510614379575b5050614311565b6012949192940360ff81116143b55761439190614201565b9182156143a2575004913880614372565b634e487b7160e01b875260129052602486fd5b634e487b7160e01b875260118352602487fd5b6143e8929350803d106143f0575b6143e08183613776565b8101906141e8565b9038806142d3565b503d6143d6565b513d89823e3d90fd5b8291975061441a90823d84116143f0576143e08183613776565b96906142b6565b85513d8b823e3d90fd5b9050606492519162461bcd60e51b83528201526012602482015271125b9d985b1a59081c1c9a58d9481999595960721b6044820152fd5b90945060a0813d60a0116144ac575b8161447e60a09383613776565b810103126144a85761448f816141d1565b506144a060808683015192016141d1565b50933861428a565b8780fd5b3d9150614471565b84513d8a823e3d90fd5b6001600160a01b03908116908115614519576000805160206148e583398151915280546001600160a01b031981168417909155167f8be0079c531659141344cd1fd0a4f28419497f9722a3daafe3b4186f6b6457e0600080a3565b604051631e4fbdf760e01b815260006004820152602490fd5b908151811015613886570160200190565b60ff60579116019060ff8211610f8557565b60ff60309116019060ff8211610f8557565b60405190606082018281106001600160401b038211176113d757604052602a82526020820160403682378251156138865760309053815160019060011015613886576078602184015360005b601481106145c15750505090565b6013818103908111610f85576003906001600160fd1b0381168103610f85576001600160a01b03851690821b1c600f81811691600491600a91831c16818110156146c05761460e90614555565b915b6001600160f81b03199386881b9360f8939060029089158a8804831417156146ab578682018092116146ab578761464e91871b1660001a918d614532565b5381101561469c5761465f90614555565b925b850180951161468757509161468091869594931b1660001a9187614532565b53016145b3565b601190634e487b7160e01b6000525260246000fd5b6146a590614543565b92614661565b601185634e487b7160e01b6000525260246000fd5b6146c990614543565b91614610565b8151919060418303614700576146f992506020820151906060604084015193015160001a906147d1565b9192909190565b505060009160029190565b600481101561477a578061471d575050565b600181036147375760405163f645eedf60e01b8152600490fd5b600281036147585760405163fce698f760e01b815260048101839052602490fd5b6003146147625750565b602490604051906335e2f38360e21b82526004820152fd5b634e487b7160e01b600052602160045260246000fd5b60ff7ff0c57e16840df040f15088dc2f81fe391c3923bec73e23a9662efc9c229c6a005460401c16156147bf57565b604051631afcd79f60e31b8152600490fd5b91907f7fffffffffffffffffffffffffffffff5d576e7357a4501ddfe92f46681b20a0841161485557926020929160ff608095604051948552168484015260408301526060820152600092839182805260015afa156148495780516001600160a01b0381161561484057918190565b50809160019190565b604051903d90823e3d90fd5b50505060009160039190565b90614888575080511561487657805190602001fd5b60405163d6bda27560e01b8152600490fd5b815115806148bb575b614899575090565b604051639996b31560e01b81526001600160a01b039091166004820152602490fd5b50803b1561489156fe19457468657265756d205369676e6564204d6573736167653a0a3332000000009016d09d72d40fdae2fd8ceac6b6234c7706214fd39c1cd1e609a0528c199300b69157d514c6095da5c13b2b365be77ea013833d7ac38ad33874591a9df70e2b9b779b17422d0df92223018b32b4d1fa46e071723d6817e2486d003becc55f00fb55a98b33e2f35080e8e9656caf739c56946219253f8cd86917f7d333986676a2646970667358221220f67585de69d1b133dc2441104ca6d858a2774cf11a2acfba8b78442d1a8adb7a64736f6c63430008180033",
  "linkReferences": {},
  "deployedLinkReferences": {}
}