{
  "_format": "hh-sol-artifact-1",
  "contractName": "Bridge",
  "sourceName": "contracts/Bridge.sol",
  "abi": [
    {
      "inputs": [
        {
          "internalType": "address",
          "name": "target",
          "type": "address"
        }
      ],
      "name": "AddressEmptyCode",
      "type": "error"
    },
    {
      "inputs": [],
      "name": "AmountTooLow",
      "type": "error"
    },
    {
      "inputs": [],
      "name": "BurnAmountZero",
      "type": "error"
    },
    {
      "inputs": [],
      "name": "ECDSAInvalidSignature",
      "type": "error"
    },
    {
      "inputs": [
        {
          "internalType": "uint256",
          "name": "length",
          "type": "uint256"
        }
      ],
      "name": "ECDSAInvalidSignatureLength",
      "type": "error"
    },
    {
      "inputs": [
        {
          "internalType": "bytes32",
          "name": "s",
          "type": "bytes32"
        }
      ],
      "name": "ECDSAInvalidSignatureS",
      "type": "error"
    },
    {
      "inputs": [
        {
          "internalType": "address",
          "name": "implementation",
          "type": "address"
        }
      ],
      "name": "ERC1967InvalidImplementation",
      "type": "error"
    },
    {
      "inputs": [],
      "name": "ERC1967NonPayable",
      "type": "error"
    },
    {
      "inputs": [],
      "name": "EthTransferFailed",
      "type": "error"
    },
    {
      "inputs": [],
      "name": "FailedCall",
      "type": "error"
    },
    {
      "inputs": [],
      "name": "FeeTransferFailed",
      "type": "error"
    },
    {
      "inputs": [],
      "name": "InsufficientAllowance",
      "type": "error"
    },
    {
      "inputs": [],
      "name": "InsufficientBalance",
      "type": "error"
    },
    {
      "inputs": [
        {
          "internalType": "address",
          "name": "token",
          "type": "address"
        }
      ],
      "name": "InsufficientPermits",
      "type": "error"
    },
    {
      "inputs": [],
      "name": "InvalidFeeCollector",
      "type": "error"
    },
    {
      "inputs": [],
      "name": "InvalidFeeRate",
      "type": "error"
    },
    {
      "inputs": [],
      "name": "InvalidInitialization",
      "type": "error"
    },
    {
      "inputs": [],
      "name": "InvalidOwnershipTransfer",
      "type": "error"
    },
    {
      "inputs": [],
      "name": "InvalidPermits",
      "type": "error"
    },
    {
      "inputs": [],
      "name": "InvalidPrerotatedKeyHash",
      "type": "error"
    },
    {
      "inputs": [],
      "name": "InvalidPublicKey",
      "type": "error"
    },
    {
      "inputs": [],
      "name": "InvalidRecipientAmount",
      "type": "error"
    },
    {
      "inputs": [],
      "name": "InvalidRecipientForNonMatchingSigner",
      "type": "error"
    },
    {
      "inputs": [],
      "name": "InvalidSignature",
      "type": "error"
    },
    {
      "inputs": [],
      "name": "MissingPermit",
      "type": "error"
    },
    {
      "inputs": [],
      "name": "NoTokenPairs",
      "type": "error"
    },
    {
      "inputs": [],
      "name": "NotInitializing",
      "type": "error"
    },
    {
      "inputs": [
        {
          "internalType": "address",
          "name": "contractAddress",
          "type": "address"
        }
      ],
      "name": "NotOwnerOfTarget",
      "type": "error"
    },
    {
      "inputs": [
        {
          "internalType": "address",
          "name": "owner",
          "type": "address"
        }
      ],
      "name": "OwnableInvalidOwner",
      "type": "error"
    },
    {
      "inputs": [
        {
          "internalType": "address",
          "name": "account",
          "type": "address"
        }
      ],
      "name": "OwnableUnauthorizedAccount",
      "type": "error"
    },
    {
      "inputs": [],
      "name": "PermitDeadlineExpired",
      "type": "error"
    },
    {
      "inputs": [],
      "name": "ReentrancyGuardReentrantCall",
      "type": "error"
    },
    {
      "inputs": [
        {
          "internalType": "address",
          "name": "token",
          "type": "address"
        }
      ],
      "name": "SafeERC20FailedOperation",
      "type": "error"
    },
    {
      "inputs": [],
      "name": "TokenPairExists",
      "type": "error"
    },
    {
      "inputs": [],
      "name": "TokenPairNotSupported",
      "type": "error"
    },
    {
      "inputs": [],
      "name": "TransferFailed",
      "type": "error"
    },
    {
      "inputs": [],
      "name": "UUPSUnauthorizedCallContext",
      "type": "error"
    },
    {
      "inputs": [
        {
          "internalType": "bytes32",
          "name": "slot",
          "type": "bytes32"
        }
      ],
      "name": "UUPSUnsupportedProxiableUUID",
      "type": "error"
    },
    {
      "inputs": [
        {
          "internalType": "address",
          "name": "contractAddress",
          "type": "address"
        },
        {
          "internalType": "string",
          "name": "reason",
          "type": "string"
        }
      ],
      "name": "UpgradeFailed",
      "type": "error"
    },
    {
      "inputs": [],
      "name": "ZeroAddress",
      "type": "error"
    },
    {
      "anonymous": false,
      "inputs": [
        {
          "indexed": false,
          "internalType": "uint64",
          "name": "version",
          "type": "uint64"
        }
      ],
      "name": "Initialized",
      "type": "event"
    },
    {
      "anonymous": false,
      "inputs": [
        {
          "indexed": true,
          "internalType": "address",
          "name": "previousOwner",
          "type": "address"
        },
        {
          "indexed": true,
          "internalType": "address",
          "name": "newOwner",
          "type": "address"
        }
      ],
      "name": "OwnershipTransferred",
      "type": "event"
    },
    {
      "anonymous": false,
      "inputs": [
        {
          "indexed": true,
          "internalType": "address",
          "name": "implementation",
          "type": "address"
        }
      ],
      "name": "Upgraded",
      "type": "event"
    },
    {
      "inputs": [],
      "name": "UPGRADE_INTERFACE_VERSION",
      "outputs": [
        {
          "internalType": "string",
          "name": "",
          "type": "string"
        }
      ],
      "stateMutability": "view",
      "type": "function"
    },
    {
      "inputs": [
        {
          "internalType": "address",
          "name": "to",
          "type": "address"
        }
      ],
      "name": "emergencyWithdrawBNB",
      "outputs": [],
      "stateMutability": "nonpayable",
      "type": "function"
    },
    {
      "inputs": [],
      "name": "feeCollector",
      "outputs": [
        {
          "internalType": "address",
          "name": "",
          "type": "address"
        }
      ],
      "stateMutability": "view",
      "type": "function"
    },
    {
      "inputs": [],
      "name": "feeSigner",
      "outputs": [
        {
          "internalType": "address",
          "name": "",
          "type": "address"
        }
      ],
      "stateMutability": "view",
      "type": "function"
    },
    {
      "inputs": [
        {
          "internalType": "bytes",
          "name": "publicKey",
          "type": "bytes"
        }
      ],
      "name": "getAddressFromPublicKey",
      "outputs": [
        {
          "internalType": "address",
          "name": "",
          "type": "address"
        }
      ],
      "stateMutability": "pure",
      "type": "function"
    },
    {
      "inputs": [],
      "name": "getOwner",
      "outputs": [
        {
          "internalType": "address",
          "name": "",
          "type": "address"
        }
      ],
      "stateMutability": "view",
      "type": "function"
    },
    {
      "inputs": [],
      "name": "getSupportedTokens",
      "outputs": [
        {
          "internalType": "address[]",
          "name": "",
          "type": "address[]"
        }
      ],
      "stateMutability": "view",
      "type": "function"
    },
    {
      "inputs": [
        {
          "internalType": "address",
          "name": "_keyLogRegistry",
          "type": "address"
        },
        {
          "internalType": "address",
          "name": "_wrappedTokenBeacon",
          "type": "address"
        }
      ],
      "name": "initialize",
      "outputs": [],
      "stateMutability": "nonpayable",
      "type": "function"
    },
    {
      "inputs": [],
      "name": "keyLogRegistry",
      "outputs": [
        {
          "internalType": "contract KeyLogRegistry",
          "name": "",
          "type": "address"
        }
      ],
      "stateMutability": "view",
      "type": "function"
    },
    {
      "inputs": [
        {
          "internalType": "address",
          "name": "",
          "type": "address"
        }
      ],
      "name": "nonces",
      "outputs": [
        {
          "internalType": "uint256",
          "name": "",
          "type": "uint256"
        }
      ],
      "stateMutability": "view",
      "type": "function"
    },
    {
      "inputs": [
        {
          "internalType": "address",
          "name": "originalToken",
          "type": "address"
        }
      ],
      "name": "originalToWrapped",
      "outputs": [
        {
          "internalType": "address",
          "name": "",
          "type": "address"
        }
      ],
      "stateMutability": "view",
      "type": "function"
    },
    {
      "inputs": [],
      "name": "owner",
      "outputs": [
        {
          "internalType": "address",
          "name": "",
          "type": "address"
        }
      ],
      "stateMutability": "view",
      "type": "function"
    },
    {
      "inputs": [],
      "name": "proxiableUUID",
      "outputs": [
        {
          "internalType": "bytes32",
          "name": "",
          "type": "bytes32"
        }
      ],
      "stateMutability": "view",
      "type": "function"
    },
    {
      "inputs": [
        {
          "internalType": "address",
          "name": "token",
          "type": "address"
        },
        {
          "components": [
            {
              "internalType": "address",
              "name": "token",
              "type": "address"
            },
            {
              "internalType": "uint256",
              "name": "fee",
              "type": "uint256"
            },
            {
              "internalType": "uint256",
              "name": "expires",
              "type": "uint256"
            },
            {
              "internalType": "bytes",
              "name": "signature",
              "type": "bytes"
            }
          ],
          "internalType": "struct Bridge.FeeInfo",
          "name": "fee",
          "type": "tuple"
        },
        {
          "components": [
            {
              "internalType": "address",
              "name": "originalToken",
              "type": "address"
            },
            {
              "internalType": "string",
              "name": "tokenName",
              "type": "string"
            },
            {
              "internalType": "string",
              "name": "tokenSymbol",
              "type": "string"
            },
            {
              "internalType": "address",
              "name": "wrappedToken",
              "type": "address"
            }
          ],
          "internalType": "struct Bridge.TokenPair[]",
          "name": "newTokenPairs",
          "type": "tuple[]"
        },
        {
          "components": [
            {
              "internalType": "address",
              "name": "token",
              "type": "address"
            },
            {
              "internalType": "uint256",
              "name": "amount",
              "type": "uint256"
            },
            {
              "internalType": "uint256",
              "name": "deadline",
              "type": "uint256"
            },
            {
              "internalType": "uint8",
              "name": "v",
              "type": "uint8"
            },
            {
              "internalType": "bytes32",
              "name": "r",
              "type": "bytes32"
            },
            {
              "internalType": "bytes32",
              "name": "s",
              "type": "bytes32"
            },
            {
              "components": [
                {
                  "internalType": "address",
                  "name": "recipientAddress",
                  "type": "address"
                },
                {
                  "internalType": "uint256",
                  "name": "amount",
                  "type": "uint256"
                },
                {
                  "internalType": "bool",
                  "name": "wrap",
                  "type": "bool"
                },
                {
                  "internalType": "bool",
                  "name": "unwrap",
                  "type": "bool"
                },
                {
                  "internalType": "bool",
                  "name": "mint",
                  "type": "bool"
                },
                {
                  "internalType": "bool",
                  "name": "burn",
                  "type": "bool"
                }
              ],
              "internalType": "struct Bridge.Recipient[]",
              "name": "recipients",
              "type": "tuple[]"
            }
          ],
          "internalType": "struct Bridge.PermitData[]",
          "name": "permits",
          "type": "tuple[]"
        },
        {
          "components": [
            {
              "internalType": "uint256",
              "name": "amount",
              "type": "uint256"
            },
            {
              "internalType": "bytes",
              "name": "publicKey",
              "type": "bytes"
            },
            {
              "internalType": "address",
              "name": "prerotatedKeyHash",
              "type": "address"
            },
            {
              "internalType": "address",
              "name": "twicePrerotatedKeyHash",
              "type": "address"
            },
            {
              "internalType": "address",
              "name": "prevPublicKeyHash",
              "type": "address"
            },
            {
              "internalType": "address",
              "name": "outputAddress",
              "type": "address"
            }
          ],
          "internalType": "struct Bridge.Params",
          "name": "unconfirmed",
          "type": "tuple"
        },
        {
          "internalType": "bytes",
          "name": "unconfirmedSignature",
          "type": "bytes"
        },
        {
          "components": [
            {
              "internalType": "uint256",
              "name": "amount",
              "type": "uint256"
            },
            {
              "internalType": "bytes",
              "name": "publicKey",
              "type": "bytes"
            },
            {
              "internalType": "address",
              "name": "prerotatedKeyHash",
              "type": "address"
            },
            {
              "internalType": "address",
              "name": "twicePrerotatedKeyHash",
              "type": "address"
            },
            {
              "internalType": "address",
              "name": "prevPublicKeyHash",
              "type": "address"
            },
            {
              "internalType": "address",
              "name": "outputAddress",
              "type": "address"
            }
          ],
          "internalType": "struct Bridge.Params",
          "name": "confirming",
          "type": "tuple"
        },
        {
          "internalType": "bytes",
          "name": "confirmingSignature",
          "type": "bytes"
        }
      ],
      "name": "registerKeyPairWithTransfer",
      "outputs": [],
      "stateMutability": "payable",
      "type": "function"
    },
    {
      "inputs": [],
      "name": "relayer",
      "outputs": [
        {
          "internalType": "address",
          "name": "",
          "type": "address"
        }
      ],
      "stateMutability": "view",
      "type": "function"
    },
    {
      "inputs": [],
      "name": "renounceOwnership",
      "outputs": [],
      "stateMutability": "nonpayable",
      "type": "function"
    },
    {
      "inputs": [
        {
          "internalType": "address",
          "name": "_feeCollector",
          "type": "address"
        }
      ],
      "name": "setFeeCollector",
      "outputs": [],
      "stateMutability": "nonpayable",
      "type": "function"
    },
    {
      "inputs": [
        {
          "internalType": "address",
          "name": "_signer",
          "type": "address"
        }
      ],
      "name": "setFeeSigner",
      "outputs": [],
      "stateMutability": "nonpayable",
      "type": "function"
    },
    {
      "inputs": [
        {
          "internalType": "address",
          "name": "_wrappedTokenBeacon",
          "type": "address"
        }
      ],
      "name": "setWrappedTokenBeacon",
      "outputs": [],
      "stateMutability": "nonpayable",
      "type": "function"
    },
    {
      "inputs": [
        {
          "internalType": "uint256",
          "name": "",
          "type": "uint256"
        }
      ],
      "name": "supportedOriginalTokens",
      "outputs": [
        {
          "internalType": "address",
          "name": "",
          "type": "address"
        }
      ],
      "stateMutability": "view",
      "type": "function"
    },
    {
      "inputs": [
        {
          "internalType": "address",
          "name": "",
          "type": "address"
        }
      ],
      "name": "tokenPairs",
      "outputs": [
        {
          "internalType": "address",
          "name": "originalToken",
          "type": "address"
        },
        {
          "internalType": "address",
          "name": "wrappedToken",
          "type": "address"
        }
      ],
      "stateMutability": "view",
      "type": "function"
    },
    {
      "inputs": [
        {
          "internalType": "bytes",
          "name": "publicKey",
          "type": "bytes"
        },
        {
          "components": [
            {
              "internalType": "address",
              "name": "token",
              "type": "address"
            },
            {
              "internalType": "uint256",
              "name": "amount",
              "type": "uint256"
            },
            {
              "internalType": "uint256",
              "name": "deadline",
              "type": "uint256"
            },
            {
              "internalType": "uint8",
              "name": "v",
              "type": "uint8"
            },
            {
              "internalType": "bytes32",
              "name": "r",
              "type": "bytes32"
            },
            {
              "internalType": "bytes32",
              "name": "s",
              "type": "bytes32"
            },
            {
              "components": [
                {
                  "internalType": "address",
                  "name": "recipientAddress",
                  "type": "address"
                },
                {
                  "internalType": "uint256",
                  "name": "amount",
                  "type": "uint256"
                },
                {
                  "internalType": "bool",
                  "name": "wrap",
                  "type": "bool"
                },
                {
                  "internalType": "bool",
                  "name": "unwrap",
                  "type": "bool"
                },
                {
                  "internalType": "bool",
                  "name": "mint",
                  "type": "bool"
                },
                {
                  "internalType": "bool",
                  "name": "burn",
                  "type": "bool"
                }
              ],
              "internalType": "struct Bridge.Recipient[]",
              "name": "recipients",
              "type": "tuple[]"
            }
          ],
          "internalType": "struct Bridge.PermitData[]",
          "name": "permits",
          "type": "tuple[]"
        }
      ],
      "name": "transferBalanceToLatestKey",
      "outputs": [],
      "stateMutability": "nonpayable",
      "type": "function"
    },
    {
      "inputs": [
        {
          "internalType": "address",
          "name": "newOwner",
          "type": "address"
        }
      ],
      "name": "transferOwnership",
      "outputs": [],
      "stateMutability": "nonpayable",
      "type": "function"
    },
    {
      "inputs": [
        {
          "internalType": "address",
          "name": "newImplementation",
          "type": "address"
        },
        {
          "internalType": "bytes",
          "name": "data",
          "type": "bytes"
        }
      ],
      "name": "upgradeToAndCall",
      "outputs": [],
      "stateMutability": "payable",
      "type": "function"
    },
    {
      "inputs": [],
      "name": "wrappedTokenBeacon",
      "outputs": [
        {
          "internalType": "address",
          "name": "",
          "type": "address"
        }
      ],
      "stateMutability": "view",
      "type": "function"
    }
  ],
  "bytecode": "0x60a0806040523461002a5730608052613f359081610030823960805181818161285a01526129090152f35b600080fdfe60a08060405260043610156200001457600080fd5b60003560e01c908163075693391462002dc557508063081da8c11462002d67578063276c1ac01462002d1a578063429076961462002cef57806347bbbdf51462002c93578063485cc9551462002ad65780634f1ef28614620028c557806352d1902d1462002845578063602db89014620027f9578063715018a6146200278a5780637e1aa178146200273b5780637ecebe0014620026fd5780638406c07914620026d2578063893d20e814620026995780638da5cb5b14620026995780638f2dd2de146200264a578063a42dce8014620025e9578063ad3cb1cc1462002599578063b5057a7b146200256e578063bc04f5611462000894578063c415b95c1462000869578063d3c7c2c71462000799578063d8397fd51462000752578063e7c9b99214620002895763f2fde38b146200014c57600080fd5b346200025d5760203660031901126200025d576200016962002deb565b6200017362003548565b6001600160a01b0381811691908215620002775760005460008051602062003ec08339815191525460405163031fb6df60e31b81529083166001600160a01b039081166004830152841660248201529160209183916044918391165afa9081156200026b5760009162000224575b5015620002125762000210916001600160601b0360a01b60025416176002556200020a62003548565b620036ef565b005b60405163b012a29560e01b8152600490fd5b90506020813d60201162000262575b81620002426020938362002e63565b810103126200025d5762000256906200327e565b38620001e1565b600080fd5b3d915062000233565b6040513d6000823e3d90fd5b60405163d92e233d60e01b8152600490fd5b346200025d5760403660031901126200025d576001600160401b036004358181116200025d57620002bf90369060040162002edd565b906024359081116200025d57620002db90369060040162002f40565b90620002e662003583565b620002f18362002ff1565b9060005b8381106200031257600160008051602062003ee083398151915255005b62000329620003238286856200333f565b62003371565b80519091906001600160a01b0316156200074057600054604051631697653560e11b8152602060048201526101009391849082906001600160a01b0316818062000377602482018e62002efe565b03915afa9081156200026b5760009460009262000704575b505015620006f25780516040516370a0823160e01b815233600482015290602090829060249082906001600160a01b03165afa9081156200026b57600091620006ba575b508015620006a8574260408301511062000696578151604051633644e51560e01b815290602090829060049082906001600160a01b03165afa80156200026b576000906200065d575b8351604051623f675f60e91b81523360048201529250602090839060249082906001600160a01b03165afa9182156200026b5760009262000620575b50620004896200052991620004c9620004d66200053395604089015160405195869160208301938b303387620034f0565b03946200049f601f199687810183528262002e63565b519020604051928391602083019586909160429261190160f01b8352600283015260228201520190565b0384810183528262002e63565b519020608086015160a087015160608089015160408051602081019590955284019290925260f89190911b6001600160f81b03191690820152606192830181529162000523908362002e63565b62003807565b9092919262003846565b6001600160a01b038781169116036200060e5760018060a01b0382511693604083015160ff6060850151169560808501519060a086015197813b156200025d5760405163d505accf60e01b815233600482015230602482015260448101879052606481019490945260ff16608484015260a483019190915260c482019690965294600090869060e490829084905af19283156200026b57600195620005f594620005fc575b505160209091015160a086901b8690039081169133911662003692565b01620002f5565b620006079062002e33565b8a620005d8565b604051634d96a8a760e01b8152600490fd5b91506020823d60201162000654575b816200063e6020938362002e63565b810103126200025d579051906200048962000458565b3d91506200062f565b506020813d6020116200068d575b816200067a6020938362002e63565b810103126200025d57602490516200041c565b3d91506200066b565b6040516305787bdf60e01b8152600490fd5b604051631e9acf1760e31b8152600490fd5b90506020813d602011620006e9575b81620006d86020938362002e63565b810103126200025d575188620003d3565b3d9150620006c9565b60405163145a1fdd60e31b8152600490fd5b6200072d93955080919250903d1062000738575b62000724818362002e63565b8101906200328c565b92909288806200038f565b503d62000718565b60405163772e719d60e11b8152600490fd5b346200025d5760203660031901126200025d576004356007548110156200025d576200078060209162002fa3565b905460405160039290921b1c6001600160a01b03168152f35b346200025d5760003660031901126200025d57604051806007548083526020809301809160076000527fa66cc928b5edb82af9bd49922954155ab7b0942694bea4ce44661d9a8736c6889060005b868282106200084b578686620008008288038362002e63565b604051928392818401908285525180915260408401929160005b8281106200082a57505050500390f35b83516001600160a01b0316855286955093810193928101926001016200081a565b83546001600160a01b031685529093019260019283019201620007e7565b346200025d5760003660031901126200025d576002546040516001600160a01b039091168152602090f35b6101003660031901126200025d57620008ac62002deb565b6001600160401b03602435116200025d576080602435360360031901126200025d576044356001600160401b0381116200025d57620008f090369060040162002f40565b91906064356001600160401b0381116200025d576200091490369060040162002f40565b9390916001600160401b03608435116200025d5760c0608435360360031901126200025d576001600160401b0360a435116200025d576200095b3660a43560040162002f73565b6001600160401b0360c435116200025d5760c060c435360360031901126200025d576001600160401b0360e435116200025d576200099f3660e43560040162002f73565b919092620009ac62003583565b620009d8620009d2620009ca60246084350160843560040162003044565b369162002ea1565b62002ff1565b6001600160a01b03163303620006f257336000526006602052604060002054918860405162000a2a8162000a1b8760208301958d8d6084356004019289620030ce565b03601f19810183528262002e63565b5190206001600160a01b0362000a4560843560a40162003246565b16156200027757604062000a6460246084350160843560040162003044565b905003620006f25762000a9c62000aa39362000a93620009d2620009ca60246084350160843560040162003044565b93369162002ea1565b90620035b5565b1562001bad576001600160a01b0362000ac160c43560a40162003246565b16620024c6575b50505060005b828110620021c157506001600160a01b03915062000af3905060c43560a40162003246565b1615928062000fd1575b50505062000ddb576000546001600160a01b031662000b26608435602481019060040162003044565b919062000b3860446084350162003246565b9262000b4960646084350162003246565b9362000b59608480350162003246565b62000b6960a46084350162003246565b62000b7f602460c4350160c43560040162003044565b9062000b90604460c4350162003246565b9462000ba1606460c4350162003246565b9262000bb2608460c4350162003246565b9462000bc360a460c4350162003246565b968b3b156200025d576040516385687dcd60e01b815261014060048201529c8d9b8c9b62000bf8916101448e019190620030ad565b6001600160a01b0395861660248d015290851660448c015290841660648b0152921660848901528782036003190160a489015262000c3692620030ad565b6001600160a01b0394851660c487015290841660e4860152908316610104850152911661012483015203815a6000948591f180156200026b5762000dc9575b5060008051602062003ec0833981519152546001600160a01b031633811462000ce4575b505b33600052600660205260406000208054906002820180921162000cce5755600160008051602062003ee083398151915255005b634e487b7160e01b600052601160045260246000fd5b62000cf4604460c4350162003246565b62000cfe62003548565b6001600160a01b038116918215620002775760005460405163031fb6df60e31b81526001600160a01b03928316600482015283831660248201529160209183916044918391165afa9081156200026b5760009162000d87575b5015620002125762000d80916001600160601b0360a01b60025416176002556200020a62003548565b8062000c99565b90506020813d60201162000dc0575b8162000da56020938362002e63565b810103126200025d5762000db9906200327e565b8362000d57565b3d915062000d96565b62000dd49062002e33565b8062000c75565b6000546001600160a01b031662000dfc608435602481019060040162003044565b916044608435019262000e0f8462003246565b9162000e2060646084350162003246565b9362000e30608480350162003246565b62000e4060a46084350162003246565b93833b156200025d5760009562000e79958793604051998a98899788966330a6293b60e11b885260a0600489015260a4880191620030ad565b6001600160a01b039485166024870152908416604486015290831660648501529116608483015203925af180156200026b5762000fbf575b5060008051602062003ec0833981519152546001600160a01b03169033821462000ede575b505062000c9b565b62000ee99062003246565b62000ef362003548565b6001600160a01b038116918215620002775760005460405163031fb6df60e31b81526001600160a01b03928316600482015283831660248201529160209183916044918391165afa9081156200026b5760009162000f7d575b5015620002125762000f75916001600160601b0360a01b60025416176002556200020a62003548565b808062000ed6565b90506020813d60201162000fb6575b8162000f9b6020938362002e63565b810103126200025d5762000faf906200327e565b8362000f4c565b3d915062000f8c565b62000fca9062002e33565b8162000eb1565b6000546200102490610100906001600160a01b031662000ffb608435602481019060040162003044565b604051631697653560e11b815260206004820152948593928492839291602484019190620030ad565b03915afa80156200026b57859160009162002199575b508162002190575b506200074057600060805283620021775762001063604460c4350162003246565b6080525b62001081620009ca60246084350160843560040162003044565b9060009060006200109460009462002ff1565b9260005b838110620020a3575b50156200209157806200206d575b6200021257909192936000935b828510620010cd5750505062000afd565b620010e3620003238685899a969798996200333f565b80519097600195909160009081906001600160a01b0387811691161462001f08575b8a516001600160a01b03161515918262001efe575b508162001ef4575b5062001c55575b851562001a9b575b88516001600160a01b03161594600092835b60c08c01518051861015620019f557856200115e916200360d565b5180519091906001600160a01b031615620002775760208201518d8115620019e8576020015110620019d6578c6060830151151580620019bf575b15620014a657516040516370a0823160e01b815233600482015290602090829060249082906001600160a01b03165afa9081156200026b576000916200146e575b5060208301518091106200025d578d51620012039190309033906001600160a01b031662003692565b8c516020830151906001600160a01b0316803b156200025d57604051632770a7eb60e21b815230600482015260248101929092526000908290604490829084905af180156200026b576200145c575b5060018060a01b038d51166000526005602052604060002091604051926200127a8462002e17565b80546001600160a01b039081168552600190910154811660208501528e518f911680620013df575090620013419291600194620012d8620012bc60126200363d565b620012d26020860151602480350135906200364f565b62003663565b620012e881602086015162003684565b878060a01b0383511680156000146200139a57506200130c919250608051620037a7565b806200137e575b505b6200132a602082015160208401519062003684565b90816200134b575b50506020905b0151906200325b565b945b019362001143565b90602092936200136f8262001375946080519033908b8060a01b0390511662003692565b6200325b565b91908f62001332565b6200139390868060a01b0360025416620037a7565b3862001313565b608051620013a99291620037c5565b80620013b8575b505062001315565b620013d791878060a01b03905116878060a01b036002541690620037c5565b3880620013b0565b60405163313ce56760e01b815293929150602090849060049082905afa80156200026b578f9094620012d8620012bc600197620013419760009162001426575b506200363d565b6200144d915060203d60201162001454575b62001444818362002e63565b81019062003622565b386200141f565b503d62001438565b620014679062002e33565b8d62001252565b90506020813d6020116200149d575b816200148c6020938362002e63565b810103126200025d57518e620011da565b3d91506200147d565b5060a0820151151580620019a8575b1562001542578c51825160208401516001600160a01b03928316939290911690833b156200025d57604051632770a7eb60e21b81526001600160a01b0390921660048301526024820152916000908390818381604481015b03925af180156200026b57600193620013419360209262001530575b5062001338565b6200153b9062002e33565b3862001529565b608082015115158062001991575b1562001614578c516001600160a01b031680620015d85750620015876200157c620012bc60126200363d565b602084015162003684565b8d5183516001600160a01b039182169392911690833b156200025d576040516340c10f1960e01b81526001600160a01b0390921660048301526024820152916000908390818381604481016200150d565b60206004916040519283809263313ce56760e01b82525afa80156200026b57620012bc6200157c9162001587936000916200142657506200363d565b8c8a60408401511515806200197a575b156200191157505060018060a01b038d5116600052600560205260406000209060405191620016538362002e17565b80546001600160a01b03908116845260019091015416602083015289620018f85781516040516370a0823160e01b815233600482015290602090829060249082906001600160a01b03165afa9081156200026b57600091620018c0575b506020840151116200025d575b8d516001600160a01b03168062001884575062001721620016f9620016e360126200363d565b620012d26020870151602480350135906200364f565b928b1562001833578362001814575b602060018060a01b039101511692602085015162003684565b91803b156200025d576040516340c10f1960e01b81526080516001600160a01b0316600482015260248101939093526000908390604490829084905af19283156200026b578e620013419360019562001802575b506020820151602082015180821062001795575b50505060209062001338565b90620017a19162003684565b908b82620017b3575b81925062001789565b938291620017de9360209596898060a01b031615600014620017e8576200136f9150608051620037a7565b91908f8b620017aa565b6200136f916080519033908b8060a01b0390511662003692565b6200180d9062002e33565b3862001775565b6002546200182d9085906001600160a01b0316620037a7565b62001708565b6200185c60018060a01b038251166200185186602089015162003684565b903090339062003692565b8315620017085780516002546200182d9186916001600160a01b039081169133911662003692565b60206004916040519283809263313ce56760e01b82525afa80156200026b57620016e3620016f99162001721936000916200142657506200363d565b90506020813d602011620018ef575b81620018de6020938362002e63565b810103126200025d57518f620016b0565b3d9150620018cf565b966200190a906020840151906200325b565b96620016bd565b60019362001341939260209262001929575062001338565b8c1562001950575062001949858060a01b038251168383015190620037a7565b8f62001529565b6200197490868060a01b03905116868060a01b038351168484015191339062003692565b62001949565b5081516001600160a01b038b811691161462001624565b508c516001600160a01b0389811691161462001550565b508c516001600160a01b03898116911614620014b5565b5080516001600160a01b038a811691161462001199565b60405163143d1ae760e21b8152600490fd5b5050946001915062001343565b50935097955098909397929562001a31575b602001510362001a1f576001019394909192620010bc565b6040516312171d8360e31b8152600490fd5b62001a4182602083015162003684565b8062001a4f575b5062001a07565b909160209162001a76916001600160a01b038b1662001a7e576200136f82608051620037a7565b919062001a48565b60805185516200136f91849133906001600160a01b031662003692565b42604460243501351062000696576001600160a01b0362001ac160046024350162003246565b1662001be75762001ad360126200363d565b6024803501351162001bd55762001aef60243560040162003246565b6040519060018060a01b0316602082015260248035013560408201526060604460243501358183015281528060808101106001600160401b0360808301111762001bbf5760808101604052602081519101207f19457468657265756d205369676e6564204d6573736167653a0a333200000000600052601c5262001b9662000529603c60002062001b8f620009ca60646024350160243560040162003044565b9062003807565b6003546001600160a01b0391821691161462001131575b604051638baa579f60e01b8152600490fd5b634e487b7160e01b600052604160045260246000fd5b604051630adad23360e31b8152600490fd5b600460206001600160a01b0362001c02602435840162003246565b166040519283809263313ce56760e01b82525afa80156200026b5762001ad39160009162001c3157506200363d565b62001c4e915060203d602011620014545762001444818362002e63565b8b6200141f565b6040890151421162000696578851604051633644e51560e01b815290602090829060049082906001600160a01b03165afa9081156200026b5760009162001ebc575b5060208a8101518b51604051623f675f60e91b81523360048201529290839060249082906001600160a01b03165afa80156200026b578c9260009162001e7c575b509262000a1b62001d0f849362001d61966200049f6040620005299801519162000a1b6040519384926020840196303389620034f0565b519020608082015160a083015160609384015160408051602081019490945283019190915260f81b6001600160f81b031916928101929092526200052382606181015b03601f19810184528362002e63565b6001600160a01b0388811691160362001e1d575b8860018060a01b0381511660208201519060408301519060ff6060850151169160a06080860151950151823b156200025d5760405163d505accf60e01b81523360048201523060248201526044810195909552606485019190915260ff92909216608484015260a483019390935260c482015290600090829060e490829084905af180156200026b5762001e0b575b5062001129565b62001e169062002e33565b8962001e04565b91936000989691939795985b60c0880151805182101562001e6b576001600160a01b039062001e4e9083906200360d565b51511660018060a01b0360805116036200060e5760010162001e29565b505093919794969290959762001d75565b919250506020813d60201162001eb3575b8162001e9c6020938362002e63565b810103126200025d57518b919062000a1b62001cd8565b3d915062001e8d565b90506020813d60201162001eeb575b8162001eda6020938362002e63565b810103126200025d57518a62001c97565b3d915062001ecb565b9050158a62001122565b1591508b6200111a565b97929190989560009a9794959a5b60c089015180518210156200205a578162001f31916200360d565b516040810151158015906200204c575b80156200203e575b801562002030575b62001f89575b608081015162001f7f575b60a0015162001f75575b60010162001f16565b6001995062001f6c565b60019b5062001f62565b600096506001600160a01b038d1615158062001ff9575b8062001fbf575b1562001f5757604051630adad23360e31b8152600490fd5b5062001fd060243560040162003246565b6001600160a01b038e811660009081526005602052604090206001015481169116141562001fa7565b506200200a60243560040162003246565b6001600160a01b038e811660009081526005602052604090205481169116141562001fa0565b5060a0810151151562001f51565b506060810151151562001f49565b506080810151151562001f41565b5050959890919297999493969962001105565b5060008051602062003ec0833981519152546001600160a01b0316331415620010af565b604051633bee968760e01b8152600490fd5b620020b46200032382868a6200333f565b80516001600160a01b031680156200216d575b6001600160a01b038a1614620020e2575b5060010162001098565b979593919096949260c060009901985b895180518210156200215b57816200210a916200360d565b51608081015115908115916200214c575b506200212a57600101620020f2565b5050909294965060019591939591825b620021465789620020d8565b620010a1565b60a09150015115158c6200211b565b5050809395979192949698506200213a565b60019350620020c7565b6200218760446084350162003246565b60805262001067565b90508562001042565b620021b891506101003d61010011620007385762000724818362002e63565b9050866200103a565b8060051b820135607e19833603018112156200025d5760808184013603126200025d57604051908160808101106001600160401b0360808401111762001bbf57608082016040526200221581850162002e02565b8252602081850101356001600160401b0381116200025d576200223e9036908387010162002edd565b6020830152604081850101356001600160401b0381116200025d576200226a9036908387010162002edd565b6040830152620022806060809286010162002e02565b8282015281516001600160a01b0390811660009081526005602052604090206001015416620024b4578101516001600160a01b03168015620023d0575b8151604051906001600160a01b0316620022d78262002e17565b81526001600160a01b0391821660208083018281528551851660009081526005909252604091829020935184549086166001600160a01b03199182161785559051600194850180549187169183169190911790558551915192949093929116620023418262002e17565b815260208101938085526000526005602052604060002090828060a01b0390511683825416178155019160018060a01b039051169082541617905560018060a01b0390511690600754916801000000000000000083101562001bbf57620023b083600180950160075562002fa3565b819291549060031b91821b91858060a01b03901b19161790550162000ace565b506200241862002446602083015160408401516200242b60018060a01b0360005416916040519586946303bf912560e11b60208701526080602487015260a486019062002efe565b8481036023190160448601529062002efe565b90306064840152608483015203601f19810183528262002e63565b60045460405191906001600160a01b03166001600160401b0361049484019081119084111762001bbf578291620024999161049462003a2c85396104948401908152604060208201819052019062002efe565b03906000f080156200026b576001600160a01b0316620022bd565b604051636bb9e87d60e01b8152600490fd5b60018101811162000cce57604051620024f68162000a1b60016020830195018b8a8a60c4356004019289620030ce565b519020604062002511602460c4350160c43560040162003044565b905003620006f2576001600160a01b036200253160c43560a40162003246565b1615620002775762000a9c6200255f9362000a93620009d2620009ca602460c4350160c43560040162003044565b1562001bad5785808062000ac8565b346200025d5760003660031901126200025d576000546040516001600160a01b039091168152602090f35b346200025d5760003660031901126200025d57620025e5604051620025be8162002e17565b60058152640352e302e360dc1b602082015260405191829160208352602083019062002efe565b0390f35b346200025d5760203660031901126200025d576200260662002deb565b6200261062003548565b6001600160a01b0316801562002638576001600160601b0360a01b6002541617600255600080f35b60405163bb0bac9960e01b8152600490fd5b346200025d5760203660031901126200025d576200266762002deb565b6200267162003548565b6001600160a01b0316801562000277576001600160601b0360a01b6004541617600455600080f35b346200025d5760003660031901126200025d5760008051602062003ec0833981519152546040516001600160a01b039091168152602090f35b346200025d5760003660031901126200025d576001546040516001600160a01b039091168152602090f35b346200025d5760203660031901126200025d576001600160a01b036200272262002deb565b1660005260066020526020604060002054604051908152f35b346200025d5760203660031901126200025d576200275862002deb565b6200276262003548565b6001600160a01b0316801562000277576001600160601b0360a01b6003541617600355600080f35b346200025d5760003660031901126200025d57620027a762003548565b60008051602062003ec083398151915280546001600160a01b031981169091556000906001600160a01b03167f8be0079c531659141344cd1fd0a4f28419497f9722a3daafe3b4186f6b6457e08280a3005b346200025d5760203660031901126200025d576200281662002deb565b6200282062003548565b479081156200025d57600080809381935af16200283c6200300f565b50156200025d57005b346200025d5760003660031901126200025d577f00000000000000000000000000000000000000000000000000000000000000006001600160a01b03163003620028b35760206040517f360894a13ba1a3210667c828492db98dca3e2076cc3735a920a3ca505d382bbc8152f35b60405163703e46dd60e11b8152600490fd5b60403660031901126200025d57620028dc62002deb565b6024356001600160401b0381116200025d57620028fe90369060040162002edd565b906001600160a01b037f0000000000000000000000000000000000000000000000000000000000000000811630811490811562002aa7575b50620028b3576200294662003548565b8116906040516352d1902d60e01b8152602081600481865afa6000918162002a6d575b506200298857604051634c9c8ce360e01b815260048101849052602490fd5b7f360894a13ba1a3210667c828492db98dca3e2076cc3735a920a3ca505d382bbc9291929081810362002a555750823b1562002a3c5780546001600160a01b03191682179055604051907fbc7cd75a20ee27fd9adebab32041f755214dbc6bffa90cc0225b39da2e5c2d3b600080a282511562002a2257506000808360206200021095519101845af462002a1b6200300f565b91620039c3565b9150503462002a2d57005b63b398979f60e01b8152600490fd5b604051634c9c8ce360e01b815260048101839052602490fd5b60249060405190632a87526960e21b82526004820152fd5b9091506020813d60201162002a9e575b8162002a8c6020938362002e63565b810103126200025d5751908562002969565b3d915062002a7d565b9050817f360894a13ba1a3210667c828492db98dca3e2076cc3735a920a3ca505d382bbc541614158462002936565b346200025d5760403660031901126200025d5762002af362002deb565b6001600160a01b0390602435828116908190036200025d577ff0c57e16840df040f15088dc2f81fe391c3923bec73e23a9662efc9c229c6a009283549260ff8460401c1615936001600160401b0381168015908162002c8a575b600114908162002c7f575b15908162002c75575b5062002c635767ffffffffffffffff19811660011786558462002c43575b5062002b8a62003765565b62002b9462003765565b62002b9f33620036ef565b62002ba962003765565b62002bb362003765565b62002bbd62003765565b600160008051602062003ee08339815191525516801562000277576001600160601b0360a01b9081600054161760005533816002541617600255600454161760045562002c0657005b68ff00000000000000001981541690557fc7f505b2f371ae2175ee4913f4499e1f2633a7b5936321eed1cdaeb6115181d2602060405160018152a1005b68ffffffffffffffffff1916680100000000000000011785558562002b7f565b60405163f92ee8a960e01b8152600490fd5b9050158762002b61565b303b15915062002b58565b86915062002b4d565b346200025d5760203660031901126200025d576001600160a01b038062002cb962002deb565b16600090815260056020908152604091829020805460019091015483516001600160a01b03928616831681529416169083015290f35b346200025d5760003660031901126200025d576004546040516001600160a01b039091168152602090f35b346200025d5760203660031901126200025d576004356001600160401b0381116200025d5762002d55620009d2602092369060040162002edd565b6040516001600160a01b039091168152f35b346200025d5760203660031901126200025d576020806001600160a01b038062002d9062002deb565b166000526005825260406000209060016040519262002daf8462002e17565b8281541684520154169182910152604051908152f35b346200025d5760003660031901126200025d576003546001600160a01b03168152602090f35b600435906001600160a01b03821682036200025d57565b35906001600160a01b03821682036200025d57565b604081019081106001600160401b0382111762001bbf57604052565b6001600160401b03811162001bbf57604052565b60e081019081106001600160401b0382111762001bbf57604052565b90601f801991011681019081106001600160401b0382111762001bbf57604052565b6001600160401b03811162001bbf57601f01601f191660200190565b92919262002eaf8262002e85565b9162002ebf604051938462002e63565b8294818452818301116200025d578281602093846000960137010152565b9080601f830112156200025d5781602062002efb9335910162002ea1565b90565b919082519283825260005b84811062002f2b575050826000602080949584010152601f8019910116010190565b60208183018101518483018201520162002f09565b9181601f840112156200025d578235916001600160401b0383116200025d576020808501948460051b0101116200025d57565b9181601f840112156200025d578235916001600160401b0383116200025d57602083818601950101116200025d57565b60075481101562002fdb5760076000527fa66cc928b5edb82af9bd49922954155ab7b0942694bea4ce44661d9a8736c6880190600090565b634e487b7160e01b600052603260045260246000fd5b6040815103620006f25780516020909101206001600160a01b031690565b3d156200303f573d90620030238262002e85565b9162003033604051938462002e63565b82523d6000602084013e565b606090565b903590601e19813603018212156200025d57018035906001600160401b0382116200025d576020019181360383136200025d57565b9035601e19823603018112156200025d5701602081359101916001600160401b0382116200025d5781360383136200025d57565b908060209392818452848401376000828201840152601f01601f1916010190565b94929095936080928387019060018060a01b0380991688528360209286848b01525260a0880160a08560051b8a010194826000906000915b838310620031a157505050505050966200319860a08093620031558a9b8b604060609b9c9d8a039101528235885260c0620031448285018562003079565b9190928a015260c0890191620030ad565b9684620031656040840162002e02565b16604088015284620031798a840162002e02565b1689880152846200318c82840162002e02565b16908701520162002e02565b16910152930152565b909192939497609f198d82030186528835607e19843603018112156200324257878f6001938d6200321f62003201898697019285620031e08562002e02565b168552620031f18785018562003079565b90918089880152860191620030ad565b6040620032118185018562003079565b9186840390870152620030ad565b926200322f606080930162002e02565b169101529a019601949301919062003106565b8280fd5b356001600160a01b03811681036200025d5790565b9190820180921162000cce57565b51906001600160a01b03821682036200025d57565b519081151582036200025d57565b8092910361010081126200025d5760e0136200025d57604051620032b08162002e47565b620032bb8362003269565b8152620032cb6020840162003269565b6020820152620032de6040840162003269565b6040820152620032f16060840162003269565b6060820152620033046080840162003269565b60808201526200331760a084016200327e565b60a082015260c083015160038110156200025d5760c08201529162002efb9060e0016200327e565b919081101562002fdb5760051b8101359060de19813603018212156200025d570190565b359081151582036200025d57565b60e0813603126200025d5760408051916200338c8362002e47565b620033978162002e02565b8352602080820135818501528282013583850152606090606083013560ff811681036200025d5760608601526080916080840135608087015260a09360a081013560a088015260c094858201356001600160401b03928382116200025d57019436601f870112156200025d5785359383851162001bbf5788519862003422878760051b018b62002e63565b858a528689818c019702890101973689116200025d578701955b888710620034535750505050505050505082015290565b89873603126200025d578151908a82019082821088831117620034db578b928a928552620034818a62002e02565b8152828a01358382015262003498858b0162003363565b85820152620034a9868b0162003363565b86820152620034ba878b0162003363565b87820152620034cb888b0162003363565b888201528152019601956200343c565b60246000634e487b7160e01b81526041600452fd5b7f6e71edae12b1b97f4d1f60370fef10105fa2faae0126114a169c64845d6126c981526001600160a01b039182166020820152911660408201526060810191909152608081019190915260a081019190915260c00190565b60008051602062003ec0833981519152546001600160a01b031633036200356b57565b60405163118cdaa760e01b8152336004820152602490fd5b60008051602062003ee08339815191526002815414620035a35760029055565b604051633ee5aeb560e01b8152600490fd5b620035fc9291620035f2917f19457468657265756d205369676e6564204d6573736167653a0a333200000000600052601c52603c60002062003807565b9093919362003846565b6001600160a01b0391821691161490565b805182101562002fdb5760209160051b010190565b908160209103126200025d575160ff811681036200025d5790565b60ff16604d811162000cce57600a0a90565b8181029291811591840414171562000cce57565b81156200366e570490565b634e487b7160e01b600052601260045260246000fd5b9190820391821162000cce57565b6040516323b872dd60e01b60208201526001600160a01b03928316602482015292909116604483015260648083019390935291815260a08101918183106001600160401b0384111762001bbf57620036ed92604052620038d0565b565b6001600160a01b039081169081156200374c5760008051602062003ec083398151915280546001600160a01b031981168417909155167f8be0079c531659141344cd1fd0a4f28419497f9722a3daafe3b4186f6b6457e0600080a3565b604051631e4fbdf760e01b815260006004820152602490fd5b60ff7ff0c57e16840df040f15088dc2f81fe391c3923bec73e23a9662efc9c229c6a005460401c16156200379557565b604051631afcd79f60e31b8152600490fd5b60008080938193617530f1620037bc6200300f565b501562001a1f57565b60405163a9059cbb60e01b60208201526001600160a01b0390921660248301526044820192909252620036ed9162003801826064810162001d52565b620038d0565b81519190604183036200383b576200383492506020820151906060604084015193015160001a9062003930565b9192909190565b505060009160029190565b6004811015620038ba57806200385a575050565b60018103620038755760405163f645eedf60e01b8152600490fd5b60028103620038975760405163fce698f760e01b815260048101839052602490fd5b600314620038a25750565b602490604051906335e2f38360e21b82526004820152fd5b634e487b7160e01b600052602160045260246000fd5b906000602091828151910182855af1156200026b576000513d6200392657506001600160a01b0381163b155b620039045750565b604051635274afe760e01b81526001600160a01b039091166004820152602490fd5b60011415620038fc565b91907f7fffffffffffffffffffffffffffffff5d576e7357a4501ddfe92f46681b20a08411620039b757926020929160ff608095604051948552168484015260408301526060820152600092839182805260015afa15620039ab5780516001600160a01b03811615620039a257918190565b50809160019190565b604051903d90823e3d90fd5b50505060009160039190565b90620039ec5750805115620039da57805190602001fd5b60405163d6bda27560e01b8152600490fd5b8151158062003a21575b620039ff575090565b604051639996b31560e01b81526001600160a01b039091166004820152602490fd5b50803b15620039f656fe60a0604090808252346101eb57610494803803809161001e828561029a565b8339810182828203126101eb57610034826102d3565b60208084015191939091906001600160401b0382116101eb570182601f820112156101eb57805190610065826102e7565b936100728751958661029a565b8285528383830101116101eb57829060005b83811061028657505060009184010152823b15610266577fa3f0ad74e5423aebfd80d3ef4346578335a9a72aeaee59ff6cb3582b35133d5080546001600160a01b0319166001600160a01b038581169182179092558551635c60da1b60e01b8082529194928482600481895afa91821561025b57600092610224575b50813b1561020b575050837f1cf3b03a6cf19fa2baba4df148e9dcabedea7f8a5c07840e207e5c089be95d3e600080a2815115610202578290600487518096819382525afa9283156101f7576000936101b5575b5091600080848461019296519101845af4903d156101ac573d610176816102e7565b906101838851928361029a565b8152600081943d92013e610302565b505b6080525161012e908161036682396080518160180152f35b60609250610302565b92508183813d83116101f0575b6101cc818361029a565b810103126101eb576000806101e3610192956102d3565b945050610154565b600080fd5b503d6101c2565b85513d6000823e3d90fd5b50505050610194565b8751634c9c8ce360e01b81529116600482015260249150fd5b9091508481813d8311610254575b61023c818361029a565b810103126101eb5761024d906102d3565b9038610100565b503d610232565b88513d6000823e3d90fd5b8351631933b43b60e21b81526001600160a01b0384166004820152602490fd5b818101830151868201840152849201610084565b601f909101601f19168101906001600160401b038211908210176102bd57604052565b634e487b7160e01b600052604160045260246000fd5b51906001600160a01b03821682036101eb57565b6001600160401b0381116102bd57601f01601f191660200190565b90610329575080511561031757805190602001fd5b60405163d6bda27560e01b8152600490fd5b8151158061035c575b61033a575090565b604051639996b31560e01b81526001600160a01b039091166004820152602490fd5b50803b1561033256fe60806040819052635c60da1b60e01b81526020816004817f00000000000000000000000000000000000000000000000000000000000000006001600160a01b03165afa90811560a9576000916054575b5060da565b905060203d60201160a3575b601f8101601f191682019167ffffffffffffffff831181841017608d576088926040520160b5565b38604f565b634e487b7160e01b600052604160045260246000fd5b503d6060565b6040513d6000823e3d90fd5b602090607f19011260d5576080516001600160a01b038116810360d55790565b600080fd5b6000808092368280378136915af43d82803e1560f4573d90f35b3d90fdfea2646970667358221220b642a315c875b99fe477933660ffe34497f9b4c9976cb8843c721c1c7db2123d64736f6c634300081800339016d09d72d40fdae2fd8ceac6b6234c7706214fd39c1cd1e609a0528c1993009b779b17422d0df92223018b32b4d1fa46e071723d6817e2486d003becc55f00a264697066735822122080bed7b69e41e22b2dc83f0ba2009b8c259a8b37ca7a0fa027ecc22869354bb064736f6c63430008180033",
  "linkReferences": {},
  "deployedLinkReferences": {}
}