{
  "_format": "hh-sol-artifact-1",
  "contractName": "Bridge",
  "sourceName": "contracts/Bridge.sol",
  "abi": [
    {
      "inputs": [
        {
          "internalType": "address",
          "name": "target",
          "type": "address"
        }
      ],
      "name": "AddressEmptyCode",
      "type": "error"
    },
    {
      "inputs": [],
      "name": "AmountTooLow",
      "type": "error"
    },
    {
      "inputs": [],
      "name": "BurnAmountZero",
      "type": "error"
    },
    {
      "inputs": [],
      "name": "ECDSAInvalidSignature",
      "type": "error"
    },
    {
      "inputs": [
        {
          "internalType": "uint256",
          "name": "length",
          "type": "uint256"
        }
      ],
      "name": "ECDSAInvalidSignatureLength",
      "type": "error"
    },
    {
      "inputs": [
        {
          "internalType": "bytes32",
          "name": "s",
          "type": "bytes32"
        }
      ],
      "name": "ECDSAInvalidSignatureS",
      "type": "error"
    },
    {
      "inputs": [
        {
          "internalType": "address",
          "name": "implementation",
          "type": "address"
        }
      ],
      "name": "ERC1967InvalidImplementation",
      "type": "error"
    },
    {
      "inputs": [],
      "name": "ERC1967NonPayable",
      "type": "error"
    },
    {
      "inputs": [],
      "name": "EthTransferFailed",
      "type": "error"
    },
    {
      "inputs": [],
      "name": "FailedCall",
      "type": "error"
    },
    {
      "inputs": [],
      "name": "FeeTooHigh",
      "type": "error"
    },
    {
      "inputs": [],
      "name": "FeeTransferFailed",
      "type": "error"
    },
    {
      "inputs": [],
      "name": "InsufficientAllowance",
      "type": "error"
    },
    {
      "inputs": [
        {
          "internalType": "address",
          "name": "token",
          "type": "address"
        }
      ],
      "name": "InsufficientPermits",
      "type": "error"
    },
    {
      "inputs": [],
      "name": "InvalidConfirmingSignature",
      "type": "error"
    },
    {
      "inputs": [],
      "name": "InvalidFeeCollector",
      "type": "error"
    },
    {
      "inputs": [],
      "name": "InvalidInitialization",
      "type": "error"
    },
    {
      "inputs": [],
      "name": "InvalidPrerotatedKeyHash",
      "type": "error"
    },
    {
      "inputs": [],
      "name": "InvalidPriceFeed",
      "type": "error"
    },
    {
      "inputs": [],
      "name": "InvalidPublicKey",
      "type": "error"
    },
    {
      "inputs": [],
      "name": "InvalidUnconfirmedSignature",
      "type": "error"
    },
    {
      "inputs": [],
      "name": "NoTokenPairs",
      "type": "error"
    },
    {
      "inputs": [],
      "name": "NotInitializing",
      "type": "error"
    },
    {
      "inputs": [
        {
          "internalType": "address",
          "name": "owner",
          "type": "address"
        }
      ],
      "name": "OwnableInvalidOwner",
      "type": "error"
    },
    {
      "inputs": [
        {
          "internalType": "address",
          "name": "account",
          "type": "address"
        }
      ],
      "name": "OwnableUnauthorizedAccount",
      "type": "error"
    },
    {
      "inputs": [],
      "name": "ReentrancyGuardReentrantCall",
      "type": "error"
    },
    {
      "inputs": [],
      "name": "RestrictedToOwnerRelayer",
      "type": "error"
    },
    {
      "inputs": [],
      "name": "TokenPairExists",
      "type": "error"
    },
    {
      "inputs": [],
      "name": "TokenPairNotSupported",
      "type": "error"
    },
    {
      "inputs": [],
      "name": "TransferFailed",
      "type": "error"
    },
    {
      "inputs": [],
      "name": "UUPSUnauthorizedCallContext",
      "type": "error"
    },
    {
      "inputs": [
        {
          "internalType": "bytes32",
          "name": "slot",
          "type": "bytes32"
        }
      ],
      "name": "UUPSUnsupportedProxiableUUID",
      "type": "error"
    },
    {
      "inputs": [],
      "name": "ZeroAddress",
      "type": "error"
    },
    {
      "anonymous": false,
      "inputs": [
        {
          "indexed": false,
          "internalType": "uint64",
          "name": "version",
          "type": "uint64"
        }
      ],
      "name": "Initialized",
      "type": "event"
    },
    {
      "anonymous": false,
      "inputs": [
        {
          "indexed": true,
          "internalType": "address",
          "name": "previousOwner",
          "type": "address"
        },
        {
          "indexed": true,
          "internalType": "address",
          "name": "newOwner",
          "type": "address"
        }
      ],
      "name": "OwnershipTransferred",
      "type": "event"
    },
    {
      "anonymous": false,
      "inputs": [
        {
          "indexed": true,
          "internalType": "address",
          "name": "implementation",
          "type": "address"
        }
      ],
      "name": "Upgraded",
      "type": "event"
    },
    {
      "inputs": [],
      "name": "BURN_ADDRESS",
      "outputs": [
        {
          "internalType": "address",
          "name": "",
          "type": "address"
        }
      ],
      "stateMutability": "view",
      "type": "function"
    },
    {
      "inputs": [],
      "name": "FEE_CAP_USD",
      "outputs": [
        {
          "internalType": "uint256",
          "name": "",
          "type": "uint256"
        }
      ],
      "stateMutability": "view",
      "type": "function"
    },
    {
      "inputs": [],
      "name": "FEE_DENOMINATOR",
      "outputs": [
        {
          "internalType": "uint256",
          "name": "",
          "type": "uint256"
        }
      ],
      "stateMutability": "view",
      "type": "function"
    },
    {
      "inputs": [],
      "name": "UPGRADE_INTERFACE_VERSION",
      "outputs": [
        {
          "internalType": "string",
          "name": "",
          "type": "string"
        }
      ],
      "stateMutability": "view",
      "type": "function"
    },
    {
      "inputs": [
        {
          "components": [
            {
              "internalType": "address",
              "name": "originalToken",
              "type": "address"
            },
            {
              "internalType": "string",
              "name": "tokenName",
              "type": "string"
            },
            {
              "internalType": "string",
              "name": "tokenSymbol",
              "type": "string"
            },
            {
              "internalType": "bool",
              "name": "isCrossChain",
              "type": "bool"
            },
            {
              "internalType": "address",
              "name": "wrappedToken",
              "type": "address"
            },
            {
              "internalType": "address",
              "name": "priceFeed",
              "type": "address"
            }
          ],
          "internalType": "struct Bridge.TokenPair[]",
          "name": "newTokenPairs",
          "type": "tuple[]"
        },
        {
          "components": [
            {
              "internalType": "bytes",
              "name": "signature",
              "type": "bytes"
            },
            {
              "internalType": "bytes",
              "name": "publicKey",
              "type": "bytes"
            },
            {
              "internalType": "address",
              "name": "publicKeyHash",
              "type": "address"
            },
            {
              "internalType": "address",
              "name": "prerotatedKeyHash",
              "type": "address"
            },
            {
              "internalType": "address",
              "name": "twicePrerotatedKeyHash",
              "type": "address"
            },
            {
              "internalType": "address",
              "name": "prevPublicKeyHash",
              "type": "address"
            },
            {
              "internalType": "address",
              "name": "outputAddress",
              "type": "address"
            },
            {
              "internalType": "bool",
              "name": "hasRelationship",
              "type": "bool"
            },
            {
              "components": [
                {
                  "internalType": "address",
                  "name": "token",
                  "type": "address"
                },
                {
                  "internalType": "uint256",
                  "name": "amount",
                  "type": "uint256"
                },
                {
                  "internalType": "uint256",
                  "name": "deadline",
                  "type": "uint256"
                },
                {
                  "internalType": "uint8",
                  "name": "v",
                  "type": "uint8"
                },
                {
                  "internalType": "bytes32",
                  "name": "r",
                  "type": "bytes32"
                },
                {
                  "internalType": "bytes32",
                  "name": "s",
                  "type": "bytes32"
                },
                {
                  "internalType": "address",
                  "name": "recipient",
                  "type": "address"
                }
              ],
              "internalType": "struct Bridge.PermitData[]",
              "name": "permits",
              "type": "tuple[]"
            }
          ],
          "internalType": "struct Bridge.KeyData",
          "name": "unconfirmed",
          "type": "tuple"
        },
        {
          "components": [
            {
              "internalType": "bytes",
              "name": "signature",
              "type": "bytes"
            },
            {
              "internalType": "bytes",
              "name": "publicKey",
              "type": "bytes"
            },
            {
              "internalType": "address",
              "name": "publicKeyHash",
              "type": "address"
            },
            {
              "internalType": "address",
              "name": "prerotatedKeyHash",
              "type": "address"
            },
            {
              "internalType": "address",
              "name": "twicePrerotatedKeyHash",
              "type": "address"
            },
            {
              "internalType": "address",
              "name": "prevPublicKeyHash",
              "type": "address"
            },
            {
              "internalType": "address",
              "name": "outputAddress",
              "type": "address"
            },
            {
              "internalType": "bool",
              "name": "hasRelationship",
              "type": "bool"
            },
            {
              "components": [
                {
                  "internalType": "address",
                  "name": "token",
                  "type": "address"
                },
                {
                  "internalType": "uint256",
                  "name": "amount",
                  "type": "uint256"
                },
                {
                  "internalType": "uint256",
                  "name": "deadline",
                  "type": "uint256"
                },
                {
                  "internalType": "uint8",
                  "name": "v",
                  "type": "uint8"
                },
                {
                  "internalType": "bytes32",
                  "name": "r",
                  "type": "bytes32"
                },
                {
                  "internalType": "bytes32",
                  "name": "s",
                  "type": "bytes32"
                },
                {
                  "internalType": "address",
                  "name": "recipient",
                  "type": "address"
                }
              ],
              "internalType": "struct Bridge.PermitData[]",
              "name": "permits",
              "type": "tuple[]"
            }
          ],
          "internalType": "struct Bridge.KeyData",
          "name": "confirming",
          "type": "tuple"
        }
      ],
      "name": "addMultipleTokenPairsAtomic",
      "outputs": [],
      "stateMutability": "payable",
      "type": "function"
    },
    {
      "inputs": [
        {
          "internalType": "address",
          "name": "originalToken",
          "type": "address"
        },
        {
          "internalType": "address",
          "name": "wrappedToken",
          "type": "address"
        },
        {
          "internalType": "bool",
          "name": "_isCrossChain",
          "type": "bool"
        }
      ],
      "name": "addTokenPair",
      "outputs": [],
      "stateMutability": "nonpayable",
      "type": "function"
    },
    {
      "inputs": [],
      "name": "feeCollector",
      "outputs": [
        {
          "internalType": "address",
          "name": "",
          "type": "address"
        }
      ],
      "stateMutability": "view",
      "type": "function"
    },
    {
      "inputs": [],
      "name": "feePercentage",
      "outputs": [
        {
          "internalType": "uint256",
          "name": "",
          "type": "uint256"
        }
      ],
      "stateMutability": "view",
      "type": "function"
    },
    {
      "inputs": [
        {
          "internalType": "bytes",
          "name": "publicKey",
          "type": "bytes"
        }
      ],
      "name": "getAddressFromPublicKey",
      "outputs": [
        {
          "internalType": "address",
          "name": "",
          "type": "address"
        }
      ],
      "stateMutability": "pure",
      "type": "function"
    },
    {
      "inputs": [],
      "name": "getSupportedTokens",
      "outputs": [
        {
          "internalType": "address[]",
          "name": "",
          "type": "address[]"
        }
      ],
      "stateMutability": "view",
      "type": "function"
    },
    {
      "inputs": [
        {
          "internalType": "address",
          "name": "_keyLogRegistry",
          "type": "address"
        }
      ],
      "name": "initialize",
      "outputs": [],
      "stateMutability": "nonpayable",
      "type": "function"
    },
    {
      "inputs": [],
      "name": "keyLogRegistry",
      "outputs": [
        {
          "internalType": "contract KeyLogRegistry",
          "name": "",
          "type": "address"
        }
      ],
      "stateMutability": "view",
      "type": "function"
    },
    {
      "inputs": [
        {
          "internalType": "address",
          "name": "",
          "type": "address"
        }
      ],
      "name": "nonces",
      "outputs": [
        {
          "internalType": "uint256",
          "name": "",
          "type": "uint256"
        }
      ],
      "stateMutability": "view",
      "type": "function"
    },
    {
      "inputs": [
        {
          "internalType": "address",
          "name": "originalToken",
          "type": "address"
        }
      ],
      "name": "originalToWrapped",
      "outputs": [
        {
          "internalType": "address",
          "name": "",
          "type": "address"
        }
      ],
      "stateMutability": "view",
      "type": "function"
    },
    {
      "inputs": [],
      "name": "owner",
      "outputs": [
        {
          "internalType": "address",
          "name": "",
          "type": "address"
        }
      ],
      "stateMutability": "view",
      "type": "function"
    },
    {
      "inputs": [],
      "name": "proxiableUUID",
      "outputs": [
        {
          "internalType": "bytes32",
          "name": "",
          "type": "bytes32"
        }
      ],
      "stateMutability": "view",
      "type": "function"
    },
    {
      "inputs": [
        {
          "components": [
            {
              "internalType": "uint256",
              "name": "amount",
              "type": "uint256"
            },
            {
              "internalType": "bytes",
              "name": "signature",
              "type": "bytes"
            },
            {
              "internalType": "bytes",
              "name": "publicKey",
              "type": "bytes"
            },
            {
              "internalType": "address",
              "name": "prerotatedKeyHash",
              "type": "address"
            },
            {
              "internalType": "address",
              "name": "twicePrerotatedKeyHash",
              "type": "address"
            },
            {
              "internalType": "address",
              "name": "prevPublicKeyHash",
              "type": "address"
            },
            {
              "internalType": "address",
              "name": "outputAddress",
              "type": "address"
            },
            {
              "internalType": "bool",
              "name": "hasRelationship",
              "type": "bool"
            },
            {
              "internalType": "address",
              "name": "tokenSource",
              "type": "address"
            },
            {
              "components": [
                {
                  "internalType": "address",
                  "name": "token",
                  "type": "address"
                },
                {
                  "internalType": "uint256",
                  "name": "amount",
                  "type": "uint256"
                },
                {
                  "internalType": "uint256",
                  "name": "deadline",
                  "type": "uint256"
                },
                {
                  "internalType": "uint8",
                  "name": "v",
                  "type": "uint8"
                },
                {
                  "internalType": "bytes32",
                  "name": "r",
                  "type": "bytes32"
                },
                {
                  "internalType": "bytes32",
                  "name": "s",
                  "type": "bytes32"
                },
                {
                  "internalType": "address",
                  "name": "recipient",
                  "type": "address"
                }
              ],
              "internalType": "struct Bridge.PermitData[]",
              "name": "permits",
              "type": "tuple[]"
            }
          ],
          "internalType": "struct Bridge.Params",
          "name": "unconfirmed",
          "type": "tuple"
        },
        {
          "components": [
            {
              "internalType": "uint256",
              "name": "amount",
              "type": "uint256"
            },
            {
              "internalType": "bytes",
              "name": "signature",
              "type": "bytes"
            },
            {
              "internalType": "bytes",
              "name": "publicKey",
              "type": "bytes"
            },
            {
              "internalType": "address",
              "name": "prerotatedKeyHash",
              "type": "address"
            },
            {
              "internalType": "address",
              "name": "twicePrerotatedKeyHash",
              "type": "address"
            },
            {
              "internalType": "address",
              "name": "prevPublicKeyHash",
              "type": "address"
            },
            {
              "internalType": "address",
              "name": "outputAddress",
              "type": "address"
            },
            {
              "internalType": "bool",
              "name": "hasRelationship",
              "type": "bool"
            },
            {
              "internalType": "address",
              "name": "tokenSource",
              "type": "address"
            },
            {
              "components": [
                {
                  "internalType": "address",
                  "name": "token",
                  "type": "address"
                },
                {
                  "internalType": "uint256",
                  "name": "amount",
                  "type": "uint256"
                },
                {
                  "internalType": "uint256",
                  "name": "deadline",
                  "type": "uint256"
                },
                {
                  "internalType": "uint8",
                  "name": "v",
                  "type": "uint8"
                },
                {
                  "internalType": "bytes32",
                  "name": "r",
                  "type": "bytes32"
                },
                {
                  "internalType": "bytes32",
                  "name": "s",
                  "type": "bytes32"
                },
                {
                  "internalType": "address",
                  "name": "recipient",
                  "type": "address"
                }
              ],
              "internalType": "struct Bridge.PermitData[]",
              "name": "permits",
              "type": "tuple[]"
            }
          ],
          "internalType": "struct Bridge.Params",
          "name": "confirming",
          "type": "tuple"
        }
      ],
      "name": "registerKeyPairWithTransfer",
      "outputs": [],
      "stateMutability": "payable",
      "type": "function"
    },
    {
      "inputs": [
        {
          "internalType": "bytes",
          "name": "publicKey",
          "type": "bytes"
        },
        {
          "internalType": "address",
          "name": "publicKeyHash",
          "type": "address"
        },
        {
          "internalType": "address",
          "name": "prerotatedKeyHash",
          "type": "address"
        },
        {
          "internalType": "address",
          "name": "twicePrerotatedKeyHash",
          "type": "address"
        },
        {
          "internalType": "address",
          "name": "prevPublicKeyHash",
          "type": "address"
        },
        {
          "internalType": "address",
          "name": "outputAddress",
          "type": "address"
        },
        {
          "internalType": "bool",
          "name": "hasRelationship",
          "type": "bool"
        },
        {
          "components": [
            {
              "internalType": "address",
              "name": "token",
              "type": "address"
            },
            {
              "internalType": "uint256",
              "name": "amount",
              "type": "uint256"
            },
            {
              "internalType": "uint256",
              "name": "deadline",
              "type": "uint256"
            },
            {
              "internalType": "uint8",
              "name": "v",
              "type": "uint8"
            },
            {
              "internalType": "bytes32",
              "name": "r",
              "type": "bytes32"
            },
            {
              "internalType": "bytes32",
              "name": "s",
              "type": "bytes32"
            },
            {
              "internalType": "address",
              "name": "recipient",
              "type": "address"
            }
          ],
          "internalType": "struct Bridge.PermitData[]",
          "name": "permits",
          "type": "tuple[]"
        }
      ],
      "name": "registerKeyWithTransfer",
      "outputs": [],
      "stateMutability": "payable",
      "type": "function"
    },
    {
      "inputs": [],
      "name": "relayer",
      "outputs": [
        {
          "internalType": "address",
          "name": "",
          "type": "address"
        }
      ],
      "stateMutability": "view",
      "type": "function"
    },
    {
      "inputs": [],
      "name": "renounceOwnership",
      "outputs": [],
      "stateMutability": "nonpayable",
      "type": "function"
    },
    {
      "inputs": [
        {
          "internalType": "address",
          "name": "_feeCollector",
          "type": "address"
        }
      ],
      "name": "setFeeCollector",
      "outputs": [],
      "stateMutability": "nonpayable",
      "type": "function"
    },
    {
      "inputs": [
        {
          "internalType": "uint256",
          "name": "_feePercentage",
          "type": "uint256"
        }
      ],
      "name": "setFeePercentage",
      "outputs": [],
      "stateMutability": "nonpayable",
      "type": "function"
    },
    {
      "inputs": [
        {
          "internalType": "address",
          "name": "_relayer",
          "type": "address"
        }
      ],
      "name": "setRelayer",
      "outputs": [],
      "stateMutability": "nonpayable",
      "type": "function"
    },
    {
      "inputs": [
        {
          "internalType": "address",
          "name": "token",
          "type": "address"
        },
        {
          "internalType": "address",
          "name": "priceFeed",
          "type": "address"
        }
      ],
      "name": "setTokenPriceFeed",
      "outputs": [],
      "stateMutability": "nonpayable",
      "type": "function"
    },
    {
      "inputs": [
        {
          "internalType": "uint256",
          "name": "",
          "type": "uint256"
        }
      ],
      "name": "supportedOriginalTokens",
      "outputs": [
        {
          "internalType": "address",
          "name": "",
          "type": "address"
        }
      ],
      "stateMutability": "view",
      "type": "function"
    },
    {
      "inputs": [
        {
          "internalType": "address",
          "name": "",
          "type": "address"
        }
      ],
      "name": "tokenPairs",
      "outputs": [
        {
          "internalType": "address",
          "name": "originalToken",
          "type": "address"
        },
        {
          "internalType": "address",
          "name": "wrappedToken",
          "type": "address"
        },
        {
          "internalType": "bool",
          "name": "isCrossChain",
          "type": "bool"
        }
      ],
      "stateMutability": "view",
      "type": "function"
    },
    {
      "inputs": [
        {
          "internalType": "address",
          "name": "",
          "type": "address"
        }
      ],
      "name": "tokenPriceFeeds",
      "outputs": [
        {
          "internalType": "contract AggregatorV3Interface",
          "name": "",
          "type": "address"
        }
      ],
      "stateMutability": "view",
      "type": "function"
    },
    {
      "inputs": [
        {
          "internalType": "address",
          "name": "newOwner",
          "type": "address"
        }
      ],
      "name": "transferOwnership",
      "outputs": [],
      "stateMutability": "nonpayable",
      "type": "function"
    },
    {
      "inputs": [
        {
          "internalType": "address",
          "name": "wrappedToken",
          "type": "address"
        },
        {
          "components": [
            {
              "internalType": "uint256",
              "name": "amount",
              "type": "uint256"
            },
            {
              "internalType": "bytes",
              "name": "signature",
              "type": "bytes"
            },
            {
              "internalType": "bytes",
              "name": "publicKey",
              "type": "bytes"
            },
            {
              "internalType": "address",
              "name": "prerotatedKeyHash",
              "type": "address"
            },
            {
              "internalType": "address",
              "name": "twicePrerotatedKeyHash",
              "type": "address"
            },
            {
              "internalType": "address",
              "name": "prevPublicKeyHash",
              "type": "address"
            },
            {
              "internalType": "address",
              "name": "outputAddress",
              "type": "address"
            },
            {
              "internalType": "bool",
              "name": "hasRelationship",
              "type": "bool"
            },
            {
              "internalType": "address",
              "name": "tokenSource",
              "type": "address"
            },
            {
              "components": [
                {
                  "internalType": "address",
                  "name": "token",
                  "type": "address"
                },
                {
                  "internalType": "uint256",
                  "name": "amount",
                  "type": "uint256"
                },
                {
                  "internalType": "uint256",
                  "name": "deadline",
                  "type": "uint256"
                },
                {
                  "internalType": "uint8",
                  "name": "v",
                  "type": "uint8"
                },
                {
                  "internalType": "bytes32",
                  "name": "r",
                  "type": "bytes32"
                },
                {
                  "internalType": "bytes32",
                  "name": "s",
                  "type": "bytes32"
                },
                {
                  "internalType": "address",
                  "name": "recipient",
                  "type": "address"
                }
              ],
              "internalType": "struct Bridge.PermitData[]",
              "name": "permits",
              "type": "tuple[]"
            }
          ],
          "internalType": "struct Bridge.Params",
          "name": "unconfirmed",
          "type": "tuple"
        },
        {
          "components": [
            {
              "internalType": "uint256",
              "name": "amount",
              "type": "uint256"
            },
            {
              "internalType": "bytes",
              "name": "signature",
              "type": "bytes"
            },
            {
              "internalType": "bytes",
              "name": "publicKey",
              "type": "bytes"
            },
            {
              "internalType": "address",
              "name": "prerotatedKeyHash",
              "type": "address"
            },
            {
              "internalType": "address",
              "name": "twicePrerotatedKeyHash",
              "type": "address"
            },
            {
              "internalType": "address",
              "name": "prevPublicKeyHash",
              "type": "address"
            },
            {
              "internalType": "address",
              "name": "outputAddress",
              "type": "address"
            },
            {
              "internalType": "bool",
              "name": "hasRelationship",
              "type": "bool"
            },
            {
              "internalType": "address",
              "name": "tokenSource",
              "type": "address"
            },
            {
              "components": [
                {
                  "internalType": "address",
                  "name": "token",
                  "type": "address"
                },
                {
                  "internalType": "uint256",
                  "name": "amount",
                  "type": "uint256"
                },
                {
                  "internalType": "uint256",
                  "name": "deadline",
                  "type": "uint256"
                },
                {
                  "internalType": "uint8",
                  "name": "v",
                  "type": "uint8"
                },
                {
                  "internalType": "bytes32",
                  "name": "r",
                  "type": "bytes32"
                },
                {
                  "internalType": "bytes32",
                  "name": "s",
                  "type": "bytes32"
                },
                {
                  "internalType": "address",
                  "name": "recipient",
                  "type": "address"
                }
              ],
              "internalType": "struct Bridge.PermitData[]",
              "name": "permits",
              "type": "tuple[]"
            }
          ],
          "internalType": "struct Bridge.Params",
          "name": "confirming",
          "type": "tuple"
        }
      ],
      "name": "unwrapPairWithTransfer",
      "outputs": [],
      "stateMutability": "payable",
      "type": "function"
    },
    {
      "inputs": [
        {
          "internalType": "address",
          "name": "newImplementation",
          "type": "address"
        },
        {
          "internalType": "bytes",
          "name": "data",
          "type": "bytes"
        }
      ],
      "name": "upgradeToAndCall",
      "outputs": [],
      "stateMutability": "payable",
      "type": "function"
    },
    {
      "inputs": [
        {
          "internalType": "address",
          "name": "originalToken",
          "type": "address"
        },
        {
          "components": [
            {
              "internalType": "uint256",
              "name": "amount",
              "type": "uint256"
            },
            {
              "internalType": "bytes",
              "name": "signature",
              "type": "bytes"
            },
            {
              "internalType": "bytes",
              "name": "publicKey",
              "type": "bytes"
            },
            {
              "internalType": "address",
              "name": "prerotatedKeyHash",
              "type": "address"
            },
            {
              "internalType": "address",
              "name": "twicePrerotatedKeyHash",
              "type": "address"
            },
            {
              "internalType": "address",
              "name": "prevPublicKeyHash",
              "type": "address"
            },
            {
              "internalType": "address",
              "name": "outputAddress",
              "type": "address"
            },
            {
              "internalType": "bool",
              "name": "hasRelationship",
              "type": "bool"
            },
            {
              "internalType": "address",
              "name": "tokenSource",
              "type": "address"
            },
            {
              "components": [
                {
                  "internalType": "address",
                  "name": "token",
                  "type": "address"
                },
                {
                  "internalType": "uint256",
                  "name": "amount",
                  "type": "uint256"
                },
                {
                  "internalType": "uint256",
                  "name": "deadline",
                  "type": "uint256"
                },
                {
                  "internalType": "uint8",
                  "name": "v",
                  "type": "uint8"
                },
                {
                  "internalType": "bytes32",
                  "name": "r",
                  "type": "bytes32"
                },
                {
                  "internalType": "bytes32",
                  "name": "s",
                  "type": "bytes32"
                },
                {
                  "internalType": "address",
                  "name": "recipient",
                  "type": "address"
                }
              ],
              "internalType": "struct Bridge.PermitData[]",
              "name": "permits",
              "type": "tuple[]"
            }
          ],
          "internalType": "struct Bridge.Params",
          "name": "unconfirmed",
          "type": "tuple"
        },
        {
          "components": [
            {
              "internalType": "uint256",
              "name": "amount",
              "type": "uint256"
            },
            {
              "internalType": "bytes",
              "name": "signature",
              "type": "bytes"
            },
            {
              "internalType": "bytes",
              "name": "publicKey",
              "type": "bytes"
            },
            {
              "internalType": "address",
              "name": "prerotatedKeyHash",
              "type": "address"
            },
            {
              "internalType": "address",
              "name": "twicePrerotatedKeyHash",
              "type": "address"
            },
            {
              "internalType": "address",
              "name": "prevPublicKeyHash",
              "type": "address"
            },
            {
              "internalType": "address",
              "name": "outputAddress",
              "type": "address"
            },
            {
              "internalType": "bool",
              "name": "hasRelationship",
              "type": "bool"
            },
            {
              "internalType": "address",
              "name": "tokenSource",
              "type": "address"
            },
            {
              "components": [
                {
                  "internalType": "address",
                  "name": "token",
                  "type": "address"
                },
                {
                  "internalType": "uint256",
                  "name": "amount",
                  "type": "uint256"
                },
                {
                  "internalType": "uint256",
                  "name": "deadline",
                  "type": "uint256"
                },
                {
                  "internalType": "uint8",
                  "name": "v",
                  "type": "uint8"
                },
                {
                  "internalType": "bytes32",
                  "name": "r",
                  "type": "bytes32"
                },
                {
                  "internalType": "bytes32",
                  "name": "s",
                  "type": "bytes32"
                },
                {
                  "internalType": "address",
                  "name": "recipient",
                  "type": "address"
                }
              ],
              "internalType": "struct Bridge.PermitData[]",
              "name": "permits",
              "type": "tuple[]"
            }
          ],
          "internalType": "struct Bridge.Params",
          "name": "confirming",
          "type": "tuple"
        }
      ],
      "name": "wrapPairWithTransfer",
      "outputs": [],
      "stateMutability": "payable",
      "type": "function"
    }
  ],
  "bytecode": "0x60a0806040523461002a5730608052615ec99081610030823960805181818161241301526124c20152f35b600080fdfe60808060405260043610156200001457600080fd5b600090813560e01c908163081da8c114620032f857508063276c1ac014620032aa578063334976c714620031725780633d186d6e14620026f257806347bbbdf514620026935780634f1ef286146200247e57806352d1902d14620023fe57806360fc437a14620021cf5780636548e9bc1462002189578063674417ae1462002127578063684913a21462001bf4578063715018a61462001b845780637ecebe001462001b475780638406c0791462001b1c5780638d6429b014620011185780638da5cb5b14620010df578063a001ecdd14620010bf578063a42dce80146200105f578063ad3cb1cc1462000ffe578063ae06c1b71462000fbb578063b5057a7b1462000f92578063bd9c47e31462000f52578063c415b95c1462000f27578063c4d66de81462000d83578063d3c7c2c71462000cb5578063d73792a91462000c96578063d8397fd51462000c4d578063f2fde38b1462000bee578063f9baf7bf1462000bc8578063fcc9393814620001b75763fccc2813146200019657600080fd5b34620001b45780600319360112620001b457602060405161dead8152f35b80fd5b5060031960603682011262000bc4576001600160401b036004351162000bc45736602360043501121562000bc4576001600160401b03600435600401351162000bc4573660246004356004013560051b60043501011162000bc4576001600160401b036024351162000bc457610120908181602435360301126200056b576001600160401b03604435116200056b5760443536030112620001b4576200025c6200398e565b62000266620039c9565b600435600401351562000bb25733815260056020526040812054620002f4620002ed62000298604460243501620035f7565b604051620002cd81620002be876020830195600435600401356024600435018862003861565b03601f198101835282620033e2565b519020620002e1600460243501806200360c565b92903393369162003420565b90620039fb565b1562000ba0576200030a604460243501620035f7565b60018201821162000773576200039591620002be6200034a620002ed93604051928391600160208401960190600435600401356024600435018862003861565b5190206200035e600460443501806200360c565b92906200038c620003866200037e6024604435016044356004016200360c565b369162003420565b62003582565b93369162003420565b1562000b8e57620003ab60a460243501620035f7565b50620003cf620003c76101046024350160243560040162003688565b36916200374c565b50620004216200041a620003e860a460243501620035f7565b620003ff6101046024350160243560040162003688565b92906200041160c460443501620035f7565b9336916200374c565b9062003ef6565b805b600654811015620005cd57620004398162003534565b90546001600160a01b039160031b1c81166200045a602435604401620035f7565b6040516370a0823160e01b815292166004830152602082602481845afa918215620005c257849262000583575b50816200049a575b505060010162000423565b620004fd91602091620004b2604460243501620035f7565b86620004c360c460443501620035f7565b6040516323b872dd60e01b81526001600160a01b039384166004820152921660248301526044820193909352938492839182906064820190565b03925af19081156200057857839162000532575b5015620005205738806200048f565b6040516312171d8360e31b8152600490fd5b90506020813d6020116200056f575b816200055060209383620033e2565b810103126200056b5762000564906200367a565b3862000511565b8280fd5b3d915062000541565b6040513d85823e3d90fd5b9091506020813d602011620005b9575b81620005a260209383620033e2565b81010312620005b45751903862000487565b600080fd5b3d915062000593565b6040513d86823e3d90fd5b50805b600435600401358110620007e857620006de82620005f860248035016024356004016200360c565b6200060b606460249593953501620035f7565b936200061c608460243501620035f7565b6200062c60a460243501620035f7565b956200063d60c460243501620035f7565b916200064e60e460243501620037bb565b620006646024604435016044356004016200360c565b9190946064604435019a620006798c620035f7565b946200068a608460443501620035f7565b96620006d76200069f60a460443501620035f7565b99620006ce620006b460c460443501620035f7565b9c620006c560e460443501620037bb565b9e369162003420565b97369162003420565b95620040ce565b6001600160a01b0380620006f284620035f7565b1662000787575b503381526005602052604081209182546002810180911162000773578293553462000736575b50600160008051602062005e748339815191525580f35b81808092620007463491620035f7565b5af162000752620037d7565b5015620007615780826200071f565b604051630db2c7f160e31b8152600490fd5b634e487b7160e01b83526011600452602483fd5b6200079283620035f7565b906200079d6200398e565b8116908115620007d657620007cf916001600160601b0360a01b6002541617600255620007c96200398e565b620041b7565b82620006f9565b60405163d92e233d60e01b8152600490fd5b60248160051b6004350101359060e2196004353603018212156200056b5760c0918260231982600435013603011262000b74576040519283818101106001600160401b03828601111762000b785783016040526200084d60248260043501016200339d565b83526001600160401b036044826004350101351162000b74576200087f3660043583016044810135016024016200345c565b60208401526001600160401b036064826004350101351162000b7457620008fa9060c490620008bc3660043583016064810135016024016200345c565b6040860152620008d360848260043501016200347d565b6060860152620008ea60a48260043501016200339d565b608086015260043501016200339d565b60a083015281516001600160a01b039081168452600460205260408420600101541662000b625760808201516001600160a01b0316801562000aab575b82516060840151604051600195939290911515906001600160a01b03166200095f83620033b2565b825260a086811b87900384811660208086019182526040808701958652885184168c526004909152808b20955186549084166001600160a01b0319909116178655905194890180549451151590931b60ff60a01b9081169583166001600160a81b031995861617959095179092558551606087015192519215159493928992909116620009ec82620033b2565b81526020810195828060a01b038116875260408201958652828060a01b03168a52600460205260408a2090828060a01b039051166001600160601b0360a01b8254161781550193878060a01b039051169184549351151560a01b1692161717905562000a60838060a01b03825116620035b2565b828060a01b0360a082015116908162000a7d575b505001620005d0565b838060a01b039051168452600760205260408420906001600160601b0360a01b825416179055388062000a74565b506020820151604083015160018060a01b03855416906040519283611a2c8101106001600160401b03611a2c8601111762000b4e5783929162000b0762000b1e92611a2c6200442887396080611a2c87018181520190620034f2565b90611a2c850182036020611a2c87010152620034f2565b90306040611a2c850101526060611a2c84010152039084f09182156200057857916001600160a01b031662000937565b634e487b7160e01b87526041600452602487fd5b604051636bb9e87d60e01b8152600490fd5b8380fd5b634e487b7160e01b600052604160045260246000fd5b604051633bc0bb3d60e21b8152600490fd5b604051637a9e3e8360e01b8152600490fd5b604051630554f0a760e41b8152600490fd5b5080fd5b5034620001b45780600319360112620001b4576020604051683635c9adc5dea000008152f35b5034620001b4576020366003190112620001b45762000c0c6200336f565b62000c166200398e565b6001600160a01b038116908115620007d65762000c4a916001600160601b0360a01b6002541617600255620007c96200398e565b80f35b5034620001b4576020366003190112620001b45760043590600654821015620001b457602062000c7d8362003534565b905460405160039290921b1c6001600160a01b03168152f35b5034620001b45780600319360112620001b45760206040516127108152f35b5034620001b45780600319360112620001b45760405180916006549081835260208093018092600683527ff652222313e28459528d920b65115c16c04f3efc82aaedc97be59f3f377c0d3f90835b81811062000d65575050508462000d1c910385620033e2565b60405193838594850191818652518092526040850193925b82811062000d4457505050500390f35b83516001600160a01b03168552869550938101939281019260010162000d34565b82546001600160a01b03168452928601926001928301920162000d03565b5034620001b4576020366003190112620001b45762000da16200336f565b7ff0c57e16840df040f15088dc2f81fe391c3923bec73e23a9662efc9c229c6a009081549060ff8260401c1615916001600160401b0381168015908162000f1e575b600114908162000f13575b15908162000f09575b5062000ef75767ffffffffffffffff19811660011784558262000ed7575b5062000e206200422d565b62000e2a6200422d565b62000e3533620041b7565b62000e3f6200422d565b62000e496200422d565b62000e536200422d565b600160008051602062005e74833981519152556001600160601b0360a01b9060018060a01b03168185541617845533906002541617600255600160035562000e99575080f35b68ff00000000000000001981541690557fc7f505b2f371ae2175ee4913f4499e1f2633a7b5936321eed1cdaeb6115181d2602060405160018152a180f35b68ffffffffffffffffff1916680100000000000000011783553862000e15565b60405163f92ee8a960e01b8152600490fd5b9050153862000df7565b303b15915062000dee565b84915062000de3565b5034620001b45780600319360112620001b4576002546040516001600160a01b039091168152602090f35b5034620001b4576020366003190112620001b4576020906001600160a01b03906040908262000f806200336f565b16815260078452205416604051908152f35b5034620001b45780600319360112620001b457546040516001600160a01b039091168152602090f35b5034620001b4576020366003190112620001b45760043562000fdc6200398e565b612710811162000fec5760035580f35b60405163cd4e616760e01b8152600490fd5b5034620001b45780600319360112620001b45760405160408101908082106001600160401b0383111762000b78576200105b9160405260058152640352e302e360dc1b6020820152604051918291602083526020830190620034f2565b0390f35b5034620001b4576020366003190112620001b4576200107d6200336f565b620010876200398e565b6001600160a01b03168015620010ad576001600160601b0360a01b600254161760025580f35b60405163bb0bac9960e01b8152600490fd5b5034620001b45780600319360112620001b4576020600354604051908152f35b5034620001b45780600319360112620001b45760008051602062005e54833981519152546040516001600160a01b039091168152602090f35b5062001124366200348b565b929162001130620039c9565b6001600160a01b038116835260046020526040808420905191906200115583620033b2565b80546001600160a01b0390811680855260019290920154908116602085015260a01c60ff16151560408401521562001b0a57604082015115158062001ae6575b8062001ad0575b62001abe57338452600560205260408420546200122d620002ed620011c460c08701620035f7565b604080516001600160a01b03808816602083019081528a359383019390935290921660608301526080820185905290620012028160a08101620002be565b5190206200121460208801886200360c565b92906200038c620003866200037e60408c018c6200360c565b1562000ba0576200124160c08701620035f7565b60018201821162001aaa57604080516001600160a01b03808616602083019081528a35938301939093529092166060830152600183016080830152620012c191620002ed9190620012968160a08101620002be565b519020620012a860208a018a6200360c565b92906200038c620003866200037e60408e018e6200360c565b1562000b8e57610120840182620012d9828762003688565b3690620012e6926200374c565b620012f2913362003da1565b620012fe908562003688565b906200130d60608901620035f7565b9136906200131b926200374c565b6200132891903362003ef6565b6200133760408501856200360c565b876200134660608801620035f7565b926200135560808901620035f7565b6200136360a08a01620035f7565b906200137260c08b01620035f7565b956200138160e08c01620037bb565b6200139060408701876200360c565b989094620013a160608901620035f7565b94620013b060808a01620035f7565b96620013bf60a08b01620035f7565b98620013ce60c08c01620035f7565b9a60e001620013dd90620037bb565b9b3690620013eb9262003420565b9b3690620013f99262003420565b94620014059b620040ce565b60008051602062005e54833981519152546001600160a01b031633148062001a8a575b62001a38575b6002810180911162001a24573385526005602052604085205582351562001a125760408201511562001a0b576200146860c08401620035f7565b6001600160a01b0382163b1562001a0757604051632770a7eb60e21b81526001600160a01b03918216600482015284356024820152918591839160449183918591165af18015620005c257908491620019ef575b50508051620014d7908335906001600160a01b031662003aac565b918280823511600014620019e557620014f19135620037c9565b915b6040820151156200185d575b505050805b6006548110156200180f576200151a8162003534565b905460039190911b1c6001600160a01b0316801562001805578083526004602052604083209060ff6001604051936200155385620033b2565b818060a01b038154168552015460018060a01b038116602085015260a01c1615156040830152604051906370a0823160e01b8252336004830152602082602481845afa918215620017fa578592620017c0575b508162001708575b505060208101516001600160a01b031680620015d2575b50506001905b0162001504565b906020602492604051938480926370a0823160e01b82523360048301525afa918215620005c2578492620016ce575b508115620015c5576020908101516200166992906001600160a01b03166200162c60608801620035f7565b6040516323b872dd60e01b81523360048201526001600160a01b039091166024820152604481019290925290928391908290879082906064820190565b03925af1908115620005785783916200168c575b501562000520573880620015c5565b90506020813d602011620016c5575b81620016aa60209383620033e2565b810103126200056b57620016be906200367a565b386200167d565b3d91506200169b565b9091506020813d602011620016ff575b81620016ed60209383620033e2565b81010312620005b45751903862001601565b3d9150620016de565b6200175b916020916200171e60608901620035f7565b6040516323b872dd60e01b81523360048201526001600160a01b039091166024820152604481019290925290928391908290889082906064820190565b03925af1908115620005c25784916200177e575b501562000520573880620015ae565b90506020813d602011620017b7575b816200179c60209383620033e2565b8101031262000b7457620017b0906200367a565b386200176f565b3d91506200178d565b9091506020813d602011620017f1575b81620017df60209383620033e2565b81010312620005b457519038620015a6565b3d9150620017d0565b6040513d87823e3d90fd5b50600190620015cb565b508091346200182f5750600160008051602062005e748339815191525580f35b81808092620018426060349201620035f7565b5af16200184e620037d7565b5015620007615780386200071f565b806200193a575b508162001873575b80620014ff565b51620018ca916020916001600160a01b03166200189360608701620035f7565b60405163a9059cbb60e01b81526001600160a01b039091166004820152602481019290925290928391908290869082906044820190565b03925af19081156200192f578291620018ed575b5015620005205738806200186c565b90506020813d60201162001926575b816200190b60209383620033e2565b8101031262000bc4576200191f906200367a565b38620018de565b3d9150620018fc565b6040513d84823e3d90fd5b815160025460405163a9059cbb60e01b81526001600160a01b0391821660048201526024810193909352602091839160449183918991165af1908115620005c2578491620019a3575b501562001991573862001864565b604051634033e4e360e01b8152600490fd5b90506020813d602011620019dc575b81620019c160209383620033e2565b8101031262000b7457620019d5906200367a565b3862001983565b3d9150620019b2565b50508291620014f3565b620019fa90620033ce565b6200056b578238620014bc565b8480fd5b3362001468565b6040516342b7033760e01b8152600490fd5b634e487b7160e01b85526011600452602485fd5b62001a4660608701620035f7565b62001a506200398e565b6001600160a01b038116908115620007d65762001a84916001600160601b0360a01b6002541617600255620007c96200398e565b6200142e565b506001600160a01b0362001aa160608801620035f7565b16151562001428565b634e487b7160e01b86526011600452602486fd5b60405163167c9f4d60e11b8152600490fd5b506001546001600160a01b03163314156200119c565b5060008051602062005e54833981519152546001600160a01b031633141562001195565b604051637879bad160e01b8152600490fd5b5034620001b45780600319360112620001b4576001546040516001600160a01b039091168152602090f35b5034620001b4576020366003190112620001b4576020906040906001600160a01b0362001b736200336f565b168152600583522054604051908152f35b5034620001b45780600319360112620001b45762001ba16200398e565b60008051602062005e5483398151915280546001600160a01b031981169091556000906001600160a01b03167f8be0079c531659141344cd1fd0a4f28419497f9722a3daafe3b4186f6b6457e08280a380f35b5060031960403682011262000bc457600435906001600160401b0392838311620001b45782600401610140808486360301126200056b5760249360243596871162000b7457863603011262000bc45762001c4d620039c9565b61012484019262001c63620003c7858462003688565b508295835b62001c74868562003688565b905081101562001dbd5762001c8a868562003688565b82101562001daa5762001ca490369060e0840201620036c0565b6020810190815115158062001d88575b62001cc5575b505060010162001c68565b80519299926001600160a01b039190821662001d4e5762001ce883518562003641565b341062001d365760c0018181511615620007d6578780809381935116855190617530f162001d15620037d7565b5015620007615760019162001d2c91519062003641565b975b903862001cba565b60405163073c639b60e41b8152600481018990528690fd5b6001939a925062001d7b60c09162001d829362001d6c8c8b62003688565b9490920151169236916200374c565b3362003ef6565b62001d2e565b5080516001600160a01b0316158062001cb45750604081015142111562001cb4565b634e487b7160e01b865260326004528386fd5b508387928785835b60065481101562001f345762001ddb8162003534565b90546040516370a0823160e01b8152336004820152602092909160039190911b1c6001600160a01b031682828881845afa91821562001f2957889262001ef4575b508162001e30575b50505060010162001dc5565b62001e8291839162001e4560c48c01620035f7565b6040516323b872dd60e01b81523360048201526001600160a01b0390911660248201526044810192909252909283919082908b9082906064820190565b03925af191821562001ee957879262001ea7575b505015620005205787808062001e24565b90809250813d831162001ee1575b62001ec18183620033e2565b8101031262001edd5762001ed5906200367a565b888062001e96565b8580fd5b503d62001eb5565b6040513d89823e3d90fd5b9091508281813d831162001f21575b62001f0f8183620033e2565b81010312620005b45751908a62001e1c565b503d62001f03565b6040513d8a823e3d90fd5b848387848a803411620020ca575b5060008051602062005e54833981519152546001600160a01b03908116331480620020b1575b62002065575b506044830162001f7e916200360c565b919062001f8e60648501620035f7565b62001f9c60848601620035f7565b62001faa60a48701620035f7565b9162001fb960c48801620035f7565b9660e40162001fc890620037bb565b62001fda60448701600488016200360c565b98909462001feb60648901620035f7565b9462001ffa60848a01620035f7565b966200200960a48b01620035f7565b986200201860c48c01620035f7565b9a60e4016200202790620037bb565b9b3690620020359262003420565b9b3690620020439262003420565b946200204f9b620040ce565b600160008051602062005e748339815191525580f35b6200207360648401620035f7565b906200207e6200398e565b8116908115620007d657620020aa916001600160601b0360a01b6002541617600255620007c96200398e565b8462001f6e565b5080620020c160648501620035f7565b16151562001f68565b620020d69034620037c9565b801562001f425760c483016001600160a01b03620020f482620035f7565b1615620007d657858080936200210b8294620035f7565b617530f162002119620037d7565b501562000761578462001f42565b5034620001b4576040366003190112620001b457620021456200336f565b6200214f62003386565b906200215a6200398e565b6001600160a01b03908116835260076020526040832080546001600160a01b0319169290911691909117905580f35b5034620001b4576020366003190112620001b457620021a76200336f565b620021b16200398e565b60018060a01b03166001600160601b0360a01b600154161760015580f35b50610100366003190112620001b4576001600160401b036004358181116200056b57620022019036906004016200345c565b6200220b62003386565b6001600160a01b0360443581811693848203620005b457606435838116809103620005b45760843591848316809303620005b45760a4359585871696878103620005b45760c43595861515809703620005b4578b9a60e435818111620023fa5736602382011215620023fa578060040135918211620023fa5760248101906024369160e08502010111620023fa5762001d7b8491620022c493620022ae620039c9565b620022bb3682846200374c565b5036916200374c565b338860008051602062005e5483398151915254161480620023f0575b620023b2575b50346200238e575b508589541694853b156200238a5789976200232b9589956040519b8c9a8b998a9863151cdb2f60e11b8a5260e060048b015260e48a0190620034f2565b9616602488015260448701526064860152608485015260a484015260c483015203925af180156200192f57620023725750600160008051602062005e748339815191525580f35b6200237d90620033ce565b620001b45780386200071f565b8980fd5b98808080939b34905af1620023a2620037d7565b50156200076157889738620022ee565b9950620023be6200398e565b8815620007d657620023e98b9a8a6001600160601b0360a01b6002541617600255620007c96200398e565b38620022e6565b50891515620022e0565b8c80fd5b5034620001b45780600319360112620001b4577f00000000000000000000000000000000000000000000000000000000000000006001600160a01b031630036200246c5760206040517f360894a13ba1a3210667c828492db98dca3e2076cc3735a920a3ca505d382bbc8152f35b60405163703e46dd60e11b8152600490fd5b506040366003190112620001b457620024966200336f565b6024356001600160401b0381116200056b57620024b89036906004016200345c565b6001600160a01b037f0000000000000000000000000000000000000000000000000000000000000000811630811490811562002664575b506200246c57620024ff6200398e565b8216916040516352d1902d60e01b8152602081600481875afa8591816200262a575b506200254057604051634c9c8ce360e01b815260048101859052602490fd5b9284937f360894a13ba1a3210667c828492db98dca3e2076cc3735a920a3ca505d382bbc90818103620026125750823b15620025f95780546001600160a01b0319168217905560405184917fbc7cd75a20ee27fd9adebab32041f755214dbc6bffa90cc0225b39da2e5c2d3b8380a2835115620025dc575080836020620025d895519101845af4620025d1620037d7565b91620043bf565b5080f35b9250505034620025ea575080f35b63b398979f60e01b8152600490fd5b604051634c9c8ce360e01b815260048101839052602490fd5b60249060405190632a87526960e21b82526004820152fd5b9091506020813d6020116200265b575b816200264960209383620033e2565b8101031262001edd5751903862002521565b3d91506200263a565b9050817f360894a13ba1a3210667c828492db98dca3e2076cc3735a920a3ca505d382bbc5416141538620024ef565b5034620001b4576020366003190112620001b4576060906001600160a01b039060ff9060409083620026c46200336f565b16815260046020522091600181845416930154906040519384528116602084015260a01c1615156040820152f35b50620026fe366200348b565b9092916200270b620039c9565b6001600160a01b038116835260046020526040808420905191906001906200273384620033b2565b818060a01b038154168452015460ff60018060a01b0382169182602086015260a01c16151560408401521562001b0a5760408201511515806200314e575b8062003138575b62001abe573384526005602052604084205490620027f2620002ed8784620027e0620027a760c08401620035f7565b604080516001600160a01b03808a16602083019081529635928201929092529116606082015260808101929092528160a08101620002be565b519020620002e160208a018a6200360c565b1562000ba0576200280660c08501620035f7565b600183018084116200312457604080516001600160a01b0380861660208301908152893593830193909352909316606084015260808301919091526200285b91620002ed9190620012028160a08101620002be565b1562000b8e5784546001600160a01b03166101206200287d60c08901620035f7565b6040516324b9c44160e21b81526001600160a01b03909116600482015291829060249082905afa80156200311957869187916200300d575b5062002fcf575b50620028cb8435873562003641565b91620028d8838362003aac565b9283811062002fbd578015158062002fb0575b62002e29575b50620029296200041a620029096101008a01620035f7565b620029196101208b018b62003688565b92906200041160608b01620035f7565b60408401511562002cd3575b86856200294660408301836200360c565b91906200295660608501620035f7565b6200296460808601620035f7565b6200297260a08701620035f7565b916200298160c08801620035f7565b9660e0016200299090620037bb565b6200299f60408701876200360c565b989094620029b060608901620035f7565b94620029bf60808a01620035f7565b96620029ce60a08b01620035f7565b98620029dd60c08c01620035f7565b9a60e001620029ec90620037bb565b9b3690620029fa9262003420565b9b369062002a089262003420565b9462002a149b620040ce565b60008051602062005e54833981519152546001600160a01b031633148062002cb3575b62002c61575b6002810180911162001aaa573386526005602052604086205581908115158062002c54575b62002bbc575b5050843562002b42575b83809550508083351160001462002b395762002a90908335620037c9565b905b8162002ab8575b5050346200182f5750600160008051602062005e748339815191525580f35b602001516001600160a01b03169062002ad460608401620035f7565b90823b1562001a07576040516340c10f1960e01b81526001600160a01b0392909216600483015260248201529083908290604490829084905af1908115620005785783911562002a995762002b2990620033ce565b62002b3657813862002a99565b50fd5b50829062002a92565b60208201516001600160a01b031662002b5e60c08701620035f7565b95813b1562001edd576040516340c10f1960e01b81526001600160a01b0397909716600488015235602487015284908690604490829084905af18015620005c2571562002a725792909362002bb390620033ce565b91839062002a72565b60025460405163a9059cbb60e01b81526001600160a01b0391821660048201526024810193909352602091839160449183918a91165af1908115620017fa57859162002c12575b50156200199157803862002a68565b90506020813d60201162002c4b575b8162002c3060209383620033e2565b8101031262001a075762002c44906200367a565b3862002c03565b3d915062002c21565b5060408401511562002a62565b62002c6f60608601620035f7565b62002c796200398e565b6001600160a01b038116908115620007d65762002cad916001600160601b0360a01b6002541617600255620007c96200398e565b62002a3d565b506001600160a01b0362002cca60608701620035f7565b16151562002a37565b62002ce26101008801620035f7565b6040516370a0823160e01b81526001600160a01b039182166004820152906020908290602490829087165afa90811562001ee957879162002df1575b508062002d2d575b5062002935565b602062002d3e6101008a01620035f7565b62002d4c60608901620035f7565b6040516323b872dd60e01b81526001600160a01b03928316600482015291166024820152604481019290925281806064810103818a6001600160a01b0388165af190811562001ee957879162002dab575b501562000520573862002d26565b90506020813d60201162002de8575b8162002dc960209383620033e2565b8101031262002de45762002ddd906200367a565b3862002d9d565b8680fd5b3d915062002dba565b90506020813d60201162002e20575b8162002e0f60209383620033e2565b8101031262002de457513862002d1e565b3d915062002e00565b62002e5862002e3c6101008a01620035f7565b8462002e51620003c76101208d018d62003688565b9162003da1565b62002e676101008901620035f7565b604051636eb1769f60e11b81526001600160a01b039182166004820152306024820152906020908290604490829088165afa90811562001f2957908291899162002f71575b501062002f5f5762002ec26101008901620035f7565b6040516323b872dd60e01b81526001600160a01b03918216600482015261dead60248201526044810192909252602090829060649082908b9088165af190811562001ee957879162002f1d575b5015620005205738620028f1565b90506020813d60201162002f56575b8162002f3b60209383620033e2565b8101031262002de45762002f4f906200367a565b3862002f0f565b3d915062002f2c565b6040516313be252b60e01b8152600490fd5b9150506020813d60201162002fa7575b8162002f9060209383620033e2565b8101031262002fa3578190513862002eac565b8780fd5b3d915062002f81565b50604085015115620028eb565b604051631fbaba3560e01b8152600490fd5b602001516001600160a01b039081169062002fed60c08901620035f7565b160362002ffb5738620028bc565b604051631a7ec90d60e01b8152600490fd5b915050806101203d6101201162003111575b6200302b8183620033e2565b810103610120811262002de4576101001362001edd5760405190816101008101106001600160401b036101008401111762000b4e576101008201604052620030738162003665565b8252620030836020820162003665565b6020830152620030966040820162003665565b6040830152620030a96060820162003665565b6060830152620030bc6080820162003665565b6080830152620030cf60a082016200367a565b60a0830152620030e260c082016200367a565b60c083015260e0810151600381101562002fa35760e08301526200310a90610100016200367a565b38620028b5565b503d6200301f565b6040513d88823e3d90fd5b634e487b7160e01b87526011600452602487fd5b506001546001600160a01b031633141562002778565b5060008051602062005e54833981519152546001600160a01b031633141562002771565b5034620001b4576060366003190112620001b457620031906200336f565b6200319a62003386565b9060443580151580910362000b7457620031b36200398e565b6001600160a01b038281168086526004602052604086206001015490929190811662000b625762000c4a948691600160405195620031f187620033b2565b80875282602088019416968785528383816040808501998b8b52868152600460205220935116926001600160601b0360a01b93848254161781550195511694805496511515966affffffffffffffffffffff60a81b968760ff60a01b809a60a01b16921617179055604051916200326883620033b2565b82526020820197808952604083019788528b5260046020528360408c2092511690825416178155019451169184549351151560a01b16921617179055620035b2565b5034620001b4576020366003190112620001b457600435906001600160401b038211620001b4576020620032e66200038636600486016200345c565b6040516001600160a01b039091168152f35b8234620001b4576020366003190112620001b4576001600160a01b039060019060409083620033266200336f565b1681526004602052206200333a84620033b2565b82815416845201549181831690604060ff602083019584875260a01c1615159101521562001b0a576020915116604051908152f35b600435906001600160a01b0382168203620005b457565b602435906001600160a01b0382168203620005b457565b35906001600160a01b0382168203620005b457565b606081019081106001600160401b0382111762000b7857604052565b6001600160401b03811162000b7857604052565b90601f801991011681019081106001600160401b0382111762000b7857604052565b6001600160401b03811162000b7857601f01601f191660200190565b9291926200342e8262003404565b916200343e6040519384620033e2565b829481845281830111620005b4578281602093846000960137010152565b9080601f83011215620005b4578160206200347a9335910162003420565b90565b35908115158203620005b457565b60031991606082840112620005b4576004356001600160a01b0381168103620005b457926024356001600160401b0391828211620005b4576101409182828288030112620005b45760040194604435938411620005b4578390030112620005b45760040190565b919082519283825260005b8481106200351f575050826000602080949584010152601f8019910116010190565b602081830181015184830182015201620034fd565b6006548110156200356c5760066000527ff652222313e28459528d920b65115c16c04f3efc82aaedc97be59f3f377c0d3f0190600090565b634e487b7160e01b600052603260045260246000fd5b6040815103620035a05780516020909101206001600160a01b031690565b60405163145a1fdd60e31b8152600490fd5b6006546801000000000000000081101562000b7857806001620035d9920160065562003534565b60018060a09493941b038084549260031b9316831b921b1916179055565b356001600160a01b0381168103620005b45790565b903590601e1981360301821215620005b457018035906001600160401b038211620005b457602001918136038313620005b457565b919082018092116200364f57565b634e487b7160e01b600052601160045260246000fd5b51906001600160a01b0382168203620005b457565b51908115158203620005b457565b903590601e1981360301821215620005b457018035906001600160401b038211620005b4576020019160e0820236038313620005b457565b91908260e0910312620005b45760405160e081018181106001600160401b0382111762000b78576040528092620036f7816200339d565b8252602081013560208301526040810135604083015260608101359060ff82168203620005b45760c06200374791819360608601526080810135608086015260a081013560a0860152016200339d565b910152565b9291926001600160401b03821162000b78576020604051946200377660208560051b0187620033e2565b602086858152019060e0809502840193818511620005b457915b848310620037a057505050505050565b838691620037af8486620036c0565b81520192019162003790565b358015158103620005b45790565b919082039182116200364f57565b3d1562003807573d90620037eb8262003404565b91620037fb6040519384620033e2565b82523d6000602084013e565b606090565b9035601e1982360301811215620005b45701602081359101916001600160401b038211620005b4578136038313620005b457565b908060209392818452848401376000828201840152601f01601f1916010190565b91909493929460609082606085016060865252608092608085019360808260051b8701019483946000946000955b858710620038b5575050505050505050906040919460018060a01b031660208201520152565b9091929394959697607f198a8203018552883560be19843603018112156200056b57600191620039239160c0916001600160a01b0391870182620038f9826200339d565b16825262003941602095869562003913878501856200380c565b9091808988015286019162003840565b604062003933818501856200380c565b918684039087015262003840565b926200394f8a83016200347d565b15158a84015280620039638d84016200339d565b168c8401526200397760a08093016200339d565b169101529a0195019701959493969291906200388f565b60008051602062005e54833981519152546001600160a01b03163303620039b157565b60405163118cdaa760e01b8152336004820152602490fd5b60008051602062005e748339815191526002815414620039e95760029055565b604051633ee5aeb560e01b8152600490fd5b62003a42929162003a38917f19457468657265756d205369676e6564204d6573736167653a0a333200000000600052601c52603c6000206200426f565b90939193620042ae565b6001600160a01b0391821691161490565b818102929181159184041417156200364f57565b519069ffffffffffffffffffff82168203620005b457565b90816020910312620005b4575160ff81168103620005b45790565b60ff16604d81116200364f57600a0a90565b9062003abf612710916003549062003a53565b0460018060a01b0380921660009080825260049060209082825260409060ff6001838720015460a01c16158062003d79575b62003b00575050505050905090565b8394966007845260a081848a205416845197888092633fabe5a360e21b82525afa95861562003d6f57889662003d17575b508786131562003d0757818852600784528288205416928251938185878163313ce56760e01b948582525afa94851562003cfd57899562003cd7575b5081908685518095819382525afa92831562003cce5750879262003c9a575b505060ff683635c9adc5dea0000091166012810362003bee575b5062003bb662003bbd9262003a9a565b9062003a53565b90821562003bdb57500491508181111562003bd6575090565b905090565b634e487b7160e01b855260129052602484fd5b601281111562003c56576011190160ff811162003c435762003c109062003a9a565b8082029182040362003c30579062003bb662003bbd925b91925062003ba6565b634e487b7160e01b865260118352602486fd5b634e487b7160e01b875260118452602487fd5b60120360ff811162003c435762003c6d9062003a9a565b90811562003c875762003bbd929162003bb6910462003c27565b634e487b7160e01b875260128452602487fd5b62003cbe9250803d1062003cc6575b62003cb58183620033e2565b81019062003a7f565b388062003b8c565b503d62003ca9565b513d89823e3d90fd5b8291955062003cf590823d841162003cc65762003cb58183620033e2565b949062003b6d565b84513d8b823e3d90fd5b82516352cc3f7d60e01b81528590fd5b90955060a0813d60a01162003d66575b8162003d3660a09383620033e2565b8101031262002fa35762003d4a8162003a67565b5062003d5d608085830151920162003a67565b50943862003b31565b3d915062003d27565b83513d8a823e3d90fd5b5060078352868286205416151562003af1565b80518210156200356c5760209160051b010190565b6001600160a01b0391821692906000908462003e785750506000915b8262003dca575b50505050565b600094919293949160005b845181101562003e4b57868362003ded838862003d8c565b515116148062003e30575b62003e07575b60010162003dd5565b9262003e27600191602062003e1d878962003d8c565b5101519062003641565b93905062003dfe565b50604062003e3f828762003d8c565b51015142111562003df8565b5094939250501062003e605780808062003dc4565b6024906040519063073c639b60e41b82526004820152fd5b6040516370a0823160e01b81529084166004820152602081602481885afa91821562003eea57809262003eaf575b50509162003dbd565b9091506020823d60201162003ee1575b8162003ece60209383620033e2565b81010312620001b4575051388062003ea6565b3d915062003ebf565b604051903d90823e3d90fd5b919060005b815181101562003dc45762003f11818362003d8c565b51602080820180519283151580620040bf575b80620040ab575b62003f3e575b5050505060010162003efb565b60018060a01b039081815116946040958683015160ff606085015116608085015160a086015192843b15620005b4576000948f9294899560e49588948f519a8b998a9863d505accf60e01b8a5216600489015230602489015260448801526064870152608486015260a485015260c48401525af18015620040a0579185949291620040109694926200408e575b5051915186516323b872dd60e01b81526001600160a01b03808d1660048301528b16602482015260448101919091529485929190911690829060009082906064820190565b03925af1908115620040835760009162004047575b50905015620040375780808062003f31565b516312171d8360e31b8152600490fd5b82813d83116200407b575b6200405e8183620033e2565b81010312620001b4575062004073906200367a565b803862004025565b503d62004052565b83513d6000823e3d90fd5b6200409990620033ce565b3862003fcb565b86513d6000823e3d90fd5b5080516001600160a01b0316151562003f2b565b50604081015142111562003f24565b97929a959994989390969198620040f060018060a01b03600054169b62003582565b918b3b15620005b457604051632e91b77d60e01b815261018060048201529c8d9b8c9b62004124906101848e0190620034f2565b6001600160a01b039b8c1660248e0152908b1660448d0152908a1660648c015290891660848b015290151560a48a015290871660c489015290861660e48801529085166101048701529084166101248601529216610144840152151561016483015203815a6000948591f18015620041ab576200419e5750565b620041a990620033ce565b565b6040513d6000823e3d90fd5b6001600160a01b03908116908115620042145760008051602062005e5483398151915280546001600160a01b031981168417909155167f8be0079c531659141344cd1fd0a4f28419497f9722a3daafe3b4186f6b6457e0600080a3565b604051631e4fbdf760e01b815260006004820152602490fd5b60ff7ff0c57e16840df040f15088dc2f81fe391c3923bec73e23a9662efc9c229c6a005460401c16156200425d57565b604051631afcd79f60e31b8152600490fd5b8151919060418303620042a3576200429c92506020820151906060604084015193015160001a9062004338565b9192909190565b505060009160029190565b6004811015620043225780620042c2575050565b60018103620042dd5760405163f645eedf60e01b8152600490fd5b60028103620042ff5760405163fce698f760e01b815260048101839052602490fd5b6003146200430a5750565b602490604051906335e2f38360e21b82526004820152fd5b634e487b7160e01b600052602160045260246000fd5b91907f7fffffffffffffffffffffffffffffff5d576e7357a4501ddfe92f46681b20a08411620043b357926020929160ff608095604051948552168484015260408301526060820152600092839182805260015afa1562003eea5780516001600160a01b03811615620043aa57918190565b50809160019190565b50505060009160039190565b90620043e85750805115620043d657805190602001fd5b60405163d6bda27560e01b8152600490fd5b815115806200441d575b620043fb575090565b604051639996b31560e01b81526001600160a01b039091166004820152602490fd5b50803b15620043f256fe610160604081815234620004775762001a2c80380380916200002282866200047c565b8439820191608081840312620004775780516001600160401b03929083811162000477578462000054918401620004c5565b916020948582015190858211620004775762000072918301620004c5565b946200008e60606200008685850162000520565b930162000520565b90835190848201828110888211176200037657855260019485835281830195603160f81b87528751898111620003765760038054918383811c931680156200046c575b868410146200045657601f928381116200040b575b50808684821160011462000398576000916200038c575b5060001982841b1c191690841b1781555b8b51918b8311620003765760049c8d548581811c911680156200036b575b8882101462000356578e8382116200030b575b50508d87928511600114620002a0575093839491849260009562000294575b50501b92600019911b1c19161789555b620001798762000535565b956101209687526200018b84620006da565b97610140988952838151910120938460e0525190209861010099808b524660a0528251938401947f8b73c3c69bb8fe3d512ecc4cf759cc79239f7b179b0ffacaa9a75d522b39400f86528385015260608401524660808401523060a084015260a0835260c0830198838a10908a11176200027f57508790525190206080523060c052600880546001600160a01b039384166001600160a01b031991821617909155600980549290931691161790556111fa938462000832853960805184610c88015260a05184610d54015260c05184610c52015260e05184610cd701525183610cfd0152518261051a015251816105440152f35b604190634e487b7160e01b6000525260246000fd5b0151935038806200015e565b929190601f1985169360005284886000209460005b8a89838310620002f35750505010620002d8575b50505050811b0189556200016e565b01519060f884600019921b161c1916905538808080620002c9565b868601518955909701969485019488935001620002b5565b600052876000208380870160051c8201928a88106200034c575b0160051c019086905b8281106200033f5750508e6200013f565b600081550186906200032e565b9250819262000325565b60228f634e487b7160e01b6000525260246000fd5b90607f16906200012c565b634e487b7160e01b600052604160045260246000fd5b90508b015138620000fd565b8592508c90601f1983168560005289600020928a6000915b838310620003e9575050508311620003d0575b5050811b0181556200010e565b8d015160001983861b60f8161c191690553880620003c3565b948482949597989293960151815501940192019087949392918f8b90620003b0565b82600052866000208480840160051c8201928985106200044c575b0160051c019085905b8281106200043f575050620000e6565b600081550185906200042f565b9250819262000426565b634e487b7160e01b600052602260045260246000fd5b92607f1692620000d1565b600080fd5b601f909101601f19168101906001600160401b038211908210176200037657604052565b60005b838110620004b45750506000910152565b8181015183820152602001620004a3565b81601f82011215620004775780516001600160401b038111620003765760405192620004fc601f8301601f1916602001856200047c565b8184526020828401011162000477576200051d9160208085019101620004a0565b90565b51906001600160a01b03821682036200047757565b80516020919082811015620005b5575090601f8251116200057357808251920151908083106200056457501790565b82600019910360031b1b161790565b604490620005a79260405193849263305a27a960e01b845280600485015282519283918260248701528686019101620004a0565b601f01601f19168101030190fd5b6001600160401b03811162000376576005928354926001938481811c91168015620006cf575b838210146200045657601f811162000698575b5081601f84116001146200062e575092829391839260009462000622575b50501b916000199060031b1c191617905560ff90565b0151925038806200060c565b919083601f1981168760005284600020946000905b888383106200067d575050501062000663575b505050811b01905560ff90565b015160001960f88460031b161c1916905538808062000656565b85870151885590960195948501948793509081019062000643565b8560005284601f846000209201871c820191601f8601881c015b828110620006c2575050620005ee565b60008155018590620006b2565b90607f1690620005db565b805160209081811015620007075750601f8251116200057357808251920151908083106200056457501790565b906001600160401b0382116200037657600654926001938481811c9116801562000826575b838210146200045657601f8111620007ec575b5081601f841160011462000780575092829391839260009462000774575b50501b916000199060031b1c19161760065560ff90565b0151925038806200075d565b919083601f198116600660005284600020946000905b88838310620007d15750505010620007b7575b505050811b0160065560ff90565b015160001960f88460031b161c19169055388080620007a9565b85870151885590960195948501948793509081019062000796565b600660005284601f84600020920160051c820191601f860160051c015b828110620008195750506200073f565b6000815501859062000809565b90607f16906200072c56fe608060408181526004918236101561001657600080fd5b600092833560e01c91826306fdde03146108d757508163095ea7b3146108ad57816318160ddd1461088e57816323b872dd14610789578163313ce5671461076d5781633644e5151461074957816340c10f191461069157816370a082311461065a5781637ecebe001461062257816384b0196e1461050257816395d89b411461040e5781639dc29fac14610329578163a9059cbb146102e4578163b5057a7b146102bb578163d505accf1461015357508063dd62ed3e1461010b5763e78cea92146100e057600080fd5b3461010757816003193601126101075760085490516001600160a01b039091168152602090f35b5080fd5b5034610107578060031936011261010757806020926101286109ef565b610130610a0a565b6001600160a01b0391821683526001865283832091168252845220549051908152f35b839150346101075760e03660031901126101075761016f6109ef565b610177610a0a565b906044359260643560843560ff811681036102b7578142116102a05760018060a01b0390818516928389526007602052898920908154916001830190558a519060208201927f6e71edae12b1b97f4d1f60370fef10105fa2faae0126114a169c64845d6126c98452868d840152858a1660608401528a608084015260a083015260c082015260c0815260e0810181811067ffffffffffffffff82111761028d578b5251902061025b916102529161022c610c4f565b908c519161190160f01b83526002830152602282015260c43591604260a43592206110af565b9092919261113f565b16818103610272578661026f878787610d7a565b80f35b87516325c0072360e11b815292830152602482015260449150fd5b634e487b7160e01b8b526041875260248bfd5b875163313c898160e11b8152808401839052602490fd5b8680fd5b50503461010757816003193601126101075760095490516001600160a01b039091168152602090f35b5050346101075780600319360112610107576102fe6109ef565b916103098333610acf565b15610326575061031f6020926024359033610e0d565b5160018152f35b80fd5b839150346101075782600319360112610107576103446109ef565b6008549091602435916001600160a01b03908116330361040a5783169283156103f3578385528460205285852054918383106103bf5750508184957fddf252ad1be2c89b69c2b068fc378daa952ba7f163c4a11628f55a4df523b3ef936020938688528785520381872055816002540360025551908152a380f35b865163391434e360e21b81526001600160a01b03909216908201908152602081018390526040810184905281906060010390fd5b8551634b637e8f60e11b8152808301869052602490fd5b8480fd5b919050346104fe57826003193601126104fe57805183819490845461043281610a20565b91828552602096600192886001821691826000146104d4575050600114610479575b858861047589610466848a0385610a8c565b519282849384528301906109af565b0390f35b815286935091907f8a35acfbc15ff81a39ae7d344fd709f28e8600b4aa8c65c6b64bfe7fe36bd19b5b8284106104bc575050508201018161046661047538610454565b8054848a0186015288955087949093019281016104a2565b60ff19168882015294151560051b8701909401945085935061046692506104759150389050610454565b8280fd5b919050346104fe57826003193601126104fe5761053e7f0000000000000000000000000000000000000000000000000000000000000000610eeb565b926105687f0000000000000000000000000000000000000000000000000000000000000000610fef565b90825192602092602085019585871067ffffffffffffffff88111761060f57509260206105c58388966105b8998b9996528686528151998a99600f60f81b8b5260e0868c015260e08b01906109af565b91898303908a01526109af565b924660608801523060808801528460a088015286840360c088015251928381520193925b8281106105f857505050500390f35b8351855286955093810193928101926001016105e9565b634e487b7160e01b845260419052602483fd5b5050346101075760203660031901126101075760209181906001600160a01b0361064a6109ef565b1681526007845220549051908152f35b5050346101075760203660031901126101075760209181906001600160a01b036106826109ef565b16815280845220549051908152f35b919050346104fe57806003193601126104fe576106ac6109ef565b60085460243592916001600160a01b0391821633036107455716928315610730576002549083820180921161071d575084927fddf252ad1be2c89b69c2b068fc378daa952ba7f163c4a11628f55a4df523b3ef9260209260025585855284835280852082815401905551908152a380f35b634e487b7160e01b865260119052602485fd5b84602492519163ec442f0560e01b8352820152fd5b8580fd5b505034610107578160031936011261010757602090610766610c4f565b9051908152f35b5050346101075781600319360112610107576020905160128152f35b90508234610326576060366003190112610326576107a56109ef565b6107ad610a0a565b91604435936107bc8484610acf565b15610107576001600160a01b038316808352600160209081528784203385529052868320549160001983106107fa575b60208861031f898989610e0d565b86831061086257811561084b5733156108345750825260016020908152868320338452815291869020908590039055829061031f876107ec565b8751634a1406b160e11b8152908101849052602490fd5b875163e602df0560e01b8152908101849052602490fd5b8751637dc7a0d960e11b8152339181019182526020820193909352604081018790528291506060010390fd5b5050346101075781600319360112610107576020906002549051908152f35b50503461010757806003193601126101075760209061031f6108cd6109ef565b6024359033610d7a565b84843461010757816003193601126101075782826003546108f781610a20565b908184526020956001918760018216918260001461098857505060011461092c575b5050506104759291610466910385610a8c565b9190869350600383527fc2575a0e9e593c00f959f8c92f12db2869c3395a3b0502d05e2516446f71f85b5b8284106109705750505082010181610466610475610919565b8054848a018601528895508794909301928101610957565b60ff19168782015293151560051b8601909301935084925061046691506104759050610919565b919082519283825260005b8481106109db575050826000602080949584010152601f8019910116010190565b6020818301810151848301820152016109ba565b600435906001600160a01b0382168203610a0557565b600080fd5b602435906001600160a01b0382168203610a0557565b90600182811c92168015610a50575b6020831014610a3a57565b634e487b7160e01b600052602260045260246000fd5b91607f1691610a2f565b6040810190811067ffffffffffffffff821117610a7657604052565b634e487b7160e01b600052604160045260246000fd5b90601f8019910116810190811067ffffffffffffffff821117610a7657604052565b51906001600160a01b0382168203610a0557565b51908115158203610a0557565b600954604080516324b9c44160e21b81526001600160a01b0393841660048201819052939290916101209182908490602490829088165afa918215610c44576000938493610b4b575b505050610b285750505050600090565b602001518116918214928315610b3f575b50505090565b16149050388080610b39565b818193959294503d8511610c3d575b610b648183610a8c565b810103928312610326576101008093126103265783519383850185811067ffffffffffffffff821117610c29578152610b9c83610aae565b8552610baa60208401610aae565b6020860152610bba818401610aae565b90850152610bca60608301610aae565b6060850152610bdb60808301610aae565b6080850152610bec60a08301610ac2565b60a0850152610bfd60c08301610ac2565b60c085015260e0820151906003821015610326575060e0840152610c219101610ac2565b388080610b18565b634e487b7160e01b83526041600452602483fd5b503d610b5a565b50513d6000823e3d90fd5b307f00000000000000000000000000000000000000000000000000000000000000006001600160a01b03161480610d51575b15610caa577f000000000000000000000000000000000000000000000000000000000000000090565b60405160208101907f8b73c3c69bb8fe3d512ecc4cf759cc79239f7b179b0ffacaa9a75d522b39400f82527f000000000000000000000000000000000000000000000000000000000000000060408201527f000000000000000000000000000000000000000000000000000000000000000060608201524660808201523060a082015260a0815260c0810181811067ffffffffffffffff821117610a765760405251902090565b507f00000000000000000000000000000000000000000000000000000000000000004614610c81565b6001600160a01b03908116918215610df45716918215610ddb5760207f8c5be1e5ebec7d5bd14f71427d1e84f3dd0314c0f7b2291e5b200ac8c7c3b925918360005260018252604060002085600052825280604060002055604051908152a3565b604051634a1406b160e11b815260006004820152602490fd5b60405163e602df0560e01b815260006004820152602490fd5b916001600160a01b03808416928315610ed25716928315610eb95760009083825281602052604082205490838210610e87575091604082827fddf252ad1be2c89b69c2b068fc378daa952ba7f163c4a11628f55a4df523b3ef958760209652828652038282205586815220818154019055604051908152a3565b60405163391434e360e21b81526001600160a01b03919091166004820152602481019190915260448101839052606490fd5b60405163ec442f0560e01b815260006004820152602490fd5b604051634b637e8f60e11b815260006004820152602490fd5b60ff8114610f295760ff811690601f8211610f175760405191610f0d83610a5a565b8252602082015290565b604051632cd44ac360e21b8152600490fd5b50604051600554816000610f3c83610a20565b80835292602090600190818116908115610fcb5750600114610f6a575b5050610f6792500382610a8c565b90565b91509260056000527f036b6384b5eca791c62761152d0c79bb0604c104a5fb6f4eb0703f3154bb3db0936000925b828410610fb35750610f679450505081016020013880610f59565b85548785018301529485019486945092810192610f98565b91505060209250610f6794915060ff191682840152151560051b8201013880610f59565b60ff81146110115760ff811690601f8211610f175760405191610f0d83610a5a565b5060405160065481600061102483610a20565b80835292602090600190818116908115610fcb575060011461104e575050610f6792500382610a8c565b91509260066000527ff652222313e28459528d920b65115c16c04f3efc82aaedc97be59f3f377c0d3f936000925b8284106110975750610f679450505081016020013880610f59565b8554878501830152948501948694509281019261107c565b91907f7fffffffffffffffffffffffffffffff5d576e7357a4501ddfe92f46681b20a0841161113357926020929160ff608095604051948552168484015260408301526060820152600092839182805260015afa156111275780516001600160a01b0381161561111e57918190565b50809160019190565b604051903d90823e3d90fd5b50505060009160039190565b60048110156111ae5780611151575050565b6001810361116b5760405163f645eedf60e01b8152600490fd5b6002810361118c5760405163fce698f760e01b815260048101839052602490fd5b6003146111965750565b602490604051906335e2f38360e21b82526004820152fd5b634e487b7160e01b600052602160045260246000fdfea2646970667358221220b795fa50e5767d9775d1eea6283ccacf9cd51f086091d71f972f86533319c81264736f6c634300081800339016d09d72d40fdae2fd8ceac6b6234c7706214fd39c1cd1e609a0528c1993009b779b17422d0df92223018b32b4d1fa46e071723d6817e2486d003becc55f00a2646970667358221220293bfd9cac34259022753c5c6164b000be8cb2064f0ae0d616a2a65b355f063364736f6c63430008180033",
  "linkReferences": {},
  "deployedLinkReferences": {}
}