{
  "_format": "hh-sol-artifact-1",
  "contractName": "Bridge",
  "sourceName": "contracts/Bridge.sol",
  "abi": [
    {
      "inputs": [
        {
          "internalType": "address",
          "name": "target",
          "type": "address"
        }
      ],
      "name": "AddressEmptyCode",
      "type": "error"
    },
    {
      "inputs": [],
      "name": "ECDSAInvalidSignature",
      "type": "error"
    },
    {
      "inputs": [
        {
          "internalType": "uint256",
          "name": "length",
          "type": "uint256"
        }
      ],
      "name": "ECDSAInvalidSignatureLength",
      "type": "error"
    },
    {
      "inputs": [
        {
          "internalType": "bytes32",
          "name": "s",
          "type": "bytes32"
        }
      ],
      "name": "ECDSAInvalidSignatureS",
      "type": "error"
    },
    {
      "inputs": [
        {
          "internalType": "address",
          "name": "implementation",
          "type": "address"
        }
      ],
      "name": "ERC1967InvalidImplementation",
      "type": "error"
    },
    {
      "inputs": [],
      "name": "ERC1967NonPayable",
      "type": "error"
    },
    {
      "inputs": [],
      "name": "FailedCall",
      "type": "error"
    },
    {
      "inputs": [],
      "name": "InvalidInitialization",
      "type": "error"
    },
    {
      "inputs": [],
      "name": "NotInitializing",
      "type": "error"
    },
    {
      "inputs": [
        {
          "internalType": "address",
          "name": "owner",
          "type": "address"
        }
      ],
      "name": "OwnableInvalidOwner",
      "type": "error"
    },
    {
      "inputs": [
        {
          "internalType": "address",
          "name": "account",
          "type": "address"
        }
      ],
      "name": "OwnableUnauthorizedAccount",
      "type": "error"
    },
    {
      "inputs": [],
      "name": "ReentrancyGuardReentrantCall",
      "type": "error"
    },
    {
      "inputs": [],
      "name": "UUPSUnauthorizedCallContext",
      "type": "error"
    },
    {
      "inputs": [
        {
          "internalType": "bytes32",
          "name": "slot",
          "type": "bytes32"
        }
      ],
      "name": "UUPSUnsupportedProxiableUUID",
      "type": "error"
    },
    {
      "anonymous": false,
      "inputs": [
        {
          "indexed": true,
          "internalType": "address",
          "name": "from",
          "type": "address"
        },
        {
          "indexed": true,
          "internalType": "address",
          "name": "to",
          "type": "address"
        },
        {
          "indexed": false,
          "internalType": "uint256",
          "name": "amount",
          "type": "uint256"
        }
      ],
      "name": "EthTransferred",
      "type": "event"
    },
    {
      "anonymous": false,
      "inputs": [
        {
          "indexed": true,
          "internalType": "address",
          "name": "token",
          "type": "address"
        },
        {
          "indexed": false,
          "internalType": "uint256",
          "name": "amount",
          "type": "uint256"
        }
      ],
      "name": "FeesCollected",
      "type": "event"
    },
    {
      "anonymous": false,
      "inputs": [
        {
          "indexed": false,
          "internalType": "uint64",
          "name": "version",
          "type": "uint64"
        }
      ],
      "name": "Initialized",
      "type": "event"
    },
    {
      "anonymous": false,
      "inputs": [
        {
          "indexed": true,
          "internalType": "address",
          "name": "previousOwner",
          "type": "address"
        },
        {
          "indexed": true,
          "internalType": "address",
          "name": "newOwner",
          "type": "address"
        }
      ],
      "name": "OwnershipTransferred",
      "type": "event"
    },
    {
      "anonymous": false,
      "inputs": [
        {
          "indexed": true,
          "internalType": "address",
          "name": "user",
          "type": "address"
        },
        {
          "indexed": true,
          "internalType": "address",
          "name": "originalToken",
          "type": "address"
        },
        {
          "indexed": false,
          "internalType": "uint256",
          "name": "amount",
          "type": "uint256"
        }
      ],
      "name": "TokensLocked",
      "type": "event"
    },
    {
      "anonymous": false,
      "inputs": [
        {
          "indexed": true,
          "internalType": "address",
          "name": "wrappedToken",
          "type": "address"
        },
        {
          "indexed": true,
          "internalType": "address",
          "name": "user",
          "type": "address"
        },
        {
          "indexed": false,
          "internalType": "uint256",
          "name": "amount",
          "type": "uint256"
        }
      ],
      "name": "TokensMinted",
      "type": "event"
    },
    {
      "anonymous": false,
      "inputs": [
        {
          "indexed": true,
          "internalType": "address",
          "name": "user",
          "type": "address"
        },
        {
          "indexed": false,
          "internalType": "address",
          "name": "wrappedToken",
          "type": "address"
        },
        {
          "indexed": false,
          "internalType": "uint256",
          "name": "amount",
          "type": "uint256"
        }
      ],
      "name": "TokensWrapped",
      "type": "event"
    },
    {
      "anonymous": false,
      "inputs": [
        {
          "indexed": true,
          "internalType": "address",
          "name": "originalToken",
          "type": "address"
        },
        {
          "indexed": false,
          "internalType": "address",
          "name": "targetAddress",
          "type": "address"
        },
        {
          "indexed": false,
          "internalType": "uint256",
          "name": "amount",
          "type": "uint256"
        },
        {
          "indexed": true,
          "internalType": "address",
          "name": "user",
          "type": "address"
        }
      ],
      "name": "UnwrapCrossChain",
      "type": "event"
    },
    {
      "anonymous": false,
      "inputs": [
        {
          "indexed": true,
          "internalType": "address",
          "name": "implementation",
          "type": "address"
        }
      ],
      "name": "Upgraded",
      "type": "event"
    },
    {
      "inputs": [],
      "name": "FEE_DENOMINATOR",
      "outputs": [
        {
          "internalType": "uint256",
          "name": "",
          "type": "uint256"
        }
      ],
      "stateMutability": "view",
      "type": "function"
    },
    {
      "inputs": [],
      "name": "UPGRADE_INTERFACE_VERSION",
      "outputs": [
        {
          "internalType": "string",
          "name": "",
          "type": "string"
        }
      ],
      "stateMutability": "view",
      "type": "function"
    },
    {
      "inputs": [
        {
          "internalType": "address",
          "name": "originalToken",
          "type": "address"
        },
        {
          "internalType": "address",
          "name": "wrappedToken",
          "type": "address"
        },
        {
          "internalType": "bool",
          "name": "_isCrossChain",
          "type": "bool"
        }
      ],
      "name": "addTokenPair",
      "outputs": [],
      "stateMutability": "nonpayable",
      "type": "function"
    },
    {
      "inputs": [],
      "name": "feeCollector",
      "outputs": [
        {
          "internalType": "address",
          "name": "",
          "type": "address"
        }
      ],
      "stateMutability": "view",
      "type": "function"
    },
    {
      "inputs": [],
      "name": "feePercentage",
      "outputs": [
        {
          "internalType": "uint256",
          "name": "",
          "type": "uint256"
        }
      ],
      "stateMutability": "view",
      "type": "function"
    },
    {
      "inputs": [
        {
          "internalType": "bytes",
          "name": "publicKey",
          "type": "bytes"
        }
      ],
      "name": "getAddressFromPublicKey",
      "outputs": [
        {
          "internalType": "address",
          "name": "",
          "type": "address"
        }
      ],
      "stateMutability": "pure",
      "type": "function"
    },
    {
      "inputs": [
        {
          "internalType": "address",
          "name": "_keyLogRegistry",
          "type": "address"
        }
      ],
      "name": "initialize",
      "outputs": [],
      "stateMutability": "nonpayable",
      "type": "function"
    },
    {
      "inputs": [
        {
          "internalType": "address",
          "name": "",
          "type": "address"
        }
      ],
      "name": "isCrossChain",
      "outputs": [
        {
          "internalType": "bool",
          "name": "",
          "type": "bool"
        }
      ],
      "stateMutability": "view",
      "type": "function"
    },
    {
      "inputs": [],
      "name": "keyLogRegistry",
      "outputs": [
        {
          "internalType": "contract KeyLogRegistry",
          "name": "",
          "type": "address"
        }
      ],
      "stateMutability": "view",
      "type": "function"
    },
    {
      "inputs": [
        {
          "internalType": "address",
          "name": "originalToken",
          "type": "address"
        },
        {
          "internalType": "uint256",
          "name": "amount",
          "type": "uint256"
        },
        {
          "internalType": "bytes",
          "name": "publicKey",
          "type": "bytes"
        },
        {
          "internalType": "address",
          "name": "prerotatedKeyHash",
          "type": "address"
        },
        {
          "internalType": "address",
          "name": "twicePrerotatedKeyHash",
          "type": "address"
        }
      ],
      "name": "lockCrossChain",
      "outputs": [],
      "stateMutability": "nonpayable",
      "type": "function"
    },
    {
      "inputs": [
        {
          "internalType": "address",
          "name": "wrappedToken",
          "type": "address"
        },
        {
          "internalType": "address",
          "name": "user",
          "type": "address"
        },
        {
          "internalType": "uint256",
          "name": "amount",
          "type": "uint256"
        }
      ],
      "name": "mintWrappedToken",
      "outputs": [],
      "stateMutability": "nonpayable",
      "type": "function"
    },
    {
      "inputs": [
        {
          "internalType": "address",
          "name": "wrappedToken",
          "type": "address"
        },
        {
          "internalType": "address",
          "name": "user",
          "type": "address"
        },
        {
          "internalType": "uint256",
          "name": "amount",
          "type": "uint256"
        },
        {
          "internalType": "bytes32",
          "name": "lockHash",
          "type": "bytes32"
        }
      ],
      "name": "mintWrappedTokenWithLock",
      "outputs": [],
      "stateMutability": "nonpayable",
      "type": "function"
    },
    {
      "inputs": [
        {
          "internalType": "address",
          "name": "",
          "type": "address"
        }
      ],
      "name": "nonces",
      "outputs": [
        {
          "internalType": "uint256",
          "name": "",
          "type": "uint256"
        }
      ],
      "stateMutability": "view",
      "type": "function"
    },
    {
      "inputs": [
        {
          "internalType": "address",
          "name": "",
          "type": "address"
        }
      ],
      "name": "originalToWrapped",
      "outputs": [
        {
          "internalType": "address",
          "name": "",
          "type": "address"
        }
      ],
      "stateMutability": "view",
      "type": "function"
    },
    {
      "inputs": [],
      "name": "owner",
      "outputs": [
        {
          "internalType": "address",
          "name": "",
          "type": "address"
        }
      ],
      "stateMutability": "view",
      "type": "function"
    },
    {
      "inputs": [
        {
          "internalType": "bytes32",
          "name": "",
          "type": "bytes32"
        }
      ],
      "name": "processedLocks",
      "outputs": [
        {
          "internalType": "bool",
          "name": "",
          "type": "bool"
        }
      ],
      "stateMutability": "view",
      "type": "function"
    },
    {
      "inputs": [],
      "name": "proxiableUUID",
      "outputs": [
        {
          "internalType": "bytes32",
          "name": "",
          "type": "bytes32"
        }
      ],
      "stateMutability": "view",
      "type": "function"
    },
    {
      "inputs": [],
      "name": "relayer",
      "outputs": [
        {
          "internalType": "address",
          "name": "",
          "type": "address"
        }
      ],
      "stateMutability": "view",
      "type": "function"
    },
    {
      "inputs": [],
      "name": "renounceOwnership",
      "outputs": [],
      "stateMutability": "nonpayable",
      "type": "function"
    },
    {
      "inputs": [
        {
          "internalType": "address",
          "name": "_feeCollector",
          "type": "address"
        }
      ],
      "name": "setFeeCollector",
      "outputs": [],
      "stateMutability": "nonpayable",
      "type": "function"
    },
    {
      "inputs": [
        {
          "internalType": "uint256",
          "name": "_feePercentage",
          "type": "uint256"
        }
      ],
      "name": "setFeePercentage",
      "outputs": [],
      "stateMutability": "nonpayable",
      "type": "function"
    },
    {
      "inputs": [
        {
          "internalType": "address",
          "name": "_relayer",
          "type": "address"
        }
      ],
      "name": "setRelayer",
      "outputs": [],
      "stateMutability": "nonpayable",
      "type": "function"
    },
    {
      "inputs": [
        {
          "internalType": "address",
          "name": "newOwner",
          "type": "address"
        }
      ],
      "name": "transferOwnership",
      "outputs": [],
      "stateMutability": "nonpayable",
      "type": "function"
    },
    {
      "inputs": [
        {
          "internalType": "address",
          "name": "wrappedToken",
          "type": "address"
        },
        {
          "components": [
            {
              "internalType": "uint256",
              "name": "amount",
              "type": "uint256"
            },
            {
              "internalType": "bytes",
              "name": "signature",
              "type": "bytes"
            },
            {
              "internalType": "bytes",
              "name": "publicKey",
              "type": "bytes"
            },
            {
              "internalType": "address",
              "name": "prerotatedKeyHash",
              "type": "address"
            },
            {
              "internalType": "address",
              "name": "twicePrerotatedKeyHash",
              "type": "address"
            },
            {
              "internalType": "address",
              "name": "prevPublicKeyHash",
              "type": "address"
            },
            {
              "internalType": "address",
              "name": "targetAddress",
              "type": "address"
            },
            {
              "internalType": "bool",
              "name": "hasRelationship",
              "type": "bool"
            }
          ],
          "internalType": "struct Bridge.UnwrapParams",
          "name": "unconfirmed",
          "type": "tuple"
        },
        {
          "components": [
            {
              "internalType": "uint256",
              "name": "amount",
              "type": "uint256"
            },
            {
              "internalType": "bytes",
              "name": "signature",
              "type": "bytes"
            },
            {
              "internalType": "bytes",
              "name": "publicKey",
              "type": "bytes"
            },
            {
              "internalType": "address",
              "name": "prerotatedKeyHash",
              "type": "address"
            },
            {
              "internalType": "address",
              "name": "twicePrerotatedKeyHash",
              "type": "address"
            },
            {
              "internalType": "address",
              "name": "prevPublicKeyHash",
              "type": "address"
            },
            {
              "internalType": "address",
              "name": "targetAddress",
              "type": "address"
            },
            {
              "internalType": "bool",
              "name": "hasRelationship",
              "type": "bool"
            }
          ],
          "internalType": "struct Bridge.UnwrapParams",
          "name": "confirming",
          "type": "tuple"
        }
      ],
      "name": "unwrapPairWithTransfer",
      "outputs": [],
      "stateMutability": "payable",
      "type": "function"
    },
    {
      "inputs": [
        {
          "internalType": "address",
          "name": "newImplementation",
          "type": "address"
        },
        {
          "internalType": "bytes",
          "name": "data",
          "type": "bytes"
        }
      ],
      "name": "upgradeToAndCall",
      "outputs": [],
      "stateMutability": "payable",
      "type": "function"
    },
    {
      "inputs": [
        {
          "internalType": "address",
          "name": "originalToken",
          "type": "address"
        },
        {
          "components": [
            {
              "internalType": "uint256",
              "name": "amount",
              "type": "uint256"
            },
            {
              "internalType": "bytes",
              "name": "signature",
              "type": "bytes"
            },
            {
              "internalType": "bytes",
              "name": "publicKey",
              "type": "bytes"
            },
            {
              "internalType": "address",
              "name": "prerotatedKeyHash",
              "type": "address"
            },
            {
              "internalType": "address",
              "name": "twicePrerotatedKeyHash",
              "type": "address"
            },
            {
              "internalType": "address",
              "name": "prevPublicKeyHash",
              "type": "address"
            },
            {
              "internalType": "address",
              "name": "outputAddress",
              "type": "address"
            },
            {
              "internalType": "bool",
              "name": "hasRelationship",
              "type": "bool"
            },
            {
              "internalType": "address",
              "name": "tokenSource",
              "type": "address"
            }
          ],
          "internalType": "struct Bridge.WrapParams",
          "name": "unconfirmed",
          "type": "tuple"
        },
        {
          "components": [
            {
              "internalType": "uint256",
              "name": "amount",
              "type": "uint256"
            },
            {
              "internalType": "bytes",
              "name": "signature",
              "type": "bytes"
            },
            {
              "internalType": "bytes",
              "name": "publicKey",
              "type": "bytes"
            },
            {
              "internalType": "address",
              "name": "prerotatedKeyHash",
              "type": "address"
            },
            {
              "internalType": "address",
              "name": "twicePrerotatedKeyHash",
              "type": "address"
            },
            {
              "internalType": "address",
              "name": "prevPublicKeyHash",
              "type": "address"
            },
            {
              "internalType": "address",
              "name": "outputAddress",
              "type": "address"
            },
            {
              "internalType": "bool",
              "name": "hasRelationship",
              "type": "bool"
            },
            {
              "internalType": "address",
              "name": "tokenSource",
              "type": "address"
            }
          ],
          "internalType": "struct Bridge.WrapParams",
          "name": "confirming",
          "type": "tuple"
        }
      ],
      "name": "wrapPairWithTransfer",
      "outputs": [],
      "stateMutability": "payable",
      "type": "function"
    },
    {
      "inputs": [
        {
          "internalType": "address",
          "name": "",
          "type": "address"
        }
      ],
      "name": "wrappedToOriginal",
      "outputs": [
        {
          "internalType": "address",
          "name": "",
          "type": "address"
        }
      ],
      "stateMutability": "view",
      "type": "function"
    }
  ],
  "bytecode": "0x60a0806040523461002a57306080526123f8908161003082396080518181816116cf01526117780152f35b600080fdfe61012080604052600436101561001457600080fd5b600060c05260c0513560e01c908163081da8c114611bc05750806309765f5314611b8d57806321deec4f14611a28578063276c1ac0146119e0578063334976c7146119425780634f1ef2861461173957806352d1902d146116bb5780635bf55209146114ac5780636548e9bc14611468578063715018a6146113f95780637c0db610146113bc5780637ecebe00146113805780638406c079146113565780638da5cb5b1461131f578063931b6b6014611166578063a001ecdd14611147578063a42dce80146110bf578063a8bc3e0a1461107e578063ab804c5e14610b39578063ad3cb1cc14610a8b578063ae06c1b714610a29578063b5057a7b146109fe578063c415b95c146109d4578063c4d66de814610842578063d382dd8c146101a2578063d73792a9146101845763f2fde38b1461014f57600080fd5b3461017e57602036600319011261017e5761017861016b611bfa565b610173612104565b612090565b60c05180f35b60c05180fd5b3461017e5760c05136600319011261017e5760206040516127108152f35b60031960603682011261017e576101b7611bfa565b9067ffffffffffffffff90816024351161017e576101209182826024353603011261017e576044351161017e576044353603011261017e576101f761213d565b60c080516001600160a01b038381169091526002602052905160409020541690610222821515611e1e565b3360c051526005602052604060c051205461024160c460243501611e6a565b60405161026d8161025f856020830195602435600401358988611e7e565b03601f198101835282611c3a565b51902060008051602061236383398151915260c05152601c526102d16102c16102b8603c60c051206102b26102ab6024803501602435600401611eab565b3691611c78565b9061216d565b909291926121a9565b6001600160a01b03163314611ede565b6102df60c460443501611e6a565b60018201821161073d5760405161030b8161025f60208201946001870190604435600401358988611e7e565b51902060008051602061236383398151915260c05152601c5261038d61034a6102b8603c60c051206102b26102ab602460443501604435600401611eab565b61037561037a6103636044803501604435600401611eab565b6001600160a01b039391369190611c78565b611ccd565b6001600160a01b03909216911614611f37565b6103a36044356004013560243560040135611f2a565b916127106103b360075485611d2f565b04916103bf8385611d58565b938061076e575b5060018060a01b0360c05154166102ab604460243501916104006103756103f285602435600401611eab565b949095602435600401611eab565b9161040f606460243501611e6a565b9361041e608460243501611e6a565b60a05261042f60a460243501611e6a565b61043d60c460243501611e6a565b61044b60e460243501611f83565b6104646103756102ab6044803501604435600401611eab565b610472606460443501611e6a565b610480608460443501611e6a565b9161048f60a460443501611e6a565b9361049e60c460443501611e6a565b956104ad60e460443501611f83565b978b3b1561017e576104e699604051608052635988f59760e01b6080515260c0519e6080519e6080519d60a05193600460805101611f90565b03906080519060c051905af1801561067257610755575b6002810180911161073d573360c051526005602052604060c05120558161067f575b505061052f606460443501611e6a565b823b1561017e576040516340c10f1960e01b815260c0516001600160a01b0390921660048201526024810183905290818060448101038160c051875af180156106725761065c575b507fb5187db8729022d088cc50f8b09bdeaec0ac84d7686d287a7dd82dc25704f7f3906001600160a01b036105b0604435606401611e6a565b604080516001600160a01b0396909616865260208601939093521692a2346105eb575b60016000805160206123a38339815191525560c05180f35b60c0516106149080808034610604604435606401611e6a565b5af161060e61201e565b5061204e565b6001600160a01b0361062a604435606401611e6a565b166040513481527ffb55a98b33e2f35080e8e9656caf739c56946219253f8cd86917f7d33398667660203392a36105d3565b61066590611c26565b60c05161017e5782610577565b6040513d60c051823e3d90fd5b60065460405163a9059cbb60e01b81526001600160a01b0391821660048201526024810184905260c0519092916020918491604491839186165af1908115610672576106f86020927f9dc46f23cfb5ddcad0ae7ea2be38d47fec07bb9382ec7e564efc69e036dd66ce9460c05191610710575b50611d7d565b6040519384526001600160a01b031692a2828061051f565b6107309150843d8611610736575b6107288183611c3a565b810190611d65565b886106f2565b503d61071e565b634e487b7160e01b60c051526011600452602460c051fd5b610760608051611c26565b60c051156104fd5760c05180fd5b60206107ba9161078361010460243501611e6a565b6040516323b872dd60e01b81526001600160a01b039091166004820152306024820152604481019190915291829081906064820190565b038160c05160018060a01b0388165af19081156106725760c05191610823575b50156107e657856103c6565b60405162461bcd60e51b8152602060048201526015602482015274151bdad95b881d1c985b9cd9995c8819985a5b1959605a1b6044820152606490fd5b61083c915060203d602011610736576107288183611c3a565b866107da565b3461017e57602036600319011261017e5761085b611bfa565b7ff0c57e16840df040f15088dc2f81fe391c3923bec73e23a9662efc9c229c6a009081549060ff8260401c16159167ffffffffffffffff8116801590816109cc575b60011490816109c2575b1590816109b9575b506109a75767ffffffffffffffff198116600117845582610988575b506108d461222e565b6108dc61222e565b6108e533612090565b6108ed61222e565b6108f561222e565b6108fd61222e565b60016000805160206123a3833981519152556001600160601b0360a01b9060018060a01b03168160c05154161760c051553390600654161760065560646007556109475760c05180f35b68ff00000000000000001981541690557fc7f505b2f371ae2175ee4913f4499e1f2633a7b5936321eed1cdaeb6115181d2602060405160018152a180610178565b68ffffffffffffffffff191668010000000000000001178355836108cb565b60405163f92ee8a960e01b8152600490fd5b905015856108af565b303b1591506108a7565b84915061089d565b3461017e5760c05136600319011261017e576006546040516001600160a01b039091168152602090f35b3461017e5760c05136600319011261017e5760c051546040516001600160a01b039091168152602090f35b3461017e57602036600319011261017e57600435610a45612104565b6127108111610a575760075560c05180f35b60405162461bcd60e51b815260206004820152600c60248201526b08ccaca40e8dede40d0d2ced60a31b6044820152606490fd5b3461017e5760c05136600319011261017e576040516040810181811067ffffffffffffffff821117610b235760405260058152602090640352e302e360dc1b602082015260405180926020825282519081602084015260c051935b828510610b0a5750506040925060c051838284010152601f80199101168101030190f35b8481018201518686016040015293810193859350610ae6565b634e487b7160e01b600052604160045260246000fd5b60031960603682011261017e57610b4e611bfa565b9067ffffffffffffffff90816024351161017e576101009182826024353603011261017e576044351161017e576044353603011261017e57610b8e61213d565b60c080516001600160a01b0383811690915260036020529051604090205416610bb8811515611e1e565b3360c051526005602052604060c051205491610bd860c460243501611e6a565b604051610bf68161025f876020830195602435600401358888611e7e565b51902060008051602061236383398151915260c05152601c52610c346102c16102b8603c60c051206102b26102ab6024803501602435600401611eab565b610c4260c460443501611e6a565b60018401841161073d57604051610c6e8161025f60208201946001890190604435600401358888611e7e565b51902060008051602061236383398151915260c05152601c52610cad61034a6102b8603c60c051206102b26102ab602460443501604435600401611eab565b610cc36044356004013560243560040135611f2a565b9260018060a01b0360c05154166102ab60446024350191610cef6103756103f285602435600401611eab565b91610cfe606460243501611e6a565b93610d0d608460243501611e6a565b61010052610d1f60a460243501611e6a565b610d2d60c460243501611e6a565b610d3b60e460243501611f83565b610d546103756102ab6044803501604435600401611eab565b610d62606460443501611e6a565b610d70608460443501611e6a565b91610d7f60a460443501611e6a565b93610d8e60c460443501611e6a565b95610d9d60e460443501611f83565b978b3b1561017e57610dd79960405160e052635988f59760e01b60e0515260c0519e60e0519e60e0519d6101005193600460e05101611f90565b039060e0519060c051905af1801561067257611065575b6002810180911161073d5760c0805133905260056020525160409020556001600160a01b0381163b1561017e57604051632770a7eb60e21b815260c08051336004840152602483018690529051829060449082906001600160a01b0387165af180156106725761104f575b5060018060a01b031660c05152600460205260ff604060c051205416600014610ef3577fcca356c69c0991b2f138fe7c7f64cf9be89604118a06017a49e0001782bc6536610ed2610eae606460443501611e6a565b604080516001600160a01b0390921682526020820195909552339490918291820190565b0390a35b346105eb5760016000805160206123a38339815191525560c05180f35b90610f0e612710610f0660075484611d2f565b048092611d58565b9080610fa5575b50602090610f6092610f2b606460443501611e6a565b60405163a9059cbb60e01b81526001600160a01b03909116600482015260248101929092529092839190829081906044820190565b039160c051905af1801561067257610f819160c05191610f86575b50611dbf565b610ed6565b610f9f915060203d602011610736576107288183611c3a565b82610f7b565b60065460405163a9059cbb60e01b81526001600160a01b03909116600482015260248101829052929091906020848060448101038160c051855af1928315610672577f9dc46f23cfb5ddcad0ae7ea2be38d47fec07bb9382ec7e564efc69e036dd66ce602083926110238297610f609960c051916110325750611d7d565b604051908152a2925090610f15565b6110499150843d8611610736576107288183611c3a565b8a6106f2565b61105890611c26565b60c05161017e5783610e59565b61107060e051611c26565b60c05115610dee5760c05180fd5b3461017e57602036600319011261017e576001600160a01b0361109f611bfa565b1660c051526004602052602060ff604060c0512054166040519015158152f35b3461017e57602036600319011261017e576110d8611bfa565b6110e0612104565b6001600160a01b0316801561110a576001600160601b0360a01b600654161760065560c05160c051f35b60405162461bcd60e51b815260206004820152601560248201527424b73b30b634b2103332b29031b7b63632b1ba37b960591b6044820152606490fd5b3461017e5760c05136600319011261017e576020600754604051908152f35b3461017e5760a036600319011261017e5761117f611bfa565b60243560443567ffffffffffffffff9283821161017e573660238301121561017e57816004013593841161017e576024820191602485369201011161017e576001600160a01b036064358181169591929086900361131a576084359083821680920361131a576040516323b872dd60e01b81523360048201523060248201526044810187905290841696906020818060648101038160c0518c5af18015610672576112329160c051916112fb5750611dbf565b8360c051541691611247610375368689611c78565b94833b1561017e5761127360405197889663151cdb2f60e11b885260e0600489015260e4880191611dfd565b95166024850152816044850152606484015260c051608484015260a483015260c05160c4830152818060c05194039160c051905af18015610672576112e5575b506040519081527ee8ffc569c5f605999e8ad11ec9db2ef2254b66370f5b963df609fa59854eb260203392a360c05180f35b6112ee90611c26565b60c05161017e57826112b3565b611314915060203d602011610736576107288183611c3a565b89610f7b565b600080fd5b3461017e5760c05136600319011261017e57600080516020612383833981519152546040516001600160a01b039091168152602090f35b3461017e5760c05136600319011261017e576001546040516001600160a01b039091168152602090f35b3461017e57602036600319011261017e576001600160a01b036113a1611bfa565b1660c0515260056020526020604060c0512054604051908152f35b3461017e57602036600319011261017e5760206001600160a01b03806113e0611bfa565b1660c0515260038252604060c051205416604051908152f35b3461017e5760c05136600319011261017e57611413612104565b60008051602061238383398151915280546001600160a01b031981169091556000906001600160a01b03167f8be0079c531659141344cd1fd0a4f28419497f9722a3daafe3b4186f6b6457e08280a360c05180f35b3461017e57602036600319011261017e57611481611bfa565b611489612104565b60018060a01b03166001600160601b0360a01b600154161760015560c05160c051f35b3461017e57608036600319011261017e576114c5611bfa565b6114cd611c10565b604435906064356114dc612104565b8060c051526020906008825260ff604060c05120541661167d5760c0515260088152604060c05120600160ff1982541617905561152961271061152160075486611d2f565b048094611d58565b9360018060a01b03809116938460c051526003835281604060c05120541690806115de575b5050833b1561017e576040516340c10f1960e01b815260c0516001600160a01b038516600483015260248201879052818060448101038160c051895af18015610672576115c8575b507fbf67ec129007be07f346d9d2933215293a6612ce7ff17d6b479a5a5cae72890c926040519586521693a360c05180f35b6115d190611c26565b60c05161017e5785611596565b60065460405163a9059cbb60e01b81529084166001600160a01b03166004820152602481018290529084828060448101038160c051875af19081156106725761165286927f9dc46f23cfb5ddcad0ae7ea2be38d47fec07bb9382ec7e564efc69e036dd66ce9460c051916116605750611d7d565b604051908152a2858061154e565b6116779150843d8611610736576107288183611c3a565b8b6106f2565b60405162461bcd60e51b8152600481018390526016602482015275131bd8dac8185b1c9958591e481c1c9bd8d95cdcd95960521b6044820152606490fd5b3461017e5760c05136600319011261017e577f00000000000000000000000000000000000000000000000000000000000000006001600160a01b031630036117275760206040517f360894a13ba1a3210667c828492db98dca3e2076cc3735a920a3ca505d382bbc8152f35b60405163703e46dd60e11b8152600490fd5b604036600319011261017e5761174d611bfa565b60243567ffffffffffffffff811161017e5761176d903690600401611caf565b906001600160a01b037f00000000000000000000000000000000000000000000000000000000000000008116308114908115611914575b50611727576117b1612104565b8116916040516352d1902d60e01b8152602081600481875afa60c05191816118e0575b506117f257604051634c9c8ce360e01b815260048101859052602490fd5b7f360894a13ba1a3210667c828492db98dca3e2076cc3735a920a3ca505d382bbc908181036118c85750823b156118af57836001600160601b0360a01b825416179055604051927fbc7cd75a20ee27fd9adebab32041f755214dbc6bffa90cc0225b39da2e5c2d3b60c05160c051a28051156118935761188c925060c0519060c05190602081519101845af461188661201e565b916122ff565b5060c05180f35b5050346118a05750610178565b63b398979f60e01b8152600490fd5b604051634c9c8ce360e01b815260048101859052602490fd5b60249060405190632a87526960e21b82526004820152fd5b9091506020813d60201161190c575b816118fc60209383611c3a565b8101031261017e575190856117d4565b3d91506118ef565b9050817f360894a13ba1a3210667c828492db98dca3e2076cc3735a920a3ca505d382bbc54161415846117a4565b3461017e57606036600319011261017e5761195b611bfa565b611963611c10565b6044359182151580930361017e57611979612104565b60018060a01b03809116908160c051526002602052604060c0512092166001600160601b0360a01b92818482541617905560c051526003602052604060c05120918254161790556004602052604060c051209060ff8019835416911617905560c05160c051f35b3461017e57602036600319011261017e5760043567ffffffffffffffff811161017e57611a166103756020923690600401611caf565b6040516001600160a01b039091168152f35b3461017e57606036600319011261017e57611a41611bfa565b611a49611c10565b600154604435926001600160a01b039182163303611b50578116918260c05152600460205260ff604060c05120541615611b0b57823b1561017e576040516340c10f1960e01b815260c0516001600160a01b038316600483015260248201869052909290838060448101038160c051885af1918215610672577fbf67ec129007be07f346d9d2933215293a6612ce7ff17d6b479a5a5cae72890c93602093611afc575b506040519586521693a360c05180f35b611b0590611c26565b86611aec565b60405162461bcd60e51b815260206004820152601760248201527f4e6f7420612063726f73732d636861696e20746f6b656e0000000000000000006044820152606490fd5b60405162461bcd60e51b815260206004820152601560248201527413db9b1e481c995b185e595c8818d85b881b5a5b9d605a1b6044820152606490fd5b3461017e57602036600319011261017e5760043560c051526008602052602060ff604060c0512054166040519015158152f35b3461017e57602036600319011261017e576020906001600160a01b0380611be5611bfa565b1660c0515260028352604060c0512054168152f35b600435906001600160a01b038216820361131a57565b602435906001600160a01b038216820361131a57565b67ffffffffffffffff8111610b2357604052565b90601f8019910116810190811067ffffffffffffffff821117610b2357604052565b67ffffffffffffffff8111610b2357601f01601f191660200190565b929192611c8482611c5c565b91611c926040519384611c3a565b82948184528183011161131a578281602093846000960137010152565b9080601f8301121561131a57816020611cca93359101611c78565b90565b6040815103611cea5780516020909101206001600160a01b031690565b60405162461bcd60e51b815260206004820152601b60248201527f5075626c6963206b6579206d75737420626520363420627974657300000000006044820152606490fd5b81810292918115918404141715611d4257565b634e487b7160e01b600052601160045260246000fd5b91908203918211611d4257565b9081602091031261131a5751801515810361131a5790565b15611d8457565b60405162461bcd60e51b8152602060048201526013602482015272119959481d1c985b9cd9995c8819985a5b1959606a1b6044820152606490fd5b15611dc657565b60405162461bcd60e51b815260206004820152600f60248201526e151c985b9cd9995c8819985a5b1959608a1b6044820152606490fd5b908060209392818452848401376000828201840152601f01601f1916010190565b15611e2557565b60405162461bcd60e51b815260206004820152601860248201527f546f6b656e2070616972206e6f7420737570706f7274656400000000000000006044820152606490fd5b356001600160a01b038116810361131a5790565b92606894926001600160601b0319809360601b168552601485015260601b16603483015260488201520190565b903590601e198136030182121561131a570180359067ffffffffffffffff821161131a5760200191813603831361131a57565b15611ee557565b60405162461bcd60e51b815260206004820152601d60248201527f496e76616c696420756e636f6e6669726d6564207369676e61747572650000006044820152606490fd5b91908201809211611d4257565b15611f3e57565b60405162461bcd60e51b815260206004820152601c60248201527f496e76616c696420636f6e6669726d696e67207369676e6174757265000000006044820152606490fd5b35801515810361131a5790565b9c999394969a9598919e9d9b979e8d6101a0908181520190611fb192611dfd565b6001600160a01b0392831660208e015293821660408d015294811660608c015295861660808b015296851660a08a015299151560c089015290831660e088015293821661010087015292811661012086015291821661014085015216610160830152151561018090910152565b3d15612049573d9061202f82611c5c565b9161203d6040519384611c3a565b82523d6000602084013e565b606090565b1561205557565b60405162461bcd60e51b8152602060048201526013602482015272115512081d1c985b9cd9995c8819985a5b1959606a1b6044820152606490fd5b6001600160a01b039081169081156120eb5760008051602061238383398151915280546001600160a01b031981168417909155167f8be0079c531659141344cd1fd0a4f28419497f9722a3daafe3b4186f6b6457e0600080a3565b604051631e4fbdf760e01b815260006004820152602490fd5b600080516020612383833981519152546001600160a01b0316330361212557565b60405163118cdaa760e01b8152336004820152602490fd5b6000805160206123a3833981519152600281541461215b5760029055565b604051633ee5aeb560e01b8152600490fd5b815191906041830361219e5761219792506020820151906060604084015193015160001a9061226f565b9192909190565b505060009160029190565b600481101561221857806121bb575050565b600181036121d55760405163f645eedf60e01b8152600490fd5b600281036121f65760405163fce698f760e01b815260048101839052602490fd5b6003146122005750565b602490604051906335e2f38360e21b82526004820152fd5b634e487b7160e01b600052602160045260246000fd5b60ff7ff0c57e16840df040f15088dc2f81fe391c3923bec73e23a9662efc9c229c6a005460401c161561225d57565b604051631afcd79f60e31b8152600490fd5b91907f7fffffffffffffffffffffffffffffff5d576e7357a4501ddfe92f46681b20a084116122f357926020929160ff608095604051948552168484015260408301526060820152600092839182805260015afa156122e75780516001600160a01b038116156122de57918190565b50809160019190565b604051903d90823e3d90fd5b50505060009160039190565b90612326575080511561231457805190602001fd5b60405163d6bda27560e01b8152600490fd5b81511580612359575b612337575090565b604051639996b31560e01b81526001600160a01b039091166004820152602490fd5b50803b1561232f56fe19457468657265756d205369676e6564204d6573736167653a0a3332000000009016d09d72d40fdae2fd8ceac6b6234c7706214fd39c1cd1e609a0528c1993009b779b17422d0df92223018b32b4d1fa46e071723d6817e2486d003becc55f00a2646970667358221220fca59917de8326b8b4005ec6c1be8e2929b9186cd894cad00d982de9b3cc439964736f6c63430008180033",
  "linkReferences": {},
  "deployedLinkReferences": {}
}