{
  "_format": "hh-sol-artifact-1",
  "contractName": "Bridge",
  "sourceName": "contracts/Bridge.sol",
  "abi": [
    {
      "inputs": [
        {
          "internalType": "address",
          "name": "target",
          "type": "address"
        }
      ],
      "name": "AddressEmptyCode",
      "type": "error"
    },
    {
      "inputs": [],
      "name": "AmountTooLow",
      "type": "error"
    },
    {
      "inputs": [],
      "name": "BurnAmountZero",
      "type": "error"
    },
    {
      "inputs": [],
      "name": "ECDSAInvalidSignature",
      "type": "error"
    },
    {
      "inputs": [
        {
          "internalType": "uint256",
          "name": "length",
          "type": "uint256"
        }
      ],
      "name": "ECDSAInvalidSignatureLength",
      "type": "error"
    },
    {
      "inputs": [
        {
          "internalType": "bytes32",
          "name": "s",
          "type": "bytes32"
        }
      ],
      "name": "ECDSAInvalidSignatureS",
      "type": "error"
    },
    {
      "inputs": [
        {
          "internalType": "address",
          "name": "implementation",
          "type": "address"
        }
      ],
      "name": "ERC1967InvalidImplementation",
      "type": "error"
    },
    {
      "inputs": [],
      "name": "ERC1967NonPayable",
      "type": "error"
    },
    {
      "inputs": [],
      "name": "EthTransferFailed",
      "type": "error"
    },
    {
      "inputs": [],
      "name": "FailedCall",
      "type": "error"
    },
    {
      "inputs": [],
      "name": "FeeTooHigh",
      "type": "error"
    },
    {
      "inputs": [],
      "name": "FeeTransferFailed",
      "type": "error"
    },
    {
      "inputs": [],
      "name": "InsufficientAllowance",
      "type": "error"
    },
    {
      "inputs": [
        {
          "internalType": "address",
          "name": "token",
          "type": "address"
        }
      ],
      "name": "InsufficientPermits",
      "type": "error"
    },
    {
      "inputs": [],
      "name": "InvalidConfirmingSignature",
      "type": "error"
    },
    {
      "inputs": [],
      "name": "InvalidFeeCollector",
      "type": "error"
    },
    {
      "inputs": [],
      "name": "InvalidInitialization",
      "type": "error"
    },
    {
      "inputs": [],
      "name": "InvalidPrerotatedKeyHash",
      "type": "error"
    },
    {
      "inputs": [],
      "name": "InvalidPriceFeed",
      "type": "error"
    },
    {
      "inputs": [],
      "name": "InvalidPublicKey",
      "type": "error"
    },
    {
      "inputs": [],
      "name": "InvalidUnconfirmedSignature",
      "type": "error"
    },
    {
      "inputs": [],
      "name": "NoTokenPairs",
      "type": "error"
    },
    {
      "inputs": [],
      "name": "NotInitializing",
      "type": "error"
    },
    {
      "inputs": [
        {
          "internalType": "address",
          "name": "owner",
          "type": "address"
        }
      ],
      "name": "OwnableInvalidOwner",
      "type": "error"
    },
    {
      "inputs": [
        {
          "internalType": "address",
          "name": "account",
          "type": "address"
        }
      ],
      "name": "OwnableUnauthorizedAccount",
      "type": "error"
    },
    {
      "inputs": [],
      "name": "ReentrancyGuardReentrantCall",
      "type": "error"
    },
    {
      "inputs": [],
      "name": "RestrictedToOwnerRelayer",
      "type": "error"
    },
    {
      "inputs": [],
      "name": "TokenPairExists",
      "type": "error"
    },
    {
      "inputs": [],
      "name": "TokenPairNotSupported",
      "type": "error"
    },
    {
      "inputs": [],
      "name": "TransferFailed",
      "type": "error"
    },
    {
      "inputs": [],
      "name": "UUPSUnauthorizedCallContext",
      "type": "error"
    },
    {
      "inputs": [
        {
          "internalType": "bytes32",
          "name": "slot",
          "type": "bytes32"
        }
      ],
      "name": "UUPSUnsupportedProxiableUUID",
      "type": "error"
    },
    {
      "inputs": [],
      "name": "ZeroAddress",
      "type": "error"
    },
    {
      "anonymous": false,
      "inputs": [
        {
          "indexed": false,
          "internalType": "uint64",
          "name": "version",
          "type": "uint64"
        }
      ],
      "name": "Initialized",
      "type": "event"
    },
    {
      "anonymous": false,
      "inputs": [
        {
          "indexed": true,
          "internalType": "address",
          "name": "previousOwner",
          "type": "address"
        },
        {
          "indexed": true,
          "internalType": "address",
          "name": "newOwner",
          "type": "address"
        }
      ],
      "name": "OwnershipTransferred",
      "type": "event"
    },
    {
      "anonymous": false,
      "inputs": [
        {
          "indexed": true,
          "internalType": "address",
          "name": "implementation",
          "type": "address"
        }
      ],
      "name": "Upgraded",
      "type": "event"
    },
    {
      "inputs": [],
      "name": "FEE_CAP_USD",
      "outputs": [
        {
          "internalType": "uint256",
          "name": "",
          "type": "uint256"
        }
      ],
      "stateMutability": "view",
      "type": "function"
    },
    {
      "inputs": [],
      "name": "FEE_DENOMINATOR",
      "outputs": [
        {
          "internalType": "uint256",
          "name": "",
          "type": "uint256"
        }
      ],
      "stateMutability": "view",
      "type": "function"
    },
    {
      "inputs": [],
      "name": "UPGRADE_INTERFACE_VERSION",
      "outputs": [
        {
          "internalType": "string",
          "name": "",
          "type": "string"
        }
      ],
      "stateMutability": "view",
      "type": "function"
    },
    {
      "inputs": [
        {
          "components": [
            {
              "internalType": "address",
              "name": "originalToken",
              "type": "address"
            },
            {
              "internalType": "string",
              "name": "tokenName",
              "type": "string"
            },
            {
              "internalType": "string",
              "name": "tokenSymbol",
              "type": "string"
            },
            {
              "internalType": "bool",
              "name": "isCrossChain",
              "type": "bool"
            },
            {
              "internalType": "address",
              "name": "wrappedToken",
              "type": "address"
            },
            {
              "internalType": "address",
              "name": "priceFeed",
              "type": "address"
            }
          ],
          "internalType": "struct Bridge.TokenPair[]",
          "name": "newTokenPairs",
          "type": "tuple[]"
        },
        {
          "components": [
            {
              "internalType": "bytes",
              "name": "signature",
              "type": "bytes"
            },
            {
              "internalType": "bytes",
              "name": "publicKey",
              "type": "bytes"
            },
            {
              "internalType": "address",
              "name": "publicKeyHash",
              "type": "address"
            },
            {
              "internalType": "address",
              "name": "prerotatedKeyHash",
              "type": "address"
            },
            {
              "internalType": "address",
              "name": "twicePrerotatedKeyHash",
              "type": "address"
            },
            {
              "internalType": "address",
              "name": "prevPublicKeyHash",
              "type": "address"
            },
            {
              "internalType": "address",
              "name": "outputAddress",
              "type": "address"
            },
            {
              "internalType": "bool",
              "name": "hasRelationship",
              "type": "bool"
            },
            {
              "components": [
                {
                  "internalType": "address",
                  "name": "token",
                  "type": "address"
                },
                {
                  "internalType": "uint256",
                  "name": "amount",
                  "type": "uint256"
                },
                {
                  "internalType": "uint256",
                  "name": "deadline",
                  "type": "uint256"
                },
                {
                  "internalType": "uint8",
                  "name": "v",
                  "type": "uint8"
                },
                {
                  "internalType": "bytes32",
                  "name": "r",
                  "type": "bytes32"
                },
                {
                  "internalType": "bytes32",
                  "name": "s",
                  "type": "bytes32"
                },
                {
                  "internalType": "address",
                  "name": "recipient",
                  "type": "address"
                }
              ],
              "internalType": "struct Bridge.PermitData[]",
              "name": "permits",
              "type": "tuple[]"
            }
          ],
          "internalType": "struct Bridge.KeyData",
          "name": "unconfirmed",
          "type": "tuple"
        },
        {
          "components": [
            {
              "internalType": "bytes",
              "name": "signature",
              "type": "bytes"
            },
            {
              "internalType": "bytes",
              "name": "publicKey",
              "type": "bytes"
            },
            {
              "internalType": "address",
              "name": "publicKeyHash",
              "type": "address"
            },
            {
              "internalType": "address",
              "name": "prerotatedKeyHash",
              "type": "address"
            },
            {
              "internalType": "address",
              "name": "twicePrerotatedKeyHash",
              "type": "address"
            },
            {
              "internalType": "address",
              "name": "prevPublicKeyHash",
              "type": "address"
            },
            {
              "internalType": "address",
              "name": "outputAddress",
              "type": "address"
            },
            {
              "internalType": "bool",
              "name": "hasRelationship",
              "type": "bool"
            },
            {
              "components": [
                {
                  "internalType": "address",
                  "name": "token",
                  "type": "address"
                },
                {
                  "internalType": "uint256",
                  "name": "amount",
                  "type": "uint256"
                },
                {
                  "internalType": "uint256",
                  "name": "deadline",
                  "type": "uint256"
                },
                {
                  "internalType": "uint8",
                  "name": "v",
                  "type": "uint8"
                },
                {
                  "internalType": "bytes32",
                  "name": "r",
                  "type": "bytes32"
                },
                {
                  "internalType": "bytes32",
                  "name": "s",
                  "type": "bytes32"
                },
                {
                  "internalType": "address",
                  "name": "recipient",
                  "type": "address"
                }
              ],
              "internalType": "struct Bridge.PermitData[]",
              "name": "permits",
              "type": "tuple[]"
            }
          ],
          "internalType": "struct Bridge.KeyData",
          "name": "confirming",
          "type": "tuple"
        }
      ],
      "name": "addMultipleTokenPairsAtomic",
      "outputs": [],
      "stateMutability": "payable",
      "type": "function"
    },
    {
      "inputs": [
        {
          "internalType": "address",
          "name": "originalToken",
          "type": "address"
        },
        {
          "internalType": "address",
          "name": "wrappedToken",
          "type": "address"
        },
        {
          "internalType": "bool",
          "name": "_isCrossChain",
          "type": "bool"
        }
      ],
      "name": "addTokenPair",
      "outputs": [],
      "stateMutability": "nonpayable",
      "type": "function"
    },
    {
      "inputs": [],
      "name": "feeCollector",
      "outputs": [
        {
          "internalType": "address",
          "name": "",
          "type": "address"
        }
      ],
      "stateMutability": "view",
      "type": "function"
    },
    {
      "inputs": [],
      "name": "feePercentage",
      "outputs": [
        {
          "internalType": "uint256",
          "name": "",
          "type": "uint256"
        }
      ],
      "stateMutability": "view",
      "type": "function"
    },
    {
      "inputs": [
        {
          "internalType": "bytes",
          "name": "publicKey",
          "type": "bytes"
        }
      ],
      "name": "getAddressFromPublicKey",
      "outputs": [
        {
          "internalType": "address",
          "name": "",
          "type": "address"
        }
      ],
      "stateMutability": "pure",
      "type": "function"
    },
    {
      "inputs": [],
      "name": "getSupportedTokens",
      "outputs": [
        {
          "internalType": "address[]",
          "name": "",
          "type": "address[]"
        }
      ],
      "stateMutability": "view",
      "type": "function"
    },
    {
      "inputs": [
        {
          "internalType": "address",
          "name": "_keyLogRegistry",
          "type": "address"
        }
      ],
      "name": "initialize",
      "outputs": [],
      "stateMutability": "nonpayable",
      "type": "function"
    },
    {
      "inputs": [],
      "name": "keyLogRegistry",
      "outputs": [
        {
          "internalType": "contract KeyLogRegistry",
          "name": "",
          "type": "address"
        }
      ],
      "stateMutability": "view",
      "type": "function"
    },
    {
      "inputs": [
        {
          "internalType": "address",
          "name": "",
          "type": "address"
        }
      ],
      "name": "nonces",
      "outputs": [
        {
          "internalType": "uint256",
          "name": "",
          "type": "uint256"
        }
      ],
      "stateMutability": "view",
      "type": "function"
    },
    {
      "inputs": [
        {
          "internalType": "address",
          "name": "originalToken",
          "type": "address"
        }
      ],
      "name": "originalToWrapped",
      "outputs": [
        {
          "internalType": "address",
          "name": "",
          "type": "address"
        }
      ],
      "stateMutability": "view",
      "type": "function"
    },
    {
      "inputs": [],
      "name": "owner",
      "outputs": [
        {
          "internalType": "address",
          "name": "",
          "type": "address"
        }
      ],
      "stateMutability": "view",
      "type": "function"
    },
    {
      "inputs": [],
      "name": "proxiableUUID",
      "outputs": [
        {
          "internalType": "bytes32",
          "name": "",
          "type": "bytes32"
        }
      ],
      "stateMutability": "view",
      "type": "function"
    },
    {
      "inputs": [
        {
          "components": [
            {
              "internalType": "uint256",
              "name": "amount",
              "type": "uint256"
            },
            {
              "internalType": "bytes",
              "name": "signature",
              "type": "bytes"
            },
            {
              "internalType": "bytes",
              "name": "publicKey",
              "type": "bytes"
            },
            {
              "internalType": "address",
              "name": "prerotatedKeyHash",
              "type": "address"
            },
            {
              "internalType": "address",
              "name": "twicePrerotatedKeyHash",
              "type": "address"
            },
            {
              "internalType": "address",
              "name": "prevPublicKeyHash",
              "type": "address"
            },
            {
              "internalType": "address",
              "name": "outputAddress",
              "type": "address"
            },
            {
              "internalType": "bool",
              "name": "hasRelationship",
              "type": "bool"
            },
            {
              "internalType": "address",
              "name": "tokenSource",
              "type": "address"
            },
            {
              "components": [
                {
                  "internalType": "address",
                  "name": "token",
                  "type": "address"
                },
                {
                  "internalType": "uint256",
                  "name": "amount",
                  "type": "uint256"
                },
                {
                  "internalType": "uint256",
                  "name": "deadline",
                  "type": "uint256"
                },
                {
                  "internalType": "uint8",
                  "name": "v",
                  "type": "uint8"
                },
                {
                  "internalType": "bytes32",
                  "name": "r",
                  "type": "bytes32"
                },
                {
                  "internalType": "bytes32",
                  "name": "s",
                  "type": "bytes32"
                },
                {
                  "internalType": "address",
                  "name": "recipient",
                  "type": "address"
                }
              ],
              "internalType": "struct Bridge.PermitData[]",
              "name": "permits",
              "type": "tuple[]"
            }
          ],
          "internalType": "struct Bridge.Params",
          "name": "unconfirmed",
          "type": "tuple"
        },
        {
          "components": [
            {
              "internalType": "uint256",
              "name": "amount",
              "type": "uint256"
            },
            {
              "internalType": "bytes",
              "name": "signature",
              "type": "bytes"
            },
            {
              "internalType": "bytes",
              "name": "publicKey",
              "type": "bytes"
            },
            {
              "internalType": "address",
              "name": "prerotatedKeyHash",
              "type": "address"
            },
            {
              "internalType": "address",
              "name": "twicePrerotatedKeyHash",
              "type": "address"
            },
            {
              "internalType": "address",
              "name": "prevPublicKeyHash",
              "type": "address"
            },
            {
              "internalType": "address",
              "name": "outputAddress",
              "type": "address"
            },
            {
              "internalType": "bool",
              "name": "hasRelationship",
              "type": "bool"
            },
            {
              "internalType": "address",
              "name": "tokenSource",
              "type": "address"
            },
            {
              "components": [
                {
                  "internalType": "address",
                  "name": "token",
                  "type": "address"
                },
                {
                  "internalType": "uint256",
                  "name": "amount",
                  "type": "uint256"
                },
                {
                  "internalType": "uint256",
                  "name": "deadline",
                  "type": "uint256"
                },
                {
                  "internalType": "uint8",
                  "name": "v",
                  "type": "uint8"
                },
                {
                  "internalType": "bytes32",
                  "name": "r",
                  "type": "bytes32"
                },
                {
                  "internalType": "bytes32",
                  "name": "s",
                  "type": "bytes32"
                },
                {
                  "internalType": "address",
                  "name": "recipient",
                  "type": "address"
                }
              ],
              "internalType": "struct Bridge.PermitData[]",
              "name": "permits",
              "type": "tuple[]"
            }
          ],
          "internalType": "struct Bridge.Params",
          "name": "confirming",
          "type": "tuple"
        }
      ],
      "name": "registerKeyPairWithTransfer",
      "outputs": [],
      "stateMutability": "payable",
      "type": "function"
    },
    {
      "inputs": [
        {
          "internalType": "bytes",
          "name": "publicKey",
          "type": "bytes"
        },
        {
          "internalType": "address",
          "name": "publicKeyHash",
          "type": "address"
        },
        {
          "internalType": "address",
          "name": "prerotatedKeyHash",
          "type": "address"
        },
        {
          "internalType": "address",
          "name": "twicePrerotatedKeyHash",
          "type": "address"
        },
        {
          "internalType": "address",
          "name": "prevPublicKeyHash",
          "type": "address"
        },
        {
          "internalType": "address",
          "name": "outputAddress",
          "type": "address"
        },
        {
          "internalType": "bool",
          "name": "hasRelationship",
          "type": "bool"
        },
        {
          "components": [
            {
              "internalType": "address",
              "name": "token",
              "type": "address"
            },
            {
              "internalType": "uint256",
              "name": "amount",
              "type": "uint256"
            },
            {
              "internalType": "uint256",
              "name": "deadline",
              "type": "uint256"
            },
            {
              "internalType": "uint8",
              "name": "v",
              "type": "uint8"
            },
            {
              "internalType": "bytes32",
              "name": "r",
              "type": "bytes32"
            },
            {
              "internalType": "bytes32",
              "name": "s",
              "type": "bytes32"
            },
            {
              "internalType": "address",
              "name": "recipient",
              "type": "address"
            }
          ],
          "internalType": "struct Bridge.PermitData[]",
          "name": "permits",
          "type": "tuple[]"
        }
      ],
      "name": "registerKeyWithTransfer",
      "outputs": [],
      "stateMutability": "payable",
      "type": "function"
    },
    {
      "inputs": [],
      "name": "relayer",
      "outputs": [
        {
          "internalType": "address",
          "name": "",
          "type": "address"
        }
      ],
      "stateMutability": "view",
      "type": "function"
    },
    {
      "inputs": [],
      "name": "renounceOwnership",
      "outputs": [],
      "stateMutability": "nonpayable",
      "type": "function"
    },
    {
      "inputs": [
        {
          "internalType": "address",
          "name": "_feeCollector",
          "type": "address"
        }
      ],
      "name": "setFeeCollector",
      "outputs": [],
      "stateMutability": "nonpayable",
      "type": "function"
    },
    {
      "inputs": [
        {
          "internalType": "uint256",
          "name": "_feePercentage",
          "type": "uint256"
        }
      ],
      "name": "setFeePercentage",
      "outputs": [],
      "stateMutability": "nonpayable",
      "type": "function"
    },
    {
      "inputs": [
        {
          "internalType": "address",
          "name": "_relayer",
          "type": "address"
        }
      ],
      "name": "setRelayer",
      "outputs": [],
      "stateMutability": "nonpayable",
      "type": "function"
    },
    {
      "inputs": [
        {
          "internalType": "address",
          "name": "token",
          "type": "address"
        },
        {
          "internalType": "address",
          "name": "priceFeed",
          "type": "address"
        }
      ],
      "name": "setTokenPriceFeed",
      "outputs": [],
      "stateMutability": "nonpayable",
      "type": "function"
    },
    {
      "inputs": [
        {
          "internalType": "uint256",
          "name": "",
          "type": "uint256"
        }
      ],
      "name": "supportedOriginalTokens",
      "outputs": [
        {
          "internalType": "address",
          "name": "",
          "type": "address"
        }
      ],
      "stateMutability": "view",
      "type": "function"
    },
    {
      "inputs": [
        {
          "internalType": "address",
          "name": "",
          "type": "address"
        }
      ],
      "name": "tokenPairs",
      "outputs": [
        {
          "internalType": "address",
          "name": "originalToken",
          "type": "address"
        },
        {
          "internalType": "address",
          "name": "wrappedToken",
          "type": "address"
        },
        {
          "internalType": "bool",
          "name": "isCrossChain",
          "type": "bool"
        }
      ],
      "stateMutability": "view",
      "type": "function"
    },
    {
      "inputs": [
        {
          "internalType": "address",
          "name": "",
          "type": "address"
        }
      ],
      "name": "tokenPriceFeeds",
      "outputs": [
        {
          "internalType": "contract AggregatorV3Interface",
          "name": "",
          "type": "address"
        }
      ],
      "stateMutability": "view",
      "type": "function"
    },
    {
      "inputs": [
        {
          "internalType": "address",
          "name": "newOwner",
          "type": "address"
        }
      ],
      "name": "transferOwnership",
      "outputs": [],
      "stateMutability": "nonpayable",
      "type": "function"
    },
    {
      "inputs": [
        {
          "internalType": "address",
          "name": "wrappedToken",
          "type": "address"
        },
        {
          "components": [
            {
              "internalType": "uint256",
              "name": "amount",
              "type": "uint256"
            },
            {
              "internalType": "bytes",
              "name": "signature",
              "type": "bytes"
            },
            {
              "internalType": "bytes",
              "name": "publicKey",
              "type": "bytes"
            },
            {
              "internalType": "address",
              "name": "prerotatedKeyHash",
              "type": "address"
            },
            {
              "internalType": "address",
              "name": "twicePrerotatedKeyHash",
              "type": "address"
            },
            {
              "internalType": "address",
              "name": "prevPublicKeyHash",
              "type": "address"
            },
            {
              "internalType": "address",
              "name": "outputAddress",
              "type": "address"
            },
            {
              "internalType": "bool",
              "name": "hasRelationship",
              "type": "bool"
            },
            {
              "internalType": "address",
              "name": "tokenSource",
              "type": "address"
            },
            {
              "components": [
                {
                  "internalType": "address",
                  "name": "token",
                  "type": "address"
                },
                {
                  "internalType": "uint256",
                  "name": "amount",
                  "type": "uint256"
                },
                {
                  "internalType": "uint256",
                  "name": "deadline",
                  "type": "uint256"
                },
                {
                  "internalType": "uint8",
                  "name": "v",
                  "type": "uint8"
                },
                {
                  "internalType": "bytes32",
                  "name": "r",
                  "type": "bytes32"
                },
                {
                  "internalType": "bytes32",
                  "name": "s",
                  "type": "bytes32"
                },
                {
                  "internalType": "address",
                  "name": "recipient",
                  "type": "address"
                }
              ],
              "internalType": "struct Bridge.PermitData[]",
              "name": "permits",
              "type": "tuple[]"
            }
          ],
          "internalType": "struct Bridge.Params",
          "name": "unconfirmed",
          "type": "tuple"
        },
        {
          "components": [
            {
              "internalType": "uint256",
              "name": "amount",
              "type": "uint256"
            },
            {
              "internalType": "bytes",
              "name": "signature",
              "type": "bytes"
            },
            {
              "internalType": "bytes",
              "name": "publicKey",
              "type": "bytes"
            },
            {
              "internalType": "address",
              "name": "prerotatedKeyHash",
              "type": "address"
            },
            {
              "internalType": "address",
              "name": "twicePrerotatedKeyHash",
              "type": "address"
            },
            {
              "internalType": "address",
              "name": "prevPublicKeyHash",
              "type": "address"
            },
            {
              "internalType": "address",
              "name": "outputAddress",
              "type": "address"
            },
            {
              "internalType": "bool",
              "name": "hasRelationship",
              "type": "bool"
            },
            {
              "internalType": "address",
              "name": "tokenSource",
              "type": "address"
            },
            {
              "components": [
                {
                  "internalType": "address",
                  "name": "token",
                  "type": "address"
                },
                {
                  "internalType": "uint256",
                  "name": "amount",
                  "type": "uint256"
                },
                {
                  "internalType": "uint256",
                  "name": "deadline",
                  "type": "uint256"
                },
                {
                  "internalType": "uint8",
                  "name": "v",
                  "type": "uint8"
                },
                {
                  "internalType": "bytes32",
                  "name": "r",
                  "type": "bytes32"
                },
                {
                  "internalType": "bytes32",
                  "name": "s",
                  "type": "bytes32"
                },
                {
                  "internalType": "address",
                  "name": "recipient",
                  "type": "address"
                }
              ],
              "internalType": "struct Bridge.PermitData[]",
              "name": "permits",
              "type": "tuple[]"
            }
          ],
          "internalType": "struct Bridge.Params",
          "name": "confirming",
          "type": "tuple"
        }
      ],
      "name": "unwrapPairWithTransfer",
      "outputs": [],
      "stateMutability": "payable",
      "type": "function"
    },
    {
      "inputs": [
        {
          "internalType": "address",
          "name": "newImplementation",
          "type": "address"
        },
        {
          "internalType": "bytes",
          "name": "data",
          "type": "bytes"
        }
      ],
      "name": "upgradeToAndCall",
      "outputs": [],
      "stateMutability": "payable",
      "type": "function"
    },
    {
      "inputs": [
        {
          "internalType": "address",
          "name": "originalToken",
          "type": "address"
        },
        {
          "components": [
            {
              "internalType": "uint256",
              "name": "amount",
              "type": "uint256"
            },
            {
              "internalType": "bytes",
              "name": "signature",
              "type": "bytes"
            },
            {
              "internalType": "bytes",
              "name": "publicKey",
              "type": "bytes"
            },
            {
              "internalType": "address",
              "name": "prerotatedKeyHash",
              "type": "address"
            },
            {
              "internalType": "address",
              "name": "twicePrerotatedKeyHash",
              "type": "address"
            },
            {
              "internalType": "address",
              "name": "prevPublicKeyHash",
              "type": "address"
            },
            {
              "internalType": "address",
              "name": "outputAddress",
              "type": "address"
            },
            {
              "internalType": "bool",
              "name": "hasRelationship",
              "type": "bool"
            },
            {
              "internalType": "address",
              "name": "tokenSource",
              "type": "address"
            },
            {
              "components": [
                {
                  "internalType": "address",
                  "name": "token",
                  "type": "address"
                },
                {
                  "internalType": "uint256",
                  "name": "amount",
                  "type": "uint256"
                },
                {
                  "internalType": "uint256",
                  "name": "deadline",
                  "type": "uint256"
                },
                {
                  "internalType": "uint8",
                  "name": "v",
                  "type": "uint8"
                },
                {
                  "internalType": "bytes32",
                  "name": "r",
                  "type": "bytes32"
                },
                {
                  "internalType": "bytes32",
                  "name": "s",
                  "type": "bytes32"
                },
                {
                  "internalType": "address",
                  "name": "recipient",
                  "type": "address"
                }
              ],
              "internalType": "struct Bridge.PermitData[]",
              "name": "permits",
              "type": "tuple[]"
            }
          ],
          "internalType": "struct Bridge.Params",
          "name": "unconfirmed",
          "type": "tuple"
        },
        {
          "components": [
            {
              "internalType": "uint256",
              "name": "amount",
              "type": "uint256"
            },
            {
              "internalType": "bytes",
              "name": "signature",
              "type": "bytes"
            },
            {
              "internalType": "bytes",
              "name": "publicKey",
              "type": "bytes"
            },
            {
              "internalType": "address",
              "name": "prerotatedKeyHash",
              "type": "address"
            },
            {
              "internalType": "address",
              "name": "twicePrerotatedKeyHash",
              "type": "address"
            },
            {
              "internalType": "address",
              "name": "prevPublicKeyHash",
              "type": "address"
            },
            {
              "internalType": "address",
              "name": "outputAddress",
              "type": "address"
            },
            {
              "internalType": "bool",
              "name": "hasRelationship",
              "type": "bool"
            },
            {
              "internalType": "address",
              "name": "tokenSource",
              "type": "address"
            },
            {
              "components": [
                {
                  "internalType": "address",
                  "name": "token",
                  "type": "address"
                },
                {
                  "internalType": "uint256",
                  "name": "amount",
                  "type": "uint256"
                },
                {
                  "internalType": "uint256",
                  "name": "deadline",
                  "type": "uint256"
                },
                {
                  "internalType": "uint8",
                  "name": "v",
                  "type": "uint8"
                },
                {
                  "internalType": "bytes32",
                  "name": "r",
                  "type": "bytes32"
                },
                {
                  "internalType": "bytes32",
                  "name": "s",
                  "type": "bytes32"
                },
                {
                  "internalType": "address",
                  "name": "recipient",
                  "type": "address"
                }
              ],
              "internalType": "struct Bridge.PermitData[]",
              "name": "permits",
              "type": "tuple[]"
            }
          ],
          "internalType": "struct Bridge.Params",
          "name": "confirming",
          "type": "tuple"
        }
      ],
      "name": "wrapPairWithTransfer",
      "outputs": [],
      "stateMutability": "payable",
      "type": "function"
    }
  ],
  "bytecode": "0x60a0806040523461002a5730608052615bf69081610030823960805181818161222801526122d70152f35b600080fdfe60808060405260043610156200001457600080fd5b600090813560e01c908163081da8c1146200303157508063276c1ac01462002fe3578063334976c71462002eab5780633d186d6e146200250757806347bbbdf514620024a85780634f1ef286146200229357806352d1902d146200221357806360fc437a1462001fd95780636548e9bc1462001f93578063674417ae1462001f31578063684913a214620019fe578063715018a6146200198e5780637ecebe0014620019515780638406c07914620019265780638d6429b014620010ed5780638da5cb5b14620010b4578063a001ecdd1462001094578063a42dce801462001034578063ad3cb1cc1462000fd3578063ae06c1b71462000f90578063b5057a7b1462000f67578063bd9c47e31462000f27578063c415b95c1462000efc578063c4d66de81462000d58578063d3c7c2c71462000c8a578063d73792a91462000c6b578063d8397fd51462000c22578063f2fde38b1462000bc3578063f9baf7bf1462000b9d5763fcc93938146200018a57600080fd5b60031960603682011262000b99576001600160401b036004351162000b995736602360043501121562000b99576001600160401b03600435600401351162000b99573660246004356004013560051b60043501011162000b99576001600160401b036024351162000b9957610120908181602435360301126200053d576001600160401b03604435116200053d576044353603011262000b96576200022e620036c7565b6200023862003702565b600435600401351562000b845733815260056020526040812054620002c6620002bf6200026a60446024350162003330565b6040516200029f816200029087602083019560043560040135602460043501886200359a565b03601f1981018352826200311b565b519020620002b36004602435018062003345565b92903393369162003159565b9062003734565b1562000b7257620002dc60446024350162003330565b60018201821162000745576200036791620002906200031c620002bf9360405192839160016020840196019060043560040135602460043501886200359a565b519020620003306004604435018062003345565b92906200035e620003586200035060246044350160443560040162003345565b369162003159565b620032bb565b93369162003159565b1562000b60576200037d60a46024350162003330565b50620003a16200039961010460243501602435600401620033c1565b369162003485565b50620003f3620003ec620003ba60a46024350162003330565b620003d161010460243501602435600401620033c1565b9290620003e360c46044350162003330565b93369162003485565b9062003c2f565b805b6006548110156200059f576200040b816200326d565b90546001600160a01b039160031b1c81166200042c60243560440162003330565b6040516370a0823160e01b815292166004830152602082602481845afa9182156200059457849262000555575b50816200046c575b5050600101620003f5565b620004cf916020916200048460446024350162003330565b866200049560c46044350162003330565b6040516323b872dd60e01b81526001600160a01b039384166004820152921660248301526044820193909352938492839182906064820190565b03925af19081156200054a57839162000504575b5015620004f257388062000461565b6040516312171d8360e31b8152600490fd5b90506020813d60201162000541575b8162000522602093836200311b565b810103126200053d576200053690620033b3565b38620004e3565b8280fd5b3d915062000513565b6040513d85823e3d90fd5b9091506020813d6020116200058b575b8162000574602093836200311b565b81010312620005865751903862000459565b600080fd5b3d915062000565565b6040513d86823e3d90fd5b50805b600435600401358110620007ba57620006b082620005ca602480350160243560040162003345565b620005dd60646024959395350162003330565b93620005ee60846024350162003330565b620005fe60a46024350162003330565b956200060f60c46024350162003330565b916200062060e460243501620034f4565b6200063660246044350160443560040162003345565b9190946064604435019a6200064b8c62003330565b946200065c60846044350162003330565b96620006a96200067160a46044350162003330565b99620006a06200068660c46044350162003330565b9c6200069760e460443501620034f4565b9e369162003159565b97369162003159565b9562003e07565b6001600160a01b0380620006c48462003330565b1662000759575b503381526005602052604081209182546002810180911162000745578293553462000708575b50600160008051602062005ba18339815191525580f35b8180809262000718349162003330565b5af16200072462003510565b501562000733578082620006f1565b604051630db2c7f160e31b8152600490fd5b634e487b7160e01b83526011600452602483fd5b620007648362003330565b906200076f620036c7565b8116908115620007a857620007a1916001600160601b0360a01b60025416176002556200079b620036c7565b62003ee4565b82620006cb565b60405163d92e233d60e01b8152600490fd5b60248160051b6004350101359060e2196004353603018212156200053d5760c0918260231982600435013603011262000b46576040519283818101106001600160401b03828601111762000b4a5783016040526200081f6024826004350101620030d6565b83526001600160401b036044826004350101351162000b46576200085136600435830160448101350160240162003195565b60208401526001600160401b036064826004350101351162000b4657620008cc9060c4906200088e36600435830160648101350160240162003195565b6040860152620008a56084826004350101620031b6565b6060860152620008bc60a4826004350101620030d6565b60808601526004350101620030d6565b60a083015281516001600160a01b039081168452600460205260408420600101541662000b345760808201516001600160a01b0316801562000a7d575b82516060840151604051600195939290911515906001600160a01b03166200093183620030eb565b825260a086811b87900384811660208086019182526040808701958652885184168c526004909152808b20955186549084166001600160a01b0319909116178655905194890180549451151590931b60ff60a01b9081169583166001600160a81b031995861617959095179092558551606087015192519215159493928992909116620009be82620030eb565b81526020810195828060a01b038116875260408201958652828060a01b03168a52600460205260408a2090828060a01b039051166001600160601b0360a01b8254161781550193878060a01b039051169184549351151560a01b1692161717905562000a32838060a01b03825116620032eb565b828060a01b0360a082015116908162000a4f575b505001620005a2565b838060a01b039051168452600760205260408420906001600160601b0360a01b825416179055388062000a46565b506020820151604083015160018060a01b03855416906040519283611a2c8101106001600160401b03611a2c8601111762000b205783929162000ad962000af092611a2c6200415587396080611a2c870181815201906200322b565b90611a2c850182036020611a2c870101526200322b565b90306040611a2c850101526060611a2c84010152039084f09182156200054a57916001600160a01b031662000909565b634e487b7160e01b87526041600452602487fd5b604051636bb9e87d60e01b8152600490fd5b8380fd5b634e487b7160e01b600052604160045260246000fd5b604051633bc0bb3d60e21b8152600490fd5b604051637a9e3e8360e01b8152600490fd5b604051630554f0a760e41b8152600490fd5b80fd5b5080fd5b503462000b96578060031936011262000b96576020604051683635c9adc5dea000008152f35b503462000b9657602036600319011262000b965762000be1620030a8565b62000beb620036c7565b6001600160a01b038116908115620007a85762000c1f916001600160601b0360a01b60025416176002556200079b620036c7565b80f35b503462000b9657602036600319011262000b96576004359060065482101562000b9657602062000c52836200326d565b905460405160039290921b1c6001600160a01b03168152f35b503462000b96578060031936011262000b965760206040516127108152f35b503462000b96578060031936011262000b965760405180916006549081835260208093018092600683527ff652222313e28459528d920b65115c16c04f3efc82aaedc97be59f3f377c0d3f90835b81811062000d3a575050508462000cf19103856200311b565b60405193838594850191818652518092526040850193925b82811062000d1957505050500390f35b83516001600160a01b03168552869550938101939281019260010162000d09565b82546001600160a01b03168452928601926001928301920162000cd8565b503462000b9657602036600319011262000b965762000d76620030a8565b7ff0c57e16840df040f15088dc2f81fe391c3923bec73e23a9662efc9c229c6a009081549060ff8260401c1615916001600160401b0381168015908162000ef3575b600114908162000ee8575b15908162000ede575b5062000ecc5767ffffffffffffffff19811660011784558262000eac575b5062000df562003f5a565b62000dff62003f5a565b62000e0a3362003ee4565b62000e1462003f5a565b62000e1e62003f5a565b62000e2862003f5a565b600160008051602062005ba1833981519152556001600160601b0360a01b9060018060a01b03168185541617845533906002541617600255600160035562000e6e575080f35b68ff00000000000000001981541690557fc7f505b2f371ae2175ee4913f4499e1f2633a7b5936321eed1cdaeb6115181d2602060405160018152a180f35b68ffffffffffffffffff1916680100000000000000011783553862000dea565b60405163f92ee8a960e01b8152600490fd5b9050153862000dcc565b303b15915062000dc3565b84915062000db8565b503462000b96578060031936011262000b96576002546040516001600160a01b039091168152602090f35b503462000b9657602036600319011262000b96576020906001600160a01b03906040908262000f55620030a8565b16815260078452205416604051908152f35b503462000b96578060031936011262000b9657546040516001600160a01b039091168152602090f35b503462000b9657602036600319011262000b965760043562000fb1620036c7565b612710811162000fc15760035580f35b60405163cd4e616760e01b8152600490fd5b503462000b96578060031936011262000b965760405160408101908082106001600160401b0383111762000b4a57620010309160405260058152640352e302e360dc1b60208201526040519182916020835260208301906200322b565b0390f35b503462000b9657602036600319011262000b965762001052620030a8565b6200105c620036c7565b6001600160a01b0316801562001082576001600160601b0360a01b600254161760025580f35b60405163bb0bac9960e01b8152600490fd5b503462000b96578060031936011262000b96576020600354604051908152f35b503462000b96578060031936011262000b965760008051602062005b81833981519152546040516001600160a01b039091168152602090f35b50620010f936620031c4565b91906200110562003702565b6001600160a01b038216845260046020526040808520905194906200112a86620030eb565b80546001600160a01b0390811680885260019290920154908116602088015260a01c60ff161515604087019081529015620019145751151580620018f0575b80620018da575b620018c857338152600560205260408120549062001202620002bf6200119960c0860162003330565b604080516001600160a01b03808a166020830190815289359383019390935290921660608301526080820186905290620011d78160a0810162000290565b519020620011e9602087018762003345565b92906200035e620003586200035060408b018b62003345565b1562000b72576200121660c0860162003330565b600183018311620018b457604080516001600160a01b038088166020830190815289359383019390935290921660608301526001840160808301526200129691620002bf91906200126b8160a0810162000290565b5190206200127d602089018962003345565b92906200035e620003586200035060408d018d62003345565b1562000b6057620012e694620012cd6101208501620012c6620012be620003998389620033c1565b883362003ada565b85620033c1565b9690620012dd6060840162003330565b97369162003485565b9360005b85518110156200150b5762001300818762003ac5565b5160006001600160a01b03891680151590620014f4575b620014cb575b60208201519182151580620014bc575b80620014a8575b62001346575b505050600101620012ea565b60018060a01b03815116604082015160ff6060840151169460808401519060a085015191843b15620005865760009460e49386926040519a8b97889663d505accf60e01b885233600489015230602489015260448801526064870152608486015260a485015260c48401525af191821562001482576200141b9360209362001496575b50156200148e5761dead905b8051908301516040516323b872dd60e01b81523360048201526001600160a01b039384166024820152604481019190915293849290911690829060009082906064820190565b03925af1908115620014825760009162001440575b5015620004f2573880806200133a565b906020823d60201162001479575b816200145d602093836200311b565b8101031262000b9657506200147290620033b3565b3862001430565b3d91506200144e565b6040513d6000823e3d90fd5b8a90620013d5565b620014a19062003107565b38620013c9565b5080516001600160a01b0316151562001334565b5060408101514211156200132d565b81516001600160a01b0390811682526004602052604082205416156200131d575060016200131d565b5081516001600160a01b038a811691161462001317565b50876200151c604083018362003345565b846200152b6060860162003330565b926200153a6080870162003330565b6200154860a0880162003330565b906200155760c0890162003330565b956200156660e08a01620034f4565b62001575604087018762003345565b989094620015866060890162003330565b946200159560808a0162003330565b96620015a460a08b0162003330565b98620015b360c08c0162003330565b9a60e001620015c290620034f4565b9b3690620015d09262003159565b9b3690620015de9262003159565b94620015ea9b62003e07565b60008051602062005b81833981519152546001600160a01b031633148062001894575b62001842575b600285018095116200182e5783943385526005602052604085205562001644823560018060a01b03835116620037e5565b91828082351160001462001824576200165e913562003502565b915b8062001763575b5081620016a1575b5050346200168e5750600160008051602062005ba18339815191525580f35b8180809262000718606034920162003330565b51919250620016fc91602091906001600160a01b0316620016c56060860162003330565b60405163a9059cbb60e01b81526001600160a01b039091166004820152602481019290925290928391908290879082906044820190565b03925af19081156200054a57839162001721575b5015620004f257819083806200166f565b90506020813d6020116200175a575b816200173f602093836200311b565b810103126200053d576200175390620033b3565b8362001710565b3d915062001730565b815160025460405163a9059cbb60e01b81526001600160a01b03918216600482015260248101939093529295509091602091839160449183918a91165af190811562001819578591620017d3575b5015620017c15783928562001667565b604051634033e4e360e01b8152600490fd5b90506020813d60201162001810575b81620017f1602093836200311b565b810103126200180c576200180590620033b3565b85620017b1565b8480fd5b3d9150620017e2565b6040513d87823e3d90fd5b5050839162001660565b634e487b7160e01b84526011600452602484fd5b620018506060840162003330565b6200185a620036c7565b6001600160a01b038116908115620007a8576200188e916001600160601b0360a01b60025416176002556200079b620036c7565b62001613565b506001600160a01b03620018ab6060850162003330565b1615156200160d565b634e487b7160e01b82526011600452602482fd5b60405163167c9f4d60e11b8152600490fd5b506001546001600160a01b031633141562001170565b5060008051602062005b81833981519152546001600160a01b031633141562001169565b604051637879bad160e01b8152600490fd5b503462000b96578060031936011262000b96576001546040516001600160a01b039091168152602090f35b503462000b9657602036600319011262000b96576020906040906001600160a01b036200197d620030a8565b168152600583522054604051908152f35b503462000b96578060031936011262000b9657620019ab620036c7565b60008051602062005b8183398151915280546001600160a01b031981169091556000906001600160a01b03167f8be0079c531659141344cd1fd0a4f28419497f9722a3daafe3b4186f6b6457e08280a380f35b5060031960403682011262000b9957600435906001600160401b039283831162000b965782600401610140808486360301126200053d5760249360243596871162000b4657863603011262000b995762001a5762003702565b61012484019262001a6d620003998584620033c1565b508295835b62001a7e8685620033c1565b905081101562001bc75762001a948685620033c1565b82101562001bb45762001aae90369060e0840201620033f9565b6020810190815115158062001b92575b62001acf575b505060010162001a72565b80519299926001600160a01b039190821662001b585762001af28351856200337a565b341062001b405760c0018181511615620007a8578780809381935116855190617530f162001b1f62003510565b5015620007335760019162001b369151906200337a565b975b903862001ac4565b60405163073c639b60e41b8152600481018990528690fd5b6001939a925062001b8560c09162001b8c9362001b768c8b620033c1565b94909201511692369162003485565b3362003c2f565b62001b38565b5080516001600160a01b0316158062001abe5750604081015142111562001abe565b634e487b7160e01b865260326004528386fd5b508387928785835b60065481101562001d3e5762001be5816200326d565b90546040516370a0823160e01b8152336004820152602092909160039190911b1c6001600160a01b031682828881845afa91821562001d3357889262001cfe575b508162001c3a575b50505060010162001bcf565b62001c8c91839162001c4f60c48c0162003330565b6040516323b872dd60e01b81523360048201526001600160a01b0390911660248201526044810192909252909283919082908b9082906064820190565b03925af191821562001cf357879262001cb1575b505015620004f25787808062001c2e565b90809250813d831162001ceb575b62001ccb81836200311b565b8101031262001ce75762001cdf90620033b3565b888062001ca0565b8580fd5b503d62001cbf565b6040513d89823e3d90fd5b9091508281813d831162001d2b575b62001d1981836200311b565b81010312620005865751908a62001c26565b503d62001d0d565b6040513d8a823e3d90fd5b848387848a80341162001ed4575b5060008051602062005b81833981519152546001600160a01b0390811633148062001ebb575b62001e6f575b506044830162001d889162003345565b919062001d986064850162003330565b62001da66084860162003330565b62001db460a4870162003330565b9162001dc360c4880162003330565b9660e40162001dd290620034f4565b62001de4604487016004880162003345565b98909462001df56064890162003330565b9462001e0460848a0162003330565b9662001e1360a48b0162003330565b9862001e2260c48c0162003330565b9a60e40162001e3190620034f4565b9b369062001e3f9262003159565b9b369062001e4d9262003159565b9462001e599b62003e07565b600160008051602062005ba18339815191525580f35b62001e7d6064840162003330565b9062001e88620036c7565b8116908115620007a85762001eb4916001600160601b0360a01b60025416176002556200079b620036c7565b8462001d78565b508062001ecb6064850162003330565b16151562001d72565b62001ee0903462003502565b801562001d4c5760c483016001600160a01b0362001efe8262003330565b1615620007a8578580809362001f15829462003330565b617530f162001f2362003510565b501562000733578462001d4c565b503462000b9657604036600319011262000b965762001f4f620030a8565b62001f59620030bf565b9062001f64620036c7565b6001600160a01b03908116835260076020526040832080546001600160a01b0319169290911691909117905580f35b503462000b9657602036600319011262000b965762001fb1620030a8565b62001fbb620036c7565b60018060a01b03166001600160601b0360a01b600154161760015580f35b5061010036600319011262000b96576001600160401b036004358181116200053d576200200b90369060040162003195565b62002015620030bf565b6001600160a01b03604435818116938482036200058657606435838116809103620005865760843591848316809303620005865760a4359585871696878103620005865760c4359586151580970362000586578b9a60e4358181116200220f57366023820112156200220f5780600401359182116200220f5760248101906024369160e085020101116200220f5762001b858491620020ce93620020b862003702565b620020c536828462003485565b50369162003485565b338860008051602062005b818339815191525416148062002205575b620021c7575b5034620021a3575b508589541694853b156200219f578997620021359589956040519b8c9a8b998a9863151cdb2f60e11b8a5260e060048b015260e48a01906200322b565b9616602488015260448701526064860152608485015260a484015260c483015203925af1801562002194576200217c5750600160008051602062005ba18339815191525580f35b620021879062003107565b62000b96578038620006f1565b6040513d84823e3d90fd5b8980fd5b98808080939b34905af1620021b762003510565b50156200073357889738620020f8565b9950620021d3620036c7565b8815620007a857620021fe8b9a8a6001600160601b0360a01b60025416176002556200079b620036c7565b38620020f0565b50891515620020ea565b8c80fd5b503462000b96578060031936011262000b96577f00000000000000000000000000000000000000000000000000000000000000006001600160a01b03163003620022815760206040517f360894a13ba1a3210667c828492db98dca3e2076cc3735a920a3ca505d382bbc8152f35b60405163703e46dd60e11b8152600490fd5b50604036600319011262000b9657620022ab620030a8565b6024356001600160401b0381116200053d57620022cd90369060040162003195565b6001600160a01b037f0000000000000000000000000000000000000000000000000000000000000000811630811490811562002479575b50620022815762002314620036c7565b8216916040516352d1902d60e01b8152602081600481875afa8591816200243f575b506200235557604051634c9c8ce360e01b815260048101859052602490fd5b9284937f360894a13ba1a3210667c828492db98dca3e2076cc3735a920a3ca505d382bbc90818103620024275750823b156200240e5780546001600160a01b0319168217905560405184917fbc7cd75a20ee27fd9adebab32041f755214dbc6bffa90cc0225b39da2e5c2d3b8380a2835115620023f1575080836020620023ed95519101845af4620023e662003510565b91620040ec565b5080f35b9250505034620023ff575080f35b63b398979f60e01b8152600490fd5b604051634c9c8ce360e01b815260048101839052602490fd5b60249060405190632a87526960e21b82526004820152fd5b9091506020813d60201162002470575b816200245e602093836200311b565b8101031262001ce75751903862002336565b3d91506200244f565b9050817f360894a13ba1a3210667c828492db98dca3e2076cc3735a920a3ca505d382bbc541614153862002304565b503462000b9657602036600319011262000b96576060906001600160a01b039060ff9060409083620024d9620030a8565b16815260046020522091600181845416930154906040519384528116602084015260a01c1615156040820152f35b506200251336620031c4565b92916200251f62003702565b6001600160a01b038116835260046020526040808420905192906001906200254785620030eb565b805460a083811b8490039190911686529101546001600160a01b03811660208601819052911c60ff1615156040850152156200191457604083015115158062002e87575b8062002e71575b620018c85733845260056020526040842054946200260b620002bf620025bb60c0850162003330565b604080516001600160a01b03808916602083019081528835938301939093529092166060830152608082018a905290620025f98160a0810162000290565b519020620002b3602086018662003345565b1562000b72576200261f60c0820162003330565b60018701871162002c7c57604080516001600160a01b038087166020830190815285359383019390935290921660608301526001880160808301526200269f91620002bf9190620026748160a0810162000290565b51902062002686602085018562003345565b92906200035e6200035862000350604089018962003345565b1562000b605784546001600160a01b0316610120620026c160c0850162003330565b6040516324b9c44160e21b81526001600160a01b03909116600482015291829060249082905afa801562002e66578691879162002d52575b5062002d14575b506200270f813583356200337a565b936200271c8585620037e5565b80951062002d025762000399946200277f6200277162002769610100870162002763620027498262003330565b8a6200275c6101208c019d8e8d620033c1565b9162003ada565b62003330565b9786620033c1565b620020c56060870162003330565b94875b86518110156200294a5762002798818862003ac5565b516020810151801515806200293b575b8062002927575b620027c0575b505060010162002782565b815160408301516060840151608085015160a08601519294936001600160a01b0316929160ff16833b1562002923578f94938f929360e4948793604051998a98899763d505accf60e01b895260018060a01b0316600489015230602489015260448801526064870152608486015260a485015260c48401525af18015620029185791602091620028969362002906575b508051908201516040516323b872dd60e01b81526001600160a01b038d8116600483015230602483015260448201929092529384929091169082908e9082906064820190565b03925af1908115620028fb578a91620028b9575b5015620004f2573880620027b5565b90506020813d602011620028f2575b81620028d7602093836200311b565b810103126200219f57620028eb90620033b3565b38620028aa565b3d9150620028c8565b6040513d8c823e3d90fd5b620029119062003107565b3862002850565b6040513d8d823e3d90fd5b8f80fd5b5081516001600160a01b03161515620027af565b506040820151421115620027a8565b50879495508886856040820162002962908362003345565b9190620029726060850162003330565b620029806080860162003330565b6200298e60a0870162003330565b916200299d60c0880162003330565b9660e001620029ac90620034f4565b620029bb604087018762003345565b989094620029cc6060890162003330565b94620029db60808a0162003330565b96620029ea60a08b0162003330565b98620029f960c08c0162003330565b9a60e00162002a0890620034f4565b9b369062002a169262003159565b9b369062002a249262003159565b9462002a309b62003e07565b60008051602062005b81833981519152546001600160a01b031633148062002ce2575b62002c90575b6002810180911162002c7c573386526005602052604086205581908115158062002c6f575b62002bd7575b5050843562002b5d575b83809550508083351160001462002b545762002aac90833562003502565b905b8162002ad3575050346200168e5750600160008051602062005ba18339815191525580f35b602001516001600160a01b03169062002aef6060840162003330565b90823b156200180c576040516340c10f1960e01b81526001600160a01b0392909216600483015260248201529083908290604490829084905af19081156200054a578391156200166f5762002b449062003107565b62002b515781846200166f565b50fd5b50829062002aae565b60208201516001600160a01b031662002b7960c0870162003330565b95813b1562001ce7576040516340c10f1960e01b81526001600160a01b0397909716600488015235602487015284908690604490829084905af1801562000594571562002a8e5792909362002bce9062003107565b91839062002a8e565b60025460405163a9059cbb60e01b81526001600160a01b0391821660048201526024810193909352602091839160449183918a91165af19081156200181957859162002c2d575b5015620017c157808662002a84565b90506020813d60201162002c66575b8162002c4b602093836200311b565b810103126200180c5762002c5f90620033b3565b8662002c1e565b3d915062002c3c565b5060408401511562002a7e565b634e487b7160e01b86526011600452602486fd5b62002c9e6060860162003330565b62002ca8620036c7565b6001600160a01b038116908115620007a85762002cdc916001600160601b0360a01b60025416176002556200079b620036c7565b62002a59565b506001600160a01b0362002cf96060870162003330565b16151562002a53565b604051631fbaba3560e01b8152600490fd5b602001516001600160a01b039081169062002d3260c0850162003330565b160362002d40573862002700565b604051631a7ec90d60e01b8152600490fd5b915050806101203d6101201162002e5e575b62002d7081836200311b565b810103610120811262002e5a576101001362001ce75760405190816101008101106001600160401b036101008401111762000b2057610100820160405262002db8816200339e565b825262002dc8602082016200339e565b602083015262002ddb604082016200339e565b604083015262002dee606082016200339e565b606083015262002e01608082016200339e565b608083015262002e1460a08201620033b3565b60a083015262002e2760c08201620033b3565b60c083015260e0810151600381101562002e565760e083015262002e4f9061010001620033b3565b38620026f9565b8780fd5b8680fd5b503d62002d64565b6040513d88823e3d90fd5b506001546001600160a01b031633141562002592565b5060008051602062005b81833981519152546001600160a01b03163314156200258b565b503462000b9657606036600319011262000b965762002ec9620030a8565b62002ed3620030bf565b9060443580151580910362000b465762002eec620036c7565b6001600160a01b038281168086526004602052604086206001015490929190811662000b345762000c1f94869160016040519562002f2a87620030eb565b80875282602088019416968785528383816040808501998b8b52868152600460205220935116926001600160601b0360a01b93848254161781550195511694805496511515966affffffffffffffffffffff60a81b968760ff60a01b809a60a01b169216171790556040519162002fa183620030eb565b82526020820197808952604083019788528b5260046020528360408c2092511690825416178155019451169184549351151560a01b16921617179055620032eb565b503462000b9657602036600319011262000b9657600435906001600160401b03821162000b965760206200301f62000358366004860162003195565b6040516001600160a01b039091168152f35b823462000b9657602036600319011262000b96576001600160a01b0390600190604090836200305f620030a8565b1681526004602052206200307384620030eb565b82815416845201549181831690604060ff602083019584875260a01c1615159101521562001914576020915116604051908152f35b600435906001600160a01b03821682036200058657565b602435906001600160a01b03821682036200058657565b35906001600160a01b03821682036200058657565b606081019081106001600160401b0382111762000b4a57604052565b6001600160401b03811162000b4a57604052565b90601f801991011681019081106001600160401b0382111762000b4a57604052565b6001600160401b03811162000b4a57601f01601f191660200190565b92919262003167826200313d565b916200317760405193846200311b565b82948184528183011162000586578281602093846000960137010152565b9080601f830112156200058657816020620031b39335910162003159565b90565b359081151582036200058657565b6003199160608284011262000586576004356001600160a01b03811681036200058657926024356001600160401b03918282116200058657610140918282828803011262000586576004019460443593841162000586578390030112620005865760040190565b919082519283825260005b84811062003258575050826000602080949584010152601f8019910116010190565b60208183018101518483018201520162003236565b600654811015620032a55760066000527ff652222313e28459528d920b65115c16c04f3efc82aaedc97be59f3f377c0d3f0190600090565b634e487b7160e01b600052603260045260246000fd5b6040815103620032d95780516020909101206001600160a01b031690565b60405163145a1fdd60e31b8152600490fd5b6006546801000000000000000081101562000b4a578060016200331292016006556200326d565b60018060a09493941b038084549260031b9316831b921b1916179055565b356001600160a01b0381168103620005865790565b903590601e19813603018212156200058657018035906001600160401b03821162000586576020019181360383136200058657565b919082018092116200338857565b634e487b7160e01b600052601160045260246000fd5b51906001600160a01b03821682036200058657565b519081151582036200058657565b903590601e19813603018212156200058657018035906001600160401b03821162000586576020019160e08202360383136200058657565b91908260e0910312620005865760405160e081018181106001600160401b0382111762000b4a5760405280926200343081620030d6565b8252602081013560208301526040810135604083015260608101359060ff82168203620005865760c06200348091819360608601526080810135608086015260a081013560a086015201620030d6565b910152565b9291926001600160401b03821162000b4a57602060405194620034af60208560051b01876200311b565b602086858152019060e08095028401938185116200058657915b848310620034d957505050505050565b838691620034e88486620033f9565b815201920191620034c9565b358015158103620005865790565b919082039182116200338857565b3d1562003540573d9062003524826200313d565b916200353460405193846200311b565b82523d6000602084013e565b606090565b9035601e1982360301811215620005865701602081359101916001600160401b038211620005865781360383136200058657565b908060209392818452848401376000828201840152601f01601f1916010190565b91909493929460609082606085016060865252608092608085019360808260051b8701019483946000946000955b858710620035ee575050505050505050906040919460018060a01b031660208201520152565b9091929394959697607f198a8203018552883560be19843603018112156200053d576001916200365c9160c0916001600160a01b03918701826200363282620030d6565b1682526200367a60209586956200364c8785018562003545565b9091808988015286019162003579565b60406200366c8185018562003545565b918684039087015262003579565b92620036888a8301620031b6565b15158a840152806200369c8d8401620030d6565b168c840152620036b060a0809301620030d6565b169101529a019501970195949396929190620035c8565b60008051602062005b81833981519152546001600160a01b03163303620036ea57565b60405163118cdaa760e01b8152336004820152602490fd5b60008051602062005ba18339815191526002815414620037225760029055565b604051633ee5aeb560e01b8152600490fd5b6200377b929162003771917f19457468657265756d205369676e6564204d6573736167653a0a333200000000600052601c52603c60002062003f9c565b9093919362003fdb565b6001600160a01b0391821691161490565b818102929181159184041417156200338857565b519069ffffffffffffffffffff821682036200058657565b9081602091031262000586575160ff81168103620005865790565b60ff16604d81116200338857600a0a90565b90620037f861271091600354906200378c565b0460018060a01b0380921660009080825260049060209082825260409060ff6001838720015460a01c16158062003ab2575b62003839575050505050905090565b8394966007845260a081848a205416845197888092633fabe5a360e21b82525afa95861562003aa857889662003a50575b508786131562003a4057818852600784528288205416928251938185878163313ce56760e01b948582525afa94851562003a3657899562003a10575b5081908685518095819382525afa92831562003a0757508792620039d3575b505060ff683635c9adc5dea0000091166012810362003927575b50620038ef620038f692620037d3565b906200378c565b908215620039145750049150818111156200390f575090565b905090565b634e487b7160e01b855260129052602484fd5b60128111156200398f576011190160ff81116200397c576200394990620037d3565b80820291820403620039695790620038ef620038f6925b919250620038df565b634e487b7160e01b865260118352602486fd5b634e487b7160e01b875260118452602487fd5b60120360ff81116200397c57620039a690620037d3565b908115620039c057620038f69291620038ef910462003960565b634e487b7160e01b875260128452602487fd5b620039f79250803d10620039ff575b620039ee81836200311b565b810190620037b8565b3880620038c5565b503d620039e2565b513d89823e3d90fd5b8291955062003a2e90823d8411620039ff57620039ee81836200311b565b9490620038a6565b84513d8b823e3d90fd5b82516352cc3f7d60e01b81528590fd5b90955060a0813d60a01162003a9f575b8162003a6f60a093836200311b565b8101031262002e565762003a8381620037a0565b5062003a966080858301519201620037a0565b5094386200386a565b3d915062003a60565b83513d8a823e3d90fd5b506007835286828620541615156200382a565b8051821015620032a55760209160051b010190565b6001600160a01b0391821692906000908462003bb15750506000915b8262003b03575b50505050565b600094919293949160005b845181101562003b8457868362003b26838862003ac5565b515116148062003b69575b62003b40575b60010162003b0e565b9262003b60600191602062003b56878962003ac5565b510151906200337a565b93905062003b37565b50604062003b78828762003ac5565b51015142111562003b31565b5094939250501062003b995780808062003afd565b6024906040519063073c639b60e41b82526004820152fd5b6040516370a0823160e01b81529084166004820152602081602481885afa91821562003c2357809262003be8575b50509162003af6565b9091506020823d60201162003c1a575b8162003c07602093836200311b565b8101031262000b96575051388062003bdf565b3d915062003bf8565b604051903d90823e3d90fd5b919060005b815181101562003afd5762003c4a818362003ac5565b5160208082018051928315158062003df8575b8062003de4575b62003c77575b5050505060010162003c34565b60018060a01b039081815116946040958683015160ff606085015116608085015160a086015192843b1562000586576000948f9294899560e49588948f519a8b998a9863d505accf60e01b8a5216600489015230602489015260448801526064870152608486015260a485015260c48401525af1801562003dd957918594929162003d4996949262003dc7575b5051915186516323b872dd60e01b81526001600160a01b03808d1660048301528b16602482015260448101919091529485929190911690829060009082906064820190565b03925af190811562003dbc5760009162003d80575b5090501562003d705780808062003c6a565b516312171d8360e31b8152600490fd5b82813d831162003db4575b62003d9781836200311b565b8101031262000b96575062003dac90620033b3565b803862003d5e565b503d62003d8b565b83513d6000823e3d90fd5b62003dd29062003107565b3862003d04565b86513d6000823e3d90fd5b5080516001600160a01b0316151562003c64565b50604081015142111562003c5d565b97929a95999498939096919862003e2960018060a01b03600054169b620032bb565b918b3b156200058657604051632e91b77d60e01b815261018060048201529c8d9b8c9b62003e5d906101848e01906200322b565b6001600160a01b039b8c1660248e0152908b1660448d0152908a1660648c015290891660848b015290151560a48a015290871660c489015290861660e48801529085166101048701529084166101248601529216610144840152151561016483015203815a6000948591f18015620014825762003ed75750565b62003ee29062003107565b565b6001600160a01b0390811690811562003f415760008051602062005b8183398151915280546001600160a01b031981168417909155167f8be0079c531659141344cd1fd0a4f28419497f9722a3daafe3b4186f6b6457e0600080a3565b604051631e4fbdf760e01b815260006004820152602490fd5b60ff7ff0c57e16840df040f15088dc2f81fe391c3923bec73e23a9662efc9c229c6a005460401c161562003f8a57565b604051631afcd79f60e31b8152600490fd5b815191906041830362003fd05762003fc992506020820151906060604084015193015160001a9062004065565b9192909190565b505060009160029190565b60048110156200404f578062003fef575050565b600181036200400a5760405163f645eedf60e01b8152600490fd5b600281036200402c5760405163fce698f760e01b815260048101839052602490fd5b600314620040375750565b602490604051906335e2f38360e21b82526004820152fd5b634e487b7160e01b600052602160045260246000fd5b91907f7fffffffffffffffffffffffffffffff5d576e7357a4501ddfe92f46681b20a08411620040e057926020929160ff608095604051948552168484015260408301526060820152600092839182805260015afa1562003c235780516001600160a01b03811615620040d757918190565b50809160019190565b50505060009160039190565b906200411557508051156200410357805190602001fd5b60405163d6bda27560e01b8152600490fd5b815115806200414a575b62004128575090565b604051639996b31560e01b81526001600160a01b039091166004820152602490fd5b50803b156200411f56fe610160604081815234620004775762001a2c80380380916200002282866200047c565b8439820191608081840312620004775780516001600160401b03929083811162000477578462000054918401620004c5565b916020948582015190858211620004775762000072918301620004c5565b946200008e60606200008685850162000520565b930162000520565b90835190848201828110888211176200037657855260019485835281830195603160f81b87528751898111620003765760038054918383811c931680156200046c575b868410146200045657601f928381116200040b575b50808684821160011462000398576000916200038c575b5060001982841b1c191690841b1781555b8b51918b8311620003765760049c8d548581811c911680156200036b575b8882101462000356578e8382116200030b575b50508d87928511600114620002a0575093839491849260009562000294575b50501b92600019911b1c19161789555b620001798762000535565b956101209687526200018b84620006da565b97610140988952838151910120938460e0525190209861010099808b524660a0528251938401947f8b73c3c69bb8fe3d512ecc4cf759cc79239f7b179b0ffacaa9a75d522b39400f86528385015260608401524660808401523060a084015260a0835260c0830198838a10908a11176200027f57508790525190206080523060c052600880546001600160a01b039384166001600160a01b031991821617909155600980549290931691161790556111fa938462000832853960805184610c88015260a05184610d54015260c05184610c52015260e05184610cd701525183610cfd0152518261051a015251816105440152f35b604190634e487b7160e01b6000525260246000fd5b0151935038806200015e565b929190601f1985169360005284886000209460005b8a89838310620002f35750505010620002d8575b50505050811b0189556200016e565b01519060f884600019921b161c1916905538808080620002c9565b868601518955909701969485019488935001620002b5565b600052876000208380870160051c8201928a88106200034c575b0160051c019086905b8281106200033f5750508e6200013f565b600081550186906200032e565b9250819262000325565b60228f634e487b7160e01b6000525260246000fd5b90607f16906200012c565b634e487b7160e01b600052604160045260246000fd5b90508b015138620000fd565b8592508c90601f1983168560005289600020928a6000915b838310620003e9575050508311620003d0575b5050811b0181556200010e565b8d015160001983861b60f8161c191690553880620003c3565b948482949597989293960151815501940192019087949392918f8b90620003b0565b82600052866000208480840160051c8201928985106200044c575b0160051c019085905b8281106200043f575050620000e6565b600081550185906200042f565b9250819262000426565b634e487b7160e01b600052602260045260246000fd5b92607f1692620000d1565b600080fd5b601f909101601f19168101906001600160401b038211908210176200037657604052565b60005b838110620004b45750506000910152565b8181015183820152602001620004a3565b81601f82011215620004775780516001600160401b038111620003765760405192620004fc601f8301601f1916602001856200047c565b8184526020828401011162000477576200051d9160208085019101620004a0565b90565b51906001600160a01b03821682036200047757565b80516020919082811015620005b5575090601f8251116200057357808251920151908083106200056457501790565b82600019910360031b1b161790565b604490620005a79260405193849263305a27a960e01b845280600485015282519283918260248701528686019101620004a0565b601f01601f19168101030190fd5b6001600160401b03811162000376576005928354926001938481811c91168015620006cf575b838210146200045657601f811162000698575b5081601f84116001146200062e575092829391839260009462000622575b50501b916000199060031b1c191617905560ff90565b0151925038806200060c565b919083601f1981168760005284600020946000905b888383106200067d575050501062000663575b505050811b01905560ff90565b015160001960f88460031b161c1916905538808062000656565b85870151885590960195948501948793509081019062000643565b8560005284601f846000209201871c820191601f8601881c015b828110620006c2575050620005ee565b60008155018590620006b2565b90607f1690620005db565b805160209081811015620007075750601f8251116200057357808251920151908083106200056457501790565b906001600160401b0382116200037657600654926001938481811c9116801562000826575b838210146200045657601f8111620007ec575b5081601f841160011462000780575092829391839260009462000774575b50501b916000199060031b1c19161760065560ff90565b0151925038806200075d565b919083601f198116600660005284600020946000905b88838310620007d15750505010620007b7575b505050811b0160065560ff90565b015160001960f88460031b161c19169055388080620007a9565b85870151885590960195948501948793509081019062000796565b600660005284601f84600020920160051c820191601f860160051c015b828110620008195750506200073f565b6000815501859062000809565b90607f16906200072c56fe608060408181526004918236101561001657600080fd5b600092833560e01c91826306fdde03146108d757508163095ea7b3146108ad57816318160ddd1461088e57816323b872dd14610789578163313ce5671461076d5781633644e5151461074957816340c10f191461069157816370a082311461065a5781637ecebe001461062257816384b0196e1461050257816395d89b411461040e5781639dc29fac14610329578163a9059cbb146102e4578163b5057a7b146102bb578163d505accf1461015357508063dd62ed3e1461010b5763e78cea92146100e057600080fd5b3461010757816003193601126101075760085490516001600160a01b039091168152602090f35b5080fd5b5034610107578060031936011261010757806020926101286109ef565b610130610a0a565b6001600160a01b0391821683526001865283832091168252845220549051908152f35b839150346101075760e03660031901126101075761016f6109ef565b610177610a0a565b906044359260643560843560ff811681036102b7578142116102a05760018060a01b0390818516928389526007602052898920908154916001830190558a519060208201927f6e71edae12b1b97f4d1f60370fef10105fa2faae0126114a169c64845d6126c98452868d840152858a1660608401528a608084015260a083015260c082015260c0815260e0810181811067ffffffffffffffff82111761028d578b5251902061025b916102529161022c610c4f565b908c519161190160f01b83526002830152602282015260c43591604260a43592206110af565b9092919261113f565b16818103610272578661026f878787610d7a565b80f35b87516325c0072360e11b815292830152602482015260449150fd5b634e487b7160e01b8b526041875260248bfd5b875163313c898160e11b8152808401839052602490fd5b8680fd5b50503461010757816003193601126101075760095490516001600160a01b039091168152602090f35b5050346101075780600319360112610107576102fe6109ef565b916103098333610acf565b15610326575061031f6020926024359033610e0d565b5160018152f35b80fd5b839150346101075782600319360112610107576103446109ef565b6008549091602435916001600160a01b03908116330361040a5783169283156103f3578385528460205285852054918383106103bf5750508184957fddf252ad1be2c89b69c2b068fc378daa952ba7f163c4a11628f55a4df523b3ef936020938688528785520381872055816002540360025551908152a380f35b865163391434e360e21b81526001600160a01b03909216908201908152602081018390526040810184905281906060010390fd5b8551634b637e8f60e11b8152808301869052602490fd5b8480fd5b919050346104fe57826003193601126104fe57805183819490845461043281610a20565b91828552602096600192886001821691826000146104d4575050600114610479575b858861047589610466848a0385610a8c565b519282849384528301906109af565b0390f35b815286935091907f8a35acfbc15ff81a39ae7d344fd709f28e8600b4aa8c65c6b64bfe7fe36bd19b5b8284106104bc575050508201018161046661047538610454565b8054848a0186015288955087949093019281016104a2565b60ff19168882015294151560051b8701909401945085935061046692506104759150389050610454565b8280fd5b919050346104fe57826003193601126104fe5761053e7f0000000000000000000000000000000000000000000000000000000000000000610eeb565b926105687f0000000000000000000000000000000000000000000000000000000000000000610fef565b90825192602092602085019585871067ffffffffffffffff88111761060f57509260206105c58388966105b8998b9996528686528151998a99600f60f81b8b5260e0868c015260e08b01906109af565b91898303908a01526109af565b924660608801523060808801528460a088015286840360c088015251928381520193925b8281106105f857505050500390f35b8351855286955093810193928101926001016105e9565b634e487b7160e01b845260419052602483fd5b5050346101075760203660031901126101075760209181906001600160a01b0361064a6109ef565b1681526007845220549051908152f35b5050346101075760203660031901126101075760209181906001600160a01b036106826109ef565b16815280845220549051908152f35b919050346104fe57806003193601126104fe576106ac6109ef565b60085460243592916001600160a01b0391821633036107455716928315610730576002549083820180921161071d575084927fddf252ad1be2c89b69c2b068fc378daa952ba7f163c4a11628f55a4df523b3ef9260209260025585855284835280852082815401905551908152a380f35b634e487b7160e01b865260119052602485fd5b84602492519163ec442f0560e01b8352820152fd5b8580fd5b505034610107578160031936011261010757602090610766610c4f565b9051908152f35b5050346101075781600319360112610107576020905160128152f35b90508234610326576060366003190112610326576107a56109ef565b6107ad610a0a565b91604435936107bc8484610acf565b15610107576001600160a01b038316808352600160209081528784203385529052868320549160001983106107fa575b60208861031f898989610e0d565b86831061086257811561084b5733156108345750825260016020908152868320338452815291869020908590039055829061031f876107ec565b8751634a1406b160e11b8152908101849052602490fd5b875163e602df0560e01b8152908101849052602490fd5b8751637dc7a0d960e11b8152339181019182526020820193909352604081018790528291506060010390fd5b5050346101075781600319360112610107576020906002549051908152f35b50503461010757806003193601126101075760209061031f6108cd6109ef565b6024359033610d7a565b84843461010757816003193601126101075782826003546108f781610a20565b908184526020956001918760018216918260001461098857505060011461092c575b5050506104759291610466910385610a8c565b9190869350600383527fc2575a0e9e593c00f959f8c92f12db2869c3395a3b0502d05e2516446f71f85b5b8284106109705750505082010181610466610475610919565b8054848a018601528895508794909301928101610957565b60ff19168782015293151560051b8601909301935084925061046691506104759050610919565b919082519283825260005b8481106109db575050826000602080949584010152601f8019910116010190565b6020818301810151848301820152016109ba565b600435906001600160a01b0382168203610a0557565b600080fd5b602435906001600160a01b0382168203610a0557565b90600182811c92168015610a50575b6020831014610a3a57565b634e487b7160e01b600052602260045260246000fd5b91607f1691610a2f565b6040810190811067ffffffffffffffff821117610a7657604052565b634e487b7160e01b600052604160045260246000fd5b90601f8019910116810190811067ffffffffffffffff821117610a7657604052565b51906001600160a01b0382168203610a0557565b51908115158203610a0557565b600954604080516324b9c44160e21b81526001600160a01b0393841660048201819052939290916101209182908490602490829088165afa918215610c44576000938493610b4b575b505050610b285750505050600090565b602001518116918214928315610b3f575b50505090565b16149050388080610b39565b818193959294503d8511610c3d575b610b648183610a8c565b810103928312610326576101008093126103265783519383850185811067ffffffffffffffff821117610c29578152610b9c83610aae565b8552610baa60208401610aae565b6020860152610bba818401610aae565b90850152610bca60608301610aae565b6060850152610bdb60808301610aae565b6080850152610bec60a08301610ac2565b60a0850152610bfd60c08301610ac2565b60c085015260e0820151906003821015610326575060e0840152610c219101610ac2565b388080610b18565b634e487b7160e01b83526041600452602483fd5b503d610b5a565b50513d6000823e3d90fd5b307f00000000000000000000000000000000000000000000000000000000000000006001600160a01b03161480610d51575b15610caa577f000000000000000000000000000000000000000000000000000000000000000090565b60405160208101907f8b73c3c69bb8fe3d512ecc4cf759cc79239f7b179b0ffacaa9a75d522b39400f82527f000000000000000000000000000000000000000000000000000000000000000060408201527f000000000000000000000000000000000000000000000000000000000000000060608201524660808201523060a082015260a0815260c0810181811067ffffffffffffffff821117610a765760405251902090565b507f00000000000000000000000000000000000000000000000000000000000000004614610c81565b6001600160a01b03908116918215610df45716918215610ddb5760207f8c5be1e5ebec7d5bd14f71427d1e84f3dd0314c0f7b2291e5b200ac8c7c3b925918360005260018252604060002085600052825280604060002055604051908152a3565b604051634a1406b160e11b815260006004820152602490fd5b60405163e602df0560e01b815260006004820152602490fd5b916001600160a01b03808416928315610ed25716928315610eb95760009083825281602052604082205490838210610e87575091604082827fddf252ad1be2c89b69c2b068fc378daa952ba7f163c4a11628f55a4df523b3ef958760209652828652038282205586815220818154019055604051908152a3565b60405163391434e360e21b81526001600160a01b03919091166004820152602481019190915260448101839052606490fd5b60405163ec442f0560e01b815260006004820152602490fd5b604051634b637e8f60e11b815260006004820152602490fd5b60ff8114610f295760ff811690601f8211610f175760405191610f0d83610a5a565b8252602082015290565b604051632cd44ac360e21b8152600490fd5b50604051600554816000610f3c83610a20565b80835292602090600190818116908115610fcb5750600114610f6a575b5050610f6792500382610a8c565b90565b91509260056000527f036b6384b5eca791c62761152d0c79bb0604c104a5fb6f4eb0703f3154bb3db0936000925b828410610fb35750610f679450505081016020013880610f59565b85548785018301529485019486945092810192610f98565b91505060209250610f6794915060ff191682840152151560051b8201013880610f59565b60ff81146110115760ff811690601f8211610f175760405191610f0d83610a5a565b5060405160065481600061102483610a20565b80835292602090600190818116908115610fcb575060011461104e575050610f6792500382610a8c565b91509260066000527ff652222313e28459528d920b65115c16c04f3efc82aaedc97be59f3f377c0d3f936000925b8284106110975750610f679450505081016020013880610f59565b8554878501830152948501948694509281019261107c565b91907f7fffffffffffffffffffffffffffffff5d576e7357a4501ddfe92f46681b20a0841161113357926020929160ff608095604051948552168484015260408301526060820152600092839182805260015afa156111275780516001600160a01b0381161561111e57918190565b50809160019190565b604051903d90823e3d90fd5b50505060009160039190565b60048110156111ae5780611151575050565b6001810361116b5760405163f645eedf60e01b8152600490fd5b6002810361118c5760405163fce698f760e01b815260048101839052602490fd5b6003146111965750565b602490604051906335e2f38360e21b82526004820152fd5b634e487b7160e01b600052602160045260246000fdfea2646970667358221220b795fa50e5767d9775d1eea6283ccacf9cd51f086091d71f972f86533319c81264736f6c634300081800339016d09d72d40fdae2fd8ceac6b6234c7706214fd39c1cd1e609a0528c1993009b779b17422d0df92223018b32b4d1fa46e071723d6817e2486d003becc55f00a2646970667358221220d4d0d410a6e4720cbde5e45c542a5d1302a04e20fb14bb8252700a8ad430382064736f6c63430008180033",
  "linkReferences": {},
  "deployedLinkReferences": {}
}