{
  "_format": "hh-sol-artifact-1",
  "contractName": "Bridge",
  "sourceName": "contracts/Bridge.sol",
  "abi": [
    {
      "inputs": [
        {
          "internalType": "address",
          "name": "target",
          "type": "address"
        }
      ],
      "name": "AddressEmptyCode",
      "type": "error"
    },
    {
      "inputs": [],
      "name": "AmountTooLow",
      "type": "error"
    },
    {
      "inputs": [],
      "name": "BurnAmountZero",
      "type": "error"
    },
    {
      "inputs": [],
      "name": "ECDSAInvalidSignature",
      "type": "error"
    },
    {
      "inputs": [
        {
          "internalType": "uint256",
          "name": "length",
          "type": "uint256"
        }
      ],
      "name": "ECDSAInvalidSignatureLength",
      "type": "error"
    },
    {
      "inputs": [
        {
          "internalType": "bytes32",
          "name": "s",
          "type": "bytes32"
        }
      ],
      "name": "ECDSAInvalidSignatureS",
      "type": "error"
    },
    {
      "inputs": [
        {
          "internalType": "address",
          "name": "implementation",
          "type": "address"
        }
      ],
      "name": "ERC1967InvalidImplementation",
      "type": "error"
    },
    {
      "inputs": [],
      "name": "ERC1967NonPayable",
      "type": "error"
    },
    {
      "inputs": [],
      "name": "EthTransferFailed",
      "type": "error"
    },
    {
      "inputs": [],
      "name": "FailedCall",
      "type": "error"
    },
    {
      "inputs": [],
      "name": "FeeTransferFailed",
      "type": "error"
    },
    {
      "inputs": [],
      "name": "InsufficientAllowance",
      "type": "error"
    },
    {
      "inputs": [
        {
          "internalType": "address",
          "name": "token",
          "type": "address"
        }
      ],
      "name": "InsufficientPermits",
      "type": "error"
    },
    {
      "inputs": [],
      "name": "InvalidFeeCollector",
      "type": "error"
    },
    {
      "inputs": [],
      "name": "InvalidFeeRate",
      "type": "error"
    },
    {
      "inputs": [],
      "name": "InvalidInitialization",
      "type": "error"
    },
    {
      "inputs": [],
      "name": "InvalidPrerotatedKeyHash",
      "type": "error"
    },
    {
      "inputs": [],
      "name": "InvalidPublicKey",
      "type": "error"
    },
    {
      "inputs": [],
      "name": "InvalidRecipientAmount",
      "type": "error"
    },
    {
      "inputs": [],
      "name": "InvalidSignature",
      "type": "error"
    },
    {
      "inputs": [],
      "name": "NoTokenPairs",
      "type": "error"
    },
    {
      "inputs": [],
      "name": "NotInitializing",
      "type": "error"
    },
    {
      "inputs": [
        {
          "internalType": "address",
          "name": "owner",
          "type": "address"
        }
      ],
      "name": "OwnableInvalidOwner",
      "type": "error"
    },
    {
      "inputs": [
        {
          "internalType": "address",
          "name": "account",
          "type": "address"
        }
      ],
      "name": "OwnableUnauthorizedAccount",
      "type": "error"
    },
    {
      "inputs": [],
      "name": "PermitDeadlineExpired",
      "type": "error"
    },
    {
      "inputs": [],
      "name": "ReentrancyGuardReentrantCall",
      "type": "error"
    },
    {
      "inputs": [],
      "name": "RestrictedToOwnerRelayer",
      "type": "error"
    },
    {
      "inputs": [
        {
          "internalType": "address",
          "name": "token",
          "type": "address"
        }
      ],
      "name": "SafeERC20FailedOperation",
      "type": "error"
    },
    {
      "inputs": [],
      "name": "TokenPairExists",
      "type": "error"
    },
    {
      "inputs": [],
      "name": "TokenPairNotSupported",
      "type": "error"
    },
    {
      "inputs": [],
      "name": "TransferFailed",
      "type": "error"
    },
    {
      "inputs": [],
      "name": "UUPSUnauthorizedCallContext",
      "type": "error"
    },
    {
      "inputs": [
        {
          "internalType": "bytes32",
          "name": "slot",
          "type": "bytes32"
        }
      ],
      "name": "UUPSUnsupportedProxiableUUID",
      "type": "error"
    },
    {
      "inputs": [],
      "name": "ZeroAddress",
      "type": "error"
    },
    {
      "anonymous": false,
      "inputs": [
        {
          "indexed": false,
          "internalType": "uint64",
          "name": "version",
          "type": "uint64"
        }
      ],
      "name": "Initialized",
      "type": "event"
    },
    {
      "anonymous": false,
      "inputs": [
        {
          "indexed": true,
          "internalType": "address",
          "name": "previousOwner",
          "type": "address"
        },
        {
          "indexed": true,
          "internalType": "address",
          "name": "newOwner",
          "type": "address"
        }
      ],
      "name": "OwnershipTransferred",
      "type": "event"
    },
    {
      "anonymous": false,
      "inputs": [
        {
          "indexed": true,
          "internalType": "address",
          "name": "implementation",
          "type": "address"
        }
      ],
      "name": "Upgraded",
      "type": "event"
    },
    {
      "inputs": [],
      "name": "UPGRADE_INTERFACE_VERSION",
      "outputs": [
        {
          "internalType": "string",
          "name": "",
          "type": "string"
        }
      ],
      "stateMutability": "view",
      "type": "function"
    },
    {
      "inputs": [
        {
          "internalType": "address",
          "name": "originalToken",
          "type": "address"
        },
        {
          "internalType": "address",
          "name": "wrappedToken",
          "type": "address"
        }
      ],
      "name": "addTokenPair",
      "outputs": [],
      "stateMutability": "nonpayable",
      "type": "function"
    },
    {
      "inputs": [
        {
          "internalType": "address",
          "name": "to",
          "type": "address"
        }
      ],
      "name": "emergencyWithdrawBNB",
      "outputs": [],
      "stateMutability": "nonpayable",
      "type": "function"
    },
    {
      "inputs": [],
      "name": "feeCollector",
      "outputs": [
        {
          "internalType": "address",
          "name": "",
          "type": "address"
        }
      ],
      "stateMutability": "view",
      "type": "function"
    },
    {
      "inputs": [],
      "name": "feeSigner",
      "outputs": [
        {
          "internalType": "address",
          "name": "",
          "type": "address"
        }
      ],
      "stateMutability": "view",
      "type": "function"
    },
    {
      "inputs": [
        {
          "internalType": "bytes",
          "name": "publicKey",
          "type": "bytes"
        }
      ],
      "name": "getAddressFromPublicKey",
      "outputs": [
        {
          "internalType": "address",
          "name": "",
          "type": "address"
        }
      ],
      "stateMutability": "pure",
      "type": "function"
    },
    {
      "inputs": [],
      "name": "getOwner",
      "outputs": [
        {
          "internalType": "address",
          "name": "",
          "type": "address"
        }
      ],
      "stateMutability": "view",
      "type": "function"
    },
    {
      "inputs": [],
      "name": "getSupportedTokens",
      "outputs": [
        {
          "internalType": "address[]",
          "name": "",
          "type": "address[]"
        }
      ],
      "stateMutability": "view",
      "type": "function"
    },
    {
      "inputs": [
        {
          "internalType": "address",
          "name": "_keyLogRegistry",
          "type": "address"
        }
      ],
      "name": "initialize",
      "outputs": [],
      "stateMutability": "nonpayable",
      "type": "function"
    },
    {
      "inputs": [],
      "name": "keyLogRegistry",
      "outputs": [
        {
          "internalType": "contract KeyLogRegistry",
          "name": "",
          "type": "address"
        }
      ],
      "stateMutability": "view",
      "type": "function"
    },
    {
      "inputs": [
        {
          "internalType": "address",
          "name": "",
          "type": "address"
        }
      ],
      "name": "nonces",
      "outputs": [
        {
          "internalType": "uint256",
          "name": "",
          "type": "uint256"
        }
      ],
      "stateMutability": "view",
      "type": "function"
    },
    {
      "inputs": [
        {
          "internalType": "address",
          "name": "originalToken",
          "type": "address"
        }
      ],
      "name": "originalToWrapped",
      "outputs": [
        {
          "internalType": "address",
          "name": "",
          "type": "address"
        }
      ],
      "stateMutability": "view",
      "type": "function"
    },
    {
      "inputs": [],
      "name": "owner",
      "outputs": [
        {
          "internalType": "address",
          "name": "",
          "type": "address"
        }
      ],
      "stateMutability": "view",
      "type": "function"
    },
    {
      "inputs": [],
      "name": "proxiableUUID",
      "outputs": [
        {
          "internalType": "bytes32",
          "name": "",
          "type": "bytes32"
        }
      ],
      "stateMutability": "view",
      "type": "function"
    },
    {
      "inputs": [
        {
          "internalType": "address",
          "name": "token",
          "type": "address"
        },
        {
          "components": [
            {
              "internalType": "address",
              "name": "token",
              "type": "address"
            },
            {
              "internalType": "uint256",
              "name": "fee",
              "type": "uint256"
            },
            {
              "internalType": "uint256",
              "name": "expires",
              "type": "uint256"
            },
            {
              "internalType": "bytes",
              "name": "signature",
              "type": "bytes"
            }
          ],
          "internalType": "struct Bridge.FeeInfo",
          "name": "fee",
          "type": "tuple"
        },
        {
          "components": [
            {
              "internalType": "address",
              "name": "originalToken",
              "type": "address"
            },
            {
              "internalType": "string",
              "name": "tokenName",
              "type": "string"
            },
            {
              "internalType": "string",
              "name": "tokenSymbol",
              "type": "string"
            },
            {
              "internalType": "address",
              "name": "wrappedToken",
              "type": "address"
            }
          ],
          "internalType": "struct Bridge.TokenPair[]",
          "name": "newTokenPairs",
          "type": "tuple[]"
        },
        {
          "components": [
            {
              "internalType": "uint256",
              "name": "amount",
              "type": "uint256"
            },
            {
              "internalType": "bytes",
              "name": "signature",
              "type": "bytes"
            },
            {
              "internalType": "bytes",
              "name": "publicKey",
              "type": "bytes"
            },
            {
              "internalType": "address",
              "name": "prerotatedKeyHash",
              "type": "address"
            },
            {
              "internalType": "address",
              "name": "twicePrerotatedKeyHash",
              "type": "address"
            },
            {
              "internalType": "address",
              "name": "prevPublicKeyHash",
              "type": "address"
            },
            {
              "internalType": "address",
              "name": "outputAddress",
              "type": "address"
            },
            {
              "components": [
                {
                  "internalType": "address",
                  "name": "token",
                  "type": "address"
                },
                {
                  "internalType": "uint256",
                  "name": "amount",
                  "type": "uint256"
                },
                {
                  "internalType": "uint256",
                  "name": "deadline",
                  "type": "uint256"
                },
                {
                  "internalType": "uint8",
                  "name": "v",
                  "type": "uint8"
                },
                {
                  "internalType": "bytes32",
                  "name": "r",
                  "type": "bytes32"
                },
                {
                  "internalType": "bytes32",
                  "name": "s",
                  "type": "bytes32"
                },
                {
                  "components": [
                    {
                      "internalType": "address",
                      "name": "recipientAddress",
                      "type": "address"
                    },
                    {
                      "internalType": "uint256",
                      "name": "amount",
                      "type": "uint256"
                    },
                    {
                      "internalType": "bool",
                      "name": "wrap",
                      "type": "bool"
                    },
                    {
                      "internalType": "bool",
                      "name": "unwrap",
                      "type": "bool"
                    },
                    {
                      "internalType": "bool",
                      "name": "mint",
                      "type": "bool"
                    }
                  ],
                  "internalType": "struct Bridge.Recipient[]",
                  "name": "recipients",
                  "type": "tuple[]"
                }
              ],
              "internalType": "struct Bridge.PermitData[]",
              "name": "permits",
              "type": "tuple[]"
            }
          ],
          "internalType": "struct Bridge.Params",
          "name": "unconfirmed",
          "type": "tuple"
        },
        {
          "components": [
            {
              "internalType": "uint256",
              "name": "amount",
              "type": "uint256"
            },
            {
              "internalType": "bytes",
              "name": "signature",
              "type": "bytes"
            },
            {
              "internalType": "bytes",
              "name": "publicKey",
              "type": "bytes"
            },
            {
              "internalType": "address",
              "name": "prerotatedKeyHash",
              "type": "address"
            },
            {
              "internalType": "address",
              "name": "twicePrerotatedKeyHash",
              "type": "address"
            },
            {
              "internalType": "address",
              "name": "prevPublicKeyHash",
              "type": "address"
            },
            {
              "internalType": "address",
              "name": "outputAddress",
              "type": "address"
            },
            {
              "components": [
                {
                  "internalType": "address",
                  "name": "token",
                  "type": "address"
                },
                {
                  "internalType": "uint256",
                  "name": "amount",
                  "type": "uint256"
                },
                {
                  "internalType": "uint256",
                  "name": "deadline",
                  "type": "uint256"
                },
                {
                  "internalType": "uint8",
                  "name": "v",
                  "type": "uint8"
                },
                {
                  "internalType": "bytes32",
                  "name": "r",
                  "type": "bytes32"
                },
                {
                  "internalType": "bytes32",
                  "name": "s",
                  "type": "bytes32"
                },
                {
                  "components": [
                    {
                      "internalType": "address",
                      "name": "recipientAddress",
                      "type": "address"
                    },
                    {
                      "internalType": "uint256",
                      "name": "amount",
                      "type": "uint256"
                    },
                    {
                      "internalType": "bool",
                      "name": "wrap",
                      "type": "bool"
                    },
                    {
                      "internalType": "bool",
                      "name": "unwrap",
                      "type": "bool"
                    },
                    {
                      "internalType": "bool",
                      "name": "mint",
                      "type": "bool"
                    }
                  ],
                  "internalType": "struct Bridge.Recipient[]",
                  "name": "recipients",
                  "type": "tuple[]"
                }
              ],
              "internalType": "struct Bridge.PermitData[]",
              "name": "permits",
              "type": "tuple[]"
            }
          ],
          "internalType": "struct Bridge.Params",
          "name": "confirming",
          "type": "tuple"
        }
      ],
      "name": "registerKeyPairWithTransfer",
      "outputs": [],
      "stateMutability": "payable",
      "type": "function"
    },
    {
      "inputs": [],
      "name": "relayer",
      "outputs": [
        {
          "internalType": "address",
          "name": "",
          "type": "address"
        }
      ],
      "stateMutability": "view",
      "type": "function"
    },
    {
      "inputs": [],
      "name": "renounceOwnership",
      "outputs": [],
      "stateMutability": "nonpayable",
      "type": "function"
    },
    {
      "inputs": [
        {
          "internalType": "address",
          "name": "_feeCollector",
          "type": "address"
        }
      ],
      "name": "setFeeCollector",
      "outputs": [],
      "stateMutability": "nonpayable",
      "type": "function"
    },
    {
      "inputs": [
        {
          "internalType": "address",
          "name": "_signer",
          "type": "address"
        }
      ],
      "name": "setFeeSigner",
      "outputs": [],
      "stateMutability": "nonpayable",
      "type": "function"
    },
    {
      "inputs": [
        {
          "internalType": "uint256",
          "name": "",
          "type": "uint256"
        }
      ],
      "name": "supportedOriginalTokens",
      "outputs": [
        {
          "internalType": "address",
          "name": "",
          "type": "address"
        }
      ],
      "stateMutability": "view",
      "type": "function"
    },
    {
      "inputs": [
        {
          "internalType": "address",
          "name": "",
          "type": "address"
        }
      ],
      "name": "tokenPairs",
      "outputs": [
        {
          "internalType": "address",
          "name": "originalToken",
          "type": "address"
        },
        {
          "internalType": "address",
          "name": "wrappedToken",
          "type": "address"
        }
      ],
      "stateMutability": "view",
      "type": "function"
    },
    {
      "inputs": [
        {
          "internalType": "address",
          "name": "newOwner",
          "type": "address"
        }
      ],
      "name": "transferOwnership",
      "outputs": [],
      "stateMutability": "nonpayable",
      "type": "function"
    },
    {
      "inputs": [
        {
          "internalType": "address",
          "name": "newImplementation",
          "type": "address"
        },
        {
          "internalType": "bytes",
          "name": "data",
          "type": "bytes"
        }
      ],
      "name": "upgradeToAndCall",
      "outputs": [],
      "stateMutability": "payable",
      "type": "function"
    }
  ],
  "bytecode": "0x60a0806040523461002a57306080526142199081610030823960805181818161089301526109420152f35b600080fdfe60c08060405260043610156200001457600080fd5b60003560e01c90816307569339146200200757508063081da8c11462001f8a57806315afe66b1462000bae578063276c1ac01462000b5b57806347bbbdf51462000b0f5780634f1ef28614620008fe57806352d1902d146200087e578063602db8901462000832578063715018a614620007c35780637e1aa17814620007745780637ecebe0014620007365780638406c079146200070b578063893d20e814620006d25780638da5cb5b14620006d2578063a42dce801462000671578063a7c87ec21462000557578063ad3cb1cc1462000507578063b5057a7b14620004dc578063c415b95c14620004b1578063c4d66de8146200030c578063d3c7c2c7146200023c578063d8397fd514620001de5763f2fde38b146200013457600080fd5b34620001d9576020366003190112620001d957620001516200202d565b6200015b620023a4565b6001600160a01b03908082168015620001c7576002549280600080516020620041a4833981519152541690841603620001b557620001b3926001600160601b0360a01b1617600255620001ad620023a4565b620023df565b005b60405163167c9f4d60e11b8152600490fd5b60405163d92e233d60e01b8152600490fd5b600080fd5b34620001d9576020366003190112620001d957600435600654811015620001d95760066000527ff652222313e28459528d920b65115c16c04f3efc82aaedc97be59f3f377c0d3f01546040516001600160a01b039091168152602090f35b34620001d9576000366003190112620001d957604051806006548083526020809301809160066000527ff652222313e28459528d920b65115c16c04f3efc82aaedc97be59f3f377c0d3f9060005b86828210620002ee578686620002a382880383620020a5565b604051928392818401908285525180915260408401929160005b828110620002cd57505050500390f35b83516001600160a01b031685528695509381019392810192600101620002bd565b83546001600160a01b0316855290930192600192830192016200028a565b34620001d9576020366003190112620001d957620003296200202d565b7ff0c57e16840df040f15088dc2f81fe391c3923bec73e23a9662efc9c229c6a009081549060ff8260401c1615916001600160401b03811680159081620004a8575b60011490816200049d575b15908162000493575b50620004815767ffffffffffffffff19811660011784558262000461575b50620003a862002522565b620003b262002522565b620003bd33620023df565b620003c762002522565b620003d162002522565b620003db62002522565b6001600080516020620041c4833981519152556001600160a01b03168015620001c7576001600160601b0360a01b90816000541617600055339060025416176002556200042457005b68ff00000000000000001981541690557fc7f505b2f371ae2175ee4913f4499e1f2633a7b5936321eed1cdaeb6115181d2602060405160018152a1005b68ffffffffffffffffff191668010000000000000001178355836200039d565b60405163f92ee8a960e01b8152600490fd5b905015856200037f565b303b15915062000376565b8491506200036b565b34620001d9576000366003190112620001d9576002546040516001600160a01b039091168152602090f35b34620001d9576000366003190112620001d9576000546040516001600160a01b039091168152602090f35b34620001d9576000366003190112620001d957620005536040516200052c8162002059565b60058152640352e302e360dc1b602082015260405191829160208352602083019062002140565b0390f35b34620001d9576040366003190112620001d957620005746200202d565b6001600160a01b039060243582811690819003620001d95762000596620023a4565b8282168015801562000668575b620001c75780600052600460205283600160406000200154166200065657620001b393600160405192620005d78462002059565b808452602084018581528160005260046020528383816040600020975116966001600160601b0360a01b9788825416178155019151168582541617905560405190620006238262002059565b815260208101948086526000526004602052826040600020915116848254161781550192511690825416179055620021da565b604051636bb9e87d60e01b8152600490fd5b508115620005a3565b34620001d9576020366003190112620001d9576200068e6200202d565b62000698620023a4565b6001600160a01b03168015620006c0576001600160601b0360a01b6002541617600255600080f35b60405163bb0bac9960e01b8152600490fd5b34620001d9576000366003190112620001d957600080516020620041a4833981519152546040516001600160a01b039091168152602090f35b34620001d9576000366003190112620001d9576001546040516001600160a01b039091168152602090f35b34620001d9576020366003190112620001d9576001600160a01b036200075b6200202d565b1660005260056020526020604060002054604051908152f35b34620001d9576020366003190112620001d957620007916200202d565b6200079b620023a4565b6001600160a01b03168015620001c7576001600160601b0360a01b6003541617600355600080f35b34620001d9576000366003190112620001d957620007e0620023a4565b600080516020620041a483398151915280546001600160a01b031981169091556000906001600160a01b03167f8be0079c531659141344cd1fd0a4f28419497f9722a3daafe3b4186f6b6457e08280a3005b34620001d9576020366003190112620001d9576200084f6200202d565b62000859620023a4565b47908115620001d957600080809381935af162000875620022d2565b5015620001d957005b34620001d9576000366003190112620001d9577f00000000000000000000000000000000000000000000000000000000000000006001600160a01b03163003620008ec5760206040517f360894a13ba1a3210667c828492db98dca3e2076cc3735a920a3ca505d382bbc8152f35b60405163703e46dd60e11b8152600490fd5b6040366003190112620001d957620009156200202d565b6024356001600160401b038111620001d957620009379036906004016200211f565b906001600160a01b037f0000000000000000000000000000000000000000000000000000000000000000811630811490811562000ae0575b50620008ec576200097f620023a4565b8116906040516352d1902d60e01b8152602081600481865afa6000918162000aa6575b50620009c157604051634c9c8ce360e01b815260048101849052602490fd5b7f360894a13ba1a3210667c828492db98dca3e2076cc3735a920a3ca505d382bbc9291929081810362000a8e5750823b1562000a755780546001600160a01b03191682179055604051907fbc7cd75a20ee27fd9adebab32041f755214dbc6bffa90cc0225b39da2e5c2d3b600080a282511562000a5b5750600080836020620001b395519101845af462000a54620022d2565b9162002720565b9150503462000a6657005b63b398979f60e01b8152600490fd5b604051634c9c8ce360e01b815260048101839052602490fd5b60249060405190632a87526960e21b82526004820152fd5b9091506020813d60201162000ad7575b8162000ac560209383620020a5565b81010312620001d957519085620009a2565b3d915062000ab6565b9050817f360894a13ba1a3210667c828492db98dca3e2076cc3735a920a3ca505d382bbc54161415846200096f565b34620001d9576020366003190112620001d95760406001600160a01b038062000b376200202d565b16600052600460205281600020906001818354169201541682519182526020820152f35b34620001d9576020366003190112620001d9576004356001600160401b038111620001d95762000b9c62000b9660209236906004016200211f565b620022b4565b6040516001600160a01b039091168152f35b60a0366003190112620001d95762000bc56200202d565b60a0526001600160401b0360243511620001d957608060243536036003190112620001d9576001600160401b0360443511620001d957366023604435011215620001d9576001600160401b036044356004013511620001d9573660246044356004013560051b604435010111620001d9576001600160401b0360643511620001d95761010060643536036003190112620001d9576001600160401b0360843511620001d95761010060843536036003190112620001d9576002600080516020620041c4833981519152541462001f78576002600080516020620041c48339815191525533600052600560205260406000205462000cc760c46064350162002182565b6040805160a0516001600160a01b0390811660208301526004606435013592820192909252911660608201526080808201839052815262000d088162002089565b80516020909101206001600160a01b0362000d2860c46064350162002182565b1615620001c757604062000d4760446064350160643560040162002197565b90500362001f665762000d9f62000da69162000d6e60246064350160643560040162002197565b929062000d9662000b9662000d8e60446064350160643560040162002197565b3691620020e3565b933691620020e3565b9062002307565b15620019da576001600160a01b0362000dc460843560c40162002182565b1662001e7d575b5060005b60443560040135811062001bdf5762000df360e4606435016064356004016200225b565b9050620011f1575b6001600160a01b0362000e1360843560c40162002182565b1662000fe0576000546001600160a01b031662000e3a606435604481019060040162002197565b62000e4c606480949394350162002182565b9162000e5d60846064350162002182565b9362000e6e60a46064350162002182565b62000e7e60c46064350162002182565b93833b15620001d95760009562000eb7958793604051998a98899788966330a6293b60e11b885260a0600489015260a488019162002293565b6001600160a01b039485166024870152908416604486015290831660648501529116608483015203925af1801562000fd45762000fc2575b50600080516020620041a4833981519152546001600160a01b031633811462000f5e575b505b33600052600560205260406000208054906002820180921162000f4857556001600080516020620041c483398151915255005b634e487b7160e01b600052601160045260246000fd5b62000f6d606480350162002182565b62000f77620023a4565b6001600160a01b0381168015620001c757600254926001600160a01b03841603620001b55762000fbb926001600160601b0360a01b1617600255620001ad620023a4565b8062000f13565b62000fcd9062002075565b8062000eef565b6040513d6000823e3d90fd5b6000546001600160a01b031662001001606435604481019060040162002197565b919062001012606480350162002182565b926200102360846064350162002182565b936200103460a46064350162002182565b6200104460c46064350162002182565b6200105a60446084350160843560040162002197565b906200106b60646084350162002182565b946200107b608480350162002182565b926200108c60a46084350162002182565b946200109d60c46084350162002182565b968b3b15620001d9576040516385687dcd60e01b815261014060048201529c8d9b8c9b620010d2916101448e01919062002293565b6001600160a01b0395861660248d015290851660448c015290841660648b0152921660848901528782036003190160a4890152620011109262002293565b6001600160a01b0394851660c487015290841660e4860152908316610104850152911661012483015203815a6000948591f1801562000fd457620011df575b50600080516020620041a4833981519152546001600160a01b03163381146200117a575b5062000f15565b6200118a60646084350162002182565b62001194620023a4565b6001600160a01b0381168015620001c757600254926001600160a01b03841603620001b557620011d8926001600160601b0360a01b1617600255620001ad620023a4565b8062001173565b620011ea9062002075565b806200114f565b6200120760e4606435016064356004016200225b565b6080526200121a60646084350162002182565b906000905b6080518210620012325750505062000dfb565b60de19813603018260051b8201351215620001d95760e08260051b8201358201360312620001d957604051908160e08101106001600160401b0360e084011117620019ec5760e08201604052620012918360051b820135820162002044565b8252600583901b810135810160208181013590840152604080820135908401526060013560ff81169003620001d957600583901b8101358101606081810135908401526080808201359084015260a0808201359084015260c001356001600160401b038111620001d95736601f828660051b850135850101011215620001d9576001600160401b03818560051b8401358401013511620019ec57604051906200134c6020828760051b8601358601013560051b0183620020a5565b600585901b830135830181018035808452602080850193923660a0909302010111620001d9576020818760051b86013586010101915b600587901b85013585018201803560a00201602001831062001b485750505060c083015281516001600160a01b031662001aa1575b60a0518251600193916001600160a01b0391821691161462001a26575b60008315620018d2575b81516001600160a01b0316156000805b60c08501518051831015620018a4578262001409916200236d565b5180516001600160a01b031615620001c757602081015180156200189857602087015110620018865760608101511515806200186c575b15620015ff57670de0b6b3a76400006200145f86602089015162002382565b8751835160208501516001600160a01b03928316969490930492911690853b15620001d957604051632770a7eb60e21b81526001600160a01b039290921660048301526024820152936000908590604490829084905af192831562000fd4578c6200157d6020936001976200159097620015ed575b50878060a01b038c511660005260048552604060002060405190620014f98262002059565b898060a01b03815416825289808060a01b0391015416868201528162001523818888015162002396565b918a8060a01b038151168015600014620015b6575050506200154e90898060a01b03865116620024a2565b6200156381898060a01b0360025416620024a2565b62001576858d01519186860151620021cc565b9062002396565b806200159a575b50505b015190620021cc565b915b0190620013ee565b620015ae91878060a01b038c5116620024c0565b8c8e62001584565b620015e793620015d0918d8060a01b038a511690620024e3565b5160025460a08c901b8c90039081169116620024e3565b62001563565b620015f89062002075565b38620014d4565b90608082015115158062001852575b15620016bd576200163d670de0b6b3a7640000620016318760208a015162002382565b04602084015162002396565b865183516001600160a01b039182169392911690833b15620001d9576040516340c10f1960e01b81526001600160a01b039290921660048301526024820152916000908390604490829084905af1801562000fd4576001936200159093602092620016ab575b505b62001587565b620016b69062002075565b8d620016a3565b62001590906020838c888a8d6040600199015115158062001837575b15620017eb5750620016fc620017629286670de0b6b3a764000093015162002382565b04878060a01b038c511660005260048552604060002081604051620017218162002059565b825460a08c901b8c9003908116808352938c015416888201528c15620017a95750620017589150898060a01b0360025416620024a2565b84840151620021cc565b838b015180911062001777575b505062001587565b82840151620017869162002396565b80156200176f57620017a191878060a01b038c5116620024c0565b8c8e6200176f565b620017cc620017e593620017c1848b8b015162002396565b903090339062002455565b5160025460a08c901b8c90039081169133911662002455565b62001758565b9250505015620015875786156200181457620016a5858060a01b038251168383015190620024a2565b620016a5858060a01b038a5116868060a01b038351168484015191339062002455565b50888060a01b0360a05116898060a01b0383511614620016d9565b5060a05186516001600160a01b039081169116146200160e565b5060a05186516001600160a01b0390811691161462001440565b60405163143d1ae760e21b8152600490fd5b50509060019062001592565b50949695505050506020015103620018c057600101906200121f565b6040516312171d8360e31b8152600490fd5b5042604460243501351062001a1457670de0b6b3a76400006024803501351162001a02576200190660243560040162002182565b6040519060018060a01b031660208201526024803501356040820152604460243501356060820152606081528060808101106001600160401b03608083011117620019ec5760808101604052602081519101207f19457468657265756d205369676e6564204d6573736167653a0a333200000000600052601c52620019b8620019ae603c600020620019a762000d8e60646024350160243560040162002197565b9062002564565b90929192620025a3565b6003546001600160a01b03908116911603620019da57602480350135620013de565b604051638baa579f60e01b8152600490fd5b634e487b7160e01b600052604160045260246000fd5b604051630adad23360e31b8152600490fd5b6040516305787bdf60e01b8152600490fd5b9391929060005b60c0860151805182101562001a95578162001a48916200236d565b51606081015115801591829162001a86575b50811562001a7d575b5062001a73575b60010162001a2d565b6000945062001a6a565b90508762001a63565b60800151151591508862001a5a565b505090929193620013d4565b6040820151421162001a14578151602083015160408401516060850151608086015160a087015160ff909216946001600160a01b03169390843b15620001d95760009460e4938692604051988997889663d505accf60e01b885233600489015230602489015260448801526064870152608486015260a485015260c48401525af1801562000fd45762001b36575b50620013b7565b62001b419062002075565b8462001b2f565b9091929360a084360312620001d957604051918260a08101106001600160401b0360a085011117620019ec57602060a091848383960160405262001b8c8862002044565b8152828801358382015262001ba4604089016200235f565b604082015262001bb7606089016200235f565b606082015262001bca608089016200235f565b60808201528152019401929150939262001382565b60248160051b6044350101359060a219604435360301821215620001d9576080604435830136036023190112620001d957604051918260808101106001600160401b03608085011117620019ec576080830160405262001c46602482604435010162002044565b83526001600160401b03604482813501013511620001d95762001c773660448035840190810135016024016200211f565b60208401526001600160401b0360648260443501013511620001d95762001cc49060849062001cb43660443583016064810135016024016200211f565b6040860152604435010162002044565b606083015281516001600160a01b0390811660009081526004602052604090206001015416620006565760608201516001600160a01b0316801562001ddc575b60019262001dd591848060a01b038251166040519062001d248262002059565b815260a086901b86900391821660208083018281528551851660009081526004909252604091829020935184549086166001600160a01b031991821617855590519389018054948616948216949094179093558451905191938892911662001d8c8262002059565b815260208101938085526000526004602052604060002090828060a01b03905116838254161781550191868060a01b0390511690825416179055838060a01b03905116620021da565b0162000dcf565b506020820151604083015160018060a01b03600054166040519283611a1b8101106001600160401b03611a1b86011117620019ec57839262001e3762001e4e92611a1b6200278987396080611a1b8701818152019062002140565b90611a1b850182036020611a1b8701015262002140565b90306040611a1b850101526060611a1b8401015203906000f0801562000fd4576001600160a01b031662001d04565b62001e8d60c46084350162002182565b9060018101811162000f48576001604051916020830193828060a01b0360a05116855260006040850152828060a01b031660608401520160808201526080815262001ed88162002089565b519020604062001ef360446084350160843560040162002197565b90500362001f66576001600160a01b0362001f1360843560c40162002182565b1615620001c75762000d9f62001f599162001f3960246084350160843560040162002197565b929062000d9662000b9662000d8e60446084350160843560040162002197565b15620019da578062000dcb565b60405163145a1fdd60e31b8152600490fd5b604051633ee5aeb560e01b8152600490fd5b34620001d9576020366003190112620001d9576001600160a01b038062001fb06200202d565b16600052600460205260406000209060208160016040519462001fd38662002059565b8281541686520154169201918083521562001ff5576020915116604051908152f35b604051637879bad160e01b8152600490fd5b34620001d9576000366003190112620001d9576003546001600160a01b03168152602090f35b600435906001600160a01b0382168203620001d957565b35906001600160a01b0382168203620001d957565b604081019081106001600160401b03821117620019ec57604052565b6001600160401b038111620019ec57604052565b60a081019081106001600160401b03821117620019ec57604052565b90601f801991011681019081106001600160401b03821117620019ec57604052565b6001600160401b038111620019ec57601f01601f191660200190565b929192620020f182620020c7565b91620021016040519384620020a5565b829481845281830111620001d9578281602093846000960137010152565b9080601f83011215620001d9578160206200213d93359101620020e3565b90565b919082519283825260005b8481106200216d575050826000602080949584010152601f8019910116010190565b6020818301810151848301820152016200214b565b356001600160a01b0381168103620001d95790565b903590601e1981360301821215620001d957018035906001600160401b038211620001d957602001918136038313620001d957565b9190820180921162000f4857565b60065468010000000000000000811015620019ec576001810180600655811015620022455760066000527ff652222313e28459528d920b65115c16c04f3efc82aaedc97be59f3f377c0d3f0180546001600160a01b0319166001600160a01b03909216919091179055565b634e487b7160e01b600052603260045260246000fd5b903590601e1981360301821215620001d957018035906001600160401b038211620001d957602001918160051b36038313620001d957565b908060209392818452848401376000828201840152601f01601f1916010190565b604081510362001f665780516020909101206001600160a01b031690565b3d1562002302573d90620022e682620020c7565b91620022f66040519384620020a5565b82523d6000602084013e565b606090565b6200234e929162002344917f19457468657265756d205369676e6564204d6573736167653a0a333200000000600052601c52603c60002062002564565b90939193620025a3565b6001600160a01b0391821691161490565b35908115158203620001d957565b8051821015620022455760209160051b010190565b8181029291811591840414171562000f4857565b9190820391821162000f4857565b600080516020620041a4833981519152546001600160a01b03163303620023c757565b60405163118cdaa760e01b8152336004820152602490fd5b6001600160a01b039081169081156200243c57600080516020620041a483398151915280546001600160a01b031981168417909155167f8be0079c531659141344cd1fd0a4f28419497f9722a3daafe3b4186f6b6457e0600080a3565b604051631e4fbdf760e01b815260006004820152602490fd5b6040516323b872dd60e01b60208201526001600160a01b039283166024820152929091166044830152606480830193909352918152620024a0916200249a8262002089565b6200262d565b565b60008080938193617530f1620024b7620022d2565b5015620018c057565b6001600160a01b0316919082620024dd57620024a09250620024a2565b620024a0925b60405163a9059cbb60e01b60208201526001600160a01b03929092166024830152604480830193909352918152620024a0916200249a606483620020a5565b60ff7ff0c57e16840df040f15088dc2f81fe391c3923bec73e23a9662efc9c229c6a005460401c16156200255257565b604051631afcd79f60e31b8152600490fd5b815191906041830362002598576200259192506020820151906060604084015193015160001a906200268d565b9192909190565b505060009160029190565b6004811015620026175780620025b7575050565b60018103620025d25760405163f645eedf60e01b8152600490fd5b60028103620025f45760405163fce698f760e01b815260048101839052602490fd5b600314620025ff5750565b602490604051906335e2f38360e21b82526004820152fd5b634e487b7160e01b600052602160045260246000fd5b906000602091828151910182855af11562000fd4576000513d6200268357506001600160a01b0381163b155b620026615750565b604051635274afe760e01b81526001600160a01b039091166004820152602490fd5b6001141562002659565b91907f7fffffffffffffffffffffffffffffff5d576e7357a4501ddfe92f46681b20a084116200271457926020929160ff608095604051948552168484015260408301526060820152600092839182805260015afa15620027085780516001600160a01b03811615620026ff57918190565b50809160019190565b604051903d90823e3d90fd5b50505060009160039190565b906200274957508051156200273757805190602001fd5b60405163d6bda27560e01b8152600490fd5b815115806200277e575b6200275c575090565b604051639996b31560e01b81526001600160a01b039091166004820152602490fd5b50803b156200275356fe610160604081815234620004775762001a1b80380380916200002282866200047c565b8439820191608081840312620004775780516001600160401b03929083811162000477578462000054918401620004c5565b916020948582015190858211620004775762000072918301620004c5565b946200008e60606200008685850162000520565b930162000520565b90835190848201828110888211176200037657855260019485835281830195603160f81b87528751898111620003765760038054918383811c931680156200046c575b868410146200045657601f928381116200040b575b50808684821160011462000398576000916200038c575b5060001982841b1c191690841b1781555b8b51918b8311620003765760049c8d548581811c911680156200036b575b8882101462000356578e8382116200030b575b50508d87928511600114620002a0575093839491849260009562000294575b50501b92600019911b1c19161789555b620001798762000535565b956101209687526200018b84620006da565b97610140988952838151910120938460e0525190209861010099808b524660a0528251938401947f8b73c3c69bb8fe3d512ecc4cf759cc79239f7b179b0ffacaa9a75d522b39400f86528385015260608401524660808401523060a084015260a0835260c0830198838a10908a11176200027f57508790525190206080523060c052600880546001600160a01b039384166001600160a01b031991821617909155600980549290931691161790556111e9938462000832853960805184610c77015260a05184610d43015260c05184610c41015260e05184610cc601525183610cec0152518261051a015251816105440152f35b604190634e487b7160e01b6000525260246000fd5b0151935038806200015e565b929190601f1985169360005284886000209460005b8a89838310620002f35750505010620002d8575b50505050811b0189556200016e565b01519060f884600019921b161c1916905538808080620002c9565b868601518955909701969485019488935001620002b5565b600052876000208380870160051c8201928a88106200034c575b0160051c019086905b8281106200033f5750508e6200013f565b600081550186906200032e565b9250819262000325565b60228f634e487b7160e01b6000525260246000fd5b90607f16906200012c565b634e487b7160e01b600052604160045260246000fd5b90508b015138620000fd565b8592508c90601f1983168560005289600020928a6000915b838310620003e9575050508311620003d0575b5050811b0181556200010e565b8d015160001983861b60f8161c191690553880620003c3565b948482949597989293960151815501940192019087949392918f8b90620003b0565b82600052866000208480840160051c8201928985106200044c575b0160051c019085905b8281106200043f575050620000e6565b600081550185906200042f565b9250819262000426565b634e487b7160e01b600052602260045260246000fd5b92607f1692620000d1565b600080fd5b601f909101601f19168101906001600160401b038211908210176200037657604052565b60005b838110620004b45750506000910152565b8181015183820152602001620004a3565b81601f82011215620004775780516001600160401b038111620003765760405192620004fc601f8301601f1916602001856200047c565b8184526020828401011162000477576200051d9160208085019101620004a0565b90565b51906001600160a01b03821682036200047757565b80516020919082811015620005b5575090601f8251116200057357808251920151908083106200056457501790565b82600019910360031b1b161790565b604490620005a79260405193849263305a27a960e01b845280600485015282519283918260248701528686019101620004a0565b601f01601f19168101030190fd5b6001600160401b03811162000376576005928354926001938481811c91168015620006cf575b838210146200045657601f811162000698575b5081601f84116001146200062e575092829391839260009462000622575b50501b916000199060031b1c191617905560ff90565b0151925038806200060c565b919083601f1981168760005284600020946000905b888383106200067d575050501062000663575b505050811b01905560ff90565b015160001960f88460031b161c1916905538808062000656565b85870151885590960195948501948793509081019062000643565b8560005284601f846000209201871c820191601f8601881c015b828110620006c2575050620005ee565b60008155018590620006b2565b90607f1690620005db565b805160209081811015620007075750601f8251116200057357808251920151908083106200056457501790565b906001600160401b0382116200037657600654926001938481811c9116801562000826575b838210146200045657601f8111620007ec575b5081601f841160011462000780575092829391839260009462000774575b50501b916000199060031b1c19161760065560ff90565b0151925038806200075d565b919083601f198116600660005284600020946000905b88838310620007d15750505010620007b7575b505050811b0160065560ff90565b015160001960f88460031b161c19169055388080620007a9565b85870151885590960195948501948793509081019062000796565b600660005284601f84600020920160051c820191601f860160051c015b828110620008195750506200073f565b6000815501859062000809565b90607f16906200072c56fe608060408181526004918236101561001657600080fd5b600092833560e01c91826306fdde03146108d757508163095ea7b3146108ad57816318160ddd1461088e57816323b872dd14610789578163313ce5671461076d5781633644e5151461074957816340c10f191461069157816370a082311461065a5781637ecebe001461062257816384b0196e1461050257816395d89b411461040e5781639dc29fac14610329578163a9059cbb146102e4578163b5057a7b146102bb578163d505accf1461015357508063dd62ed3e1461010b5763e78cea92146100e057600080fd5b3461010757816003193601126101075760085490516001600160a01b039091168152602090f35b5080fd5b5034610107578060031936011261010757806020926101286109ef565b610130610a0a565b6001600160a01b0391821683526001865283832091168252845220549051908152f35b839150346101075760e03660031901126101075761016f6109ef565b610177610a0a565b906044359260643560843560ff811681036102b7578142116102a05760018060a01b0390818516928389526007602052898920908154916001830190558a519060208201927f6e71edae12b1b97f4d1f60370fef10105fa2faae0126114a169c64845d6126c98452868d840152858a1660608401528a608084015260a083015260c082015260c0815260e0810181811067ffffffffffffffff82111761028d578b5251902061025b916102529161022c610c3e565b908c519161190160f01b83526002830152602282015260c43591604260a435922061109e565b9092919261112e565b16818103610272578661026f878787610d69565b80f35b87516325c0072360e11b815292830152602482015260449150fd5b634e487b7160e01b8b526041875260248bfd5b875163313c898160e11b8152808401839052602490fd5b8680fd5b50503461010757816003193601126101075760095490516001600160a01b039091168152602090f35b5050346101075780600319360112610107576102fe6109ef565b916103098333610acf565b15610326575061031f6020926024359033610dfc565b5160018152f35b80fd5b839150346101075782600319360112610107576103446109ef565b6008549091602435916001600160a01b03908116330361040a5783169283156103f3578385528460205285852054918383106103bf5750508184957fddf252ad1be2c89b69c2b068fc378daa952ba7f163c4a11628f55a4df523b3ef936020938688528785520381872055816002540360025551908152a380f35b865163391434e360e21b81526001600160a01b03909216908201908152602081018390526040810184905281906060010390fd5b8551634b637e8f60e11b8152808301869052602490fd5b8480fd5b919050346104fe57826003193601126104fe57805183819490845461043281610a20565b91828552602096600192886001821691826000146104d4575050600114610479575b858861047589610466848a0385610a8c565b519282849384528301906109af565b0390f35b815286935091907f8a35acfbc15ff81a39ae7d344fd709f28e8600b4aa8c65c6b64bfe7fe36bd19b5b8284106104bc575050508201018161046661047538610454565b8054848a0186015288955087949093019281016104a2565b60ff19168882015294151560051b8701909401945085935061046692506104759150389050610454565b8280fd5b919050346104fe57826003193601126104fe5761053e7f0000000000000000000000000000000000000000000000000000000000000000610eda565b926105687f0000000000000000000000000000000000000000000000000000000000000000610fde565b90825192602092602085019585871067ffffffffffffffff88111761060f57509260206105c58388966105b8998b9996528686528151998a99600f60f81b8b5260e0868c015260e08b01906109af565b91898303908a01526109af565b924660608801523060808801528460a088015286840360c088015251928381520193925b8281106105f857505050500390f35b8351855286955093810193928101926001016105e9565b634e487b7160e01b845260419052602483fd5b5050346101075760203660031901126101075760209181906001600160a01b0361064a6109ef565b1681526007845220549051908152f35b5050346101075760203660031901126101075760209181906001600160a01b036106826109ef565b16815280845220549051908152f35b919050346104fe57806003193601126104fe576106ac6109ef565b60085460243592916001600160a01b0391821633036107455716928315610730576002549083820180921161071d575084927fddf252ad1be2c89b69c2b068fc378daa952ba7f163c4a11628f55a4df523b3ef9260209260025585855284835280852082815401905551908152a380f35b634e487b7160e01b865260119052602485fd5b84602492519163ec442f0560e01b8352820152fd5b8580fd5b505034610107578160031936011261010757602090610766610c3e565b9051908152f35b5050346101075781600319360112610107576020905160128152f35b90508234610326576060366003190112610326576107a56109ef565b6107ad610a0a565b91604435936107bc8484610acf565b15610107576001600160a01b038316808352600160209081528784203385529052868320549160001983106107fa575b60208861031f898989610dfc565b86831061086257811561084b5733156108345750825260016020908152868320338452815291869020908590039055829061031f876107ec565b8751634a1406b160e11b8152908101849052602490fd5b875163e602df0560e01b8152908101849052602490fd5b8751637dc7a0d960e11b8152339181019182526020820193909352604081018790528291506060010390fd5b5050346101075781600319360112610107576020906002549051908152f35b50503461010757806003193601126101075760209061031f6108cd6109ef565b6024359033610d69565b84843461010757816003193601126101075782826003546108f781610a20565b908184526020956001918760018216918260001461098857505060011461092c575b5050506104759291610466910385610a8c565b9190869350600383527fc2575a0e9e593c00f959f8c92f12db2869c3395a3b0502d05e2516446f71f85b5b8284106109705750505082010181610466610475610919565b8054848a018601528895508794909301928101610957565b60ff19168782015293151560051b8601909301935084925061046691506104759050610919565b919082519283825260005b8481106109db575050826000602080949584010152601f8019910116010190565b6020818301810151848301820152016109ba565b600435906001600160a01b0382168203610a0557565b600080fd5b602435906001600160a01b0382168203610a0557565b90600182811c92168015610a50575b6020831014610a3a57565b634e487b7160e01b600052602260045260246000fd5b91607f1691610a2f565b6040810190811067ffffffffffffffff821117610a7657604052565b634e487b7160e01b600052604160045260246000fd5b90601f8019910116810190811067ffffffffffffffff821117610a7657604052565b51906001600160a01b0382168203610a0557565b51908115158203610a0557565b600954604080516324b9c44160e21b81526001600160a01b03938416600482018190529392610100929083908390602490829088165afa918215610c33576000938493610b4a575b505050610b275750505050600090565b602001518116918214928315610b3e575b50505090565b16149050388080610b38565b90809350819492943d8311610c2c575b610b648183610a8c565b8101039081126101075760e0136103265782519260e0840184811067ffffffffffffffff821117610c18578152610b9a83610aae565b8452610ba860208401610aae565b6020850152610bb8818401610aae565b90840152610bc860608301610aae565b6060840152610bd960808301610aae565b6080840152610bea60a08301610ac2565b60a084015260c0820151906003821015610326575060c0830152610c109060e001610ac2565b388080610b17565b634e487b7160e01b83526041600452602483fd5b503d610b5a565b50513d6000823e3d90fd5b307f00000000000000000000000000000000000000000000000000000000000000006001600160a01b03161480610d40575b15610c99577f000000000000000000000000000000000000000000000000000000000000000090565b60405160208101907f8b73c3c69bb8fe3d512ecc4cf759cc79239f7b179b0ffacaa9a75d522b39400f82527f000000000000000000000000000000000000000000000000000000000000000060408201527f000000000000000000000000000000000000000000000000000000000000000060608201524660808201523060a082015260a0815260c0810181811067ffffffffffffffff821117610a765760405251902090565b507f00000000000000000000000000000000000000000000000000000000000000004614610c70565b6001600160a01b03908116918215610de35716918215610dca5760207f8c5be1e5ebec7d5bd14f71427d1e84f3dd0314c0f7b2291e5b200ac8c7c3b925918360005260018252604060002085600052825280604060002055604051908152a3565b604051634a1406b160e11b815260006004820152602490fd5b60405163e602df0560e01b815260006004820152602490fd5b916001600160a01b03808416928315610ec15716928315610ea85760009083825281602052604082205490838210610e76575091604082827fddf252ad1be2c89b69c2b068fc378daa952ba7f163c4a11628f55a4df523b3ef958760209652828652038282205586815220818154019055604051908152a3565b60405163391434e360e21b81526001600160a01b03919091166004820152602481019190915260448101839052606490fd5b60405163ec442f0560e01b815260006004820152602490fd5b604051634b637e8f60e11b815260006004820152602490fd5b60ff8114610f185760ff811690601f8211610f065760405191610efc83610a5a565b8252602082015290565b604051632cd44ac360e21b8152600490fd5b50604051600554816000610f2b83610a20565b80835292602090600190818116908115610fba5750600114610f59575b5050610f5692500382610a8c565b90565b91509260056000527f036b6384b5eca791c62761152d0c79bb0604c104a5fb6f4eb0703f3154bb3db0936000925b828410610fa25750610f569450505081016020013880610f48565b85548785018301529485019486945092810192610f87565b91505060209250610f5694915060ff191682840152151560051b8201013880610f48565b60ff81146110005760ff811690601f8211610f065760405191610efc83610a5a565b5060405160065481600061101383610a20565b80835292602090600190818116908115610fba575060011461103d575050610f5692500382610a8c565b91509260066000527ff652222313e28459528d920b65115c16c04f3efc82aaedc97be59f3f377c0d3f936000925b8284106110865750610f569450505081016020013880610f48565b8554878501830152948501948694509281019261106b565b91907f7fffffffffffffffffffffffffffffff5d576e7357a4501ddfe92f46681b20a0841161112257926020929160ff608095604051948552168484015260408301526060820152600092839182805260015afa156111165780516001600160a01b0381161561110d57918190565b50809160019190565b604051903d90823e3d90fd5b50505060009160039190565b600481101561119d5780611140575050565b6001810361115a5760405163f645eedf60e01b8152600490fd5b6002810361117b5760405163fce698f760e01b815260048101839052602490fd5b6003146111855750565b602490604051906335e2f38360e21b82526004820152fd5b634e487b7160e01b600052602160045260246000fdfea2646970667358221220de84fa86ba9b2efb339c3ea759bd5049880212d9928f598bc2f29de44eb8a96664736f6c634300081800339016d09d72d40fdae2fd8ceac6b6234c7706214fd39c1cd1e609a0528c1993009b779b17422d0df92223018b32b4d1fa46e071723d6817e2486d003becc55f00a26469706673582212205b1d0a1af631ea4caf3a39141a6da4c1d61492fa24107454b4e9f632a378100964736f6c63430008180033",
  "linkReferences": {},
  "deployedLinkReferences": {}
}