{
  "_format": "hh-sol-artifact-1",
  "contractName": "Bridge2",
  "sourceName": "contracts/Bridge2.sol",
  "abi": [
    {
      "inputs": [
        {
          "internalType": "address",
          "name": "target",
          "type": "address"
        }
      ],
      "name": "AddressEmptyCode",
      "type": "error"
    },
    {
      "inputs": [],
      "name": "AmountTooLow",
      "type": "error"
    },
    {
      "inputs": [],
      "name": "BurnAmountZero",
      "type": "error"
    },
    {
      "inputs": [],
      "name": "ECDSAInvalidSignature",
      "type": "error"
    },
    {
      "inputs": [
        {
          "internalType": "uint256",
          "name": "length",
          "type": "uint256"
        }
      ],
      "name": "ECDSAInvalidSignatureLength",
      "type": "error"
    },
    {
      "inputs": [
        {
          "internalType": "bytes32",
          "name": "s",
          "type": "bytes32"
        }
      ],
      "name": "ECDSAInvalidSignatureS",
      "type": "error"
    },
    {
      "inputs": [
        {
          "internalType": "address",
          "name": "implementation",
          "type": "address"
        }
      ],
      "name": "ERC1967InvalidImplementation",
      "type": "error"
    },
    {
      "inputs": [],
      "name": "ERC1967NonPayable",
      "type": "error"
    },
    {
      "inputs": [],
      "name": "EthTransferFailed",
      "type": "error"
    },
    {
      "inputs": [],
      "name": "FailedCall",
      "type": "error"
    },
    {
      "inputs": [],
      "name": "FeeTransferFailed",
      "type": "error"
    },
    {
      "inputs": [],
      "name": "InsufficientAllowance",
      "type": "error"
    },
    {
      "inputs": [
        {
          "internalType": "address",
          "name": "token",
          "type": "address"
        }
      ],
      "name": "InsufficientPermits",
      "type": "error"
    },
    {
      "inputs": [],
      "name": "InvalidFeeCollector",
      "type": "error"
    },
    {
      "inputs": [],
      "name": "InvalidFeeRate",
      "type": "error"
    },
    {
      "inputs": [],
      "name": "InvalidInitialization",
      "type": "error"
    },
    {
      "inputs": [],
      "name": "InvalidPrerotatedKeyHash",
      "type": "error"
    },
    {
      "inputs": [],
      "name": "InvalidPublicKey",
      "type": "error"
    },
    {
      "inputs": [],
      "name": "InvalidRecipientAmount",
      "type": "error"
    },
    {
      "inputs": [],
      "name": "InvalidSignature",
      "type": "error"
    },
    {
      "inputs": [],
      "name": "NoTokenPairs",
      "type": "error"
    },
    {
      "inputs": [],
      "name": "NotInitializing",
      "type": "error"
    },
    {
      "inputs": [
        {
          "internalType": "address",
          "name": "owner",
          "type": "address"
        }
      ],
      "name": "OwnableInvalidOwner",
      "type": "error"
    },
    {
      "inputs": [
        {
          "internalType": "address",
          "name": "account",
          "type": "address"
        }
      ],
      "name": "OwnableUnauthorizedAccount",
      "type": "error"
    },
    {
      "inputs": [],
      "name": "PermitDeadlineExpired",
      "type": "error"
    },
    {
      "inputs": [],
      "name": "ReentrancyGuardReentrantCall",
      "type": "error"
    },
    {
      "inputs": [],
      "name": "RestrictedToOwnerRelayer",
      "type": "error"
    },
    {
      "inputs": [
        {
          "internalType": "address",
          "name": "token",
          "type": "address"
        }
      ],
      "name": "SafeERC20FailedOperation",
      "type": "error"
    },
    {
      "inputs": [],
      "name": "TokenPairExists",
      "type": "error"
    },
    {
      "inputs": [],
      "name": "TokenPairNotSupported",
      "type": "error"
    },
    {
      "inputs": [],
      "name": "TransferFailed",
      "type": "error"
    },
    {
      "inputs": [],
      "name": "UUPSUnauthorizedCallContext",
      "type": "error"
    },
    {
      "inputs": [
        {
          "internalType": "bytes32",
          "name": "slot",
          "type": "bytes32"
        }
      ],
      "name": "UUPSUnsupportedProxiableUUID",
      "type": "error"
    },
    {
      "inputs": [],
      "name": "ZeroAddress",
      "type": "error"
    },
    {
      "anonymous": false,
      "inputs": [
        {
          "indexed": false,
          "internalType": "uint64",
          "name": "version",
          "type": "uint64"
        }
      ],
      "name": "Initialized",
      "type": "event"
    },
    {
      "anonymous": false,
      "inputs": [
        {
          "indexed": true,
          "internalType": "address",
          "name": "previousOwner",
          "type": "address"
        },
        {
          "indexed": true,
          "internalType": "address",
          "name": "newOwner",
          "type": "address"
        }
      ],
      "name": "OwnershipTransferred",
      "type": "event"
    },
    {
      "anonymous": false,
      "inputs": [
        {
          "indexed": true,
          "internalType": "address",
          "name": "implementation",
          "type": "address"
        }
      ],
      "name": "Upgraded",
      "type": "event"
    },
    {
      "inputs": [],
      "name": "UPGRADE_INTERFACE_VERSION",
      "outputs": [
        {
          "internalType": "string",
          "name": "",
          "type": "string"
        }
      ],
      "stateMutability": "view",
      "type": "function"
    },
    {
      "inputs": [
        {
          "components": [
            {
              "internalType": "address",
              "name": "originalToken",
              "type": "address"
            },
            {
              "internalType": "string",
              "name": "tokenName",
              "type": "string"
            },
            {
              "internalType": "string",
              "name": "tokenSymbol",
              "type": "string"
            },
            {
              "internalType": "address",
              "name": "wrappedToken",
              "type": "address"
            }
          ],
          "internalType": "struct Bridge2.TokenPair[]",
          "name": "newTokenPairs",
          "type": "tuple[]"
        },
        {
          "components": [
            {
              "internalType": "uint256",
              "name": "amount",
              "type": "uint256"
            },
            {
              "internalType": "bytes",
              "name": "signature",
              "type": "bytes"
            },
            {
              "internalType": "bytes",
              "name": "publicKey",
              "type": "bytes"
            },
            {
              "internalType": "address",
              "name": "prerotatedKeyHash",
              "type": "address"
            },
            {
              "internalType": "address",
              "name": "twicePrerotatedKeyHash",
              "type": "address"
            },
            {
              "internalType": "address",
              "name": "prevPublicKeyHash",
              "type": "address"
            },
            {
              "internalType": "address",
              "name": "outputAddress",
              "type": "address"
            },
            {
              "internalType": "bool",
              "name": "hasRelationship",
              "type": "bool"
            },
            {
              "internalType": "address",
              "name": "tokenSource",
              "type": "address"
            },
            {
              "components": [
                {
                  "internalType": "address",
                  "name": "token",
                  "type": "address"
                },
                {
                  "internalType": "uint256",
                  "name": "amount",
                  "type": "uint256"
                },
                {
                  "internalType": "uint256",
                  "name": "deadline",
                  "type": "uint256"
                },
                {
                  "internalType": "uint8",
                  "name": "v",
                  "type": "uint8"
                },
                {
                  "internalType": "bytes32",
                  "name": "r",
                  "type": "bytes32"
                },
                {
                  "internalType": "bytes32",
                  "name": "s",
                  "type": "bytes32"
                },
                {
                  "components": [
                    {
                      "internalType": "address",
                      "name": "recipientAddress",
                      "type": "address"
                    },
                    {
                      "internalType": "uint256",
                      "name": "amount",
                      "type": "uint256"
                    },
                    {
                      "internalType": "bool",
                      "name": "wrap",
                      "type": "bool"
                    },
                    {
                      "internalType": "bool",
                      "name": "unwrap",
                      "type": "bool"
                    },
                    {
                      "internalType": "bool",
                      "name": "mint",
                      "type": "bool"
                    }
                  ],
                  "internalType": "struct Bridge2.Recipient[]",
                  "name": "recipients",
                  "type": "tuple[]"
                }
              ],
              "internalType": "struct Bridge2.PermitData[]",
              "name": "permits",
              "type": "tuple[]"
            }
          ],
          "internalType": "struct Bridge2.Params",
          "name": "unconfirmed",
          "type": "tuple"
        },
        {
          "components": [
            {
              "internalType": "uint256",
              "name": "amount",
              "type": "uint256"
            },
            {
              "internalType": "bytes",
              "name": "signature",
              "type": "bytes"
            },
            {
              "internalType": "bytes",
              "name": "publicKey",
              "type": "bytes"
            },
            {
              "internalType": "address",
              "name": "prerotatedKeyHash",
              "type": "address"
            },
            {
              "internalType": "address",
              "name": "twicePrerotatedKeyHash",
              "type": "address"
            },
            {
              "internalType": "address",
              "name": "prevPublicKeyHash",
              "type": "address"
            },
            {
              "internalType": "address",
              "name": "outputAddress",
              "type": "address"
            },
            {
              "internalType": "bool",
              "name": "hasRelationship",
              "type": "bool"
            },
            {
              "internalType": "address",
              "name": "tokenSource",
              "type": "address"
            },
            {
              "components": [
                {
                  "internalType": "address",
                  "name": "token",
                  "type": "address"
                },
                {
                  "internalType": "uint256",
                  "name": "amount",
                  "type": "uint256"
                },
                {
                  "internalType": "uint256",
                  "name": "deadline",
                  "type": "uint256"
                },
                {
                  "internalType": "uint8",
                  "name": "v",
                  "type": "uint8"
                },
                {
                  "internalType": "bytes32",
                  "name": "r",
                  "type": "bytes32"
                },
                {
                  "internalType": "bytes32",
                  "name": "s",
                  "type": "bytes32"
                },
                {
                  "components": [
                    {
                      "internalType": "address",
                      "name": "recipientAddress",
                      "type": "address"
                    },
                    {
                      "internalType": "uint256",
                      "name": "amount",
                      "type": "uint256"
                    },
                    {
                      "internalType": "bool",
                      "name": "wrap",
                      "type": "bool"
                    },
                    {
                      "internalType": "bool",
                      "name": "unwrap",
                      "type": "bool"
                    },
                    {
                      "internalType": "bool",
                      "name": "mint",
                      "type": "bool"
                    }
                  ],
                  "internalType": "struct Bridge2.Recipient[]",
                  "name": "recipients",
                  "type": "tuple[]"
                }
              ],
              "internalType": "struct Bridge2.PermitData[]",
              "name": "permits",
              "type": "tuple[]"
            }
          ],
          "internalType": "struct Bridge2.Params",
          "name": "confirming",
          "type": "tuple"
        }
      ],
      "name": "addMultipleTokenPairsAtomic",
      "outputs": [],
      "stateMutability": "payable",
      "type": "function"
    },
    {
      "inputs": [
        {
          "internalType": "address",
          "name": "originalToken",
          "type": "address"
        },
        {
          "internalType": "address",
          "name": "wrappedToken",
          "type": "address"
        }
      ],
      "name": "addTokenPair",
      "outputs": [],
      "stateMutability": "nonpayable",
      "type": "function"
    },
    {
      "inputs": [
        {
          "internalType": "address",
          "name": "to",
          "type": "address"
        }
      ],
      "name": "emergencyWithdrawBNB",
      "outputs": [],
      "stateMutability": "nonpayable",
      "type": "function"
    },
    {
      "inputs": [],
      "name": "feeCollector",
      "outputs": [
        {
          "internalType": "address",
          "name": "",
          "type": "address"
        }
      ],
      "stateMutability": "view",
      "type": "function"
    },
    {
      "inputs": [],
      "name": "feeSigner",
      "outputs": [
        {
          "internalType": "address",
          "name": "",
          "type": "address"
        }
      ],
      "stateMutability": "view",
      "type": "function"
    },
    {
      "inputs": [
        {
          "internalType": "bytes",
          "name": "publicKey",
          "type": "bytes"
        }
      ],
      "name": "getAddressFromPublicKey",
      "outputs": [
        {
          "internalType": "address",
          "name": "",
          "type": "address"
        }
      ],
      "stateMutability": "pure",
      "type": "function"
    },
    {
      "inputs": [],
      "name": "getOwner",
      "outputs": [
        {
          "internalType": "address",
          "name": "",
          "type": "address"
        }
      ],
      "stateMutability": "view",
      "type": "function"
    },
    {
      "inputs": [],
      "name": "getSupportedTokens",
      "outputs": [
        {
          "internalType": "address[]",
          "name": "",
          "type": "address[]"
        }
      ],
      "stateMutability": "view",
      "type": "function"
    },
    {
      "inputs": [
        {
          "internalType": "address",
          "name": "_keyLogRegistry",
          "type": "address"
        }
      ],
      "name": "initialize",
      "outputs": [],
      "stateMutability": "nonpayable",
      "type": "function"
    },
    {
      "inputs": [],
      "name": "keyLogRegistry",
      "outputs": [
        {
          "internalType": "contract KeyLogRegistry",
          "name": "",
          "type": "address"
        }
      ],
      "stateMutability": "view",
      "type": "function"
    },
    {
      "inputs": [
        {
          "internalType": "address",
          "name": "",
          "type": "address"
        }
      ],
      "name": "nonces",
      "outputs": [
        {
          "internalType": "uint256",
          "name": "",
          "type": "uint256"
        }
      ],
      "stateMutability": "view",
      "type": "function"
    },
    {
      "inputs": [
        {
          "internalType": "address",
          "name": "originalToken",
          "type": "address"
        }
      ],
      "name": "originalToWrapped",
      "outputs": [
        {
          "internalType": "address",
          "name": "",
          "type": "address"
        }
      ],
      "stateMutability": "view",
      "type": "function"
    },
    {
      "inputs": [],
      "name": "owner",
      "outputs": [
        {
          "internalType": "address",
          "name": "",
          "type": "address"
        }
      ],
      "stateMutability": "view",
      "type": "function"
    },
    {
      "inputs": [],
      "name": "proxiableUUID",
      "outputs": [
        {
          "internalType": "bytes32",
          "name": "",
          "type": "bytes32"
        }
      ],
      "stateMutability": "view",
      "type": "function"
    },
    {
      "inputs": [
        {
          "internalType": "address",
          "name": "token",
          "type": "address"
        },
        {
          "components": [
            {
              "internalType": "uint256",
              "name": "amount",
              "type": "uint256"
            },
            {
              "internalType": "bytes",
              "name": "signature",
              "type": "bytes"
            },
            {
              "internalType": "bytes",
              "name": "publicKey",
              "type": "bytes"
            },
            {
              "internalType": "address",
              "name": "prerotatedKeyHash",
              "type": "address"
            },
            {
              "internalType": "address",
              "name": "twicePrerotatedKeyHash",
              "type": "address"
            },
            {
              "internalType": "address",
              "name": "prevPublicKeyHash",
              "type": "address"
            },
            {
              "internalType": "address",
              "name": "outputAddress",
              "type": "address"
            },
            {
              "internalType": "bool",
              "name": "hasRelationship",
              "type": "bool"
            },
            {
              "internalType": "address",
              "name": "tokenSource",
              "type": "address"
            },
            {
              "components": [
                {
                  "internalType": "address",
                  "name": "token",
                  "type": "address"
                },
                {
                  "internalType": "uint256",
                  "name": "amount",
                  "type": "uint256"
                },
                {
                  "internalType": "uint256",
                  "name": "deadline",
                  "type": "uint256"
                },
                {
                  "internalType": "uint8",
                  "name": "v",
                  "type": "uint8"
                },
                {
                  "internalType": "bytes32",
                  "name": "r",
                  "type": "bytes32"
                },
                {
                  "internalType": "bytes32",
                  "name": "s",
                  "type": "bytes32"
                },
                {
                  "components": [
                    {
                      "internalType": "address",
                      "name": "recipientAddress",
                      "type": "address"
                    },
                    {
                      "internalType": "uint256",
                      "name": "amount",
                      "type": "uint256"
                    },
                    {
                      "internalType": "bool",
                      "name": "wrap",
                      "type": "bool"
                    },
                    {
                      "internalType": "bool",
                      "name": "unwrap",
                      "type": "bool"
                    },
                    {
                      "internalType": "bool",
                      "name": "mint",
                      "type": "bool"
                    }
                  ],
                  "internalType": "struct Bridge2.Recipient[]",
                  "name": "recipients",
                  "type": "tuple[]"
                }
              ],
              "internalType": "struct Bridge2.PermitData[]",
              "name": "permits",
              "type": "tuple[]"
            }
          ],
          "internalType": "struct Bridge2.Params",
          "name": "unconfirmed",
          "type": "tuple"
        },
        {
          "components": [
            {
              "internalType": "uint256",
              "name": "amount",
              "type": "uint256"
            },
            {
              "internalType": "bytes",
              "name": "signature",
              "type": "bytes"
            },
            {
              "internalType": "bytes",
              "name": "publicKey",
              "type": "bytes"
            },
            {
              "internalType": "address",
              "name": "prerotatedKeyHash",
              "type": "address"
            },
            {
              "internalType": "address",
              "name": "twicePrerotatedKeyHash",
              "type": "address"
            },
            {
              "internalType": "address",
              "name": "prevPublicKeyHash",
              "type": "address"
            },
            {
              "internalType": "address",
              "name": "outputAddress",
              "type": "address"
            },
            {
              "internalType": "bool",
              "name": "hasRelationship",
              "type": "bool"
            },
            {
              "internalType": "address",
              "name": "tokenSource",
              "type": "address"
            },
            {
              "components": [
                {
                  "internalType": "address",
                  "name": "token",
                  "type": "address"
                },
                {
                  "internalType": "uint256",
                  "name": "amount",
                  "type": "uint256"
                },
                {
                  "internalType": "uint256",
                  "name": "deadline",
                  "type": "uint256"
                },
                {
                  "internalType": "uint8",
                  "name": "v",
                  "type": "uint8"
                },
                {
                  "internalType": "bytes32",
                  "name": "r",
                  "type": "bytes32"
                },
                {
                  "internalType": "bytes32",
                  "name": "s",
                  "type": "bytes32"
                },
                {
                  "components": [
                    {
                      "internalType": "address",
                      "name": "recipientAddress",
                      "type": "address"
                    },
                    {
                      "internalType": "uint256",
                      "name": "amount",
                      "type": "uint256"
                    },
                    {
                      "internalType": "bool",
                      "name": "wrap",
                      "type": "bool"
                    },
                    {
                      "internalType": "bool",
                      "name": "unwrap",
                      "type": "bool"
                    },
                    {
                      "internalType": "bool",
                      "name": "mint",
                      "type": "bool"
                    }
                  ],
                  "internalType": "struct Bridge2.Recipient[]",
                  "name": "recipients",
                  "type": "tuple[]"
                }
              ],
              "internalType": "struct Bridge2.PermitData[]",
              "name": "permits",
              "type": "tuple[]"
            }
          ],
          "internalType": "struct Bridge2.Params",
          "name": "confirming",
          "type": "tuple"
        }
      ],
      "name": "registerKeyPairWithTransfer",
      "outputs": [],
      "stateMutability": "payable",
      "type": "function"
    },
    {
      "inputs": [],
      "name": "relayer",
      "outputs": [
        {
          "internalType": "address",
          "name": "",
          "type": "address"
        }
      ],
      "stateMutability": "view",
      "type": "function"
    },
    {
      "inputs": [],
      "name": "renounceOwnership",
      "outputs": [],
      "stateMutability": "nonpayable",
      "type": "function"
    },
    {
      "inputs": [
        {
          "internalType": "address",
          "name": "_feeCollector",
          "type": "address"
        }
      ],
      "name": "setFeeCollector",
      "outputs": [],
      "stateMutability": "nonpayable",
      "type": "function"
    },
    {
      "inputs": [
        {
          "internalType": "address",
          "name": "_signer",
          "type": "address"
        }
      ],
      "name": "setFeeSigner",
      "outputs": [],
      "stateMutability": "nonpayable",
      "type": "function"
    },
    {
      "inputs": [
        {
          "internalType": "address",
          "name": "_relayer",
          "type": "address"
        }
      ],
      "name": "setRelayer",
      "outputs": [],
      "stateMutability": "nonpayable",
      "type": "function"
    },
    {
      "inputs": [
        {
          "internalType": "uint256",
          "name": "",
          "type": "uint256"
        }
      ],
      "name": "supportedOriginalTokens",
      "outputs": [
        {
          "internalType": "address",
          "name": "",
          "type": "address"
        }
      ],
      "stateMutability": "view",
      "type": "function"
    },
    {
      "inputs": [
        {
          "internalType": "address",
          "name": "",
          "type": "address"
        }
      ],
      "name": "tokenPairs",
      "outputs": [
        {
          "internalType": "address",
          "name": "originalToken",
          "type": "address"
        },
        {
          "internalType": "address",
          "name": "wrappedToken",
          "type": "address"
        }
      ],
      "stateMutability": "view",
      "type": "function"
    },
    {
      "inputs": [
        {
          "internalType": "address",
          "name": "newOwner",
          "type": "address"
        }
      ],
      "name": "transferOwnership",
      "outputs": [],
      "stateMutability": "nonpayable",
      "type": "function"
    },
    {
      "inputs": [
        {
          "internalType": "address",
          "name": "newImplementation",
          "type": "address"
        },
        {
          "internalType": "bytes",
          "name": "data",
          "type": "bytes"
        }
      ],
      "name": "upgradeToAndCall",
      "outputs": [],
      "stateMutability": "payable",
      "type": "function"
    }
  ],
  "bytecode": "0x60a0806040523461002a5730608052614bb1908161003082396080518181816116f0015261179f0152f35b600080fdfe60808060405260043610156200001457600080fd5b60003560e01c90816307569339146200279c57508063081da8c1146200271f578063276c1ac014620026d25780632ed9587714620019b857806347bbbdf5146200196c5780634f1ef286146200175b57806352d1902d14620016db5780635ff5913114620008f6578063602db89014620008aa5780636548e9bc146200085b578063715018a614620007ec5780637e1aa178146200079d5780637ecebe00146200075f5780638406c0791462000734578063893d20e814620006fb5780638da5cb5b14620006fb578063a42dce80146200069a578063a7c87ec21462000580578063ad3cb1cc1462000530578063b5057a7b1462000505578063c415b95c14620004da578063c4d66de81462000324578063d3c7c2c71462000254578063d8397fd514620001f65763f2fde38b146200014c57600080fd5b34620001f1576020366003190112620001f15762000169620027c2565b6200017362002bbd565b6001600160a01b03908082168015620001df57600254928060008051602062004b5c833981519152541690841603620001cd57620001cb926001600160601b0360a01b1617600255620001c562002bbd565b62002ca1565b005b60405163167c9f4d60e11b8152600490fd5b60405163d92e233d60e01b8152600490fd5b600080fd5b34620001f1576020366003190112620001f157600435600654811015620001f15760066000527ff652222313e28459528d920b65115c16c04f3efc82aaedc97be59f3f377c0d3f01546040516001600160a01b039091168152602090f35b34620001f1576000366003190112620001f157604051806006548083526020809301809160066000527ff652222313e28459528d920b65115c16c04f3efc82aaedc97be59f3f377c0d3f9060005b8682821062000306578686620002bb8288038362002856565b604051928392818401908285525180915260408401929160005b828110620002e557505050500390f35b83516001600160a01b031685528695509381019392810192600101620002d5565b83546001600160a01b031685529093019260019283019201620002a2565b34620001f1576020366003190112620001f15762000341620027c2565b7ff0c57e16840df040f15088dc2f81fe391c3923bec73e23a9662efc9c229c6a009081549060ff8260401c1615916001600160401b03811680159081620004d1575b6001149081620004c6575b159081620004bc575b50620004aa5767ffffffffffffffff1981166001178455826200048a575b50620003c062002d48565b620003ca62002d48565b620003d53362002ca1565b620003df62002d48565b620003e962002d48565b620003f362002d48565b60017f9b779b17422d0df92223018b32b4d1fa46e071723d6817e2486d003becc55f00556001600160a01b03168015620001df576001600160601b0360a01b90816000541617600055339060025416176002556200044d57005b68ff00000000000000001981541690557fc7f505b2f371ae2175ee4913f4499e1f2633a7b5936321eed1cdaeb6115181d2602060405160018152a1005b68ffffffffffffffffff19166801000000000000000117835583620003b5565b60405163f92ee8a960e01b8152600490fd5b9050158562000397565b303b1591506200038e565b84915062000383565b34620001f1576000366003190112620001f1576002546040516001600160a01b039091168152602090f35b34620001f1576000366003190112620001f1576000546040516001600160a01b039091168152602090f35b34620001f1576000366003190112620001f1576200057c6040516200055581620027ee565b60058152640352e302e360dc1b6020820152604051918291602083526020830190620028f1565b0390f35b34620001f1576040366003190112620001f1576200059d620027c2565b6001600160a01b039060243582811690819003620001f157620005bf62002bbd565b8282168015801562000691575b620001df5780600052600460205283600160406000200154166200067f57620001cb936001604051926200060084620027ee565b808452602084018581528160005260046020528383816040600020975116966001600160601b0360a01b97888254161781550191511685825416179055604051906200064c82620027ee565b81526020810194808652600052600460205282604060002091511684825416178155019251169082541617905562002af2565b604051636bb9e87d60e01b8152600490fd5b508115620005cc565b34620001f1576020366003190112620001f157620006b7620027c2565b620006c162002bbd565b6001600160a01b03168015620006e9576001600160601b0360a01b6002541617600255600080f35b60405163bb0bac9960e01b8152600490fd5b34620001f1576000366003190112620001f15760008051602062004b5c833981519152546040516001600160a01b039091168152602090f35b34620001f1576000366003190112620001f1576001546040516001600160a01b039091168152602090f35b34620001f1576020366003190112620001f1576001600160a01b0362000784620027c2565b1660005260056020526020604060002054604051908152f35b34620001f1576020366003190112620001f157620007ba620027c2565b620007c462002bbd565b6001600160a01b03168015620001df576001600160601b0360a01b6003541617600355600080f35b34620001f1576000366003190112620001f1576200080962002bbd565b60008051602062004b5c83398151915280546001600160a01b031981169091556000906001600160a01b03167f8be0079c531659141344cd1fd0a4f28419497f9722a3daafe3b4186f6b6457e08280a3005b34620001f1576020366003190112620001f15762000878620027c2565b6200088262002bbd565b6001600160a01b03168015620001df576001600160601b0360a01b6001541617600155600080f35b34620001f1576020366003190112620001f157620008c7620027c2565b620008d162002bbd565b47908115620001f157600080809381935af1620008ed62002b88565b5015620001f157005b600319606036820112620001f1576200090e620027c2565b906001600160401b0360243511620001f15761014090818160243536030112620001f1576001600160401b0360443511620001f15760443536030112620001f1576200095962002bf8565b3360005260056020526040600020546200097860c46024350162002b73565b604080516001600160a01b03858116602083015260046024350135928201929092529116606082015260808082018390528152620009b68162002826565b6020815191012090620009ce60c46044350162002b73565b90600181018111620012095762000a789162000a71916001604051916020830193828060a01b038916855260006040850152828060a01b031660608401520160808201526080815262000a218162002826565b5190209262000a3a602480350160243560040162002951565b929062000a6862000a6262000a5a60446024350160243560040162002951565b369162002894565b62002933565b93369162002894565b9062002c3b565b15620016c95762000a7162000abc9162000a9d60246044350160443560040162002951565b929062000a6862000a6262000a5a604480350160443560040162002951565b15620016c9576001600160a01b0362000ada60243560c40162002b73565b16158015620016a8575b620001df57336000526005602052604060002080546002810181116200120957600201905560221960243536030161012460243501351215620001f1576001600160401b03602435610124810135016004013511620001f1576024803561012481013501600481013560051b3603910113620001f15762000b6a60646044350162002b73565b906000905b6024356101248101350160040135821062000e575762000b9a60446024350160243560040162002951565b9062000bab60646024350162002b73565b9162000bbc60846024350162002b73565b9062000bcd60a46024350162002b73565b9362000bde60c46024350162002b73565b9162000bef60e46024350162002c93565b9462000c05604480350160443560040162002951565b9462000c1660646044350162002b73565b62000c2660846044350162002b73565b9162000c6a62000c3b60a46044350162002b73565b9462000c6162000c5060c46044350162002b73565b9762000c6160e46044350162002c93565b99369162002894565b99604089511480159062000e4a575b62000e38576000546001600160a01b03169a62000c969062002933565b918b3b15620001f157604051632e91b77d60e01b815261018060048201529c8d9b8c9b62000cca906101848e0190620028f1565b6001600160a01b039b8c1660248e0152908b1660448d0152908a1660648c015290891660848b015290151560a48a015290871660c489015290861660e48801529085166101048701529084166101248601529216610144840152151561016483015203815a6000948591f1801562000e2c5762000e1a575b5060008051602062004b5c833981519152546001600160a01b03163381148062000df8575b62000d93575b60017f9b779b17422d0df92223018b32b4d1fa46e071723d6817e2486d003becc55f0055005b62000da360646044350162002b73565b62000dad62002bbd565b6001600160a01b0381168015620001df57600254926001600160a01b03841603620001cd5762000df1926001600160601b0360a01b1617600255620001c562002bbd565b8062000d6d565b506001600160a01b0362000e1160443560640162002b73565b16151562000d67565b62000e259062002842565b8062000d42565b6040513d6000823e3d90fd5b60405163145a1fdd60e31b8152600490fd5b5060408b51141562000c79565b6024803561012481013501600584901b8101909101359036036101021901811215620001f15760e060243561012481013501820136036023190112620001f1576040519062000ea6826200280a565b62000ebe6024803561012481013501830101620027d9565b825260243561012481013501810160448101356020840152606481013560408401526084013560ff81169003620001f1576024356101248101350181016084810135606084015260a4810135608084015260c481013560a084015260e40135906001600160401b038211620001f1573660243561012481013501820183016043011215620001f1576001600160401b0360248035610124810135018301840101351162001692576040519162000f8b602480356101248101350184018301013560051b6020018462002856565b6024803561012481013501830182019081013580855260208501913660a09092020160440111620001f1576024356101248101350183018201604401925b6024803561012481013501820184019081013560a00201604401841062001616575050505060c082015242604082015110620016045780516001600160a01b0316806200157c575b508051600191906001600160a01b03848116911614620014ff575b80516000926001600160a01b039091161590835b60c08401518051861015620014d057856200105b9162002d25565b519060208201516020860151108015620014bc575b620014aa57606082015115158062001493575b156200121f576001602086015115171562001209578451825160208401516001600160a01b03928316939290911690833b15620001f157604051632770a7eb60e21b81526001600160a01b039290921660048301526024820152916000908390604490829084905af1801562000e2c576001936200119b93602092620011f7575b50848060a01b038851166000526004825260406000206040516200112881620027ee565b815460a088901b889003908116808352928801541684820152828401519180620011c05750506200116290868060a01b0383511662002f04565b62001176858060a01b036002541662002ee6565b6200118982890151838301519062002d3a565b80620011a4575b505b01519062002ae4565b94019362001040565b620011b9908d878060a01b038b511662002f19565b8c62001190565b620011f192620011da91898060a01b038651169062002f95565b5160025460a088901b889003908116911662002f41565b62001176565b620012029062002842565b8c62001104565b634e487b7160e01b600052601160045260246000fd5b60808201511515806200147c575b15620012c6576001602086015115171562001209576020820151855183516001600160a01b039182169392911690833b15620001f1576040516340c10f1960e01b81526001600160a01b039290921660048301526024820152916000908390604490829084905af1801562000e2c576001936200119b93602092620012b4575b5062001192565b620012bf9062002842565b8c620012ad565b9082604082015115158062001465575b15620013d5575060016020860151151715620012095760019160206200119b92848060a01b038851166000526004825260406000206040516200131981620027ee565b815460a088901b88900390811680835292880154168482015288156200139e5750506200134f858060a01b036002541662002ee6565b81810151828901519081811062001369575b505062001192565b620013749162002d3a565b8062001382575b8062001361565b62001397908d878060a01b038b511662002f19565b8c6200137b565b620013b6620013cf9285850151903090339062002ea1565b5160025460a088901b8890039081169133911662002e53565b6200134f565b620013eb575b60019160206200119b9262001192565b83156200143257600080808060018060a01b03855116602086015190617530f16200141562002b88565b5015620001f15760019160206200119b925b9250509150620013db565b60019160206200119b926200145f858060a01b03895116868060a01b038351168484015191339062002ea1565b62001427565b5085516001600160a01b03898116911614620012d6565b5084516001600160a01b038881169116146200122d565b5084516001600160a01b0388811691161462001083565b60405163143d1ae760e21b8152600490fd5b5081516001600160a01b0316151562001070565b5093505050602090939293015103620014ed576001019062000b6f565b6040516312171d8360e31b8152600490fd5b939160009391935b60c086015180518210156200156f5781620015229162002d25565b51606081015115801591829162001560575b50811562001557575b506200154d575b60010162001507565b6000945062001544565b9050876200153d565b60800151151591508862001534565b505091939290926200102c565b602082015190604083015160ff6060850151169260808501519060a086015191843b15620001f15760009460e4938692604051988997889663d505accf60e01b885233600489015230602489015260448801526064870152608486015260a485015260c48401525af1801562000e2c57156200101157620015fd9062002842565b8462001011565b6040516305787bdf60e01b8152600490fd5b60a084360312620001f15760a06020604493604051620016368162002826565b6200164188620027d9565b81528288013583820152620016596040890162002d17565b60408201526200166c6060890162002d17565b60608201526200167f6080890162002d17565b6080820152815201940193915062000fc9565b634e487b7160e01b600052604160045260246000fd5b506001600160a01b03620016c160443560c40162002b73565b161562000ae4565b604051638baa579f60e01b8152600490fd5b34620001f1576000366003190112620001f1577f00000000000000000000000000000000000000000000000000000000000000006001600160a01b03163003620017495760206040517f360894a13ba1a3210667c828492db98dca3e2076cc3735a920a3ca505d382bbc8152f35b60405163703e46dd60e11b8152600490fd5b6040366003190112620001f15762001772620027c2565b6024356001600160401b038111620001f15762001794903690600401620028d0565b906001600160a01b037f000000000000000000000000000000000000000000000000000000000000000081163081149081156200193d575b506200174957620017dc62002bbd565b8116906040516352d1902d60e01b8152602081600481865afa6000918162001903575b506200181e57604051634c9c8ce360e01b815260048101849052602490fd5b7f360894a13ba1a3210667c828492db98dca3e2076cc3735a920a3ca505d382bbc92919290818103620018eb5750823b15620018d25780546001600160a01b03191682179055604051907fbc7cd75a20ee27fd9adebab32041f755214dbc6bffa90cc0225b39da2e5c2d3b600080a2825115620018b85750600080836020620001cb95519101845af4620018b162002b88565b91620030c7565b91505034620018c357005b63b398979f60e01b8152600490fd5b604051634c9c8ce360e01b815260048101839052602490fd5b60249060405190632a87526960e21b82526004820152fd5b9091506020813d60201162001934575b81620019226020938362002856565b81010312620001f157519085620017ff565b3d915062001913565b9050817f360894a13ba1a3210667c828492db98dca3e2076cc3735a920a3ca505d382bbc5416141584620017cc565b34620001f1576020366003190112620001f15760406001600160a01b038062001994620027c2565b16600052600460205281600020906001818354169201541682519182526020820152f35b600319606036820112620001f1576001600160401b0360043511620001f157366023600435011215620001f1576001600160401b036004356004013511620001f1573660246004356004013560051b600435010111620001f1576001600160401b0360243511620001f1576101408160243536030112620001f1576001600160401b0360443511620001f1576101409060443536030112620001f15762001a5e62002bbd565b62001a6862002bf8565b6004356004013515620026c057600a6004356004013511620026c05762001aa262000a6262000a5a60446024350160243560040162002951565b336000526005602052604060002054604051602081019062001ae78162001ad885876004356004013560246004350188620029db565b03601f19810183528262002856565b51902091600182018211620012095762001b509162001ad862001b2b62000a71936040519283916001602084019601906004356004013560246004350188620029db565b5190209262001b44602480350160243560040162002951565b92903393369162002894565b15620016c95762000a7162001b759162000a9d60246044350160443560040162002951565b15620016c95760005b60043560040135811062002421576001600160a01b0362001ba460243560c40162002b73565b1615801562002400575b620001df5733600052600560205260406000208054906002820180921162001209575560221960243536030161012460243501351215620001f1576001600160401b03602435610124810135016004013511620001f1576024803561012481013501600481013560051b3603910113620001f15762001c3260646044350162002b73565b60005b6024356101248101350160040135811062001c605762000b9a60446024350160243560040162002951565b6024803561012481013501600583901b8101909101359036036101021901811215620001f15760e060243561012481013501820136036023190112620001f1576040519062001caf826200280a565b62001cc76024803561012481013501830101620027d9565b825260243561012481013501810160448101356020840152606481013560408401526084013560ff81169003620001f1576024356101248101350181016084810135606084015260a4810135608084015260c481013560a084015260e40135906001600160401b038211620001f1573660243561012481013501820183016043011215620001f1576001600160401b0360248035610124810135018301840101351162001692576040519162001d94602480356101248101350184018301013560051b6020018462002856565b6024803561012481013501830182019081013580855260208501913660a09092020160440111620001f1576024356101248101350183018201604401925b6024803561012481013501820184019081013560a00201604401841062002384575050505060c082015242604082015110620016045780516001600160a01b031680620022fc575b508051600191906001600160a01b03161562002283575b8051600091906001600160a01b031615825b60c083015180518510156200226a578462001e5e9162002d25565b51906020820151602085015110801562002256575b620014aa57606082015115158062002243575b1562001ff3576001602085015115171562001209578351825160208401516001600160a01b03928316939290911690833b15620001f157604051632770a7eb60e21b81526001600160a01b039290921660048301526024820152916000908390604490829084905af1801562000e2c5760019362001f9c9360209262001fe1575b50848060a01b0387511660005260048252604060002060405162001f2b81620027ee565b815460a088901b88900390811680835292880154168482015282840151918062001fc157505062001f6590868060a01b0383511662002f04565b62001f79858060a01b036002541662002ee6565b62001f8c82880151838301519062002d3a565b8062001fa5575001519062002ae4565b93019262001e43565b62001fba908c878060a01b038a511662002f19565b8b62001190565b62001fdb92620011da91898060a01b038651169062002f95565b62001f79565b62001fec9062002842565b8b62001f07565b608082015115158062002230575b1562002099576001602085015115171562001209576020820151845183516001600160a01b039182169392911690833b15620001f1576040516340c10f1960e01b81526001600160a01b039290921660048301526024820152916000908390604490829084905af1801562000e2c5760019362001f9c9360209262002087575062001192565b620020929062002842565b8b620012ad565b908560408201511515806200221d575b156200218d5750600160208501511517156200120957600191602062001f9c92848060a01b03875116600052600482526040600020604051620020ec81620027ee565b815460a088901b88900390811680835292880154168482015287156200216f57505062002122858060a01b036002541662002ee6565b8181015182880151908181106200213b57505062001192565b620021469162002d3a565b8062002153578062001361565b62002168908c878060a01b038a511662002f19565b8b6200137b565b620013b6620021879285850151903090339062002ea1565b62002122565b620021a3575b600191602062001f9c9262001192565b8215620021ea57600080808060018060a01b03855116602086015190617530f1620021cd62002b88565b5015620001f157600191602062001f9c925b925050915062002193565b600191602062001f9c9262002217858060a01b03885116868060a01b038351168484015191339062002ea1565b620021df565b5084516001600160a01b031615620020a9565b5083516001600160a01b03161562002001565b5083516001600160a01b03161562001e86565b5081516001600160a01b0316151562001e73565b5093505060209150015103620014ed5760010162001c35565b92909160005b60c08501518051821015620022f15781620022a49162002d25565b516060810151158015918291620022e2575b508115620022d9575b50620022cf575b60010162002289565b60009350620022c6565b905086620022bf565b608001511515915087620022b6565b505091909262001e31565b602082015190604083015160ff6060850151169260808501519060a086015191843b15620001f15760009460e4938692604051988997889663d505accf60e01b885233600489015230602489015260448801526064870152608486015260a485015260c48401525af1801562000e2c571562001e1a576200237d9062002842565b8362001e1a565b60a084360312620001f15760a06020604493604051620023a48162002826565b620023af88620027d9565b81528288013583820152620023c76040890162002d17565b6040820152620023da6060890162002d17565b6060820152620023ed6080890162002d17565b6080820152815201940193915062001dd2565b506001600160a01b036200241960443560c40162002b73565b161562001bae565b60248160051b6004350101359060a219600435360301821215620001f1576080600435830136036023190112620001f157604051918260808101106001600160401b03608085011117620016925760808301604052620024886024826004350101620027d9565b83526001600160401b0360448260043501013511620001f157620024ba366004358301604481013501602401620028d0565b60208401526001600160401b0360648260043501013511620001f1576200250790608490620024f7366004358301606481013501602401620028d0565b60408601526004350101620027d9565b606083015281516001600160a01b03908116600090815260046020526040902060010154166200067f5760608201516001600160a01b031680156200261f575b6001926200261891848060a01b03825116604051906200256782620027ee565b815260a086901b86900391821660208083018281528551851660009081526004909252604091829020935184549086166001600160a01b0319918216178555905193890180549486169482169490941790935584519051919388929116620025cf82620027ee565b815260208101938085526000526004602052604060002090828060a01b03905116838254161781550191868060a01b0390511690825416179055838060a01b0390511662002af2565b0162001b7e565b506020820151604083015160018060a01b03600054166040519283611a2c8101106001600160401b03611a2c86011117620016925783926200267a6200269192611a2c6200313087396080611a2c87018181520190620028f1565b90611a2c850182036020611a2c87010152620028f1565b90306040611a2c850101526060611a2c8401015203906000f0801562000e2c576001600160a01b031662002547565b604051630554f0a760e41b8152600490fd5b34620001f1576020366003190112620001f1576004356001600160401b038111620001f1576200270d62000a626020923690600401620028d0565b6040516001600160a01b039091168152f35b34620001f1576020366003190112620001f1576001600160a01b038062002745620027c2565b1660005260046020526040600020906020816001604051946200276886620027ee565b828154168652015416920191808352156200278a576020915116604051908152f35b604051637879bad160e01b8152600490fd5b34620001f1576000366003190112620001f1576003546001600160a01b03168152602090f35b600435906001600160a01b0382168203620001f157565b35906001600160a01b0382168203620001f157565b604081019081106001600160401b038211176200169257604052565b60e081019081106001600160401b038211176200169257604052565b60a081019081106001600160401b038211176200169257604052565b6001600160401b0381116200169257604052565b90601f801991011681019081106001600160401b038211176200169257604052565b6001600160401b0381116200169257601f01601f191660200190565b929192620028a28262002878565b91620028b2604051938462002856565b829481845281830111620001f1578281602093846000960137010152565b9080601f83011215620001f157816020620028ee9335910162002894565b90565b919082519283825260005b8481106200291e575050826000602080949584010152601f8019910116010190565b602081830181015184830182015201620028fc565b604081510362000e385780516020909101206001600160a01b031690565b903590601e1981360301821215620001f157018035906001600160401b038211620001f157602001918136038313620001f157565b9035601e1982360301811215620001f15701602081359101916001600160401b038211620001f1578136038313620001f157565b908060209392818452848401376000828201840152601f01601f1916010190565b91909493929460609082606085016060865252608092608085019360808260051b8701019483946000946000955b85871062002a2f575050505050505050906040919460018060a01b031660208201520152565b9091929394959697607f198a82030185528835607e198436030181121562002ae05760019162002aa391889190860190876001600160a01b038062002a7485620027d9565b16835262002ac98262002ac1602098899862002a938a8a018a62002986565b9091808c8b0152890191620029ba565b604062002ab3818a018a62002986565b91898403908a0152620029ba565b9501620027d9565b169101529a01950197019594939692919062002a09565b8280fd5b919082018092116200120957565b600654680100000000000000008110156200169257600181018060065581101562002b5d5760066000527ff652222313e28459528d920b65115c16c04f3efc82aaedc97be59f3f377c0d3f0180546001600160a01b0319166001600160a01b03909216919091179055565b634e487b7160e01b600052603260045260246000fd5b356001600160a01b0381168103620001f15790565b3d1562002bb8573d9062002b9c8262002878565b9162002bac604051938462002856565b82523d6000602084013e565b606090565b60008051602062004b5c833981519152546001600160a01b0316330362002be057565b60405163118cdaa760e01b8152336004820152602490fd5b7f9b779b17422d0df92223018b32b4d1fa46e071723d6817e2486d003becc55f00600281541462002c295760029055565b604051633ee5aeb560e01b8152600490fd5b62002c82929162002c78917f19457468657265756d205369676e6564204d6573736167653a0a333200000000600052601c52603c60002062002d8a565b9093919362002dc9565b6001600160a01b0391821691161490565b358015158103620001f15790565b6001600160a01b0390811690811562002cfe5760008051602062004b5c83398151915280546001600160a01b031981168417909155167f8be0079c531659141344cd1fd0a4f28419497f9722a3daafe3b4186f6b6457e0600080a3565b604051631e4fbdf760e01b815260006004820152602490fd5b35908115158203620001f157565b805182101562002b5d5760209160051b010190565b919082039182116200120957565b60ff7ff0c57e16840df040f15088dc2f81fe391c3923bec73e23a9662efc9c229c6a005460401c161562002d7857565b604051631afcd79f60e31b8152600490fd5b815191906041830362002dbe5762002db792506020820151906060604084015193015160001a9062002fd4565b9192909190565b505060009160029190565b600481101562002e3d578062002ddd575050565b6001810362002df85760405163f645eedf60e01b8152600490fd5b6002810362002e1a5760405163fce698f760e01b815260048101839052602490fd5b60031462002e255750565b602490604051906335e2f38360e21b82526004820152fd5b634e487b7160e01b600052602160045260246000fd5b6040516323b872dd60e01b60208201526001600160a01b0392831660248201529190921660448201526000606480830191909152815262002e9f9162002e998262002826565b62003067565b565b6040516323b872dd60e01b60208201526001600160a01b03928316602482015292909116604483015260648083019390935291815262002e9f9162002e998262002826565b60008080808094617530f162002efb62002b88565b5015620014ed57565b60008080938193617530f162002efb62002b88565b6001600160a01b031691908262002f365762002e9f925062002f04565b62002e9f9262002f95565b60405163a9059cbb60e01b60208201526001600160a01b039092166024830152600060448084019190915282526080820191906001600160401b03831182841017620016925762002e9f9260405262003067565b60405163a9059cbb60e01b60208201526001600160a01b0392909216602483015260448083019390935291815262002e9f9162002e9960648362002856565b91907f7fffffffffffffffffffffffffffffff5d576e7357a4501ddfe92f46681b20a084116200305b57926020929160ff608095604051948552168484015260408301526060820152600092839182805260015afa156200304f5780516001600160a01b038116156200304657918190565b50809160019190565b604051903d90823e3d90fd5b50505060009160039190565b906000602091828151910182855af11562000e2c576000513d620030bd57506001600160a01b0381163b155b6200309b5750565b604051635274afe760e01b81526001600160a01b039091166004820152602490fd5b6001141562003093565b90620030f05750805115620030de57805190602001fd5b60405163d6bda27560e01b8152600490fd5b8151158062003125575b62003103575090565b604051639996b31560e01b81526001600160a01b039091166004820152602490fd5b50803b15620030fa56fe610160604081815234620004775762001a2c80380380916200002282866200047c565b8439820191608081840312620004775780516001600160401b03929083811162000477578462000054918401620004c5565b916020948582015190858211620004775762000072918301620004c5565b946200008e60606200008685850162000520565b930162000520565b90835190848201828110888211176200037657855260019485835281830195603160f81b87528751898111620003765760038054918383811c931680156200046c575b868410146200045657601f928381116200040b575b50808684821160011462000398576000916200038c575b5060001982841b1c191690841b1781555b8b51918b8311620003765760049c8d548581811c911680156200036b575b8882101462000356578e8382116200030b575b50508d87928511600114620002a0575093839491849260009562000294575b50501b92600019911b1c19161789555b620001798762000535565b956101209687526200018b84620006da565b97610140988952838151910120938460e0525190209861010099808b524660a0528251938401947f8b73c3c69bb8fe3d512ecc4cf759cc79239f7b179b0ffacaa9a75d522b39400f86528385015260608401524660808401523060a084015260a0835260c0830198838a10908a11176200027f57508790525190206080523060c052600880546001600160a01b039384166001600160a01b031991821617909155600980549290931691161790556111fa938462000832853960805184610c88015260a05184610d54015260c05184610c52015260e05184610cd701525183610cfd0152518261051a015251816105440152f35b604190634e487b7160e01b6000525260246000fd5b0151935038806200015e565b929190601f1985169360005284886000209460005b8a89838310620002f35750505010620002d8575b50505050811b0189556200016e565b01519060f884600019921b161c1916905538808080620002c9565b868601518955909701969485019488935001620002b5565b600052876000208380870160051c8201928a88106200034c575b0160051c019086905b8281106200033f5750508e6200013f565b600081550186906200032e565b9250819262000325565b60228f634e487b7160e01b6000525260246000fd5b90607f16906200012c565b634e487b7160e01b600052604160045260246000fd5b90508b015138620000fd565b8592508c90601f1983168560005289600020928a6000915b838310620003e9575050508311620003d0575b5050811b0181556200010e565b8d015160001983861b60f8161c191690553880620003c3565b948482949597989293960151815501940192019087949392918f8b90620003b0565b82600052866000208480840160051c8201928985106200044c575b0160051c019085905b8281106200043f575050620000e6565b600081550185906200042f565b9250819262000426565b634e487b7160e01b600052602260045260246000fd5b92607f1692620000d1565b600080fd5b601f909101601f19168101906001600160401b038211908210176200037657604052565b60005b838110620004b45750506000910152565b8181015183820152602001620004a3565b81601f82011215620004775780516001600160401b038111620003765760405192620004fc601f8301601f1916602001856200047c565b8184526020828401011162000477576200051d9160208085019101620004a0565b90565b51906001600160a01b03821682036200047757565b80516020919082811015620005b5575090601f8251116200057357808251920151908083106200056457501790565b82600019910360031b1b161790565b604490620005a79260405193849263305a27a960e01b845280600485015282519283918260248701528686019101620004a0565b601f01601f19168101030190fd5b6001600160401b03811162000376576005928354926001938481811c91168015620006cf575b838210146200045657601f811162000698575b5081601f84116001146200062e575092829391839260009462000622575b50501b916000199060031b1c191617905560ff90565b0151925038806200060c565b919083601f1981168760005284600020946000905b888383106200067d575050501062000663575b505050811b01905560ff90565b015160001960f88460031b161c1916905538808062000656565b85870151885590960195948501948793509081019062000643565b8560005284601f846000209201871c820191601f8601881c015b828110620006c2575050620005ee565b60008155018590620006b2565b90607f1690620005db565b805160209081811015620007075750601f8251116200057357808251920151908083106200056457501790565b906001600160401b0382116200037657600654926001938481811c9116801562000826575b838210146200045657601f8111620007ec575b5081601f841160011462000780575092829391839260009462000774575b50501b916000199060031b1c19161760065560ff90565b0151925038806200075d565b919083601f198116600660005284600020946000905b88838310620007d15750505010620007b7575b505050811b0160065560ff90565b015160001960f88460031b161c19169055388080620007a9565b85870151885590960195948501948793509081019062000796565b600660005284601f84600020920160051c820191601f860160051c015b828110620008195750506200073f565b6000815501859062000809565b90607f16906200072c56fe608060408181526004918236101561001657600080fd5b600092833560e01c91826306fdde03146108d757508163095ea7b3146108ad57816318160ddd1461088e57816323b872dd14610789578163313ce5671461076d5781633644e5151461074957816340c10f191461069157816370a082311461065a5781637ecebe001461062257816384b0196e1461050257816395d89b411461040e5781639dc29fac14610329578163a9059cbb146102e4578163b5057a7b146102bb578163d505accf1461015357508063dd62ed3e1461010b5763e78cea92146100e057600080fd5b3461010757816003193601126101075760085490516001600160a01b039091168152602090f35b5080fd5b5034610107578060031936011261010757806020926101286109ef565b610130610a0a565b6001600160a01b0391821683526001865283832091168252845220549051908152f35b839150346101075760e03660031901126101075761016f6109ef565b610177610a0a565b906044359260643560843560ff811681036102b7578142116102a05760018060a01b0390818516928389526007602052898920908154916001830190558a519060208201927f6e71edae12b1b97f4d1f60370fef10105fa2faae0126114a169c64845d6126c98452868d840152858a1660608401528a608084015260a083015260c082015260c0815260e0810181811067ffffffffffffffff82111761028d578b5251902061025b916102529161022c610c4f565b908c519161190160f01b83526002830152602282015260c43591604260a43592206110af565b9092919261113f565b16818103610272578661026f878787610d7a565b80f35b87516325c0072360e11b815292830152602482015260449150fd5b634e487b7160e01b8b526041875260248bfd5b875163313c898160e11b8152808401839052602490fd5b8680fd5b50503461010757816003193601126101075760095490516001600160a01b039091168152602090f35b5050346101075780600319360112610107576102fe6109ef565b916103098333610acf565b15610326575061031f6020926024359033610e0d565b5160018152f35b80fd5b839150346101075782600319360112610107576103446109ef565b6008549091602435916001600160a01b03908116330361040a5783169283156103f3578385528460205285852054918383106103bf5750508184957fddf252ad1be2c89b69c2b068fc378daa952ba7f163c4a11628f55a4df523b3ef936020938688528785520381872055816002540360025551908152a380f35b865163391434e360e21b81526001600160a01b03909216908201908152602081018390526040810184905281906060010390fd5b8551634b637e8f60e11b8152808301869052602490fd5b8480fd5b919050346104fe57826003193601126104fe57805183819490845461043281610a20565b91828552602096600192886001821691826000146104d4575050600114610479575b858861047589610466848a0385610a8c565b519282849384528301906109af565b0390f35b815286935091907f8a35acfbc15ff81a39ae7d344fd709f28e8600b4aa8c65c6b64bfe7fe36bd19b5b8284106104bc575050508201018161046661047538610454565b8054848a0186015288955087949093019281016104a2565b60ff19168882015294151560051b8701909401945085935061046692506104759150389050610454565b8280fd5b919050346104fe57826003193601126104fe5761053e7f0000000000000000000000000000000000000000000000000000000000000000610eeb565b926105687f0000000000000000000000000000000000000000000000000000000000000000610fef565b90825192602092602085019585871067ffffffffffffffff88111761060f57509260206105c58388966105b8998b9996528686528151998a99600f60f81b8b5260e0868c015260e08b01906109af565b91898303908a01526109af565b924660608801523060808801528460a088015286840360c088015251928381520193925b8281106105f857505050500390f35b8351855286955093810193928101926001016105e9565b634e487b7160e01b845260419052602483fd5b5050346101075760203660031901126101075760209181906001600160a01b0361064a6109ef565b1681526007845220549051908152f35b5050346101075760203660031901126101075760209181906001600160a01b036106826109ef565b16815280845220549051908152f35b919050346104fe57806003193601126104fe576106ac6109ef565b60085460243592916001600160a01b0391821633036107455716928315610730576002549083820180921161071d575084927fddf252ad1be2c89b69c2b068fc378daa952ba7f163c4a11628f55a4df523b3ef9260209260025585855284835280852082815401905551908152a380f35b634e487b7160e01b865260119052602485fd5b84602492519163ec442f0560e01b8352820152fd5b8580fd5b505034610107578160031936011261010757602090610766610c4f565b9051908152f35b5050346101075781600319360112610107576020905160128152f35b90508234610326576060366003190112610326576107a56109ef565b6107ad610a0a565b91604435936107bc8484610acf565b15610107576001600160a01b038316808352600160209081528784203385529052868320549160001983106107fa575b60208861031f898989610e0d565b86831061086257811561084b5733156108345750825260016020908152868320338452815291869020908590039055829061031f876107ec565b8751634a1406b160e11b8152908101849052602490fd5b875163e602df0560e01b8152908101849052602490fd5b8751637dc7a0d960e11b8152339181019182526020820193909352604081018790528291506060010390fd5b5050346101075781600319360112610107576020906002549051908152f35b50503461010757806003193601126101075760209061031f6108cd6109ef565b6024359033610d7a565b84843461010757816003193601126101075782826003546108f781610a20565b908184526020956001918760018216918260001461098857505060011461092c575b5050506104759291610466910385610a8c565b9190869350600383527fc2575a0e9e593c00f959f8c92f12db2869c3395a3b0502d05e2516446f71f85b5b8284106109705750505082010181610466610475610919565b8054848a018601528895508794909301928101610957565b60ff19168782015293151560051b8601909301935084925061046691506104759050610919565b919082519283825260005b8481106109db575050826000602080949584010152601f8019910116010190565b6020818301810151848301820152016109ba565b600435906001600160a01b0382168203610a0557565b600080fd5b602435906001600160a01b0382168203610a0557565b90600182811c92168015610a50575b6020831014610a3a57565b634e487b7160e01b600052602260045260246000fd5b91607f1691610a2f565b6040810190811067ffffffffffffffff821117610a7657604052565b634e487b7160e01b600052604160045260246000fd5b90601f8019910116810190811067ffffffffffffffff821117610a7657604052565b51906001600160a01b0382168203610a0557565b51908115158203610a0557565b600954604080516324b9c44160e21b81526001600160a01b0393841660048201819052939290916101209182908490602490829088165afa918215610c44576000938493610b4b575b505050610b285750505050600090565b602001518116918214928315610b3f575b50505090565b16149050388080610b39565b818193959294503d8511610c3d575b610b648183610a8c565b810103928312610326576101008093126103265783519383850185811067ffffffffffffffff821117610c29578152610b9c83610aae565b8552610baa60208401610aae565b6020860152610bba818401610aae565b90850152610bca60608301610aae565b6060850152610bdb60808301610aae565b6080850152610bec60a08301610ac2565b60a0850152610bfd60c08301610ac2565b60c085015260e0820151906003821015610326575060e0840152610c219101610ac2565b388080610b18565b634e487b7160e01b83526041600452602483fd5b503d610b5a565b50513d6000823e3d90fd5b307f00000000000000000000000000000000000000000000000000000000000000006001600160a01b03161480610d51575b15610caa577f000000000000000000000000000000000000000000000000000000000000000090565b60405160208101907f8b73c3c69bb8fe3d512ecc4cf759cc79239f7b179b0ffacaa9a75d522b39400f82527f000000000000000000000000000000000000000000000000000000000000000060408201527f000000000000000000000000000000000000000000000000000000000000000060608201524660808201523060a082015260a0815260c0810181811067ffffffffffffffff821117610a765760405251902090565b507f00000000000000000000000000000000000000000000000000000000000000004614610c81565b6001600160a01b03908116918215610df45716918215610ddb5760207f8c5be1e5ebec7d5bd14f71427d1e84f3dd0314c0f7b2291e5b200ac8c7c3b925918360005260018252604060002085600052825280604060002055604051908152a3565b604051634a1406b160e11b815260006004820152602490fd5b60405163e602df0560e01b815260006004820152602490fd5b916001600160a01b03808416928315610ed25716928315610eb95760009083825281602052604082205490838210610e87575091604082827fddf252ad1be2c89b69c2b068fc378daa952ba7f163c4a11628f55a4df523b3ef958760209652828652038282205586815220818154019055604051908152a3565b60405163391434e360e21b81526001600160a01b03919091166004820152602481019190915260448101839052606490fd5b60405163ec442f0560e01b815260006004820152602490fd5b604051634b637e8f60e11b815260006004820152602490fd5b60ff8114610f295760ff811690601f8211610f175760405191610f0d83610a5a565b8252602082015290565b604051632cd44ac360e21b8152600490fd5b50604051600554816000610f3c83610a20565b80835292602090600190818116908115610fcb5750600114610f6a575b5050610f6792500382610a8c565b90565b91509260056000527f036b6384b5eca791c62761152d0c79bb0604c104a5fb6f4eb0703f3154bb3db0936000925b828410610fb35750610f679450505081016020013880610f59565b85548785018301529485019486945092810192610f98565b91505060209250610f6794915060ff191682840152151560051b8201013880610f59565b60ff81146110115760ff811690601f8211610f175760405191610f0d83610a5a565b5060405160065481600061102483610a20565b80835292602090600190818116908115610fcb575060011461104e575050610f6792500382610a8c565b91509260066000527ff652222313e28459528d920b65115c16c04f3efc82aaedc97be59f3f377c0d3f936000925b8284106110975750610f679450505081016020013880610f59565b8554878501830152948501948694509281019261107c565b91907f7fffffffffffffffffffffffffffffff5d576e7357a4501ddfe92f46681b20a0841161113357926020929160ff608095604051948552168484015260408301526060820152600092839182805260015afa156111275780516001600160a01b0381161561111e57918190565b50809160019190565b604051903d90823e3d90fd5b50505060009160039190565b60048110156111ae5780611151575050565b6001810361116b5760405163f645eedf60e01b8152600490fd5b6002810361118c5760405163fce698f760e01b815260048101839052602490fd5b6003146111965750565b602490604051906335e2f38360e21b82526004820152fd5b634e487b7160e01b600052602160045260246000fdfea264697066735822122059d74b869f50de5f6e6b1835b1e542232b94ad8309fc78b1c2d98093f5be3bf864736f6c634300081800339016d09d72d40fdae2fd8ceac6b6234c7706214fd39c1cd1e609a0528c199300a2646970667358221220c2161c8ac451177ace88a26760a47b1cfc340c9573c2fe93d000de686669d05664736f6c63430008180033",
  "linkReferences": {},
  "deployedLinkReferences": {}
}