{
  "_format": "hh-sol-artifact-1",
  "contractName": "Bridge",
  "sourceName": "contracts/Bridge.sol",
  "abi": [
    {
      "inputs": [
        {
          "internalType": "address",
          "name": "target",
          "type": "address"
        }
      ],
      "name": "AddressEmptyCode",
      "type": "error"
    },
    {
      "inputs": [],
      "name": "AmountTooLow",
      "type": "error"
    },
    {
      "inputs": [],
      "name": "BurnAmountZero",
      "type": "error"
    },
    {
      "inputs": [],
      "name": "ECDSAInvalidSignature",
      "type": "error"
    },
    {
      "inputs": [
        {
          "internalType": "uint256",
          "name": "length",
          "type": "uint256"
        }
      ],
      "name": "ECDSAInvalidSignatureLength",
      "type": "error"
    },
    {
      "inputs": [
        {
          "internalType": "bytes32",
          "name": "s",
          "type": "bytes32"
        }
      ],
      "name": "ECDSAInvalidSignatureS",
      "type": "error"
    },
    {
      "inputs": [
        {
          "internalType": "address",
          "name": "implementation",
          "type": "address"
        }
      ],
      "name": "ERC1967InvalidImplementation",
      "type": "error"
    },
    {
      "inputs": [],
      "name": "ERC1967NonPayable",
      "type": "error"
    },
    {
      "inputs": [],
      "name": "EthTransferFailed",
      "type": "error"
    },
    {
      "inputs": [],
      "name": "FailedCall",
      "type": "error"
    },
    {
      "inputs": [],
      "name": "FeeTransferFailed",
      "type": "error"
    },
    {
      "inputs": [],
      "name": "InsufficientAllowance",
      "type": "error"
    },
    {
      "inputs": [],
      "name": "InsufficientBalance",
      "type": "error"
    },
    {
      "inputs": [
        {
          "internalType": "address",
          "name": "token",
          "type": "address"
        }
      ],
      "name": "InsufficientPermits",
      "type": "error"
    },
    {
      "inputs": [],
      "name": "InvalidFeeCollector",
      "type": "error"
    },
    {
      "inputs": [],
      "name": "InvalidFeeRate",
      "type": "error"
    },
    {
      "inputs": [],
      "name": "InvalidInitialization",
      "type": "error"
    },
    {
      "inputs": [],
      "name": "InvalidOwnershipTransfer",
      "type": "error"
    },
    {
      "inputs": [],
      "name": "InvalidPrerotatedKeyHash",
      "type": "error"
    },
    {
      "inputs": [],
      "name": "InvalidPublicKey",
      "type": "error"
    },
    {
      "inputs": [],
      "name": "InvalidRecipientAmount",
      "type": "error"
    },
    {
      "inputs": [],
      "name": "InvalidSignature",
      "type": "error"
    },
    {
      "inputs": [],
      "name": "MissingPermit",
      "type": "error"
    },
    {
      "inputs": [],
      "name": "NoTokenPairs",
      "type": "error"
    },
    {
      "inputs": [],
      "name": "NotInitializing",
      "type": "error"
    },
    {
      "inputs": [
        {
          "internalType": "address",
          "name": "contractAddress",
          "type": "address"
        }
      ],
      "name": "NotOwnerOfTarget",
      "type": "error"
    },
    {
      "inputs": [
        {
          "internalType": "address",
          "name": "owner",
          "type": "address"
        }
      ],
      "name": "OwnableInvalidOwner",
      "type": "error"
    },
    {
      "inputs": [
        {
          "internalType": "address",
          "name": "account",
          "type": "address"
        }
      ],
      "name": "OwnableUnauthorizedAccount",
      "type": "error"
    },
    {
      "inputs": [],
      "name": "PermitDeadlineExpired",
      "type": "error"
    },
    {
      "inputs": [],
      "name": "ReentrancyGuardReentrantCall",
      "type": "error"
    },
    {
      "inputs": [
        {
          "internalType": "address",
          "name": "token",
          "type": "address"
        }
      ],
      "name": "SafeERC20FailedOperation",
      "type": "error"
    },
    {
      "inputs": [],
      "name": "TokenPairExists",
      "type": "error"
    },
    {
      "inputs": [],
      "name": "TokenPairNotSupported",
      "type": "error"
    },
    {
      "inputs": [],
      "name": "TransferFailed",
      "type": "error"
    },
    {
      "inputs": [],
      "name": "UUPSUnauthorizedCallContext",
      "type": "error"
    },
    {
      "inputs": [
        {
          "internalType": "bytes32",
          "name": "slot",
          "type": "bytes32"
        }
      ],
      "name": "UUPSUnsupportedProxiableUUID",
      "type": "error"
    },
    {
      "inputs": [
        {
          "internalType": "address",
          "name": "contractAddress",
          "type": "address"
        },
        {
          "internalType": "string",
          "name": "reason",
          "type": "string"
        }
      ],
      "name": "UpgradeFailed",
      "type": "error"
    },
    {
      "inputs": [],
      "name": "ZeroAddress",
      "type": "error"
    },
    {
      "anonymous": false,
      "inputs": [
        {
          "indexed": false,
          "internalType": "uint64",
          "name": "version",
          "type": "uint64"
        }
      ],
      "name": "Initialized",
      "type": "event"
    },
    {
      "anonymous": false,
      "inputs": [
        {
          "indexed": true,
          "internalType": "address",
          "name": "previousOwner",
          "type": "address"
        },
        {
          "indexed": true,
          "internalType": "address",
          "name": "newOwner",
          "type": "address"
        }
      ],
      "name": "OwnershipTransferred",
      "type": "event"
    },
    {
      "anonymous": false,
      "inputs": [
        {
          "indexed": true,
          "internalType": "address",
          "name": "implementation",
          "type": "address"
        }
      ],
      "name": "Upgraded",
      "type": "event"
    },
    {
      "inputs": [],
      "name": "UPGRADE_INTERFACE_VERSION",
      "outputs": [
        {
          "internalType": "string",
          "name": "",
          "type": "string"
        }
      ],
      "stateMutability": "view",
      "type": "function"
    },
    {
      "inputs": [
        {
          "internalType": "address",
          "name": "to",
          "type": "address"
        }
      ],
      "name": "emergencyWithdrawBNB",
      "outputs": [],
      "stateMutability": "nonpayable",
      "type": "function"
    },
    {
      "inputs": [],
      "name": "feeCollector",
      "outputs": [
        {
          "internalType": "address",
          "name": "",
          "type": "address"
        }
      ],
      "stateMutability": "view",
      "type": "function"
    },
    {
      "inputs": [],
      "name": "feeSigner",
      "outputs": [
        {
          "internalType": "address",
          "name": "",
          "type": "address"
        }
      ],
      "stateMutability": "view",
      "type": "function"
    },
    {
      "inputs": [
        {
          "internalType": "bytes",
          "name": "publicKey",
          "type": "bytes"
        }
      ],
      "name": "getAddressFromPublicKey",
      "outputs": [
        {
          "internalType": "address",
          "name": "",
          "type": "address"
        }
      ],
      "stateMutability": "pure",
      "type": "function"
    },
    {
      "inputs": [],
      "name": "getOwner",
      "outputs": [
        {
          "internalType": "address",
          "name": "",
          "type": "address"
        }
      ],
      "stateMutability": "view",
      "type": "function"
    },
    {
      "inputs": [],
      "name": "getSupportedTokens",
      "outputs": [
        {
          "internalType": "address[]",
          "name": "",
          "type": "address[]"
        }
      ],
      "stateMutability": "view",
      "type": "function"
    },
    {
      "inputs": [
        {
          "internalType": "address",
          "name": "_keyLogRegistry",
          "type": "address"
        },
        {
          "internalType": "address",
          "name": "_wrappedTokenBeacon",
          "type": "address"
        }
      ],
      "name": "initialize",
      "outputs": [],
      "stateMutability": "nonpayable",
      "type": "function"
    },
    {
      "inputs": [],
      "name": "keyLogRegistry",
      "outputs": [
        {
          "internalType": "contract KeyLogRegistry",
          "name": "",
          "type": "address"
        }
      ],
      "stateMutability": "view",
      "type": "function"
    },
    {
      "inputs": [
        {
          "internalType": "address",
          "name": "",
          "type": "address"
        }
      ],
      "name": "nonces",
      "outputs": [
        {
          "internalType": "uint256",
          "name": "",
          "type": "uint256"
        }
      ],
      "stateMutability": "view",
      "type": "function"
    },
    {
      "inputs": [
        {
          "internalType": "address",
          "name": "originalToken",
          "type": "address"
        }
      ],
      "name": "originalToWrapped",
      "outputs": [
        {
          "internalType": "address",
          "name": "",
          "type": "address"
        }
      ],
      "stateMutability": "view",
      "type": "function"
    },
    {
      "inputs": [],
      "name": "owner",
      "outputs": [
        {
          "internalType": "address",
          "name": "",
          "type": "address"
        }
      ],
      "stateMutability": "view",
      "type": "function"
    },
    {
      "inputs": [],
      "name": "proxiableUUID",
      "outputs": [
        {
          "internalType": "bytes32",
          "name": "",
          "type": "bytes32"
        }
      ],
      "stateMutability": "view",
      "type": "function"
    },
    {
      "inputs": [
        {
          "internalType": "address",
          "name": "token",
          "type": "address"
        },
        {
          "components": [
            {
              "internalType": "address",
              "name": "token",
              "type": "address"
            },
            {
              "internalType": "uint256",
              "name": "fee",
              "type": "uint256"
            },
            {
              "internalType": "uint256",
              "name": "expires",
              "type": "uint256"
            },
            {
              "internalType": "bytes",
              "name": "signature",
              "type": "bytes"
            }
          ],
          "internalType": "struct Bridge.FeeInfo",
          "name": "fee",
          "type": "tuple"
        },
        {
          "components": [
            {
              "internalType": "address",
              "name": "originalToken",
              "type": "address"
            },
            {
              "internalType": "string",
              "name": "tokenName",
              "type": "string"
            },
            {
              "internalType": "string",
              "name": "tokenSymbol",
              "type": "string"
            },
            {
              "internalType": "address",
              "name": "wrappedToken",
              "type": "address"
            }
          ],
          "internalType": "struct Bridge.TokenPair[]",
          "name": "newTokenPairs",
          "type": "tuple[]"
        },
        {
          "components": [
            {
              "internalType": "address",
              "name": "token",
              "type": "address"
            },
            {
              "internalType": "uint256",
              "name": "amount",
              "type": "uint256"
            },
            {
              "internalType": "uint256",
              "name": "deadline",
              "type": "uint256"
            },
            {
              "internalType": "uint8",
              "name": "v",
              "type": "uint8"
            },
            {
              "internalType": "bytes32",
              "name": "r",
              "type": "bytes32"
            },
            {
              "internalType": "bytes32",
              "name": "s",
              "type": "bytes32"
            },
            {
              "components": [
                {
                  "internalType": "address",
                  "name": "recipientAddress",
                  "type": "address"
                },
                {
                  "internalType": "uint256",
                  "name": "amount",
                  "type": "uint256"
                },
                {
                  "internalType": "bool",
                  "name": "wrap",
                  "type": "bool"
                },
                {
                  "internalType": "bool",
                  "name": "unwrap",
                  "type": "bool"
                },
                {
                  "internalType": "bool",
                  "name": "mint",
                  "type": "bool"
                },
                {
                  "internalType": "bool",
                  "name": "burn",
                  "type": "bool"
                }
              ],
              "internalType": "struct Bridge.Recipient[]",
              "name": "recipients",
              "type": "tuple[]"
            }
          ],
          "internalType": "struct Bridge.PermitData[]",
          "name": "permits",
          "type": "tuple[]"
        },
        {
          "components": [
            {
              "internalType": "uint256",
              "name": "amount",
              "type": "uint256"
            },
            {
              "internalType": "bytes",
              "name": "publicKey",
              "type": "bytes"
            },
            {
              "internalType": "address",
              "name": "prerotatedKeyHash",
              "type": "address"
            },
            {
              "internalType": "address",
              "name": "twicePrerotatedKeyHash",
              "type": "address"
            },
            {
              "internalType": "address",
              "name": "prevPublicKeyHash",
              "type": "address"
            },
            {
              "internalType": "address",
              "name": "outputAddress",
              "type": "address"
            }
          ],
          "internalType": "struct Bridge.Params",
          "name": "unconfirmed",
          "type": "tuple"
        },
        {
          "internalType": "bytes",
          "name": "unconfirmedSignature",
          "type": "bytes"
        },
        {
          "components": [
            {
              "internalType": "uint256",
              "name": "amount",
              "type": "uint256"
            },
            {
              "internalType": "bytes",
              "name": "publicKey",
              "type": "bytes"
            },
            {
              "internalType": "address",
              "name": "prerotatedKeyHash",
              "type": "address"
            },
            {
              "internalType": "address",
              "name": "twicePrerotatedKeyHash",
              "type": "address"
            },
            {
              "internalType": "address",
              "name": "prevPublicKeyHash",
              "type": "address"
            },
            {
              "internalType": "address",
              "name": "outputAddress",
              "type": "address"
            }
          ],
          "internalType": "struct Bridge.Params",
          "name": "confirming",
          "type": "tuple"
        },
        {
          "internalType": "bytes",
          "name": "confirmingSignature",
          "type": "bytes"
        }
      ],
      "name": "registerKeyPairWithTransfer",
      "outputs": [],
      "stateMutability": "payable",
      "type": "function"
    },
    {
      "inputs": [],
      "name": "relayer",
      "outputs": [
        {
          "internalType": "address",
          "name": "",
          "type": "address"
        }
      ],
      "stateMutability": "view",
      "type": "function"
    },
    {
      "inputs": [],
      "name": "renounceOwnership",
      "outputs": [],
      "stateMutability": "nonpayable",
      "type": "function"
    },
    {
      "inputs": [
        {
          "internalType": "address",
          "name": "_feeCollector",
          "type": "address"
        }
      ],
      "name": "setFeeCollector",
      "outputs": [],
      "stateMutability": "nonpayable",
      "type": "function"
    },
    {
      "inputs": [
        {
          "internalType": "address",
          "name": "_signer",
          "type": "address"
        }
      ],
      "name": "setFeeSigner",
      "outputs": [],
      "stateMutability": "nonpayable",
      "type": "function"
    },
    {
      "inputs": [
        {
          "internalType": "address",
          "name": "_wrappedTokenBeacon",
          "type": "address"
        }
      ],
      "name": "setWrappedTokenBeacon",
      "outputs": [],
      "stateMutability": "nonpayable",
      "type": "function"
    },
    {
      "inputs": [
        {
          "internalType": "uint256",
          "name": "",
          "type": "uint256"
        }
      ],
      "name": "supportedOriginalTokens",
      "outputs": [
        {
          "internalType": "address",
          "name": "",
          "type": "address"
        }
      ],
      "stateMutability": "view",
      "type": "function"
    },
    {
      "inputs": [
        {
          "internalType": "address",
          "name": "",
          "type": "address"
        }
      ],
      "name": "tokenPairs",
      "outputs": [
        {
          "internalType": "address",
          "name": "originalToken",
          "type": "address"
        },
        {
          "internalType": "address",
          "name": "wrappedToken",
          "type": "address"
        }
      ],
      "stateMutability": "view",
      "type": "function"
    },
    {
      "inputs": [
        {
          "internalType": "address",
          "name": "newOwner",
          "type": "address"
        }
      ],
      "name": "transferOwnership",
      "outputs": [],
      "stateMutability": "nonpayable",
      "type": "function"
    },
    {
      "inputs": [
        {
          "internalType": "address",
          "name": "newImplementation",
          "type": "address"
        },
        {
          "internalType": "bytes",
          "name": "data",
          "type": "bytes"
        }
      ],
      "name": "upgradeToAndCall",
      "outputs": [],
      "stateMutability": "payable",
      "type": "function"
    },
    {
      "inputs": [],
      "name": "wrappedTokenBeacon",
      "outputs": [
        {
          "internalType": "address",
          "name": "",
          "type": "address"
        }
      ],
      "stateMutability": "view",
      "type": "function"
    }
  ],
  "bytecode": "0x60a0806040523461002a57306080526133ab90816100308239608051818181611e940152611f430152f35b600080fdfe60808060405260043610156200001457600080fd5b60003560e01c9081630756933914620023ff57508063081da8c114620023a1578063276c1ac0146200235457806342907696146200232957806347bbbdf514620022cd578063485cc95514620021105780634f1ef2861462001eff57806352d1902d1462001e7f578063602db8901462001e33578063715018a61462001dc45780637e1aa1781462001d755780637ecebe001462001d375780638406c0791462001d0c578063893d20e81462001cd35780638da5cb5b1462001cd35780638f2dd2de1462001c84578063a42dce801462001c23578063ad3cb1cc1462001bd3578063b5057a7b1462001ba8578063bc04f56114620003bf578063c415b95c1462000394578063d3c7c2c714620002c4578063d8397fd5146200027d5763f2fde38b146200014057600080fd5b346200025157602036600319011262000251576200015d62002425565b6200016762002887565b6001600160a01b03818116919082156200026b57600054600080516020620033368339815191525460405163031fb6df60e31b81529083166001600160a01b039081166004830152841660248201529160209183916044918391165afa9081156200025f5760009162000218575b5015620002065762000204916001600160601b0360a01b6002541617600255620001fe62002887565b62002b05565b005b60405163b012a29560e01b8152600490fd5b90506020813d60201162000256575b81620002366020938362002481565b810103126200025157518015158103620002515738620001d5565b600080fd5b3d915062000227565b6040513d6000823e3d90fd5b60405163d92e233d60e01b8152600490fd5b346200025157602036600319011262000251576004356007548110156200025157620002ab602091620025c1565b905460405160039290921b1c6001600160a01b03168152f35b34620002515760003660031901126200025157604051806007548083526020809301809160076000527fa66cc928b5edb82af9bd49922954155ab7b0942694bea4ce44661d9a8736c6889060005b86828210620003765786866200032b8288038362002481565b604051928392818401908285525180915260408401929160005b8281106200035557505050500390f35b83516001600160a01b03168552869550938101939281019260010162000345565b83546001600160a01b03168552909301926001928301920162000312565b346200025157600036600319011262000251576002546040516001600160a01b039091168152602090f35b6101003660031901126200025157620003d762002425565b6001600160401b0360243511620002515760806024353603600319011262000251576044356001600160401b03811162000251576200041b9036906004016200255e565b91906064356001600160401b03811162000251576200043f9036906004016200255e565b9390916001600160401b0360843511620002515760c06084353603600319011262000251576001600160401b0360a435116200025157620004863660a43560040162002591565b6001600160401b0360c43511620002515760c060c4353603600319011262000251576001600160401b0360e435116200025157620004ca3660e43560040162002591565b919092600260008051602062003356833981519152541462001b96576002600080516020620033568339815191525533600052600660205260406000205491886040516200053b816200052c8760208301958d8d6084356004019289620026b7565b03601f19810183528262002481565b5190206001600160a01b036200055660843560a4016200282f565b16156200026b5760406200057560246084350160843560040162002844565b90500362001b8457620005bb620005c293620005b2620005ac620005a460246084350160843560040162002844565b3691620024bf565b6200260f565b933691620024bf565b90620028c2565b15620014e5576001600160a01b03620005e060c43560a4016200282f565b1662001adc575b50505060005b828110620017d357506001600160a01b03915062000612905060c43560a4016200282f565b161515928062000af6575b505050600014620008fe576000546001600160a01b031662000649608435602481019060040162002844565b91906200065b6044608435016200282f565b926200066c6064608435016200282f565b936200067c60848035016200282f565b6200068c60a4608435016200282f565b620006a2602460c4350160c43560040162002844565b90620006b3604460c435016200282f565b94620006c4606460c435016200282f565b92620006d5608460c435016200282f565b94620006e660a460c435016200282f565b968b3b1562000251576040516385687dcd60e01b815261014060048201529c8d9b8c9b6200071b916101448e01919062002696565b6001600160a01b0395861660248d015290851660448c015290841660648b0152921660848901528782036003190160a4890152620007599262002696565b6001600160a01b0394851660c487015290841660e4860152908316610104850152911661012483015203815a6000948591f180156200025f57620008ec575b5060008051602062003336833981519152546001600160a01b031633811462000807575b505b336000526006602052604060002080549060028201809211620007f1575560016000805160206200335683398151915255005b634e487b7160e01b600052601160045260246000fd5b62000817604460c435016200282f565b6200082162002887565b6001600160a01b0381169182156200026b5760005460405163031fb6df60e31b81526001600160a01b03928316600482015283831660248201529160209183916044918391165afa9081156200025f57600091620008aa575b50156200020657620008a3916001600160601b0360a01b6002541617600255620001fe62002887565b80620007bc565b90506020813d602011620008e3575b81620008c86020938362002481565b8101031262000251575180151581036200025157836200087a565b3d9150620008b9565b620008f7906200246d565b8062000798565b6000546001600160a01b03166200091f608435602481019060040162002844565b620009326044608494939435016200282f565b91620009436064608435016200282f565b936200095360848035016200282f565b6200096360a4608435016200282f565b93833b1562000251576000956200099c958793604051998a98899788966330a6293b60e11b885260a0600489015260a488019162002696565b6001600160a01b039485166024870152908416604486015290831660648501529116608483015203925af180156200025f5762000ae4575b5060008051602062003336833981519152546001600160a01b0316338114620009ff575b50620007be565b62000a0f6044608435016200282f565b62000a1962002887565b6001600160a01b0381169182156200026b5760005460405163031fb6df60e31b81526001600160a01b03928316600482015283831660248201529160209183916044918391165afa9081156200025f5760009162000aa2575b5015620002065762000a9b916001600160601b0360a01b6002541617600255620001fe62002887565b80620009f8565b90506020813d60201162000adb575b8162000ac06020938362002481565b81010312620002515751801515810362000251578362000a72565b3d915062000ab1565b62000aef906200246d565b80620009d4565b8315620017bc5762000b0d604460c435016200282f565b905b6000908180805b838110620016e8575b5015620016d65780620016b2575b6200020657600094939194935b81851062000b4b575050506200061d565b62000b6762000b618684869798999a966200291a565b6200294c565b80519097600194909160009081906001600160a01b03868116911614620015ec575b8a516001600160a01b031615159182620015e2575b5081620015d8575b5062001531575b8415620013ea575b88516001600160a01b03161593600091825b60c08c015180518510156200134b578462000be29162002ace565b5180519091906001600160a01b0316156200026b5760208201518d81156200133e5760200151106200132c578c606083015115158062001315575b1562000e9357516040516370a0823160e01b815233600482015290602090829060249082906001600160a01b03165afa9081156200025f5760009162000e5b575b50602083015180911062000251578d5162000c879190309033906001600160a01b031662002bbd565b8c51602083015191906001600160a01b0316803b156200025157604051632770a7eb60e21b815230600482015260248101939093526000908390604490829084905af19283156200025f578e62000dae9360019562000e49575b50848060a01b0381511660005260056020528d6040600020906040519162000d098362002451565b878060a01b03815416835287808060a01b03910154166020830152670de0b6b3a764000062000d4360208601516024803501359062002ae3565b049062000d5582602087015162002af7565b90888060a01b03845116801560001462000e06575062000d7792935062002c1a565b8062000dea575b505b8d62000d96602083015160208501519062002af7565b918262000db8575b5050506020905b01519062002879565b935b019262000bc7565b9362000dd98362000ddf94936020969733908b8060a01b0390511662002bbd565b62002879565b91908f8e9062000d9e565b62000dff90868060a01b036002541662002c1a565b3862000d7e565b9062000e13929162002c38565b8062000e22575b505062000d80565b62000e4191878060a01b03905116878060a01b03600254169062002c38565b388062000e1a565b62000e54906200246d565b3862000ce1565b90506020813d60201162000e8a575b8162000e796020938362002481565b810103126200025157518e62000c5e565b3d915062000e6a565b5060a0820151151580620012fe575b1562000f2f578c51825160208401516001600160a01b03928316939290911690833b156200025157604051632770a7eb60e21b81526001600160a01b0390921660048301526024820152916000908390818381604481015b03925af180156200025f5760019362000dae9360209262000f1d575b5062000da5565b62000f28906200246d565b3862000f16565b6080820151151580620012e7575b1562000fc35762000f72670de0b6b3a764000062000f6660208501516024803501359062002ae3565b04602084015162002af7565b8d5183516001600160a01b039182169392911690833b1562000251576040516340c10f1960e01b81526001600160a01b03909216600483015260248201529160009083908183816044810162000efa565b8c896040840151151580620012d0575b156200126757505060018060a01b038d5116600052600560205260406000209060405191620010028362002451565b80546001600160a01b039081168452600190910154166020830152886200124e5781516040516370a0823160e01b815233600482015290602090829060249082906001600160a01b03165afa9081156200025f5760009162001216575b5060208401511162000251575b620010b8670de0b6b3a76400006200108f60208601516024803501359062002ae3565b04928a15620011c55783620011a6575b602060018060a01b039101511692602085015162002af7565b91803b1562000251576040516340c10f1960e01b81526001600160a01b038e16600482015260248101939093526000908390604490829084905af19283156200025f578c8f62000dae9460019662001194575b50602083015160208201518082106200112c575b5050505060209062000da5565b90620011389162002af7565b918b836200114a575b8193506200111f565b918360209596926200117395948a8060a01b0316156000146200117e5762000dd9925062002c1a565b91908f8e8b62001141565b62000dd99233908b8060a01b0390511662002bbd565b6200119f906200246d565b386200110b565b600254620011bf9085906001600160a01b031662002c1a565b6200109f565b620011ee60018060a01b03825116620011e386602089015162002af7565b903090339062002bbd565b83156200109f578051600254620011bf9186916001600160a01b039081169133911662002bbd565b90506020813d60201162001245575b81620012346020938362002481565b810103126200025157518f6200105f565b3d915062001225565b95620012609060208401519062002879565b956200106c565b60019362000dae93926020926200127f575062000da5565b8b15620012a657506200129f858060a01b03825116838301519062002c1a565b8f62000f16565b620012ca90868060a01b03905116868060a01b038351168484015191339062002bbd565b6200129f565b5081516001600160a01b038a811691161462000fd3565b508c516001600160a01b0388811691161462000f3d565b508c516001600160a01b0388811691161462000ea2565b5080516001600160a01b0389811691161462000c1d565b60405163143d1ae760e21b8152600490fd5b5050936001915062000db0565b50939691955099915097929796959662001388575b6020015103620013765760010193919462000b3a565b6040516312171d8360e31b8152600490fd5b6200139882602083015162002af7565b80620013a6575b5062001360565b9091602091620013cb916001600160a01b038b16620013d35762000dd9828a62002c1a565b91906200139f565b62000dd9828a3360018060a01b0389511662002bbd565b4260446024350135106200151f57670de0b6b3a7640000602480350135116200150d576200141d6024356004016200282f565b6040519060018060a01b0316602082015260248035013560408201526060604460243501358183015281528060808101106001600160401b03608083011117620014f75760808101604052602081519101207f19457468657265756d205369676e6564204d6573736167653a0a333200000000600052601c52620014ce620014c4603c600020620014bd620005a460646024350160243560040162002844565b9062002c7d565b9092919262002cbc565b6003546001600160a01b0391821691161462000bb5575b604051638baa579f60e01b8152600490fd5b634e487b7160e01b600052604160045260246000fd5b604051630adad23360e31b8152600490fd5b6040516305787bdf60e01b8152600490fd5b604089015142116200151f57885160208a015160408b015160608c015160808d015160a08e015160ff909216946001600160a01b03169390843b15620002515760009460e4938692604051988997889663d505accf60e01b885233600489015230602489015260448801526064870152608486015260a485015260c48401525af180156200025f57620015c6575b5062000bad565b620015d1906200246d565b89620015bf565b9050158a62000ba6565b1591508b62000b9e565b9997959392949190989660005b60c08a01518051821015620016a05781620016149162002ace565b5160408101511580159062001692575b801562001684575b801562001676575b6200166c575b608081015162001662575b60a0015162001658575b600101620015f9565b60019b506200164f565b60019b5062001645565b600096506200163a565b5060a0810151151562001634565b50606081015115156200162c565b506080810151151562001624565b50509698909194929395979962000b89565b5060008051602062003336833981519152546001600160a01b031633141562000b2d565b604051633bee968760e01b8152600490fd5b620016f962000b6182868a6200291a565b80516001600160a01b03168015620017b2575b6001600160a01b038a161462001727575b5060010162000b16565b979593919096949260c060009901985b89518051821015620017a057816200174f9162002ace565b516080810151159081159162001791575b506200176f5760010162001737565b5050909294965060019591939591825b6200178b57896200171d565b62000b1f565b60a09150015115158c62001760565b5050809395979192949698506200177f565b600193506200170c565b620017cc6044608435016200282f565b9062000b0f565b8060051b820135607e1983360301811215620002515760808184013603126200025157604051908160808101106001600160401b03608084011117620014f75760808201604052620018278185016200243c565b82526001600160401b03602082860101351162000251576200185236858301602081013501620024fb565b60208301526001600160401b03604082860101351162000251576200188036858301604081013501620024fb565b604083015262001896606080928601016200243c565b8282015281516001600160a01b039081166000908152600560205260409020600101541662001aca578101516001600160a01b03168015620019e6575b8151604051906001600160a01b0316620018ed8262002451565b81526001600160a01b0391821660208083018281528551851660009081526005909252604091829020935184549086166001600160a01b03199182161785559051600194850180549187169183169190911790558551915192949093929116620019578262002451565b815260208101938085526000526005602052604060002090828060a01b0390511683825416178155019160018060a01b039051169082541617905560018060a01b03905116906007549168010000000000000000831015620014f757620019c6836001809501600755620025c1565b819291549060031b91821b91858060a01b03901b191617905501620005ed565b5062001a2e62001a5c6020830151604084015162001a4160018060a01b0360005416916040519586946303bf912560e11b60208701526080602487015260a48601906200251c565b848103602319016044860152906200251c565b90306064840152608483015203601f19810183528262002481565b60045460405191906001600160a01b03166001600160401b03610494840190811190841117620014f757829162001aaf9161049462002ea28539610494840190815260406020820181905201906200251c565b03906000f080156200025f576001600160a01b0316620018d3565b604051636bb9e87d60e01b8152600490fd5b600181018111620007f15760405162001b0c816200052c60016020830195018b8a8a60c4356004019289620026b7565b519020604062001b27602460c4350160c43560040162002844565b90500362001b84576001600160a01b0362001b4760c43560a4016200282f565b16156200026b57620005bb62001b7593620005b2620005ac620005a4602460c4350160c43560040162002844565b15620014e557858080620005e7565b60405163145a1fdd60e31b8152600490fd5b604051633ee5aeb560e01b8152600490fd5b346200025157600036600319011262000251576000546040516001600160a01b039091168152602090f35b3462000251576000366003190112620002515762001c1f60405162001bf88162002451565b60058152640352e302e360dc1b60208201526040519182916020835260208301906200251c565b0390f35b3462000251576020366003190112620002515762001c4062002425565b62001c4a62002887565b6001600160a01b0316801562001c72576001600160601b0360a01b6002541617600255600080f35b60405163bb0bac9960e01b8152600490fd5b3462000251576020366003190112620002515762001ca162002425565b62001cab62002887565b6001600160a01b031680156200026b576001600160601b0360a01b6004541617600455600080f35b3462000251576000366003190112620002515760008051602062003336833981519152546040516001600160a01b039091168152602090f35b346200025157600036600319011262000251576001546040516001600160a01b039091168152602090f35b346200025157602036600319011262000251576001600160a01b0362001d5c62002425565b1660005260066020526020604060002054604051908152f35b3462000251576020366003190112620002515762001d9262002425565b62001d9c62002887565b6001600160a01b031680156200026b576001600160601b0360a01b6003541617600355600080f35b3462000251576000366003190112620002515762001de162002887565b6000805160206200333683398151915280546001600160a01b031981169091556000906001600160a01b03167f8be0079c531659141344cd1fd0a4f28419497f9722a3daafe3b4186f6b6457e08280a3005b3462000251576020366003190112620002515762001e5062002425565b62001e5a62002887565b479081156200025157600080809381935af162001e766200262d565b50156200025157005b346200025157600036600319011262000251577f00000000000000000000000000000000000000000000000000000000000000006001600160a01b0316300362001eed5760206040517f360894a13ba1a3210667c828492db98dca3e2076cc3735a920a3ca505d382bbc8152f35b60405163703e46dd60e11b8152600490fd5b6040366003190112620002515762001f1662002425565b6024356001600160401b038111620002515762001f38903690600401620024fb565b906001600160a01b037f00000000000000000000000000000000000000000000000000000000000000008116308114908115620020e1575b5062001eed5762001f8062002887565b8116906040516352d1902d60e01b8152602081600481865afa60009181620020a7575b5062001fc257604051634c9c8ce360e01b815260048101849052602490fd5b7f360894a13ba1a3210667c828492db98dca3e2076cc3735a920a3ca505d382bbc929192908181036200208f5750823b15620020765780546001600160a01b03191682179055604051907fbc7cd75a20ee27fd9adebab32041f755214dbc6bffa90cc0225b39da2e5c2d3b600080a28251156200205c57506000808360206200020495519101845af4620020556200262d565b9162002da6565b915050346200206757005b63b398979f60e01b8152600490fd5b604051634c9c8ce360e01b815260048101839052602490fd5b60249060405190632a87526960e21b82526004820152fd5b9091506020813d602011620020d8575b81620020c66020938362002481565b81010312620002515751908562001fa3565b3d9150620020b7565b9050817f360894a13ba1a3210667c828492db98dca3e2076cc3735a920a3ca505d382bbc541614158462001f70565b346200025157604036600319011262000251576200212d62002425565b6001600160a01b03906024358281169081900362000251577ff0c57e16840df040f15088dc2f81fe391c3923bec73e23a9662efc9c229c6a009283549260ff8460401c1615936001600160401b03811680159081620022c4575b6001149081620022b9575b159081620022af575b506200229d5767ffffffffffffffff1981166001178655846200227d575b50620021c462002b7b565b620021ce62002b7b565b620021d93362002b05565b620021e362002b7b565b620021ed62002b7b565b620021f762002b7b565b600160008051602062003356833981519152551680156200026b576001600160601b0360a01b908160005416176000553381600254161760025560045416176004556200224057005b68ff00000000000000001981541690557fc7f505b2f371ae2175ee4913f4499e1f2633a7b5936321eed1cdaeb6115181d2602060405160018152a1005b68ffffffffffffffffff19166801000000000000000117855585620021b9565b60405163f92ee8a960e01b8152600490fd5b905015876200219b565b303b15915062002192565b86915062002187565b346200025157602036600319011262000251576001600160a01b0380620022f362002425565b16600090815260056020908152604091829020805460019091015483516001600160a01b03928616831681529416169083015290f35b346200025157600036600319011262000251576004546040516001600160a01b039091168152602090f35b346200025157602036600319011262000251576004356001600160401b03811162000251576200238f620005ac6020923690600401620024fb565b6040516001600160a01b039091168152f35b346200025157602036600319011262000251576020806001600160a01b0380620023ca62002425565b1660005260058252604060002090600160405192620023e98462002451565b8281541684520154169182910152604051908152f35b346200025157600036600319011262000251576003546001600160a01b03168152602090f35b600435906001600160a01b03821682036200025157565b35906001600160a01b03821682036200025157565b604081019081106001600160401b03821117620014f757604052565b6001600160401b038111620014f757604052565b90601f801991011681019081106001600160401b03821117620014f757604052565b6001600160401b038111620014f757601f01601f191660200190565b929192620024cd82620024a3565b91620024dd604051938462002481565b82948184528183011162000251578281602093846000960137010152565b9080601f8301121562000251578160206200251993359101620024bf565b90565b919082519283825260005b84811062002549575050826000602080949584010152601f8019910116010190565b60208183018101518483018201520162002527565b9181601f8401121562000251578235916001600160401b03831162000251576020808501948460051b0101116200025157565b9181601f8401121562000251578235916001600160401b0383116200025157602083818601950101116200025157565b600754811015620025f95760076000527fa66cc928b5edb82af9bd49922954155ab7b0942694bea4ce44661d9a8736c6880190600090565b634e487b7160e01b600052603260045260246000fd5b604081510362001b845780516020909101206001600160a01b031690565b3d156200265d573d906200264182620024a3565b9162002651604051938462002481565b82523d6000602084013e565b606090565b9035601e1982360301811215620002515701602081359101916001600160401b038211620002515781360383136200025157565b908060209392818452848401376000828201840152601f01601f1916010190565b94929095936080928387019060018060a01b0380991688528360209286848b01525260a0880160a08560051b8a010194826000906000915b8383106200278a57505050505050966200278160a080936200273e8a9b8b604060609b9c9d8a039101528235885260c06200272d8285018562002662565b9190928a015260c089019162002696565b96846200274e604084016200243c565b16604088015284620027628a84016200243c565b168988015284620027758284016200243c565b1690870152016200243c565b16910152930152565b909192939497609f198d82030186528835607e19843603018112156200282b57878f6001938d62002808620027ea898697019285620027c9856200243c565b168552620027da8785018562002662565b9091808988015286019162002696565b6040620027fa8185018562002662565b918684039087015262002696565b926200281860608093016200243c565b169101529a0196019493019190620026ef565b8280fd5b356001600160a01b0381168103620002515790565b903590601e19813603018212156200025157018035906001600160401b03821162000251576020019181360383136200025157565b91908201809211620007f157565b60008051602062003336833981519152546001600160a01b03163303620028aa57565b60405163118cdaa760e01b8152336004820152602490fd5b620029099291620028ff917f19457468657265756d205369676e6564204d6573736167653a0a333200000000600052601c52603c60002062002c7d565b9093919362002cbc565b6001600160a01b0391821691161490565b9190811015620025f95760051b8101359060de198136030182121562000251570190565b359081151582036200025157565b60e081360312620002515760408051916001600160401b0360e0840181811185821017620014f757835262002981826200243c565b845260208083013581860152838301358486015260608084013560ff81168103620002515760608701526080926080850135608088015260a08086013560a089015260c09586810135908382116200025157019436601f870112156200025157853593838511620014f75788519862002a00878760051b018b62002481565b858a528689818c0197028901019736891162000251578701955b88871062002a315750505050505050505082015290565b898736031262000251578151908a8201908282108883111762002ab9578b928a92855262002a5f8a6200243c565b8152828a01358382015262002a76858b016200293e565b8582015262002a87868b016200293e565b8682015262002a98878b016200293e565b8782015262002aa9888b016200293e565b8882015281520196019562002a1a565b60246000634e487b7160e01b81526041600452fd5b8051821015620025f95760209160051b010190565b81810292918115918404141715620007f157565b91908203918211620007f157565b6001600160a01b0390811690811562002b62576000805160206200333683398151915280546001600160a01b031981168417909155167f8be0079c531659141344cd1fd0a4f28419497f9722a3daafe3b4186f6b6457e0600080a3565b604051631e4fbdf760e01b815260006004820152602490fd5b60ff7ff0c57e16840df040f15088dc2f81fe391c3923bec73e23a9662efc9c229c6a005460401c161562002bab57565b604051631afcd79f60e31b8152600490fd5b6040516323b872dd60e01b60208201526001600160a01b03928316602482015292909116604483015260648083019390935291815260a08101918183106001600160401b03841117620014f75762002c189260405262002d46565b565b60008080938193617530f162002c2f6200262d565b50156200137657565b60405163a9059cbb60e01b60208201526001600160a01b0392909216602483015260448083019390935291815262002c189162002c7760648362002481565b62002d46565b815191906041830362002cb15762002caa92506020820151906060604084015193015160001a9062002e0e565b9192909190565b505060009160029190565b600481101562002d30578062002cd0575050565b6001810362002ceb5760405163f645eedf60e01b8152600490fd5b6002810362002d0d5760405163fce698f760e01b815260048101839052602490fd5b60031462002d185750565b602490604051906335e2f38360e21b82526004820152fd5b634e487b7160e01b600052602160045260246000fd5b906000602091828151910182855af1156200025f576000513d62002d9c57506001600160a01b0381163b155b62002d7a5750565b604051635274afe760e01b81526001600160a01b039091166004820152602490fd5b6001141562002d72565b9062002dcf575080511562002dbd57805190602001fd5b60405163d6bda27560e01b8152600490fd5b8151158062002e04575b62002de2575090565b604051639996b31560e01b81526001600160a01b039091166004820152602490fd5b50803b1562002dd9565b91907f7fffffffffffffffffffffffffffffff5d576e7357a4501ddfe92f46681b20a0841162002e9557926020929160ff608095604051948552168484015260408301526060820152600092839182805260015afa1562002e895780516001600160a01b0381161562002e8057918190565b50809160019190565b604051903d90823e3d90fd5b5050506000916003919056fe60a0604090808252346101eb57610494803803809161001e828561029a565b8339810182828203126101eb57610034826102d3565b60208084015191939091906001600160401b0382116101eb570182601f820112156101eb57805190610065826102e7565b936100728751958661029a565b8285528383830101116101eb57829060005b83811061028657505060009184010152823b15610266577fa3f0ad74e5423aebfd80d3ef4346578335a9a72aeaee59ff6cb3582b35133d5080546001600160a01b0319166001600160a01b038581169182179092558551635c60da1b60e01b8082529194928482600481895afa91821561025b57600092610224575b50813b1561020b575050837f1cf3b03a6cf19fa2baba4df148e9dcabedea7f8a5c07840e207e5c089be95d3e600080a2815115610202578290600487518096819382525afa9283156101f7576000936101b5575b5091600080848461019296519101845af4903d156101ac573d610176816102e7565b906101838851928361029a565b8152600081943d92013e610302565b505b6080525161012e908161036682396080518160180152f35b60609250610302565b92508183813d83116101f0575b6101cc818361029a565b810103126101eb576000806101e3610192956102d3565b945050610154565b600080fd5b503d6101c2565b85513d6000823e3d90fd5b50505050610194565b8751634c9c8ce360e01b81529116600482015260249150fd5b9091508481813d8311610254575b61023c818361029a565b810103126101eb5761024d906102d3565b9038610100565b503d610232565b88513d6000823e3d90fd5b8351631933b43b60e21b81526001600160a01b0384166004820152602490fd5b818101830151868201840152849201610084565b601f909101601f19168101906001600160401b038211908210176102bd57604052565b634e487b7160e01b600052604160045260246000fd5b51906001600160a01b03821682036101eb57565b6001600160401b0381116102bd57601f01601f191660200190565b90610329575080511561031757805190602001fd5b60405163d6bda27560e01b8152600490fd5b8151158061035c575b61033a575090565b604051639996b31560e01b81526001600160a01b039091166004820152602490fd5b50803b1561033256fe60806040819052635c60da1b60e01b81526020816004817f00000000000000000000000000000000000000000000000000000000000000006001600160a01b03165afa90811560a9576000916054575b5060da565b905060203d60201160a3575b601f8101601f191682019167ffffffffffffffff831181841017608d576088926040520160b5565b38604f565b634e487b7160e01b600052604160045260246000fd5b503d6060565b6040513d6000823e3d90fd5b602090607f19011260d5576080516001600160a01b038116810360d55790565b600080fd5b6000808092368280378136915af43d82803e1560f4573d90f35b3d90fdfea2646970667358221220b642a315c875b99fe477933660ffe34497f9b4c9976cb8843c721c1c7db2123d64736f6c634300081800339016d09d72d40fdae2fd8ceac6b6234c7706214fd39c1cd1e609a0528c1993009b779b17422d0df92223018b32b4d1fa46e071723d6817e2486d003becc55f00a26469706673582212204b92aa2486de441ea31e83bfaae42a6b289b7c25e9f0358c395c97ce8321e40b64736f6c63430008180033",
  "linkReferences": {},
  "deployedLinkReferences": {}
}