{
  "_format": "hh-sol-artifact-1",
  "contractName": "Bridge",
  "sourceName": "contracts/Bridge.sol",
  "abi": [
    {
      "inputs": [
        {
          "internalType": "address",
          "name": "target",
          "type": "address"
        }
      ],
      "name": "AddressEmptyCode",
      "type": "error"
    },
    {
      "inputs": [],
      "name": "ECDSAInvalidSignature",
      "type": "error"
    },
    {
      "inputs": [
        {
          "internalType": "uint256",
          "name": "length",
          "type": "uint256"
        }
      ],
      "name": "ECDSAInvalidSignatureLength",
      "type": "error"
    },
    {
      "inputs": [
        {
          "internalType": "bytes32",
          "name": "s",
          "type": "bytes32"
        }
      ],
      "name": "ECDSAInvalidSignatureS",
      "type": "error"
    },
    {
      "inputs": [
        {
          "internalType": "address",
          "name": "implementation",
          "type": "address"
        }
      ],
      "name": "ERC1967InvalidImplementation",
      "type": "error"
    },
    {
      "inputs": [],
      "name": "ERC1967NonPayable",
      "type": "error"
    },
    {
      "inputs": [],
      "name": "FailedCall",
      "type": "error"
    },
    {
      "inputs": [],
      "name": "InvalidInitialization",
      "type": "error"
    },
    {
      "inputs": [],
      "name": "NotInitializing",
      "type": "error"
    },
    {
      "inputs": [
        {
          "internalType": "address",
          "name": "owner",
          "type": "address"
        }
      ],
      "name": "OwnableInvalidOwner",
      "type": "error"
    },
    {
      "inputs": [
        {
          "internalType": "address",
          "name": "account",
          "type": "address"
        }
      ],
      "name": "OwnableUnauthorizedAccount",
      "type": "error"
    },
    {
      "inputs": [],
      "name": "ReentrancyGuardReentrantCall",
      "type": "error"
    },
    {
      "inputs": [],
      "name": "UUPSUnauthorizedCallContext",
      "type": "error"
    },
    {
      "inputs": [
        {
          "internalType": "bytes32",
          "name": "slot",
          "type": "bytes32"
        }
      ],
      "name": "UUPSUnsupportedProxiableUUID",
      "type": "error"
    },
    {
      "anonymous": false,
      "inputs": [
        {
          "indexed": false,
          "internalType": "uint64",
          "name": "version",
          "type": "uint64"
        }
      ],
      "name": "Initialized",
      "type": "event"
    },
    {
      "anonymous": false,
      "inputs": [
        {
          "indexed": true,
          "internalType": "address",
          "name": "previousOwner",
          "type": "address"
        },
        {
          "indexed": true,
          "internalType": "address",
          "name": "newOwner",
          "type": "address"
        }
      ],
      "name": "OwnershipTransferred",
      "type": "event"
    },
    {
      "anonymous": false,
      "inputs": [
        {
          "indexed": true,
          "internalType": "address",
          "name": "user",
          "type": "address"
        },
        {
          "indexed": true,
          "internalType": "address",
          "name": "token",
          "type": "address"
        },
        {
          "indexed": false,
          "internalType": "uint256",
          "name": "amount",
          "type": "uint256"
        },
        {
          "indexed": false,
          "internalType": "string",
          "name": "action",
          "type": "string"
        }
      ],
      "name": "TokenAction",
      "type": "event"
    },
    {
      "anonymous": false,
      "inputs": [
        {
          "indexed": true,
          "internalType": "address",
          "name": "originalToken",
          "type": "address"
        },
        {
          "indexed": true,
          "internalType": "address",
          "name": "wrappedToken",
          "type": "address"
        },
        {
          "indexed": false,
          "internalType": "bool",
          "name": "isCrossChain",
          "type": "bool"
        }
      ],
      "name": "TokenPairAdded",
      "type": "event"
    },
    {
      "anonymous": false,
      "inputs": [
        {
          "indexed": true,
          "internalType": "address",
          "name": "implementation",
          "type": "address"
        }
      ],
      "name": "Upgraded",
      "type": "event"
    },
    {
      "inputs": [],
      "name": "FEE_CAP_USD",
      "outputs": [
        {
          "internalType": "uint256",
          "name": "",
          "type": "uint256"
        }
      ],
      "stateMutability": "view",
      "type": "function"
    },
    {
      "inputs": [],
      "name": "FEE_DENOMINATOR",
      "outputs": [
        {
          "internalType": "uint256",
          "name": "",
          "type": "uint256"
        }
      ],
      "stateMutability": "view",
      "type": "function"
    },
    {
      "inputs": [],
      "name": "UPGRADE_INTERFACE_VERSION",
      "outputs": [
        {
          "internalType": "string",
          "name": "",
          "type": "string"
        }
      ],
      "stateMutability": "view",
      "type": "function"
    },
    {
      "inputs": [
        {
          "components": [
            {
              "internalType": "address",
              "name": "originalToken",
              "type": "address"
            },
            {
              "internalType": "string",
              "name": "tokenName",
              "type": "string"
            },
            {
              "internalType": "string",
              "name": "tokenSymbol",
              "type": "string"
            },
            {
              "internalType": "bool",
              "name": "isCrossChain",
              "type": "bool"
            },
            {
              "internalType": "address",
              "name": "wrappedToken",
              "type": "address"
            },
            {
              "internalType": "address",
              "name": "priceFeed",
              "type": "address"
            }
          ],
          "internalType": "struct Bridge.TokenPair[]",
          "name": "newTokenPairs",
          "type": "tuple[]"
        },
        {
          "components": [
            {
              "internalType": "bytes",
              "name": "signature",
              "type": "bytes"
            },
            {
              "internalType": "bytes",
              "name": "publicKey",
              "type": "bytes"
            },
            {
              "internalType": "address",
              "name": "publicKeyHash",
              "type": "address"
            },
            {
              "internalType": "address",
              "name": "prerotatedKeyHash",
              "type": "address"
            },
            {
              "internalType": "address",
              "name": "twicePrerotatedKeyHash",
              "type": "address"
            },
            {
              "internalType": "address",
              "name": "prevPublicKeyHash",
              "type": "address"
            },
            {
              "internalType": "address",
              "name": "outputAddress",
              "type": "address"
            },
            {
              "internalType": "bool",
              "name": "hasRelationship",
              "type": "bool"
            },
            {
              "components": [
                {
                  "internalType": "address",
                  "name": "token",
                  "type": "address"
                },
                {
                  "internalType": "uint256",
                  "name": "amount",
                  "type": "uint256"
                },
                {
                  "internalType": "uint256",
                  "name": "deadline",
                  "type": "uint256"
                },
                {
                  "internalType": "uint8",
                  "name": "v",
                  "type": "uint8"
                },
                {
                  "internalType": "bytes32",
                  "name": "r",
                  "type": "bytes32"
                },
                {
                  "internalType": "bytes32",
                  "name": "s",
                  "type": "bytes32"
                },
                {
                  "internalType": "address",
                  "name": "recipient",
                  "type": "address"
                }
              ],
              "internalType": "struct Bridge.PermitData[]",
              "name": "permits",
              "type": "tuple[]"
            }
          ],
          "internalType": "struct Bridge.KeyData",
          "name": "unconfirmed",
          "type": "tuple"
        },
        {
          "components": [
            {
              "internalType": "bytes",
              "name": "signature",
              "type": "bytes"
            },
            {
              "internalType": "bytes",
              "name": "publicKey",
              "type": "bytes"
            },
            {
              "internalType": "address",
              "name": "publicKeyHash",
              "type": "address"
            },
            {
              "internalType": "address",
              "name": "prerotatedKeyHash",
              "type": "address"
            },
            {
              "internalType": "address",
              "name": "twicePrerotatedKeyHash",
              "type": "address"
            },
            {
              "internalType": "address",
              "name": "prevPublicKeyHash",
              "type": "address"
            },
            {
              "internalType": "address",
              "name": "outputAddress",
              "type": "address"
            },
            {
              "internalType": "bool",
              "name": "hasRelationship",
              "type": "bool"
            },
            {
              "components": [
                {
                  "internalType": "address",
                  "name": "token",
                  "type": "address"
                },
                {
                  "internalType": "uint256",
                  "name": "amount",
                  "type": "uint256"
                },
                {
                  "internalType": "uint256",
                  "name": "deadline",
                  "type": "uint256"
                },
                {
                  "internalType": "uint8",
                  "name": "v",
                  "type": "uint8"
                },
                {
                  "internalType": "bytes32",
                  "name": "r",
                  "type": "bytes32"
                },
                {
                  "internalType": "bytes32",
                  "name": "s",
                  "type": "bytes32"
                },
                {
                  "internalType": "address",
                  "name": "recipient",
                  "type": "address"
                }
              ],
              "internalType": "struct Bridge.PermitData[]",
              "name": "permits",
              "type": "tuple[]"
            }
          ],
          "internalType": "struct Bridge.KeyData",
          "name": "confirming",
          "type": "tuple"
        }
      ],
      "name": "addMultipleTokenPairsAtomic",
      "outputs": [],
      "stateMutability": "payable",
      "type": "function"
    },
    {
      "inputs": [
        {
          "internalType": "address",
          "name": "originalToken",
          "type": "address"
        },
        {
          "internalType": "address",
          "name": "wrappedToken",
          "type": "address"
        },
        {
          "internalType": "bool",
          "name": "_isCrossChain",
          "type": "bool"
        }
      ],
      "name": "addTokenPair",
      "outputs": [],
      "stateMutability": "nonpayable",
      "type": "function"
    },
    {
      "inputs": [],
      "name": "feeCollector",
      "outputs": [
        {
          "internalType": "address",
          "name": "",
          "type": "address"
        }
      ],
      "stateMutability": "view",
      "type": "function"
    },
    {
      "inputs": [],
      "name": "feePercentage",
      "outputs": [
        {
          "internalType": "uint256",
          "name": "",
          "type": "uint256"
        }
      ],
      "stateMutability": "view",
      "type": "function"
    },
    {
      "inputs": [
        {
          "internalType": "bytes",
          "name": "publicKey",
          "type": "bytes"
        }
      ],
      "name": "getAddressFromPublicKey",
      "outputs": [
        {
          "internalType": "address",
          "name": "",
          "type": "address"
        }
      ],
      "stateMutability": "pure",
      "type": "function"
    },
    {
      "inputs": [],
      "name": "getSupportedTokens",
      "outputs": [
        {
          "internalType": "address[]",
          "name": "",
          "type": "address[]"
        }
      ],
      "stateMutability": "view",
      "type": "function"
    },
    {
      "inputs": [
        {
          "internalType": "address",
          "name": "_keyLogRegistry",
          "type": "address"
        }
      ],
      "name": "initialize",
      "outputs": [],
      "stateMutability": "nonpayable",
      "type": "function"
    },
    {
      "inputs": [],
      "name": "keyLogRegistry",
      "outputs": [
        {
          "internalType": "contract KeyLogRegistry",
          "name": "",
          "type": "address"
        }
      ],
      "stateMutability": "view",
      "type": "function"
    },
    {
      "inputs": [
        {
          "internalType": "address",
          "name": "",
          "type": "address"
        }
      ],
      "name": "nonces",
      "outputs": [
        {
          "internalType": "uint256",
          "name": "",
          "type": "uint256"
        }
      ],
      "stateMutability": "view",
      "type": "function"
    },
    {
      "inputs": [
        {
          "internalType": "address",
          "name": "originalToken",
          "type": "address"
        }
      ],
      "name": "originalToWrapped",
      "outputs": [
        {
          "internalType": "address",
          "name": "",
          "type": "address"
        }
      ],
      "stateMutability": "view",
      "type": "function"
    },
    {
      "inputs": [],
      "name": "owner",
      "outputs": [
        {
          "internalType": "address",
          "name": "",
          "type": "address"
        }
      ],
      "stateMutability": "view",
      "type": "function"
    },
    {
      "inputs": [
        {
          "internalType": "bytes32",
          "name": "",
          "type": "bytes32"
        }
      ],
      "name": "processedLocks",
      "outputs": [
        {
          "internalType": "bool",
          "name": "",
          "type": "bool"
        }
      ],
      "stateMutability": "view",
      "type": "function"
    },
    {
      "inputs": [],
      "name": "proxiableUUID",
      "outputs": [
        {
          "internalType": "bytes32",
          "name": "",
          "type": "bytes32"
        }
      ],
      "stateMutability": "view",
      "type": "function"
    },
    {
      "inputs": [
        {
          "components": [
            {
              "internalType": "uint256",
              "name": "amount",
              "type": "uint256"
            },
            {
              "internalType": "bytes",
              "name": "signature",
              "type": "bytes"
            },
            {
              "internalType": "bytes",
              "name": "publicKey",
              "type": "bytes"
            },
            {
              "internalType": "address",
              "name": "prerotatedKeyHash",
              "type": "address"
            },
            {
              "internalType": "address",
              "name": "twicePrerotatedKeyHash",
              "type": "address"
            },
            {
              "internalType": "address",
              "name": "prevPublicKeyHash",
              "type": "address"
            },
            {
              "internalType": "address",
              "name": "targetAddress",
              "type": "address"
            },
            {
              "internalType": "bool",
              "name": "hasRelationship",
              "type": "bool"
            },
            {
              "internalType": "address",
              "name": "tokenSource",
              "type": "address"
            },
            {
              "components": [
                {
                  "internalType": "address",
                  "name": "token",
                  "type": "address"
                },
                {
                  "internalType": "uint256",
                  "name": "amount",
                  "type": "uint256"
                },
                {
                  "internalType": "uint256",
                  "name": "deadline",
                  "type": "uint256"
                },
                {
                  "internalType": "uint8",
                  "name": "v",
                  "type": "uint8"
                },
                {
                  "internalType": "bytes32",
                  "name": "r",
                  "type": "bytes32"
                },
                {
                  "internalType": "bytes32",
                  "name": "s",
                  "type": "bytes32"
                },
                {
                  "internalType": "address",
                  "name": "recipient",
                  "type": "address"
                }
              ],
              "internalType": "struct Bridge.PermitData[]",
              "name": "permits",
              "type": "tuple[]"
            }
          ],
          "internalType": "struct Bridge.Params",
          "name": "unconfirmed",
          "type": "tuple"
        },
        {
          "components": [
            {
              "internalType": "uint256",
              "name": "amount",
              "type": "uint256"
            },
            {
              "internalType": "bytes",
              "name": "signature",
              "type": "bytes"
            },
            {
              "internalType": "bytes",
              "name": "publicKey",
              "type": "bytes"
            },
            {
              "internalType": "address",
              "name": "prerotatedKeyHash",
              "type": "address"
            },
            {
              "internalType": "address",
              "name": "twicePrerotatedKeyHash",
              "type": "address"
            },
            {
              "internalType": "address",
              "name": "prevPublicKeyHash",
              "type": "address"
            },
            {
              "internalType": "address",
              "name": "targetAddress",
              "type": "address"
            },
            {
              "internalType": "bool",
              "name": "hasRelationship",
              "type": "bool"
            },
            {
              "internalType": "address",
              "name": "tokenSource",
              "type": "address"
            },
            {
              "components": [
                {
                  "internalType": "address",
                  "name": "token",
                  "type": "address"
                },
                {
                  "internalType": "uint256",
                  "name": "amount",
                  "type": "uint256"
                },
                {
                  "internalType": "uint256",
                  "name": "deadline",
                  "type": "uint256"
                },
                {
                  "internalType": "uint8",
                  "name": "v",
                  "type": "uint8"
                },
                {
                  "internalType": "bytes32",
                  "name": "r",
                  "type": "bytes32"
                },
                {
                  "internalType": "bytes32",
                  "name": "s",
                  "type": "bytes32"
                },
                {
                  "internalType": "address",
                  "name": "recipient",
                  "type": "address"
                }
              ],
              "internalType": "struct Bridge.PermitData[]",
              "name": "permits",
              "type": "tuple[]"
            }
          ],
          "internalType": "struct Bridge.Params",
          "name": "confirming",
          "type": "tuple"
        }
      ],
      "name": "registerKeyPairWithTransfer",
      "outputs": [],
      "stateMutability": "payable",
      "type": "function"
    },
    {
      "inputs": [
        {
          "internalType": "bytes",
          "name": "publicKey",
          "type": "bytes"
        },
        {
          "internalType": "address",
          "name": "publicKeyHash",
          "type": "address"
        },
        {
          "internalType": "address",
          "name": "prerotatedKeyHash",
          "type": "address"
        },
        {
          "internalType": "address",
          "name": "twicePrerotatedKeyHash",
          "type": "address"
        },
        {
          "internalType": "address",
          "name": "prevPublicKeyHash",
          "type": "address"
        },
        {
          "internalType": "address",
          "name": "outputAddress",
          "type": "address"
        },
        {
          "internalType": "bool",
          "name": "hasRelationship",
          "type": "bool"
        },
        {
          "components": [
            {
              "internalType": "address",
              "name": "token",
              "type": "address"
            },
            {
              "internalType": "uint256",
              "name": "amount",
              "type": "uint256"
            },
            {
              "internalType": "uint256",
              "name": "deadline",
              "type": "uint256"
            },
            {
              "internalType": "uint8",
              "name": "v",
              "type": "uint8"
            },
            {
              "internalType": "bytes32",
              "name": "r",
              "type": "bytes32"
            },
            {
              "internalType": "bytes32",
              "name": "s",
              "type": "bytes32"
            },
            {
              "internalType": "address",
              "name": "recipient",
              "type": "address"
            }
          ],
          "internalType": "struct Bridge.PermitData[]",
          "name": "permits",
          "type": "tuple[]"
        }
      ],
      "name": "registerKeyWithTransfer",
      "outputs": [],
      "stateMutability": "payable",
      "type": "function"
    },
    {
      "inputs": [],
      "name": "relayer",
      "outputs": [
        {
          "internalType": "address",
          "name": "",
          "type": "address"
        }
      ],
      "stateMutability": "view",
      "type": "function"
    },
    {
      "inputs": [],
      "name": "renounceOwnership",
      "outputs": [],
      "stateMutability": "nonpayable",
      "type": "function"
    },
    {
      "inputs": [
        {
          "internalType": "address",
          "name": "_feeCollector",
          "type": "address"
        }
      ],
      "name": "setFeeCollector",
      "outputs": [],
      "stateMutability": "nonpayable",
      "type": "function"
    },
    {
      "inputs": [
        {
          "internalType": "uint256",
          "name": "_feePercentage",
          "type": "uint256"
        }
      ],
      "name": "setFeePercentage",
      "outputs": [],
      "stateMutability": "nonpayable",
      "type": "function"
    },
    {
      "inputs": [
        {
          "internalType": "address",
          "name": "_relayer",
          "type": "address"
        }
      ],
      "name": "setRelayer",
      "outputs": [],
      "stateMutability": "nonpayable",
      "type": "function"
    },
    {
      "inputs": [
        {
          "internalType": "address",
          "name": "token",
          "type": "address"
        },
        {
          "internalType": "address",
          "name": "priceFeed",
          "type": "address"
        }
      ],
      "name": "setTokenPriceFeed",
      "outputs": [],
      "stateMutability": "nonpayable",
      "type": "function"
    },
    {
      "inputs": [
        {
          "internalType": "uint256",
          "name": "",
          "type": "uint256"
        }
      ],
      "name": "supportedOriginalTokens",
      "outputs": [
        {
          "internalType": "address",
          "name": "",
          "type": "address"
        }
      ],
      "stateMutability": "view",
      "type": "function"
    },
    {
      "inputs": [
        {
          "internalType": "address",
          "name": "",
          "type": "address"
        }
      ],
      "name": "tokenPairs",
      "outputs": [
        {
          "internalType": "address",
          "name": "originalToken",
          "type": "address"
        },
        {
          "internalType": "address",
          "name": "wrappedToken",
          "type": "address"
        },
        {
          "internalType": "bool",
          "name": "isCrossChain",
          "type": "bool"
        }
      ],
      "stateMutability": "view",
      "type": "function"
    },
    {
      "inputs": [
        {
          "internalType": "address",
          "name": "",
          "type": "address"
        }
      ],
      "name": "tokenPriceFeeds",
      "outputs": [
        {
          "internalType": "contract AggregatorV3Interface",
          "name": "",
          "type": "address"
        }
      ],
      "stateMutability": "view",
      "type": "function"
    },
    {
      "inputs": [
        {
          "internalType": "address",
          "name": "newOwner",
          "type": "address"
        }
      ],
      "name": "transferOwnership",
      "outputs": [],
      "stateMutability": "nonpayable",
      "type": "function"
    },
    {
      "inputs": [
        {
          "internalType": "address",
          "name": "wrappedToken",
          "type": "address"
        },
        {
          "components": [
            {
              "internalType": "uint256",
              "name": "amount",
              "type": "uint256"
            },
            {
              "internalType": "bytes",
              "name": "signature",
              "type": "bytes"
            },
            {
              "internalType": "bytes",
              "name": "publicKey",
              "type": "bytes"
            },
            {
              "internalType": "address",
              "name": "prerotatedKeyHash",
              "type": "address"
            },
            {
              "internalType": "address",
              "name": "twicePrerotatedKeyHash",
              "type": "address"
            },
            {
              "internalType": "address",
              "name": "prevPublicKeyHash",
              "type": "address"
            },
            {
              "internalType": "address",
              "name": "targetAddress",
              "type": "address"
            },
            {
              "internalType": "bool",
              "name": "hasRelationship",
              "type": "bool"
            },
            {
              "internalType": "address",
              "name": "tokenSource",
              "type": "address"
            },
            {
              "components": [
                {
                  "internalType": "address",
                  "name": "token",
                  "type": "address"
                },
                {
                  "internalType": "uint256",
                  "name": "amount",
                  "type": "uint256"
                },
                {
                  "internalType": "uint256",
                  "name": "deadline",
                  "type": "uint256"
                },
                {
                  "internalType": "uint8",
                  "name": "v",
                  "type": "uint8"
                },
                {
                  "internalType": "bytes32",
                  "name": "r",
                  "type": "bytes32"
                },
                {
                  "internalType": "bytes32",
                  "name": "s",
                  "type": "bytes32"
                },
                {
                  "internalType": "address",
                  "name": "recipient",
                  "type": "address"
                }
              ],
              "internalType": "struct Bridge.PermitData[]",
              "name": "permits",
              "type": "tuple[]"
            }
          ],
          "internalType": "struct Bridge.Params",
          "name": "unconfirmed",
          "type": "tuple"
        },
        {
          "components": [
            {
              "internalType": "uint256",
              "name": "amount",
              "type": "uint256"
            },
            {
              "internalType": "bytes",
              "name": "signature",
              "type": "bytes"
            },
            {
              "internalType": "bytes",
              "name": "publicKey",
              "type": "bytes"
            },
            {
              "internalType": "address",
              "name": "prerotatedKeyHash",
              "type": "address"
            },
            {
              "internalType": "address",
              "name": "twicePrerotatedKeyHash",
              "type": "address"
            },
            {
              "internalType": "address",
              "name": "prevPublicKeyHash",
              "type": "address"
            },
            {
              "internalType": "address",
              "name": "targetAddress",
              "type": "address"
            },
            {
              "internalType": "bool",
              "name": "hasRelationship",
              "type": "bool"
            },
            {
              "internalType": "address",
              "name": "tokenSource",
              "type": "address"
            },
            {
              "components": [
                {
                  "internalType": "address",
                  "name": "token",
                  "type": "address"
                },
                {
                  "internalType": "uint256",
                  "name": "amount",
                  "type": "uint256"
                },
                {
                  "internalType": "uint256",
                  "name": "deadline",
                  "type": "uint256"
                },
                {
                  "internalType": "uint8",
                  "name": "v",
                  "type": "uint8"
                },
                {
                  "internalType": "bytes32",
                  "name": "r",
                  "type": "bytes32"
                },
                {
                  "internalType": "bytes32",
                  "name": "s",
                  "type": "bytes32"
                },
                {
                  "internalType": "address",
                  "name": "recipient",
                  "type": "address"
                }
              ],
              "internalType": "struct Bridge.PermitData[]",
              "name": "permits",
              "type": "tuple[]"
            }
          ],
          "internalType": "struct Bridge.Params",
          "name": "confirming",
          "type": "tuple"
        }
      ],
      "name": "unwrapPairWithTransfer",
      "outputs": [],
      "stateMutability": "payable",
      "type": "function"
    },
    {
      "inputs": [
        {
          "internalType": "address",
          "name": "newImplementation",
          "type": "address"
        },
        {
          "internalType": "bytes",
          "name": "data",
          "type": "bytes"
        }
      ],
      "name": "upgradeToAndCall",
      "outputs": [],
      "stateMutability": "payable",
      "type": "function"
    },
    {
      "inputs": [
        {
          "internalType": "address",
          "name": "originalToken",
          "type": "address"
        },
        {
          "components": [
            {
              "internalType": "uint256",
              "name": "amount",
              "type": "uint256"
            },
            {
              "internalType": "bytes",
              "name": "signature",
              "type": "bytes"
            },
            {
              "internalType": "bytes",
              "name": "publicKey",
              "type": "bytes"
            },
            {
              "internalType": "address",
              "name": "prerotatedKeyHash",
              "type": "address"
            },
            {
              "internalType": "address",
              "name": "twicePrerotatedKeyHash",
              "type": "address"
            },
            {
              "internalType": "address",
              "name": "prevPublicKeyHash",
              "type": "address"
            },
            {
              "internalType": "address",
              "name": "targetAddress",
              "type": "address"
            },
            {
              "internalType": "bool",
              "name": "hasRelationship",
              "type": "bool"
            },
            {
              "internalType": "address",
              "name": "tokenSource",
              "type": "address"
            },
            {
              "components": [
                {
                  "internalType": "address",
                  "name": "token",
                  "type": "address"
                },
                {
                  "internalType": "uint256",
                  "name": "amount",
                  "type": "uint256"
                },
                {
                  "internalType": "uint256",
                  "name": "deadline",
                  "type": "uint256"
                },
                {
                  "internalType": "uint8",
                  "name": "v",
                  "type": "uint8"
                },
                {
                  "internalType": "bytes32",
                  "name": "r",
                  "type": "bytes32"
                },
                {
                  "internalType": "bytes32",
                  "name": "s",
                  "type": "bytes32"
                },
                {
                  "internalType": "address",
                  "name": "recipient",
                  "type": "address"
                }
              ],
              "internalType": "struct Bridge.PermitData[]",
              "name": "permits",
              "type": "tuple[]"
            }
          ],
          "internalType": "struct Bridge.Params",
          "name": "unconfirmed",
          "type": "tuple"
        },
        {
          "components": [
            {
              "internalType": "uint256",
              "name": "amount",
              "type": "uint256"
            },
            {
              "internalType": "bytes",
              "name": "signature",
              "type": "bytes"
            },
            {
              "internalType": "bytes",
              "name": "publicKey",
              "type": "bytes"
            },
            {
              "internalType": "address",
              "name": "prerotatedKeyHash",
              "type": "address"
            },
            {
              "internalType": "address",
              "name": "twicePrerotatedKeyHash",
              "type": "address"
            },
            {
              "internalType": "address",
              "name": "prevPublicKeyHash",
              "type": "address"
            },
            {
              "internalType": "address",
              "name": "targetAddress",
              "type": "address"
            },
            {
              "internalType": "bool",
              "name": "hasRelationship",
              "type": "bool"
            },
            {
              "internalType": "address",
              "name": "tokenSource",
              "type": "address"
            },
            {
              "components": [
                {
                  "internalType": "address",
                  "name": "token",
                  "type": "address"
                },
                {
                  "internalType": "uint256",
                  "name": "amount",
                  "type": "uint256"
                },
                {
                  "internalType": "uint256",
                  "name": "deadline",
                  "type": "uint256"
                },
                {
                  "internalType": "uint8",
                  "name": "v",
                  "type": "uint8"
                },
                {
                  "internalType": "bytes32",
                  "name": "r",
                  "type": "bytes32"
                },
                {
                  "internalType": "bytes32",
                  "name": "s",
                  "type": "bytes32"
                },
                {
                  "internalType": "address",
                  "name": "recipient",
                  "type": "address"
                }
              ],
              "internalType": "struct Bridge.PermitData[]",
              "name": "permits",
              "type": "tuple[]"
            }
          ],
          "internalType": "struct Bridge.Params",
          "name": "confirming",
          "type": "tuple"
        }
      ],
      "name": "wrapPairWithTransfer",
      "outputs": [],
      "stateMutability": "payable",
      "type": "function"
    }
  ],
  "bytecode": "0x60a0806040523461002a5730608052615f81908161003082396080518181816127d0015261287f0152f35b600080fdfe60808060405260043610156200001457600080fd5b600090813560e01c908163081da8c114620038dd5750806309765f5314620038ac578063276c1ac0146200385e578063334976c714620036f35780633d186d6e1462002ab357806347bbbdf51462002a545780634f1ef286146200283b57806352d1902d14620027bb57806360fc437a14620025485780636548e9bc1462002502578063674417ae14620024a0578063684913a21462001ed6578063715018a61462001e775780637ecebe001462001e3a5780638406c0791462001e0f5780638d6429b014620012755780638da5cb5b146200123c578063a001ecdd146200121c578063a42dce801462001192578063ad3cb1cc1462001131578063ae06c1b714620010cc578063b5057a7b14620010a3578063bd9c47e31462001063578063c415b95c1462001038578063c4d66de81462000e94578063d3c7c2c71462000dc6578063d73792a91462000da7578063d8397fd51462000d5e578063f2fde38b1462000cda578063f9baf7bf1462000cb45763fcc93938146200019657600080fd5b60031960603682011262000cb0576001600160401b036004351162000cb05736602360043501121562000cb0576001600160401b03600435600401351162000cb0573660246004356004013560051b60043501011162000cb0576001600160401b036024351162000cb0576101209081816024353603011262000c5f576001600160401b036044351162000c5f576044353603011262000cad576200023a620042da565b6200024462004315565b600435600401351562000c775733815260056020526040812054620002dc620002d6620002cf6200027a60446024350162003cf0565b604051620002af81620002a08860208301956004356004013560246004350188620041ad565b03601f198101835282620039ce565b519020620002c36004602435018062003d05565b92903393369162003a0c565b9062004347565b62003d3a565b620002ec60446024350162003cf0565b60018201821162000c6357620002cf6200038192620002a0620003306200037b946040519283916001602084019601906004356004013560246004350188620041ad565b519020620003446004604435018062003d05565b9290620003726200036c6200036460246044350160443560040162003d05565b369162003a0c565b62003bc5565b93369162003a0c565b62003dab565b6200039160a46024350162003cf0565b50620003b5620003ad6101046024350160243560040162003e1b565b369162003edf565b506200040762000400620003ce60a46024350162003cf0565b620003e56101046024350160243560040162003e1b565b9290620003f760c46044350162003cf0565b93369162003edf565b9062004a11565b805b600654811015620005fe576200041f8162003b2a565b905460039190911b1c6001600160a01b0316906200044260243560440162003cf0565b6040516370a0823160e01b81526001600160a01b03909116600482015291602083602481845afa928315620005f3578493620005b4575b50826200048d575b50600191500162000409565b826020620004a060446024350162003cf0565b620004b060c46044350162003cf0565b6040516323b872dd60e01b81526001600160a01b0392831660048201529116602482015260448101959095528460648188865af1938415620005a95785946200055c575b506200050260019462003f4e565b60008051602062005ecc8339815191526080858060a01b036200052a60446024350162003cf0565b169260405190815260406020820152600b60408201526a151c985b9cd9995c9c995960aa1b6060820152a33862000481565b93506020843d602011620005a0575b816200057a60209383620039ce565b810103126200059c57620005026200059460019562003e0d565b9450620004f4565b8480fd5b3d91506200056b565b6040513d87823e3d90fd5b9092506020813d602011620005ea575b81620005d360209383620039ce565b81010312620005e55751913862000479565b600080fd5b3d9150620005c4565b6040513d86823e3d90fd5b50805b6004356004013581106200088b57506200070f62000629602480350160243560040162003d05565b6200063c60646024949394350162003cf0565b926200064d60846024350162003cf0565b6200065d60a46024350162003cf0565b946200066e60c46024350162003cf0565b916200067f60e46024350162003fb3565b6200069560246044350160443560040162003d05565b91909460646044350199620006aa8b62003cf0565b94620006bb60846044350162003cf0565b9662000708620006d060a46044350162003cf0565b99620006ff620006e560c46044350162003cf0565b9c620006f660e46044350162003fb3565b9e369162003a0c565b97369162003a0c565b9562004bee565b6001600160a01b0380620007238362003cf0565b16620007ce575b5033825260056020526040822080549060028201809211620007ba5755813462000765575b600160008051602062005f2c8339815191525580f35b8080806200078c9462000779349162003cf0565b5af16200078562004039565b506200406e565b8060405160008051602062005ecc833981519152339180620007af3482620040b1565b0390a338816200074f565b634e487b7160e01b84526011600452602484fd5b620007d98262003cf0565b90620007e4620042da565b8082169182156200085757600280546001600160a01b03191684179055620008169062000810620042da565b62004cd7565b8060008051602062005eec83398151915254169060008051602062005f0c8339815191529282848780a36200084b8462003cf0565b16918480a3386200072a565b60405162461bcd60e51b815260206004820152600c60248201526b5a65726f206164647265737360a01b6044820152606490fd5b60248160051b6004350101359060e21960043536030182121562000c5f5760c060043583013603602319011262000c5f57604051918260c08101106001600160401b0360c08501111762000c495760c08301604052620008f2602482600435010162003989565b83526001600160401b036044826004350101351162000c45576200092436600435830160448101350160240162003a48565b60208401526001600160401b036064826004350101351162000c45576200095936600435830160648101350160240162003a48565b604084015262000970608482600435010162003a69565b6060840152620009a060c46200098d60a484600435010162003989565b9260808601938452600435010162003989565b60a084015282516001600160a01b03908116855260046020526040852060010154620009ce91161562003c1d565b516001600160a01b0316801562000b83575b825160608401516040516001959290911515906001600160a01b031662000a07836200399e565b825260a086811b87900385811660208086019182526040808701958652875184168c526004909152808b20955186549084166001600160a01b0319909116178655905194890180549451151590931b60ff60a01b9081169583166001600160a81b031995861617959095179092558451606086015192519492151593911662000a90856200399e565b845260a088811b89900387811660208088018281526040808a01988952928e526004909152908c20965187546001600160a01b03191690831617875551958a01805495519390951695811695909517911515901b909116179055815162000af8911662003c5e565b838060a01b0360a0820151168062000b56575b507f758dfacc83ebfb4bfce0ab7d6fb0aadf34a957bf53e9d33c110877c447f6fcbb60206060868060a01b03845116930151151593604051948552868060a01b031693a30162000601565b848060a01b038251168652600860205260408620906001600160601b0360a01b8254161790553862000b0b565b506020820151604083015160018060a01b03855416906040519283610f5d8101106001600160401b03610f5d8601111762000c315783929162000bdf62000bf692610f5d62004f6f87396080610f5d8701818152019062003b03565b90610f5d850182036020610f5d8701015262003b03565b90306040610f5d850101526060610f5d84010152039084f091821562000c2657916001600160a01b0316620009e0565b6040513d85823e3d90fd5b634e487b7160e01b87526041600452602487fd5b8380fd5b634e487b7160e01b600052604160045260246000fd5b8280fd5b634e487b7160e01b83526011600452602483fd5b60405162461bcd60e51b815260206004820152600e60248201526d4e6f20746f6b656e20706169727360901b6044820152606490fd5b80fd5b5080fd5b503462000cad578060031936011262000cad576020604051683635c9adc5dea000008152f35b503462000cad57602036600319011262000cad5762000cf86200395b565b62000d02620042da565b6001600160a01b038181169182156200085757600280546001600160a01b0319168417905562000d369062000810620042da565b60008051602062005eec833981519152541660008051602062005f0c8339815191528380a380f35b503462000cad57602036600319011262000cad576004359060065482101562000cad57602062000d8e8362003b2a565b905460405160039290921b1c6001600160a01b03168152f35b503462000cad578060031936011262000cad5760206040516127108152f35b503462000cad578060031936011262000cad5760405180916006549081835260208093018092600683527ff652222313e28459528d920b65115c16c04f3efc82aaedc97be59f3f377c0d3f90835b81811062000e76575050508462000e2d910385620039ce565b60405193838594850191818652518092526040850193925b82811062000e5557505050500390f35b83516001600160a01b03168552869550938101939281019260010162000e45565b82546001600160a01b03168452928601926001928301920162000e14565b503462000cad57602036600319011262000cad5762000eb26200395b565b7ff0c57e16840df040f15088dc2f81fe391c3923bec73e23a9662efc9c229c6a009081549060ff8260401c1615916001600160401b038116801590816200102f575b600114908162001024575b1590816200101a575b50620010085767ffffffffffffffff19811660011784558262000fe8575b5062000f3162004d74565b62000f3b62004d74565b62000f463362004cd7565b62000f5062004d74565b62000f5a62004d74565b62000f6462004d74565b600160008051602062005f2c833981519152556001600160601b0360a01b9060018060a01b03168185541617845533906002541617600255600160035562000faa575080f35b68ff00000000000000001981541690557fc7f505b2f371ae2175ee4913f4499e1f2633a7b5936321eed1cdaeb6115181d2602060405160018152a180f35b68ffffffffffffffffff1916680100000000000000011783553862000f26565b60405163f92ee8a960e01b8152600490fd5b9050153862000f08565b303b15915062000eff565b84915062000ef4565b503462000cad578060031936011262000cad576002546040516001600160a01b039091168152602090f35b503462000cad57602036600319011262000cad576020906001600160a01b039060409082620010916200395b565b16815260088452205416604051908152f35b503462000cad578060031936011262000cad57546040516001600160a01b039091168152602090f35b503462000cad57602036600319011262000cad57600435620010ed620042da565b6127108111620010fd5760035580f35b60405162461bcd60e51b815260206004820152600c60248201526b08ccaca40e8dede40d0d2ced60a31b6044820152606490fd5b503462000cad578060031936011262000cad5760405160408101908082106001600160401b0383111762000c49576200118e9160405260058152640352e302e360dc1b602082015260405191829160208352602083019062003b03565b0390f35b503462000cad57602036600319011262000cad57620011b06200395b565b620011ba620042da565b6001600160a01b03168015620011e0576001600160601b0360a01b600254161760025580f35b60405162461bcd60e51b815260206004820152601460248201527324b73b30b634b2103332b2a1b7b63632b1ba37b960611b6044820152606490fd5b503462000cad578060031936011262000cad576020600354604051908152f35b503462000cad578060031936011262000cad5760008051602062005eec833981519152546040516001600160a01b039091168152602090f35b50620012813662003a77565b92916200128d62004315565b6001600160a01b03811683526004602052604080842090519190620012eb90620012b7846200399e565b80546001600160a01b0390811680865260019290920154908116602086015260a01c60ff1615156040850152151562003b78565b604082015115801562001dec575b801562001dd7575b6200130c9062003ca3565b338452600560205260408420546200139c620002d6620002cf6200133360c0880162003cf0565b604080516001600160a01b03808916602083019081528b359383019390935290921660608301526080820186905290620013718160a08101620002a0565b51902062001383602089018962003d05565b9290620003726200036c6200036460408d018d62003d05565b620013aa60c0870162003cf0565b60018201821162001dc357604080516001600160a01b03858116602083019081528a359383019390935292909216606083015260018301608080840191909152825290620013fa60a082620039ce565b5190206200140c602088018862003d05565b906200141c60408a018a62003d05565b3690620014299262003a0c565b620014349062003bc5565b913690620014429262003a0c565b6200144d9262004347565b620014589062003dab565b6101208401826200146a828762003e1b565b3690620014779262003edf565b620014839133620046f2565b6200148f908562003e1b565b906200149e6060890162003cf0565b913690620014ac9262003edf565b620014b991903362004a11565b620014c8604085018562003d05565b87620014d76060880162003cf0565b92620014e66080890162003cf0565b620014f460a08a0162003cf0565b906200150360c08b0162003cf0565b956200151260e08c0162003fb3565b62001521604087018762003d05565b989094620015326060890162003cf0565b946200154160808a0162003cf0565b966200155060a08b0162003cf0565b986200155f60c08c0162003cf0565b9a60e0016200156e9062003fb3565b9b36906200157c9262003a0c565b9b36906200158a9262003a0c565b94620015969b62004bee565b60008051602062005eec833981519152546001600160a01b031633148062001da3575b62001cf6575b6002810180911162001ce2573385526005602052604085205582351562001caa5760408201511562001ca357620015f960c0840162003cf0565b6001600160a01b0382163b156200059c57604051632770a7eb60e21b81526001600160a01b03918216600482015284356024820152918591839160449183918591165af18015620005f35790849162001c8b575b5050805162001668908335906001600160a01b0316620043f8565b91828082351160001462001c81576200168291356200402b565b915b60408201511562001ab457505160408051928352602083018190526010908301526f2ab73bb930b821b937b9b9a1b430b4b760811b60608301526001600160a01b031690339060008051602062005ecc83398151915290608090a3905b815b60065483101562001a5157620016f98362003b2a565b60018060a01b0391549060031b1c16928382526004602052604082209360ff60016040519662001729886200399e565b818060a01b038154168852015460018060a01b038116602088015260a01c16151560408601526040516370a0823160e01b8152336004820152602081602481855afa908115620005f357849162001a19575b50806200193c575b505060208401516001600160a01b03169384620017a7575b506001019250620016e3565b6020602495604051968780926370a0823160e01b82523360048301525afa94851562000c2657839562001902575b5084156200179b576020818101516200184096919082906001600160a01b0316620018036060890162003cf0565b6040516323b872dd60e01b81523360048201526001600160a01b039091166024820152604481019290925290978891908290889082906064820190565b03925af1958615620005f3578496620018b5575b5062001864600194959662003f4e565b60008051602062005ecc833981519152620018a9620018866060890162003cf0565b936020878060a01b039101511693604051918291888060a01b0316948262004004565b0390a38392916200179b565b95506020863d602011620018f9575b81620018d360209383620039ce565b8101031262000c455762001864620018ef600195969762003e0d565b9695945062001854565b3d9150620018c4565b9094506020813d60201162001933575b816200192160209383620039ce565b81010312620005e557519338620017d5565b3d915062001912565b62001988602082620019516060890162003cf0565b6040516323b872dd60e01b81523360048201526001600160a01b039091166024820152604481019190915291829081906064820190565b038188875af18015620005a9578590620019d5575b620019a9915062003f4e565b60008051602062005ecc83398151915260405180620019ca33948262003f8d565b0390a3388062001783565b506020813d60201162001a10575b81620019f260209383620039ce565b810103126200059c5762001a0a620019a99162003e0d565b6200199d565b3d9150620019e3565b90506020813d60201162001a48575b8162001a3760209383620039ce565b81010312620005e55751386200177b565b3d915062001a28565b90813462001a6f57600160008051602062005f2c8339815191525580f35b80808062001a869462000779606034920162003cf0565b8060405160008051602062005ecc83398151915233918062001aa93482620040b1565b0390a381816200074f565b8062001b99575b508162001acc575b505090620016e1565b5162001b23916020916001600160a01b031662001aec6060870162003cf0565b60405163a9059cbb60e01b81526001600160a01b039091166004820152602481019290925290928391908290869082906044820190565b03925af1801562001b8e57829062001b4a575b62001b42915062003f4e565b388062001ac3565b506020813d60201162001b85575b8162001b6760209383620039ce565b8101031262000cb05762001b7f62001b429162003e0d565b62001b36565b3d915062001b58565b6040513d84823e3d90fd5b815160025460405163a9059cbb60e01b81526001600160a01b0391821660048201526024810184905291602091839160449183918a91165af18015620005a957859062001c3d575b62001bed915062003fc1565b600254825160408051938452602084018190526003908401526246656560e81b60608401526001600160a01b039081169291169060008051602062005ecc83398151915290608090a33862001abb565b506020813d60201162001c78575b8162001c5a60209383620039ce565b810103126200059c5762001c7262001bed9162003e0d565b62001be1565b3d915062001c4b565b5050829162001684565b62001c9690620039ba565b62000c5f5782386200164d565b33620015f9565b60405162461bcd60e51b815260206004820152601060248201526f4275726e20616d6f756e74207a65726f60801b6044820152606490fd5b634e487b7160e01b85526011600452602485fd5b62001d046060870162003cf0565b62001d0e620042da565b6001600160a01b038116156200085757600280546001600160a01b0319166001600160a01b03831617905562001d43620042da565b62001d4e8162004cd7565b60008051602062005eec8339815191525460008051602062005f0c833981519152916001600160a01b03918216911681838980a36001600160a01b0362001d9860608a0162003cf0565b16918780a3620015bf565b506001600160a01b0362001dba6060880162003cf0565b161515620015b9565b634e487b7160e01b86526011600452602486fd5b506001546001600160a01b0316331462001301565b5060008051602062005eec833981519152546001600160a01b03163314620012f9565b503462000cad578060031936011262000cad576001546040516001600160a01b039091168152602090f35b503462000cad57602036600319011262000cad576020906040906001600160a01b0362001e666200395b565b168152600583522054604051908152f35b503462000cad578060031936011262000cad5762001e94620042da565b60008051602062005eec83398151915280546001600160a01b031981169091556000906001600160a01b031660008051602062005f0c8339815191528280a380f35b506003199060403683011262000cad57600435906001600160401b0380831162000cb05782600401906101408086863603011262000c45576024956024359283116200059c57823603011262000c5f5762001f3062004315565b61012484019162001f46620003ad848362003e1b565b508391845b62001f57858462003e1b565b9050811015620020f45762001f6d858462003e1b565b821015620020e15762001f8790369060e084020162003e53565b6020808201918251151580620020bf575b62001faa575b50505060010162001f4b565b80519296926001600160a01b0392908316620020845762001fcd88518562003d87565b34106200204e575060019392620020158a808080809760c06200201e980162001ffb828251161515620040d4565b51168d5190617530f16200200e62004039565b5062004115565b87519062003d87565b955160008051602062005ecc8339815191526040518062002041339482620040b1565b0390a35b90388062001f9e565b60649060108d6040519262461bcd60e51b845260048401528201526f24b739bab33334b1b4b2b73a1021272160811b6044820152fd5b50600193929650620020b260c091620020b993620020a38b8a62003e1b565b94909201511692369162003edf565b3362004a11565b62002045565b5080516001600160a01b0316158062001f985750604081015142111562001f98565b634e487b7160e01b875260326004528887fd5b508285888885835b6006548110156200226957620021128162003b2a565b90546040516370a0823160e01b815233600482015260039290921b1c6001600160a01b031690602080828881865afa9182156200225e57889262002229575b50898262002167575b50505050600101620020fc565b81836200195160c46200217b940162003cf0565b03818c885af19182156200221e578992620021d1575b505090620021a3600194939262003f4e565b60008051602062005ecc83398151915260405180620021c433948262003f8d565b0390a3908880896200215a565b90809250813d831162002216575b620021eb8183620039ce565b81010312620022125790620021a362002208600195949362003e0d565b9192939462002191565b8780fd5b503d620021df565b6040513d8b823e3d90fd5b9080925081813d831162002256575b620022448183620039ce565b81010312620005e55751908a62002151565b503d62002238565b6040513d8a823e3d90fd5b84838884838a8034116200241c575b505060008051602062005eec83398151915280546001600160a01b0390811633148062002403575b62002388575b505060448301620022b79162003d05565b9190620022c76064850162003cf0565b620022d56084860162003cf0565b620022e360a4870162003cf0565b91620022f260c4880162003cf0565b9660e401620023019062003fb3565b62002313604487016004880162003d05565b989094620023246064890162003cf0565b946200233360848a0162003cf0565b966200234260a48b0162003cf0565b986200235160c48c0162003cf0565b9a60e401620023609062003fb3565b9b36906200236e9262003a0c565b9b36906200237c9262003a0c565b946200074f9b62004bee565b6064840190620023988262003cf0565b92620023a3620042da565b8184169384156200085757620023f691620023d78492876001600160601b0360a01b600254161760025562000810620042da565b54169260008051602062005f0c8339815191529484868b80a362003cf0565b16918680a38480620022a6565b5080620024136064860162003cf0565b161515620022a0565b6200242890346200402b565b801562002278576200247482808080856200246660c48b01620024606001600160a01b03620024578362003cf0565b161515620040d4565b62003cf0565b617530f16200200e62004039565b60008051602062005ecc8339815191526040518062002495339482620040b1565b0390a3838562002278565b503462000cad57604036600319011262000cad57620024be6200395b565b620024c862003972565b90620024d3620042da565b6001600160a01b03908116835260086020526040832080546001600160a01b0319169290911691909117905580f35b503462000cad57602036600319011262000cad57620025206200395b565b6200252a620042da565b60018060a01b03166001600160601b0360a01b600154161760015580f35b5061010036600319011262000cad576001600160401b0360043581811162000c5f576200257a90369060040162003a48565b6200258462003972565b6001600160a01b0360443581811693848203620005e557606435838116809103620005e55760843591848316809303620005e55760a4359585871696878103620005e55760c43595861515809703620005e5578b9a60e435818111620027b75736602382011215620027b7578060040135918211620027b75760248101906024369160e08502010111620027b757620020b284916200263d936200262762004315565b6200263436828462003edf565b50369162003edf565b60008051602062005eec83398151915233898254161480620027ad575b6200274f575b505089346200270b575b879150541694853b1562002707578997620026a79589956040519b8c9a8b998a9863151cdb2f60e11b8a5260e060048b015260e48a019062003b03565b9616602488015260448701526064860152608485015260a484015260c483015203925af1801562001b8e57620026ef575b50600160008051602062005f2c8339815191525580f35b620026fa90620039ba565b62000cad578038620026d8565b8980fd5b808080620027219434905af16200078562004039565b8860405160008051602062005ecc833981519152339180620027443482620040b1565b0390a338896200266a565b909a506200275c620042da565b89156200085757878a916200278a8e9d846001600160601b0360a01b600254161760025562000810620042da565b541660008051602062005f0c8339815191528282828f80a38c80a3388062002660565b508a15156200265a565b8c80fd5b503462000cad578060031936011262000cad577f00000000000000000000000000000000000000000000000000000000000000006001600160a01b03163003620028295760206040517f360894a13ba1a3210667c828492db98dca3e2076cc3735a920a3ca505d382bbc8152f35b60405163703e46dd60e11b8152600490fd5b50604036600319011262000cad57620028536200395b565b6024356001600160401b03811162000c5f576200287590369060040162003a48565b6001600160a01b037f0000000000000000000000000000000000000000000000000000000000000000811630811490811562002a25575b506200282957620028bc620042da565b8216916040516352d1902d60e01b8152602081600481875afa859181620029e7575b50620028fd57604051634c9c8ce360e01b815260048101859052602490fd5b9284937f360894a13ba1a3210667c828492db98dca3e2076cc3735a920a3ca505d382bbc90818103620029cf5750823b15620029b65780546001600160a01b0319168217905560405184917fbc7cd75a20ee27fd9adebab32041f755214dbc6bffa90cc0225b39da2e5c2d3b8380a2835115620029995750808360206200299595519101845af46200298e62004039565b9162004f06565b5080f35b9250505034620029a7575080f35b63b398979f60e01b8152600490fd5b604051634c9c8ce360e01b815260048101839052602490fd5b60249060405190632a87526960e21b82526004820152fd5b9091506020813d60201162002a1c575b8162002a0660209383620039ce565b8101031262002a1857519038620028de565b8580fd5b3d9150620029f7565b9050817f360894a13ba1a3210667c828492db98dca3e2076cc3735a920a3ca505d382bbc5416141538620028ac565b503462000cad57602036600319011262000cad576060906001600160a01b039060ff906040908362002a856200395b565b16815260046020522091600181845416930154906040519384528116602084015260a01c1615156040820152f35b5062002abf3662003a77565b9162002aca62004315565b6001600160a01b0381168452600460205260408085209051929062002b299060019062002af7866200399e565b818060a01b038154168652015460ff60018060a01b0382169182602088015260a01c1615156040860152151562003b78565b6040830151158015620036d0575b8015620036bb575b62002b4a9062003ca3565b338552600560205260408520549162002bc2620002d6620002cf62002b7260c0860162003cf0565b604080516001600160a01b03808816602083019081528935938301939093529092166060830152608082018890529062002bb08160a08101620002a0565b519020620002c3602087018762003d05565b62002bd060c0860162003cf0565b6001840184116200317e57604080516001600160a01b0380851660208301908152893593830193909352909216606083015260018501608083015262002c54916200037b91620002cf9162002c298160a08101620002a0565b51902062002c3b60208a018a62003d05565b9290620003726200036c6200036460408e018e62003d05565b85546001600160a01b031661012062002c7060c0850162003cf0565b6040516324b9c44160e21b81526001600160a01b03909116600482015291829060249082905afa80156200316657879188916200359b575b506200352a575b5062002cbe8535833562003d87565b9262002ccb8483620043f8565b93848110620034f45780151580620034e7575b62003400575b5062002d1c6200040062002cfc610100860162003cf0565b62002d0c61012087018762003e1b565b9290620003f760608c0162003cf0565b6040850151156200325f575b62002d37604084018462003d05565b8762002d466060870162003cf0565b9262002d556080880162003cf0565b62002d6360a0890162003cf0565b9062002d7260c08a0162003cf0565b9562002d8160e08b0162003fb3565b62002d90604087018762003d05565b98909462002da16060890162003cf0565b9462002db060808a0162003cf0565b9662002dbf60a08b0162003cf0565b9862002dce60c08c0162003cf0565b9a60e00162002ddd9062003fb3565b9b369062002deb9262003a0c565b9b369062002df99262003a0c565b9462002e059b62004bee565b60008051602062005eec833981519152546001600160a01b03163314806200323f575b62003192575b600281018091116200317e57338752600560205260408720558215158062003171575b62003069575b50803562002f91575b508083351160001462002f895762002e7a9083356200402b565b8062002eb7575b5050813462002ea057600160008051602062005f2c8339815191525580f35b8080806200078c9462000779606034920162003cf0565b602082015184906001600160a01b031662002ed56060860162003cf0565b90803b1562000c5f576040516340c10f1960e01b81526001600160a01b039290921660048301526024820184905282908290604490829084905af1801562001b8e5762002f71575b505060008051602062005ecc83398151915262002f6662002f416060860162003cf0565b6020909401516040516001600160a01b03918216959190911693909182918262004004565b0390a3388062002e81565b62002f7c90620039ba565b62000c4557833862002f1d565b508262002e7a565b602083015185906001600160a01b031662002faf60c0840162003cf0565b813b1562000c5f576040516340c10f1960e01b81526001600160a01b039190911660048201528335602482015291908290604490829084905af180156200305e5762003048575b506200300560c0820162003cf0565b60208401516040516001600160a01b0391821693919092169160008051602062005ecc8339815191529181906200303e90358262004004565b0390a33862002e60565b6200305690959195620039ba565b933862002ff6565b6040513d88823e3d90fd5b60025460405163a9059cbb60e01b81526001600160a01b03909116600482015260248101849052602081806044810103818a6001600160a01b0387165af18015620031665787906200311e575b620030c2915062003fc1565b60018060a01b036002541660008051602062005ecc8339815191526040519260018060a01b03169280620031148782608091815260406020820152600360408201526246656560e81b60608201520190565b0390a33862002e57565b506020813d6020116200315d575b816200313b60209383620039ce565b81010312620031595762003153620030c29162003e0d565b620030b6565b8680fd5b3d91506200312c565b6040513d89823e3d90fd5b5060408401511562002e51565b634e487b7160e01b87526011600452602487fd5b620031a06060870162003cf0565b620031aa620042da565b6001600160a01b038116156200085757600280546001600160a01b0319166001600160a01b038316179055620031df620042da565b620031ea8162004cd7565b60008051602062005eec8339815191525460008051602062005f0c833981519152916001600160a01b03918216911681838b80a36001600160a01b036200323460608a0162003cf0565b16918980a362002e2e565b506001600160a01b03620032566060880162003cf0565b16151562002e28565b6200326e610100840162003cf0565b6040516370a0823160e01b81526001600160a01b039182166004820152906020908290602490829087165afa9081156200225e578891620033c8575b5080620032b9575b5062002d28565b806020620032cb610100870162003cf0565b620032d960608b0162003cf0565b6040516323b872dd60e01b81526001600160a01b03928316600482015291166024820152604481019290925281806064810103818c6001600160a01b0389165af180156200221e57899062003380575b62003335915062003f4e565b6001600160a01b036200334c610100860162003cf0565b1660008051602062005ecc833981519152604051806200337660018060a01b038816958262003f8d565b0390a338620032b2565b506020813d602011620033bf575b816200339d60209383620039ce565b81010312620033bb57620033b5620033359162003e0d565b62003329565b8880fd5b3d91506200338e565b90506020813d602011620033f7575b81620033e660209383620039ce565b8101031262002212575138620032aa565b3d9150620033d7565b602062003472916200343b6101008701620024606200341f8262003cf0565b8862003434620003ad6101208d018d62003e1b565b91620046f2565b6040516323b872dd60e01b81526001600160a01b039091166004820152306024820152604481019190915291829081906064820190565b03818b6001600160a01b0388165af180156200225e578890620034a3575b6200349c915062003f4e565b3862002ce4565b506020813d602011620034de575b81620034c060209383620039ce565b810103126200221257620034d86200349c9162003e0d565b62003490565b3d9150620034b1565b5060408601511562002cde565b60405162461bcd60e51b815260206004820152600e60248201526d416d6f756e7420746f6f206c6f7760901b6044820152606490fd5b602001516001600160a01b03908116906200354860c0850162003cf0565b160362003556573862002caf565b60405162461bcd60e51b815260206004820152601960248201527f496e76616c696420707265726f74617465644b657948617368000000000000006044820152606490fd5b915050806101203d61012011620036b3575b620035b98183620039ce565b8101036101208112620022125761010013620031595760405190816101008101106001600160401b03610100840111176200369f576101008201604052620036018162003df8565b8252620036116020820162003df8565b6020830152620036246040820162003df8565b6040830152620036376060820162003df8565b60608301526200364a6080820162003df8565b60808301526200365d60a0820162003e0d565b60a08301526200367060c0820162003e0d565b60c083015260e08101516003811015620033bb5760e083015262003698906101000162003e0d565b3862002ca8565b634e487b7160e01b88526041600452602488fd5b503d620035ad565b506001546001600160a01b0316331462002b3f565b5060008051602062005eec833981519152546001600160a01b0316331462002b37565b503462000cad57606036600319011262000cad57620037116200395b565b6200371b62003972565b9060443580151580910362000c455762003734620042da565b600160a01b6001900380831692838652602091600483528060408820600101541615620037619062003c1d565b6040516200376f816200399e565b858152818482019716968781526040820190868252878a5260048652838060408c20945116936001600160601b0360a01b948582541617815560010191511690805492511515926affffffffffffffffffffff60a81b928360ff60a01b809660a01b1692161717905560405193620037e7856200399e565b888552868501948a865260408101948986528b8d52828d60048b5260409020925116908254161781556001019451169184549351151560a01b16921617179055620038329062003c5e565b6040519182527f758dfacc83ebfb4bfce0ab7d6fb0aadf34a957bf53e9d33c110877c447f6fcbb91a380f35b503462000cad57602036600319011262000cad57600435906001600160401b03821162000cad5760206200389a6200036c366004860162003a48565b6040516001600160a01b039091168152f35b503462000cad57602036600319011262000cad5760ff60406020926004358152600784522054166040519015158152f35b90503462000cb057602036600319011262000cb0576020916001600160a01b039190620039519060019060409085620039156200395b565b168152600487522062003928846200399e565b84815416845201549183831690604060ff8783019584875260a01c161515910152151562003b78565b5116604051908152f35b600435906001600160a01b0382168203620005e557565b602435906001600160a01b0382168203620005e557565b35906001600160a01b0382168203620005e557565b606081019081106001600160401b0382111762000c4957604052565b6001600160401b03811162000c4957604052565b90601f801991011681019081106001600160401b0382111762000c4957604052565b6001600160401b03811162000c4957601f01601f191660200190565b92919262003a1a82620039f0565b9162003a2a6040519384620039ce565b829481845281830111620005e5578281602093846000960137010152565b9080601f83011215620005e55781602062003a669335910162003a0c565b90565b35908115158203620005e557565b60031991606082840112620005e5576004356001600160a01b0381168103620005e557926024356001600160401b0391828211620005e5576101409182828288030112620005e55760040194604435938411620005e5578390030112620005e55760040190565b60005b83811062003af25750506000910152565b818101518382015260200162003ae1565b9060209162003b1e8151809281855285808601910162003ade565b601f01601f1916010190565b60065481101562003b625760066000527ff652222313e28459528d920b65115c16c04f3efc82aaedc97be59f3f377c0d3f0190600090565b634e487b7160e01b600052603260045260246000fd5b1562003b8057565b60405162461bcd60e51b815260206004820152601860248201527f546f6b656e2070616972206e6f7420737570706f7274656400000000000000006044820152606490fd5b604081510362003be35780516020909101206001600160a01b031690565b60405162461bcd60e51b8152602060048201526012602482015271496e76616c6964207075626c6963206b657960701b6044820152606490fd5b1562003c2557565b60405162461bcd60e51b8152602060048201526011602482015270546f6b656e20706169722065786973747360781b6044820152606490fd5b6006546801000000000000000081101562000c495780600162003c85920160065562003b2a565b60018060a09493941b038084549260031b9316831b921b1916179055565b1562003cab57565b60405162461bcd60e51b815260206004820152601b60248201527f5265737472696374656420746f206f776e65722f72656c6179657200000000006044820152606490fd5b356001600160a01b0381168103620005e55790565b903590601e1981360301821215620005e557018035906001600160401b038211620005e557602001918136038313620005e557565b1562003d4257565b60405162461bcd60e51b815260206004820152601d60248201527f496e76616c696420756e636f6e6669726d6564207369676e61747572650000006044820152606490fd5b9190820180921162003d9557565b634e487b7160e01b600052601160045260246000fd5b1562003db357565b60405162461bcd60e51b815260206004820152601c60248201527f496e76616c696420636f6e6669726d696e67207369676e6174757265000000006044820152606490fd5b51906001600160a01b0382168203620005e557565b51908115158203620005e557565b903590601e1981360301821215620005e557018035906001600160401b038211620005e5576020019160e0820236038313620005e557565b91908260e0910312620005e55760405160e081018181106001600160401b0382111762000c4957604052809262003e8a8162003989565b8252602081013560208301526040810135604083015260608101359060ff82168203620005e55760c062003eda91819360608601526080810135608086015260a081013560a08601520162003989565b910152565b9291926001600160401b03821162000c495760206040519462003f0960208560051b0187620039ce565b602086858152019060e0809502840193818511620005e557915b84831062003f3357505050505050565b83869162003f42848662003e53565b81520192019162003f23565b1562003f5657565b60405162461bcd60e51b815260206004820152600f60248201526e151c985b9cd9995c8819985a5b1959608a1b6044820152606490fd5b6080918152604060208201526006604082015265131bd8dad95960d21b60608201520190565b358015158103620005e55790565b1562003fc957565b60405162461bcd60e51b8152602060048201526013602482015272119959481d1c985b9cd9995c8819985a5b1959606a1b6044820152606490fd5b608091815260406020820152600760408201526615dc985c1c195960ca1b60608201520190565b9190820391821162003d9557565b3d1562004069573d906200404d82620039f0565b916200405d6040519384620039ce565b82523d6000602084013e565b606090565b156200407657565b60405162461bcd60e51b8152602060048201526013602482015272115512081d1c985b9cd9995c8819985a5b1959606a1b6044820152606490fd5b608091815260406020820152600360408201526208aa8960eb1b60608201520190565b15620040dc57565b60405162461bcd60e51b8152602060048201526011602482015270125b9d985b1a59081c9958da5c1a595b9d607a1b6044820152606490fd5b156200411d57565b60405162461bcd60e51b8152602060048201526013602482015272109390881d1c985b9cd9995c8819985a5b1959606a1b6044820152606490fd5b9035601e1982360301811215620005e55701602081359101916001600160401b038211620005e5578136038313620005e557565b908060209392818452848401376000828201840152601f01601f1916010190565b91909493929460609082606085016060865252608092608085019360808260051b8701019483946000946000955b85871062004201575050505050505050906040919460018060a01b031660208201520152565b9091929394959697607f198a8203018552883560be198436030181121562000c5f576001916200426f9160c0916001600160a01b0391870182620042458262003989565b1682526200428d60209586956200425f8785018562004158565b909180898801528601916200418c565b60406200427f8185018562004158565b91868403908701526200418c565b926200429b8a830162003a69565b15158a84015280620042af8d840162003989565b168c840152620042c360a080930162003989565b169101529a019501970195949396929190620041db565b60008051602062005eec833981519152546001600160a01b03163303620042fd57565b60405163118cdaa760e01b8152336004820152602490fd5b60008051602062005f2c8339815191526002815414620043355760029055565b604051633ee5aeb560e01b8152600490fd5b6200438e929162004384917f19457468657265756d205369676e6564204d6573736167653a0a333200000000600052601c52603c60002062004db6565b9093919362004df5565b6001600160a01b0391821691161490565b8181029291811591840414171562003d9557565b519069ffffffffffffffffffff82168203620005e557565b90816020910312620005e5575160ff81168103620005e55790565b60ff16604d811162003d9557600a0a90565b906200440b61271091600354906200439f565b0460018060a01b0380921660009080825260049060209082825260409060ff6001838720015460a01c161580620046ca575b6200444c575050505050905090565b8394966008845260a081848a205416845197888092633fabe5a360e21b82525afa958615620046c057889662004668575b50878613156200463057818852600884528288205416928251938185878163313ce56760e01b948582525afa9485156200462657899562004600575b5081908685518095819382525afa928315620045f757508792620045c3575b505060ff683635c9adc5dea000009116601281116000146200456c576011190160ff81116200455957620045216200452893926200451a6200451a93620043e6565b906200439f565b91620043e6565b9082156200454657500491508181111562004541575090565b905090565b634e487b7160e01b855260129052602484fd5b634e487b7160e01b875260118452602487fd5b6012811062004586575b506200451a6200452892620043e6565b60120360ff811162004559576200459d90620043e6565b908115620045b057046200451a62004576565b634e487b7160e01b875260128452602487fd5b620045e79250803d10620045ef575b620045de8183620039ce565b810190620043cb565b3880620044d8565b503d620045d2565b513d89823e3d90fd5b829195506200461e90823d8411620045ef57620045de8183620039ce565b9490620044b9565b84513d8b823e3d90fd5b50505162461bcd60e51b8152918201526012602482015271125b9d985b1a59081c1c9a58d9481999595960721b604482015260649150fd5b90955060a0813d60a011620046b7575b816200468760a09383620039ce565b8101031262002212576200469b81620043b3565b50620046ae6080858301519201620043b3565b5094386200447d565b3d915062004678565b83513d8a823e3d90fd5b506008835286828620541615156200443d565b805182101562003b625760209160051b010190565b6001600160a01b039182169060009082620049935750506000915b826200471a575b50505050565b6000949293949260005b86518110156200479a5783836200473c838a620046dd565b51511614806200477f575b62004756575b60010162004724565b936200477660019160206200476c888b620046dd565b5101519062003d87565b9490506200474d565b5060406200478e8289620046dd565b51015142111562004747565b5094505060405190620047ad826200399e565b602a82526020820190604036833782511562003b62576030825382516001906001101562003b62576078602185015360005b60148110620048755750505060366200482b9493926200483c9260405196879275024b739bab33334b1b4b2b73a103832b936b4ba399d160551b60208501525180928585019062003ade565b8101036016810186520184620039ce565b106200484b5780808062004714565b60405162461bcd60e51b8152602060048201529081906200487190602483019062003b03565b0390fd5b601381810390811162003d95576003906001600160fd1b038116810362003d95578490821b1c600f6004908083831c16921691600a908181106000146200498157620048c19062004d61565b915b6001600160f81b03199386881b9360f8939060029089158a8804831417156200496c578682018092116200496c57851b871660001a9062004905908e62004d3c565b538110156200495a57620049199062004d61565b925b8501809511620049455750916200493d91869594931b1660001a918862004d3c565b5301620047df565b601190634e487b7160e01b6000525260246000fd5b620049659062004d4e565b926200491b565b601185634e487b7160e01b6000525260246000fd5b6200498c9062004d4e565b91620048c3565b6040516370a0823160e01b81529084166004820152602081602481865afa91821562004a05578092620049ca575b5050916200470d565b9091506020823d602011620049fc575b81620049e960209383620039ce565b8101031262000cad5750513880620049c1565b3d9150620049da565b604051903d90823e3d90fd5b92919060005b815181101562004be75762004a2d8183620046dd565b5190602091828101908151918215158062004bd8575b8062004bc4575b62004a5e575b505050600191500162004a17565b60018060a01b0380835116926040948582015160ff6060840151169160808401519660a0850151813b15620005e5578f988a51958695869563d505accf60e01b87528a60049d168d88015230602488015260448701526064860152608485015260a484015260c48301525a92600060e4928195f1801562004bb9578a938995938e9360009362004ba7575b50511692519562004b2a8851978896879586946323b872dd60e01b8652850160409194939294606082019560018060a01b0380921683521660208201520152565b03925af191821562004b9d575060009162004b59575b506001925062004b509062003f4e565b38808062004a50565b919282813d831162004b95575b62004b728183620039ce565b8101031262000cad57509062004b5062004b8e60019362003e0d565b9062004b40565b503d62004b66565b513d6000823e3d90fd5b62004bb290620039ba565b3862004ae9565b86513d6000823e3d90fd5b5081516001600160a01b0316151562004a4a565b50604082015142111562004a43565b5050509050565b97929a95999498939096919862004c1060018060a01b03600054169b62003bc5565b918b3b15620005e557604051632e91b77d60e01b815261018060048201529c8d9b8c9b62004c44906101848e019062003b03565b6001600160a01b039b8c1660248e0152908b1660448d0152908a1660648c015290891660848b015290151560a48a015290871660c489015290861660e48801529085166101048701529084166101248601529216610144840152151561016483015203815a6000948591f1801562004ccb5762004cbe5750565b62004cc990620039ba565b565b6040513d6000823e3d90fd5b6001600160a01b0390811690811562004d235760008051602062005eec83398151915280546001600160a01b0319811684179091551660008051602062005f0c833981519152600080a3565b604051631e4fbdf760e01b815260006004820152602490fd5b90815181101562003b62570160200190565b60ff60579116019060ff821162003d9557565b60ff60309116019060ff821162003d9557565b60ff7ff0c57e16840df040f15088dc2f81fe391c3923bec73e23a9662efc9c229c6a005460401c161562004da457565b604051631afcd79f60e31b8152600490fd5b815191906041830362004dea5762004de392506020820151906060604084015193015160001a9062004e7f565b9192909190565b505060009160029190565b600481101562004e69578062004e09575050565b6001810362004e245760405163f645eedf60e01b8152600490fd5b6002810362004e465760405163fce698f760e01b815260048101839052602490fd5b60031462004e515750565b602490604051906335e2f38360e21b82526004820152fd5b634e487b7160e01b600052602160045260246000fd5b91907f7fffffffffffffffffffffffffffffff5d576e7357a4501ddfe92f46681b20a0841162004efa57926020929160ff608095604051948552168484015260408301526060820152600092839182805260015afa1562004a055780516001600160a01b0381161562004ef157918190565b50809160019190565b50505060009160039190565b9062004f2f575080511562004f1d57805190602001fd5b60405163d6bda27560e01b8152600490fd5b8151158062004f64575b62004f42575090565b604051639996b31560e01b81526001600160a01b039091166004820152602490fd5b50803b1562004f3956fe608060405234620003685762000f5d803803806200001d816200036d565b9283398101608082820312620003685781516001600160401b0391908281116200036857816200004f91850162000393565b602091828501519084821162000368576200006c91860162000393565b92620000896060620000816040880162000405565b960162000405565b93825182811162000268576003918254916001958684811c941680156200035d575b8885101462000347578190601f94858111620002f1575b5088908583116001146200028a576000926200027e575b505060001982861b1c191690861b1783555b8051938411620002685760049586548681811c911680156200025d575b828210146200024857838111620001fd575b50809285116001146200018f575093839491849260009562000183575b50501b92600019911b1c19161790555b600580546001600160a01b039384166001600160a01b03199182161790915560068054929093169116179055604051610b4290816200041b8239f35b01519350388062000137565b92919084601f1981168860005285600020956000905b89838310620001e25750505010620001c7575b50505050811b01905562000147565b01519060f884600019921b161c1916905538808080620001b8565b858701518955909701969485019488935090810190620001a5565b87600052816000208480880160051c8201928489106200023e575b0160051c019087905b828110620002315750506200011a565b6000815501879062000221565b9250819262000218565b602288634e487b7160e01b6000525260246000fd5b90607f169062000108565b634e487b7160e01b600052604160045260246000fd5b015190503880620000d9565b90889350601f19831691876000528a6000209260005b8c828210620002da5750508411620002c1575b505050811b018355620000eb565b015160001983881b60f8161c19169055388080620002b3565b8385015186558c97909501949384019301620002a0565b90915085600052886000208580850160051c8201928b86106200033d575b918a91869594930160051c01915b8281106200032d575050620000c2565b600081558594508a91016200031d565b925081926200030f565b634e487b7160e01b600052602260045260246000fd5b93607f1693620000ab565b600080fd5b6040519190601f01601f191682016001600160401b038111838210176200026857604052565b919080601f84011215620003685782516001600160401b0381116200026857602090620003c9601f8201601f191683016200036d565b92818452828287010111620003685760005b818110620003f157508260009394955001015290565b8581018301518482018401528201620003db565b51906001600160a01b0382168203620003685756fe608060408181526004918236101561001657600080fd5b600092833560e01c91826306fdde031461065757508163095ea7b3146105ad57816318160ddd1461058e57816323b872dd14610488578163313ce5671461046c57816340c10f19146103af57816370a082311461037857816395d89b41146102735781639dc29fac1461019157508063a9059cbb1461014f578063b5057a7b14610127578063dd62ed3e146100df5763e78cea92146100b457600080fd5b346100db57816003193601126100db5760055490516001600160a01b039091168152602090f35b5080fd5b50346100db57806003193601126100db57806020926100fc610795565b6101046107b0565b6001600160a01b0391821683526001865283832091168252845220549051908152f35b50346100db57816003193601126100db5760065490516001600160a01b039091168152602090f35b50346100db57806003193601126100db5760209061018a61016e610795565b61018061017b82336108ae565b6107fe565b6024359033610a2e565b5160018152f35b839150346100db57826003193601126100db576101ac610795565b906024359060018060a01b036101c78160055416331461084a565b831692831561025c578385528460205285852054918383106102285750508184957fddf252ad1be2c89b69c2b068fc378daa952ba7f163c4a11628f55a4df523b3ef936020938688528785520381872055816002540360025551908152a380f35b865163391434e360e21b81526001600160a01b03909216908201908152602081018390526040810184905281906060010390fd5b8551634b637e8f60e11b8152808301869052602490fd5b8383346100db57816003193601126100db5780519180938054916001908360011c926001851694851561036e575b602095868610811461035b5785895290811561033757506001146102df575b6102db87876102d1828c03836107c6565b519182918261074c565b0390f35b81529295507f8a35acfbc15ff81a39ae7d344fd709f28e8600b4aa8c65c6b64bfe7fe36bd19b5b82841061032457505050826102db946102d1928201019486806102c0565b8054868501880152928601928101610306565b60ff19168887015250505050151560051b83010192506102d1826102db86806102c0565b634e487b7160e01b845260228352602484fd5b93607f16936102a1565b5050346100db5760203660031901126100db5760209181906001600160a01b036103a0610795565b16815280845220549051908152f35b919050346104685780600319360112610468576103ca610795565b60055460243592916001600160a01b03916103e8908316331461084a565b169283156104535760025490838201809211610440575084927fddf252ad1be2c89b69c2b068fc378daa952ba7f163c4a11628f55a4df523b3ef9260209260025585855284835280852082815401905551908152a380f35b634e487b7160e01b865260119052602485fd5b84602492519163ec442f0560e01b8352820152fd5b8280fd5b5050346100db57816003193601126100db576020905160128152f35b9050823461058b57606036600319011261058b576104a4610795565b6104ac6107b0565b91604435936104be61017b85856108ae565b6001600160a01b038316808352600160209081528784203385529052868320549160001983106104f7575b60208861018a898989610a2e565b86831061055f5781156105485733156105315750825260016020908152868320338452815291869020908590039055829061018a876104e9565b8751634a1406b160e11b8152908101849052602490fd5b875163e602df0560e01b8152908101849052602490fd5b8751637dc7a0d960e11b8152339181019182526020820193909352604081018790528291506060010390fd5b80fd5b5050346100db57816003193601126100db576020906002549051908152f35b9050346104685781600319360112610468576105c7610795565b602435903315610640576001600160a01b031691821561062957508083602095338152600187528181208582528752205582519081527f8c5be1e5ebec7d5bd14f71427d1e84f3dd0314c0f7b2291e5b200ac8c7c3b925843392a35160018152f35b8351634a1406b160e11b8152908101859052602490fd5b835163e602df0560e01b8152808401869052602490fd5b92915034610748578360031936011261074857600354600181811c918690828116801561073e575b602095868610821461072b575084885290811561070957506001146106b0575b6102db86866102d1828b03836107c6565b929550600383527fc2575a0e9e593c00f959f8c92f12db2869c3395a3b0502d05e2516446f71f85b5b8284106106f657505050826102db946102d192820101943861069f565b80548685018801529286019281016106d9565b60ff191687860152505050151560051b83010192506102d1826102db3861069f565b634e487b7160e01b845260229052602483fd5b93607f169361067f565b8380fd5b6020808252825181830181905290939260005b82811061078157505060409293506000838284010152601f8019910116010190565b81810186015184820160400152850161075f565b600435906001600160a01b03821682036107ab57565b600080fd5b602435906001600160a01b03821682036107ab57565b90601f8019910116810190811067ffffffffffffffff8211176107e857604052565b634e487b7160e01b600052604160045260246000fd5b1561080557565b60405162461bcd60e51b815260206004820152601c60248201527f496e76616c6964206b6579206c6f6720666f72207472616e73666572000000006044820152606490fd5b1561085157565b60405162461bcd60e51b815260206004820152601460248201527313db9b1e48189c9a5919d94818d85b8818d85b1b60621b6044820152606490fd5b51906001600160a01b03821682036107ab57565b519081151582036107ab57565b600654604080516324b9c44160e21b81526001600160a01b0393841660048201819052939290916101209182908490602490829088165afa918215610a2357600093849361092a575b5050506109075750505050600090565b60200151811691821492831561091e575b50505090565b16149050388080610918565b818193959294503d8511610a1c575b61094381836107c6565b81010392831261058b5761010080931261058b5783519383850185811067ffffffffffffffff821117610a0857815261097b8361088d565b85526109896020840161088d565b602086015261099981840161088d565b908501526109a96060830161088d565b60608501526109ba6080830161088d565b60808501526109cb60a083016108a1565b60a08501526109dc60c083016108a1565b60c085015260e082015190600382101561058b575060e0840152610a0091016108a1565b3880806108f7565b634e487b7160e01b83526041600452602483fd5b503d610939565b50513d6000823e3d90fd5b916001600160a01b03808416928315610af35716928315610ada5760009083825281602052604082205490838210610aa8575091604082827fddf252ad1be2c89b69c2b068fc378daa952ba7f163c4a11628f55a4df523b3ef958760209652828652038282205586815220818154019055604051908152a3565b60405163391434e360e21b81526001600160a01b03919091166004820152602481019190915260448101839052606490fd5b60405163ec442f0560e01b815260006004820152602490fd5b604051634b637e8f60e11b815260006004820152602490fdfea2646970667358221220c3e8c94a311bd2e0ebed9d7b0ad6a1242038326cbbb569f22ef01a8482b07b2c64736f6c634300081800337064cff3de6cae3d0f0c35b5b6dde4d199d1c5924b3356168b456cb92c26ab2e9016d09d72d40fdae2fd8ceac6b6234c7706214fd39c1cd1e609a0528c1993008be0079c531659141344cd1fd0a4f28419497f9722a3daafe3b4186f6b6457e09b779b17422d0df92223018b32b4d1fa46e071723d6817e2486d003becc55f00a264697066735822122005ca0148270c5599428ca7beb1818297041d590c61a44bdfca1f468f983e12cf64736f6c63430008180033",
  "linkReferences": {},
  "deployedLinkReferences": {}
}