{
  "_format": "hh-sol-artifact-1",
  "contractName": "Bridge",
  "sourceName": "contracts/Bridge.sol",
  "abi": [
    {
      "inputs": [
        {
          "internalType": "address",
          "name": "target",
          "type": "address"
        }
      ],
      "name": "AddressEmptyCode",
      "type": "error"
    },
    {
      "inputs": [],
      "name": "ECDSAInvalidSignature",
      "type": "error"
    },
    {
      "inputs": [
        {
          "internalType": "uint256",
          "name": "length",
          "type": "uint256"
        }
      ],
      "name": "ECDSAInvalidSignatureLength",
      "type": "error"
    },
    {
      "inputs": [
        {
          "internalType": "bytes32",
          "name": "s",
          "type": "bytes32"
        }
      ],
      "name": "ECDSAInvalidSignatureS",
      "type": "error"
    },
    {
      "inputs": [
        {
          "internalType": "address",
          "name": "implementation",
          "type": "address"
        }
      ],
      "name": "ERC1967InvalidImplementation",
      "type": "error"
    },
    {
      "inputs": [],
      "name": "ERC1967NonPayable",
      "type": "error"
    },
    {
      "inputs": [],
      "name": "FailedCall",
      "type": "error"
    },
    {
      "inputs": [],
      "name": "InvalidInitialization",
      "type": "error"
    },
    {
      "inputs": [],
      "name": "NotInitializing",
      "type": "error"
    },
    {
      "inputs": [
        {
          "internalType": "address",
          "name": "owner",
          "type": "address"
        }
      ],
      "name": "OwnableInvalidOwner",
      "type": "error"
    },
    {
      "inputs": [
        {
          "internalType": "address",
          "name": "account",
          "type": "address"
        }
      ],
      "name": "OwnableUnauthorizedAccount",
      "type": "error"
    },
    {
      "inputs": [],
      "name": "UUPSUnauthorizedCallContext",
      "type": "error"
    },
    {
      "inputs": [
        {
          "internalType": "bytes32",
          "name": "slot",
          "type": "bytes32"
        }
      ],
      "name": "UUPSUnsupportedProxiableUUID",
      "type": "error"
    },
    {
      "anonymous": false,
      "inputs": [
        {
          "indexed": true,
          "internalType": "address",
          "name": "token",
          "type": "address"
        },
        {
          "indexed": false,
          "internalType": "uint256",
          "name": "amount",
          "type": "uint256"
        }
      ],
      "name": "FeesCollected",
      "type": "event"
    },
    {
      "anonymous": false,
      "inputs": [
        {
          "indexed": false,
          "internalType": "uint64",
          "name": "version",
          "type": "uint64"
        }
      ],
      "name": "Initialized",
      "type": "event"
    },
    {
      "anonymous": false,
      "inputs": [
        {
          "indexed": true,
          "internalType": "address",
          "name": "previousOwner",
          "type": "address"
        },
        {
          "indexed": true,
          "internalType": "address",
          "name": "newOwner",
          "type": "address"
        }
      ],
      "name": "OwnershipTransferred",
      "type": "event"
    },
    {
      "anonymous": false,
      "inputs": [
        {
          "indexed": true,
          "internalType": "address",
          "name": "user",
          "type": "address"
        },
        {
          "indexed": true,
          "internalType": "address",
          "name": "originalToken",
          "type": "address"
        },
        {
          "indexed": false,
          "internalType": "uint256",
          "name": "amount",
          "type": "uint256"
        }
      ],
      "name": "TokensLocked",
      "type": "event"
    },
    {
      "anonymous": false,
      "inputs": [
        {
          "indexed": true,
          "internalType": "address",
          "name": "wrappedToken",
          "type": "address"
        },
        {
          "indexed": true,
          "internalType": "address",
          "name": "user",
          "type": "address"
        },
        {
          "indexed": false,
          "internalType": "uint256",
          "name": "amount",
          "type": "uint256"
        }
      ],
      "name": "TokensMinted",
      "type": "event"
    },
    {
      "anonymous": false,
      "inputs": [
        {
          "indexed": true,
          "internalType": "address",
          "name": "user",
          "type": "address"
        },
        {
          "indexed": false,
          "internalType": "address",
          "name": "wrappedToken",
          "type": "address"
        },
        {
          "indexed": false,
          "internalType": "uint256",
          "name": "amount",
          "type": "uint256"
        }
      ],
      "name": "TokensWrapped",
      "type": "event"
    },
    {
      "anonymous": false,
      "inputs": [
        {
          "indexed": true,
          "internalType": "address",
          "name": "originalToken",
          "type": "address"
        },
        {
          "indexed": false,
          "internalType": "address",
          "name": "targetAddress",
          "type": "address"
        },
        {
          "indexed": false,
          "internalType": "uint256",
          "name": "amount",
          "type": "uint256"
        },
        {
          "indexed": true,
          "internalType": "address",
          "name": "user",
          "type": "address"
        }
      ],
      "name": "UnwrapCrossChain",
      "type": "event"
    },
    {
      "anonymous": false,
      "inputs": [
        {
          "indexed": true,
          "internalType": "address",
          "name": "implementation",
          "type": "address"
        }
      ],
      "name": "Upgraded",
      "type": "event"
    },
    {
      "inputs": [],
      "name": "FEE_DENOMINATOR",
      "outputs": [
        {
          "internalType": "uint256",
          "name": "",
          "type": "uint256"
        }
      ],
      "stateMutability": "view",
      "type": "function"
    },
    {
      "inputs": [],
      "name": "UPGRADE_INTERFACE_VERSION",
      "outputs": [
        {
          "internalType": "string",
          "name": "",
          "type": "string"
        }
      ],
      "stateMutability": "view",
      "type": "function"
    },
    {
      "inputs": [
        {
          "internalType": "address",
          "name": "originalToken",
          "type": "address"
        },
        {
          "internalType": "address",
          "name": "wrappedToken",
          "type": "address"
        },
        {
          "internalType": "bool",
          "name": "_isCrossChain",
          "type": "bool"
        }
      ],
      "name": "addTokenPair",
      "outputs": [],
      "stateMutability": "nonpayable",
      "type": "function"
    },
    {
      "inputs": [],
      "name": "feeCollector",
      "outputs": [
        {
          "internalType": "address",
          "name": "",
          "type": "address"
        }
      ],
      "stateMutability": "view",
      "type": "function"
    },
    {
      "inputs": [],
      "name": "feePercentage",
      "outputs": [
        {
          "internalType": "uint256",
          "name": "",
          "type": "uint256"
        }
      ],
      "stateMutability": "view",
      "type": "function"
    },
    {
      "inputs": [
        {
          "internalType": "bytes",
          "name": "publicKey",
          "type": "bytes"
        }
      ],
      "name": "getAddressFromPublicKey",
      "outputs": [
        {
          "internalType": "address",
          "name": "",
          "type": "address"
        }
      ],
      "stateMutability": "pure",
      "type": "function"
    },
    {
      "inputs": [
        {
          "internalType": "address",
          "name": "_keyLogRegistry",
          "type": "address"
        }
      ],
      "name": "initialize",
      "outputs": [],
      "stateMutability": "nonpayable",
      "type": "function"
    },
    {
      "inputs": [
        {
          "internalType": "address",
          "name": "",
          "type": "address"
        }
      ],
      "name": "isCrossChain",
      "outputs": [
        {
          "internalType": "bool",
          "name": "",
          "type": "bool"
        }
      ],
      "stateMutability": "view",
      "type": "function"
    },
    {
      "inputs": [],
      "name": "keyLogRegistry",
      "outputs": [
        {
          "internalType": "contract KeyLogRegistry",
          "name": "",
          "type": "address"
        }
      ],
      "stateMutability": "view",
      "type": "function"
    },
    {
      "inputs": [
        {
          "internalType": "address",
          "name": "originalToken",
          "type": "address"
        },
        {
          "internalType": "uint256",
          "name": "amount",
          "type": "uint256"
        },
        {
          "internalType": "bytes",
          "name": "publicKey",
          "type": "bytes"
        },
        {
          "internalType": "address",
          "name": "prerotatedKeyHash",
          "type": "address"
        },
        {
          "internalType": "address",
          "name": "twicePrerotatedKeyHash",
          "type": "address"
        }
      ],
      "name": "lockCrossChain",
      "outputs": [],
      "stateMutability": "nonpayable",
      "type": "function"
    },
    {
      "inputs": [
        {
          "internalType": "address",
          "name": "wrappedToken",
          "type": "address"
        },
        {
          "internalType": "address",
          "name": "user",
          "type": "address"
        },
        {
          "internalType": "uint256",
          "name": "amount",
          "type": "uint256"
        }
      ],
      "name": "mintWrappedToken",
      "outputs": [],
      "stateMutability": "nonpayable",
      "type": "function"
    },
    {
      "inputs": [
        {
          "internalType": "address",
          "name": "wrappedToken",
          "type": "address"
        },
        {
          "internalType": "address",
          "name": "user",
          "type": "address"
        },
        {
          "internalType": "uint256",
          "name": "amount",
          "type": "uint256"
        },
        {
          "internalType": "bytes32",
          "name": "lockHash",
          "type": "bytes32"
        }
      ],
      "name": "mintWrappedTokenWithLock",
      "outputs": [],
      "stateMutability": "nonpayable",
      "type": "function"
    },
    {
      "inputs": [
        {
          "internalType": "address",
          "name": "",
          "type": "address"
        }
      ],
      "name": "nonces",
      "outputs": [
        {
          "internalType": "uint256",
          "name": "",
          "type": "uint256"
        }
      ],
      "stateMutability": "view",
      "type": "function"
    },
    {
      "inputs": [
        {
          "internalType": "address",
          "name": "",
          "type": "address"
        }
      ],
      "name": "originalToWrapped",
      "outputs": [
        {
          "internalType": "address",
          "name": "",
          "type": "address"
        }
      ],
      "stateMutability": "view",
      "type": "function"
    },
    {
      "inputs": [],
      "name": "owner",
      "outputs": [
        {
          "internalType": "address",
          "name": "",
          "type": "address"
        }
      ],
      "stateMutability": "view",
      "type": "function"
    },
    {
      "inputs": [
        {
          "internalType": "bytes32",
          "name": "",
          "type": "bytes32"
        }
      ],
      "name": "processedLocks",
      "outputs": [
        {
          "internalType": "bool",
          "name": "",
          "type": "bool"
        }
      ],
      "stateMutability": "view",
      "type": "function"
    },
    {
      "inputs": [],
      "name": "proxiableUUID",
      "outputs": [
        {
          "internalType": "bytes32",
          "name": "",
          "type": "bytes32"
        }
      ],
      "stateMutability": "view",
      "type": "function"
    },
    {
      "inputs": [],
      "name": "relayer",
      "outputs": [
        {
          "internalType": "address",
          "name": "",
          "type": "address"
        }
      ],
      "stateMutability": "view",
      "type": "function"
    },
    {
      "inputs": [],
      "name": "renounceOwnership",
      "outputs": [],
      "stateMutability": "nonpayable",
      "type": "function"
    },
    {
      "inputs": [
        {
          "internalType": "address",
          "name": "_feeCollector",
          "type": "address"
        }
      ],
      "name": "setFeeCollector",
      "outputs": [],
      "stateMutability": "nonpayable",
      "type": "function"
    },
    {
      "inputs": [
        {
          "internalType": "uint256",
          "name": "_feePercentage",
          "type": "uint256"
        }
      ],
      "name": "setFeePercentage",
      "outputs": [],
      "stateMutability": "nonpayable",
      "type": "function"
    },
    {
      "inputs": [
        {
          "internalType": "address",
          "name": "_relayer",
          "type": "address"
        }
      ],
      "name": "setRelayer",
      "outputs": [],
      "stateMutability": "nonpayable",
      "type": "function"
    },
    {
      "inputs": [
        {
          "internalType": "address",
          "name": "newOwner",
          "type": "address"
        }
      ],
      "name": "transferOwnership",
      "outputs": [],
      "stateMutability": "nonpayable",
      "type": "function"
    },
    {
      "inputs": [
        {
          "internalType": "address",
          "name": "wrappedToken",
          "type": "address"
        },
        {
          "components": [
            {
              "internalType": "uint256",
              "name": "amount",
              "type": "uint256"
            },
            {
              "internalType": "bytes",
              "name": "signature",
              "type": "bytes"
            },
            {
              "internalType": "bytes",
              "name": "publicKey",
              "type": "bytes"
            },
            {
              "internalType": "address",
              "name": "prerotatedKeyHash",
              "type": "address"
            },
            {
              "internalType": "address",
              "name": "twicePrerotatedKeyHash",
              "type": "address"
            },
            {
              "internalType": "address",
              "name": "prevPublicKeyHash",
              "type": "address"
            },
            {
              "internalType": "address",
              "name": "targetAddress",
              "type": "address"
            },
            {
              "internalType": "bool",
              "name": "hasRelationship",
              "type": "bool"
            }
          ],
          "internalType": "struct Bridge.UnwrapParams",
          "name": "unconfirmed",
          "type": "tuple"
        },
        {
          "components": [
            {
              "internalType": "uint256",
              "name": "amount",
              "type": "uint256"
            },
            {
              "internalType": "bytes",
              "name": "signature",
              "type": "bytes"
            },
            {
              "internalType": "bytes",
              "name": "publicKey",
              "type": "bytes"
            },
            {
              "internalType": "address",
              "name": "prerotatedKeyHash",
              "type": "address"
            },
            {
              "internalType": "address",
              "name": "twicePrerotatedKeyHash",
              "type": "address"
            },
            {
              "internalType": "address",
              "name": "prevPublicKeyHash",
              "type": "address"
            },
            {
              "internalType": "address",
              "name": "targetAddress",
              "type": "address"
            },
            {
              "internalType": "bool",
              "name": "hasRelationship",
              "type": "bool"
            }
          ],
          "internalType": "struct Bridge.UnwrapParams",
          "name": "confirming",
          "type": "tuple"
        }
      ],
      "name": "unwrapPair",
      "outputs": [],
      "stateMutability": "nonpayable",
      "type": "function"
    },
    {
      "inputs": [
        {
          "internalType": "address",
          "name": "wrappedToken",
          "type": "address"
        },
        {
          "components": [
            {
              "internalType": "uint256",
              "name": "amount",
              "type": "uint256"
            },
            {
              "internalType": "bytes",
              "name": "signature",
              "type": "bytes"
            },
            {
              "internalType": "bytes",
              "name": "publicKey",
              "type": "bytes"
            },
            {
              "internalType": "address",
              "name": "prerotatedKeyHash",
              "type": "address"
            },
            {
              "internalType": "address",
              "name": "twicePrerotatedKeyHash",
              "type": "address"
            },
            {
              "internalType": "address",
              "name": "prevPublicKeyHash",
              "type": "address"
            },
            {
              "internalType": "address",
              "name": "targetAddress",
              "type": "address"
            },
            {
              "internalType": "bool",
              "name": "hasRelationship",
              "type": "bool"
            }
          ],
          "internalType": "struct Bridge.UnwrapParams",
          "name": "unconfirmed",
          "type": "tuple"
        },
        {
          "components": [
            {
              "internalType": "uint256",
              "name": "amount",
              "type": "uint256"
            },
            {
              "internalType": "bytes",
              "name": "signature",
              "type": "bytes"
            },
            {
              "internalType": "bytes",
              "name": "publicKey",
              "type": "bytes"
            },
            {
              "internalType": "address",
              "name": "prerotatedKeyHash",
              "type": "address"
            },
            {
              "internalType": "address",
              "name": "twicePrerotatedKeyHash",
              "type": "address"
            },
            {
              "internalType": "address",
              "name": "prevPublicKeyHash",
              "type": "address"
            },
            {
              "internalType": "address",
              "name": "targetAddress",
              "type": "address"
            },
            {
              "internalType": "bool",
              "name": "hasRelationship",
              "type": "bool"
            }
          ],
          "internalType": "struct Bridge.UnwrapParams",
          "name": "confirming",
          "type": "tuple"
        }
      ],
      "name": "unwrapPairWithTransfer",
      "outputs": [],
      "stateMutability": "nonpayable",
      "type": "function"
    },
    {
      "inputs": [
        {
          "internalType": "address",
          "name": "newImplementation",
          "type": "address"
        },
        {
          "internalType": "bytes",
          "name": "data",
          "type": "bytes"
        }
      ],
      "name": "upgradeToAndCall",
      "outputs": [],
      "stateMutability": "payable",
      "type": "function"
    },
    {
      "inputs": [
        {
          "internalType": "address",
          "name": "originalToken",
          "type": "address"
        },
        {
          "internalType": "uint256",
          "name": "unconfirmedAmount",
          "type": "uint256"
        },
        {
          "internalType": "bytes",
          "name": "unconfirmedSignature",
          "type": "bytes"
        },
        {
          "internalType": "bytes",
          "name": "unconfirmedPublicKey",
          "type": "bytes"
        },
        {
          "internalType": "address",
          "name": "unconfirmedPrerotatedKeyHash",
          "type": "address"
        },
        {
          "internalType": "address",
          "name": "unconfirmedTwicePrerotatedKeyHash",
          "type": "address"
        },
        {
          "internalType": "address",
          "name": "unconfirmedPrevPublicKeyHash",
          "type": "address"
        },
        {
          "internalType": "address",
          "name": "unconfirmedOutputAddress",
          "type": "address"
        },
        {
          "internalType": "bool",
          "name": "unconfirmedHasRelationship",
          "type": "bool"
        },
        {
          "internalType": "uint256",
          "name": "confirmingAmount",
          "type": "uint256"
        },
        {
          "internalType": "bytes",
          "name": "confirmingSignature",
          "type": "bytes"
        },
        {
          "internalType": "bytes",
          "name": "confirmingPublicKey",
          "type": "bytes"
        },
        {
          "internalType": "address",
          "name": "confirmingPrerotatedKeyHash",
          "type": "address"
        },
        {
          "internalType": "address",
          "name": "confirmingTwicePrerotatedKeyHash",
          "type": "address"
        },
        {
          "internalType": "address",
          "name": "confirmingPrevPublicKeyHash",
          "type": "address"
        },
        {
          "internalType": "address",
          "name": "confirmingOutputAddress",
          "type": "address"
        },
        {
          "internalType": "bool",
          "name": "confirmingHasRelationship",
          "type": "bool"
        }
      ],
      "name": "wrapPair",
      "outputs": [],
      "stateMutability": "nonpayable",
      "type": "function"
    },
    {
      "inputs": [
        {
          "internalType": "address",
          "name": "originalToken",
          "type": "address"
        },
        {
          "components": [
            {
              "internalType": "uint256",
              "name": "amount",
              "type": "uint256"
            },
            {
              "internalType": "bytes",
              "name": "signature",
              "type": "bytes"
            },
            {
              "internalType": "bytes",
              "name": "publicKey",
              "type": "bytes"
            },
            {
              "internalType": "address",
              "name": "prerotatedKeyHash",
              "type": "address"
            },
            {
              "internalType": "address",
              "name": "twicePrerotatedKeyHash",
              "type": "address"
            },
            {
              "internalType": "address",
              "name": "prevPublicKeyHash",
              "type": "address"
            },
            {
              "internalType": "address",
              "name": "outputAddress",
              "type": "address"
            },
            {
              "internalType": "bool",
              "name": "hasRelationship",
              "type": "bool"
            }
          ],
          "internalType": "struct Bridge.WrapParams",
          "name": "unconfirmed",
          "type": "tuple"
        },
        {
          "components": [
            {
              "internalType": "uint256",
              "name": "amount",
              "type": "uint256"
            },
            {
              "internalType": "bytes",
              "name": "signature",
              "type": "bytes"
            },
            {
              "internalType": "bytes",
              "name": "publicKey",
              "type": "bytes"
            },
            {
              "internalType": "address",
              "name": "prerotatedKeyHash",
              "type": "address"
            },
            {
              "internalType": "address",
              "name": "twicePrerotatedKeyHash",
              "type": "address"
            },
            {
              "internalType": "address",
              "name": "prevPublicKeyHash",
              "type": "address"
            },
            {
              "internalType": "address",
              "name": "outputAddress",
              "type": "address"
            },
            {
              "internalType": "bool",
              "name": "hasRelationship",
              "type": "bool"
            }
          ],
          "internalType": "struct Bridge.WrapParams",
          "name": "confirming",
          "type": "tuple"
        }
      ],
      "name": "wrapPairWithTransfer",
      "outputs": [],
      "stateMutability": "nonpayable",
      "type": "function"
    },
    {
      "inputs": [
        {
          "internalType": "address",
          "name": "",
          "type": "address"
        }
      ],
      "name": "wrappedToOriginal",
      "outputs": [
        {
          "internalType": "address",
          "name": "",
          "type": "address"
        }
      ],
      "stateMutability": "view",
      "type": "function"
    }
  ],
  "bytecode": "0x60a0806040523461002a57306080526129e590816100308239608051818181611478015261151f0152f35b600080fdfe61016080604052600436101561001457600080fd5b600061010052610100513560e01c908163081da8c1146121ad5750806309765f531461217857806321deec4f1461200e578063276c1ac014611fc7578063334976c714611f2257806333868f0b14611a3e5780634689a357146117185780634f1ef286146114e257806352d1902d146114635780635bf552091461125a5780636548e9bc14611214578063715018a6146111a35780637c0db610146111645780637ecebe00146111265780638406c079146110fb578063841acf3614610c8c5780638da5cb5b14610c54578063931b6b6014610ab2578063a001ecdd14610a92578063a42dce8014610a08578063a8bc3e0a146109c5578063ab804c5e1461049a578063ad3cb1cc146103ea578063ae06c1b714610387578063b5057a7b1461035a578063c415b95c1461032f578063c4d66de8146101bd578063d73792a91461019e5763f2fde38b1461016757600080fd5b34610197576020366003190112610197576101906101836121e9565b61018b612721565b6126ad565b6101005180f35b6101005180fd5b3461019757610100513660031901126101975760206040516127108152f35b34610197576020366003190112610197576101d66121e9565b7ff0c57e16840df040f15088dc2f81fe391c3923bec73e23a9662efc9c229c6a009081549060ff8260401c1615916001600160401b03811680159081610327575b600114908161031d575b159081610314575b506103025767ffffffffffffffff1981166001178455826102e3575b5061024e61281b565b61025661281b565b61025f336126ad565b61026761281b565b6001600160601b0360a01b9060018060a01b0316816101005154161761010051553390600654161760065560646007556102a2576101005180f35b68ff00000000000000001981541690557fc7f505b2f371ae2175ee4913f4499e1f2633a7b5936321eed1cdaeb6115181d2602060405160018152a180610190565b68ffffffffffffffffff19166801000000000000000117835583610245565b60405163f92ee8a960e01b8152600490fd5b90501585610229565b303b159150610221565b849150610217565b346101975761010051366003190112610197576006546040516001600160a01b039091168152602090f35b3461019757610100513660031901126101975761010051546040516001600160a01b039091168152602090f35b34610197576020366003190112610197576004356103a3612721565b61271081116103b6576007556101005180f35b60405162461bcd60e51b815260206004820152600c60248201526b08ccaca40e8dede40d0d2ced60a31b6044820152606490fd5b34610197576101005136600319011261019757604051604081018181106001600160401b038211176104845760405260058152602090640352e302e360dc1b602082015260405180926020825282519081602084015261010051935b82851061046b5750506040925061010051838284010152601f80199101168101030190f35b8481018201518686016040015293810193859350610446565b634e487b7160e01b600052604160045260246000fd5b34610197576104a8366122fc565b61010080516001600160a01b038086169091526003602052905160409020549193911691906104d88315156123bf565b33610100515260056020526040610100512080549060028201908183116109ab575561050660c0840161265a565b60405161052d8161051f8560208301958935898861242e565b03601f19810183528261223e565b5190206000805160206129508339815191526101005152601c5261058d61057d610574603c610100512061056e610567602089018961266e565b369161227a565b9061275a565b90929192612796565b6001600160a01b0316331461245b565b61059960c0860161265a565b6001820182116109ab576105c261051f916040519283916001602084019601908a35888861242e565b5190206000805160206129508339815191526101005152601c5261060c6105fc610574603c610100512061056e61056760208a018a61266e565b6001600160a01b031633146124a7565b6106188435833561240b565b936001600160a01b0382163b1561019757604051632770a7eb60e21b81526101008051336004840152602483018890529051829060449082906001600160a01b0388165af180156108c857610994575b50610100515460408401906001600160a01b031661056761069d61069861068f858961266e565b9390958961266e565b61235d565b926106aa6060880161265a565b946106b76080890161265a565b60a0526106c660a0890161265a565b906106d360c08a0161265a565b6106df60e08b016126a0565b6106f2610698610567604086018661266e565b6106fe6060850161265a565b9061070b6080860161265a565b9261071860a0870161265a565b9461073160e061072a60c08a0161265a565b98016126a0565b978b3b156101975761076b99604051608052635988f59760e01b60805152610100519e6080519e6080519d60a05193600460805101612514565b03906080519061010051905af180156108c857610979575b60018060a01b03166101005152600460205260ff604061010051205416600014610805576107fb6107d760c07fcca356c69c0991b2f138fe7c7f64cf9be89604118a06017a49e0001782bc6536930161265a565b604080516001600160a01b0390921682526020820195909552339490918291820190565b0390a36101005180f35b9190610821612710610819600754856125a2565b0480936125b5565b91806108d6575b509060209161083c60c0610871950161265a565b60405163a9059cbb60e01b81526001600160a01b03909116600482015260248101929092529092839190829081906044820190565b039161010051905af180156108c857610894916101005191610899575b506125da565b610190565b6108bb915060203d6020116108c1575b6108b3818361223e565b8101906125c2565b8261088e565b503d6108a9565b6040513d61010051823e3d90fd5b60065460405163a9059cbb60e01b81526001600160a01b03909116600482015260248101829052909291906020818060448101038161010051865af180156108c85761087195836000805160206129908339815191526020809861094a60c09661083c98610100519161095c575b50612618565b604051908152a2955050509091610828565b6109739150843d86116108c1576108b3818361223e565b8d610944565b61098460805161222b565b6101005115610783576101005180fd5b61099d9061222b565b610100516101975785610668565b634e487b7160e01b61010051526011600452602461010051fd5b34610197576020366003190112610197576001600160a01b036109e66121e9565b1661010051526004602052602060ff6040610100512054166040519015158152f35b3461019757602036600319011261019757610a216121e9565b610a29612721565b6001600160a01b03168015610a55576001600160601b0360a01b60065416176006556101005161010051f35b60405162461bcd60e51b815260206004820152601560248201527424b73b30b634b2103332b29031b7b63632b1ba37b960591b6044820152606490fd5b346101975761010051366003190112610197576020600754604051908152f35b346101975760a036600319011261019757610acb6121e9565b6024356044356001600160401b03811161019757610aed9036906004016122cf565b6064356001600160a01b03818116959291869003610c4f5780610b0e612215565b6040516323b872dd60e01b81523360048201523060248201526044810188905291909416969060208180606481010381610100518c5af180156108c857610b5e916101005191610c3057506125da565b8161010051541691610b7461069836868961227a565b94833b156101975781610ba160405198899763151cdb2f60e11b895260e060048a015260e48901916124f3565b9616602486015282604486015216606484015261010051608484015260a48301526101005160c483015281806101005194039161010051905af180156108c857610c19575b506040519081527ee8ffc569c5f605999e8ad11ec9db2ef2254b66370f5b963df609fa59854eb260203392a36101005180f35b610c229061222b565b610100516101975782610be6565b610c49915060203d6020116108c1576108b3818361223e565b8961088e565b600080fd5b34610197576101005136600319011261019757600080516020612970833981519152546040516001600160a01b039091168152602090f35b3461019757610c9a366122fc565b61010080516001600160a01b0380861690915260026020529051604090205416929091610cc88415156123bf565b33610100515260056020526040610100512080549060028201908183116109ab5755610cf660c0830161265a565b604051610d0f8161051f85602083019588358a8861242e565b5190206000805160206129508339815191526101005152601c52610d4961057d610574603c610100512061056e610567602088018861266e565b610d5560c0850161265a565b6001820182116109ab57610d7e61051f916040519283916001602084019601908935898861242e565b5190206000805160206129508339815191526101005152601c52610db86105fc610574603c610100512061056e610567602089018961266e565b610dc48335823561240b565b91612710610dd4600754856125a2565b0490610e136020610de584876125b5565b6040516323b872dd60e01b815233600482015230602482015260448101979097529591829081906064820190565b03816101005160018060a01b0387165af180156108c857610e3d9161010051916110dc57506125da565b8161103f575b5050610100515460408201906001600160a01b0316610567610e74610698610e6b858761266e565b9390958761266e565b92610e816060860161265a565b94610e8e6080820161265a565b60e05287610e9e60a0830161265a565b91610eb760e0610eb060c0840161265a565b92016126a0565b610eca610698610567604086018661266e565b610ed66060850161265a565b90610ee36080860161265a565b92610ef060a0870161265a565b94610f0260e061072a60c08a0161265a565b978b3b1561019757610f3c9960405160c052635988f59760e01b60c05152610100519e60c0519e60c0519d60e05193600460c05101612514565b039060c0519061010051905af180156108c857611024575b610f606060830161265a565b833b15610197576040516340c10f1960e01b8152610100516001600160a01b0390921660048201526024810183905290818060448101038161010051885af180156108c85761100d575b507fb5187db8729022d088cc50f8b09bdeaec0ac84d7686d287a7dd82dc25704f7f3916001600160a01b0390610fe29060600161265a565b604080516001600160a01b0390961686526020860193909352169290819081015b0390a26101005180f35b6110169061222b565b610100516101975783610faa565b61102f60c05161222b565b6101005115610f54576101005180fd5b60065460405163a9059cbb60e01b81526001600160a01b03918216600482015260248101849052610100519092916020918491604491839186165af19081156108c8576110a76020926000805160206129908339815191529461010051916110bf5750612618565b6040519384526001600160a01b031692a28480610e43565b6110d69150843d86116108c1576108b3818361223e565b8a610944565b6110f5915060203d6020116108c1576108b3818361223e565b8861088e565b346101975761010051366003190112610197576001546040516001600160a01b039091168152602090f35b34610197576020366003190112610197576001600160a01b036111476121e9565b166101005152600560205260206040610100512054604051908152f35b346101975760203660031901126101975760206001600160a01b03806111886121e9565b16610100515260038252604061010051205416604051908152f35b346101975761010051366003190112610197576111be612721565b60008051602061297083398151915280546001600160a01b031981169091556000906001600160a01b03167f8be0079c531659141344cd1fd0a4f28419497f9722a3daafe3b4186f6b6457e08280a36101005180f35b346101975760203660031901126101975761122d6121e9565b611235612721565b60018060a01b03166001600160601b0360a01b60015416176001556101005161010051f35b34610197576080366003190112610197576112736121e9565b61127b6121ff565b6044359060643561128a612721565b8061010051526020906008825260ff6040610100512054166114255761010051526008815260406101005120600160ff198254161790556112db6127106112d3600754866125a2565b0480946125b5565b9360018060a01b038091169384610100515260038352816040610100512054169080611396575b5050833b15610197576040516340c10f1960e01b8152610100516001600160a01b038516600483015260248201879052818060448101038161010051895af180156108c85761137f575b507fbf67ec129007be07f346d9d2933215293a6612ce7ff17d6b479a5a5cae72890c926040519586521693a36101005180f35b6113889061222b565b61010051610197578561134c565b60065460405163a9059cbb60e01b81529084166001600160a01b03166004820152602481018290529084828060448101038161010051875af19081156108c8576113fa86926000805160206129908339815191529461010051916114085750612618565b604051908152a28580611302565b61141f9150843d86116108c1576108b3818361223e565b8b610944565b60405162461bcd60e51b8152600481018390526016602482015275131bd8dac8185b1c9958591e481c1c9bd8d95cdcd95960521b6044820152606490fd5b346101975761010051366003190112610197577f00000000000000000000000000000000000000000000000000000000000000006001600160a01b031630036114d05760206040517f360894a13ba1a3210667c828492db98dca3e2076cc3735a920a3ca505d382bbc8152f35b60405163703e46dd60e11b8152600490fd5b6040366003190112610197576114f66121e9565b6024356001600160401b038111610197576115159036906004016122b1565b6001600160a01b037f000000000000000000000000000000000000000000000000000000000000000081163081149081156116ea575b506114d057611558612721565b821691604051916352d1902d60e01b83526020928381600481885afa6101005191816116bb575b5061159d57604051634c9c8ce360e01b815260048101869052602490fd5b7f360894a13ba1a3210667c828492db98dca3e2076cc3735a920a3ca505d382bbc908181036116a35750823b1561168a57846001600160601b0360a01b825416179055604051937fbc7cd75a20ee27fd9adebab32041f755214dbc6bffa90cc0225b39da2e5c2d3b6101005161010051a280511561166d5761165c9350610100519061010051908481519101845af4903d15611664573d9261163e8461225f565b9361164c604051958661223e565b8452610100513d9185013e6128ec565b506101005180f35b606092506128ec565b5050503461167b5750610190565b63b398979f60e01b8152600490fd5b604051634c9c8ce360e01b815260048101869052602490fd5b60249060405190632a87526960e21b82526004820152fd5b9091508481813d83116116e3575b6116d3818361223e565b810103126101975751908661157f565b503d6116c9565b9050817f360894a13ba1a3210667c828492db98dca3e2076cc3735a920a3ca505d382bbc541614158461154b565b3461019757611726366122fc565b61010080516001600160a01b038581169091526003602052905160409020541691906117538315156123bf565b33610100515260056020526040610100512080549060028201908183116109ab575561178160c0840161265a565b60405161179a8161051f85602083019589358c8861242e565b5190206000805160206129508339815191526101005152601c526117d461057d610574603c610100512061056e610567602089018961266e565b6117e060c0830161265a565b6001820182116109ab5761180961051f9160405192839160016020840196019087358b8861242e565b5190206000805160206129508339815191526101005152601c526118436105fc610574603c610100512061056e610567602087018761266e565b61010051546040830190610567906001600160a01b031661187361069861186a858861266e565b9490958861266e565b916118806060870161265a565b9361188d6080880161265a565b6101405261189d60a0880161265a565b866118aa60c08a0161265a565b6118b660e08b016126a0565b6118c9610698610567604086018661266e565b6118d56060850161265a565b906118e26080860161265a565b926118ef60a0870161265a565b9461190160e061072a60c08a0161265a565b978b3b15610197576119419960405161012052635988f59760e01b6101205152610100519e610120519e610120519d610140519360046101205101612514565b0390610120519061010051905af180156108c857611a22575b6119669035823561240b565b926001600160a01b0381163b1561019757604051632770a7eb60e21b81526101008051336004840152602483018790529051829060449082906001600160a01b0387165af180156108c857611a0b575b5060018060a01b03166101005152600460205260ff604061010051205416600014610805576107fb6107d760c07fcca356c69c0991b2f138fe7c7f64cf9be89604118a06017a49e0001782bc6536930161265a565b611a149061222b565b6101005161019757846119b6565b611a2e6101205161222b565b610100511561195a576101005180fd5b346101975761022036600319011261019757611a586121e9565b6044356001600160401b03811161019757611a779036906004016122cf565b91906064356001600160401b03811161019757611a989036906004016122cf565b9091611aa2612215565b9160a4356001600160a01b0381169003610c4f5760c4356001600160a01b0381169003610c4f5760e4356001600160a01b0381169003610c4f576101043515156101043503610c4f57610144356001600160401b03811161019757611b0b9036906004016122cf565b6001600160401b03610164939293351161019757611b2f36610164356004016122cf565b949093610184356001600160a01b0381169003610c4f576101a4356001600160a01b0381169003610c4f576101c4356001600160a01b0381169003610c4f576101e4356001600160a01b0381169003610c4f576102043515156102043503610c4f5761010080516001600160a01b038b81169091526002602052905160409020541699611bbd8b15156123bf565b3361010051526005602052604061010051208054936002850185116109ab57611c399261056e610574928e61057d9560028a019055604051611c108161051f8c602083019560e43590602435908861242e565b5190206000805160206129508339815191526101005152601c52603c610100512092369161227a565b6001820182116109ab57611c789261056e610574926105fc9461051f611c108e6040519283916001602084019601906101e4359061012435908861242e565b61010051546001600160a01b031691611ca39061069890611c9b8236868b61227a565b95369161227a565b94823b1561019757611cfa60405196879586948594635988f59760e01b8652610100519961020435946101e435946101c435946101a435948a6101843595610104359460e4359460c43594600460a4359501612514565b039161010051905af180156108c857611f0b575b50611d1e6101243560243561240b565b90612710611d2e600754846125a2565b0490611d6d6020611d3f84866125b5565b6040516323b872dd60e01b815233600482015230602482015260448101969096529491829081906064820190565b03816101005160018060a01b0387165af180156108c857611d97916101005191611eec57506125da565b81611e4f575b5050813b15610197576040516340c10f1960e01b8152610100516001600160a01b036101843516600483015260248201839052818060448101038161010051875af180156108c857611e38575b50604080516001600160a01b039384168152602081019290925261018435909216917fb5187db8729022d088cc50f8b09bdeaec0ac84d7686d287a7dd82dc25704f7f3919081908101611003565b611e419061222b565b610100516101975782611dea565b60065460405163a9059cbb60e01b81526001600160a01b03918216600482015260248101849052610100519092916020918491604491839186165af19081156108c857611eb7602092600080516020612990833981519152946101005191611ecf5750612618565b6040519384526001600160a01b031692a28280611d9d565b611ee69150843d86116108c1576108b3818361223e565b88610944565b611f05915060203d6020116108c1576108b3818361223e565b8661088e565b611f149061222b565b610100516101975782611d0e565b3461019757606036600319011261019757611f3b6121e9565b611f436121ff565b60443591821515809303610c4f57611f59612721565b60018060a01b038091169081610100515260026020526040610100512092166001600160601b0360a01b9281848254161790556101005152600360205260406101005120918254161790556004602052604061010051209060ff801983541691161790556101005161010051f35b34610197576020366003190112610197576004356001600160401b03811161019757611ffc61069860209236906004016122b1565b6040516001600160a01b039091168152f35b34610197576060366003190112610197576120276121e9565b61202f6121ff565b600154604435926001600160a01b03918216330361213b57811691826101005152600460205260ff604061010051205416156120f657823b15610197576040516340c10f1960e01b8152610100516001600160a01b038316600483015260248201869052909290838060448101038161010051885af19182156108c8577fbf67ec129007be07f346d9d2933215293a6612ce7ff17d6b479a5a5cae72890c936020936120e7575b506040519586521693a36101005180f35b6120f09061222b565b866120d6565b60405162461bcd60e51b815260206004820152601760248201527f4e6f7420612063726f73732d636861696e20746f6b656e0000000000000000006044820152606490fd5b60405162461bcd60e51b815260206004820152601560248201527413db9b1e481c995b185e595c8818d85b881b5a5b9d605a1b6044820152606490fd5b346101975760203660031901126101975760043561010051526008602052602060ff6040610100512054166040519015158152f35b34610197576020366003190112610197576020906001600160a01b03806121d26121e9565b166101005152600283526040610100512054168152f35b600435906001600160a01b0382168203610c4f57565b602435906001600160a01b0382168203610c4f57565b608435906001600160a01b0382168203610c4f57565b6001600160401b03811161048457604052565b90601f801991011681019081106001600160401b0382111761048457604052565b6001600160401b03811161048457601f01601f191660200190565b9291926122868261225f565b91612294604051938461223e565b829481845281830111610c4f578281602093846000960137010152565b9080601f83011215610c4f578160206122cc9335910161227a565b90565b9181601f84011215610c4f578235916001600160401b038311610c4f5760208381860195010111610c4f57565b60031991606082840112610c4f576004356001600160a01b0381168103610c4f57926024356001600160401b0391828211610c4f576101009182828288030112610c4f5760040194604435938411610c4f578390030112610c4f5760040190565b604081510361237a5780516020909101206001600160a01b031690565b60405162461bcd60e51b815260206004820152601b60248201527f5075626c6963206b6579206d75737420626520363420627974657300000000006044820152606490fd5b156123c657565b60405162461bcd60e51b815260206004820152601860248201527f546f6b656e2070616972206e6f7420737570706f7274656400000000000000006044820152606490fd5b9190820180921161241857565b634e487b7160e01b600052601160045260246000fd5b92606894926001600160601b0319809360601b168552601485015260601b16603483015260488201520190565b1561246257565b60405162461bcd60e51b815260206004820152601d60248201527f496e76616c696420756e636f6e6669726d6564207369676e61747572650000006044820152606490fd5b156124ae57565b60405162461bcd60e51b815260206004820152601c60248201527f496e76616c696420636f6e6669726d696e67207369676e6174757265000000006044820152606490fd5b908060209392818452848401376000828201840152601f01601f1916010190565b9c999394969a9598919e9d9b979e8d6101a0908181520190612535926124f3565b6001600160a01b0392831660208e015293821660408d015294811660608c015295861660808b015296851660a08a015299151560c089015290831660e088015293821661010087015292811661012086015291821661014085015216610160830152151561018090910152565b8181029291811591840414171561241857565b9190820391821161241857565b90816020910312610c4f57518015158103610c4f5790565b156125e157565b60405162461bcd60e51b815260206004820152600f60248201526e151c985b9cd9995c8819985a5b1959608a1b6044820152606490fd5b1561261f57565b60405162461bcd60e51b8152602060048201526013602482015272119959481d1c985b9cd9995c8819985a5b1959606a1b6044820152606490fd5b356001600160a01b0381168103610c4f5790565b903590601e1981360301821215610c4f57018035906001600160401b038211610c4f57602001918136038313610c4f57565b358015158103610c4f5790565b6001600160a01b039081169081156127085760008051602061297083398151915280546001600160a01b031981168417909155167f8be0079c531659141344cd1fd0a4f28419497f9722a3daafe3b4186f6b6457e0600080a3565b604051631e4fbdf760e01b815260006004820152602490fd5b600080516020612970833981519152546001600160a01b0316330361274257565b60405163118cdaa760e01b8152336004820152602490fd5b815191906041830361278b5761278492506020820151906060604084015193015160001a9061285c565b9192909190565b505060009160029190565b600481101561280557806127a8575050565b600181036127c25760405163f645eedf60e01b8152600490fd5b600281036127e35760405163fce698f760e01b815260048101839052602490fd5b6003146127ed5750565b602490604051906335e2f38360e21b82526004820152fd5b634e487b7160e01b600052602160045260246000fd5b60ff7ff0c57e16840df040f15088dc2f81fe391c3923bec73e23a9662efc9c229c6a005460401c161561284a57565b604051631afcd79f60e31b8152600490fd5b91907f7fffffffffffffffffffffffffffffff5d576e7357a4501ddfe92f46681b20a084116128e057926020929160ff608095604051948552168484015260408301526060820152600092839182805260015afa156128d45780516001600160a01b038116156128cb57918190565b50809160019190565b604051903d90823e3d90fd5b50505060009160039190565b90612913575080511561290157805190602001fd5b60405163d6bda27560e01b8152600490fd5b81511580612946575b612924575090565b604051639996b31560e01b81526001600160a01b039091166004820152602490fd5b50803b1561291c56fe19457468657265756d205369676e6564204d6573736167653a0a3332000000009016d09d72d40fdae2fd8ceac6b6234c7706214fd39c1cd1e609a0528c1993009dc46f23cfb5ddcad0ae7ea2be38d47fec07bb9382ec7e564efc69e036dd66cea26469706673582212203888529bc8256e91a65ffb1caaa478cfcce5da8c19c42c3ea87ebcb45e197a1a64736f6c63430008180033",
  "linkReferences": {},
  "deployedLinkReferences": {}
}