{
  "_format": "hh-sol-artifact-1",
  "contractName": "Bridge",
  "sourceName": "contracts/Bridge.sol",
  "abi": [
    {
      "inputs": [
        {
          "internalType": "address",
          "name": "target",
          "type": "address"
        }
      ],
      "name": "AddressEmptyCode",
      "type": "error"
    },
    {
      "inputs": [],
      "name": "AmountTooLow",
      "type": "error"
    },
    {
      "inputs": [],
      "name": "BurnAmountZero",
      "type": "error"
    },
    {
      "inputs": [],
      "name": "ECDSAInvalidSignature",
      "type": "error"
    },
    {
      "inputs": [
        {
          "internalType": "uint256",
          "name": "length",
          "type": "uint256"
        }
      ],
      "name": "ECDSAInvalidSignatureLength",
      "type": "error"
    },
    {
      "inputs": [
        {
          "internalType": "bytes32",
          "name": "s",
          "type": "bytes32"
        }
      ],
      "name": "ECDSAInvalidSignatureS",
      "type": "error"
    },
    {
      "inputs": [
        {
          "internalType": "address",
          "name": "implementation",
          "type": "address"
        }
      ],
      "name": "ERC1967InvalidImplementation",
      "type": "error"
    },
    {
      "inputs": [],
      "name": "ERC1967NonPayable",
      "type": "error"
    },
    {
      "inputs": [],
      "name": "EthTransferFailed",
      "type": "error"
    },
    {
      "inputs": [],
      "name": "FailedCall",
      "type": "error"
    },
    {
      "inputs": [],
      "name": "FeeTooHigh",
      "type": "error"
    },
    {
      "inputs": [],
      "name": "FeeTransferFailed",
      "type": "error"
    },
    {
      "inputs": [],
      "name": "InsufficientAllowance",
      "type": "error"
    },
    {
      "inputs": [
        {
          "internalType": "address",
          "name": "token",
          "type": "address"
        }
      ],
      "name": "InsufficientPermits",
      "type": "error"
    },
    {
      "inputs": [],
      "name": "InvalidConfirmingSignature",
      "type": "error"
    },
    {
      "inputs": [],
      "name": "InvalidFeeCollector",
      "type": "error"
    },
    {
      "inputs": [],
      "name": "InvalidInitialization",
      "type": "error"
    },
    {
      "inputs": [],
      "name": "InvalidPrerotatedKeyHash",
      "type": "error"
    },
    {
      "inputs": [],
      "name": "InvalidPriceFeed",
      "type": "error"
    },
    {
      "inputs": [],
      "name": "InvalidPublicKey",
      "type": "error"
    },
    {
      "inputs": [],
      "name": "InvalidUnconfirmedSignature",
      "type": "error"
    },
    {
      "inputs": [],
      "name": "NoTokenPairs",
      "type": "error"
    },
    {
      "inputs": [],
      "name": "NotInitializing",
      "type": "error"
    },
    {
      "inputs": [
        {
          "internalType": "address",
          "name": "owner",
          "type": "address"
        }
      ],
      "name": "OwnableInvalidOwner",
      "type": "error"
    },
    {
      "inputs": [
        {
          "internalType": "address",
          "name": "account",
          "type": "address"
        }
      ],
      "name": "OwnableUnauthorizedAccount",
      "type": "error"
    },
    {
      "inputs": [],
      "name": "ReentrancyGuardReentrantCall",
      "type": "error"
    },
    {
      "inputs": [],
      "name": "RestrictedToOwnerRelayer",
      "type": "error"
    },
    {
      "inputs": [],
      "name": "TokenPairExists",
      "type": "error"
    },
    {
      "inputs": [],
      "name": "TokenPairNotSupported",
      "type": "error"
    },
    {
      "inputs": [],
      "name": "TransferFailed",
      "type": "error"
    },
    {
      "inputs": [],
      "name": "UUPSUnauthorizedCallContext",
      "type": "error"
    },
    {
      "inputs": [
        {
          "internalType": "bytes32",
          "name": "slot",
          "type": "bytes32"
        }
      ],
      "name": "UUPSUnsupportedProxiableUUID",
      "type": "error"
    },
    {
      "inputs": [],
      "name": "ZeroAddress",
      "type": "error"
    },
    {
      "anonymous": false,
      "inputs": [
        {
          "indexed": false,
          "internalType": "uint64",
          "name": "version",
          "type": "uint64"
        }
      ],
      "name": "Initialized",
      "type": "event"
    },
    {
      "anonymous": false,
      "inputs": [
        {
          "indexed": true,
          "internalType": "address",
          "name": "previousOwner",
          "type": "address"
        },
        {
          "indexed": true,
          "internalType": "address",
          "name": "newOwner",
          "type": "address"
        }
      ],
      "name": "OwnershipTransferred",
      "type": "event"
    },
    {
      "anonymous": false,
      "inputs": [
        {
          "indexed": true,
          "internalType": "address",
          "name": "implementation",
          "type": "address"
        }
      ],
      "name": "Upgraded",
      "type": "event"
    },
    {
      "inputs": [],
      "name": "FEE_CAP_USD",
      "outputs": [
        {
          "internalType": "uint256",
          "name": "",
          "type": "uint256"
        }
      ],
      "stateMutability": "view",
      "type": "function"
    },
    {
      "inputs": [],
      "name": "FEE_DENOMINATOR",
      "outputs": [
        {
          "internalType": "uint256",
          "name": "",
          "type": "uint256"
        }
      ],
      "stateMutability": "view",
      "type": "function"
    },
    {
      "inputs": [],
      "name": "UPGRADE_INTERFACE_VERSION",
      "outputs": [
        {
          "internalType": "string",
          "name": "",
          "type": "string"
        }
      ],
      "stateMutability": "view",
      "type": "function"
    },
    {
      "inputs": [
        {
          "components": [
            {
              "internalType": "address",
              "name": "originalToken",
              "type": "address"
            },
            {
              "internalType": "string",
              "name": "tokenName",
              "type": "string"
            },
            {
              "internalType": "string",
              "name": "tokenSymbol",
              "type": "string"
            },
            {
              "internalType": "bool",
              "name": "isCrossChain",
              "type": "bool"
            },
            {
              "internalType": "address",
              "name": "wrappedToken",
              "type": "address"
            },
            {
              "internalType": "address",
              "name": "priceFeed",
              "type": "address"
            }
          ],
          "internalType": "struct Bridge.TokenPair[]",
          "name": "newTokenPairs",
          "type": "tuple[]"
        },
        {
          "components": [
            {
              "internalType": "bytes",
              "name": "signature",
              "type": "bytes"
            },
            {
              "internalType": "bytes",
              "name": "publicKey",
              "type": "bytes"
            },
            {
              "internalType": "address",
              "name": "publicKeyHash",
              "type": "address"
            },
            {
              "internalType": "address",
              "name": "prerotatedKeyHash",
              "type": "address"
            },
            {
              "internalType": "address",
              "name": "twicePrerotatedKeyHash",
              "type": "address"
            },
            {
              "internalType": "address",
              "name": "prevPublicKeyHash",
              "type": "address"
            },
            {
              "internalType": "address",
              "name": "outputAddress",
              "type": "address"
            },
            {
              "internalType": "bool",
              "name": "hasRelationship",
              "type": "bool"
            },
            {
              "components": [
                {
                  "internalType": "address",
                  "name": "token",
                  "type": "address"
                },
                {
                  "internalType": "uint256",
                  "name": "amount",
                  "type": "uint256"
                },
                {
                  "internalType": "uint256",
                  "name": "deadline",
                  "type": "uint256"
                },
                {
                  "internalType": "uint8",
                  "name": "v",
                  "type": "uint8"
                },
                {
                  "internalType": "bytes32",
                  "name": "r",
                  "type": "bytes32"
                },
                {
                  "internalType": "bytes32",
                  "name": "s",
                  "type": "bytes32"
                },
                {
                  "internalType": "address",
                  "name": "recipient",
                  "type": "address"
                }
              ],
              "internalType": "struct Bridge.PermitData[]",
              "name": "permits",
              "type": "tuple[]"
            }
          ],
          "internalType": "struct Bridge.KeyData",
          "name": "unconfirmed",
          "type": "tuple"
        },
        {
          "components": [
            {
              "internalType": "bytes",
              "name": "signature",
              "type": "bytes"
            },
            {
              "internalType": "bytes",
              "name": "publicKey",
              "type": "bytes"
            },
            {
              "internalType": "address",
              "name": "publicKeyHash",
              "type": "address"
            },
            {
              "internalType": "address",
              "name": "prerotatedKeyHash",
              "type": "address"
            },
            {
              "internalType": "address",
              "name": "twicePrerotatedKeyHash",
              "type": "address"
            },
            {
              "internalType": "address",
              "name": "prevPublicKeyHash",
              "type": "address"
            },
            {
              "internalType": "address",
              "name": "outputAddress",
              "type": "address"
            },
            {
              "internalType": "bool",
              "name": "hasRelationship",
              "type": "bool"
            },
            {
              "components": [
                {
                  "internalType": "address",
                  "name": "token",
                  "type": "address"
                },
                {
                  "internalType": "uint256",
                  "name": "amount",
                  "type": "uint256"
                },
                {
                  "internalType": "uint256",
                  "name": "deadline",
                  "type": "uint256"
                },
                {
                  "internalType": "uint8",
                  "name": "v",
                  "type": "uint8"
                },
                {
                  "internalType": "bytes32",
                  "name": "r",
                  "type": "bytes32"
                },
                {
                  "internalType": "bytes32",
                  "name": "s",
                  "type": "bytes32"
                },
                {
                  "internalType": "address",
                  "name": "recipient",
                  "type": "address"
                }
              ],
              "internalType": "struct Bridge.PermitData[]",
              "name": "permits",
              "type": "tuple[]"
            }
          ],
          "internalType": "struct Bridge.KeyData",
          "name": "confirming",
          "type": "tuple"
        }
      ],
      "name": "addMultipleTokenPairsAtomic",
      "outputs": [],
      "stateMutability": "payable",
      "type": "function"
    },
    {
      "inputs": [
        {
          "internalType": "address",
          "name": "originalToken",
          "type": "address"
        },
        {
          "internalType": "address",
          "name": "wrappedToken",
          "type": "address"
        },
        {
          "internalType": "bool",
          "name": "_isCrossChain",
          "type": "bool"
        }
      ],
      "name": "addTokenPair",
      "outputs": [],
      "stateMutability": "nonpayable",
      "type": "function"
    },
    {
      "inputs": [],
      "name": "feeCollector",
      "outputs": [
        {
          "internalType": "address",
          "name": "",
          "type": "address"
        }
      ],
      "stateMutability": "view",
      "type": "function"
    },
    {
      "inputs": [],
      "name": "feePercentage",
      "outputs": [
        {
          "internalType": "uint256",
          "name": "",
          "type": "uint256"
        }
      ],
      "stateMutability": "view",
      "type": "function"
    },
    {
      "inputs": [
        {
          "internalType": "bytes",
          "name": "publicKey",
          "type": "bytes"
        }
      ],
      "name": "getAddressFromPublicKey",
      "outputs": [
        {
          "internalType": "address",
          "name": "",
          "type": "address"
        }
      ],
      "stateMutability": "pure",
      "type": "function"
    },
    {
      "inputs": [],
      "name": "getSupportedTokens",
      "outputs": [
        {
          "internalType": "address[]",
          "name": "",
          "type": "address[]"
        }
      ],
      "stateMutability": "view",
      "type": "function"
    },
    {
      "inputs": [
        {
          "internalType": "address",
          "name": "_keyLogRegistry",
          "type": "address"
        }
      ],
      "name": "initialize",
      "outputs": [],
      "stateMutability": "nonpayable",
      "type": "function"
    },
    {
      "inputs": [],
      "name": "keyLogRegistry",
      "outputs": [
        {
          "internalType": "contract KeyLogRegistry",
          "name": "",
          "type": "address"
        }
      ],
      "stateMutability": "view",
      "type": "function"
    },
    {
      "inputs": [
        {
          "internalType": "address",
          "name": "",
          "type": "address"
        }
      ],
      "name": "nonces",
      "outputs": [
        {
          "internalType": "uint256",
          "name": "",
          "type": "uint256"
        }
      ],
      "stateMutability": "view",
      "type": "function"
    },
    {
      "inputs": [
        {
          "internalType": "address",
          "name": "originalToken",
          "type": "address"
        }
      ],
      "name": "originalToWrapped",
      "outputs": [
        {
          "internalType": "address",
          "name": "",
          "type": "address"
        }
      ],
      "stateMutability": "view",
      "type": "function"
    },
    {
      "inputs": [],
      "name": "owner",
      "outputs": [
        {
          "internalType": "address",
          "name": "",
          "type": "address"
        }
      ],
      "stateMutability": "view",
      "type": "function"
    },
    {
      "inputs": [],
      "name": "proxiableUUID",
      "outputs": [
        {
          "internalType": "bytes32",
          "name": "",
          "type": "bytes32"
        }
      ],
      "stateMutability": "view",
      "type": "function"
    },
    {
      "inputs": [
        {
          "components": [
            {
              "internalType": "uint256",
              "name": "amount",
              "type": "uint256"
            },
            {
              "internalType": "bytes",
              "name": "signature",
              "type": "bytes"
            },
            {
              "internalType": "bytes",
              "name": "publicKey",
              "type": "bytes"
            },
            {
              "internalType": "address",
              "name": "prerotatedKeyHash",
              "type": "address"
            },
            {
              "internalType": "address",
              "name": "twicePrerotatedKeyHash",
              "type": "address"
            },
            {
              "internalType": "address",
              "name": "prevPublicKeyHash",
              "type": "address"
            },
            {
              "internalType": "address",
              "name": "outputAddress",
              "type": "address"
            },
            {
              "internalType": "bool",
              "name": "hasRelationship",
              "type": "bool"
            },
            {
              "internalType": "address",
              "name": "tokenSource",
              "type": "address"
            },
            {
              "components": [
                {
                  "internalType": "address",
                  "name": "token",
                  "type": "address"
                },
                {
                  "internalType": "uint256",
                  "name": "amount",
                  "type": "uint256"
                },
                {
                  "internalType": "uint256",
                  "name": "deadline",
                  "type": "uint256"
                },
                {
                  "internalType": "uint8",
                  "name": "v",
                  "type": "uint8"
                },
                {
                  "internalType": "bytes32",
                  "name": "r",
                  "type": "bytes32"
                },
                {
                  "internalType": "bytes32",
                  "name": "s",
                  "type": "bytes32"
                },
                {
                  "internalType": "address",
                  "name": "recipient",
                  "type": "address"
                }
              ],
              "internalType": "struct Bridge.PermitData[]",
              "name": "permits",
              "type": "tuple[]"
            }
          ],
          "internalType": "struct Bridge.Params",
          "name": "unconfirmed",
          "type": "tuple"
        },
        {
          "components": [
            {
              "internalType": "uint256",
              "name": "amount",
              "type": "uint256"
            },
            {
              "internalType": "bytes",
              "name": "signature",
              "type": "bytes"
            },
            {
              "internalType": "bytes",
              "name": "publicKey",
              "type": "bytes"
            },
            {
              "internalType": "address",
              "name": "prerotatedKeyHash",
              "type": "address"
            },
            {
              "internalType": "address",
              "name": "twicePrerotatedKeyHash",
              "type": "address"
            },
            {
              "internalType": "address",
              "name": "prevPublicKeyHash",
              "type": "address"
            },
            {
              "internalType": "address",
              "name": "outputAddress",
              "type": "address"
            },
            {
              "internalType": "bool",
              "name": "hasRelationship",
              "type": "bool"
            },
            {
              "internalType": "address",
              "name": "tokenSource",
              "type": "address"
            },
            {
              "components": [
                {
                  "internalType": "address",
                  "name": "token",
                  "type": "address"
                },
                {
                  "internalType": "uint256",
                  "name": "amount",
                  "type": "uint256"
                },
                {
                  "internalType": "uint256",
                  "name": "deadline",
                  "type": "uint256"
                },
                {
                  "internalType": "uint8",
                  "name": "v",
                  "type": "uint8"
                },
                {
                  "internalType": "bytes32",
                  "name": "r",
                  "type": "bytes32"
                },
                {
                  "internalType": "bytes32",
                  "name": "s",
                  "type": "bytes32"
                },
                {
                  "internalType": "address",
                  "name": "recipient",
                  "type": "address"
                }
              ],
              "internalType": "struct Bridge.PermitData[]",
              "name": "permits",
              "type": "tuple[]"
            }
          ],
          "internalType": "struct Bridge.Params",
          "name": "confirming",
          "type": "tuple"
        }
      ],
      "name": "registerKeyPairWithTransfer",
      "outputs": [],
      "stateMutability": "payable",
      "type": "function"
    },
    {
      "inputs": [
        {
          "internalType": "bytes",
          "name": "publicKey",
          "type": "bytes"
        },
        {
          "internalType": "address",
          "name": "publicKeyHash",
          "type": "address"
        },
        {
          "internalType": "address",
          "name": "prerotatedKeyHash",
          "type": "address"
        },
        {
          "internalType": "address",
          "name": "twicePrerotatedKeyHash",
          "type": "address"
        },
        {
          "internalType": "address",
          "name": "prevPublicKeyHash",
          "type": "address"
        },
        {
          "internalType": "address",
          "name": "outputAddress",
          "type": "address"
        },
        {
          "internalType": "bool",
          "name": "hasRelationship",
          "type": "bool"
        },
        {
          "components": [
            {
              "internalType": "address",
              "name": "token",
              "type": "address"
            },
            {
              "internalType": "uint256",
              "name": "amount",
              "type": "uint256"
            },
            {
              "internalType": "uint256",
              "name": "deadline",
              "type": "uint256"
            },
            {
              "internalType": "uint8",
              "name": "v",
              "type": "uint8"
            },
            {
              "internalType": "bytes32",
              "name": "r",
              "type": "bytes32"
            },
            {
              "internalType": "bytes32",
              "name": "s",
              "type": "bytes32"
            },
            {
              "internalType": "address",
              "name": "recipient",
              "type": "address"
            }
          ],
          "internalType": "struct Bridge.PermitData[]",
          "name": "permits",
          "type": "tuple[]"
        }
      ],
      "name": "registerKeyWithTransfer",
      "outputs": [],
      "stateMutability": "payable",
      "type": "function"
    },
    {
      "inputs": [],
      "name": "relayer",
      "outputs": [
        {
          "internalType": "address",
          "name": "",
          "type": "address"
        }
      ],
      "stateMutability": "view",
      "type": "function"
    },
    {
      "inputs": [],
      "name": "renounceOwnership",
      "outputs": [],
      "stateMutability": "nonpayable",
      "type": "function"
    },
    {
      "inputs": [
        {
          "internalType": "address",
          "name": "_feeCollector",
          "type": "address"
        }
      ],
      "name": "setFeeCollector",
      "outputs": [],
      "stateMutability": "nonpayable",
      "type": "function"
    },
    {
      "inputs": [
        {
          "internalType": "uint256",
          "name": "_feePercentage",
          "type": "uint256"
        }
      ],
      "name": "setFeePercentage",
      "outputs": [],
      "stateMutability": "nonpayable",
      "type": "function"
    },
    {
      "inputs": [
        {
          "internalType": "address",
          "name": "_relayer",
          "type": "address"
        }
      ],
      "name": "setRelayer",
      "outputs": [],
      "stateMutability": "nonpayable",
      "type": "function"
    },
    {
      "inputs": [
        {
          "internalType": "address",
          "name": "token",
          "type": "address"
        },
        {
          "internalType": "address",
          "name": "priceFeed",
          "type": "address"
        }
      ],
      "name": "setTokenPriceFeed",
      "outputs": [],
      "stateMutability": "nonpayable",
      "type": "function"
    },
    {
      "inputs": [
        {
          "internalType": "uint256",
          "name": "",
          "type": "uint256"
        }
      ],
      "name": "supportedOriginalTokens",
      "outputs": [
        {
          "internalType": "address",
          "name": "",
          "type": "address"
        }
      ],
      "stateMutability": "view",
      "type": "function"
    },
    {
      "inputs": [
        {
          "internalType": "address",
          "name": "",
          "type": "address"
        }
      ],
      "name": "tokenPairs",
      "outputs": [
        {
          "internalType": "address",
          "name": "originalToken",
          "type": "address"
        },
        {
          "internalType": "address",
          "name": "wrappedToken",
          "type": "address"
        },
        {
          "internalType": "bool",
          "name": "isCrossChain",
          "type": "bool"
        }
      ],
      "stateMutability": "view",
      "type": "function"
    },
    {
      "inputs": [
        {
          "internalType": "address",
          "name": "",
          "type": "address"
        }
      ],
      "name": "tokenPriceFeeds",
      "outputs": [
        {
          "internalType": "contract AggregatorV3Interface",
          "name": "",
          "type": "address"
        }
      ],
      "stateMutability": "view",
      "type": "function"
    },
    {
      "inputs": [
        {
          "internalType": "address",
          "name": "newOwner",
          "type": "address"
        }
      ],
      "name": "transferOwnership",
      "outputs": [],
      "stateMutability": "nonpayable",
      "type": "function"
    },
    {
      "inputs": [
        {
          "internalType": "address",
          "name": "wrappedToken",
          "type": "address"
        },
        {
          "components": [
            {
              "internalType": "uint256",
              "name": "amount",
              "type": "uint256"
            },
            {
              "internalType": "bytes",
              "name": "signature",
              "type": "bytes"
            },
            {
              "internalType": "bytes",
              "name": "publicKey",
              "type": "bytes"
            },
            {
              "internalType": "address",
              "name": "prerotatedKeyHash",
              "type": "address"
            },
            {
              "internalType": "address",
              "name": "twicePrerotatedKeyHash",
              "type": "address"
            },
            {
              "internalType": "address",
              "name": "prevPublicKeyHash",
              "type": "address"
            },
            {
              "internalType": "address",
              "name": "outputAddress",
              "type": "address"
            },
            {
              "internalType": "bool",
              "name": "hasRelationship",
              "type": "bool"
            },
            {
              "internalType": "address",
              "name": "tokenSource",
              "type": "address"
            },
            {
              "components": [
                {
                  "internalType": "address",
                  "name": "token",
                  "type": "address"
                },
                {
                  "internalType": "uint256",
                  "name": "amount",
                  "type": "uint256"
                },
                {
                  "internalType": "uint256",
                  "name": "deadline",
                  "type": "uint256"
                },
                {
                  "internalType": "uint8",
                  "name": "v",
                  "type": "uint8"
                },
                {
                  "internalType": "bytes32",
                  "name": "r",
                  "type": "bytes32"
                },
                {
                  "internalType": "bytes32",
                  "name": "s",
                  "type": "bytes32"
                },
                {
                  "internalType": "address",
                  "name": "recipient",
                  "type": "address"
                }
              ],
              "internalType": "struct Bridge.PermitData[]",
              "name": "permits",
              "type": "tuple[]"
            }
          ],
          "internalType": "struct Bridge.Params",
          "name": "unconfirmed",
          "type": "tuple"
        },
        {
          "components": [
            {
              "internalType": "uint256",
              "name": "amount",
              "type": "uint256"
            },
            {
              "internalType": "bytes",
              "name": "signature",
              "type": "bytes"
            },
            {
              "internalType": "bytes",
              "name": "publicKey",
              "type": "bytes"
            },
            {
              "internalType": "address",
              "name": "prerotatedKeyHash",
              "type": "address"
            },
            {
              "internalType": "address",
              "name": "twicePrerotatedKeyHash",
              "type": "address"
            },
            {
              "internalType": "address",
              "name": "prevPublicKeyHash",
              "type": "address"
            },
            {
              "internalType": "address",
              "name": "outputAddress",
              "type": "address"
            },
            {
              "internalType": "bool",
              "name": "hasRelationship",
              "type": "bool"
            },
            {
              "internalType": "address",
              "name": "tokenSource",
              "type": "address"
            },
            {
              "components": [
                {
                  "internalType": "address",
                  "name": "token",
                  "type": "address"
                },
                {
                  "internalType": "uint256",
                  "name": "amount",
                  "type": "uint256"
                },
                {
                  "internalType": "uint256",
                  "name": "deadline",
                  "type": "uint256"
                },
                {
                  "internalType": "uint8",
                  "name": "v",
                  "type": "uint8"
                },
                {
                  "internalType": "bytes32",
                  "name": "r",
                  "type": "bytes32"
                },
                {
                  "internalType": "bytes32",
                  "name": "s",
                  "type": "bytes32"
                },
                {
                  "internalType": "address",
                  "name": "recipient",
                  "type": "address"
                }
              ],
              "internalType": "struct Bridge.PermitData[]",
              "name": "permits",
              "type": "tuple[]"
            }
          ],
          "internalType": "struct Bridge.Params",
          "name": "confirming",
          "type": "tuple"
        }
      ],
      "name": "unwrapPairWithTransfer",
      "outputs": [],
      "stateMutability": "payable",
      "type": "function"
    },
    {
      "inputs": [
        {
          "internalType": "address",
          "name": "newImplementation",
          "type": "address"
        },
        {
          "internalType": "bytes",
          "name": "data",
          "type": "bytes"
        }
      ],
      "name": "upgradeToAndCall",
      "outputs": [],
      "stateMutability": "payable",
      "type": "function"
    },
    {
      "inputs": [
        {
          "internalType": "address",
          "name": "originalToken",
          "type": "address"
        },
        {
          "components": [
            {
              "internalType": "uint256",
              "name": "amount",
              "type": "uint256"
            },
            {
              "internalType": "bytes",
              "name": "signature",
              "type": "bytes"
            },
            {
              "internalType": "bytes",
              "name": "publicKey",
              "type": "bytes"
            },
            {
              "internalType": "address",
              "name": "prerotatedKeyHash",
              "type": "address"
            },
            {
              "internalType": "address",
              "name": "twicePrerotatedKeyHash",
              "type": "address"
            },
            {
              "internalType": "address",
              "name": "prevPublicKeyHash",
              "type": "address"
            },
            {
              "internalType": "address",
              "name": "outputAddress",
              "type": "address"
            },
            {
              "internalType": "bool",
              "name": "hasRelationship",
              "type": "bool"
            },
            {
              "internalType": "address",
              "name": "tokenSource",
              "type": "address"
            },
            {
              "components": [
                {
                  "internalType": "address",
                  "name": "token",
                  "type": "address"
                },
                {
                  "internalType": "uint256",
                  "name": "amount",
                  "type": "uint256"
                },
                {
                  "internalType": "uint256",
                  "name": "deadline",
                  "type": "uint256"
                },
                {
                  "internalType": "uint8",
                  "name": "v",
                  "type": "uint8"
                },
                {
                  "internalType": "bytes32",
                  "name": "r",
                  "type": "bytes32"
                },
                {
                  "internalType": "bytes32",
                  "name": "s",
                  "type": "bytes32"
                },
                {
                  "internalType": "address",
                  "name": "recipient",
                  "type": "address"
                }
              ],
              "internalType": "struct Bridge.PermitData[]",
              "name": "permits",
              "type": "tuple[]"
            }
          ],
          "internalType": "struct Bridge.Params",
          "name": "unconfirmed",
          "type": "tuple"
        },
        {
          "components": [
            {
              "internalType": "uint256",
              "name": "amount",
              "type": "uint256"
            },
            {
              "internalType": "bytes",
              "name": "signature",
              "type": "bytes"
            },
            {
              "internalType": "bytes",
              "name": "publicKey",
              "type": "bytes"
            },
            {
              "internalType": "address",
              "name": "prerotatedKeyHash",
              "type": "address"
            },
            {
              "internalType": "address",
              "name": "twicePrerotatedKeyHash",
              "type": "address"
            },
            {
              "internalType": "address",
              "name": "prevPublicKeyHash",
              "type": "address"
            },
            {
              "internalType": "address",
              "name": "outputAddress",
              "type": "address"
            },
            {
              "internalType": "bool",
              "name": "hasRelationship",
              "type": "bool"
            },
            {
              "internalType": "address",
              "name": "tokenSource",
              "type": "address"
            },
            {
              "components": [
                {
                  "internalType": "address",
                  "name": "token",
                  "type": "address"
                },
                {
                  "internalType": "uint256",
                  "name": "amount",
                  "type": "uint256"
                },
                {
                  "internalType": "uint256",
                  "name": "deadline",
                  "type": "uint256"
                },
                {
                  "internalType": "uint8",
                  "name": "v",
                  "type": "uint8"
                },
                {
                  "internalType": "bytes32",
                  "name": "r",
                  "type": "bytes32"
                },
                {
                  "internalType": "bytes32",
                  "name": "s",
                  "type": "bytes32"
                },
                {
                  "internalType": "address",
                  "name": "recipient",
                  "type": "address"
                }
              ],
              "internalType": "struct Bridge.PermitData[]",
              "name": "permits",
              "type": "tuple[]"
            }
          ],
          "internalType": "struct Bridge.Params",
          "name": "confirming",
          "type": "tuple"
        }
      ],
      "name": "wrapPairWithTransfer",
      "outputs": [],
      "stateMutability": "payable",
      "type": "function"
    }
  ],
  "bytecode": "0x60a0806040523461002a5730608052615f41908161003082396080518181816125d501526126840152f35b600080fdfe60c08060405260043610156200001457600080fd5b600060a05260a0513560e01c908163081da8c1146200349757508063276c1ac0146200344a578063334976c7146200330a5780633d186d6e14620028c357806347bbbdf514620028645780634f1ef286146200264057806352d1902d14620025bf57806360fc437a14620022ba5780636548e9bc1462002270578063674417ae146200220a578063684913a21462001c6e578063715018a61462001bfa5780637ecebe001462001bba5780638406c0791462001b8e5780638d6429b014620011d85780638da5cb5b146200119e578063a001ecdd146200117d578063a42dce801462001119578063ad3cb1cc14620010b7578063ae06c1b71462001072578063b5057a7b1462001045578063bd9c47e31462001004578063c415b95c1462000fd8578063c4d66de81462000e2b578063d3c7c2c71462000d57578063d73792a91462000d37578063d8397fd51462000cf0578063f2fde38b1462000c8f578063f9baf7bf1462000c685763fcc93938146200018e57600080fd5b600319606036820112620005d7576001600160401b0360043511620005d757366023600435011215620005d7576001600160401b036004356004013511620005d7573660246004356004013560051b600435010111620005d7576001600160401b0360243511620005d75761012090818160243536030112620005d7576001600160401b0360443511620005d75760443536030112620005d7576200023262003b32565b6200023c62003b6d565b600435600401351562000c56573360a051526005602052604060a0512054620002ce620002c76200027260446024350162003797565b604051620002a78162000298876020830195600435600401356024600435018862003a01565b03601f19810183528262003582565b519020620002bb60046024350180620037ac565b929033933691620035c0565b9062003b9f565b1562000c4457620002e460446024350162003797565b600182018211620007e2576200036f916200029862000324620002c793604051928391600160208401960190600435600401356024600435018862003a01565b5190206200033860046044350180620037ac565b9290620003666200036062000358602460443501604435600401620037ac565b3691620035c0565b62003722565b933691620035c0565b1562000c32576200038560a46024350162003797565b50620003a9620003a16101046024350160243560040162003828565b3691620038ec565b60a05190815b81518110156200042b576001600160a01b03620003cd828462003bf7565b515116158062000410575b620003e7575b600101620003af565b91620004076001916020620003fd868662003bf7565b51015190620037e1565b929050620003de565b5060406200041f828462003bf7565b510151421115620003d8565b8262000c1857620004826200047b6200044960a46024350162003797565b620004606101046024350160243560040162003828565b92906200047260c46044350162003797565b933691620038ec565b9062003f68565b60a0515b60065481101562000632576200049c81620036d4565b90546001600160a01b039160031b1c8116620004bd60243560440162003797565b6040516370a0823160e01b815292166004830152602082602481845afa918215620005e65760a05192620005f3575b5081620004ff575b505060010162000486565b62000563916020916200051760446024350162003797565b6200052760c46044350162003797565b6040516323b872dd60e01b81526001600160a01b0392831660048201529116602482015260448101929092529092839190829081906064820190565b039160a051905af1908115620005e65760a051916200059e575b50156200058c578180620004f4565b6040516312171d8360e31b8152600490fd5b90506020813d602011620005dd575b81620005bc6020938362003582565b81010312620005d757620005d0906200381a565b826200057d565b60a05180fd5b3d9150620005ad565b6040513d60a051823e3d90fd5b9091506020813d60201162000629575b81620006126020938362003582565b810103126200062457519083620004ec565b600080fd5b3d915062000603565b60a0515b6004356004013581106200085b57620007436200065d6024803501602435600401620037ac565b6200067060646024949394350162003797565b926200068160846024350162003797565b6200069160a46024350162003797565b94620006a260c46024350162003797565b91620006b360e4602435016200395b565b620006c9602460443501604435600401620037ac565b91909460646044350199620006de8b62003797565b94620006ef60846044350162003797565b966200073c6200070460a46044350162003797565b99620007336200071960c46044350162003797565b9c6200072a60e4604435016200395b565b9e3691620035c0565b973691620035c0565b9562004146565b6001600160a01b0380620007578362003797565b16620007fa575b503360a051526005602052604060a0512080549060028201809211620007e25755346200079f575b600160008051602062005eec8339815191525560a05180f35b60a051908190819081903490620007b69062003797565b5af1620007c262003977565b5015620007d0578062000786565b604051630db2c7f160e31b8152600490fd5b634e487b7160e01b60a051526011600452602460a051fd5b620008058262003797565b906200081062003b32565b8116908115620008495762000842916001600160601b0360a01b60025416176002556200083c62003b32565b62004223565b816200075e565b60405163d92e233d60e01b8152600490fd5b60248160051b6004350101359060e219600435360301821215620005d75760c09182602319826004350136030112620005d7576040519283818101106001600160401b03828601111762000c02578301604052620008c060248260043501016200353d565b83526001600160401b0360448260043501013511620005d757620008f2366004358301604481013501602401620035fc565b60208401526001600160401b0360648260043501013511620005d7576200096d9060c4906200092f366004358301606481013501602401620035fc565b60408601526200094660848260043501016200361d565b60608601526200095d60a48260043501016200353d565b608086015260043501016200353d565b60a083810191909152825181516001600160a01b0391821690526004602052905160409020600101541662000bf05760808201516001600160a01b0316801562000b33575b82516060840151604051600195939290911515906001600160a01b0316620009da8362003552565b825260a086811b8790038481166020808601918252604080870195865288518551908516905260049091528351819020955186549084166001600160a01b0319909116178655905194890180549451151590931b60ff60a01b9081169583166001600160a81b03199586161795909517909255855160608701519251921515949392899290911662000a6c8262003552565b81526020810195828060a01b038116875260408201958652828060a01b031660a051526004602052604060a0512090828060a01b039051166001600160601b0360a01b8254161781550193878060a01b039051169184549351151560a01b1692161717905562000ae4838060a01b0382511662003752565b828060a01b0360a082015116908162000b01575b50500162000636565b838060a01b0390511660a051526007602052604060a05120906001600160601b0360a01b825416179055828062000af8565b506020820151604083015160018060a01b0360a05154166040519283611a2c8101106001600160401b03611a2c8601111762000bd857839262000b8f62000ba692611a2c620044a087396080611a2c8701818152019062003692565b90611a2c850182036020611a2c8701015262003692565b90306040611a2c850101526060611a2c84010152039060a051f0918215620005e657916001600160a01b0316620009b2565b634e487b7160e01b60a051526041600452602460a051fd5b604051636bb9e87d60e01b8152600490fd5b634e487b7160e01b600052604160045260246000fd5b60405163073c639b60e41b815260a0516004820152602490fd5b604051633bc0bb3d60e21b8152600490fd5b604051637a9e3e8360e01b8152600490fd5b604051630554f0a760e41b8152600490fd5b34620005d75760a051366003190112620005d7576020604051683635c9adc5dea000008152f35b34620005d7576020366003190112620005d75762000cac6200350f565b62000cb662003b32565b6001600160a01b038116908115620008495762000cea916001600160601b0360a01b60025416176002556200083c62003b32565b60a05180f35b34620005d7576020366003190112620005d757600435600654811015620005d75762000d1e602091620036d4565b905460405160039290921b1c6001600160a01b03168152f35b34620005d75760a051366003190112620005d75760206040516127108152f35b34620005d75760a051366003190112620005d7576040518060065480835260208093018091600660a051527ff652222313e28459528d920b65115c16c04f3efc82aaedc97be59f3f377c0d3f9060a0515b8682821062000e0d57868662000dc18288038362003582565b604051928392818401908285525180915260408401929160a0515b82811062000dec57505050500390f35b83516001600160a01b03168552869550938101939281019260010162000ddc565b83546001600160a01b03168552909301926001928301920162000da8565b34620005d7576020366003190112620005d75762000e486200350f565b7ff0c57e16840df040f15088dc2f81fe391c3923bec73e23a9662efc9c229c6a009081549060ff8260401c1615916001600160401b0381168015908162000fcf575b600114908162000fc4575b15908162000fba575b5062000fa85767ffffffffffffffff19811660011784558262000f88575b5062000ec762004299565b62000ed162004299565b62000edc3362004223565b62000ee662004299565b62000ef062004299565b62000efa62004299565b600160008051602062005eec833981519152556001600160601b0360a01b9060018060a01b03168160a05154161760a0515533906002541617600255600160035562000f465760a05180f35b68ff00000000000000001981541690557fc7f505b2f371ae2175ee4913f4499e1f2633a7b5936321eed1cdaeb6115181d2602060405160018152a18062000cea565b68ffffffffffffffffff1916680100000000000000011783558362000ebc565b60405163f92ee8a960e01b8152600490fd5b9050158562000e9e565b303b15915062000e95565b84915062000e8a565b34620005d75760a051366003190112620005d7576002546040516001600160a01b039091168152602090f35b34620005d7576020366003190112620005d75760206001600160a01b03806200102c6200350f565b1660a0515260078252604060a051205416604051908152f35b34620005d75760a051366003190112620005d75760a051546040516001600160a01b039091168152602090f35b34620005d7576020366003190112620005d7576004356200109262003b32565b6127108111620010a55760035560a05180f35b60405163cd4e616760e01b8152600490fd5b34620005d75760a051366003190112620005d75760405160408101908082106001600160401b0383111762000c0257620011159160405260058152640352e302e360dc1b602082015260405191829160208352602083019062003692565b0390f35b34620005d7576020366003190112620005d757620011366200350f565b6200114062003b32565b6001600160a01b031680156200116b576001600160601b0360a01b600254161760025560a05160a051f35b60405163bb0bac9960e01b8152600490fd5b34620005d75760a051366003190112620005d7576020600354604051908152f35b34620005d75760a051366003190112620005d75760008051602062005ecc833981519152546040516001600160a01b039091168152602090f35b620011e3366200362b565b90620011ee62003b6d565b60018060a01b03831660a051526004602052604060a051209160405192620012168462003552565b80546001600160a01b0390811680865260019290920154908116602086015260a01c60ff16151560408501908152901562001b7c575115158062001b58575b8062001b42575b62001b30573360a051526005602052604060a0512054620012f1620002c76200128860c0860162003797565b604080516001600160a01b03808b166020830190815289359383019390935290921660608301526080820185905290620012c68160a0810162000298565b519020620012d86020870187620037ac565b929062000366620003606200035860408b018b620037ac565b1562000c44576200130560c0830162003797565b600182018211620007e257604080516001600160a01b038089166020830190815286359383019390935290921660608301526001830160808301526200138591620002c791906200135a8160a0810162000298565b5190206200136c6020860186620037ac565b929062000366620003606200035860408a018a620037ac565b1562000c32576200139982358435620037e1565b93620013ae620003a161012086018662003828565b9360a0519360a0515b86518110156200142d576001600160a01b0389811690620013d9838a62003bf7565b515116148062001412575b620013f3575b600101620013b7565b94620014096001916020620003fd898b62003bf7565b959050620013ea565b50604062001421828962003bf7565b510151421115620013e4565b508680899495960362001b0f578451620014529082906001600160a01b031662003c65565b80911062001afd5762001488946200146f61012085018562003828565b96906200147f6060860162003797565b973691620038ec565b9360005b8551811015620016ba57620014a2818762003bf7565b5160006001600160a01b03891680151590620016a3575b8062001680575b62001677575b6020820151918215158062001668575b8062001654575b620014ef575b5050506001016200148c565b60018060a01b03815116604082015160ff6060840151169460808401519060a085015191843b15620006245760009460e49386926040519a8b97889663d505accf60e01b885233600489015230602489015260448801526064870152608486015260a485015260c48401525af19182156200162e57620015c49360209362001642575b50156200163a5761dead905b8051908301516040516323b872dd60e01b81523360048201526001600160a01b039384166024820152604481019190915293849290911690829060009082906064820190565b03925af19081156200162e57600091620015e9575b50156200058c57898080620014e3565b906020823d60201162001625575b81620016066020938362003582565b810103126200162257506200161b906200381a565b8a620015d9565b80fd5b3d9150620015f7565b6040513d6000823e3d90fd5b8a906200157e565b6200164d906200356e565b8d62001572565b5080516001600160a01b03161515620014dd565b506040810151421115620014d6565b506001620014c6565b5081516001600160a01b03908116825260046020526040822054161515620014c0565b5081516001600160a01b038a8116911614620014b9565b5087620016cb6040830183620037ac565b86620016da6060860162003797565b92620016e96080870162003797565b620016f760a0880162003797565b906200170660c0890162003797565b956200171560e08a016200395b565b620017246040870187620037ac565b989094620017356060890162003797565b946200174460808a0162003797565b966200175360a08b0162003797565b986200176260c08c0162003797565b9a60e00162001771906200395b565b9b36906200177f92620035c0565b9b36906200178d92620035c0565b94620017999b62004146565b60008051602062005ecc833981519152546001600160a01b031633148062001add575b62001a8b575b60028101809111620007e2573360a051526005602052604060a05120558035908435938015158062001a40575b62001990575b508162001901575b50508162001841575b5050346200182757600160008051602062005eec8339815191525560a05180f35b60a051908190819081903490620007b69060600162003797565b5162001896916020916001600160a01b0316620018616060860162003797565b60405163a9059cbb60e01b81526001600160a01b03909116600482015260248101929092529092839190829081906044820190565b039160a051905af1908115620005e65760a05191620018bf575b50156200058c57818062001806565b90506020813d602011620018f8575b81620018dd6020938362003582565b81010312620005d757620018f1906200381a565b82620018b0565b3d9150620018ce565b8251620019259260209290916001600160a01b031690620018619060c00162003797565b039160a051905af1908115620005e65760a051916200194e575b50156200058c578380620017fd565b90506020813d60201162001987575b816200196c6020938362003582565b81010312620005d75762001980906200381a565b846200193f565b3d91506200195d565b835160025460405163a9059cbb60e01b81526001600160a01b039182166004820152602481019390935260a051602092849260449284929091165af1908115620005e65760a05191620019fe575b5015620019ec5785620017f5565b604051634033e4e360e01b8152600490fd5b90506020813d60201162001a37575b8162001a1c6020938362003582565b81010312620005d75762001a30906200381a565b86620019de565b3d915062001a0d565b90949092863586111562001a73575062001a5b908562003969565b9362001a6c60a05195833562003969565b92620017ef565b9294905062001a8481873562003969565b94620017ef565b62001a996060860162003797565b62001aa362003b32565b6001600160a01b038116908115620008495762001ad7916001600160601b0360a01b60025416176002556200083c62003b32565b620017c2565b506001600160a01b0362001af46060870162003797565b161515620017bc565b604051631fbaba3560e01b8152600490fd5b60405163073c639b60e41b81526001600160a01b0385166004820152602490fd5b60405163167c9f4d60e11b8152600490fd5b506001546001600160a01b03163314156200125c565b5060008051602062005ecc833981519152546001600160a01b031633141562001255565b604051637879bad160e01b8152600490fd5b34620005d75760a051366003190112620005d7576001546040516001600160a01b039091168152602090f35b34620005d7576020366003190112620005d7576001600160a01b0362001bdf6200350f565b1660a0515260056020526020604060a0512054604051908152f35b34620005d75760a051366003190112620005d75762001c1862003b32565b60008051602062005ecc83398151915280546001600160a01b031981169091556000906001600160a01b03167f8be0079c531659141344cd1fd0a4f28419497f9722a3daafe3b4186f6b6457e08280a360a05180f35b600319604036820112620005d7576001600160401b0390600435828111620005d7578060040161014080848436030112620005d757602493602435958611620005d7578536030112620005d75762001cc562003b6d565b61012482019162001cdb620003a1848462003828565b9260a0519260a0515b855181101562001d56576001600160a01b0362001d02828862003bf7565b515116158062001d3b575b62001d1c575b60010162001ce4565b9362001d326001916020620003fd888a62003bf7565b94905062001d13565b50604062001d4a828862003bf7565b51015142111562001d0d565b5085879462000c185760a05194855b62001d71858562003828565b905081101562001ec55762001d87858562003828565b82101562001eae5762001da190369060e084020162003860565b6020810190815115158062001e8c575b62001dc2575b505060010162001d65565b80519298926001600160a01b039190821662001e525762001de5835185620037e1565b341062001e395760c001818151161562000849575160a05183519092839283928392909116617530f162001e1862003977565b5015620007d05760019162001e2f915190620037e1565b965b908862001db7565b60405163073c639b60e41b815260a05160048201528690fd5b60019399925062001e7f60c09162001e869362001e708b8b62003828565b949092015116923691620038ec565b3362003f68565b62001e31565b5080516001600160a01b0316158062001db15750604081015142111562001db1565b83634e487b7160e01b60a05152603260045260a051fd5b509084869360a0515b600654811015620020295762001ee481620036d4565b90546040516370a0823160e01b8152336004820152602092909160039190911b1c6001600160a01b031682828881845afa918215620005e65760a0519262001ff4575b508162001f3b575b50505060010162001ece565b62001f8b91839162001f5060c48b0162003797565b6040516323b872dd60e01b81523360048201526001600160a01b03909116602482015260448101929092529092839190829081906064820190565b039160a051905af1918215620005e65760a0519262001fb6575b5050156200058c5786808062001f2f565b90809250813d831162001fec575b62001fd0818362003582565b81010312620005d75762001fe4906200381a565b878062001fa5565b503d62001fc4565b9091508281813d831162002021575b6200200f818362003582565b81010312620006245751908962001f27565b503d62002003565b50915092803411620021a8575b5060008051602062005ecc833981519152546001600160a01b039081163314806200218f575b62002143575b50604483016200207291620037ac565b9190620020826064850162003797565b620020906084860162003797565b6200209e60a4870162003797565b91620020ad60c4880162003797565b9660e401620020bc906200395b565b620020ce6044870160048801620037ac565b989094620020df6064890162003797565b94620020ee60848a0162003797565b96620020fd60a48b0162003797565b986200210c60c48c0162003797565b9a60e4016200211b906200395b565b9b36906200212992620035c0565b9b36906200213792620035c0565b94620007869b62004146565b620021516064840162003797565b906200215c62003b32565b8116908115620008495762002188916001600160601b0360a01b60025416176002556200083c62003b32565b8362002062565b50806200219f6064850162003797565b1615156200205c565b620021b4903462003969565b8015620020365760c483016001600160a01b03620021d28262003797565b1615620008495760a05191829182918291620021ee9062003797565b617530f1620021fc62003977565b5015620007d0578362002036565b34620005d7576040366003190112620005d757620022276200350f565b6200223162003526565b906200223c62003b32565b60a080516001600160a01b0392831690526007602052516040812080546001600160a01b0319169390921692909217905580f35b34620005d7576020366003190112620005d7576200228d6200350f565b6200229762003b32565b60018060a01b03166001600160601b0360a01b600154161760015560a05160a051f35b610100366003190112620005d7576001600160401b03600435818111620005d757620022eb903690600401620035fc565b90620022f662003526565b6044356001600160a01b03811693908490036200062457606435916001600160a01b03831683036200062457608435916001600160a01b0383168303620006245760a4356001600160a01b0381169003620006245760c435938415158503620006245760e43595808711620005d75736602388011215620005d757866004013511620005d75736602460e088600401350288010111620005d7576200239a62003b6d565b620023ae36876004013560248901620038ec565b9460a0519460a0515b875181101562002429576001600160a01b03620023d5828a62003bf7565b51511615806200240e575b620023ef575b600101620023b7565b95620024056001916020620003fd8a8c62003bf7565b969050620023e6565b5060406200241d828a62003bf7565b510151421115620023e0565b5087899662000c1857620024509062001e7f60a435913690602481600401359101620038ec565b60008051602062005ecc833981519152546001600160a01b0316331480620025b5575b62002575575b3462002547575b60a051546001600160a01b031692833b15620005d75760405163151cdb2f60e11b815260e06004820152968795620024bd9060e488019062003692565b6001600160a01b03978816602488015260448701919091529086166064860152908516608485015260a4803590951694840194909452151560c483015260a0519282900390829084905af18015620005e6576200252d57600160008051602062005eec8339815191525560a05180f35b62002538906200356e565b60a051620005d7578062000786565b60a0518080803460a4355af16200255d62003977565b506200248057604051630db2c7f160e31b8152600490fd5b6200257f62003b32565b85156200084957600280546001600160a01b03191687179055620025a262003b32565b620025af60443562004223565b62002479565b5085151562002473565b34620005d75760a051366003190112620005d7577f00000000000000000000000000000000000000000000000000000000000000006001600160a01b031630036200262e5760206040517f360894a13ba1a3210667c828492db98dca3e2076cc3735a920a3ca505d382bbc8152f35b60405163703e46dd60e11b8152600490fd5b6040366003190112620005d757620026576200350f565b6024356001600160401b038111620005d75762002679903690600401620035fc565b906001600160a01b037f0000000000000000000000000000000000000000000000000000000000000000811630811490811562002835575b506200262e57620026c162003b32565b8116916040516352d1902d60e01b8152602081600481875afa60a0519181620027fb575b506200270457604051634c9c8ce360e01b815260048101859052602490fd5b7f360894a13ba1a3210667c828492db98dca3e2076cc3735a920a3ca505d382bbc90818103620027e35750823b15620027ca57836001600160601b0360a01b825416179055604051927fbc7cd75a20ee27fd9adebab32041f755214dbc6bffa90cc0225b39da2e5c2d3b60a05160a051a2805115620027ac57620027a5925060a0519060a05190602081519101845af46200279e62003977565b9162004437565b5060a05180f35b505034620027bb575062000cea565b63b398979f60e01b8152600490fd5b604051634c9c8ce360e01b815260048101859052602490fd5b60249060405190632a87526960e21b82526004820152fd5b9091506020813d6020116200282c575b816200281a6020938362003582565b81010312620005d757519085620026e5565b3d91506200280b565b9050817f360894a13ba1a3210667c828492db98dca3e2076cc3735a920a3ca505d382bbc5416141584620026b1565b34620005d7576020366003190112620005d75760606001600160a01b03806200288c6200350f565b1660a05152600460205260ff604060a0512091600181845416930154906040519384528116602084015260a01c1615156040820152f35b620028ce366200362b565b90620028d962003b6d565b60018060a01b03831660a051526004602052604060a0512091600160405193620029038562003552565b818060a01b038154168552015460018060a01b03811680602086015260ff604086019260a01c16151582521562001b7c5751151580620032e6575b80620032d0575b62001b30573360a051526005602052604060a05120546200296960c0840162003797565b604080516001600160a01b038881166020830190815287359383019390935292909216606083015260808083018490528252601f1991620029c891620002c791620029b660a08262003582565b519020620002bb6020880188620037ac565b1562000c4457620029dc60c0840162003797565b90600183018311620007e257604080516001600160a01b038981166020830190815287359383019390935293909316606084015260018401608084015260a0918201835262002a3692620002c7926200135a908262003582565b1562000c325760a051546001600160a01b031661012062002a5a60c0860162003797565b6040516324b9c44160e21b81526001600160a01b03909116600482015291829060249082905afa8015620005e65760a051918291620031c4575b5062003186575b5062002aaa82358435620037e1565b9262002aba610100820162003797565b5062002acf620003a161012083018362003828565b9360a0519360a0515b865181101562002b4e576001600160a01b038981169062002afa838a62003bf7565b515116148062002b33575b62002b14575b60010162002ad8565b9462002b2a6001916020620003fd898b62003bf7565b95905062002b0b565b50604062002b42828962003bf7565b51015142111562002b05565b50868289959603620031655762002b66838662003c65565b80931062001afd578362002b8261010062002bae960162003797565b60805262002b9561012082018262003828565b959062002ba56060860162003797565b963691620038ec565b9360a0515b855181101562002d865762002bc9818762003bf7565b516020810151908115158062002d77575b8062002d63575b62002bf2575b505060010162002bb3565b60018060a01b03815116604082015160ff60608401511660808401519060a085015192843b15620005d75760405163d505accf60e01b81526080516001600160a01b0316600482015230602482015260448101979097526064870152608486015260a485015260c484015260a05190839060e490829084905af1908115620005e65762002cdd9260209262002d51575b5080516001600160a01b03908116908c16810362002d48578230925b01516040516323b872dd60e01b81526080516001600160a01b039081166004830152909316602484015260448301529092839190829081906064820190565b039160a051905af1908115620005e65760a0519162002d06575b50156200058c57898062002be7565b90506020813d60201162002d3f575b8162002d246020938362003582565b81010312620005d75762002d38906200381a565b8a62002cf7565b3d915062002d15565b828b9262002c9e565b62002d5c906200356e565b8c62002c82565b5080516001600160a01b0316151562002be1565b50604081015142111562002bda565b5086939450876040830162002d9c9084620037ac565b8762002dab6060870162003797565b9262002dba6080880162003797565b62002dc860a0890162003797565b9062002dd760c08a0162003797565b9562002de660e08b016200395b565b62002df56040870187620037ac565b98909462002e066060890162003797565b9462002e1560808a0162003797565b9662002e2460a08b0162003797565b9862002e3360c08c0162003797565b9a60e00162002e42906200395b565b9b369062002e5092620035c0565b9b369062002e5e92620035c0565b9462002e6a9b62004146565b60008051602062005ecc833981519152546001600160a01b031633148062003145575b620030f3575b60028101809111620007e2573360a051526005602052604060a051205580801515948562003056575b50508135908535946200300c575b508062002f87575b50508162002efb575050346200182757600160008051602062005eec8339815191525560a05180f35b602001516001600160a01b03169062002f176060840162003797565b90823b15620005d7576040516340c10f1960e01b815260a0516001600160a01b0390931660048201526024810191909152918290818060448101039160a051905af18015620005e65762002f6d575b8062001806565b62002f78906200356e565b60a051620005d7578162002f66565b60208301516001600160a01b03169162002fa49060c00162003797565b90823b15620005d7576040516340c10f1960e01b815260a0516001600160a01b0390931660048201526024810191909152918290818060448101039160a051905af18015620005e65762002ffa575b8062002ed2565b62003005906200356e565b8362002ff3565b9193919085358211156200303f575090620030279162003969565b916200303860a05193823562003969565b8562002eca565b9391506200304f90853562003969565b9262003038565b60025460405163a9059cbb60e01b81526001600160a01b039182166004820152602481019390935260a051602092849260449284929091165af1908115620005e65760a05191620030b1575b5015620019ec57808662002ebc565b90506020813d602011620030ea575b81620030cf6020938362003582565b81010312620005d757620030e3906200381a565b86620030a2565b3d9150620030c0565b620031016060870162003797565b6200310b62003b32565b6001600160a01b03811690811562000849576200313f916001600160601b0360a01b60025416176002556200083c62003b32565b62002e93565b506001600160a01b036200315c6060880162003797565b16151562002e8d565b60405163073c639b60e41b81526001600160a01b0386166004820152602490fd5b602001516001600160a01b0390811690620031a460c0860162003797565b1603620031b2578562002a9b565b604051631a7ec90d60e01b8152600490fd5b915050806101203d61012011620032c8575b620031e2818362003582565b8101036101208112620005d75761010013620005d75760405190816101008101106001600160401b036101008401111762000bd85761010082016040526200322a8162003805565b82526200323a6020820162003805565b60208301526200324d6040820162003805565b6040830152620032606060820162003805565b6060830152620032736080820162003805565b60808301526200328660a082016200381a565b60a08301526200329960c082016200381a565b60c083015260e08101516003811015620005d75760e0830152620032c190610100016200381a565b8762002a94565b503d620031d6565b506001546001600160a01b031633141562002945565b5060008051602062005ecc833981519152546001600160a01b03163314156200293e565b34620005d7576060366003190112620005d757620033276200350f565b6200333162003526565b90604435801515809103620005d7576200334a62003b32565b60018060a01b0390818316918260a051526004602052806001604060a0512001541662000bf05762000cea9460405191620033858362003552565b8483526001816020850193169586845260408501948686528160a051526004602052838381604060a05120935116926001600160601b0360a01b93848254161781550195511694805496511515966affffffffffffffffffffff60a81b968760ff60a01b809a60a01b1692161717905560405191620034048362003552565b825260208201978089526040830197885260a05152600460205283604060a0512092511690825416178155019451169184549351151560a01b1692161717905562003752565b34620005d7576020366003190112620005d7576004356001600160401b038111620005d75762003485620003606020923690600401620035fc565b6040516001600160a01b039091168152f35b34620005d7576020366003190112620005d7576001600160a01b0380620034bd6200350f565b1660a0515260046020526001604060a05120620034da8462003552565b82815416845201549181831690604060ff602083019584875260a01c1615159101521562001b7c576020915116604051908152f35b600435906001600160a01b03821682036200062457565b602435906001600160a01b03821682036200062457565b35906001600160a01b03821682036200062457565b606081019081106001600160401b0382111762000c0257604052565b6001600160401b03811162000c0257604052565b90601f801991011681019081106001600160401b0382111762000c0257604052565b6001600160401b03811162000c0257601f01601f191660200190565b929192620035ce82620035a4565b91620035de604051938462003582565b82948184528183011162000624578281602093846000960137010152565b9080601f8301121562000624578160206200361a93359101620035c0565b90565b359081151582036200062457565b6003199160608284011262000624576004356001600160a01b03811681036200062457926024356001600160401b03918282116200062457610140918282828803011262000624576004019460443593841162000624578390030112620006245760040190565b919082519283825260005b848110620036bf575050826000602080949584010152601f8019910116010190565b6020818301810151848301820152016200369d565b6006548110156200370c5760066000527ff652222313e28459528d920b65115c16c04f3efc82aaedc97be59f3f377c0d3f0190600090565b634e487b7160e01b600052603260045260246000fd5b6040815103620037405780516020909101206001600160a01b031690565b60405163145a1fdd60e31b8152600490fd5b6006546801000000000000000081101562000c0257806001620037799201600655620036d4565b60018060a09493941b038084549260031b9316831b921b1916179055565b356001600160a01b0381168103620006245790565b903590601e19813603018212156200062457018035906001600160401b03821162000624576020019181360383136200062457565b91908201809211620037ef57565b634e487b7160e01b600052601160045260246000fd5b51906001600160a01b03821682036200062457565b519081151582036200062457565b903590601e19813603018212156200062457018035906001600160401b03821162000624576020019160e08202360383136200062457565b91908260e0910312620006245760405160e081018181106001600160401b0382111762000c0257604052809262003897816200353d565b8252602081013560208301526040810135604083015260608101359060ff82168203620006245760c0620038e791819360608601526080810135608086015260a081013560a0860152016200353d565b910152565b9291926001600160401b03821162000c02576020604051946200391660208560051b018762003582565b602086858152019060e08095028401938185116200062457915b8483106200394057505050505050565b8386916200394f848662003860565b81520192019162003930565b358015158103620006245790565b91908203918211620037ef57565b3d15620039a7573d906200398b82620035a4565b916200399b604051938462003582565b82523d6000602084013e565b606090565b9035601e1982360301811215620006245701602081359101916001600160401b038211620006245781360383136200062457565b908060209392818452848401376000828201840152601f01601f1916010190565b91909493929460609082606085016060865252608092608085019360808260051b8701019483946000946000955b85871062003a55575050505050505050906040919460018060a01b031660208201520152565b9091929394959697607f198a8203018552883560be198436030181121562003b2e5760019162003ac39160c0916001600160a01b039187018262003a99826200353d565b16825262003ae1602095869562003ab387850185620039ac565b90918089880152860191620039e0565b604062003ad381850185620039ac565b9186840390870152620039e0565b9262003aef8a83016200361d565b15158a8401528062003b038d84016200353d565b168c84015262003b1760a08093016200353d565b169101529a01950197019594939692919062003a2f565b8280fd5b60008051602062005ecc833981519152546001600160a01b0316330362003b5557565b60405163118cdaa760e01b8152336004820152602490fd5b60008051602062005eec833981519152600281541462003b8d5760029055565b604051633ee5aeb560e01b8152600490fd5b62003be6929162003bdc917f19457468657265756d205369676e6564204d6573736167653a0a333200000000600052601c52603c600020620042db565b909391936200431a565b6001600160a01b0391821691161490565b80518210156200370c5760209160051b010190565b81810292918115918404141715620037ef57565b519069ffffffffffffffffffff821682036200062457565b9081602091031262000624575160ff81168103620006245790565b60ff16604d8111620037ef57600a0a90565b9060018060a01b03809216906000908282526004906020908282526040908180862060ff600183519262003c998462003552565b8b815416845201548a81168784015260a01c161515918291015262003f5e5762003cca612710916003549062003c0c565b049480855260078352868286205416968762003ceb57505050505050905090565b60a0859698845197888092633fabe5a360e21b82525afa95861562003f5457889662003ef8575b508786131562003ee857818852600784528288205416928251938185878163313ce56760e01b948582525afa94851562003ede57899562003eb8575b5081908685518095819382525afa92831562003eaf5750879262003e7b575b505060ff683635c9adc5dea0000091166012810362003dcf575b5062003d9762003d9e9262003c53565b9062003c0c565b90821562003dbc57500491508181111562003db7575090565b905090565b634e487b7160e01b855260129052602484fd5b601281111562003e37576011190160ff811162003e245762003df19062003c53565b8082029182040362003e11579062003d9762003d9e925b91925062003d87565b634e487b7160e01b865260118352602486fd5b634e487b7160e01b875260118452602487fd5b60120360ff811162003e245762003e4e9062003c53565b90811562003e685762003d9e929162003d97910462003e08565b634e487b7160e01b875260128452602487fd5b62003e9f9250803d1062003ea7575b62003e96818362003582565b81019062003c38565b388062003d6d565b503d62003e8a565b513d89823e3d90fd5b8291955062003ed690823d841162003ea75762003e96818362003582565b949062003d4e565b84513d8b823e3d90fd5b82516352cc3f7d60e01b81528590fd5b90955060a0813d60a01162003f4b575b8162003f1760a0938362003582565b8101031262003f475762003f2b8162003c20565b5062003f3e608085830151920162003c20565b50943862003d12565b8780fd5b3d915062003f08565b83513d8a823e3d90fd5b5050505091505090565b919060005b8151811015620041405762003f83818362003bf7565b5160208082018051928315158062004131575b806200411d575b62003fb0575b5050505060010162003f6d565b60018060a01b039081815116946040958683015160ff606085015116608085015160a086015192843b1562000624576000948f9294899560e49588948f519a8b998a9863d505accf60e01b8a5216600489015230602489015260448801526064870152608486015260a485015260c48401525af18015620041125791859492916200408296949262004100575b5051915186516323b872dd60e01b81526001600160a01b03808d1660048301528b16602482015260448101919091529485929190911690829060009082906064820190565b03925af1908115620040f557600091620040b9575b50905015620040a95780808062003fa3565b516312171d8360e31b8152600490fd5b82813d8311620040ed575b620040d0818362003582565b81010312620016225750620040e5906200381a565b803862004097565b503d620040c4565b83513d6000823e3d90fd5b6200410b906200356e565b386200403d565b86513d6000823e3d90fd5b5080516001600160a01b0316151562003f9d565b50604081015142111562003f96565b50505050565b97929a9599949893909691986200416860018060a01b03600054169b62003722565b918b3b156200062457604051632e91b77d60e01b815261018060048201529c8d9b8c9b6200419c906101848e019062003692565b6001600160a01b039b8c1660248e0152908b1660448d0152908a1660648c015290891660848b015290151560a48a015290871660c489015290861660e48801529085166101048701529084166101248601529216610144840152151561016483015203815a6000948591f180156200162e57620042165750565b62004221906200356e565b565b6001600160a01b03908116908115620042805760008051602062005ecc83398151915280546001600160a01b031981168417909155167f8be0079c531659141344cd1fd0a4f28419497f9722a3daafe3b4186f6b6457e0600080a3565b604051631e4fbdf760e01b815260006004820152602490fd5b60ff7ff0c57e16840df040f15088dc2f81fe391c3923bec73e23a9662efc9c229c6a005460401c1615620042c957565b604051631afcd79f60e31b8152600490fd5b81519190604183036200430f576200430892506020820151906060604084015193015160001a90620043a4565b9192909190565b505060009160029190565b60048110156200438e57806200432e575050565b60018103620043495760405163f645eedf60e01b8152600490fd5b600281036200436b5760405163fce698f760e01b815260048101839052602490fd5b600314620043765750565b602490604051906335e2f38360e21b82526004820152fd5b634e487b7160e01b600052602160045260246000fd5b91907f7fffffffffffffffffffffffffffffff5d576e7357a4501ddfe92f46681b20a084116200442b57926020929160ff608095604051948552168484015260408301526060820152600092839182805260015afa156200441f5780516001600160a01b038116156200441657918190565b50809160019190565b604051903d90823e3d90fd5b50505060009160039190565b906200446057508051156200444e57805190602001fd5b60405163d6bda27560e01b8152600490fd5b8151158062004495575b62004473575090565b604051639996b31560e01b81526001600160a01b039091166004820152602490fd5b50803b156200446a56fe610160604081815234620004775762001a2c80380380916200002282866200047c565b8439820191608081840312620004775780516001600160401b03929083811162000477578462000054918401620004c5565b916020948582015190858211620004775762000072918301620004c5565b946200008e60606200008685850162000520565b930162000520565b90835190848201828110888211176200037657855260019485835281830195603160f81b87528751898111620003765760038054918383811c931680156200046c575b868410146200045657601f928381116200040b575b50808684821160011462000398576000916200038c575b5060001982841b1c191690841b1781555b8b51918b8311620003765760049c8d548581811c911680156200036b575b8882101462000356578e8382116200030b575b50508d87928511600114620002a0575093839491849260009562000294575b50501b92600019911b1c19161789555b620001798762000535565b956101209687526200018b84620006da565b97610140988952838151910120938460e0525190209861010099808b524660a0528251938401947f8b73c3c69bb8fe3d512ecc4cf759cc79239f7b179b0ffacaa9a75d522b39400f86528385015260608401524660808401523060a084015260a0835260c0830198838a10908a11176200027f57508790525190206080523060c052600880546001600160a01b039384166001600160a01b031991821617909155600980549290931691161790556111fa938462000832853960805184610c88015260a05184610d54015260c05184610c52015260e05184610cd701525183610cfd0152518261051a015251816105440152f35b604190634e487b7160e01b6000525260246000fd5b0151935038806200015e565b929190601f1985169360005284886000209460005b8a89838310620002f35750505010620002d8575b50505050811b0189556200016e565b01519060f884600019921b161c1916905538808080620002c9565b868601518955909701969485019488935001620002b5565b600052876000208380870160051c8201928a88106200034c575b0160051c019086905b8281106200033f5750508e6200013f565b600081550186906200032e565b9250819262000325565b60228f634e487b7160e01b6000525260246000fd5b90607f16906200012c565b634e487b7160e01b600052604160045260246000fd5b90508b015138620000fd565b8592508c90601f1983168560005289600020928a6000915b838310620003e9575050508311620003d0575b5050811b0181556200010e565b8d015160001983861b60f8161c191690553880620003c3565b948482949597989293960151815501940192019087949392918f8b90620003b0565b82600052866000208480840160051c8201928985106200044c575b0160051c019085905b8281106200043f575050620000e6565b600081550185906200042f565b9250819262000426565b634e487b7160e01b600052602260045260246000fd5b92607f1692620000d1565b600080fd5b601f909101601f19168101906001600160401b038211908210176200037657604052565b60005b838110620004b45750506000910152565b8181015183820152602001620004a3565b81601f82011215620004775780516001600160401b038111620003765760405192620004fc601f8301601f1916602001856200047c565b8184526020828401011162000477576200051d9160208085019101620004a0565b90565b51906001600160a01b03821682036200047757565b80516020919082811015620005b5575090601f8251116200057357808251920151908083106200056457501790565b82600019910360031b1b161790565b604490620005a79260405193849263305a27a960e01b845280600485015282519283918260248701528686019101620004a0565b601f01601f19168101030190fd5b6001600160401b03811162000376576005928354926001938481811c91168015620006cf575b838210146200045657601f811162000698575b5081601f84116001146200062e575092829391839260009462000622575b50501b916000199060031b1c191617905560ff90565b0151925038806200060c565b919083601f1981168760005284600020946000905b888383106200067d575050501062000663575b505050811b01905560ff90565b015160001960f88460031b161c1916905538808062000656565b85870151885590960195948501948793509081019062000643565b8560005284601f846000209201871c820191601f8601881c015b828110620006c2575050620005ee565b60008155018590620006b2565b90607f1690620005db565b805160209081811015620007075750601f8251116200057357808251920151908083106200056457501790565b906001600160401b0382116200037657600654926001938481811c9116801562000826575b838210146200045657601f8111620007ec575b5081601f841160011462000780575092829391839260009462000774575b50501b916000199060031b1c19161760065560ff90565b0151925038806200075d565b919083601f198116600660005284600020946000905b88838310620007d15750505010620007b7575b505050811b0160065560ff90565b015160001960f88460031b161c19169055388080620007a9565b85870151885590960195948501948793509081019062000796565b600660005284601f84600020920160051c820191601f860160051c015b828110620008195750506200073f565b6000815501859062000809565b90607f16906200072c56fe608060408181526004918236101561001657600080fd5b600092833560e01c91826306fdde03146108d757508163095ea7b3146108ad57816318160ddd1461088e57816323b872dd14610789578163313ce5671461076d5781633644e5151461074957816340c10f191461069157816370a082311461065a5781637ecebe001461062257816384b0196e1461050257816395d89b411461040e5781639dc29fac14610329578163a9059cbb146102e4578163b5057a7b146102bb578163d505accf1461015357508063dd62ed3e1461010b5763e78cea92146100e057600080fd5b3461010757816003193601126101075760085490516001600160a01b039091168152602090f35b5080fd5b5034610107578060031936011261010757806020926101286109ef565b610130610a0a565b6001600160a01b0391821683526001865283832091168252845220549051908152f35b839150346101075760e03660031901126101075761016f6109ef565b610177610a0a565b906044359260643560843560ff811681036102b7578142116102a05760018060a01b0390818516928389526007602052898920908154916001830190558a519060208201927f6e71edae12b1b97f4d1f60370fef10105fa2faae0126114a169c64845d6126c98452868d840152858a1660608401528a608084015260a083015260c082015260c0815260e0810181811067ffffffffffffffff82111761028d578b5251902061025b916102529161022c610c4f565b908c519161190160f01b83526002830152602282015260c43591604260a43592206110af565b9092919261113f565b16818103610272578661026f878787610d7a565b80f35b87516325c0072360e11b815292830152602482015260449150fd5b634e487b7160e01b8b526041875260248bfd5b875163313c898160e11b8152808401839052602490fd5b8680fd5b50503461010757816003193601126101075760095490516001600160a01b039091168152602090f35b5050346101075780600319360112610107576102fe6109ef565b916103098333610acf565b15610326575061031f6020926024359033610e0d565b5160018152f35b80fd5b839150346101075782600319360112610107576103446109ef565b6008549091602435916001600160a01b03908116330361040a5783169283156103f3578385528460205285852054918383106103bf5750508184957fddf252ad1be2c89b69c2b068fc378daa952ba7f163c4a11628f55a4df523b3ef936020938688528785520381872055816002540360025551908152a380f35b865163391434e360e21b81526001600160a01b03909216908201908152602081018390526040810184905281906060010390fd5b8551634b637e8f60e11b8152808301869052602490fd5b8480fd5b919050346104fe57826003193601126104fe57805183819490845461043281610a20565b91828552602096600192886001821691826000146104d4575050600114610479575b858861047589610466848a0385610a8c565b519282849384528301906109af565b0390f35b815286935091907f8a35acfbc15ff81a39ae7d344fd709f28e8600b4aa8c65c6b64bfe7fe36bd19b5b8284106104bc575050508201018161046661047538610454565b8054848a0186015288955087949093019281016104a2565b60ff19168882015294151560051b8701909401945085935061046692506104759150389050610454565b8280fd5b919050346104fe57826003193601126104fe5761053e7f0000000000000000000000000000000000000000000000000000000000000000610eeb565b926105687f0000000000000000000000000000000000000000000000000000000000000000610fef565b90825192602092602085019585871067ffffffffffffffff88111761060f57509260206105c58388966105b8998b9996528686528151998a99600f60f81b8b5260e0868c015260e08b01906109af565b91898303908a01526109af565b924660608801523060808801528460a088015286840360c088015251928381520193925b8281106105f857505050500390f35b8351855286955093810193928101926001016105e9565b634e487b7160e01b845260419052602483fd5b5050346101075760203660031901126101075760209181906001600160a01b0361064a6109ef565b1681526007845220549051908152f35b5050346101075760203660031901126101075760209181906001600160a01b036106826109ef565b16815280845220549051908152f35b919050346104fe57806003193601126104fe576106ac6109ef565b60085460243592916001600160a01b0391821633036107455716928315610730576002549083820180921161071d575084927fddf252ad1be2c89b69c2b068fc378daa952ba7f163c4a11628f55a4df523b3ef9260209260025585855284835280852082815401905551908152a380f35b634e487b7160e01b865260119052602485fd5b84602492519163ec442f0560e01b8352820152fd5b8580fd5b505034610107578160031936011261010757602090610766610c4f565b9051908152f35b5050346101075781600319360112610107576020905160128152f35b90508234610326576060366003190112610326576107a56109ef565b6107ad610a0a565b91604435936107bc8484610acf565b15610107576001600160a01b038316808352600160209081528784203385529052868320549160001983106107fa575b60208861031f898989610e0d565b86831061086257811561084b5733156108345750825260016020908152868320338452815291869020908590039055829061031f876107ec565b8751634a1406b160e11b8152908101849052602490fd5b875163e602df0560e01b8152908101849052602490fd5b8751637dc7a0d960e11b8152339181019182526020820193909352604081018790528291506060010390fd5b5050346101075781600319360112610107576020906002549051908152f35b50503461010757806003193601126101075760209061031f6108cd6109ef565b6024359033610d7a565b84843461010757816003193601126101075782826003546108f781610a20565b908184526020956001918760018216918260001461098857505060011461092c575b5050506104759291610466910385610a8c565b9190869350600383527fc2575a0e9e593c00f959f8c92f12db2869c3395a3b0502d05e2516446f71f85b5b8284106109705750505082010181610466610475610919565b8054848a018601528895508794909301928101610957565b60ff19168782015293151560051b8601909301935084925061046691506104759050610919565b919082519283825260005b8481106109db575050826000602080949584010152601f8019910116010190565b6020818301810151848301820152016109ba565b600435906001600160a01b0382168203610a0557565b600080fd5b602435906001600160a01b0382168203610a0557565b90600182811c92168015610a50575b6020831014610a3a57565b634e487b7160e01b600052602260045260246000fd5b91607f1691610a2f565b6040810190811067ffffffffffffffff821117610a7657604052565b634e487b7160e01b600052604160045260246000fd5b90601f8019910116810190811067ffffffffffffffff821117610a7657604052565b51906001600160a01b0382168203610a0557565b51908115158203610a0557565b600954604080516324b9c44160e21b81526001600160a01b0393841660048201819052939290916101209182908490602490829088165afa918215610c44576000938493610b4b575b505050610b285750505050600090565b602001518116918214928315610b3f575b50505090565b16149050388080610b39565b818193959294503d8511610c3d575b610b648183610a8c565b810103928312610326576101008093126103265783519383850185811067ffffffffffffffff821117610c29578152610b9c83610aae565b8552610baa60208401610aae565b6020860152610bba818401610aae565b90850152610bca60608301610aae565b6060850152610bdb60808301610aae565b6080850152610bec60a08301610ac2565b60a0850152610bfd60c08301610ac2565b60c085015260e0820151906003821015610326575060e0840152610c219101610ac2565b388080610b18565b634e487b7160e01b83526041600452602483fd5b503d610b5a565b50513d6000823e3d90fd5b307f00000000000000000000000000000000000000000000000000000000000000006001600160a01b03161480610d51575b15610caa577f000000000000000000000000000000000000000000000000000000000000000090565b60405160208101907f8b73c3c69bb8fe3d512ecc4cf759cc79239f7b179b0ffacaa9a75d522b39400f82527f000000000000000000000000000000000000000000000000000000000000000060408201527f000000000000000000000000000000000000000000000000000000000000000060608201524660808201523060a082015260a0815260c0810181811067ffffffffffffffff821117610a765760405251902090565b507f00000000000000000000000000000000000000000000000000000000000000004614610c81565b6001600160a01b03908116918215610df45716918215610ddb5760207f8c5be1e5ebec7d5bd14f71427d1e84f3dd0314c0f7b2291e5b200ac8c7c3b925918360005260018252604060002085600052825280604060002055604051908152a3565b604051634a1406b160e11b815260006004820152602490fd5b60405163e602df0560e01b815260006004820152602490fd5b916001600160a01b03808416928315610ed25716928315610eb95760009083825281602052604082205490838210610e87575091604082827fddf252ad1be2c89b69c2b068fc378daa952ba7f163c4a11628f55a4df523b3ef958760209652828652038282205586815220818154019055604051908152a3565b60405163391434e360e21b81526001600160a01b03919091166004820152602481019190915260448101839052606490fd5b60405163ec442f0560e01b815260006004820152602490fd5b604051634b637e8f60e11b815260006004820152602490fd5b60ff8114610f295760ff811690601f8211610f175760405191610f0d83610a5a565b8252602082015290565b604051632cd44ac360e21b8152600490fd5b50604051600554816000610f3c83610a20565b80835292602090600190818116908115610fcb5750600114610f6a575b5050610f6792500382610a8c565b90565b91509260056000527f036b6384b5eca791c62761152d0c79bb0604c104a5fb6f4eb0703f3154bb3db0936000925b828410610fb35750610f679450505081016020013880610f59565b85548785018301529485019486945092810192610f98565b91505060209250610f6794915060ff191682840152151560051b8201013880610f59565b60ff81146110115760ff811690601f8211610f175760405191610f0d83610a5a565b5060405160065481600061102483610a20565b80835292602090600190818116908115610fcb575060011461104e575050610f6792500382610a8c565b91509260066000527ff652222313e28459528d920b65115c16c04f3efc82aaedc97be59f3f377c0d3f936000925b8284106110975750610f679450505081016020013880610f59565b8554878501830152948501948694509281019261107c565b91907f7fffffffffffffffffffffffffffffff5d576e7357a4501ddfe92f46681b20a0841161113357926020929160ff608095604051948552168484015260408301526060820152600092839182805260015afa156111275780516001600160a01b0381161561111e57918190565b50809160019190565b604051903d90823e3d90fd5b50505060009160039190565b60048110156111ae5780611151575050565b6001810361116b5760405163f645eedf60e01b8152600490fd5b6002810361118c5760405163fce698f760e01b815260048101839052602490fd5b6003146111965750565b602490604051906335e2f38360e21b82526004820152fd5b634e487b7160e01b600052602160045260246000fdfea2646970667358221220b795fa50e5767d9775d1eea6283ccacf9cd51f086091d71f972f86533319c81264736f6c634300081800339016d09d72d40fdae2fd8ceac6b6234c7706214fd39c1cd1e609a0528c1993009b779b17422d0df92223018b32b4d1fa46e071723d6817e2486d003becc55f00a2646970667358221220dd02f82aaaa38c324da691eebcc78851c23f331b00e3496aa1dc9c666c23131564736f6c63430008180033",
  "linkReferences": {},
  "deployedLinkReferences": {}
}