{
  "_format": "hh-sol-artifact-1",
  "contractName": "Bridge",
  "sourceName": "contracts/Bridge.sol",
  "abi": [
    {
      "inputs": [
        {
          "internalType": "address",
          "name": "target",
          "type": "address"
        }
      ],
      "name": "AddressEmptyCode",
      "type": "error"
    },
    {
      "inputs": [],
      "name": "ECDSAInvalidSignature",
      "type": "error"
    },
    {
      "inputs": [
        {
          "internalType": "uint256",
          "name": "length",
          "type": "uint256"
        }
      ],
      "name": "ECDSAInvalidSignatureLength",
      "type": "error"
    },
    {
      "inputs": [
        {
          "internalType": "bytes32",
          "name": "s",
          "type": "bytes32"
        }
      ],
      "name": "ECDSAInvalidSignatureS",
      "type": "error"
    },
    {
      "inputs": [
        {
          "internalType": "address",
          "name": "implementation",
          "type": "address"
        }
      ],
      "name": "ERC1967InvalidImplementation",
      "type": "error"
    },
    {
      "inputs": [],
      "name": "ERC1967NonPayable",
      "type": "error"
    },
    {
      "inputs": [],
      "name": "FailedCall",
      "type": "error"
    },
    {
      "inputs": [],
      "name": "InvalidInitialization",
      "type": "error"
    },
    {
      "inputs": [],
      "name": "NotInitializing",
      "type": "error"
    },
    {
      "inputs": [
        {
          "internalType": "address",
          "name": "owner",
          "type": "address"
        }
      ],
      "name": "OwnableInvalidOwner",
      "type": "error"
    },
    {
      "inputs": [
        {
          "internalType": "address",
          "name": "account",
          "type": "address"
        }
      ],
      "name": "OwnableUnauthorizedAccount",
      "type": "error"
    },
    {
      "inputs": [],
      "name": "ReentrancyGuardReentrantCall",
      "type": "error"
    },
    {
      "inputs": [],
      "name": "UUPSUnauthorizedCallContext",
      "type": "error"
    },
    {
      "inputs": [
        {
          "internalType": "bytes32",
          "name": "slot",
          "type": "bytes32"
        }
      ],
      "name": "UUPSUnsupportedProxiableUUID",
      "type": "error"
    },
    {
      "anonymous": false,
      "inputs": [
        {
          "indexed": false,
          "internalType": "bytes32",
          "name": "hash",
          "type": "bytes32"
        },
        {
          "indexed": false,
          "internalType": "address",
          "name": "recovered",
          "type": "address"
        },
        {
          "indexed": false,
          "internalType": "address",
          "name": "expected",
          "type": "address"
        }
      ],
      "name": "DebugSignature",
      "type": "event"
    },
    {
      "anonymous": false,
      "inputs": [
        {
          "indexed": false,
          "internalType": "string",
          "name": "step",
          "type": "string"
        },
        {
          "indexed": false,
          "internalType": "uint256",
          "name": "value",
          "type": "uint256"
        }
      ],
      "name": "DebugStep",
      "type": "event"
    },
    {
      "anonymous": false,
      "inputs": [
        {
          "indexed": true,
          "internalType": "address",
          "name": "from",
          "type": "address"
        },
        {
          "indexed": true,
          "internalType": "address",
          "name": "to",
          "type": "address"
        },
        {
          "indexed": false,
          "internalType": "uint256",
          "name": "amount",
          "type": "uint256"
        }
      ],
      "name": "EthTransferred",
      "type": "event"
    },
    {
      "anonymous": false,
      "inputs": [
        {
          "indexed": true,
          "internalType": "address",
          "name": "token",
          "type": "address"
        },
        {
          "indexed": false,
          "internalType": "uint256",
          "name": "amount",
          "type": "uint256"
        }
      ],
      "name": "FeesCollected",
      "type": "event"
    },
    {
      "anonymous": false,
      "inputs": [
        {
          "indexed": false,
          "internalType": "uint64",
          "name": "version",
          "type": "uint64"
        }
      ],
      "name": "Initialized",
      "type": "event"
    },
    {
      "anonymous": false,
      "inputs": [
        {
          "indexed": true,
          "internalType": "address",
          "name": "previousOwner",
          "type": "address"
        },
        {
          "indexed": true,
          "internalType": "address",
          "name": "newOwner",
          "type": "address"
        }
      ],
      "name": "OwnershipTransferred",
      "type": "event"
    },
    {
      "anonymous": false,
      "inputs": [
        {
          "indexed": true,
          "internalType": "address",
          "name": "user",
          "type": "address"
        },
        {
          "indexed": true,
          "internalType": "address",
          "name": "originalToken",
          "type": "address"
        },
        {
          "indexed": false,
          "internalType": "uint256",
          "name": "amount",
          "type": "uint256"
        }
      ],
      "name": "TokensLocked",
      "type": "event"
    },
    {
      "anonymous": false,
      "inputs": [
        {
          "indexed": true,
          "internalType": "address",
          "name": "wrappedToken",
          "type": "address"
        },
        {
          "indexed": true,
          "internalType": "address",
          "name": "user",
          "type": "address"
        },
        {
          "indexed": false,
          "internalType": "uint256",
          "name": "amount",
          "type": "uint256"
        }
      ],
      "name": "TokensMinted",
      "type": "event"
    },
    {
      "anonymous": false,
      "inputs": [
        {
          "indexed": true,
          "internalType": "address",
          "name": "user",
          "type": "address"
        },
        {
          "indexed": false,
          "internalType": "address",
          "name": "wrappedToken",
          "type": "address"
        },
        {
          "indexed": false,
          "internalType": "uint256",
          "name": "amount",
          "type": "uint256"
        }
      ],
      "name": "TokensWrapped",
      "type": "event"
    },
    {
      "anonymous": false,
      "inputs": [
        {
          "indexed": true,
          "internalType": "address",
          "name": "originalToken",
          "type": "address"
        },
        {
          "indexed": false,
          "internalType": "address",
          "name": "targetAddress",
          "type": "address"
        },
        {
          "indexed": false,
          "internalType": "uint256",
          "name": "amount",
          "type": "uint256"
        },
        {
          "indexed": true,
          "internalType": "address",
          "name": "user",
          "type": "address"
        }
      ],
      "name": "UnwrapCrossChain",
      "type": "event"
    },
    {
      "anonymous": false,
      "inputs": [
        {
          "indexed": true,
          "internalType": "address",
          "name": "implementation",
          "type": "address"
        }
      ],
      "name": "Upgraded",
      "type": "event"
    },
    {
      "inputs": [],
      "name": "FEE_CAP_USD",
      "outputs": [
        {
          "internalType": "uint256",
          "name": "",
          "type": "uint256"
        }
      ],
      "stateMutability": "view",
      "type": "function"
    },
    {
      "inputs": [],
      "name": "FEE_DENOMINATOR",
      "outputs": [
        {
          "internalType": "uint256",
          "name": "",
          "type": "uint256"
        }
      ],
      "stateMutability": "view",
      "type": "function"
    },
    {
      "inputs": [],
      "name": "UPGRADE_INTERFACE_VERSION",
      "outputs": [
        {
          "internalType": "string",
          "name": "",
          "type": "string"
        }
      ],
      "stateMutability": "view",
      "type": "function"
    },
    {
      "inputs": [
        {
          "internalType": "address",
          "name": "originalToken",
          "type": "address"
        },
        {
          "internalType": "address",
          "name": "wrappedToken",
          "type": "address"
        },
        {
          "internalType": "bool",
          "name": "_isCrossChain",
          "type": "bool"
        }
      ],
      "name": "addTokenPair",
      "outputs": [],
      "stateMutability": "nonpayable",
      "type": "function"
    },
    {
      "inputs": [],
      "name": "feeCollector",
      "outputs": [
        {
          "internalType": "address",
          "name": "",
          "type": "address"
        }
      ],
      "stateMutability": "view",
      "type": "function"
    },
    {
      "inputs": [],
      "name": "feePercentage",
      "outputs": [
        {
          "internalType": "uint256",
          "name": "",
          "type": "uint256"
        }
      ],
      "stateMutability": "view",
      "type": "function"
    },
    {
      "inputs": [
        {
          "internalType": "bytes",
          "name": "publicKey",
          "type": "bytes"
        }
      ],
      "name": "getAddressFromPublicKey",
      "outputs": [
        {
          "internalType": "address",
          "name": "",
          "type": "address"
        }
      ],
      "stateMutability": "pure",
      "type": "function"
    },
    {
      "inputs": [],
      "name": "getSupportedTokens",
      "outputs": [
        {
          "internalType": "address[]",
          "name": "",
          "type": "address[]"
        }
      ],
      "stateMutability": "view",
      "type": "function"
    },
    {
      "inputs": [
        {
          "internalType": "address",
          "name": "_keyLogRegistry",
          "type": "address"
        }
      ],
      "name": "initialize",
      "outputs": [],
      "stateMutability": "nonpayable",
      "type": "function"
    },
    {
      "inputs": [
        {
          "internalType": "address",
          "name": "",
          "type": "address"
        }
      ],
      "name": "isCrossChain",
      "outputs": [
        {
          "internalType": "bool",
          "name": "",
          "type": "bool"
        }
      ],
      "stateMutability": "view",
      "type": "function"
    },
    {
      "inputs": [],
      "name": "keyLogRegistry",
      "outputs": [
        {
          "internalType": "contract KeyLogRegistry",
          "name": "",
          "type": "address"
        }
      ],
      "stateMutability": "view",
      "type": "function"
    },
    {
      "inputs": [
        {
          "internalType": "address",
          "name": "",
          "type": "address"
        }
      ],
      "name": "nonces",
      "outputs": [
        {
          "internalType": "uint256",
          "name": "",
          "type": "uint256"
        }
      ],
      "stateMutability": "view",
      "type": "function"
    },
    {
      "inputs": [
        {
          "internalType": "address",
          "name": "",
          "type": "address"
        }
      ],
      "name": "originalToWrapped",
      "outputs": [
        {
          "internalType": "address",
          "name": "",
          "type": "address"
        }
      ],
      "stateMutability": "view",
      "type": "function"
    },
    {
      "inputs": [],
      "name": "owner",
      "outputs": [
        {
          "internalType": "address",
          "name": "",
          "type": "address"
        }
      ],
      "stateMutability": "view",
      "type": "function"
    },
    {
      "inputs": [
        {
          "internalType": "bytes32",
          "name": "",
          "type": "bytes32"
        }
      ],
      "name": "processedLocks",
      "outputs": [
        {
          "internalType": "bool",
          "name": "",
          "type": "bool"
        }
      ],
      "stateMutability": "view",
      "type": "function"
    },
    {
      "inputs": [],
      "name": "proxiableUUID",
      "outputs": [
        {
          "internalType": "bytes32",
          "name": "",
          "type": "bytes32"
        }
      ],
      "stateMutability": "view",
      "type": "function"
    },
    {
      "inputs": [
        {
          "internalType": "bytes",
          "name": "publicKey",
          "type": "bytes"
        },
        {
          "internalType": "address",
          "name": "publicKeyHash",
          "type": "address"
        },
        {
          "internalType": "address",
          "name": "prerotatedKeyHash",
          "type": "address"
        },
        {
          "internalType": "address",
          "name": "twicePrerotatedKeyHash",
          "type": "address"
        },
        {
          "internalType": "address",
          "name": "prevPublicKeyHash",
          "type": "address"
        },
        {
          "internalType": "address",
          "name": "outputAddress",
          "type": "address"
        },
        {
          "internalType": "bool",
          "name": "hasRelationship",
          "type": "bool"
        },
        {
          "components": [
            {
              "internalType": "address",
              "name": "token",
              "type": "address"
            },
            {
              "internalType": "uint256",
              "name": "amount",
              "type": "uint256"
            },
            {
              "internalType": "uint256",
              "name": "deadline",
              "type": "uint256"
            },
            {
              "internalType": "uint8",
              "name": "v",
              "type": "uint8"
            },
            {
              "internalType": "bytes32",
              "name": "r",
              "type": "bytes32"
            },
            {
              "internalType": "bytes32",
              "name": "s",
              "type": "bytes32"
            }
          ],
          "internalType": "struct Bridge.PermitData[]",
          "name": "permits",
          "type": "tuple[]"
        }
      ],
      "name": "registerKeyWithTransfer",
      "outputs": [],
      "stateMutability": "payable",
      "type": "function"
    },
    {
      "inputs": [],
      "name": "relayer",
      "outputs": [
        {
          "internalType": "address",
          "name": "",
          "type": "address"
        }
      ],
      "stateMutability": "view",
      "type": "function"
    },
    {
      "inputs": [],
      "name": "renounceOwnership",
      "outputs": [],
      "stateMutability": "nonpayable",
      "type": "function"
    },
    {
      "inputs": [
        {
          "internalType": "address",
          "name": "_feeCollector",
          "type": "address"
        }
      ],
      "name": "setFeeCollector",
      "outputs": [],
      "stateMutability": "nonpayable",
      "type": "function"
    },
    {
      "inputs": [
        {
          "internalType": "uint256",
          "name": "_feePercentage",
          "type": "uint256"
        }
      ],
      "name": "setFeePercentage",
      "outputs": [],
      "stateMutability": "nonpayable",
      "type": "function"
    },
    {
      "inputs": [
        {
          "internalType": "address",
          "name": "_relayer",
          "type": "address"
        }
      ],
      "name": "setRelayer",
      "outputs": [],
      "stateMutability": "nonpayable",
      "type": "function"
    },
    {
      "inputs": [
        {
          "internalType": "address",
          "name": "token",
          "type": "address"
        },
        {
          "internalType": "address",
          "name": "priceFeed",
          "type": "address"
        }
      ],
      "name": "setTokenPriceFeed",
      "outputs": [],
      "stateMutability": "nonpayable",
      "type": "function"
    },
    {
      "inputs": [
        {
          "internalType": "uint256",
          "name": "",
          "type": "uint256"
        }
      ],
      "name": "supportedOriginalTokens",
      "outputs": [
        {
          "internalType": "address",
          "name": "",
          "type": "address"
        }
      ],
      "stateMutability": "view",
      "type": "function"
    },
    {
      "inputs": [
        {
          "internalType": "address",
          "name": "",
          "type": "address"
        }
      ],
      "name": "tokenPriceFeeds",
      "outputs": [
        {
          "internalType": "contract AggregatorV3Interface",
          "name": "",
          "type": "address"
        }
      ],
      "stateMutability": "view",
      "type": "function"
    },
    {
      "inputs": [
        {
          "internalType": "address",
          "name": "newOwner",
          "type": "address"
        }
      ],
      "name": "transferOwnership",
      "outputs": [],
      "stateMutability": "nonpayable",
      "type": "function"
    },
    {
      "inputs": [
        {
          "internalType": "address",
          "name": "wrappedToken",
          "type": "address"
        },
        {
          "components": [
            {
              "internalType": "uint256",
              "name": "amount",
              "type": "uint256"
            },
            {
              "internalType": "bytes",
              "name": "signature",
              "type": "bytes"
            },
            {
              "internalType": "bytes",
              "name": "publicKey",
              "type": "bytes"
            },
            {
              "internalType": "address",
              "name": "prerotatedKeyHash",
              "type": "address"
            },
            {
              "internalType": "address",
              "name": "twicePrerotatedKeyHash",
              "type": "address"
            },
            {
              "internalType": "address",
              "name": "prevPublicKeyHash",
              "type": "address"
            },
            {
              "internalType": "address",
              "name": "targetAddress",
              "type": "address"
            },
            {
              "internalType": "bool",
              "name": "hasRelationship",
              "type": "bool"
            },
            {
              "components": [
                {
                  "internalType": "address",
                  "name": "token",
                  "type": "address"
                },
                {
                  "internalType": "uint256",
                  "name": "amount",
                  "type": "uint256"
                },
                {
                  "internalType": "uint256",
                  "name": "deadline",
                  "type": "uint256"
                },
                {
                  "internalType": "uint8",
                  "name": "v",
                  "type": "uint8"
                },
                {
                  "internalType": "bytes32",
                  "name": "r",
                  "type": "bytes32"
                },
                {
                  "internalType": "bytes32",
                  "name": "s",
                  "type": "bytes32"
                }
              ],
              "internalType": "struct Bridge.PermitData[]",
              "name": "permits",
              "type": "tuple[]"
            }
          ],
          "internalType": "struct Bridge.UnwrapParams",
          "name": "unconfirmed",
          "type": "tuple"
        },
        {
          "components": [
            {
              "internalType": "uint256",
              "name": "amount",
              "type": "uint256"
            },
            {
              "internalType": "bytes",
              "name": "signature",
              "type": "bytes"
            },
            {
              "internalType": "bytes",
              "name": "publicKey",
              "type": "bytes"
            },
            {
              "internalType": "address",
              "name": "prerotatedKeyHash",
              "type": "address"
            },
            {
              "internalType": "address",
              "name": "twicePrerotatedKeyHash",
              "type": "address"
            },
            {
              "internalType": "address",
              "name": "prevPublicKeyHash",
              "type": "address"
            },
            {
              "internalType": "address",
              "name": "targetAddress",
              "type": "address"
            },
            {
              "internalType": "bool",
              "name": "hasRelationship",
              "type": "bool"
            },
            {
              "components": [
                {
                  "internalType": "address",
                  "name": "token",
                  "type": "address"
                },
                {
                  "internalType": "uint256",
                  "name": "amount",
                  "type": "uint256"
                },
                {
                  "internalType": "uint256",
                  "name": "deadline",
                  "type": "uint256"
                },
                {
                  "internalType": "uint8",
                  "name": "v",
                  "type": "uint8"
                },
                {
                  "internalType": "bytes32",
                  "name": "r",
                  "type": "bytes32"
                },
                {
                  "internalType": "bytes32",
                  "name": "s",
                  "type": "bytes32"
                }
              ],
              "internalType": "struct Bridge.PermitData[]",
              "name": "permits",
              "type": "tuple[]"
            }
          ],
          "internalType": "struct Bridge.UnwrapParams",
          "name": "confirming",
          "type": "tuple"
        }
      ],
      "name": "unwrapPairWithTransfer",
      "outputs": [],
      "stateMutability": "payable",
      "type": "function"
    },
    {
      "inputs": [
        {
          "internalType": "address",
          "name": "newImplementation",
          "type": "address"
        },
        {
          "internalType": "bytes",
          "name": "data",
          "type": "bytes"
        }
      ],
      "name": "upgradeToAndCall",
      "outputs": [],
      "stateMutability": "payable",
      "type": "function"
    },
    {
      "inputs": [
        {
          "internalType": "address",
          "name": "originalToken",
          "type": "address"
        },
        {
          "components": [
            {
              "internalType": "uint256",
              "name": "amount",
              "type": "uint256"
            },
            {
              "internalType": "bytes",
              "name": "signature",
              "type": "bytes"
            },
            {
              "internalType": "bytes",
              "name": "publicKey",
              "type": "bytes"
            },
            {
              "internalType": "address",
              "name": "prerotatedKeyHash",
              "type": "address"
            },
            {
              "internalType": "address",
              "name": "twicePrerotatedKeyHash",
              "type": "address"
            },
            {
              "internalType": "address",
              "name": "prevPublicKeyHash",
              "type": "address"
            },
            {
              "internalType": "address",
              "name": "outputAddress",
              "type": "address"
            },
            {
              "internalType": "bool",
              "name": "hasRelationship",
              "type": "bool"
            },
            {
              "internalType": "address",
              "name": "tokenSource",
              "type": "address"
            },
            {
              "components": [
                {
                  "internalType": "address",
                  "name": "token",
                  "type": "address"
                },
                {
                  "internalType": "uint256",
                  "name": "amount",
                  "type": "uint256"
                },
                {
                  "internalType": "uint256",
                  "name": "deadline",
                  "type": "uint256"
                },
                {
                  "internalType": "uint8",
                  "name": "v",
                  "type": "uint8"
                },
                {
                  "internalType": "bytes32",
                  "name": "r",
                  "type": "bytes32"
                },
                {
                  "internalType": "bytes32",
                  "name": "s",
                  "type": "bytes32"
                }
              ],
              "internalType": "struct Bridge.PermitData[]",
              "name": "permits",
              "type": "tuple[]"
            }
          ],
          "internalType": "struct Bridge.WrapParams",
          "name": "unconfirmed",
          "type": "tuple"
        },
        {
          "components": [
            {
              "internalType": "uint256",
              "name": "amount",
              "type": "uint256"
            },
            {
              "internalType": "bytes",
              "name": "signature",
              "type": "bytes"
            },
            {
              "internalType": "bytes",
              "name": "publicKey",
              "type": "bytes"
            },
            {
              "internalType": "address",
              "name": "prerotatedKeyHash",
              "type": "address"
            },
            {
              "internalType": "address",
              "name": "twicePrerotatedKeyHash",
              "type": "address"
            },
            {
              "internalType": "address",
              "name": "prevPublicKeyHash",
              "type": "address"
            },
            {
              "internalType": "address",
              "name": "outputAddress",
              "type": "address"
            },
            {
              "internalType": "bool",
              "name": "hasRelationship",
              "type": "bool"
            },
            {
              "internalType": "address",
              "name": "tokenSource",
              "type": "address"
            },
            {
              "components": [
                {
                  "internalType": "address",
                  "name": "token",
                  "type": "address"
                },
                {
                  "internalType": "uint256",
                  "name": "amount",
                  "type": "uint256"
                },
                {
                  "internalType": "uint256",
                  "name": "deadline",
                  "type": "uint256"
                },
                {
                  "internalType": "uint8",
                  "name": "v",
                  "type": "uint8"
                },
                {
                  "internalType": "bytes32",
                  "name": "r",
                  "type": "bytes32"
                },
                {
                  "internalType": "bytes32",
                  "name": "s",
                  "type": "bytes32"
                }
              ],
              "internalType": "struct Bridge.PermitData[]",
              "name": "permits",
              "type": "tuple[]"
            }
          ],
          "internalType": "struct Bridge.WrapParams",
          "name": "confirming",
          "type": "tuple"
        }
      ],
      "name": "wrapPairWithTransfer",
      "outputs": [],
      "stateMutability": "payable",
      "type": "function"
    },
    {
      "inputs": [
        {
          "internalType": "address",
          "name": "",
          "type": "address"
        }
      ],
      "name": "wrappedToOriginal",
      "outputs": [
        {
          "internalType": "address",
          "name": "",
          "type": "address"
        }
      ],
      "stateMutability": "view",
      "type": "function"
    }
  ],
  "bytecode": "0x60a0806040523461002a573060805261381c90816100308239608051818181611ae00152611b880152f35b600080fdfe610120604052600436101561001357600080fd5b600060c05260c0513560e01c806303f7550d14611f52578063081da8c114611f1557806309765f5314611ee2578063276c1ac014611e9b578063334976c714611d525780634f1ef28614611b4a57806352d1902d14611acc5780636548e9bc14611a8857806365d5079a14610bfc578063674417ae14610b9e578063715018a614610b2f5780637c0db61014610af25780637ecebe0014610ab65780638406c07914610a8c5780638da5cb5b14610a55578063a001ecdd14610a36578063a42dce80146109ae578063a8bc3e0a1461096d578063ad3cb1cc146108fa578063ae06c1b714610898578063b5057a7b1461086d578063bd9c47e314610830578063c415b95c14610806578063c4d66de814610675578063d3c7c2c7146105a9578063d66cb5a014610227578063d73792a914610209578063d8397fd5146101c7578063f2fde38b146101985763f9baf7bf1461016d57600080fd5b346101925760c051366003190112610192576020604051683635c9adc5dea000008152f35b60c05180fd5b34610192576020366003190112610192576101c16101b4612b8e565b6101bc613538565b613174565b60c05180f35b3461019257602036600319011261019257600435600654811015610192576101f0602091612c9e565b905460405160039290921b1c6001600160a01b03168152f35b346101925760c0513660031901126101925760206040516127108152f35b610100366003190112610192576001600160401b0360043581811161019257610254903690600401612c40565b61025c612ba4565b604435929091906001600160a01b03841684036105a457606435906001600160a01b03821682036105a4576084356001600160a01b03811681036105a45760a4356001600160a01b03811690036105a45760c4359182151583036105a45760e435908082116101925736602383011215610192578160040135116101925736602460c083600401350283010111610192576102f56131e8565b60c0515b8160040135811061043657505060c051546001600160a01b031692833b156101925760405163151cdb2f60e11b815260e060048201529687956103409060e4880190612c5e565b6001600160a01b03978816602488015290871660448701529086166064860152908516608485015260a4803590951694840194909452151560c483015260c0519282900390829084905af1801561042957610413575b50346103b5575b60016000805160206137a78339815191525560c05180f35b60c0516103d3908080803460a4355af16103cd613048565b50613078565b60405134815260a4356001600160a01b03169033907ffb55a98b33e2f35080e8e9656caf739c56946219253f8cd86917f7d33398667690602090a361039d565b61041c90612bba565b60c0516101925780610396565b6040513d60c051823e3d90fd5b61045061044b82846004013560248601612f25565b612f35565b90602082015180151580610596575b61046f575b5060019150016102f9565b60018060a01b038351169060408401519160ff6060860151169060808601519160a087015194823b15610192576104c26040519687958694859463d505accf60e01b865260c05199303360048901612fb0565b039160c051905af1801561042957610580575b5081516020928301516040516323b872dd60e01b81523360048201526001600160a01b0360a4358116602483015260448201929092529391849116818060648101039160c051905af19182156104295760c05192610540575b5061053a600192613130565b89610464565b91506020823d602011610578575b8161055b60209383612bcd565b810103126101925761053a610571600193612ff9565b925061052e565b3d915061054e565b61058990612bba565b60c05161019257896104d5565b50604083015142111561045f565b600080fd5b346101925760c051366003190112610192576040518060065480835260208093018091600660c051527ff652222313e28459528d920b65115c16c04f3efc82aaedc97be59f3f377c0d3f9060c0515b8682821061065857868661060e82880383612bcd565b604051928392818401908285525180915260408401929160c0515b82811061063857505050500390f35b83516001600160a01b031685528695509381019392810192600101610629565b83546001600160a01b0316855290930192600192830192016105f8565b346101925760203660031901126101925761068e612b8e565b7ff0c57e16840df040f15088dc2f81fe391c3923bec73e23a9662efc9c229c6a009081549060ff8260401c1615916001600160401b038116801590816107fe575b60011490816107f4575b1590816107eb575b506107d95767ffffffffffffffff1981166001178455826107ba575b50610706613632565b61070e613632565b61071733613174565b61071f613632565b610727613632565b61072f613632565b60016000805160206137a7833981519152556001600160601b0360a01b9060018060a01b03168160c05154161760c051553390600754161760075560016008556107795760c05180f35b68ff00000000000000001981541690557fc7f505b2f371ae2175ee4913f4499e1f2633a7b5936321eed1cdaeb6115181d2602060405160018152a1806101c1565b68ffffffffffffffffff191668010000000000000001178355836106fd565b60405163f92ee8a960e01b8152600490fd5b905015856106e1565b303b1591506106d9565b8491506106cf565b346101925760c051366003190112610192576007546040516001600160a01b039091168152602090f35b346101925760203660031901126101925760206001600160a01b0380610854612b8e565b1660c05152600a8252604060c051205416604051908152f35b346101925760c0513660031901126101925760c051546040516001600160a01b039091168152602090f35b34610192576020366003190112610192576004356108b4613538565b61271081116108c65760085560c05180f35b60405162461bcd60e51b815260206004820152600c60248201526b08ccaca40e8dede40d0d2ced60a31b6044820152606490fd5b346101925760c0513660031901126101925760405160408101908082106001600160401b03831117610957576109539160405260058152640352e302e360dc1b6020820152604051918291602083526020830190612c5e565b0390f35b634e487b7160e01b600052604160045260246000fd5b34610192576020366003190112610192576001600160a01b0361098e612b8e565b1660c051526004602052602060ff604060c0512054166040519015158152f35b34610192576020366003190112610192576109c7612b8e565b6109cf613538565b6001600160a01b031680156109f9576001600160601b0360a01b600754161760075560c05160c051f35b60405162461bcd60e51b815260206004820152601560248201527424b73b30b634b2103332b29031b7b63632b1ba37b960591b6044820152606490fd5b346101925760c051366003190112610192576020600854604051908152f35b346101925760c05136600319011261019257600080516020613787833981519152546040516001600160a01b039091168152602090f35b346101925760c051366003190112610192576001546040516001600160a01b039091168152602090f35b34610192576020366003190112610192576001600160a01b03610ad7612b8e565b1660c0515260056020526020604060c0512054604051908152f35b346101925760203660031901126101925760206001600160a01b0380610b16612b8e565b1660c0515260038252604060c051205416604051908152f35b346101925760c05136600319011261019257610b49613538565b60008051602061378783398151915280546001600160a01b031981169091556000906001600160a01b03167f8be0079c531659141344cd1fd0a4f28419497f9722a3daafe3b4186f6b6457e08280a360c05180f35b3461019257604036600319011261019257610bb7612b8e565b610bbf612ba4565b90610bc8613538565b60c080516001600160a01b039283169052600a602052516040812080546001600160a01b0319169390921692909217905580f35b60031960603682011261019257610c11612b8e565b906001600160401b03602435116101925761014090818160243536030112610192576001600160401b0360443511610192576044353603011261019257610c566131e8565b60c080516001600160a01b0383811690915260026020529051604090205416610c80811515612ceb565b3360c051526005602052604060c05120549081610ccc610ca460c460243501612d37565b610cbe604051938492602435600401358960208601612d4b565b03601f198101835282612bcd565b6020815191012060008051602061376783398151915260c05152601c52610d34610d24610d1b603c60c05120610d15610d0e6024803501602435600401612d78565b3691612c09565b90613571565b909291926135ad565b6001600160a01b03163314612daa565b610d4260c460443501612d37565b60018301831161157257604051610d6e81610cbe60208201946001880190604435600401358a88612d4b565b51902060008051602061376783398151915260c05152601c52610df0610dad610d1b603c60c05120610d15610d0e602460443501604435600401612d78565b610dd8610ddd610dc66044803501604435600401612d78565b6001600160a01b039391369190612c09565b6130ba565b6001600160a01b03909216911614612df6565b60c051546001600160a01b0316610120610e0e60243560c401612d37565b6040516324b9c44160e21b81526001600160a01b03909116600482015291829060249082905afa80156104295760c051918291611995575b5061190b575b5060443560040135602435600401350160243560040135116118f557610e806044356004013560243560040135018461328c565b80604435600401356024356004013501106118b057604435600401356024356004013501151580611895575b6115b9575b60c0515b610eca61012460243501602435600401612ef0565b90508110156110a557610ef561044b82610eef61012460243501602435600401612ef0565b90612f25565b90602082015180151580611097575b80611080575b610f1a575b506001915001610eb5565b82516001600160a01b0316610f3460243561010401612d37565b9060408501519060ff6060870151169160808701519460a0880151833b1561019257610f7d906040519788968795869563d505accf60e01b875260c0519a309060048901612fb0565b039160c051905af180156104295761106a575b508151611000926020916001600160a01b0316610fb260243561010401612d37565b9183610fc2606460443501612d37565b9101516040516323b872dd60e01b81526001600160a01b03948516600482015293909116602484015260448301529093849190829081906064820190565b039160c051905af19182156104295760c0519261102a575b50611024600192613130565b86610f0f565b91506020823d602011611062575b8161104560209383612bcd565b810103126101925761102461105b600193612ff9565b9250611018565b3d9150611038565b61107390612bba565b60c0516101925786610f90565b5082516001600160a01b0388811691161415610f0a565b506040830151421115610f04565b50838360018060a01b0360c0515416610d0e604460243501916110e1610dd86110d385602435600401612d78565b949095602435600401612d78565b916110f0606460243501612d37565b936110ff608460243501612d37565b60a05261111060a460243501612d37565b61111e60c460243501612d37565b61112c60e460243501612e42565b611145610dd8610d0e6044803501604435600401612d78565b611153606460443501612d37565b611161608460443501612d37565b9161117060a460443501612d37565b9361117f60c460443501612d37565b9561118e60e460443501612e42565b978b3b15610192576111c799604051608052635988f59760e01b6080515260c0519e6080519e6080519d60a05193600460805101612e4f565b03906080519060c051905af18015610429576115a0575b600080516020613787833981519152546001600160a01b0316331461158a575b60028101809111611572573360c051526005602052604060c051205581151580611557575b61148b575b50602435600401356113b5575b600460443501358110156113ac576112539060443560040135612fec565b806112e3575b5050346112785760016000805160206137a78339815191525560c05180f35b60c05161129b9080808034611291604435606401612d37565b5af16103cd613048565b6001600160a01b036112b1604435606401612d37565b166040513481527ffb55a98b33e2f35080e8e9656caf739c56946219253f8cd86917f7d33398667660203392a361039d565b6112f1606460443501612d37565b823b15610192576040516340c10f1960e01b815260c0516001600160a01b0390921660048201526024810183905290818060448101038160c051875af1801561042957611396575b507fb5187db8729022d088cc50f8b09bdeaec0ac84d7686d287a7dd82dc25704f7f3906001600160a01b03611372604435606401612d37565b604080516001600160a01b0396909616865260208601939093521692a28080611259565b61139f90612bba565b60c0516101925782611339565b5060c051611253565b6113c360c460243501612d37565b823b15610192576040516340c10f1960e01b815260c0516001600160a01b039092166004808301919091526024803591909101359082015290818060448101038160c051875af1801561042957611475575b506001600160a01b0361142c60243560c401612d37565b604080516001600160a01b038616815260243560040135602082015291909216917fb5187db8729022d088cc50f8b09bdeaec0ac84d7686d287a7dd82dc25704f7f391a2611235565b61147e90612bba565b60c0516101925782611415565b60075460405163a9059cbb60e01b81526001600160a01b0391821660048201526024810184905260c05190916020918391604491839187165af180156104295760c0519061151c575b6114de9150613006565b6040518281526001600160a01b03909116907f9dc46f23cfb5ddcad0ae7ea2be38d47fec07bb9382ec7e564efc69e036dd66ce90602090a282611228565b506020813d60201161154f575b8161153660209383612bcd565b810103126101925761154a6114de91612ff9565b6114d4565b3d9150611529565b508260c05152600460205260ff604060c05120541615611223565b634e487b7160e01b60c051526011600452602460c051fd5b61159b6101b4606460443501612d37565b6111fe565b6115ab608051612bba565b60c051156111de5760c05180fd5b60c051929190835b6115d661012460243501602435600401612ef0565b905081101561188c576115fb61044b82610eef61012460243501602435600401612ef0565b80516001600160a01b03908116908816811480611870575b80611862575b6116275750506001016115c1565b9150919293945061163d61010460243501612d37565b90602083015190604084015160ff6060860151169260a06080870151960151833b156101925761168a906040519788968795869563d505accf60e01b875260c0519a309060048901612fb0565b039160c051905af180156104295761184c575b5060015b80156117b1575b156117735761170a60206116c161010460243501612d37565b6040516323b872dd60e01b81526001600160a01b039091166004808301919091523060248084019190915235810135604480359290920135019082015291829081906064820190565b038160c05160018060a01b038a165af180156104295760c05190611738575b6117339150613130565b610eb1565b506020813d60201161176b575b8161175260209383612bcd565b810103126101925761176661173391612ff9565b611729565b3d9150611745565b60405162461bcd60e51b8152602060048201526016602482015275496e73756666696369656e7420616c6c6f77616e636560501b6044820152606490fd5b506117c161010460243501612d37565b604051636eb1769f60e11b81526001600160a01b039182166004820152306024820152906020908290604490829089165afa9081156104295760c0519161181a575b5060443560040135602435600401350111156116a8565b90506020813d602011611844575b8161183560209383612bcd565b810103126105a4575185611803565b3d9150611828565b61185590612bba565b60c051610192578461169d565b506040820151421115611619565b5060443560040135602435600401350160208301511015611613565b509091926116a1565b508160c05152600460205260ff604060c05120541615610eac565b60405162461bcd60e51b815260206004820152601b60248201527f416d6f756e7420746f6f206c6f7720746f20636f7665722066656500000000006044820152606490fd5b634e487b7160e01b600052601160045260246000fd5b602001516001600160a01b039081169061192960243560c401612d37565b16036119355783610e4c565b60405162461bcd60e51b815260206004820152603260248201527f4f75747075742061646472657373206973206e6f7420746865206c6174657374604482015271040e0e4cae4dee8c2e8cac896caf290c2e6d60731b6064820152608490fd5b915050806101203d61012011611a81575b6119b08183612bcd565b810103610120811261019257610100136101925760405190816101008101106001600160401b03610100840111176109575761010082016040526119f38161311c565b8252611a016020820161311c565b6020830152611a126040820161311c565b6040830152611a236060820161311c565b6060830152611a346080820161311c565b6080830152611a4560a08201612ff9565b60a0830152611a5660c08201612ff9565b60c083015260e081015160038110156101925760e0830152611a7b9061010001612ff9565b85610e46565b503d6119a6565b3461019257602036600319011261019257611aa1612b8e565b611aa9613538565b60018060a01b03166001600160601b0360a01b600154161760015560c05160c051f35b346101925760c051366003190112610192577f00000000000000000000000000000000000000000000000000000000000000006001600160a01b03163003611b385760206040517f360894a13ba1a3210667c828492db98dca3e2076cc3735a920a3ca505d382bbc8152f35b60405163703e46dd60e11b8152600490fd5b604036600319011261019257611b5e612b8e565b6024356001600160401b03811161019257611b7d903690600401612c40565b906001600160a01b037f00000000000000000000000000000000000000000000000000000000000000008116308114908115611d24575b50611b3857611bc1613538565b8116916040516352d1902d60e01b8152602081600481875afa60c0519181611cf0575b50611c0257604051634c9c8ce360e01b815260048101859052602490fd5b7f360894a13ba1a3210667c828492db98dca3e2076cc3735a920a3ca505d382bbc90818103611cd85750823b15611cbf57836001600160601b0360a01b825416179055604051927fbc7cd75a20ee27fd9adebab32041f755214dbc6bffa90cc0225b39da2e5c2d3b60c05160c051a2805115611ca357611c9c925060c0519060c05190602081519101845af4611c96613048565b91613703565b5060c05180f35b505034611cb057506101c1565b63b398979f60e01b8152600490fd5b604051634c9c8ce360e01b815260048101859052602490fd5b60249060405190632a87526960e21b82526004820152fd5b9091506020813d602011611d1c575b81611d0c60209383612bcd565b8101031261019257519085611be4565b3d9150611cff565b9050817f360894a13ba1a3210667c828492db98dca3e2076cc3735a920a3ca505d382bbc5416141584611bb4565b3461019257606036600319011261019257611d6b612b8e565b611d73612ba4565b6044358015158091036105a457611d88613538565b60018060a01b03809316918260c05152600260205283604060c051205416611e56578260c05152600260205283604060c0512091166001600160601b0360a01b91818382541617905560c05152600360205282604060c05120918254161790556004602052604060c051209060ff8019835416911617905560065468010000000000000000811015611e3e57806001611e249201600655612c9e565b909283549160031b92831b921b191617905560c05160c051f35b634e487b7160e01b60c051526041600452602460c051fd5b60405162461bcd60e51b815260206004820152601960248201527f546f6b656e207061697220616c726561647920657869737473000000000000006044820152606490fd5b34610192576020366003190112610192576004356001600160401b03811161019257611ed0610dd86020923690600401612c40565b6040516001600160a01b039091168152f35b346101925760203660031901126101925760043560c051526009602052602060ff604060c0512054166040519015158152f35b346101925760203660031901126101925760206001600160a01b0380611f39612b8e565b1660c0515260028252604060c051205416604051908152f35b60031960603682011261019257611f67612b8e565b906001600160401b0390816024351161019257610120918282602435360301126101925760443511610192576044353603011261019257611fa66131e8565b6000805160206137c7833981519152608060405160408152601c60408201527f537461727420756e7772617050616972576974685472616e7366657200000000606082015260c0516020820152a160c080516001600160a01b03838116909152600360205290516040902054169061201f821515612ceb565b6000805160206137c78339815191526080604051604081526012604082015271151bdad95b881c185a5c8818da1958dad95960721b606082015260c0516020820152a13360c051526005602052604060c05120546000805160206137c7833981519152608060405160408152600d60408201526c139bdb98d94819995d18da1959609a1b6060820152836020820152a16120bd60c460243501612d37565b6040516120db81610cbe856020830195602435600401358988612d4b565b51902060008051602061376783398151915260c05152601c5261218461214c7f7e6a49f35e3e07bf6b560eeb6ef6c8b821c4499a2a6301de6547ab58b52b0be5612171603c60c0512061214361213d610d0e6024803501602435600401612d78565b82613571565b909591956135ad565b604080519182526001600160a01b038516602083015233908201529081906060820190565b0390a16001600160a01b03163314612daa565b61219260c460443501612d37565b600182018211611572576040516121be81610cbe60208201946001870190604435600401358988612d4b565b51902060008051602061376783398151915260c05152601c5261227a612206603c60c051206121fd61213d610d0e602460443501604435600401612d78565b909391936135ad565b7f7e6a49f35e3e07bf6b560eeb6ef6c8b821c4499a2a6301de6547ab58b52b0be582612241610dd8610d0e6044803501604435600401612d78565b604080519485526001600160a01b0392831660208601529181169184019190915291606090a16001600160a01b03918216911614612df6565b6000805160206137c783398151915260806040516040815260146040820152735265676973746572696e67206b6579206c6f677360601b606082015260c0516020820152a160018060a01b0360c0515416610d0e604460243501916122ea610dd86110d385602435600401612d78565b916122f9606460243501612d37565b93612308608460243501612d37565b6101005261231a60a460243501612d37565b61232860c460243501612d37565b61233660e460243501612e42565b61234f610dd8610d0e6044803501604435600401612d78565b61235d606460443501612d37565b61236b608460443501612d37565b9161237a60a460443501612d37565b9361238960c460443501612d37565b9561239860e460443501612e42565b978b3b15610192576123d29960405160e052635988f59760e01b60e0515260c0519e60e0519e60e0519d6101005193600460e05101612e4f565b039060e0519060c051905af1801561042957612b7e575b600080516020613787833981519152546001600160a01b03163314612b68575b600281018111611572576002903360c05152600560205201604060c051205560c0515b61244161010460243501602435600401612ef0565b905081101561256e5761246661044b82610eef61010460243501602435600401612ef0565b90602082015180151580612560575b612485575b50600191500161242c565b60018060a01b038351169060408401519160ff6060860151169060808601519160a087015194823b15610192576124d86040519687958694859463d505accf60e01b865260c05199303360048901612fb0565b039160c051905af180156104295761254a575b506000805160206137c78339815191526080600193848060a01b039051166040519060408252601a60408301527f5065726d69742070726f63657373656420666f7220746f6b656e00000000000060608301526020820152a18461247a565b61255390612bba565b60c05161019257846124eb565b506040830151421115612475565b50906000805160206137c7833981519152608060405160408152600e60408201526d4275726e696e6720746f6b656e7360901b6060820152602435600401356020820152a16024356004013515612b15576001600160a01b0382163b1561019257604051632770a7eb60e21b815260c08051336004808501919091526024803590910135908401529051829060449082906001600160a01b0388165af1801561042957612aff575b50612627602435600401358261328c565b9060046024350135821015612af6576126468260243560040135612fec565b915b60c080516001600160a01b0386169052600460205251604090205460ff161561291857507fcca356c69c0991b2f138fe7c7f64cf9be89604118a06017a49e0001782bc65366126c261269e606460443501612d37565b604080516001600160a01b0390921682526020820195909552339490918291820190565b0390a35b6000805160206137c7833981519152608060405160408152601a60408201527f436865636b696e672072656d61696e696e672062616c616e6365000000000000606082015260c0516020820152a16040516370a0823160e01b81523360048201526020816024816001600160a01b0386165afa9081156104295760c051916128e6575b506000805160206137c7833981519152608060405160408152601160408201527052656d61696e696e672062616c616e636560781b6060820152836020820152a1806127ae575050346112785760016000805160206137a78339815191525560c05180f35b6127f96020826127c2606460443501612d37565b6040516323b872dd60e01b81523360048201526001600160a01b039091166024820152604481019190915291829081906064820190565b038160c05160018060a01b0388165af19081156104295760c051916128ac575b5015612857577fb5187db8729022d088cc50f8b09bdeaec0ac84d7686d287a7dd82dc25704f7f3906001600160a01b03611372604435606401612d37565b60405162461bcd60e51b815260206004820152602760248201527f52656d61696e696e67207772617070656420746f6b656e207472616e736665726044820152660819985a5b195960ca1b6064820152608490fd5b90506020813d6020116128de575b816128c760209383612bcd565b81010312610192576128d890612ff9565b83612819565b3d91506128ba565b90506020813d602011612910575b8161290160209383612bcd565b810103126105a4575182612749565b3d91506128f4565b80612a0c575b508161292c575b50506126c6565b61297691602091612941606460443501612d37565b60405163a9059cbb60e01b81526001600160a01b03909116600482015260248101929092529092839190829081906044820190565b039160c051905af19081156104295760c051916129d2575b501561299b578180612925565b60405162461bcd60e51b815260206004820152600f60248201526e151c985b9cd9995c8819985a5b1959608a1b6044820152606490fd5b90506020813d602011612a04575b816129ed60209383612bcd565b81010312610192576129fe90612ff9565b8261298e565b3d91506129e0565b60075460405163a9059cbb60e01b81526001600160a01b03909116600482015260248101829052906020828060448101038160c051875af1801561042957839260c05191612a90575b507f9dc46f23cfb5ddcad0ae7ea2be38d47fec07bb9382ec7e564efc69e036dd66ce91612a83602092613006565b604051908152a28361291e565b9250506020823d602011612aee575b81612aac60209383612bcd565b810103126101925760207f9dc46f23cfb5ddcad0ae7ea2be38d47fec07bb9382ec7e564efc69e036dd66ce91612a83612ae58695612ff9565b92505091612a55565b3d9150612a9f565b60c05191612648565b612b0890612bba565b60c0516101925782612616565b60405162461bcd60e51b815260206004820152602560248201527f4275726e20616d6f756e74206d7573742062652067726561746572207468616e604482015264207a65726f60d81b6064820152608490fd5b612b796101b4606460443501612d37565b612409565b612b8960e051612bba565b6123e9565b600435906001600160a01b03821682036105a457565b602435906001600160a01b03821682036105a457565b6001600160401b03811161095757604052565b90601f801991011681019081106001600160401b0382111761095757604052565b6001600160401b03811161095757601f01601f191660200190565b929192612c1582612bee565b91612c236040519384612bcd565b8294818452818301116105a4578281602093846000960137010152565b9080601f830112156105a457816020612c5b93359101612c09565b90565b919082519283825260005b848110612c8a575050826000602080949584010152601f8019910116010190565b602081830181015184830182015201612c69565b600654811015612cd55760066000527ff652222313e28459528d920b65115c16c04f3efc82aaedc97be59f3f377c0d3f0190600090565b634e487b7160e01b600052603260045260246000fd5b15612cf257565b60405162461bcd60e51b815260206004820152601860248201527f546f6b656e2070616972206e6f7420737570706f7274656400000000000000006044820152606490fd5b356001600160a01b03811681036105a45790565b92606894926001600160601b0319809360601b168552601485015260601b16603483015260488201520190565b903590601e19813603018212156105a457018035906001600160401b0382116105a4576020019181360383136105a457565b15612db157565b60405162461bcd60e51b815260206004820152601d60248201527f496e76616c696420756e636f6e6669726d6564207369676e61747572650000006044820152606490fd5b15612dfd57565b60405162461bcd60e51b815260206004820152601c60248201527f496e76616c696420636f6e6669726d696e67207369676e6174757265000000006044820152606490fd5b3580151581036105a45790565b9c999394969a959891979e9d9b978091818f816101a08083528201526101c094859384830137010160009052601f1990601f01168d01019d8c600160a01b60019003809c81809c81809c81809c81809c1660208a0152166040880152166060860152166080840152169060a00152151560c08d01521660e08b0152166101008901521661012087015216610140850152166101608301521515906101800152565b903590601e19813603018212156105a457018035906001600160401b0382116105a4576020019160c08202360383136105a457565b9190811015612cd55760c0020190565b60c0813603126105a4576040519060c082018281106001600160401b038211176109575760405280356001600160a01b03811681036105a4578252602081013560208301526040810135604083015260608101359060ff821682036105a45760a091606084015260808101356080840152013560a082015290565b9360ff929897969360c0969260e087019a60018060a01b0380921688521660208701526040860152606085015216608083015260a08201520152565b919082039182116118f557565b519081151582036105a457565b1561300d57565b60405162461bcd60e51b8152602060048201526013602482015272119959481d1c985b9cd9995c8819985a5b1959606a1b6044820152606490fd5b3d15613073573d9061305982612bee565b916130676040519384612bcd565b82523d6000602084013e565b606090565b1561307f57565b60405162461bcd60e51b8152602060048201526013602482015272115512081d1c985b9cd9995c8819985a5b1959606a1b6044820152606490fd5b60408151036130d75780516020909101206001600160a01b031690565b60405162461bcd60e51b815260206004820152601b60248201527f5075626c6963206b6579206d75737420626520363420627974657300000000006044820152606490fd5b51906001600160a01b03821682036105a457565b1561313757565b60405162461bcd60e51b8152602060048201526015602482015274151bdad95b881d1c985b9cd9995c8819985a5b1959605a1b6044820152606490fd5b6001600160a01b039081169081156131cf5760008051602061378783398151915280546001600160a01b031981168417909155167f8be0079c531659141344cd1fd0a4f28419497f9722a3daafe3b4186f6b6457e0600080a3565b604051631e4fbdf760e01b815260006004820152602490fd5b6000805160206137a783398151915260028154146132065760029055565b604051633ee5aeb560e01b8152600490fd5b818102929181159184041417156118f557565b8115613235570490565b634e487b7160e01b600052601260045260246000fd5b519069ffffffffffffffffffff821682036105a457565b908160209103126105a4575160ff811681036105a45790565b60ff16604d81116118f557600a0a90565b9061329d6127109160085490613218565b0460018060a01b0380921660009281845260049060209180835260409160ff8388205416156132d1575b5050505050905090565b600a845282872054169384156132c7578251633fabe5a360e21b81529360a0858481895afa94851561352e5788956134dc575b50878513156134a5578351958187858163313ce56760e01b948582525afa96871561349b57899761347a575b5081908486518095819382525afa93841561347157508793613442575b505060ff683635c9adc5dea000009216601281116000146133e057601119019060ff82116133cd5750906133836133899261327b565b90613218565b915b60ff8116156133bd576133a9926133836133a49261327b565b61322b565b915b50818111156133b8575090565b905090565b506133c79161322b565b916133ab565b634e487b7160e01b875260119052602486fd5b601281959395106133f3575b505061338b565b6012949192940360ff811161342f5761340b9061327b565b91821561341c5750049138806133ec565b634e487b7160e01b875260129052602486fd5b634e487b7160e01b875260118352602487fd5b613462929350803d1061346a575b61345a8183612bcd565b810190613262565b90388061334d565b503d613450565b513d89823e3d90fd5b8291975061349490823d841161346a5761345a8183612bcd565b9690613330565b85513d8b823e3d90fd5b9050606492519162461bcd60e51b83528201526012602482015271125b9d985b1a59081c1c9a58d9481999595960721b6044820152fd5b90945060a0813d60a011613526575b816134f860a09383612bcd565b81010312613522576135098161324b565b5061351a608086830151920161324b565b509338613304565b8780fd5b3d91506134eb565b84513d8a823e3d90fd5b600080516020613787833981519152546001600160a01b0316330361355957565b60405163118cdaa760e01b8152336004820152602490fd5b81519190604183036135a25761359b92506020820151906060604084015193015160001a90613673565b9192909190565b505060009160029190565b600481101561361c57806135bf575050565b600181036135d95760405163f645eedf60e01b8152600490fd5b600281036135fa5760405163fce698f760e01b815260048101839052602490fd5b6003146136045750565b602490604051906335e2f38360e21b82526004820152fd5b634e487b7160e01b600052602160045260246000fd5b60ff7ff0c57e16840df040f15088dc2f81fe391c3923bec73e23a9662efc9c229c6a005460401c161561366157565b604051631afcd79f60e31b8152600490fd5b91907f7fffffffffffffffffffffffffffffff5d576e7357a4501ddfe92f46681b20a084116136f757926020929160ff608095604051948552168484015260408301526060820152600092839182805260015afa156136eb5780516001600160a01b038116156136e257918190565b50809160019190565b604051903d90823e3d90fd5b50505060009160039190565b9061372a575080511561371857805190602001fd5b60405163d6bda27560e01b8152600490fd5b8151158061375d575b61373b575090565b604051639996b31560e01b81526001600160a01b039091166004820152602490fd5b50803b1561373356fe19457468657265756d205369676e6564204d6573736167653a0a3332000000009016d09d72d40fdae2fd8ceac6b6234c7706214fd39c1cd1e609a0528c1993009b779b17422d0df92223018b32b4d1fa46e071723d6817e2486d003becc55f003f8b99da4d19c05414499f4a5f0607e7204caf30eba8c8eac2445f1157102fd3a2646970667358221220aa5655729d1058508d05e7f1fe1bece3bdd5c8c7b4a34e4c25c9934d8123bd1464736f6c63430008180033",
  "linkReferences": {},
  "deployedLinkReferences": {}
}