{
  "_format": "hh-sol-artifact-1",
  "contractName": "BridgeUpgrade",
  "sourceName": "contracts/BridgeUpgrade.sol",
  "abi": [
    {
      "inputs": [
        {
          "internalType": "address",
          "name": "target",
          "type": "address"
        }
      ],
      "name": "AddressEmptyCode",
      "type": "error"
    },
    {
      "inputs": [],
      "name": "AmountTooLow",
      "type": "error"
    },
    {
      "inputs": [],
      "name": "BurnAmountZero",
      "type": "error"
    },
    {
      "inputs": [],
      "name": "ECDSAInvalidSignature",
      "type": "error"
    },
    {
      "inputs": [
        {
          "internalType": "uint256",
          "name": "length",
          "type": "uint256"
        }
      ],
      "name": "ECDSAInvalidSignatureLength",
      "type": "error"
    },
    {
      "inputs": [
        {
          "internalType": "bytes32",
          "name": "s",
          "type": "bytes32"
        }
      ],
      "name": "ECDSAInvalidSignatureS",
      "type": "error"
    },
    {
      "inputs": [
        {
          "internalType": "address",
          "name": "implementation",
          "type": "address"
        }
      ],
      "name": "ERC1967InvalidImplementation",
      "type": "error"
    },
    {
      "inputs": [],
      "name": "ERC1967NonPayable",
      "type": "error"
    },
    {
      "inputs": [],
      "name": "EthTransferFailed",
      "type": "error"
    },
    {
      "inputs": [],
      "name": "FailedCall",
      "type": "error"
    },
    {
      "inputs": [],
      "name": "FeeTransferFailed",
      "type": "error"
    },
    {
      "inputs": [],
      "name": "InsufficientAllowance",
      "type": "error"
    },
    {
      "inputs": [
        {
          "internalType": "address",
          "name": "token",
          "type": "address"
        }
      ],
      "name": "InsufficientPermits",
      "type": "error"
    },
    {
      "inputs": [],
      "name": "InvalidFeeCollector",
      "type": "error"
    },
    {
      "inputs": [],
      "name": "InvalidFeeRate",
      "type": "error"
    },
    {
      "inputs": [],
      "name": "InvalidInitialization",
      "type": "error"
    },
    {
      "inputs": [],
      "name": "InvalidOwnershipTransfer",
      "type": "error"
    },
    {
      "inputs": [],
      "name": "InvalidPrerotatedKeyHash",
      "type": "error"
    },
    {
      "inputs": [],
      "name": "InvalidPublicKey",
      "type": "error"
    },
    {
      "inputs": [],
      "name": "InvalidRecipientAmount",
      "type": "error"
    },
    {
      "inputs": [],
      "name": "InvalidSignature",
      "type": "error"
    },
    {
      "inputs": [],
      "name": "MissingPermit",
      "type": "error"
    },
    {
      "inputs": [],
      "name": "NoTokenPairs",
      "type": "error"
    },
    {
      "inputs": [],
      "name": "NotInitializing",
      "type": "error"
    },
    {
      "inputs": [
        {
          "internalType": "address",
          "name": "contractAddress",
          "type": "address"
        }
      ],
      "name": "NotOwnerOfTarget",
      "type": "error"
    },
    {
      "inputs": [
        {
          "internalType": "address",
          "name": "owner",
          "type": "address"
        }
      ],
      "name": "OwnableInvalidOwner",
      "type": "error"
    },
    {
      "inputs": [
        {
          "internalType": "address",
          "name": "account",
          "type": "address"
        }
      ],
      "name": "OwnableUnauthorizedAccount",
      "type": "error"
    },
    {
      "inputs": [],
      "name": "PermitDeadlineExpired",
      "type": "error"
    },
    {
      "inputs": [],
      "name": "ReentrancyGuardReentrantCall",
      "type": "error"
    },
    {
      "inputs": [
        {
          "internalType": "address",
          "name": "token",
          "type": "address"
        }
      ],
      "name": "SafeERC20FailedOperation",
      "type": "error"
    },
    {
      "inputs": [],
      "name": "TokenPairExists",
      "type": "error"
    },
    {
      "inputs": [],
      "name": "TokenPairNotSupported",
      "type": "error"
    },
    {
      "inputs": [],
      "name": "TransferFailed",
      "type": "error"
    },
    {
      "inputs": [],
      "name": "UUPSUnauthorizedCallContext",
      "type": "error"
    },
    {
      "inputs": [
        {
          "internalType": "bytes32",
          "name": "slot",
          "type": "bytes32"
        }
      ],
      "name": "UUPSUnsupportedProxiableUUID",
      "type": "error"
    },
    {
      "inputs": [
        {
          "internalType": "address",
          "name": "contractAddress",
          "type": "address"
        },
        {
          "internalType": "string",
          "name": "reason",
          "type": "string"
        }
      ],
      "name": "UpgradeFailed",
      "type": "error"
    },
    {
      "inputs": [],
      "name": "ZeroAddress",
      "type": "error"
    },
    {
      "anonymous": false,
      "inputs": [
        {
          "indexed": false,
          "internalType": "uint64",
          "name": "version",
          "type": "uint64"
        }
      ],
      "name": "Initialized",
      "type": "event"
    },
    {
      "anonymous": false,
      "inputs": [
        {
          "indexed": true,
          "internalType": "address",
          "name": "previousOwner",
          "type": "address"
        },
        {
          "indexed": true,
          "internalType": "address",
          "name": "newOwner",
          "type": "address"
        }
      ],
      "name": "OwnershipTransferred",
      "type": "event"
    },
    {
      "anonymous": false,
      "inputs": [
        {
          "indexed": true,
          "internalType": "address",
          "name": "implementation",
          "type": "address"
        }
      ],
      "name": "Upgraded",
      "type": "event"
    },
    {
      "inputs": [],
      "name": "UPGRADE_INTERFACE_VERSION",
      "outputs": [
        {
          "internalType": "string",
          "name": "",
          "type": "string"
        }
      ],
      "stateMutability": "view",
      "type": "function"
    },
    {
      "inputs": [
        {
          "internalType": "address",
          "name": "to",
          "type": "address"
        }
      ],
      "name": "emergencyWithdrawBNB",
      "outputs": [],
      "stateMutability": "nonpayable",
      "type": "function"
    },
    {
      "inputs": [],
      "name": "feeCollector",
      "outputs": [
        {
          "internalType": "address",
          "name": "",
          "type": "address"
        }
      ],
      "stateMutability": "view",
      "type": "function"
    },
    {
      "inputs": [],
      "name": "feeSigner",
      "outputs": [
        {
          "internalType": "address",
          "name": "",
          "type": "address"
        }
      ],
      "stateMutability": "view",
      "type": "function"
    },
    {
      "inputs": [
        {
          "internalType": "bytes",
          "name": "publicKey",
          "type": "bytes"
        }
      ],
      "name": "getAddressFromPublicKey",
      "outputs": [
        {
          "internalType": "address",
          "name": "",
          "type": "address"
        }
      ],
      "stateMutability": "pure",
      "type": "function"
    },
    {
      "inputs": [],
      "name": "getOwner",
      "outputs": [
        {
          "internalType": "address",
          "name": "",
          "type": "address"
        }
      ],
      "stateMutability": "view",
      "type": "function"
    },
    {
      "inputs": [],
      "name": "getSupportedTokens",
      "outputs": [
        {
          "internalType": "address[]",
          "name": "",
          "type": "address[]"
        }
      ],
      "stateMutability": "view",
      "type": "function"
    },
    {
      "inputs": [
        {
          "internalType": "address",
          "name": "_keyLogRegistry",
          "type": "address"
        },
        {
          "internalType": "address",
          "name": "_wrappedTokenBeacon",
          "type": "address"
        }
      ],
      "name": "initialize",
      "outputs": [],
      "stateMutability": "nonpayable",
      "type": "function"
    },
    {
      "inputs": [],
      "name": "keyLogRegistry",
      "outputs": [
        {
          "internalType": "contract KeyLogRegistry",
          "name": "",
          "type": "address"
        }
      ],
      "stateMutability": "view",
      "type": "function"
    },
    {
      "inputs": [
        {
          "internalType": "address",
          "name": "",
          "type": "address"
        }
      ],
      "name": "nonces",
      "outputs": [
        {
          "internalType": "uint256",
          "name": "",
          "type": "uint256"
        }
      ],
      "stateMutability": "view",
      "type": "function"
    },
    {
      "inputs": [
        {
          "internalType": "address",
          "name": "originalToken",
          "type": "address"
        }
      ],
      "name": "originalToWrapped",
      "outputs": [
        {
          "internalType": "address",
          "name": "",
          "type": "address"
        }
      ],
      "stateMutability": "view",
      "type": "function"
    },
    {
      "inputs": [],
      "name": "owner",
      "outputs": [
        {
          "internalType": "address",
          "name": "",
          "type": "address"
        }
      ],
      "stateMutability": "view",
      "type": "function"
    },
    {
      "inputs": [],
      "name": "proxiableUUID",
      "outputs": [
        {
          "internalType": "bytes32",
          "name": "",
          "type": "bytes32"
        }
      ],
      "stateMutability": "view",
      "type": "function"
    },
    {
      "inputs": [
        {
          "internalType": "address",
          "name": "token",
          "type": "address"
        },
        {
          "components": [
            {
              "internalType": "address",
              "name": "token",
              "type": "address"
            },
            {
              "internalType": "uint256",
              "name": "fee",
              "type": "uint256"
            },
            {
              "internalType": "uint256",
              "name": "expires",
              "type": "uint256"
            },
            {
              "internalType": "bytes",
              "name": "signature",
              "type": "bytes"
            }
          ],
          "internalType": "struct BridgeUpgrade.FeeInfo",
          "name": "fee",
          "type": "tuple"
        },
        {
          "components": [
            {
              "internalType": "address",
              "name": "originalToken",
              "type": "address"
            },
            {
              "internalType": "string",
              "name": "tokenName",
              "type": "string"
            },
            {
              "internalType": "string",
              "name": "tokenSymbol",
              "type": "string"
            },
            {
              "internalType": "address",
              "name": "wrappedToken",
              "type": "address"
            }
          ],
          "internalType": "struct BridgeUpgrade.TokenPair[]",
          "name": "newTokenPairs",
          "type": "tuple[]"
        },
        {
          "components": [
            {
              "internalType": "address",
              "name": "token",
              "type": "address"
            },
            {
              "internalType": "uint256",
              "name": "amount",
              "type": "uint256"
            },
            {
              "internalType": "uint256",
              "name": "deadline",
              "type": "uint256"
            },
            {
              "internalType": "uint8",
              "name": "v",
              "type": "uint8"
            },
            {
              "internalType": "bytes32",
              "name": "r",
              "type": "bytes32"
            },
            {
              "internalType": "bytes32",
              "name": "s",
              "type": "bytes32"
            },
            {
              "components": [
                {
                  "internalType": "address",
                  "name": "recipientAddress",
                  "type": "address"
                },
                {
                  "internalType": "uint256",
                  "name": "amount",
                  "type": "uint256"
                },
                {
                  "internalType": "bool",
                  "name": "wrap",
                  "type": "bool"
                },
                {
                  "internalType": "bool",
                  "name": "unwrap",
                  "type": "bool"
                },
                {
                  "internalType": "bool",
                  "name": "mint",
                  "type": "bool"
                },
                {
                  "internalType": "bool",
                  "name": "burn",
                  "type": "bool"
                }
              ],
              "internalType": "struct BridgeUpgrade.Recipient[]",
              "name": "recipients",
              "type": "tuple[]"
            }
          ],
          "internalType": "struct BridgeUpgrade.PermitData[]",
          "name": "permits",
          "type": "tuple[]"
        },
        {
          "components": [
            {
              "internalType": "uint256",
              "name": "amount",
              "type": "uint256"
            },
            {
              "internalType": "bytes",
              "name": "publicKey",
              "type": "bytes"
            },
            {
              "internalType": "address",
              "name": "prerotatedKeyHash",
              "type": "address"
            },
            {
              "internalType": "address",
              "name": "twicePrerotatedKeyHash",
              "type": "address"
            },
            {
              "internalType": "address",
              "name": "prevPublicKeyHash",
              "type": "address"
            },
            {
              "internalType": "address",
              "name": "outputAddress",
              "type": "address"
            }
          ],
          "internalType": "struct BridgeUpgrade.Params",
          "name": "unconfirmed",
          "type": "tuple"
        },
        {
          "internalType": "bytes",
          "name": "unconfirmedSignature",
          "type": "bytes"
        },
        {
          "components": [
            {
              "internalType": "uint256",
              "name": "amount",
              "type": "uint256"
            },
            {
              "internalType": "bytes",
              "name": "publicKey",
              "type": "bytes"
            },
            {
              "internalType": "address",
              "name": "prerotatedKeyHash",
              "type": "address"
            },
            {
              "internalType": "address",
              "name": "twicePrerotatedKeyHash",
              "type": "address"
            },
            {
              "internalType": "address",
              "name": "prevPublicKeyHash",
              "type": "address"
            },
            {
              "internalType": "address",
              "name": "outputAddress",
              "type": "address"
            }
          ],
          "internalType": "struct BridgeUpgrade.Params",
          "name": "confirming",
          "type": "tuple"
        },
        {
          "internalType": "bytes",
          "name": "confirmingSignature",
          "type": "bytes"
        }
      ],
      "name": "registerKeyPairWithTransfer",
      "outputs": [],
      "stateMutability": "payable",
      "type": "function"
    },
    {
      "inputs": [],
      "name": "relayer",
      "outputs": [
        {
          "internalType": "address",
          "name": "",
          "type": "address"
        }
      ],
      "stateMutability": "view",
      "type": "function"
    },
    {
      "inputs": [],
      "name": "renounceOwnership",
      "outputs": [],
      "stateMutability": "nonpayable",
      "type": "function"
    },
    {
      "inputs": [
        {
          "internalType": "address",
          "name": "_feeCollector",
          "type": "address"
        }
      ],
      "name": "setFeeCollector",
      "outputs": [],
      "stateMutability": "nonpayable",
      "type": "function"
    },
    {
      "inputs": [
        {
          "internalType": "address",
          "name": "_signer",
          "type": "address"
        }
      ],
      "name": "setFeeSigner",
      "outputs": [],
      "stateMutability": "nonpayable",
      "type": "function"
    },
    {
      "inputs": [
        {
          "internalType": "address",
          "name": "_wrappedTokenBeacon",
          "type": "address"
        }
      ],
      "name": "setWrappedTokenBeacon",
      "outputs": [],
      "stateMutability": "nonpayable",
      "type": "function"
    },
    {
      "inputs": [
        {
          "internalType": "uint256",
          "name": "",
          "type": "uint256"
        }
      ],
      "name": "supportedOriginalTokens",
      "outputs": [
        {
          "internalType": "address",
          "name": "",
          "type": "address"
        }
      ],
      "stateMutability": "view",
      "type": "function"
    },
    {
      "inputs": [],
      "name": "testUpgrade",
      "outputs": [
        {
          "internalType": "string",
          "name": "",
          "type": "string"
        }
      ],
      "stateMutability": "pure",
      "type": "function"
    },
    {
      "inputs": [
        {
          "internalType": "address",
          "name": "",
          "type": "address"
        }
      ],
      "name": "tokenPairs",
      "outputs": [
        {
          "internalType": "address",
          "name": "originalToken",
          "type": "address"
        },
        {
          "internalType": "address",
          "name": "wrappedToken",
          "type": "address"
        }
      ],
      "stateMutability": "view",
      "type": "function"
    },
    {
      "inputs": [
        {
          "internalType": "address",
          "name": "newOwner",
          "type": "address"
        }
      ],
      "name": "transferOwnership",
      "outputs": [],
      "stateMutability": "nonpayable",
      "type": "function"
    },
    {
      "inputs": [
        {
          "internalType": "address",
          "name": "newImplementation",
          "type": "address"
        },
        {
          "internalType": "bytes",
          "name": "data",
          "type": "bytes"
        }
      ],
      "name": "upgradeToAndCall",
      "outputs": [],
      "stateMutability": "payable",
      "type": "function"
    },
    {
      "inputs": [],
      "name": "wrappedTokenBeacon",
      "outputs": [
        {
          "internalType": "address",
          "name": "",
          "type": "address"
        }
      ],
      "stateMutability": "view",
      "type": "function"
    }
  ],
  "bytecode": "0x60a0806040523461002a573060805261321a90816100308239608051818181611ce40152611d930152f35b600080fdfe60808060405260043610156200001457600080fd5b60003560e01c90816307569339146200226e57508063081da8c114620021f1578063276c1ac014620021a457806342907696146200217957806347bbbdf5146200211d578063485cc9551462001f605780634f1ef2861462001d4f57806352d1902d1462001ccf578063602db8901462001c83578063715018a61462001c145780637e1aa1781462001bc55780637ecebe001462001b875780638406c0791462001b5c578063893d20e81462001b235780638da5cb5b1462001b235780638f2dd2de1462001ad45780639d6aed0b1462001a84578063a42dce801462001a23578063ad3cb1cc14620019d3578063b5057a7b14620019a8578063bc04f56114620003cb578063c415b95c14620003a0578063d3c7c2c714620002d0578063d8397fd514620002895763f2fde38b146200014c57600080fd5b346200025d5760203660031901126200025d576200016962002294565b62000173620026f6565b6001600160a01b03818116919082156200027757600054600080516020620031a58339815191525460405163031fb6df60e31b81529083166001600160a01b039081166004830152841660248201529160209183916044918391165afa9081156200026b5760009162000224575b5015620002125762000210916001600160601b0360a01b60025416176002556200020a620026f6565b62002974565b005b60405163b012a29560e01b8152600490fd5b90506020813d60201162000262575b816200024260209383620022f0565b810103126200025d575180151581036200025d5738620001e1565b600080fd5b3d915062000233565b6040513d6000823e3d90fd5b60405163d92e233d60e01b8152600490fd5b346200025d5760203660031901126200025d576004356007548110156200025d57620002b760209162002430565b905460405160039290921b1c6001600160a01b03168152f35b346200025d5760003660031901126200025d57604051806007548083526020809301809160076000527fa66cc928b5edb82af9bd49922954155ab7b0942694bea4ce44661d9a8736c6889060005b86828210620003825786866200033782880383620022f0565b604051928392818401908285525180915260408401929160005b8281106200036157505050500390f35b83516001600160a01b03168552869550938101939281019260010162000351565b83546001600160a01b0316855290930192600192830192016200031e565b346200025d5760003660031901126200025d576002546040516001600160a01b039091168152602090f35b6101003660031901126200025d57620003e362002294565b6001600160401b03602435116200025d576080602435360360031901126200025d576044356001600160401b0381116200025d5762000427903690600401620023cd565b906064356001600160401b0381116200025d576200044a903690600401620023cd565b9290916001600160401b03608435116200025d5760c0608435360360031901126200025d576001600160401b0360a435116200025d57620004913660a43560040162002400565b6001600160401b0360c435116200025d5760c060c435360360031901126200025d576001600160401b0360e435116200025d57620004d53660e43560040162002400565b9190926002600080516020620031c5833981519152541462001996576002600080516020620031c58339815191525533600052600660205260406000205491896040516200054681620005378760208301958d8d608435600401928962002526565b03601f198101835282620022f0565b5190206001600160a01b036200056160843560a4016200269e565b16156200027757604062000580602460843501608435600401620026b3565b9050036200198457620005c6620005cd93620005bd620005b7620005af602460843501608435600401620026b3565b36916200232e565b6200247e565b9336916200232e565b9062002731565b15620013a8576001600160a01b03620005eb60c43560a4016200269e565b16620018dc575b50505060005b828110620015d357506001600160a01b0391506200061d905060c43560a4016200269e565b161515928262000b01575b50505060001462000909576000546001600160a01b0316620006546084356024810190600401620026b3565b9190620006666044608435016200269e565b92620006776064608435016200269e565b936200068760848035016200269e565b6200069760a4608435016200269e565b620006ad602460c4350160c435600401620026b3565b90620006be604460c435016200269e565b94620006cf606460c435016200269e565b92620006e0608460c435016200269e565b94620006f160a460c435016200269e565b968b3b156200025d576040516385687dcd60e01b815261014060048201529c8d9b8c9b62000726916101448e01919062002505565b6001600160a01b0395861660248d015290851660448c015290841660648b0152921660848901528782036003190160a4890152620007649262002505565b6001600160a01b0394851660c487015290841660e4860152908316610104850152911661012483015203815a6000948591f180156200026b57620008f7575b50600080516020620031a5833981519152546001600160a01b031633811462000812575b505b336000526006602052604060002080549060028201809211620007fc57556001600080516020620031c583398151915255005b634e487b7160e01b600052601160045260246000fd5b62000822604460c435016200269e565b6200082c620026f6565b6001600160a01b038116918215620002775760005460405163031fb6df60e31b81526001600160a01b03928316600482015283831660248201529160209183916044918391165afa9081156200026b57600091620008b5575b50156200021257620008ae916001600160601b0360a01b60025416176002556200020a620026f6565b80620007c7565b90506020813d602011620008ee575b81620008d360209383620022f0565b810103126200025d575180151581036200025d578362000885565b3d9150620008c4565b6200090290620022dc565b80620007a3565b6000546001600160a01b03166200092a6084356024810190600401620026b3565b6200093d6044608494939435016200269e565b916200094e6064608435016200269e565b936200095e60848035016200269e565b6200096e60a4608435016200269e565b93833b156200025d57600095620009a7958793604051998a98899788966330a6293b60e11b885260a0600489015260a488019162002505565b6001600160a01b039485166024870152908416604486015290831660648501529116608483015203925af180156200026b5762000aef575b50600080516020620031a5833981519152546001600160a01b031633811462000a0a575b50620007c9565b62000a1a6044608435016200269e565b62000a24620026f6565b6001600160a01b038116918215620002775760005460405163031fb6df60e31b81526001600160a01b03928316600482015283831660248201529160209183916044918391165afa9081156200026b5760009162000aad575b5015620002125762000aa6916001600160601b0360a01b60025416176002556200020a620026f6565b8062000a03565b90506020813d60201162000ae6575b8162000acb60209383620022f0565b810103126200025d575180151581036200025d578362000a7d565b3d915062000abc565b62000afa90620022dc565b80620009df565b8315620015bc5762000b18604460c435016200269e565b925b6000805b82811062001587575015620015755791906000925b80841062000b4357505062000628565b62000b5e62000b588583869997989962002789565b620027bb565b80516001939192919060009081906001600160a01b03808516911614620014af575b84516001600160a01b031615159182620014a5575b50816200149b575b50620013f4575b60009584156200129f575b83516001600160a01b03161592600091825b60c0870151805185101562001202578462000bdc916200293d565b5180519091906001600160a01b031615620002775760208201518015620011f657602089015110620011e4576060820151151580620011cd575b1562000e06578751602083015162000c3b91309033906001600160a01b031662002a2c565b8751602083015191906001600160a01b0316803b156200025d57604051632770a7eb60e21b815230600482015260248101939093526000908390604490829084905af19283156200026b578e62000d5a9360019562000df4575b50848060a01b038b511660005260056020528d670de0b6b3a764000062000cf06040600020926040519362000cca85620022c0565b898060a01b03815416855289808060a01b03910154166020850152602086015162002952565b0462000d0181602086015162002966565b83888060a01b03845116801560001462000db1575062000d2392935062002a89565b8062000d95575b505b62000d4160208c015160208401519062002966565b908b8262000d64575b5050506020905b015190620026e8565b935b019262000bc1565b9362000d858362000d8b94936020969733908b8060a01b0390511662002a2c565b620026e8565b91908f8b62000d4a565b62000daa90868060a01b036002541662002a89565b3862000d2a565b9062000dbe929162002aa7565b8062000dcd575b505062000d2c565b62000dec91878060a01b03905116878060a01b03600254169062002aa7565b388062000dc5565b62000dff90620022dc565b3862000c95565b60a0820151151580620011b6575b1562000ea1578751825160208401516001600160a01b03928316939290911690833b156200025d57604051632770a7eb60e21b81526001600160a01b0390921660048301526024820152916000908390818381604481015b03925af180156200026b5760019362000d5a9360209262000e8f575b5062000d51565b62000e9a90620022dc565b3862000e88565b60808201511515806200119f575b1562000f2f5762000ede670de0b6b3a764000062000ed28d602086015162002952565b04602084015162002966565b885183516001600160a01b039182169392911690833b156200025d576040516340c10f1960e01b81526001600160a01b03909216600483015260248201529160009083908183816044810162000e6c565b88604083015115158062001188575b156200112f5750670de0b6b3a764000062000f5e8c602085015162002952565b049060018060a01b03895116600052600560205262000fce60406000206040519062000f8a82620022c0565b80546001600160a01b039081168084526001909201541660208301528a15620010e7575083620010c8575b602060018060a01b039101511692602085015162002966565b91803b156200025d5762001013928f91600092836040518097819582946340c10f1960e01b84526004840160209093929193604081019460018060a01b031681520152565b03925af19283156200026b578e62000d5a93600195620010b6575b508a6020830151602082015180821062001050575b5050505060209062000d51565b906200105c9162002966565b91826200106c575b918062001043565b9382916200109593602095968d8a8060a01b031615600014620010a05762000d85925062002a89565b91908f8b9062001064565b62000d859233908b8060a01b0390511662002a2c565b620010c190620022dc565b386200102e565b600254620010e19085906001600160a01b031662002a89565b62000fb5565b6200110790620010fc86602089015162002966565b903090339062002a2c565b831562000fb5578051600254620010e19186916001600160a01b039081169133911662002a2c565b90602060019362000d5a931562000d5157891562001165576200115f858060a01b03825116838301519062002a89565b62000d51565b6200115f858060a01b038c5116868060a01b038351168484015191339062002a2c565b5088516001600160a01b0388811691161462000f3e565b5087516001600160a01b0387811691161462000eaf565b5087516001600160a01b0387811691161462000e14565b5087516001600160a01b0387811691161462000c16565b60405163143d1ae760e21b8152600490fd5b50936001915062000d5c565b509450999894929697509490506200123d575b60200151036200122b5760010192919062000b33565b6040516312171d8360e31b8152600490fd5b6200124d82602083015162002966565b806200125b575b5062001215565b909160209162001280916001600160a01b038816620012885762000d85828b62002a89565b919062001254565b62000d85828b3360018060a01b0389511662002a2c565b9550426044602435013510620013e257670de0b6b3a764000060248035013511620013d057620012d46024356004016200269e565b6040519060018060a01b0316602082015260248035013560408201526060604460243501358183015281528060808101106001600160401b03608083011117620013ba5760808101604052602081519101207f19457468657265756d205369676e6564204d6573736167653a0a333200000000600052601c52620013856200137b603c60002062001374620005af606460243501602435600401620026b3565b9062002aec565b9092919262002b2b565b6003546001600160a01b03908116911603620013a8576024803501359562000baf565b604051638baa579f60e01b8152600490fd5b634e487b7160e01b600052604160045260246000fd5b604051630adad23360e31b8152600490fd5b6040516305787bdf60e01b8152600490fd5b60408301514211620013e2578251602084015160408501516060860151608087015160a088015160ff909216946001600160a01b03169390843b156200025d5760009460e4938692604051988997889663d505accf60e01b885233600489015230602489015260448801526064870152608486015260a485015260c48401525af180156200026b5762001489575b5062000ba4565b6200149490620022dc565b8862001482565b9050158962000b9d565b1591508a62000b95565b9896600098969294959391985b60c08701518051821015620015635781620014d7916200293d565b5160408101511580159062001555575b801562001547575b801562001539575b6200152f575b608081015162001525575b60a001516200151b575b600101620014bc565b60019a5062001512565b60019a5062001508565b60009550620014fd565b5060a08101511515620014f7565b5060608101511515620014ef565b5060808101511515620014e7565b50509698979092949391959762000b80565b604051633bee968760e01b8152600490fd5b6001600160a01b03620015a062000b5883868962002789565b511615620015b2575b60010162000b1e565b60019150620015a9565b620015cc6044608435016200269e565b9262000b1a565b8060051b820135607e19833603018112156200025d5760808184013603126200025d57604051908160808101106001600160401b03608084011117620013ba576080820160405262001627818501620022ab565b82526001600160401b0360208286010135116200025d5762001652368583016020810135016200236a565b60208301526001600160401b0360408286010135116200025d5762001680368583016040810135016200236a565b60408301526200169660608092860101620022ab565b8282015281516001600160a01b0390811660009081526005602052604090206001015416620018ca578101516001600160a01b03168015620017e6575b8151604051906001600160a01b0316620016ed82620022c0565b81526001600160a01b0391821660208083018281528551851660009081526005909252604091829020935184549086166001600160a01b031991821617855590516001948501805491871691831691909117905585519151929490939291166200175782620022c0565b815260208101938085526000526005602052604060002090828060a01b0390511683825416178155019160018060a01b039051169082541617905560018060a01b03905116906007549168010000000000000000831015620013ba57620017c683600180950160075562002430565b819291549060031b91821b91858060a01b03901b191617905501620005f8565b506200182e6200185c602083015160408401516200184160018060a01b0360005416916040519586946323c56d0560e21b60208701526080602487015260a48601906200238b565b848103602319016044860152906200238b565b90306064840152608483015203601f198101835282620022f0565b60045460405191906001600160a01b03166001600160401b03610494840190811190841117620013ba578291620018af9161049462002d118539610494840190815260406020820181905201906200238b565b03906000f080156200026b576001600160a01b0316620016d3565b604051636bb9e87d60e01b8152600490fd5b600181018111620007fc576040516200190c816200053760016020830195018c8a8a60c435600401928962002526565b519020604062001927602460c4350160c435600401620026b3565b90500362001984576001600160a01b036200194760c43560a4016200269e565b16156200027757620005c66200197593620005bd620005b7620005af602460c4350160c435600401620026b3565b15620013a857858080620005f2565b60405163145a1fdd60e31b8152600490fd5b604051633ee5aeb560e01b8152600490fd5b346200025d5760003660031901126200025d576000546040516001600160a01b039091168152602090f35b346200025d5760003660031901126200025d5762001a1f604051620019f881620022c0565b60058152640352e302e360dc1b60208201526040519182916020835260208301906200238b565b0390f35b346200025d5760203660031901126200025d5762001a4062002294565b62001a4a620026f6565b6001600160a01b0316801562001a72576001600160601b0360a01b6002541617600255600080f35b60405163bb0bac9960e01b8152600490fd5b346200025d5760003660031901126200025d5762001a1f60405162001aa981620022c0565b6009815268313934b233b2903b1b60b91b60208201526040519182916020835260208301906200238b565b346200025d5760203660031901126200025d5762001af162002294565b62001afb620026f6565b6001600160a01b0316801562000277576001600160601b0360a01b6004541617600455600080f35b346200025d5760003660031901126200025d57600080516020620031a5833981519152546040516001600160a01b039091168152602090f35b346200025d5760003660031901126200025d576001546040516001600160a01b039091168152602090f35b346200025d5760203660031901126200025d576001600160a01b0362001bac62002294565b1660005260066020526020604060002054604051908152f35b346200025d5760203660031901126200025d5762001be262002294565b62001bec620026f6565b6001600160a01b0316801562000277576001600160601b0360a01b6003541617600355600080f35b346200025d5760003660031901126200025d5762001c31620026f6565b600080516020620031a583398151915280546001600160a01b031981169091556000906001600160a01b03167f8be0079c531659141344cd1fd0a4f28419497f9722a3daafe3b4186f6b6457e08280a3005b346200025d5760203660031901126200025d5762001ca062002294565b62001caa620026f6565b479081156200025d57600080809381935af162001cc66200249c565b50156200025d57005b346200025d5760003660031901126200025d577f00000000000000000000000000000000000000000000000000000000000000006001600160a01b0316300362001d3d5760206040517f360894a13ba1a3210667c828492db98dca3e2076cc3735a920a3ca505d382bbc8152f35b60405163703e46dd60e11b8152600490fd5b60403660031901126200025d5762001d6662002294565b6024356001600160401b0381116200025d5762001d889036906004016200236a565b906001600160a01b037f0000000000000000000000000000000000000000000000000000000000000000811630811490811562001f31575b5062001d3d5762001dd0620026f6565b8116906040516352d1902d60e01b8152602081600481865afa6000918162001ef7575b5062001e1257604051634c9c8ce360e01b815260048101849052602490fd5b7f360894a13ba1a3210667c828492db98dca3e2076cc3735a920a3ca505d382bbc9291929081810362001edf5750823b1562001ec65780546001600160a01b03191682179055604051907fbc7cd75a20ee27fd9adebab32041f755214dbc6bffa90cc0225b39da2e5c2d3b600080a282511562001eac57506000808360206200021095519101845af462001ea56200249c565b9162002c15565b9150503462001eb757005b63b398979f60e01b8152600490fd5b604051634c9c8ce360e01b815260048101839052602490fd5b60249060405190632a87526960e21b82526004820152fd5b9091506020813d60201162001f28575b8162001f1660209383620022f0565b810103126200025d5751908562001df3565b3d915062001f07565b9050817f360894a13ba1a3210667c828492db98dca3e2076cc3735a920a3ca505d382bbc541614158462001dc0565b346200025d5760403660031901126200025d5762001f7d62002294565b6001600160a01b0390602435828116908190036200025d577ff0c57e16840df040f15088dc2f81fe391c3923bec73e23a9662efc9c229c6a009283549260ff8460401c1615936001600160401b0381168015908162002114575b600114908162002109575b159081620020ff575b50620020ed5767ffffffffffffffff198116600117865584620020cd575b5062002014620029ea565b6200201e620029ea565b620020293362002974565b62002033620029ea565b6200203d620029ea565b62002047620029ea565b6001600080516020620031c58339815191525516801562000277576001600160601b0360a01b908160005416176000553381600254161760025560045416176004556200209057005b68ff00000000000000001981541690557fc7f505b2f371ae2175ee4913f4499e1f2633a7b5936321eed1cdaeb6115181d2602060405160018152a1005b68ffffffffffffffffff1916680100000000000000011785558562002009565b60405163f92ee8a960e01b8152600490fd5b9050158762001feb565b303b15915062001fe2565b86915062001fd7565b346200025d5760203660031901126200025d576001600160a01b03806200214362002294565b16600090815260056020908152604091829020805460019091015483516001600160a01b03928616831681529416169083015290f35b346200025d5760003660031901126200025d576004546040516001600160a01b039091168152602090f35b346200025d5760203660031901126200025d576004356001600160401b0381116200025d57620021df620005b760209236906004016200236a565b6040516001600160a01b039091168152f35b346200025d5760203660031901126200025d576001600160a01b03806200221762002294565b1660005260056020526040600020906020816001604051946200223a86620022c0565b828154168652015416920191808352156200225c576020915116604051908152f35b604051637879bad160e01b8152600490fd5b346200025d5760003660031901126200025d576003546001600160a01b03168152602090f35b600435906001600160a01b03821682036200025d57565b35906001600160a01b03821682036200025d57565b604081019081106001600160401b03821117620013ba57604052565b6001600160401b038111620013ba57604052565b90601f801991011681019081106001600160401b03821117620013ba57604052565b6001600160401b038111620013ba57601f01601f191660200190565b9291926200233c8262002312565b916200234c6040519384620022f0565b8294818452818301116200025d578281602093846000960137010152565b9080601f830112156200025d5781602062002388933591016200232e565b90565b919082519283825260005b848110620023b8575050826000602080949584010152601f8019910116010190565b60208183018101518483018201520162002396565b9181601f840112156200025d578235916001600160401b0383116200025d576020808501948460051b0101116200025d57565b9181601f840112156200025d578235916001600160401b0383116200025d57602083818601950101116200025d57565b600754811015620024685760076000527fa66cc928b5edb82af9bd49922954155ab7b0942694bea4ce44661d9a8736c6880190600090565b634e487b7160e01b600052603260045260246000fd5b6040815103620019845780516020909101206001600160a01b031690565b3d15620024cc573d90620024b08262002312565b91620024c06040519384620022f0565b82523d6000602084013e565b606090565b9035601e19823603018112156200025d5701602081359101916001600160401b0382116200025d5781360383136200025d57565b908060209392818452848401376000828201840152601f01601f1916010190565b94929095936080928387019060018060a01b0380991688528360209286848b01525260a0880160a08560051b8a010194826000906000915b838310620025f95750505050505096620025f060a08093620025ad8a9b8b604060609b9c9d8a039101528235885260c06200259c82850185620024d1565b9190928a015260c089019162002505565b9684620025bd60408401620022ab565b16604088015284620025d18a8401620022ab565b168988015284620025e4828401620022ab565b169087015201620022ab565b16910152930152565b909192939497609f198d82030186528835607e19843603018112156200269a57878f6001938d62002677620026598986970192856200263885620022ab565b1685526200264987850185620024d1565b9091808988015286019162002505565b60406200266981850185620024d1565b918684039087015262002505565b92620026876060809301620022ab565b169101529a01960194930191906200255e565b8280fd5b356001600160a01b03811681036200025d5790565b903590601e19813603018212156200025d57018035906001600160401b0382116200025d576020019181360383136200025d57565b91908201809211620007fc57565b600080516020620031a5833981519152546001600160a01b031633036200271957565b60405163118cdaa760e01b8152336004820152602490fd5b6200277892916200276e917f19457468657265756d205369676e6564204d6573736167653a0a333200000000600052601c52603c60002062002aec565b9093919362002b2b565b6001600160a01b0391821691161490565b9190811015620024685760051b8101359060de19813603018212156200025d570190565b359081151582036200025d57565b60e0813603126200025d5760408051916001600160401b0360e0840181811185821017620013ba578352620027f082620022ab565b845260208083013581860152838301358486015260608084013560ff811681036200025d5760608701526080926080850135608088015260a08086013560a089015260c09586810135908382116200025d57019436601f870112156200025d57853593838511620013ba578851986200286f878760051b018b620022f0565b858a528689818c019702890101973689116200025d578701955b888710620028a05750505050505050505082015290565b89873603126200025d578151908a8201908282108883111762002928578b928a928552620028ce8a620022ab565b8152828a013583820152620028e5858b01620027ad565b85820152620028f6868b01620027ad565b8682015262002907878b01620027ad565b8782015262002918888b01620027ad565b8882015281520196019562002889565b60246000634e487b7160e01b81526041600452fd5b8051821015620024685760209160051b010190565b81810292918115918404141715620007fc57565b91908203918211620007fc57565b6001600160a01b03908116908115620029d157600080516020620031a583398151915280546001600160a01b031981168417909155167f8be0079c531659141344cd1fd0a4f28419497f9722a3daafe3b4186f6b6457e0600080a3565b604051631e4fbdf760e01b815260006004820152602490fd5b60ff7ff0c57e16840df040f15088dc2f81fe391c3923bec73e23a9662efc9c229c6a005460401c161562002a1a57565b604051631afcd79f60e31b8152600490fd5b6040516323b872dd60e01b60208201526001600160a01b03928316602482015292909116604483015260648083019390935291815260a08101918183106001600160401b03841117620013ba5762002a879260405262002bb5565b565b60008080938193617530f162002a9e6200249c565b50156200122b57565b60405163a9059cbb60e01b60208201526001600160a01b0392909216602483015260448083019390935291815262002a879162002ae6606483620022f0565b62002bb5565b815191906041830362002b205762002b1992506020820151906060604084015193015160001a9062002c7d565b9192909190565b505060009160029190565b600481101562002b9f578062002b3f575050565b6001810362002b5a5760405163f645eedf60e01b8152600490fd5b6002810362002b7c5760405163fce698f760e01b815260048101839052602490fd5b60031462002b875750565b602490604051906335e2f38360e21b82526004820152fd5b634e487b7160e01b600052602160045260246000fd5b906000602091828151910182855af1156200026b576000513d62002c0b57506001600160a01b0381163b155b62002be95750565b604051635274afe760e01b81526001600160a01b039091166004820152602490fd5b6001141562002be1565b9062002c3e575080511562002c2c57805190602001fd5b60405163d6bda27560e01b8152600490fd5b8151158062002c73575b62002c51575090565b604051639996b31560e01b81526001600160a01b039091166004820152602490fd5b50803b1562002c48565b91907f7fffffffffffffffffffffffffffffff5d576e7357a4501ddfe92f46681b20a0841162002d0457926020929160ff608095604051948552168484015260408301526060820152600092839182805260015afa1562002cf85780516001600160a01b0381161562002cef57918190565b50809160019190565b604051903d90823e3d90fd5b5050506000916003919056fe60a0604090808252346101eb57610494803803809161001e828561029a565b8339810182828203126101eb57610034826102d3565b60208084015191939091906001600160401b0382116101eb570182601f820112156101eb57805190610065826102e7565b936100728751958661029a565b8285528383830101116101eb57829060005b83811061028657505060009184010152823b15610266577fa3f0ad74e5423aebfd80d3ef4346578335a9a72aeaee59ff6cb3582b35133d5080546001600160a01b0319166001600160a01b038581169182179092558551635c60da1b60e01b8082529194928482600481895afa91821561025b57600092610224575b50813b1561020b575050837f1cf3b03a6cf19fa2baba4df148e9dcabedea7f8a5c07840e207e5c089be95d3e600080a2815115610202578290600487518096819382525afa9283156101f7576000936101b5575b5091600080848461019296519101845af4903d156101ac573d610176816102e7565b906101838851928361029a565b8152600081943d92013e610302565b505b6080525161012e908161036682396080518160180152f35b60609250610302565b92508183813d83116101f0575b6101cc818361029a565b810103126101eb576000806101e3610192956102d3565b945050610154565b600080fd5b503d6101c2565b85513d6000823e3d90fd5b50505050610194565b8751634c9c8ce360e01b81529116600482015260249150fd5b9091508481813d8311610254575b61023c818361029a565b810103126101eb5761024d906102d3565b9038610100565b503d610232565b88513d6000823e3d90fd5b8351631933b43b60e21b81526001600160a01b0384166004820152602490fd5b818101830151868201840152849201610084565b601f909101601f19168101906001600160401b038211908210176102bd57604052565b634e487b7160e01b600052604160045260246000fd5b51906001600160a01b03821682036101eb57565b6001600160401b0381116102bd57601f01601f191660200190565b90610329575080511561031757805190602001fd5b60405163d6bda27560e01b8152600490fd5b8151158061035c575b61033a575090565b604051639996b31560e01b81526001600160a01b039091166004820152602490fd5b50803b1561033256fe60806040819052635c60da1b60e01b81526020816004817f00000000000000000000000000000000000000000000000000000000000000006001600160a01b03165afa90811560a9576000916054575b5060da565b905060203d60201160a3575b601f8101601f191682019167ffffffffffffffff831181841017608d576088926040520160b5565b38604f565b634e487b7160e01b600052604160045260246000fd5b503d6060565b6040513d6000823e3d90fd5b602090607f19011260d5576080516001600160a01b038116810360d55790565b600080fd5b6000808092368280378136915af43d82803e1560f4573d90f35b3d90fdfea2646970667358221220b642a315c875b99fe477933660ffe34497f9b4c9976cb8843c721c1c7db2123d64736f6c634300081800339016d09d72d40fdae2fd8ceac6b6234c7706214fd39c1cd1e609a0528c1993009b779b17422d0df92223018b32b4d1fa46e071723d6817e2486d003becc55f00a2646970667358221220d31c2379eb0afd96f0f2675d9945a23d63f3169e87b11dc2ed92ae9c1865592464736f6c63430008180033",
  "linkReferences": {},
  "deployedLinkReferences": {}
}