{
  "_format": "hh-sol-artifact-1",
  "contractName": "BridgeUpgrade",
  "sourceName": "contracts/BridgeUpgrade.sol",
  "abi": [
    {
      "inputs": [
        {
          "internalType": "address",
          "name": "target",
          "type": "address"
        }
      ],
      "name": "AddressEmptyCode",
      "type": "error"
    },
    {
      "inputs": [],
      "name": "AmountTooLow",
      "type": "error"
    },
    {
      "inputs": [],
      "name": "BurnAmountZero",
      "type": "error"
    },
    {
      "inputs": [],
      "name": "ECDSAInvalidSignature",
      "type": "error"
    },
    {
      "inputs": [
        {
          "internalType": "uint256",
          "name": "length",
          "type": "uint256"
        }
      ],
      "name": "ECDSAInvalidSignatureLength",
      "type": "error"
    },
    {
      "inputs": [
        {
          "internalType": "bytes32",
          "name": "s",
          "type": "bytes32"
        }
      ],
      "name": "ECDSAInvalidSignatureS",
      "type": "error"
    },
    {
      "inputs": [
        {
          "internalType": "address",
          "name": "implementation",
          "type": "address"
        }
      ],
      "name": "ERC1967InvalidImplementation",
      "type": "error"
    },
    {
      "inputs": [],
      "name": "ERC1967NonPayable",
      "type": "error"
    },
    {
      "inputs": [],
      "name": "EthTransferFailed",
      "type": "error"
    },
    {
      "inputs": [],
      "name": "FailedCall",
      "type": "error"
    },
    {
      "inputs": [],
      "name": "FeeTransferFailed",
      "type": "error"
    },
    {
      "inputs": [],
      "name": "InsufficientAllowance",
      "type": "error"
    },
    {
      "inputs": [],
      "name": "InsufficientBalance",
      "type": "error"
    },
    {
      "inputs": [
        {
          "internalType": "address",
          "name": "token",
          "type": "address"
        }
      ],
      "name": "InsufficientPermits",
      "type": "error"
    },
    {
      "inputs": [],
      "name": "InvalidFeeCollector",
      "type": "error"
    },
    {
      "inputs": [],
      "name": "InvalidFeeRate",
      "type": "error"
    },
    {
      "inputs": [],
      "name": "InvalidInitialization",
      "type": "error"
    },
    {
      "inputs": [],
      "name": "InvalidOwnershipTransfer",
      "type": "error"
    },
    {
      "inputs": [],
      "name": "InvalidPermits",
      "type": "error"
    },
    {
      "inputs": [],
      "name": "InvalidPrerotatedKeyHash",
      "type": "error"
    },
    {
      "inputs": [],
      "name": "InvalidPublicKey",
      "type": "error"
    },
    {
      "inputs": [],
      "name": "InvalidRecipientAmount",
      "type": "error"
    },
    {
      "inputs": [],
      "name": "InvalidRecipientForNonMatchingSigner",
      "type": "error"
    },
    {
      "inputs": [],
      "name": "InvalidSignature",
      "type": "error"
    },
    {
      "inputs": [],
      "name": "MissingPermit",
      "type": "error"
    },
    {
      "inputs": [],
      "name": "NoTokenPairs",
      "type": "error"
    },
    {
      "inputs": [],
      "name": "NotInitializing",
      "type": "error"
    },
    {
      "inputs": [
        {
          "internalType": "address",
          "name": "contractAddress",
          "type": "address"
        }
      ],
      "name": "NotOwnerOfTarget",
      "type": "error"
    },
    {
      "inputs": [
        {
          "internalType": "address",
          "name": "owner",
          "type": "address"
        }
      ],
      "name": "OwnableInvalidOwner",
      "type": "error"
    },
    {
      "inputs": [
        {
          "internalType": "address",
          "name": "account",
          "type": "address"
        }
      ],
      "name": "OwnableUnauthorizedAccount",
      "type": "error"
    },
    {
      "inputs": [],
      "name": "PermitDeadlineExpired",
      "type": "error"
    },
    {
      "inputs": [],
      "name": "ReentrancyGuardReentrantCall",
      "type": "error"
    },
    {
      "inputs": [
        {
          "internalType": "address",
          "name": "token",
          "type": "address"
        }
      ],
      "name": "SafeERC20FailedOperation",
      "type": "error"
    },
    {
      "inputs": [],
      "name": "TokenPairExists",
      "type": "error"
    },
    {
      "inputs": [],
      "name": "TokenPairNotSupported",
      "type": "error"
    },
    {
      "inputs": [],
      "name": "TransferFailed",
      "type": "error"
    },
    {
      "inputs": [],
      "name": "UUPSUnauthorizedCallContext",
      "type": "error"
    },
    {
      "inputs": [
        {
          "internalType": "bytes32",
          "name": "slot",
          "type": "bytes32"
        }
      ],
      "name": "UUPSUnsupportedProxiableUUID",
      "type": "error"
    },
    {
      "inputs": [
        {
          "internalType": "address",
          "name": "contractAddress",
          "type": "address"
        },
        {
          "internalType": "string",
          "name": "reason",
          "type": "string"
        }
      ],
      "name": "UpgradeFailed",
      "type": "error"
    },
    {
      "inputs": [],
      "name": "ZeroAddress",
      "type": "error"
    },
    {
      "anonymous": false,
      "inputs": [
        {
          "indexed": false,
          "internalType": "uint64",
          "name": "version",
          "type": "uint64"
        }
      ],
      "name": "Initialized",
      "type": "event"
    },
    {
      "anonymous": false,
      "inputs": [
        {
          "indexed": true,
          "internalType": "address",
          "name": "previousOwner",
          "type": "address"
        },
        {
          "indexed": true,
          "internalType": "address",
          "name": "newOwner",
          "type": "address"
        }
      ],
      "name": "OwnershipTransferred",
      "type": "event"
    },
    {
      "anonymous": false,
      "inputs": [
        {
          "indexed": true,
          "internalType": "address",
          "name": "implementation",
          "type": "address"
        }
      ],
      "name": "Upgraded",
      "type": "event"
    },
    {
      "inputs": [],
      "name": "UPGRADE_INTERFACE_VERSION",
      "outputs": [
        {
          "internalType": "string",
          "name": "",
          "type": "string"
        }
      ],
      "stateMutability": "view",
      "type": "function"
    },
    {
      "inputs": [
        {
          "internalType": "address",
          "name": "to",
          "type": "address"
        }
      ],
      "name": "emergencyWithdrawBNB",
      "outputs": [],
      "stateMutability": "nonpayable",
      "type": "function"
    },
    {
      "inputs": [],
      "name": "feeCollector",
      "outputs": [
        {
          "internalType": "address",
          "name": "",
          "type": "address"
        }
      ],
      "stateMutability": "view",
      "type": "function"
    },
    {
      "inputs": [],
      "name": "feeSigner",
      "outputs": [
        {
          "internalType": "address",
          "name": "",
          "type": "address"
        }
      ],
      "stateMutability": "view",
      "type": "function"
    },
    {
      "inputs": [
        {
          "internalType": "bytes",
          "name": "publicKey",
          "type": "bytes"
        }
      ],
      "name": "getAddressFromPublicKey",
      "outputs": [
        {
          "internalType": "address",
          "name": "",
          "type": "address"
        }
      ],
      "stateMutability": "pure",
      "type": "function"
    },
    {
      "inputs": [],
      "name": "getOwner",
      "outputs": [
        {
          "internalType": "address",
          "name": "",
          "type": "address"
        }
      ],
      "stateMutability": "view",
      "type": "function"
    },
    {
      "inputs": [],
      "name": "getSupportedTokens",
      "outputs": [
        {
          "internalType": "address[]",
          "name": "",
          "type": "address[]"
        }
      ],
      "stateMutability": "view",
      "type": "function"
    },
    {
      "inputs": [],
      "name": "getTestString",
      "outputs": [
        {
          "internalType": "string",
          "name": "",
          "type": "string"
        }
      ],
      "stateMutability": "pure",
      "type": "function"
    },
    {
      "inputs": [
        {
          "internalType": "address",
          "name": "_keyLogRegistry",
          "type": "address"
        },
        {
          "internalType": "address",
          "name": "_wrappedTokenBeacon",
          "type": "address"
        }
      ],
      "name": "initialize",
      "outputs": [],
      "stateMutability": "nonpayable",
      "type": "function"
    },
    {
      "inputs": [],
      "name": "keyLogRegistry",
      "outputs": [
        {
          "internalType": "contract KeyLogRegistry",
          "name": "",
          "type": "address"
        }
      ],
      "stateMutability": "view",
      "type": "function"
    },
    {
      "inputs": [
        {
          "internalType": "address",
          "name": "",
          "type": "address"
        }
      ],
      "name": "nonces",
      "outputs": [
        {
          "internalType": "uint256",
          "name": "",
          "type": "uint256"
        }
      ],
      "stateMutability": "view",
      "type": "function"
    },
    {
      "inputs": [
        {
          "internalType": "address",
          "name": "originalToken",
          "type": "address"
        }
      ],
      "name": "originalToWrapped",
      "outputs": [
        {
          "internalType": "address",
          "name": "",
          "type": "address"
        }
      ],
      "stateMutability": "view",
      "type": "function"
    },
    {
      "inputs": [],
      "name": "owner",
      "outputs": [
        {
          "internalType": "address",
          "name": "",
          "type": "address"
        }
      ],
      "stateMutability": "view",
      "type": "function"
    },
    {
      "inputs": [],
      "name": "proxiableUUID",
      "outputs": [
        {
          "internalType": "bytes32",
          "name": "",
          "type": "bytes32"
        }
      ],
      "stateMutability": "view",
      "type": "function"
    },
    {
      "inputs": [
        {
          "internalType": "address",
          "name": "token",
          "type": "address"
        },
        {
          "components": [
            {
              "internalType": "address",
              "name": "token",
              "type": "address"
            },
            {
              "internalType": "uint256",
              "name": "fee",
              "type": "uint256"
            },
            {
              "internalType": "uint256",
              "name": "expires",
              "type": "uint256"
            },
            {
              "internalType": "bytes",
              "name": "signature",
              "type": "bytes"
            }
          ],
          "internalType": "struct BridgeUpgrade.FeeInfo",
          "name": "fee",
          "type": "tuple"
        },
        {
          "components": [
            {
              "internalType": "address",
              "name": "originalToken",
              "type": "address"
            },
            {
              "internalType": "string",
              "name": "tokenName",
              "type": "string"
            },
            {
              "internalType": "string",
              "name": "tokenSymbol",
              "type": "string"
            },
            {
              "internalType": "address",
              "name": "wrappedToken",
              "type": "address"
            }
          ],
          "internalType": "struct BridgeUpgrade.TokenPair[]",
          "name": "newTokenPairs",
          "type": "tuple[]"
        },
        {
          "components": [
            {
              "internalType": "address",
              "name": "token",
              "type": "address"
            },
            {
              "internalType": "uint256",
              "name": "amount",
              "type": "uint256"
            },
            {
              "internalType": "uint256",
              "name": "deadline",
              "type": "uint256"
            },
            {
              "internalType": "uint8",
              "name": "v",
              "type": "uint8"
            },
            {
              "internalType": "bytes32",
              "name": "r",
              "type": "bytes32"
            },
            {
              "internalType": "bytes32",
              "name": "s",
              "type": "bytes32"
            },
            {
              "components": [
                {
                  "internalType": "address",
                  "name": "recipientAddress",
                  "type": "address"
                },
                {
                  "internalType": "uint256",
                  "name": "amount",
                  "type": "uint256"
                },
                {
                  "internalType": "bool",
                  "name": "wrap",
                  "type": "bool"
                },
                {
                  "internalType": "bool",
                  "name": "unwrap",
                  "type": "bool"
                },
                {
                  "internalType": "bool",
                  "name": "mint",
                  "type": "bool"
                },
                {
                  "internalType": "bool",
                  "name": "burn",
                  "type": "bool"
                }
              ],
              "internalType": "struct BridgeUpgrade.Recipient[]",
              "name": "recipients",
              "type": "tuple[]"
            }
          ],
          "internalType": "struct BridgeUpgrade.PermitData[]",
          "name": "permits",
          "type": "tuple[]"
        },
        {
          "components": [
            {
              "internalType": "uint256",
              "name": "amount",
              "type": "uint256"
            },
            {
              "internalType": "bytes",
              "name": "publicKey",
              "type": "bytes"
            },
            {
              "internalType": "address",
              "name": "prerotatedKeyHash",
              "type": "address"
            },
            {
              "internalType": "address",
              "name": "twicePrerotatedKeyHash",
              "type": "address"
            },
            {
              "internalType": "address",
              "name": "prevPublicKeyHash",
              "type": "address"
            },
            {
              "internalType": "address",
              "name": "outputAddress",
              "type": "address"
            }
          ],
          "internalType": "struct BridgeUpgrade.Params",
          "name": "unconfirmed",
          "type": "tuple"
        },
        {
          "internalType": "bytes",
          "name": "unconfirmedSignature",
          "type": "bytes"
        },
        {
          "components": [
            {
              "internalType": "uint256",
              "name": "amount",
              "type": "uint256"
            },
            {
              "internalType": "bytes",
              "name": "publicKey",
              "type": "bytes"
            },
            {
              "internalType": "address",
              "name": "prerotatedKeyHash",
              "type": "address"
            },
            {
              "internalType": "address",
              "name": "twicePrerotatedKeyHash",
              "type": "address"
            },
            {
              "internalType": "address",
              "name": "prevPublicKeyHash",
              "type": "address"
            },
            {
              "internalType": "address",
              "name": "outputAddress",
              "type": "address"
            }
          ],
          "internalType": "struct BridgeUpgrade.Params",
          "name": "confirming",
          "type": "tuple"
        },
        {
          "internalType": "bytes",
          "name": "confirmingSignature",
          "type": "bytes"
        }
      ],
      "name": "registerKeyPairWithTransfer",
      "outputs": [],
      "stateMutability": "payable",
      "type": "function"
    },
    {
      "inputs": [],
      "name": "relayer",
      "outputs": [
        {
          "internalType": "address",
          "name": "",
          "type": "address"
        }
      ],
      "stateMutability": "view",
      "type": "function"
    },
    {
      "inputs": [],
      "name": "renounceOwnership",
      "outputs": [],
      "stateMutability": "nonpayable",
      "type": "function"
    },
    {
      "inputs": [
        {
          "internalType": "address",
          "name": "_feeCollector",
          "type": "address"
        }
      ],
      "name": "setFeeCollector",
      "outputs": [],
      "stateMutability": "nonpayable",
      "type": "function"
    },
    {
      "inputs": [
        {
          "internalType": "address",
          "name": "_signer",
          "type": "address"
        }
      ],
      "name": "setFeeSigner",
      "outputs": [],
      "stateMutability": "nonpayable",
      "type": "function"
    },
    {
      "inputs": [
        {
          "internalType": "address",
          "name": "_wrappedTokenBeacon",
          "type": "address"
        }
      ],
      "name": "setWrappedTokenBeacon",
      "outputs": [],
      "stateMutability": "nonpayable",
      "type": "function"
    },
    {
      "inputs": [
        {
          "internalType": "uint256",
          "name": "",
          "type": "uint256"
        }
      ],
      "name": "supportedOriginalTokens",
      "outputs": [
        {
          "internalType": "address",
          "name": "",
          "type": "address"
        }
      ],
      "stateMutability": "view",
      "type": "function"
    },
    {
      "inputs": [
        {
          "internalType": "address",
          "name": "",
          "type": "address"
        }
      ],
      "name": "tokenPairs",
      "outputs": [
        {
          "internalType": "address",
          "name": "originalToken",
          "type": "address"
        },
        {
          "internalType": "address",
          "name": "wrappedToken",
          "type": "address"
        }
      ],
      "stateMutability": "view",
      "type": "function"
    },
    {
      "inputs": [
        {
          "internalType": "bytes",
          "name": "publicKey",
          "type": "bytes"
        },
        {
          "components": [
            {
              "internalType": "address",
              "name": "token",
              "type": "address"
            },
            {
              "internalType": "uint256",
              "name": "amount",
              "type": "uint256"
            },
            {
              "internalType": "uint256",
              "name": "deadline",
              "type": "uint256"
            },
            {
              "internalType": "uint8",
              "name": "v",
              "type": "uint8"
            },
            {
              "internalType": "bytes32",
              "name": "r",
              "type": "bytes32"
            },
            {
              "internalType": "bytes32",
              "name": "s",
              "type": "bytes32"
            },
            {
              "components": [
                {
                  "internalType": "address",
                  "name": "recipientAddress",
                  "type": "address"
                },
                {
                  "internalType": "uint256",
                  "name": "amount",
                  "type": "uint256"
                },
                {
                  "internalType": "bool",
                  "name": "wrap",
                  "type": "bool"
                },
                {
                  "internalType": "bool",
                  "name": "unwrap",
                  "type": "bool"
                },
                {
                  "internalType": "bool",
                  "name": "mint",
                  "type": "bool"
                },
                {
                  "internalType": "bool",
                  "name": "burn",
                  "type": "bool"
                }
              ],
              "internalType": "struct BridgeUpgrade.Recipient[]",
              "name": "recipients",
              "type": "tuple[]"
            }
          ],
          "internalType": "struct BridgeUpgrade.PermitData[]",
          "name": "permits",
          "type": "tuple[]"
        }
      ],
      "name": "transferBalanceToLatestKey",
      "outputs": [],
      "stateMutability": "nonpayable",
      "type": "function"
    },
    {
      "inputs": [
        {
          "internalType": "address",
          "name": "newOwner",
          "type": "address"
        }
      ],
      "name": "transferOwnership",
      "outputs": [],
      "stateMutability": "nonpayable",
      "type": "function"
    },
    {
      "inputs": [
        {
          "internalType": "address",
          "name": "newImplementation",
          "type": "address"
        },
        {
          "internalType": "bytes",
          "name": "data",
          "type": "bytes"
        }
      ],
      "name": "upgradeToAndCall",
      "outputs": [],
      "stateMutability": "payable",
      "type": "function"
    },
    {
      "inputs": [],
      "name": "wrappedTokenBeacon",
      "outputs": [
        {
          "internalType": "address",
          "name": "",
          "type": "address"
        }
      ],
      "stateMutability": "view",
      "type": "function"
    }
  ],
  "bytecode": "0x60a0806040523461002a5730608052613b889081610030823960805181818161254801526125f70152f35b600080fdfe60a08060405260043610156200001457600080fd5b60003560e01c908163075693391462002b0457508063081da8c11462002aa6578063276c1ac01462002a595780632f91be481462002a085780634290769614620029dd57806347bbbdf51462002981578063485cc95514620027c45780634f1ef28614620025b357806352d1902d1462002533578063602db89014620024e7578063715018a614620024785780637e1aa17814620024295780637ecebe0014620023eb5780638406c07914620023c0578063893d20e814620023875780638da5cb5b14620023875780638f2dd2de1462002338578063a42dce8014620022d7578063ad3cb1cc1462002287578063b5057a7b146200225c578063bc04f561146200044a578063c415b95c146200041f578063d3c7c2c7146200034f578063d8397fd51462000308578063e7c9b99214620002955763f2fde38b146200015857600080fd5b346200026957602036600319011262000269576200017562002b2a565b6200017f62002fe7565b6001600160a01b0381811691908215620002835760005460008051602062003b138339815191525460405163031fb6df60e31b81529083166001600160a01b039081166004830152841660248201529160209183916044918391165afa908115620002775760009162000230575b50156200021e576200021c916001600160601b0360a01b60025416176002556200021662002fe7565b620032e2565b005b60405163b012a29560e01b8152600490fd5b90506020813d6020116200026e575b816200024e6020938362002bbe565b810103126200026957620002629062002fd9565b38620001ed565b600080fd5b3d91506200023f565b6040513d6000823e3d90fd5b60405163d92e233d60e01b8152600490fd5b346200026957604036600319011262000269576001600160401b036004358181116200026957620002cb90369060040162002c38565b506024359081116200026957620002e790369060040162002c9b565b5050620002f362003022565b600160008051602062003b3383398151915255005b3462000269576020366003190112620002695760043560075481101562000269576200033660209162002cfe565b905460405160039290921b1c6001600160a01b03168152f35b34620002695760003660031901126200026957604051806007548083526020809301809160076000527fa66cc928b5edb82af9bd49922954155ab7b0942694bea4ce44661d9a8736c6889060005b8682821062000401578686620003b68288038362002bbe565b604051928392818401908285525180915260408401929160005b828110620003e057505050500390f35b83516001600160a01b031685528695509381019392810192600101620003d0565b83546001600160a01b0316855290930192600192830192016200039d565b346200026957600036600319011262000269576002546040516001600160a01b039091168152602090f35b61010036600319011262000269576200046262002b2a565b6001600160401b0360243511620002695760806024353603600319011262000269576044356001600160401b0381116200026957620004a690369060040162002c9b565b91906001600160401b03606435116200026957620004ca3660643560040162002c9b565b9390916001600160401b0360843511620002695760c06084353603600319011262000269576001600160401b0360a435116200026957620005113660a43560040162002cce565b6001600160401b0360c43511620002695760c060c4353603600319011262000269576001600160401b0360e435116200026957620005553660e43560040162002cce565b9190926200056262003022565b6200058e620005886200058060246084350160843560040162002d9f565b369162002bfc565b62002d4c565b6001600160a01b031633036200224a573360005260066020526040600020549188604051620005e081620005d18760208301958d8d608435600401928962002e29565b03601f19810183528262002bbe565b5190206001600160a01b03620005fb60843560a40162002fa1565b1615620002835760406200061a60246084350160843560040162002d9f565b9050036200224a5762000652620006599362000649620005886200058060246084350160843560040162002d9f565b93369162002bfc565b9062003054565b156200175b576001600160a01b036200067760c43560a40162002fa1565b16620021a2575b50505060005b82811062001e8757506001600160a01b039150620006a9905060c43560a40162002fa1565b1615928062000b87575b50505062000991576000546001600160a01b0316620006dc608435602481019060040162002d9f565b9190620006ee60446084350162002fa1565b92620006ff60646084350162002fa1565b936200070f608480350162002fa1565b6200071f60a46084350162002fa1565b62000735602460c4350160c43560040162002d9f565b9062000746604460c4350162002fa1565b9462000757606460c4350162002fa1565b9262000768608460c4350162002fa1565b946200077960a460c4350162002fa1565b968b3b1562000269576040516385687dcd60e01b815261014060048201529c8d9b8c9b620007ae916101448e01919062002e08565b6001600160a01b0395861660248d015290851660448c015290841660648b0152921660848901528782036003190160a4890152620007ec9262002e08565b6001600160a01b0394851660c487015290841660e4860152908316610104850152911661012483015203815a6000948591f1801562000277576200097f575b5060008051602062003b13833981519152546001600160a01b03163381146200089a575b505b336000526006602052604060002080549060028201809211620008845755600160008051602062003b3383398151915255005b634e487b7160e01b600052601160045260246000fd5b620008aa604460c4350162002fa1565b620008b462002fe7565b6001600160a01b038116918215620002835760005460405163031fb6df60e31b81526001600160a01b03928316600482015283831660248201529160209183916044918391165afa90811562000277576000916200093d575b50156200021e5762000936916001600160601b0360a01b60025416176002556200021662002fe7565b806200084f565b90506020813d60201162000976575b816200095b6020938362002bbe565b8101031262000269576200096f9062002fd9565b836200090d565b3d91506200094c565b6200098a9062002b8e565b806200082b565b6000546001600160a01b0316620009b2608435602481019060040162002d9f565b9160446084350192620009c58462002fa1565b91620009d660646084350162002fa1565b93620009e6608480350162002fa1565b620009f660a46084350162002fa1565b93833b15620002695760009562000a2f958793604051998a98899788966330a6293b60e11b885260a0600489015260a488019162002e08565b6001600160a01b039485166024870152908416604486015290831660648501529116608483015203925af18015620002775762000b75575b5060008051602062003b13833981519152546001600160a01b03169033821462000a94575b505062000851565b62000a9f9062002fa1565b62000aa962002fe7565b6001600160a01b038116918215620002835760005460405163031fb6df60e31b81526001600160a01b03928316600482015283831660248201529160209183916044918391165afa908115620002775760009162000b33575b50156200021e5762000b2b916001600160601b0360a01b60025416176002556200021662002fe7565b808062000a8c565b90506020813d60201162000b6c575b8162000b516020938362002bbe565b81010312620002695762000b659062002fd9565b8362000b02565b3d915062000b42565b62000b809062002b8e565b8162000a67565b60005462000bda90610100906001600160a01b031662000bb1608435602481019060040162002d9f565b604051631697653560e11b81526020600482015294859392849283929160248401919062002e08565b03915afa80156200027757859160009162001da7575b508162001d9e575b5062001d8c5760006080528362001d735762000c19604460c4350162002fa1565b6080525b62000c376200058060246084350160843560040162002d9f565b90600090600062000c4a60009462002d4c565b9260005b83811062001c9f575b501562001c8d578062001c69575b6200021e57909192936000935b82851062000c8357505050620006b3565b62000c9f62000c998685899a96979899620030ac565b620030de565b80519097600195909160009081906001600160a01b0387811691161462001b04575b8a516001600160a01b03161515918262001afa575b508162001af0575b50620017ff575b851562001657575b88516001600160a01b03161594600092835b60c08c01518051861015620015b1578562000d1a916200325d565b5180519091906001600160a01b031615620002835760208201518d8115620015a457602001511062001592578c60608301511515806200157b575b156200106257516040516370a0823160e01b815233600482015290602090829060249082906001600160a01b03165afa90811562000277576000916200102a575b50602083015180911062000269578d5162000dbf9190309033906001600160a01b03166200339a565b8c516020830151906001600160a01b0316803b156200026957604051632770a7eb60e21b815230600482015260248101929092526000908290604490829084905af18015620002775762001018575b5060018060a01b038d511660005260056020526040600020916040519262000e368462002b56565b80546001600160a01b039081168552600190910154811660208501528e518f91168062000f9b57509062000efd929160019462000e9462000e7860126200328d565b62000e8e6020860151602480350135906200329f565b620032b3565b62000ea4816020860151620032d4565b878060a01b03835116801560001462000f56575062000ec8919250608051620033f7565b8062000f3a575b505b62000ee66020820151602084015190620032d4565b908162000f07575b50506020905b01519062002fb6565b945b019362000cff565b906020929362000f2b8262000f31946080519033908b8060a01b039051166200339a565b62002fb6565b91908f62000eee565b62000f4f90868060a01b0360025416620033f7565b3862000ecf565b60805162000f65929162003415565b8062000f74575b505062000ed1565b62000f9391878060a01b03905116878060a01b03600254169062003415565b388062000f6c565b60405163313ce56760e01b815293929150602090849060049082905afa801562000277578f909462000e9462000e7860019762000efd9760009162000fe2575b506200328d565b62001009915060203d60201162001010575b62001000818362002bbe565b81019062003272565b3862000fdb565b503d62000ff4565b620010239062002b8e565b8d62000e0e565b90506020813d60201162001059575b81620010486020938362002bbe565b810103126200026957518e62000d96565b3d915062001039565b5060a082015115158062001564575b15620010fe578c51825160208401516001600160a01b03928316939290911690833b156200026957604051632770a7eb60e21b81526001600160a01b0390921660048301526024820152916000908390818381604481015b03925af18015620002775760019362000efd93602092620010ec575b5062000ef4565b620010f79062002b8e565b38620010e5565b60808201511515806200154d575b15620011d0578c516001600160a01b031680620011945750620011436200113862000e7860126200328d565b6020840151620032d4565b8d5183516001600160a01b039182169392911690833b1562000269576040516340c10f1960e01b81526001600160a01b039092166004830152602482015291600090839081838160448101620010c9565b60206004916040519283809263313ce56760e01b82525afa8015620002775762000e786200113891620011439360009162000fe257506200328d565b8c8a604084015115158062001536575b15620014cd57505060018060a01b038d51166000526005602052604060002090604051916200120f8362002b56565b80546001600160a01b03908116845260019091015416602083015289620014b45781516040516370a0823160e01b815233600482015290602090829060249082906001600160a01b03165afa90811562000277576000916200147c575b5060208401511162000269575b8d516001600160a01b031680620014405750620012dd620012b56200129f60126200328d565b62000e8e6020870151602480350135906200329f565b928b15620013ef5783620013d0575b602060018060a01b0391015116926020850151620032d4565b91803b1562000269576040516340c10f1960e01b81526080516001600160a01b0316600482015260248101939093526000908390604490829084905af192831562000277578e62000efd93600195620013be575b506020820151602082015180821062001351575b50505060209062000ef4565b906200135d91620032d4565b908b826200136f575b81925062001345565b9382916200139a9360209596898060a01b031615600014620013a45762000f2b9150608051620033f7565b91908f8b62001366565b62000f2b916080519033908b8060a01b039051166200339a565b620013c99062002b8e565b3862001331565b600254620013e99085906001600160a01b0316620033f7565b620012c4565b6200141860018060a01b038251166200140d866020890151620032d4565b90309033906200339a565b8315620012c4578051600254620013e99186916001600160a01b03908116913391166200339a565b60206004916040519283809263313ce56760e01b82525afa801562000277576200129f620012b591620012dd9360009162000fe257506200328d565b90506020813d602011620014ab575b816200149a6020938362002bbe565b810103126200026957518f6200126c565b3d91506200148b565b96620014c69060208401519062002fb6565b9662001279565b60019362000efd9392602092620014e5575062000ef4565b8c156200150c575062001505858060a01b038251168383015190620033f7565b8f620010e5565b6200153090868060a01b03905116868060a01b03835116848401519133906200339a565b62001505565b5081516001600160a01b038b8116911614620011e0565b508c516001600160a01b038981169116146200110c565b508c516001600160a01b0389811691161462001071565b5080516001600160a01b038a811691161462000d55565b60405163143d1ae760e21b8152600490fd5b5050946001915062000eff565b509350979550989093979295620015ed575b6020015103620015db57600101939490919262000c72565b6040516312171d8360e31b8152600490fd5b620015fd826020830151620032d4565b806200160b575b50620015c3565b909160209162001632916001600160a01b038b166200163a5762000f2b82608051620033f7565b919062001604565b608051855162000f2b91849133906001600160a01b03166200339a565b426044602435013510620017ed576001600160a01b036200167d60046024350162002fa1565b166200177f576200168f60126200328d565b602480350135116200176d57620016ab60243560040162002fa1565b604051602081019160018060a01b031682526024803501356040820152606060446024350135818301528152620016e28162002ba2565b5190207f19457468657265756d205369676e6564204d6573736167653a0a333200000000600052601c52620017446200173a603c600020620017336200058060646024350160243560040162002d9f565b906200345a565b9092919262003499565b6003546001600160a01b0391821691161462000ced575b604051638baa579f60e01b8152600490fd5b604051630adad23360e31b8152600490fd5b600460206001600160a01b036200179a602435840162002fa1565b166040519283809263313ce56760e01b82525afa801562000277576200168f91600091620017c957506200328d565b620017e6915060203d602011620010105762001000818362002bbe565b8b62000fdb565b6040516305787bdf60e01b8152600490fd5b60408901514211620017ed578851604051633644e51560e01b815290602090829060049082906001600160a01b03165afa908115620002775760009162001ab8575b5060208a8101518b51604051623f675f60e91b8152336004820152919290829060249082906001600160a01b03165afa92831562000277578c9160009462001a78575b50816200173a9160406200195d94015160405160208101917f6e71edae12b1b97f4d1f60370fef10105fa2faae0126114a169c64845d6126c983523360408301526060973089840152608083015260a0988983015260c082015260c08152620018ed8162002b72565b51902060405190602082019261190160f01b845260228301526042908183015281526200191a8162002ba2565b519020608082015191858782015191015190604051936020850152604084015260ff60f81b9060f81b168583015260418252620019578262002ba2565b6200345a565b6001600160a01b038a811691160362001a07575b60018060a01b038b5116908b602081015160ff6040830151938301511694608083015192015191843b15620002695760009460e4938692604051988997889663d505accf60e01b885233600489015230602489015260448801526064870152608486015260a485015260c48401525af180156200027757620019f5575b5062000ce5565b62001a009062002b8e565b89620019ee565b989694939560009a98919a5b60c08a0151805182101562001a67576001600160a01b039062001a389083906200325d565b51511660018060a01b03608051160362001a555760010162001a13565b604051634d96a8a760e01b8152600490fd5b505095939496989990979962001971565b915092506020813d60201162001aaf575b8162001a986020938362002bbe565b81010312620002695751918b906200195d62001884565b3d915062001a89565b90506020813d60201162001ae7575b8162001ad66020938362002bbe565b810103126200026957518a62001841565b3d915062001ac7565b9050158a62000cde565b1591508b62000cd6565b97929190989560009a9794959a5b60c0890151805182101562001c56578162001b2d916200325d565b5160408101511580159062001c48575b801562001c3a575b801562001c2c575b62001b85575b608081015162001b7b575b60a0015162001b71575b60010162001b12565b6001995062001b68565b60019b5062001b5e565b600096506001600160a01b038d1615158062001bf5575b8062001bbb575b1562001b5357604051630adad23360e31b8152600490fd5b5062001bcc60243560040162002fa1565b6001600160a01b038e811660009081526005602052604090206001015481169116141562001ba3565b5062001c0660243560040162002fa1565b6001600160a01b038e811660009081526005602052604090205481169116141562001b9c565b5060a0810151151562001b4d565b506060810151151562001b45565b506080810151151562001b3d565b5050959890919297999493969962000cc1565b5060008051602062003b13833981519152546001600160a01b031633141562000c65565b604051633bee968760e01b8152600490fd5b62001cb062000c9982868a620030ac565b80516001600160a01b0316801562001d69575b6001600160a01b038a161462001cde575b5060010162000c4e565b979593919096949260c060009901985b8951805182101562001d57578162001d06916200325d565b516080810151159081159162001d48575b5062001d265760010162001cee565b5050909294965060019591939591825b62001d42578962001cd4565b62000c57565b60a09150015115158c62001d17565b50508093959791929496985062001d36565b6001935062001cc3565b62001d8360446084350162002fa1565b60805262000c1d565b60405163772e719d60e11b8152600490fd5b90508562000bf8565b915050806101003d6101001162001e7f575b62001dc5818362002bbe565b8101036101008112620002695760e013620002695760405162001de88162002b72565b62001df38262002fc4565b815262001e036020830162002fc4565b602082015262001e166040830162002fc4565b604082015262001e296060830162002fc4565b606082015262001e3c6080830162002fc4565b608082015262001e4f60a0830162002fd9565b60a082015260c0820151906003821015620002695760c00152849062001e789060e00162002fd9565b8662000bf0565b503d62001db9565b8060051b820135607e1983360301811215620002695760808184013603126200026957604051908160808101106001600160401b0360808401111762002096576080820160405262001edb81850162002b41565b8252602081850101356001600160401b038111620002695762001f049036908387010162002c38565b6020830152604081850101356001600160401b038111620002695762001f309036908387010162002c38565b604083015262001f466060809286010162002b41565b8282015281516001600160a01b039081166000908152600560205260409020600101541662002190578101516001600160a01b03168015620020ac575b8151604051906001600160a01b031662001f9d8262002b56565b81526001600160a01b0391821660208083018281528551851660009081526005909252604091829020935184549086166001600160a01b03199182161785559051600194850180549187169183169190911790558551915192949093929116620020078262002b56565b815260208101938085526000526005602052604060002090828060a01b0390511683825416178155019160018060a01b039051169082541617905560018060a01b0390511690600754916801000000000000000083101562002096576200207683600180950160075562002cfe565b819291549060031b91821b91858060a01b03901b19161790550162000684565b634e487b7160e01b600052604160045260246000fd5b50620020f462002122602083015160408401516200210760018060a01b0360005416916040519586946303bf912560e11b60208701526080602487015260a486019062002c59565b8481036023190160448601529062002c59565b90306064840152608483015203601f19810183528262002bbe565b60045460405191906001600160a01b03166001600160401b036104948401908111908411176200209657829162002175916104946200367f85396104948401908152604060208201819052019062002c59565b03906000f0801562000277576001600160a01b031662001f83565b604051636bb9e87d60e01b8152600490fd5b6001810181116200088457604051620021d281620005d160016020830195018b8a8a60c435600401928962002e29565b5190206040620021ed602460c4350160c43560040162002d9f565b9050036200224a576001600160a01b036200220d60c43560a40162002fa1565b16156200028357620006526200223b93620006496200058862000580602460c4350160c43560040162002d9f565b156200175b578580806200067e565b60405163145a1fdd60e31b8152600490fd5b346200026957600036600319011262000269576000546040516001600160a01b039091168152602090f35b34620002695760003660031901126200026957620022d3604051620022ac8162002b56565b60058152640352e302e360dc1b602082015260405191829160208352602083019062002c59565b0390f35b34620002695760203660031901126200026957620022f462002b2a565b620022fe62002fe7565b6001600160a01b0316801562002326576001600160601b0360a01b6002541617600255600080f35b60405163bb0bac9960e01b8152600490fd5b346200026957602036600319011262000269576200235562002b2a565b6200235f62002fe7565b6001600160a01b0316801562000283576001600160601b0360a01b6004541617600455600080f35b3462000269576000366003190112620002695760008051602062003b13833981519152546040516001600160a01b039091168152602090f35b346200026957600036600319011262000269576001546040516001600160a01b039091168152602090f35b346200026957602036600319011262000269576001600160a01b036200241062002b2a565b1660005260066020526020604060002054604051908152f35b346200026957602036600319011262000269576200244662002b2a565b6200245062002fe7565b6001600160a01b0316801562000283576001600160601b0360a01b6003541617600355600080f35b346200026957600036600319011262000269576200249562002fe7565b60008051602062003b1383398151915280546001600160a01b031981169091556000906001600160a01b03167f8be0079c531659141344cd1fd0a4f28419497f9722a3daafe3b4186f6b6457e08280a3005b346200026957602036600319011262000269576200250462002b2a565b6200250e62002fe7565b479081156200026957600080809381935af16200252a62002d6a565b50156200026957005b346200026957600036600319011262000269577f00000000000000000000000000000000000000000000000000000000000000006001600160a01b03163003620025a15760206040517f360894a13ba1a3210667c828492db98dca3e2076cc3735a920a3ca505d382bbc8152f35b60405163703e46dd60e11b8152600490fd5b60403660031901126200026957620025ca62002b2a565b6024356001600160401b0381116200026957620025ec90369060040162002c38565b906001600160a01b037f0000000000000000000000000000000000000000000000000000000000000000811630811490811562002795575b50620025a1576200263462002fe7565b8116906040516352d1902d60e01b8152602081600481865afa600091816200275b575b506200267657604051634c9c8ce360e01b815260048101849052602490fd5b7f360894a13ba1a3210667c828492db98dca3e2076cc3735a920a3ca505d382bbc92919290818103620027435750823b156200272a5780546001600160a01b03191682179055604051907fbc7cd75a20ee27fd9adebab32041f755214dbc6bffa90cc0225b39da2e5c2d3b600080a28251156200271057506000808360206200021c95519101845af46200270962002d6a565b9162003583565b915050346200271b57005b63b398979f60e01b8152600490fd5b604051634c9c8ce360e01b815260048101839052602490fd5b60249060405190632a87526960e21b82526004820152fd5b9091506020813d6020116200278c575b816200277a6020938362002bbe565b81010312620002695751908562002657565b3d91506200276b565b9050817f360894a13ba1a3210667c828492db98dca3e2076cc3735a920a3ca505d382bbc541614158462002624565b34620002695760403660031901126200026957620027e162002b2a565b6001600160a01b03906024358281169081900362000269577ff0c57e16840df040f15088dc2f81fe391c3923bec73e23a9662efc9c229c6a009283549260ff8460401c1615936001600160401b0381168015908162002978575b60011490816200296d575b15908162002963575b50620029515767ffffffffffffffff19811660011786558462002931575b506200287862003358565b6200288262003358565b6200288d33620032e2565b6200289762003358565b620028a162003358565b620028ab62003358565b600160008051602062003b338339815191525516801562000283576001600160601b0360a01b90816000541617600055338160025416176002556004541617600455620028f457005b68ff00000000000000001981541690557fc7f505b2f371ae2175ee4913f4499e1f2633a7b5936321eed1cdaeb6115181d2602060405160018152a1005b68ffffffffffffffffff191668010000000000000001178555856200286d565b60405163f92ee8a960e01b8152600490fd5b905015876200284f565b303b15915062002846565b8691506200283b565b346200026957602036600319011262000269576001600160a01b0380620029a762002b2a565b16600090815260056020908152604091829020805460019091015483516001600160a01b03928616831681529416169083015290f35b346200026957600036600319011262000269576004546040516001600160a01b039091168152602090f35b34620002695760003660031901126200026957620022d360405162002a2d8162002b56565b600a8152696272696467652076313360b01b602082015260405191829160208352602083019062002c59565b346200026957602036600319011262000269576004356001600160401b038111620002695762002a9462000588602092369060040162002c38565b6040516001600160a01b039091168152f35b346200026957602036600319011262000269576020806001600160a01b038062002acf62002b2a565b166000526005825260406000209060016040519262002aee8462002b56565b8281541684520154169182910152604051908152f35b346200026957600036600319011262000269576003546001600160a01b03168152602090f35b600435906001600160a01b03821682036200026957565b35906001600160a01b03821682036200026957565b604081019081106001600160401b038211176200209657604052565b60e081019081106001600160401b038211176200209657604052565b6001600160401b0381116200209657604052565b608081019081106001600160401b038211176200209657604052565b90601f801991011681019081106001600160401b038211176200209657604052565b6001600160401b0381116200209657601f01601f191660200190565b92919262002c0a8262002be0565b9162002c1a604051938462002bbe565b82948184528183011162000269578281602093846000960137010152565b9080601f83011215620002695781602062002c569335910162002bfc565b90565b919082519283825260005b84811062002c86575050826000602080949584010152601f8019910116010190565b60208183018101518483018201520162002c64565b9181601f8401121562000269578235916001600160401b03831162000269576020808501948460051b0101116200026957565b9181601f8401121562000269578235916001600160401b0383116200026957602083818601950101116200026957565b60075481101562002d365760076000527fa66cc928b5edb82af9bd49922954155ab7b0942694bea4ce44661d9a8736c6880190600090565b634e487b7160e01b600052603260045260246000fd5b60408151036200224a5780516020909101206001600160a01b031690565b3d1562002d9a573d9062002d7e8262002be0565b9162002d8e604051938462002bbe565b82523d6000602084013e565b606090565b903590601e19813603018212156200026957018035906001600160401b03821162000269576020019181360383136200026957565b9035601e1982360301811215620002695701602081359101916001600160401b038211620002695781360383136200026957565b908060209392818452848401376000828201840152601f01601f1916010190565b94929095936080928387019060018060a01b0380991688528360209286848b01525260a0880160a08560051b8a010194826000906000915b83831062002efc575050505050509662002ef360a0809362002eb08a9b8b604060609b9c9d8a039101528235885260c062002e9f8285018562002dd4565b9190928a015260c089019162002e08565b968462002ec06040840162002b41565b1660408801528462002ed48a840162002b41565b16898801528462002ee782840162002b41565b16908701520162002b41565b16910152930152565b909192939497609f198d82030186528835607e198436030181121562002f9d57878f6001938d62002f7a62002f5c89869701928562002f3b8562002b41565b16855262002f4c8785018562002dd4565b9091808988015286019162002e08565b604062002f6c8185018562002dd4565b918684039087015262002e08565b9262002f8a606080930162002b41565b169101529a019601949301919062002e61565b8280fd5b356001600160a01b0381168103620002695790565b919082018092116200088457565b51906001600160a01b03821682036200026957565b519081151582036200026957565b60008051602062003b13833981519152546001600160a01b031633036200300a57565b60405163118cdaa760e01b8152336004820152602490fd5b60008051602062003b338339815191526002815414620030425760029055565b604051633ee5aeb560e01b8152600490fd5b6200309b929162003091917f19457468657265756d205369676e6564204d6573736167653a0a333200000000600052601c52603c6000206200345a565b9093919362003499565b6001600160a01b0391821691161490565b919081101562002d365760051b8101359060de198136030182121562000269570190565b359081151582036200026957565b60e08136031262000269576040805191620030f98362002b72565b620031048162002b41565b8352602080820135818501528282013583850152606090606083013560ff81168103620002695760608601526080916080840135608087015260a09360a081013560a088015260c094858201356001600160401b03928382116200026957019436601f87011215620002695785359383851162002096578851986200318f878760051b018b62002bbe565b858a528689818c0197028901019736891162000269578701955b888710620031c05750505050505050505082015290565b898736031262000269578151908a8201908282108883111762003248578b928a928552620031ee8a62002b41565b8152828a01358382015262003205858b01620030d0565b8582015262003216868b01620030d0565b8682015262003227878b01620030d0565b8782015262003238888b01620030d0565b88820152815201960195620031a9565b60246000634e487b7160e01b81526041600452fd5b805182101562002d365760209160051b010190565b9081602091031262000269575160ff81168103620002695790565b60ff16604d81116200088457600a0a90565b818102929181159184041417156200088457565b8115620032be570490565b634e487b7160e01b600052601260045260246000fd5b919082039182116200088457565b6001600160a01b039081169081156200333f5760008051602062003b1383398151915280546001600160a01b031981168417909155167f8be0079c531659141344cd1fd0a4f28419497f9722a3daafe3b4186f6b6457e0600080a3565b604051631e4fbdf760e01b815260006004820152602490fd5b60ff7ff0c57e16840df040f15088dc2f81fe391c3923bec73e23a9662efc9c229c6a005460401c16156200338857565b604051631afcd79f60e31b8152600490fd5b6040516323b872dd60e01b60208201526001600160a01b03928316602482015292909116604483015260648083019390935291815260a08101918183106001600160401b038411176200209657620033f59260405262003523565b565b60008080938193617530f16200340c62002d6a565b5015620015db57565b60405163a9059cbb60e01b60208201526001600160a01b03929092166024830152604480830193909352918152620033f5916200345460648362002bbe565b62003523565b81519190604183036200348e576200348792506020820151906060604084015193015160001a90620035eb565b9192909190565b505060009160029190565b60048110156200350d5780620034ad575050565b60018103620034c85760405163f645eedf60e01b8152600490fd5b60028103620034ea5760405163fce698f760e01b815260048101839052602490fd5b600314620034f55750565b602490604051906335e2f38360e21b82526004820152fd5b634e487b7160e01b600052602160045260246000fd5b906000602091828151910182855af11562000277576000513d6200357957506001600160a01b0381163b155b620035575750565b604051635274afe760e01b81526001600160a01b039091166004820152602490fd5b600114156200354f565b90620035ac57508051156200359a57805190602001fd5b60405163d6bda27560e01b8152600490fd5b81511580620035e1575b620035bf575090565b604051639996b31560e01b81526001600160a01b039091166004820152602490fd5b50803b15620035b6565b91907f7fffffffffffffffffffffffffffffff5d576e7357a4501ddfe92f46681b20a084116200367257926020929160ff608095604051948552168484015260408301526060820152600092839182805260015afa15620036665780516001600160a01b038116156200365d57918190565b50809160019190565b604051903d90823e3d90fd5b5050506000916003919056fe60a0604090808252346101eb57610494803803809161001e828561029a565b8339810182828203126101eb57610034826102d3565b60208084015191939091906001600160401b0382116101eb570182601f820112156101eb57805190610065826102e7565b936100728751958661029a565b8285528383830101116101eb57829060005b83811061028657505060009184010152823b15610266577fa3f0ad74e5423aebfd80d3ef4346578335a9a72aeaee59ff6cb3582b35133d5080546001600160a01b0319166001600160a01b038581169182179092558551635c60da1b60e01b8082529194928482600481895afa91821561025b57600092610224575b50813b1561020b575050837f1cf3b03a6cf19fa2baba4df148e9dcabedea7f8a5c07840e207e5c089be95d3e600080a2815115610202578290600487518096819382525afa9283156101f7576000936101b5575b5091600080848461019296519101845af4903d156101ac573d610176816102e7565b906101838851928361029a565b8152600081943d92013e610302565b505b6080525161012e908161036682396080518160180152f35b60609250610302565b92508183813d83116101f0575b6101cc818361029a565b810103126101eb576000806101e3610192956102d3565b945050610154565b600080fd5b503d6101c2565b85513d6000823e3d90fd5b50505050610194565b8751634c9c8ce360e01b81529116600482015260249150fd5b9091508481813d8311610254575b61023c818361029a565b810103126101eb5761024d906102d3565b9038610100565b503d610232565b88513d6000823e3d90fd5b8351631933b43b60e21b81526001600160a01b0384166004820152602490fd5b818101830151868201840152849201610084565b601f909101601f19168101906001600160401b038211908210176102bd57604052565b634e487b7160e01b600052604160045260246000fd5b51906001600160a01b03821682036101eb57565b6001600160401b0381116102bd57601f01601f191660200190565b90610329575080511561031757805190602001fd5b60405163d6bda27560e01b8152600490fd5b8151158061035c575b61033a575090565b604051639996b31560e01b81526001600160a01b039091166004820152602490fd5b50803b1561033256fe60806040819052635c60da1b60e01b81526020816004817f00000000000000000000000000000000000000000000000000000000000000006001600160a01b03165afa90811560a9576000916054575b5060da565b905060203d60201160a3575b601f8101601f191682019167ffffffffffffffff831181841017608d576088926040520160b5565b38604f565b634e487b7160e01b600052604160045260246000fd5b503d6060565b6040513d6000823e3d90fd5b602090607f19011260d5576080516001600160a01b038116810360d55790565b600080fd5b6000808092368280378136915af43d82803e1560f4573d90f35b3d90fdfea2646970667358221220b642a315c875b99fe477933660ffe34497f9b4c9976cb8843c721c1c7db2123d64736f6c634300081800339016d09d72d40fdae2fd8ceac6b6234c7706214fd39c1cd1e609a0528c1993009b779b17422d0df92223018b32b4d1fa46e071723d6817e2486d003becc55f00a26469706673582212208e61da0385bde60beaaf796bc621dc2de13eeaa4ff293f77709a4e10dc313d8f64736f6c63430008180033",
  "linkReferences": {},
  "deployedLinkReferences": {}
}