{
  "_format": "hh-sol-artifact-1",
  "contractName": "BridgeUpgrade",
  "sourceName": "contracts/BridgeUpgrade.sol",
  "abi": [
    {
      "inputs": [],
      "stateMutability": "nonpayable",
      "type": "constructor"
    },
    {
      "inputs": [
        {
          "internalType": "address",
          "name": "target",
          "type": "address"
        }
      ],
      "name": "AddressEmptyCode",
      "type": "error"
    },
    {
      "inputs": [],
      "name": "AmountTooLow",
      "type": "error"
    },
    {
      "inputs": [],
      "name": "BurnAmountZero",
      "type": "error"
    },
    {
      "inputs": [],
      "name": "ECDSAInvalidSignature",
      "type": "error"
    },
    {
      "inputs": [
        {
          "internalType": "uint256",
          "name": "length",
          "type": "uint256"
        }
      ],
      "name": "ECDSAInvalidSignatureLength",
      "type": "error"
    },
    {
      "inputs": [
        {
          "internalType": "bytes32",
          "name": "s",
          "type": "bytes32"
        }
      ],
      "name": "ECDSAInvalidSignatureS",
      "type": "error"
    },
    {
      "inputs": [
        {
          "internalType": "address",
          "name": "implementation",
          "type": "address"
        }
      ],
      "name": "ERC1967InvalidImplementation",
      "type": "error"
    },
    {
      "inputs": [],
      "name": "ERC1967NonPayable",
      "type": "error"
    },
    {
      "inputs": [],
      "name": "EthTransferFailed",
      "type": "error"
    },
    {
      "inputs": [],
      "name": "FailedCall",
      "type": "error"
    },
    {
      "inputs": [],
      "name": "FeeTransferFailed",
      "type": "error"
    },
    {
      "inputs": [],
      "name": "InsufficientAllowance",
      "type": "error"
    },
    {
      "inputs": [],
      "name": "InsufficientBalance",
      "type": "error"
    },
    {
      "inputs": [],
      "name": "InsufficientNativeProvided",
      "type": "error"
    },
    {
      "inputs": [
        {
          "internalType": "address",
          "name": "token",
          "type": "address"
        }
      ],
      "name": "InsufficientPermits",
      "type": "error"
    },
    {
      "inputs": [],
      "name": "InvalidFeeRate",
      "type": "error"
    },
    {
      "inputs": [],
      "name": "InvalidInitialization",
      "type": "error"
    },
    {
      "inputs": [],
      "name": "InvalidOwnershipTransfer",
      "type": "error"
    },
    {
      "inputs": [],
      "name": "InvalidPermits",
      "type": "error"
    },
    {
      "inputs": [],
      "name": "InvalidPrerotatedKeyHash",
      "type": "error"
    },
    {
      "inputs": [],
      "name": "InvalidPublicKey",
      "type": "error"
    },
    {
      "inputs": [],
      "name": "InvalidRecipientAmount",
      "type": "error"
    },
    {
      "inputs": [],
      "name": "InvalidRecipientForNonMatchingSigner",
      "type": "error"
    },
    {
      "inputs": [],
      "name": "InvalidSignature",
      "type": "error"
    },
    {
      "inputs": [],
      "name": "MissingPermit",
      "type": "error"
    },
    {
      "inputs": [],
      "name": "NoTokenPairs",
      "type": "error"
    },
    {
      "inputs": [],
      "name": "NotInitializing",
      "type": "error"
    },
    {
      "inputs": [
        {
          "internalType": "address",
          "name": "contractAddress",
          "type": "address"
        }
      ],
      "name": "NotOwnerOfTarget",
      "type": "error"
    },
    {
      "inputs": [
        {
          "internalType": "address",
          "name": "owner",
          "type": "address"
        }
      ],
      "name": "OwnableInvalidOwner",
      "type": "error"
    },
    {
      "inputs": [
        {
          "internalType": "address",
          "name": "account",
          "type": "address"
        }
      ],
      "name": "OwnableUnauthorizedAccount",
      "type": "error"
    },
    {
      "inputs": [],
      "name": "PermitDeadlineExpired",
      "type": "error"
    },
    {
      "inputs": [],
      "name": "ReentrancyGuardReentrantCall",
      "type": "error"
    },
    {
      "inputs": [
        {
          "internalType": "address",
          "name": "token",
          "type": "address"
        }
      ],
      "name": "SafeERC20FailedOperation",
      "type": "error"
    },
    {
      "inputs": [],
      "name": "TokenPairExists",
      "type": "error"
    },
    {
      "inputs": [],
      "name": "TokenPairNotSupported",
      "type": "error"
    },
    {
      "inputs": [],
      "name": "TransferFailed",
      "type": "error"
    },
    {
      "inputs": [],
      "name": "UUPSUnauthorizedCallContext",
      "type": "error"
    },
    {
      "inputs": [
        {
          "internalType": "bytes32",
          "name": "slot",
          "type": "bytes32"
        }
      ],
      "name": "UUPSUnsupportedProxiableUUID",
      "type": "error"
    },
    {
      "inputs": [
        {
          "internalType": "address",
          "name": "contractAddress",
          "type": "address"
        },
        {
          "internalType": "string",
          "name": "reason",
          "type": "string"
        }
      ],
      "name": "UpgradeFailed",
      "type": "error"
    },
    {
      "inputs": [],
      "name": "ZeroAddress",
      "type": "error"
    },
    {
      "anonymous": false,
      "inputs": [
        {
          "indexed": true,
          "internalType": "address",
          "name": "user",
          "type": "address"
        },
        {
          "indexed": true,
          "internalType": "address",
          "name": "wrappedToken",
          "type": "address"
        },
        {
          "indexed": true,
          "internalType": "uint256",
          "name": "amount",
          "type": "uint256"
        },
        {
          "indexed": false,
          "internalType": "string",
          "name": "bitcoinAddress",
          "type": "string"
        }
      ],
      "name": "BurnForYadaCoinWithdrawal",
      "type": "event"
    },
    {
      "anonymous": false,
      "inputs": [
        {
          "indexed": false,
          "internalType": "uint64",
          "name": "version",
          "type": "uint64"
        }
      ],
      "name": "Initialized",
      "type": "event"
    },
    {
      "anonymous": false,
      "inputs": [
        {
          "indexed": true,
          "internalType": "address",
          "name": "previousOwner",
          "type": "address"
        },
        {
          "indexed": true,
          "internalType": "address",
          "name": "newOwner",
          "type": "address"
        }
      ],
      "name": "OwnershipTransferred",
      "type": "event"
    },
    {
      "anonymous": false,
      "inputs": [
        {
          "indexed": true,
          "internalType": "address",
          "name": "implementation",
          "type": "address"
        }
      ],
      "name": "Upgraded",
      "type": "event"
    },
    {
      "inputs": [],
      "name": "UPGRADE_INTERFACE_VERSION",
      "outputs": [
        {
          "internalType": "string",
          "name": "",
          "type": "string"
        }
      ],
      "stateMutability": "view",
      "type": "function"
    },
    {
      "inputs": [],
      "name": "agentRegistry",
      "outputs": [
        {
          "internalType": "address",
          "name": "",
          "type": "address"
        }
      ],
      "stateMutability": "view",
      "type": "function"
    },
    {
      "inputs": [
        {
          "components": [
            {
              "internalType": "bytes32",
              "name": "planId",
              "type": "bytes32"
            },
            {
              "components": [
                {
                  "internalType": "address",
                  "name": "token",
                  "type": "address"
                },
                {
                  "internalType": "uint256",
                  "name": "amount",
                  "type": "uint256"
                },
                {
                  "internalType": "uint256",
                  "name": "deadline",
                  "type": "uint256"
                },
                {
                  "internalType": "uint8",
                  "name": "v",
                  "type": "uint8"
                },
                {
                  "internalType": "bytes32",
                  "name": "r",
                  "type": "bytes32"
                },
                {
                  "internalType": "bytes32",
                  "name": "s",
                  "type": "bytes32"
                },
                {
                  "components": [
                    {
                      "internalType": "address",
                      "name": "recipientAddress",
                      "type": "address"
                    },
                    {
                      "internalType": "uint256",
                      "name": "amount",
                      "type": "uint256"
                    },
                    {
                      "internalType": "bool",
                      "name": "wrap",
                      "type": "bool"
                    },
                    {
                      "internalType": "bool",
                      "name": "unwrap",
                      "type": "bool"
                    },
                    {
                      "internalType": "bool",
                      "name": "mint",
                      "type": "bool"
                    },
                    {
                      "internalType": "bool",
                      "name": "burn",
                      "type": "bool"
                    }
                  ],
                  "internalType": "struct Recipient[]",
                  "name": "recipients",
                  "type": "tuple[]"
                }
              ],
              "internalType": "struct PermitData[]",
              "name": "permits",
              "type": "tuple[]"
            },
            {
              "components": [
                {
                  "internalType": "address",
                  "name": "token",
                  "type": "address"
                },
                {
                  "internalType": "uint256",
                  "name": "fee",
                  "type": "uint256"
                },
                {
                  "internalType": "uint256",
                  "name": "expires",
                  "type": "uint256"
                },
                {
                  "internalType": "bytes",
                  "name": "signature",
                  "type": "bytes"
                }
              ],
              "internalType": "struct FeeInfo",
              "name": "fee",
              "type": "tuple"
            },
            {
              "components": [
                {
                  "internalType": "uint256",
                  "name": "amount",
                  "type": "uint256"
                },
                {
                  "internalType": "bytes",
                  "name": "publicKey",
                  "type": "bytes"
                },
                {
                  "internalType": "address",
                  "name": "prerotatedKeyHash",
                  "type": "address"
                },
                {
                  "internalType": "address",
                  "name": "twicePrerotatedKeyHash",
                  "type": "address"
                },
                {
                  "internalType": "address",
                  "name": "prevPublicKeyHash",
                  "type": "address"
                },
                {
                  "internalType": "address",
                  "name": "outputAddress",
                  "type": "address"
                }
              ],
              "internalType": "struct Params",
              "name": "unconfirmed",
              "type": "tuple"
            },
            {
              "internalType": "bytes",
              "name": "unconfirmedSignature",
              "type": "bytes"
            }
          ],
          "internalType": "struct ApprovePlanContext",
          "name": "ctx",
          "type": "tuple"
        }
      ],
      "name": "approvePlanWithKeyRotation",
      "outputs": [],
      "stateMutability": "payable",
      "type": "function"
    },
    {
      "inputs": [
        {
          "internalType": "address",
          "name": "token",
          "type": "address"
        }
      ],
      "name": "deregisterTokenPair",
      "outputs": [],
      "stateMutability": "nonpayable",
      "type": "function"
    },
    {
      "inputs": [
        {
          "components": [
            {
              "internalType": "bytes32",
              "name": "planId",
              "type": "bytes32"
            },
            {
              "components": [
                {
                  "internalType": "address",
                  "name": "token",
                  "type": "address"
                },
                {
                  "internalType": "uint256",
                  "name": "amount",
                  "type": "uint256"
                },
                {
                  "internalType": "uint256",
                  "name": "deadline",
                  "type": "uint256"
                },
                {
                  "internalType": "uint8",
                  "name": "v",
                  "type": "uint8"
                },
                {
                  "internalType": "bytes32",
                  "name": "r",
                  "type": "bytes32"
                },
                {
                  "internalType": "bytes32",
                  "name": "s",
                  "type": "bytes32"
                },
                {
                  "components": [
                    {
                      "internalType": "address",
                      "name": "recipientAddress",
                      "type": "address"
                    },
                    {
                      "internalType": "uint256",
                      "name": "amount",
                      "type": "uint256"
                    },
                    {
                      "internalType": "bool",
                      "name": "wrap",
                      "type": "bool"
                    },
                    {
                      "internalType": "bool",
                      "name": "unwrap",
                      "type": "bool"
                    },
                    {
                      "internalType": "bool",
                      "name": "mint",
                      "type": "bool"
                    },
                    {
                      "internalType": "bool",
                      "name": "burn",
                      "type": "bool"
                    }
                  ],
                  "internalType": "struct Recipient[]",
                  "name": "recipients",
                  "type": "tuple[]"
                }
              ],
              "internalType": "struct PermitData[]",
              "name": "permits",
              "type": "tuple[]"
            },
            {
              "components": [
                {
                  "internalType": "address",
                  "name": "token",
                  "type": "address"
                },
                {
                  "internalType": "uint256",
                  "name": "fee",
                  "type": "uint256"
                },
                {
                  "internalType": "uint256",
                  "name": "expires",
                  "type": "uint256"
                },
                {
                  "internalType": "bytes",
                  "name": "signature",
                  "type": "bytes"
                }
              ],
              "internalType": "struct FeeInfo",
              "name": "fee",
              "type": "tuple"
            },
            {
              "components": [
                {
                  "internalType": "uint256",
                  "name": "amount",
                  "type": "uint256"
                },
                {
                  "internalType": "bytes",
                  "name": "publicKey",
                  "type": "bytes"
                },
                {
                  "internalType": "address",
                  "name": "prerotatedKeyHash",
                  "type": "address"
                },
                {
                  "internalType": "address",
                  "name": "twicePrerotatedKeyHash",
                  "type": "address"
                },
                {
                  "internalType": "address",
                  "name": "prevPublicKeyHash",
                  "type": "address"
                },
                {
                  "internalType": "address",
                  "name": "outputAddress",
                  "type": "address"
                }
              ],
              "internalType": "struct Params",
              "name": "confirming",
              "type": "tuple"
            },
            {
              "internalType": "bytes",
              "name": "confirmingSignature",
              "type": "bytes"
            }
          ],
          "internalType": "struct ExecutePlanContext",
          "name": "ctx",
          "type": "tuple"
        }
      ],
      "name": "executePlanWithKeyRotation",
      "outputs": [],
      "stateMutability": "payable",
      "type": "function"
    },
    {
      "inputs": [],
      "name": "feeSigner",
      "outputs": [
        {
          "internalType": "address",
          "name": "",
          "type": "address"
        }
      ],
      "stateMutability": "view",
      "type": "function"
    },
    {
      "inputs": [
        {
          "internalType": "bytes",
          "name": "publicKey",
          "type": "bytes"
        }
      ],
      "name": "getAddressFromPublicKey",
      "outputs": [
        {
          "internalType": "address",
          "name": "",
          "type": "address"
        }
      ],
      "stateMutability": "pure",
      "type": "function"
    },
    {
      "inputs": [],
      "name": "getOwner",
      "outputs": [
        {
          "internalType": "address",
          "name": "",
          "type": "address"
        }
      ],
      "stateMutability": "view",
      "type": "function"
    },
    {
      "inputs": [],
      "name": "getSupportedTokens",
      "outputs": [
        {
          "internalType": "address[]",
          "name": "",
          "type": "address[]"
        }
      ],
      "stateMutability": "view",
      "type": "function"
    },
    {
      "inputs": [],
      "name": "getTestString",
      "outputs": [
        {
          "internalType": "string",
          "name": "",
          "type": "string"
        }
      ],
      "stateMutability": "pure",
      "type": "function"
    },
    {
      "inputs": [
        {
          "internalType": "address",
          "name": "_keyLogRegistry",
          "type": "address"
        },
        {
          "internalType": "address",
          "name": "_wrappedTokenBeacon",
          "type": "address"
        },
        {
          "internalType": "address",
          "name": "_wrappedTokenFactory",
          "type": "address"
        }
      ],
      "name": "initialize",
      "outputs": [],
      "stateMutability": "nonpayable",
      "type": "function"
    },
    {
      "inputs": [],
      "name": "keyLogRegistry",
      "outputs": [
        {
          "internalType": "contract KeyLogRegistry",
          "name": "",
          "type": "address"
        }
      ],
      "stateMutability": "view",
      "type": "function"
    },
    {
      "inputs": [
        {
          "internalType": "address",
          "name": "",
          "type": "address"
        }
      ],
      "name": "nonces",
      "outputs": [
        {
          "internalType": "uint256",
          "name": "",
          "type": "uint256"
        }
      ],
      "stateMutability": "view",
      "type": "function"
    },
    {
      "inputs": [
        {
          "internalType": "address",
          "name": "originalToken",
          "type": "address"
        }
      ],
      "name": "originalToWrapped",
      "outputs": [
        {
          "internalType": "address",
          "name": "",
          "type": "address"
        }
      ],
      "stateMutability": "view",
      "type": "function"
    },
    {
      "inputs": [],
      "name": "owner",
      "outputs": [
        {
          "internalType": "address",
          "name": "",
          "type": "address"
        }
      ],
      "stateMutability": "view",
      "type": "function"
    },
    {
      "inputs": [],
      "name": "proxiableUUID",
      "outputs": [
        {
          "internalType": "bytes32",
          "name": "",
          "type": "bytes32"
        }
      ],
      "stateMutability": "view",
      "type": "function"
    },
    {
      "inputs": [
        {
          "components": [
            {
              "internalType": "address",
              "name": "token",
              "type": "address"
            },
            {
              "components": [
                {
                  "internalType": "address",
                  "name": "token",
                  "type": "address"
                },
                {
                  "internalType": "uint256",
                  "name": "fee",
                  "type": "uint256"
                },
                {
                  "internalType": "uint256",
                  "name": "expires",
                  "type": "uint256"
                },
                {
                  "internalType": "bytes",
                  "name": "signature",
                  "type": "bytes"
                }
              ],
              "internalType": "struct FeeInfo",
              "name": "fee",
              "type": "tuple"
            },
            {
              "components": [
                {
                  "internalType": "address",
                  "name": "originalToken",
                  "type": "address"
                },
                {
                  "internalType": "string",
                  "name": "tokenName",
                  "type": "string"
                },
                {
                  "internalType": "string",
                  "name": "tokenSymbol",
                  "type": "string"
                },
                {
                  "internalType": "address",
                  "name": "wrappedToken",
                  "type": "address"
                }
              ],
              "internalType": "struct TokenPair[]",
              "name": "newTokenPairs",
              "type": "tuple[]"
            },
            {
              "components": [
                {
                  "internalType": "address",
                  "name": "token",
                  "type": "address"
                },
                {
                  "internalType": "uint256",
                  "name": "amount",
                  "type": "uint256"
                },
                {
                  "internalType": "uint256",
                  "name": "deadline",
                  "type": "uint256"
                },
                {
                  "internalType": "uint8",
                  "name": "v",
                  "type": "uint8"
                },
                {
                  "internalType": "bytes32",
                  "name": "r",
                  "type": "bytes32"
                },
                {
                  "internalType": "bytes32",
                  "name": "s",
                  "type": "bytes32"
                },
                {
                  "components": [
                    {
                      "internalType": "address",
                      "name": "recipientAddress",
                      "type": "address"
                    },
                    {
                      "internalType": "uint256",
                      "name": "amount",
                      "type": "uint256"
                    },
                    {
                      "internalType": "bool",
                      "name": "wrap",
                      "type": "bool"
                    },
                    {
                      "internalType": "bool",
                      "name": "unwrap",
                      "type": "bool"
                    },
                    {
                      "internalType": "bool",
                      "name": "mint",
                      "type": "bool"
                    },
                    {
                      "internalType": "bool",
                      "name": "burn",
                      "type": "bool"
                    }
                  ],
                  "internalType": "struct Recipient[]",
                  "name": "recipients",
                  "type": "tuple[]"
                }
              ],
              "internalType": "struct PermitData[]",
              "name": "permits",
              "type": "tuple[]"
            },
            {
              "components": [
                {
                  "internalType": "uint256",
                  "name": "amount",
                  "type": "uint256"
                },
                {
                  "internalType": "bytes",
                  "name": "publicKey",
                  "type": "bytes"
                },
                {
                  "internalType": "address",
                  "name": "prerotatedKeyHash",
                  "type": "address"
                },
                {
                  "internalType": "address",
                  "name": "twicePrerotatedKeyHash",
                  "type": "address"
                },
                {
                  "internalType": "address",
                  "name": "prevPublicKeyHash",
                  "type": "address"
                },
                {
                  "internalType": "address",
                  "name": "outputAddress",
                  "type": "address"
                }
              ],
              "internalType": "struct Params",
              "name": "unconfirmed",
              "type": "tuple"
            },
            {
              "internalType": "bytes",
              "name": "unconfirmedSignature",
              "type": "bytes"
            },
            {
              "components": [
                {
                  "internalType": "uint256",
                  "name": "amount",
                  "type": "uint256"
                },
                {
                  "internalType": "bytes",
                  "name": "publicKey",
                  "type": "bytes"
                },
                {
                  "internalType": "address",
                  "name": "prerotatedKeyHash",
                  "type": "address"
                },
                {
                  "internalType": "address",
                  "name": "twicePrerotatedKeyHash",
                  "type": "address"
                },
                {
                  "internalType": "address",
                  "name": "prevPublicKeyHash",
                  "type": "address"
                },
                {
                  "internalType": "address",
                  "name": "outputAddress",
                  "type": "address"
                }
              ],
              "internalType": "struct Params",
              "name": "confirming",
              "type": "tuple"
            },
            {
              "internalType": "bytes",
              "name": "confirmingSignature",
              "type": "bytes"
            }
          ],
          "internalType": "struct RegisterKeyPairContext",
          "name": "ctx",
          "type": "tuple"
        }
      ],
      "name": "registerKeyPairWithTransfer",
      "outputs": [],
      "stateMutability": "payable",
      "type": "function"
    },
    {
      "inputs": [],
      "name": "relayer",
      "outputs": [
        {
          "internalType": "address",
          "name": "",
          "type": "address"
        }
      ],
      "stateMutability": "view",
      "type": "function"
    },
    {
      "inputs": [],
      "name": "renounceOwnership",
      "outputs": [],
      "stateMutability": "nonpayable",
      "type": "function"
    },
    {
      "inputs": [
        {
          "internalType": "bytes",
          "name": "existingOwnerPublicKey",
          "type": "bytes"
        }
      ],
      "name": "rotateToPublicKey",
      "outputs": [],
      "stateMutability": "nonpayable",
      "type": "function"
    },
    {
      "inputs": [
        {
          "internalType": "address",
          "name": "_agentRegistry",
          "type": "address"
        }
      ],
      "name": "setAgentRegistry",
      "outputs": [],
      "stateMutability": "nonpayable",
      "type": "function"
    },
    {
      "inputs": [
        {
          "internalType": "address",
          "name": "_signer",
          "type": "address"
        }
      ],
      "name": "setFeeSigner",
      "outputs": [],
      "stateMutability": "nonpayable",
      "type": "function"
    },
    {
      "inputs": [
        {
          "internalType": "address",
          "name": "_wrappedTokenBeacon",
          "type": "address"
        }
      ],
      "name": "setWrappedTokenBeacon",
      "outputs": [],
      "stateMutability": "nonpayable",
      "type": "function"
    },
    {
      "inputs": [
        {
          "internalType": "address",
          "name": "_wrappedTokenFactory",
          "type": "address"
        }
      ],
      "name": "setWrappedTokenFactory",
      "outputs": [],
      "stateMutability": "nonpayable",
      "type": "function"
    },
    {
      "inputs": [
        {
          "internalType": "uint256",
          "name": "",
          "type": "uint256"
        }
      ],
      "name": "supportedOriginalTokens",
      "outputs": [
        {
          "internalType": "address",
          "name": "",
          "type": "address"
        }
      ],
      "stateMutability": "view",
      "type": "function"
    },
    {
      "inputs": [
        {
          "internalType": "address",
          "name": "",
          "type": "address"
        }
      ],
      "name": "tokenPairs",
      "outputs": [
        {
          "internalType": "address",
          "name": "originalToken",
          "type": "address"
        },
        {
          "internalType": "address",
          "name": "wrappedToken",
          "type": "address"
        }
      ],
      "stateMutability": "view",
      "type": "function"
    },
    {
      "inputs": [
        {
          "internalType": "bytes",
          "name": "publicKey",
          "type": "bytes"
        },
        {
          "components": [
            {
              "internalType": "address",
              "name": "token",
              "type": "address"
            },
            {
              "internalType": "uint256",
              "name": "amount",
              "type": "uint256"
            },
            {
              "internalType": "uint256",
              "name": "deadline",
              "type": "uint256"
            },
            {
              "internalType": "uint8",
              "name": "v",
              "type": "uint8"
            },
            {
              "internalType": "bytes32",
              "name": "r",
              "type": "bytes32"
            },
            {
              "internalType": "bytes32",
              "name": "s",
              "type": "bytes32"
            },
            {
              "components": [
                {
                  "internalType": "address",
                  "name": "recipientAddress",
                  "type": "address"
                },
                {
                  "internalType": "uint256",
                  "name": "amount",
                  "type": "uint256"
                },
                {
                  "internalType": "bool",
                  "name": "wrap",
                  "type": "bool"
                },
                {
                  "internalType": "bool",
                  "name": "unwrap",
                  "type": "bool"
                },
                {
                  "internalType": "bool",
                  "name": "mint",
                  "type": "bool"
                },
                {
                  "internalType": "bool",
                  "name": "burn",
                  "type": "bool"
                }
              ],
              "internalType": "struct Recipient[]",
              "name": "recipients",
              "type": "tuple[]"
            }
          ],
          "internalType": "struct PermitData[]",
          "name": "permits",
          "type": "tuple[]"
        }
      ],
      "name": "transferBalanceToLatestKey",
      "outputs": [],
      "stateMutability": "nonpayable",
      "type": "function"
    },
    {
      "inputs": [
        {
          "internalType": "address",
          "name": "newOwner",
          "type": "address"
        }
      ],
      "name": "transferOwnership",
      "outputs": [],
      "stateMutability": "nonpayable",
      "type": "function"
    },
    {
      "inputs": [
        {
          "internalType": "address",
          "name": "wrappedToken",
          "type": "address"
        },
        {
          "internalType": "uint256",
          "name": "amount",
          "type": "uint256"
        },
        {
          "internalType": "string",
          "name": "yadacoinAddress",
          "type": "string"
        }
      ],
      "name": "unwrap",
      "outputs": [],
      "stateMutability": "nonpayable",
      "type": "function"
    },
    {
      "inputs": [
        {
          "internalType": "address",
          "name": "newImplementation",
          "type": "address"
        },
        {
          "internalType": "bytes",
          "name": "data",
          "type": "bytes"
        }
      ],
      "name": "upgradeToAndCall",
      "outputs": [],
      "stateMutability": "payable",
      "type": "function"
    },
    {
      "inputs": [
        {
          "components": [
            {
              "internalType": "address",
              "name": "bridgeImplementation",
              "type": "address"
            },
            {
              "internalType": "address",
              "name": "keyLogRegistryImplementation",
              "type": "address"
            },
            {
              "internalType": "address",
              "name": "wrappedTokenBeaconImplementation",
              "type": "address"
            },
            {
              "internalType": "address",
              "name": "wrappedTokenFactoryImplementation",
              "type": "address"
            },
            {
              "internalType": "address",
              "name": "wrappedTokenProxy",
              "type": "address"
            },
            {
              "internalType": "address",
              "name": "wrappedTokenImplementation",
              "type": "address"
            },
            {
              "internalType": "address",
              "name": "mockERC20Proxy",
              "type": "address"
            },
            {
              "internalType": "address",
              "name": "mockERC20Implementation",
              "type": "address"
            },
            {
              "components": [
                {
                  "internalType": "address",
                  "name": "token",
                  "type": "address"
                },
                {
                  "internalType": "uint256",
                  "name": "amount",
                  "type": "uint256"
                },
                {
                  "internalType": "uint256",
                  "name": "deadline",
                  "type": "uint256"
                },
                {
                  "internalType": "uint8",
                  "name": "v",
                  "type": "uint8"
                },
                {
                  "internalType": "bytes32",
                  "name": "r",
                  "type": "bytes32"
                },
                {
                  "internalType": "bytes32",
                  "name": "s",
                  "type": "bytes32"
                },
                {
                  "components": [
                    {
                      "internalType": "address",
                      "name": "recipientAddress",
                      "type": "address"
                    },
                    {
                      "internalType": "uint256",
                      "name": "amount",
                      "type": "uint256"
                    },
                    {
                      "internalType": "bool",
                      "name": "wrap",
                      "type": "bool"
                    },
                    {
                      "internalType": "bool",
                      "name": "unwrap",
                      "type": "bool"
                    },
                    {
                      "internalType": "bool",
                      "name": "mint",
                      "type": "bool"
                    },
                    {
                      "internalType": "bool",
                      "name": "burn",
                      "type": "bool"
                    }
                  ],
                  "internalType": "struct Recipient[]",
                  "name": "recipients",
                  "type": "tuple[]"
                }
              ],
              "internalType": "struct PermitData[]",
              "name": "permits",
              "type": "tuple[]"
            },
            {
              "components": [
                {
                  "internalType": "uint256",
                  "name": "amount",
                  "type": "uint256"
                },
                {
                  "internalType": "bytes",
                  "name": "publicKey",
                  "type": "bytes"
                },
                {
                  "internalType": "address",
                  "name": "prerotatedKeyHash",
                  "type": "address"
                },
                {
                  "internalType": "address",
                  "name": "twicePrerotatedKeyHash",
                  "type": "address"
                },
                {
                  "internalType": "address",
                  "name": "prevPublicKeyHash",
                  "type": "address"
                },
                {
                  "internalType": "address",
                  "name": "outputAddress",
                  "type": "address"
                }
              ],
              "internalType": "struct Params",
              "name": "unconfirmed",
              "type": "tuple"
            },
            {
              "internalType": "bytes",
              "name": "unconfirmedSignature",
              "type": "bytes"
            },
            {
              "components": [
                {
                  "internalType": "uint256",
                  "name": "amount",
                  "type": "uint256"
                },
                {
                  "internalType": "bytes",
                  "name": "publicKey",
                  "type": "bytes"
                },
                {
                  "internalType": "address",
                  "name": "prerotatedKeyHash",
                  "type": "address"
                },
                {
                  "internalType": "address",
                  "name": "twicePrerotatedKeyHash",
                  "type": "address"
                },
                {
                  "internalType": "address",
                  "name": "prevPublicKeyHash",
                  "type": "address"
                },
                {
                  "internalType": "address",
                  "name": "outputAddress",
                  "type": "address"
                }
              ],
              "internalType": "struct Params",
              "name": "confirming",
              "type": "tuple"
            },
            {
              "internalType": "bytes",
              "name": "confirmingSignature",
              "type": "bytes"
            }
          ],
          "internalType": "struct UpgradeContext",
          "name": "ctx",
          "type": "tuple"
        }
      ],
      "name": "upgradeWithKeyRotation",
      "outputs": [],
      "stateMutability": "payable",
      "type": "function"
    },
    {
      "inputs": [],
      "name": "wrappedTokenBeacon",
      "outputs": [
        {
          "internalType": "address",
          "name": "",
          "type": "address"
        }
      ],
      "stateMutability": "view",
      "type": "function"
    },
    {
      "inputs": [],
      "name": "wrappedTokenFactory",
      "outputs": [
        {
          "internalType": "address",
          "name": "",
          "type": "address"
        }
      ],
      "stateMutability": "view",
      "type": "function"
    }
  ],
  "bytecode": "0x60a06040523060805234801562000014575f80fd5b506200001f62000025565b620000d9565b7ff0c57e16840df040f15088dc2f81fe391c3923bec73e23a9662efc9c229c6a00805468010000000000000000900460ff1615620000765760405163f92ee8a960e01b815260040160405180910390fd5b80546001600160401b0390811614620000d65780546001600160401b0319166001600160401b0390811782556040519081527fc7f505b2f371ae2175ee4913f4499e1f2633a7b5936321eed1cdaeb6115181d29060200160405180910390a15b50565b608051616f96620001005f395f81816134dd015281816135070152613da30152616f965ff3fe6080604052600436106200020f575f3560e01c80637a07b345116200011e578063b5057a7b11620000aa578063d8397fd51162000076578063d8397fd51462000654578063dff11d771462000678578063e7c9b992146200069c578063eaa7c82614620006c0578063f2fde38b14620006e1575f80fd5b8063b5057a7b14620005c6578063b6b2bd3014620005e6578063c0c53b8b146200060a578063d3c7c2c7146200062e575f80fd5b8063893d20e811620000ea578063893d20e814620005425780638da5cb5b14620005595780638f2dd2de1462000570578063ad3cb1cc1462000594575f80fd5b80637a07b34514620004aa5780637e1aa17814620004ce5780637ecebe0014620004f25780638406c0791462000521575f80fd5b806342907696116200019e57806352d1902d116200016a57806352d1902d14620004325780635953ad9114620004585780635b4823b4146200047c578063715018a61462000493575f80fd5b806342907696146200037f57806347bbbdf514620003a05780634b2f701c14620004045780634f1ef286146200041b575f80fd5b806328342ecf11620001de57806328342ecf14620002ed5780632dacb17d14620003135780632f91be48146200032a5780633c50dffd1462000368575f80fd5b8063075693391462000213578063081da8c114620002515780630d1cfcae14620002a8578063276c1ac014620002c9575b5f80fd5b3480156200021f575f80fd5b5060025462000234906001600160a01b031681565b6040516001600160a01b0390911681526020015b60405180910390f35b3480156200025d575f80fd5b50620002346200026f36600462005415565b6001600160a01b039081165f90815260066020908152604091829020825180840190935280548416835260010154909216910181905290565b348015620002b4575f80fd5b5060055462000234906001600160a01b031681565b348015620002d5575f80fd5b5062000234620002e7366004620055ad565b62000705565b348015620002f9575f80fd5b50620003116200030b36600462005415565b62000735565b005b620003116200032436600462005906565b62000761565b34801562000336575f80fd5b5060408051808201909152600a815269313934b233b2903b1a1b60b11b60208201525b60405162000248919062005b03565b620003116200037936600462005ca8565b620015b5565b3480156200038b575f80fd5b5060035462000234906001600160a01b031681565b348015620003ac575f80fd5b50620003e3620003be36600462005415565b60066020525f9081526040902080546001909101546001600160a01b03918216911682565b604080516001600160a01b0393841681529290911660208301520162000248565b620003116200041536600462005e26565b62001e08565b620003116200042c36600462005e5b565b62002297565b3480156200043e575f80fd5b5062000449620022bc565b60405190815260200162000248565b34801562000464575f80fd5b506200031162000476366004620055ad565b620022da565b620003116200048d36600462005e26565b620024bd565b3480156200049f575f80fd5b50620003116200282f565b348015620004b6575f80fd5b5062000311620004c836600462005ead565b62002846565b348015620004da575f80fd5b5062000311620004ec36600462005415565b620029c0565b348015620004fe575f80fd5b50620004496200051036600462005415565b60076020525f908152604090205481565b3480156200052d575f80fd5b5060015462000234906001600160a01b031681565b3480156200054e575f80fd5b506200023462002a14565b34801562000565575f80fd5b506200023462002a24565b3480156200057c575f80fd5b50620003116200058e36600462005415565b62002a52565b348015620005a0575f80fd5b5062000359604051806040016040528060058152602001640352e302e360dc1b81525081565b348015620005d2575f80fd5b505f5462000234906001600160a01b031681565b348015620005f2575f80fd5b50620003116200060436600462005415565b62002aa6565b34801562000616575f80fd5b50620003116200062836600462005f35565b62002c68565b3480156200063a575f80fd5b506200064562002e1d565b60405162000248919062005fc9565b34801562000660575f80fd5b50620002346200067236600462005fdd565b62002e7f565b34801562000684575f80fd5b50620003116200069636600462005415565b62002ea8565b348015620006a8575f80fd5b5062000311620006ba36600462005ff5565b62002efc565b348015620006cc575f80fd5b5060045462000234906001600160a01b031681565b348015620006ed575f80fd5b5062000311620006ff36600462005415565b620033b6565b5f6040825114620007295760405163145a1fdd60e31b815260040160405180910390fd5b50805160209091012090565b6200073f6200349c565b600580546001600160a01b0319166001600160a01b0392909216919091179055565b6200076b6200349c565b62000775620034d2565b6200077f6200357a565b5f620007948261012001516020015162000705565b9050336001600160a01b03821614620007f45760405162461bcd60e51b815260206004820152601860248201527f496e76616c6964207075626c6963206b6579206f776e6572000000000000000060448201526064015b60405180910390fd5b335f908152600760209081526040808320548151848152808401835286519387015187840151606089015160808a015160a08b015160c08c015160e08d01516101208e0151989b979a979962000850998c918e908301620060f3565b6040516020818303038152906040528051906020012090506200087a8186610140015186620035b3565b620008d65760405162461bcd60e51b815260206004820152602560248201527f496e76616c696420756e636f6e6669726d65642075706772616465207369676e604482015264617475726560d81b6064820152608401620007eb565b5f855f015186602001518760400151886060015189608001518a60a001518b60c001518c60e001518a8e61016001518d6001620009149190620061c2565b604051602001620009309b9a99989796959493929190620060f3565b6040516020818303038152906040528051906020012090506200096d81876101800151620009678961016001516020015162000705565b620035b3565b620009c75760405162461bcd60e51b8152602060048201526024808201527f496e76616c696420636f6e6669726d696e672075706772616465207369676e616044820152637475726560e01b6064820152608401620007eb565b5f805461012088015160200151604051631697653560e11b815283926001600160a01b031691632d2eca6a9162000a02919060040162005b03565b61010060405180830381865afa15801562000a1f573d5f803e3d5ffd5b505050506040513d601f19601f8201168201806040525081019062000a45919062006201565b915091508062000a985760405162461bcd60e51b815260206004820152601860248201527f4b6579206c6f67206e6f7420696e697469616c697a65642e00000000000000006044820152606401620007eb565b610100880151511562000b455762000b456040518060c001604052805f6001600160a01b03168152602001336001600160a01b0316815260200160405180608001604052805f6001600160a01b031681526020015f81526020015f815260200160405180602001604052805f81525081525081526020018a61012001516020015181526020018a6101600151604001516001600160a01b031681526020018a61010001518152506200360c565b5f8054906101000a90046001600160a01b03166001600160a01b0316632dd1466d6040518060a001604052808b61012001516020015181526020018b6101200151604001516001600160a01b031681526020018b6101200151606001516001600160a01b031681526020018b6101200151608001516001600160a01b031681526020018b610120015160a001516001600160a01b03168152506040518060a001604052808c61016001516020015181526020018c6101600151604001516001600160a01b031681526020018c6101600151606001516001600160a01b031681526020018c6101600151608001516001600160a01b031681526020018c610160015160a001516001600160a01b03168152506040518363ffffffff1660e01b815260040162000c759291906200632a565b5f604051808303815f87803b15801562000c8d575f80fd5b505af115801562000ca0573d5f803e3d5ffd5b505089516001600160a01b031615915062000e3390505787516001600160a01b03163b62000d1b5760405162461bcd60e51b815260206004820152602160248201527f42726964676520696d706c656d656e746174696f6e20686173206e6f20636f646044820152606560f81b6064820152608401620007eb565b5f8051602062006f218339815191525f1b885f01516001600160a01b03166352d1902d6040518163ffffffff1660e01b8152600401602060405180830381865afa15801562000d6c573d5f803e3d5ffd5b505050506040513d601f19601f8201168201806040525081019062000d92919062006352565b1462000df65760405162461bcd60e51b815260206004820152602c60248201527f42726964676520696d706c656d656e746174696f6e206973206e6f742055555060448201526b5320636f6d70617469626c6560a01b6064820152608401620007eb565b6004805460ff60a01b1916600160a01b179055875160408051602081019091525f815262000e25919062002297565b6004805460ff60a01b191690555b60208801516001600160a01b03161562000f1c575f88602001516001600160a01b03163b1162000eb85760405162461bcd60e51b815260206004820152602960248201527f4b65794c6f67526567697374727920696d706c656d656e746174696f6e20686160448201526873206e6f20636f646560b81b6064820152608401620007eb565b5f54602089015160405163278f794360e11b81526001600160a01b0390921691634f1ef2869162000eec916004016200636a565b5f604051808303815f87803b15801562000f04575f80fd5b505af115801562000f17573d5f803e3d5ffd5b505050505b60408801516001600160a01b03161562001006575f88604001516001600160a01b03163b1162000fa55760405162461bcd60e51b815260206004820152602d60248201527f57726170706564546f6b656e426561636f6e20696d706c656d656e746174696f60448201526c6e20686173206e6f20636f646560981b6064820152608401620007eb565b6003546040898101519051631b2ce7f360e11b81526001600160a01b039182166004820152911690633659cfe6906024015f604051808303815f87803b15801562000fee575f80fd5b505af115801562001001573d5f803e3d5ffd5b505050505b60608801516001600160a01b031615620010f5575f88606001516001600160a01b03163b11620010905760405162461bcd60e51b815260206004820152602e60248201527f57726170706564546f6b656e466163746f727920696d706c656d656e7461746960448201526d6f6e20686173206e6f20636f646560901b6064820152608401620007eb565b6004805460608a015160405163278f794360e11b81526001600160a01b0390921692634f1ef28692620010c59291016200636a565b5f604051808303815f87803b158015620010dd575f80fd5b505af1158015620010f0573d5f803e3d5ffd5b505050505b60a08801516001600160a01b0316156200131d5760808801516001600160a01b0316620011655760405162461bcd60e51b815260206004820152601b60248201527f57726170706564546f6b656e2070726f787920726571756972656400000000006044820152606401620007eb565b5f8860a001516001600160a01b03163b11620011d45760405162461bcd60e51b815260206004820152602760248201527f57726170706564546f6b656e20696d706c656d656e746174696f6e20686173206044820152666e6f20636f646560c81b6064820152608401620007eb565b5f8051602062006f218339815191525f1b8860a001516001600160a01b03166352d1902d6040518163ffffffff1660e01b8152600401602060405180830381865afa15801562001226573d5f803e3d5ffd5b505050506040513d601f19601f820116820180604052508101906200124c919062006352565b14620012b65760405162461bcd60e51b815260206004820152603260248201527f57726170706564546f6b656e20696d706c656d656e746174696f6e206973206e6044820152716f74205555505320636f6d70617469626c6560701b6064820152608401620007eb565b608088015160a089015160405163278f794360e11b81526001600160a01b0390921691634f1ef28691620012ed916004016200636a565b5f604051808303815f87803b15801562001305575f80fd5b505af115801562001318573d5f803e3d5ffd5b505050505b60e08801516001600160a01b0316156200153e5760c08801516001600160a01b03166200138d5760405162461bcd60e51b815260206004820152601860248201527f4d6f636b45524332302070726f787920726571756972656400000000000000006044820152606401620007eb565b5f8860e001516001600160a01b03163b11620013f85760405162461bcd60e51b8152602060048201526024808201527f4d6f636b455243323020696d706c656d656e746174696f6e20686173206e6f20604482015263636f646560e01b6064820152608401620007eb565b5f8051602062006f218339815191525f1b8860e001516001600160a01b03166352d1902d6040518163ffffffff1660e01b8152600401602060405180830381865afa1580156200144a573d5f803e3d5ffd5b505050506040513d601f19601f8201168201806040525081019062001470919062006352565b14620014d75760405162461bcd60e51b815260206004820152602f60248201527f4d6f636b455243323020696d706c656d656e746174696f6e206973206e6f742060448201526e5555505320636f6d70617469626c6560881b6064820152608401620007eb565b60c088015160e089015160405163278f794360e11b81526001600160a01b0390921691634f1ef286916200150e916004016200636a565b5f604051808303815f87803b15801562001526575f80fd5b505af115801562001539573d5f803e3d5ffd5b505050505b336200154962002a24565b6001600160a01b0316036200156c576200156c88610160015160400151620033b6565b335f9081526007602052604081208054600292906200158d908490620061c2565b909155505060015f8051602062006f418339815191525550620015b295505050505050565b50565b620015bf6200357a565b5f620015d382608001516020015162000705565b9050336001600160a01b03821614620015ff5760405163145a1fdd60e31b815260040160405180910390fd5b335f9081526007602090815260408083205485518683015160808801519351929594620016349492939192918791016200638c565b60408051601f198184030181529190528051602090910120608085015160a001519091506001600160a01b03166200167f5760405163d92e233d60e01b815260040160405180910390fd5b6200169c818560a001516200096787608001516020015162000705565b620016ba57604051638baa579f60e01b815260040160405180910390fd5b60c084015160a001516001600160a01b03161562001759578351604085015160c08601515f929190620016ef866001620061c2565b6040516020016200170494939291906200638c565b60405160208183030381529060405280519060200120905062001739818660e00151620009678860c001516020015162000705565b6200175757604051638baa579f60e01b815260040160405180910390fd5b505b336200176462002a24565b6001600160a01b03160362001a5b575f5b84604001515181101562001a59575f856040015182815181106200179d576200179d62006461565b60209081029190910181015180516001600160a01b039081165f90815260069093526040909220600101549092501615620017eb57604051636bb9e87d60e01b815260040160405180910390fd5b600854600a116200183f5760405162461bcd60e51b815260206004820152601760248201527f6d617820746f6b656e20706169727320726561636865640000000000000000006044820152606401620007eb565b80515f906001600160a01b031615620018be57815f01516001600160a01b031663313ce5676040518163ffffffff1660e01b8152600401602060405180830381865afa15801562001892573d5f803e3d5ffd5b505050506040513d601f19601f82011682018060405250810190620018b8919062006475565b620018c1565b60125b60208301516040808501515f805492519495509363328ec1b360e11b93620018fd9390929130916001600160a01b031690889060240162006493565b60408051601f198184030181529181526020820180516001600160e01b03166001600160e01b03199094169390931790925260035491519092505f916001600160a01b03169083906200195090620053e0565b6200195d929190620064e8565b604051809103905ff08015801562001977573d5f803e3d5ffd5b5060408051808201825286516001600160a01b0390811682529283166020808301828152895186165f9081526006808452868220955186549089166001600160a01b0319918216178755925160019687018054918a16918516919091179055865180880188528c518916815280850186815295835293529485209151825490871690821617825591519083018054918616918316919091179055965160088054808401825593527ff3f7a9fe364faab93b216da50a3214154f22a0a2b415b23a84c8169e8b636ee3909201805492909316919096161790555050500162001775565b505b60c084015160a001516060850151516001600160a01b039091161515901562001bb0575f8054608087015160200151604051631697653560e11b815283926001600160a01b031691632d2eca6a9162001ab8919060040162005b03565b61010060405180830381865afa15801562001ad5573d5f803e3d5ffd5b505050506040513d601f19601f8201168201806040525081019062001afb919062006201565b915091508215801562001b0b5750805b1562001b2a5760405163772e719d60e11b815260040160405180910390fd5b62001bad6040518060c00160405280895f01516001600160a01b03168152602001336001600160a01b031681526020018960200151815260200189608001516020015181526020018562001b875789608001516040015162001b91565b8960c00151604001515b6001600160a01b0316815260200189606001518152506200360c565b50505b801562001ce2575f546040805160a080820183526080808a018051602090810151855281518601516001600160a01b03908116828701528251606090810151821687890152835185015182168188015292518501518116848701528651808601885260c08e01805184015182528051890151831693820193909352825184015182168189015282518501518216938101939093529051909301518316918101919091529251632dd1466d60e01b8152931692632dd1466d9262001c7792916004016200632a565b5f604051808303815f87803b15801562001c8f575f80fd5b505af115801562001ca2573d5f803e3d5ffd5b50505050336001600160a01b031662001cba62002a24565b6001600160a01b03160362001cdc5762001cdc8560c0015160400151620033b6565b62001dc5565b5f546040805160a080820183526080808a018051602090810151855281518601516001600160a01b039081169186019190915281516060908101518216868801528251840151821690860152905190920151821690830152915163397382bd60e21b8152919092169163e5ce0af49162001d6091906004016200650d565b5f604051808303815f87803b15801562001d78575f80fd5b505af115801562001d8b573d5f803e3d5ffd5b50505050336001600160a01b031662001da362002a24565b6001600160a01b03160362001dc55762001dc5856080015160400151620033b6565b335f90815260076020526040812080546002929062001de6908490620061c2565b909155505060015f8051602062006f418339815191525550620015b292505050565b62001e126200357a565b5f62001e7062001e26606084018462006521565b62001e3690602081019062006540565b8080601f0160208091040260200160405190810160405280939291908181526020018383808284375f920191909152506200070592505050565b9050336001600160a01b0382161462001e9c5760405163145a1fdd60e31b815260040160405180910390fd5b335f9081526007602052604081205490833562001ebd606086018662006521565b8360405160200162001ed293929190620065b4565b60408051601f198184030181529190528051602090910120905062001f3c8162001f00608087018762006540565b8080601f0160208091040260200160405190810160405280939291908181526020018383808284375f92019190915250889250620035b3915050565b62001f5a57604051638baa579f60e01b815260040160405180910390fd5b5f62001f6a6020860186620066a4565b905011156200205a576040805160c0810182525f81523360208201526200205a918181019062001f9d90880188620066ec565b62001fa89062006701565b815260200162001fbc606088018862006521565b62001fcc90602081019062006540565b8080601f0160208091040260200160405190810160405280939291908181526020018383808284375f9201919091525050509082525060200162002014606088018862006521565b6200202790606081019060400162005415565b6001600160a01b03168152602001868060200190620020479190620066a4565b62002052916200670e565b90526200360c565b5f546040805160a081019091526001600160a01b039091169063e5ce0af4908062002089606089018962006521565b6200209990602081019062006540565b8080601f0160208091040260200160405190810160405280939291908181526020018383808284375f92019190915250505090825250602001620020e1606089018962006521565b620020f490606081019060400162005415565b6001600160a01b0316815260200162002111606089018962006521565b6200212490608081019060600162005415565b6001600160a01b0316815260200162002141606089018962006521565b620021549060a081019060800162005415565b6001600160a01b0316815260200162002171606089018962006521565b620021849060c081019060a00162005415565b6001600160a01b03168152506040518263ffffffff1660e01b8152600401620021ae91906200650d565b5f604051808303815f87803b158015620021c6575f80fd5b505af1158015620021d9573d5f803e3d5ffd5b50506005546001600160a01b031615915062002255905057600554604051636918afc960e11b8152853560048201526001600160a01b0385811660248301529091169063d2315f92906044015f604051808303815f87803b1580156200223d575f80fd5b505af115801562002250573d5f803e3d5ffd5b505050505b335f90815260076020526040812080546002929062002276908490620061c2565b909155505060015f8051602062006f418339815191525550620015b2915050565b620022a1620034d2565b620022ac8262003c77565b620022b8828262003cd2565b5050565b5f620022c762003d98565b505f8051602062006f2183398151915290565b620022e46200349c565b6040815114620023075760405163145a1fdd60e31b815260040160405180910390fd5b5f620023138262000705565b90506200231f62002a24565b6001600160a01b0316816001600160a01b031614620023815760405162461bcd60e51b815260206004820152601e60248201527f496e636f7272656374207075626c6963206b65792070726f76696465642e00006044820152606401620007eb565b5f8054604051631697653560e11b815282916001600160a01b031690632d2eca6a90620023b390879060040162005b03565b61010060405180830381865afa158015620023d0573d5f803e3d5ffd5b505050506040513d601f19601f82011682018060405250810190620023f6919062006201565b9150915080620024495760405162461bcd60e51b815260206004820152601760248201527f4b6579206c6f67206e6f7420696e697469616c697a65640000000000000000006044820152606401620007eb565b620024588260200151620033b6565b5f5460208301516040516304a5e59760e01b81526001600160a01b0391821660048201529116906304a5e597906024015f604051808303815f87803b158015620024a0575f80fd5b505af1158015620024b3573d5f803e3d5ffd5b5050505050505050565b620024c76200357a565b5f620024db62001e26606084018462006521565b9050336001600160a01b03821614620025075760405163145a1fdd60e31b815260040160405180910390fd5b335f9081526007602052604081205490833562002528606086018662006521565b836040516020016200253d93929190620065b4565b60408051601f19818403018152919052805160209091012090506200256b8162001f00608087018762006540565b6200258957604051638baa579f60e01b815260040160405180910390fd5b5f620025996020860186620066a4565b90501115620025cc576040805160c0810182525f8152336020820152620025cc918181019062001f9d90880188620066ec565b5f546040805160a081019091526001600160a01b039091169063e5ce0af49080620025fb606089018962006521565b6200260b90602081019062006540565b8080601f0160208091040260200160405190810160405280939291908181526020018383808284375f9201919091525050509082525060200162002653606089018962006521565b6200266690606081019060400162005415565b6001600160a01b0316815260200162002683606089018962006521565b6200269690608081019060600162005415565b6001600160a01b03168152602001620026b3606089018962006521565b620026c69060a081019060800162005415565b6001600160a01b03168152602001620026e3606089018962006521565b620026f69060c081019060a00162005415565b6001600160a01b03168152506040518263ffffffff1660e01b81526004016200272091906200650d565b5f604051808303815f87803b15801562002738575f80fd5b505af11580156200274b573d5f803e3d5ffd5b50506005546001600160a01b0316159150620022559050576040805160018082528183019092525f916020808301908036833701905050905083815f815181106200279a576200279a62006461565b6001600160a01b03928316602091820292909201015260055460405163284981d760e11b815291169063509303ae90620027de90883590859089906004016200671c565b5f604051808303815f87803b158015620027f6575f80fd5b505af115801562002809573d5f803e3d5ffd5b5050505050335f90815260076020526040812080546002929062002276908490620061c2565b620028396200349c565b620028445f62003de2565b565b620028506200357a565b825f0362002871576040516342b7033760e01b815260040160405180910390fd5b8015806200287f5750602a81115b156200289e5760405163145a1fdd60e31b815260040160405180910390fd5b6001600160a01b038085165f9081526006602090815260409182902082518084019093528054841683526001015490921691810182905290620028f457604051637879bad160e01b815260040160405180910390fd5b604051632770a7eb60e21b8152336004820152602481018590526001600160a01b03861690639dc29fac906044015f604051808303815f87803b1580156200293a575f80fd5b505af11580156200294d573d5f803e3d5ffd5b5050505083856001600160a01b0316336001600160a01b03167f2fb26dcd5e0fc2ee1286d042be046303443b07e44e41ef8bf40ec51d39bfa5fd8686604051620029999291906200674e565b60405180910390a450620029ba60015f8051602062006f4183398151915255565b50505050565b620029ca6200349c565b6001600160a01b038116620029f25760405163d92e233d60e01b815260040160405180910390fd5b600280546001600160a01b0319166001600160a01b0392909216919091179055565b5f62002a1f62002a24565b905090565b7f9016d09d72d40fdae2fd8ceac6b6234c7706214fd39c1cd1e609a0528c199300546001600160a01b031690565b62002a5c6200349c565b6001600160a01b03811662002a845760405163d92e233d60e01b815260040160405180910390fd5b600380546001600160a01b0319166001600160a01b0392909216919091179055565b62002ab06200349c565b6001600160a01b038082165f908152600660209081526040918290208251808401909352805484168352600101549092169181018290529062002b0657604051637879bad160e01b815260040160405180910390fd5b80516001600160a01b039081165f90815260066020908152604080832080546001600160a01b031990811682556001918201805482169055928601519094168352822080548216815590920180549092169091555b60085481101562002c6357815f01516001600160a01b03166008828154811062002b895762002b8962006461565b5f918252602090912001546001600160a01b03160362002c5a576008805462002bb59060019062006763565b8154811062002bc85762002bc862006461565b5f91825260209091200154600880546001600160a01b03909216918390811062002bf65762002bf662006461565b905f5260205f20015f6101000a8154816001600160a01b0302191690836001600160a01b03160217905550600880548062002c355762002c3562006779565b5f8281526020902081015f1990810180546001600160a01b0319169055019055505050565b60010162002b5b565b505050565b7ff0c57e16840df040f15088dc2f81fe391c3923bec73e23a9662efc9c229c6a008054600160401b810460ff1615906001600160401b03165f8115801562002cad5750825b90505f826001600160401b0316600114801562002cc95750303b155b90508115801562002cd8575080155b1562002cf75760405163f92ee8a960e01b815260040160405180910390fd5b845467ffffffffffffffff19166001178555831562002d2257845460ff60401b1916600160401b1785555b62002d2d3362003e52565b62002d3762003e67565b62002d4162003e71565b6001600160a01b03881662002d695760405163d92e233d60e01b815260040160405180910390fd5b6001600160a01b03861662002d915760405163d92e233d60e01b815260040160405180910390fd5b5f80546001600160a01b03808b166001600160a01b031992831617909255600380548a841690831617905560048054928916929091169190911790558315620024b357845460ff60401b19168555604051600181527fc7f505b2f371ae2175ee4913f4499e1f2633a7b5936321eed1cdaeb6115181d29060200160405180910390a15050505050505050565b6060600880548060200260200160405190810160405280929190818152602001828054801562002e7557602002820191905f5260205f20905b81546001600160a01b0316815260019091019060200180831162002e56575b5050505050905090565b6008818154811062002e8f575f80fd5b5f918252602090912001546001600160a01b0316905081565b62002eb26200349c565b6001600160a01b03811662002eda5760405163d92e233d60e01b815260040160405180910390fd5b600480546001600160a01b0319166001600160a01b0392909216919091179055565b62002f066200357a565b5f62002f128462000705565b90505f5b828110156200339c575f84848381811062002f355762002f3562006461565b905060200281019062002f4991906200678d565b62002f5490620067a2565b80519091506001600160a01b031662002f805760405163772e719d60e11b815260040160405180910390fd5b5f8054604051631697653560e11b815282916001600160a01b031690632d2eca6a9062002fb2908b9060040162005b03565b61010060405180830381865afa15801562002fcf573d5f803e3d5ffd5b505050506040513d601f19601f8201168201806040525081019062002ff5919062006201565b9150915080620030185760405163145a1fdd60e31b815260040160405180910390fd5b82516040516370a0823160e01b81526001600160a01b0387811660048301525f9216906370a0823190602401602060405180830381865afa15801562003060573d5f803e3d5ffd5b505050506040513d601f19601f8201168201806040525081019062003086919062006352565b9050805f03620030a957604051631e9acf1760e31b815260040160405180910390fd5b4284604001511015620030cf576040516305787bdf60e01b815260040160405180910390fd5b5f845f01516001600160a01b0316633644e5156040518163ffffffff1660e01b8152600401602060405180830381865afa15801562003110573d5f803e3d5ffd5b505050506040513d601f19601f8201168201806040525081019062003136919062006352565b8551604051623f675f60e91b81526001600160a01b03808b1660048301527f6e71edae12b1b97f4d1f60370fef10105fa2faae0126114a169c64845d6126c9928b92309288921690637ecebe0090602401602060405180830381865afa158015620031a3573d5f803e3d5ffd5b505050506040513d601f19601f82011682018060405250810190620031c9919062006352565b6040808c0151815160208101979097526001600160a01b0395861691870191909152939092166060850152608084015260a083015260c082015260e001604051602081830303815290604052805190602001206040516020016200324492919061190160f01b81526002810192909252602282015260420190565b6040516020818303038152906040528051906020012090505f620032b986608001518760a001518860600151604051602001620032a193929190928352602083019190915260f81b6001600160f81b031916604082015260410190565b60408051601f19818403018152919052839062003e85565b9050876001600160a01b0316816001600160a01b031614620032ee57604051634d96a8a760e01b815260040160405180910390fd5b855f01516001600160a01b031663d505accf8930868a604001518b606001518c608001518d60a001516040518863ffffffff1660e01b81526004016200333b9796959493929190620067af565b5f604051808303815f87803b15801562003353575f80fd5b505af115801562003366573d5f803e3d5ffd5b505050602086015187516200338992506001600160a01b0316908a908662003eb3565b50506001909401935062002f1692505050565b505062002c6360015f8051602062006f4183398151915255565b620033c06200349c565b6001600160a01b038116620033e85760405163d92e233d60e01b815260040160405180910390fd5b5f546001600160a01b03166318fdb6f86200340262002a24565b6040516001600160e01b031960e084901b1681526001600160a01b0391821660048201529084166024820152604401602060405180830381865afa1580156200344d573d5f803e3d5ffd5b505050506040513d601f19601f82011682018060405250810190620034739190620067f0565b620034915760405163b012a29560e01b815260040160405180910390fd5b620015b28162003f1c565b33620034a762002a24565b6001600160a01b031614620028445760405163118cdaa760e01b8152336004820152602401620007eb565b306001600160a01b037f00000000000000000000000000000000000000000000000000000000000000001614806200355b57507f00000000000000000000000000000000000000000000000000000000000000006001600160a01b03166200354f5f8051602062006f21833981519152546001600160a01b031690565b6001600160a01b031614155b15620028445760405163703e46dd60e11b815260040160405180910390fd5b5f8051602062006f41833981519152805460011901620035ad57604051633ee5aeb560e01b815260040160405180910390fd5b60029055565b7f19457468657265756d205369676e6564204d6573736167653a0a3332000000005f908152601c849052603c81206001600160a01b038316620035f7828662003e85565b6001600160a01b0316149150505b9392505050565b5f805f806200361f856060015162000705565b90505f5b8560a001515181101562003711575f8660a0015182815181106200364b576200364b62006461565b602090810291909101015180519091506001600160a01b031662003681576020810151600196506200367e9085620061c2565b93505b841580156200369e5750865181516001600160a01b039081169116145b1562003707575f5b8160c001515181101562003705575f8260c001518281518110620036ce57620036ce62006461565b60200260200101519050806080015180620036ea57508060a001515b15620036fb57600196505062003705565b50600101620036a6565b505b5060010162003623565b50836200373157604051633bee968760e01b815260040160405180910390fd5b5f3411620037825760405162461bcd60e51b815260206004820152601b60248201527f4e617469766520424e42207061796d656e7420726571756972656400000000006044820152606401620007eb565b828015620037ab57506200379562002a24565b6001600160a01b0316336001600160a01b031614155b15620037ca5760405163b012a29560e01b815260040160405180910390fd5b5f5b8560a001515181101562003bfe575f8660a001518281518110620037f457620037f462006461565b602002602001015190505f600190505f80895f01516001600160a01b0316845f01516001600160a01b0316036200394b575f5b8460c001515181101562003949575f8560c0015182815181106200384f576200384f62006461565b602002602001015190508060400151806200386b575080608001515b8062003878575080606001515b806200388557508060a001515b156200391f578b515f95506001600160a01b031615801590620038cc57508b516001600160a01b039081165f908152600660205260409081902054908e0151518216911614155b80156200390057508b516001600160a01b039081165f908152600660205260409081902060010154908e0151518216911614155b156200391f57604051630adad23360e31b815260040160405180910390fd5b8060800151156200392f57600193505b8060a00151156200393f57600192505b5060010162003827565b505b83516001600160a01b03161580159062003963575081155b80156200396e575080155b8015620039815750606084015160ff1615155b1562003bb7574284604001511015620039ad576040516305787bdf60e01b815260040160405180910390fd5b5f620039ba858c62003f5c565b90505f62003a0186608001518760a001518860600151604051602001620032a193929190928352602083019190915260f81b6001600160f81b031916604082015260410190565b9050876001600160a01b0316816001600160a01b03161462003a92575f5b8660c001515181101562003a90578c608001516001600160a01b03168760c00151828151811062003a545762003a5462006461565b60200260200101515f01516001600160a01b03161462003a8757604051634d96a8a760e01b815260040160405180910390fd5b60010162003a1f565b505b855f01516001600160a01b031663d505accf8d602001513089602001518a604001518b606001518c608001518d60a001516040518863ffffffff1660e01b815260040162003ae79796959493929190620067af565b5f604051808303815f87803b15801562003aff575f80fd5b505af192505050801562003b11575060015b62003bb4576020868101518751918e0151604051636eb1769f60e11b81526001600160a01b0391821660048201523060248201529192169063dd62ed3e90604401602060405180830381865afa15801562003b6e573d5f803e3d5ffd5b505050506040513d601f19601f8201168201806040525081019062003b94919062006352565b101562003bb4576040516313be252b60e01b815260040160405180910390fd5b50505b5f8362003bd05762003bcd8b604001516200409b565b90505b84516001600160a01b03161562003beb868d87858562004255565b505060019094019350620037cc92505050565b5083801562003c0c57505f82115b1562003c5c578134101562003c345760405163e5c1ca3360e01b815260040160405180910390fd5b5f62003c41833462006763565b9050801562003c5a5762003c5a866020015182620045d3565b505b5050505050565b60015f8051602062006f4183398151915255565b600454600160a01b900460ff16620015b25760405162461bcd60e51b815260206004820152601f60248201527f4d757374207573652075706772616465576974684b6579526f746174696f6e006044820152606401620007eb565b816001600160a01b03166352d1902d6040518163ffffffff1660e01b8152600401602060405180830381865afa92505050801562003d2f575060408051601f3d908101601f1916820190925262003d2c9181019062006352565b60015b62003d5957604051634c9c8ce360e01b81526001600160a01b0383166004820152602401620007eb565b5f8051602062006f21833981519152811462003d8c57604051632a87526960e21b815260048101829052602401620007eb565b62002c63838362004646565b306001600160a01b037f00000000000000000000000000000000000000000000000000000000000000001614620028445760405163703e46dd60e11b815260040160405180910390fd5b7f9016d09d72d40fdae2fd8ceac6b6234c7706214fd39c1cd1e609a0528c19930080546001600160a01b031981166001600160a01b03848116918217845560405192169182907f8be0079c531659141344cd1fd0a4f28419497f9722a3daafe3b4186f6b6457e0905f90a3505050565b62003e5c620046a2565b620015b281620046ec565b62002844620046a2565b62003e7b620046a2565b62002844620046f6565b5f805f8062003e95868662004700565b92509250925062003ea782826200474d565b50909150505b92915050565b6040516001600160a01b038481166024830152838116604483015260648201839052620029ba9186918216906323b872dd906084015b604051602081830303815290604052915060e01b6020820180516001600160e01b03838183161783525050505062004817565b62003f266200349c565b6001600160a01b03811662003f5157604051631e4fbdf760e01b81525f6004820152602401620007eb565b620015b28162003de2565b5f825f01516001600160a01b0316633644e5156040518163ffffffff1660e01b8152600401602060405180830381865afa15801562003f9d573d5f803e3d5ffd5b505050506040513d601f19601f8201168201806040525081019062003fc3919062006352565b7f6e71edae12b1b97f4d1f60370fef10105fa2faae0126114a169c64845d6126c9836020015130866020015162004002885f0151886020015162004888565b6040808a0151815160208101979097526001600160a01b0395861691870191909152939092166060850152608084015260a083015260c082015260e001604051602081830303815290604052805190602001206040516020016200407d92919061190160f01b81526002810192909252602282015260420190565b60405160208183030381529060405280519060200120905092915050565b5f4282604001511015620040c2576040516305787bdf60e01b815260040160405180910390fd5b81515f906001600160a01b0316156200414157825f01516001600160a01b031663313ce5676040518163ffffffff1660e01b8152600401602060405180830381865afa15801562004115573d5f803e3d5ffd5b505050506040513d601f19601f820116820180604052508101906200413b919062006475565b62004144565b60125b90505f6200415482600a62006907565b905080846020015111156200417c57604051630adad23360e31b815260040160405180910390fd5b835160208086015160408088015181516001600160a01b039095169385019390935283015260608201525f90620041f890608001604051602081830303815290604052805190602001207f19457468657265756d205369676e6564204d6573736167653a0a3332000000005f908152601c91909152603c902090565b90505f6200421486606001518362003e8590919063ffffffff16565b6002549091506001600160a01b038083169116146200424657604051638baa579f60e01b815260040160405180910390fd5b50505060209092015192915050565b5f80604051806080016040528087602001516001600160a01b0316815260200187608001516001600160a01b03168152602001858152602001875f01516001600160a01b031681525090505f5b8760c001515181101562004526575f8860c001518281518110620042ca57620042ca62006461565b602090810291909101015180519091506001600160a01b0316620043015760405163d92e233d60e01b815260040160405180910390fd5b80602001515f036200431457506200451d565b8860200151816020015111156200433e5760405163143d1ae760e21b815260040160405180910390fd5b806060015180156200435e5750875189516001600160a01b039081169116145b15620043775762004371898285620048f5565b62004508565b8060a001518015620043975750875189516001600160a01b039081169116145b8015620043be5750620043a962002a24565b6001600160a01b0316336001600160a01b0316145b156200443357885181516020830151604051632770a7eb60e21b81526001600160a01b0392831660048201526024810191909152911690639dc29fac906044015f604051808303815f87803b15801562004416575f80fd5b505af115801562004429573d5f803e3d5ffd5b5050505062004508565b80608001518015620044535750875189516001600160a01b039081169116145b80156200447a57506200446562002a24565b6001600160a01b0316336001600160a01b0316145b156200448d576200437189848362004bdc565b80604001518015620044ad5750875189516001600160a01b039081169116145b15620044c157620043718982878662004d97565b861562004508578415620044e25762004371815f01518260200151620045d3565b6020808901518251918301518b5162004508936001600160a01b03909116929162003eb3565b6020810151620045199085620061c2565b9350505b600101620042a2565b508415620045a5575f82886020015162004541919062006763565b90508015620045a35786516001600160a01b031662004570576200456a876080015182620045d3565b62004594565b60208701516080880151895162004594926001600160a01b03909116918462003eb3565b620045a08184620061c2565b92505b505b86602001518214620045ca576040516312171d8360e31b815260040160405180910390fd5b50505050505050565b5f826001600160a01b0316826040515f6040518083038185875af1925050503d805f81146200461e576040519150601f19603f3d011682016040523d82523d5f602084013e62004623565b606091505b505090508062002c63576040516312171d8360e31b815260040160405180910390fd5b620046518262005154565b6040516001600160a01b038316907fbc7cd75a20ee27fd9adebab32041f755214dbc6bffa90cc0225b39da2e5c2d3b905f90a2805115620046985762002c638282620051ba565b620022b862005232565b7ff0c57e16840df040f15088dc2f81fe391c3923bec73e23a9662efc9c229c6a0054600160401b900460ff166200284457604051631afcd79f60e31b815260040160405180910390fd5b62003f26620046a2565b62003c63620046a2565b5f805f83516041036200473b576020840151604085015160608601515f1a6200472c8882858562005252565b95509550955050505062004746565b505081515f91506002905b9250925092565b5f82600381111562004763576200476362006917565b036200476d575050565b600182600381111562004784576200478462006917565b03620047a35760405163f645eedf60e01b815260040160405180910390fd5b6002826003811115620047ba57620047ba62006917565b03620047dd5760405163fce698f760e01b815260048101829052602401620007eb565b6003826003811115620047f457620047f462006917565b03620022b8576040516335e2f38360e21b815260048101829052602401620007eb565b5f8060205f8451602086015f885af18062004837576040513d5f823e3d81fd5b50505f513d91508115620048505780600114156200485d565b6001600160a01b0384163b155b15620029ba57604051635274afe760e01b81526001600160a01b0385166004820152602401620007eb565b604051623f675f60e91b81526001600160a01b0382811660048301525f9190841690637ecebe0090602401602060405180830381865afa158015620048cf573d5f803e3d5ffd5b505050506040513d601f19601f8201168201806040525081019062003605919062006352565b6020820151835182516040516370a0823160e01b81526001600160a01b0391821660048201529116906370a0823190602401602060405180830381865afa15801562004943573d5f803e3d5ffd5b505050506040513d601f19601f8201168201806040525081019062004969919062006352565b1015620049c95760405162461bcd60e51b815260206004820152602760248201527f496e73756666696369656e7420777261707065642062616c616e636520666f72604482015266020756e777261760cc1b6064820152608401620007eb565b805160208301518451620049eb926001600160a01b0390911691309062003eb3565b82516020830151604051632770a7eb60e21b815230600482015260248101919091526001600160a01b0390911690639dc29fac906044015f604051808303815f87803b15801562004a3a575f80fd5b505af115801562004a4d573d5f803e3d5ffd5b505084516001600160a01b039081165f9081526006602090815260408083208151808301909252805485168252600101548416918101919091528751909450909250161562004b0257845f01516001600160a01b031663313ce5676040518163ffffffff1660e01b8152600401602060405180830381865afa15801562004ad6573d5f803e3d5ffd5b505050506040513d601f19601f8201168201806040525081019062004afc919062006475565b62004b05565b60125b90505f62004b1582600a62006907565b90505f818560400151876020015162004b2f91906200692b565b62004b3b919062006945565b90505f81876020015162004b50919062006763565b85519091506001600160a01b031662004b955762004b73866020015182620045d3565b811562004b8f5762004b8f62004b8862002a24565b83620045d3565b620024b3565b6020860151855162004bb4916001600160a01b0390911690836200531f565b8115620024b357620024b362004bc962002a24565b86516001600160a01b031690846200531f565b82515f906001600160a01b03161562004c5b57835f01516001600160a01b031663313ce5676040518163ffffffff1660e01b8152600401602060405180830381865afa15801562004c2f573d5f803e3d5ffd5b505050506040513d601f19601f8201168201806040525081019062004c55919062006475565b62004c5e565b60125b90505f62004c6e82600a62006907565b90505f818560400151856020015162004c8891906200692b565b62004c94919062006945565b90505f81856020015162004ca9919062006763565b875186516040516340c10f1960e01b81526001600160a01b0391821660048201526024810184905292935016906340c10f19906044015f604051808303815f87803b15801562004cf7575f80fd5b505af115801562004d0a573d5f803e3d5ffd5b505050505f821115620045ca5786516001600160a01b03166340c10f1962004d3162002a24565b6040516001600160e01b031960e084901b1681526001600160a01b039091166004820152602481018590526044015f604051808303815f87803b15801562004d77575f80fd5b505af115801562004d8a573d5f803e3d5ffd5b5050505050505050505050565b83516001600160a01b039081165f90815260066020908152604091829020825180840190935280548416835260010154909216918101919091528262004eaa576020840151815183516040516370a0823160e01b81526001600160a01b0391821660048201529116906370a0823190602401602060405180830381865afa15801562004e25573d5f803e3d5ffd5b505050506040513d601f19601f8201168201806040525081019062004e4b919062006352565b101562004eaa5760405162461bcd60e51b815260206004820152602660248201527f496e73756666696369656e74206f726967696e616c2062616c616e636520666f60448201526507220777261760d41b6064820152608401620007eb565b84515f906001600160a01b03161562004f2957855f01516001600160a01b031663313ce5676040518163ffffffff1660e01b8152600401602060405180830381865afa15801562004efd573d5f803e3d5ffd5b505050506040513d601f19601f8201168201806040525081019062004f23919062006475565b62004f2c565b60125b90505f62004f3c82600a62006907565b90505f818560400151886020015162004f5691906200692b565b62004f62919062006945565b90505f861562004f9b5781886020015162004f7e919062006763565b9050811562004f955762004f9562004b8862002a24565b620050e0565b84516040516370a0823160e01b81523060048201525f916001600160a01b0316906370a0823190602401602060405180830381865afa15801562004fe1573d5f803e3d5ffd5b505050506040513d601f19601f8201168201806040525081019062005007919062006352565b905062005038875f015130858c6020015162005024919062006763565b89516001600160a01b031692919062003eb3565b85516040516370a0823160e01b815230600482015282916001600160a01b0316906370a0823190602401602060405180830381865afa1580156200507e573d5f803e3d5ffd5b505050506040513d601f19601f82011682018060405250810190620050a4919062006352565b620050b0919062006763565b91508215620050de578651620050de90620050ca62002a24565b88516001600160a01b031691908662003eb3565b505b602080860151908701516040516340c10f1960e01b81526001600160a01b039182166004820152602481018490529116906340c10f19906044015f604051808303815f87803b15801562005132575f80fd5b505af115801562005145573d5f803e3d5ffd5b50505050505050505050505050565b806001600160a01b03163b5f036200518b57604051634c9c8ce360e01b81526001600160a01b0382166004820152602401620007eb565b5f8051602062006f2183398151915280546001600160a01b0319166001600160a01b0392909216919091179055565b60605f80846001600160a01b031684604051620051d8919062006965565b5f60405180830381855af49150503d805f811462005212576040519150601f19603f3d011682016040523d82523d5f602084013e62005217565b606091505b50915091506200522985838362005352565b95945050505050565b3415620028445760405163b398979f60e01b815260040160405180910390fd5b5f80807f7fffffffffffffffffffffffffffffff5d576e7357a4501ddfe92f46681b20a08411156200528d57505f9150600390508262005315565b604080515f808252602082018084528a905260ff891692820192909252606081018790526080810186905260019060a0016020604051602081039080840390855afa158015620052df573d5f803e3d5ffd5b5050604051601f1901519150506001600160a01b0381166200530c57505f92506001915082905062005315565b92505f91508190505b9450945094915050565b6040516001600160a01b0383811660248301526044820183905262002c6391859182169063a9059cbb9060640162003ee9565b6060826200536b576200536582620053b6565b62003605565b81511580156200538357506001600160a01b0384163b155b15620053ae57604051639996b31560e01b81526001600160a01b0385166004820152602401620007eb565b508062003605565b805115620053c75780518082602001fd5b60405163d6bda27560e01b815260040160405180910390fd5b6105a8806200697983390190565b6001600160a01b0381168114620015b2575f80fd5b80356200541081620053ee565b919050565b5f6020828403121562005426575f80fd5b81356200360581620053ee565b634e487b7160e01b5f52604160045260245ffd5b60405160c081016001600160401b03811182821017156200546c576200546c62005433565b60405290565b60405160e081016001600160401b03811182821017156200546c576200546c62005433565b6040516101a081016001600160401b03811182821017156200546c576200546c62005433565b604051608081016001600160401b03811182821017156200546c576200546c62005433565b60405161010081016001600160401b03811182821017156200546c576200546c62005433565b604051601f8201601f191681016001600160401b038111828210171562005533576200553362005433565b604052919050565b5f82601f8301126200554b575f80fd5b81356001600160401b0381111562005567576200556762005433565b6200557c601f8201601f191660200162005508565b81815284602083860101111562005591575f80fd5b816020850160208301375f918101602001919091529392505050565b5f60208284031215620055be575f80fd5b81356001600160401b03811115620055d4575f80fd5b620055e2848285016200553b565b949350505050565b5f6001600160401b0382111562005605576200560562005433565b5060051b60200190565b60ff81168114620015b2575f80fd5b803562005410816200560f565b8015158114620015b2575f80fd5b5f82601f83011262005649575f80fd5b81356020620056626200565c83620055ea565b62005508565b82815260c0928302850182019282820191908785111562005681575f80fd5b8387015b85811015620057205781818a0312156200569d575f80fd5b620056a762005447565b8135620056b481620053ee565b81528186013586820152604080830135620056cf816200562b565b90820152606082810135620056e4816200562b565b90820152608082810135620056f9816200562b565b9082015260a0828101356200570e816200562b565b90820152845292840192810162005685565b5090979650505050505050565b5f60e082840312156200573e575f80fd5b6200574862005472565b9050620057558262005403565b8152602082013560208201526040820135604082015262005779606083016200561e565b60608201526080820135608082015260a082013560a082015260c08201356001600160401b03811115620057ab575f80fd5b620057b98482850162005639565b60c08301525092915050565b5f620057d56200565c84620055ea565b8381529050602080820190600585901b840186811115620057f4575f80fd5b845b81811015620058325780356001600160401b0381111562005815575f80fd5b62005823898289016200572d565b855250928201928201620057f6565b505050509392505050565b5f82601f8301126200584d575f80fd5b6200360583833560208501620057c5565b5f60c082840312156200586f575f80fd5b6200587962005447565b90508135815260208201356001600160401b0381111562005898575f80fd5b620058a6848285016200553b565b6020830152506040820135620058bc81620053ee565b60408201526060820135620058d181620053ee565b60608201526080820135620058e681620053ee565b608082015260a0820135620058fb81620053ee565b60a082015292915050565b5f6020828403121562005917575f80fd5b81356001600160401b03808211156200592e575f80fd5b908301906101a0828603121562005943575f80fd5b6200594d62005497565b620059588362005403565b8152620059686020840162005403565b60208201526200597b6040840162005403565b60408201526200598e6060840162005403565b6060820152620059a16080840162005403565b6080820152620059b460a0840162005403565b60a0820152620059c760c0840162005403565b60c0820152620059da60e0840162005403565b60e08201526101008084013583811115620059f3575f80fd5b62005a01888287016200583d565b828401525050610120808401358381111562005a1b575f80fd5b62005a29888287016200585e565b828401525050610140808401358381111562005a43575f80fd5b62005a51888287016200553b565b828401525050610160808401358381111562005a6b575f80fd5b62005a79888287016200585e565b828401525050610180808401358381111562005a93575f80fd5b62005aa1888287016200553b565b918301919091525095945050505050565b5f5b8381101562005ace57818101518382015260200162005ab4565b50505f910152565b5f815180845262005aef81602086016020860162005ab2565b601f01601f19169290920160200192915050565b602081525f62003605602083018462005ad6565b5f6080828403121562005b28575f80fd5b62005b32620054bd565b9050813562005b4181620053ee565b80825250602082013560208201526040820135604082015260608201356001600160401b0381111562005b72575f80fd5b62005b80848285016200553b565b60608301525092915050565b5f82601f83011262005b9c575f80fd5b8135602062005baf6200565c83620055ea565b82815260059290921b8401810191818101908684111562005bce575f80fd5b8286015b8481101562005c9d5780356001600160401b038082111562005bf2575f80fd5b908801906080828b03601f190181131562005c0b575f80fd5b62005c15620054bd565b8784013562005c2481620053ee565b81526040848101358481111562005c39575f80fd5b62005c498e8b838901016200553b565b8a840152506060808601358581111562005c61575f80fd5b62005c718f8c838a01016200553b565b8484015250948301359462005c8686620053ee565b820194909452865250505091830191830162005bd2565b509695505050505050565b5f6020828403121562005cb9575f80fd5b81356001600160401b038082111562005cd0575f80fd5b90830190610100828603121562005ce5575f80fd5b62005cef620054e2565b62005cfa8362005403565b815260208301358281111562005d0e575f80fd5b62005d1c8782860162005b17565b60208301525060408301358281111562005d34575f80fd5b62005d428782860162005b8c565b60408301525060608301358281111562005d5a575f80fd5b62005d68878286016200583d565b60608301525060808301358281111562005d80575f80fd5b62005d8e878286016200585e565b60808301525060a08301358281111562005da6575f80fd5b62005db4878286016200553b565b60a08301525060c08301358281111562005dcc575f80fd5b62005dda878286016200585e565b60c08301525060e08301358281111562005df2575f80fd5b62005e00878286016200553b565b60e08301525095945050505050565b5f60a0828403121562005e20575f80fd5b50919050565b5f6020828403121562005e37575f80fd5b81356001600160401b0381111562005e4d575f80fd5b620055e28482850162005e0f565b5f806040838503121562005e6d575f80fd5b823562005e7a81620053ee565b915060208301356001600160401b0381111562005e95575f80fd5b62005ea3858286016200553b565b9150509250929050565b5f805f806060858703121562005ec1575f80fd5b843562005ece81620053ee565b93506020850135925060408501356001600160401b038082111562005ef1575f80fd5b818701915087601f83011262005f05575f80fd5b81358181111562005f14575f80fd5b88602082850101111562005f26575f80fd5b95989497505060200194505050565b5f805f6060848603121562005f48575f80fd5b833562005f5581620053ee565b9250602084013562005f6781620053ee565b9150604084013562005f7981620053ee565b809150509250925092565b5f815180845260208085019450602084015f5b8381101562005fbe5781516001600160a01b03168752958201959082019060010162005f97565b509495945050505050565b602081525f62003605602083018462005f84565b5f6020828403121562005fee575f80fd5b5035919050565b5f805f6040848603121562006008575f80fd5b83356001600160401b03808211156200601f575f80fd5b6200602d878388016200553b565b9450602086013591508082111562006043575f80fd5b818601915086601f83011262006057575f80fd5b81358181111562006066575f80fd5b8760208260051b85010111156200607b575f80fd5b6020830194508093505050509250925092565b805182525f602082015160c06020850152620060ae60c085018262005ad6565b6040848101516001600160a01b039081169187019190915260608086015182169087015260808086015182169087015260a09485015116949093019390935250919050565b6001600160a01b038c811682528b81166020808401919091528b821660408401528a82166060840152898216608084015288821660a084015287821660c084015290861660e0830152610160610100830181905285519083018190525f91860190610180840190835b818110156200617c5783518352602093840193909201916001016200615c565b50508381036101208501526200619381876200608e565b92505050826101408301529c9b505050505050505050505050565b634e487b7160e01b5f52601160045260245ffd5b8082018082111562003ead5762003ead620061ae565b80516200541081620053ee565b805162005410816200562b565b80516003811062005410575f80fd5b5f8082840361010081121562006215575f80fd5b60e081121562006223575f80fd5b506200622e62005472565b83516200623b81620053ee565b815260208401516200624d81620053ee565b602082015260408401516200626281620053ee565b604082015260608401516200627781620053ee565b60608201526200628a60808501620061d8565b60808201526200629d60a08501620061e5565b60a0820152620062b060c08501620061f2565b60c08201529150620062c560e08401620061e5565b90509250929050565b5f815160a08452620062e460a085018262005ad6565b6020848101516001600160a01b03908116918701919091526040808601518216908701526060808601518216908701526080948501511693909401929092525090919050565b604081525f6200633e6040830185620062ce565b8281036020840152620052298185620062ce565b5f6020828403121562006363575f80fd5b5051919050565b6001600160a01b039190911681526040602082018190525f9082015260600190565b5f608080830160018060a01b038089168552602060808187015282895180855260a08801915060a08160051b8901019450828b015f5b828110156200643457609f198a880301845281518681511688528581015189878a0152620063f38a8a018262005ad6565b90506040808301518a8303828c01526200640e838262005ad6565b6060948501518b169b9094019a909a5250909750509284019290840190600101620063c2565b50505050505083810360408501526200644e81876200608e565b9250505082606083015295945050505050565b634e487b7160e01b5f52603260045260245ffd5b5f6020828403121562006486575f80fd5b815162003605816200560f565b60a081525f620064a760a083018862005ad6565b8281036020840152620064bb818862005ad6565b6001600160a01b0396871660408501529490951660608301525060ff919091166080909101529392505050565b6001600160a01b03831681526040602082018190525f90620055e29083018462005ad6565b602081525f620036056020830184620062ce565b5f823560be1983360301811262006536575f80fd5b9190910192915050565b5f808335601e1984360301811262006556575f80fd5b8301803591506001600160401b0382111562006570575f80fd5b60200191503681900382131562006585575f80fd5b9250929050565b81835281816020850137505f828201602090810191909152601f909101601f19169091010190565b83815260606020820152823560608201525f6020840135601e19853603018112620065dd575f80fd5b84016020810190356001600160401b03811115620065f9575f80fd5b80360382131562006608575f80fd5b60c0608085015262006620610120850182846200658c565b915050620066316040860162005403565b6001600160a01b031660a08401526200664d6060860162005403565b6001600160a01b031660c0840152620066696080860162005403565b6001600160a01b031660e08401526200668560a0860162005403565b6001600160a01b03166101008401526040909201929092529392505050565b5f808335601e19843603018112620066ba575f80fd5b8301803591506001600160401b03821115620066d4575f80fd5b6020019150600581901b360382131562006585575f80fd5b5f8235607e1983360301811262006536575f80fd5b5f62003ead368362005b17565b5f62003605368484620057c5565b838152606060208201525f62006736606083018562005f84565b905060018060a01b0383166040830152949350505050565b602081525f620055e26020830184866200658c565b8181038181111562003ead5762003ead620061ae565b634e487b7160e01b5f52603160045260245ffd5b5f823560de1983360301811262006536575f80fd5b5f62003ead36836200572d565b6001600160a01b0397881681529590961660208601526040850193909352606084019190915260ff16608083015260a082015260c081019190915260e00190565b5f6020828403121562006801575f80fd5b815162003605816200562b565b600181815b808511156200684e57815f1904821115620068325762006832620061ae565b808516156200684057918102915b93841c939080029062006813565b509250929050565b5f82620068665750600162003ead565b816200687457505f62003ead565b81600181146200688d57600281146200689857620068b8565b600191505062003ead565b60ff841115620068ac57620068ac620061ae565b50506001821b62003ead565b5060208310610133831016604e8410600b8410161715620068dd575081810a62003ead565b620068e983836200680e565b805f1904821115620068ff57620068ff620061ae565b029392505050565b5f6200360560ff84168362006856565b634e487b7160e01b5f52602160045260245ffd5b808202811582820484141762003ead5762003ead620061ae565b5f826200696057634e487b7160e01b5f52601260045260245ffd5b500490565b5f82516200653681846020870162005ab256fe60a060405234801561000f575f80fd5b506040516105a83803806105a883398101604081905261002e91610387565b818161003a828261004f565b506001600160a01b0316608052506104769050565b6100588261010c565b6040516001600160a01b038316907f1cf3b03a6cf19fa2baba4df148e9dcabedea7f8a5c07840e207e5c089be95d3e905f90a2805115610100576100fb826001600160a01b0316635c60da1b6040518163ffffffff1660e01b8152600401602060405180830381865afa1580156100d1573d5f803e3d5ffd5b505050506040513d601f19601f820116820180604052508101906100f59190610442565b8261021a565b505050565b61010861028d565b5050565b806001600160a01b03163b5f0361014657604051631933b43b60e21b81526001600160a01b03821660048201526024015b60405180910390fd5b807fa3f0ad74e5423aebfd80d3ef4346578335a9a72aeaee59ff6cb3582b35133d5080546001600160a01b0319166001600160a01b0392831617905560408051635c60da1b60e01b815290515f92841691635c60da1b9160048083019260209291908290030181865afa1580156101bf573d5f803e3d5ffd5b505050506040513d601f19601f820116820180604052508101906101e39190610442565b9050806001600160a01b03163b5f0361010857604051634c9c8ce360e01b81526001600160a01b038216600482015260240161013d565b60605f80846001600160a01b031684604051610236919061045b565b5f60405180830381855af49150503d805f811461026e576040519150601f19603f3d011682016040523d82523d5f602084013e610273565b606091505b5090925090506102848583836102ae565b95945050505050565b34156102ac5760405163b398979f60e01b815260040160405180910390fd5b565b6060826102c3576102be8261030d565b610306565b81511580156102da57506001600160a01b0384163b155b1561030357604051639996b31560e01b81526001600160a01b038516600482015260240161013d565b50805b9392505050565b80511561031d5780518082602001fd5b60405163d6bda27560e01b815260040160405180910390fd5b80516001600160a01b038116811461034c575f80fd5b919050565b634e487b7160e01b5f52604160045260245ffd5b5f5b8381101561037f578181015183820152602001610367565b50505f910152565b5f8060408385031215610398575f80fd5b6103a183610336565b60208401519092506001600160401b03808211156103bd575f80fd5b818501915085601f8301126103d0575f80fd5b8151818111156103e2576103e2610351565b604051601f8201601f19908116603f0116810190838211818310171561040a5761040a610351565b81604052828152886020848701011115610422575f80fd5b610433836020830160208801610365565b80955050505050509250929050565b5f60208284031215610452575f80fd5b61030682610336565b5f825161046c818460208701610365565b9190910192915050565b60805161011b61048d5f395f601d015261011b5ff3fe6080604052600a600c565b005b60186014601a565b609d565b565b5f7f00000000000000000000000000000000000000000000000000000000000000006001600160a01b0316635c60da1b6040518163ffffffff1660e01b8152600401602060405180830381865afa1580156076573d5f803e3d5ffd5b505050506040513d601f19601f820116820180604052508101906098919060ba565b905090565b365f80375f80365f845af43d5f803e80801560b6573d5ff35b3d5ffd5b5f6020828403121560c9575f80fd5b81516001600160a01b038116811460de575f80fd5b939250505056fea2646970667358221220463051bc565486b78d20466cf8d3347387dcc0893c78b8618c818ffd87132f7b64736f6c63430008180033360894a13ba1a3210667c828492db98dca3e2076cc3735a920a3ca505d382bbc9b779b17422d0df92223018b32b4d1fa46e071723d6817e2486d003becc55f00a2646970667358221220513d918dbe95efe2cf44f4c0d2ab91425e44066e2196a887a99cadd452301e9064736f6c63430008180033",
  "linkReferences": {},
  "deployedLinkReferences": {}
}