{
  "_format": "hh-sol-artifact-1",
  "contractName": "Bridge",
  "sourceName": "contracts/Bridge.sol",
  "abi": [
    {
      "inputs": [
        {
          "internalType": "address",
          "name": "target",
          "type": "address"
        }
      ],
      "name": "AddressEmptyCode",
      "type": "error"
    },
    {
      "inputs": [],
      "name": "ECDSAInvalidSignature",
      "type": "error"
    },
    {
      "inputs": [
        {
          "internalType": "uint256",
          "name": "length",
          "type": "uint256"
        }
      ],
      "name": "ECDSAInvalidSignatureLength",
      "type": "error"
    },
    {
      "inputs": [
        {
          "internalType": "bytes32",
          "name": "s",
          "type": "bytes32"
        }
      ],
      "name": "ECDSAInvalidSignatureS",
      "type": "error"
    },
    {
      "inputs": [
        {
          "internalType": "address",
          "name": "implementation",
          "type": "address"
        }
      ],
      "name": "ERC1967InvalidImplementation",
      "type": "error"
    },
    {
      "inputs": [],
      "name": "ERC1967NonPayable",
      "type": "error"
    },
    {
      "inputs": [],
      "name": "FailedCall",
      "type": "error"
    },
    {
      "inputs": [],
      "name": "InvalidInitialization",
      "type": "error"
    },
    {
      "inputs": [],
      "name": "NotInitializing",
      "type": "error"
    },
    {
      "inputs": [
        {
          "internalType": "address",
          "name": "owner",
          "type": "address"
        }
      ],
      "name": "OwnableInvalidOwner",
      "type": "error"
    },
    {
      "inputs": [
        {
          "internalType": "address",
          "name": "account",
          "type": "address"
        }
      ],
      "name": "OwnableUnauthorizedAccount",
      "type": "error"
    },
    {
      "inputs": [],
      "name": "ReentrancyGuardReentrantCall",
      "type": "error"
    },
    {
      "inputs": [],
      "name": "UUPSUnauthorizedCallContext",
      "type": "error"
    },
    {
      "inputs": [
        {
          "internalType": "bytes32",
          "name": "slot",
          "type": "bytes32"
        }
      ],
      "name": "UUPSUnsupportedProxiableUUID",
      "type": "error"
    },
    {
      "anonymous": false,
      "inputs": [
        {
          "indexed": false,
          "internalType": "bytes32",
          "name": "hash",
          "type": "bytes32"
        },
        {
          "indexed": false,
          "internalType": "address",
          "name": "recovered",
          "type": "address"
        },
        {
          "indexed": false,
          "internalType": "address",
          "name": "expected",
          "type": "address"
        }
      ],
      "name": "DebugSignature",
      "type": "event"
    },
    {
      "anonymous": false,
      "inputs": [
        {
          "indexed": false,
          "internalType": "string",
          "name": "step",
          "type": "string"
        },
        {
          "indexed": false,
          "internalType": "uint256",
          "name": "value",
          "type": "uint256"
        }
      ],
      "name": "DebugStep",
      "type": "event"
    },
    {
      "anonymous": false,
      "inputs": [
        {
          "indexed": true,
          "internalType": "address",
          "name": "from",
          "type": "address"
        },
        {
          "indexed": true,
          "internalType": "address",
          "name": "to",
          "type": "address"
        },
        {
          "indexed": false,
          "internalType": "uint256",
          "name": "amount",
          "type": "uint256"
        }
      ],
      "name": "EthTransferred",
      "type": "event"
    },
    {
      "anonymous": false,
      "inputs": [
        {
          "indexed": true,
          "internalType": "address",
          "name": "token",
          "type": "address"
        },
        {
          "indexed": false,
          "internalType": "uint256",
          "name": "amount",
          "type": "uint256"
        }
      ],
      "name": "FeesCollected",
      "type": "event"
    },
    {
      "anonymous": false,
      "inputs": [
        {
          "indexed": false,
          "internalType": "uint64",
          "name": "version",
          "type": "uint64"
        }
      ],
      "name": "Initialized",
      "type": "event"
    },
    {
      "anonymous": false,
      "inputs": [
        {
          "indexed": true,
          "internalType": "address",
          "name": "previousOwner",
          "type": "address"
        },
        {
          "indexed": true,
          "internalType": "address",
          "name": "newOwner",
          "type": "address"
        }
      ],
      "name": "OwnershipTransferred",
      "type": "event"
    },
    {
      "anonymous": false,
      "inputs": [
        {
          "indexed": true,
          "internalType": "address",
          "name": "user",
          "type": "address"
        },
        {
          "indexed": true,
          "internalType": "address",
          "name": "originalToken",
          "type": "address"
        },
        {
          "indexed": false,
          "internalType": "uint256",
          "name": "amount",
          "type": "uint256"
        }
      ],
      "name": "TokensLocked",
      "type": "event"
    },
    {
      "anonymous": false,
      "inputs": [
        {
          "indexed": true,
          "internalType": "address",
          "name": "wrappedToken",
          "type": "address"
        },
        {
          "indexed": true,
          "internalType": "address",
          "name": "user",
          "type": "address"
        },
        {
          "indexed": false,
          "internalType": "uint256",
          "name": "amount",
          "type": "uint256"
        }
      ],
      "name": "TokensMinted",
      "type": "event"
    },
    {
      "anonymous": false,
      "inputs": [
        {
          "indexed": true,
          "internalType": "address",
          "name": "user",
          "type": "address"
        },
        {
          "indexed": false,
          "internalType": "address",
          "name": "wrappedToken",
          "type": "address"
        },
        {
          "indexed": false,
          "internalType": "uint256",
          "name": "amount",
          "type": "uint256"
        }
      ],
      "name": "TokensWrapped",
      "type": "event"
    },
    {
      "anonymous": false,
      "inputs": [
        {
          "indexed": true,
          "internalType": "address",
          "name": "originalToken",
          "type": "address"
        },
        {
          "indexed": false,
          "internalType": "address",
          "name": "targetAddress",
          "type": "address"
        },
        {
          "indexed": false,
          "internalType": "uint256",
          "name": "amount",
          "type": "uint256"
        },
        {
          "indexed": true,
          "internalType": "address",
          "name": "user",
          "type": "address"
        }
      ],
      "name": "UnwrapCrossChain",
      "type": "event"
    },
    {
      "anonymous": false,
      "inputs": [
        {
          "indexed": true,
          "internalType": "address",
          "name": "implementation",
          "type": "address"
        }
      ],
      "name": "Upgraded",
      "type": "event"
    },
    {
      "inputs": [],
      "name": "FEE_CAP_USD",
      "outputs": [
        {
          "internalType": "uint256",
          "name": "",
          "type": "uint256"
        }
      ],
      "stateMutability": "view",
      "type": "function"
    },
    {
      "inputs": [],
      "name": "FEE_DENOMINATOR",
      "outputs": [
        {
          "internalType": "uint256",
          "name": "",
          "type": "uint256"
        }
      ],
      "stateMutability": "view",
      "type": "function"
    },
    {
      "inputs": [],
      "name": "UPGRADE_INTERFACE_VERSION",
      "outputs": [
        {
          "internalType": "string",
          "name": "",
          "type": "string"
        }
      ],
      "stateMutability": "view",
      "type": "function"
    },
    {
      "inputs": [
        {
          "internalType": "address",
          "name": "originalToken",
          "type": "address"
        },
        {
          "internalType": "address",
          "name": "wrappedToken",
          "type": "address"
        },
        {
          "internalType": "bool",
          "name": "_isCrossChain",
          "type": "bool"
        }
      ],
      "name": "addTokenPair",
      "outputs": [],
      "stateMutability": "nonpayable",
      "type": "function"
    },
    {
      "inputs": [],
      "name": "feeCollector",
      "outputs": [
        {
          "internalType": "address",
          "name": "",
          "type": "address"
        }
      ],
      "stateMutability": "view",
      "type": "function"
    },
    {
      "inputs": [],
      "name": "feePercentage",
      "outputs": [
        {
          "internalType": "uint256",
          "name": "",
          "type": "uint256"
        }
      ],
      "stateMutability": "view",
      "type": "function"
    },
    {
      "inputs": [
        {
          "internalType": "bytes",
          "name": "publicKey",
          "type": "bytes"
        }
      ],
      "name": "getAddressFromPublicKey",
      "outputs": [
        {
          "internalType": "address",
          "name": "",
          "type": "address"
        }
      ],
      "stateMutability": "pure",
      "type": "function"
    },
    {
      "inputs": [],
      "name": "getSupportedTokens",
      "outputs": [
        {
          "internalType": "address[]",
          "name": "",
          "type": "address[]"
        }
      ],
      "stateMutability": "view",
      "type": "function"
    },
    {
      "inputs": [
        {
          "internalType": "address",
          "name": "_keyLogRegistry",
          "type": "address"
        }
      ],
      "name": "initialize",
      "outputs": [],
      "stateMutability": "nonpayable",
      "type": "function"
    },
    {
      "inputs": [
        {
          "internalType": "address",
          "name": "",
          "type": "address"
        }
      ],
      "name": "isCrossChain",
      "outputs": [
        {
          "internalType": "bool",
          "name": "",
          "type": "bool"
        }
      ],
      "stateMutability": "view",
      "type": "function"
    },
    {
      "inputs": [],
      "name": "keyLogRegistry",
      "outputs": [
        {
          "internalType": "contract KeyLogRegistry",
          "name": "",
          "type": "address"
        }
      ],
      "stateMutability": "view",
      "type": "function"
    },
    {
      "inputs": [
        {
          "internalType": "address",
          "name": "",
          "type": "address"
        }
      ],
      "name": "nonces",
      "outputs": [
        {
          "internalType": "uint256",
          "name": "",
          "type": "uint256"
        }
      ],
      "stateMutability": "view",
      "type": "function"
    },
    {
      "inputs": [
        {
          "internalType": "address",
          "name": "",
          "type": "address"
        }
      ],
      "name": "originalToWrapped",
      "outputs": [
        {
          "internalType": "address",
          "name": "",
          "type": "address"
        }
      ],
      "stateMutability": "view",
      "type": "function"
    },
    {
      "inputs": [],
      "name": "owner",
      "outputs": [
        {
          "internalType": "address",
          "name": "",
          "type": "address"
        }
      ],
      "stateMutability": "view",
      "type": "function"
    },
    {
      "inputs": [
        {
          "internalType": "bytes32",
          "name": "",
          "type": "bytes32"
        }
      ],
      "name": "processedLocks",
      "outputs": [
        {
          "internalType": "bool",
          "name": "",
          "type": "bool"
        }
      ],
      "stateMutability": "view",
      "type": "function"
    },
    {
      "inputs": [],
      "name": "proxiableUUID",
      "outputs": [
        {
          "internalType": "bytes32",
          "name": "",
          "type": "bytes32"
        }
      ],
      "stateMutability": "view",
      "type": "function"
    },
    {
      "inputs": [
        {
          "internalType": "bytes",
          "name": "publicKey",
          "type": "bytes"
        },
        {
          "internalType": "address",
          "name": "publicKeyHash",
          "type": "address"
        },
        {
          "internalType": "address",
          "name": "prerotatedKeyHash",
          "type": "address"
        },
        {
          "internalType": "address",
          "name": "twicePrerotatedKeyHash",
          "type": "address"
        },
        {
          "internalType": "address",
          "name": "prevPublicKeyHash",
          "type": "address"
        },
        {
          "internalType": "address",
          "name": "outputAddress",
          "type": "address"
        },
        {
          "internalType": "bool",
          "name": "hasRelationship",
          "type": "bool"
        }
      ],
      "name": "registerKeyWithTransfer",
      "outputs": [],
      "stateMutability": "payable",
      "type": "function"
    },
    {
      "inputs": [],
      "name": "relayer",
      "outputs": [
        {
          "internalType": "address",
          "name": "",
          "type": "address"
        }
      ],
      "stateMutability": "view",
      "type": "function"
    },
    {
      "inputs": [],
      "name": "renounceOwnership",
      "outputs": [],
      "stateMutability": "nonpayable",
      "type": "function"
    },
    {
      "inputs": [
        {
          "internalType": "address",
          "name": "_feeCollector",
          "type": "address"
        }
      ],
      "name": "setFeeCollector",
      "outputs": [],
      "stateMutability": "nonpayable",
      "type": "function"
    },
    {
      "inputs": [
        {
          "internalType": "uint256",
          "name": "_feePercentage",
          "type": "uint256"
        }
      ],
      "name": "setFeePercentage",
      "outputs": [],
      "stateMutability": "nonpayable",
      "type": "function"
    },
    {
      "inputs": [
        {
          "internalType": "address",
          "name": "_relayer",
          "type": "address"
        }
      ],
      "name": "setRelayer",
      "outputs": [],
      "stateMutability": "nonpayable",
      "type": "function"
    },
    {
      "inputs": [
        {
          "internalType": "address",
          "name": "token",
          "type": "address"
        },
        {
          "internalType": "address",
          "name": "priceFeed",
          "type": "address"
        }
      ],
      "name": "setTokenPriceFeed",
      "outputs": [],
      "stateMutability": "nonpayable",
      "type": "function"
    },
    {
      "inputs": [
        {
          "internalType": "uint256",
          "name": "",
          "type": "uint256"
        }
      ],
      "name": "supportedOriginalTokens",
      "outputs": [
        {
          "internalType": "address",
          "name": "",
          "type": "address"
        }
      ],
      "stateMutability": "view",
      "type": "function"
    },
    {
      "inputs": [
        {
          "internalType": "address",
          "name": "",
          "type": "address"
        }
      ],
      "name": "tokenPriceFeeds",
      "outputs": [
        {
          "internalType": "contract AggregatorV3Interface",
          "name": "",
          "type": "address"
        }
      ],
      "stateMutability": "view",
      "type": "function"
    },
    {
      "inputs": [
        {
          "internalType": "address",
          "name": "newOwner",
          "type": "address"
        }
      ],
      "name": "transferOwnership",
      "outputs": [],
      "stateMutability": "nonpayable",
      "type": "function"
    },
    {
      "inputs": [
        {
          "internalType": "address",
          "name": "wrappedToken",
          "type": "address"
        },
        {
          "components": [
            {
              "internalType": "uint256",
              "name": "amount",
              "type": "uint256"
            },
            {
              "internalType": "bytes",
              "name": "signature",
              "type": "bytes"
            },
            {
              "internalType": "bytes",
              "name": "publicKey",
              "type": "bytes"
            },
            {
              "internalType": "address",
              "name": "prerotatedKeyHash",
              "type": "address"
            },
            {
              "internalType": "address",
              "name": "twicePrerotatedKeyHash",
              "type": "address"
            },
            {
              "internalType": "address",
              "name": "prevPublicKeyHash",
              "type": "address"
            },
            {
              "internalType": "address",
              "name": "targetAddress",
              "type": "address"
            },
            {
              "internalType": "bool",
              "name": "hasRelationship",
              "type": "bool"
            },
            {
              "components": [
                {
                  "internalType": "address",
                  "name": "token",
                  "type": "address"
                },
                {
                  "internalType": "uint256",
                  "name": "amount",
                  "type": "uint256"
                },
                {
                  "internalType": "uint256",
                  "name": "deadline",
                  "type": "uint256"
                },
                {
                  "internalType": "uint8",
                  "name": "v",
                  "type": "uint8"
                },
                {
                  "internalType": "bytes32",
                  "name": "r",
                  "type": "bytes32"
                },
                {
                  "internalType": "bytes32",
                  "name": "s",
                  "type": "bytes32"
                }
              ],
              "internalType": "struct Bridge.PermitData[]",
              "name": "permits",
              "type": "tuple[]"
            }
          ],
          "internalType": "struct Bridge.UnwrapParams",
          "name": "unconfirmed",
          "type": "tuple"
        },
        {
          "components": [
            {
              "internalType": "uint256",
              "name": "amount",
              "type": "uint256"
            },
            {
              "internalType": "bytes",
              "name": "signature",
              "type": "bytes"
            },
            {
              "internalType": "bytes",
              "name": "publicKey",
              "type": "bytes"
            },
            {
              "internalType": "address",
              "name": "prerotatedKeyHash",
              "type": "address"
            },
            {
              "internalType": "address",
              "name": "twicePrerotatedKeyHash",
              "type": "address"
            },
            {
              "internalType": "address",
              "name": "prevPublicKeyHash",
              "type": "address"
            },
            {
              "internalType": "address",
              "name": "targetAddress",
              "type": "address"
            },
            {
              "internalType": "bool",
              "name": "hasRelationship",
              "type": "bool"
            },
            {
              "components": [
                {
                  "internalType": "address",
                  "name": "token",
                  "type": "address"
                },
                {
                  "internalType": "uint256",
                  "name": "amount",
                  "type": "uint256"
                },
                {
                  "internalType": "uint256",
                  "name": "deadline",
                  "type": "uint256"
                },
                {
                  "internalType": "uint8",
                  "name": "v",
                  "type": "uint8"
                },
                {
                  "internalType": "bytes32",
                  "name": "r",
                  "type": "bytes32"
                },
                {
                  "internalType": "bytes32",
                  "name": "s",
                  "type": "bytes32"
                }
              ],
              "internalType": "struct Bridge.PermitData[]",
              "name": "permits",
              "type": "tuple[]"
            }
          ],
          "internalType": "struct Bridge.UnwrapParams",
          "name": "confirming",
          "type": "tuple"
        }
      ],
      "name": "unwrapPairWithTransfer",
      "outputs": [],
      "stateMutability": "payable",
      "type": "function"
    },
    {
      "inputs": [
        {
          "internalType": "address",
          "name": "newImplementation",
          "type": "address"
        },
        {
          "internalType": "bytes",
          "name": "data",
          "type": "bytes"
        }
      ],
      "name": "upgradeToAndCall",
      "outputs": [],
      "stateMutability": "payable",
      "type": "function"
    },
    {
      "inputs": [
        {
          "internalType": "address",
          "name": "originalToken",
          "type": "address"
        },
        {
          "components": [
            {
              "internalType": "uint256",
              "name": "amount",
              "type": "uint256"
            },
            {
              "internalType": "bytes",
              "name": "signature",
              "type": "bytes"
            },
            {
              "internalType": "bytes",
              "name": "publicKey",
              "type": "bytes"
            },
            {
              "internalType": "address",
              "name": "prerotatedKeyHash",
              "type": "address"
            },
            {
              "internalType": "address",
              "name": "twicePrerotatedKeyHash",
              "type": "address"
            },
            {
              "internalType": "address",
              "name": "prevPublicKeyHash",
              "type": "address"
            },
            {
              "internalType": "address",
              "name": "outputAddress",
              "type": "address"
            },
            {
              "internalType": "bool",
              "name": "hasRelationship",
              "type": "bool"
            },
            {
              "internalType": "address",
              "name": "tokenSource",
              "type": "address"
            },
            {
              "components": [
                {
                  "internalType": "address",
                  "name": "token",
                  "type": "address"
                },
                {
                  "internalType": "uint256",
                  "name": "amount",
                  "type": "uint256"
                },
                {
                  "internalType": "uint256",
                  "name": "deadline",
                  "type": "uint256"
                },
                {
                  "internalType": "uint8",
                  "name": "v",
                  "type": "uint8"
                },
                {
                  "internalType": "bytes32",
                  "name": "r",
                  "type": "bytes32"
                },
                {
                  "internalType": "bytes32",
                  "name": "s",
                  "type": "bytes32"
                }
              ],
              "internalType": "struct Bridge.PermitData[]",
              "name": "permits",
              "type": "tuple[]"
            }
          ],
          "internalType": "struct Bridge.WrapParams",
          "name": "unconfirmed",
          "type": "tuple"
        },
        {
          "components": [
            {
              "internalType": "uint256",
              "name": "amount",
              "type": "uint256"
            },
            {
              "internalType": "bytes",
              "name": "signature",
              "type": "bytes"
            },
            {
              "internalType": "bytes",
              "name": "publicKey",
              "type": "bytes"
            },
            {
              "internalType": "address",
              "name": "prerotatedKeyHash",
              "type": "address"
            },
            {
              "internalType": "address",
              "name": "twicePrerotatedKeyHash",
              "type": "address"
            },
            {
              "internalType": "address",
              "name": "prevPublicKeyHash",
              "type": "address"
            },
            {
              "internalType": "address",
              "name": "outputAddress",
              "type": "address"
            },
            {
              "internalType": "bool",
              "name": "hasRelationship",
              "type": "bool"
            },
            {
              "internalType": "address",
              "name": "tokenSource",
              "type": "address"
            },
            {
              "components": [
                {
                  "internalType": "address",
                  "name": "token",
                  "type": "address"
                },
                {
                  "internalType": "uint256",
                  "name": "amount",
                  "type": "uint256"
                },
                {
                  "internalType": "uint256",
                  "name": "deadline",
                  "type": "uint256"
                },
                {
                  "internalType": "uint8",
                  "name": "v",
                  "type": "uint8"
                },
                {
                  "internalType": "bytes32",
                  "name": "r",
                  "type": "bytes32"
                },
                {
                  "internalType": "bytes32",
                  "name": "s",
                  "type": "bytes32"
                }
              ],
              "internalType": "struct Bridge.PermitData[]",
              "name": "permits",
              "type": "tuple[]"
            }
          ],
          "internalType": "struct Bridge.WrapParams",
          "name": "confirming",
          "type": "tuple"
        }
      ],
      "name": "wrapPairWithTransfer",
      "outputs": [],
      "stateMutability": "payable",
      "type": "function"
    },
    {
      "inputs": [
        {
          "internalType": "address",
          "name": "",
          "type": "address"
        }
      ],
      "name": "wrappedToOriginal",
      "outputs": [
        {
          "internalType": "address",
          "name": "",
          "type": "address"
        }
      ],
      "stateMutability": "view",
      "type": "function"
    }
  ],
  "bytecode": "0x60a0806040523461002a5730608052613166908161003082396080518181816114cb01526115730152f35b600080fdfe610120604052600436101561001357600080fd5b600060c05260c0513560e01c806303f7550d1461193d578063081da8c11461190057806309765f53146118cd578063276c1ac014611886578063334976c71461173d5780634f1ef2861461153557806352d1902d146114b75780635f42be83146113395780636548e9bc146112f557806365d5079a1461087a578063674417ae1461081c578063715018a6146107ad5780637c0db610146107705780637ecebe00146107345780638406c0791461070a5780638da5cb5b146106d3578063a001ecdd146106b4578063a42dce801461062c578063a8bc3e0a146105eb578063ad3cb1cc14610578578063ae06c1b714610516578063b5057a7b146104eb578063bd9c47e3146104ae578063c415b95c14610484578063c4d66de8146102f3578063d3c7c2c714610227578063d73792a914610209578063d8397fd5146101c7578063f2fde38b146101985763f9baf7bf1461016d57600080fd5b346101925760c051366003190112610192576020604051683635c9adc5dea000008152f35b60c05180fd5b34610192576020366003190112610192576101c16101b461251d565b6101bc612e82565b612abe565b60c05180f35b3461019257602036600319011261019257600435600654811015610192576101f060209161262d565b905460405160039290921b1c6001600160a01b03168152f35b346101925760c0513660031901126101925760206040516127108152f35b346101925760c051366003190112610192576040518060065480835260208093018091600660c051527ff652222313e28459528d920b65115c16c04f3efc82aaedc97be59f3f377c0d3f9060c0515b868282106102d657868661028c8288038361255c565b604051928392818401908285525180915260408401929160c0515b8281106102b657505050500390f35b83516001600160a01b0316855286955093810193928101926001016102a7565b83546001600160a01b031685529093019260019283019201610276565b346101925760203660031901126101925761030c61251d565b7ff0c57e16840df040f15088dc2f81fe391c3923bec73e23a9662efc9c229c6a009081549060ff8260401c1615916001600160401b0381168015908161047c575b6001149081610472575b159081610469575b506104575767ffffffffffffffff198116600117845582610438575b50610384612f7c565b61038c612f7c565b61039533612abe565b61039d612f7c565b6103a5612f7c565b6103ad612f7c565b60016000805160206130f1833981519152556001600160601b0360a01b9060018060a01b03168160c05154161760c051553390600754161760075560016008556103f75760c05180f35b68ff00000000000000001981541690557fc7f505b2f371ae2175ee4913f4499e1f2633a7b5936321eed1cdaeb6115181d2602060405160018152a1806101c1565b68ffffffffffffffffff1916680100000000000000011783558361037b565b60405163f92ee8a960e01b8152600490fd5b9050158561035f565b303b159150610357565b84915061034d565b346101925760c051366003190112610192576007546040516001600160a01b039091168152602090f35b346101925760203660031901126101925760206001600160a01b03806104d261251d565b1660c05152600a8252604060c051205416604051908152f35b346101925760c0513660031901126101925760c051546040516001600160a01b039091168152602090f35b3461019257602036600319011261019257600435610532612e82565b61271081116105445760085560c05180f35b60405162461bcd60e51b815260206004820152600c60248201526b08ccaca40e8dede40d0d2ced60a31b6044820152606490fd5b346101925760c0513660031901126101925760405160408101908082106001600160401b038311176105d5576105d19160405260058152640352e302e360dc1b60208201526040519182916020835260208301906125ed565b0390f35b634e487b7160e01b600052604160045260246000fd5b34610192576020366003190112610192576001600160a01b0361060c61251d565b1660c051526004602052602060ff604060c0512054166040519015158152f35b346101925760203660031901126101925761064561251d565b61064d612e82565b6001600160a01b03168015610677576001600160601b0360a01b600754161760075560c05160c051f35b60405162461bcd60e51b815260206004820152601560248201527424b73b30b634b2103332b29031b7b63632b1ba37b960591b6044820152606490fd5b346101925760c051366003190112610192576020600854604051908152f35b346101925760c051366003190112610192576000805160206130d1833981519152546040516001600160a01b039091168152602090f35b346101925760c051366003190112610192576001546040516001600160a01b039091168152602090f35b34610192576020366003190112610192576001600160a01b0361075561251d565b1660c0515260056020526020604060c0512054604051908152f35b346101925760203660031901126101925760206001600160a01b038061079461251d565b1660c0515260038252604060c051205416604051908152f35b346101925760c051366003190112610192576107c7612e82565b6000805160206130d183398151915280546001600160a01b031981169091556000906001600160a01b03167f8be0079c531659141344cd1fd0a4f28419497f9722a3daafe3b4186f6b6457e08280a360c05180f35b346101925760403660031901126101925761083561251d565b61083d612533565b90610846612e82565b60c080516001600160a01b039283169052600a602052516040812080546001600160a01b0319169390921692909217905580f35b6003196060368201126101925761088f61251d565b906001600160401b03908160243511610192576101409182826024353603011261019257604435116101925760443536030112610192576108ce612b32565b60c080516001600160a01b03838116909152600260205290516040902054166108f881151561267a565b3360c051526005602052604060c05120549161091860c4602435016126c6565b604051610944816109368760208301956024356004013588886126da565b03601f19810183528261255c565b5190206000805160206130b183398151915260c05152601c526109a861099861098f603c60c051206109896109826024803501602435600401612707565b3691612598565b90612ebb565b90929192612ef7565b6001600160a01b03163314612739565b6109b660c4604435016126c6565b60018401841161118f576040516109e281610936602082019460018901906044356004013588886126da565b5190206000805160206130b183398151915260c05152601c52610a64610a2161098f603c60c05120610989610982602460443501604435600401612707565b610a4c610a51610a3a6044803501604435600401612707565b6001600160a01b039391369190612598565b612a18565b6001600160a01b03909216911614612785565b60443560040135602435600401350160243560040135116112df57610a9760443560040135602435600401350182612bd6565b90816044356004013560243560040135011061129a5760443560040135602435600401350115158061127f575b6111d6575b60c0515b610ae26101246024350160243560040161287f565b9050811015610cd857610b12610b0d82610b076101246024350160243560040161287f565b906128b4565b6128c4565b906020820180519283151580610cca575b610b34575b50506001915001610acd565b80516024356101040194906001600160a01b0316610b51866126c6565b9060408401519060ff6060860151169160808601519460a0870151833b156101925760405163d505accf60e01b815260c0516001600160a01b0390971660048201523060248201526044810192909252606482019290925260ff909316608484015260a483019490945260c4820193909352918290818060e48101039160c051905af18015610ca357610cb0575b5051610c4893602092916001600160a01b031690610bfc906126c6565b91610c0b6064604435016126c6565b90516040516323b872dd60e01b81526001600160a01b03948516600482015293909116602484015260448301529093849190829081906064820190565b039160c051905af1918215610ca357600192610c6d9160c05191610c74575b50612a7a565b8680610b28565b610c96915060203d602011610c9c575b610c8e818361255c565b81019061294c565b88610c67565b503d610c84565b6040513d60c051823e3d90fd5b610cbc90929192612549565b60c051610192579088610bdf565b506040810151421115610b23565b508360018060a01b0360c051541661098260446024350191610d13610a4c610d0585602435600401612707565b949095602435600401612707565b91610d226064602435016126c6565b93610d316084602435016126c6565b60a052610d4260a4602435016126c6565b610d5060c4602435016126c6565b610d5e60e4602435016127d1565b610d77610a4c6109826044803501604435600401612707565b610d856064604435016126c6565b610d936084604435016126c6565b91610da260a4604435016126c6565b93610db160c4604435016126c6565b95610dc060e4604435016127d1565b978b3b1561019257610df999604051608052635988f59760e01b6080515260c0519e6080519e6080519d60a051936004608051016127de565b03906080519060c051905af18015610ca3576111bd575b6000805160206130d1833981519152546001600160a01b031633146111a7575b6002810180911161118f573360c051526005602052604060c051205581151580611174575b6110c4575b5060243560040135610fee575b60046044350135811015610fe557610e85906044356004013561293f565b80610f1c575b505034610eab575b60016000805160206130f18339815191525560c05180f35b60c051610ed49080808034610ec46044356064016126c6565b5af1610ece6129a6565b506129d6565b6001600160a01b03610eea6044356064016126c6565b166040513481527ffb55a98b33e2f35080e8e9656caf739c56946219253f8cd86917f7d33398667660203392a3610e93565b610f2a6064604435016126c6565b823b15610192576040516340c10f1960e01b815260c0516001600160a01b0390921660048201526024810183905290818060448101038160c051875af18015610ca357610fcf575b507fb5187db8729022d088cc50f8b09bdeaec0ac84d7686d287a7dd82dc25704f7f3906001600160a01b03610fab6044356064016126c6565b604080516001600160a01b0396909616865260208601939093521692a28080610e8b565b610fd890612549565b60c0516101925782610f72565b5060c051610e85565b610ffc60c4602435016126c6565b823b15610192576040516340c10f1960e01b815260c0516001600160a01b039092166004808301919091526024803591909101359082015290818060448101038160c051875af18015610ca3576110ae575b506001600160a01b0361106560243560c4016126c6565b604080516001600160a01b038616815260243560040135602082015291909216917fb5187db8729022d088cc50f8b09bdeaec0ac84d7686d287a7dd82dc25704f7f391a2610e67565b6110b790612549565b60c051610192578261104e565b60075460405163a9059cbb60e01b81526001600160a01b0391821660048201526024810184905260c05190916020918391604491839187165af18015610ca3576111179160c05191611155575b50612964565b6040518281526001600160a01b03909116907f9dc46f23cfb5ddcad0ae7ea2be38d47fec07bb9382ec7e564efc69e036dd66ce90602090a282610e5a565b61116e915060203d602011610c9c57610c8e818361255c565b85611111565b508260c05152600460205260ff604060c05120541615610e55565b634e487b7160e01b60c051526011600452602460c051fd5b6111b86101b46064604435016126c6565b610e30565b6111c8608051612549565b60c05115610e105760c05180fd5b61123360206111ea610104602435016126c6565b6040516323b872dd60e01b81526001600160a01b039091166004808301919091523060248084019190915235810135604480359290920135019082015291829081906064820190565b038160c05160018060a01b0387165af18015610ca35761125b9160c051916112605750612a7a565b610ac9565b611279915060203d602011610c9c57610c8e818361255c565b86610c67565b508260c05152600460205260ff604060c05120541615610ac4565b60405162461bcd60e51b815260206004820152601b60248201527f416d6f756e7420746f6f206c6f7720746f20636f7665722066656500000000006044820152606490fd5b634e487b7160e01b600052601160045260246000fd5b346101925760203660031901126101925761130e61251d565b611316612e82565b60018060a01b03166001600160601b0360a01b600154161760015560c05160c051f35b60e0366003190112610192576004356001600160401b038111610192576113649036906004016125cf565b61136c612533565b6001600160a01b036044358181169392908490036114b257606435928284168094036114b257608435948386168096036114b25760a43594848616968787036114b25760c435918215158093036114b2576113c5612b32565b8660c051541693843b156101925760405163151cdb2f60e11b815260e060048201529788966113f89060e48901906125ed565b971660248701526044860152606485015260848401528660a484015260c4830152818060c05194039160c051905af18015610ca35761149c575b50346114505760016000805160206130f18339815191525560c05180f35b60c0516114699181908190819034905af1610ece6129a6565b6040513481527ffb55a98b33e2f35080e8e9656caf739c56946219253f8cd86917f7d33398667660203392a38080610e93565b6114a590612549565b60c0516101925782611432565b600080fd5b346101925760c051366003190112610192577f00000000000000000000000000000000000000000000000000000000000000006001600160a01b031630036115235760206040517f360894a13ba1a3210667c828492db98dca3e2076cc3735a920a3ca505d382bbc8152f35b60405163703e46dd60e11b8152600490fd5b60403660031901126101925761154961251d565b6024356001600160401b038111610192576115689036906004016125cf565b906001600160a01b037f0000000000000000000000000000000000000000000000000000000000000000811630811490811561170f575b50611523576115ac612e82565b8116916040516352d1902d60e01b8152602081600481875afa60c05191816116db575b506115ed57604051634c9c8ce360e01b815260048101859052602490fd5b7f360894a13ba1a3210667c828492db98dca3e2076cc3735a920a3ca505d382bbc908181036116c35750823b156116aa57836001600160601b0360a01b825416179055604051927fbc7cd75a20ee27fd9adebab32041f755214dbc6bffa90cc0225b39da2e5c2d3b60c05160c051a280511561168e57611687925060c0519060c05190602081519101845af46116816129a6565b9161304d565b5060c05180f35b50503461169b57506101c1565b63b398979f60e01b8152600490fd5b604051634c9c8ce360e01b815260048101859052602490fd5b60249060405190632a87526960e21b82526004820152fd5b9091506020813d602011611707575b816116f76020938361255c565b81010312610192575190856115cf565b3d91506116ea565b9050817f360894a13ba1a3210667c828492db98dca3e2076cc3735a920a3ca505d382bbc541614158461159f565b346101925760603660031901126101925761175661251d565b61175e612533565b6044358015158091036114b257611773612e82565b60018060a01b03809316918260c05152600260205283604060c051205416611841578260c05152600260205283604060c0512091166001600160601b0360a01b91818382541617905560c05152600360205282604060c05120918254161790556004602052604060c051209060ff80198354169116179055600654680100000000000000008110156118295780600161180f920160065561262d565b909283549160031b92831b921b191617905560c05160c051f35b634e487b7160e01b60c051526041600452602460c051fd5b60405162461bcd60e51b815260206004820152601960248201527f546f6b656e207061697220616c726561647920657869737473000000000000006044820152606490fd5b34610192576020366003190112610192576004356001600160401b038111610192576118bb610a4c60209236906004016125cf565b6040516001600160a01b039091168152f35b346101925760203660031901126101925760043560c051526009602052602060ff604060c0512054166040519015158152f35b346101925760203660031901126101925760206001600160a01b038061192461251d565b1660c0515260028252604060c051205416604051908152f35b6003196060368201126101925761195261251d565b906001600160401b0390816024351161019257610120918282602435360301126101925760443511610192576044353603011261019257611991612b32565b600080516020613111833981519152608060405160408152601c60408201527f537461727420756e7772617050616972576974685472616e7366657200000000606082015260c0516020820152a160c080516001600160a01b038381169091526003602052905160409020541690611a0a82151561267a565b6000805160206131118339815191526080604051604081526012604082015271151bdad95b881c185a5c8818da1958dad95960721b606082015260c0516020820152a13360c051526005602052604060c0512054600080516020613111833981519152608060405160408152600d60408201526c139bdb98d94819995d18da1959609a1b6060820152836020820152a1611aa860c4602435016126c6565b604051611ac6816109368560208301956024356004013589886126da565b5190206000805160206130b183398151915260c05152601c52611b6f611b377f7e6a49f35e3e07bf6b560eeb6ef6c8b821c4499a2a6301de6547ab58b52b0be5611b5c603c60c05120611b2e611b286109826024803501602435600401612707565b82612ebb565b90959195612ef7565b604080519182526001600160a01b038516602083015233908201529081906060820190565b0390a16001600160a01b03163314612739565b611b7d60c4604435016126c6565b60018201821161118f57604051611ba981610936602082019460018701906044356004013589886126da565b5190206000805160206130b183398151915260c05152601c52611c65611bf1603c60c05120611be8611b28610982602460443501604435600401612707565b90939193612ef7565b7f7e6a49f35e3e07bf6b560eeb6ef6c8b821c4499a2a6301de6547ab58b52b0be582611c2c610a4c6109826044803501604435600401612707565b604080519485526001600160a01b0392831660208601529181169184019190915291606090a16001600160a01b03918216911614612785565b60008051602061311183398151915260806040516040815260146040820152735265676973746572696e67206b6579206c6f677360601b606082015260c0516020820152a160018060a01b0360c051541661098260446024350191611cd5610a4c610d0585602435600401612707565b91611ce46064602435016126c6565b93611cf36084602435016126c6565b61010052611d0560a4602435016126c6565b611d1360c4602435016126c6565b611d2160e4602435016127d1565b611d3a610a4c6109826044803501604435600401612707565b611d486064604435016126c6565b611d566084604435016126c6565b91611d6560a4604435016126c6565b93611d7460c4604435016126c6565b95611d8360e4604435016127d1565b978b3b1561019257611dbd9960405160e052635988f59760e01b60e0515260c0519e60e0519e60e0519d6101005193600460e051016127de565b039060e0519060c051905af18015610ca35761250d575b6000805160206130d1833981519152546001600160a01b031633146124f7575b60028101811161118f576002903360c05152600560205201604060c051205560c0515b611e2c6101046024350160243560040161287f565b9050811015611f7e57611e51610b0d82610b076101046024350160243560040161287f565b90602082015180151580611f70575b611e70575b506001915001611e17565b60018060a01b038351169060408401519160ff6060860151169060808601519160a087015194823b156101925760405163d505accf60e01b815260c080513360048401523060248401526044830197909752606482019290925260ff92909216608483015260a482019390935260c48101949094529051839160e49183915af18015610ca357611f5a575b506000805160206131118339815191526080600193848060a01b039051166040519060408252601a60408301527f5065726d69742070726f63657373656420666f7220746f6b656e00000000000060608301526020820152a184611e65565b611f6390612549565b60c0516101925784611efb565b506040830151421115611e60565b5090600080516020613111833981519152608060405160408152600e60408201526d4275726e696e6720746f6b656e7360901b6060820152602435600401356020820152a160243560040135156124a4576001600160a01b0382163b1561019257604051632770a7eb60e21b815260c08051336004808501919091526024803590910135908401529051829060449082906001600160a01b0388165af18015610ca35761248e575b506120376024356004013582612bd6565b906004602435013582101561248557612056826024356004013561293f565b915b60c080516001600160a01b0386169052600460205251604090205460ff161561230d57507fcca356c69c0991b2f138fe7c7f64cf9be89604118a06017a49e0001782bc65366120d26120ae6064604435016126c6565b604080516001600160a01b0390921682526020820195909552339490918291820190565b0390a35b600080516020613111833981519152608060405160408152601a60408201527f436865636b696e672072656d61696e696e672062616c616e6365000000000000606082015260c0516020820152a16040516370a0823160e01b81523360048201526020816024816001600160a01b0386165afa908115610ca35760c051916122db575b50600080516020613111833981519152608060405160408152601160408201527052656d61696e696e672062616c616e636560781b6060820152836020820152a1806121be57505034610eab5760016000805160206130f18339815191525560c05180f35b6122096020826121d26064604435016126c6565b6040516323b872dd60e01b81523360048201526001600160a01b039091166024820152604481019190915291829081906064820190565b038160c05160018060a01b0388165af1908115610ca35760c051916122bc575b5015612267577fb5187db8729022d088cc50f8b09bdeaec0ac84d7686d287a7dd82dc25704f7f3906001600160a01b03610fab6044356064016126c6565b60405162461bcd60e51b815260206004820152602760248201527f52656d61696e696e67207772617070656420746f6b656e207472616e736665726044820152660819985a5b195960ca1b6064820152608490fd5b6122d5915060203d602011610c9c57610c8e818361255c565b83612229565b90506020813d602011612305575b816122f66020938361255c565b81010312610192575182612159565b3d91506122e9565b806123e6575b5081612321575b50506120d6565b61236b916020916123366064604435016126c6565b60405163a9059cbb60e01b81526001600160a01b03909116600482015260248101929092529092839190829081906044820190565b039160c051905af1908115610ca35760c051916123c7575b501561239057818061231a565b60405162461bcd60e51b815260206004820152600f60248201526e151c985b9cd9995c8819985a5b1959608a1b6044820152606490fd5b6123e0915060203d602011610c9c57610c8e818361255c565b82612383565b60075460405163a9059cbb60e01b81526001600160a01b039091166004820152602481018290526020818060448101038160c051875af18015610ca357839261245b6020927f9dc46f23cfb5ddcad0ae7ea2be38d47fec07bb9382ec7e564efc69e036dd66ce9460c051916124685750612964565b604051908152a283612313565b61247f9150843d8611610c9c57610c8e818361255c565b89611111565b60c05191612058565b61249790612549565b60c0516101925782612026565b60405162461bcd60e51b815260206004820152602560248201527f4275726e20616d6f756e74206d7573742062652067726561746572207468616e604482015264207a65726f60d81b6064820152608490fd5b6125086101b46064604435016126c6565b611df4565b61251860e051612549565b611dd4565b600435906001600160a01b03821682036114b257565b602435906001600160a01b03821682036114b257565b6001600160401b0381116105d557604052565b90601f801991011681019081106001600160401b038211176105d557604052565b6001600160401b0381116105d557601f01601f191660200190565b9291926125a48261257d565b916125b2604051938461255c565b8294818452818301116114b2578281602093846000960137010152565b9080601f830112156114b2578160206125ea93359101612598565b90565b919082519283825260005b848110612619575050826000602080949584010152601f8019910116010190565b6020818301810151848301820152016125f8565b6006548110156126645760066000527ff652222313e28459528d920b65115c16c04f3efc82aaedc97be59f3f377c0d3f0190600090565b634e487b7160e01b600052603260045260246000fd5b1561268157565b60405162461bcd60e51b815260206004820152601860248201527f546f6b656e2070616972206e6f7420737570706f7274656400000000000000006044820152606490fd5b356001600160a01b03811681036114b25790565b92606894926001600160601b0319809360601b168552601485015260601b16603483015260488201520190565b903590601e19813603018212156114b257018035906001600160401b0382116114b2576020019181360383136114b257565b1561274057565b60405162461bcd60e51b815260206004820152601d60248201527f496e76616c696420756e636f6e6669726d6564207369676e61747572650000006044820152606490fd5b1561278c57565b60405162461bcd60e51b815260206004820152601c60248201527f496e76616c696420636f6e6669726d696e67207369676e6174757265000000006044820152606490fd5b3580151581036114b25790565b9c999394969a959891979e9d9b978091818f816101a08083528201526101c094859384830137010160009052601f1990601f01168d01019d8c600160a01b60019003809c81809c81809c81809c81809c1660208a0152166040880152166060860152166080840152169060a00152151560c08d01521660e08b0152166101008901521661012087015216610140850152166101608301521515906101800152565b903590601e19813603018212156114b257018035906001600160401b0382116114b2576020019160c08202360383136114b257565b91908110156126645760c0020190565b60c0813603126114b2576040519060c082018281106001600160401b038211176105d55760405280356001600160a01b03811681036114b2578252602081013560208301526040810135604083015260608101359060ff821682036114b25760a091606084015260808101356080840152013560a082015290565b919082039182116112df57565b908160209103126114b2575180151581036114b25790565b1561296b57565b60405162461bcd60e51b8152602060048201526013602482015272119959481d1c985b9cd9995c8819985a5b1959606a1b6044820152606490fd5b3d156129d1573d906129b78261257d565b916129c5604051938461255c565b82523d6000602084013e565b606090565b156129dd57565b60405162461bcd60e51b8152602060048201526013602482015272115512081d1c985b9cd9995c8819985a5b1959606a1b6044820152606490fd5b6040815103612a355780516020909101206001600160a01b031690565b60405162461bcd60e51b815260206004820152601b60248201527f5075626c6963206b6579206d75737420626520363420627974657300000000006044820152606490fd5b15612a8157565b60405162461bcd60e51b8152602060048201526015602482015274151bdad95b881d1c985b9cd9995c8819985a5b1959605a1b6044820152606490fd5b6001600160a01b03908116908115612b19576000805160206130d183398151915280546001600160a01b031981168417909155167f8be0079c531659141344cd1fd0a4f28419497f9722a3daafe3b4186f6b6457e0600080a3565b604051631e4fbdf760e01b815260006004820152602490fd5b6000805160206130f18339815191526002815414612b505760029055565b604051633ee5aeb560e01b8152600490fd5b818102929181159184041417156112df57565b8115612b7f570490565b634e487b7160e01b600052601260045260246000fd5b519069ffffffffffffffffffff821682036114b257565b908160209103126114b2575160ff811681036114b25790565b60ff16604d81116112df57600a0a90565b90612be76127109160085490612b62565b0460018060a01b0380921660009281845260049060209180835260409160ff838820541615612c1b575b5050505050905090565b600a84528287205416938415612c11578251633fabe5a360e21b81529360a0858481895afa948515612e78578895612e26575b5087851315612def578351958187858163313ce56760e01b948582525afa968715612de5578997612dc4575b5081908486518095819382525afa938415612dbb57508793612d8c575b505060ff683635c9adc5dea00000921660128111600014612d2a57601119019060ff8211612d17575090612ccd612cd392612bc5565b90612b62565b915b60ff811615612d0757612cf392612ccd612cee92612bc5565b612b75565b915b5081811115612d02575090565b905090565b50612d1191612b75565b91612cf5565b634e487b7160e01b875260119052602486fd5b60128195939510612d3d575b5050612cd5565b6012949192940360ff8111612d7957612d5590612bc5565b918215612d66575004913880612d36565b634e487b7160e01b875260129052602486fd5b634e487b7160e01b875260118352602487fd5b612dac929350803d10612db4575b612da4818361255c565b810190612bac565b903880612c97565b503d612d9a565b513d89823e3d90fd5b82919750612dde90823d8411612db457612da4818361255c565b9690612c7a565b85513d8b823e3d90fd5b9050606492519162461bcd60e51b83528201526012602482015271125b9d985b1a59081c1c9a58d9481999595960721b6044820152fd5b90945060a0813d60a011612e70575b81612e4260a0938361255c565b81010312612e6c57612e5381612b95565b50612e646080868301519201612b95565b509338612c4e565b8780fd5b3d9150612e35565b84513d8a823e3d90fd5b6000805160206130d1833981519152546001600160a01b03163303612ea357565b60405163118cdaa760e01b8152336004820152602490fd5b8151919060418303612eec57612ee592506020820151906060604084015193015160001a90612fbd565b9192909190565b505060009160029190565b6004811015612f665780612f09575050565b60018103612f235760405163f645eedf60e01b8152600490fd5b60028103612f445760405163fce698f760e01b815260048101839052602490fd5b600314612f4e5750565b602490604051906335e2f38360e21b82526004820152fd5b634e487b7160e01b600052602160045260246000fd5b60ff7ff0c57e16840df040f15088dc2f81fe391c3923bec73e23a9662efc9c229c6a005460401c1615612fab57565b604051631afcd79f60e31b8152600490fd5b91907f7fffffffffffffffffffffffffffffff5d576e7357a4501ddfe92f46681b20a0841161304157926020929160ff608095604051948552168484015260408301526060820152600092839182805260015afa156130355780516001600160a01b0381161561302c57918190565b50809160019190565b604051903d90823e3d90fd5b50505060009160039190565b90613074575080511561306257805190602001fd5b60405163d6bda27560e01b8152600490fd5b815115806130a7575b613085575090565b604051639996b31560e01b81526001600160a01b039091166004820152602490fd5b50803b1561307d56fe19457468657265756d205369676e6564204d6573736167653a0a3332000000009016d09d72d40fdae2fd8ceac6b6234c7706214fd39c1cd1e609a0528c1993009b779b17422d0df92223018b32b4d1fa46e071723d6817e2486d003becc55f003f8b99da4d19c05414499f4a5f0607e7204caf30eba8c8eac2445f1157102fd3a2646970667358221220e5020feed6a702cfde371ec1eff778893ce1237e9a687a199caa68133ddb8e3c64736f6c63430008180033",
  "linkReferences": {},
  "deployedLinkReferences": {}
}