{
  "_format": "hh-sol-artifact-1",
  "contractName": "Bridge",
  "sourceName": "contracts/Bridge.sol",
  "abi": [
    {
      "inputs": [
        {
          "internalType": "address",
          "name": "target",
          "type": "address"
        }
      ],
      "name": "AddressEmptyCode",
      "type": "error"
    },
    {
      "inputs": [],
      "name": "AmountTooLow",
      "type": "error"
    },
    {
      "inputs": [],
      "name": "BurnAmountZero",
      "type": "error"
    },
    {
      "inputs": [],
      "name": "ECDSAInvalidSignature",
      "type": "error"
    },
    {
      "inputs": [
        {
          "internalType": "uint256",
          "name": "length",
          "type": "uint256"
        }
      ],
      "name": "ECDSAInvalidSignatureLength",
      "type": "error"
    },
    {
      "inputs": [
        {
          "internalType": "bytes32",
          "name": "s",
          "type": "bytes32"
        }
      ],
      "name": "ECDSAInvalidSignatureS",
      "type": "error"
    },
    {
      "inputs": [
        {
          "internalType": "address",
          "name": "implementation",
          "type": "address"
        }
      ],
      "name": "ERC1967InvalidImplementation",
      "type": "error"
    },
    {
      "inputs": [],
      "name": "ERC1967NonPayable",
      "type": "error"
    },
    {
      "inputs": [],
      "name": "EthTransferFailed",
      "type": "error"
    },
    {
      "inputs": [],
      "name": "FailedCall",
      "type": "error"
    },
    {
      "inputs": [],
      "name": "FeeTransferFailed",
      "type": "error"
    },
    {
      "inputs": [],
      "name": "InsufficientAllowance",
      "type": "error"
    },
    {
      "inputs": [],
      "name": "InsufficientBalance",
      "type": "error"
    },
    {
      "inputs": [
        {
          "internalType": "address",
          "name": "token",
          "type": "address"
        }
      ],
      "name": "InsufficientPermits",
      "type": "error"
    },
    {
      "inputs": [],
      "name": "InvalidFeeCollector",
      "type": "error"
    },
    {
      "inputs": [],
      "name": "InvalidFeeRate",
      "type": "error"
    },
    {
      "inputs": [],
      "name": "InvalidInitialization",
      "type": "error"
    },
    {
      "inputs": [],
      "name": "InvalidOwnershipTransfer",
      "type": "error"
    },
    {
      "inputs": [],
      "name": "InvalidPermits",
      "type": "error"
    },
    {
      "inputs": [],
      "name": "InvalidPrerotatedKeyHash",
      "type": "error"
    },
    {
      "inputs": [],
      "name": "InvalidPublicKey",
      "type": "error"
    },
    {
      "inputs": [],
      "name": "InvalidRecipientAmount",
      "type": "error"
    },
    {
      "inputs": [],
      "name": "InvalidRecipientForNonMatchingSigner",
      "type": "error"
    },
    {
      "inputs": [],
      "name": "InvalidSignature",
      "type": "error"
    },
    {
      "inputs": [],
      "name": "MissingPermit",
      "type": "error"
    },
    {
      "inputs": [],
      "name": "NoTokenPairs",
      "type": "error"
    },
    {
      "inputs": [],
      "name": "NotInitializing",
      "type": "error"
    },
    {
      "inputs": [
        {
          "internalType": "address",
          "name": "contractAddress",
          "type": "address"
        }
      ],
      "name": "NotOwnerOfTarget",
      "type": "error"
    },
    {
      "inputs": [
        {
          "internalType": "address",
          "name": "owner",
          "type": "address"
        }
      ],
      "name": "OwnableInvalidOwner",
      "type": "error"
    },
    {
      "inputs": [
        {
          "internalType": "address",
          "name": "account",
          "type": "address"
        }
      ],
      "name": "OwnableUnauthorizedAccount",
      "type": "error"
    },
    {
      "inputs": [],
      "name": "PermitDeadlineExpired",
      "type": "error"
    },
    {
      "inputs": [],
      "name": "ReentrancyGuardReentrantCall",
      "type": "error"
    },
    {
      "inputs": [
        {
          "internalType": "address",
          "name": "token",
          "type": "address"
        }
      ],
      "name": "SafeERC20FailedOperation",
      "type": "error"
    },
    {
      "inputs": [],
      "name": "TokenPairExists",
      "type": "error"
    },
    {
      "inputs": [],
      "name": "TokenPairNotSupported",
      "type": "error"
    },
    {
      "inputs": [],
      "name": "TransferFailed",
      "type": "error"
    },
    {
      "inputs": [],
      "name": "UUPSUnauthorizedCallContext",
      "type": "error"
    },
    {
      "inputs": [
        {
          "internalType": "bytes32",
          "name": "slot",
          "type": "bytes32"
        }
      ],
      "name": "UUPSUnsupportedProxiableUUID",
      "type": "error"
    },
    {
      "inputs": [
        {
          "internalType": "address",
          "name": "contractAddress",
          "type": "address"
        },
        {
          "internalType": "string",
          "name": "reason",
          "type": "string"
        }
      ],
      "name": "UpgradeFailed",
      "type": "error"
    },
    {
      "inputs": [],
      "name": "ZeroAddress",
      "type": "error"
    },
    {
      "anonymous": false,
      "inputs": [
        {
          "indexed": true,
          "internalType": "address",
          "name": "user",
          "type": "address"
        },
        {
          "indexed": true,
          "internalType": "address",
          "name": "wrappedToken",
          "type": "address"
        },
        {
          "indexed": true,
          "internalType": "uint256",
          "name": "amount",
          "type": "uint256"
        },
        {
          "indexed": false,
          "internalType": "string",
          "name": "bitcoinAddress",
          "type": "string"
        }
      ],
      "name": "BurnForYadaCoinWithdrawal",
      "type": "event"
    },
    {
      "anonymous": false,
      "inputs": [
        {
          "indexed": false,
          "internalType": "uint64",
          "name": "version",
          "type": "uint64"
        }
      ],
      "name": "Initialized",
      "type": "event"
    },
    {
      "anonymous": false,
      "inputs": [
        {
          "indexed": true,
          "internalType": "address",
          "name": "previousOwner",
          "type": "address"
        },
        {
          "indexed": true,
          "internalType": "address",
          "name": "newOwner",
          "type": "address"
        }
      ],
      "name": "OwnershipTransferred",
      "type": "event"
    },
    {
      "anonymous": false,
      "inputs": [
        {
          "indexed": true,
          "internalType": "address",
          "name": "implementation",
          "type": "address"
        }
      ],
      "name": "Upgraded",
      "type": "event"
    },
    {
      "inputs": [],
      "name": "UPGRADE_INTERFACE_VERSION",
      "outputs": [
        {
          "internalType": "string",
          "name": "",
          "type": "string"
        }
      ],
      "stateMutability": "view",
      "type": "function"
    },
    {
      "inputs": [
        {
          "internalType": "address",
          "name": "to",
          "type": "address"
        }
      ],
      "name": "emergencyWithdrawBNB",
      "outputs": [],
      "stateMutability": "nonpayable",
      "type": "function"
    },
    {
      "inputs": [],
      "name": "feeCollector",
      "outputs": [
        {
          "internalType": "address",
          "name": "",
          "type": "address"
        }
      ],
      "stateMutability": "view",
      "type": "function"
    },
    {
      "inputs": [],
      "name": "feeSigner",
      "outputs": [
        {
          "internalType": "address",
          "name": "",
          "type": "address"
        }
      ],
      "stateMutability": "view",
      "type": "function"
    },
    {
      "inputs": [
        {
          "internalType": "bytes",
          "name": "publicKey",
          "type": "bytes"
        }
      ],
      "name": "getAddressFromPublicKey",
      "outputs": [
        {
          "internalType": "address",
          "name": "",
          "type": "address"
        }
      ],
      "stateMutability": "pure",
      "type": "function"
    },
    {
      "inputs": [],
      "name": "getOwner",
      "outputs": [
        {
          "internalType": "address",
          "name": "",
          "type": "address"
        }
      ],
      "stateMutability": "view",
      "type": "function"
    },
    {
      "inputs": [],
      "name": "getSupportedTokens",
      "outputs": [
        {
          "internalType": "address[]",
          "name": "",
          "type": "address[]"
        }
      ],
      "stateMutability": "view",
      "type": "function"
    },
    {
      "inputs": [],
      "name": "getTestString",
      "outputs": [
        {
          "internalType": "string",
          "name": "",
          "type": "string"
        }
      ],
      "stateMutability": "pure",
      "type": "function"
    },
    {
      "inputs": [
        {
          "internalType": "address",
          "name": "_keyLogRegistry",
          "type": "address"
        },
        {
          "internalType": "address",
          "name": "_wrappedTokenBeacon",
          "type": "address"
        }
      ],
      "name": "initialize",
      "outputs": [],
      "stateMutability": "nonpayable",
      "type": "function"
    },
    {
      "inputs": [],
      "name": "keyLogRegistry",
      "outputs": [
        {
          "internalType": "contract KeyLogRegistry",
          "name": "",
          "type": "address"
        }
      ],
      "stateMutability": "view",
      "type": "function"
    },
    {
      "inputs": [
        {
          "internalType": "address",
          "name": "",
          "type": "address"
        }
      ],
      "name": "nonces",
      "outputs": [
        {
          "internalType": "uint256",
          "name": "",
          "type": "uint256"
        }
      ],
      "stateMutability": "view",
      "type": "function"
    },
    {
      "inputs": [
        {
          "internalType": "address",
          "name": "originalToken",
          "type": "address"
        }
      ],
      "name": "originalToWrapped",
      "outputs": [
        {
          "internalType": "address",
          "name": "",
          "type": "address"
        }
      ],
      "stateMutability": "view",
      "type": "function"
    },
    {
      "inputs": [],
      "name": "owner",
      "outputs": [
        {
          "internalType": "address",
          "name": "",
          "type": "address"
        }
      ],
      "stateMutability": "view",
      "type": "function"
    },
    {
      "inputs": [],
      "name": "proxiableUUID",
      "outputs": [
        {
          "internalType": "bytes32",
          "name": "",
          "type": "bytes32"
        }
      ],
      "stateMutability": "view",
      "type": "function"
    },
    {
      "inputs": [
        {
          "components": [
            {
              "internalType": "address",
              "name": "token",
              "type": "address"
            },
            {
              "components": [
                {
                  "internalType": "address",
                  "name": "token",
                  "type": "address"
                },
                {
                  "internalType": "uint256",
                  "name": "fee",
                  "type": "uint256"
                },
                {
                  "internalType": "uint256",
                  "name": "expires",
                  "type": "uint256"
                },
                {
                  "internalType": "bytes",
                  "name": "signature",
                  "type": "bytes"
                }
              ],
              "internalType": "struct FeeInfo",
              "name": "fee",
              "type": "tuple"
            },
            {
              "components": [
                {
                  "internalType": "address",
                  "name": "originalToken",
                  "type": "address"
                },
                {
                  "internalType": "string",
                  "name": "tokenName",
                  "type": "string"
                },
                {
                  "internalType": "string",
                  "name": "tokenSymbol",
                  "type": "string"
                },
                {
                  "internalType": "address",
                  "name": "wrappedToken",
                  "type": "address"
                }
              ],
              "internalType": "struct TokenPair[]",
              "name": "newTokenPairs",
              "type": "tuple[]"
            },
            {
              "components": [
                {
                  "internalType": "address",
                  "name": "token",
                  "type": "address"
                },
                {
                  "internalType": "uint256",
                  "name": "amount",
                  "type": "uint256"
                },
                {
                  "internalType": "uint256",
                  "name": "deadline",
                  "type": "uint256"
                },
                {
                  "internalType": "uint8",
                  "name": "v",
                  "type": "uint8"
                },
                {
                  "internalType": "bytes32",
                  "name": "r",
                  "type": "bytes32"
                },
                {
                  "internalType": "bytes32",
                  "name": "s",
                  "type": "bytes32"
                },
                {
                  "components": [
                    {
                      "internalType": "address",
                      "name": "recipientAddress",
                      "type": "address"
                    },
                    {
                      "internalType": "uint256",
                      "name": "amount",
                      "type": "uint256"
                    },
                    {
                      "internalType": "bool",
                      "name": "wrap",
                      "type": "bool"
                    },
                    {
                      "internalType": "bool",
                      "name": "unwrap",
                      "type": "bool"
                    },
                    {
                      "internalType": "bool",
                      "name": "mint",
                      "type": "bool"
                    },
                    {
                      "internalType": "bool",
                      "name": "burn",
                      "type": "bool"
                    }
                  ],
                  "internalType": "struct Recipient[]",
                  "name": "recipients",
                  "type": "tuple[]"
                }
              ],
              "internalType": "struct PermitData[]",
              "name": "permits",
              "type": "tuple[]"
            },
            {
              "components": [
                {
                  "internalType": "uint256",
                  "name": "amount",
                  "type": "uint256"
                },
                {
                  "internalType": "bytes",
                  "name": "publicKey",
                  "type": "bytes"
                },
                {
                  "internalType": "address",
                  "name": "prerotatedKeyHash",
                  "type": "address"
                },
                {
                  "internalType": "address",
                  "name": "twicePrerotatedKeyHash",
                  "type": "address"
                },
                {
                  "internalType": "address",
                  "name": "prevPublicKeyHash",
                  "type": "address"
                },
                {
                  "internalType": "address",
                  "name": "outputAddress",
                  "type": "address"
                }
              ],
              "internalType": "struct Params",
              "name": "unconfirmed",
              "type": "tuple"
            },
            {
              "internalType": "bytes",
              "name": "unconfirmedSignature",
              "type": "bytes"
            },
            {
              "components": [
                {
                  "internalType": "uint256",
                  "name": "amount",
                  "type": "uint256"
                },
                {
                  "internalType": "bytes",
                  "name": "publicKey",
                  "type": "bytes"
                },
                {
                  "internalType": "address",
                  "name": "prerotatedKeyHash",
                  "type": "address"
                },
                {
                  "internalType": "address",
                  "name": "twicePrerotatedKeyHash",
                  "type": "address"
                },
                {
                  "internalType": "address",
                  "name": "prevPublicKeyHash",
                  "type": "address"
                },
                {
                  "internalType": "address",
                  "name": "outputAddress",
                  "type": "address"
                }
              ],
              "internalType": "struct Params",
              "name": "confirming",
              "type": "tuple"
            },
            {
              "internalType": "bytes",
              "name": "confirmingSignature",
              "type": "bytes"
            }
          ],
          "internalType": "struct RegisterKeyPairContext",
          "name": "ctx",
          "type": "tuple"
        }
      ],
      "name": "registerKeyPairWithTransfer",
      "outputs": [],
      "stateMutability": "payable",
      "type": "function"
    },
    {
      "inputs": [],
      "name": "relayer",
      "outputs": [
        {
          "internalType": "address",
          "name": "",
          "type": "address"
        }
      ],
      "stateMutability": "view",
      "type": "function"
    },
    {
      "inputs": [],
      "name": "renounceOwnership",
      "outputs": [],
      "stateMutability": "nonpayable",
      "type": "function"
    },
    {
      "inputs": [
        {
          "internalType": "bytes",
          "name": "existingOwnerPublicKey",
          "type": "bytes"
        }
      ],
      "name": "rotateToPublicKey",
      "outputs": [],
      "stateMutability": "nonpayable",
      "type": "function"
    },
    {
      "inputs": [
        {
          "internalType": "address",
          "name": "_feeCollector",
          "type": "address"
        }
      ],
      "name": "setFeeCollector",
      "outputs": [],
      "stateMutability": "nonpayable",
      "type": "function"
    },
    {
      "inputs": [
        {
          "internalType": "address",
          "name": "_signer",
          "type": "address"
        }
      ],
      "name": "setFeeSigner",
      "outputs": [],
      "stateMutability": "nonpayable",
      "type": "function"
    },
    {
      "inputs": [
        {
          "internalType": "address",
          "name": "_wrappedTokenBeacon",
          "type": "address"
        }
      ],
      "name": "setWrappedTokenBeacon",
      "outputs": [],
      "stateMutability": "nonpayable",
      "type": "function"
    },
    {
      "inputs": [
        {
          "internalType": "uint256",
          "name": "",
          "type": "uint256"
        }
      ],
      "name": "supportedOriginalTokens",
      "outputs": [
        {
          "internalType": "address",
          "name": "",
          "type": "address"
        }
      ],
      "stateMutability": "view",
      "type": "function"
    },
    {
      "inputs": [
        {
          "internalType": "address",
          "name": "",
          "type": "address"
        }
      ],
      "name": "tokenPairs",
      "outputs": [
        {
          "internalType": "address",
          "name": "originalToken",
          "type": "address"
        },
        {
          "internalType": "address",
          "name": "wrappedToken",
          "type": "address"
        }
      ],
      "stateMutability": "view",
      "type": "function"
    },
    {
      "inputs": [
        {
          "internalType": "bytes",
          "name": "publicKey",
          "type": "bytes"
        },
        {
          "components": [
            {
              "internalType": "address",
              "name": "token",
              "type": "address"
            },
            {
              "internalType": "uint256",
              "name": "amount",
              "type": "uint256"
            },
            {
              "internalType": "uint256",
              "name": "deadline",
              "type": "uint256"
            },
            {
              "internalType": "uint8",
              "name": "v",
              "type": "uint8"
            },
            {
              "internalType": "bytes32",
              "name": "r",
              "type": "bytes32"
            },
            {
              "internalType": "bytes32",
              "name": "s",
              "type": "bytes32"
            },
            {
              "components": [
                {
                  "internalType": "address",
                  "name": "recipientAddress",
                  "type": "address"
                },
                {
                  "internalType": "uint256",
                  "name": "amount",
                  "type": "uint256"
                },
                {
                  "internalType": "bool",
                  "name": "wrap",
                  "type": "bool"
                },
                {
                  "internalType": "bool",
                  "name": "unwrap",
                  "type": "bool"
                },
                {
                  "internalType": "bool",
                  "name": "mint",
                  "type": "bool"
                },
                {
                  "internalType": "bool",
                  "name": "burn",
                  "type": "bool"
                }
              ],
              "internalType": "struct Recipient[]",
              "name": "recipients",
              "type": "tuple[]"
            }
          ],
          "internalType": "struct PermitData[]",
          "name": "permits",
          "type": "tuple[]"
        }
      ],
      "name": "transferBalanceToLatestKey",
      "outputs": [],
      "stateMutability": "nonpayable",
      "type": "function"
    },
    {
      "inputs": [
        {
          "internalType": "address",
          "name": "newOwner",
          "type": "address"
        }
      ],
      "name": "transferOwnership",
      "outputs": [],
      "stateMutability": "nonpayable",
      "type": "function"
    },
    {
      "inputs": [
        {
          "internalType": "address",
          "name": "wrappedToken",
          "type": "address"
        },
        {
          "internalType": "uint256",
          "name": "amount",
          "type": "uint256"
        },
        {
          "internalType": "string",
          "name": "yadacoinAddress",
          "type": "string"
        }
      ],
      "name": "unwrap",
      "outputs": [],
      "stateMutability": "nonpayable",
      "type": "function"
    },
    {
      "inputs": [
        {
          "internalType": "address",
          "name": "newImplementation",
          "type": "address"
        },
        {
          "internalType": "bytes",
          "name": "data",
          "type": "bytes"
        }
      ],
      "name": "upgradeToAndCall",
      "outputs": [],
      "stateMutability": "payable",
      "type": "function"
    },
    {
      "inputs": [
        {
          "components": [
            {
              "internalType": "address",
              "name": "newImplementation",
              "type": "address"
            },
            {
              "components": [
                {
                  "internalType": "address",
                  "name": "token",
                  "type": "address"
                },
                {
                  "internalType": "uint256",
                  "name": "amount",
                  "type": "uint256"
                },
                {
                  "internalType": "uint256",
                  "name": "deadline",
                  "type": "uint256"
                },
                {
                  "internalType": "uint8",
                  "name": "v",
                  "type": "uint8"
                },
                {
                  "internalType": "bytes32",
                  "name": "r",
                  "type": "bytes32"
                },
                {
                  "internalType": "bytes32",
                  "name": "s",
                  "type": "bytes32"
                },
                {
                  "components": [
                    {
                      "internalType": "address",
                      "name": "recipientAddress",
                      "type": "address"
                    },
                    {
                      "internalType": "uint256",
                      "name": "amount",
                      "type": "uint256"
                    },
                    {
                      "internalType": "bool",
                      "name": "wrap",
                      "type": "bool"
                    },
                    {
                      "internalType": "bool",
                      "name": "unwrap",
                      "type": "bool"
                    },
                    {
                      "internalType": "bool",
                      "name": "mint",
                      "type": "bool"
                    },
                    {
                      "internalType": "bool",
                      "name": "burn",
                      "type": "bool"
                    }
                  ],
                  "internalType": "struct Recipient[]",
                  "name": "recipients",
                  "type": "tuple[]"
                }
              ],
              "internalType": "struct PermitData[]",
              "name": "permits",
              "type": "tuple[]"
            },
            {
              "components": [
                {
                  "internalType": "uint256",
                  "name": "amount",
                  "type": "uint256"
                },
                {
                  "internalType": "bytes",
                  "name": "publicKey",
                  "type": "bytes"
                },
                {
                  "internalType": "address",
                  "name": "prerotatedKeyHash",
                  "type": "address"
                },
                {
                  "internalType": "address",
                  "name": "twicePrerotatedKeyHash",
                  "type": "address"
                },
                {
                  "internalType": "address",
                  "name": "prevPublicKeyHash",
                  "type": "address"
                },
                {
                  "internalType": "address",
                  "name": "outputAddress",
                  "type": "address"
                }
              ],
              "internalType": "struct Params",
              "name": "unconfirmed",
              "type": "tuple"
            },
            {
              "internalType": "bytes",
              "name": "unconfirmedSignature",
              "type": "bytes"
            },
            {
              "components": [
                {
                  "internalType": "uint256",
                  "name": "amount",
                  "type": "uint256"
                },
                {
                  "internalType": "bytes",
                  "name": "publicKey",
                  "type": "bytes"
                },
                {
                  "internalType": "address",
                  "name": "prerotatedKeyHash",
                  "type": "address"
                },
                {
                  "internalType": "address",
                  "name": "twicePrerotatedKeyHash",
                  "type": "address"
                },
                {
                  "internalType": "address",
                  "name": "prevPublicKeyHash",
                  "type": "address"
                },
                {
                  "internalType": "address",
                  "name": "outputAddress",
                  "type": "address"
                }
              ],
              "internalType": "struct Params",
              "name": "confirming",
              "type": "tuple"
            },
            {
              "internalType": "bytes",
              "name": "confirmingSignature",
              "type": "bytes"
            }
          ],
          "internalType": "struct UpgradeContext",
          "name": "ctx",
          "type": "tuple"
        }
      ],
      "name": "upgradeWithKeyRotation",
      "outputs": [],
      "stateMutability": "nonpayable",
      "type": "function"
    },
    {
      "inputs": [],
      "name": "wrappedTokenBeacon",
      "outputs": [
        {
          "internalType": "address",
          "name": "",
          "type": "address"
        }
      ],
      "stateMutability": "view",
      "type": "function"
    }
  ],
  "bytecode": "0x60a060405230608052348015610013575f80fd5b5060805161578461003a5f395f8181612b6001528181612b8a0152612cd801526157845ff3fe608060405260043610620001df575f3560e01c80637a07b3451162000106578063a42dce80116200009e578063d3c7c2c7116200006a578063d3c7c2c714620005dd578063d8397fd51462000603578063e7c9b9921462000627578063f2fde38b146200064b575f80fd5b8063a42dce801462000546578063ad3cb1cc146200056a578063b5057a7b146200059c578063c415b95c14620005bc575f80fd5b80638406c07911620000de5780638406c07914620004d3578063893d20e814620004f45780638da5cb5b146200050b5780638f2dd2de1462000522575f80fd5b80637a07b345146200045c5780637e1aa17814620004805780637ecebe0014620004a4575f80fd5b8063485cc955116200017a5780635953ad9111620001525780635953ad9114620003d9578063602db89014620003fd5780636b5a79db1462000421578063715018a61462000445575f80fd5b8063485cc95514620003785780634f1ef286146200039c57806352d1902d14620003b3575f80fd5b80632f91be4811620001ba5780632f91be48146200029c5780633c50dffd14620002da5780634290769614620002f357806347bbbdf51462000314575f80fd5b80630756933914620001e3578063081da8c11462000221578063276c1ac01462000278575b5f80fd5b348015620001ef575f80fd5b5060035462000204906001600160a01b031681565b6040516001600160a01b0390911681526020015b60405180910390f35b3480156200022d575f80fd5b50620002046200023f36600462003fc9565b6001600160a01b039081165f90815260056020908152604091829020825180840190935280548416835260010154909216910181905290565b34801562000284575f80fd5b5062000204620002963660046200413b565b6200066f565b348015620002a8575f80fd5b5060408051808201909152600a815269189c9a5919d9481d8d0d60b21b60208201525b604051620002189190620041c9565b620002f1620002eb36600462004675565b6200069f565b005b348015620002ff575f80fd5b5060045462000204906001600160a01b031681565b34801562000320575f80fd5b50620003576200033236600462003fc9565b60056020525f9081526040902080546001909101546001600160a01b03918216911682565b604080516001600160a01b0393841681529290911660208301520162000218565b34801562000384575f80fd5b50620002f162000396366004620047dc565b62000ea1565b620002f1620003ad36600462004818565b6200102b565b348015620003bf575f80fd5b50620003ca62001050565b60405190815260200162000218565b348015620003e5575f80fd5b50620002f1620003f73660046200413b565b6200106e565b34801562000409575f80fd5b50620002f16200041b36600462003fc9565b620011e2565b3480156200042d575f80fd5b50620002f16200043f3660046200486a565b620012cb565b34801562000451575f80fd5b50620002f16200195b565b34801562000468575f80fd5b50620002f16200047a36600462004984565b62001972565b3480156200048c575f80fd5b50620002f16200049e36600462003fc9565b62001ae6565b348015620004b0575f80fd5b50620003ca620004c236600462003fc9565b60066020525f908152604090205481565b348015620004df575f80fd5b5060015462000204906001600160a01b031681565b34801562000500575f80fd5b506200020462001b3a565b34801562000517575f80fd5b506200020462001b4a565b3480156200052e575f80fd5b50620002f16200054036600462003fc9565b62001b78565b34801562000552575f80fd5b50620002f16200056436600462003fc9565b62001bcc565b34801562000576575f80fd5b50620002cb604051806040016040528060058152602001640352e302e360dc1b81525081565b348015620005a8575f80fd5b505f5462000204906001600160a01b031681565b348015620005c8575f80fd5b5060025462000204906001600160a01b031681565b348015620005e9575f80fd5b50620005f462001c20565b60405162000218919062004a0c565b3480156200060f575f80fd5b50620002046200062136600462004a5a565b62001c82565b34801562000633575f80fd5b50620002f16200064536600462004a72565b62001cab565b34801562000657575f80fd5b50620002f16200066936600462003fc9565b62002165565b5f6040825114620006935760405163145a1fdd60e31b815260040160405180910390fd5b50805160209091012090565b620006a962002266565b5f620006bd8260800151602001516200066f565b9050336001600160a01b03821614620006e95760405163145a1fdd60e31b815260040160405180910390fd5b335f90815260066020908152604080832054855186830151608088015193519295946200071e94929391929187910162004b70565b60408051601f198184030181529190528051602090910120608085015160a001519091506001600160a01b0316620007695760405163d92e233d60e01b815260040160405180910390fd5b60408460800151602001515114620007945760405163145a1fdd60e31b815260040160405180910390fd5b620007b7818560a00151620007b18760800151602001516200066f565b6200229f565b620007d557604051638baa579f60e01b815260040160405180910390fd5b60c084015160a001516001600160a01b031615620008cf578351604085015160c08601515f9291906200080a86600162004c59565b6040516020016200081f949392919062004b70565b60405160208183030381529060405280519060200120905060408560c00151602001515114620008625760405163145a1fdd60e31b815260040160405180910390fd5b60c085015160a001516001600160a01b0316620008925760405163d92e233d60e01b815260040160405180910390fd5b620008af818660e00151620007b18860c00151602001516200066f565b620008cd57604051638baa579f60e01b815260040160405180910390fd5b505b5f5b84604001515181101562000af0575f85604001518281518110620008f957620008f962004c6f565b60209081029190910181015180516001600160a01b039081165f908152600590935260409092206001015490925016156200094757604051636bb9e87d60e01b815260040160405180910390fd5b60608101516001600160a01b03811662000a125760208201516040808401515f8054925190936303bf912560e11b936200099293919230916001600160a01b03169060240162004c83565b60408051601f198184030181529181526020820180516001600160e01b03166001600160e01b03199094169390931790925260045491519092505f916001600160a01b0316908390620009e59062003f94565b620009f292919062004cd0565b604051809103905ff08015801562000a0c573d5f803e3d5ffd5b50925050505b60408051808201825283516001600160a01b0390811682529283166020808301828152865186165f9081526005808452868220955186549089166001600160a01b0319918216178755925160019687018054918a169185169190911790558651808801885289518916815280850186815295835293529485209151825490871690821617825591519083018054918616918316919091179055935160078054808401825593527fa66cc928b5edb82af9bd49922954155ab7b0942694bea4ce44661d9a8736c6889092018054929093169190931617905501620008d1565b5060c084015160a001516060850151516001600160a01b039091161515901562000c46575f8054608087015160200151604051631697653560e11b815283926001600160a01b031691632d2eca6a9162000b4e9190600401620041c9565b61010060405180830381865afa15801562000b6b573d5f803e3d5ffd5b505050506040513d601f19601f8201168201806040525081019062000b91919062004d1e565b915091508215801562000ba15750805b1562000bc05760405163772e719d60e11b815260040160405180910390fd5b62000c436040518060c00160405280895f01516001600160a01b03168152602001336001600160a01b031681526020018960200151815260200189608001516020015181526020018562000c1d5789608001516040015162000c27565b8960c00151604001515b6001600160a01b031681526020018960600151815250620022f8565b50505b801562000d78575f546040805160a080820183526080808a018051602090810151855281518601516001600160a01b03908116828701528251606090810151821687890152835185015182168188015292518501518116848701528651808601885260c08e01805184015182528051890151831693820193909352825184015182168189015282518501518216938101939093529051909301518316918101919091529251632dd1466d60e01b8152931692632dd1466d9262000d0d929160040162004e47565b5f604051808303815f87803b15801562000d25575f80fd5b505af115801562000d38573d5f803e3d5ffd5b50505050336001600160a01b031662000d5062001b4a565b6001600160a01b03160362000d725762000d728560c001516040015162002165565b62000e5b565b5f546040805160a080820183526080808a018051602090810151855281518601516001600160a01b039081169186019190915281516060908101518216868801528251840151821690860152905190920151821690830152915163397382bd60e21b8152919092169163e5ce0af49162000df6919060040162004e6f565b5f604051808303815f87803b15801562000e0e575f80fd5b505af115801562000e21573d5f803e3d5ffd5b50505050336001600160a01b031662000e3962001b4a565b6001600160a01b03160362000e5b5762000e5b85608001516040015162002165565b335f90815260066020526040812080546002929062000e7c90849062004c59565b909155505060015f805160206200572f833981519152555062000e9e92505050565b50565b7ff0c57e16840df040f15088dc2f81fe391c3923bec73e23a9662efc9c229c6a008054600160401b810460ff1615906001600160401b03165f8115801562000ee65750825b90505f826001600160401b0316600114801562000f025750303b155b90508115801562000f11575080155b1562000f305760405163f92ee8a960e01b815260040160405180910390fd5b845467ffffffffffffffff19166001178555831562000f5b57845460ff60401b1916600160401b1785555b62000f663362002b22565b62000f7062002b37565b62000f7a62002b41565b6001600160a01b03871662000fa25760405163d92e233d60e01b815260040160405180910390fd5b5f80546001600160a01b03808a166001600160a01b03199283161790925560028054821633179055600480549289169290911691909117905583156200102257845460ff60401b19168555604051600181527fc7f505b2f371ae2175ee4913f4499e1f2633a7b5936321eed1cdaeb6115181d29060200160405180910390a15b50505050505050565b6200103562002b55565b620010408262002bfd565b6200104c828262002c07565b5050565b5f6200105b62002ccd565b505f805160206200570f83398151915290565b6040815114620010915760405163145a1fdd60e31b815260040160405180910390fd5b5f6200109d826200066f565b90506001600160a01b038116620010c75760405163d92e233d60e01b815260040160405180910390fd5b620010d162001b4a565b6001600160a01b0316816001600160a01b031614620011375760405162461bcd60e51b815260206004820152601e60248201527f496e636f7272656374207075626c6963206b65792070726f76696465642e000060448201526064015b60405180910390fd5b5f8054604051631697653560e11b815282916001600160a01b031690632d2eca6a9062001169908790600401620041c9565b61010060405180830381865afa15801562001186573d5f803e3d5ffd5b505050506040513d601f19601f82011682018060405250810190620011ac919062004d1e565b6020820151600280546001600160a01b0319166001600160a01b0383161790559193509150620011dc9062002165565b50505050565b620011ec62002d17565b4780620012315760405162461bcd60e51b81526020600482015260126024820152714e6f20424e4220746f20776974686472617760701b60448201526064016200112e565b5f826001600160a01b0316826040515f6040518083038185875af1925050503d805f81146200127c576040519150601f19603f3d011682016040523d82523d5f602084013e62001281565b606091505b5050905080620012c65760405162461bcd60e51b815260206004820152600f60248201526e15da5d1a191c985dc819985a5b1959608a1b60448201526064016200112e565b505050565b620012d562002b55565b620012df62002266565b5f620012f38260400151602001516200066f565b9050336001600160a01b038216146200134f5760405162461bcd60e51b815260206004820152601860248201527f496e76616c6964207075626c6963206b6579206f776e6572000000000000000060448201526064016200112e565b335f9081526006602090815260408083205481518481529283018252855186830151919492620013859285918790830162004e83565b604051602081830303815290604052805190602001209050620013ae818660600151866200229f565b6200140a5760405162461bcd60e51b815260206004820152602560248201527f496e76616c696420756e636f6e6669726d65642075706772616465207369676e604482015264617475726560d81b60648201526084016200112e565b845160808601515f919084906200142387600162004c59565b60405160200162001438949392919062004e83565b6040516020818303038152906040528051906020012090506200146d818760a00151620007b18960800151602001516200066f565b620014c75760405162461bcd60e51b8152602060048201526024808201527f496e76616c696420636f6e6669726d696e672075706772616465207369676e616044820152637475726560e01b60648201526084016200112e565b5f8054604080890151602001519051631697653560e11b815283926001600160a01b031691632d2eca6a91620015019190600401620041c9565b61010060405180830381865afa1580156200151e573d5f803e3d5ffd5b505050506040513d601f19601f8201168201806040525081019062001544919062004d1e565b9150915080620015975760405162461bcd60e51b815260206004820152601860248201527f4b6579206c6f67206e6f7420696e697469616c697a65642e000000000000000060448201526064016200112e565b602088015151156200164057620016406040518060c001604052805f6001600160a01b03168152602001336001600160a01b0316815260200160405180608001604052805f6001600160a01b031681526020015f81526020015f815260200160405180602001604052805f81525081525081526020018a604001516020015181526020018a60800151604001516001600160a01b031681526020018a60200151815250620022f8565b5f8054906101000a90046001600160a01b03166001600160a01b0316632dd1466d6040518060a001604052808b604001516020015181526020018b60400151604001516001600160a01b031681526020018b60400151606001516001600160a01b031681526020018b60400151608001516001600160a01b031681526020018b6040015160a001516001600160a01b03168152506040518060a001604052808c608001516020015181526020018c60800151604001516001600160a01b031681526020018c60800151606001516001600160a01b031681526020018c60800151608001516001600160a01b031681526020018c6080015160a001516001600160a01b03168152506040518363ffffffff1660e01b81526004016200176692919062004e47565b5f604051808303815f87803b1580156200177e575f80fd5b505af115801562001791573d5f803e3d5ffd5b505050505f885f01516001600160a01b03163b11620017f35760405162461bcd60e51b815260206004820152601a60248201527f496d706c656d656e746174696f6e20686173206e6f20636f646500000000000060448201526064016200112e565b5f805160206200570f8339815191525f1b885f01516001600160a01b03166352d1902d6040518163ffffffff1660e01b8152600401602060405180830381865afa15801562001844573d5f803e3d5ffd5b505050506040513d601f19601f820116820180604052508101906200186a919062004ef7565b14620018cb5760405162461bcd60e51b815260206004820152602960248201527f4e657720696d706c656d656e746174696f6e206973206e6f74205555505320636044820152686f6d70617469626c6560b81b60648201526084016200112e565b620018e8885f015160405180602001604052805f8152506200102b565b33620018f362001b4a565b6001600160a01b03160362001915576200191588608001516040015162002165565b335f9081526006602052604081208054600292906200193690849062004c59565b909155505060015f805160206200572f833981519152555062000e9e95505050505050565b6200196562002d17565b620019705f62002d4d565b565b6200197c62002266565b825f036200199d576040516342b7033760e01b815260040160405180910390fd5b801580620019ab5750602a81115b15620019ca5760405163145a1fdd60e31b815260040160405180910390fd5b6001600160a01b038085165f908152600560209081526040918290208251808401909352805484168352600101549092169181018290529062001a2057604051637879bad160e01b815260040160405180910390fd5b604051632770a7eb60e21b8152336004820152602481018590526001600160a01b03861690639dc29fac906044015f604051808303815f87803b15801562001a66575f80fd5b505af115801562001a79573d5f803e3d5ffd5b5050505083856001600160a01b0316336001600160a01b03167f2fb26dcd5e0fc2ee1286d042be046303443b07e44e41ef8bf40ec51d39bfa5fd868660405162001ac592919062004f0f565b60405180910390a450620011dc60015f805160206200572f83398151915255565b62001af062002d17565b6001600160a01b03811662001b185760405163d92e233d60e01b815260040160405180910390fd5b600380546001600160a01b0319166001600160a01b0392909216919091179055565b5f62001b4562001b4a565b905090565b7f9016d09d72d40fdae2fd8ceac6b6234c7706214fd39c1cd1e609a0528c199300546001600160a01b031690565b62001b8262002d17565b6001600160a01b03811662001baa5760405163d92e233d60e01b815260040160405180910390fd5b600480546001600160a01b0319166001600160a01b0392909216919091179055565b62001bd662002d17565b6001600160a01b03811662001bfe5760405163bb0bac9960e01b815260040160405180910390fd5b600280546001600160a01b0319166001600160a01b0392909216919091179055565b6060600780548060200260200160405190810160405280929190818152602001828054801562001c7857602002820191905f5260205f20905b81546001600160a01b0316815260019091019060200180831162001c59575b5050505050905090565b6007818154811062001c92575f80fd5b5f918252602090912001546001600160a01b0316905081565b62001cb562002266565b5f62001cc1846200066f565b90505f5b828110156200214b575f84848381811062001ce45762001ce462004c6f565b905060200281019062001cf8919062004f3d565b62001d039062004f5c565b80519091506001600160a01b031662001d2f5760405163772e719d60e11b815260040160405180910390fd5b5f8054604051631697653560e11b815282916001600160a01b031690632d2eca6a9062001d61908b90600401620041c9565b61010060405180830381865afa15801562001d7e573d5f803e3d5ffd5b505050506040513d601f19601f8201168201806040525081019062001da4919062004d1e565b915091508062001dc75760405163145a1fdd60e31b815260040160405180910390fd5b82516040516370a0823160e01b81526001600160a01b0387811660048301525f9216906370a0823190602401602060405180830381865afa15801562001e0f573d5f803e3d5ffd5b505050506040513d601f19601f8201168201806040525081019062001e35919062004ef7565b9050805f0362001e5857604051631e9acf1760e31b815260040160405180910390fd5b428460400151101562001e7e576040516305787bdf60e01b815260040160405180910390fd5b5f845f01516001600160a01b0316633644e5156040518163ffffffff1660e01b8152600401602060405180830381865afa15801562001ebf573d5f803e3d5ffd5b505050506040513d601f19601f8201168201806040525081019062001ee5919062004ef7565b8551604051623f675f60e91b81526001600160a01b03808b1660048301527f6e71edae12b1b97f4d1f60370fef10105fa2faae0126114a169c64845d6126c9928b92309288921690637ecebe0090602401602060405180830381865afa15801562001f52573d5f803e3d5ffd5b505050506040513d601f19601f8201168201806040525081019062001f78919062004ef7565b6040808c0151815160208101979097526001600160a01b0395861691870191909152939092166060850152608084015260a083015260c082015260e0016040516020818303038152906040528051906020012060405160200162001ff392919061190160f01b81526002810192909252602282015260420190565b6040516020818303038152906040528051906020012090505f6200206886608001518760a0015188606001516040516020016200205093929190928352602083019190915260f81b6001600160f81b031916604082015260410190565b60408051601f19818403018152919052839062002dbd565b9050876001600160a01b0316816001600160a01b0316146200209d57604051634d96a8a760e01b815260040160405180910390fd5b855f01516001600160a01b031663d505accf8930868a604001518b606001518c608001518d60a001516040518863ffffffff1660e01b8152600401620020ea979695949392919062004f69565b5f604051808303815f87803b15801562002102575f80fd5b505af115801562002115573d5f803e3d5ffd5b505050602086015187516200213892506001600160a01b0316908a908662002deb565b50506001909401935062001cc592505050565b5050620012c660015f805160206200572f83398151915255565b6200216f62002d17565b6001600160a01b038116620021975760405163d92e233d60e01b815260040160405180910390fd5b5f546001600160a01b03166318fdb6f8620021b162001b4a565b6040516001600160e01b031960e084901b1681526001600160a01b0391821660048201529084166024820152604401602060405180830381865afa158015620021fc573d5f803e3d5ffd5b505050506040513d601f19601f8201168201806040525081019062002222919062004faa565b620022405760405163b012a29560e01b815260040160405180910390fd5b600280546001600160a01b0319166001600160a01b03831617905562000e9e8162002e54565b5f805160206200572f8339815191528054600119016200229957604051633ee5aeb560e01b815260040160405180910390fd5b60029055565b7f19457468657265756d205369676e6564204d6573736167653a0a3332000000005f908152601c849052603c81206001600160a01b038316620022e3828662002dbd565b6001600160a01b0316149150505b9392505050565b5f805f6200230a84606001516200066f565b90505f5b8460a0015151811015620023ea575f8560a00151828151811062002336576200233662004c6f565b602090810291909101015180519091506001600160a01b03166200235957600194505b855181516001600160a01b03918216911603620023e0575f5b8160c0015151811015620023d1575f8260c0015182815181106200239a576200239a62004c6f565b60200260200101519050806080015180620023b657508060a001515b15620023c7576001955050620023d1565b5060010162002372565b508315620023e05750620023ea565b506001016200230e565b50826200240a57604051633bee968760e01b815260040160405180910390fd5b8180156200243357506200241d62001b4a565b6001600160a01b0316336001600160a01b031614155b15620024525760405163b012a29560e01b815260040160405180910390fd5b5f5b8460a001515181101562002b07575f8560a0015182815181106200247c576200247c62004c6f565b602002602001015190505f600190505f80885f01516001600160a01b0316845f01516001600160a01b031603620025d3575f5b8460c0015151811015620025d1575f8560c001518281518110620024d757620024d762004c6f565b60200260200101519050806040015180620024f3575080608001515b8062002500575080606001515b806200250d57508060a001515b15620025a7578a515f95506001600160a01b0316158015906200255457508a516001600160a01b039081165f908152600560205260409081902054908d0151518216911614155b80156200258857508a516001600160a01b039081165f908152600560205260409081902060010154908d0151518216911614155b15620025a757604051630adad23360e31b815260040160405180910390fd5b806080015115620025b757600193505b8060a0015115620025c757600192505b50600101620024af565b505b83516001600160a01b031615801590620025eb575081155b8015620025f6575080155b8015620026095750606084015160ff1615155b15620027a157428460400151101562002635576040516305787bdf60e01b815260040160405180910390fd5b5f62002642858b62002e94565b90505f6200268986608001518760a0015188606001516040516020016200205093929190928352602083019190915260f81b6001600160f81b031916604082015260410190565b9050876001600160a01b0316816001600160a01b0316146200271a575f5b8660c001515181101562002718578b608001516001600160a01b03168760c001518281518110620026dc57620026dc62004c6f565b60200260200101515f01516001600160a01b0316146200270f57604051634d96a8a760e01b815260040160405180910390fd5b600101620026a7565b505b855f01516001600160a01b031663d505accf8c602001513089602001518a604001518b606001518c608001518d60a001516040518863ffffffff1660e01b81526004016200276f979695949392919062004f69565b5f604051808303815f87803b15801562002787575f80fd5b505af11580156200279a573d5f803e3d5ffd5b5050505050505b5f83620027ba57620027b78a6040015162002fd3565b90505b84516001600160a01b0316155f805b8760c001515181101562002a4f575f8860c001518281518110620027f157620027f162004c6f565b602090810291909101015180519091506001600160a01b0316620028285760405163d92e233d60e01b815260040160405180910390fd5b80602001515f036200283b575062002a46565b886020015181602001511115620028655760405163143d1ae760e21b815260040160405180910390fd5b806060015180156200288557508d5189516001600160a01b039081169116145b156200289f5762002899898f83866200318d565b62002a31565b8060a001518015620028bf57508d5189516001600160a01b039081169116145b8015620028e65750620028d162001b4a565b6001600160a01b0316336001600160a01b0316145b156200295b57885181516020830151604051632770a7eb60e21b81526001600160a01b0392831660048201526024810191909152911690639dc29fac906044015f604051808303815f87803b1580156200293e575f80fd5b505af115801562002951573d5f803e3d5ffd5b5050505062002a31565b806080015180156200297b57508d5189516001600160a01b039081169116145b8015620029a257506200298d62001b4a565b6001600160a01b0316336001600160a01b0316145b15620029b55762002899898f83620034de565b80604001518015620029d557508d5189516001600160a01b039081169116145b15620029ea5762002899898f8386886200361d565b871562002a3157831562002a0b5762002899815f01518260200151620039e1565b6020808f01518251918301518b5162002a31936001600160a01b03909116929162002deb565b602081015162002a42908462004c59565b9250505b600101620027c9565b50851562002ace575f81886020015162002a6a919062004fc8565b9050801562002acc578c516001600160a01b031662002a995762002a938d6080015182620039e1565b62002abd565b60208d015160808e0151895162002abd926001600160a01b03909116918462002deb565b62002ac9818362004c59565b91505b505b8660200151811462002af3576040516312171d8360e31b815260040160405180910390fd5b505060019095019450620024549350505050565b5050505050565b60015f805160206200572f83398151915255565b62002b2c62003a59565b62000e9e8162003aa3565b6200197062003a59565b62002b4b62003a59565b6200197062003aad565b306001600160a01b037f000000000000000000000000000000000000000000000000000000000000000016148062002bde57507f00000000000000000000000000000000000000000000000000000000000000006001600160a01b031662002bd25f805160206200570f833981519152546001600160a01b031690565b6001600160a01b031614155b15620019705760405163703e46dd60e11b815260040160405180910390fd5b62000e9e62002d17565b816001600160a01b03166352d1902d6040518163ffffffff1660e01b8152600401602060405180830381865afa92505050801562002c64575060408051601f3d908101601f1916820190925262002c619181019062004ef7565b60015b62002c8e57604051634c9c8ce360e01b81526001600160a01b03831660048201526024016200112e565b5f805160206200570f833981519152811462002cc157604051632a87526960e21b8152600481018290526024016200112e565b620012c6838362003ab7565b306001600160a01b037f00000000000000000000000000000000000000000000000000000000000000001614620019705760405163703e46dd60e11b815260040160405180910390fd5b3362002d2262001b4a565b6001600160a01b031614620019705760405163118cdaa760e01b81523360048201526024016200112e565b7f9016d09d72d40fdae2fd8ceac6b6234c7706214fd39c1cd1e609a0528c19930080546001600160a01b031981166001600160a01b03848116918217845560405192169182907f8be0079c531659141344cd1fd0a4f28419497f9722a3daafe3b4186f6b6457e0905f90a3505050565b5f805f8062002dcd868662003b13565b92509250925062002ddf828262003b60565b50909150505b92915050565b6040516001600160a01b038481166024830152838116604483015260648201839052620011dc9186918216906323b872dd906084015b604051602081830303815290604052915060e01b6020820180516001600160e01b03838183161783525050505062003c2a565b62002e5e62002d17565b6001600160a01b03811662002e8957604051631e4fbdf760e01b81525f60048201526024016200112e565b62000e9e8162002d4d565b5f825f01516001600160a01b0316633644e5156040518163ffffffff1660e01b8152600401602060405180830381865afa15801562002ed5573d5f803e3d5ffd5b505050506040513d601f19601f8201168201806040525081019062002efb919062004ef7565b7f6e71edae12b1b97f4d1f60370fef10105fa2faae0126114a169c64845d6126c9836020015130866020015162002f3a885f0151886020015162003c9b565b6040808a0151815160208101979097526001600160a01b0395861691870191909152939092166060850152608084015260a083015260c082015260e0016040516020818303038152906040528051906020012060405160200162002fb592919061190160f01b81526002810192909252602282015260420190565b60405160208183030381529060405280519060200120905092915050565b5f428260400151101562002ffa576040516305787bdf60e01b815260040160405180910390fd5b81515f906001600160a01b0316156200307957825f01516001600160a01b031663313ce5676040518163ffffffff1660e01b8152600401602060405180830381865afa1580156200304d573d5f803e3d5ffd5b505050506040513d601f19601f8201168201806040525081019062003073919062004fde565b6200307c565b60125b90505f6200308c82600a620050f5565b90508084602001511115620030b457604051630adad23360e31b815260040160405180910390fd5b835160208086015160408088015181516001600160a01b039095169385019390935283015260608201525f906200313090608001604051602081830303815290604052805190602001207f19457468657265756d205369676e6564204d6573736167653a0a3332000000005f908152601c91909152603c902090565b90505f6200314c86606001518362002dbd90919063ffffffff16565b6003549091506001600160a01b038083169116146200317e57604051638baa579f60e01b815260040160405180910390fd5b50505060209092015192915050565b6020828101518551918501516040516370a0823160e01b81526001600160a01b039182166004820152919216906370a0823190602401602060405180830381865afa158015620031df573d5f803e3d5ffd5b505050506040513d601f19601f8201168201806040525081019062003205919062004ef7565b1015620032655760405162461bcd60e51b815260206004820152602760248201527f496e73756666696369656e7420777261707065642062616c616e636520666f72604482015266020756e777261760cc1b60648201526084016200112e565b6020808401519083015185516200328a926001600160a01b0390911691309062002deb565b83516020830151604051632770a7eb60e21b815230600482015260248101919091526001600160a01b0390911690639dc29fac906044015f604051808303815f87803b158015620032d9575f80fd5b505af1158015620032ec573d5f803e3d5ffd5b505085516001600160a01b039081165f90815260056020908152604080832081518083019092528054851682526001015484169181019190915288519094509092501615620033a157855f01516001600160a01b031663313ce5676040518163ffffffff1660e01b8152600401602060405180830381865afa15801562003375573d5f803e3d5ffd5b505050506040513d601f19601f820116820180604052508101906200339b919062004fde565b620033a4565b60125b90505f620033b482600a620050f5565b90505f818760400151602001518760200151620033d2919062005105565b620033de91906200511f565b90505f818760200151620033f3919062004fc8565b85519091506001600160a01b03166200343b5762003416886080015182620039e1565b8115620034355760025462003435906001600160a01b031683620039e1565b6200347f565b608088015185516200345a916001600160a01b03909116908362003d08565b81156200347f5760025485516200347f916001600160a01b0391821691168462003d08565b5f87602001518a6020015162003496919062004fc8565b90508015620034d257602089015160808a01518b51620034c3926001600160a01b03909116918462002deb565b620034cf818862004c59565b96505b50505050505050505050565b82515f906001600160a01b0316156200355d57835f01516001600160a01b031663313ce5676040518163ffffffff1660e01b8152600401602060405180830381865afa15801562003531573d5f803e3d5ffd5b505050506040513d601f19601f8201168201806040525081019062003557919062004fde565b62003560565b60125b90505f6200357082600a620050f5565b90505f8185604001516020015185602001516200358e919062005105565b6200359a91906200511f565b90505f818560200151620035af919062004fc8565b875186516040516340c10f1960e01b81526001600160a01b0391821660048201526024810184905292935016906340c10f19906044015f604051808303815f87803b158015620035fd575f80fd5b505af115801562003610573d5f803e3d5ffd5b5050505050505050505050565b84516001600160a01b039081165f9081526005602090815260409182902082518084019093528054841683526001015490921691810191909152816200373a576020848101518251918701516040516370a0823160e01b81526001600160a01b039182166004820152919216906370a0823190602401602060405180830381865afa158015620036af573d5f803e3d5ffd5b505050506040513d601f19601f82011682018060405250810190620036d5919062004ef7565b1015620037345760405162461bcd60e51b815260206004820152602660248201527f496e73756666696369656e74206f726967696e616c2062616c616e636520666f60448201526507220777261760d41b60648201526084016200112e565b62003790565b8360200151341015620037905760405162461bcd60e51b815260206004820152601e60248201527f496e73756666696369656e74206e617469766520746f6b656e2073656e74000060448201526064016200112e565b85515f906001600160a01b0316156200380f57865f01516001600160a01b031663313ce5676040518163ffffffff1660e01b8152600401602060405180830381865afa158015620037e3573d5f803e3d5ffd5b505050506040513d601f19601f8201168201806040525081019062003809919062004fde565b62003812565b60125b90505f6200382282600a620050f5565b90505f81886040015160200151886020015162003840919062005105565b6200384c91906200511f565b905084156200387a578015620038745760025462003874906001600160a01b031682620039e1565b620038d6565b620038aa886020015130838a6020015162003896919062004fc8565b87516001600160a01b031692919062002deb565b8015620038d65760208801516002548551620038d6926001600160a01b03918216929091168462002deb565b83602001516001600160a01b03166340c10f198960800151838a6020015162003900919062004fc8565b6040516001600160e01b031960e085901b1681526001600160a01b03909216600483015260248201526044015f604051808303815f87803b15801562003944575f80fd5b505af115801562003957573d5f803e3d5ffd5b50505050886020015187602001511015620039d6575f87602001518a6020015162003983919062004fc8565b90508015620034d25788516001600160a01b0316620039b257620039ac896080015182620039e1565b620034c3565b602089015160808a01518b51620034c3926001600160a01b03909116918462002deb565b505050505050505050565b5f826001600160a01b031682617530906040515f60405180830381858888f193505050503d805f811462003a31576040519150601f19603f3d011682016040523d82523d5f602084013e62003a36565b606091505b5050905080620012c6576040516312171d8360e31b815260040160405180910390fd5b7ff0c57e16840df040f15088dc2f81fe391c3923bec73e23a9662efc9c229c6a0054600160401b900460ff166200197057604051631afcd79f60e31b815260040160405180910390fd5b62002e5e62003a59565b62002b0e62003a59565b62003ac28262003d3b565b6040516001600160a01b038316907fbc7cd75a20ee27fd9adebab32041f755214dbc6bffa90cc0225b39da2e5c2d3b905f90a280511562003b0957620012c6828262003da1565b6200104c62003e19565b5f805f835160410362003b4e576020840151604085015160608601515f1a62003b3f8882858562003e39565b95509550955050505062003b59565b505081515f91506002905b9250925092565b5f82600381111562003b765762003b766200513f565b0362003b80575050565b600182600381111562003b975762003b976200513f565b0362003bb65760405163f645eedf60e01b815260040160405180910390fd5b600282600381111562003bcd5762003bcd6200513f565b0362003bf05760405163fce698f760e01b8152600481018290526024016200112e565b600382600381111562003c075762003c076200513f565b036200104c576040516335e2f38360e21b8152600481018290526024016200112e565b5f8060205f8451602086015f885af18062003c4a576040513d5f823e3d81fd5b50505f513d9150811562003c6357806001141562003c70565b6001600160a01b0384163b155b15620011dc57604051635274afe760e01b81526001600160a01b03851660048201526024016200112e565b604051623f675f60e91b81526001600160a01b0382811660048301525f9190841690637ecebe0090602401602060405180830381865afa15801562003ce2573d5f803e3d5ffd5b505050506040513d601f19601f82011682018060405250810190620022f1919062004ef7565b6040516001600160a01b03838116602483015260448201839052620012c691859182169063a9059cbb9060640162002e21565b806001600160a01b03163b5f0362003d7257604051634c9c8ce360e01b81526001600160a01b03821660048201526024016200112e565b5f805160206200570f83398151915280546001600160a01b0319166001600160a01b0392909216919091179055565b60605f80846001600160a01b03168460405162003dbf919062005153565b5f60405180830381855af49150503d805f811462003df9576040519150601f19603f3d011682016040523d82523d5f602084013e62003dfe565b606091505b509150915062003e1085838362003f06565b95945050505050565b3415620019705760405163b398979f60e01b815260040160405180910390fd5b5f80807f7fffffffffffffffffffffffffffffff5d576e7357a4501ddfe92f46681b20a084111562003e7457505f9150600390508262003efc565b604080515f808252602082018084528a905260ff891692820192909252606081018790526080810186905260019060a0016020604051602081039080840390855afa15801562003ec6573d5f803e3d5ffd5b5050604051601f1901519150506001600160a01b03811662003ef357505f92506001915082905062003efc565b92505f91508190505b9450945094915050565b60608262003f1f5762003f198262003f6a565b620022f1565b815115801562003f3757506001600160a01b0384163b155b1562003f6257604051639996b31560e01b81526001600160a01b03851660048201526024016200112e565b5080620022f1565b80511562003f7b5780518082602001fd5b60405163d6bda27560e01b815260040160405180910390fd5b6105a8806200516783390190565b6001600160a01b038116811462000e9e575f80fd5b803562003fc48162003fa2565b919050565b5f6020828403121562003fda575f80fd5b8135620022f18162003fa2565b634e487b7160e01b5f52604160045260245ffd5b604051608081016001600160401b038111828210171562004020576200402062003fe7565b60405290565b60405160c081016001600160401b038111828210171562004020576200402062003fe7565b60405160e081016001600160401b038111828210171562004020576200402062003fe7565b60405161010081016001600160401b038111828210171562004020576200402062003fe7565b604051601f8201601f191681016001600160401b0381118282101715620040c157620040c162003fe7565b604052919050565b5f82601f830112620040d9575f80fd5b81356001600160401b03811115620040f557620040f562003fe7565b6200410a601f8201601f191660200162004096565b8181528460208386010111156200411f575f80fd5b816020850160208301375f918101602001919091529392505050565b5f602082840312156200414c575f80fd5b81356001600160401b0381111562004162575f80fd5b6200417084828501620040c9565b949350505050565b5f5b83811015620041945781810151838201526020016200417a565b50505f910152565b5f8151808452620041b581602086016020860162004178565b601f01601f19169290920160200192915050565b602081525f620022f160208301846200419c565b5f60808284031215620041ee575f80fd5b620041f862003ffb565b90508135620042078162003fa2565b80825250602082013560208201526040820135604082015260608201356001600160401b0381111562004238575f80fd5b6200424684828501620040c9565b60608301525092915050565b5f6001600160401b038211156200426d576200426d62003fe7565b5060051b60200190565b5f82601f83011262004287575f80fd5b81356020620042a06200429a8362004252565b62004096565b82815260059290921b84018101918181019086841115620042bf575f80fd5b8286015b848110156200438e5780356001600160401b0380821115620042e3575f80fd5b908801906080828b03601f1901811315620042fc575f80fd5b6200430662003ffb565b87840135620043158162003fa2565b8152604084810135848111156200432a575f80fd5b6200433a8e8b83890101620040c9565b8a840152506060808601358581111562004352575f80fd5b620043628f8c838a0101620040c9565b84840152509483013594620043778662003fa2565b8201949094528652505050918301918301620042c3565b509695505050505050565b60ff8116811462000e9e575f80fd5b803562003fc48162004399565b801515811462000e9e575f80fd5b5f82601f830112620043d3575f80fd5b81356020620043e66200429a8362004252565b82815260c0928302850182019282820191908785111562004405575f80fd5b8387015b85811015620044a45781818a03121562004421575f80fd5b6200442b62004026565b8135620044388162003fa2565b815281860135868201526040808301356200445381620043b5565b908201526060828101356200446881620043b5565b908201526080828101356200447d81620043b5565b9082015260a0828101356200449281620043b5565b90820152845292840192810162004409565b5090979650505050505050565b5f60e08284031215620044c2575f80fd5b620044cc6200404b565b9050620044d98262003fb7565b81526020820135602082015260408201356040820152620044fd60608301620043a8565b60608201526080820135608082015260a082013560a082015260c08201356001600160401b038111156200452f575f80fd5b6200453d84828501620043c3565b60c08301525092915050565b5f82601f83011262004559575f80fd5b813560206200456c6200429a8362004252565b82815260059290921b840181019181810190868411156200458b575f80fd5b8286015b848110156200438e5780356001600160401b03811115620045ae575f80fd5b620045be8986838b0101620044b1565b8452509183019183016200458f565b5f60c08284031215620045de575f80fd5b620045e862004026565b90508135815260208201356001600160401b0381111562004607575f80fd5b6200461584828501620040c9565b60208301525060408201356200462b8162003fa2565b60408201526060820135620046408162003fa2565b60608201526080820135620046558162003fa2565b608082015260a08201356200466a8162003fa2565b60a082015292915050565b5f6020828403121562004686575f80fd5b81356001600160401b03808211156200469d575f80fd5b908301906101008286031215620046b2575f80fd5b620046bc62004070565b620046c78362003fb7565b8152602083013582811115620046db575f80fd5b620046e987828601620041dd565b60208301525060408301358281111562004701575f80fd5b6200470f8782860162004277565b60408301525060608301358281111562004727575f80fd5b620047358782860162004549565b6060830152506080830135828111156200474d575f80fd5b6200475b87828601620045cd565b60808301525060a08301358281111562004773575f80fd5b6200478187828601620040c9565b60a08301525060c08301358281111562004799575f80fd5b620047a787828601620045cd565b60c08301525060e083013582811115620047bf575f80fd5b620047cd87828601620040c9565b60e08301525095945050505050565b5f8060408385031215620047ee575f80fd5b8235620047fb8162003fa2565b915060208301356200480d8162003fa2565b809150509250929050565b5f80604083850312156200482a575f80fd5b8235620048378162003fa2565b915060208301356001600160401b0381111562004852575f80fd5b6200486085828601620040c9565b9150509250929050565b5f602082840312156200487b575f80fd5b81356001600160401b038082111562004892575f80fd5b9083019060c08286031215620048a6575f80fd5b620048b062004026565b620048bb8362003fb7565b8152602083013582811115620048cf575f80fd5b620048dd8782860162004549565b602083015250604083013582811115620048f5575f80fd5b6200490387828601620045cd565b6040830152506060830135828111156200491b575f80fd5b6200492987828601620040c9565b60608301525060808301358281111562004941575f80fd5b6200494f87828601620045cd565b60808301525060a08301358281111562004967575f80fd5b6200497587828601620040c9565b60a08301525095945050505050565b5f805f806060858703121562004998575f80fd5b8435620049a58162003fa2565b93506020850135925060408501356001600160401b0380821115620049c8575f80fd5b818701915087601f830112620049dc575f80fd5b813581811115620049eb575f80fd5b886020828501011115620049fd575f80fd5b95989497505060200194505050565b602080825282518282018190525f9190848201906040850190845b8181101562004a4e5783516001600160a01b03168352928401929184019160010162004a27565b50909695505050505050565b5f6020828403121562004a6b575f80fd5b5035919050565b5f805f6040848603121562004a85575f80fd5b83356001600160401b038082111562004a9c575f80fd5b62004aaa87838801620040c9565b9450602086013591508082111562004ac0575f80fd5b818601915086601f83011262004ad4575f80fd5b81358181111562004ae3575f80fd5b8760208260051b850101111562004af8575f80fd5b6020830194508093505050509250925092565b805182525f602082015160c0602085015262004b2b60c08501826200419c565b6040848101516001600160a01b039081169187019190915260608086015182169087015260808086015182169087015260a09485015116949093019390935250919050565b5f608080830160018060a01b038089168552602060808187015282895180855260a08801915060a08160051b8901019450828b015f5b8281101562004c1857609f198a880301845281518681511688528581015189878a015262004bd78a8a01826200419c565b90506040808301518a8303828c015262004bf283826200419c565b6060948501518b169b9094019a909a525090975050928401929084019060010162004ba6565b505050505050838103604085015262004c32818762004b0b565b9250505082606083015295945050505050565b634e487b7160e01b5f52601160045260245ffd5b8082018082111562002de55762002de562004c45565b634e487b7160e01b5f52603260045260245ffd5b608081525f62004c9760808301876200419c565b828103602084015262004cab81876200419c565b6001600160a01b03958616604085015293909416606090920191909152509392505050565b6001600160a01b03831681526040602082018190525f9062004170908301846200419c565b805162003fc48162003fa2565b805162003fc481620043b5565b80516003811062003fc4575f80fd5b5f8082840361010081121562004d32575f80fd5b60e081121562004d40575f80fd5b5062004d4b6200404b565b835162004d588162003fa2565b8152602084015162004d6a8162003fa2565b6020820152604084015162004d7f8162003fa2565b6040820152606084015162004d948162003fa2565b606082015262004da76080850162004cf5565b608082015262004dba60a0850162004d02565b60a082015262004dcd60c0850162004d0f565b60c0820152915062004de260e0840162004d02565b90509250929050565b5f815160a0845262004e0160a08501826200419c565b6020848101516001600160a01b03908116918701919091526040808601518216908701526060808601518216908701526080948501511693909401929092525090919050565b604081525f62004e5b604083018562004deb565b828103602084015262003e10818562004deb565b602081525f620022f1602083018462004deb565b6001600160a01b03851681526080602080830182905285519183018290525f91868201919060a0850190845b8181101562004ecd5784518352938301939183019160010162004eaf565b5050848103604086015262004ee3818862004b0b565b935050505082606083015295945050505050565b5f6020828403121562004f08575f80fd5b5051919050565b60208152816020820152818360408301375f818301604090810191909152601f909201601f19160101919050565b5f823560de1983360301811262004f52575f80fd5b9190910192915050565b5f62002de53683620044b1565b6001600160a01b0397881681529590961660208601526040850193909352606084019190915260ff16608083015260a082015260c081019190915260e00190565b5f6020828403121562004fbb575f80fd5b8151620022f181620043b5565b8181038181111562002de55762002de562004c45565b5f6020828403121562004fef575f80fd5b8151620022f18162004399565b600181815b808511156200503c57815f190482111562005020576200502062004c45565b808516156200502e57918102915b93841c939080029062005001565b509250929050565b5f82620050545750600162002de5565b816200506257505f62002de5565b81600181146200507b57600281146200508657620050a6565b600191505062002de5565b60ff8411156200509a576200509a62004c45565b50506001821b62002de5565b5060208310610133831016604e8410600b8410161715620050cb575081810a62002de5565b620050d7838362004ffc565b805f1904821115620050ed57620050ed62004c45565b029392505050565b5f620022f160ff84168362005044565b808202811582820484141762002de55762002de562004c45565b5f826200513a57634e487b7160e01b5f52601260045260245ffd5b500490565b634e487b7160e01b5f52602160045260245ffd5b5f825162004f528184602087016200417856fe60a060405234801561000f575f80fd5b506040516105a83803806105a883398101604081905261002e91610387565b818161003a828261004f565b506001600160a01b0316608052506104769050565b6100588261010c565b6040516001600160a01b038316907f1cf3b03a6cf19fa2baba4df148e9dcabedea7f8a5c07840e207e5c089be95d3e905f90a2805115610100576100fb826001600160a01b0316635c60da1b6040518163ffffffff1660e01b8152600401602060405180830381865afa1580156100d1573d5f803e3d5ffd5b505050506040513d601f19601f820116820180604052508101906100f59190610442565b8261021a565b505050565b61010861028d565b5050565b806001600160a01b03163b5f0361014657604051631933b43b60e21b81526001600160a01b03821660048201526024015b60405180910390fd5b807fa3f0ad74e5423aebfd80d3ef4346578335a9a72aeaee59ff6cb3582b35133d5080546001600160a01b0319166001600160a01b0392831617905560408051635c60da1b60e01b815290515f92841691635c60da1b9160048083019260209291908290030181865afa1580156101bf573d5f803e3d5ffd5b505050506040513d601f19601f820116820180604052508101906101e39190610442565b9050806001600160a01b03163b5f0361010857604051634c9c8ce360e01b81526001600160a01b038216600482015260240161013d565b60605f80846001600160a01b031684604051610236919061045b565b5f60405180830381855af49150503d805f811461026e576040519150601f19603f3d011682016040523d82523d5f602084013e610273565b606091505b5090925090506102848583836102ae565b95945050505050565b34156102ac5760405163b398979f60e01b815260040160405180910390fd5b565b6060826102c3576102be8261030d565b610306565b81511580156102da57506001600160a01b0384163b155b1561030357604051639996b31560e01b81526001600160a01b038516600482015260240161013d565b50805b9392505050565b80511561031d5780518082602001fd5b60405163d6bda27560e01b815260040160405180910390fd5b80516001600160a01b038116811461034c575f80fd5b919050565b634e487b7160e01b5f52604160045260245ffd5b5f5b8381101561037f578181015183820152602001610367565b50505f910152565b5f8060408385031215610398575f80fd5b6103a183610336565b60208401519092506001600160401b03808211156103bd575f80fd5b818501915085601f8301126103d0575f80fd5b8151818111156103e2576103e2610351565b604051601f8201601f19908116603f0116810190838211818310171561040a5761040a610351565b81604052828152886020848701011115610422575f80fd5b610433836020830160208801610365565b80955050505050509250929050565b5f60208284031215610452575f80fd5b61030682610336565b5f825161046c818460208701610365565b9190910192915050565b60805161011b61048d5f395f601d015261011b5ff3fe6080604052600a600c565b005b60186014601a565b609d565b565b5f7f00000000000000000000000000000000000000000000000000000000000000006001600160a01b0316635c60da1b6040518163ffffffff1660e01b8152600401602060405180830381865afa1580156076573d5f803e3d5ffd5b505050506040513d601f19601f820116820180604052508101906098919060ba565b905090565b365f80375f80365f845af43d5f803e80801560b6573d5ff35b3d5ffd5b5f6020828403121560c9575f80fd5b81516001600160a01b038116811460de575f80fd5b939250505056fea2646970667358221220463051bc565486b78d20466cf8d3347387dcc0893c78b8618c818ffd87132f7b64736f6c63430008180033360894a13ba1a3210667c828492db98dca3e2076cc3735a920a3ca505d382bbc9b779b17422d0df92223018b32b4d1fa46e071723d6817e2486d003becc55f00a26469706673582212200c1dea1e300f00bfdcdd1efda0a3246f7b6fd838bf2520651545e062215ef6a564736f6c63430008180033",
  "linkReferences": {},
  "deployedLinkReferences": {}
}