{
  "_format": "hh-sol-artifact-1",
  "contractName": "Bridge",
  "sourceName": "contracts/Bridge.sol",
  "abi": [
    {
      "inputs": [
        {
          "internalType": "address",
          "name": "target",
          "type": "address"
        }
      ],
      "name": "AddressEmptyCode",
      "type": "error"
    },
    {
      "inputs": [],
      "name": "AmountTooLow",
      "type": "error"
    },
    {
      "inputs": [],
      "name": "BurnAmountZero",
      "type": "error"
    },
    {
      "inputs": [],
      "name": "ECDSAInvalidSignature",
      "type": "error"
    },
    {
      "inputs": [
        {
          "internalType": "uint256",
          "name": "length",
          "type": "uint256"
        }
      ],
      "name": "ECDSAInvalidSignatureLength",
      "type": "error"
    },
    {
      "inputs": [
        {
          "internalType": "bytes32",
          "name": "s",
          "type": "bytes32"
        }
      ],
      "name": "ECDSAInvalidSignatureS",
      "type": "error"
    },
    {
      "inputs": [
        {
          "internalType": "address",
          "name": "implementation",
          "type": "address"
        }
      ],
      "name": "ERC1967InvalidImplementation",
      "type": "error"
    },
    {
      "inputs": [],
      "name": "ERC1967NonPayable",
      "type": "error"
    },
    {
      "inputs": [],
      "name": "EthTransferFailed",
      "type": "error"
    },
    {
      "inputs": [],
      "name": "FailedCall",
      "type": "error"
    },
    {
      "inputs": [],
      "name": "FeeTooHigh",
      "type": "error"
    },
    {
      "inputs": [],
      "name": "FeeTransferFailed",
      "type": "error"
    },
    {
      "inputs": [],
      "name": "InsufficientAllowance",
      "type": "error"
    },
    {
      "inputs": [
        {
          "internalType": "address",
          "name": "token",
          "type": "address"
        }
      ],
      "name": "InsufficientPermits",
      "type": "error"
    },
    {
      "inputs": [],
      "name": "InvalidConfirmingSignature",
      "type": "error"
    },
    {
      "inputs": [],
      "name": "InvalidFeeCollector",
      "type": "error"
    },
    {
      "inputs": [],
      "name": "InvalidInitialization",
      "type": "error"
    },
    {
      "inputs": [],
      "name": "InvalidPrerotatedKeyHash",
      "type": "error"
    },
    {
      "inputs": [],
      "name": "InvalidPriceFeed",
      "type": "error"
    },
    {
      "inputs": [],
      "name": "InvalidPublicKey",
      "type": "error"
    },
    {
      "inputs": [],
      "name": "InvalidUnconfirmedSignature",
      "type": "error"
    },
    {
      "inputs": [],
      "name": "NoTokenPairs",
      "type": "error"
    },
    {
      "inputs": [],
      "name": "NotInitializing",
      "type": "error"
    },
    {
      "inputs": [
        {
          "internalType": "address",
          "name": "owner",
          "type": "address"
        }
      ],
      "name": "OwnableInvalidOwner",
      "type": "error"
    },
    {
      "inputs": [
        {
          "internalType": "address",
          "name": "account",
          "type": "address"
        }
      ],
      "name": "OwnableUnauthorizedAccount",
      "type": "error"
    },
    {
      "inputs": [],
      "name": "ReentrancyGuardReentrantCall",
      "type": "error"
    },
    {
      "inputs": [],
      "name": "RestrictedToOwnerRelayer",
      "type": "error"
    },
    {
      "inputs": [],
      "name": "TokenPairExists",
      "type": "error"
    },
    {
      "inputs": [],
      "name": "TokenPairNotSupported",
      "type": "error"
    },
    {
      "inputs": [],
      "name": "TransferFailed",
      "type": "error"
    },
    {
      "inputs": [],
      "name": "UUPSUnauthorizedCallContext",
      "type": "error"
    },
    {
      "inputs": [
        {
          "internalType": "bytes32",
          "name": "slot",
          "type": "bytes32"
        }
      ],
      "name": "UUPSUnsupportedProxiableUUID",
      "type": "error"
    },
    {
      "inputs": [],
      "name": "ZeroAddress",
      "type": "error"
    },
    {
      "anonymous": false,
      "inputs": [
        {
          "indexed": false,
          "internalType": "uint64",
          "name": "version",
          "type": "uint64"
        }
      ],
      "name": "Initialized",
      "type": "event"
    },
    {
      "anonymous": false,
      "inputs": [
        {
          "indexed": true,
          "internalType": "address",
          "name": "previousOwner",
          "type": "address"
        },
        {
          "indexed": true,
          "internalType": "address",
          "name": "newOwner",
          "type": "address"
        }
      ],
      "name": "OwnershipTransferred",
      "type": "event"
    },
    {
      "anonymous": false,
      "inputs": [
        {
          "indexed": true,
          "internalType": "address",
          "name": "implementation",
          "type": "address"
        }
      ],
      "name": "Upgraded",
      "type": "event"
    },
    {
      "inputs": [],
      "name": "FEE_CAP_USD",
      "outputs": [
        {
          "internalType": "uint256",
          "name": "",
          "type": "uint256"
        }
      ],
      "stateMutability": "view",
      "type": "function"
    },
    {
      "inputs": [],
      "name": "FEE_DENOMINATOR",
      "outputs": [
        {
          "internalType": "uint256",
          "name": "",
          "type": "uint256"
        }
      ],
      "stateMutability": "view",
      "type": "function"
    },
    {
      "inputs": [],
      "name": "UPGRADE_INTERFACE_VERSION",
      "outputs": [
        {
          "internalType": "string",
          "name": "",
          "type": "string"
        }
      ],
      "stateMutability": "view",
      "type": "function"
    },
    {
      "inputs": [
        {
          "components": [
            {
              "internalType": "address",
              "name": "originalToken",
              "type": "address"
            },
            {
              "internalType": "string",
              "name": "tokenName",
              "type": "string"
            },
            {
              "internalType": "string",
              "name": "tokenSymbol",
              "type": "string"
            },
            {
              "internalType": "bool",
              "name": "isCrossChain",
              "type": "bool"
            },
            {
              "internalType": "address",
              "name": "wrappedToken",
              "type": "address"
            },
            {
              "internalType": "address",
              "name": "priceFeed",
              "type": "address"
            }
          ],
          "internalType": "struct Bridge.TokenPair[]",
          "name": "newTokenPairs",
          "type": "tuple[]"
        },
        {
          "components": [
            {
              "internalType": "bytes",
              "name": "signature",
              "type": "bytes"
            },
            {
              "internalType": "bytes",
              "name": "publicKey",
              "type": "bytes"
            },
            {
              "internalType": "address",
              "name": "publicKeyHash",
              "type": "address"
            },
            {
              "internalType": "address",
              "name": "prerotatedKeyHash",
              "type": "address"
            },
            {
              "internalType": "address",
              "name": "twicePrerotatedKeyHash",
              "type": "address"
            },
            {
              "internalType": "address",
              "name": "prevPublicKeyHash",
              "type": "address"
            },
            {
              "internalType": "address",
              "name": "outputAddress",
              "type": "address"
            },
            {
              "internalType": "bool",
              "name": "hasRelationship",
              "type": "bool"
            },
            {
              "components": [
                {
                  "internalType": "address",
                  "name": "token",
                  "type": "address"
                },
                {
                  "internalType": "uint256",
                  "name": "amount",
                  "type": "uint256"
                },
                {
                  "internalType": "uint256",
                  "name": "deadline",
                  "type": "uint256"
                },
                {
                  "internalType": "uint8",
                  "name": "v",
                  "type": "uint8"
                },
                {
                  "internalType": "bytes32",
                  "name": "r",
                  "type": "bytes32"
                },
                {
                  "internalType": "bytes32",
                  "name": "s",
                  "type": "bytes32"
                },
                {
                  "components": [
                    {
                      "internalType": "address",
                      "name": "recipientAddress",
                      "type": "address"
                    },
                    {
                      "internalType": "uint256",
                      "name": "amount",
                      "type": "uint256"
                    },
                    {
                      "internalType": "bool",
                      "name": "wrap",
                      "type": "bool"
                    },
                    {
                      "internalType": "bool",
                      "name": "unwrap",
                      "type": "bool"
                    }
                  ],
                  "internalType": "struct Bridge.Recipient[]",
                  "name": "recipients",
                  "type": "tuple[]"
                }
              ],
              "internalType": "struct Bridge.PermitData[]",
              "name": "permits",
              "type": "tuple[]"
            }
          ],
          "internalType": "struct Bridge.KeyData",
          "name": "unconfirmed",
          "type": "tuple"
        },
        {
          "components": [
            {
              "internalType": "bytes",
              "name": "signature",
              "type": "bytes"
            },
            {
              "internalType": "bytes",
              "name": "publicKey",
              "type": "bytes"
            },
            {
              "internalType": "address",
              "name": "publicKeyHash",
              "type": "address"
            },
            {
              "internalType": "address",
              "name": "prerotatedKeyHash",
              "type": "address"
            },
            {
              "internalType": "address",
              "name": "twicePrerotatedKeyHash",
              "type": "address"
            },
            {
              "internalType": "address",
              "name": "prevPublicKeyHash",
              "type": "address"
            },
            {
              "internalType": "address",
              "name": "outputAddress",
              "type": "address"
            },
            {
              "internalType": "bool",
              "name": "hasRelationship",
              "type": "bool"
            },
            {
              "components": [
                {
                  "internalType": "address",
                  "name": "token",
                  "type": "address"
                },
                {
                  "internalType": "uint256",
                  "name": "amount",
                  "type": "uint256"
                },
                {
                  "internalType": "uint256",
                  "name": "deadline",
                  "type": "uint256"
                },
                {
                  "internalType": "uint8",
                  "name": "v",
                  "type": "uint8"
                },
                {
                  "internalType": "bytes32",
                  "name": "r",
                  "type": "bytes32"
                },
                {
                  "internalType": "bytes32",
                  "name": "s",
                  "type": "bytes32"
                },
                {
                  "components": [
                    {
                      "internalType": "address",
                      "name": "recipientAddress",
                      "type": "address"
                    },
                    {
                      "internalType": "uint256",
                      "name": "amount",
                      "type": "uint256"
                    },
                    {
                      "internalType": "bool",
                      "name": "wrap",
                      "type": "bool"
                    },
                    {
                      "internalType": "bool",
                      "name": "unwrap",
                      "type": "bool"
                    }
                  ],
                  "internalType": "struct Bridge.Recipient[]",
                  "name": "recipients",
                  "type": "tuple[]"
                }
              ],
              "internalType": "struct Bridge.PermitData[]",
              "name": "permits",
              "type": "tuple[]"
            }
          ],
          "internalType": "struct Bridge.KeyData",
          "name": "confirming",
          "type": "tuple"
        }
      ],
      "name": "addMultipleTokenPairsAtomic",
      "outputs": [],
      "stateMutability": "payable",
      "type": "function"
    },
    {
      "inputs": [
        {
          "internalType": "address",
          "name": "originalToken",
          "type": "address"
        },
        {
          "internalType": "address",
          "name": "wrappedToken",
          "type": "address"
        },
        {
          "internalType": "bool",
          "name": "_isCrossChain",
          "type": "bool"
        }
      ],
      "name": "addTokenPair",
      "outputs": [],
      "stateMutability": "nonpayable",
      "type": "function"
    },
    {
      "inputs": [],
      "name": "ethPriceFeed",
      "outputs": [
        {
          "internalType": "contract AggregatorV3Interface",
          "name": "",
          "type": "address"
        }
      ],
      "stateMutability": "view",
      "type": "function"
    },
    {
      "inputs": [],
      "name": "feeCollector",
      "outputs": [
        {
          "internalType": "address",
          "name": "",
          "type": "address"
        }
      ],
      "stateMutability": "view",
      "type": "function"
    },
    {
      "inputs": [],
      "name": "feePercentage",
      "outputs": [
        {
          "internalType": "uint256",
          "name": "",
          "type": "uint256"
        }
      ],
      "stateMutability": "view",
      "type": "function"
    },
    {
      "inputs": [
        {
          "internalType": "bytes",
          "name": "publicKey",
          "type": "bytes"
        }
      ],
      "name": "getAddressFromPublicKey",
      "outputs": [
        {
          "internalType": "address",
          "name": "",
          "type": "address"
        }
      ],
      "stateMutability": "pure",
      "type": "function"
    },
    {
      "inputs": [],
      "name": "getSupportedTokens",
      "outputs": [
        {
          "internalType": "address[]",
          "name": "",
          "type": "address[]"
        }
      ],
      "stateMutability": "view",
      "type": "function"
    },
    {
      "inputs": [
        {
          "internalType": "address",
          "name": "_keyLogRegistry",
          "type": "address"
        },
        {
          "internalType": "address",
          "name": "_ethPriceFeed",
          "type": "address"
        }
      ],
      "name": "initialize",
      "outputs": [],
      "stateMutability": "nonpayable",
      "type": "function"
    },
    {
      "inputs": [],
      "name": "keyLogRegistry",
      "outputs": [
        {
          "internalType": "contract KeyLogRegistry",
          "name": "",
          "type": "address"
        }
      ],
      "stateMutability": "view",
      "type": "function"
    },
    {
      "inputs": [
        {
          "internalType": "address",
          "name": "",
          "type": "address"
        }
      ],
      "name": "nonces",
      "outputs": [
        {
          "internalType": "uint256",
          "name": "",
          "type": "uint256"
        }
      ],
      "stateMutability": "view",
      "type": "function"
    },
    {
      "inputs": [
        {
          "internalType": "address",
          "name": "originalToken",
          "type": "address"
        }
      ],
      "name": "originalToWrapped",
      "outputs": [
        {
          "internalType": "address",
          "name": "",
          "type": "address"
        }
      ],
      "stateMutability": "view",
      "type": "function"
    },
    {
      "inputs": [],
      "name": "owner",
      "outputs": [
        {
          "internalType": "address",
          "name": "",
          "type": "address"
        }
      ],
      "stateMutability": "view",
      "type": "function"
    },
    {
      "inputs": [],
      "name": "proxiableUUID",
      "outputs": [
        {
          "internalType": "bytes32",
          "name": "",
          "type": "bytes32"
        }
      ],
      "stateMutability": "view",
      "type": "function"
    },
    {
      "inputs": [
        {
          "internalType": "address",
          "name": "token",
          "type": "address"
        },
        {
          "components": [
            {
              "internalType": "uint256",
              "name": "amount",
              "type": "uint256"
            },
            {
              "internalType": "bytes",
              "name": "signature",
              "type": "bytes"
            },
            {
              "internalType": "bytes",
              "name": "publicKey",
              "type": "bytes"
            },
            {
              "internalType": "address",
              "name": "prerotatedKeyHash",
              "type": "address"
            },
            {
              "internalType": "address",
              "name": "twicePrerotatedKeyHash",
              "type": "address"
            },
            {
              "internalType": "address",
              "name": "prevPublicKeyHash",
              "type": "address"
            },
            {
              "internalType": "address",
              "name": "outputAddress",
              "type": "address"
            },
            {
              "internalType": "bool",
              "name": "hasRelationship",
              "type": "bool"
            },
            {
              "internalType": "address",
              "name": "tokenSource",
              "type": "address"
            },
            {
              "components": [
                {
                  "internalType": "address",
                  "name": "token",
                  "type": "address"
                },
                {
                  "internalType": "uint256",
                  "name": "amount",
                  "type": "uint256"
                },
                {
                  "internalType": "uint256",
                  "name": "deadline",
                  "type": "uint256"
                },
                {
                  "internalType": "uint8",
                  "name": "v",
                  "type": "uint8"
                },
                {
                  "internalType": "bytes32",
                  "name": "r",
                  "type": "bytes32"
                },
                {
                  "internalType": "bytes32",
                  "name": "s",
                  "type": "bytes32"
                },
                {
                  "components": [
                    {
                      "internalType": "address",
                      "name": "recipientAddress",
                      "type": "address"
                    },
                    {
                      "internalType": "uint256",
                      "name": "amount",
                      "type": "uint256"
                    },
                    {
                      "internalType": "bool",
                      "name": "wrap",
                      "type": "bool"
                    },
                    {
                      "internalType": "bool",
                      "name": "unwrap",
                      "type": "bool"
                    }
                  ],
                  "internalType": "struct Bridge.Recipient[]",
                  "name": "recipients",
                  "type": "tuple[]"
                }
              ],
              "internalType": "struct Bridge.PermitData[]",
              "name": "permits",
              "type": "tuple[]"
            }
          ],
          "internalType": "struct Bridge.Params",
          "name": "unconfirmed",
          "type": "tuple"
        },
        {
          "components": [
            {
              "internalType": "uint256",
              "name": "amount",
              "type": "uint256"
            },
            {
              "internalType": "bytes",
              "name": "signature",
              "type": "bytes"
            },
            {
              "internalType": "bytes",
              "name": "publicKey",
              "type": "bytes"
            },
            {
              "internalType": "address",
              "name": "prerotatedKeyHash",
              "type": "address"
            },
            {
              "internalType": "address",
              "name": "twicePrerotatedKeyHash",
              "type": "address"
            },
            {
              "internalType": "address",
              "name": "prevPublicKeyHash",
              "type": "address"
            },
            {
              "internalType": "address",
              "name": "outputAddress",
              "type": "address"
            },
            {
              "internalType": "bool",
              "name": "hasRelationship",
              "type": "bool"
            },
            {
              "internalType": "address",
              "name": "tokenSource",
              "type": "address"
            },
            {
              "components": [
                {
                  "internalType": "address",
                  "name": "token",
                  "type": "address"
                },
                {
                  "internalType": "uint256",
                  "name": "amount",
                  "type": "uint256"
                },
                {
                  "internalType": "uint256",
                  "name": "deadline",
                  "type": "uint256"
                },
                {
                  "internalType": "uint8",
                  "name": "v",
                  "type": "uint8"
                },
                {
                  "internalType": "bytes32",
                  "name": "r",
                  "type": "bytes32"
                },
                {
                  "internalType": "bytes32",
                  "name": "s",
                  "type": "bytes32"
                },
                {
                  "components": [
                    {
                      "internalType": "address",
                      "name": "recipientAddress",
                      "type": "address"
                    },
                    {
                      "internalType": "uint256",
                      "name": "amount",
                      "type": "uint256"
                    },
                    {
                      "internalType": "bool",
                      "name": "wrap",
                      "type": "bool"
                    },
                    {
                      "internalType": "bool",
                      "name": "unwrap",
                      "type": "bool"
                    }
                  ],
                  "internalType": "struct Bridge.Recipient[]",
                  "name": "recipients",
                  "type": "tuple[]"
                }
              ],
              "internalType": "struct Bridge.PermitData[]",
              "name": "permits",
              "type": "tuple[]"
            }
          ],
          "internalType": "struct Bridge.Params",
          "name": "confirming",
          "type": "tuple"
        }
      ],
      "name": "registerKeyPairWithTransfer",
      "outputs": [],
      "stateMutability": "payable",
      "type": "function"
    },
    {
      "inputs": [
        {
          "internalType": "bytes",
          "name": "publicKey",
          "type": "bytes"
        },
        {
          "internalType": "address",
          "name": "publicKeyHash",
          "type": "address"
        },
        {
          "internalType": "address",
          "name": "prerotatedKeyHash",
          "type": "address"
        },
        {
          "internalType": "address",
          "name": "twicePrerotatedKeyHash",
          "type": "address"
        },
        {
          "internalType": "address",
          "name": "prevPublicKeyHash",
          "type": "address"
        },
        {
          "internalType": "address",
          "name": "outputAddress",
          "type": "address"
        },
        {
          "internalType": "bool",
          "name": "hasRelationship",
          "type": "bool"
        },
        {
          "components": [
            {
              "internalType": "address",
              "name": "token",
              "type": "address"
            },
            {
              "internalType": "uint256",
              "name": "amount",
              "type": "uint256"
            },
            {
              "internalType": "uint256",
              "name": "deadline",
              "type": "uint256"
            },
            {
              "internalType": "uint8",
              "name": "v",
              "type": "uint8"
            },
            {
              "internalType": "bytes32",
              "name": "r",
              "type": "bytes32"
            },
            {
              "internalType": "bytes32",
              "name": "s",
              "type": "bytes32"
            },
            {
              "components": [
                {
                  "internalType": "address",
                  "name": "recipientAddress",
                  "type": "address"
                },
                {
                  "internalType": "uint256",
                  "name": "amount",
                  "type": "uint256"
                },
                {
                  "internalType": "bool",
                  "name": "wrap",
                  "type": "bool"
                },
                {
                  "internalType": "bool",
                  "name": "unwrap",
                  "type": "bool"
                }
              ],
              "internalType": "struct Bridge.Recipient[]",
              "name": "recipients",
              "type": "tuple[]"
            }
          ],
          "internalType": "struct Bridge.PermitData[]",
          "name": "permits",
          "type": "tuple[]"
        }
      ],
      "name": "registerKeyWithTransfer",
      "outputs": [],
      "stateMutability": "payable",
      "type": "function"
    },
    {
      "inputs": [],
      "name": "relayer",
      "outputs": [
        {
          "internalType": "address",
          "name": "",
          "type": "address"
        }
      ],
      "stateMutability": "view",
      "type": "function"
    },
    {
      "inputs": [],
      "name": "renounceOwnership",
      "outputs": [],
      "stateMutability": "nonpayable",
      "type": "function"
    },
    {
      "inputs": [
        {
          "internalType": "address",
          "name": "_ethPriceFeed",
          "type": "address"
        }
      ],
      "name": "setEthPriceFeed",
      "outputs": [],
      "stateMutability": "nonpayable",
      "type": "function"
    },
    {
      "inputs": [
        {
          "internalType": "address",
          "name": "_feeCollector",
          "type": "address"
        }
      ],
      "name": "setFeeCollector",
      "outputs": [],
      "stateMutability": "nonpayable",
      "type": "function"
    },
    {
      "inputs": [
        {
          "internalType": "uint256",
          "name": "_feePercentage",
          "type": "uint256"
        }
      ],
      "name": "setFeePercentage",
      "outputs": [],
      "stateMutability": "nonpayable",
      "type": "function"
    },
    {
      "inputs": [
        {
          "internalType": "address",
          "name": "_relayer",
          "type": "address"
        }
      ],
      "name": "setRelayer",
      "outputs": [],
      "stateMutability": "nonpayable",
      "type": "function"
    },
    {
      "inputs": [
        {
          "internalType": "address",
          "name": "token",
          "type": "address"
        },
        {
          "internalType": "address",
          "name": "priceFeed",
          "type": "address"
        }
      ],
      "name": "setTokenPriceFeed",
      "outputs": [],
      "stateMutability": "nonpayable",
      "type": "function"
    },
    {
      "inputs": [
        {
          "internalType": "uint256",
          "name": "",
          "type": "uint256"
        }
      ],
      "name": "supportedOriginalTokens",
      "outputs": [
        {
          "internalType": "address",
          "name": "",
          "type": "address"
        }
      ],
      "stateMutability": "view",
      "type": "function"
    },
    {
      "inputs": [
        {
          "internalType": "address",
          "name": "",
          "type": "address"
        }
      ],
      "name": "tokenPairs",
      "outputs": [
        {
          "internalType": "address",
          "name": "originalToken",
          "type": "address"
        },
        {
          "internalType": "address",
          "name": "wrappedToken",
          "type": "address"
        },
        {
          "internalType": "bool",
          "name": "isCrossChain",
          "type": "bool"
        }
      ],
      "stateMutability": "view",
      "type": "function"
    },
    {
      "inputs": [
        {
          "internalType": "address",
          "name": "",
          "type": "address"
        }
      ],
      "name": "tokenPriceFeeds",
      "outputs": [
        {
          "internalType": "contract AggregatorV3Interface",
          "name": "",
          "type": "address"
        }
      ],
      "stateMutability": "view",
      "type": "function"
    },
    {
      "inputs": [
        {
          "internalType": "address",
          "name": "newOwner",
          "type": "address"
        }
      ],
      "name": "transferOwnership",
      "outputs": [],
      "stateMutability": "nonpayable",
      "type": "function"
    },
    {
      "inputs": [
        {
          "internalType": "address",
          "name": "wrappedToken",
          "type": "address"
        },
        {
          "components": [
            {
              "internalType": "uint256",
              "name": "amount",
              "type": "uint256"
            },
            {
              "internalType": "bytes",
              "name": "signature",
              "type": "bytes"
            },
            {
              "internalType": "bytes",
              "name": "publicKey",
              "type": "bytes"
            },
            {
              "internalType": "address",
              "name": "prerotatedKeyHash",
              "type": "address"
            },
            {
              "internalType": "address",
              "name": "twicePrerotatedKeyHash",
              "type": "address"
            },
            {
              "internalType": "address",
              "name": "prevPublicKeyHash",
              "type": "address"
            },
            {
              "internalType": "address",
              "name": "outputAddress",
              "type": "address"
            },
            {
              "internalType": "bool",
              "name": "hasRelationship",
              "type": "bool"
            },
            {
              "internalType": "address",
              "name": "tokenSource",
              "type": "address"
            },
            {
              "components": [
                {
                  "internalType": "address",
                  "name": "token",
                  "type": "address"
                },
                {
                  "internalType": "uint256",
                  "name": "amount",
                  "type": "uint256"
                },
                {
                  "internalType": "uint256",
                  "name": "deadline",
                  "type": "uint256"
                },
                {
                  "internalType": "uint8",
                  "name": "v",
                  "type": "uint8"
                },
                {
                  "internalType": "bytes32",
                  "name": "r",
                  "type": "bytes32"
                },
                {
                  "internalType": "bytes32",
                  "name": "s",
                  "type": "bytes32"
                },
                {
                  "components": [
                    {
                      "internalType": "address",
                      "name": "recipientAddress",
                      "type": "address"
                    },
                    {
                      "internalType": "uint256",
                      "name": "amount",
                      "type": "uint256"
                    },
                    {
                      "internalType": "bool",
                      "name": "wrap",
                      "type": "bool"
                    },
                    {
                      "internalType": "bool",
                      "name": "unwrap",
                      "type": "bool"
                    }
                  ],
                  "internalType": "struct Bridge.Recipient[]",
                  "name": "recipients",
                  "type": "tuple[]"
                }
              ],
              "internalType": "struct Bridge.PermitData[]",
              "name": "permits",
              "type": "tuple[]"
            }
          ],
          "internalType": "struct Bridge.Params",
          "name": "unconfirmed",
          "type": "tuple"
        },
        {
          "components": [
            {
              "internalType": "uint256",
              "name": "amount",
              "type": "uint256"
            },
            {
              "internalType": "bytes",
              "name": "signature",
              "type": "bytes"
            },
            {
              "internalType": "bytes",
              "name": "publicKey",
              "type": "bytes"
            },
            {
              "internalType": "address",
              "name": "prerotatedKeyHash",
              "type": "address"
            },
            {
              "internalType": "address",
              "name": "twicePrerotatedKeyHash",
              "type": "address"
            },
            {
              "internalType": "address",
              "name": "prevPublicKeyHash",
              "type": "address"
            },
            {
              "internalType": "address",
              "name": "outputAddress",
              "type": "address"
            },
            {
              "internalType": "bool",
              "name": "hasRelationship",
              "type": "bool"
            },
            {
              "internalType": "address",
              "name": "tokenSource",
              "type": "address"
            },
            {
              "components": [
                {
                  "internalType": "address",
                  "name": "token",
                  "type": "address"
                },
                {
                  "internalType": "uint256",
                  "name": "amount",
                  "type": "uint256"
                },
                {
                  "internalType": "uint256",
                  "name": "deadline",
                  "type": "uint256"
                },
                {
                  "internalType": "uint8",
                  "name": "v",
                  "type": "uint8"
                },
                {
                  "internalType": "bytes32",
                  "name": "r",
                  "type": "bytes32"
                },
                {
                  "internalType": "bytes32",
                  "name": "s",
                  "type": "bytes32"
                },
                {
                  "components": [
                    {
                      "internalType": "address",
                      "name": "recipientAddress",
                      "type": "address"
                    },
                    {
                      "internalType": "uint256",
                      "name": "amount",
                      "type": "uint256"
                    },
                    {
                      "internalType": "bool",
                      "name": "wrap",
                      "type": "bool"
                    },
                    {
                      "internalType": "bool",
                      "name": "unwrap",
                      "type": "bool"
                    }
                  ],
                  "internalType": "struct Bridge.Recipient[]",
                  "name": "recipients",
                  "type": "tuple[]"
                }
              ],
              "internalType": "struct Bridge.PermitData[]",
              "name": "permits",
              "type": "tuple[]"
            }
          ],
          "internalType": "struct Bridge.Params",
          "name": "confirming",
          "type": "tuple"
        }
      ],
      "name": "unwrap",
      "outputs": [],
      "stateMutability": "payable",
      "type": "function"
    },
    {
      "inputs": [
        {
          "internalType": "address",
          "name": "newImplementation",
          "type": "address"
        },
        {
          "internalType": "bytes",
          "name": "data",
          "type": "bytes"
        }
      ],
      "name": "upgradeToAndCall",
      "outputs": [],
      "stateMutability": "payable",
      "type": "function"
    },
    {
      "inputs": [
        {
          "internalType": "address",
          "name": "originalToken",
          "type": "address"
        },
        {
          "components": [
            {
              "internalType": "uint256",
              "name": "amount",
              "type": "uint256"
            },
            {
              "internalType": "bytes",
              "name": "signature",
              "type": "bytes"
            },
            {
              "internalType": "bytes",
              "name": "publicKey",
              "type": "bytes"
            },
            {
              "internalType": "address",
              "name": "prerotatedKeyHash",
              "type": "address"
            },
            {
              "internalType": "address",
              "name": "twicePrerotatedKeyHash",
              "type": "address"
            },
            {
              "internalType": "address",
              "name": "prevPublicKeyHash",
              "type": "address"
            },
            {
              "internalType": "address",
              "name": "outputAddress",
              "type": "address"
            },
            {
              "internalType": "bool",
              "name": "hasRelationship",
              "type": "bool"
            },
            {
              "internalType": "address",
              "name": "tokenSource",
              "type": "address"
            },
            {
              "components": [
                {
                  "internalType": "address",
                  "name": "token",
                  "type": "address"
                },
                {
                  "internalType": "uint256",
                  "name": "amount",
                  "type": "uint256"
                },
                {
                  "internalType": "uint256",
                  "name": "deadline",
                  "type": "uint256"
                },
                {
                  "internalType": "uint8",
                  "name": "v",
                  "type": "uint8"
                },
                {
                  "internalType": "bytes32",
                  "name": "r",
                  "type": "bytes32"
                },
                {
                  "internalType": "bytes32",
                  "name": "s",
                  "type": "bytes32"
                },
                {
                  "components": [
                    {
                      "internalType": "address",
                      "name": "recipientAddress",
                      "type": "address"
                    },
                    {
                      "internalType": "uint256",
                      "name": "amount",
                      "type": "uint256"
                    },
                    {
                      "internalType": "bool",
                      "name": "wrap",
                      "type": "bool"
                    },
                    {
                      "internalType": "bool",
                      "name": "unwrap",
                      "type": "bool"
                    }
                  ],
                  "internalType": "struct Bridge.Recipient[]",
                  "name": "recipients",
                  "type": "tuple[]"
                }
              ],
              "internalType": "struct Bridge.PermitData[]",
              "name": "permits",
              "type": "tuple[]"
            }
          ],
          "internalType": "struct Bridge.Params",
          "name": "unconfirmed",
          "type": "tuple"
        },
        {
          "components": [
            {
              "internalType": "uint256",
              "name": "amount",
              "type": "uint256"
            },
            {
              "internalType": "bytes",
              "name": "signature",
              "type": "bytes"
            },
            {
              "internalType": "bytes",
              "name": "publicKey",
              "type": "bytes"
            },
            {
              "internalType": "address",
              "name": "prerotatedKeyHash",
              "type": "address"
            },
            {
              "internalType": "address",
              "name": "twicePrerotatedKeyHash",
              "type": "address"
            },
            {
              "internalType": "address",
              "name": "prevPublicKeyHash",
              "type": "address"
            },
            {
              "internalType": "address",
              "name": "outputAddress",
              "type": "address"
            },
            {
              "internalType": "bool",
              "name": "hasRelationship",
              "type": "bool"
            },
            {
              "internalType": "address",
              "name": "tokenSource",
              "type": "address"
            },
            {
              "components": [
                {
                  "internalType": "address",
                  "name": "token",
                  "type": "address"
                },
                {
                  "internalType": "uint256",
                  "name": "amount",
                  "type": "uint256"
                },
                {
                  "internalType": "uint256",
                  "name": "deadline",
                  "type": "uint256"
                },
                {
                  "internalType": "uint8",
                  "name": "v",
                  "type": "uint8"
                },
                {
                  "internalType": "bytes32",
                  "name": "r",
                  "type": "bytes32"
                },
                {
                  "internalType": "bytes32",
                  "name": "s",
                  "type": "bytes32"
                },
                {
                  "components": [
                    {
                      "internalType": "address",
                      "name": "recipientAddress",
                      "type": "address"
                    },
                    {
                      "internalType": "uint256",
                      "name": "amount",
                      "type": "uint256"
                    },
                    {
                      "internalType": "bool",
                      "name": "wrap",
                      "type": "bool"
                    },
                    {
                      "internalType": "bool",
                      "name": "unwrap",
                      "type": "bool"
                    }
                  ],
                  "internalType": "struct Bridge.Recipient[]",
                  "name": "recipients",
                  "type": "tuple[]"
                }
              ],
              "internalType": "struct Bridge.PermitData[]",
              "name": "permits",
              "type": "tuple[]"
            }
          ],
          "internalType": "struct Bridge.Params",
          "name": "confirming",
          "type": "tuple"
        }
      ],
      "name": "wrap",
      "outputs": [],
      "stateMutability": "payable",
      "type": "function"
    }
  ],
  "bytecode": "0x60a0806040523461002a5730608052615ca09081610030823960805181818161186801526119170152f35b600080fdfe60808060405260043610156200001457600080fd5b600090813560e01c908163081da8c11462002a7b575080631777e6ba146200270e578063276c1ac014620026c0578063334976c71462002588578063376b787a146200237d578063446b41201462001d0157806347bbbdf51462001ca2578063485cc9551462001ae85780634f1ef28614620018d357806352d1902d14620018535780636548e9bc146200180d578063674417ae14620017ab578063715018a6146200173b5780637ecebe0014620016fe5780638406c07914620016d357806387bec9821462000e075780638da5cb5b1462000dce5780639e65745514620005b6578063a001ecdd1462000596578063a42dce801462000536578063ad3cb1cc14620004bf578063ae06c1b7146200047c578063af7665ce1462000451578063b5057a7b1462000428578063bd9c47e314620003e8578063c011c9eb14620003a2578063c415b95c1462000377578063d3c7c2c714620002a9578063d73792a9146200028a578063d8397fd51462000241578063f2fde38b14620001ca5763f9baf7bf14620001a257600080fd5b34620001c75780600319360112620001c7576020604051683635c9adc5dea000008152f35b80fd5b5034620001c7576020366003190112620001c757620001e862002af2565b620001f262003a63565b6001600160a01b0381169081156200022f576200022c916001600160601b0360a01b60025416176002556200022662003a63565b62003f82565b80f35b60405163d92e233d60e01b8152600490fd5b5034620001c7576020366003190112620001c75760043590600654821015620001c7576020620002718362002cef565b905460405160039290921b1c6001600160a01b03168152f35b5034620001c75780600319360112620001c75760206040516127108152f35b5034620001c75780600319360112620001c75760405180916006549081835260208093018092600683527ff652222313e28459528d920b65115c16c04f3efc82aaedc97be59f3f377c0d3f90835b8181106200035957505050846200031091038562002bd1565b60405193838594850191818652518092526040850193925b8281106200033857505050500390f35b83516001600160a01b03168552869550938101939281019260010162000328565b82546001600160a01b031684529286019260019283019201620002f7565b5034620001c75780600319360112620001c7576002546040516001600160a01b039091168152602090f35b5034620001c7576020366003190112620001c757620003c062002af2565b620003ca62003a63565b60018060a01b03166001600160601b0360a01b600854161760085580f35b5034620001c7576020366003190112620001c7576020906001600160a01b0390604090826200041662002af2565b16815260078452205416604051908152f35b5034620001c75780600319360112620001c757546040516001600160a01b039091168152602090f35b5034620001c75780600319360112620001c7576008546040516001600160a01b039091168152602090f35b5034620001c7576020366003190112620001c7576004356200049d62003a63565b6127108111620004ad5760035580f35b60405163cd4e616760e01b8152600490fd5b5034620001c75780600319360112620001c75760405160408101908082106001600160401b0383111762000520576200051c9160405260058152640352e302e360dc1b602082015260405191829160208352602083019062002cad565b0390f35b634e487b7160e01b600052604160045260246000fd5b5034620001c7576020366003190112620001c7576200055462002af2565b6200055e62003a63565b6001600160a01b0316801562000584576001600160601b0360a01b600254161760025580f35b60405163bb0bac9960e01b8152600490fd5b5034620001c75780600319360112620001c7576020600354604051908152f35b50620005c23662002b3a565b909291620005cf62003258565b6001600160a01b0381168352600460205260408084209051919060ff90600190620005fa8562002ba1565b818060a01b038154168552015460018060a01b038116602085015260a01c16151560408301523384526005602052604084205494620006b1620006aa6200064460c0840162002fb1565b604080516001600160a01b03808816602083019081528735938301939093529092166060830152608082018a9052906200068c8160a081015b03601f19810183528262002bd1565b5190206200069e602085018562002ffb565b92903393369162002c0f565b9062003a9e565b1562000dbc57620006c560c0850162002fb1565b60018701871162000da857604080516001600160a01b038086166020830190815288359383019390935290921660608301526001880160808301526200075c91620006aa91906200071a8160a081016200067d565b5190206200072c602088018862002ffb565b9290620007536200074d6200074560408c018c62002ffb565b369162002c0f565b6200303e565b93369162002c0f565b1562000d965784546001600160a01b03166101206200077e60c0840162002fb1565b6040516324b9c44160e21b81526001600160a01b03909116600482015291829060249082905afa801562000d8b578691879162000c7b575b5062000c3d575b50620007cb81358362003cf5565b928382351062000c2b57620007e03462003ba7565b9384341062000c2b57620007f8610100840162002fb1565b6200080861012085018562002d3d565b3690620008159262002f2a565b62000821918662003600565b62000830604084018462002ffb565b876200083f6060870162002fb1565b926200084e6080880162002fb1565b6200085c60a0890162002fb1565b906200086b60c08a0162002fb1565b956200087a60e08b0162003030565b62000889604087018762002ffb565b9890946200089a6060890162002fb1565b94620008a960808a0162002fb1565b96620008b860a08b0162002fb1565b98620008c760c08c0162002fb1565b9a60e001620008d69062003030565b9b3690620008e49262002c0f565b9b3690620008f29262002c0f565b94620008fe9b62003986565b60008051602062005c2b833981519152546001600160a01b031633148062000c0b575b62000bb9575b6002880180981162000ba5578697338852600560205260408820558015158062000b92575b62000acf575b6200095f90833562002fa3565b908162000a36575b5050503462000988575b83600160008051602062005c4b8339815191525580f35b81620009f9575b6001600160a01b0316620009a5575b8062000971565b620009b1903462002fa3565b80156200099e5782809291620009cb606083940162002fb1565b5af1620009d762002fc6565b5015620009e7578038806200099e565b604051630db2c7f160e31b8152600490fd5b928080808460018060a01b03600254165af162000a1562002fc6565b501562000a245783926200098f565b604051634033e4e360e01b8152600490fd5b602001516001600160a01b03169162000a529060c00162002fb1565b90823b1562000acb576040516340c10f1960e01b81526001600160a01b0392909216600483015260248201529085908290604490829084905af190811562000ac057859162000aa3575b8062000967565b62000aae9062002bbd565b62000abb57833862000a9c565b505050fd5b6040513d87823e3d90fd5b8680fd5b60025460405163a9059cbb60e01b81526001600160a01b03909116600482015260248101829052909650602081806044810103818b6001600160a01b0389165af190811562000b8757889162000b41575b501562000b2f57869562000952565b6040516312171d8360e31b8152600490fd5b90506020813d60201162000b7e575b8162000b5f6020938362002bd1565b8101031262000b7a5762000b7390620030b3565b3862000b20565b8780fd5b3d915062000b50565b6040513d8a823e3d90fd5b506001600160a01b03841615156200094c565b634e487b7160e01b87526011600452602487fd5b62000bc76060870162002fb1565b62000bd162003a63565b6001600160a01b0381169081156200022f5762000c05916001600160601b0360a01b60025416176002556200022662003a63565b62000927565b506001600160a01b0362000c226060880162002fb1565b16151562000921565b604051631fbaba3560e01b8152600490fd5b602001516001600160a01b039081169062000c5b60c0840162002fb1565b160362000c695738620007bd565b604051631a7ec90d60e01b8152600490fd5b915050806101203d6101201162000d83575b62000c99818362002bd1565b810103610120811262000acb576101001362000d7f5760405190816101008101106001600160401b03610100840111176200052057610100820160405262000ce18162003243565b825262000cf16020820162003243565b602083015262000d046040820162003243565b604083015262000d176060820162003243565b606083015262000d2a6080820162003243565b608083015262000d3d60a08201620030b3565b60a083015262000d5060c08201620030b3565b60c083015260e0810151600381101562000b7a5760e083015262000d789061010001620030b3565b38620007b6565b8580fd5b503d62000c8d565b6040513d88823e3d90fd5b604051633bc0bb3d60e21b8152600490fd5b634e487b7160e01b86526011600452602486fd5b604051637a9e3e8360e01b8152600490fd5b5034620001c75780600319360112620001c75760008051602062005c2b833981519152546040516001600160a01b039091168152602090f35b5060031990606036830112620001c7576004356001600160401b038111620016cb5762000e3990369060040162002c7a565b926001600160401b0360243511620016cf5761012090818160243536030112620010e7576001600160401b0360443511620010e75760443536030112620016cb5762000e8462003a63565b62000e8e62003258565b8215620016b9573382526005602052604082205462000eee620006aa8262000ed562000ebf60446024350162002fb1565b6200067d6040519384928b8a6020860162003116565b80516020909101206200069e6024356004018062002ffb565b1562000dbc5762000f0460446024350162002fb1565b9060018101809111620016a55762000f6b916200067d62000f37620006aa9360405192839160208301958b8a8862003116565b51902062000f4b6004604435018062002ffb565b9290620007536200074d6200074560246044350160443560040162002ffb565b1562000d965762000faf62000f8560a46024350162002fb1565b62000fa862000fa06101046024350160243560040162002d3d565b369162002f2a565b906200328a565b815b6006548110156200113d5762000fc78162002cef565b90546001600160a01b039160031b1c811662000fe860243560440162002fb1565b6040516370a0823160e01b815292166004830152602082602481845afa91821562000ac0578592620010ff575b508162001028575b505060010162000fb1565b6200108b916020916200104060446024350162002fb1565b876200105160c46044350162002fb1565b6040516323b872dd60e01b81526001600160a01b039384166004820152921660248301526044820193909352938492839182906064820190565b03925af1908115620010f4578491620010ae575b501562000b2f5738806200101d565b90506020813d602011620010eb575b81620010cc6020938362002bd1565b81010312620010e757620010e090620030b3565b386200109f565b8380fd5b3d9150620010bd565b6040513d86823e3d90fd5b9091506020813d60201162001134575b816200111e6020938362002bd1565b81010312620011305751903862001015565b8480fd5b3d91506200110f565b5091815b8181106200132957620012498362001163602480350160243560040162002ffb565b6200117660646024959395350162002fb1565b936200118760846024350162002fb1565b6200119760a46024350162002fb1565b95620011a860c46024350162002fb1565b91620011b960e46024350162003030565b620011cf60246044350160443560040162002ffb565b9190946064604435019a620011e48c62002fb1565b94620011f560846044350162002fb1565b96620012426200120a60a46044350162002fb1565b99620012396200121f60c46044350162002fb1565b9c6200123060e46044350162003030565b9e369162002c0f565b97369162002c0f565b9562003986565b6001600160a01b03806200125d8462002fb1565b16620012e0575b5033815260056020526040812091825460028101809111620012cc5782935534620012a1575b50600160008051602062005c4b8339815191525580f35b81808092620012b1349162002fb1565b5af1620012bd62002fc6565b5015620009e75780826200128a565b634e487b7160e01b83526011600452602483fd5b620012eb8362002fb1565b90620012f662003a63565b81169081156200022f5762001322916001600160601b0360a01b60025416176002556200022662003a63565b8262001264565b8060051b84013560be1985360301811215620010e75760c0818601360312620010e757604051908160c08101106001600160401b0360c084011117620005205760c082016040526200137d81870162002b25565b8252602081870101356001600160401b03811162000d7f57620013a69036908389010162002c4b565b6020830152604081870101356001600160401b03811162000d7f576200141191620013d960a0923690838b010162002c4b565b6040850152620013ee6060828a010162002c6c565b6060850152620014036080828a010162002b25565b608085015287010162002b25565b60a082015280516001600160a01b0390811685526004602052604085206001015416620016935760808101516001600160a01b03168015620015de575b8151606083015160405160019594939290911515906001600160a01b0316620014778362002ba1565b825260a086811b87900384811660208086019182526040808701958652885184168d526004909152808c20955186549084166001600160a01b0319909116178655905194890180549451151590931b60ff60a01b9081169583166001600160a81b031995861617959095179092558551606087015192519215159493928992909116620015048262002ba1565b81526020810195828060a01b038116875260408201958652828060a01b03168b52600460205260408b2090828060a01b039051166001600160601b0360a01b8254161781550193878060a01b039051169184549351151560a01b1692161717905562001578838060a01b038251166200306e565b828060a01b0360a0820151169081151580620015cc575b6200159e575b50500162001141565b838060a01b039051168552600760205260408520906001600160601b0360a01b825416179055388062001595565b50838060a01b0381511615156200158f565b506020810151604082015160018060a01b03865416906040519283611a2c8101106001600160401b03611a2c860111176200167f578392916200163a6200165192611a2c620041ff87396080611a2c8701818152019062002cad565b90611a2c850182036020611a2c8701015262002cad565b90306040611a2c850101526060611a2c84010152039085f08015620010f4576001600160a01b03166200144e565b634e487b7160e01b88526041600452602488fd5b604051636bb9e87d60e01b8152600490fd5b634e487b7160e01b84526011600452602484fd5b604051630554f0a760e41b8152600490fd5b5080fd5b8280fd5b5034620001c75780600319360112620001c7576001546040516001600160a01b039091168152602090f35b5034620001c7576020366003190112620001c7576020906040906001600160a01b036200172a62002af2565b168152600583522054604051908152f35b5034620001c75780600319360112620001c7576200175862003a63565b60008051602062005c2b83398151915280546001600160a01b031981169091556000906001600160a01b03167f8be0079c531659141344cd1fd0a4f28419497f9722a3daafe3b4186f6b6457e08280a380f35b5034620001c7576040366003190112620001c757620017c962002af2565b620017d362002b0e565b90620017de62003a63565b6001600160a01b03908116835260076020526040832080546001600160a01b0319169290911691909117905580f35b5034620001c7576020366003190112620001c7576200182b62002af2565b6200183562003a63565b60018060a01b03166001600160601b0360a01b600154161760015580f35b5034620001c75780600319360112620001c7577f00000000000000000000000000000000000000000000000000000000000000006001600160a01b03163003620018c15760206040517f360894a13ba1a3210667c828492db98dca3e2076cc3735a920a3ca505d382bbc8152f35b60405163703e46dd60e11b8152600490fd5b506040366003190112620001c757620018eb62002af2565b6024356001600160401b038111620016cf576200190d90369060040162002c4b565b6001600160a01b037f0000000000000000000000000000000000000000000000000000000000000000811630811490811562001ab9575b50620018c1576200195462003a63565b8216916040516352d1902d60e01b8152602081600481875afa85918162001a7f575b506200199557604051634c9c8ce360e01b815260048101859052602490fd5b9284937f360894a13ba1a3210667c828492db98dca3e2076cc3735a920a3ca505d382bbc9081810362001a675750823b1562001a4e5780546001600160a01b0319168217905560405184917fbc7cd75a20ee27fd9adebab32041f755214dbc6bffa90cc0225b39da2e5c2d3b8380a283511562001a3157508083602062001a2d95519101845af462001a2662002fc6565b9162004196565b5080f35b925050503462001a3f575080f35b63b398979f60e01b8152600490fd5b604051634c9c8ce360e01b815260048101839052602490fd5b60249060405190632a87526960e21b82526004820152fd5b9091506020813d60201162001ab0575b8162001a9e6020938362002bd1565b8101031262000d7f5751903862001976565b3d915062001a8f565b9050817f360894a13ba1a3210667c828492db98dca3e2076cc3735a920a3ca505d382bbc541614153862001944565b5034620001c7576040366003190112620001c75762001b0662002af2565b62001b1062002b0e565b7ff0c57e16840df040f15088dc2f81fe391c3923bec73e23a9662efc9c229c6a009182549160ff8360401c1615926001600160401b0381168015908162001c99575b600114908162001c8e575b15908162001c84575b5062001c725767ffffffffffffffff19811660011785558362001c52575b5062001b8f62003ff8565b62001b9962003ff8565b62001ba43362003f82565b62001bae62003ff8565b62001bb862003ff8565b62001bc262003ff8565b600160008051602062005c4b8339815191525560018060a01b0390816001600160601b0360a01b9316838754161786553383600254161760025560016003551690600854161760085562001c14575080f35b68ff00000000000000001981541690557fc7f505b2f371ae2175ee4913f4499e1f2633a7b5936321eed1cdaeb6115181d2602060405160018152a180f35b68ffffffffffffffffff1916680100000000000000011784553862001b84565b60405163f92ee8a960e01b8152600490fd5b9050153862001b66565b303b15915062001b5d565b85915062001b52565b5034620001c7576020366003190112620001c7576060906001600160a01b039060ff906040908362001cd362002af2565b16815260046020522091600181845416930154906040519384528116602084015260a01c1615156040820152f35b5062001d0d3662002b3a565b9062001d1b93929362003258565b60018060a01b0384169081845260046020526040842060016040519162001d428362002ba1565b818060a01b038154168352015460ff60018060a01b0382169182602085015260a01c1615156040830152156200236b57338552600560205260408520549562001d8e60c0840162002fb1565b604080516001600160a01b03808516602083019081528735938301939093529092166060830152608082018990529062001dcc8160a081016200067d565b5190209362001e0262001de3602086018662002ffb565b9096620006aa6040880198620007536200074d620007458c8c62002ffb565b1562000dbc5762001e1660c0870162002fb1565b60018901808a116200235757604051916020830193845289604084015260018060a01b0316606083015260808201526080815260a081018181106001600160401b038211176200052057879262001e9b92620006aa9260405251902062001e81602085018562002ffb565b9290620007536200074d6200074560408901809962002ffb565b1562000d965782516001600160a01b0316156200231e57825162001ecb908535906001600160a01b031662003cf5565b9162001ed983863562002fa3565b958386351062000c2b5787915b62001ef661012088018862002d3d565b369062001f039262002f2a565b3362001f0f9262003600565b62001f1b908662002ffb565b919062001f2b6060880162002fb1565b62001f396080890162002fb1565b62001f4760a08a0162002fb1565b9162001f5660c08b0162002fb1565b9662001f6560e08c0162003030565b9062001f72908762002ffb565b98909462001f836060890162002fb1565b9462001f9260808a0162002fb1565b9662001fa160a08b0162002fb1565b9862001fb060c08c0162002fb1565b9a60e00162001fbf9062003030565b9b369062001fcd9262002c0f565b9b369062001fdb9262002c0f565b9462001fe79b62003986565b60008051602062005c2b833981519152546001600160a01b0316331480620022fe575b620022ac575b6002870180971162000da857338652600560205260408620969096558051949586956001600160a01b03161562002223578062002183575b5082620020b2575b5050503415158062002077575b5050505b600160008051602062005c4b8339815191525580f35b62002084575b806200205d565b8180809262002097606034920162002fb1565b5af1620020a362002fc6565b5015620009e75780386200207d565b519293506200211092602092916001600160a01b0390911690620020d99060c00162002fb1565b60405163a9059cbb60e01b81526001600160a01b039091166004820152602481019290925290928391908290879082906044820190565b03925af19081156200217857839162002136575b501562000b2f57819038808062002050565b90506020813d6020116200216f575b81620021546020938362002bd1565b81010312620016cf576200216890620030b3565b3862002124565b3d915062002145565b6040513d85823e3d90fd5b815160025460405163a9059cbb60e01b81526001600160a01b03918216600482015260248101939093529296509091602091839160449183918b91165af190811562000d8b578691620021e1575b501562000b2f5784933862002048565b90506020813d6020116200221a575b81620021ff6020938362002bd1565b8101031262000d7f576200221390620030b3565b38620021d1565b3d9150620021f0565b9450509080925062002276575b50508062002240575b5062002061565b80471062000c2b5760025482918291829182916001600160a01b03165af16200226862002fc6565b501562000b2f573862002239565b81471062000c2b57838080936200229160c083950162002fb1565b5af16200229d62002fc6565b5015620009e757388062002230565b620022ba6060860162002fb1565b620022c462003a63565b6001600160a01b0381169081156200022f57620022f8916001600160601b0360a01b60025416176002556200022662003a63565b62002010565b506001600160a01b03620023156060870162002fb1565b1615156200200a565b6200232e84959295353462002f06565b946200233a8662003ba7565b928362002348818962002fa3565b971062000c2b57879162001ee6565b634e487b7160e01b89526011600452602489fd5b604051637879bad160e01b8152600490fd5b50610100366003190112620001c7576001600160401b0381600435828111620016cb57620023b090369060040162002c4b565b91620023bb62002b0e565b6044356001600160a01b0381811695909391929086840362000d7f576064359185831680930362000acb576084359386851680950362000b7a5760a43587811696878203620025845760c43592831515809403620025805760e435908111620025805762002440620024366200244792369060040162002c7a565b62000fa062003258565b336200328a565b338960008051602062005c2b8339815191525416148062002576575b62002538575b503462002514575b508688541695863b156200251057620024ac9589956040519b8c9a8b998a9863151cdb2f60e11b8a5260e060048b015260e48a019062002cad565b9616602488015260448701526064860152608485015260a484015260c483015203925af180156200250557620024f35750600160008051602062005c4b8339815191525580f35b620024fe9062002bbd565b386200128a565b6040513d84823e3d90fd5b8880fd5b97808080939a34905af16200252862002fc6565b5015620009e75788963862002471565b98506200254462003a63565b89156200022f576200256f8b998b6001600160601b0360a01b60025416176002556200022662003a63565b3862002469565b508a151562002463565b8a80fd5b8980fd5b5034620001c7576060366003190112620001c757620025a662002af2565b620025b062002b0e565b90604435801515809103620010e757620025c962003a63565b6001600160a01b038281168086526004602052604086206001015490929190811662001693576200022c948691600160405195620026078762002ba1565b80875282602088019416968785528383816040808501998b8b52868152600460205220935116926001600160601b0360a01b93848254161781550195511694805496511515966affffffffffffffffffffff60a81b968760ff60a01b809a60a01b16921617179055604051916200267e8362002ba1565b82526020820197808952604083019788528b5260046020528360408c2092511690825416178155019451169184549351151560a01b169216171790556200306e565b5034620001c7576020366003190112620001c757600435906001600160401b038211620001c7576020620026fc6200074d366004860162002c4b565b6040516001600160a01b039091168152f35b506200271a3662002b3a565b916200272893919362003258565b8193825b61012082016200273d818462002d3d565b9050821015620028695762002753908362002d3d565b82101562002855578160051b81013560de198236030181121562000d7f576200277f9136910162002d8d565b60208082015115158062002842575b6200279f575b50506001016200272c565b9396959492839560c0859301975b885180518510156200282f5784620027c59162002ef1565b5197620027d8888a019182519062002f06565b9834620027e783518562002f06565b116200281657516001600160a01b0316156200022f576001916200280d91519062002f06565b930192620027ad565b60405163073c639b60e41b815260048101899052602490fd5b5098955096509294505060013862002794565b5081516001600160a01b0316156200278e565b634e487b7160e01b85526032600452602485fd5b848387896200288f886200288662000fa061012087018762002d3d565b90339062003600565b80341162002a1e575b50620028a8604083018362002ffb565b9091620028b86060850162002fb1565b92620028c76080860162002fb1565b94620028d660a0820162002fb1565b95620028e560c0830162002fb1565b9160e001620028f49062003030565b9562002904604086018662002ffb565b9790936060870199620029178b62002fb1565b946200292660808a0162002fb1565b966200293560a08b0162002fb1565b986200294460c08c0162002fb1565b9a60e001620029539062003030565b9b3690620029619262002c0f565b9b36906200296f9262002c0f565b946200297b9b62003986565b60008051602062005c2b833981519152546001600160a01b039190821633148062002a08575b620029be575b82600160008051602062005c4b8339815191525580f35b620029c99062002fb1565b90620029d462003a63565b81169081156200022f5762002a00916001600160601b0360a01b60025416176002556200022662003a63565b8180620029a7565b508162002a158262002fb1565b161515620029a1565b62002a2a903462002fa3565b8015620028985760c082016001600160a01b0362002a488262002fb1565b16156200022f578480809362002a5f829462002fb1565b617530f162002a6d62002fc6565b5015620009e7578362002898565b8234620001c7576020366003190112620001c7576001600160a01b03906001906040908362002aa962002af2565b16815260046020522062002abd8462002ba1565b82815416845201549181831690604060ff602083019584875260a01c161515910152156200236b576020915116604051908152f35b600435906001600160a01b038216820362002b0957565b600080fd5b602435906001600160a01b038216820362002b0957565b35906001600160a01b038216820362002b0957565b6003199160608284011262002b09576004356001600160a01b038116810362002b0957926024356001600160401b039182821162002b0957610140918282828803011262002b09576004019460443593841162002b0957839003011262002b095760040190565b606081019081106001600160401b038211176200052057604052565b6001600160401b0381116200052057604052565b90601f801991011681019081106001600160401b038211176200052057604052565b6001600160401b0381116200052057601f01601f191660200190565b92919262002c1d8262002bf3565b9162002c2d604051938462002bd1565b82948184528183011162002b09578281602093846000960137010152565b9080601f8301121562002b095781602062002c699335910162002c0f565b90565b3590811515820362002b0957565b9181601f8401121562002b09578235916001600160401b03831162002b09576020808501948460051b01011162002b0957565b919082519283825260005b84811062002cda575050826000602080949584010152601f8019910116010190565b60208183018101518483018201520162002cb8565b60065481101562002d275760066000527ff652222313e28459528d920b65115c16c04f3efc82aaedc97be59f3f377c0d3f0190600090565b634e487b7160e01b600052603260045260246000fd5b903590601e198136030182121562002b0957018035906001600160401b03821162002b0957602001918160051b3603831362002b0957565b6001600160401b038111620005205760051b60200190565b919060e08382031262002b09576040805190936001600160401b0360e083018181118482101762000520578652829562002dc78362002b25565b845260209081840135828601528084013581860152606092606085013560ff8116810362002b095760608701526080946080810135608088015260a081013560a088015260c08101359082821162002b0957019387601f8601121562002b095784359262002e358462002d75565b9862002e4482519a8b62002bd1565b848a5285808b019560071b8801019681881162002b09578601945b87861062002e765750505050505050505060c00152565b888683031262002b0957825190898201908282108783111762002edc578a928992865262002ea48962002b25565b8152828901358382015262002ebb868a0162002c6c565b8682015262002ecc878a0162002c6c565b8782015281520195019462002e5f565b60246000634e487b7160e01b81526041600452fd5b805182101562002d275760209160051b010190565b9190820180921162002f1457565b634e487b7160e01b600052601160045260246000fd5b9291909262002f398462002d75565b9162002f49604051938462002bd1565b829480845260208094019060051b83019282841162002b095780915b84831062002f7557505050505050565b82356001600160401b03811162002b0957869162002f97868493860162002d8d565b81520192019162002f65565b9190820391821162002f1457565b356001600160a01b038116810362002b095790565b3d1562002ff6573d9062002fda8262002bf3565b9162002fea604051938462002bd1565b82523d6000602084013e565b606090565b903590601e198136030182121562002b0957018035906001600160401b03821162002b095760200191813603831362002b0957565b35801515810362002b095790565b60408151036200305c5780516020909101206001600160a01b031690565b60405163145a1fdd60e31b8152600490fd5b60065468010000000000000000811015620005205780600162003095920160065562002cef565b60018060a09493941b038084549260031b9316831b921b1916179055565b5190811515820362002b0957565b9035601e198236030181121562002b095701602081359101916001600160401b03821162002b0957813603831362002b0957565b908060209392818452848401376000828201840152601f01601f1916010190565b91909493929460609082606085016060865252608092608085019360808260051b8701019483946000946000955b8587106200316a575050505050505050906040919460018060a01b031660208201520152565b9091929394959697607f198a8203018552883560be1984360301811215620016cf57600191620031d89160c0916001600160a01b0391870182620031ae8262002b25565b168252620031f66020958695620031c887850185620030c1565b90918089880152860191620030f5565b6040620031e881850185620030c1565b9186840390870152620030f5565b92620032048a830162002c6c565b15158a84015280620032188d840162002b25565b168c8401526200322c60a080930162002b25565b169101529a01950197019594939692919062003144565b51906001600160a01b038216820362002b0957565b60008051602062005c4b8339815191526002815414620032785760029055565b604051633ee5aeb560e01b8152600490fd5b9190916000915b8351831015620035fa57620032a7838562002ef1565b51906020820151151580620035eb575b80620035d7575b1562003514578151602083015160408401516060850151608086015160a087015192946001600160a01b031693929160ff16843b1562002b095760009460e4938a938793604051998a98899763d505accf60e01b895260018060a01b0316600489015230602489015260448801526064870152608486015260a485015260c48401525af18015620034785762003502575b50600094855b60c08401518051821015620034e25781620033709162002ef1565b516060810151151580620034d9575b80620034c6575b602082015190816200339f575b50505060010162003355565b929892620033fd916020916000901562003484575061dead5b88516040516323b872dd60e01b81526001600160a01b038c81166004830152928316602482015260448101939093529193849290911690829060009082906064820190565b03925af1908115620034785760009162003436575b501562000b2f5760019160206200342c9201519062002f06565b9690388062003393565b906020823d6020116200346f575b81620034536020938362002bd1565b81010312620001c757506200346890620030b3565b3862003412565b3d915062003444565b6040513d6000823e3d90fd5b604085015115159081620034b2575b5015620034a15730620033b8565b83516001600160a01b0316620033b8565b89516001600160a01b031615915062003493565b5084516001600160a01b03161562003386565b5060006200337f565b50509294909391602001510362000b2f576001905b019192909262003291565b6200350d9062002bbd565b386200334f565b815192949093909290916001600160a01b039182161580620035d1575b62003542575b5050600190620034f7565b60c00194909391929060005b86518051821015620035bf5781620035669162002ef1565b518660208201519182151580620035b2575b6200358a575b5050506001016200354e565b60008093819382935116617530f1620035a262002fc6565b5015620009e7573886816200357e565b5060408101511562003578565b50509450916001919350903862003537565b62003531565b5081516001600160a01b03161515620032be565b506040820151421115620032b7565b92505050565b929091926000925b84518410156200397f576200361e848662002ef1565b5192602084015115158062003970575b806200395c575b1562003893578351602085015160408601516060870151608088015160a089015160ff909216946001600160a01b03169390843b1562002b095760009460e4938692604051988997889663d505accf60e01b88528d60018060a01b0316600489015230602489015260448801526064870152608486015260a485015260c48401525af18015620034785762003881575b50600095865b60c086015180518210156200385e5781620036e69162002ef1565b5160608101511515806200384b575b8062003834575b6020820151908162003715575b505050600101620036cb565b929992620037739160209160009015620037ee575061dead5b8a516040516323b872dd60e01b81526001600160a01b038b81166004830152928316602482015260448101939093529193849290911690829060009082906064820190565b03925af19081156200347857600091620037ac575b501562000b2f576001916020620037a29201519062002f06565b9790388062003709565b906020823d602011620037e5575b81620037c96020938362002bd1565b81010312620001c75750620037de90620030b3565b3862003788565b3d9150620037ba565b6040850151151590816200381c575b50156200380b57306200372e565b83516001600160a01b03166200372e565b8b516001600160a01b038c81169116149150620037fd565b5086516001600160a01b03878116911614620036fc565b506001600160a01b0386161515620036f5565b50509293602090969195929601510362000b2f576001905b019291909362003608565b6200388c9062002bbd565b38620036c5565b939094919260018060a01b039081815116801590816200394f575b50620038c0575b505060019062003876565b60c0019590949193929160005b875180518210156200393e5781620038e59162002ef1565b51876020820151918215158062003931575b62003909575b505050600101620038cd565b60008093819382935116617530f16200392162002fc6565b5015620009e757388781620038fd565b50604081015115620038f7565b5050945094509091600138620038b5565b90508286161438620038ae565b5083516001600160a01b0316151562003635565b5060408401514211156200362e565b5050915050565b97929a959994989390969198620039a860018060a01b03600054169b6200303e565b918b3b1562002b0957604051632e91b77d60e01b815261018060048201529c8d9b8c9b620039dc906101848e019062002cad565b6001600160a01b039b8c1660248e0152908b1660448d0152908a1660648c015290891660848b015290151560a48a015290871660c489015290861660e48801529085166101048701529084166101248601529216610144840152151561016483015203815a6000948591f18015620034785762003a565750565b62003a619062002bbd565b565b60008051602062005c2b833981519152546001600160a01b0316330362003a8657565b60405163118cdaa760e01b8152336004820152602490fd5b62003ae5929162003adb917f19457468657265756d205369676e6564204d6573736167653a0a333200000000600052601c52603c6000206200403a565b9093919362004079565b6001600160a01b0391821691161490565b8181029291811591840414171562002f1457565b811562003b15570490565b634e487b7160e01b600052601260045260246000fd5b519069ffffffffffffffffffff8216820362002b0957565b908160a091031262002b095762003b5a8162003b2b565b9160208201519160408101519162002c6960806060840151930162003b2b565b9081602091031262002b09575160ff8116810362002b095790565b60ff16604d811162002f1457600a0a90565b62003bb9612710916003549062003af6565b600854919004906001600160a01b03168062003bd3575090565b604051633fabe5a360e21b81529060a082600481845afa918215620034785760009262003cb8575b50600082131562003ca65760206004916040519283809263313ce56760e01b82525afa8015620034785762003c3a9160009162003c70575b5062003b95565b90683635c9adc5dea00000918083029283040362002f145762003c5d9162003b0a565b908181111562003c6b575090565b905090565b62003c97915060203d60201162003c9e575b62003c8e818362002bd1565b81019062003b7a565b3862003c33565b503d62003c82565b6040516352cc3f7d60e01b8152600490fd5b62003ce091925060a03d60a01162003ced575b62003cd7818362002bd1565b81019062003b43565b5050509050903862003bfb565b503d62003ccb565b9062003d08612710916003549062003af6565b0460018060a01b0380921660009080825260209060078252604090858285205416908162003d3a575050505050905090565b60a0939496835194858094633fabe5a360e21b825260049586915afa94851562003f7857889562003f4d575b508785131562003f3d57818852600786528388205416948351958187858163313ce56760e01b948582525afa96871562003f3357899762003f0d575b5081908486518095819382525afa93841562003f045750879362003ee0575b505060ff683635c9adc5dea0000092166012810362003e0d575b505062003df89062003df162003dfe9462003b95565b9062003af6565b62003b0a565b91508181111562003c6b575090565b929392601281111562003e80576011190160ff811162003e6d5762003e329062003b95565b8083029283040362003e5a575062003dfe929162003df162003df8925b925081945062003ddb565b634e487b7160e01b865260119052602485fd5b634e487b7160e01b875260118252602487fd5b60129291920360ff811162003ecd5762003e9a9062003b95565b91821562003eba57509162003df162003df89262003dfe95940462003e4f565b634e487b7160e01b875260129052602486fd5b634e487b7160e01b875260118352602487fd5b62003efb929350803d1062003c9e5762003c8e818362002bd1565b90388062003dc1565b513d89823e3d90fd5b8291975062003f2b90823d841162003c9e5762003c8e818362002bd1565b969062003da2565b85513d8b823e3d90fd5b83516352cc3f7d60e01b81528390fd5b62003f6b91955060a03d60a01162003ced5762003cd7818362002bd1565b5050509050933862003d66565b84513d8a823e3d90fd5b6001600160a01b0390811690811562003fdf5760008051602062005c2b83398151915280546001600160a01b031981168417909155167f8be0079c531659141344cd1fd0a4f28419497f9722a3daafe3b4186f6b6457e0600080a3565b604051631e4fbdf760e01b815260006004820152602490fd5b60ff7ff0c57e16840df040f15088dc2f81fe391c3923bec73e23a9662efc9c229c6a005460401c16156200402857565b604051631afcd79f60e31b8152600490fd5b81519190604183036200406e576200406792506020820151906060604084015193015160001a9062004103565b9192909190565b505060009160029190565b6004811015620040ed57806200408d575050565b60018103620040a85760405163f645eedf60e01b8152600490fd5b60028103620040ca5760405163fce698f760e01b815260048101839052602490fd5b600314620040d55750565b602490604051906335e2f38360e21b82526004820152fd5b634e487b7160e01b600052602160045260246000fd5b91907f7fffffffffffffffffffffffffffffff5d576e7357a4501ddfe92f46681b20a084116200418a57926020929160ff608095604051948552168484015260408301526060820152600092839182805260015afa156200417e5780516001600160a01b038116156200417557918190565b50809160019190565b604051903d90823e3d90fd5b50505060009160039190565b90620041bf5750805115620041ad57805190602001fd5b60405163d6bda27560e01b8152600490fd5b81511580620041f4575b620041d2575090565b604051639996b31560e01b81526001600160a01b039091166004820152602490fd5b50803b15620041c956fe610160604081815234620004775762001a2c80380380916200002282866200047c565b8439820191608081840312620004775780516001600160401b03929083811162000477578462000054918401620004c5565b916020948582015190858211620004775762000072918301620004c5565b946200008e60606200008685850162000520565b930162000520565b90835190848201828110888211176200037657855260019485835281830195603160f81b87528751898111620003765760038054918383811c931680156200046c575b868410146200045657601f928381116200040b575b50808684821160011462000398576000916200038c575b5060001982841b1c191690841b1781555b8b51918b8311620003765760049c8d548581811c911680156200036b575b8882101462000356578e8382116200030b575b50508d87928511600114620002a0575093839491849260009562000294575b50501b92600019911b1c19161789555b620001798762000535565b956101209687526200018b84620006da565b97610140988952838151910120938460e0525190209861010099808b524660a0528251938401947f8b73c3c69bb8fe3d512ecc4cf759cc79239f7b179b0ffacaa9a75d522b39400f86528385015260608401524660808401523060a084015260a0835260c0830198838a10908a11176200027f57508790525190206080523060c052600880546001600160a01b039384166001600160a01b031991821617909155600980549290931691161790556111fa938462000832853960805184610c88015260a05184610d54015260c05184610c52015260e05184610cd701525183610cfd0152518261051a015251816105440152f35b604190634e487b7160e01b6000525260246000fd5b0151935038806200015e565b929190601f1985169360005284886000209460005b8a89838310620002f35750505010620002d8575b50505050811b0189556200016e565b01519060f884600019921b161c1916905538808080620002c9565b868601518955909701969485019488935001620002b5565b600052876000208380870160051c8201928a88106200034c575b0160051c019086905b8281106200033f5750508e6200013f565b600081550186906200032e565b9250819262000325565b60228f634e487b7160e01b6000525260246000fd5b90607f16906200012c565b634e487b7160e01b600052604160045260246000fd5b90508b015138620000fd565b8592508c90601f1983168560005289600020928a6000915b838310620003e9575050508311620003d0575b5050811b0181556200010e565b8d015160001983861b60f8161c191690553880620003c3565b948482949597989293960151815501940192019087949392918f8b90620003b0565b82600052866000208480840160051c8201928985106200044c575b0160051c019085905b8281106200043f575050620000e6565b600081550185906200042f565b9250819262000426565b634e487b7160e01b600052602260045260246000fd5b92607f1692620000d1565b600080fd5b601f909101601f19168101906001600160401b038211908210176200037657604052565b60005b838110620004b45750506000910152565b8181015183820152602001620004a3565b81601f82011215620004775780516001600160401b038111620003765760405192620004fc601f8301601f1916602001856200047c565b8184526020828401011162000477576200051d9160208085019101620004a0565b90565b51906001600160a01b03821682036200047757565b80516020919082811015620005b5575090601f8251116200057357808251920151908083106200056457501790565b82600019910360031b1b161790565b604490620005a79260405193849263305a27a960e01b845280600485015282519283918260248701528686019101620004a0565b601f01601f19168101030190fd5b6001600160401b03811162000376576005928354926001938481811c91168015620006cf575b838210146200045657601f811162000698575b5081601f84116001146200062e575092829391839260009462000622575b50501b916000199060031b1c191617905560ff90565b0151925038806200060c565b919083601f1981168760005284600020946000905b888383106200067d575050501062000663575b505050811b01905560ff90565b015160001960f88460031b161c1916905538808062000656565b85870151885590960195948501948793509081019062000643565b8560005284601f846000209201871c820191601f8601881c015b828110620006c2575050620005ee565b60008155018590620006b2565b90607f1690620005db565b805160209081811015620007075750601f8251116200057357808251920151908083106200056457501790565b906001600160401b0382116200037657600654926001938481811c9116801562000826575b838210146200045657601f8111620007ec575b5081601f841160011462000780575092829391839260009462000774575b50501b916000199060031b1c19161760065560ff90565b0151925038806200075d565b919083601f198116600660005284600020946000905b88838310620007d15750505010620007b7575b505050811b0160065560ff90565b015160001960f88460031b161c19169055388080620007a9565b85870151885590960195948501948793509081019062000796565b600660005284601f84600020920160051c820191601f860160051c015b828110620008195750506200073f565b6000815501859062000809565b90607f16906200072c56fe608060408181526004918236101561001657600080fd5b600092833560e01c91826306fdde03146108d757508163095ea7b3146108ad57816318160ddd1461088e57816323b872dd14610789578163313ce5671461076d5781633644e5151461074957816340c10f191461069157816370a082311461065a5781637ecebe001461062257816384b0196e1461050257816395d89b411461040e5781639dc29fac14610329578163a9059cbb146102e4578163b5057a7b146102bb578163d505accf1461015357508063dd62ed3e1461010b5763e78cea92146100e057600080fd5b3461010757816003193601126101075760085490516001600160a01b039091168152602090f35b5080fd5b5034610107578060031936011261010757806020926101286109ef565b610130610a0a565b6001600160a01b0391821683526001865283832091168252845220549051908152f35b839150346101075760e03660031901126101075761016f6109ef565b610177610a0a565b906044359260643560843560ff811681036102b7578142116102a05760018060a01b0390818516928389526007602052898920908154916001830190558a519060208201927f6e71edae12b1b97f4d1f60370fef10105fa2faae0126114a169c64845d6126c98452868d840152858a1660608401528a608084015260a083015260c082015260c0815260e0810181811067ffffffffffffffff82111761028d578b5251902061025b916102529161022c610c4f565b908c519161190160f01b83526002830152602282015260c43591604260a43592206110af565b9092919261113f565b16818103610272578661026f878787610d7a565b80f35b87516325c0072360e11b815292830152602482015260449150fd5b634e487b7160e01b8b526041875260248bfd5b875163313c898160e11b8152808401839052602490fd5b8680fd5b50503461010757816003193601126101075760095490516001600160a01b039091168152602090f35b5050346101075780600319360112610107576102fe6109ef565b916103098333610acf565b15610326575061031f6020926024359033610e0d565b5160018152f35b80fd5b839150346101075782600319360112610107576103446109ef565b6008549091602435916001600160a01b03908116330361040a5783169283156103f3578385528460205285852054918383106103bf5750508184957fddf252ad1be2c89b69c2b068fc378daa952ba7f163c4a11628f55a4df523b3ef936020938688528785520381872055816002540360025551908152a380f35b865163391434e360e21b81526001600160a01b03909216908201908152602081018390526040810184905281906060010390fd5b8551634b637e8f60e11b8152808301869052602490fd5b8480fd5b919050346104fe57826003193601126104fe57805183819490845461043281610a20565b91828552602096600192886001821691826000146104d4575050600114610479575b858861047589610466848a0385610a8c565b519282849384528301906109af565b0390f35b815286935091907f8a35acfbc15ff81a39ae7d344fd709f28e8600b4aa8c65c6b64bfe7fe36bd19b5b8284106104bc575050508201018161046661047538610454565b8054848a0186015288955087949093019281016104a2565b60ff19168882015294151560051b8701909401945085935061046692506104759150389050610454565b8280fd5b919050346104fe57826003193601126104fe5761053e7f0000000000000000000000000000000000000000000000000000000000000000610eeb565b926105687f0000000000000000000000000000000000000000000000000000000000000000610fef565b90825192602092602085019585871067ffffffffffffffff88111761060f57509260206105c58388966105b8998b9996528686528151998a99600f60f81b8b5260e0868c015260e08b01906109af565b91898303908a01526109af565b924660608801523060808801528460a088015286840360c088015251928381520193925b8281106105f857505050500390f35b8351855286955093810193928101926001016105e9565b634e487b7160e01b845260419052602483fd5b5050346101075760203660031901126101075760209181906001600160a01b0361064a6109ef565b1681526007845220549051908152f35b5050346101075760203660031901126101075760209181906001600160a01b036106826109ef565b16815280845220549051908152f35b919050346104fe57806003193601126104fe576106ac6109ef565b60085460243592916001600160a01b0391821633036107455716928315610730576002549083820180921161071d575084927fddf252ad1be2c89b69c2b068fc378daa952ba7f163c4a11628f55a4df523b3ef9260209260025585855284835280852082815401905551908152a380f35b634e487b7160e01b865260119052602485fd5b84602492519163ec442f0560e01b8352820152fd5b8580fd5b505034610107578160031936011261010757602090610766610c4f565b9051908152f35b5050346101075781600319360112610107576020905160128152f35b90508234610326576060366003190112610326576107a56109ef565b6107ad610a0a565b91604435936107bc8484610acf565b15610107576001600160a01b038316808352600160209081528784203385529052868320549160001983106107fa575b60208861031f898989610e0d565b86831061086257811561084b5733156108345750825260016020908152868320338452815291869020908590039055829061031f876107ec565b8751634a1406b160e11b8152908101849052602490fd5b875163e602df0560e01b8152908101849052602490fd5b8751637dc7a0d960e11b8152339181019182526020820193909352604081018790528291506060010390fd5b5050346101075781600319360112610107576020906002549051908152f35b50503461010757806003193601126101075760209061031f6108cd6109ef565b6024359033610d7a565b84843461010757816003193601126101075782826003546108f781610a20565b908184526020956001918760018216918260001461098857505060011461092c575b5050506104759291610466910385610a8c565b9190869350600383527fc2575a0e9e593c00f959f8c92f12db2869c3395a3b0502d05e2516446f71f85b5b8284106109705750505082010181610466610475610919565b8054848a018601528895508794909301928101610957565b60ff19168782015293151560051b8601909301935084925061046691506104759050610919565b919082519283825260005b8481106109db575050826000602080949584010152601f8019910116010190565b6020818301810151848301820152016109ba565b600435906001600160a01b0382168203610a0557565b600080fd5b602435906001600160a01b0382168203610a0557565b90600182811c92168015610a50575b6020831014610a3a57565b634e487b7160e01b600052602260045260246000fd5b91607f1691610a2f565b6040810190811067ffffffffffffffff821117610a7657604052565b634e487b7160e01b600052604160045260246000fd5b90601f8019910116810190811067ffffffffffffffff821117610a7657604052565b51906001600160a01b0382168203610a0557565b51908115158203610a0557565b600954604080516324b9c44160e21b81526001600160a01b0393841660048201819052939290916101209182908490602490829088165afa918215610c44576000938493610b4b575b505050610b285750505050600090565b602001518116918214928315610b3f575b50505090565b16149050388080610b39565b818193959294503d8511610c3d575b610b648183610a8c565b810103928312610326576101008093126103265783519383850185811067ffffffffffffffff821117610c29578152610b9c83610aae565b8552610baa60208401610aae565b6020860152610bba818401610aae565b90850152610bca60608301610aae565b6060850152610bdb60808301610aae565b6080850152610bec60a08301610ac2565b60a0850152610bfd60c08301610ac2565b60c085015260e0820151906003821015610326575060e0840152610c219101610ac2565b388080610b18565b634e487b7160e01b83526041600452602483fd5b503d610b5a565b50513d6000823e3d90fd5b307f00000000000000000000000000000000000000000000000000000000000000006001600160a01b03161480610d51575b15610caa577f000000000000000000000000000000000000000000000000000000000000000090565b60405160208101907f8b73c3c69bb8fe3d512ecc4cf759cc79239f7b179b0ffacaa9a75d522b39400f82527f000000000000000000000000000000000000000000000000000000000000000060408201527f000000000000000000000000000000000000000000000000000000000000000060608201524660808201523060a082015260a0815260c0810181811067ffffffffffffffff821117610a765760405251902090565b507f00000000000000000000000000000000000000000000000000000000000000004614610c81565b6001600160a01b03908116918215610df45716918215610ddb5760207f8c5be1e5ebec7d5bd14f71427d1e84f3dd0314c0f7b2291e5b200ac8c7c3b925918360005260018252604060002085600052825280604060002055604051908152a3565b604051634a1406b160e11b815260006004820152602490fd5b60405163e602df0560e01b815260006004820152602490fd5b916001600160a01b03808416928315610ed25716928315610eb95760009083825281602052604082205490838210610e87575091604082827fddf252ad1be2c89b69c2b068fc378daa952ba7f163c4a11628f55a4df523b3ef958760209652828652038282205586815220818154019055604051908152a3565b60405163391434e360e21b81526001600160a01b03919091166004820152602481019190915260448101839052606490fd5b60405163ec442f0560e01b815260006004820152602490fd5b604051634b637e8f60e11b815260006004820152602490fd5b60ff8114610f295760ff811690601f8211610f175760405191610f0d83610a5a565b8252602082015290565b604051632cd44ac360e21b8152600490fd5b50604051600554816000610f3c83610a20565b80835292602090600190818116908115610fcb5750600114610f6a575b5050610f6792500382610a8c565b90565b91509260056000527f036b6384b5eca791c62761152d0c79bb0604c104a5fb6f4eb0703f3154bb3db0936000925b828410610fb35750610f679450505081016020013880610f59565b85548785018301529485019486945092810192610f98565b91505060209250610f6794915060ff191682840152151560051b8201013880610f59565b60ff81146110115760ff811690601f8211610f175760405191610f0d83610a5a565b5060405160065481600061102483610a20565b80835292602090600190818116908115610fcb575060011461104e575050610f6792500382610a8c565b91509260066000527ff652222313e28459528d920b65115c16c04f3efc82aaedc97be59f3f377c0d3f936000925b8284106110975750610f679450505081016020013880610f59565b8554878501830152948501948694509281019261107c565b91907f7fffffffffffffffffffffffffffffff5d576e7357a4501ddfe92f46681b20a0841161113357926020929160ff608095604051948552168484015260408301526060820152600092839182805260015afa156111275780516001600160a01b0381161561111e57918190565b50809160019190565b604051903d90823e3d90fd5b50505060009160039190565b60048110156111ae5780611151575050565b6001810361116b5760405163f645eedf60e01b8152600490fd5b6002810361118c5760405163fce698f760e01b815260048101839052602490fd5b6003146111965750565b602490604051906335e2f38360e21b82526004820152fd5b634e487b7160e01b600052602160045260246000fdfea2646970667358221220b795fa50e5767d9775d1eea6283ccacf9cd51f086091d71f972f86533319c81264736f6c634300081800339016d09d72d40fdae2fd8ceac6b6234c7706214fd39c1cd1e609a0528c1993009b779b17422d0df92223018b32b4d1fa46e071723d6817e2486d003becc55f00a264697066735822122061da32dde3fa249d7d2f7997970f3b747178a068990af8a54bcc898d6e46c0f164736f6c63430008180033",
  "linkReferences": {},
  "deployedLinkReferences": {}
}