{
  "_format": "hh-sol-artifact-1",
  "contractName": "Bridge",
  "sourceName": "contracts/Bridge.sol",
  "abi": [
    {
      "inputs": [
        {
          "internalType": "address",
          "name": "target",
          "type": "address"
        }
      ],
      "name": "AddressEmptyCode",
      "type": "error"
    },
    {
      "inputs": [],
      "name": "ECDSAInvalidSignature",
      "type": "error"
    },
    {
      "inputs": [
        {
          "internalType": "uint256",
          "name": "length",
          "type": "uint256"
        }
      ],
      "name": "ECDSAInvalidSignatureLength",
      "type": "error"
    },
    {
      "inputs": [
        {
          "internalType": "bytes32",
          "name": "s",
          "type": "bytes32"
        }
      ],
      "name": "ECDSAInvalidSignatureS",
      "type": "error"
    },
    {
      "inputs": [
        {
          "internalType": "address",
          "name": "implementation",
          "type": "address"
        }
      ],
      "name": "ERC1967InvalidImplementation",
      "type": "error"
    },
    {
      "inputs": [],
      "name": "ERC1967NonPayable",
      "type": "error"
    },
    {
      "inputs": [],
      "name": "FailedCall",
      "type": "error"
    },
    {
      "inputs": [],
      "name": "InvalidInitialization",
      "type": "error"
    },
    {
      "inputs": [],
      "name": "NotInitializing",
      "type": "error"
    },
    {
      "inputs": [
        {
          "internalType": "address",
          "name": "owner",
          "type": "address"
        }
      ],
      "name": "OwnableInvalidOwner",
      "type": "error"
    },
    {
      "inputs": [
        {
          "internalType": "address",
          "name": "account",
          "type": "address"
        }
      ],
      "name": "OwnableUnauthorizedAccount",
      "type": "error"
    },
    {
      "inputs": [],
      "name": "ReentrancyGuardReentrantCall",
      "type": "error"
    },
    {
      "inputs": [],
      "name": "UUPSUnauthorizedCallContext",
      "type": "error"
    },
    {
      "inputs": [
        {
          "internalType": "bytes32",
          "name": "slot",
          "type": "bytes32"
        }
      ],
      "name": "UUPSUnsupportedProxiableUUID",
      "type": "error"
    },
    {
      "anonymous": false,
      "inputs": [
        {
          "indexed": true,
          "internalType": "address",
          "name": "from",
          "type": "address"
        },
        {
          "indexed": true,
          "internalType": "address",
          "name": "to",
          "type": "address"
        },
        {
          "indexed": false,
          "internalType": "uint256",
          "name": "amount",
          "type": "uint256"
        }
      ],
      "name": "EthTransferred",
      "type": "event"
    },
    {
      "anonymous": false,
      "inputs": [
        {
          "indexed": true,
          "internalType": "address",
          "name": "token",
          "type": "address"
        },
        {
          "indexed": false,
          "internalType": "uint256",
          "name": "amount",
          "type": "uint256"
        }
      ],
      "name": "FeesCollected",
      "type": "event"
    },
    {
      "anonymous": false,
      "inputs": [
        {
          "indexed": false,
          "internalType": "uint64",
          "name": "version",
          "type": "uint64"
        }
      ],
      "name": "Initialized",
      "type": "event"
    },
    {
      "anonymous": false,
      "inputs": [
        {
          "indexed": true,
          "internalType": "address",
          "name": "previousOwner",
          "type": "address"
        },
        {
          "indexed": true,
          "internalType": "address",
          "name": "newOwner",
          "type": "address"
        }
      ],
      "name": "OwnershipTransferred",
      "type": "event"
    },
    {
      "anonymous": false,
      "inputs": [
        {
          "indexed": true,
          "internalType": "address",
          "name": "user",
          "type": "address"
        },
        {
          "indexed": true,
          "internalType": "address",
          "name": "originalToken",
          "type": "address"
        },
        {
          "indexed": false,
          "internalType": "uint256",
          "name": "amount",
          "type": "uint256"
        }
      ],
      "name": "TokensLocked",
      "type": "event"
    },
    {
      "anonymous": false,
      "inputs": [
        {
          "indexed": true,
          "internalType": "address",
          "name": "wrappedToken",
          "type": "address"
        },
        {
          "indexed": true,
          "internalType": "address",
          "name": "user",
          "type": "address"
        },
        {
          "indexed": false,
          "internalType": "uint256",
          "name": "amount",
          "type": "uint256"
        }
      ],
      "name": "TokensMinted",
      "type": "event"
    },
    {
      "anonymous": false,
      "inputs": [
        {
          "indexed": true,
          "internalType": "address",
          "name": "user",
          "type": "address"
        },
        {
          "indexed": false,
          "internalType": "address",
          "name": "wrappedToken",
          "type": "address"
        },
        {
          "indexed": false,
          "internalType": "uint256",
          "name": "amount",
          "type": "uint256"
        }
      ],
      "name": "TokensWrapped",
      "type": "event"
    },
    {
      "anonymous": false,
      "inputs": [
        {
          "indexed": true,
          "internalType": "address",
          "name": "originalToken",
          "type": "address"
        },
        {
          "indexed": false,
          "internalType": "address",
          "name": "targetAddress",
          "type": "address"
        },
        {
          "indexed": false,
          "internalType": "uint256",
          "name": "amount",
          "type": "uint256"
        },
        {
          "indexed": true,
          "internalType": "address",
          "name": "user",
          "type": "address"
        }
      ],
      "name": "UnwrapCrossChain",
      "type": "event"
    },
    {
      "anonymous": false,
      "inputs": [
        {
          "indexed": true,
          "internalType": "address",
          "name": "implementation",
          "type": "address"
        }
      ],
      "name": "Upgraded",
      "type": "event"
    },
    {
      "inputs": [],
      "name": "FEE_CAP_USD",
      "outputs": [
        {
          "internalType": "uint256",
          "name": "",
          "type": "uint256"
        }
      ],
      "stateMutability": "view",
      "type": "function"
    },
    {
      "inputs": [],
      "name": "FEE_DENOMINATOR",
      "outputs": [
        {
          "internalType": "uint256",
          "name": "",
          "type": "uint256"
        }
      ],
      "stateMutability": "view",
      "type": "function"
    },
    {
      "inputs": [],
      "name": "UPGRADE_INTERFACE_VERSION",
      "outputs": [
        {
          "internalType": "string",
          "name": "",
          "type": "string"
        }
      ],
      "stateMutability": "view",
      "type": "function"
    },
    {
      "inputs": [
        {
          "internalType": "address",
          "name": "originalToken",
          "type": "address"
        },
        {
          "internalType": "address",
          "name": "wrappedToken",
          "type": "address"
        },
        {
          "internalType": "bool",
          "name": "_isCrossChain",
          "type": "bool"
        }
      ],
      "name": "addTokenPair",
      "outputs": [],
      "stateMutability": "nonpayable",
      "type": "function"
    },
    {
      "inputs": [],
      "name": "feeCollector",
      "outputs": [
        {
          "internalType": "address",
          "name": "",
          "type": "address"
        }
      ],
      "stateMutability": "view",
      "type": "function"
    },
    {
      "inputs": [],
      "name": "feePercentage",
      "outputs": [
        {
          "internalType": "uint256",
          "name": "",
          "type": "uint256"
        }
      ],
      "stateMutability": "view",
      "type": "function"
    },
    {
      "inputs": [
        {
          "internalType": "bytes",
          "name": "publicKey",
          "type": "bytes"
        }
      ],
      "name": "getAddressFromPublicKey",
      "outputs": [
        {
          "internalType": "address",
          "name": "",
          "type": "address"
        }
      ],
      "stateMutability": "pure",
      "type": "function"
    },
    {
      "inputs": [],
      "name": "getSupportedTokens",
      "outputs": [
        {
          "internalType": "address[]",
          "name": "",
          "type": "address[]"
        }
      ],
      "stateMutability": "view",
      "type": "function"
    },
    {
      "inputs": [
        {
          "internalType": "address",
          "name": "_keyLogRegistry",
          "type": "address"
        }
      ],
      "name": "initialize",
      "outputs": [],
      "stateMutability": "nonpayable",
      "type": "function"
    },
    {
      "inputs": [
        {
          "internalType": "address",
          "name": "",
          "type": "address"
        }
      ],
      "name": "isCrossChain",
      "outputs": [
        {
          "internalType": "bool",
          "name": "",
          "type": "bool"
        }
      ],
      "stateMutability": "view",
      "type": "function"
    },
    {
      "inputs": [],
      "name": "keyLogRegistry",
      "outputs": [
        {
          "internalType": "contract KeyLogRegistry",
          "name": "",
          "type": "address"
        }
      ],
      "stateMutability": "view",
      "type": "function"
    },
    {
      "inputs": [
        {
          "internalType": "address",
          "name": "",
          "type": "address"
        }
      ],
      "name": "nonces",
      "outputs": [
        {
          "internalType": "uint256",
          "name": "",
          "type": "uint256"
        }
      ],
      "stateMutability": "view",
      "type": "function"
    },
    {
      "inputs": [
        {
          "internalType": "address",
          "name": "",
          "type": "address"
        }
      ],
      "name": "originalToWrapped",
      "outputs": [
        {
          "internalType": "address",
          "name": "",
          "type": "address"
        }
      ],
      "stateMutability": "view",
      "type": "function"
    },
    {
      "inputs": [],
      "name": "owner",
      "outputs": [
        {
          "internalType": "address",
          "name": "",
          "type": "address"
        }
      ],
      "stateMutability": "view",
      "type": "function"
    },
    {
      "inputs": [
        {
          "internalType": "bytes32",
          "name": "",
          "type": "bytes32"
        }
      ],
      "name": "processedLocks",
      "outputs": [
        {
          "internalType": "bool",
          "name": "",
          "type": "bool"
        }
      ],
      "stateMutability": "view",
      "type": "function"
    },
    {
      "inputs": [],
      "name": "proxiableUUID",
      "outputs": [
        {
          "internalType": "bytes32",
          "name": "",
          "type": "bytes32"
        }
      ],
      "stateMutability": "view",
      "type": "function"
    },
    {
      "inputs": [
        {
          "internalType": "bytes",
          "name": "publicKey",
          "type": "bytes"
        },
        {
          "internalType": "address",
          "name": "publicKeyHash",
          "type": "address"
        },
        {
          "internalType": "address",
          "name": "prerotatedKeyHash",
          "type": "address"
        },
        {
          "internalType": "address",
          "name": "twicePrerotatedKeyHash",
          "type": "address"
        },
        {
          "internalType": "address",
          "name": "prevPublicKeyHash",
          "type": "address"
        },
        {
          "internalType": "address",
          "name": "outputAddress",
          "type": "address"
        },
        {
          "internalType": "bool",
          "name": "hasRelationship",
          "type": "bool"
        }
      ],
      "name": "registerKeyWithTransfer",
      "outputs": [],
      "stateMutability": "payable",
      "type": "function"
    },
    {
      "inputs": [],
      "name": "relayer",
      "outputs": [
        {
          "internalType": "address",
          "name": "",
          "type": "address"
        }
      ],
      "stateMutability": "view",
      "type": "function"
    },
    {
      "inputs": [],
      "name": "renounceOwnership",
      "outputs": [],
      "stateMutability": "nonpayable",
      "type": "function"
    },
    {
      "inputs": [
        {
          "internalType": "address",
          "name": "_feeCollector",
          "type": "address"
        }
      ],
      "name": "setFeeCollector",
      "outputs": [],
      "stateMutability": "nonpayable",
      "type": "function"
    },
    {
      "inputs": [
        {
          "internalType": "uint256",
          "name": "_feePercentage",
          "type": "uint256"
        }
      ],
      "name": "setFeePercentage",
      "outputs": [],
      "stateMutability": "nonpayable",
      "type": "function"
    },
    {
      "inputs": [
        {
          "internalType": "address",
          "name": "_relayer",
          "type": "address"
        }
      ],
      "name": "setRelayer",
      "outputs": [],
      "stateMutability": "nonpayable",
      "type": "function"
    },
    {
      "inputs": [
        {
          "internalType": "address",
          "name": "token",
          "type": "address"
        },
        {
          "internalType": "address",
          "name": "priceFeed",
          "type": "address"
        }
      ],
      "name": "setTokenPriceFeed",
      "outputs": [],
      "stateMutability": "nonpayable",
      "type": "function"
    },
    {
      "inputs": [
        {
          "internalType": "uint256",
          "name": "",
          "type": "uint256"
        }
      ],
      "name": "supportedOriginalTokens",
      "outputs": [
        {
          "internalType": "address",
          "name": "",
          "type": "address"
        }
      ],
      "stateMutability": "view",
      "type": "function"
    },
    {
      "inputs": [
        {
          "internalType": "address",
          "name": "",
          "type": "address"
        }
      ],
      "name": "tokenPriceFeeds",
      "outputs": [
        {
          "internalType": "contract AggregatorV3Interface",
          "name": "",
          "type": "address"
        }
      ],
      "stateMutability": "view",
      "type": "function"
    },
    {
      "inputs": [
        {
          "internalType": "address",
          "name": "newOwner",
          "type": "address"
        }
      ],
      "name": "transferOwnership",
      "outputs": [],
      "stateMutability": "nonpayable",
      "type": "function"
    },
    {
      "inputs": [
        {
          "internalType": "address",
          "name": "wrappedToken",
          "type": "address"
        },
        {
          "components": [
            {
              "internalType": "uint256",
              "name": "amount",
              "type": "uint256"
            },
            {
              "internalType": "bytes",
              "name": "signature",
              "type": "bytes"
            },
            {
              "internalType": "bytes",
              "name": "publicKey",
              "type": "bytes"
            },
            {
              "internalType": "address",
              "name": "prerotatedKeyHash",
              "type": "address"
            },
            {
              "internalType": "address",
              "name": "twicePrerotatedKeyHash",
              "type": "address"
            },
            {
              "internalType": "address",
              "name": "prevPublicKeyHash",
              "type": "address"
            },
            {
              "internalType": "address",
              "name": "targetAddress",
              "type": "address"
            },
            {
              "internalType": "bool",
              "name": "hasRelationship",
              "type": "bool"
            },
            {
              "components": [
                {
                  "internalType": "address",
                  "name": "token",
                  "type": "address"
                },
                {
                  "internalType": "uint256",
                  "name": "amount",
                  "type": "uint256"
                },
                {
                  "internalType": "uint256",
                  "name": "deadline",
                  "type": "uint256"
                },
                {
                  "internalType": "uint8",
                  "name": "v",
                  "type": "uint8"
                },
                {
                  "internalType": "bytes32",
                  "name": "r",
                  "type": "bytes32"
                },
                {
                  "internalType": "bytes32",
                  "name": "s",
                  "type": "bytes32"
                }
              ],
              "internalType": "struct Bridge.PermitData[]",
              "name": "permits",
              "type": "tuple[]"
            }
          ],
          "internalType": "struct Bridge.UnwrapParams",
          "name": "unconfirmed",
          "type": "tuple"
        },
        {
          "components": [
            {
              "internalType": "uint256",
              "name": "amount",
              "type": "uint256"
            },
            {
              "internalType": "bytes",
              "name": "signature",
              "type": "bytes"
            },
            {
              "internalType": "bytes",
              "name": "publicKey",
              "type": "bytes"
            },
            {
              "internalType": "address",
              "name": "prerotatedKeyHash",
              "type": "address"
            },
            {
              "internalType": "address",
              "name": "twicePrerotatedKeyHash",
              "type": "address"
            },
            {
              "internalType": "address",
              "name": "prevPublicKeyHash",
              "type": "address"
            },
            {
              "internalType": "address",
              "name": "targetAddress",
              "type": "address"
            },
            {
              "internalType": "bool",
              "name": "hasRelationship",
              "type": "bool"
            },
            {
              "components": [
                {
                  "internalType": "address",
                  "name": "token",
                  "type": "address"
                },
                {
                  "internalType": "uint256",
                  "name": "amount",
                  "type": "uint256"
                },
                {
                  "internalType": "uint256",
                  "name": "deadline",
                  "type": "uint256"
                },
                {
                  "internalType": "uint8",
                  "name": "v",
                  "type": "uint8"
                },
                {
                  "internalType": "bytes32",
                  "name": "r",
                  "type": "bytes32"
                },
                {
                  "internalType": "bytes32",
                  "name": "s",
                  "type": "bytes32"
                }
              ],
              "internalType": "struct Bridge.PermitData[]",
              "name": "permits",
              "type": "tuple[]"
            }
          ],
          "internalType": "struct Bridge.UnwrapParams",
          "name": "confirming",
          "type": "tuple"
        }
      ],
      "name": "unwrapPairWithTransfer",
      "outputs": [],
      "stateMutability": "payable",
      "type": "function"
    },
    {
      "inputs": [
        {
          "internalType": "address",
          "name": "newImplementation",
          "type": "address"
        },
        {
          "internalType": "bytes",
          "name": "data",
          "type": "bytes"
        }
      ],
      "name": "upgradeToAndCall",
      "outputs": [],
      "stateMutability": "payable",
      "type": "function"
    },
    {
      "inputs": [
        {
          "internalType": "address",
          "name": "originalToken",
          "type": "address"
        },
        {
          "components": [
            {
              "internalType": "uint256",
              "name": "amount",
              "type": "uint256"
            },
            {
              "internalType": "bytes",
              "name": "signature",
              "type": "bytes"
            },
            {
              "internalType": "bytes",
              "name": "publicKey",
              "type": "bytes"
            },
            {
              "internalType": "address",
              "name": "prerotatedKeyHash",
              "type": "address"
            },
            {
              "internalType": "address",
              "name": "twicePrerotatedKeyHash",
              "type": "address"
            },
            {
              "internalType": "address",
              "name": "prevPublicKeyHash",
              "type": "address"
            },
            {
              "internalType": "address",
              "name": "outputAddress",
              "type": "address"
            },
            {
              "internalType": "bool",
              "name": "hasRelationship",
              "type": "bool"
            },
            {
              "internalType": "address",
              "name": "tokenSource",
              "type": "address"
            },
            {
              "components": [
                {
                  "internalType": "address",
                  "name": "token",
                  "type": "address"
                },
                {
                  "internalType": "uint256",
                  "name": "amount",
                  "type": "uint256"
                },
                {
                  "internalType": "uint256",
                  "name": "deadline",
                  "type": "uint256"
                },
                {
                  "internalType": "uint8",
                  "name": "v",
                  "type": "uint8"
                },
                {
                  "internalType": "bytes32",
                  "name": "r",
                  "type": "bytes32"
                },
                {
                  "internalType": "bytes32",
                  "name": "s",
                  "type": "bytes32"
                }
              ],
              "internalType": "struct Bridge.PermitData[]",
              "name": "permits",
              "type": "tuple[]"
            }
          ],
          "internalType": "struct Bridge.WrapParams",
          "name": "unconfirmed",
          "type": "tuple"
        },
        {
          "components": [
            {
              "internalType": "uint256",
              "name": "amount",
              "type": "uint256"
            },
            {
              "internalType": "bytes",
              "name": "signature",
              "type": "bytes"
            },
            {
              "internalType": "bytes",
              "name": "publicKey",
              "type": "bytes"
            },
            {
              "internalType": "address",
              "name": "prerotatedKeyHash",
              "type": "address"
            },
            {
              "internalType": "address",
              "name": "twicePrerotatedKeyHash",
              "type": "address"
            },
            {
              "internalType": "address",
              "name": "prevPublicKeyHash",
              "type": "address"
            },
            {
              "internalType": "address",
              "name": "outputAddress",
              "type": "address"
            },
            {
              "internalType": "bool",
              "name": "hasRelationship",
              "type": "bool"
            },
            {
              "internalType": "address",
              "name": "tokenSource",
              "type": "address"
            },
            {
              "components": [
                {
                  "internalType": "address",
                  "name": "token",
                  "type": "address"
                },
                {
                  "internalType": "uint256",
                  "name": "amount",
                  "type": "uint256"
                },
                {
                  "internalType": "uint256",
                  "name": "deadline",
                  "type": "uint256"
                },
                {
                  "internalType": "uint8",
                  "name": "v",
                  "type": "uint8"
                },
                {
                  "internalType": "bytes32",
                  "name": "r",
                  "type": "bytes32"
                },
                {
                  "internalType": "bytes32",
                  "name": "s",
                  "type": "bytes32"
                }
              ],
              "internalType": "struct Bridge.PermitData[]",
              "name": "permits",
              "type": "tuple[]"
            }
          ],
          "internalType": "struct Bridge.WrapParams",
          "name": "confirming",
          "type": "tuple"
        }
      ],
      "name": "wrapPairWithTransfer",
      "outputs": [],
      "stateMutability": "payable",
      "type": "function"
    },
    {
      "inputs": [
        {
          "internalType": "address",
          "name": "",
          "type": "address"
        }
      ],
      "name": "wrappedToOriginal",
      "outputs": [
        {
          "internalType": "address",
          "name": "",
          "type": "address"
        }
      ],
      "stateMutability": "view",
      "type": "function"
    }
  ],
  "bytecode": "0x60a0806040523461002a5730608052612a039081610030823960805181818161126d01526113150152f35b600080fdfe610120604052600436101561001357600080fd5b600060c05260c0513560e01c806303f7550d146116df578063081da8c1146116a257806309765f531461166f578063276c1ac014611628578063334976c7146114df5780634f1ef286146112d757806352d1902d146112595780635f42be83146110db5780636548e9bc1461109757806365d5079a1461087a578063674417ae1461081c578063715018a6146107ad5780637c0db610146107705780637ecebe00146107345780638406c0791461070a5780638da5cb5b146106d3578063a001ecdd146106b4578063a42dce801461062c578063a8bc3e0a146105eb578063ad3cb1cc14610578578063ae06c1b714610516578063b5057a7b146104eb578063bd9c47e3146104ae578063c415b95c14610484578063c4d66de8146102f3578063d3c7c2c714610227578063d73792a914610209578063d8397fd5146101c7578063f2fde38b146101985763f9baf7bf1461016d57600080fd5b346101925760c051366003190112610192576020604051683635c9adc5dea000008152f35b60c05180fd5b34610192576020366003190112610192576101c16101b4611db7565b6101bc61273f565b61237b565b60c05180f35b3461019257602036600319011261019257600435600654811015610192576101f0602091611ec7565b905460405160039290921b1c6001600160a01b03168152f35b346101925760c0513660031901126101925760206040516127108152f35b346101925760c051366003190112610192576040518060065480835260208093018091600660c051527ff652222313e28459528d920b65115c16c04f3efc82aaedc97be59f3f377c0d3f9060c0515b868282106102d657868661028c82880383611df6565b604051928392818401908285525180915260408401929160c0515b8281106102b657505050500390f35b83516001600160a01b0316855286955093810193928101926001016102a7565b83546001600160a01b031685529093019260019283019201610276565b346101925760203660031901126101925761030c611db7565b7ff0c57e16840df040f15088dc2f81fe391c3923bec73e23a9662efc9c229c6a009081549060ff8260401c1615916001600160401b0381168015908161047c575b6001149081610472575b159081610469575b506104575767ffffffffffffffff198116600117845582610438575b50610384612839565b61038c612839565b6103953361237b565b61039d612839565b6103a5612839565b6103ad612839565b60016000805160206129ae833981519152556001600160601b0360a01b9060018060a01b03168160c05154161760c051553390600754161760075560016008556103f75760c05180f35b68ff00000000000000001981541690557fc7f505b2f371ae2175ee4913f4499e1f2633a7b5936321eed1cdaeb6115181d2602060405160018152a1806101c1565b68ffffffffffffffffff1916680100000000000000011783558361037b565b60405163f92ee8a960e01b8152600490fd5b9050158561035f565b303b159150610357565b84915061034d565b346101925760c051366003190112610192576007546040516001600160a01b039091168152602090f35b346101925760203660031901126101925760206001600160a01b03806104d2611db7565b1660c05152600a8252604060c051205416604051908152f35b346101925760c0513660031901126101925760c051546040516001600160a01b039091168152602090f35b346101925760203660031901126101925760043561053261273f565b61271081116105445760085560c05180f35b60405162461bcd60e51b815260206004820152600c60248201526b08ccaca40e8dede40d0d2ced60a31b6044820152606490fd5b346101925760c0513660031901126101925760405160408101908082106001600160401b038311176105d5576105d19160405260058152640352e302e360dc1b6020820152604051918291602083526020830190611e87565b0390f35b634e487b7160e01b600052604160045260246000fd5b34610192576020366003190112610192576001600160a01b0361060c611db7565b1660c051526004602052602060ff604060c0512054166040519015158152f35b3461019257602036600319011261019257610645611db7565b61064d61273f565b6001600160a01b03168015610677576001600160601b0360a01b600754161760075560c05160c051f35b60405162461bcd60e51b815260206004820152601560248201527424b73b30b634b2103332b29031b7b63632b1ba37b960591b6044820152606490fd5b346101925760c051366003190112610192576020600854604051908152f35b346101925760c0513660031901126101925760008051602061298e833981519152546040516001600160a01b039091168152602090f35b346101925760c051366003190112610192576001546040516001600160a01b039091168152602090f35b34610192576020366003190112610192576001600160a01b03610755611db7565b1660c0515260056020526020604060c0512054604051908152f35b346101925760203660031901126101925760206001600160a01b0380610794611db7565b1660c0515260038252604060c051205416604051908152f35b346101925760c051366003190112610192576107c761273f565b60008051602061298e83398151915280546001600160a01b031981169091556000906001600160a01b03167f8be0079c531659141344cd1fd0a4f28419497f9722a3daafe3b4186f6b6457e08280a360c05180f35b3461019257604036600319011261019257610835611db7565b61083d611dcd565b9061084661273f565b60c080516001600160a01b039283169052600a602052516040812080546001600160a01b0319169390921692909217905580f35b6003196060368201126101925761088f611db7565b906001600160401b03908160243511610192576101409182826024353603011261019257604435116101925760443536030112610192576108ce6123ef565b60c080516001600160a01b03838116909152600260205290516040902054166108f8811515611f14565b3360c051526005602052604060c051205461091760c460243501611f60565b60405161094381610935856020830195602435600401358a88611f74565b03601f198101835282611df6565b51902060008051602061296e83398151915260c05152601c526109a761099761098e603c60c051206109886109816024803501602435600401611fa1565b3691611e32565b90612778565b909291926127b4565b6001600160a01b03163314611fd3565b6109b560c460443501611f60565b600182018211610fcd576040516109e18161093560208201946001870190604435600401358a88611f74565b51902060008051602061296e83398151915260c05152601c52610a63610a2061098e603c60c05120610988610981602460443501604435600401611fa1565b610a4b610a50610a396044803501604435600401611fa1565b6001600160a01b039391369190611e32565b612319565b6001600160a01b03909216911614612042565b610a79604435600401356024356004013561201f565b90610a848285612493565b90610a8f8284612258565b9280610ffe575b5060018060a01b0360c051541661098160446024350191610ad0610a4b610ac285602435600401611fa1565b949095602435600401611fa1565b91610adf606460243501611f60565b93610aee608460243501611f60565b60a052610aff60a460243501611f60565b610b0d60c460243501611f60565b610b1b60e46024350161208e565b610b34610a4b6109816044803501604435600401611fa1565b610b42606460443501611f60565b610b50608460443501611f60565b91610b5f60a460443501611f60565b93610b6e60c460443501611f60565b95610b7d60e46044350161208e565b978b3b1561019257610bb699604051608052635988f59760e01b6080515260c0519e6080519e6080519d60a0519360046080510161209b565b03906080519060c051905af18015610d9357610fe5575b60028101809111610fcd573360c051526005602052604060c051205560c0515b610c026101246024350160243560040161213c565b9050811015610dc457610c32610c2d82610c276101246024350160243560040161213c565b90612171565b612181565b90602082015180151580610db6575b610c51575b506001915001610bed565b60018060a01b038351169060408401519160ff6060860151169060808601519160a087015194823b156101925760405163d505accf60e01b815260c080513360048401523060248401526044830197909752606482019290925260ff92909216608483015260a482019390935260c48101949094529051839160e49183915af18015610d9357610da0575b508151610d39926020916001600160a01b031682610cfe604435606401611f60565b9201516040516323b872dd60e01b81523360048201526001600160a01b03909316602484015260448301529093849190829081906064820190565b039160c051905af1918215610d9357600192610d5e9160c05191610d64575b50612214565b86610c46565b610d86915060203d602011610d8c575b610d7e8183611df6565b8101906121fc565b88610d58565b503d610d74565b6040513d60c051823e3d90fd5b610da990611de3565b60c0516101925786610cdc565b506040830151421115610c41565b508381610f1f575b5050610ddc606460443501611f60565b823b15610192576040516340c10f1960e01b815260c0516001600160a01b0390921660048201526024810183905290818060448101038160c051875af18015610d9357610f09575b507fb5187db8729022d088cc50f8b09bdeaec0ac84d7686d287a7dd82dc25704f7f3906001600160a01b03610e5d604435606401611f60565b604080516001600160a01b0396909616865260208601939093521692a234610e98575b60016000805160206129ae8339815191525560c05180f35b60c051610ec19080808034610eb1604435606401611f60565b5af1610ebb6122a7565b506122d7565b6001600160a01b03610ed7604435606401611f60565b166040513481527ffb55a98b33e2f35080e8e9656caf739c56946219253f8cd86917f7d33398667660203392a3610e80565b610f1290611de3565b60c0516101925782610e24565b60075460405163a9059cbb60e01b81526001600160a01b0391821660048201526024810184905260c0519092916020918491604491839186165af1908115610d9357610f986020927f9dc46f23cfb5ddcad0ae7ea2be38d47fec07bb9382ec7e564efc69e036dd66ce9460c05191610fb0575b50612265565b6040519384526001600160a01b031692a28280610dcc565b610fc79150843d8611610d8c57610d7e8183611df6565b88610f92565b634e487b7160e01b60c051526011600452602460c051fd5b610ff0608051611de3565b60c05115610bcd5760c05180fd5b602061104a9161101361010460243501611f60565b6040516323b872dd60e01b81526001600160a01b039091166004820152306024820152604481019190915291829081906064820190565b038160c05160018060a01b038b165af18015610d93576110729160c051916110785750612214565b85610a96565b611091915060203d602011610d8c57610d7e8183611df6565b87610d58565b34610192576020366003190112610192576110b0611db7565b6110b861273f565b60018060a01b03166001600160601b0360a01b600154161760015560c05160c051f35b60e0366003190112610192576004356001600160401b03811161019257611106903690600401611e69565b61110e611dcd565b6001600160a01b03604435818116939290849003611254576064359282841680940361125457608435948386168096036112545760a43594848616968787036112545760c43591821515809303611254576111676123ef565b8660c051541693843b156101925760405163151cdb2f60e11b815260e0600482015297889661119a9060e4890190611e87565b971660248701526044860152606485015260848401528660a484015260c4830152818060c05194039160c051905af18015610d935761123e575b50346111f25760016000805160206129ae8339815191525560c05180f35b60c05161120b9181908190819034905af1610ebb6122a7565b6040513481527ffb55a98b33e2f35080e8e9656caf739c56946219253f8cd86917f7d33398667660203392a38080610e80565b61124790611de3565b60c05161019257826111d4565b600080fd5b346101925760c051366003190112610192577f00000000000000000000000000000000000000000000000000000000000000006001600160a01b031630036112c55760206040517f360894a13ba1a3210667c828492db98dca3e2076cc3735a920a3ca505d382bbc8152f35b60405163703e46dd60e11b8152600490fd5b6040366003190112610192576112eb611db7565b6024356001600160401b0381116101925761130a903690600401611e69565b906001600160a01b037f000000000000000000000000000000000000000000000000000000000000000081163081149081156114b1575b506112c55761134e61273f565b8116916040516352d1902d60e01b8152602081600481875afa60c051918161147d575b5061138f57604051634c9c8ce360e01b815260048101859052602490fd5b7f360894a13ba1a3210667c828492db98dca3e2076cc3735a920a3ca505d382bbc908181036114655750823b1561144c57836001600160601b0360a01b825416179055604051927fbc7cd75a20ee27fd9adebab32041f755214dbc6bffa90cc0225b39da2e5c2d3b60c05160c051a280511561143057611429925060c0519060c05190602081519101845af46114236122a7565b9161290a565b5060c05180f35b50503461143d57506101c1565b63b398979f60e01b8152600490fd5b604051634c9c8ce360e01b815260048101859052602490fd5b60249060405190632a87526960e21b82526004820152fd5b9091506020813d6020116114a9575b8161149960209383611df6565b8101031261019257519085611371565b3d915061148c565b9050817f360894a13ba1a3210667c828492db98dca3e2076cc3735a920a3ca505d382bbc5416141584611341565b34610192576060366003190112610192576114f8611db7565b611500611dcd565b6044358015158091036112545761151561273f565b60018060a01b03809316918260c05152600260205283604060c0512054166115e3578260c05152600260205283604060c0512091166001600160601b0360a01b91818382541617905560c05152600360205282604060c05120918254161790556004602052604060c051209060ff80198354169116179055600654680100000000000000008110156115cb578060016115b19201600655611ec7565b909283549160031b92831b921b191617905560c05160c051f35b634e487b7160e01b60c051526041600452602460c051fd5b60405162461bcd60e51b815260206004820152601960248201527f546f6b656e207061697220616c726561647920657869737473000000000000006044820152606490fd5b34610192576020366003190112610192576004356001600160401b0381116101925761165d610a4b6020923690600401611e69565b6040516001600160a01b039091168152f35b346101925760203660031901126101925760043560c051526009602052602060ff604060c0512054166040519015158152f35b346101925760203660031901126101925760206001600160a01b03806116c6611db7565b1660c0515260028252604060c051205416604051908152f35b600319606036820112610192576116f4611db7565b906001600160401b03908160243511610192576101209182826024353603011261019257604435116101925760443536030112610192576117336123ef565b60c080516001600160a01b038381169091526003602052905160409020541661175d811515611f14565b3360c051526005602052604060c051205461177c60c460243501611f60565b60405161179a81610935856020830195602435600401358a88611f74565b51902060008051602061296e83398151915260c05152601c526117d861099761098e603c60c051206109886109816024803501602435600401611fa1565b6117e660c460443501611f60565b600182018211610fcd576040516118128161093560208201946001870190604435600401358a88611f74565b51902060008051602061296e83398151915260c05152601c52611851610a2061098e603c60c05120610988610981602460443501604435600401611fa1565b611867604435600401356024356004013561201f565b9060018060a01b0360c051541661098160446024350191611893610a4b610ac285602435600401611fa1565b916118a2606460243501611f60565b936118b1608460243501611f60565b610100526118c360a460243501611f60565b6118d160c460243501611f60565b6118df60e46024350161208e565b6118f8610a4b6109816044803501604435600401611fa1565b611906606460443501611f60565b611914608460443501611f60565b9161192360a460443501611f60565b9361193260c460443501611f60565b9561194160e46044350161208e565b978b3b156101925761197b9960405160e052635988f59760e01b60e0515260c0519e60e0519e60e0519d6101005193600460e0510161209b565b039060e0519060c051905af18015610d9357611da7575b60028101809111610fcd573360c051526005602052604060c051205560c0515b6119c76101046024350160243560040161213c565b9050811015611b23576119ec610c2d82610c276101046024350160243560040161213c565b90602082015180151580611b15575b80611afe575b611a11575b5060019150016119b2565b60018060a01b038351169060408401519160ff6060860151169060808601519160a087015194823b156101925760405163d505accf60e01b815260c080513360048401523060248401526044830197909752606482019290925260ff92909216608483015260a482019390935260c48101949094529051839160e49183915af18015610d9357611ae8575b508151611abe926020916001600160a01b031682610cfe604435606401611f60565b039160c051905af1918215610d9357600192611ae29160c051916110785750612214565b85611a06565b611af190611de3565b60c0516101925785611a9c565b5082516001600160a01b0387811691161415611a01565b5060408301514211156119fb565b50916001600160a01b0381163b1561019257604051632770a7eb60e21b815260c08051336004840152602483018690529051829060449082906001600160a01b0387165af18015610d9357611d91575b5060018060a01b031660c05152600460205260ff604060c051205416600014611c0d577fcca356c69c0991b2f138fe7c7f64cf9be89604118a06017a49e0001782bc6536611bec611bc8606460443501611f60565b604080516001600160a01b0390921682526020820195909552339490918291820190565b0390a35b34610e985760016000805160206129ae8339815191525560c05180f35b90611c22611c1b8284612493565b8092612258565b9080611ce7575b50602090611c7492611c3f606460443501611f60565b60405163a9059cbb60e01b81526001600160a01b03909116600482015260248101929092529092839190829081906044820190565b039160c051905af1908115610d935760c05191611cc8575b50611bf05760405162461bcd60e51b815260206004820152600f60248201526e151c985b9cd9995c8819985a5b1959608a1b6044820152606490fd5b611ce1915060203d602011610d8c57610d7e8183611df6565b81611c8c565b60075460405163a9059cbb60e01b81526001600160a01b03909116600482015260248101829052929091906020848060448101038160c051855af1928315610d93577f9dc46f23cfb5ddcad0ae7ea2be38d47fec07bb9382ec7e564efc69e036dd66ce60208392611d658297611c749960c05191611d745750612265565b604051908152a2925090611c29565b611d8b9150843d8611610d8c57610d7e8183611df6565b8a610f92565b611d9a90611de3565b60c0516101925783611b73565b611db260e051611de3565b611992565b600435906001600160a01b038216820361125457565b602435906001600160a01b038216820361125457565b6001600160401b0381116105d557604052565b90601f801991011681019081106001600160401b038211176105d557604052565b6001600160401b0381116105d557601f01601f191660200190565b929192611e3e82611e17565b91611e4c6040519384611df6565b829481845281830111611254578281602093846000960137010152565b9080601f8301121561125457816020611e8493359101611e32565b90565b919082519283825260005b848110611eb3575050826000602080949584010152601f8019910116010190565b602081830181015184830182015201611e92565b600654811015611efe5760066000527ff652222313e28459528d920b65115c16c04f3efc82aaedc97be59f3f377c0d3f0190600090565b634e487b7160e01b600052603260045260246000fd5b15611f1b57565b60405162461bcd60e51b815260206004820152601860248201527f546f6b656e2070616972206e6f7420737570706f7274656400000000000000006044820152606490fd5b356001600160a01b03811681036112545790565b92606894926001600160601b0319809360601b168552601485015260601b16603483015260488201520190565b903590601e198136030182121561125457018035906001600160401b0382116112545760200191813603831361125457565b15611fda57565b60405162461bcd60e51b815260206004820152601d60248201527f496e76616c696420756e636f6e6669726d6564207369676e61747572650000006044820152606490fd5b9190820180921161202c57565b634e487b7160e01b600052601160045260246000fd5b1561204957565b60405162461bcd60e51b815260206004820152601c60248201527f496e76616c696420636f6e6669726d696e67207369676e6174757265000000006044820152606490fd5b3580151581036112545790565b9c999394969a959891979e9d9b978091818f816101a08083528201526101c094859384830137010160009052601f1990601f01168d01019d8c600160a01b60019003809c81809c81809c81809c81809c1660208a0152166040880152166060860152166080840152169060a00152151560c08d01521660e08b0152166101008901521661012087015216610140850152166101608301521515906101800152565b903590601e198136030182121561125457018035906001600160401b038211611254576020019160c082023603831361125457565b9190811015611efe5760c0020190565b60c081360312611254576040519060c082018281106001600160401b038211176105d55760405280356001600160a01b0381168103611254578252602081013560208301526040810135604083015260608101359060ff821682036112545760a091606084015260808101356080840152013560a082015290565b90816020910312611254575180151581036112545790565b1561221b57565b60405162461bcd60e51b8152602060048201526015602482015274151bdad95b881d1c985b9cd9995c8819985a5b1959605a1b6044820152606490fd5b9190820391821161202c57565b1561226c57565b60405162461bcd60e51b8152602060048201526013602482015272119959481d1c985b9cd9995c8819985a5b1959606a1b6044820152606490fd5b3d156122d2573d906122b882611e17565b916122c66040519384611df6565b82523d6000602084013e565b606090565b156122de57565b60405162461bcd60e51b8152602060048201526013602482015272115512081d1c985b9cd9995c8819985a5b1959606a1b6044820152606490fd5b60408151036123365780516020909101206001600160a01b031690565b60405162461bcd60e51b815260206004820152601b60248201527f5075626c6963206b6579206d75737420626520363420627974657300000000006044820152606490fd5b6001600160a01b039081169081156123d65760008051602061298e83398151915280546001600160a01b031981168417909155167f8be0079c531659141344cd1fd0a4f28419497f9722a3daafe3b4186f6b6457e0600080a3565b604051631e4fbdf760e01b815260006004820152602490fd5b6000805160206129ae833981519152600281541461240d5760029055565b604051633ee5aeb560e01b8152600490fd5b8181029291811591840414171561202c57565b811561243c570490565b634e487b7160e01b600052601260045260246000fd5b519069ffffffffffffffffffff8216820361125457565b90816020910312611254575160ff811681036112545790565b60ff16604d811161202c57600a0a90565b906124a4612710916008549061241f565b0460018060a01b0380921660009281845260049060209180835260409160ff8388205416156124d8575b5050505050905090565b600a845282872054169384156124ce578251633fabe5a360e21b81529360a0858481895afa9485156127355788956126e3575b50878513156126ac578351958187858163313ce56760e01b948582525afa9687156126a2578997612681575b5081908486518095819382525afa93841561267857508793612649575b505060ff683635c9adc5dea000009216601281116000146125e757601119019060ff82116125d457509061258a61259092612482565b9061241f565b915b60ff8116156125c4576125b09261258a6125ab92612482565b612432565b915b50818111156125bf575090565b905090565b506125ce91612432565b916125b2565b634e487b7160e01b875260119052602486fd5b601281959395106125fa575b5050612592565b6012949192940360ff81116126365761261290612482565b9182156126235750049138806125f3565b634e487b7160e01b875260129052602486fd5b634e487b7160e01b875260118352602487fd5b612669929350803d10612671575b6126618183611df6565b810190612469565b903880612554565b503d612657565b513d89823e3d90fd5b8291975061269b90823d8411612671576126618183611df6565b9690612537565b85513d8b823e3d90fd5b9050606492519162461bcd60e51b83528201526012602482015271125b9d985b1a59081c1c9a58d9481999595960721b6044820152fd5b90945060a0813d60a01161272d575b816126ff60a09383611df6565b810103126127295761271081612452565b506127216080868301519201612452565b50933861250b565b8780fd5b3d91506126f2565b84513d8a823e3d90fd5b60008051602061298e833981519152546001600160a01b0316330361276057565b60405163118cdaa760e01b8152336004820152602490fd5b81519190604183036127a9576127a292506020820151906060604084015193015160001a9061287a565b9192909190565b505060009160029190565b600481101561282357806127c6575050565b600181036127e05760405163f645eedf60e01b8152600490fd5b600281036128015760405163fce698f760e01b815260048101839052602490fd5b60031461280b5750565b602490604051906335e2f38360e21b82526004820152fd5b634e487b7160e01b600052602160045260246000fd5b60ff7ff0c57e16840df040f15088dc2f81fe391c3923bec73e23a9662efc9c229c6a005460401c161561286857565b604051631afcd79f60e31b8152600490fd5b91907f7fffffffffffffffffffffffffffffff5d576e7357a4501ddfe92f46681b20a084116128fe57926020929160ff608095604051948552168484015260408301526060820152600092839182805260015afa156128f25780516001600160a01b038116156128e957918190565b50809160019190565b604051903d90823e3d90fd5b50505060009160039190565b90612931575080511561291f57805190602001fd5b60405163d6bda27560e01b8152600490fd5b81511580612964575b612942575090565b604051639996b31560e01b81526001600160a01b039091166004820152602490fd5b50803b1561293a56fe19457468657265756d205369676e6564204d6573736167653a0a3332000000009016d09d72d40fdae2fd8ceac6b6234c7706214fd39c1cd1e609a0528c1993009b779b17422d0df92223018b32b4d1fa46e071723d6817e2486d003becc55f00a264697066735822122049a5cbb7b6107b3610ffd0e5730657736ec7a0705ac6b4e69889803f5ad002bf64736f6c63430008180033",
  "linkReferences": {},
  "deployedLinkReferences": {}
}