{
  "_format": "hh-sol-artifact-1",
  "contractName": "Bridge",
  "sourceName": "contracts/Bridge.sol",
  "abi": [
    {
      "inputs": [
        {
          "internalType": "address",
          "name": "target",
          "type": "address"
        }
      ],
      "name": "AddressEmptyCode",
      "type": "error"
    },
    {
      "inputs": [],
      "name": "ECDSAInvalidSignature",
      "type": "error"
    },
    {
      "inputs": [
        {
          "internalType": "uint256",
          "name": "length",
          "type": "uint256"
        }
      ],
      "name": "ECDSAInvalidSignatureLength",
      "type": "error"
    },
    {
      "inputs": [
        {
          "internalType": "bytes32",
          "name": "s",
          "type": "bytes32"
        }
      ],
      "name": "ECDSAInvalidSignatureS",
      "type": "error"
    },
    {
      "inputs": [
        {
          "internalType": "address",
          "name": "implementation",
          "type": "address"
        }
      ],
      "name": "ERC1967InvalidImplementation",
      "type": "error"
    },
    {
      "inputs": [],
      "name": "ERC1967NonPayable",
      "type": "error"
    },
    {
      "inputs": [],
      "name": "FailedCall",
      "type": "error"
    },
    {
      "inputs": [],
      "name": "InvalidInitialization",
      "type": "error"
    },
    {
      "inputs": [],
      "name": "NotInitializing",
      "type": "error"
    },
    {
      "inputs": [
        {
          "internalType": "address",
          "name": "owner",
          "type": "address"
        }
      ],
      "name": "OwnableInvalidOwner",
      "type": "error"
    },
    {
      "inputs": [
        {
          "internalType": "address",
          "name": "account",
          "type": "address"
        }
      ],
      "name": "OwnableUnauthorizedAccount",
      "type": "error"
    },
    {
      "inputs": [],
      "name": "ReentrancyGuardReentrantCall",
      "type": "error"
    },
    {
      "inputs": [],
      "name": "UUPSUnauthorizedCallContext",
      "type": "error"
    },
    {
      "inputs": [
        {
          "internalType": "bytes32",
          "name": "slot",
          "type": "bytes32"
        }
      ],
      "name": "UUPSUnsupportedProxiableUUID",
      "type": "error"
    },
    {
      "anonymous": false,
      "inputs": [
        {
          "indexed": false,
          "internalType": "bytes32",
          "name": "hash",
          "type": "bytes32"
        },
        {
          "indexed": false,
          "internalType": "address",
          "name": "recovered",
          "type": "address"
        },
        {
          "indexed": false,
          "internalType": "address",
          "name": "expected",
          "type": "address"
        }
      ],
      "name": "DebugSignature",
      "type": "event"
    },
    {
      "anonymous": false,
      "inputs": [
        {
          "indexed": false,
          "internalType": "string",
          "name": "step",
          "type": "string"
        },
        {
          "indexed": false,
          "internalType": "uint256",
          "name": "value",
          "type": "uint256"
        }
      ],
      "name": "DebugStep",
      "type": "event"
    },
    {
      "anonymous": false,
      "inputs": [
        {
          "indexed": true,
          "internalType": "address",
          "name": "from",
          "type": "address"
        },
        {
          "indexed": true,
          "internalType": "address",
          "name": "to",
          "type": "address"
        },
        {
          "indexed": false,
          "internalType": "uint256",
          "name": "amount",
          "type": "uint256"
        }
      ],
      "name": "EthTransferred",
      "type": "event"
    },
    {
      "anonymous": false,
      "inputs": [
        {
          "indexed": true,
          "internalType": "address",
          "name": "token",
          "type": "address"
        },
        {
          "indexed": false,
          "internalType": "uint256",
          "name": "amount",
          "type": "uint256"
        }
      ],
      "name": "FeesCollected",
      "type": "event"
    },
    {
      "anonymous": false,
      "inputs": [
        {
          "indexed": false,
          "internalType": "uint64",
          "name": "version",
          "type": "uint64"
        }
      ],
      "name": "Initialized",
      "type": "event"
    },
    {
      "anonymous": false,
      "inputs": [
        {
          "indexed": true,
          "internalType": "address",
          "name": "previousOwner",
          "type": "address"
        },
        {
          "indexed": true,
          "internalType": "address",
          "name": "newOwner",
          "type": "address"
        }
      ],
      "name": "OwnershipTransferred",
      "type": "event"
    },
    {
      "anonymous": false,
      "inputs": [
        {
          "indexed": true,
          "internalType": "address",
          "name": "previousOwner",
          "type": "address"
        },
        {
          "indexed": true,
          "internalType": "address",
          "name": "newOwner",
          "type": "address"
        }
      ],
      "name": "OwnershipTransferredToNextKey",
      "type": "event"
    },
    {
      "anonymous": false,
      "inputs": [
        {
          "indexed": true,
          "internalType": "address",
          "name": "user",
          "type": "address"
        },
        {
          "indexed": true,
          "internalType": "address",
          "name": "originalToken",
          "type": "address"
        },
        {
          "indexed": false,
          "internalType": "uint256",
          "name": "amount",
          "type": "uint256"
        }
      ],
      "name": "TokensLocked",
      "type": "event"
    },
    {
      "anonymous": false,
      "inputs": [
        {
          "indexed": true,
          "internalType": "address",
          "name": "wrappedToken",
          "type": "address"
        },
        {
          "indexed": true,
          "internalType": "address",
          "name": "user",
          "type": "address"
        },
        {
          "indexed": false,
          "internalType": "uint256",
          "name": "amount",
          "type": "uint256"
        }
      ],
      "name": "TokensMinted",
      "type": "event"
    },
    {
      "anonymous": false,
      "inputs": [
        {
          "indexed": true,
          "internalType": "address",
          "name": "user",
          "type": "address"
        },
        {
          "indexed": false,
          "internalType": "address",
          "name": "wrappedToken",
          "type": "address"
        },
        {
          "indexed": false,
          "internalType": "uint256",
          "name": "amount",
          "type": "uint256"
        }
      ],
      "name": "TokensWrapped",
      "type": "event"
    },
    {
      "anonymous": false,
      "inputs": [
        {
          "indexed": true,
          "internalType": "address",
          "name": "originalToken",
          "type": "address"
        },
        {
          "indexed": false,
          "internalType": "address",
          "name": "targetAddress",
          "type": "address"
        },
        {
          "indexed": false,
          "internalType": "uint256",
          "name": "amount",
          "type": "uint256"
        },
        {
          "indexed": true,
          "internalType": "address",
          "name": "user",
          "type": "address"
        }
      ],
      "name": "UnwrapCrossChain",
      "type": "event"
    },
    {
      "anonymous": false,
      "inputs": [
        {
          "indexed": true,
          "internalType": "address",
          "name": "implementation",
          "type": "address"
        }
      ],
      "name": "Upgraded",
      "type": "event"
    },
    {
      "inputs": [],
      "name": "FEE_CAP_USD",
      "outputs": [
        {
          "internalType": "uint256",
          "name": "",
          "type": "uint256"
        }
      ],
      "stateMutability": "view",
      "type": "function"
    },
    {
      "inputs": [],
      "name": "FEE_DENOMINATOR",
      "outputs": [
        {
          "internalType": "uint256",
          "name": "",
          "type": "uint256"
        }
      ],
      "stateMutability": "view",
      "type": "function"
    },
    {
      "inputs": [],
      "name": "UPGRADE_INTERFACE_VERSION",
      "outputs": [
        {
          "internalType": "string",
          "name": "",
          "type": "string"
        }
      ],
      "stateMutability": "view",
      "type": "function"
    },
    {
      "inputs": [
        {
          "internalType": "address",
          "name": "originalToken",
          "type": "address"
        },
        {
          "internalType": "address",
          "name": "wrappedToken",
          "type": "address"
        },
        {
          "internalType": "bool",
          "name": "_isCrossChain",
          "type": "bool"
        }
      ],
      "name": "addTokenPair",
      "outputs": [],
      "stateMutability": "nonpayable",
      "type": "function"
    },
    {
      "inputs": [],
      "name": "feeCollector",
      "outputs": [
        {
          "internalType": "address",
          "name": "",
          "type": "address"
        }
      ],
      "stateMutability": "view",
      "type": "function"
    },
    {
      "inputs": [],
      "name": "feePercentage",
      "outputs": [
        {
          "internalType": "uint256",
          "name": "",
          "type": "uint256"
        }
      ],
      "stateMutability": "view",
      "type": "function"
    },
    {
      "inputs": [
        {
          "internalType": "bytes",
          "name": "publicKey",
          "type": "bytes"
        }
      ],
      "name": "getAddressFromPublicKey",
      "outputs": [
        {
          "internalType": "address",
          "name": "",
          "type": "address"
        }
      ],
      "stateMutability": "pure",
      "type": "function"
    },
    {
      "inputs": [],
      "name": "getSupportedTokens",
      "outputs": [
        {
          "internalType": "address[]",
          "name": "",
          "type": "address[]"
        }
      ],
      "stateMutability": "view",
      "type": "function"
    },
    {
      "inputs": [
        {
          "internalType": "address",
          "name": "_keyLogRegistry",
          "type": "address"
        }
      ],
      "name": "initialize",
      "outputs": [],
      "stateMutability": "nonpayable",
      "type": "function"
    },
    {
      "inputs": [
        {
          "internalType": "address",
          "name": "",
          "type": "address"
        }
      ],
      "name": "isCrossChain",
      "outputs": [
        {
          "internalType": "bool",
          "name": "",
          "type": "bool"
        }
      ],
      "stateMutability": "view",
      "type": "function"
    },
    {
      "inputs": [],
      "name": "keyLogRegistry",
      "outputs": [
        {
          "internalType": "contract KeyLogRegistry",
          "name": "",
          "type": "address"
        }
      ],
      "stateMutability": "view",
      "type": "function"
    },
    {
      "inputs": [
        {
          "internalType": "address",
          "name": "",
          "type": "address"
        }
      ],
      "name": "nonces",
      "outputs": [
        {
          "internalType": "uint256",
          "name": "",
          "type": "uint256"
        }
      ],
      "stateMutability": "view",
      "type": "function"
    },
    {
      "inputs": [
        {
          "internalType": "address",
          "name": "",
          "type": "address"
        }
      ],
      "name": "originalToWrapped",
      "outputs": [
        {
          "internalType": "address",
          "name": "",
          "type": "address"
        }
      ],
      "stateMutability": "view",
      "type": "function"
    },
    {
      "inputs": [],
      "name": "owner",
      "outputs": [
        {
          "internalType": "address",
          "name": "",
          "type": "address"
        }
      ],
      "stateMutability": "view",
      "type": "function"
    },
    {
      "inputs": [
        {
          "internalType": "bytes32",
          "name": "",
          "type": "bytes32"
        }
      ],
      "name": "processedLocks",
      "outputs": [
        {
          "internalType": "bool",
          "name": "",
          "type": "bool"
        }
      ],
      "stateMutability": "view",
      "type": "function"
    },
    {
      "inputs": [],
      "name": "proxiableUUID",
      "outputs": [
        {
          "internalType": "bytes32",
          "name": "",
          "type": "bytes32"
        }
      ],
      "stateMutability": "view",
      "type": "function"
    },
    {
      "inputs": [
        {
          "components": [
            {
              "internalType": "uint256",
              "name": "amount",
              "type": "uint256"
            },
            {
              "internalType": "bytes",
              "name": "signature",
              "type": "bytes"
            },
            {
              "internalType": "bytes",
              "name": "publicKey",
              "type": "bytes"
            },
            {
              "internalType": "address",
              "name": "prerotatedKeyHash",
              "type": "address"
            },
            {
              "internalType": "address",
              "name": "twicePrerotatedKeyHash",
              "type": "address"
            },
            {
              "internalType": "address",
              "name": "prevPublicKeyHash",
              "type": "address"
            },
            {
              "internalType": "address",
              "name": "outputAddress",
              "type": "address"
            },
            {
              "internalType": "bool",
              "name": "hasRelationship",
              "type": "bool"
            },
            {
              "internalType": "address",
              "name": "tokenSource",
              "type": "address"
            },
            {
              "components": [
                {
                  "internalType": "address",
                  "name": "token",
                  "type": "address"
                },
                {
                  "internalType": "uint256",
                  "name": "amount",
                  "type": "uint256"
                },
                {
                  "internalType": "uint256",
                  "name": "deadline",
                  "type": "uint256"
                },
                {
                  "internalType": "uint8",
                  "name": "v",
                  "type": "uint8"
                },
                {
                  "internalType": "bytes32",
                  "name": "r",
                  "type": "bytes32"
                },
                {
                  "internalType": "bytes32",
                  "name": "s",
                  "type": "bytes32"
                },
                {
                  "internalType": "address",
                  "name": "recipient",
                  "type": "address"
                }
              ],
              "internalType": "struct Bridge.PermitData[]",
              "name": "permits",
              "type": "tuple[]"
            }
          ],
          "internalType": "struct Bridge.WrapParams",
          "name": "unconfirmed",
          "type": "tuple"
        },
        {
          "components": [
            {
              "internalType": "uint256",
              "name": "amount",
              "type": "uint256"
            },
            {
              "internalType": "bytes",
              "name": "signature",
              "type": "bytes"
            },
            {
              "internalType": "bytes",
              "name": "publicKey",
              "type": "bytes"
            },
            {
              "internalType": "address",
              "name": "prerotatedKeyHash",
              "type": "address"
            },
            {
              "internalType": "address",
              "name": "twicePrerotatedKeyHash",
              "type": "address"
            },
            {
              "internalType": "address",
              "name": "prevPublicKeyHash",
              "type": "address"
            },
            {
              "internalType": "address",
              "name": "outputAddress",
              "type": "address"
            },
            {
              "internalType": "bool",
              "name": "hasRelationship",
              "type": "bool"
            },
            {
              "internalType": "address",
              "name": "tokenSource",
              "type": "address"
            },
            {
              "components": [
                {
                  "internalType": "address",
                  "name": "token",
                  "type": "address"
                },
                {
                  "internalType": "uint256",
                  "name": "amount",
                  "type": "uint256"
                },
                {
                  "internalType": "uint256",
                  "name": "deadline",
                  "type": "uint256"
                },
                {
                  "internalType": "uint8",
                  "name": "v",
                  "type": "uint8"
                },
                {
                  "internalType": "bytes32",
                  "name": "r",
                  "type": "bytes32"
                },
                {
                  "internalType": "bytes32",
                  "name": "s",
                  "type": "bytes32"
                },
                {
                  "internalType": "address",
                  "name": "recipient",
                  "type": "address"
                }
              ],
              "internalType": "struct Bridge.PermitData[]",
              "name": "permits",
              "type": "tuple[]"
            }
          ],
          "internalType": "struct Bridge.WrapParams",
          "name": "confirming",
          "type": "tuple"
        }
      ],
      "name": "registerKeyPairWithTransfer",
      "outputs": [],
      "stateMutability": "payable",
      "type": "function"
    },
    {
      "inputs": [
        {
          "internalType": "bytes",
          "name": "publicKey",
          "type": "bytes"
        },
        {
          "internalType": "address",
          "name": "publicKeyHash",
          "type": "address"
        },
        {
          "internalType": "address",
          "name": "prerotatedKeyHash",
          "type": "address"
        },
        {
          "internalType": "address",
          "name": "twicePrerotatedKeyHash",
          "type": "address"
        },
        {
          "internalType": "address",
          "name": "prevPublicKeyHash",
          "type": "address"
        },
        {
          "internalType": "address",
          "name": "outputAddress",
          "type": "address"
        },
        {
          "internalType": "bool",
          "name": "hasRelationship",
          "type": "bool"
        },
        {
          "components": [
            {
              "internalType": "address",
              "name": "token",
              "type": "address"
            },
            {
              "internalType": "uint256",
              "name": "amount",
              "type": "uint256"
            },
            {
              "internalType": "uint256",
              "name": "deadline",
              "type": "uint256"
            },
            {
              "internalType": "uint8",
              "name": "v",
              "type": "uint8"
            },
            {
              "internalType": "bytes32",
              "name": "r",
              "type": "bytes32"
            },
            {
              "internalType": "bytes32",
              "name": "s",
              "type": "bytes32"
            },
            {
              "internalType": "address",
              "name": "recipient",
              "type": "address"
            }
          ],
          "internalType": "struct Bridge.PermitData[]",
          "name": "permits",
          "type": "tuple[]"
        }
      ],
      "name": "registerKeyWithTransfer",
      "outputs": [],
      "stateMutability": "payable",
      "type": "function"
    },
    {
      "inputs": [],
      "name": "relayer",
      "outputs": [
        {
          "internalType": "address",
          "name": "",
          "type": "address"
        }
      ],
      "stateMutability": "view",
      "type": "function"
    },
    {
      "inputs": [],
      "name": "renounceOwnership",
      "outputs": [],
      "stateMutability": "nonpayable",
      "type": "function"
    },
    {
      "inputs": [
        {
          "internalType": "address",
          "name": "_feeCollector",
          "type": "address"
        }
      ],
      "name": "setFeeCollector",
      "outputs": [],
      "stateMutability": "nonpayable",
      "type": "function"
    },
    {
      "inputs": [
        {
          "internalType": "uint256",
          "name": "_feePercentage",
          "type": "uint256"
        }
      ],
      "name": "setFeePercentage",
      "outputs": [],
      "stateMutability": "nonpayable",
      "type": "function"
    },
    {
      "inputs": [
        {
          "internalType": "address",
          "name": "_relayer",
          "type": "address"
        }
      ],
      "name": "setRelayer",
      "outputs": [],
      "stateMutability": "nonpayable",
      "type": "function"
    },
    {
      "inputs": [
        {
          "internalType": "address",
          "name": "token",
          "type": "address"
        },
        {
          "internalType": "address",
          "name": "priceFeed",
          "type": "address"
        }
      ],
      "name": "setTokenPriceFeed",
      "outputs": [],
      "stateMutability": "nonpayable",
      "type": "function"
    },
    {
      "inputs": [
        {
          "internalType": "uint256",
          "name": "",
          "type": "uint256"
        }
      ],
      "name": "supportedOriginalTokens",
      "outputs": [
        {
          "internalType": "address",
          "name": "",
          "type": "address"
        }
      ],
      "stateMutability": "view",
      "type": "function"
    },
    {
      "inputs": [
        {
          "internalType": "address",
          "name": "",
          "type": "address"
        }
      ],
      "name": "tokenPriceFeeds",
      "outputs": [
        {
          "internalType": "contract AggregatorV3Interface",
          "name": "",
          "type": "address"
        }
      ],
      "stateMutability": "view",
      "type": "function"
    },
    {
      "inputs": [
        {
          "internalType": "address",
          "name": "newOwner",
          "type": "address"
        }
      ],
      "name": "transferOwnership",
      "outputs": [],
      "stateMutability": "nonpayable",
      "type": "function"
    },
    {
      "inputs": [
        {
          "internalType": "address",
          "name": "wrappedToken",
          "type": "address"
        },
        {
          "components": [
            {
              "internalType": "uint256",
              "name": "amount",
              "type": "uint256"
            },
            {
              "internalType": "bytes",
              "name": "signature",
              "type": "bytes"
            },
            {
              "internalType": "bytes",
              "name": "publicKey",
              "type": "bytes"
            },
            {
              "internalType": "address",
              "name": "prerotatedKeyHash",
              "type": "address"
            },
            {
              "internalType": "address",
              "name": "twicePrerotatedKeyHash",
              "type": "address"
            },
            {
              "internalType": "address",
              "name": "prevPublicKeyHash",
              "type": "address"
            },
            {
              "internalType": "address",
              "name": "targetAddress",
              "type": "address"
            },
            {
              "internalType": "bool",
              "name": "hasRelationship",
              "type": "bool"
            },
            {
              "components": [
                {
                  "internalType": "address",
                  "name": "token",
                  "type": "address"
                },
                {
                  "internalType": "uint256",
                  "name": "amount",
                  "type": "uint256"
                },
                {
                  "internalType": "uint256",
                  "name": "deadline",
                  "type": "uint256"
                },
                {
                  "internalType": "uint8",
                  "name": "v",
                  "type": "uint8"
                },
                {
                  "internalType": "bytes32",
                  "name": "r",
                  "type": "bytes32"
                },
                {
                  "internalType": "bytes32",
                  "name": "s",
                  "type": "bytes32"
                },
                {
                  "internalType": "address",
                  "name": "recipient",
                  "type": "address"
                }
              ],
              "internalType": "struct Bridge.PermitData[]",
              "name": "permits",
              "type": "tuple[]"
            }
          ],
          "internalType": "struct Bridge.UnwrapParams",
          "name": "unconfirmed",
          "type": "tuple"
        },
        {
          "components": [
            {
              "internalType": "uint256",
              "name": "amount",
              "type": "uint256"
            },
            {
              "internalType": "bytes",
              "name": "signature",
              "type": "bytes"
            },
            {
              "internalType": "bytes",
              "name": "publicKey",
              "type": "bytes"
            },
            {
              "internalType": "address",
              "name": "prerotatedKeyHash",
              "type": "address"
            },
            {
              "internalType": "address",
              "name": "twicePrerotatedKeyHash",
              "type": "address"
            },
            {
              "internalType": "address",
              "name": "prevPublicKeyHash",
              "type": "address"
            },
            {
              "internalType": "address",
              "name": "targetAddress",
              "type": "address"
            },
            {
              "internalType": "bool",
              "name": "hasRelationship",
              "type": "bool"
            },
            {
              "components": [
                {
                  "internalType": "address",
                  "name": "token",
                  "type": "address"
                },
                {
                  "internalType": "uint256",
                  "name": "amount",
                  "type": "uint256"
                },
                {
                  "internalType": "uint256",
                  "name": "deadline",
                  "type": "uint256"
                },
                {
                  "internalType": "uint8",
                  "name": "v",
                  "type": "uint8"
                },
                {
                  "internalType": "bytes32",
                  "name": "r",
                  "type": "bytes32"
                },
                {
                  "internalType": "bytes32",
                  "name": "s",
                  "type": "bytes32"
                },
                {
                  "internalType": "address",
                  "name": "recipient",
                  "type": "address"
                }
              ],
              "internalType": "struct Bridge.PermitData[]",
              "name": "permits",
              "type": "tuple[]"
            }
          ],
          "internalType": "struct Bridge.UnwrapParams",
          "name": "confirming",
          "type": "tuple"
        }
      ],
      "name": "unwrapPairWithTransfer",
      "outputs": [],
      "stateMutability": "payable",
      "type": "function"
    },
    {
      "inputs": [
        {
          "internalType": "address",
          "name": "newImplementation",
          "type": "address"
        },
        {
          "internalType": "bytes",
          "name": "data",
          "type": "bytes"
        }
      ],
      "name": "upgradeToAndCall",
      "outputs": [],
      "stateMutability": "payable",
      "type": "function"
    },
    {
      "inputs": [
        {
          "internalType": "address",
          "name": "originalToken",
          "type": "address"
        },
        {
          "components": [
            {
              "internalType": "uint256",
              "name": "amount",
              "type": "uint256"
            },
            {
              "internalType": "bytes",
              "name": "signature",
              "type": "bytes"
            },
            {
              "internalType": "bytes",
              "name": "publicKey",
              "type": "bytes"
            },
            {
              "internalType": "address",
              "name": "prerotatedKeyHash",
              "type": "address"
            },
            {
              "internalType": "address",
              "name": "twicePrerotatedKeyHash",
              "type": "address"
            },
            {
              "internalType": "address",
              "name": "prevPublicKeyHash",
              "type": "address"
            },
            {
              "internalType": "address",
              "name": "outputAddress",
              "type": "address"
            },
            {
              "internalType": "bool",
              "name": "hasRelationship",
              "type": "bool"
            },
            {
              "internalType": "address",
              "name": "tokenSource",
              "type": "address"
            },
            {
              "components": [
                {
                  "internalType": "address",
                  "name": "token",
                  "type": "address"
                },
                {
                  "internalType": "uint256",
                  "name": "amount",
                  "type": "uint256"
                },
                {
                  "internalType": "uint256",
                  "name": "deadline",
                  "type": "uint256"
                },
                {
                  "internalType": "uint8",
                  "name": "v",
                  "type": "uint8"
                },
                {
                  "internalType": "bytes32",
                  "name": "r",
                  "type": "bytes32"
                },
                {
                  "internalType": "bytes32",
                  "name": "s",
                  "type": "bytes32"
                },
                {
                  "internalType": "address",
                  "name": "recipient",
                  "type": "address"
                }
              ],
              "internalType": "struct Bridge.PermitData[]",
              "name": "permits",
              "type": "tuple[]"
            }
          ],
          "internalType": "struct Bridge.WrapParams",
          "name": "unconfirmed",
          "type": "tuple"
        },
        {
          "components": [
            {
              "internalType": "uint256",
              "name": "amount",
              "type": "uint256"
            },
            {
              "internalType": "bytes",
              "name": "signature",
              "type": "bytes"
            },
            {
              "internalType": "bytes",
              "name": "publicKey",
              "type": "bytes"
            },
            {
              "internalType": "address",
              "name": "prerotatedKeyHash",
              "type": "address"
            },
            {
              "internalType": "address",
              "name": "twicePrerotatedKeyHash",
              "type": "address"
            },
            {
              "internalType": "address",
              "name": "prevPublicKeyHash",
              "type": "address"
            },
            {
              "internalType": "address",
              "name": "outputAddress",
              "type": "address"
            },
            {
              "internalType": "bool",
              "name": "hasRelationship",
              "type": "bool"
            },
            {
              "internalType": "address",
              "name": "tokenSource",
              "type": "address"
            },
            {
              "components": [
                {
                  "internalType": "address",
                  "name": "token",
                  "type": "address"
                },
                {
                  "internalType": "uint256",
                  "name": "amount",
                  "type": "uint256"
                },
                {
                  "internalType": "uint256",
                  "name": "deadline",
                  "type": "uint256"
                },
                {
                  "internalType": "uint8",
                  "name": "v",
                  "type": "uint8"
                },
                {
                  "internalType": "bytes32",
                  "name": "r",
                  "type": "bytes32"
                },
                {
                  "internalType": "bytes32",
                  "name": "s",
                  "type": "bytes32"
                },
                {
                  "internalType": "address",
                  "name": "recipient",
                  "type": "address"
                }
              ],
              "internalType": "struct Bridge.PermitData[]",
              "name": "permits",
              "type": "tuple[]"
            }
          ],
          "internalType": "struct Bridge.WrapParams",
          "name": "confirming",
          "type": "tuple"
        }
      ],
      "name": "wrapPairWithTransfer",
      "outputs": [],
      "stateMutability": "payable",
      "type": "function"
    },
    {
      "inputs": [
        {
          "internalType": "address",
          "name": "",
          "type": "address"
        }
      ],
      "name": "wrappedToOriginal",
      "outputs": [
        {
          "internalType": "address",
          "name": "",
          "type": "address"
        }
      ],
      "stateMutability": "view",
      "type": "function"
    }
  ],
  "bytecode": "0x60a0806040523461002a573060805261516690816100308239608051818181612eb80152612f600152f35b600080fdfe608080604052600436101561001357600080fd5b60003560e01c908163081da8c1146143645750806309765f5314614333578063276c1ac0146142ec578063334976c7146141c25780633d186d6e1461311a5780634f1ef28614612f2257806352d1902d14612ea557806360fc437a14612ab05780636548e9bc14612a6d578063674417ae14612a12578063684913a214611aaf578063715018a614611a455780637c0db61014611a0a5780637ecebe00146119d05780638406c079146119a75780638da5cb5b14611971578063a001ecdd14611953578063a42dce80146118ce578063a8bc3e0a1461188f578063ad3cb1cc14611845578063ae06c1b7146117e7578063b5057a7b146117be578063bd9c47e314611783578063c415b95c1461175a578063c4d66de8146115d3578063d2a9ab5014610394578063d3c7c2c7146102cc578063d73792a9146102af578063d8397fd51461026d578063f2fde38b1461019d5763f9baf7bf1461017457600080fd5b34610198576000366003190112610198576020604051683635c9adc5dea000008152f35b600080fd5b34610198576020366003190112610198576101b661439c565b6101be614a04565b6001600160a01b0381811691821561021957600780546001600160a01b031916841790556101f3906101ee614a04565b614e27565b6000805160206150b183398151915254166000805160206150d1833981519152600080a3005b60405162461bcd60e51b815260206004820152602660248201527f4f776e61626c653a206e6577206f776e657220697320746865207a65726f206160448201526564647265737360d01b6064820152608490fd5b3461019857602036600319011261019857600435600654811015610198576102966020916144f6565b905460405160039290921b1c6001600160a01b03168152f35b346101985760003660031901126101985760206040516127108152f35b3461019857600036600319011261019857604051806006548083526020809301809160066000527ff652222313e28459528d920b65115c16c04f3efc82aaedc97be59f3f377c0d3f9060005b8682821061037757868661032e82880383614425565b604051928392818401908285525180915260408401929160005b82811061035757505050500390f35b83516001600160a01b031685528695509381019392810192600101610348565b83546001600160a01b031685529093019260019283019201610318565b600319606036820112610198576103a961439c565b906001600160401b03908160243511610198576101209182826024353603011261019857604435116101985760443536030112610198576103e8614a3d565b6104266040516103f7816143ef565b601c81527f537461727420756e7772617050616972576974685472616e73666572000000006020820152614d8d565b6001600160a01b03818116600090815260036020526040902054169061044d8215156145a5565b61048060405161045c816143ef565b6012815271151bdad95b881c185a5c8818da1958dad95960721b6020820152614d8d565b6001600160a01b03811660009081526004602052604090205460ff16611539575b3360005260056020526040600020546104df816040516104c0816143ef565b600d81526c139bdb98d94819995d18da1959609a1b6020820152614de2565b6104ed60c4602435016145f1565b6040516105198161050b856020830195602435600401358988614605565b03601f198101835282614425565b519020600080516020615091833981519152600052601c526105ea61056b603c60002061056261055c6105556024803501602435600401614632565b3691614461565b82614e9b565b90939193614ed7565b7f7e6a49f35e3e07bf6b560eeb6ef6c8b821c4499a2a6301de6547ab58b52b0be56105d46105ae6105a9610555604460243501602435600401614632565b614543565b604080519485526001600160a01b03861660208601523390850152929081906060820190565b0390a16001600160a01b03918216911614614664565b6105f860c4604435016145f1565b60018201821161144f576040516106248161050b60208201946001870190604435600401358988614605565b519020600080516020615091833981519152600052601c526106d5610661603c60002061056261055c610555602460443501604435600401614632565b7f7e6a49f35e3e07bf6b560eeb6ef6c8b821c4499a2a6301de6547ab58b52b0be58261069c6105a96105556044803501604435600401614632565b604080519485526001600160a01b0392831660208601529181169184019190915291606090a16001600160a01b039182169116146146bd565b61070a6040516106e4816143ef565b60148152735265676973746572696e67206b6579206c6f677360601b6020820152614d8d565b6000546001600160a01b03166107296024356044810190600401614632565b6107466105a9610555604460249695963501602435600401614632565b906107556064602435016145f1565b936107646084602435016145f1565b61077260a4602435016145f1565b61078060c4602435016145f1565b61078e60e460243501614872565b6107a76105a96105556044803501604435600401614632565b6107b56064604435016145f1565b906107c46084604435016145f1565b926107d360a4604435016145f1565b946107e260c4604435016145f1565b966107f160e460443501614872565b988d3b15610198576040519e8f9d8e9d8e635988f59760e01b81526004019d6108199e61487f565b03815a6000948591f1801561099d5761152a575b506000805160206150b1833981519152546001600160a01b031633148061150b575b611465575b60028101811161144f576002903360005260056020520160406000205560005b6108896101046024350160243560040161472a565b90508110156109b7576108b96108b4826108ae6101046024350160243560040161472a565b9061475f565b61476f565b90602082015191821515806109a9575b6108d9575b506001915001610874565b60018060a01b038151169260408201519360ff6060840151169060808401519560a0850151823b156101985760009461092c86926040519a8b978896879563d505accf60e01b87523033600489016147f2565b03925af190811561099d576001936109889261098e575b50838060a01b03905116604051610959816143ef565b601a81527f5065726d69742070726f63657373656420666f7220746f6b656e0000000000006020820152614de2565b846108ce565b610997906143dc565b86610943565b6040513d6000823e3d90fd5b5060408101514211156108c9565b50906109f06040516109c8816143ef565b600e81526d4275726e696e6720746f6b656e7360901b60208201526024356004013590614de2565b60243560040135156113fc576001600160a01b03821660009081526004602052604090205460ff16156113f657610a2b60c4602435016145f1565b6001600160a01b0383163b1561019857604051632770a7eb60e21b81526001600160a01b039091166004808301919091526024803591909101359082015260008180604481010381836001600160a01b0388165af1801561099d576113e7575b50610a9c6024356004013582614ae1565b8060243560040135116000146113df57610abc8160243560040135614962565b925b6001600160a01b031660009081526004602052604090205460ff161561120957507fcca356c69c0991b2f138fe7c7f64cf9be89604118a06017a49e0001782bc6536610b35610b116064604435016145f1565b604080516001600160a01b0390921682526020820195909552339490918291820190565b0390a35b610b77604051610b48816143ef565b601f81527f5472616e7366657272696e672072656d61696e696e672062616c616e636573006020820152614d8d565b60005b60065481101561119257610b8d816144f6565b60018060a01b0391549060031b1c1680600052600260205260018060a01b036040600020541691604051916370a0823160e01b8352336004840152602083602481845afa92831561099d5760009361115e575b5082610f13575b50905081610bfa575b6001915001610b7a565b6040516370a0823160e01b815233600482015291602083602481845afa92831561099d57600093610edf575b5082610c33575b50610bf0565b9060009160005b610c4f6101046024350160243560040161472a565b9050811015610ed757610c746108b4826108ae6101046024350160243560040161472a565b80516001600160a01b031683149081610ec7575b81610eb8575b50610c9b57600101610c3a565b5090915060015b8015610e48575b15610df257610cf9602084610cc26064604435016145f1565b6040516323b872dd60e01b81523360048201526001600160a01b039091166024820152604481019190915291829081906064820190565b03816000865af190811561099d57600091610db8575b5015610d73576001927fb5187db8729022d088cc50f8b09bdeaec0ac84d7686d287a7dd82dc25704f7f3906001600160a01b03610d506044356064016145f1565b604080516001600160a01b0396909616865260208601939093521692a282610c2d565b60405162461bcd60e51b815260206004820152601d60248201527f5772617070656420746f6b656e207472616e73666572206661696c65640000006044820152606490fd5b90506020813d602011610dea575b81610dd360209383614425565b8101031261019857610de49061471d565b84610d0f565b3d9150610dc6565b60405162461bcd60e51b815260206004820152602860248201527f496e73756666696369656e7420616c6c6f77616e636520666f7220777261707060448201526732b2103a37b5b2b760c11b6064820152608490fd5b50604051636eb1769f60e11b8152336004820152306024820152602081604481855afa801561099d578491600091610e83575b501015610ca9565b9150506020813d602011610eb0575b81610e9f60209383614425565b810103126101985783905185610e7b565b3d9150610e92565b60409150015142111586610c8e565b9050856020820151101590610c88565b509091610ca2565b9092506020813d602011610f0b575b81610efb60209383614425565b8101031261019857519183610c26565b3d9150610eee565b60009260005b610f2e6101046024350160243560040161472a565b905081101561115557610f536108b4826108ae6101046024350160243560040161472a565b80516001600160a01b031684149081611145575b81611136575b50610f7a57600101610f19565b509091925060015b80156110c6575b1561106f57610fa2602082610cc26064604435016145f1565b03816000875af190811561099d57600091611035575b5015610ff0576040519081527ee8ffc569c5f605999e8ad11ec9db2ef2254b66370f5b963df609fa59854eb260203392a38083610be7565b60405162461bcd60e51b815260206004820152601e60248201527f4f726967696e616c20746f6b656e207472616e73666572206661696c656400006044820152606490fd5b90506020813d602011611067575b8161105060209383614425565b81010312610198576110619061471d565b85610fb8565b3d9150611043565b60405162461bcd60e51b815260206004820152602960248201527f496e73756666696369656e7420616c6c6f77616e636520666f72206f726967696044820152683730b6103a37b5b2b760b91b6064820152608490fd5b50604051636eb1769f60e11b8152336004820152306024820152602081604481865afa801561099d578291600091611101575b501015610f89565b9150506020813d60201161112e575b8161111d60209383614425565b8101031261019857819051866110f9565b3d9150611110565b60409150015142111587610f6d565b9050826020820151101590610f67565b50909192610f82565b9092506020813d60201161118a575b8161117a60209383614425565b8101031261019857519184610be0565b3d915061116d565b346111ac575b60016000805160206150f183398151915255005b6111d36000808080346111c36064604435016145f1565b5af16111cd61496f565b5061499f565b6001600160a01b036111e96044356064016145f1565b1660405134815260008051602061511183398151915260203392a3611198565b806112fb575b508161121d575b5050610b39565b61126a916020916112326064604435016145f1565b60405163a9059cbb60e01b81526001600160a01b03909116600482015260248101929092529092839190829060009082906044820190565b03925af190811561099d576000916112c1575b501561128a578080611216565b60405162461bcd60e51b815260206004820152600f60248201526e151c985b9cd9995c8819985a5b1959608a1b6044820152606490fd5b90506020813d6020116112f3575b816112dc60209383614425565b81010312610198576112ed9061471d565b8161127d565b3d91506112cf565b60075460405163a9059cbb60e01b81526001600160a01b03909116600482015260248101829052906020826044816000875af1801561099d578392600091611379575b507f9dc46f23cfb5ddcad0ae7ea2be38d47fec07bb9382ec7e564efc69e036dd66ce9161136c602092614920565b604051908152a28261120f565b9250506020823d6020116113d7575b8161139560209383614425565b810103126101985760207f9dc46f23cfb5ddcad0ae7ea2be38d47fec07bb9382ec7e564efc69e036dd66ce9161136c6113ce869561471d565b9250509161133e565b3d9150611388565b600092610abe565b6113f0906143dc565b82610a8b565b33610a2b565b60405162461bcd60e51b815260206004820152602560248201527f4275726e20616d6f756e74206d7573742062652067726561746572207468616e604482015264207a65726f60d81b6064820152608490fd5b634e487b7160e01b600052601160045260246000fd5b6114736064604435016145f1565b61147b614a04565b6001600160a01b0381161561021957600780546001600160a01b0319166001600160a01b0383161790556114ad614a04565b6114b681614e27565b6000805160206150b1833981519152546000805160206150d1833981519152916001600160a01b03908116911682600080a36001600160a01b036114fe6044356064016145f1565b16903390600080a3610854565b506001600160a01b036115226044356064016145f1565b16151561084f565b611533906143dc565b8361082d565b6000805160206150b1833981519152546001600160a01b0316331480156115bf575b6104a15760405162461bcd60e51b815260206004820152603260248201527f43726f73732d636861696e206275726e696e6720726573747269637465642074604482015271379037bbb732b91037b9103932b630bcb2b960711b6064820152608490fd5b506001546001600160a01b0316331461155b565b34610198576020366003190112610198576115ec61439c565b7ff0c57e16840df040f15088dc2f81fe391c3923bec73e23a9662efc9c229c6a009081549060ff8260401c1615916001600160401b03811680159081611752575b6001149081611748575b15908161173f575b5061172d5767ffffffffffffffff19811660011784558261170e575b50611664614f5c565b61166c614f5c565b61167533614e27565b61167d614f5c565b611685614f5c565b61168d614f5c565b60016000805160206150f1833981519152556001600160601b0360a01b9060018060a01b03168160005416176000553390600754161760075560016008556116d157005b68ff00000000000000001981541690557fc7f505b2f371ae2175ee4913f4499e1f2633a7b5936321eed1cdaeb6115181d2602060405160018152a1005b68ffffffffffffffffff1916680100000000000000011783558361165b565b60405163f92ee8a960e01b8152600490fd5b9050158561163f565b303b159150611637565b84915061162d565b34610198576000366003190112610198576007546040516001600160a01b039091168152602090f35b346101985760203660031901126101985760206001600160a01b03806117a761439c565b16600052600a825260406000205416604051908152f35b34610198576000366003190112610198576000546040516001600160a01b039091168152602090f35b3461019857602036600319011261019857600435611803614a04565b612710811161181157600855005b60405162461bcd60e51b815260206004820152600c60248201526b08ccaca40e8dede40d0d2ced60a31b6044820152606490fd5b346101985760003660031901126101985761188b604051611865816143ef565b60058152640352e302e360dc1b60208201526040519182916020835260208301906144b6565b0390f35b34610198576020366003190112610198576001600160a01b036118b061439c565b166000526004602052602060ff604060002054166040519015158152f35b34610198576020366003190112610198576118e761439c565b6118ef614a04565b6001600160a01b03168015611916576001600160601b0360a01b6007541617600755600080f35b60405162461bcd60e51b815260206004820152601560248201527424b73b30b634b2103332b29031b7b63632b1ba37b960591b6044820152606490fd5b34610198576000366003190112610198576020600854604051908152f35b34610198576000366003190112610198576000805160206150b1833981519152546040516001600160a01b039091168152602090f35b34610198576000366003190112610198576001546040516001600160a01b039091168152602090f35b34610198576020366003190112610198576001600160a01b036119f161439c565b1660005260056020526020604060002054604051908152f35b346101985760203660031901126101985760206001600160a01b0380611a2e61439c565b166000526003825260406000205416604051908152f35b3461019857600036600319011261019857611a5e614a04565b6000805160206150b183398151915280546001600160a01b031981169091556000906001600160a01b03167f8be0079c531659141344cd1fd0a4f28419497f9722a3daafe3b4186f6b6457e08280a3005b600319604036820112610198576001600160401b0390816004351161019857610140918282600435360301126101985760243511610198576024353603011261019857611afa614a3d565b611b2a3331604051611b0b816143ef565b600d81526c73656e64657242616c616e636560981b6020820152614de2565b611b56604051611b39816143ef565b60098152686d73672e76616c756560b81b60208201523490614de2565b6000611ba2611b706101246004350160043560040161472a565b9050604051611b7e816143ef565b601281527150726f63657373696e67207065726d69747360701b6020820152614de2565b60005b611bba6101246004350160043560040161472a565b90508110156121e757611bdf6108b4826108ae6101246004350160043560040161472a565b90604051611bec816143ef565b611c21826017928381527f50726f63657373696e67207065726d697420696e6465780000000000000000006020820152614de2565b825160405190611c5d906001600160a01b0316611c3d836143ef565b600c928381526b2832b936b4ba103a37b5b2b760a11b6020820152614de2565b611c906020850151604051611c71816143ef565b600d81526c14195c9b5a5d08185b5bdd5b9d609a1b6020820152614de2565b60c0840151604051611cd1916001600160a01b031690611caf816143ef565b601081526f14195c9b5a5d081c9958da5c1a595b9d60821b6020820152614de2565b6020840151801515806121c7575b1561216e57506020840151604051611d1692611cfa826143ef565b81526b14195c9b5a5d081d985b1a5960a21b6020820152614de2565b82516001600160a01b0316611f4457611d676020840151604051611d39816143ef565b8381527f417474656d7074696e6720424e42207472616e736665720000000000000000006020820152614de2565b34611d766020850151866146b0565b11611f075760c08301516001600160a01b031615611eca57600080808060018060a01b0360c088015116602088015190617530f193611db361496f565b9415611e3f57839450906020611dd2611e3993826001970151906146b0565b95858060a01b0360c08201511682820151604051908152600080516020615111833981519152843392a301519060405190611e0c826143ef565b81527f424e42207472616e73666572207375636365737366756c0000000000000000006020820152614de2565b01611ba5565b611e86611e4b866149e1565b604051611e57816143ef565b601d81527f424e42207472616e73666572206661696c6564207769746820646174610000006020820152614de2565b606460405162461bcd60e51b815260206004820152602060248201527f424e42207472616e7366657220746f20726563697069656e74206661696c65646044820152fd5b60405162461bcd60e51b8152602060048201526015602482015274125b9d985b1a5908109390881c9958da5c1a595b9d605a1b6044820152606490fd5b60405162461bcd60e51b8152602060048201526015602482015274125b9cdd59999a58da595b9d08109390881cd95b9d605a1b6044820152606490fd5b50611f886020830151604051611f59816143ef565b601881527f50726f63657373696e67204552432d3230207065726d697400000000000000006020820152614de2565b60018060a01b0382511691602081015160408201519360ff6060840151169060808401519560a0850151823b1561019857600094611fe086926040519a8b978896879563d505accf60e01b87523033600489016147f2565b03925af192831561099d576120af9361215f575b50600080604051612004816143ef565b6016815275115490cb4c8c081c195c9b5a5d0a0a4818d85b1b195960521b60208201526040516120518161050b602082019463104c13eb60e21b86526020602484015260448301906144b6565b51906a636f6e736f6c652e6c6f675afa50805160c08201516020838101516040516323b872dd60e01b81523360048201526001600160a01b039384166024820152604481019190915295909286921690829060009082906064820190565b03925af192831561099d57600093612116575b506020612111916120d460019561482e565b01516040516120e2816143ef565b601a81527f4552432d3230207472616e73666572207375636365737366756c0000000000006020820152614de2565b611e39565b92506020833d602011612157575b8161213160209383614425565b81010312610198576020612111916120d461214d60019661471d565b95505091506120c2565b3d9150612124565b612168906143dc565b84611ff4565b90506001935061211191506040516121858161440a565b602a81527f5065726d697420736b69707065643a20696e76616c696420616d6f756e74206f6020820152697220646561646c696e6560b01b6040820152614de2565b5084516001600160a01b03161580611cdf57506040850151421115611cdf565b506122376006546040516121fa8161440a565b602581527f5472616e7366657272696e672072656d61696e696e6720746f6b656e2062616c602082015264616e63657360d81b6040820152614de2565b6000905b60065482101561251f5761224e826144f6565b90546040516370a0823160e01b8152336004820152939160031b1c6001600160a01b0316602084602481845afa93841561099d576000946124eb575b508361229c575b50600101915061223b565b60009260005b6122b76101246004350160043560040161472a565b90508110156124e3576122dc6108b4826108ae6101246004350160043560040161472a565b80516001600160a01b0316841490816124d3575b816124c4575b50612303576001016122a2565b5093925060015b8015612454575b156123fa5761232a602084610cc260c4602435016145f1565b03816000865af190811561099d576000916123c0575b501561237b576001926040519081527ee8ffc569c5f605999e8ad11ec9db2ef2254b66370f5b963df609fa59854eb260203392a38291612291565b60405162461bcd60e51b815260206004820152601f60248201527f52656d61696e696e6720746f6b656e207472616e73666572206661696c6564006044820152606490fd5b90506020813d6020116123f2575b816123db60209383614425565b81010312610198576123ec9061471d565b85612340565b3d91506123ce565b60405162461bcd60e51b815260206004820152602c60248201527f496e73756666696369656e7420616c6c6f77616e636520666f722072656d616960448201526b6e696e672062616c616e636560a01b6064820152608490fd5b50604051636eb1769f60e11b8152336004820152306024820152602081604481855afa801561099d57849160009161248f575b501015612311565b9150506020813d6020116124bc575b816124ab60209383614425565b810103126101985783905186612487565b3d915061249e565b604091500151421115876122f6565b90508660208201511015906122f0565b50939261230a565b9093506020813d602011612517575b8161250760209383614425565b810103126101985751928461228a565b3d91506124fa565b8034116000146129d3576125339034614962565b61752f19810190811161144f5761257681604051612550816143ef565b601481527324b734ba34b0b6103932b6b0b4b734b733a1272160611b6020820152614de2565b8015612974576125bb8160405161258c816143ef565b601a81527f5472616e7366657272696e672072656d61696e696e6720424e420000000000006020820152614de2565b6001600160a01b0360243560c401816125d3826145f1565b161561292f576000808080866125e8866145f1565b617530f16125f461496f565b90156128935750612604906145f1565b169060405190815260008051602061511183398151915260203392a35b6000805160206150b183398151915280546001600160a01b039190821633148061287b575b6127c5575b5061268a60405161265b816143ef565b601881527f5265676973746572696e67206b6579206c6f67207061697200000000000000006020820152614d8d565b60005416604460043501906105556126bb6105a96126ad85600435600401614632565b939095600435600401614632565b906126ca6064600435016145f1565b936126d96084600435016145f1565b6126e760a4600435016145f1565b6126f560c4600435016145f1565b61270360e460043501614872565b61271d6105a9610555604460243501602435600401614632565b61272b6064602435016145f1565b9061273a6084602435016145f1565b9261274960a4602435016145f1565b9461275860c4602435016145f1565b9661276760e460243501614872565b988d3b15610198576040519e8f9d8e9d8e635988f59760e01b81526004019d61278f9e61487f565b03815a6000948591f1801561099d576127b65760016000805160206150f183398151915255005b6127bf906143dc565b80611198565b6064602435019061280e836127d9846145f1565b166040516127e6816143ef565b601681527505472616e7366657272696e67206f776e6572736869760541b6020820152614de2565b612817826145f1565b90612820614a04565b838216928315610219578461286d926128508295876001600160601b0360a01b60075416176007556101ee614a04565b5416936000805160206150d18339815191529485600080a36145f1565b16903390600080a38161264b565b508161288b6064602435016145f1565b161515612646565b61289f6128ea916149e1565b6040516128ab8161440a565b602781527f52656d61696e696e6720424e42207472616e73666572206661696c65642077696020820152667468206461746160c81b6040820152614de2565b60405162461bcd60e51b815260206004820152601d60248201527f52656d61696e696e6720424e42207472616e73666572206661696c65640000006044820152606490fd5b60405162461bcd60e51b815260206004820152601f60248201527f496e76616c69642072656d61696e696e6720424e4220726563697069656e74006044820152606490fd5b506129ce6040516129848161440a565b603281527f4e6f2072656d61696e696e6720424e4220746f207472616e736665722061667460208201527132b91033b0b9903932b9b2b93b30ba34b7b760711b6040820152614d8d565b612621565b506129ce6040516129e3816143ef565b601c81527f4e6f2072656d61696e696e6720424e4220746f207472616e73666572000000006020820152614d8d565b3461019857604036600319011261019857612a2b61439c565b612a336143b2565b90612a3c614a04565b6001600160a01b039081166000908152600a6020526040902080546001600160a01b03191692909116919091179055005b3461019857602036600319011261019857612a8661439c565b612a8e614a04565b600180546001600160a01b0319166001600160a01b0392909216919091179055005b610100366003190112610198576001600160401b0360043581811161019857612add903690600401614498565b612ae56143b2565b916044356001600160a01b038116900361019857606435906001600160a01b038216820361019857608435936001600160a01b03851685036101985760a4356001600160a01b03811690036101985760c4359182151583036101985760e435908082116101985736602383011215610198578160040135116101985736602460e08360040135028301011161019857612b7c614a3d565b60005b81600401358110612d3c5750506000805160206150b183398151915280546001600160a01b0316331480612d28575b612ca1575b5034612c5d575b6000546001600160a01b031691823b1561019857600094612bfc9286926040519889978896879563151cdb2f60e11b875260e0600488015260e48701906144b6565b6001600160a01b039485166024870152604480358616908701529084166064860152908316608485015260a4803590931692840192909252151560c483015203925af1801561099d576127b65760016000805160206150f183398151915255005b612c7360008080803460a4355af16111cd61496f565b60405134815260a4356001600160a01b031690339060008051602061511183398151915290602090a3612bba565b612ca9614a04565b6044356001600160a01b03161561021957600780546001600160a01b0319166044356001600160a01b0316179055612cdf614a04565b612cea604435614e27565b546000805160206150d1833981519152906001600160a01b036044358116911682600080a36044356001600160a01b0316903390600080a385612bb3565b506044356001600160a01b03161515612bae565b612d516108b48284600401356024860161475f565b90602082015180151580612e97575b612d70575b506001915001612b7f565b60018060a01b038351169060408401519160ff6060860151169060808601519360a0870151823b1561019857600094612dc386926040519889978896879563d505accf60e01b87523033600489016147f2565b03925af1801561099d57600093602092612e2392612e88575b508051908301516040516323b872dd60e01b81523360048201526001600160a01b0360a4358116602483015260448201929092529586939190921691839182906064820190565b03925af191821561099d57600092612e48575b50612e4260019261482e565b88612d65565b91506020823d602011612e80575b81612e6360209383614425565b8101031261019857612e42612e7960019361471d565b9250612e36565b3d9150612e56565b612e91906143dc565b8b612ddc565b506040830151421115612d60565b34610198576000366003190112610198577f00000000000000000000000000000000000000000000000000000000000000006001600160a01b03163003612f105760206040517f360894a13ba1a3210667c828492db98dca3e2076cc3735a920a3ca505d382bbc8152f35b60405163703e46dd60e11b8152600490fd5b604036600319011261019857612f3661439c565b6024356001600160401b03811161019857612f55903690600401614498565b906001600160a01b037f000000000000000000000000000000000000000000000000000000000000000081163081149081156130ec575b50612f1057612f99614a04565b8116906040516352d1902d60e01b8152602081600481865afa600091816130b8575b50612fd957604051634c9c8ce360e01b815260048101849052602490fd5b7f360894a13ba1a3210667c828492db98dca3e2076cc3735a920a3ca505d382bbc929192908181036130a05750823b156130875780546001600160a01b03191682179055604051907fbc7cd75a20ee27fd9adebab32041f755214dbc6bffa90cc0225b39da2e5c2d3b600080a282511561306e575060008083602061306c95519101845af461306661496f565b9161502d565b005b9150503461307857005b63b398979f60e01b8152600490fd5b604051634c9c8ce360e01b815260048101839052602490fd5b60249060405190632a87526960e21b82526004820152fd5b9091506020813d6020116130e4575b816130d460209383614425565b8101031261019857519085612fbb565b3d91506130c7565b9050817f360894a13ba1a3210667c828492db98dca3e2076cc3735a920a3ca505d382bbc5416141584612f8c565b6003196060368201126101985761312f61439c565b906001600160401b03602435116101985761014090818160243536030112610198576001600160401b0360443511610198576044353603011261019857613174614a3d565b6001600160a01b038181166000908152600260205260409020541661319a8115156145a5565b80600052600460205260ff60406000205416614128575b33600052600560205260406000205490816131ed6131d360c4602435016145f1565b61050b604051938492602435600401358960208601614605565b60208151910120600080516020615091833981519152600052601c5261324c61323c613233603c60002061322d6105556024803501602435600401614632565b90614e9b565b90929192614ed7565b6001600160a01b03163314614664565b61325a60c4604435016145f1565b60018301831161144f576040516132868161050b60208201946001880190604435600401358a88614605565b519020600080516020615091833981519152600052601c526133016132c3613233603c60002061322d610555602460443501604435600401614632565b6105a96132ee6132dc6044803501604435600401614632565b6001600160a01b039391369190614461565b6001600160a01b039092169116146146bd565b6000546001600160a01b031661012061331e60243560c4016145f1565b6040516324b9c44160e21b81526001600160a01b03909116600482015291829060249082905afa801561099d5760009160009161401f575b50613f95575b5061337360443560040135602435600401356146b0565b61337d8185614ae1565b90818110613f505780151580613f37575b613c7a575b5081600052600460205260ff6040600020541615613a99575b60005b6133c46101246024350160243560040161472a565b9050811015613591576133e96108b4826108ae6101246024350160243560040161472a565b9060208201519182151580613583575b8061356c575b61340f575b5060019150016133af565b80516001600160a01b0316613429602435610104016145f1565b9060408301519060ff6060850151169560808501519360a086015190833b15610198576134746000969287936040519b8c988997889663d505accf60e01b88523090600489016147f2565b03925af190811561099d576134f89360209261355d575b5080516001600160a01b03166134a6602435610104016145f1565b916000846134b86064604435016145f1565b9201516040516323b872dd60e01b81526001600160a01b039586166004820152949092166024850152604484019190915291948592839182906064820190565b03925af191821561099d5760009261351d575b5061351760019261482e565b86613404565b91506020823d602011613555575b8161353860209383614425565b810103126101985761351761354e60019361471d565b925061350b565b3d915061352b565b613566906143dc565b8861348b565b5080516001600160a01b03888116911614156133ff565b5060408101514211156133f9565b50838360018060a01b0360005416604460243501906105556135cc6105a96135be85602435600401614632565b939095602435600401614632565b906135db6064602435016145f1565b936135ea6084602435016145f1565b6135f860a4602435016145f1565b61360660c4602435016145f1565b61361460e460243501614872565b61362d6105a96105556044803501604435600401614632565b61363b6064604435016145f1565b9061364a6084604435016145f1565b9261365960a4604435016145f1565b9461366860c4604435016145f1565b9661367760e460443501614872565b988d3b15610198576040519e8f9d8e9d8e635988f59760e01b81526004019d61369f9e61487f565b03815a6000948591f1801561099d57613a8a575b506000805160206150b1833981519152546001600160a01b0316331480613a6b575b6139c5575b6002810180911161144f57336000526005602052604060002055811515806139ac575b6138dc575b5060243560040135613815575b80604435600401351160001461380d5761372f9060443560040135614962565b80613750575b5050346111ac5760016000805160206150f183398151915255005b61375e6064604435016145f1565b90823b15610198576040516340c10f1960e01b81526001600160a01b039290921660048301526024820181905260008260448183875af191821561099d577fb5187db8729022d088cc50f8b09bdeaec0ac84d7686d287a7dd82dc25704f7f3926137fe575b506001600160a01b036137da6044356064016145f1565b604080516001600160a01b0396909616865260208601939093521692a28080613735565b613807906143dc565b836137c3565b50600061372f565b61382360c4602435016145f1565b823b15610198576040516340c10f1960e01b81526001600160a01b039190911660048083019190915260248035909101359082015260008160448183875af1801561099d576138cd575b506001600160a01b0361388460243560c4016145f1565b604080516001600160a01b038616815260243560040135602082015291909216917fb5187db8729022d088cc50f8b09bdeaec0ac84d7686d287a7dd82dc25704f7f391a261370f565b6138d6906143dc565b8261386d565b60075460405163a9059cbb60e01b81526001600160a01b039091166004820152602481018390526020818060448101038160006001600160a01b0387165af1801561099d57600090613971575b6139339150614920565b6040518281526001600160a01b03909116907f9dc46f23cfb5ddcad0ae7ea2be38d47fec07bb9382ec7e564efc69e036dd66ce90602090a282613702565b506020813d6020116139a4575b8161398b60209383614425565b810103126101985761399f6139339161471d565b613929565b3d915061397e565b5082600052600460205260ff60406000205416156136fd565b6139d36064604435016145f1565b6139db614a04565b6001600160a01b0381161561021957600780546001600160a01b0319166001600160a01b038316179055613a0d614a04565b613a1681614e27565b6000805160206150b1833981519152546000805160206150d1833981519152916001600160a01b03908116911682600080a36001600160a01b03613a5e6044356064016145f1565b16903390600080a36136da565b506001600160a01b03613a826044356064016145f1565b1615156136d5565b613a93906143dc565b846136b3565b613aa8610104602435016145f1565b6040516370a0823160e01b81526001600160a01b039182166004820152906020908290602490829089165afa90811561099d57600091613c48575b5080613af0575b506133ac565b806020613b02610104602435016145f1565b613b106064604435016145f1565b6040516323b872dd60e01b81526001600160a01b039283166004820152911660248201526044810192909252818060648101038160006001600160a01b038b165af190811561099d57600091613c0e575b5015613bb8576001600160a01b03613b7e602435610104016145f1565b166040519182527ee8ffc569c5f605999e8ad11ec9db2ef2254b66370f5b963df609fa59854eb2602060018060a01b03881693a384613aea565b60405162461bcd60e51b815260206004820152602860248201527f52656d61696e696e67206f726967696e616c20746f6b656e207472616e7366656044820152671c8819985a5b195960c21b6064820152608490fd5b90506020813d602011613c40575b81613c2960209383614425565b8101031261019857613c3a9061471d565b86613b61565b3d9150613c1c565b90506020813d602011613c72575b81613c6360209383614425565b81010312610198575185613ae3565b3d9150613c56565b92919060009360005b613c986101246024350160243560040161472a565b9050811015613f2d57613cbd6108b4826108ae6101246024350160243560040161472a565b80516001600160a01b0390811691908916821480613f1f575b80613f11575b613cea575050600101613c83565b9150919293949550613d01610104602435016145f1565b9160208201519060408301519160ff6060850151169460a0608086015195015190833b1561019857613d51600096928793604051998a988997889663d505accf60e01b88523090600489016147f2565b03925af1801561099d57613f02575b5060015b8015613e63575b15613e25576020613dbc91613d85610104602435016145f1565b6040516323b872dd60e01b81526001600160a01b039091166004820152306024820152604481019190915291829081906064820190565b038160006001600160a01b038a165af1801561099d57600090613dea575b613de4915061482e565b84613393565b506020813d602011613e1d575b81613e0460209383614425565b8101031261019857613e18613de49161471d565b613dda565b3d9150613df7565b60405162461bcd60e51b8152602060048201526016602482015275496e73756666696369656e7420616c6c6f77616e636560501b6044820152606490fd5b50613ea76020613e78610104602435016145f1565b604051636eb1769f60e11b81526001600160a01b03909116600482015230602482015291829081906044820190565b03816001600160a01b038a165afa801561099d578291600091613ecd575b501015613d6b565b9150506020813d602011613efa575b81613ee960209383614425565b810103126101985781905187613ec5565b3d9150613edc565b613f0b906143dc565b85613d60565b506040810151421115613cdc565b508360208201511015613cd6565b5090919293613d64565b5082600052600460205260ff604060002054161561338e565b60405162461bcd60e51b815260206004820152601b60248201527f416d6f756e7420746f6f206c6f7720746f20636f7665722066656500000000006044820152606490fd5b602001516001600160a01b0390811690613fb360243560c4016145f1565b1603613fbf578361335c565b60405162461bcd60e51b815260206004820152603260248201527f4f75747075742061646472657373206973206e6f7420746865206c6174657374604482015271040e0e4cae4dee8c2e8cac896caf290c2e6d60731b6064820152608490fd5b915050806101203d61012011614121575b61403a8183614425565b810103610120811261019857610100136101985760405190816101008101106001600160401b036101008401111761410b57610100820160405261407d81614709565b825261408b60208201614709565b602083015261409c60408201614709565b60408301526140ad60608201614709565b60608301526140be60808201614709565b60808301526140cf60a0820161471d565b60a08301526140e060c0820161471d565b60c083015260e081015160038110156101985760e0830152614105906101000161471d565b85613356565b634e487b7160e01b600052604160045260246000fd5b503d614030565b6000805160206150b1833981519152546001600160a01b0316331480156141ae575b6131b15760405162461bcd60e51b815260206004820152603260248201527f43726f73732d636861696e206d696e74696e6720726573747269637465642074604482015271379037bbb732b91037b9103932b630bcb2b960711b6064820152608490fd5b506001546001600160a01b0316331461414a565b34610198576060366003190112610198576141db61439c565b6141e36143b2565b604435801515809103610198576141f8614a04565b6001600160a01b0392831660008181526002602052604090205490929084166142a75782600052600260205283604060002091166001600160601b0360a01b918183825416179055600052600360205282604060002091825416179055600460205260406000209060ff801983541691161790556006546801000000000000000081101561410b5780600161429092016006556144f6565b909283549160031b92831b921b1916179055600080f35b60405162461bcd60e51b815260206004820152601960248201527f546f6b656e207061697220616c726561647920657869737473000000000000006044820152606490fd5b34610198576020366003190112610198576004356001600160401b038111610198576143216105a96020923690600401614498565b6040516001600160a01b039091168152f35b34610198576020366003190112610198576004356000526009602052602060ff604060002054166040519015158152f35b34610198576020366003190112610198576020906001600160a01b038061438961439c565b1660005260028352604060002054168152f35b600435906001600160a01b038216820361019857565b602435906001600160a01b038216820361019857565b35906001600160a01b038216820361019857565b6001600160401b03811161410b57604052565b604081019081106001600160401b0382111761410b57604052565b606081019081106001600160401b0382111761410b57604052565b90601f801991011681019081106001600160401b0382111761410b57604052565b6001600160401b03811161410b57601f01601f191660200190565b92919261446d82614446565b9161447b6040519384614425565b829481845281830111610198578281602093846000960137010152565b9080601f83011215610198578160206144b393359101614461565b90565b919082519283825260005b8481106144e2575050826000602080949584010152601f8019910116010190565b6020818301810151848301820152016144c1565b60065481101561452d5760066000527ff652222313e28459528d920b65115c16c04f3efc82aaedc97be59f3f377c0d3f0190600090565b634e487b7160e01b600052603260045260246000fd5b60408151036145605780516020909101206001600160a01b031690565b60405162461bcd60e51b815260206004820152601b60248201527f5075626c6963206b6579206d75737420626520363420627974657300000000006044820152606490fd5b156145ac57565b60405162461bcd60e51b815260206004820152601860248201527f546f6b656e2070616972206e6f7420737570706f7274656400000000000000006044820152606490fd5b356001600160a01b03811681036101985790565b92606894926001600160601b0319809360601b168552601485015260601b16603483015260488201520190565b903590601e198136030182121561019857018035906001600160401b0382116101985760200191813603831361019857565b1561466b57565b60405162461bcd60e51b815260206004820152601d60248201527f496e76616c696420756e636f6e6669726d6564207369676e61747572650000006044820152606490fd5b9190820180921161144f57565b156146c457565b60405162461bcd60e51b815260206004820152601c60248201527f496e76616c696420636f6e6669726d696e67207369676e6174757265000000006044820152606490fd5b51906001600160a01b038216820361019857565b5190811515820361019857565b903590601e198136030182121561019857018035906001600160401b038211610198576020019160e082023603831361019857565b919081101561452d5760e0020190565b60e081360312610198576040519060e082018281106001600160401b0382111761410b5760405261479f816143c8565b82526020810135602083015260408101356040830152606081013560ff81168103610198576147ea9160c09160608501526080810135608085015260a081013560a0850152016143c8565b60c082015290565b9360ff929897969360c0969260e087019a60018060a01b0380921688521660208701526040860152606085015216608083015260a08201520152565b1561483557565b60405162461bcd60e51b8152602060048201526015602482015274151bdad95b881d1c985b9cd9995c8819985a5b1959605a1b6044820152606490fd5b3580151581036101985790565b9c999394969a959891979e9d9b978091818f816101a08083528201526101c094859384830137010160009052601f1990601f01168d01019d8c600160a01b60019003809c81809c81809c81809c81809c1660208a0152166040880152166060860152166080840152169060a00152151560c08d01521660e08b0152166101008901521661012087015216610140850152166101608301521515906101800152565b1561492757565b60405162461bcd60e51b8152602060048201526013602482015272119959481d1c985b9cd9995c8819985a5b1959606a1b6044820152606490fd5b9190820391821161144f57565b3d1561499a573d9061498082614446565b9161498e6040519384614425565b82523d6000602084013e565b606090565b156149a657565b60405162461bcd60e51b8152602060048201526013602482015272115512081d1c985b9cd9995c8819985a5b1959606a1b6044820152606490fd5b6020815191015190602081106149f5575090565b6000199060200360031b1b1690565b6000805160206150b1833981519152546001600160a01b03163303614a2557565b60405163118cdaa760e01b8152336004820152602490fd5b6000805160206150f18339815191526002815414614a5b5760029055565b604051633ee5aeb560e01b8152600490fd5b8181029291811591840414171561144f57565b8115614a8a570490565b634e487b7160e01b600052601260045260246000fd5b519069ffffffffffffffffffff8216820361019857565b90816020910312610198575160ff811681036101985790565b60ff16604d811161144f57600a0a90565b90614af26127109160085490614a6d565b0460018060a01b0380921660009281845260049060209180835260409160ff838820541615614b26575b5050505050905090565b600a84528287205416938415614b1c578251633fabe5a360e21b81529360a0858481895afa948515614d83578895614d31575b5087851315614cfa578351958187858163313ce56760e01b948582525afa968715614cf0578997614ccf575b5081908486518095819382525afa938415614cc657508793614c97575b505060ff683635c9adc5dea00000921660128111600014614c3557601119019060ff8211614c22575090614bd8614bde92614ad0565b90614a6d565b915b60ff811615614c1257614bfe92614bd8614bf992614ad0565b614a80565b915b5081811115614c0d575090565b905090565b50614c1c91614a80565b91614c00565b634e487b7160e01b875260119052602486fd5b60128195939510614c48575b5050614be0565b6012949192940360ff8111614c8457614c6090614ad0565b918215614c71575004913880614c41565b634e487b7160e01b875260129052602486fd5b634e487b7160e01b875260118352602487fd5b614cb7929350803d10614cbf575b614caf8183614425565b810190614ab7565b903880614ba2565b503d614ca5565b513d89823e3d90fd5b82919750614ce990823d8411614cbf57614caf8183614425565b9690614b85565b85513d8b823e3d90fd5b9050606492519162461bcd60e51b83528201526012602482015271125b9d985b1a59081c1c9a58d9481999595960721b6044820152fd5b90945060a0813d60a011614d7b575b81614d4d60a09383614425565b81010312614d7757614d5e81614aa0565b50614d6f6080868301519201614aa0565b509338614b59565b8780fd5b3d9150614d40565b84513d8a823e3d90fd5b60008091604051614dcf81614dbb6020820194632d839cb360e21b86526040602484015260648301906144b6565b85604483015203601f198101835282614425565b51906a636f6e736f6c652e6c6f675afa50565b600091908291614dcf6040518092614e136020830195632d839cb360e21b87526040602485015260648401906144b6565b90604483015203601f198101835282614425565b6001600160a01b03908116908115614e82576000805160206150b183398151915280546001600160a01b031981168417909155167f8be0079c531659141344cd1fd0a4f28419497f9722a3daafe3b4186f6b6457e0600080a3565b604051631e4fbdf760e01b815260006004820152602490fd5b8151919060418303614ecc57614ec592506020820151906060604084015193015160001a90614f9d565b9192909190565b505060009160029190565b6004811015614f465780614ee9575050565b60018103614f035760405163f645eedf60e01b8152600490fd5b60028103614f245760405163fce698f760e01b815260048101839052602490fd5b600314614f2e5750565b602490604051906335e2f38360e21b82526004820152fd5b634e487b7160e01b600052602160045260246000fd5b60ff7ff0c57e16840df040f15088dc2f81fe391c3923bec73e23a9662efc9c229c6a005460401c1615614f8b57565b604051631afcd79f60e31b8152600490fd5b91907f7fffffffffffffffffffffffffffffff5d576e7357a4501ddfe92f46681b20a0841161502157926020929160ff608095604051948552168484015260408301526060820152600092839182805260015afa156150155780516001600160a01b0381161561500c57918190565b50809160019190565b604051903d90823e3d90fd5b50505060009160039190565b90615054575080511561504257805190602001fd5b60405163d6bda27560e01b8152600490fd5b81511580615087575b615065575090565b604051639996b31560e01b81526001600160a01b039091166004820152602490fd5b50803b1561505d56fe19457468657265756d205369676e6564204d6573736167653a0a3332000000009016d09d72d40fdae2fd8ceac6b6234c7706214fd39c1cd1e609a0528c199300b69157d514c6095da5c13b2b365be77ea013833d7ac38ad33874591a9df70e2b9b779b17422d0df92223018b32b4d1fa46e071723d6817e2486d003becc55f00fb55a98b33e2f35080e8e9656caf739c56946219253f8cd86917f7d333986676a264697066735822122050699a2e2f2522a65cba1a5e6851135fe86d39232eb83e027b1a88d299e3429d64736f6c63430008180033",
  "linkReferences": {},
  "deployedLinkReferences": {}
}