{
  "_format": "hh-sol-artifact-1",
  "contractName": "Bridge",
  "sourceName": "contracts/Bridge.sol",
  "abi": [
    {
      "inputs": [
        {
          "internalType": "address",
          "name": "target",
          "type": "address"
        }
      ],
      "name": "AddressEmptyCode",
      "type": "error"
    },
    {
      "inputs": [],
      "name": "AmountTooLow",
      "type": "error"
    },
    {
      "inputs": [],
      "name": "BurnAmountZero",
      "type": "error"
    },
    {
      "inputs": [],
      "name": "ECDSAInvalidSignature",
      "type": "error"
    },
    {
      "inputs": [
        {
          "internalType": "uint256",
          "name": "length",
          "type": "uint256"
        }
      ],
      "name": "ECDSAInvalidSignatureLength",
      "type": "error"
    },
    {
      "inputs": [
        {
          "internalType": "bytes32",
          "name": "s",
          "type": "bytes32"
        }
      ],
      "name": "ECDSAInvalidSignatureS",
      "type": "error"
    },
    {
      "inputs": [
        {
          "internalType": "address",
          "name": "implementation",
          "type": "address"
        }
      ],
      "name": "ERC1967InvalidImplementation",
      "type": "error"
    },
    {
      "inputs": [],
      "name": "ERC1967NonPayable",
      "type": "error"
    },
    {
      "inputs": [],
      "name": "EthTransferFailed",
      "type": "error"
    },
    {
      "inputs": [],
      "name": "FailedCall",
      "type": "error"
    },
    {
      "inputs": [],
      "name": "FeeTooHigh",
      "type": "error"
    },
    {
      "inputs": [],
      "name": "FeeTransferFailed",
      "type": "error"
    },
    {
      "inputs": [],
      "name": "InsufficientAllowance",
      "type": "error"
    },
    {
      "inputs": [
        {
          "internalType": "address",
          "name": "token",
          "type": "address"
        }
      ],
      "name": "InsufficientPermits",
      "type": "error"
    },
    {
      "inputs": [],
      "name": "InvalidConfirmingSignature",
      "type": "error"
    },
    {
      "inputs": [],
      "name": "InvalidFeeCollector",
      "type": "error"
    },
    {
      "inputs": [],
      "name": "InvalidInitialization",
      "type": "error"
    },
    {
      "inputs": [],
      "name": "InvalidPrerotatedKeyHash",
      "type": "error"
    },
    {
      "inputs": [],
      "name": "InvalidPriceFeed",
      "type": "error"
    },
    {
      "inputs": [],
      "name": "InvalidPublicKey",
      "type": "error"
    },
    {
      "inputs": [],
      "name": "InvalidUnconfirmedSignature",
      "type": "error"
    },
    {
      "inputs": [],
      "name": "NoTokenPairs",
      "type": "error"
    },
    {
      "inputs": [],
      "name": "NotInitializing",
      "type": "error"
    },
    {
      "inputs": [
        {
          "internalType": "address",
          "name": "owner",
          "type": "address"
        }
      ],
      "name": "OwnableInvalidOwner",
      "type": "error"
    },
    {
      "inputs": [
        {
          "internalType": "address",
          "name": "account",
          "type": "address"
        }
      ],
      "name": "OwnableUnauthorizedAccount",
      "type": "error"
    },
    {
      "inputs": [],
      "name": "ReentrancyGuardReentrantCall",
      "type": "error"
    },
    {
      "inputs": [],
      "name": "RestrictedToOwnerRelayer",
      "type": "error"
    },
    {
      "inputs": [
        {
          "internalType": "address",
          "name": "token",
          "type": "address"
        }
      ],
      "name": "SafeERC20FailedOperation",
      "type": "error"
    },
    {
      "inputs": [],
      "name": "TokenNotCrossChain",
      "type": "error"
    },
    {
      "inputs": [],
      "name": "TokenPairExists",
      "type": "error"
    },
    {
      "inputs": [],
      "name": "TokenPairNotSupported",
      "type": "error"
    },
    {
      "inputs": [],
      "name": "TransferFailed",
      "type": "error"
    },
    {
      "inputs": [],
      "name": "UUPSUnauthorizedCallContext",
      "type": "error"
    },
    {
      "inputs": [
        {
          "internalType": "bytes32",
          "name": "slot",
          "type": "bytes32"
        }
      ],
      "name": "UUPSUnsupportedProxiableUUID",
      "type": "error"
    },
    {
      "inputs": [],
      "name": "ZeroAddress",
      "type": "error"
    },
    {
      "anonymous": false,
      "inputs": [
        {
          "indexed": false,
          "internalType": "uint64",
          "name": "version",
          "type": "uint64"
        }
      ],
      "name": "Initialized",
      "type": "event"
    },
    {
      "anonymous": false,
      "inputs": [
        {
          "indexed": true,
          "internalType": "address",
          "name": "previousOwner",
          "type": "address"
        },
        {
          "indexed": true,
          "internalType": "address",
          "name": "newOwner",
          "type": "address"
        }
      ],
      "name": "OwnershipTransferred",
      "type": "event"
    },
    {
      "anonymous": false,
      "inputs": [
        {
          "indexed": true,
          "internalType": "address",
          "name": "implementation",
          "type": "address"
        }
      ],
      "name": "Upgraded",
      "type": "event"
    },
    {
      "inputs": [],
      "name": "FEE_CAP_USD",
      "outputs": [
        {
          "internalType": "uint256",
          "name": "",
          "type": "uint256"
        }
      ],
      "stateMutability": "view",
      "type": "function"
    },
    {
      "inputs": [],
      "name": "FEE_DENOMINATOR",
      "outputs": [
        {
          "internalType": "uint256",
          "name": "",
          "type": "uint256"
        }
      ],
      "stateMutability": "view",
      "type": "function"
    },
    {
      "inputs": [],
      "name": "UPGRADE_INTERFACE_VERSION",
      "outputs": [
        {
          "internalType": "string",
          "name": "",
          "type": "string"
        }
      ],
      "stateMutability": "view",
      "type": "function"
    },
    {
      "inputs": [
        {
          "components": [
            {
              "internalType": "address",
              "name": "originalToken",
              "type": "address"
            },
            {
              "internalType": "string",
              "name": "tokenName",
              "type": "string"
            },
            {
              "internalType": "string",
              "name": "tokenSymbol",
              "type": "string"
            },
            {
              "internalType": "bool",
              "name": "isCrossChain",
              "type": "bool"
            },
            {
              "internalType": "address",
              "name": "wrappedToken",
              "type": "address"
            },
            {
              "internalType": "address",
              "name": "priceFeed",
              "type": "address"
            }
          ],
          "internalType": "struct Bridge.TokenPair[]",
          "name": "newTokenPairs",
          "type": "tuple[]"
        },
        {
          "components": [
            {
              "internalType": "uint256",
              "name": "amount",
              "type": "uint256"
            },
            {
              "internalType": "bytes",
              "name": "signature",
              "type": "bytes"
            },
            {
              "internalType": "bytes",
              "name": "publicKey",
              "type": "bytes"
            },
            {
              "internalType": "address",
              "name": "prerotatedKeyHash",
              "type": "address"
            },
            {
              "internalType": "address",
              "name": "twicePrerotatedKeyHash",
              "type": "address"
            },
            {
              "internalType": "address",
              "name": "prevPublicKeyHash",
              "type": "address"
            },
            {
              "internalType": "address",
              "name": "outputAddress",
              "type": "address"
            },
            {
              "internalType": "bool",
              "name": "hasRelationship",
              "type": "bool"
            },
            {
              "internalType": "address",
              "name": "tokenSource",
              "type": "address"
            },
            {
              "components": [
                {
                  "internalType": "address",
                  "name": "token",
                  "type": "address"
                },
                {
                  "internalType": "uint256",
                  "name": "amount",
                  "type": "uint256"
                },
                {
                  "internalType": "uint256",
                  "name": "deadline",
                  "type": "uint256"
                },
                {
                  "internalType": "uint8",
                  "name": "v",
                  "type": "uint8"
                },
                {
                  "internalType": "bytes32",
                  "name": "r",
                  "type": "bytes32"
                },
                {
                  "internalType": "bytes32",
                  "name": "s",
                  "type": "bytes32"
                },
                {
                  "components": [
                    {
                      "internalType": "address",
                      "name": "recipientAddress",
                      "type": "address"
                    },
                    {
                      "internalType": "uint256",
                      "name": "amount",
                      "type": "uint256"
                    },
                    {
                      "internalType": "bool",
                      "name": "wrap",
                      "type": "bool"
                    },
                    {
                      "internalType": "bool",
                      "name": "unwrap",
                      "type": "bool"
                    },
                    {
                      "internalType": "bool",
                      "name": "mint",
                      "type": "bool"
                    }
                  ],
                  "internalType": "struct Bridge.Recipient[]",
                  "name": "recipients",
                  "type": "tuple[]"
                }
              ],
              "internalType": "struct Bridge.PermitData[]",
              "name": "permits",
              "type": "tuple[]"
            }
          ],
          "internalType": "struct Bridge.Params",
          "name": "unconfirmed",
          "type": "tuple"
        },
        {
          "components": [
            {
              "internalType": "uint256",
              "name": "amount",
              "type": "uint256"
            },
            {
              "internalType": "bytes",
              "name": "signature",
              "type": "bytes"
            },
            {
              "internalType": "bytes",
              "name": "publicKey",
              "type": "bytes"
            },
            {
              "internalType": "address",
              "name": "prerotatedKeyHash",
              "type": "address"
            },
            {
              "internalType": "address",
              "name": "twicePrerotatedKeyHash",
              "type": "address"
            },
            {
              "internalType": "address",
              "name": "prevPublicKeyHash",
              "type": "address"
            },
            {
              "internalType": "address",
              "name": "outputAddress",
              "type": "address"
            },
            {
              "internalType": "bool",
              "name": "hasRelationship",
              "type": "bool"
            },
            {
              "internalType": "address",
              "name": "tokenSource",
              "type": "address"
            },
            {
              "components": [
                {
                  "internalType": "address",
                  "name": "token",
                  "type": "address"
                },
                {
                  "internalType": "uint256",
                  "name": "amount",
                  "type": "uint256"
                },
                {
                  "internalType": "uint256",
                  "name": "deadline",
                  "type": "uint256"
                },
                {
                  "internalType": "uint8",
                  "name": "v",
                  "type": "uint8"
                },
                {
                  "internalType": "bytes32",
                  "name": "r",
                  "type": "bytes32"
                },
                {
                  "internalType": "bytes32",
                  "name": "s",
                  "type": "bytes32"
                },
                {
                  "components": [
                    {
                      "internalType": "address",
                      "name": "recipientAddress",
                      "type": "address"
                    },
                    {
                      "internalType": "uint256",
                      "name": "amount",
                      "type": "uint256"
                    },
                    {
                      "internalType": "bool",
                      "name": "wrap",
                      "type": "bool"
                    },
                    {
                      "internalType": "bool",
                      "name": "unwrap",
                      "type": "bool"
                    },
                    {
                      "internalType": "bool",
                      "name": "mint",
                      "type": "bool"
                    }
                  ],
                  "internalType": "struct Bridge.Recipient[]",
                  "name": "recipients",
                  "type": "tuple[]"
                }
              ],
              "internalType": "struct Bridge.PermitData[]",
              "name": "permits",
              "type": "tuple[]"
            }
          ],
          "internalType": "struct Bridge.Params",
          "name": "confirming",
          "type": "tuple"
        }
      ],
      "name": "addMultipleTokenPairsAtomic",
      "outputs": [],
      "stateMutability": "payable",
      "type": "function"
    },
    {
      "inputs": [
        {
          "internalType": "address",
          "name": "originalToken",
          "type": "address"
        },
        {
          "internalType": "address",
          "name": "wrappedToken",
          "type": "address"
        },
        {
          "internalType": "bool",
          "name": "_isCrossChain",
          "type": "bool"
        }
      ],
      "name": "addTokenPair",
      "outputs": [],
      "stateMutability": "nonpayable",
      "type": "function"
    },
    {
      "inputs": [],
      "name": "ethPriceFeed",
      "outputs": [
        {
          "internalType": "contract AggregatorV3Interface",
          "name": "",
          "type": "address"
        }
      ],
      "stateMutability": "view",
      "type": "function"
    },
    {
      "inputs": [],
      "name": "feeCollector",
      "outputs": [
        {
          "internalType": "address",
          "name": "",
          "type": "address"
        }
      ],
      "stateMutability": "view",
      "type": "function"
    },
    {
      "inputs": [],
      "name": "feePercentage",
      "outputs": [
        {
          "internalType": "uint256",
          "name": "",
          "type": "uint256"
        }
      ],
      "stateMutability": "view",
      "type": "function"
    },
    {
      "inputs": [
        {
          "internalType": "bytes",
          "name": "publicKey",
          "type": "bytes"
        }
      ],
      "name": "getAddressFromPublicKey",
      "outputs": [
        {
          "internalType": "address",
          "name": "",
          "type": "address"
        }
      ],
      "stateMutability": "pure",
      "type": "function"
    },
    {
      "inputs": [],
      "name": "getOwner",
      "outputs": [
        {
          "internalType": "address",
          "name": "",
          "type": "address"
        }
      ],
      "stateMutability": "view",
      "type": "function"
    },
    {
      "inputs": [],
      "name": "getSupportedTokens",
      "outputs": [
        {
          "internalType": "address[]",
          "name": "",
          "type": "address[]"
        }
      ],
      "stateMutability": "view",
      "type": "function"
    },
    {
      "inputs": [
        {
          "internalType": "address",
          "name": "_keyLogRegistry",
          "type": "address"
        },
        {
          "internalType": "address",
          "name": "_ethPriceFeed",
          "type": "address"
        }
      ],
      "name": "initialize",
      "outputs": [],
      "stateMutability": "nonpayable",
      "type": "function"
    },
    {
      "inputs": [],
      "name": "keyLogRegistry",
      "outputs": [
        {
          "internalType": "contract KeyLogRegistry",
          "name": "",
          "type": "address"
        }
      ],
      "stateMutability": "view",
      "type": "function"
    },
    {
      "inputs": [
        {
          "internalType": "address",
          "name": "",
          "type": "address"
        }
      ],
      "name": "nonces",
      "outputs": [
        {
          "internalType": "uint256",
          "name": "",
          "type": "uint256"
        }
      ],
      "stateMutability": "view",
      "type": "function"
    },
    {
      "inputs": [
        {
          "internalType": "address",
          "name": "originalToken",
          "type": "address"
        }
      ],
      "name": "originalToWrapped",
      "outputs": [
        {
          "internalType": "address",
          "name": "",
          "type": "address"
        }
      ],
      "stateMutability": "view",
      "type": "function"
    },
    {
      "inputs": [],
      "name": "owner",
      "outputs": [
        {
          "internalType": "address",
          "name": "",
          "type": "address"
        }
      ],
      "stateMutability": "view",
      "type": "function"
    },
    {
      "inputs": [],
      "name": "proxiableUUID",
      "outputs": [
        {
          "internalType": "bytes32",
          "name": "",
          "type": "bytes32"
        }
      ],
      "stateMutability": "view",
      "type": "function"
    },
    {
      "inputs": [
        {
          "internalType": "address",
          "name": "token",
          "type": "address"
        },
        {
          "components": [
            {
              "internalType": "uint256",
              "name": "amount",
              "type": "uint256"
            },
            {
              "internalType": "bytes",
              "name": "signature",
              "type": "bytes"
            },
            {
              "internalType": "bytes",
              "name": "publicKey",
              "type": "bytes"
            },
            {
              "internalType": "address",
              "name": "prerotatedKeyHash",
              "type": "address"
            },
            {
              "internalType": "address",
              "name": "twicePrerotatedKeyHash",
              "type": "address"
            },
            {
              "internalType": "address",
              "name": "prevPublicKeyHash",
              "type": "address"
            },
            {
              "internalType": "address",
              "name": "outputAddress",
              "type": "address"
            },
            {
              "internalType": "bool",
              "name": "hasRelationship",
              "type": "bool"
            },
            {
              "internalType": "address",
              "name": "tokenSource",
              "type": "address"
            },
            {
              "components": [
                {
                  "internalType": "address",
                  "name": "token",
                  "type": "address"
                },
                {
                  "internalType": "uint256",
                  "name": "amount",
                  "type": "uint256"
                },
                {
                  "internalType": "uint256",
                  "name": "deadline",
                  "type": "uint256"
                },
                {
                  "internalType": "uint8",
                  "name": "v",
                  "type": "uint8"
                },
                {
                  "internalType": "bytes32",
                  "name": "r",
                  "type": "bytes32"
                },
                {
                  "internalType": "bytes32",
                  "name": "s",
                  "type": "bytes32"
                },
                {
                  "components": [
                    {
                      "internalType": "address",
                      "name": "recipientAddress",
                      "type": "address"
                    },
                    {
                      "internalType": "uint256",
                      "name": "amount",
                      "type": "uint256"
                    },
                    {
                      "internalType": "bool",
                      "name": "wrap",
                      "type": "bool"
                    },
                    {
                      "internalType": "bool",
                      "name": "unwrap",
                      "type": "bool"
                    },
                    {
                      "internalType": "bool",
                      "name": "mint",
                      "type": "bool"
                    }
                  ],
                  "internalType": "struct Bridge.Recipient[]",
                  "name": "recipients",
                  "type": "tuple[]"
                }
              ],
              "internalType": "struct Bridge.PermitData[]",
              "name": "permits",
              "type": "tuple[]"
            }
          ],
          "internalType": "struct Bridge.Params",
          "name": "unconfirmed",
          "type": "tuple"
        },
        {
          "components": [
            {
              "internalType": "uint256",
              "name": "amount",
              "type": "uint256"
            },
            {
              "internalType": "bytes",
              "name": "signature",
              "type": "bytes"
            },
            {
              "internalType": "bytes",
              "name": "publicKey",
              "type": "bytes"
            },
            {
              "internalType": "address",
              "name": "prerotatedKeyHash",
              "type": "address"
            },
            {
              "internalType": "address",
              "name": "twicePrerotatedKeyHash",
              "type": "address"
            },
            {
              "internalType": "address",
              "name": "prevPublicKeyHash",
              "type": "address"
            },
            {
              "internalType": "address",
              "name": "outputAddress",
              "type": "address"
            },
            {
              "internalType": "bool",
              "name": "hasRelationship",
              "type": "bool"
            },
            {
              "internalType": "address",
              "name": "tokenSource",
              "type": "address"
            },
            {
              "components": [
                {
                  "internalType": "address",
                  "name": "token",
                  "type": "address"
                },
                {
                  "internalType": "uint256",
                  "name": "amount",
                  "type": "uint256"
                },
                {
                  "internalType": "uint256",
                  "name": "deadline",
                  "type": "uint256"
                },
                {
                  "internalType": "uint8",
                  "name": "v",
                  "type": "uint8"
                },
                {
                  "internalType": "bytes32",
                  "name": "r",
                  "type": "bytes32"
                },
                {
                  "internalType": "bytes32",
                  "name": "s",
                  "type": "bytes32"
                },
                {
                  "components": [
                    {
                      "internalType": "address",
                      "name": "recipientAddress",
                      "type": "address"
                    },
                    {
                      "internalType": "uint256",
                      "name": "amount",
                      "type": "uint256"
                    },
                    {
                      "internalType": "bool",
                      "name": "wrap",
                      "type": "bool"
                    },
                    {
                      "internalType": "bool",
                      "name": "unwrap",
                      "type": "bool"
                    },
                    {
                      "internalType": "bool",
                      "name": "mint",
                      "type": "bool"
                    }
                  ],
                  "internalType": "struct Bridge.Recipient[]",
                  "name": "recipients",
                  "type": "tuple[]"
                }
              ],
              "internalType": "struct Bridge.PermitData[]",
              "name": "permits",
              "type": "tuple[]"
            }
          ],
          "internalType": "struct Bridge.Params",
          "name": "confirming",
          "type": "tuple"
        }
      ],
      "name": "registerKeyPairWithTransfer",
      "outputs": [],
      "stateMutability": "payable",
      "type": "function"
    },
    {
      "inputs": [
        {
          "internalType": "bytes",
          "name": "publicKey",
          "type": "bytes"
        },
        {
          "internalType": "address",
          "name": "publicKeyHash",
          "type": "address"
        },
        {
          "internalType": "address",
          "name": "prerotatedKeyHash",
          "type": "address"
        },
        {
          "internalType": "address",
          "name": "twicePrerotatedKeyHash",
          "type": "address"
        },
        {
          "internalType": "address",
          "name": "prevPublicKeyHash",
          "type": "address"
        },
        {
          "internalType": "address",
          "name": "outputAddress",
          "type": "address"
        },
        {
          "internalType": "bool",
          "name": "hasRelationship",
          "type": "bool"
        },
        {
          "components": [
            {
              "internalType": "address",
              "name": "token",
              "type": "address"
            },
            {
              "internalType": "uint256",
              "name": "amount",
              "type": "uint256"
            },
            {
              "internalType": "uint256",
              "name": "deadline",
              "type": "uint256"
            },
            {
              "internalType": "uint8",
              "name": "v",
              "type": "uint8"
            },
            {
              "internalType": "bytes32",
              "name": "r",
              "type": "bytes32"
            },
            {
              "internalType": "bytes32",
              "name": "s",
              "type": "bytes32"
            },
            {
              "components": [
                {
                  "internalType": "address",
                  "name": "recipientAddress",
                  "type": "address"
                },
                {
                  "internalType": "uint256",
                  "name": "amount",
                  "type": "uint256"
                },
                {
                  "internalType": "bool",
                  "name": "wrap",
                  "type": "bool"
                },
                {
                  "internalType": "bool",
                  "name": "unwrap",
                  "type": "bool"
                },
                {
                  "internalType": "bool",
                  "name": "mint",
                  "type": "bool"
                }
              ],
              "internalType": "struct Bridge.Recipient[]",
              "name": "recipients",
              "type": "tuple[]"
            }
          ],
          "internalType": "struct Bridge.PermitData[]",
          "name": "permits",
          "type": "tuple[]"
        }
      ],
      "name": "registerKeyWithTransfer",
      "outputs": [],
      "stateMutability": "payable",
      "type": "function"
    },
    {
      "inputs": [],
      "name": "relayer",
      "outputs": [
        {
          "internalType": "address",
          "name": "",
          "type": "address"
        }
      ],
      "stateMutability": "view",
      "type": "function"
    },
    {
      "inputs": [],
      "name": "renounceOwnership",
      "outputs": [],
      "stateMutability": "nonpayable",
      "type": "function"
    },
    {
      "inputs": [
        {
          "internalType": "address",
          "name": "_ethPriceFeed",
          "type": "address"
        }
      ],
      "name": "setEthPriceFeed",
      "outputs": [],
      "stateMutability": "nonpayable",
      "type": "function"
    },
    {
      "inputs": [
        {
          "internalType": "address",
          "name": "_feeCollector",
          "type": "address"
        }
      ],
      "name": "setFeeCollector",
      "outputs": [],
      "stateMutability": "nonpayable",
      "type": "function"
    },
    {
      "inputs": [
        {
          "internalType": "uint256",
          "name": "_feePercentage",
          "type": "uint256"
        }
      ],
      "name": "setFeePercentage",
      "outputs": [],
      "stateMutability": "nonpayable",
      "type": "function"
    },
    {
      "inputs": [
        {
          "internalType": "address",
          "name": "_relayer",
          "type": "address"
        }
      ],
      "name": "setRelayer",
      "outputs": [],
      "stateMutability": "nonpayable",
      "type": "function"
    },
    {
      "inputs": [
        {
          "internalType": "address",
          "name": "token",
          "type": "address"
        },
        {
          "internalType": "address",
          "name": "priceFeed",
          "type": "address"
        }
      ],
      "name": "setTokenPriceFeed",
      "outputs": [],
      "stateMutability": "nonpayable",
      "type": "function"
    },
    {
      "inputs": [
        {
          "internalType": "uint256",
          "name": "",
          "type": "uint256"
        }
      ],
      "name": "supportedOriginalTokens",
      "outputs": [
        {
          "internalType": "address",
          "name": "",
          "type": "address"
        }
      ],
      "stateMutability": "view",
      "type": "function"
    },
    {
      "inputs": [
        {
          "internalType": "address",
          "name": "",
          "type": "address"
        }
      ],
      "name": "tokenPairs",
      "outputs": [
        {
          "internalType": "address",
          "name": "originalToken",
          "type": "address"
        },
        {
          "internalType": "address",
          "name": "wrappedToken",
          "type": "address"
        },
        {
          "internalType": "bool",
          "name": "isCrossChain",
          "type": "bool"
        }
      ],
      "stateMutability": "view",
      "type": "function"
    },
    {
      "inputs": [
        {
          "internalType": "address",
          "name": "",
          "type": "address"
        }
      ],
      "name": "tokenPriceFeeds",
      "outputs": [
        {
          "internalType": "contract AggregatorV3Interface",
          "name": "",
          "type": "address"
        }
      ],
      "stateMutability": "view",
      "type": "function"
    },
    {
      "inputs": [
        {
          "internalType": "address",
          "name": "newOwner",
          "type": "address"
        }
      ],
      "name": "transferOwnership",
      "outputs": [],
      "stateMutability": "nonpayable",
      "type": "function"
    },
    {
      "inputs": [
        {
          "internalType": "address",
          "name": "wrappedToken",
          "type": "address"
        },
        {
          "components": [
            {
              "internalType": "uint256",
              "name": "amount",
              "type": "uint256"
            },
            {
              "internalType": "bytes",
              "name": "signature",
              "type": "bytes"
            },
            {
              "internalType": "bytes",
              "name": "publicKey",
              "type": "bytes"
            },
            {
              "internalType": "address",
              "name": "prerotatedKeyHash",
              "type": "address"
            },
            {
              "internalType": "address",
              "name": "twicePrerotatedKeyHash",
              "type": "address"
            },
            {
              "internalType": "address",
              "name": "prevPublicKeyHash",
              "type": "address"
            },
            {
              "internalType": "address",
              "name": "outputAddress",
              "type": "address"
            },
            {
              "internalType": "bool",
              "name": "hasRelationship",
              "type": "bool"
            },
            {
              "internalType": "address",
              "name": "tokenSource",
              "type": "address"
            },
            {
              "components": [
                {
                  "internalType": "address",
                  "name": "token",
                  "type": "address"
                },
                {
                  "internalType": "uint256",
                  "name": "amount",
                  "type": "uint256"
                },
                {
                  "internalType": "uint256",
                  "name": "deadline",
                  "type": "uint256"
                },
                {
                  "internalType": "uint8",
                  "name": "v",
                  "type": "uint8"
                },
                {
                  "internalType": "bytes32",
                  "name": "r",
                  "type": "bytes32"
                },
                {
                  "internalType": "bytes32",
                  "name": "s",
                  "type": "bytes32"
                },
                {
                  "components": [
                    {
                      "internalType": "address",
                      "name": "recipientAddress",
                      "type": "address"
                    },
                    {
                      "internalType": "uint256",
                      "name": "amount",
                      "type": "uint256"
                    },
                    {
                      "internalType": "bool",
                      "name": "wrap",
                      "type": "bool"
                    },
                    {
                      "internalType": "bool",
                      "name": "unwrap",
                      "type": "bool"
                    },
                    {
                      "internalType": "bool",
                      "name": "mint",
                      "type": "bool"
                    }
                  ],
                  "internalType": "struct Bridge.Recipient[]",
                  "name": "recipients",
                  "type": "tuple[]"
                }
              ],
              "internalType": "struct Bridge.PermitData[]",
              "name": "permits",
              "type": "tuple[]"
            }
          ],
          "internalType": "struct Bridge.Params",
          "name": "unconfirmed",
          "type": "tuple"
        },
        {
          "components": [
            {
              "internalType": "uint256",
              "name": "amount",
              "type": "uint256"
            },
            {
              "internalType": "bytes",
              "name": "signature",
              "type": "bytes"
            },
            {
              "internalType": "bytes",
              "name": "publicKey",
              "type": "bytes"
            },
            {
              "internalType": "address",
              "name": "prerotatedKeyHash",
              "type": "address"
            },
            {
              "internalType": "address",
              "name": "twicePrerotatedKeyHash",
              "type": "address"
            },
            {
              "internalType": "address",
              "name": "prevPublicKeyHash",
              "type": "address"
            },
            {
              "internalType": "address",
              "name": "outputAddress",
              "type": "address"
            },
            {
              "internalType": "bool",
              "name": "hasRelationship",
              "type": "bool"
            },
            {
              "internalType": "address",
              "name": "tokenSource",
              "type": "address"
            },
            {
              "components": [
                {
                  "internalType": "address",
                  "name": "token",
                  "type": "address"
                },
                {
                  "internalType": "uint256",
                  "name": "amount",
                  "type": "uint256"
                },
                {
                  "internalType": "uint256",
                  "name": "deadline",
                  "type": "uint256"
                },
                {
                  "internalType": "uint8",
                  "name": "v",
                  "type": "uint8"
                },
                {
                  "internalType": "bytes32",
                  "name": "r",
                  "type": "bytes32"
                },
                {
                  "internalType": "bytes32",
                  "name": "s",
                  "type": "bytes32"
                },
                {
                  "components": [
                    {
                      "internalType": "address",
                      "name": "recipientAddress",
                      "type": "address"
                    },
                    {
                      "internalType": "uint256",
                      "name": "amount",
                      "type": "uint256"
                    },
                    {
                      "internalType": "bool",
                      "name": "wrap",
                      "type": "bool"
                    },
                    {
                      "internalType": "bool",
                      "name": "unwrap",
                      "type": "bool"
                    },
                    {
                      "internalType": "bool",
                      "name": "mint",
                      "type": "bool"
                    }
                  ],
                  "internalType": "struct Bridge.Recipient[]",
                  "name": "recipients",
                  "type": "tuple[]"
                }
              ],
              "internalType": "struct Bridge.PermitData[]",
              "name": "permits",
              "type": "tuple[]"
            }
          ],
          "internalType": "struct Bridge.Params",
          "name": "confirming",
          "type": "tuple"
        }
      ],
      "name": "unwrap",
      "outputs": [],
      "stateMutability": "payable",
      "type": "function"
    },
    {
      "inputs": [
        {
          "internalType": "address",
          "name": "newImplementation",
          "type": "address"
        },
        {
          "internalType": "bytes",
          "name": "data",
          "type": "bytes"
        }
      ],
      "name": "upgradeToAndCall",
      "outputs": [],
      "stateMutability": "payable",
      "type": "function"
    },
    {
      "inputs": [
        {
          "internalType": "address",
          "name": "originalToken",
          "type": "address"
        },
        {
          "components": [
            {
              "internalType": "uint256",
              "name": "amount",
              "type": "uint256"
            },
            {
              "internalType": "bytes",
              "name": "signature",
              "type": "bytes"
            },
            {
              "internalType": "bytes",
              "name": "publicKey",
              "type": "bytes"
            },
            {
              "internalType": "address",
              "name": "prerotatedKeyHash",
              "type": "address"
            },
            {
              "internalType": "address",
              "name": "twicePrerotatedKeyHash",
              "type": "address"
            },
            {
              "internalType": "address",
              "name": "prevPublicKeyHash",
              "type": "address"
            },
            {
              "internalType": "address",
              "name": "outputAddress",
              "type": "address"
            },
            {
              "internalType": "bool",
              "name": "hasRelationship",
              "type": "bool"
            },
            {
              "internalType": "address",
              "name": "tokenSource",
              "type": "address"
            },
            {
              "components": [
                {
                  "internalType": "address",
                  "name": "token",
                  "type": "address"
                },
                {
                  "internalType": "uint256",
                  "name": "amount",
                  "type": "uint256"
                },
                {
                  "internalType": "uint256",
                  "name": "deadline",
                  "type": "uint256"
                },
                {
                  "internalType": "uint8",
                  "name": "v",
                  "type": "uint8"
                },
                {
                  "internalType": "bytes32",
                  "name": "r",
                  "type": "bytes32"
                },
                {
                  "internalType": "bytes32",
                  "name": "s",
                  "type": "bytes32"
                },
                {
                  "components": [
                    {
                      "internalType": "address",
                      "name": "recipientAddress",
                      "type": "address"
                    },
                    {
                      "internalType": "uint256",
                      "name": "amount",
                      "type": "uint256"
                    },
                    {
                      "internalType": "bool",
                      "name": "wrap",
                      "type": "bool"
                    },
                    {
                      "internalType": "bool",
                      "name": "unwrap",
                      "type": "bool"
                    },
                    {
                      "internalType": "bool",
                      "name": "mint",
                      "type": "bool"
                    }
                  ],
                  "internalType": "struct Bridge.Recipient[]",
                  "name": "recipients",
                  "type": "tuple[]"
                }
              ],
              "internalType": "struct Bridge.PermitData[]",
              "name": "permits",
              "type": "tuple[]"
            }
          ],
          "internalType": "struct Bridge.Params",
          "name": "unconfirmed",
          "type": "tuple"
        },
        {
          "components": [
            {
              "internalType": "uint256",
              "name": "amount",
              "type": "uint256"
            },
            {
              "internalType": "bytes",
              "name": "signature",
              "type": "bytes"
            },
            {
              "internalType": "bytes",
              "name": "publicKey",
              "type": "bytes"
            },
            {
              "internalType": "address",
              "name": "prerotatedKeyHash",
              "type": "address"
            },
            {
              "internalType": "address",
              "name": "twicePrerotatedKeyHash",
              "type": "address"
            },
            {
              "internalType": "address",
              "name": "prevPublicKeyHash",
              "type": "address"
            },
            {
              "internalType": "address",
              "name": "outputAddress",
              "type": "address"
            },
            {
              "internalType": "bool",
              "name": "hasRelationship",
              "type": "bool"
            },
            {
              "internalType": "address",
              "name": "tokenSource",
              "type": "address"
            },
            {
              "components": [
                {
                  "internalType": "address",
                  "name": "token",
                  "type": "address"
                },
                {
                  "internalType": "uint256",
                  "name": "amount",
                  "type": "uint256"
                },
                {
                  "internalType": "uint256",
                  "name": "deadline",
                  "type": "uint256"
                },
                {
                  "internalType": "uint8",
                  "name": "v",
                  "type": "uint8"
                },
                {
                  "internalType": "bytes32",
                  "name": "r",
                  "type": "bytes32"
                },
                {
                  "internalType": "bytes32",
                  "name": "s",
                  "type": "bytes32"
                },
                {
                  "components": [
                    {
                      "internalType": "address",
                      "name": "recipientAddress",
                      "type": "address"
                    },
                    {
                      "internalType": "uint256",
                      "name": "amount",
                      "type": "uint256"
                    },
                    {
                      "internalType": "bool",
                      "name": "wrap",
                      "type": "bool"
                    },
                    {
                      "internalType": "bool",
                      "name": "unwrap",
                      "type": "bool"
                    },
                    {
                      "internalType": "bool",
                      "name": "mint",
                      "type": "bool"
                    }
                  ],
                  "internalType": "struct Bridge.Recipient[]",
                  "name": "recipients",
                  "type": "tuple[]"
                }
              ],
              "internalType": "struct Bridge.PermitData[]",
              "name": "permits",
              "type": "tuple[]"
            }
          ],
          "internalType": "struct Bridge.Params",
          "name": "confirming",
          "type": "tuple"
        }
      ],
      "name": "wrap",
      "outputs": [],
      "stateMutability": "payable",
      "type": "function"
    }
  ],
  "bytecode": "0x60a0806040523461002a5730608052615d0590816100308239608051818181611ed10152611f800152f35b600080fdfe60808060405260043610156200001457600080fd5b600090813560e01c908163081da8c11462002b495750806319bd211914620024f5578063276c1ac014620024a7578063334976c7146200236a57806347bbbdf5146200230b578063485cc95514620021515780634f1ef2861462001f3c57806352d1902d1462001ebc5780635ff591311462001e9b5780636548e9bc1462001e55578063674417ae1462001df3578063715018a61462001d835780637ecebe001462001d465780638406c0791462001d1b578063893d20e81462001ce25780638da5cb5b1462001ce2578063a001ecdd1462001cc2578063a42dce801462001c62578063ad3cb1cc1462001c01578063ae06c1b71462001bbe578063af7665ce1462001b93578063b1cba4dc1462000f2c578063b5057a7b1462000f03578063b75f887b1462000973578063bd9c47e31462000933578063c011c9eb14620008ed578063c35cd1b814620003c8578063c415b95c146200039d578063d3c7c2c714620002cf578063d73792a914620002b0578063d8397fd5146200024d578063f2fde38b14620001d65763f9baf7bf14620001ae57600080fd5b34620001d35780600319360112620001d3576020604051683635c9adc5dea000008152f35b80fd5b5034620001d3576020366003190112620001d357620001f462002bc0565b620001fe6200332c565b6001600160a01b0381169081156200023b5762000238916001600160601b0360a01b6002541617600255620002326200332c565b62003f5a565b80f35b60405163d92e233d60e01b8152600490fd5b5034620001d3576020366003190112620001d357600435600654811015620002ac5760066000527ff652222313e28459528d920b65115c16c04f3efc82aaedc97be59f3f377c0d3f01546040516001600160a01b039091168152602090f35b5080fd5b5034620001d35780600319360112620001d35760206040516127108152f35b5034620001d35780600319360112620001d35760405180916006549081835260208093018092600683527ff652222313e28459528d920b65115c16c04f3efc82aaedc97be59f3f377c0d3f90835b8181106200037f57505050846200033691038562002c4f565b60405193838594850191818652518092526040850193925b8281106200035e57505050500390f35b83516001600160a01b0316855286955093810193928101926001016200034e565b82546001600160a01b0316845292860192600192830192016200031d565b5034620001d35780600319360112620001d3576002546040516001600160a01b039091168152602090f35b50620003d43662002d2b565b620003e1939293620032e5565b60018060a01b03918285169081855260209160048352604086206001604051916200040c8362002c03565b878154168352015460ff87821691828785015260a01c161515604083015215620008db573387526005845260408720549783359360c0810193620004ed620004e6878d620004a58b62000496620004638c6200329f565b936040519485938401968c8890606092959493608083019660018060a01b03809316845260208401521660408201520152565b03601f19810183528262002c4f565b519020620004b68a860186620030c4565b9290620004dd620004d7620004cf60408a018a620030c4565b369162002c8d565b62003013565b93369162002c8d565b9062003a6a565b15620008c9576200050160c089016200329f565b60018c0190818d11620008b557918b620004cf928c6200057095604051938d85019586526040850152166060830152608082015260808152620005448162002c33565b519020620004e68a620004dd620004d7620005628d840184620030c4565b9690936040810190620030c4565b15620008a35782518816156200088a576200058f858985511662003b73565b91826200059d8188620032d7565b96106200083157620005b191889162003375565b6002890180991162000876578798979697338852600586526040882055878251161515600014620007e4578062000738575b508262000663575b505050509091503415158062000616575b5050505b600160008051602062005cb08339815191525580f35b62000623575b80620005fc565b818080926200063660603492016200329f565b5af16200064262002fde565b5015620006515780386200061c565b604051630db2c7f160e31b8152600490fd5b839550620006b194966200067a915116916200329f565b60405163a9059cbb60e01b81526001600160a01b039091166004820152602481019290925290928391908290889082906044820190565b03925af19182156200072d578492620006eb575b505015620006d957818138808080620005eb565b6040516312171d8360e31b8152600490fd5b90809250813d831162000725575b62000705818362002c4f565b8101031262000721576200071990620032c9565b3880620006c5565b8280fd5b503d620006f9565b6040513d86823e3d90fd5b815160025460405163a9059cbb60e01b8152908a166001600160a01b03166004820152602481019290925291965090849082908916818b816044810103925af1908115620007d957889162000798575b5015620006d957869438620005e3565b90508381813d8311620007d1575b620007b2818362002c4f565b81010312620007cd57620007c690620032c9565b3862000788565b8780fd5b503d620007a6565b6040513d8a823e3d90fd5b96955050915080925062000843575b50508162000804575b505062000600565b8147106200083157828080938193600254165af16200082262002fde565b5015620006d9573880620007fc565b604051631fbaba3560e01b8152600490fd5b8147106200083157848080936200085b82946200329f565b5af16200086762002fde565b501562000651573880620007f3565b634e487b7160e01b88526011600452602488fd5b936200089790346200327b565b936200058f8562003e29565b604051633bc0bb3d60e21b8152600490fd5b634e487b7160e01b8c52601160045260248cfd5b604051637a9e3e8360e01b8152600490fd5b604051637879bad160e01b8152600490fd5b5034620001d3576020366003190112620001d3576200090b62002bc0565b620009156200332c565b60018060a01b03166001600160601b0360a01b600854161760085580f35b5034620001d3576020366003190112620001d3576020906001600160a01b0390604090826200096162002bc0565b16815260078452205416604051908152f35b506200097f3662002d2b565b906200098a620032e5565b60018060a01b038084169081865260206004815260408720600160405191620009b38362002c03565b848154168352015490604060ff84830193868116855260a01c16151591015233885260058252604088205491853560c08701938062000a5f620004e68c620009fb896200329f565b604080516001600160a01b039384168a8201908152602081018a9052939092169083015260608201949094528360808201039362000a42601f199586810183528262002c4f565b51902062000a53878d018d620030c4565b92903393369162002c8d565b15620008c95762000a7360c08b016200329f565b916001810180911162000eef57604080516001600160a01b03808f168883019081528e356020820152951691850191909152606084019190915262000aef92620004cf9290919062000ad19082608085010390810183528262002c4f565b519020620004e68b620004dd620004d76200056289840184620030c4565b15620008a35784808b54168b62000b06876200329f565b916040519384936324b9c44160e21b85521660048401528260246101209586935afa801562000ee25788938693839262000dc4575b505062000d93575b50505062000b52818a62003b73565b91828210620008315762000b663462003e29565b9788341062000831578962000b7d918d9c62003375565b8215158062000d89575b62000cdd575b509062000b9a91620032d7565b90838262000c56575b505050503462000bc5575b84600160008051602062005cb08339815191525580f35b8262000c1d575b5062000bdb575b808062000bae565b62000be79034620032d7565b801562000bd3578280929162000c0160608394016200329f565b5af162000c0d62002fde565b5015620006515780388062000bd3565b93808084819497600254165af162000c3462002fde565b501562000c445783923862000bcc565b604051634033e4e360e01b8152600490fd5b62000c64915116926200329f565b90823b15620007cd576040516340c10f1960e01b81526001600160a01b0392909216600483015260248201529086908290604490829084905af190811562000cd257869162000cb6575b808362000ba3565b62000cc19062002c1f565b62000cce57843862000cae565b8480fd5b6040513d88823e3d90fd5b60025460405163a9059cbb60e01b81529087166001600160a01b03166004820152602481018490529299919290918290829081806044810103918b5af191821562000d7e578b9262000d3c575b505015620006d9579688973862000b8d565b90809250813d831162000d76575b62000d56818362002c4f565b8101031262000d725762000d6a90620032c9565b388062000d2a565b8980fd5b503d62000d4a565b6040513d8d823e3d90fd5b5086151562000b87565b0151168562000da2866200329f565b160362000db25784823862000b43565b604051631a7ec90d60e01b8152600490fd5b93509350505080823d841162000eda575b62000de1818362002c4f565b81010391821262000ed65761010080921262000ed6576040518281018181106001600160401b0382111762000ec05760405262000e1e82620032b4565b815262000e2d858301620032b4565b8582015262000e3f60408301620032b4565b604082015262000e5260608301620032b4565b606082015262000e6560808301620032b4565b608082015262000e7860a08301620032c9565b60a082015262000e8b60c08301620032c9565b60c082015260e0820151600381101562000ebc578893869362000eb49260e085015201620032c9565b388062000b3b565b8d80fd5b634e487b7160e01b600052604160045260246000fd5b8b80fd5b503d62000dd5565b50604051903d90823e3d90fd5b634e487b7160e01b8d52601160045260248dfd5b5034620001d35780600319360112620001d357546040516001600160a01b039091168152602090f35b50600319606036820112620002ac576004356001600160401b038111620007215762000f5d90369060040162002cf8565b90916001600160401b036024351162001b8f576101409081816024353603011262000cce576001600160401b036044351162000cce5760443536030112620007215762000fa96200332c565b62000fb3620032e5565b801562001b7d5762000fd8620004d7620004cf604460243501602435600401620030c4565b338452600560205260408420549062001024620004e660405162001008816200049687878a8c602086016200314e565b6020815191012062000a536024803501602435600401620030c4565b15620008c95760018201821162001b69576200109791620004966200105f620004e693604051928391600160208401960190898b886200314e565b51902062001078602460443501604435600401620030c4565b9290620004dd620004d7620004cf6044803501604435600401620030c4565b15620008a357825b818110620017d757600084602435610124810135903603602219018112156200072157602435016001600160401b036004820135116200072157600481013560051b360360248201136200072157620011048391369060246004820135910162002dec565b91815b8351831015620014d9576200111d838562003317565b51916020830151151580620014ca575b80620014b6575b15620014065760018060a01b03835116602084015160408501519060ff60608701511692608087015160a088015190823b15620007cd5760e492889594928692604051988997889663d505accf60e01b885233600489015230602489015260448801526064870152608486015260a485015260c48401525af18015620013fb57620013e9575b508194825b60c08501518051821015620013c85781620011da9162003317565b51602081015180620011f2575b5050600101620011bf565b6060829993990151151580620013b5575b156200129b5750855181516020830151916001600160a01b039081169116813b15620007cd57604051632770a7eb60e21b81526001600160a01b03919091166004820152602481019290925286908290604490829084905af1801562000cd25762001280926001949260209262001289575b505b0151906200327b565b969088620011e7565b620012949062002c1f565b8b62001275565b6080820151151580620013a2575b15620013355750855181516020830151916001600160a01b039081169116813b15620007cd576040516340c10f1960e01b81526001600160a01b03919091166004820152602481019290925286908290604490829084905af1801562000cd25762001280926001949260209262001323575b505b62001277565b6200132e9062002c1f565b8b6200131b565b9160208260019460406200128095015115158062001391575b156200137157506200131d858060a01b038a511683830151903090339062003fd0565b6200131d90868060a01b038b5116878060a01b0384511690339062003fd0565b50858060a01b038a5116156200134e565b5086516001600160a01b031615620012a9565b5086516001600160a01b03161562001203565b5050926020909591949295015103620006d9576001905b0191909262001107565b620013f49062002c1f565b85620011ba565b6040513d85823e3d90fd5b9290939160018060a01b038151161562001425575b50600190620013df565b93929091835b60c08601518051821015620014a6576200144782879262003317565b516020810151908115158062001499575b6200146a575b5050506001016200142b565b51829182918291906001600160a01b0316617530f16200148962002fde565b501562000651578487806200145e565b5060408101511562001458565b505091600191939450906200141b565b5082516001600160a01b0316151562001134565b5060408301514211156200112d565b90620014f0604460243501602435600401620030c4565b9290620015026064602435016200329f565b93620015136084602435016200329f565b906200152460a4602435016200329f565b916200153560c4602435016200329f565b936200154660e46024350162003367565b926200155c6044803501604435600401620030c4565b92906200156e6064604435016200329f565b6200157e6084604435016200329f565b90620015cb6200159360a4604435016200329f565b93620015c2620015a860c4604435016200329f565b96620015b960e46044350162003367565b98369162002c8d565b97369162002c8d565b8b546001600160a01b03169890620015e39062003013565b90893b15620017d357918c9d9e9593918d9c9d989795936040519e8f9d8e9c8d9b632e91b77d60e01b8d5260048d0161018090526101848d01620016279162002d92565b6001600160a01b039b8c1660248e0152908b1660448d0152908a1660648c015290891660848b015290151560a48a015290871660c489015290861660e48801529085166101048701529084166101248601529216610144840152151561016483015203925af18015620017c857620017b6575b5060008051602062005c90833981519152546001600160a01b031633148062001794575b62001740575b338152600560205260408120805490600282018092116200172c575534620016fe575b50600160008051602062005cb08339815191525580f35b80808034620017126064604435016200329f565b5af16200171e62002fde565b5015620006515781620016e7565b634e487b7160e01b83526011600452602483fd5b620017506064604435016200329f565b6200175a6200332c565b6001600160a01b0381169081156200023b576200178e916001600160601b0360a01b6002541617600255620002326200332c565b620016c4565b506001600160a01b03620017ad6044356064016200329f565b161515620016be565b620017c19062002c1f565b826200169a565b6040513d84823e3d90fd5b8c80fd5b8060051b8301359060be198436030182121562000cce5760c082850136031262000cce57604051918260c08101106001600160401b0360c08501111762000ec05760c083016040526200182c81860162002bee565b83526001600160401b03602082870101351162001b6557620018573686830160208101350162002cc9565b60208401526001600160401b03604082870101351162001b6557620018c59060a0906200188d3688830160408101350162002cc9565b6040860152620018a260608289010162002cea565b6060860152620018b760808289010162002bee565b608086015286010162002bee565b60a083015281516001600160a01b039081168652600460205260408620600101541662001b535760808201516001600160a01b0316801562001a91575b82516060840151604051600195939290911515906001600160a01b03166200192a8362002c03565b825260a086811b87900384811660208086019182526040808701958652885184168e526004909152808d20955186549084166001600160a01b0319909116178655905194890180549451151590931b60ff60a01b9081169583166001600160a81b031995861617959095179092558551606087015192519215159493928992909116620019b78262002c03565b81526020810195828060a01b038116875260408201958652828060a01b03168c52600460205260408c2090828060a01b039051166001600160601b0360a01b8254161781550193878060a01b039051169184549351151560a01b1692161717905562001a2b838060a01b0382511662003043565b828060a01b0360a082015116908115158062001a7f575b62001a51575b5050016200109f565b838060a01b039051168652600760205260408620906001600160601b0360a01b825416179055388062001a48565b50838060a01b03815116151562001a42565b506020820151604083015160018060a01b03875416906040519283611a2c8101106001600160401b03611a2c8601111762001b3f5783929162001aed62001b0492611a2c6200426487396080611a2c8701818152019062002d92565b90611a2c850182036020611a2c8701015262002d92565b90306040611a2c850101526060611a2c84010152039086f091821562001b3457916001600160a01b031662001902565b6040513d87823e3d90fd5b634e487b7160e01b89526041600452602489fd5b604051636bb9e87d60e01b8152600490fd5b8580fd5b634e487b7160e01b85526011600452602485fd5b604051630554f0a760e41b8152600490fd5b8380fd5b5034620001d35780600319360112620001d3576008546040516001600160a01b039091168152602090f35b5034620001d3576020366003190112620001d35760043562001bdf6200332c565b612710811162001bef5760035580f35b60405163cd4e616760e01b8152600490fd5b5034620001d35780600319360112620001d35760405160408101908082106001600160401b0383111762000ec05762001c5e9160405260058152640352e302e360dc1b602082015260405191829160208352602083019062002d92565b0390f35b5034620001d3576020366003190112620001d35762001c8062002bc0565b62001c8a6200332c565b6001600160a01b0316801562001cb0576001600160601b0360a01b600254161760025580f35b60405163bb0bac9960e01b8152600490fd5b5034620001d35780600319360112620001d3576020600354604051908152f35b5034620001d35780600319360112620001d35760008051602062005c90833981519152546040516001600160a01b039091168152602090f35b5034620001d35780600319360112620001d3576001546040516001600160a01b039091168152602090f35b5034620001d3576020366003190112620001d3576020906040906001600160a01b0362001d7262002bc0565b168152600583522054604051908152f35b5034620001d35780600319360112620001d35762001da06200332c565b60008051602062005c9083398151915280546001600160a01b031981169091556000906001600160a01b03167f8be0079c531659141344cd1fd0a4f28419497f9722a3daafe3b4186f6b6457e08280a380f35b5034620001d3576040366003190112620001d35762001e1162002bc0565b62001e1b62002bd7565b9062001e266200332c565b6001600160a01b03908116835260076020526040832080546001600160a01b0319169290911691909117905580f35b5034620001d3576020366003190112620001d35762001e7362002bc0565b62001e7d6200332c565b60018060a01b03166001600160601b0360a01b600154161760015580f35b506200060062001eab3662002d2b565b9162001eb6620032e5565b62003375565b5034620001d35780600319360112620001d3577f00000000000000000000000000000000000000000000000000000000000000006001600160a01b0316300362001f2a5760206040517f360894a13ba1a3210667c828492db98dca3e2076cc3735a920a3ca505d382bbc8152f35b60405163703e46dd60e11b8152600490fd5b506040366003190112620001d35762001f5462002bc0565b6024356001600160401b038111620007215762001f7690369060040162002cc9565b6001600160a01b037f0000000000000000000000000000000000000000000000000000000000000000811630811490811562002122575b5062001f2a5762001fbd6200332c565b8216916040516352d1902d60e01b8152602081600481875afa859181620020e8575b5062001ffe57604051634c9c8ce360e01b815260048101859052602490fd5b9284937f360894a13ba1a3210667c828492db98dca3e2076cc3735a920a3ca505d382bbc90818103620020d05750823b15620020b75780546001600160a01b0319168217905560405184917fbc7cd75a20ee27fd9adebab32041f755214dbc6bffa90cc0225b39da2e5c2d3b8380a28351156200209a5750808360206200209695519101845af46200208f62002fde565b9162004168565b5080f35b9250505034620020a8575080f35b63b398979f60e01b8152600490fd5b604051634c9c8ce360e01b815260048101839052602490fd5b60249060405190632a87526960e21b82526004820152fd5b9091506020813d60201162002119575b81620021076020938362002c4f565b8101031262001b655751903862001fdf565b3d9150620020f8565b9050817f360894a13ba1a3210667c828492db98dca3e2076cc3735a920a3ca505d382bbc541614153862001fad565b5034620001d3576040366003190112620001d3576200216f62002bc0565b6200217962002bd7565b7ff0c57e16840df040f15088dc2f81fe391c3923bec73e23a9662efc9c229c6a009182549160ff8360401c1615926001600160401b0381168015908162002302575b6001149081620022f7575b159081620022ed575b50620022db5767ffffffffffffffff198116600117855583620022bb575b50620021f86200405d565b620022026200405d565b6200220d3362003f5a565b620022176200405d565b620022216200405d565b6200222b6200405d565b600160008051602062005cb08339815191525560018060a01b0390816001600160601b0360a01b931683875416178655338360025416176002556001600355169060085416176008556200227d575080f35b68ff00000000000000001981541690557fc7f505b2f371ae2175ee4913f4499e1f2633a7b5936321eed1cdaeb6115181d2602060405160018152a180f35b68ffffffffffffffffff19166801000000000000000117845538620021ed565b60405163f92ee8a960e01b8152600490fd5b90501538620021cf565b303b159150620021c6565b859150620021bb565b5034620001d3576020366003190112620001d3576060906001600160a01b039060ff90604090836200233c62002bc0565b16815260046020522091600181845416930154906040519384528116602084015260a01c1615156040820152f35b5034620001d3576060366003190112620001d3576200238862002bc0565b6200239262002bd7565b90604435801515809103620024a257620023ab6200332c565b6001600160a01b038281168086526004602052604086206001015490929190811662001b535762000238948691600160405195620023e98762002c03565b80875282602088019416968785528383816040808501998b8b52868152600460205220935116926001600160601b0360a01b93848254161781550195511694805496511515966affffffffffffffffffffff60a81b968760ff60a01b809a60a01b1692161717905560405191620024608362002c03565b82526020820197808952604083019788528b5260046020528360408c2092511690825416178155019451169184549351151560a01b1692161717905562003043565b600080fd5b5034620001d3576020366003190112620001d357600435906001600160401b038211620001d3576020620024e3620004d7366004860162002cc9565b6040516001600160a01b039091168152f35b50610100366003190112620001d3576001600160401b0360043581811162000721576200252790369060040162002cc9565b6200253162002bd7565b906044356001600160a01b038116900362001b8f57836064356001600160a01b0381168103620002ac57608435926001600160a01b0384168403620007215760a4356001600160a01b0381169003620007215760c43595861515870362001b8f5760e435116200072157909493620025c5620025b33660e43560040162002cf8565b620025bd620032e5565b369162002dec565b9483955b8051871015620029c557620025df878262003317565b51956020870151151580620029b6575b80620029a2575b15620028e05760018060a01b03875116602088015160408901519060ff60608b0151169260808b015160a08c015190823b1562000ed65760e4928c9594928692604051988997889663d505accf60e01b885233600489015230602489015260448801526064870152608486015260a485015260c48401525af18015620028d557620028c3575b508598865b60c089015180518210156200289757816200269c9162003317565b51602081015180620026b4575b505060010162002681565b8a906060839e949e015115158062002884575b1562002769575050895181516020830151916001600160a01b039081169116813b1562000ed657604051632770a7eb60e21b81526001600160a01b0391909116600482015260248101929092528a908290604490829084905af180156200275e576200274392600194926020926200274c57500151906200327b565b9a908c620026a9565b620027579062002c1f565b8f62001275565b6040513d8c823e3d90fd5b608083015115158062002871575b1562002802575050895181516020830151916001600160a01b039081169116813b1562000ed6576040516340c10f1960e01b81526001600160a01b0391909116600482015260248101929092528a908290604490829084905af180156200275e57620027439260019492602092620027f0575062001277565b620027fb9062002c1f565b8f6200131b565b826001949260209260406200274396015115158062002860575b156200284057506200131d90868060a01b0390511683830151903090339062003fd0565b6200131d91878060a01b03905116878060a01b0384511690339062003fd0565b50868060a01b03825116156200281c565b5081516001600160a01b03161562002777565b5081516001600160a01b031615620026c7565b50509391966020909991969998959398015103620006d957600188945b019691935091969394620025c9565b620028ce9062002c1f565b896200267c565b6040513d89823e3d90fd5b949793929196909560018060a01b038151161562002907575b5090600188949392620028b4565b9796929490959193875b60c08a015180518210156200298c576200292d828b9262003317565b51602081015190811515806200297f575b62002950575b50505060010162002911565b51829182918291906001600160a01b0316617530f16200296f62002fde565b50156200065157888b8062002944565b506040810151156200293e565b50979850929650909490939192906001620028f9565b5086516001600160a01b03161515620025f6565b506040870151421115620025ef565b5060008051602062005c908339815191525493969495508694936001600160a01b031633148062002b34575b62002ada575b3462002ab7575b84546001600160a01b031692833b1562001b655762002a3f9286926040519889978896879563151cdb2f60e11b875260e0600488015260e487019062002d92565b6001600160a01b039485166024870152604480358616908701529084166064860152908316608485015260a4803590931692840192909252151560c483015203925af18015620017c85762002aa55750600160008051602062005cb08339815191525580f35b62002ab09062002c1f565b81620016e7565b938080803460a4355af162002acb62002fde565b501562000651578593620029fe565b935062002ae66200332c565b6044356001600160a01b0316156200023b57600280546001600160a01b0319166044356001600160a01b0316179055859362002b216200332c565b62002b2e60443562003f5a565b620029f7565b506044356001600160a01b03161515620029f1565b8234620001d3576020366003190112620001d3576001600160a01b03906001906040908362002b7762002bc0565b16815260046020522062002b8b8462002c03565b82815416845201549181831690604060ff602083019584875260a01c16151591015215620008db576020915116604051908152f35b600435906001600160a01b0382168203620024a257565b602435906001600160a01b0382168203620024a257565b35906001600160a01b0382168203620024a257565b606081019081106001600160401b0382111762000ec057604052565b6001600160401b03811162000ec057604052565b60a081019081106001600160401b0382111762000ec057604052565b90601f801991011681019081106001600160401b0382111762000ec057604052565b6001600160401b03811162000ec057601f01601f191660200190565b92919262002c9b8262002c71565b9162002cab604051938462002c4f565b829481845281830111620024a2578281602093846000960137010152565b9080601f83011215620024a25781602062002ce79335910162002c8d565b90565b35908115158203620024a257565b9181601f84011215620024a2578235916001600160401b038311620024a2576020808501948460051b010111620024a257565b60031991606082840112620024a2576004356001600160a01b0381168103620024a257926024356001600160401b0391828211620024a2576101409182828288030112620024a25760040194604435938411620024a2578390030112620024a25760040190565b919082519283825260005b84811062002dbf575050826000602080949584010152601f8019910116010190565b60208183018101518483018201520162002d9d565b6001600160401b03811162000ec05760051b60200190565b9092919262002dfb8162002dd4565b9060409062002e0d8251938462002c4f565b829581845260208094019160051b850192818411620024a25785925b84841062002e3a5750505050505050565b6001600160401b038435818111620024a25788019060e0918281870312620024a25784519283018381108382111762002fc957855262002e7a8162002bee565b83528881013589840152848101358584015260608082013560ff81168103620024a25781850152608092838301358486015260a091828401358387015260c0938481013590838211620024a257019189601f84011215620024a2578c9583359262002ee58462002dd4565b9762002ef48c51998a62002c4f565b84895286818a019502860101948c8611620024a257918f99979593918a8e9c9a98969401935b85851062002f3b575050505050505084955082015281520193019262002e29565b919386989a9c8197929496989a9c500312620024a2578f8c5191888301928084108785111762002fc9578e8a94815262002f758962002bee565b8252838901358483015262002f8c818a0162002cea565b9082015262002f9d85890162002cea565b8582015262002fae86890162002cea565b868201528152019401918f99979593918d9b99979562002f1a565b60246000634e487b7160e01b81526041600452fd5b3d156200300e573d9062002ff28262002c71565b9162003002604051938462002c4f565b82523d6000602084013e565b606090565b6040815103620030315780516020909101206001600160a01b031690565b60405163145a1fdd60e31b8152600490fd5b6006546801000000000000000081101562000ec0576001810180600655811015620030ae5760066000527ff652222313e28459528d920b65115c16c04f3efc82aaedc97be59f3f377c0d3f0180546001600160a01b0319166001600160a01b03909216919091179055565b634e487b7160e01b600052603260045260246000fd5b903590601e1981360301821215620024a257018035906001600160401b038211620024a257602001918136038313620024a257565b9035601e1982360301811215620024a25701602081359101916001600160401b038211620024a2578136038313620024a257565b908060209392818452848401376000828201840152601f01601f1916010190565b91909493929460609082606085016060865252608092608085019360808260051b8701019483946000946000955b858710620031a2575050505050505050906040919460018060a01b031660208201520152565b9091929394959697607f198a8203018552883560be19843603018112156200072157600191620032109160c0916001600160a01b0391870182620031e68262002bee565b1682526200322e60209586956200320087850185620030f9565b909180898801528601916200312d565b60406200322081850185620030f9565b91868403908701526200312d565b926200323c8a830162002cea565b15158a84015280620032508d840162002bee565b168c8401526200326460a080930162002bee565b169101529a0195019701959493969291906200317c565b919082018092116200328957565b634e487b7160e01b600052601160045260246000fd5b356001600160a01b0381168103620024a25790565b51906001600160a01b0382168203620024a257565b51908115158203620024a257565b919082039182116200328957565b60008051602062005cb08339815191526002815414620033055760029055565b604051633ee5aeb560e01b8152600490fd5b8051821015620030ae5760209160051b010190565b60008051602062005c90833981519152546001600160a01b031633036200334f57565b60405163118cdaa760e01b8152336004820152602490fd5b358015158103620024a25790565b9091600093610120840135601e198536030181121562001b655784018035906001600160401b03821162003a66576020018160051b3603811362003a6657620033c5919693959296369162002dec565b9482945b8651861015620037b457620033df868862003317565b51926020840151151580620037a5575b8062003791575b15620036d95760018060a01b03845116602085015160408601519060ff60608801511692608088015160a089015190823b15620035665760e4928b9594928692604051988997889663d505accf60e01b885233600489015230602489015260448801526064870152608486015260a485015260c48401525af1801562000cd257620036c7575b508497855b60c08601518051821015620036a357816200349c9162003317565b51602081015180620034b4575b505060010162003481565b6060829c939c01511515806200368c575b156200356a5750865181516020830151916001600160a01b039081169116813b156200356657604051632770a7eb60e21b81526001600160a01b03919091166004820152602481019290925289908290604490829084905af180156200355b576200354092600194926020926200354957500151906200327b565b999038620034a9565b620035549062002c1f565b3862001275565b6040513d8b823e3d90fd5b8a80fd5b608082015115158062003675575b15620036025750865181516020830151916001600160a01b039081169116813b1562003566576040516340c10f1960e01b81526001600160a01b03919091166004820152602481019290925289908290604490829084905af180156200355b57620035409260019492602092620035f0575062001277565b620035fb9062002c1f565b386200131b565b916020826001946040620035409501511515806200365e575b156200363e57506200131d858060a01b038b511683830151903090339062003fd0565b6200131d90868060a01b038c5116878060a01b0384511690339062003fd0565b508a5160a087901b8790038e81169116146200361b565b5087516001600160a01b038b811691161462003578565b5087516001600160a01b038b8116911614620034c5565b5050949790969192936020015103620006d9576001905b01949190959295620033c9565b620036d29062002c1f565b386200347c565b9590919260018060a09996991b03908181511615620036fe575b5050600190620036ba565b9796919460c0889792979901985b895180518210156200377e5762003725828b9262003317565b51896020820151918215158062003771575b6200374a575b505050506001016200370c565b8392839283925116617530f16200376062002fde565b50156200065157883889816200373d565b5060408101511562003737565b50979850919650945092600138620036f3565b5083516001600160a01b03161515620033f6565b506040840151421115620033ef565b94509450909150620037ca6040820182620030c4565b620037db606084969396016200329f565b91620037ea608085016200329f565b90620037f960a086016200329f565b936200381660e06200380e60c089016200329f565b970162003367565b93620038266040840184620030c4565b939099606082019a620038398c6200329f565b6200387b6200384b608086016200329f565b92620015b96200385e60a088016200329f565b95620015b960e06200387360c08b016200329f565b990162003367565b8c546001600160a01b03169990620038939062003013565b908a3b1562000ebc57918d9b9a9998969492918c989694926040519e8f9d8e9c8d9b632e91b77d60e01b8d5260048d0161018090526101848d01620038d89162002d92565b6001600160a01b039b8c1660248e0152908b1660448d0152908a1660648c015290891660848b015290151560a48a015290871660c489015290861660e48801529085166101048701529084166101248601529216610144840152151561016483015203925af18015620017c85762003a54575b5060008051602062005c90833981519152549091906001600160a01b031633148062003a37575b620039e8575b33825260056020526040822080549060028201809211620039d457558180620039ca575b620039a5575050565b8180620039b381936200329f565b34905af1620039c162002fde565b50156200065157565b503415156200399c565b634e487b7160e01b84526011600452602484fd5b620039f3816200329f565b620039fd6200332c565b6001600160a01b0381169081156200023b5762003a31916001600160601b0360a01b6002541617600255620002326200332c565b62003978565b506001600160a01b0362003a4b826200329f565b16151562003972565b62003a5f9062002c1f565b386200394b565b8680fd5b62003ab1929162003aa7917f19457468657265756d205369676e6564204d6573736167653a0a333200000000600052601c52603c6000206200409f565b90939193620040de565b6001600160a01b0391821691161490565b818102929181159184041417156200328957565b811562003ae1570490565b634e487b7160e01b600052601260045260246000fd5b519069ffffffffffffffffffff82168203620024a257565b908160a0910312620024a25762003b268162003af7565b9160208201519160408101519162002ce760806060840151930162003af7565b90816020910312620024a2575160ff81168103620024a25790565b60ff16604d81116200328957600a0a90565b9062003b86612710916003549062003ac2565b0460018060a01b0380921660009080825260209060078252604090858285205416908162003bb8575050505050905090565b60a0939496835194858094633fabe5a360e21b825260049586915afa94851562003e1f57889562003de2575b508785131562003dd257818852600786528388205416948351958187858163313ce56760e01b948582525afa96871562003dc857899762003da2575b5081908486518095819382525afa93841562003d995750879362003d63575b505060ff683635c9adc5dea0000092166012810362003c90575b505062003c769062003c6f62003c7c9462003b61565b9062003ac2565b62003ad6565b91508181111562003c8b575090565b905090565b929392601281111562003d03576011190160ff811162003cf05762003cb59062003b61565b8083029283040362003cdd575062003c7c929162003c6f62003c76925b925081945062003c59565b634e487b7160e01b865260119052602485fd5b634e487b7160e01b875260118252602487fd5b60129291920360ff811162003d505762003d1d9062003b61565b91821562003d3d57509162003c6f62003c769262003c7c95940462003cd2565b634e487b7160e01b875260129052602486fd5b634e487b7160e01b875260118352602487fd5b62003d88929350803d1062003d91575b62003d7f818362002c4f565b81019062003b46565b90388062003c3f565b503d62003d73565b513d89823e3d90fd5b8291975062003dc090823d841162003d915762003d7f818362002c4f565b969062003c20565b85513d8b823e3d90fd5b83516352cc3f7d60e01b81528390fd5b62003e0a91955060a03d60a01162003e17575b62003e01818362002c4f565b81019062003b0f565b5050509050933862003be4565b503d62003df5565b84513d8a823e3d90fd5b62003e3b612710916003549062003ac2565b600854919004906001600160a01b03168062003e55575090565b604051633fabe5a360e21b81529060a082600481845afa91821562003f115760009262003f2f575b50600082131562003f1d5760206004916040519283809263313ce56760e01b82525afa801562003f115762003ebc9160009162003eed575b5062003b61565b90683635c9adc5dea000009180830292830403620032895762003edf9162003ad6565b908181111562003c8b575090565b62003f0a915060203d60201162003d915762003d7f818362002c4f565b3862003eb5565b6040513d6000823e3d90fd5b6040516352cc3f7d60e01b8152600490fd5b62003f4d91925060a03d60a01162003e175762003e01818362002c4f565b5050509050903862003e7d565b6001600160a01b0390811690811562003fb75760008051602062005c9083398151915280546001600160a01b031981168417909155167f8be0079c531659141344cd1fd0a4f28419497f9722a3daafe3b4186f6b6457e0600080a3565b604051631e4fbdf760e01b815260006004820152602490fd5b9260209160009160405190848201926323b872dd60e01b845260018060a01b0396878092166024850152166044830152606482015260648152620040148162002c33565b519082865af11562003f11576000513d6200405357508082163b155b62004039575050565b604051635274afe760e01b81529116600482015260249150fd5b6001141562004030565b60ff7ff0c57e16840df040f15088dc2f81fe391c3923bec73e23a9662efc9c229c6a005460401c16156200408d57565b604051631afcd79f60e31b8152600490fd5b8151919060418303620040d357620040cc92506020820151906060604084015193015160001a90620041d0565b9192909190565b505060009160029190565b6004811015620041525780620040f2575050565b600181036200410d5760405163f645eedf60e01b8152600490fd5b600281036200412f5760405163fce698f760e01b815260048101839052602490fd5b6003146200413a5750565b602490604051906335e2f38360e21b82526004820152fd5b634e487b7160e01b600052602160045260246000fd5b906200419157508051156200417f57805190602001fd5b60405163d6bda27560e01b8152600490fd5b81511580620041c6575b620041a4575090565b604051639996b31560e01b81526001600160a01b039091166004820152602490fd5b50803b156200419b565b91907f7fffffffffffffffffffffffffffffff5d576e7357a4501ddfe92f46681b20a084116200425757926020929160ff608095604051948552168484015260408301526060820152600092839182805260015afa156200424b5780516001600160a01b038116156200424257918190565b50809160019190565b604051903d90823e3d90fd5b5050506000916003919056fe610160604081815234620004775762001a2c80380380916200002282866200047c565b8439820191608081840312620004775780516001600160401b03929083811162000477578462000054918401620004c5565b916020948582015190858211620004775762000072918301620004c5565b946200008e60606200008685850162000520565b930162000520565b90835190848201828110888211176200037657855260019485835281830195603160f81b87528751898111620003765760038054918383811c931680156200046c575b868410146200045657601f928381116200040b575b50808684821160011462000398576000916200038c575b5060001982841b1c191690841b1781555b8b51918b8311620003765760049c8d548581811c911680156200036b575b8882101462000356578e8382116200030b575b50508d87928511600114620002a0575093839491849260009562000294575b50501b92600019911b1c19161789555b620001798762000535565b956101209687526200018b84620006da565b97610140988952838151910120938460e0525190209861010099808b524660a0528251938401947f8b73c3c69bb8fe3d512ecc4cf759cc79239f7b179b0ffacaa9a75d522b39400f86528385015260608401524660808401523060a084015260a0835260c0830198838a10908a11176200027f57508790525190206080523060c052600880546001600160a01b039384166001600160a01b031991821617909155600980549290931691161790556111fa938462000832853960805184610c88015260a05184610d54015260c05184610c52015260e05184610cd701525183610cfd0152518261051a015251816105440152f35b604190634e487b7160e01b6000525260246000fd5b0151935038806200015e565b929190601f1985169360005284886000209460005b8a89838310620002f35750505010620002d8575b50505050811b0189556200016e565b01519060f884600019921b161c1916905538808080620002c9565b868601518955909701969485019488935001620002b5565b600052876000208380870160051c8201928a88106200034c575b0160051c019086905b8281106200033f5750508e6200013f565b600081550186906200032e565b9250819262000325565b60228f634e487b7160e01b6000525260246000fd5b90607f16906200012c565b634e487b7160e01b600052604160045260246000fd5b90508b015138620000fd565b8592508c90601f1983168560005289600020928a6000915b838310620003e9575050508311620003d0575b5050811b0181556200010e565b8d015160001983861b60f8161c191690553880620003c3565b948482949597989293960151815501940192019087949392918f8b90620003b0565b82600052866000208480840160051c8201928985106200044c575b0160051c019085905b8281106200043f575050620000e6565b600081550185906200042f565b9250819262000426565b634e487b7160e01b600052602260045260246000fd5b92607f1692620000d1565b600080fd5b601f909101601f19168101906001600160401b038211908210176200037657604052565b60005b838110620004b45750506000910152565b8181015183820152602001620004a3565b81601f82011215620004775780516001600160401b038111620003765760405192620004fc601f8301601f1916602001856200047c565b8184526020828401011162000477576200051d9160208085019101620004a0565b90565b51906001600160a01b03821682036200047757565b80516020919082811015620005b5575090601f8251116200057357808251920151908083106200056457501790565b82600019910360031b1b161790565b604490620005a79260405193849263305a27a960e01b845280600485015282519283918260248701528686019101620004a0565b601f01601f19168101030190fd5b6001600160401b03811162000376576005928354926001938481811c91168015620006cf575b838210146200045657601f811162000698575b5081601f84116001146200062e575092829391839260009462000622575b50501b916000199060031b1c191617905560ff90565b0151925038806200060c565b919083601f1981168760005284600020946000905b888383106200067d575050501062000663575b505050811b01905560ff90565b015160001960f88460031b161c1916905538808062000656565b85870151885590960195948501948793509081019062000643565b8560005284601f846000209201871c820191601f8601881c015b828110620006c2575050620005ee565b60008155018590620006b2565b90607f1690620005db565b805160209081811015620007075750601f8251116200057357808251920151908083106200056457501790565b906001600160401b0382116200037657600654926001938481811c9116801562000826575b838210146200045657601f8111620007ec575b5081601f841160011462000780575092829391839260009462000774575b50501b916000199060031b1c19161760065560ff90565b0151925038806200075d565b919083601f198116600660005284600020946000905b88838310620007d15750505010620007b7575b505050811b0160065560ff90565b015160001960f88460031b161c19169055388080620007a9565b85870151885590960195948501948793509081019062000796565b600660005284601f84600020920160051c820191601f860160051c015b828110620008195750506200073f565b6000815501859062000809565b90607f16906200072c56fe608060408181526004918236101561001657600080fd5b600092833560e01c91826306fdde03146108d757508163095ea7b3146108ad57816318160ddd1461088e57816323b872dd14610789578163313ce5671461076d5781633644e5151461074957816340c10f191461069157816370a082311461065a5781637ecebe001461062257816384b0196e1461050257816395d89b411461040e5781639dc29fac14610329578163a9059cbb146102e4578163b5057a7b146102bb578163d505accf1461015357508063dd62ed3e1461010b5763e78cea92146100e057600080fd5b3461010757816003193601126101075760085490516001600160a01b039091168152602090f35b5080fd5b5034610107578060031936011261010757806020926101286109ef565b610130610a0a565b6001600160a01b0391821683526001865283832091168252845220549051908152f35b839150346101075760e03660031901126101075761016f6109ef565b610177610a0a565b906044359260643560843560ff811681036102b7578142116102a05760018060a01b0390818516928389526007602052898920908154916001830190558a519060208201927f6e71edae12b1b97f4d1f60370fef10105fa2faae0126114a169c64845d6126c98452868d840152858a1660608401528a608084015260a083015260c082015260c0815260e0810181811067ffffffffffffffff82111761028d578b5251902061025b916102529161022c610c4f565b908c519161190160f01b83526002830152602282015260c43591604260a43592206110af565b9092919261113f565b16818103610272578661026f878787610d7a565b80f35b87516325c0072360e11b815292830152602482015260449150fd5b634e487b7160e01b8b526041875260248bfd5b875163313c898160e11b8152808401839052602490fd5b8680fd5b50503461010757816003193601126101075760095490516001600160a01b039091168152602090f35b5050346101075780600319360112610107576102fe6109ef565b916103098333610acf565b15610326575061031f6020926024359033610e0d565b5160018152f35b80fd5b839150346101075782600319360112610107576103446109ef565b6008549091602435916001600160a01b03908116330361040a5783169283156103f3578385528460205285852054918383106103bf5750508184957fddf252ad1be2c89b69c2b068fc378daa952ba7f163c4a11628f55a4df523b3ef936020938688528785520381872055816002540360025551908152a380f35b865163391434e360e21b81526001600160a01b03909216908201908152602081018390526040810184905281906060010390fd5b8551634b637e8f60e11b8152808301869052602490fd5b8480fd5b919050346104fe57826003193601126104fe57805183819490845461043281610a20565b91828552602096600192886001821691826000146104d4575050600114610479575b858861047589610466848a0385610a8c565b519282849384528301906109af565b0390f35b815286935091907f8a35acfbc15ff81a39ae7d344fd709f28e8600b4aa8c65c6b64bfe7fe36bd19b5b8284106104bc575050508201018161046661047538610454565b8054848a0186015288955087949093019281016104a2565b60ff19168882015294151560051b8701909401945085935061046692506104759150389050610454565b8280fd5b919050346104fe57826003193601126104fe5761053e7f0000000000000000000000000000000000000000000000000000000000000000610eeb565b926105687f0000000000000000000000000000000000000000000000000000000000000000610fef565b90825192602092602085019585871067ffffffffffffffff88111761060f57509260206105c58388966105b8998b9996528686528151998a99600f60f81b8b5260e0868c015260e08b01906109af565b91898303908a01526109af565b924660608801523060808801528460a088015286840360c088015251928381520193925b8281106105f857505050500390f35b8351855286955093810193928101926001016105e9565b634e487b7160e01b845260419052602483fd5b5050346101075760203660031901126101075760209181906001600160a01b0361064a6109ef565b1681526007845220549051908152f35b5050346101075760203660031901126101075760209181906001600160a01b036106826109ef565b16815280845220549051908152f35b919050346104fe57806003193601126104fe576106ac6109ef565b60085460243592916001600160a01b0391821633036107455716928315610730576002549083820180921161071d575084927fddf252ad1be2c89b69c2b068fc378daa952ba7f163c4a11628f55a4df523b3ef9260209260025585855284835280852082815401905551908152a380f35b634e487b7160e01b865260119052602485fd5b84602492519163ec442f0560e01b8352820152fd5b8580fd5b505034610107578160031936011261010757602090610766610c4f565b9051908152f35b5050346101075781600319360112610107576020905160128152f35b90508234610326576060366003190112610326576107a56109ef565b6107ad610a0a565b91604435936107bc8484610acf565b15610107576001600160a01b038316808352600160209081528784203385529052868320549160001983106107fa575b60208861031f898989610e0d565b86831061086257811561084b5733156108345750825260016020908152868320338452815291869020908590039055829061031f876107ec565b8751634a1406b160e11b8152908101849052602490fd5b875163e602df0560e01b8152908101849052602490fd5b8751637dc7a0d960e11b8152339181019182526020820193909352604081018790528291506060010390fd5b5050346101075781600319360112610107576020906002549051908152f35b50503461010757806003193601126101075760209061031f6108cd6109ef565b6024359033610d7a565b84843461010757816003193601126101075782826003546108f781610a20565b908184526020956001918760018216918260001461098857505060011461092c575b5050506104759291610466910385610a8c565b9190869350600383527fc2575a0e9e593c00f959f8c92f12db2869c3395a3b0502d05e2516446f71f85b5b8284106109705750505082010181610466610475610919565b8054848a018601528895508794909301928101610957565b60ff19168782015293151560051b8601909301935084925061046691506104759050610919565b919082519283825260005b8481106109db575050826000602080949584010152601f8019910116010190565b6020818301810151848301820152016109ba565b600435906001600160a01b0382168203610a0557565b600080fd5b602435906001600160a01b0382168203610a0557565b90600182811c92168015610a50575b6020831014610a3a57565b634e487b7160e01b600052602260045260246000fd5b91607f1691610a2f565b6040810190811067ffffffffffffffff821117610a7657604052565b634e487b7160e01b600052604160045260246000fd5b90601f8019910116810190811067ffffffffffffffff821117610a7657604052565b51906001600160a01b0382168203610a0557565b51908115158203610a0557565b600954604080516324b9c44160e21b81526001600160a01b0393841660048201819052939290916101209182908490602490829088165afa918215610c44576000938493610b4b575b505050610b285750505050600090565b602001518116918214928315610b3f575b50505090565b16149050388080610b39565b818193959294503d8511610c3d575b610b648183610a8c565b810103928312610326576101008093126103265783519383850185811067ffffffffffffffff821117610c29578152610b9c83610aae565b8552610baa60208401610aae565b6020860152610bba818401610aae565b90850152610bca60608301610aae565b6060850152610bdb60808301610aae565b6080850152610bec60a08301610ac2565b60a0850152610bfd60c08301610ac2565b60c085015260e0820151906003821015610326575060e0840152610c219101610ac2565b388080610b18565b634e487b7160e01b83526041600452602483fd5b503d610b5a565b50513d6000823e3d90fd5b307f00000000000000000000000000000000000000000000000000000000000000006001600160a01b03161480610d51575b15610caa577f000000000000000000000000000000000000000000000000000000000000000090565b60405160208101907f8b73c3c69bb8fe3d512ecc4cf759cc79239f7b179b0ffacaa9a75d522b39400f82527f000000000000000000000000000000000000000000000000000000000000000060408201527f000000000000000000000000000000000000000000000000000000000000000060608201524660808201523060a082015260a0815260c0810181811067ffffffffffffffff821117610a765760405251902090565b507f00000000000000000000000000000000000000000000000000000000000000004614610c81565b6001600160a01b03908116918215610df45716918215610ddb5760207f8c5be1e5ebec7d5bd14f71427d1e84f3dd0314c0f7b2291e5b200ac8c7c3b925918360005260018252604060002085600052825280604060002055604051908152a3565b604051634a1406b160e11b815260006004820152602490fd5b60405163e602df0560e01b815260006004820152602490fd5b916001600160a01b03808416928315610ed25716928315610eb95760009083825281602052604082205490838210610e87575091604082827fddf252ad1be2c89b69c2b068fc378daa952ba7f163c4a11628f55a4df523b3ef958760209652828652038282205586815220818154019055604051908152a3565b60405163391434e360e21b81526001600160a01b03919091166004820152602481019190915260448101839052606490fd5b60405163ec442f0560e01b815260006004820152602490fd5b604051634b637e8f60e11b815260006004820152602490fd5b60ff8114610f295760ff811690601f8211610f175760405191610f0d83610a5a565b8252602082015290565b604051632cd44ac360e21b8152600490fd5b50604051600554816000610f3c83610a20565b80835292602090600190818116908115610fcb5750600114610f6a575b5050610f6792500382610a8c565b90565b91509260056000527f036b6384b5eca791c62761152d0c79bb0604c104a5fb6f4eb0703f3154bb3db0936000925b828410610fb35750610f679450505081016020013880610f59565b85548785018301529485019486945092810192610f98565b91505060209250610f6794915060ff191682840152151560051b8201013880610f59565b60ff81146110115760ff811690601f8211610f175760405191610f0d83610a5a565b5060405160065481600061102483610a20565b80835292602090600190818116908115610fcb575060011461104e575050610f6792500382610a8c565b91509260066000527ff652222313e28459528d920b65115c16c04f3efc82aaedc97be59f3f377c0d3f936000925b8284106110975750610f679450505081016020013880610f59565b8554878501830152948501948694509281019261107c565b91907f7fffffffffffffffffffffffffffffff5d576e7357a4501ddfe92f46681b20a0841161113357926020929160ff608095604051948552168484015260408301526060820152600092839182805260015afa156111275780516001600160a01b0381161561111e57918190565b50809160019190565b604051903d90823e3d90fd5b50505060009160039190565b60048110156111ae5780611151575050565b6001810361116b5760405163f645eedf60e01b8152600490fd5b6002810361118c5760405163fce698f760e01b815260048101839052602490fd5b6003146111965750565b602490604051906335e2f38360e21b82526004820152fd5b634e487b7160e01b600052602160045260246000fdfea264697066735822122059d74b869f50de5f6e6b1835b1e542232b94ad8309fc78b1c2d98093f5be3bf864736f6c634300081800339016d09d72d40fdae2fd8ceac6b6234c7706214fd39c1cd1e609a0528c1993009b779b17422d0df92223018b32b4d1fa46e071723d6817e2486d003becc55f00a2646970667358221220656e17ce467b68a6d2fc8eb8669411cef44fb9c08cbad665a38f957bde332d7264736f6c63430008180033",
  "linkReferences": {},
  "deployedLinkReferences": {}
}