{
  "_format": "hh-sol-artifact-1",
  "contractName": "Bridge",
  "sourceName": "contracts/Bridge.sol",
  "abi": [
    {
      "inputs": [
        {
          "internalType": "address",
          "name": "target",
          "type": "address"
        }
      ],
      "name": "AddressEmptyCode",
      "type": "error"
    },
    {
      "inputs": [],
      "name": "ECDSAInvalidSignature",
      "type": "error"
    },
    {
      "inputs": [
        {
          "internalType": "uint256",
          "name": "length",
          "type": "uint256"
        }
      ],
      "name": "ECDSAInvalidSignatureLength",
      "type": "error"
    },
    {
      "inputs": [
        {
          "internalType": "bytes32",
          "name": "s",
          "type": "bytes32"
        }
      ],
      "name": "ECDSAInvalidSignatureS",
      "type": "error"
    },
    {
      "inputs": [
        {
          "internalType": "address",
          "name": "implementation",
          "type": "address"
        }
      ],
      "name": "ERC1967InvalidImplementation",
      "type": "error"
    },
    {
      "inputs": [],
      "name": "ERC1967NonPayable",
      "type": "error"
    },
    {
      "inputs": [],
      "name": "FailedCall",
      "type": "error"
    },
    {
      "inputs": [],
      "name": "InvalidInitialization",
      "type": "error"
    },
    {
      "inputs": [],
      "name": "NotInitializing",
      "type": "error"
    },
    {
      "inputs": [
        {
          "internalType": "address",
          "name": "owner",
          "type": "address"
        }
      ],
      "name": "OwnableInvalidOwner",
      "type": "error"
    },
    {
      "inputs": [
        {
          "internalType": "address",
          "name": "account",
          "type": "address"
        }
      ],
      "name": "OwnableUnauthorizedAccount",
      "type": "error"
    },
    {
      "inputs": [],
      "name": "ReentrancyGuardReentrantCall",
      "type": "error"
    },
    {
      "inputs": [],
      "name": "UUPSUnauthorizedCallContext",
      "type": "error"
    },
    {
      "inputs": [
        {
          "internalType": "bytes32",
          "name": "slot",
          "type": "bytes32"
        }
      ],
      "name": "UUPSUnsupportedProxiableUUID",
      "type": "error"
    },
    {
      "anonymous": false,
      "inputs": [
        {
          "indexed": true,
          "internalType": "address",
          "name": "from",
          "type": "address"
        },
        {
          "indexed": true,
          "internalType": "address",
          "name": "to",
          "type": "address"
        },
        {
          "indexed": false,
          "internalType": "uint256",
          "name": "amount",
          "type": "uint256"
        }
      ],
      "name": "EthTransferred",
      "type": "event"
    },
    {
      "anonymous": false,
      "inputs": [
        {
          "indexed": true,
          "internalType": "address",
          "name": "token",
          "type": "address"
        },
        {
          "indexed": false,
          "internalType": "uint256",
          "name": "amount",
          "type": "uint256"
        }
      ],
      "name": "FeesCollected",
      "type": "event"
    },
    {
      "anonymous": false,
      "inputs": [
        {
          "indexed": false,
          "internalType": "uint64",
          "name": "version",
          "type": "uint64"
        }
      ],
      "name": "Initialized",
      "type": "event"
    },
    {
      "anonymous": false,
      "inputs": [
        {
          "indexed": true,
          "internalType": "address",
          "name": "previousOwner",
          "type": "address"
        },
        {
          "indexed": true,
          "internalType": "address",
          "name": "newOwner",
          "type": "address"
        }
      ],
      "name": "OwnershipTransferred",
      "type": "event"
    },
    {
      "anonymous": false,
      "inputs": [
        {
          "indexed": true,
          "internalType": "address",
          "name": "user",
          "type": "address"
        },
        {
          "indexed": true,
          "internalType": "address",
          "name": "originalToken",
          "type": "address"
        },
        {
          "indexed": false,
          "internalType": "uint256",
          "name": "amount",
          "type": "uint256"
        }
      ],
      "name": "TokensLocked",
      "type": "event"
    },
    {
      "anonymous": false,
      "inputs": [
        {
          "indexed": true,
          "internalType": "address",
          "name": "wrappedToken",
          "type": "address"
        },
        {
          "indexed": true,
          "internalType": "address",
          "name": "user",
          "type": "address"
        },
        {
          "indexed": false,
          "internalType": "uint256",
          "name": "amount",
          "type": "uint256"
        }
      ],
      "name": "TokensMinted",
      "type": "event"
    },
    {
      "anonymous": false,
      "inputs": [
        {
          "indexed": true,
          "internalType": "address",
          "name": "user",
          "type": "address"
        },
        {
          "indexed": false,
          "internalType": "address",
          "name": "wrappedToken",
          "type": "address"
        },
        {
          "indexed": false,
          "internalType": "uint256",
          "name": "amount",
          "type": "uint256"
        }
      ],
      "name": "TokensWrapped",
      "type": "event"
    },
    {
      "anonymous": false,
      "inputs": [
        {
          "indexed": true,
          "internalType": "address",
          "name": "originalToken",
          "type": "address"
        },
        {
          "indexed": false,
          "internalType": "address",
          "name": "targetAddress",
          "type": "address"
        },
        {
          "indexed": false,
          "internalType": "uint256",
          "name": "amount",
          "type": "uint256"
        },
        {
          "indexed": true,
          "internalType": "address",
          "name": "user",
          "type": "address"
        }
      ],
      "name": "UnwrapCrossChain",
      "type": "event"
    },
    {
      "anonymous": false,
      "inputs": [
        {
          "indexed": true,
          "internalType": "address",
          "name": "implementation",
          "type": "address"
        }
      ],
      "name": "Upgraded",
      "type": "event"
    },
    {
      "inputs": [],
      "name": "FEE_CAP_USD",
      "outputs": [
        {
          "internalType": "uint256",
          "name": "",
          "type": "uint256"
        }
      ],
      "stateMutability": "view",
      "type": "function"
    },
    {
      "inputs": [],
      "name": "FEE_DENOMINATOR",
      "outputs": [
        {
          "internalType": "uint256",
          "name": "",
          "type": "uint256"
        }
      ],
      "stateMutability": "view",
      "type": "function"
    },
    {
      "inputs": [],
      "name": "UPGRADE_INTERFACE_VERSION",
      "outputs": [
        {
          "internalType": "string",
          "name": "",
          "type": "string"
        }
      ],
      "stateMutability": "view",
      "type": "function"
    },
    {
      "inputs": [
        {
          "internalType": "address",
          "name": "originalToken",
          "type": "address"
        },
        {
          "internalType": "address",
          "name": "wrappedToken",
          "type": "address"
        },
        {
          "internalType": "bool",
          "name": "_isCrossChain",
          "type": "bool"
        }
      ],
      "name": "addTokenPair",
      "outputs": [],
      "stateMutability": "nonpayable",
      "type": "function"
    },
    {
      "inputs": [],
      "name": "feeCollector",
      "outputs": [
        {
          "internalType": "address",
          "name": "",
          "type": "address"
        }
      ],
      "stateMutability": "view",
      "type": "function"
    },
    {
      "inputs": [],
      "name": "feePercentage",
      "outputs": [
        {
          "internalType": "uint256",
          "name": "",
          "type": "uint256"
        }
      ],
      "stateMutability": "view",
      "type": "function"
    },
    {
      "inputs": [
        {
          "internalType": "bytes",
          "name": "publicKey",
          "type": "bytes"
        }
      ],
      "name": "getAddressFromPublicKey",
      "outputs": [
        {
          "internalType": "address",
          "name": "",
          "type": "address"
        }
      ],
      "stateMutability": "pure",
      "type": "function"
    },
    {
      "inputs": [
        {
          "internalType": "address",
          "name": "_keyLogRegistry",
          "type": "address"
        }
      ],
      "name": "initialize",
      "outputs": [],
      "stateMutability": "nonpayable",
      "type": "function"
    },
    {
      "inputs": [
        {
          "internalType": "address",
          "name": "",
          "type": "address"
        }
      ],
      "name": "isCrossChain",
      "outputs": [
        {
          "internalType": "bool",
          "name": "",
          "type": "bool"
        }
      ],
      "stateMutability": "view",
      "type": "function"
    },
    {
      "inputs": [],
      "name": "keyLogRegistry",
      "outputs": [
        {
          "internalType": "contract KeyLogRegistry",
          "name": "",
          "type": "address"
        }
      ],
      "stateMutability": "view",
      "type": "function"
    },
    {
      "inputs": [
        {
          "internalType": "address",
          "name": "",
          "type": "address"
        }
      ],
      "name": "nonces",
      "outputs": [
        {
          "internalType": "uint256",
          "name": "",
          "type": "uint256"
        }
      ],
      "stateMutability": "view",
      "type": "function"
    },
    {
      "inputs": [
        {
          "internalType": "address",
          "name": "",
          "type": "address"
        }
      ],
      "name": "originalToWrapped",
      "outputs": [
        {
          "internalType": "address",
          "name": "",
          "type": "address"
        }
      ],
      "stateMutability": "view",
      "type": "function"
    },
    {
      "inputs": [],
      "name": "owner",
      "outputs": [
        {
          "internalType": "address",
          "name": "",
          "type": "address"
        }
      ],
      "stateMutability": "view",
      "type": "function"
    },
    {
      "inputs": [
        {
          "internalType": "bytes32",
          "name": "",
          "type": "bytes32"
        }
      ],
      "name": "processedLocks",
      "outputs": [
        {
          "internalType": "bool",
          "name": "",
          "type": "bool"
        }
      ],
      "stateMutability": "view",
      "type": "function"
    },
    {
      "inputs": [],
      "name": "proxiableUUID",
      "outputs": [
        {
          "internalType": "bytes32",
          "name": "",
          "type": "bytes32"
        }
      ],
      "stateMutability": "view",
      "type": "function"
    },
    {
      "inputs": [],
      "name": "relayer",
      "outputs": [
        {
          "internalType": "address",
          "name": "",
          "type": "address"
        }
      ],
      "stateMutability": "view",
      "type": "function"
    },
    {
      "inputs": [],
      "name": "renounceOwnership",
      "outputs": [],
      "stateMutability": "nonpayable",
      "type": "function"
    },
    {
      "inputs": [
        {
          "internalType": "address",
          "name": "_feeCollector",
          "type": "address"
        }
      ],
      "name": "setFeeCollector",
      "outputs": [],
      "stateMutability": "nonpayable",
      "type": "function"
    },
    {
      "inputs": [
        {
          "internalType": "uint256",
          "name": "_feePercentage",
          "type": "uint256"
        }
      ],
      "name": "setFeePercentage",
      "outputs": [],
      "stateMutability": "nonpayable",
      "type": "function"
    },
    {
      "inputs": [
        {
          "internalType": "address",
          "name": "_relayer",
          "type": "address"
        }
      ],
      "name": "setRelayer",
      "outputs": [],
      "stateMutability": "nonpayable",
      "type": "function"
    },
    {
      "inputs": [
        {
          "internalType": "address",
          "name": "token",
          "type": "address"
        },
        {
          "internalType": "address",
          "name": "priceFeed",
          "type": "address"
        }
      ],
      "name": "setTokenPriceFeed",
      "outputs": [],
      "stateMutability": "nonpayable",
      "type": "function"
    },
    {
      "inputs": [
        {
          "internalType": "address",
          "name": "",
          "type": "address"
        }
      ],
      "name": "tokenPriceFeeds",
      "outputs": [
        {
          "internalType": "contract AggregatorV3Interface",
          "name": "",
          "type": "address"
        }
      ],
      "stateMutability": "view",
      "type": "function"
    },
    {
      "inputs": [
        {
          "internalType": "address",
          "name": "newOwner",
          "type": "address"
        }
      ],
      "name": "transferOwnership",
      "outputs": [],
      "stateMutability": "nonpayable",
      "type": "function"
    },
    {
      "inputs": [
        {
          "internalType": "address",
          "name": "wrappedToken",
          "type": "address"
        },
        {
          "components": [
            {
              "internalType": "uint256",
              "name": "amount",
              "type": "uint256"
            },
            {
              "internalType": "bytes",
              "name": "signature",
              "type": "bytes"
            },
            {
              "internalType": "bytes",
              "name": "publicKey",
              "type": "bytes"
            },
            {
              "internalType": "address",
              "name": "prerotatedKeyHash",
              "type": "address"
            },
            {
              "internalType": "address",
              "name": "twicePrerotatedKeyHash",
              "type": "address"
            },
            {
              "internalType": "address",
              "name": "prevPublicKeyHash",
              "type": "address"
            },
            {
              "internalType": "address",
              "name": "targetAddress",
              "type": "address"
            },
            {
              "internalType": "bool",
              "name": "hasRelationship",
              "type": "bool"
            },
            {
              "internalType": "uint256",
              "name": "permitDeadline",
              "type": "uint256"
            },
            {
              "internalType": "uint8",
              "name": "permitV",
              "type": "uint8"
            },
            {
              "internalType": "bytes32",
              "name": "permitR",
              "type": "bytes32"
            },
            {
              "internalType": "bytes32",
              "name": "permitS",
              "type": "bytes32"
            },
            {
              "internalType": "uint256",
              "name": "permitDeadlineOriginal",
              "type": "uint256"
            },
            {
              "internalType": "uint8",
              "name": "permitVOriginal",
              "type": "uint8"
            },
            {
              "internalType": "bytes32",
              "name": "permitROriginal",
              "type": "bytes32"
            },
            {
              "internalType": "bytes32",
              "name": "permitSOriginal",
              "type": "bytes32"
            }
          ],
          "internalType": "struct Bridge.UnwrapParams",
          "name": "unconfirmed",
          "type": "tuple"
        },
        {
          "components": [
            {
              "internalType": "uint256",
              "name": "amount",
              "type": "uint256"
            },
            {
              "internalType": "bytes",
              "name": "signature",
              "type": "bytes"
            },
            {
              "internalType": "bytes",
              "name": "publicKey",
              "type": "bytes"
            },
            {
              "internalType": "address",
              "name": "prerotatedKeyHash",
              "type": "address"
            },
            {
              "internalType": "address",
              "name": "twicePrerotatedKeyHash",
              "type": "address"
            },
            {
              "internalType": "address",
              "name": "prevPublicKeyHash",
              "type": "address"
            },
            {
              "internalType": "address",
              "name": "targetAddress",
              "type": "address"
            },
            {
              "internalType": "bool",
              "name": "hasRelationship",
              "type": "bool"
            },
            {
              "internalType": "uint256",
              "name": "permitDeadline",
              "type": "uint256"
            },
            {
              "internalType": "uint8",
              "name": "permitV",
              "type": "uint8"
            },
            {
              "internalType": "bytes32",
              "name": "permitR",
              "type": "bytes32"
            },
            {
              "internalType": "bytes32",
              "name": "permitS",
              "type": "bytes32"
            },
            {
              "internalType": "uint256",
              "name": "permitDeadlineOriginal",
              "type": "uint256"
            },
            {
              "internalType": "uint8",
              "name": "permitVOriginal",
              "type": "uint8"
            },
            {
              "internalType": "bytes32",
              "name": "permitROriginal",
              "type": "bytes32"
            },
            {
              "internalType": "bytes32",
              "name": "permitSOriginal",
              "type": "bytes32"
            }
          ],
          "internalType": "struct Bridge.UnwrapParams",
          "name": "confirming",
          "type": "tuple"
        }
      ],
      "name": "unwrapPairWithTransfer",
      "outputs": [],
      "stateMutability": "payable",
      "type": "function"
    },
    {
      "inputs": [
        {
          "internalType": "address",
          "name": "newImplementation",
          "type": "address"
        },
        {
          "internalType": "bytes",
          "name": "data",
          "type": "bytes"
        }
      ],
      "name": "upgradeToAndCall",
      "outputs": [],
      "stateMutability": "payable",
      "type": "function"
    },
    {
      "inputs": [
        {
          "internalType": "address",
          "name": "originalToken",
          "type": "address"
        },
        {
          "components": [
            {
              "internalType": "uint256",
              "name": "amount",
              "type": "uint256"
            },
            {
              "internalType": "bytes",
              "name": "signature",
              "type": "bytes"
            },
            {
              "internalType": "bytes",
              "name": "publicKey",
              "type": "bytes"
            },
            {
              "internalType": "address",
              "name": "prerotatedKeyHash",
              "type": "address"
            },
            {
              "internalType": "address",
              "name": "twicePrerotatedKeyHash",
              "type": "address"
            },
            {
              "internalType": "address",
              "name": "prevPublicKeyHash",
              "type": "address"
            },
            {
              "internalType": "address",
              "name": "outputAddress",
              "type": "address"
            },
            {
              "internalType": "bool",
              "name": "hasRelationship",
              "type": "bool"
            },
            {
              "internalType": "address",
              "name": "tokenSource",
              "type": "address"
            },
            {
              "internalType": "uint256",
              "name": "permitDeadline",
              "type": "uint256"
            },
            {
              "internalType": "uint8",
              "name": "permitV",
              "type": "uint8"
            },
            {
              "internalType": "bytes32",
              "name": "permitR",
              "type": "bytes32"
            },
            {
              "internalType": "bytes32",
              "name": "permitS",
              "type": "bytes32"
            },
            {
              "internalType": "uint256",
              "name": "permitDeadlineOriginal",
              "type": "uint256"
            },
            {
              "internalType": "uint8",
              "name": "permitVOriginal",
              "type": "uint8"
            },
            {
              "internalType": "bytes32",
              "name": "permitROriginal",
              "type": "bytes32"
            },
            {
              "internalType": "bytes32",
              "name": "permitSOriginal",
              "type": "bytes32"
            }
          ],
          "internalType": "struct Bridge.WrapParams",
          "name": "unconfirmed",
          "type": "tuple"
        },
        {
          "components": [
            {
              "internalType": "uint256",
              "name": "amount",
              "type": "uint256"
            },
            {
              "internalType": "bytes",
              "name": "signature",
              "type": "bytes"
            },
            {
              "internalType": "bytes",
              "name": "publicKey",
              "type": "bytes"
            },
            {
              "internalType": "address",
              "name": "prerotatedKeyHash",
              "type": "address"
            },
            {
              "internalType": "address",
              "name": "twicePrerotatedKeyHash",
              "type": "address"
            },
            {
              "internalType": "address",
              "name": "prevPublicKeyHash",
              "type": "address"
            },
            {
              "internalType": "address",
              "name": "outputAddress",
              "type": "address"
            },
            {
              "internalType": "bool",
              "name": "hasRelationship",
              "type": "bool"
            },
            {
              "internalType": "address",
              "name": "tokenSource",
              "type": "address"
            },
            {
              "internalType": "uint256",
              "name": "permitDeadline",
              "type": "uint256"
            },
            {
              "internalType": "uint8",
              "name": "permitV",
              "type": "uint8"
            },
            {
              "internalType": "bytes32",
              "name": "permitR",
              "type": "bytes32"
            },
            {
              "internalType": "bytes32",
              "name": "permitS",
              "type": "bytes32"
            },
            {
              "internalType": "uint256",
              "name": "permitDeadlineOriginal",
              "type": "uint256"
            },
            {
              "internalType": "uint8",
              "name": "permitVOriginal",
              "type": "uint8"
            },
            {
              "internalType": "bytes32",
              "name": "permitROriginal",
              "type": "bytes32"
            },
            {
              "internalType": "bytes32",
              "name": "permitSOriginal",
              "type": "bytes32"
            }
          ],
          "internalType": "struct Bridge.WrapParams",
          "name": "confirming",
          "type": "tuple"
        }
      ],
      "name": "wrapPairWithTransfer",
      "outputs": [],
      "stateMutability": "payable",
      "type": "function"
    },
    {
      "inputs": [
        {
          "internalType": "address",
          "name": "",
          "type": "address"
        }
      ],
      "name": "wrappedToOriginal",
      "outputs": [
        {
          "internalType": "address",
          "name": "",
          "type": "address"
        }
      ],
      "stateMutability": "view",
      "type": "function"
    }
  ],
  "bytecode": "0x60a0806040523461002a5730608052612900908161003082396080518181816111a6015261124f0152f35b600080fdfe610120604052600436101561001357600080fd5b600060c05260c0513560e01c806307afdc571461156f578063081da8c11461153257806309765f53146114ff578063276c1ac0146114b7578063334976c7146114195780634f1ef2861461121057806352d1902d146111925780636548e9bc1461114e578063674417ae146110f05780636f092dc314610729578063715018a6146106ba5780637c0db6101461067d5780637ecebe00146106415780638406c079146106175780638da5cb5b146105e0578063a001ecdd146105c1578063a42dce8014610539578063a8bc3e0a146104f8578063ad3cb1cc1461044a578063ae06c1b7146103e8578063b5057a7b146103bd578063bd9c47e314610380578063c415b95c14610356578063c4d66de8146101c4578063d73792a9146101a6578063f2fde38b146101775763f9baf7bf1461014c57600080fd5b346101715760c051366003190112610171576020604051683635c9adc5dea000008152f35b60c05180fd5b34610171576020366003190112610171576101a0610193611dab565b61019b61263c565b612278565b60c05180f35b346101715760c0513660031901126101715760206040516127108152f35b34610171576020366003190112610171576101dd611dab565b7ff0c57e16840df040f15088dc2f81fe391c3923bec73e23a9662efc9c229c6a009081549060ff8260401c16159167ffffffffffffffff81168015908161034e575b6001149081610344575b15908161033b575b506103295767ffffffffffffffff19811660011784558261030a575b50610256612736565b61025e612736565b61026733612278565b61026f612736565b610277612736565b61027f612736565b60016000805160206128ab833981519152556001600160601b0360a01b9060018060a01b03168160c05154161760c051553390600654161760065560016007556102c95760c05180f35b68ff00000000000000001981541690557fc7f505b2f371ae2175ee4913f4499e1f2633a7b5936321eed1cdaeb6115181d2602060405160018152a1806101a0565b68ffffffffffffffffff1916680100000000000000011783558361024d565b60405163f92ee8a960e01b8152600490fd5b90501585610231565b303b159150610229565b84915061021f565b346101715760c051366003190112610171576006546040516001600160a01b039091168152602090f35b346101715760203660031901126101715760206001600160a01b03806103a4611dab565b1660c0515260098252604060c051205416604051908152f35b346101715760c0513660031901126101715760c051546040516001600160a01b039091168152602090f35b346101715760203660031901126101715760043561040461263c565b61271081116104165760075560c05180f35b60405162461bcd60e51b815260206004820152600c60248201526b08ccaca40e8dede40d0d2ced60a31b6044820152606490fd5b346101715760c051366003190112610171576040516040810181811067ffffffffffffffff8211176104e25760405260058152602090640352e302e360dc1b602082015260405180926020825282519081602084015260c051935b8285106104c95750506040925060c051838284010152601f80199101168101030190f35b84810182015186860160400152938101938593506104a5565b634e487b7160e01b600052604160045260246000fd5b34610171576020366003190112610171576001600160a01b03610519611dab565b1660c051526004602052602060ff604060c0512054166040519015158152f35b3461017157602036600319011261017157610552611dab565b61055a61263c565b6001600160a01b03168015610584576001600160601b0360a01b600654161760065560c05160c051f35b60405162461bcd60e51b815260206004820152601560248201527424b73b30b634b2103332b29031b7b63632b1ba37b960591b6044820152606490fd5b346101715760c051366003190112610171576020600754604051908152f35b346101715760c0513660031901126101715760008051602061288b833981519152546040516001600160a01b039091168152602090f35b346101715760c051366003190112610171576001546040516001600160a01b039091168152602090f35b34610171576020366003190112610171576001600160a01b03610662611dab565b1660c0515260056020526020604060c0512054604051908152f35b346101715760203660031901126101715760206001600160a01b03806106a1611dab565b1660c0515260038252604060c051205416604051908152f35b346101715760c051366003190112610171576106d461263c565b60008051602061288b83398151915280546001600160a01b031981169091556000906001600160a01b03167f8be0079c531659141344cd1fd0a4f28419497f9722a3daafe3b4186f6b6457e08280a360c05180f35b6003196060368201126101715761073e611dab565b9067ffffffffffffffff9081602435116101715761020091828260243536030112610171576044351161017157604435360301126101715761077e6122ec565b60c080516001600160a01b03838116909152600360205290516040902054166107a8811515611e7e565b3360c051526005602052604060c0512054916107c860c460243501611eca565b6040516107f4816107e6876020830195602435600401358888611ede565b03601f198101835282611deb565b51902060008051602061286b83398151915260c05152601c5261085861084861083f603c60c051206108396108326024803501602435600401611f0b565b3691611e29565b90612675565b909291926126b1565b6001600160a01b03163314611f3e565b61086660c460443501611eca565b6001840184116110bf57604051610892816107e660208201946001890190604435600401358888611ede565b51902060008051602061286b83398151915260c05152601c526109146108d161083f603c60c05120610839610832602460443501604435600401611f0b565b6108fc6109016108ea6044803501604435600401611f0b565b6001600160a01b039391369190611e29565b612216565b6001600160a01b03909216911614611fad565b61092a6044356004013560243560040135611f8a565b9260018060a01b0360c0515416610832604460243501916109646108fc61095685602435600401611f0b565b949095602435600401611f0b565b91610973606460243501611eca565b93610982608460243501611eca565b60a05261099360a460243501611eca565b6109a160c460243501611eca565b6109af60e46024350161201e565b6109c86108fc6108326044803501604435600401611f0b565b6109d6606460443501611eca565b6109e4608460443501611eca565b916109f360a460443501611eca565b93610a0260c460443501611eca565b95610a1160e46044350161201e565b978b3b1561017157610a4a99604051608052635988f59760e01b6080515260c0519e6080519e6080519d60a0519360046080510161202b565b03906080519060c051905af18015610d30576110d7575b600281018091116110bf573360c051526005602052604060c05120556040516370a0823160e01b9081815233600482015260208160248160018060a01b0387165afa908115610d305760c0519161108d575b5084808211610f42575b5050604051908152336004820152602081602481865afa908115610d305760c05191610f0b575b5080610dfe575b506001600160a01b0381163b1561017157604051632770a7eb60e21b815260c08051336004840152602483018690529051829060449082906001600160a01b0387165af18015610d3057610de8575b5060018060a01b031660c05152600460205260ff604060c051205416600014610c46577fcca356c69c0991b2f138fe7c7f64cf9be89604118a06017a49e0001782bc6536610bb3610b8f606460443501611eca565b604080516001600160a01b0390921682526020820195909552339490918291820190565b0390a35b34610bd5575b60016000805160206128ab8339815191525560c05180f35b60c051610bfe9080808034610bee604435606401611eca565b5af1610bf86121a4565b506121d4565b6001600160a01b03610c14604435606401611eca565b166040513481527ffb55a98b33e2f35080e8e9656caf739c56946219253f8cd86917f7d33398667660203392a3610bbd565b90610c5b610c548284612390565b8092611ff9565b9080610d3d575b50602090610cad92610c78606460443501611eca565b60405163a9059cbb60e01b81526001600160a01b03909116600482015260248101929092529092839190829081906044820190565b039160c051905af1908115610d305760c05191610d01575b50610bb75760405162461bcd60e51b815260206004820152600f60248201526e151c985b9cd9995c8819985a5b1959608a1b6044820152606490fd5b610d23915060203d602011610d29575b610d1b8183611deb565b810190612006565b81610cc5565b503d610d11565b6040513d60c051823e3d90fd5b60065460405163a9059cbb60e01b81526001600160a01b03909116600482015260248101829052929091906020848060448101038160c051855af1928315610d30577f9dc46f23cfb5ddcad0ae7ea2be38d47fec07bb9382ec7e564efc69e036dd66ce60208392610dbc8297610cad9960c05191610dcb575b50612162565b604051908152a2925090610c62565b610de29150843d8611610d2957610d1b8183611deb565b8a610db6565b610df190611dd7565b60c0516101715783610b3a565b610e0d6101a4602435016120cc565b833b156101715760405163d505accf60e01b815260c051909182908190610e50906024356101e4810135916101c4820135916101840135893033600489016120da565b038160c051885af18015610d3057610ef5575b506020610eaf91610e78606460443501611eca565b6040516323b872dd60e01b81523360048201526001600160a01b039091166024820152604481019190915291829081906064820190565b038160c051875af18015610d3057610ed09160c05191610ed6575b50612116565b83610aeb565b610eef915060203d602011610d2957610d1b8183611deb565b85610eca565b610efe90611dd7565b60c0516101715784610e63565b90506020813d602011610f3a575b81610f2660209383611deb565b81010312610f35575184610ae4565b600080fd5b3d9150610f19565b610f4b91611ff9565b610f5a610124602435016120cc565b6001600160a01b0384163b156101715760405163d505accf60e01b815260c051909182908190610fa69060243561016481013591610144820135916101040135893033600489016120da565b038160c05160018060a01b0389165af18015610d3057611077575b506020610fd691610e78606460443501611eca565b038160c05160018060a01b0388165af1908115610d305760c05191611058575b5015611003578484610abd565b60405162461bcd60e51b815260206004820152602760248201527f52656d61696e696e67207772617070656420746f6b656e207472616e736665726044820152660819985a5b195960ca1b6064820152608490fd5b611071915060203d602011610d2957610d1b8183611deb565b85610ff6565b61108090611dd7565b60c0516101715785610fc1565b90506020813d6020116110b7575b816110a860209383611deb565b81010312610f35575185610ab3565b3d915061109b565b634e487b7160e01b60c051526011600452602460c051fd5b6110e2608051611dd7565b60c05115610a615760c05180fd5b3461017157604036600319011261017157611109611dab565b611111611dc1565b9061111a61263c565b60c080516001600160a01b0392831690526009602052516040812080546001600160a01b0319169390921692909217905580f35b3461017157602036600319011261017157611167611dab565b61116f61263c565b60018060a01b03166001600160601b0360a01b600154161760015560c05160c051f35b346101715760c051366003190112610171577f00000000000000000000000000000000000000000000000000000000000000006001600160a01b031630036111fe5760206040517f360894a13ba1a3210667c828492db98dca3e2076cc3735a920a3ca505d382bbc8152f35b60405163703e46dd60e11b8152600490fd5b604036600319011261017157611224611dab565b60243567ffffffffffffffff811161017157611244903690600401611e60565b906001600160a01b037f000000000000000000000000000000000000000000000000000000000000000081163081149081156113eb575b506111fe5761128861263c565b8116916040516352d1902d60e01b8152602081600481875afa60c05191816113b7575b506112c957604051634c9c8ce360e01b815260048101859052602490fd5b7f360894a13ba1a3210667c828492db98dca3e2076cc3735a920a3ca505d382bbc9081810361139f5750823b1561138657836001600160601b0360a01b825416179055604051927fbc7cd75a20ee27fd9adebab32041f755214dbc6bffa90cc0225b39da2e5c2d3b60c05160c051a280511561136a57611363925060c0519060c05190602081519101845af461135d6121a4565b91612807565b5060c05180f35b50503461137757506101a0565b63b398979f60e01b8152600490fd5b604051634c9c8ce360e01b815260048101859052602490fd5b60249060405190632a87526960e21b82526004820152fd5b9091506020813d6020116113e3575b816113d360209383611deb565b81010312610171575190856112ab565b3d91506113c6565b9050817f360894a13ba1a3210667c828492db98dca3e2076cc3735a920a3ca505d382bbc541614158461127b565b3461017157606036600319011261017157611432611dab565b61143a611dc1565b604435918215158093036101715761145061263c565b60018060a01b03809116908160c051526002602052604060c0512092166001600160601b0360a01b92818482541617905560c051526003602052604060c05120918254161790556004602052604060c051209060ff8019835416911617905560c05160c051f35b346101715760203660031901126101715760043567ffffffffffffffff8111610171576114ed6108fc6020923690600401611e60565b6040516001600160a01b039091168152f35b346101715760203660031901126101715760043560c051526008602052602060ff604060c0512054166040519015158152f35b346101715760203660031901126101715760206001600160a01b0380611556611dab565b1660c0515260028252604060c051205416604051908152f35b60031960603682011261017157611584611dab565b9067ffffffffffffffff908160243511610171576102209182826024353603011261017157604435116101715760443536030112610171576115c46122ec565b60c080516001600160a01b0383811690915260026020529051604090205416906115ef821515611e7e565b3360c051526005602052604060c051205461160e60c460243501611eca565b60405161162c816107e6856020830195602435600401358988611ede565b51902060008051602061286b83398151915260c05152601c5261166a61084861083f603c60c051206108396108326024803501602435600401611f0b565b61167860c460443501611eca565b6001820182116110bf576040516116a4816107e660208201946001870190604435600401358988611ede565b51902060008051602061286b83398151915260c05152601c526116e36108d161083f603c60c05120610839610832602460443501604435600401611f0b565b6116f96044356004013560243560040135611f8a565b916117048382612390565b9161170f8385611ff9565b9380611cd7575b5060018060a01b0360c0515416610832604460243501916117426108fc61095685602435600401611f0b565b91611751606460243501611eca565b93611760608460243501611eca565b6101005261177260a460243501611eca565b61178060c460243501611eca565b61178e60e46024350161201e565b6117a76108fc6108326044803501604435600401611f0b565b6117b5606460443501611eca565b6117c3608460443501611eca565b916117d260a460443501611eca565b936117e160c460443501611eca565b956117f060e46044350161201e565b978b3b156101715761182a9960405160e052635988f59760e01b60e0515260c0519e60e0519e60e0519d6101005193600460e0510161202b565b039060e0519060c051905af18015610d3057611cc7575b600281018091116110bf573360c051526005602052604060c05120556040516370a0823160e01b90818152336004820152602081602481895afa908115610d305760c05191611c95575b5080611b7d575b506040519081523360048201526020816024816001600160a01b0386165afa908115610d305760c05191611b4b575b5080611a5d575b50816119b0575b50506118df606460443501611eca565b823b15610171576040516340c10f1960e01b815260c0516001600160a01b0390921660048201526024810183905290818060448101038160c051875af18015610d305761199a575b507fb5187db8729022d088cc50f8b09bdeaec0ac84d7686d287a7dd82dc25704f7f3906001600160a01b03611960604435606401611eca565b604080516001600160a01b0396909616865260208601939093521692a234610bd55760016000805160206128ab8339815191525560c05180f35b6119a390611dd7565b60c0516101715782611927565b60065460405163a9059cbb60e01b81526001600160a01b0391821660048201526024810184905260c0519092916020918491604491839186165af1908115610d3057611a286020927f9dc46f23cfb5ddcad0ae7ea2be38d47fec07bb9382ec7e564efc69e036dd66ce9460c05191611a405750612162565b6040519384526001600160a01b031692a282806118cf565b611a579150843d8611610d2957610d1b8183611deb565b88610db6565b611a6c6101c4602435016120cc565b6001600160a01b0383163b156101715760405163d505accf60e01b815260c051909182908190611ab890602435610204810135916101e4820135916101a40135893033600489016120da565b038160c05160018060a01b0388165af18015610d3057611b35575b506020611ae891610e78606460443501611eca565b038160c05160018060a01b0387165af18015610d3057611b109160c05191611b165750612116565b846118c8565b611b2f915060203d602011610d2957610d1b8183611deb565b86610eca565b611b3e90611dd7565b60c0516101715785611ad3565b90506020813d602011611b75575b81611b6660209383611deb565b81010312610f355751856118c1565b3d9150611b59565b611b8c610144602435016120cc565b863b156101715760405163d505accf60e01b815260c051909182908190611bcf9060243561018481013591610164820135916101240135893033600489016120da565b038160c0518b5af18015610d3057611c7f575b506020611bf791610e78606460443501611eca565b038160c0518a5af1908115610d305760c05191611c60575b5015611c1b5785611892565b60405162461bcd60e51b815260206004820152601d60248201527f5772617070656420746f6b656e207472616e73666572206661696c65640000006044820152606490fd5b611c79915060203d602011610d2957610d1b8183611deb565b86611c0f565b611c8890611dd7565b60c0516101715786611be2565b90506020813d602011611cbf575b81611cb060209383611deb565b81010312610f3557518661188b565b3d9150611ca3565b611cd260e051611dd7565b611841565b6020611d2391611cec61010460243501611eca565b6040516323b872dd60e01b81526001600160a01b039091166004820152306024820152604481019190915291829081906064820190565b038160c05160018060a01b0388165af1908115610d305760c05191611d8c575b5015611d4f5785611716565b60405162461bcd60e51b8152602060048201526015602482015274151bdad95b881d1c985b9cd9995c8819985a5b1959605a1b6044820152606490fd5b611da5915060203d602011610d2957610d1b8183611deb565b86611d43565b600435906001600160a01b0382168203610f3557565b602435906001600160a01b0382168203610f3557565b67ffffffffffffffff81116104e257604052565b90601f8019910116810190811067ffffffffffffffff8211176104e257604052565b67ffffffffffffffff81116104e257601f01601f191660200190565b929192611e3582611e0d565b91611e436040519384611deb565b829481845281830111610f35578281602093846000960137010152565b9080601f83011215610f3557816020611e7b93359101611e29565b90565b15611e8557565b60405162461bcd60e51b815260206004820152601860248201527f546f6b656e2070616972206e6f7420737570706f7274656400000000000000006044820152606490fd5b356001600160a01b0381168103610f355790565b92606894926001600160601b0319809360601b168552601485015260601b16603483015260488201520190565b903590601e1981360301821215610f35570180359067ffffffffffffffff8211610f3557602001918136038313610f3557565b15611f4557565b60405162461bcd60e51b815260206004820152601d60248201527f496e76616c696420756e636f6e6669726d6564207369676e61747572650000006044820152606490fd5b91908201809211611f9757565b634e487b7160e01b600052601160045260246000fd5b15611fb457565b60405162461bcd60e51b815260206004820152601c60248201527f496e76616c696420636f6e6669726d696e67207369676e6174757265000000006044820152606490fd5b91908203918211611f9757565b90816020910312610f3557518015158103610f355790565b358015158103610f355790565b9c999394969a959891979e9d9b978091818f816101a08083528201526101c094859384830137010160009052601f1990601f01168d01019d8c600160a01b60019003809c81809c81809c81809c81809c1660208a0152166040880152166060860152166080840152169060a00152151560c08d01521660e08b0152166101008901521661012087015216610140850152166101608301521515906101800152565b3560ff81168103610f355790565b9360ff929897969360c0969260e087019a60018060a01b0380921688521660208701526040860152606085015216608083015260a08201520152565b1561211d57565b60405162461bcd60e51b815260206004820152601e60248201527f4f726967696e616c20746f6b656e207472616e73666572206661696c656400006044820152606490fd5b1561216957565b60405162461bcd60e51b8152602060048201526013602482015272119959481d1c985b9cd9995c8819985a5b1959606a1b6044820152606490fd5b3d156121cf573d906121b582611e0d565b916121c36040519384611deb565b82523d6000602084013e565b606090565b156121db57565b60405162461bcd60e51b8152602060048201526013602482015272115512081d1c985b9cd9995c8819985a5b1959606a1b6044820152606490fd5b60408151036122335780516020909101206001600160a01b031690565b60405162461bcd60e51b815260206004820152601b60248201527f5075626c6963206b6579206d75737420626520363420627974657300000000006044820152606490fd5b6001600160a01b039081169081156122d35760008051602061288b83398151915280546001600160a01b031981168417909155167f8be0079c531659141344cd1fd0a4f28419497f9722a3daafe3b4186f6b6457e0600080a3565b604051631e4fbdf760e01b815260006004820152602490fd5b6000805160206128ab833981519152600281541461230a5760029055565b604051633ee5aeb560e01b8152600490fd5b81810292918115918404141715611f9757565b8115612339570490565b634e487b7160e01b600052601260045260246000fd5b519069ffffffffffffffffffff82168203610f3557565b90816020910312610f35575160ff81168103610f355790565b60ff16604d8111611f9757600a0a90565b906123a1612710916007549061231c565b0460018060a01b0380921660009281845260049060209180835260409160ff8388205416156123d5575b5050505050905090565b6009845282872054169384156123cb578251633fabe5a360e21b81529360a0858481895afa9485156126325788956125e0575b50878513156125a9578351958187858163313ce56760e01b948582525afa96871561259f57899761257e575b5081908486518095819382525afa93841561257557508793612546575b505060ff683635c9adc5dea000009216601281116000146124e457601119019060ff82116124d157509061248761248d9261237f565b9061231c565b915b60ff8116156124c1576124ad926124876124a89261237f565b61232f565b915b50818111156124bc575090565b905090565b506124cb9161232f565b916124af565b634e487b7160e01b875260119052602486fd5b601281959395106124f7575b505061248f565b6012949192940360ff81116125335761250f9061237f565b9182156125205750049138806124f0565b634e487b7160e01b875260129052602486fd5b634e487b7160e01b875260118352602487fd5b612566929350803d1061256e575b61255e8183611deb565b810190612366565b903880612451565b503d612554565b513d89823e3d90fd5b8291975061259890823d841161256e5761255e8183611deb565b9690612434565b85513d8b823e3d90fd5b9050606492519162461bcd60e51b83528201526012602482015271125b9d985b1a59081c1c9a58d9481999595960721b6044820152fd5b90945060a0813d60a01161262a575b816125fc60a09383611deb565b810103126126265761260d8161234f565b5061261e608086830151920161234f565b509338612408565b8780fd5b3d91506125ef565b84513d8a823e3d90fd5b60008051602061288b833981519152546001600160a01b0316330361265d57565b60405163118cdaa760e01b8152336004820152602490fd5b81519190604183036126a65761269f92506020820151906060604084015193015160001a90612777565b9192909190565b505060009160029190565b600481101561272057806126c3575050565b600181036126dd5760405163f645eedf60e01b8152600490fd5b600281036126fe5760405163fce698f760e01b815260048101839052602490fd5b6003146127085750565b602490604051906335e2f38360e21b82526004820152fd5b634e487b7160e01b600052602160045260246000fd5b60ff7ff0c57e16840df040f15088dc2f81fe391c3923bec73e23a9662efc9c229c6a005460401c161561276557565b604051631afcd79f60e31b8152600490fd5b91907f7fffffffffffffffffffffffffffffff5d576e7357a4501ddfe92f46681b20a084116127fb57926020929160ff608095604051948552168484015260408301526060820152600092839182805260015afa156127ef5780516001600160a01b038116156127e657918190565b50809160019190565b604051903d90823e3d90fd5b50505060009160039190565b9061282e575080511561281c57805190602001fd5b60405163d6bda27560e01b8152600490fd5b81511580612861575b61283f575090565b604051639996b31560e01b81526001600160a01b039091166004820152602490fd5b50803b1561283756fe19457468657265756d205369676e6564204d6573736167653a0a3332000000009016d09d72d40fdae2fd8ceac6b6234c7706214fd39c1cd1e609a0528c1993009b779b17422d0df92223018b32b4d1fa46e071723d6817e2486d003becc55f00a2646970667358221220570c808da5fed59a810e65ad4e68de1d3f7a0fce7b5af06fb2d41ae71046bd4564736f6c63430008180033",
  "linkReferences": {},
  "deployedLinkReferences": {}
}