{
  "_format": "hh-sol-artifact-1",
  "contractName": "Bridge",
  "sourceName": "contracts/Bridge.sol",
  "abi": [
    {
      "inputs": [
        {
          "internalType": "address",
          "name": "target",
          "type": "address"
        }
      ],
      "name": "AddressEmptyCode",
      "type": "error"
    },
    {
      "inputs": [],
      "name": "ECDSAInvalidSignature",
      "type": "error"
    },
    {
      "inputs": [
        {
          "internalType": "uint256",
          "name": "length",
          "type": "uint256"
        }
      ],
      "name": "ECDSAInvalidSignatureLength",
      "type": "error"
    },
    {
      "inputs": [
        {
          "internalType": "bytes32",
          "name": "s",
          "type": "bytes32"
        }
      ],
      "name": "ECDSAInvalidSignatureS",
      "type": "error"
    },
    {
      "inputs": [
        {
          "internalType": "address",
          "name": "implementation",
          "type": "address"
        }
      ],
      "name": "ERC1967InvalidImplementation",
      "type": "error"
    },
    {
      "inputs": [],
      "name": "ERC1967NonPayable",
      "type": "error"
    },
    {
      "inputs": [],
      "name": "FailedCall",
      "type": "error"
    },
    {
      "inputs": [],
      "name": "InvalidInitialization",
      "type": "error"
    },
    {
      "inputs": [],
      "name": "NotInitializing",
      "type": "error"
    },
    {
      "inputs": [
        {
          "internalType": "address",
          "name": "owner",
          "type": "address"
        }
      ],
      "name": "OwnableInvalidOwner",
      "type": "error"
    },
    {
      "inputs": [
        {
          "internalType": "address",
          "name": "account",
          "type": "address"
        }
      ],
      "name": "OwnableUnauthorizedAccount",
      "type": "error"
    },
    {
      "inputs": [],
      "name": "UUPSUnauthorizedCallContext",
      "type": "error"
    },
    {
      "inputs": [
        {
          "internalType": "bytes32",
          "name": "slot",
          "type": "bytes32"
        }
      ],
      "name": "UUPSUnsupportedProxiableUUID",
      "type": "error"
    },
    {
      "anonymous": false,
      "inputs": [
        {
          "indexed": true,
          "internalType": "address",
          "name": "token",
          "type": "address"
        },
        {
          "indexed": false,
          "internalType": "uint256",
          "name": "amount",
          "type": "uint256"
        }
      ],
      "name": "FeesCollected",
      "type": "event"
    },
    {
      "anonymous": false,
      "inputs": [
        {
          "indexed": false,
          "internalType": "uint64",
          "name": "version",
          "type": "uint64"
        }
      ],
      "name": "Initialized",
      "type": "event"
    },
    {
      "anonymous": false,
      "inputs": [
        {
          "indexed": true,
          "internalType": "address",
          "name": "previousOwner",
          "type": "address"
        },
        {
          "indexed": true,
          "internalType": "address",
          "name": "newOwner",
          "type": "address"
        }
      ],
      "name": "OwnershipTransferred",
      "type": "event"
    },
    {
      "anonymous": false,
      "inputs": [
        {
          "indexed": true,
          "internalType": "address",
          "name": "user",
          "type": "address"
        },
        {
          "indexed": true,
          "internalType": "address",
          "name": "originalToken",
          "type": "address"
        },
        {
          "indexed": false,
          "internalType": "uint256",
          "name": "amount",
          "type": "uint256"
        }
      ],
      "name": "TokensLocked",
      "type": "event"
    },
    {
      "anonymous": false,
      "inputs": [
        {
          "indexed": true,
          "internalType": "address",
          "name": "user",
          "type": "address"
        },
        {
          "indexed": false,
          "internalType": "address",
          "name": "wrappedToken",
          "type": "address"
        },
        {
          "indexed": false,
          "internalType": "uint256",
          "name": "amount",
          "type": "uint256"
        }
      ],
      "name": "TokensWrapped",
      "type": "event"
    },
    {
      "anonymous": false,
      "inputs": [
        {
          "indexed": true,
          "internalType": "address",
          "name": "originalToken",
          "type": "address"
        },
        {
          "indexed": false,
          "internalType": "address",
          "name": "targetAddress",
          "type": "address"
        },
        {
          "indexed": false,
          "internalType": "uint256",
          "name": "amount",
          "type": "uint256"
        },
        {
          "indexed": true,
          "internalType": "address",
          "name": "user",
          "type": "address"
        }
      ],
      "name": "UnwrapCrossChain",
      "type": "event"
    },
    {
      "anonymous": false,
      "inputs": [
        {
          "indexed": true,
          "internalType": "address",
          "name": "implementation",
          "type": "address"
        }
      ],
      "name": "Upgraded",
      "type": "event"
    },
    {
      "inputs": [],
      "name": "FEE_DENOMINATOR",
      "outputs": [
        {
          "internalType": "uint256",
          "name": "",
          "type": "uint256"
        }
      ],
      "stateMutability": "view",
      "type": "function"
    },
    {
      "inputs": [],
      "name": "UPGRADE_INTERFACE_VERSION",
      "outputs": [
        {
          "internalType": "string",
          "name": "",
          "type": "string"
        }
      ],
      "stateMutability": "view",
      "type": "function"
    },
    {
      "inputs": [
        {
          "internalType": "address",
          "name": "originalToken",
          "type": "address"
        },
        {
          "internalType": "address",
          "name": "wrappedToken",
          "type": "address"
        },
        {
          "internalType": "bool",
          "name": "_isCrossChain",
          "type": "bool"
        }
      ],
      "name": "addTokenPair",
      "outputs": [],
      "stateMutability": "nonpayable",
      "type": "function"
    },
    {
      "inputs": [],
      "name": "feeCollector",
      "outputs": [
        {
          "internalType": "address",
          "name": "",
          "type": "address"
        }
      ],
      "stateMutability": "view",
      "type": "function"
    },
    {
      "inputs": [],
      "name": "feePercentage",
      "outputs": [
        {
          "internalType": "uint256",
          "name": "",
          "type": "uint256"
        }
      ],
      "stateMutability": "view",
      "type": "function"
    },
    {
      "inputs": [
        {
          "internalType": "address",
          "name": "_keyLogRegistry",
          "type": "address"
        }
      ],
      "name": "initialize",
      "outputs": [],
      "stateMutability": "nonpayable",
      "type": "function"
    },
    {
      "inputs": [
        {
          "internalType": "address",
          "name": "",
          "type": "address"
        }
      ],
      "name": "isCrossChain",
      "outputs": [
        {
          "internalType": "bool",
          "name": "",
          "type": "bool"
        }
      ],
      "stateMutability": "view",
      "type": "function"
    },
    {
      "inputs": [],
      "name": "keyLogRegistry",
      "outputs": [
        {
          "internalType": "contract KeyLogRegistry",
          "name": "",
          "type": "address"
        }
      ],
      "stateMutability": "view",
      "type": "function"
    },
    {
      "inputs": [
        {
          "internalType": "address",
          "name": "originalToken",
          "type": "address"
        },
        {
          "internalType": "uint256",
          "name": "amount",
          "type": "uint256"
        },
        {
          "internalType": "bytes",
          "name": "publicKey",
          "type": "bytes"
        },
        {
          "internalType": "address",
          "name": "prerotatedKeyHash",
          "type": "address"
        },
        {
          "internalType": "address",
          "name": "twicePrerotatedKeyHash",
          "type": "address"
        }
      ],
      "name": "lockCrossChain",
      "outputs": [],
      "stateMutability": "nonpayable",
      "type": "function"
    },
    {
      "inputs": [
        {
          "internalType": "address",
          "name": "wrappedToken",
          "type": "address"
        },
        {
          "internalType": "address",
          "name": "user",
          "type": "address"
        },
        {
          "internalType": "uint256",
          "name": "amount",
          "type": "uint256"
        }
      ],
      "name": "mintWrappedToken",
      "outputs": [],
      "stateMutability": "nonpayable",
      "type": "function"
    },
    {
      "inputs": [
        {
          "internalType": "address",
          "name": "wrappedToken",
          "type": "address"
        },
        {
          "internalType": "address",
          "name": "user",
          "type": "address"
        },
        {
          "internalType": "uint256",
          "name": "amount",
          "type": "uint256"
        },
        {
          "internalType": "bytes32",
          "name": "lockHash",
          "type": "bytes32"
        }
      ],
      "name": "mintWrappedTokenWithLock",
      "outputs": [],
      "stateMutability": "nonpayable",
      "type": "function"
    },
    {
      "inputs": [
        {
          "internalType": "address",
          "name": "",
          "type": "address"
        }
      ],
      "name": "nonces",
      "outputs": [
        {
          "internalType": "uint256",
          "name": "",
          "type": "uint256"
        }
      ],
      "stateMutability": "view",
      "type": "function"
    },
    {
      "inputs": [
        {
          "internalType": "address",
          "name": "",
          "type": "address"
        }
      ],
      "name": "originalToWrapped",
      "outputs": [
        {
          "internalType": "address",
          "name": "",
          "type": "address"
        }
      ],
      "stateMutability": "view",
      "type": "function"
    },
    {
      "inputs": [],
      "name": "owner",
      "outputs": [
        {
          "internalType": "address",
          "name": "",
          "type": "address"
        }
      ],
      "stateMutability": "view",
      "type": "function"
    },
    {
      "inputs": [
        {
          "internalType": "bytes32",
          "name": "",
          "type": "bytes32"
        }
      ],
      "name": "processedLocks",
      "outputs": [
        {
          "internalType": "bool",
          "name": "",
          "type": "bool"
        }
      ],
      "stateMutability": "view",
      "type": "function"
    },
    {
      "inputs": [],
      "name": "proxiableUUID",
      "outputs": [
        {
          "internalType": "bytes32",
          "name": "",
          "type": "bytes32"
        }
      ],
      "stateMutability": "view",
      "type": "function"
    },
    {
      "inputs": [],
      "name": "relayer",
      "outputs": [
        {
          "internalType": "address",
          "name": "",
          "type": "address"
        }
      ],
      "stateMutability": "view",
      "type": "function"
    },
    {
      "inputs": [],
      "name": "renounceOwnership",
      "outputs": [],
      "stateMutability": "nonpayable",
      "type": "function"
    },
    {
      "inputs": [
        {
          "internalType": "address",
          "name": "_feeCollector",
          "type": "address"
        }
      ],
      "name": "setFeeCollector",
      "outputs": [],
      "stateMutability": "nonpayable",
      "type": "function"
    },
    {
      "inputs": [
        {
          "internalType": "uint256",
          "name": "_feePercentage",
          "type": "uint256"
        }
      ],
      "name": "setFeePercentage",
      "outputs": [],
      "stateMutability": "nonpayable",
      "type": "function"
    },
    {
      "inputs": [
        {
          "internalType": "address",
          "name": "_relayer",
          "type": "address"
        }
      ],
      "name": "setRelayer",
      "outputs": [],
      "stateMutability": "nonpayable",
      "type": "function"
    },
    {
      "inputs": [
        {
          "internalType": "address",
          "name": "newOwner",
          "type": "address"
        }
      ],
      "name": "transferOwnership",
      "outputs": [],
      "stateMutability": "nonpayable",
      "type": "function"
    },
    {
      "inputs": [
        {
          "internalType": "address",
          "name": "wrappedToken",
          "type": "address"
        },
        {
          "components": [
            {
              "internalType": "uint256",
              "name": "amount",
              "type": "uint256"
            },
            {
              "internalType": "bytes",
              "name": "signature",
              "type": "bytes"
            },
            {
              "internalType": "bytes",
              "name": "publicKey",
              "type": "bytes"
            },
            {
              "internalType": "address",
              "name": "prerotatedKeyHash",
              "type": "address"
            },
            {
              "internalType": "address",
              "name": "twicePrerotatedKeyHash",
              "type": "address"
            },
            {
              "internalType": "address",
              "name": "prevPublicKeyHash",
              "type": "address"
            },
            {
              "internalType": "address",
              "name": "targetAddress",
              "type": "address"
            },
            {
              "internalType": "bool",
              "name": "hasRelationship",
              "type": "bool"
            }
          ],
          "internalType": "struct Bridge.UnwrapParams",
          "name": "unconfirmed",
          "type": "tuple"
        },
        {
          "components": [
            {
              "internalType": "uint256",
              "name": "amount",
              "type": "uint256"
            },
            {
              "internalType": "bytes",
              "name": "signature",
              "type": "bytes"
            },
            {
              "internalType": "bytes",
              "name": "publicKey",
              "type": "bytes"
            },
            {
              "internalType": "address",
              "name": "prerotatedKeyHash",
              "type": "address"
            },
            {
              "internalType": "address",
              "name": "twicePrerotatedKeyHash",
              "type": "address"
            },
            {
              "internalType": "address",
              "name": "prevPublicKeyHash",
              "type": "address"
            },
            {
              "internalType": "address",
              "name": "targetAddress",
              "type": "address"
            },
            {
              "internalType": "bool",
              "name": "hasRelationship",
              "type": "bool"
            }
          ],
          "internalType": "struct Bridge.UnwrapParams",
          "name": "confirming",
          "type": "tuple"
        }
      ],
      "name": "unwrapPair",
      "outputs": [],
      "stateMutability": "nonpayable",
      "type": "function"
    },
    {
      "inputs": [
        {
          "internalType": "address",
          "name": "newImplementation",
          "type": "address"
        },
        {
          "internalType": "bytes",
          "name": "data",
          "type": "bytes"
        }
      ],
      "name": "upgradeToAndCall",
      "outputs": [],
      "stateMutability": "payable",
      "type": "function"
    },
    {
      "inputs": [
        {
          "internalType": "address",
          "name": "originalToken",
          "type": "address"
        },
        {
          "internalType": "uint256",
          "name": "unconfirmedAmount",
          "type": "uint256"
        },
        {
          "internalType": "bytes",
          "name": "unconfirmedSignature",
          "type": "bytes"
        },
        {
          "internalType": "bytes",
          "name": "unconfirmedPublicKey",
          "type": "bytes"
        },
        {
          "internalType": "address",
          "name": "unconfirmedPrerotatedKeyHash",
          "type": "address"
        },
        {
          "internalType": "address",
          "name": "unconfirmedTwicePrerotatedKeyHash",
          "type": "address"
        },
        {
          "internalType": "address",
          "name": "unconfirmedPrevPublicKeyHash",
          "type": "address"
        },
        {
          "internalType": "address",
          "name": "unconfirmedOutputAddress",
          "type": "address"
        },
        {
          "internalType": "bool",
          "name": "unconfirmedHasRelationship",
          "type": "bool"
        },
        {
          "internalType": "uint256",
          "name": "confirmingAmount",
          "type": "uint256"
        },
        {
          "internalType": "bytes",
          "name": "confirmingSignature",
          "type": "bytes"
        },
        {
          "internalType": "bytes",
          "name": "confirmingPublicKey",
          "type": "bytes"
        },
        {
          "internalType": "address",
          "name": "confirmingPrerotatedKeyHash",
          "type": "address"
        },
        {
          "internalType": "address",
          "name": "confirmingTwicePrerotatedKeyHash",
          "type": "address"
        },
        {
          "internalType": "address",
          "name": "confirmingPrevPublicKeyHash",
          "type": "address"
        },
        {
          "internalType": "address",
          "name": "confirmingOutputAddress",
          "type": "address"
        },
        {
          "internalType": "bool",
          "name": "confirmingHasRelationship",
          "type": "bool"
        }
      ],
      "name": "wrapPair",
      "outputs": [],
      "stateMutability": "nonpayable",
      "type": "function"
    },
    {
      "inputs": [
        {
          "internalType": "address",
          "name": "",
          "type": "address"
        }
      ],
      "name": "wrappedToOriginal",
      "outputs": [
        {
          "internalType": "address",
          "name": "",
          "type": "address"
        }
      ],
      "stateMutability": "view",
      "type": "function"
    }
  ],
  "bytecode": "0x60a0806040523461002a5730608052611ff090816100308239608051818181610a470152610b010152f35b600080fdfe608080604052600436101561001357600080fd5b600090813560e01c908163081da8c11461190e5750806309765f53146118df57806321deec4f146117a9578063334976c71461171557806333868f0b1461122f5780634689a35714610ce75780634f1ef28614610ab157806352d1902d14610a345780635bf55209146108575780636548e9bc14610817578063715018a6146107ac5780637c0db610146107705780637ecebe00146107375780638406c0791461070e5780638da5cb5b146106d8578063931b6b601461052a578063a001ecdd1461050c578063a42dce8014610488578063a8bc3e0a14610449578063ad3cb1cc146103a3578063ae06c1b714610343578063b5057a7b1461031c578063c415b95c146102f3578063c4d66de81461018b578063d73792a91461016e5763f2fde38b1461013f57600080fd5b3461016b57602036600319011261016b5761016861015b611947565b610163611d6c565b611cf8565b80f35b80fd5b503461016b578060031936011261016b5760206040516127108152f35b503461016b57602036600319011261016b576101a5611947565b7ff0c57e16840df040f15088dc2f81fe391c3923bec73e23a9662efc9c229c6a009081549060ff8260401c16159167ffffffffffffffff8116801590816102eb575b60011490816102e1575b1590816102d8575b506102c65767ffffffffffffffff1981166001178455826102a7575b5061021e611e66565b610226611e66565b61022f33611cf8565b610237611e66565b6001600160601b0360a01b9060018060a01b031681855416178455339060065416176006556064600755610269575080f35b68ff00000000000000001981541690557fc7f505b2f371ae2175ee4913f4499e1f2633a7b5936321eed1cdaeb6115181d2602060405160018152a180f35b68ffffffffffffffffff19166801000000000000000117835538610215565b60405163f92ee8a960e01b8152600490fd5b905015386101f9565b303b1591506101f1565b8491506101e7565b503461016b578060031936011261016b576006546040516001600160a01b039091168152602090f35b503461016b578060031936011261016b57546040516001600160a01b039091168152602090f35b503461016b57602036600319011261016b57600435610360611d6c565b612710811161036f5760075580f35b60405162461bcd60e51b815260206004820152600c60248201526b08ccaca40e8dede40d0d2ced60a31b6044820152606490fd5b503461016b578060031936011261016b576040516040810181811067ffffffffffffffff8211176104335760405260058152602091640352e302e360dc1b602083015260405192839160208352835191826020850152815b83811061041c57505060408094508284010152601f80199101168101030190f35b8086018201518782016040015286945081016103fb565b634e487b7160e01b600052604160045260246000fd5b503461016b57602036600319011261016b5760209060ff906040906001600160a01b03610474611947565b168152600484522054166040519015158152f35b503461016b57602036600319011261016b576104a2611947565b6104aa611d6c565b6001600160a01b031680156104cf576001600160601b0360a01b600654161760065580f35b60405162461bcd60e51b815260206004820152601560248201527424b73b30b634b2103332b29031b7b63632b1ba37b960591b6044820152606490fd5b503461016b578060031936011261016b576020600754604051908152f35b503461016b5760a036600319011261016b57610544611947565b60243560443567ffffffffffffffff81116106d457610567903690600401611989565b90926001600160a01b03606435818116908190036106cf5786938261058a611973565b6040516323b872dd60e01b81523360048201523060248201526044810189905291909516976020826064818a8d5af19081156106c4576105d66105e29287948a91610695575b50611c24565b82885416933691611a09565b6020815191012016813b15610691578560e492819560405197889687956355d3ea9960e01b8752336004880152602487015260448601521660648401528160848401523360a48401528160c48401525af180156106865761066e575b50506040519081527ee8ffc569c5f605999e8ad11ec9db2ef2254b66370f5b963df609fa59854eb260203392a380f35b610677906119b7565b61068257823861063e565b8280fd5b6040513d84823e3d90fd5b8580fd5b6106b7915060203d6020116106bd575b6106af81836119cb565b810190611c0c565b386105d0565b503d6106a5565b6040513d89823e3d90fd5b600080fd5b8380fd5b503461016b578060031936011261016b57600080516020611f9b833981519152546040516001600160a01b039091168152602090f35b503461016b578060031936011261016b576001546040516001600160a01b039091168152602090f35b503461016b57602036600319011261016b576020906040906001600160a01b0361075f611947565b168152600583522054604051908152f35b503461016b57602036600319011261016b576020906001600160a01b03906040908261079a611947565b16815260038452205416604051908152f35b503461016b578060031936011261016b576107c5611d6c565b600080516020611f9b83398151915280546001600160a01b031981169091556000906001600160a01b03167f8be0079c531659141344cd1fd0a4f28419497f9722a3daafe3b4186f6b6457e08280a380f35b503461016b57602036600319011261016b57610831611947565b610839611d6c565b60018060a01b03166001600160601b0360a01b600154161760015580f35b503461016b57608036600319011261016b57610871611947565b9061087a61195d565b604435906064359361088a611d6c565b8484526020926008845260ff6040862054166109f657849585526008845260408520600160ff198254161790556108d16127106108c960075484611bec565b048092611bff565b9160018060a01b038091169485875260038152816040882054169280610950575b50505050823b1561094b576040516340c10f1960e01b81526001600160a01b0392909216600483015260248201529082908290604490829084905af180156106865761093b5750f35b610944906119b7565b61016b5780f35b505050fd5b60065460405163a9059cbb60e01b815293166001600160a01b03166004840152602483018190528183806044810103818b885af19283156109eb577f9dc46f23cfb5ddcad0ae7ea2be38d47fec07bb9382ec7e564efc69e036dd66ce936109be918a916109ce575b50611c62565b604051908152a2388080806108f2565b6109e59150843d86116106bd576106af81836119cb565b386109b8565b6040513d8a823e3d90fd5b60405162461bcd60e51b8152600481018590526016602482015275131bd8dac8185b1c9958591e481c1c9bd8d95cdcd95960521b6044820152606490fd5b503461016b578060031936011261016b577f00000000000000000000000000000000000000000000000000000000000000006001600160a01b03163003610a9f5760206040517f360894a13ba1a3210667c828492db98dca3e2076cc3735a920a3ca505d382bbc8152f35b60405163703e46dd60e11b8152600490fd5b50604036600319011261016b57610ac6611947565b60243567ffffffffffffffff8111610682573660238201121561068257610af7903690602481600401359101611a09565b6001600160a01b037f00000000000000000000000000000000000000000000000000000000000000008116308114908115610cb9575b50610a9f57610b3a611d6c565b6040516352d1902d60e01b8152908316926020918281600481885afa869181610c86575b50610b7c57604051634c9c8ce360e01b815260048101869052602490fd5b9385947f360894a13ba1a3210667c828492db98dca3e2076cc3735a920a3ca505d382bbc90818103610c6e5750823b15610c555780546001600160a01b0319168217905560405185917fbc7cd75a20ee27fd9adebab32041f755214dbc6bffa90cc0225b39da2e5c2d3b8380a2845115610c385750808484610c2b96519101845af4903d15610c2f573d610c0f816119ed565b90610c1d60405192836119cb565b81528581943d92013e611f37565b5080f35b60609250611f37565b935050505034610c46575080f35b63b398979f60e01b8152600490fd5b604051634c9c8ce360e01b815260048101839052602490fd5b60249060405190632a87526960e21b82526004820152fd5b9091508381813d8311610cb2575b610c9e81836119cb565b81010312610cae57519038610b5e565b8680fd5b503d610c94565b9050817f360894a13ba1a3210667c828492db98dca3e2076cc3735a920a3ca505d382bbc5416141538610b2d565b503461016b576003196060368201126111e757610d02611947565b9067ffffffffffffffff9081602435116106d4576101009182826024353603011261122b57604435116106d457604435360301126111e7576001600160a01b0381811683526003602052604083205416610d5d811515611a40565b33835260056020526040832080549060028201908183116112175755610d8760c460243501611ca4565b604051610db381610da5856020830195602435600401358a88611aaf565b03601f1981018352826119cb565b5190207f19457468657265756d205369676e6564204d6573736167653a0a3332000000008552601c52610e25610e15610e0c603c8720610e06610dff6024803501602435600401611cb8565b3691611a09565b90611da5565b90929192611de1565b6001600160a01b03163314611adc565b610e3360c460443501611ca4565b60018201821161120357610e61610da591604051928391600160208401960190604435600401358988611aaf565b5190207f19457468657265756d205369676e6564204d6573736167653a0a3332000000008452601c52610ebe610eae610e0c603c8620610e06610dff602460443501604435600401611cb8565b6001600160a01b03163314611b28565b825483906001600160a01b0316610ee1610dff6024356044810190600401611cb8565b80516020909101206001600160a01b0316610f00602435606401611ca4565b91610f0f608460243501611ca4565b90610f1e60a460243501611ca4565b91610f2d60c460243501611ca4565b94610f3c60e460243501611ceb565b90610f53610dff6044803501604435600401611cb8565b80516020909101206001600160a01b031695610f73604435606401611ca4565b610f81608460443501611ca4565b610f8f60a460443501611ca4565b610f9d60c460443501611ca4565b91610fac60e460443501611ceb565b93893b156111ff578d9b8c986040519e8f9d8e9c8d9b8c9b633051a2b360e21b8d52339c6004019c610fdd9d611b74565b03925af18015610686576111eb575b506110036044356004013560243560040135611a8c565b926001600160a01b0381163b156111e757604051632770a7eb60e21b8152336004820152602481018590529082908290604490829084906001600160a01b03165af18015610686576111d3575b508190526004602052604083205460ff16156110c2577fcca356c69c0991b2f138fe7c7f64cf9be89604118a06017a49e0001782bc65366110bc61109860c460243501611ca4565b604080516001600160a01b0390921682526020820195909552339490918291820190565b0390a380f35b906110d56127106108c960075484611bec565b9080611143575b50602090611129926110f260c460243501611ca4565b60405163a9059cbb60e01b81526001600160a01b039091166004820152602481019290925290928391908290869082906044820190565b03925af18015610686576101689183916106955750611c24565b60065460405163a9059cbb60e01b81526001600160a01b039091166004820152602481018290529290919060208460448188855af19283156111c8577f9dc46f23cfb5ddcad0ae7ea2be38d47fec07bb9382ec7e564efc69e036dd66ce602083926111b98297611129998b916109ce5750611c62565b604051908152a29250906110dc565b6040513d87823e3d90fd5b6111dc906119b7565b610682578238611050565b5080fd5b6111f4906119b7565b610682578238610fec565b8d80fd5b634e487b7160e01b85526011600452602485fd5b634e487b7160e01b86526011600452602486fd5b8480fd5b503461016b5761022036600319011261016b5761124a611947565b67ffffffffffffffff91906044358381116106825761126d903690600401611989565b91909360643581811161122b57611288903690600401611989565b90611291611973565b9060a4356001600160a01b03811690036106cf5760c4356001600160a01b03811690036106cf5760e4356001600160a01b03811690036106cf5761010435151561010435036106cf5761014435848111611711576112f3903690600401611989565b909461016435116117115761130e3661016435600401611989565b9099909590610184356001600160a01b03811690036106cf576101a4356001600160a01b03811690036106cf576101c4356001600160a01b03811690036106cf576101e4356001600160a01b03811690036106cf5761020435151561020435036106cf576001600160a01b038881168b52600260205260408b205416986113968a1515611a40565b338b52600560205260408b20918254926002840184116116fd5761141a92610e06610e15938f603c908f610e0c9660028b0190556040516113e881610da58d602083019560e435906024359088611aaf565b5190207f19457468657265756d205369676e6564204d6573736167653a0a3332000000008252601c5220923691611a09565b6001810181116116e95792611469610eae610e0c8c9d95610e0661147c968d9e9f9d8e6114959b610da56113e8603c946040519283916001602084019601906101e43590610124359088611aaf565b87546001600160a01b0316953691611a09565b80516020909101206001600160a01b0316943691611a09565b80516020909101206001600160a01b031691803b1561122b576114fe9385809460405196879586948593633051a2b360e21b855261020435926101e435926101c435926101a435926101843592610104359160e4359160c4359160a435918d6004339101611b74565b03925af18015610686576116d5575b505061151e61012435602435611a8c565b9061271061152e60075484611bec565b049061156d602061153f8486611bff565b6040516323b872dd60e01b815233600482015230602482015260448101969096529491829081906064820190565b0381896001600160a01b0387165af180156116ca576115929187916106955750611c24565b81611638575b5050813b15610682576040516340c10f1960e01b815260e4356001600160a01b03166004820152602481018290528390818160448183885af1801561068657611624575b5050604080516001600160a01b039384168152602081019290925260e435909216917fb5187db8729022d088cc50f8b09bdeaec0ac84d7686d287a7dd82dc25704f7f391a280f35b61162d906119b7565b6106825782386115dc565b60065460405163a9059cbb60e01b81526001600160a01b039091166004820152602481018390529060208280604481010381896001600160a01b0386165af19081156116ca576116b26020927f9dc46f23cfb5ddcad0ae7ea2be38d47fec07bb9382ec7e564efc69e036dd66ce9489916109ce5750611c62565b6040519384526001600160a01b031692a23880611598565b6040513d88823e3d90fd5b6116de906119b7565b61068257823861150d565b634e487b7160e01b8a52601160045260248afd5b634e487b7160e01b8d52601160045260248dfd5b8780fd5b503461016b57606036600319011261016b5761172f611947565b61173761195d565b90604435918215158093036106cf5761174e611d6c565b60018060a01b038092169182855260026020526040852091166001600160601b0360a01b9181838254161790558452600360205281604085209182541617905582526004602052604082209060ff8019835416911617905580f35b503461016b57606036600319011261016b576117c3611947565b6117cb61195d565b60015490916001600160a01b0391821633036118a25781169081845260036020526040842054168352600460205260ff6040842054161561185d578291813b15611859576040516340c10f1960e01b81526001600160a01b03919091166004820152604480356024830152909291839190829084905af1801561068657611850575080f35b610168906119b7565b5050fd5b60405162461bcd60e51b815260206004820152601760248201527f4e6f7420612063726f73732d636861696e20746f6b656e0000000000000000006044820152606490fd5b60405162461bcd60e51b815260206004820152601560248201527413db9b1e481c995b185e595c8818d85b881b5a5b9d605a1b6044820152606490fd5b503461016b57602036600319011261016b5760ff60406020926004358152600884522054166040519015158152f35b9050346111e75760203660031901126111e7576020916001600160a01b039060409082611939611947565b168152600285522054168152f35b600435906001600160a01b03821682036106cf57565b602435906001600160a01b03821682036106cf57565b608435906001600160a01b03821682036106cf57565b9181601f840112156106cf5782359167ffffffffffffffff83116106cf57602083818601950101116106cf57565b67ffffffffffffffff811161043357604052565b90601f8019910116810190811067ffffffffffffffff82111761043357604052565b67ffffffffffffffff811161043357601f01601f191660200190565b929192611a15826119ed565b91611a2360405193846119cb565b8294818452818301116106cf578281602093846000960137010152565b15611a4757565b60405162461bcd60e51b815260206004820152601860248201527f546f6b656e2070616972206e6f7420737570706f7274656400000000000000006044820152606490fd5b91908201809211611a9957565b634e487b7160e01b600052601160045260246000fd5b92606894926001600160601b0319809360601b168552601485015260601b16603483015260488201520190565b15611ae357565b60405162461bcd60e51b815260206004820152601d60248201527f496e76616c696420756e636f6e6669726d6564207369676e61747572650000006044820152606490fd5b15611b2f57565b60405162461bcd60e51b815260206004820152601c60248201527f496e76616c696420636f6e6669726d696e67207369676e6174757265000000006044820152606490fd5b6001600160a01b039182168152918116602083015291821660408201529181166060830152918216608082015291811660a083015291151560c082015291811660e083015291821661010082015291811661012083015291821661014082015291166101608201529015156101808201526101a00190565b81810292918115918404141715611a9957565b91908203918211611a9957565b908160209103126106cf575180151581036106cf5790565b15611c2b57565b60405162461bcd60e51b815260206004820152600f60248201526e151c985b9cd9995c8819985a5b1959608a1b6044820152606490fd5b15611c6957565b60405162461bcd60e51b8152602060048201526013602482015272119959481d1c985b9cd9995c8819985a5b1959606a1b6044820152606490fd5b356001600160a01b03811681036106cf5790565b903590601e19813603018212156106cf570180359067ffffffffffffffff82116106cf576020019181360383136106cf57565b3580151581036106cf5790565b6001600160a01b03908116908115611d5357600080516020611f9b83398151915280546001600160a01b031981168417909155167f8be0079c531659141344cd1fd0a4f28419497f9722a3daafe3b4186f6b6457e0600080a3565b604051631e4fbdf760e01b815260006004820152602490fd5b600080516020611f9b833981519152546001600160a01b03163303611d8d57565b60405163118cdaa760e01b8152336004820152602490fd5b8151919060418303611dd657611dcf92506020820151906060604084015193015160001a90611ea7565b9192909190565b505060009160029190565b6004811015611e505780611df3575050565b60018103611e0d5760405163f645eedf60e01b8152600490fd5b60028103611e2e5760405163fce698f760e01b815260048101839052602490fd5b600314611e385750565b602490604051906335e2f38360e21b82526004820152fd5b634e487b7160e01b600052602160045260246000fd5b60ff7ff0c57e16840df040f15088dc2f81fe391c3923bec73e23a9662efc9c229c6a005460401c1615611e9557565b604051631afcd79f60e31b8152600490fd5b91907f7fffffffffffffffffffffffffffffff5d576e7357a4501ddfe92f46681b20a08411611f2b57926020929160ff608095604051948552168484015260408301526060820152600092839182805260015afa15611f1f5780516001600160a01b03811615611f1657918190565b50809160019190565b604051903d90823e3d90fd5b50505060009160039190565b90611f5e5750805115611f4c57805190602001fd5b60405163d6bda27560e01b8152600490fd5b81511580611f91575b611f6f575090565b604051639996b31560e01b81526001600160a01b039091166004820152602490fd5b50803b15611f6756fe9016d09d72d40fdae2fd8ceac6b6234c7706214fd39c1cd1e609a0528c199300a2646970667358221220850130ee8510697d469272b15b2f265909e9466852bcc95150700817ee0ff94764736f6c63430008180033",
  "linkReferences": {},
  "deployedLinkReferences": {}
}