{
  "_format": "hh-sol-artifact-1",
  "contractName": "BridgeUpgrade",
  "sourceName": "contracts/BridgeUpgrade.sol",
  "abi": [
    {
      "inputs": [
        {
          "internalType": "address",
          "name": "target",
          "type": "address"
        }
      ],
      "name": "AddressEmptyCode",
      "type": "error"
    },
    {
      "inputs": [],
      "name": "AmountTooLow",
      "type": "error"
    },
    {
      "inputs": [],
      "name": "BurnAmountZero",
      "type": "error"
    },
    {
      "inputs": [],
      "name": "ECDSAInvalidSignature",
      "type": "error"
    },
    {
      "inputs": [
        {
          "internalType": "uint256",
          "name": "length",
          "type": "uint256"
        }
      ],
      "name": "ECDSAInvalidSignatureLength",
      "type": "error"
    },
    {
      "inputs": [
        {
          "internalType": "bytes32",
          "name": "s",
          "type": "bytes32"
        }
      ],
      "name": "ECDSAInvalidSignatureS",
      "type": "error"
    },
    {
      "inputs": [
        {
          "internalType": "address",
          "name": "implementation",
          "type": "address"
        }
      ],
      "name": "ERC1967InvalidImplementation",
      "type": "error"
    },
    {
      "inputs": [],
      "name": "ERC1967NonPayable",
      "type": "error"
    },
    {
      "inputs": [],
      "name": "EthTransferFailed",
      "type": "error"
    },
    {
      "inputs": [],
      "name": "FailedCall",
      "type": "error"
    },
    {
      "inputs": [],
      "name": "FeeTransferFailed",
      "type": "error"
    },
    {
      "inputs": [],
      "name": "InsufficientAllowance",
      "type": "error"
    },
    {
      "inputs": [],
      "name": "InsufficientBalance",
      "type": "error"
    },
    {
      "inputs": [
        {
          "internalType": "address",
          "name": "token",
          "type": "address"
        }
      ],
      "name": "InsufficientPermits",
      "type": "error"
    },
    {
      "inputs": [],
      "name": "InvalidFeeCollector",
      "type": "error"
    },
    {
      "inputs": [],
      "name": "InvalidFeeRate",
      "type": "error"
    },
    {
      "inputs": [],
      "name": "InvalidInitialization",
      "type": "error"
    },
    {
      "inputs": [],
      "name": "InvalidOwnershipTransfer",
      "type": "error"
    },
    {
      "inputs": [],
      "name": "InvalidPrerotatedKeyHash",
      "type": "error"
    },
    {
      "inputs": [],
      "name": "InvalidPublicKey",
      "type": "error"
    },
    {
      "inputs": [],
      "name": "InvalidRecipientAmount",
      "type": "error"
    },
    {
      "inputs": [],
      "name": "InvalidSignature",
      "type": "error"
    },
    {
      "inputs": [],
      "name": "MissingPermit",
      "type": "error"
    },
    {
      "inputs": [],
      "name": "NoTokenPairs",
      "type": "error"
    },
    {
      "inputs": [],
      "name": "NotInitializing",
      "type": "error"
    },
    {
      "inputs": [
        {
          "internalType": "address",
          "name": "contractAddress",
          "type": "address"
        }
      ],
      "name": "NotOwnerOfTarget",
      "type": "error"
    },
    {
      "inputs": [
        {
          "internalType": "address",
          "name": "owner",
          "type": "address"
        }
      ],
      "name": "OwnableInvalidOwner",
      "type": "error"
    },
    {
      "inputs": [
        {
          "internalType": "address",
          "name": "account",
          "type": "address"
        }
      ],
      "name": "OwnableUnauthorizedAccount",
      "type": "error"
    },
    {
      "inputs": [],
      "name": "PermitDeadlineExpired",
      "type": "error"
    },
    {
      "inputs": [],
      "name": "ReentrancyGuardReentrantCall",
      "type": "error"
    },
    {
      "inputs": [
        {
          "internalType": "address",
          "name": "token",
          "type": "address"
        }
      ],
      "name": "SafeERC20FailedOperation",
      "type": "error"
    },
    {
      "inputs": [],
      "name": "TokenPairExists",
      "type": "error"
    },
    {
      "inputs": [],
      "name": "TokenPairNotSupported",
      "type": "error"
    },
    {
      "inputs": [],
      "name": "TransferFailed",
      "type": "error"
    },
    {
      "inputs": [],
      "name": "UUPSUnauthorizedCallContext",
      "type": "error"
    },
    {
      "inputs": [
        {
          "internalType": "bytes32",
          "name": "slot",
          "type": "bytes32"
        }
      ],
      "name": "UUPSUnsupportedProxiableUUID",
      "type": "error"
    },
    {
      "inputs": [
        {
          "internalType": "address",
          "name": "contractAddress",
          "type": "address"
        },
        {
          "internalType": "string",
          "name": "reason",
          "type": "string"
        }
      ],
      "name": "UpgradeFailed",
      "type": "error"
    },
    {
      "inputs": [],
      "name": "ZeroAddress",
      "type": "error"
    },
    {
      "anonymous": false,
      "inputs": [
        {
          "indexed": false,
          "internalType": "uint64",
          "name": "version",
          "type": "uint64"
        }
      ],
      "name": "Initialized",
      "type": "event"
    },
    {
      "anonymous": false,
      "inputs": [
        {
          "indexed": true,
          "internalType": "address",
          "name": "previousOwner",
          "type": "address"
        },
        {
          "indexed": true,
          "internalType": "address",
          "name": "newOwner",
          "type": "address"
        }
      ],
      "name": "OwnershipTransferred",
      "type": "event"
    },
    {
      "anonymous": false,
      "inputs": [
        {
          "indexed": true,
          "internalType": "address",
          "name": "implementation",
          "type": "address"
        }
      ],
      "name": "Upgraded",
      "type": "event"
    },
    {
      "inputs": [],
      "name": "UPGRADE_INTERFACE_VERSION",
      "outputs": [
        {
          "internalType": "string",
          "name": "",
          "type": "string"
        }
      ],
      "stateMutability": "view",
      "type": "function"
    },
    {
      "inputs": [
        {
          "internalType": "address",
          "name": "to",
          "type": "address"
        }
      ],
      "name": "emergencyWithdrawBNB",
      "outputs": [],
      "stateMutability": "nonpayable",
      "type": "function"
    },
    {
      "inputs": [],
      "name": "feeCollector",
      "outputs": [
        {
          "internalType": "address",
          "name": "",
          "type": "address"
        }
      ],
      "stateMutability": "view",
      "type": "function"
    },
    {
      "inputs": [],
      "name": "feeSigner",
      "outputs": [
        {
          "internalType": "address",
          "name": "",
          "type": "address"
        }
      ],
      "stateMutability": "view",
      "type": "function"
    },
    {
      "inputs": [
        {
          "internalType": "bytes",
          "name": "publicKey",
          "type": "bytes"
        }
      ],
      "name": "getAddressFromPublicKey",
      "outputs": [
        {
          "internalType": "address",
          "name": "",
          "type": "address"
        }
      ],
      "stateMutability": "pure",
      "type": "function"
    },
    {
      "inputs": [],
      "name": "getOwner",
      "outputs": [
        {
          "internalType": "address",
          "name": "",
          "type": "address"
        }
      ],
      "stateMutability": "view",
      "type": "function"
    },
    {
      "inputs": [],
      "name": "getSupportedTokens",
      "outputs": [
        {
          "internalType": "address[]",
          "name": "",
          "type": "address[]"
        }
      ],
      "stateMutability": "view",
      "type": "function"
    },
    {
      "inputs": [],
      "name": "getTestString",
      "outputs": [
        {
          "internalType": "string",
          "name": "",
          "type": "string"
        }
      ],
      "stateMutability": "pure",
      "type": "function"
    },
    {
      "inputs": [
        {
          "internalType": "address",
          "name": "_keyLogRegistry",
          "type": "address"
        },
        {
          "internalType": "address",
          "name": "_wrappedTokenBeacon",
          "type": "address"
        }
      ],
      "name": "initialize",
      "outputs": [],
      "stateMutability": "nonpayable",
      "type": "function"
    },
    {
      "inputs": [],
      "name": "keyLogRegistry",
      "outputs": [
        {
          "internalType": "contract KeyLogRegistry",
          "name": "",
          "type": "address"
        }
      ],
      "stateMutability": "view",
      "type": "function"
    },
    {
      "inputs": [
        {
          "internalType": "address",
          "name": "",
          "type": "address"
        }
      ],
      "name": "nonces",
      "outputs": [
        {
          "internalType": "uint256",
          "name": "",
          "type": "uint256"
        }
      ],
      "stateMutability": "view",
      "type": "function"
    },
    {
      "inputs": [
        {
          "internalType": "address",
          "name": "originalToken",
          "type": "address"
        }
      ],
      "name": "originalToWrapped",
      "outputs": [
        {
          "internalType": "address",
          "name": "",
          "type": "address"
        }
      ],
      "stateMutability": "view",
      "type": "function"
    },
    {
      "inputs": [],
      "name": "owner",
      "outputs": [
        {
          "internalType": "address",
          "name": "",
          "type": "address"
        }
      ],
      "stateMutability": "view",
      "type": "function"
    },
    {
      "inputs": [],
      "name": "proxiableUUID",
      "outputs": [
        {
          "internalType": "bytes32",
          "name": "",
          "type": "bytes32"
        }
      ],
      "stateMutability": "view",
      "type": "function"
    },
    {
      "inputs": [
        {
          "internalType": "address",
          "name": "token",
          "type": "address"
        },
        {
          "components": [
            {
              "internalType": "address",
              "name": "token",
              "type": "address"
            },
            {
              "internalType": "uint256",
              "name": "fee",
              "type": "uint256"
            },
            {
              "internalType": "uint256",
              "name": "expires",
              "type": "uint256"
            },
            {
              "internalType": "bytes",
              "name": "signature",
              "type": "bytes"
            }
          ],
          "internalType": "struct BridgeUpgrade.FeeInfo",
          "name": "fee",
          "type": "tuple"
        },
        {
          "components": [
            {
              "internalType": "address",
              "name": "originalToken",
              "type": "address"
            },
            {
              "internalType": "string",
              "name": "tokenName",
              "type": "string"
            },
            {
              "internalType": "string",
              "name": "tokenSymbol",
              "type": "string"
            },
            {
              "internalType": "address",
              "name": "wrappedToken",
              "type": "address"
            }
          ],
          "internalType": "struct BridgeUpgrade.TokenPair[]",
          "name": "newTokenPairs",
          "type": "tuple[]"
        },
        {
          "components": [
            {
              "internalType": "address",
              "name": "token",
              "type": "address"
            },
            {
              "internalType": "uint256",
              "name": "amount",
              "type": "uint256"
            },
            {
              "internalType": "uint256",
              "name": "deadline",
              "type": "uint256"
            },
            {
              "internalType": "uint8",
              "name": "v",
              "type": "uint8"
            },
            {
              "internalType": "bytes32",
              "name": "r",
              "type": "bytes32"
            },
            {
              "internalType": "bytes32",
              "name": "s",
              "type": "bytes32"
            },
            {
              "components": [
                {
                  "internalType": "address",
                  "name": "recipientAddress",
                  "type": "address"
                },
                {
                  "internalType": "uint256",
                  "name": "amount",
                  "type": "uint256"
                },
                {
                  "internalType": "bool",
                  "name": "wrap",
                  "type": "bool"
                },
                {
                  "internalType": "bool",
                  "name": "unwrap",
                  "type": "bool"
                },
                {
                  "internalType": "bool",
                  "name": "mint",
                  "type": "bool"
                },
                {
                  "internalType": "bool",
                  "name": "burn",
                  "type": "bool"
                }
              ],
              "internalType": "struct BridgeUpgrade.Recipient[]",
              "name": "recipients",
              "type": "tuple[]"
            }
          ],
          "internalType": "struct BridgeUpgrade.PermitData[]",
          "name": "permits",
          "type": "tuple[]"
        },
        {
          "components": [
            {
              "internalType": "uint256",
              "name": "amount",
              "type": "uint256"
            },
            {
              "internalType": "bytes",
              "name": "publicKey",
              "type": "bytes"
            },
            {
              "internalType": "address",
              "name": "prerotatedKeyHash",
              "type": "address"
            },
            {
              "internalType": "address",
              "name": "twicePrerotatedKeyHash",
              "type": "address"
            },
            {
              "internalType": "address",
              "name": "prevPublicKeyHash",
              "type": "address"
            },
            {
              "internalType": "address",
              "name": "outputAddress",
              "type": "address"
            }
          ],
          "internalType": "struct BridgeUpgrade.Params",
          "name": "unconfirmed",
          "type": "tuple"
        },
        {
          "internalType": "bytes",
          "name": "unconfirmedSignature",
          "type": "bytes"
        },
        {
          "components": [
            {
              "internalType": "uint256",
              "name": "amount",
              "type": "uint256"
            },
            {
              "internalType": "bytes",
              "name": "publicKey",
              "type": "bytes"
            },
            {
              "internalType": "address",
              "name": "prerotatedKeyHash",
              "type": "address"
            },
            {
              "internalType": "address",
              "name": "twicePrerotatedKeyHash",
              "type": "address"
            },
            {
              "internalType": "address",
              "name": "prevPublicKeyHash",
              "type": "address"
            },
            {
              "internalType": "address",
              "name": "outputAddress",
              "type": "address"
            }
          ],
          "internalType": "struct BridgeUpgrade.Params",
          "name": "confirming",
          "type": "tuple"
        },
        {
          "internalType": "bytes",
          "name": "confirmingSignature",
          "type": "bytes"
        }
      ],
      "name": "registerKeyPairWithTransfer",
      "outputs": [],
      "stateMutability": "payable",
      "type": "function"
    },
    {
      "inputs": [],
      "name": "relayer",
      "outputs": [
        {
          "internalType": "address",
          "name": "",
          "type": "address"
        }
      ],
      "stateMutability": "view",
      "type": "function"
    },
    {
      "inputs": [],
      "name": "renounceOwnership",
      "outputs": [],
      "stateMutability": "nonpayable",
      "type": "function"
    },
    {
      "inputs": [
        {
          "internalType": "address",
          "name": "_feeCollector",
          "type": "address"
        }
      ],
      "name": "setFeeCollector",
      "outputs": [],
      "stateMutability": "nonpayable",
      "type": "function"
    },
    {
      "inputs": [
        {
          "internalType": "address",
          "name": "_signer",
          "type": "address"
        }
      ],
      "name": "setFeeSigner",
      "outputs": [],
      "stateMutability": "nonpayable",
      "type": "function"
    },
    {
      "inputs": [
        {
          "internalType": "address",
          "name": "_wrappedTokenBeacon",
          "type": "address"
        }
      ],
      "name": "setWrappedTokenBeacon",
      "outputs": [],
      "stateMutability": "nonpayable",
      "type": "function"
    },
    {
      "inputs": [
        {
          "internalType": "uint256",
          "name": "",
          "type": "uint256"
        }
      ],
      "name": "supportedOriginalTokens",
      "outputs": [
        {
          "internalType": "address",
          "name": "",
          "type": "address"
        }
      ],
      "stateMutability": "view",
      "type": "function"
    },
    {
      "inputs": [
        {
          "internalType": "address",
          "name": "",
          "type": "address"
        }
      ],
      "name": "tokenPairs",
      "outputs": [
        {
          "internalType": "address",
          "name": "originalToken",
          "type": "address"
        },
        {
          "internalType": "address",
          "name": "wrappedToken",
          "type": "address"
        }
      ],
      "stateMutability": "view",
      "type": "function"
    },
    {
      "inputs": [
        {
          "internalType": "address",
          "name": "newOwner",
          "type": "address"
        }
      ],
      "name": "transferOwnership",
      "outputs": [],
      "stateMutability": "nonpayable",
      "type": "function"
    },
    {
      "inputs": [
        {
          "internalType": "address",
          "name": "newImplementation",
          "type": "address"
        },
        {
          "internalType": "bytes",
          "name": "data",
          "type": "bytes"
        }
      ],
      "name": "upgradeToAndCall",
      "outputs": [],
      "stateMutability": "payable",
      "type": "function"
    },
    {
      "inputs": [],
      "name": "wrappedTokenBeacon",
      "outputs": [
        {
          "internalType": "address",
          "name": "",
          "type": "address"
        }
      ],
      "stateMutability": "view",
      "type": "function"
    }
  ],
  "bytecode": "0x60a0806040523461002a573060805261340890816100308239608051818181611ea00152611f4f0152f35b600080fdfe60808060405260043610156200001457600080fd5b60003560e01c90816307569339146200245c57508063081da8c114620023fe578063276c1ac014620023b15780632f91be48146200236057806342907696146200233557806347bbbdf514620022d9578063485cc955146200211c5780634f1ef2861462001f0b57806352d1902d1462001e8b578063602db8901462001e3f578063715018a61462001dd05780637e1aa1781462001d815780637ecebe001462001d435780638406c0791462001d18578063893d20e81462001cdf5780638da5cb5b1462001cdf5780638f2dd2de1462001c90578063a42dce801462001c2f578063ad3cb1cc1462001bdf578063b5057a7b1462001bb4578063bc04f56114620003cb578063c415b95c14620003a0578063d3c7c2c714620002d0578063d8397fd514620002895763f2fde38b146200014c57600080fd5b346200025d5760203660031901126200025d576200016962002482565b62000173620028e4565b6001600160a01b03818116919082156200027757600054600080516020620033938339815191525460405163031fb6df60e31b81529083166001600160a01b039081166004830152841660248201529160209183916044918391165afa9081156200026b5760009162000224575b5015620002125762000210916001600160601b0360a01b60025416176002556200020a620028e4565b62002b62565b005b60405163b012a29560e01b8152600490fd5b90506020813d60201162000262575b816200024260209383620024de565b810103126200025d575180151581036200025d5738620001e1565b600080fd5b3d915062000233565b6040513d6000823e3d90fd5b60405163d92e233d60e01b8152600490fd5b346200025d5760203660031901126200025d576004356007548110156200025d57620002b76020916200261e565b905460405160039290921b1c6001600160a01b03168152f35b346200025d5760003660031901126200025d57604051806007548083526020809301809160076000527fa66cc928b5edb82af9bd49922954155ab7b0942694bea4ce44661d9a8736c6889060005b86828210620003825786866200033782880383620024de565b604051928392818401908285525180915260408401929160005b8281106200036157505050500390f35b83516001600160a01b03168552869550938101939281019260010162000351565b83546001600160a01b0316855290930192600192830192016200031e565b346200025d5760003660031901126200025d576002546040516001600160a01b039091168152602090f35b6101003660031901126200025d57620003e362002482565b6001600160401b03602435116200025d576080602435360360031901126200025d576044356001600160401b0381116200025d5762000427903690600401620025bb565b91906064356001600160401b0381116200025d576200044b903690600401620025bb565b9390916001600160401b03608435116200025d5760c0608435360360031901126200025d576001600160401b0360a435116200025d57620004923660a435600401620025ee565b6001600160401b0360c435116200025d5760c060c435360360031901126200025d576001600160401b0360e435116200025d57620004d63660e435600401620025ee565b9190926002600080516020620033b3833981519152541462001ba2576002600080516020620033b38339815191525533600052600660205260406000205491886040516200054781620005388760208301958d8d608435600401928962002714565b03601f198101835282620024de565b5190206001600160a01b036200056260843560a4016200288c565b16156200027757604062000581602460843501608435600401620028a1565b90500362001b9057620005c7620005ce93620005be620005b8620005b0602460843501608435600401620028a1565b36916200251c565b6200266c565b9336916200251c565b906200291f565b15620014f1576001600160a01b03620005ec60c43560a4016200288c565b1662001ae8575b50505060005b828110620017df57506001600160a01b0391506200061e905060c43560a4016200288c565b161515928062000b02575b5050506000146200090a576000546001600160a01b0316620006556084356024810190600401620028a1565b9190620006676044608435016200288c565b92620006786064608435016200288c565b936200068860848035016200288c565b6200069860a4608435016200288c565b620006ae602460c4350160c435600401620028a1565b90620006bf604460c435016200288c565b94620006d0606460c435016200288c565b92620006e1608460c435016200288c565b94620006f260a460c435016200288c565b968b3b156200025d576040516385687dcd60e01b815261014060048201529c8d9b8c9b62000727916101448e019190620026f3565b6001600160a01b0395861660248d015290851660448c015290841660648b0152921660848901528782036003190160a48901526200076592620026f3565b6001600160a01b0394851660c487015290841660e4860152908316610104850152911661012483015203815a6000948591f180156200026b57620008f8575b5060008051602062003393833981519152546001600160a01b031633811462000813575b505b336000526006602052604060002080549060028201809211620007fd57556001600080516020620033b383398151915255005b634e487b7160e01b600052601160045260246000fd5b62000823604460c435016200288c565b6200082d620028e4565b6001600160a01b038116918215620002775760005460405163031fb6df60e31b81526001600160a01b03928316600482015283831660248201529160209183916044918391165afa9081156200026b57600091620008b6575b50156200021257620008af916001600160601b0360a01b60025416176002556200020a620028e4565b80620007c8565b90506020813d602011620008ef575b81620008d460209383620024de565b810103126200025d575180151581036200025d578362000886565b3d9150620008c5565b6200090390620024ca565b80620007a4565b6000546001600160a01b03166200092b6084356024810190600401620028a1565b6200093e6044608494939435016200288c565b916200094f6064608435016200288c565b936200095f60848035016200288c565b6200096f60a4608435016200288c565b93833b156200025d57600095620009a8958793604051998a98899788966330a6293b60e11b885260a0600489015260a4880191620026f3565b6001600160a01b039485166024870152908416604486015290831660648501529116608483015203925af180156200026b5762000af0575b5060008051602062003393833981519152546001600160a01b031633811462000a0b575b50620007ca565b62000a1b6044608435016200288c565b62000a25620028e4565b6001600160a01b038116918215620002775760005460405163031fb6df60e31b81526001600160a01b03928316600482015283831660248201529160209183916044918391165afa9081156200026b5760009162000aae575b5015620002125762000aa7916001600160601b0360a01b60025416176002556200020a620028e4565b8062000a04565b90506020813d60201162000ae7575b8162000acc60209383620024de565b810103126200025d575180151581036200025d578362000a7e565b3d915062000abd565b62000afb90620024ca565b80620009e0565b8315620017c85762000b19604460c435016200288c565b905b6000908180805b838110620016f4575b5015620016e25780620016be575b6200021257600094939194935b81851062000b575750505062000629565b62000b7362000b6d8684869798999a9662002977565b620029a9565b80519097600194909160009081906001600160a01b03868116911614620015f8575b8a516001600160a01b031615159182620015ee575b5081620015e4575b506200153d575b8415620013f6575b88516001600160a01b03161593600091825b60c08c0151805185101562001357578462000bee9162002b2b565b5180519091906001600160a01b031615620002775760208201518d81156200134a57602001511062001338578c606083015115158062001321575b1562000e9f57516040516370a0823160e01b815233600482015290602090829060249082906001600160a01b03165afa9081156200026b5760009162000e67575b5060208301518091106200025d578d5162000c939190309033906001600160a01b031662002c1a565b8c51602083015191906001600160a01b0316803b156200025d57604051632770a7eb60e21b815230600482015260248101939093526000908390604490829084905af19283156200026b578e62000dba9360019562000e55575b50848060a01b0381511660005260056020528d6040600020906040519162000d1583620024ae565b878060a01b03815416835287808060a01b03910154166020830152670de0b6b3a764000062000d4f60208601516024803501359062002b40565b049062000d6182602087015162002b54565b90888060a01b03845116801560001462000e12575062000d8392935062002c77565b8062000df6575b505b8d62000da2602083015160208501519062002b54565b918262000dc4575b5050506020905b015190620028d6565b935b019262000bd3565b9362000de58362000deb94936020969733908b8060a01b0390511662002c1a565b620028d6565b91908f8e9062000daa565b62000e0b90868060a01b036002541662002c77565b3862000d8a565b9062000e1f929162002c95565b8062000e2e575b505062000d8c565b62000e4d91878060a01b03905116878060a01b03600254169062002c95565b388062000e26565b62000e6090620024ca565b3862000ced565b90506020813d60201162000e96575b8162000e8560209383620024de565b810103126200025d57518e62000c6a565b3d915062000e76565b5060a08201511515806200130a575b1562000f3b578c51825160208401516001600160a01b03928316939290911690833b156200025d57604051632770a7eb60e21b81526001600160a01b0390921660048301526024820152916000908390818381604481015b03925af180156200026b5760019362000dba9360209262000f29575b5062000db1565b62000f3490620024ca565b3862000f22565b6080820151151580620012f3575b1562000fcf5762000f7e670de0b6b3a764000062000f7260208501516024803501359062002b40565b04602084015162002b54565b8d5183516001600160a01b039182169392911690833b156200025d576040516340c10f1960e01b81526001600160a01b03909216600483015260248201529160009083908183816044810162000f06565b8c896040840151151580620012dc575b156200127357505060018060a01b038d51166000526005602052604060002090604051916200100e83620024ae565b80546001600160a01b039081168452600190910154166020830152886200125a5781516040516370a0823160e01b815233600482015290602090829060249082906001600160a01b03165afa9081156200026b5760009162001222575b506020840151116200025d575b620010c4670de0b6b3a76400006200109b60208601516024803501359062002b40565b04928a15620011d15783620011b2575b602060018060a01b039101511692602085015162002b54565b91803b156200025d576040516340c10f1960e01b81526001600160a01b038e16600482015260248101939093526000908390604490829084905af19283156200026b578c8f62000dba94600196620011a0575b506020830151602082015180821062001138575b5050505060209062000db1565b90620011449162002b54565b918b8362001156575b8193506200112b565b918360209596926200117f95948a8060a01b0316156000146200118a5762000de5925062002c77565b91908f8e8b6200114d565b62000de59233908b8060a01b0390511662002c1a565b620011ab90620024ca565b3862001117565b600254620011cb9085906001600160a01b031662002c77565b620010ab565b620011fa60018060a01b03825116620011ef86602089015162002b54565b903090339062002c1a565b8315620010ab578051600254620011cb9186916001600160a01b039081169133911662002c1a565b90506020813d60201162001251575b816200124060209383620024de565b810103126200025d57518f6200106b565b3d915062001231565b956200126c90602084015190620028d6565b9562001078565b60019362000dba93926020926200128b575062000db1565b8b15620012b25750620012ab858060a01b03825116838301519062002c77565b8f62000f22565b620012d690868060a01b03905116868060a01b038351168484015191339062002c1a565b620012ab565b5081516001600160a01b038a811691161462000fdf565b508c516001600160a01b0388811691161462000f49565b508c516001600160a01b0388811691161462000eae565b5080516001600160a01b0389811691161462000c29565b60405163143d1ae760e21b8152600490fd5b5050936001915062000dbc565b50939691955099915097929796959662001394575b6020015103620013825760010193919462000b46565b6040516312171d8360e31b8152600490fd5b620013a482602083015162002b54565b80620013b2575b506200136c565b9091602091620013d7916001600160a01b038b16620013df5762000de5828a62002c77565b9190620013ab565b62000de5828a3360018060a01b0389511662002c1a565b4260446024350135106200152b57670de0b6b3a7640000602480350135116200151957620014296024356004016200288c565b6040519060018060a01b0316602082015260248035013560408201526060604460243501358183015281528060808101106001600160401b03608083011117620015035760808101604052602081519101207f19457468657265756d205369676e6564204d6573736167653a0a333200000000600052601c52620014da620014d0603c600020620014c9620005b0606460243501602435600401620028a1565b9062002cda565b9092919262002d19565b6003546001600160a01b0391821691161462000bc1575b604051638baa579f60e01b8152600490fd5b634e487b7160e01b600052604160045260246000fd5b604051630adad23360e31b8152600490fd5b6040516305787bdf60e01b8152600490fd5b604089015142116200152b57885160208a015160408b015160608c015160808d015160a08e015160ff909216946001600160a01b03169390843b156200025d5760009460e4938692604051988997889663d505accf60e01b885233600489015230602489015260448801526064870152608486015260a485015260c48401525af180156200026b57620015d2575b5062000bb9565b620015dd90620024ca565b89620015cb565b9050158a62000bb2565b1591508b62000baa565b9997959392949190989660005b60c08a01518051821015620016ac5781620016209162002b2b565b516040810151158015906200169e575b801562001690575b801562001682575b62001678575b60808101516200166e575b60a0015162001664575b60010162001605565b60019b506200165b565b60019b5062001651565b6000965062001646565b5060a0810151151562001640565b506060810151151562001638565b506080810151151562001630565b50509698909194929395979962000b95565b5060008051602062003393833981519152546001600160a01b031633141562000b39565b604051633bee968760e01b8152600490fd5b6200170562000b6d82868a62002977565b80516001600160a01b03168015620017be575b6001600160a01b038a161462001733575b5060010162000b22565b979593919096949260c060009901985b89518051821015620017ac57816200175b9162002b2b565b51608081015115908115916200179d575b506200177b5760010162001743565b5050909294965060019591939591825b62001797578962001729565b62000b2b565b60a09150015115158c6200176c565b5050809395979192949698506200178b565b6001935062001718565b620017d86044608435016200288c565b9062000b1b565b8060051b820135607e19833603018112156200025d5760808184013603126200025d57604051908160808101106001600160401b036080840111176200150357608082016040526200183381850162002499565b82526001600160401b0360208286010135116200025d576200185e3685830160208101350162002558565b60208301526001600160401b0360408286010135116200025d576200188c3685830160408101350162002558565b6040830152620018a26060809286010162002499565b8282015281516001600160a01b039081166000908152600560205260409020600101541662001ad6578101516001600160a01b03168015620019f2575b8151604051906001600160a01b0316620018f982620024ae565b81526001600160a01b0391821660208083018281528551851660009081526005909252604091829020935184549086166001600160a01b031991821617855590516001948501805491871691831691909117905585519151929490939291166200196382620024ae565b815260208101938085526000526005602052604060002090828060a01b0390511683825416178155019160018060a01b039051169082541617905560018060a01b039051169060075491680100000000000000008310156200150357620019d28360018095016007556200261e565b819291549060031b91821b91858060a01b03901b191617905501620005f9565b5062001a3a62001a686020830151604084015162001a4d60018060a01b0360005416916040519586946303bf912560e11b60208701526080602487015260a486019062002579565b8481036023190160448601529062002579565b90306064840152608483015203601f198101835282620024de565b60045460405191906001600160a01b03166001600160401b036104948401908111908411176200150357829162001abb9161049462002eff85396104948401908152604060208201819052019062002579565b03906000f080156200026b576001600160a01b0316620018df565b604051636bb9e87d60e01b8152600490fd5b600181018111620007fd5760405162001b18816200053860016020830195018b8a8a60c435600401928962002714565b519020604062001b33602460c4350160c435600401620028a1565b90500362001b90576001600160a01b0362001b5360c43560a4016200288c565b16156200027757620005c762001b8193620005be620005b8620005b0602460c4350160c435600401620028a1565b15620014f157858080620005f3565b60405163145a1fdd60e31b8152600490fd5b604051633ee5aeb560e01b8152600490fd5b346200025d5760003660031901126200025d576000546040516001600160a01b039091168152602090f35b346200025d5760003660031901126200025d5762001c2b60405162001c0481620024ae565b60058152640352e302e360dc1b602082015260405191829160208352602083019062002579565b0390f35b346200025d5760203660031901126200025d5762001c4c62002482565b62001c56620028e4565b6001600160a01b0316801562001c7e576001600160601b0360a01b6002541617600255600080f35b60405163bb0bac9960e01b8152600490fd5b346200025d5760203660031901126200025d5762001cad62002482565b62001cb7620028e4565b6001600160a01b0316801562000277576001600160601b0360a01b6004541617600455600080f35b346200025d5760003660031901126200025d5760008051602062003393833981519152546040516001600160a01b039091168152602090f35b346200025d5760003660031901126200025d576001546040516001600160a01b039091168152602090f35b346200025d5760203660031901126200025d576001600160a01b0362001d6862002482565b1660005260066020526020604060002054604051908152f35b346200025d5760203660031901126200025d5762001d9e62002482565b62001da8620028e4565b6001600160a01b0316801562000277576001600160601b0360a01b6003541617600355600080f35b346200025d5760003660031901126200025d5762001ded620028e4565b6000805160206200339383398151915280546001600160a01b031981169091556000906001600160a01b03167f8be0079c531659141344cd1fd0a4f28419497f9722a3daafe3b4186f6b6457e08280a3005b346200025d5760203660031901126200025d5762001e5c62002482565b62001e66620028e4565b479081156200025d57600080809381935af162001e826200268a565b50156200025d57005b346200025d5760003660031901126200025d577f00000000000000000000000000000000000000000000000000000000000000006001600160a01b0316300362001ef95760206040517f360894a13ba1a3210667c828492db98dca3e2076cc3735a920a3ca505d382bbc8152f35b60405163703e46dd60e11b8152600490fd5b60403660031901126200025d5762001f2262002482565b6024356001600160401b0381116200025d5762001f4490369060040162002558565b906001600160a01b037f00000000000000000000000000000000000000000000000000000000000000008116308114908115620020ed575b5062001ef95762001f8c620028e4565b8116906040516352d1902d60e01b8152602081600481865afa60009181620020b3575b5062001fce57604051634c9c8ce360e01b815260048101849052602490fd5b7f360894a13ba1a3210667c828492db98dca3e2076cc3735a920a3ca505d382bbc929192908181036200209b5750823b15620020825780546001600160a01b03191682179055604051907fbc7cd75a20ee27fd9adebab32041f755214dbc6bffa90cc0225b39da2e5c2d3b600080a28251156200206857506000808360206200021095519101845af4620020616200268a565b9162002e03565b915050346200207357005b63b398979f60e01b8152600490fd5b604051634c9c8ce360e01b815260048101839052602490fd5b60249060405190632a87526960e21b82526004820152fd5b9091506020813d602011620020e4575b81620020d260209383620024de565b810103126200025d5751908562001faf565b3d9150620020c3565b9050817f360894a13ba1a3210667c828492db98dca3e2076cc3735a920a3ca505d382bbc541614158462001f7c565b346200025d5760403660031901126200025d576200213962002482565b6001600160a01b0390602435828116908190036200025d577ff0c57e16840df040f15088dc2f81fe391c3923bec73e23a9662efc9c229c6a009283549260ff8460401c1615936001600160401b03811680159081620022d0575b6001149081620022c5575b159081620022bb575b50620022a95767ffffffffffffffff19811660011786558462002289575b50620021d062002bd8565b620021da62002bd8565b620021e53362002b62565b620021ef62002bd8565b620021f962002bd8565b6200220362002bd8565b6001600080516020620033b38339815191525516801562000277576001600160601b0360a01b908160005416176000553381600254161760025560045416176004556200224c57005b68ff00000000000000001981541690557fc7f505b2f371ae2175ee4913f4499e1f2633a7b5936321eed1cdaeb6115181d2602060405160018152a1005b68ffffffffffffffffff19166801000000000000000117855585620021c5565b60405163f92ee8a960e01b8152600490fd5b90501587620021a7565b303b1591506200219e565b86915062002193565b346200025d5760203660031901126200025d576001600160a01b0380620022ff62002482565b16600090815260056020908152604091829020805460019091015483516001600160a01b03928616831681529416169083015290f35b346200025d5760003660031901126200025d576004546040516001600160a01b039091168152602090f35b346200025d5760003660031901126200025d5762001c2b6040516200238581620024ae565b600a8152696272696467652076313160b01b602082015260405191829160208352602083019062002579565b346200025d5760203660031901126200025d576004356001600160401b0381116200025d57620023ec620005b8602092369060040162002558565b6040516001600160a01b039091168152f35b346200025d5760203660031901126200025d576020806001600160a01b03806200242762002482565b16600052600582526040600020906001604051926200244684620024ae565b8281541684520154169182910152604051908152f35b346200025d5760003660031901126200025d576003546001600160a01b03168152602090f35b600435906001600160a01b03821682036200025d57565b35906001600160a01b03821682036200025d57565b604081019081106001600160401b038211176200150357604052565b6001600160401b0381116200150357604052565b90601f801991011681019081106001600160401b038211176200150357604052565b6001600160401b0381116200150357601f01601f191660200190565b9291926200252a8262002500565b916200253a6040519384620024de565b8294818452818301116200025d578281602093846000960137010152565b9080601f830112156200025d5781602062002576933591016200251c565b90565b919082519283825260005b848110620025a6575050826000602080949584010152601f8019910116010190565b60208183018101518483018201520162002584565b9181601f840112156200025d578235916001600160401b0383116200025d576020808501948460051b0101116200025d57565b9181601f840112156200025d578235916001600160401b0383116200025d57602083818601950101116200025d57565b600754811015620026565760076000527fa66cc928b5edb82af9bd49922954155ab7b0942694bea4ce44661d9a8736c6880190600090565b634e487b7160e01b600052603260045260246000fd5b604081510362001b905780516020909101206001600160a01b031690565b3d15620026ba573d906200269e8262002500565b91620026ae6040519384620024de565b82523d6000602084013e565b606090565b9035601e19823603018112156200025d5701602081359101916001600160401b0382116200025d5781360383136200025d57565b908060209392818452848401376000828201840152601f01601f1916010190565b94929095936080928387019060018060a01b0380991688528360209286848b01525260a0880160a08560051b8a010194826000906000915b838310620027e75750505050505096620027de60a080936200279b8a9b8b604060609b9c9d8a039101528235885260c06200278a82850185620026bf565b9190928a015260c0890191620026f3565b9684620027ab6040840162002499565b16604088015284620027bf8a840162002499565b168988015284620027d282840162002499565b16908701520162002499565b16910152930152565b909192939497609f198d82030186528835607e19843603018112156200288857878f6001938d6200286562002847898697019285620028268562002499565b1685526200283787850185620026bf565b90918089880152860191620026f3565b60406200285781850185620026bf565b9186840390870152620026f3565b9262002875606080930162002499565b169101529a01960194930191906200274c565b8280fd5b356001600160a01b03811681036200025d5790565b903590601e19813603018212156200025d57018035906001600160401b0382116200025d576020019181360383136200025d57565b91908201809211620007fd57565b60008051602062003393833981519152546001600160a01b031633036200290757565b60405163118cdaa760e01b8152336004820152602490fd5b6200296692916200295c917f19457468657265756d205369676e6564204d6573736167653a0a333200000000600052601c52603c60002062002cda565b9093919362002d19565b6001600160a01b0391821691161490565b9190811015620026565760051b8101359060de19813603018212156200025d570190565b359081151582036200025d57565b60e0813603126200025d5760408051916001600160401b0360e084018181118582101762001503578352620029de8262002499565b845260208083013581860152838301358486015260608084013560ff811681036200025d5760608701526080926080850135608088015260a08086013560a089015260c09586810135908382116200025d57019436601f870112156200025d57853593838511620015035788519862002a5d878760051b018b620024de565b858a528689818c019702890101973689116200025d578701955b88871062002a8e5750505050505050505082015290565b89873603126200025d578151908a8201908282108883111762002b16578b928a92855262002abc8a62002499565b8152828a01358382015262002ad3858b016200299b565b8582015262002ae4868b016200299b565b8682015262002af5878b016200299b565b8782015262002b06888b016200299b565b8882015281520196019562002a77565b60246000634e487b7160e01b81526041600452fd5b8051821015620026565760209160051b010190565b81810292918115918404141715620007fd57565b91908203918211620007fd57565b6001600160a01b0390811690811562002bbf576000805160206200339383398151915280546001600160a01b031981168417909155167f8be0079c531659141344cd1fd0a4f28419497f9722a3daafe3b4186f6b6457e0600080a3565b604051631e4fbdf760e01b815260006004820152602490fd5b60ff7ff0c57e16840df040f15088dc2f81fe391c3923bec73e23a9662efc9c229c6a005460401c161562002c0857565b604051631afcd79f60e31b8152600490fd5b6040516323b872dd60e01b60208201526001600160a01b03928316602482015292909116604483015260648083019390935291815260a08101918183106001600160401b03841117620015035762002c759260405262002da3565b565b60008080938193617530f162002c8c6200268a565b50156200138257565b60405163a9059cbb60e01b60208201526001600160a01b0392909216602483015260448083019390935291815262002c759162002cd4606483620024de565b62002da3565b815191906041830362002d0e5762002d0792506020820151906060604084015193015160001a9062002e6b565b9192909190565b505060009160029190565b600481101562002d8d578062002d2d575050565b6001810362002d485760405163f645eedf60e01b8152600490fd5b6002810362002d6a5760405163fce698f760e01b815260048101839052602490fd5b60031462002d755750565b602490604051906335e2f38360e21b82526004820152fd5b634e487b7160e01b600052602160045260246000fd5b906000602091828151910182855af1156200026b576000513d62002df957506001600160a01b0381163b155b62002dd75750565b604051635274afe760e01b81526001600160a01b039091166004820152602490fd5b6001141562002dcf565b9062002e2c575080511562002e1a57805190602001fd5b60405163d6bda27560e01b8152600490fd5b8151158062002e61575b62002e3f575090565b604051639996b31560e01b81526001600160a01b039091166004820152602490fd5b50803b1562002e36565b91907f7fffffffffffffffffffffffffffffff5d576e7357a4501ddfe92f46681b20a0841162002ef257926020929160ff608095604051948552168484015260408301526060820152600092839182805260015afa1562002ee65780516001600160a01b0381161562002edd57918190565b50809160019190565b604051903d90823e3d90fd5b5050506000916003919056fe60a0604090808252346101eb57610494803803809161001e828561029a565b8339810182828203126101eb57610034826102d3565b60208084015191939091906001600160401b0382116101eb570182601f820112156101eb57805190610065826102e7565b936100728751958661029a565b8285528383830101116101eb57829060005b83811061028657505060009184010152823b15610266577fa3f0ad74e5423aebfd80d3ef4346578335a9a72aeaee59ff6cb3582b35133d5080546001600160a01b0319166001600160a01b038581169182179092558551635c60da1b60e01b8082529194928482600481895afa91821561025b57600092610224575b50813b1561020b575050837f1cf3b03a6cf19fa2baba4df148e9dcabedea7f8a5c07840e207e5c089be95d3e600080a2815115610202578290600487518096819382525afa9283156101f7576000936101b5575b5091600080848461019296519101845af4903d156101ac573d610176816102e7565b906101838851928361029a565b8152600081943d92013e610302565b505b6080525161012e908161036682396080518160180152f35b60609250610302565b92508183813d83116101f0575b6101cc818361029a565b810103126101eb576000806101e3610192956102d3565b945050610154565b600080fd5b503d6101c2565b85513d6000823e3d90fd5b50505050610194565b8751634c9c8ce360e01b81529116600482015260249150fd5b9091508481813d8311610254575b61023c818361029a565b810103126101eb5761024d906102d3565b9038610100565b503d610232565b88513d6000823e3d90fd5b8351631933b43b60e21b81526001600160a01b0384166004820152602490fd5b818101830151868201840152849201610084565b601f909101601f19168101906001600160401b038211908210176102bd57604052565b634e487b7160e01b600052604160045260246000fd5b51906001600160a01b03821682036101eb57565b6001600160401b0381116102bd57601f01601f191660200190565b90610329575080511561031757805190602001fd5b60405163d6bda27560e01b8152600490fd5b8151158061035c575b61033a575090565b604051639996b31560e01b81526001600160a01b039091166004820152602490fd5b50803b1561033256fe60806040819052635c60da1b60e01b81526020816004817f00000000000000000000000000000000000000000000000000000000000000006001600160a01b03165afa90811560a9576000916054575b5060da565b905060203d60201160a3575b601f8101601f191682019167ffffffffffffffff831181841017608d576088926040520160b5565b38604f565b634e487b7160e01b600052604160045260246000fd5b503d6060565b6040513d6000823e3d90fd5b602090607f19011260d5576080516001600160a01b038116810360d55790565b600080fd5b6000808092368280378136915af43d82803e1560f4573d90f35b3d90fdfea2646970667358221220b642a315c875b99fe477933660ffe34497f9b4c9976cb8843c721c1c7db2123d64736f6c634300081800339016d09d72d40fdae2fd8ceac6b6234c7706214fd39c1cd1e609a0528c1993009b779b17422d0df92223018b32b4d1fa46e071723d6817e2486d003becc55f00a264697066735822122081d13d681620a108f8bfd940164c6ed7209e0a75b63465190f5bfdd32feea24864736f6c63430008180033",
  "linkReferences": {},
  "deployedLinkReferences": {}
}