{
  "_format": "hh-sol-artifact-1",
  "contractName": "Bridge",
  "sourceName": "contracts/Bridge.sol",
  "abi": [
    {
      "inputs": [
        {
          "internalType": "address",
          "name": "target",
          "type": "address"
        }
      ],
      "name": "AddressEmptyCode",
      "type": "error"
    },
    {
      "inputs": [],
      "name": "AmountTooLow",
      "type": "error"
    },
    {
      "inputs": [],
      "name": "BurnAmountZero",
      "type": "error"
    },
    {
      "inputs": [],
      "name": "ECDSAInvalidSignature",
      "type": "error"
    },
    {
      "inputs": [
        {
          "internalType": "uint256",
          "name": "length",
          "type": "uint256"
        }
      ],
      "name": "ECDSAInvalidSignatureLength",
      "type": "error"
    },
    {
      "inputs": [
        {
          "internalType": "bytes32",
          "name": "s",
          "type": "bytes32"
        }
      ],
      "name": "ECDSAInvalidSignatureS",
      "type": "error"
    },
    {
      "inputs": [
        {
          "internalType": "address",
          "name": "implementation",
          "type": "address"
        }
      ],
      "name": "ERC1967InvalidImplementation",
      "type": "error"
    },
    {
      "inputs": [],
      "name": "ERC1967NonPayable",
      "type": "error"
    },
    {
      "inputs": [],
      "name": "EthTransferFailed",
      "type": "error"
    },
    {
      "inputs": [],
      "name": "FailedCall",
      "type": "error"
    },
    {
      "inputs": [],
      "name": "FeeTooHigh",
      "type": "error"
    },
    {
      "inputs": [],
      "name": "FeeTransferFailed",
      "type": "error"
    },
    {
      "inputs": [],
      "name": "InsufficientAllowance",
      "type": "error"
    },
    {
      "inputs": [
        {
          "internalType": "address",
          "name": "token",
          "type": "address"
        }
      ],
      "name": "InsufficientPermits",
      "type": "error"
    },
    {
      "inputs": [],
      "name": "InvalidConfirmingSignature",
      "type": "error"
    },
    {
      "inputs": [],
      "name": "InvalidFeeCollector",
      "type": "error"
    },
    {
      "inputs": [],
      "name": "InvalidInitialization",
      "type": "error"
    },
    {
      "inputs": [],
      "name": "InvalidPrerotatedKeyHash",
      "type": "error"
    },
    {
      "inputs": [],
      "name": "InvalidPriceFeed",
      "type": "error"
    },
    {
      "inputs": [],
      "name": "InvalidPublicKey",
      "type": "error"
    },
    {
      "inputs": [],
      "name": "InvalidUnconfirmedSignature",
      "type": "error"
    },
    {
      "inputs": [],
      "name": "NoTokenPairs",
      "type": "error"
    },
    {
      "inputs": [],
      "name": "NotInitializing",
      "type": "error"
    },
    {
      "inputs": [
        {
          "internalType": "address",
          "name": "owner",
          "type": "address"
        }
      ],
      "name": "OwnableInvalidOwner",
      "type": "error"
    },
    {
      "inputs": [
        {
          "internalType": "address",
          "name": "account",
          "type": "address"
        }
      ],
      "name": "OwnableUnauthorizedAccount",
      "type": "error"
    },
    {
      "inputs": [],
      "name": "ReentrancyGuardReentrantCall",
      "type": "error"
    },
    {
      "inputs": [],
      "name": "RestrictedToOwnerRelayer",
      "type": "error"
    },
    {
      "inputs": [],
      "name": "TokenPairExists",
      "type": "error"
    },
    {
      "inputs": [],
      "name": "TokenPairNotSupported",
      "type": "error"
    },
    {
      "inputs": [],
      "name": "TransferFailed",
      "type": "error"
    },
    {
      "inputs": [],
      "name": "UUPSUnauthorizedCallContext",
      "type": "error"
    },
    {
      "inputs": [
        {
          "internalType": "bytes32",
          "name": "slot",
          "type": "bytes32"
        }
      ],
      "name": "UUPSUnsupportedProxiableUUID",
      "type": "error"
    },
    {
      "inputs": [],
      "name": "ZeroAddress",
      "type": "error"
    },
    {
      "anonymous": false,
      "inputs": [
        {
          "indexed": false,
          "internalType": "uint64",
          "name": "version",
          "type": "uint64"
        }
      ],
      "name": "Initialized",
      "type": "event"
    },
    {
      "anonymous": false,
      "inputs": [
        {
          "indexed": true,
          "internalType": "address",
          "name": "previousOwner",
          "type": "address"
        },
        {
          "indexed": true,
          "internalType": "address",
          "name": "newOwner",
          "type": "address"
        }
      ],
      "name": "OwnershipTransferred",
      "type": "event"
    },
    {
      "anonymous": false,
      "inputs": [
        {
          "indexed": true,
          "internalType": "address",
          "name": "implementation",
          "type": "address"
        }
      ],
      "name": "Upgraded",
      "type": "event"
    },
    {
      "inputs": [],
      "name": "FEE_CAP_USD",
      "outputs": [
        {
          "internalType": "uint256",
          "name": "",
          "type": "uint256"
        }
      ],
      "stateMutability": "view",
      "type": "function"
    },
    {
      "inputs": [],
      "name": "FEE_DENOMINATOR",
      "outputs": [
        {
          "internalType": "uint256",
          "name": "",
          "type": "uint256"
        }
      ],
      "stateMutability": "view",
      "type": "function"
    },
    {
      "inputs": [],
      "name": "UPGRADE_INTERFACE_VERSION",
      "outputs": [
        {
          "internalType": "string",
          "name": "",
          "type": "string"
        }
      ],
      "stateMutability": "view",
      "type": "function"
    },
    {
      "inputs": [
        {
          "components": [
            {
              "internalType": "address",
              "name": "originalToken",
              "type": "address"
            },
            {
              "internalType": "string",
              "name": "tokenName",
              "type": "string"
            },
            {
              "internalType": "string",
              "name": "tokenSymbol",
              "type": "string"
            },
            {
              "internalType": "bool",
              "name": "isCrossChain",
              "type": "bool"
            },
            {
              "internalType": "address",
              "name": "wrappedToken",
              "type": "address"
            },
            {
              "internalType": "address",
              "name": "priceFeed",
              "type": "address"
            }
          ],
          "internalType": "struct Bridge.TokenPair[]",
          "name": "newTokenPairs",
          "type": "tuple[]"
        },
        {
          "components": [
            {
              "internalType": "bytes",
              "name": "signature",
              "type": "bytes"
            },
            {
              "internalType": "bytes",
              "name": "publicKey",
              "type": "bytes"
            },
            {
              "internalType": "address",
              "name": "publicKeyHash",
              "type": "address"
            },
            {
              "internalType": "address",
              "name": "prerotatedKeyHash",
              "type": "address"
            },
            {
              "internalType": "address",
              "name": "twicePrerotatedKeyHash",
              "type": "address"
            },
            {
              "internalType": "address",
              "name": "prevPublicKeyHash",
              "type": "address"
            },
            {
              "internalType": "address",
              "name": "outputAddress",
              "type": "address"
            },
            {
              "internalType": "bool",
              "name": "hasRelationship",
              "type": "bool"
            },
            {
              "components": [
                {
                  "internalType": "address",
                  "name": "token",
                  "type": "address"
                },
                {
                  "internalType": "uint256",
                  "name": "amount",
                  "type": "uint256"
                },
                {
                  "internalType": "uint256",
                  "name": "deadline",
                  "type": "uint256"
                },
                {
                  "internalType": "uint8",
                  "name": "v",
                  "type": "uint8"
                },
                {
                  "internalType": "bytes32",
                  "name": "r",
                  "type": "bytes32"
                },
                {
                  "internalType": "bytes32",
                  "name": "s",
                  "type": "bytes32"
                },
                {
                  "internalType": "address",
                  "name": "recipient",
                  "type": "address"
                }
              ],
              "internalType": "struct Bridge.PermitData[]",
              "name": "permits",
              "type": "tuple[]"
            }
          ],
          "internalType": "struct Bridge.KeyData",
          "name": "unconfirmed",
          "type": "tuple"
        },
        {
          "components": [
            {
              "internalType": "bytes",
              "name": "signature",
              "type": "bytes"
            },
            {
              "internalType": "bytes",
              "name": "publicKey",
              "type": "bytes"
            },
            {
              "internalType": "address",
              "name": "publicKeyHash",
              "type": "address"
            },
            {
              "internalType": "address",
              "name": "prerotatedKeyHash",
              "type": "address"
            },
            {
              "internalType": "address",
              "name": "twicePrerotatedKeyHash",
              "type": "address"
            },
            {
              "internalType": "address",
              "name": "prevPublicKeyHash",
              "type": "address"
            },
            {
              "internalType": "address",
              "name": "outputAddress",
              "type": "address"
            },
            {
              "internalType": "bool",
              "name": "hasRelationship",
              "type": "bool"
            },
            {
              "components": [
                {
                  "internalType": "address",
                  "name": "token",
                  "type": "address"
                },
                {
                  "internalType": "uint256",
                  "name": "amount",
                  "type": "uint256"
                },
                {
                  "internalType": "uint256",
                  "name": "deadline",
                  "type": "uint256"
                },
                {
                  "internalType": "uint8",
                  "name": "v",
                  "type": "uint8"
                },
                {
                  "internalType": "bytes32",
                  "name": "r",
                  "type": "bytes32"
                },
                {
                  "internalType": "bytes32",
                  "name": "s",
                  "type": "bytes32"
                },
                {
                  "internalType": "address",
                  "name": "recipient",
                  "type": "address"
                }
              ],
              "internalType": "struct Bridge.PermitData[]",
              "name": "permits",
              "type": "tuple[]"
            }
          ],
          "internalType": "struct Bridge.KeyData",
          "name": "confirming",
          "type": "tuple"
        }
      ],
      "name": "addMultipleTokenPairsAtomic",
      "outputs": [],
      "stateMutability": "payable",
      "type": "function"
    },
    {
      "inputs": [
        {
          "internalType": "address",
          "name": "originalToken",
          "type": "address"
        },
        {
          "internalType": "address",
          "name": "wrappedToken",
          "type": "address"
        },
        {
          "internalType": "bool",
          "name": "_isCrossChain",
          "type": "bool"
        }
      ],
      "name": "addTokenPair",
      "outputs": [],
      "stateMutability": "nonpayable",
      "type": "function"
    },
    {
      "inputs": [],
      "name": "ethPriceFeed",
      "outputs": [
        {
          "internalType": "contract AggregatorV3Interface",
          "name": "",
          "type": "address"
        }
      ],
      "stateMutability": "view",
      "type": "function"
    },
    {
      "inputs": [],
      "name": "feeCollector",
      "outputs": [
        {
          "internalType": "address",
          "name": "",
          "type": "address"
        }
      ],
      "stateMutability": "view",
      "type": "function"
    },
    {
      "inputs": [],
      "name": "feePercentage",
      "outputs": [
        {
          "internalType": "uint256",
          "name": "",
          "type": "uint256"
        }
      ],
      "stateMutability": "view",
      "type": "function"
    },
    {
      "inputs": [
        {
          "internalType": "bytes",
          "name": "publicKey",
          "type": "bytes"
        }
      ],
      "name": "getAddressFromPublicKey",
      "outputs": [
        {
          "internalType": "address",
          "name": "",
          "type": "address"
        }
      ],
      "stateMutability": "pure",
      "type": "function"
    },
    {
      "inputs": [],
      "name": "getSupportedTokens",
      "outputs": [
        {
          "internalType": "address[]",
          "name": "",
          "type": "address[]"
        }
      ],
      "stateMutability": "view",
      "type": "function"
    },
    {
      "inputs": [
        {
          "internalType": "address",
          "name": "_keyLogRegistry",
          "type": "address"
        },
        {
          "internalType": "address",
          "name": "_ethPriceFeed",
          "type": "address"
        }
      ],
      "name": "initialize",
      "outputs": [],
      "stateMutability": "nonpayable",
      "type": "function"
    },
    {
      "inputs": [],
      "name": "keyLogRegistry",
      "outputs": [
        {
          "internalType": "contract KeyLogRegistry",
          "name": "",
          "type": "address"
        }
      ],
      "stateMutability": "view",
      "type": "function"
    },
    {
      "inputs": [
        {
          "internalType": "address",
          "name": "",
          "type": "address"
        }
      ],
      "name": "nonces",
      "outputs": [
        {
          "internalType": "uint256",
          "name": "",
          "type": "uint256"
        }
      ],
      "stateMutability": "view",
      "type": "function"
    },
    {
      "inputs": [
        {
          "internalType": "address",
          "name": "originalToken",
          "type": "address"
        }
      ],
      "name": "originalToWrapped",
      "outputs": [
        {
          "internalType": "address",
          "name": "",
          "type": "address"
        }
      ],
      "stateMutability": "view",
      "type": "function"
    },
    {
      "inputs": [],
      "name": "owner",
      "outputs": [
        {
          "internalType": "address",
          "name": "",
          "type": "address"
        }
      ],
      "stateMutability": "view",
      "type": "function"
    },
    {
      "inputs": [],
      "name": "proxiableUUID",
      "outputs": [
        {
          "internalType": "bytes32",
          "name": "",
          "type": "bytes32"
        }
      ],
      "stateMutability": "view",
      "type": "function"
    },
    {
      "inputs": [
        {
          "components": [
            {
              "internalType": "uint256",
              "name": "amount",
              "type": "uint256"
            },
            {
              "internalType": "bytes",
              "name": "signature",
              "type": "bytes"
            },
            {
              "internalType": "bytes",
              "name": "publicKey",
              "type": "bytes"
            },
            {
              "internalType": "address",
              "name": "prerotatedKeyHash",
              "type": "address"
            },
            {
              "internalType": "address",
              "name": "twicePrerotatedKeyHash",
              "type": "address"
            },
            {
              "internalType": "address",
              "name": "prevPublicKeyHash",
              "type": "address"
            },
            {
              "internalType": "address",
              "name": "outputAddress",
              "type": "address"
            },
            {
              "internalType": "bool",
              "name": "hasRelationship",
              "type": "bool"
            },
            {
              "internalType": "address",
              "name": "tokenSource",
              "type": "address"
            },
            {
              "components": [
                {
                  "internalType": "address",
                  "name": "token",
                  "type": "address"
                },
                {
                  "internalType": "uint256",
                  "name": "amount",
                  "type": "uint256"
                },
                {
                  "internalType": "uint256",
                  "name": "deadline",
                  "type": "uint256"
                },
                {
                  "internalType": "uint8",
                  "name": "v",
                  "type": "uint8"
                },
                {
                  "internalType": "bytes32",
                  "name": "r",
                  "type": "bytes32"
                },
                {
                  "internalType": "bytes32",
                  "name": "s",
                  "type": "bytes32"
                },
                {
                  "internalType": "address",
                  "name": "recipient",
                  "type": "address"
                }
              ],
              "internalType": "struct Bridge.PermitData[]",
              "name": "permits",
              "type": "tuple[]"
            }
          ],
          "internalType": "struct Bridge.Params",
          "name": "unconfirmed",
          "type": "tuple"
        },
        {
          "components": [
            {
              "internalType": "uint256",
              "name": "amount",
              "type": "uint256"
            },
            {
              "internalType": "bytes",
              "name": "signature",
              "type": "bytes"
            },
            {
              "internalType": "bytes",
              "name": "publicKey",
              "type": "bytes"
            },
            {
              "internalType": "address",
              "name": "prerotatedKeyHash",
              "type": "address"
            },
            {
              "internalType": "address",
              "name": "twicePrerotatedKeyHash",
              "type": "address"
            },
            {
              "internalType": "address",
              "name": "prevPublicKeyHash",
              "type": "address"
            },
            {
              "internalType": "address",
              "name": "outputAddress",
              "type": "address"
            },
            {
              "internalType": "bool",
              "name": "hasRelationship",
              "type": "bool"
            },
            {
              "internalType": "address",
              "name": "tokenSource",
              "type": "address"
            },
            {
              "components": [
                {
                  "internalType": "address",
                  "name": "token",
                  "type": "address"
                },
                {
                  "internalType": "uint256",
                  "name": "amount",
                  "type": "uint256"
                },
                {
                  "internalType": "uint256",
                  "name": "deadline",
                  "type": "uint256"
                },
                {
                  "internalType": "uint8",
                  "name": "v",
                  "type": "uint8"
                },
                {
                  "internalType": "bytes32",
                  "name": "r",
                  "type": "bytes32"
                },
                {
                  "internalType": "bytes32",
                  "name": "s",
                  "type": "bytes32"
                },
                {
                  "internalType": "address",
                  "name": "recipient",
                  "type": "address"
                }
              ],
              "internalType": "struct Bridge.PermitData[]",
              "name": "permits",
              "type": "tuple[]"
            }
          ],
          "internalType": "struct Bridge.Params",
          "name": "confirming",
          "type": "tuple"
        }
      ],
      "name": "registerKeyPairWithTransfer",
      "outputs": [],
      "stateMutability": "payable",
      "type": "function"
    },
    {
      "inputs": [
        {
          "internalType": "bytes",
          "name": "publicKey",
          "type": "bytes"
        },
        {
          "internalType": "address",
          "name": "publicKeyHash",
          "type": "address"
        },
        {
          "internalType": "address",
          "name": "prerotatedKeyHash",
          "type": "address"
        },
        {
          "internalType": "address",
          "name": "twicePrerotatedKeyHash",
          "type": "address"
        },
        {
          "internalType": "address",
          "name": "prevPublicKeyHash",
          "type": "address"
        },
        {
          "internalType": "address",
          "name": "outputAddress",
          "type": "address"
        },
        {
          "internalType": "bool",
          "name": "hasRelationship",
          "type": "bool"
        },
        {
          "components": [
            {
              "internalType": "address",
              "name": "token",
              "type": "address"
            },
            {
              "internalType": "uint256",
              "name": "amount",
              "type": "uint256"
            },
            {
              "internalType": "uint256",
              "name": "deadline",
              "type": "uint256"
            },
            {
              "internalType": "uint8",
              "name": "v",
              "type": "uint8"
            },
            {
              "internalType": "bytes32",
              "name": "r",
              "type": "bytes32"
            },
            {
              "internalType": "bytes32",
              "name": "s",
              "type": "bytes32"
            },
            {
              "internalType": "address",
              "name": "recipient",
              "type": "address"
            }
          ],
          "internalType": "struct Bridge.PermitData[]",
          "name": "permits",
          "type": "tuple[]"
        }
      ],
      "name": "registerKeyWithTransfer",
      "outputs": [],
      "stateMutability": "payable",
      "type": "function"
    },
    {
      "inputs": [],
      "name": "relayer",
      "outputs": [
        {
          "internalType": "address",
          "name": "",
          "type": "address"
        }
      ],
      "stateMutability": "view",
      "type": "function"
    },
    {
      "inputs": [],
      "name": "renounceOwnership",
      "outputs": [],
      "stateMutability": "nonpayable",
      "type": "function"
    },
    {
      "inputs": [
        {
          "internalType": "address",
          "name": "_ethPriceFeed",
          "type": "address"
        }
      ],
      "name": "setEthPriceFeed",
      "outputs": [],
      "stateMutability": "nonpayable",
      "type": "function"
    },
    {
      "inputs": [
        {
          "internalType": "address",
          "name": "_feeCollector",
          "type": "address"
        }
      ],
      "name": "setFeeCollector",
      "outputs": [],
      "stateMutability": "nonpayable",
      "type": "function"
    },
    {
      "inputs": [
        {
          "internalType": "uint256",
          "name": "_feePercentage",
          "type": "uint256"
        }
      ],
      "name": "setFeePercentage",
      "outputs": [],
      "stateMutability": "nonpayable",
      "type": "function"
    },
    {
      "inputs": [
        {
          "internalType": "address",
          "name": "_relayer",
          "type": "address"
        }
      ],
      "name": "setRelayer",
      "outputs": [],
      "stateMutability": "nonpayable",
      "type": "function"
    },
    {
      "inputs": [
        {
          "internalType": "address",
          "name": "token",
          "type": "address"
        },
        {
          "internalType": "address",
          "name": "priceFeed",
          "type": "address"
        }
      ],
      "name": "setTokenPriceFeed",
      "outputs": [],
      "stateMutability": "nonpayable",
      "type": "function"
    },
    {
      "inputs": [
        {
          "internalType": "uint256",
          "name": "",
          "type": "uint256"
        }
      ],
      "name": "supportedOriginalTokens",
      "outputs": [
        {
          "internalType": "address",
          "name": "",
          "type": "address"
        }
      ],
      "stateMutability": "view",
      "type": "function"
    },
    {
      "inputs": [
        {
          "internalType": "address",
          "name": "",
          "type": "address"
        }
      ],
      "name": "tokenPairs",
      "outputs": [
        {
          "internalType": "address",
          "name": "originalToken",
          "type": "address"
        },
        {
          "internalType": "address",
          "name": "wrappedToken",
          "type": "address"
        },
        {
          "internalType": "bool",
          "name": "isCrossChain",
          "type": "bool"
        }
      ],
      "stateMutability": "view",
      "type": "function"
    },
    {
      "inputs": [
        {
          "internalType": "address",
          "name": "",
          "type": "address"
        }
      ],
      "name": "tokenPriceFeeds",
      "outputs": [
        {
          "internalType": "contract AggregatorV3Interface",
          "name": "",
          "type": "address"
        }
      ],
      "stateMutability": "view",
      "type": "function"
    },
    {
      "inputs": [
        {
          "internalType": "address",
          "name": "newOwner",
          "type": "address"
        }
      ],
      "name": "transferOwnership",
      "outputs": [],
      "stateMutability": "nonpayable",
      "type": "function"
    },
    {
      "inputs": [
        {
          "internalType": "address",
          "name": "wrappedToken",
          "type": "address"
        },
        {
          "components": [
            {
              "internalType": "uint256",
              "name": "amount",
              "type": "uint256"
            },
            {
              "internalType": "bytes",
              "name": "signature",
              "type": "bytes"
            },
            {
              "internalType": "bytes",
              "name": "publicKey",
              "type": "bytes"
            },
            {
              "internalType": "address",
              "name": "prerotatedKeyHash",
              "type": "address"
            },
            {
              "internalType": "address",
              "name": "twicePrerotatedKeyHash",
              "type": "address"
            },
            {
              "internalType": "address",
              "name": "prevPublicKeyHash",
              "type": "address"
            },
            {
              "internalType": "address",
              "name": "outputAddress",
              "type": "address"
            },
            {
              "internalType": "bool",
              "name": "hasRelationship",
              "type": "bool"
            },
            {
              "internalType": "address",
              "name": "tokenSource",
              "type": "address"
            },
            {
              "components": [
                {
                  "internalType": "address",
                  "name": "token",
                  "type": "address"
                },
                {
                  "internalType": "uint256",
                  "name": "amount",
                  "type": "uint256"
                },
                {
                  "internalType": "uint256",
                  "name": "deadline",
                  "type": "uint256"
                },
                {
                  "internalType": "uint8",
                  "name": "v",
                  "type": "uint8"
                },
                {
                  "internalType": "bytes32",
                  "name": "r",
                  "type": "bytes32"
                },
                {
                  "internalType": "bytes32",
                  "name": "s",
                  "type": "bytes32"
                },
                {
                  "internalType": "address",
                  "name": "recipient",
                  "type": "address"
                }
              ],
              "internalType": "struct Bridge.PermitData[]",
              "name": "permits",
              "type": "tuple[]"
            }
          ],
          "internalType": "struct Bridge.Params",
          "name": "unconfirmed",
          "type": "tuple"
        },
        {
          "components": [
            {
              "internalType": "uint256",
              "name": "amount",
              "type": "uint256"
            },
            {
              "internalType": "bytes",
              "name": "signature",
              "type": "bytes"
            },
            {
              "internalType": "bytes",
              "name": "publicKey",
              "type": "bytes"
            },
            {
              "internalType": "address",
              "name": "prerotatedKeyHash",
              "type": "address"
            },
            {
              "internalType": "address",
              "name": "twicePrerotatedKeyHash",
              "type": "address"
            },
            {
              "internalType": "address",
              "name": "prevPublicKeyHash",
              "type": "address"
            },
            {
              "internalType": "address",
              "name": "outputAddress",
              "type": "address"
            },
            {
              "internalType": "bool",
              "name": "hasRelationship",
              "type": "bool"
            },
            {
              "internalType": "address",
              "name": "tokenSource",
              "type": "address"
            },
            {
              "components": [
                {
                  "internalType": "address",
                  "name": "token",
                  "type": "address"
                },
                {
                  "internalType": "uint256",
                  "name": "amount",
                  "type": "uint256"
                },
                {
                  "internalType": "uint256",
                  "name": "deadline",
                  "type": "uint256"
                },
                {
                  "internalType": "uint8",
                  "name": "v",
                  "type": "uint8"
                },
                {
                  "internalType": "bytes32",
                  "name": "r",
                  "type": "bytes32"
                },
                {
                  "internalType": "bytes32",
                  "name": "s",
                  "type": "bytes32"
                },
                {
                  "internalType": "address",
                  "name": "recipient",
                  "type": "address"
                }
              ],
              "internalType": "struct Bridge.PermitData[]",
              "name": "permits",
              "type": "tuple[]"
            }
          ],
          "internalType": "struct Bridge.Params",
          "name": "confirming",
          "type": "tuple"
        }
      ],
      "name": "unwrap",
      "outputs": [],
      "stateMutability": "payable",
      "type": "function"
    },
    {
      "inputs": [
        {
          "internalType": "address",
          "name": "newImplementation",
          "type": "address"
        },
        {
          "internalType": "bytes",
          "name": "data",
          "type": "bytes"
        }
      ],
      "name": "upgradeToAndCall",
      "outputs": [],
      "stateMutability": "payable",
      "type": "function"
    },
    {
      "inputs": [
        {
          "internalType": "address",
          "name": "originalToken",
          "type": "address"
        },
        {
          "components": [
            {
              "internalType": "uint256",
              "name": "amount",
              "type": "uint256"
            },
            {
              "internalType": "bytes",
              "name": "signature",
              "type": "bytes"
            },
            {
              "internalType": "bytes",
              "name": "publicKey",
              "type": "bytes"
            },
            {
              "internalType": "address",
              "name": "prerotatedKeyHash",
              "type": "address"
            },
            {
              "internalType": "address",
              "name": "twicePrerotatedKeyHash",
              "type": "address"
            },
            {
              "internalType": "address",
              "name": "prevPublicKeyHash",
              "type": "address"
            },
            {
              "internalType": "address",
              "name": "outputAddress",
              "type": "address"
            },
            {
              "internalType": "bool",
              "name": "hasRelationship",
              "type": "bool"
            },
            {
              "internalType": "address",
              "name": "tokenSource",
              "type": "address"
            },
            {
              "components": [
                {
                  "internalType": "address",
                  "name": "token",
                  "type": "address"
                },
                {
                  "internalType": "uint256",
                  "name": "amount",
                  "type": "uint256"
                },
                {
                  "internalType": "uint256",
                  "name": "deadline",
                  "type": "uint256"
                },
                {
                  "internalType": "uint8",
                  "name": "v",
                  "type": "uint8"
                },
                {
                  "internalType": "bytes32",
                  "name": "r",
                  "type": "bytes32"
                },
                {
                  "internalType": "bytes32",
                  "name": "s",
                  "type": "bytes32"
                },
                {
                  "internalType": "address",
                  "name": "recipient",
                  "type": "address"
                }
              ],
              "internalType": "struct Bridge.PermitData[]",
              "name": "permits",
              "type": "tuple[]"
            }
          ],
          "internalType": "struct Bridge.Params",
          "name": "unconfirmed",
          "type": "tuple"
        },
        {
          "components": [
            {
              "internalType": "uint256",
              "name": "amount",
              "type": "uint256"
            },
            {
              "internalType": "bytes",
              "name": "signature",
              "type": "bytes"
            },
            {
              "internalType": "bytes",
              "name": "publicKey",
              "type": "bytes"
            },
            {
              "internalType": "address",
              "name": "prerotatedKeyHash",
              "type": "address"
            },
            {
              "internalType": "address",
              "name": "twicePrerotatedKeyHash",
              "type": "address"
            },
            {
              "internalType": "address",
              "name": "prevPublicKeyHash",
              "type": "address"
            },
            {
              "internalType": "address",
              "name": "outputAddress",
              "type": "address"
            },
            {
              "internalType": "bool",
              "name": "hasRelationship",
              "type": "bool"
            },
            {
              "internalType": "address",
              "name": "tokenSource",
              "type": "address"
            },
            {
              "components": [
                {
                  "internalType": "address",
                  "name": "token",
                  "type": "address"
                },
                {
                  "internalType": "uint256",
                  "name": "amount",
                  "type": "uint256"
                },
                {
                  "internalType": "uint256",
                  "name": "deadline",
                  "type": "uint256"
                },
                {
                  "internalType": "uint8",
                  "name": "v",
                  "type": "uint8"
                },
                {
                  "internalType": "bytes32",
                  "name": "r",
                  "type": "bytes32"
                },
                {
                  "internalType": "bytes32",
                  "name": "s",
                  "type": "bytes32"
                },
                {
                  "internalType": "address",
                  "name": "recipient",
                  "type": "address"
                }
              ],
              "internalType": "struct Bridge.PermitData[]",
              "name": "permits",
              "type": "tuple[]"
            }
          ],
          "internalType": "struct Bridge.Params",
          "name": "confirming",
          "type": "tuple"
        }
      ],
      "name": "wrap",
      "outputs": [],
      "stateMutability": "payable",
      "type": "function"
    }
  ],
  "bytecode": "0x60a0806040523461002a5730608052615ee29081610030823960805181818161191601526119c50152f35b600080fdfe6101008060405260043610156200001557600080fd5b600060e05260e0513560e01c908163081da8c114620031a85750806316ef1119146200293f5780631784eaed1462001f54578063276c1ac01462001f07578063334976c71462001dc757806347bbbdf51462001d68578063485cc9551462001ba55780634f1ef286146200198157806352d1902d146200190057806360fc437a14620016d85780636548e9bc146200168e578063674417ae1462001628578063684913a2146200110c578063715018a614620010985780637ecebe0014620010585780638406c079146200102c5780638da5cb5b1462000ff2578063a001ecdd1462000fd1578063a42dce801462000f6d578063ad3cb1cc1462000f0b578063ae06c1b71462000ec6578063af7665ce1462000e9a578063b5057a7b1462000e6d578063bd9c47e31462000e2c578063c011c9eb1462000de2578063c415b95c1462000db6578063d3c7c2c71462000ce2578063d73792a91462000cc2578063d8397fd51462000c7b578063f2fde38b1462000c1a578063f9baf7bf1462000bf35763fcc9393814620001a757600080fd5b60031960603682011262000561576001600160401b0360043511620005615736602360043501121562000561576001600160401b03600435600401351162000561573660246004356004013560051b60043501011162000561576001600160401b036024351162000561576101209081816024353603011262000561576001600160401b036044351162000561576044353603011262000561576200024b62004189565b6200025562003843565b600435600401351562000be1573360e051526005602052604060e0512054620002e7620002e06200028b60446024350162003433565b604051620002c081620002b1876020830195600435600401356024600435018862003712565b03601f198101835282620032fa565b519020620002d46004602435018062003448565b92903393369162003338565b9062003875565b1562000bcf57620002fd60446024350162003433565b6001820182116200076c576200038891620002b16200033d620002e093604051928391600160208401960190600435600401356024600435018862003712565b519020620003516004604435018062003448565b92906200037f620003796200037160246044350160443560040162003448565b369162003338565b62003648565b93369162003338565b1562000bbd57620003bb620003b5620003ad61010460243501602435600401620034a1565b369162003565565b620038e2565b6200040c62000405620003d360a46024350162003433565b620003ea61010460243501602435600401620034a1565b9290620003fc60c46044350162003433565b93369162003565565b9062003ecb565b60e0515b600654811015620005bc576200042681620033e5565b90546001600160a01b039160031b1c81166200044760243560440162003433565b6040516370a0823160e01b815292166004830152602082602481845afa918215620005705760e051926200057d575b508162000489575b505060010162000410565b620004ed91602091620004a160446024350162003433565b620004b160c46044350162003433565b6040516323b872dd60e01b81526001600160a01b0392831660048201529116602482015260448101929092529092839190829081906064820190565b039160e051905af1908115620005705760e0519162000528575b5015620005165738806200047e565b6040516312171d8360e31b8152600490fd5b90506020813d60201162000567575b816200054660209383620032fa565b8101031262000561576200055a9062003625565b3862000507565b60e05180fd5b3d915062000537565b6040513d60e051823e3d90fd5b9091506020813d602011620005b3575b816200059c60209383620032fa565b81010312620005ae5751903862000476565b600080fd5b3d91506200058d565b60e0515b600435600401358110620007e557620006cd620005e7602480350160243560040162003448565b620005fa60646024949394350162003433565b926200060b60846024350162003433565b6200061b60a46024350162003433565b946200062c60c46024350162003433565b916200063d60e460243501620035e2565b6200065360246044350160443560040162003448565b91909460646044350199620006688b62003433565b946200067960846044350162003433565b96620006c66200068e60a46044350162003433565b99620006bd620006a360c46044350162003433565b9c620006b460e460443501620035e2565b9e369162003338565b97369162003338565b95620040ac565b6001600160a01b0380620006e18362003433565b1662000784575b503360e051526005602052604060e05120805490600282018092116200076c57553462000729575b600160008051602062005e8d8339815191525560e05180f35b60e051908190819081903490620007409062003433565b5af16200074c620035f0565b50156200075a578062000710565b604051630db2c7f160e31b8152600490fd5b634e487b7160e01b60e051526011600452602460e051fd5b6200078f8262003433565b906200079a62004189565b8116908115620007d357620007cc916001600160601b0360a01b6002541617600255620007c662004189565b620041c4565b81620006e8565b60405163d92e233d60e01b8152600490fd5b60248160051b6004350101359060e219600435360301821215620005615760c0918260231982600435013603011262000561576040519283818101106001600160401b03828601111762000ba75783016040526200084a60248260043501016200324e565b83526001600160401b036044826004350101351162000561576200087c36600435830160448101350160240162003374565b60208401526001600160401b03606482600435010135116200056157620008f79060c490620008b936600435830160648101350160240162003374565b6040860152620008d0608482600435010162003395565b6060860152620008e760a48260043501016200324e565b608086015260043501016200324e565b60a0830152815160e080516001600160a01b03928316905260046020525160409020600101541662000b955760808201516001600160a01b0316801562000ad8575b82516060840151604051600195939290911515906001600160a01b03166200096183620032ca565b825260a086811b87900384811660208086019182526040808701958652885160e0805191861690915260049092529051819020955186549084166001600160a01b0319909116178655905194890180549451151590931b60ff60a01b9081169583166001600160a81b031995861617959095179092558551606087015192519215159493928992909116620009f682620032ca565b81526020810195828060a01b038116875260408201958652828060a01b031660e051526004602052604060e0512090828060a01b039051166001600160601b0360a01b8254161781550193878060a01b039051169184549351151560a01b1692161717905562000a6e838060a01b0382511662003678565b828060a01b0360a082015116908115158062000ac6575b62000a94575b505001620005c0565b838060a01b0390511660e051526007602052604060e05120906001600160601b0360a01b825416179055828062000a8b565b50838060a01b03815116151562000a85565b506020820151604083015160018060a01b0360e05154166040519283611a2c8101106001600160401b03611a2c8601111762000b7d57839262000b3462000b4b92611a2c6200444187396080611a2c87018181520190620033a3565b90611a2c850182036020611a2c87010152620033a3565b90306040611a2c850101526060611a2c84010152039060e051f09182156200057057916001600160a01b031662000939565b634e487b7160e01b60e051526041600452602460e051fd5b604051636bb9e87d60e01b8152600490fd5b634e487b7160e01b600052604160045260246000fd5b604051633bc0bb3d60e21b8152600490fd5b604051637a9e3e8360e01b8152600490fd5b604051630554f0a760e41b8152600490fd5b34620005615760e05136600319011262000561576020604051683635c9adc5dea000008152f35b3462000561576020366003190112620005615762000c3762003220565b62000c4162004189565b6001600160a01b038116908115620007d35762000c75916001600160601b0360a01b6002541617600255620007c662004189565b60e05180f35b34620005615760203660031901126200056157600435600654811015620005615762000ca9602091620033e5565b905460405160039290921b1c6001600160a01b03168152f35b34620005615760e051366003190112620005615760206040516127108152f35b34620005615760e05136600319011262000561576040518060065480835260208093018091600660e051527ff652222313e28459528d920b65115c16c04f3efc82aaedc97be59f3f377c0d3f9060e0515b8682821062000d9857868662000d4c82880383620032fa565b604051928392818401908285525180915260408401929160e0515b82811062000d7757505050500390f35b83516001600160a01b03168552869550938101939281019260010162000d67565b83546001600160a01b03168552909301926001928301920162000d33565b34620005615760e05136600319011262000561576002546040516001600160a01b039091168152602090f35b3462000561576020366003190112620005615762000dff62003220565b62000e0962004189565b60018060a01b03166001600160601b0360a01b600854161760085560e05160e051f35b3462000561576020366003190112620005615760206001600160a01b038062000e5462003220565b1660e0515260078252604060e051205416604051908152f35b34620005615760e051366003190112620005615760e051546040516001600160a01b039091168152602090f35b34620005615760e05136600319011262000561576008546040516001600160a01b039091168152602090f35b3462000561576020366003190112620005615760043562000ee662004189565b612710811162000ef95760035560e05180f35b60405163cd4e616760e01b8152600490fd5b34620005615760e051366003190112620005615760405160408101908082106001600160401b0383111762000ba75762000f699160405260058152640352e302e360dc1b6020820152604051918291602083526020830190620033a3565b0390f35b3462000561576020366003190112620005615762000f8a62003220565b62000f9462004189565b6001600160a01b0316801562000fbf576001600160601b0360a01b600254161760025560e05160e051f35b60405163bb0bac9960e01b8152600490fd5b34620005615760e05136600319011262000561576020600354604051908152f35b34620005615760e051366003190112620005615760008051602062005e6d833981519152546040516001600160a01b039091168152602090f35b34620005615760e05136600319011262000561576001546040516001600160a01b039091168152602090f35b346200056157602036600319011262000561576001600160a01b036200107d62003220565b1660e0515260056020526020604060e0512054604051908152f35b34620005615760e0513660031901126200056157620010b662004189565b60008051602062005e6d83398151915280546001600160a01b031981169091556000906001600160a01b03167f8be0079c531659141344cd1fd0a4f28419497f9722a3daafe3b4186f6b6457e08280a360e05180f35b60031960403682011262000561576004356001600160401b03918282116200056157816004016101408083853603011262000561576024926024359586116200056157853603011262000561576200116362003843565b6101248301916200117d620003b5620003ad8585620034a1565b60e05194855b6200118f8585620034a1565b9050811015620012e357620011a58585620034a1565b821015620012cc57620011bf90369060e0840201620034d9565b60208101908151151580620012aa575b620011e0575b505060010162001183565b80519298926001600160a01b03919082166200127057620012038351856200347d565b3410620012575760c0018181511615620007d3575160e05183519092839283928392909116617530f162001236620035f0565b50156200075a576001916200124d9151906200347d565b965b9088620011d5565b60405163073c639b60e41b815260e05160048201528690fd5b6001939992506200129d60c091620012a4936200128e8b8b620034a1565b94909201511692369162003565565b3362003ecb565b6200124f565b5080516001600160a01b03161580620011cf57506040810151421115620011cf565b83634e487b7160e01b60e05152603260045260e051fd5b509084869360e0515b60065481101562001447576200130281620033e5565b90546040516370a0823160e01b8152336004820152602092909160039190911b1c6001600160a01b031682828881845afa918215620005705760e0519262001412575b508162001359575b505050600101620012ec565b620013a99183916200136e60c48b0162003433565b6040516323b872dd60e01b81523360048201526001600160a01b03909116602482015260448101929092529092839190829081906064820190565b039160e051905af1918215620005705760e05192620013d4575b50501562000516578680806200134d565b90809250813d83116200140a575b620013ee8183620032fa565b810103126200056157620014029062003625565b8780620013c3565b503d620013e2565b9091508281813d83116200143f575b6200142d8183620032fa565b81010312620005ae5751908962001345565b503d62001421565b50915092803411620015c6575b5060008051602062005e6d833981519152546001600160a01b03908116331480620015ad575b62001561575b5060448301620014909162003448565b9190620014a06064850162003433565b620014ae6084860162003433565b620014bc60a4870162003433565b91620014cb60c4880162003433565b9660e401620014da90620035e2565b620014ec604487016004880162003448565b989094620014fd6064890162003433565b946200150c60848a0162003433565b966200151b60a48b0162003433565b986200152a60c48c0162003433565b9a60e4016200153990620035e2565b9b3690620015479262003338565b9b3690620015559262003338565b94620007109b620040ac565b6200156f6064840162003433565b906200157a62004189565b8116908115620007d357620015a6916001600160601b0360a01b6002541617600255620007c662004189565b8362001480565b5080620015bd6064850162003433565b1615156200147a565b620015d29034620035d4565b8015620014545760c483016001600160a01b03620015f08262003433565b1615620007d35760e051918291829182916200160c9062003433565b617530f16200161a620035f0565b50156200075a578362001454565b346200056157604036600319011262000561576200164562003220565b6200164f62003237565b906200165a62004189565b60e080516001600160a01b0392831690526007602052516040812080546001600160a01b0319169390921692909217905580f35b34620005615760203660031901126200056157620016ab62003220565b620016b562004189565b60018060a01b03166001600160601b0360a01b600154161760015560e05160e051f35b61010036600319011262000561576001600160401b0360043581811162000561576200170990369060040162003374565b6200171362003237565b6001600160a01b03929091906044358481169190828103620005ae57606435868116809103620005ae5760843590878216809203620005ae5760a43588811693848203620005ae5760c43595861515809703620005ae5760e43581811162000561573660238201121562000561578060040135918211620005615760248101906024369160e0850201011162000561576200129d8491620017c993620017b862003843565b620003ad620003b536838562003565565b338a60008051602062005e6d83398151915254161480620018f6575b620018bd575b503462001897575b508760e051541694853b15620005615760405163151cdb2f60e11b815260e060048201529889976200182a9060e48a0190620033a3565b9816602488015260448701526064860152608485015260a484015260c4830152818060e05194039160e051905af1801562000570576200187d57600160008051602062005e8d8339815191525560e05180f35b6200188890620032e6565b60e05162000561578062000710565b60e0519081908190819034905af1620018af620035f0565b50156200075a5788620017f3565b620018c762004189565b8615620007d357600280546001600160a01b03191688179055620018ef90620007c662004189565b89620017eb565b50861515620017e5565b34620005615760e05136600319011262000561577f00000000000000000000000000000000000000000000000000000000000000006001600160a01b031630036200196f5760206040517f360894a13ba1a3210667c828492db98dca3e2076cc3735a920a3ca505d382bbc8152f35b60405163703e46dd60e11b8152600490fd5b604036600319011262000561576200199862003220565b6024356001600160401b0381116200056157620019ba90369060040162003374565b906001600160a01b037f0000000000000000000000000000000000000000000000000000000000000000811630811490811562001b76575b506200196f5762001a0262004189565b8116916040516352d1902d60e01b8152602081600481875afa60e051918162001b3c575b5062001a4557604051634c9c8ce360e01b815260048101859052602490fd5b7f360894a13ba1a3210667c828492db98dca3e2076cc3735a920a3ca505d382bbc9081810362001b245750823b1562001b0b57836001600160601b0360a01b825416179055604051927fbc7cd75a20ee27fd9adebab32041f755214dbc6bffa90cc0225b39da2e5c2d3b60e05160e051a280511562001aed5762001ae6925060e0519060e05190602081519101845af462001adf620035f0565b91620043d8565b5060e05180f35b50503462001afc575062000c75565b63b398979f60e01b8152600490fd5b604051634c9c8ce360e01b815260048101859052602490fd5b60249060405190632a87526960e21b82526004820152fd5b9091506020813d60201162001b6d575b8162001b5b60209383620032fa565b81010312620005615751908562001a26565b3d915062001b4c565b9050817f360894a13ba1a3210667c828492db98dca3e2076cc3735a920a3ca505d382bbc5416141584620019f2565b3462000561576040366003190112620005615762001bc262003220565b62001bcc62003237565b7ff0c57e16840df040f15088dc2f81fe391c3923bec73e23a9662efc9c229c6a009182549160ff8360401c1615926001600160401b0381168015908162001d5f575b600114908162001d54575b15908162001d4a575b5062001d385767ffffffffffffffff19811660011785558362001d18575b5062001c4b6200423a565b62001c556200423a565b62001c6033620041c4565b62001c6a6200423a565b62001c746200423a565b62001c7e6200423a565b600160008051602062005e8d8339815191525560018060a01b0390816001600160601b0360a01b93168360e05154161760e051553383600254161760025560016003551690600854161760085562001cd65760e05180f35b68ff00000000000000001981541690557fc7f505b2f371ae2175ee4913f4499e1f2633a7b5936321eed1cdaeb6115181d2602060405160018152a18062000c75565b68ffffffffffffffffff1916680100000000000000011784558462001c40565b60405163f92ee8a960e01b8152600490fd5b9050158662001c22565b303b15915062001c19565b85915062001c0e565b3462000561576020366003190112620005615760606001600160a01b038062001d9062003220565b1660e05152600460205260ff604060e0512091600181845416930154906040519384528116602084015260a01c1615156040820152f35b3462000561576060366003190112620005615762001de462003220565b62001dee62003237565b90604435801515809103620005ae5762001e0762004189565b60018060a01b0390818316918260e051526004602052806001604060e0512001541662000b955762000c75946040519162001e4283620032ca565b8483526001816020850193169586845260408501948686528160e051526004602052838381604060e05120935116926001600160601b0360a01b93848254161781550195511694805496511515966affffffffffffffffffffff60a81b968760ff60a01b809a60a01b169216171790556040519162001ec183620032ca565b825260208201978089526040830197885260e05152600460205283604060e0512092511690825416178155019451169184549351151560a01b1692161717905562003678565b346200056157602036600319011262000561576004356001600160401b038111620005615762001f4262000379602092369060040162003374565b6040516001600160a01b039091168152f35b62001f5f3662003263565b909160a05262001f6e62003843565b60018060a01b0360a0511660e051526004602052604060e051209060016040519262001f9a84620032ca565b818060a01b038154168452015491604060ff602083019460018060a01b038116865260a01c1615159101523360e051526005602052604060e0512054926200203e620002e062001fed60c0840162003433565b6040516200202c81620002b18a6020830195893560a0518890606092959493608083019660018060a01b03809316845260208401521660408201520152565b519020620002d4602085018562003448565b1562000bcf576200205260c0830162003433565b6001850185116200076c57620002e0620020d491604051620020a981620002b1602082019460018c01908a3560a0518890606092959493608083019660018060a01b03809316845260208401521660408201520152565b519020620020bb602086018662003448565b92906200037f620003796200037160408a018a62003448565b1562000bbd5760e051546001600160a01b0316610120620020f860c0840162003433565b6040516324b9c44160e21b81526001600160a01b03909116600482015291829060249082905afa8015620005705760e05191829162002833575b50620027f5575b50620021686200215f62002152610120840184620034a1565b9190843592369162003565565b60a05162003986565b62002177813560a05162003c3e565b9182823510620027e3576200218c3462003ae4565b91823410620027e357620021d594620021a9610100830162003433565b60c052620021bc610120830183620034a1565b9690620021cc6060860162003433565b97369162003565565b9460e0515b8651811015620023af57620021f08188620038cd565b5160208101519081151580620023a0575b806200238c575b62002219575b5050600101620021da565b60018060a01b03815116604082015160ff60608401511660808401519060a085015192843b15620005615760405163d505accf60e01b815260c0516001600160a01b0316600482015230602482015260448101979097526064870152608486015260a485015260c484015260e05190839060e490829084905af1908115620005705762002306926020926200237a575b50805160a0516001600160a01b039182169116810362002371578230925b01516040516323b872dd60e01b815260c0516001600160a01b039081166004830152909316602484015260448301529092839190829081906064820190565b039160e051905af1908115620005705760e051916200232f575b5015620005165789806200220e565b90506020813d60201162002368575b816200234d60209383620032fa565b810103126200056157620023619062003625565b8a62002320565b3d91506200233e565b828c92620022c7565b6200238590620032e6565b8c620022a9565b5080516001600160a01b0316151562002208565b50604081015142111562002201565b5087620023c0604085018562003448565b86620023cf6060880162003433565b92620023de6080890162003433565b620023ec60a08a0162003433565b90620023fb60c08b0162003433565b956200240a60e08c01620035e2565b62002419604087018762003448565b9890946200242a6060890162003433565b946200243960808a0162003433565b966200244860a08b0162003433565b986200245760c08c0162003433565b9a60e0016200246690620035e2565b9b3690620024749262003338565b9b3690620024829262003338565b946200248e9b620040ac565b60008051602062005e6d833981519152546001600160a01b0316331480620027c3575b62002771575b600281018091116200076c573360e051526005602052604060e051205580620026c9575b620024e8908335620035d4565b806200264e575b50346200250f57600160008051602062005e8d8339815191525560e05180f35b6200251b8434620035d4565b60a0516001600160a01b0316159390919084156200260d5750516001600160a01b0316916200254d9060c00162003433565b90823b1562000561576040516340c10f1960e01b815260e0516001600160a01b0390931660048201526024810191909152918290818060448101039160e051905af180156200057057620025f3575b505b8115159081620025ea575b50620025b9575b80808062000710565b60e05160025490918291829182916001600160a01b03165af1620025dc620035f0565b5015620005165780620025b0565b905082620025a9565b620025fe90620032e6565b60e0516200056157826200259c565b60e0519350839250829150819034906200262a9060600162003433565b5af162002636620035f0565b506200259e57604051630db2c7f160e31b8152600490fd5b81516001600160a01b0316906200266860c0850162003433565b90823b1562000561576040516340c10f1960e01b815260e0516001600160a01b0390931660048201526024810191909152918290818060448101039160e051905af18015620005705715620024ef57620026c290620032e6565b84620024ef565b60025460405163a9059cbb60e01b81526001600160a01b0391821660048201526024810183905260e05160a051919260209284926044928492165af1908115620005705760e051916200272f575b50620024db576040516312171d8360e31b8152600490fd5b90506020813d60201162002768575b816200274d60209383620032fa565b810103126200056157620027619062003625565b8662002717565b3d91506200273e565b6200277f6060860162003433565b6200278962004189565b6001600160a01b038116908115620007d357620027bd916001600160601b0360a01b6002541617600255620007c662004189565b620024b7565b506001600160a01b03620027da6060870162003433565b161515620024b1565b604051631fbaba3560e01b8152600490fd5b602001516001600160a01b03908116906200281360c0840162003433565b160362002821578462002139565b604051631a7ec90d60e01b8152600490fd5b915050806101203d6101201162002937575b620028518183620032fa565b8101036101208112620005615761010013620005615760405190816101008101106001600160401b036101008401111762000b7d576101008201604052620028998162003633565b8252620028a96020820162003633565b6020830152620028bc6040820162003633565b6040830152620028cf6060820162003633565b6060830152620028e26080820162003633565b6080830152620028f560a0820162003625565b60a08301526200290860c0820162003625565b60c083015260e08101516003811015620005615760e083015262002930906101000162003625565b8662002132565b503d62002845565b6200294a3662003263565b9091608052906200295a62003843565b60018060a01b036080511660e051526004602052604060e05120906001604051926200298684620032ca565b818060a01b038154168452015460ff60018060a01b0382169182602086015260a01c16151560408401521562003196573360e051526005602052604060e05120549062002a4a620002e0620029de60c0840162003433565b60408051608080516001600160a01b039081166020840190815288359484019490945290931660608201529182018690529062002a1f8160a08101620002b1565b51902062002a31602085018562003448565b92906200037f6200037962000371604089018962003448565b1562000bcf5762002a5e60c0850162003433565b6001830183116200076c576040519060018060a01b0360805116602083015260e051604083015260018060a01b03166060820152600183016080820152608081528060a08101106001600160401b0360a08301111762000b7d57620002e08160a062002af793016040526020815191012062002ade602088018862003448565b92906200037f620003796200037160408c018c62003448565b1562000bbd5762002b1e62002b1562002152610120840184620034a1565b60805162003986565b82516001600160a01b0316156200316757825162002b48908235906001600160a01b031662003c3e565b9262002b56848335620035d4565b9084833510620027e35762002b86945b62002b76610120850185620034a1565b9690620021cc60608a0162003433565b9460e0515b865181101562002d875762002ba18188620038cd565b5160e0516080516001600160a01b03168015159062002d6d575b62002d64575b6020820151918215158062002d55575b8062002d41575b62002bea575b50505060010162002b8b565b60018060a01b03815116604082015160ff60608401511660808401519060a085015192843b1562000561576040519763d505accf60e01b89523360048a01523060248a015260448901526064880152608487015260a486015260c48501528360e48160e0519360e051905af1918215620005705762002cbb9360209362002d2f575b501562002d275761dead905b8051908301516040516323b872dd60e01b81523360048201526001600160a01b039384166024820152604481019190915293849290911690829081906064820190565b039160e051905af1908115620005705760e0519162002ce5575b5015620005165789808062002bde565b90506020813d60201162002d1e575b8162002d0360209383620032fa565b81010312620005615762002d179062003625565b8a62002cd5565b3d915062002cf4565b8a9062002c78565b62002d3a90620032e6565b8d62002c6c565b5080516001600160a01b0316151562002bd8565b50604081015142111562002bd1565b50600162002bc1565b5060805182516001600160a01b0390811691161462002bbb565b508762002d98604087018762003448565b8262002da760608a0162003433565b9262002db660808b0162003433565b62002dc460a08c0162003433565b9062002dd360c08d0162003433565b9562002de260e08e01620035e2565b62002df1604087018762003448565b98909462002e026060890162003433565b9462002e1160808a0162003433565b9662002e2060a08b0162003433565b9862002e2f60c08c0162003433565b9a60e00162002e3e90620035e2565b9b369062002e4c9262003338565b9b369062002e5a9262003338565b9462002e669b620040ac565b60008051602062005e6d833981519152546001600160a01b031633148062003147575b620030f4575b50600281018091116200076c5760e08051339052600560205251604090205581516001600160a01b03161562003068578062002fca575b508162002f0a575b50505b3462002ef057600160008051602062005e8d8339815191525560e05180f35b60e051908190819081903490620007409060c00162003433565b5162002f5f916020916001600160a01b031662002f2a60c0860162003433565b60405163a9059cbb60e01b81526001600160a01b03909116600482015260248101929092529092839190829081906044820190565b039160e051905af1908115620005705760e0519162002f88575b50156200051657818062002ece565b90506020813d60201162002fc1575b8162002fa660209383620032fa565b81010312620005615762002fba9062003625565b8262002f79565b3d915062002f97565b815160025460405163a9059cbb60e01b81526001600160a01b039182166004820152602481019390935260e051602092849260449284929091165af1908115620005705760e0519162003026575b501562000516578362002ec6565b90506020813d6020116200305f575b816200304460209383620032fa565b810103126200056157620030589062003625565b8462003018565b3d915062003035565b91809150620030ba575b508062003081575b5062002ed1565b804710620027e35760e05160025490918291829182916001600160a01b03165af1620030ac620035f0565b50156200051657816200307a565b804710620027e35760e05190819081908190620030da60c0880162003433565b5af1620030e6620035f0565b50156200075a578262003072565b606062003102910162003433565b6200310c62004189565b6001600160a01b038116908115620007d35762003140916001600160601b0360a01b6002541617600255620007c662004189565b8562002e8f565b506001600160a01b036200315e6060830162003433565b16151562002e89565b62003173813562003ae4565b9262003181848335620035d4565b9084833510620027e35762002b869462002b66565b604051637879bad160e01b8152600490fd5b346200056157602036600319011262000561576001600160a01b0380620031ce62003220565b1660e0515260046020526001604060e05120620031eb84620032ca565b82815416845201549181831690604060ff602083019584875260a01c1615159101521562003196576020915116604051908152f35b600435906001600160a01b0382168203620005ae57565b602435906001600160a01b0382168203620005ae57565b35906001600160a01b0382168203620005ae57565b60031991606082840112620005ae576004356001600160a01b0381168103620005ae57926024356001600160401b0391828211620005ae576101409182828288030112620005ae5760040194604435938411620005ae578390030112620005ae5760040190565b606081019081106001600160401b0382111762000ba757604052565b6001600160401b03811162000ba757604052565b90601f801991011681019081106001600160401b0382111762000ba757604052565b6001600160401b03811162000ba757601f01601f191660200190565b92919262003346826200331c565b91620033566040519384620032fa565b829481845281830111620005ae578281602093846000960137010152565b9080601f83011215620005ae57816020620033929335910162003338565b90565b35908115158203620005ae57565b919082519283825260005b848110620033d0575050826000602080949584010152601f8019910116010190565b602081830181015184830182015201620033ae565b6006548110156200341d5760066000527ff652222313e28459528d920b65115c16c04f3efc82aaedc97be59f3f377c0d3f0190600090565b634e487b7160e01b600052603260045260246000fd5b356001600160a01b0381168103620005ae5790565b903590601e1981360301821215620005ae57018035906001600160401b038211620005ae57602001918136038313620005ae57565b919082018092116200348b57565b634e487b7160e01b600052601160045260246000fd5b903590601e1981360301821215620005ae57018035906001600160401b038211620005ae576020019160e0820236038313620005ae57565b91908260e0910312620005ae5760405160e081018181106001600160401b0382111762000ba757604052809262003510816200324e565b8252602081013560208301526040810135604083015260608101359060ff82168203620005ae5760c06200356091819360608601526080810135608086015260a081013560a0860152016200324e565b910152565b9291926001600160401b03821162000ba7576020604051946200358f60208560051b0187620032fa565b602086858152019060e0809502840193818511620005ae57915b848310620035b957505050505050565b838691620035c88486620034d9565b815201920191620035a9565b919082039182116200348b57565b358015158103620005ae5790565b3d1562003620573d9062003604826200331c565b91620036146040519384620032fa565b82523d6000602084013e565b606090565b51908115158203620005ae57565b51906001600160a01b0382168203620005ae57565b6040815103620036665780516020909101206001600160a01b031690565b60405163145a1fdd60e31b8152600490fd5b6006546801000000000000000081101562000ba7578060016200369f9201600655620033e5565b60018060a09493941b038084549260031b9316831b921b1916179055565b9035601e1982360301811215620005ae5701602081359101916001600160401b038211620005ae578136038313620005ae57565b908060209392818452848401376000828201840152601f01601f1916010190565b91909493929460609082606085016060865252608092608085019360808260051b8701019483946000946000955b85871062003766575050505050505050906040919460018060a01b031660208201520152565b9091929394959697607f198a8203018552883560be19843603018112156200383f57600191620037d49160c0916001600160a01b0391870182620037aa826200324e565b168252620037f26020958695620037c487850185620036bd565b90918089880152860191620036f1565b6040620037e481850185620036bd565b9186840390870152620036f1565b92620038008a830162003395565b15158a84015280620038148d84016200324e565b168c8401526200382860a08093016200324e565b169101529a01950197019594939692919062003740565b8280fd5b60008051602062005e8d8339815191526002815414620038635760029055565b604051633ee5aeb560e01b8152600490fd5b620038bc9291620038b2917f19457468657265756d205369676e6564204d6573736167653a0a333200000000600052601c52603c6000206200427c565b90939193620042bb565b6001600160a01b0391821691161490565b80518210156200341d5760209160051b010190565b60009060005b815181101562003964576001600160a01b03620039068284620038cd565b515116158062003949575b62003920575b600101620038e8565b91620039406001916020620039368686620038cd565b510151906200347d565b92905062003917565b506040620039588284620038cd565b51015142111562003911565b50506200396d57565b60405163073c639b60e41b815260006004820152602490fd5b9260009060005b835181101562003a03576001600160a01b0380620039ac8387620038cd565b5151169087161480620039e8575b620039c9575b6001016200398d565b91620039df6001916020620039368688620038cd565b929050620039c0565b506040620039f78286620038cd565b510151421115620039ba565b50939291500362003a115750565b60405163073c639b60e41b81526001600160a01b039091166004820152602490fd5b818102929181159184041417156200348b57565b811562003a52570490565b634e487b7160e01b600052601260045260246000fd5b519069ffffffffffffffffffff82168203620005ae57565b908160a0910312620005ae5762003a978162003a68565b916020820151916040810151916200339260806060840151930162003a68565b90816020910312620005ae575160ff81168103620005ae5790565b60ff16604d81116200348b57600a0a90565b62003af6612710916003549062003a33565b600854919004906001600160a01b03168062003b10575090565b604051633fabe5a360e21b81529060a082600481845afa91821562003be35760009262003c01575b50600082131562003bef5760206004916040519283809263313ce56760e01b82525afa801562003be35762003b779160009162003bad575b5062003ad2565b90683635c9adc5dea0000091808302928304036200348b5762003b9a9162003a47565b908181111562003ba8575090565b905090565b62003bd4915060203d60201162003bdb575b62003bcb8183620032fa565b81019062003ab7565b3862003b70565b503d62003bbf565b6040513d6000823e3d90fd5b6040516352cc3f7d60e01b8152600490fd5b62003c2991925060a03d60a01162003c36575b62003c208183620032fa565b81019062003a80565b5050509050903862003b38565b503d62003c14565b9062003c51612710916003549062003a33565b0460018060a01b0380921660009080825260209060078252604090858285205416908162003c83575050505050905090565b60a0939496835194858094633fabe5a360e21b825260049586915afa94851562003ec157889562003e96575b508785131562003e8657818852600786528388205416948351958187858163313ce56760e01b948582525afa96871562003e7c57899762003e56575b5081908486518095819382525afa93841562003e4d5750879362003e29575b505060ff683635c9adc5dea0000092166012810362003d56575b505062003d419062003d3a62003d479462003ad2565b9062003a33565b62003a47565b91508181111562003ba8575090565b929392601281111562003dc9576011190160ff811162003db65762003d7b9062003ad2565b8083029283040362003da3575062003d47929162003d3a62003d41925b925081945062003d24565b634e487b7160e01b865260119052602485fd5b634e487b7160e01b875260118252602487fd5b60129291920360ff811162003e165762003de39062003ad2565b91821562003e0357509162003d3a62003d419262003d4795940462003d98565b634e487b7160e01b875260129052602486fd5b634e487b7160e01b875260118352602487fd5b62003e44929350803d1062003bdb5762003bcb8183620032fa565b90388062003d0a565b513d89823e3d90fd5b8291975062003e7490823d841162003bdb5762003bcb8183620032fa565b969062003ceb565b85513d8b823e3d90fd5b83516352cc3f7d60e01b81528390fd5b62003eb491955060a03d60a01162003c365762003c208183620032fa565b5050509050933862003caf565b84513d8a823e3d90fd5b919060005b8151811015620040a65762003ee68183620038cd565b5160208082018051928315158062004097575b8062004083575b62003f13575b5050505060010162003ed0565b60018060a01b039081815116946040958683015160ff606085015116608085015160a086015192843b15620005ae576000948f9294899560e49588948f519a8b998a9863d505accf60e01b8a5216600489015230602489015260448801526064870152608486015260a485015260c48401525af180156200407857918594929162003fe596949262004066575b5051915186516323b872dd60e01b81526001600160a01b03808d1660048301528b16602482015260448101919091529485929190911690829060009082906064820190565b03925af19081156200405b576000916200401c575b509050156200400c5780808062003f06565b516312171d8360e31b8152600490fd5b82813d831162004053575b620040338183620032fa565b81010312620040505750620040489062003625565b803862003ffa565b80fd5b503d62004027565b83513d6000823e3d90fd5b6200407190620032e6565b3862003fa0565b86513d6000823e3d90fd5b5080516001600160a01b0316151562003f00565b50604081015142111562003ef9565b50505050565b97929a959994989390969198620040ce60018060a01b03600054169b62003648565b918b3b15620005ae57604051632e91b77d60e01b815261018060048201529c8d9b8c9b62004102906101848e0190620033a3565b6001600160a01b039b8c1660248e0152908b1660448d0152908a1660648c015290891660848b015290151560a48a015290871660c489015290861660e48801529085166101048701529084166101248601529216610144840152151561016483015203815a6000948591f1801562003be3576200417c5750565b6200418790620032e6565b565b60008051602062005e6d833981519152546001600160a01b03163303620041ac57565b60405163118cdaa760e01b8152336004820152602490fd5b6001600160a01b03908116908115620042215760008051602062005e6d83398151915280546001600160a01b031981168417909155167f8be0079c531659141344cd1fd0a4f28419497f9722a3daafe3b4186f6b6457e0600080a3565b604051631e4fbdf760e01b815260006004820152602490fd5b60ff7ff0c57e16840df040f15088dc2f81fe391c3923bec73e23a9662efc9c229c6a005460401c16156200426a57565b604051631afcd79f60e31b8152600490fd5b8151919060418303620042b057620042a992506020820151906060604084015193015160001a9062004345565b9192909190565b505060009160029190565b60048110156200432f5780620042cf575050565b60018103620042ea5760405163f645eedf60e01b8152600490fd5b600281036200430c5760405163fce698f760e01b815260048101839052602490fd5b600314620043175750565b602490604051906335e2f38360e21b82526004820152fd5b634e487b7160e01b600052602160045260246000fd5b91907f7fffffffffffffffffffffffffffffff5d576e7357a4501ddfe92f46681b20a08411620043cc57926020929160ff608095604051948552168484015260408301526060820152600092839182805260015afa15620043c05780516001600160a01b03811615620043b757918190565b50809160019190565b604051903d90823e3d90fd5b50505060009160039190565b90620044015750805115620043ef57805190602001fd5b60405163d6bda27560e01b8152600490fd5b8151158062004436575b62004414575090565b604051639996b31560e01b81526001600160a01b039091166004820152602490fd5b50803b156200440b56fe610160604081815234620004775762001a2c80380380916200002282866200047c565b8439820191608081840312620004775780516001600160401b03929083811162000477578462000054918401620004c5565b916020948582015190858211620004775762000072918301620004c5565b946200008e60606200008685850162000520565b930162000520565b90835190848201828110888211176200037657855260019485835281830195603160f81b87528751898111620003765760038054918383811c931680156200046c575b868410146200045657601f928381116200040b575b50808684821160011462000398576000916200038c575b5060001982841b1c191690841b1781555b8b51918b8311620003765760049c8d548581811c911680156200036b575b8882101462000356578e8382116200030b575b50508d87928511600114620002a0575093839491849260009562000294575b50501b92600019911b1c19161789555b620001798762000535565b956101209687526200018b84620006da565b97610140988952838151910120938460e0525190209861010099808b524660a0528251938401947f8b73c3c69bb8fe3d512ecc4cf759cc79239f7b179b0ffacaa9a75d522b39400f86528385015260608401524660808401523060a084015260a0835260c0830198838a10908a11176200027f57508790525190206080523060c052600880546001600160a01b039384166001600160a01b031991821617909155600980549290931691161790556111fa938462000832853960805184610c88015260a05184610d54015260c05184610c52015260e05184610cd701525183610cfd0152518261051a015251816105440152f35b604190634e487b7160e01b6000525260246000fd5b0151935038806200015e565b929190601f1985169360005284886000209460005b8a89838310620002f35750505010620002d8575b50505050811b0189556200016e565b01519060f884600019921b161c1916905538808080620002c9565b868601518955909701969485019488935001620002b5565b600052876000208380870160051c8201928a88106200034c575b0160051c019086905b8281106200033f5750508e6200013f565b600081550186906200032e565b9250819262000325565b60228f634e487b7160e01b6000525260246000fd5b90607f16906200012c565b634e487b7160e01b600052604160045260246000fd5b90508b015138620000fd565b8592508c90601f1983168560005289600020928a6000915b838310620003e9575050508311620003d0575b5050811b0181556200010e565b8d015160001983861b60f8161c191690553880620003c3565b948482949597989293960151815501940192019087949392918f8b90620003b0565b82600052866000208480840160051c8201928985106200044c575b0160051c019085905b8281106200043f575050620000e6565b600081550185906200042f565b9250819262000426565b634e487b7160e01b600052602260045260246000fd5b92607f1692620000d1565b600080fd5b601f909101601f19168101906001600160401b038211908210176200037657604052565b60005b838110620004b45750506000910152565b8181015183820152602001620004a3565b81601f82011215620004775780516001600160401b038111620003765760405192620004fc601f8301601f1916602001856200047c565b8184526020828401011162000477576200051d9160208085019101620004a0565b90565b51906001600160a01b03821682036200047757565b80516020919082811015620005b5575090601f8251116200057357808251920151908083106200056457501790565b82600019910360031b1b161790565b604490620005a79260405193849263305a27a960e01b845280600485015282519283918260248701528686019101620004a0565b601f01601f19168101030190fd5b6001600160401b03811162000376576005928354926001938481811c91168015620006cf575b838210146200045657601f811162000698575b5081601f84116001146200062e575092829391839260009462000622575b50501b916000199060031b1c191617905560ff90565b0151925038806200060c565b919083601f1981168760005284600020946000905b888383106200067d575050501062000663575b505050811b01905560ff90565b015160001960f88460031b161c1916905538808062000656565b85870151885590960195948501948793509081019062000643565b8560005284601f846000209201871c820191601f8601881c015b828110620006c2575050620005ee565b60008155018590620006b2565b90607f1690620005db565b805160209081811015620007075750601f8251116200057357808251920151908083106200056457501790565b906001600160401b0382116200037657600654926001938481811c9116801562000826575b838210146200045657601f8111620007ec575b5081601f841160011462000780575092829391839260009462000774575b50501b916000199060031b1c19161760065560ff90565b0151925038806200075d565b919083601f198116600660005284600020946000905b88838310620007d15750505010620007b7575b505050811b0160065560ff90565b015160001960f88460031b161c19169055388080620007a9565b85870151885590960195948501948793509081019062000796565b600660005284601f84600020920160051c820191601f860160051c015b828110620008195750506200073f565b6000815501859062000809565b90607f16906200072c56fe608060408181526004918236101561001657600080fd5b600092833560e01c91826306fdde03146108d757508163095ea7b3146108ad57816318160ddd1461088e57816323b872dd14610789578163313ce5671461076d5781633644e5151461074957816340c10f191461069157816370a082311461065a5781637ecebe001461062257816384b0196e1461050257816395d89b411461040e5781639dc29fac14610329578163a9059cbb146102e4578163b5057a7b146102bb578163d505accf1461015357508063dd62ed3e1461010b5763e78cea92146100e057600080fd5b3461010757816003193601126101075760085490516001600160a01b039091168152602090f35b5080fd5b5034610107578060031936011261010757806020926101286109ef565b610130610a0a565b6001600160a01b0391821683526001865283832091168252845220549051908152f35b839150346101075760e03660031901126101075761016f6109ef565b610177610a0a565b906044359260643560843560ff811681036102b7578142116102a05760018060a01b0390818516928389526007602052898920908154916001830190558a519060208201927f6e71edae12b1b97f4d1f60370fef10105fa2faae0126114a169c64845d6126c98452868d840152858a1660608401528a608084015260a083015260c082015260c0815260e0810181811067ffffffffffffffff82111761028d578b5251902061025b916102529161022c610c4f565b908c519161190160f01b83526002830152602282015260c43591604260a43592206110af565b9092919261113f565b16818103610272578661026f878787610d7a565b80f35b87516325c0072360e11b815292830152602482015260449150fd5b634e487b7160e01b8b526041875260248bfd5b875163313c898160e11b8152808401839052602490fd5b8680fd5b50503461010757816003193601126101075760095490516001600160a01b039091168152602090f35b5050346101075780600319360112610107576102fe6109ef565b916103098333610acf565b15610326575061031f6020926024359033610e0d565b5160018152f35b80fd5b839150346101075782600319360112610107576103446109ef565b6008549091602435916001600160a01b03908116330361040a5783169283156103f3578385528460205285852054918383106103bf5750508184957fddf252ad1be2c89b69c2b068fc378daa952ba7f163c4a11628f55a4df523b3ef936020938688528785520381872055816002540360025551908152a380f35b865163391434e360e21b81526001600160a01b03909216908201908152602081018390526040810184905281906060010390fd5b8551634b637e8f60e11b8152808301869052602490fd5b8480fd5b919050346104fe57826003193601126104fe57805183819490845461043281610a20565b91828552602096600192886001821691826000146104d4575050600114610479575b858861047589610466848a0385610a8c565b519282849384528301906109af565b0390f35b815286935091907f8a35acfbc15ff81a39ae7d344fd709f28e8600b4aa8c65c6b64bfe7fe36bd19b5b8284106104bc575050508201018161046661047538610454565b8054848a0186015288955087949093019281016104a2565b60ff19168882015294151560051b8701909401945085935061046692506104759150389050610454565b8280fd5b919050346104fe57826003193601126104fe5761053e7f0000000000000000000000000000000000000000000000000000000000000000610eeb565b926105687f0000000000000000000000000000000000000000000000000000000000000000610fef565b90825192602092602085019585871067ffffffffffffffff88111761060f57509260206105c58388966105b8998b9996528686528151998a99600f60f81b8b5260e0868c015260e08b01906109af565b91898303908a01526109af565b924660608801523060808801528460a088015286840360c088015251928381520193925b8281106105f857505050500390f35b8351855286955093810193928101926001016105e9565b634e487b7160e01b845260419052602483fd5b5050346101075760203660031901126101075760209181906001600160a01b0361064a6109ef565b1681526007845220549051908152f35b5050346101075760203660031901126101075760209181906001600160a01b036106826109ef565b16815280845220549051908152f35b919050346104fe57806003193601126104fe576106ac6109ef565b60085460243592916001600160a01b0391821633036107455716928315610730576002549083820180921161071d575084927fddf252ad1be2c89b69c2b068fc378daa952ba7f163c4a11628f55a4df523b3ef9260209260025585855284835280852082815401905551908152a380f35b634e487b7160e01b865260119052602485fd5b84602492519163ec442f0560e01b8352820152fd5b8580fd5b505034610107578160031936011261010757602090610766610c4f565b9051908152f35b5050346101075781600319360112610107576020905160128152f35b90508234610326576060366003190112610326576107a56109ef565b6107ad610a0a565b91604435936107bc8484610acf565b15610107576001600160a01b038316808352600160209081528784203385529052868320549160001983106107fa575b60208861031f898989610e0d565b86831061086257811561084b5733156108345750825260016020908152868320338452815291869020908590039055829061031f876107ec565b8751634a1406b160e11b8152908101849052602490fd5b875163e602df0560e01b8152908101849052602490fd5b8751637dc7a0d960e11b8152339181019182526020820193909352604081018790528291506060010390fd5b5050346101075781600319360112610107576020906002549051908152f35b50503461010757806003193601126101075760209061031f6108cd6109ef565b6024359033610d7a565b84843461010757816003193601126101075782826003546108f781610a20565b908184526020956001918760018216918260001461098857505060011461092c575b5050506104759291610466910385610a8c565b9190869350600383527fc2575a0e9e593c00f959f8c92f12db2869c3395a3b0502d05e2516446f71f85b5b8284106109705750505082010181610466610475610919565b8054848a018601528895508794909301928101610957565b60ff19168782015293151560051b8601909301935084925061046691506104759050610919565b919082519283825260005b8481106109db575050826000602080949584010152601f8019910116010190565b6020818301810151848301820152016109ba565b600435906001600160a01b0382168203610a0557565b600080fd5b602435906001600160a01b0382168203610a0557565b90600182811c92168015610a50575b6020831014610a3a57565b634e487b7160e01b600052602260045260246000fd5b91607f1691610a2f565b6040810190811067ffffffffffffffff821117610a7657604052565b634e487b7160e01b600052604160045260246000fd5b90601f8019910116810190811067ffffffffffffffff821117610a7657604052565b51906001600160a01b0382168203610a0557565b51908115158203610a0557565b600954604080516324b9c44160e21b81526001600160a01b0393841660048201819052939290916101209182908490602490829088165afa918215610c44576000938493610b4b575b505050610b285750505050600090565b602001518116918214928315610b3f575b50505090565b16149050388080610b39565b818193959294503d8511610c3d575b610b648183610a8c565b810103928312610326576101008093126103265783519383850185811067ffffffffffffffff821117610c29578152610b9c83610aae565b8552610baa60208401610aae565b6020860152610bba818401610aae565b90850152610bca60608301610aae565b6060850152610bdb60808301610aae565b6080850152610bec60a08301610ac2565b60a0850152610bfd60c08301610ac2565b60c085015260e0820151906003821015610326575060e0840152610c219101610ac2565b388080610b18565b634e487b7160e01b83526041600452602483fd5b503d610b5a565b50513d6000823e3d90fd5b307f00000000000000000000000000000000000000000000000000000000000000006001600160a01b03161480610d51575b15610caa577f000000000000000000000000000000000000000000000000000000000000000090565b60405160208101907f8b73c3c69bb8fe3d512ecc4cf759cc79239f7b179b0ffacaa9a75d522b39400f82527f000000000000000000000000000000000000000000000000000000000000000060408201527f000000000000000000000000000000000000000000000000000000000000000060608201524660808201523060a082015260a0815260c0810181811067ffffffffffffffff821117610a765760405251902090565b507f00000000000000000000000000000000000000000000000000000000000000004614610c81565b6001600160a01b03908116918215610df45716918215610ddb5760207f8c5be1e5ebec7d5bd14f71427d1e84f3dd0314c0f7b2291e5b200ac8c7c3b925918360005260018252604060002085600052825280604060002055604051908152a3565b604051634a1406b160e11b815260006004820152602490fd5b60405163e602df0560e01b815260006004820152602490fd5b916001600160a01b03808416928315610ed25716928315610eb95760009083825281602052604082205490838210610e87575091604082827fddf252ad1be2c89b69c2b068fc378daa952ba7f163c4a11628f55a4df523b3ef958760209652828652038282205586815220818154019055604051908152a3565b60405163391434e360e21b81526001600160a01b03919091166004820152602481019190915260448101839052606490fd5b60405163ec442f0560e01b815260006004820152602490fd5b604051634b637e8f60e11b815260006004820152602490fd5b60ff8114610f295760ff811690601f8211610f175760405191610f0d83610a5a565b8252602082015290565b604051632cd44ac360e21b8152600490fd5b50604051600554816000610f3c83610a20565b80835292602090600190818116908115610fcb5750600114610f6a575b5050610f6792500382610a8c565b90565b91509260056000527f036b6384b5eca791c62761152d0c79bb0604c104a5fb6f4eb0703f3154bb3db0936000925b828410610fb35750610f679450505081016020013880610f59565b85548785018301529485019486945092810192610f98565b91505060209250610f6794915060ff191682840152151560051b8201013880610f59565b60ff81146110115760ff811690601f8211610f175760405191610f0d83610a5a565b5060405160065481600061102483610a20565b80835292602090600190818116908115610fcb575060011461104e575050610f6792500382610a8c565b91509260066000527ff652222313e28459528d920b65115c16c04f3efc82aaedc97be59f3f377c0d3f936000925b8284106110975750610f679450505081016020013880610f59565b8554878501830152948501948694509281019261107c565b91907f7fffffffffffffffffffffffffffffff5d576e7357a4501ddfe92f46681b20a0841161113357926020929160ff608095604051948552168484015260408301526060820152600092839182805260015afa156111275780516001600160a01b0381161561111e57918190565b50809160019190565b604051903d90823e3d90fd5b50505060009160039190565b60048110156111ae5780611151575050565b6001810361116b5760405163f645eedf60e01b8152600490fd5b6002810361118c5760405163fce698f760e01b815260048101839052602490fd5b6003146111965750565b602490604051906335e2f38360e21b82526004820152fd5b634e487b7160e01b600052602160045260246000fdfea2646970667358221220b795fa50e5767d9775d1eea6283ccacf9cd51f086091d71f972f86533319c81264736f6c634300081800339016d09d72d40fdae2fd8ceac6b6234c7706214fd39c1cd1e609a0528c1993009b779b17422d0df92223018b32b4d1fa46e071723d6817e2486d003becc55f00a2646970667358221220b1b416eb067114fe3ec05828f5fe4b8abdafd9d2d938d1fed89e904dc3dc234964736f6c63430008180033",
  "linkReferences": {},
  "deployedLinkReferences": {}
}