{
  "_format": "hh-sol-artifact-1",
  "contractName": "Bridge",
  "sourceName": "contracts/Bridge.sol",
  "abi": [
    {
      "inputs": [
        {
          "internalType": "address",
          "name": "target",
          "type": "address"
        }
      ],
      "name": "AddressEmptyCode",
      "type": "error"
    },
    {
      "inputs": [],
      "name": "ECDSAInvalidSignature",
      "type": "error"
    },
    {
      "inputs": [
        {
          "internalType": "uint256",
          "name": "length",
          "type": "uint256"
        }
      ],
      "name": "ECDSAInvalidSignatureLength",
      "type": "error"
    },
    {
      "inputs": [
        {
          "internalType": "bytes32",
          "name": "s",
          "type": "bytes32"
        }
      ],
      "name": "ECDSAInvalidSignatureS",
      "type": "error"
    },
    {
      "inputs": [
        {
          "internalType": "address",
          "name": "implementation",
          "type": "address"
        }
      ],
      "name": "ERC1967InvalidImplementation",
      "type": "error"
    },
    {
      "inputs": [],
      "name": "ERC1967NonPayable",
      "type": "error"
    },
    {
      "inputs": [],
      "name": "FailedCall",
      "type": "error"
    },
    {
      "inputs": [],
      "name": "InvalidInitialization",
      "type": "error"
    },
    {
      "inputs": [],
      "name": "NotInitializing",
      "type": "error"
    },
    {
      "inputs": [
        {
          "internalType": "address",
          "name": "owner",
          "type": "address"
        }
      ],
      "name": "OwnableInvalidOwner",
      "type": "error"
    },
    {
      "inputs": [
        {
          "internalType": "address",
          "name": "account",
          "type": "address"
        }
      ],
      "name": "OwnableUnauthorizedAccount",
      "type": "error"
    },
    {
      "inputs": [],
      "name": "ReentrancyGuardReentrantCall",
      "type": "error"
    },
    {
      "inputs": [],
      "name": "UUPSUnauthorizedCallContext",
      "type": "error"
    },
    {
      "inputs": [
        {
          "internalType": "bytes32",
          "name": "slot",
          "type": "bytes32"
        }
      ],
      "name": "UUPSUnsupportedProxiableUUID",
      "type": "error"
    },
    {
      "anonymous": false,
      "inputs": [
        {
          "indexed": false,
          "internalType": "bytes32",
          "name": "hash",
          "type": "bytes32"
        },
        {
          "indexed": false,
          "internalType": "address",
          "name": "recovered",
          "type": "address"
        },
        {
          "indexed": false,
          "internalType": "address",
          "name": "expected",
          "type": "address"
        }
      ],
      "name": "DebugSignature",
      "type": "event"
    },
    {
      "anonymous": false,
      "inputs": [
        {
          "indexed": false,
          "internalType": "string",
          "name": "step",
          "type": "string"
        },
        {
          "indexed": false,
          "internalType": "uint256",
          "name": "value",
          "type": "uint256"
        }
      ],
      "name": "DebugStep",
      "type": "event"
    },
    {
      "anonymous": false,
      "inputs": [
        {
          "indexed": true,
          "internalType": "address",
          "name": "from",
          "type": "address"
        },
        {
          "indexed": true,
          "internalType": "address",
          "name": "to",
          "type": "address"
        },
        {
          "indexed": false,
          "internalType": "uint256",
          "name": "amount",
          "type": "uint256"
        }
      ],
      "name": "EthTransferred",
      "type": "event"
    },
    {
      "anonymous": false,
      "inputs": [
        {
          "indexed": true,
          "internalType": "address",
          "name": "token",
          "type": "address"
        },
        {
          "indexed": false,
          "internalType": "uint256",
          "name": "amount",
          "type": "uint256"
        }
      ],
      "name": "FeesCollected",
      "type": "event"
    },
    {
      "anonymous": false,
      "inputs": [
        {
          "indexed": false,
          "internalType": "uint64",
          "name": "version",
          "type": "uint64"
        }
      ],
      "name": "Initialized",
      "type": "event"
    },
    {
      "anonymous": false,
      "inputs": [
        {
          "indexed": true,
          "internalType": "address",
          "name": "previousOwner",
          "type": "address"
        },
        {
          "indexed": true,
          "internalType": "address",
          "name": "newOwner",
          "type": "address"
        }
      ],
      "name": "OwnershipTransferred",
      "type": "event"
    },
    {
      "anonymous": false,
      "inputs": [
        {
          "indexed": true,
          "internalType": "address",
          "name": "previousOwner",
          "type": "address"
        },
        {
          "indexed": true,
          "internalType": "address",
          "name": "newOwner",
          "type": "address"
        }
      ],
      "name": "OwnershipTransferredToNextKey",
      "type": "event"
    },
    {
      "anonymous": false,
      "inputs": [
        {
          "indexed": true,
          "internalType": "address",
          "name": "user",
          "type": "address"
        },
        {
          "indexed": true,
          "internalType": "address",
          "name": "originalToken",
          "type": "address"
        },
        {
          "indexed": false,
          "internalType": "uint256",
          "name": "amount",
          "type": "uint256"
        }
      ],
      "name": "TokensLocked",
      "type": "event"
    },
    {
      "anonymous": false,
      "inputs": [
        {
          "indexed": true,
          "internalType": "address",
          "name": "wrappedToken",
          "type": "address"
        },
        {
          "indexed": true,
          "internalType": "address",
          "name": "user",
          "type": "address"
        },
        {
          "indexed": false,
          "internalType": "uint256",
          "name": "amount",
          "type": "uint256"
        }
      ],
      "name": "TokensMinted",
      "type": "event"
    },
    {
      "anonymous": false,
      "inputs": [
        {
          "indexed": true,
          "internalType": "address",
          "name": "user",
          "type": "address"
        },
        {
          "indexed": false,
          "internalType": "address",
          "name": "wrappedToken",
          "type": "address"
        },
        {
          "indexed": false,
          "internalType": "uint256",
          "name": "amount",
          "type": "uint256"
        }
      ],
      "name": "TokensWrapped",
      "type": "event"
    },
    {
      "anonymous": false,
      "inputs": [
        {
          "indexed": true,
          "internalType": "address",
          "name": "originalToken",
          "type": "address"
        },
        {
          "indexed": false,
          "internalType": "address",
          "name": "targetAddress",
          "type": "address"
        },
        {
          "indexed": false,
          "internalType": "uint256",
          "name": "amount",
          "type": "uint256"
        },
        {
          "indexed": true,
          "internalType": "address",
          "name": "user",
          "type": "address"
        }
      ],
      "name": "UnwrapCrossChain",
      "type": "event"
    },
    {
      "anonymous": false,
      "inputs": [
        {
          "indexed": true,
          "internalType": "address",
          "name": "implementation",
          "type": "address"
        }
      ],
      "name": "Upgraded",
      "type": "event"
    },
    {
      "inputs": [],
      "name": "FEE_CAP_USD",
      "outputs": [
        {
          "internalType": "uint256",
          "name": "",
          "type": "uint256"
        }
      ],
      "stateMutability": "view",
      "type": "function"
    },
    {
      "inputs": [],
      "name": "FEE_DENOMINATOR",
      "outputs": [
        {
          "internalType": "uint256",
          "name": "",
          "type": "uint256"
        }
      ],
      "stateMutability": "view",
      "type": "function"
    },
    {
      "inputs": [],
      "name": "UPGRADE_INTERFACE_VERSION",
      "outputs": [
        {
          "internalType": "string",
          "name": "",
          "type": "string"
        }
      ],
      "stateMutability": "view",
      "type": "function"
    },
    {
      "inputs": [
        {
          "internalType": "address",
          "name": "originalToken",
          "type": "address"
        },
        {
          "internalType": "address",
          "name": "wrappedToken",
          "type": "address"
        },
        {
          "internalType": "bool",
          "name": "_isCrossChain",
          "type": "bool"
        }
      ],
      "name": "addTokenPair",
      "outputs": [],
      "stateMutability": "nonpayable",
      "type": "function"
    },
    {
      "inputs": [],
      "name": "feeCollector",
      "outputs": [
        {
          "internalType": "address",
          "name": "",
          "type": "address"
        }
      ],
      "stateMutability": "view",
      "type": "function"
    },
    {
      "inputs": [],
      "name": "feePercentage",
      "outputs": [
        {
          "internalType": "uint256",
          "name": "",
          "type": "uint256"
        }
      ],
      "stateMutability": "view",
      "type": "function"
    },
    {
      "inputs": [
        {
          "internalType": "bytes",
          "name": "publicKey",
          "type": "bytes"
        }
      ],
      "name": "getAddressFromPublicKey",
      "outputs": [
        {
          "internalType": "address",
          "name": "",
          "type": "address"
        }
      ],
      "stateMutability": "pure",
      "type": "function"
    },
    {
      "inputs": [],
      "name": "getSupportedTokens",
      "outputs": [
        {
          "internalType": "address[]",
          "name": "",
          "type": "address[]"
        }
      ],
      "stateMutability": "view",
      "type": "function"
    },
    {
      "inputs": [
        {
          "internalType": "address",
          "name": "_keyLogRegistry",
          "type": "address"
        }
      ],
      "name": "initialize",
      "outputs": [],
      "stateMutability": "nonpayable",
      "type": "function"
    },
    {
      "inputs": [
        {
          "internalType": "address",
          "name": "",
          "type": "address"
        }
      ],
      "name": "isCrossChain",
      "outputs": [
        {
          "internalType": "bool",
          "name": "",
          "type": "bool"
        }
      ],
      "stateMutability": "view",
      "type": "function"
    },
    {
      "inputs": [],
      "name": "keyLogRegistry",
      "outputs": [
        {
          "internalType": "contract KeyLogRegistry",
          "name": "",
          "type": "address"
        }
      ],
      "stateMutability": "view",
      "type": "function"
    },
    {
      "inputs": [
        {
          "internalType": "address",
          "name": "",
          "type": "address"
        }
      ],
      "name": "nonces",
      "outputs": [
        {
          "internalType": "uint256",
          "name": "",
          "type": "uint256"
        }
      ],
      "stateMutability": "view",
      "type": "function"
    },
    {
      "inputs": [
        {
          "internalType": "address",
          "name": "",
          "type": "address"
        }
      ],
      "name": "originalToWrapped",
      "outputs": [
        {
          "internalType": "address",
          "name": "",
          "type": "address"
        }
      ],
      "stateMutability": "view",
      "type": "function"
    },
    {
      "inputs": [],
      "name": "owner",
      "outputs": [
        {
          "internalType": "address",
          "name": "",
          "type": "address"
        }
      ],
      "stateMutability": "view",
      "type": "function"
    },
    {
      "inputs": [
        {
          "internalType": "bytes32",
          "name": "",
          "type": "bytes32"
        }
      ],
      "name": "processedLocks",
      "outputs": [
        {
          "internalType": "bool",
          "name": "",
          "type": "bool"
        }
      ],
      "stateMutability": "view",
      "type": "function"
    },
    {
      "inputs": [],
      "name": "proxiableUUID",
      "outputs": [
        {
          "internalType": "bytes32",
          "name": "",
          "type": "bytes32"
        }
      ],
      "stateMutability": "view",
      "type": "function"
    },
    {
      "inputs": [
        {
          "internalType": "bytes",
          "name": "publicKey",
          "type": "bytes"
        },
        {
          "internalType": "address",
          "name": "publicKeyHash",
          "type": "address"
        },
        {
          "internalType": "address",
          "name": "prerotatedKeyHash",
          "type": "address"
        },
        {
          "internalType": "address",
          "name": "twicePrerotatedKeyHash",
          "type": "address"
        },
        {
          "internalType": "address",
          "name": "prevPublicKeyHash",
          "type": "address"
        },
        {
          "internalType": "address",
          "name": "outputAddress",
          "type": "address"
        },
        {
          "internalType": "bool",
          "name": "hasRelationship",
          "type": "bool"
        },
        {
          "components": [
            {
              "internalType": "address",
              "name": "token",
              "type": "address"
            },
            {
              "internalType": "uint256",
              "name": "amount",
              "type": "uint256"
            },
            {
              "internalType": "uint256",
              "name": "deadline",
              "type": "uint256"
            },
            {
              "internalType": "uint8",
              "name": "v",
              "type": "uint8"
            },
            {
              "internalType": "bytes32",
              "name": "r",
              "type": "bytes32"
            },
            {
              "internalType": "bytes32",
              "name": "s",
              "type": "bytes32"
            }
          ],
          "internalType": "struct Bridge.PermitData[]",
          "name": "permits",
          "type": "tuple[]"
        }
      ],
      "name": "registerKeyWithTransfer",
      "outputs": [],
      "stateMutability": "payable",
      "type": "function"
    },
    {
      "inputs": [],
      "name": "relayer",
      "outputs": [
        {
          "internalType": "address",
          "name": "",
          "type": "address"
        }
      ],
      "stateMutability": "view",
      "type": "function"
    },
    {
      "inputs": [],
      "name": "renounceOwnership",
      "outputs": [],
      "stateMutability": "nonpayable",
      "type": "function"
    },
    {
      "inputs": [
        {
          "internalType": "address",
          "name": "_feeCollector",
          "type": "address"
        }
      ],
      "name": "setFeeCollector",
      "outputs": [],
      "stateMutability": "nonpayable",
      "type": "function"
    },
    {
      "inputs": [
        {
          "internalType": "uint256",
          "name": "_feePercentage",
          "type": "uint256"
        }
      ],
      "name": "setFeePercentage",
      "outputs": [],
      "stateMutability": "nonpayable",
      "type": "function"
    },
    {
      "inputs": [
        {
          "internalType": "address",
          "name": "_relayer",
          "type": "address"
        }
      ],
      "name": "setRelayer",
      "outputs": [],
      "stateMutability": "nonpayable",
      "type": "function"
    },
    {
      "inputs": [
        {
          "internalType": "address",
          "name": "token",
          "type": "address"
        },
        {
          "internalType": "address",
          "name": "priceFeed",
          "type": "address"
        }
      ],
      "name": "setTokenPriceFeed",
      "outputs": [],
      "stateMutability": "nonpayable",
      "type": "function"
    },
    {
      "inputs": [
        {
          "internalType": "uint256",
          "name": "",
          "type": "uint256"
        }
      ],
      "name": "supportedOriginalTokens",
      "outputs": [
        {
          "internalType": "address",
          "name": "",
          "type": "address"
        }
      ],
      "stateMutability": "view",
      "type": "function"
    },
    {
      "inputs": [
        {
          "internalType": "address",
          "name": "",
          "type": "address"
        }
      ],
      "name": "tokenPriceFeeds",
      "outputs": [
        {
          "internalType": "contract AggregatorV3Interface",
          "name": "",
          "type": "address"
        }
      ],
      "stateMutability": "view",
      "type": "function"
    },
    {
      "inputs": [
        {
          "internalType": "address",
          "name": "newOwner",
          "type": "address"
        }
      ],
      "name": "transferOwnership",
      "outputs": [],
      "stateMutability": "nonpayable",
      "type": "function"
    },
    {
      "inputs": [
        {
          "internalType": "address",
          "name": "wrappedToken",
          "type": "address"
        },
        {
          "components": [
            {
              "internalType": "uint256",
              "name": "amount",
              "type": "uint256"
            },
            {
              "internalType": "bytes",
              "name": "signature",
              "type": "bytes"
            },
            {
              "internalType": "bytes",
              "name": "publicKey",
              "type": "bytes"
            },
            {
              "internalType": "address",
              "name": "prerotatedKeyHash",
              "type": "address"
            },
            {
              "internalType": "address",
              "name": "twicePrerotatedKeyHash",
              "type": "address"
            },
            {
              "internalType": "address",
              "name": "prevPublicKeyHash",
              "type": "address"
            },
            {
              "internalType": "address",
              "name": "targetAddress",
              "type": "address"
            },
            {
              "internalType": "bool",
              "name": "hasRelationship",
              "type": "bool"
            },
            {
              "components": [
                {
                  "internalType": "address",
                  "name": "token",
                  "type": "address"
                },
                {
                  "internalType": "uint256",
                  "name": "amount",
                  "type": "uint256"
                },
                {
                  "internalType": "uint256",
                  "name": "deadline",
                  "type": "uint256"
                },
                {
                  "internalType": "uint8",
                  "name": "v",
                  "type": "uint8"
                },
                {
                  "internalType": "bytes32",
                  "name": "r",
                  "type": "bytes32"
                },
                {
                  "internalType": "bytes32",
                  "name": "s",
                  "type": "bytes32"
                }
              ],
              "internalType": "struct Bridge.PermitData[]",
              "name": "permits",
              "type": "tuple[]"
            }
          ],
          "internalType": "struct Bridge.UnwrapParams",
          "name": "unconfirmed",
          "type": "tuple"
        },
        {
          "components": [
            {
              "internalType": "uint256",
              "name": "amount",
              "type": "uint256"
            },
            {
              "internalType": "bytes",
              "name": "signature",
              "type": "bytes"
            },
            {
              "internalType": "bytes",
              "name": "publicKey",
              "type": "bytes"
            },
            {
              "internalType": "address",
              "name": "prerotatedKeyHash",
              "type": "address"
            },
            {
              "internalType": "address",
              "name": "twicePrerotatedKeyHash",
              "type": "address"
            },
            {
              "internalType": "address",
              "name": "prevPublicKeyHash",
              "type": "address"
            },
            {
              "internalType": "address",
              "name": "targetAddress",
              "type": "address"
            },
            {
              "internalType": "bool",
              "name": "hasRelationship",
              "type": "bool"
            },
            {
              "components": [
                {
                  "internalType": "address",
                  "name": "token",
                  "type": "address"
                },
                {
                  "internalType": "uint256",
                  "name": "amount",
                  "type": "uint256"
                },
                {
                  "internalType": "uint256",
                  "name": "deadline",
                  "type": "uint256"
                },
                {
                  "internalType": "uint8",
                  "name": "v",
                  "type": "uint8"
                },
                {
                  "internalType": "bytes32",
                  "name": "r",
                  "type": "bytes32"
                },
                {
                  "internalType": "bytes32",
                  "name": "s",
                  "type": "bytes32"
                }
              ],
              "internalType": "struct Bridge.PermitData[]",
              "name": "permits",
              "type": "tuple[]"
            }
          ],
          "internalType": "struct Bridge.UnwrapParams",
          "name": "confirming",
          "type": "tuple"
        }
      ],
      "name": "unwrapPairWithTransfer",
      "outputs": [],
      "stateMutability": "payable",
      "type": "function"
    },
    {
      "inputs": [
        {
          "internalType": "address",
          "name": "newImplementation",
          "type": "address"
        },
        {
          "internalType": "bytes",
          "name": "data",
          "type": "bytes"
        }
      ],
      "name": "upgradeToAndCall",
      "outputs": [],
      "stateMutability": "payable",
      "type": "function"
    },
    {
      "inputs": [
        {
          "internalType": "address",
          "name": "originalToken",
          "type": "address"
        },
        {
          "components": [
            {
              "internalType": "uint256",
              "name": "amount",
              "type": "uint256"
            },
            {
              "internalType": "bytes",
              "name": "signature",
              "type": "bytes"
            },
            {
              "internalType": "bytes",
              "name": "publicKey",
              "type": "bytes"
            },
            {
              "internalType": "address",
              "name": "prerotatedKeyHash",
              "type": "address"
            },
            {
              "internalType": "address",
              "name": "twicePrerotatedKeyHash",
              "type": "address"
            },
            {
              "internalType": "address",
              "name": "prevPublicKeyHash",
              "type": "address"
            },
            {
              "internalType": "address",
              "name": "outputAddress",
              "type": "address"
            },
            {
              "internalType": "bool",
              "name": "hasRelationship",
              "type": "bool"
            },
            {
              "internalType": "address",
              "name": "tokenSource",
              "type": "address"
            },
            {
              "components": [
                {
                  "internalType": "address",
                  "name": "token",
                  "type": "address"
                },
                {
                  "internalType": "uint256",
                  "name": "amount",
                  "type": "uint256"
                },
                {
                  "internalType": "uint256",
                  "name": "deadline",
                  "type": "uint256"
                },
                {
                  "internalType": "uint8",
                  "name": "v",
                  "type": "uint8"
                },
                {
                  "internalType": "bytes32",
                  "name": "r",
                  "type": "bytes32"
                },
                {
                  "internalType": "bytes32",
                  "name": "s",
                  "type": "bytes32"
                }
              ],
              "internalType": "struct Bridge.PermitData[]",
              "name": "permits",
              "type": "tuple[]"
            }
          ],
          "internalType": "struct Bridge.WrapParams",
          "name": "unconfirmed",
          "type": "tuple"
        },
        {
          "components": [
            {
              "internalType": "uint256",
              "name": "amount",
              "type": "uint256"
            },
            {
              "internalType": "bytes",
              "name": "signature",
              "type": "bytes"
            },
            {
              "internalType": "bytes",
              "name": "publicKey",
              "type": "bytes"
            },
            {
              "internalType": "address",
              "name": "prerotatedKeyHash",
              "type": "address"
            },
            {
              "internalType": "address",
              "name": "twicePrerotatedKeyHash",
              "type": "address"
            },
            {
              "internalType": "address",
              "name": "prevPublicKeyHash",
              "type": "address"
            },
            {
              "internalType": "address",
              "name": "outputAddress",
              "type": "address"
            },
            {
              "internalType": "bool",
              "name": "hasRelationship",
              "type": "bool"
            },
            {
              "internalType": "address",
              "name": "tokenSource",
              "type": "address"
            },
            {
              "components": [
                {
                  "internalType": "address",
                  "name": "token",
                  "type": "address"
                },
                {
                  "internalType": "uint256",
                  "name": "amount",
                  "type": "uint256"
                },
                {
                  "internalType": "uint256",
                  "name": "deadline",
                  "type": "uint256"
                },
                {
                  "internalType": "uint8",
                  "name": "v",
                  "type": "uint8"
                },
                {
                  "internalType": "bytes32",
                  "name": "r",
                  "type": "bytes32"
                },
                {
                  "internalType": "bytes32",
                  "name": "s",
                  "type": "bytes32"
                }
              ],
              "internalType": "struct Bridge.PermitData[]",
              "name": "permits",
              "type": "tuple[]"
            }
          ],
          "internalType": "struct Bridge.WrapParams",
          "name": "confirming",
          "type": "tuple"
        }
      ],
      "name": "wrapPairWithTransfer",
      "outputs": [],
      "stateMutability": "payable",
      "type": "function"
    },
    {
      "inputs": [
        {
          "internalType": "address",
          "name": "",
          "type": "address"
        }
      ],
      "name": "wrappedToOriginal",
      "outputs": [
        {
          "internalType": "address",
          "name": "",
          "type": "address"
        }
      ],
      "stateMutability": "view",
      "type": "function"
    }
  ],
  "bytecode": "0x60a0806040523461002a573060805261433590816100308239608051818181611fc101526120690152f35b600080fdfe610120604052600436101561001357600080fd5b600060c05260c0513560e01c806303f7550d14612433578063081da8c1146123f657806309765f53146123c3578063276c1ac01461237c578063334976c7146122335780634f1ef2861461202b57806352d1902d14611fad5780636548e9bc14611f6957806365d5079a14610d6d578063674417ae14610d0f578063715018a614610ca05780637c0db61014610c635780637ecebe0014610c275780638406c07914610bfd5780638da5cb5b14610bc6578063a001ecdd14610ba7578063a42dce8014610b1f578063a8bc3e0a14610ade578063ad3cb1cc14610a6b578063ae06c1b714610a09578063b5057a7b146109de578063bd9c47e3146109a1578063c415b95c14610977578063c4d66de8146107e5578063d3c7c2c714610719578063d66cb5a0146102cf578063d73792a9146102b1578063d8397fd51461026f578063f2fde38b146101985763f9baf7bf1461016d57600080fd5b346101925760c051366003190112610192576020604051683635c9adc5dea000008152f35b60c05180fd5b34610192576020366003190112610192576101b1613687565b6101b9613fbd565b6001600160a01b0381811691821561021b57600780546001600160a01b031916841790556101ee906101e9613fbd565b613ff6565b60008051602061428083398151915254166000805160206142a083398151915260c05160c051a360c05180f35b60405162461bcd60e51b815260206004820152602660248201527f4f776e61626c653a206e6577206f776e657220697320746865207a65726f206160448201526564647265737360d01b6064820152608490fd5b346101925760203660031901126101925760043560065481101561019257610298602091613797565b905460405160039290921b1c6001600160a01b03168152f35b346101925760c0513660031901126101925760206040516127108152f35b610100366003190112610192576001600160401b03600435818111610192576102fc903690600401613739565b61030461369d565b906044356001600160a01b038116900361071457606435926001600160a01b038416840361071457608435906001600160a01b03821682036107145760a4356001600160a01b03811690036107145760c4359081151582036107145760e435908082116101925736602383011215610192578160040135116101925736602460c0836004013502830101116101925761039b613c6d565b60c0515b816004013581106105a657505060c051546001600160a01b031691823b156101925760405163151cdb2f60e11b815260e060048201529586946103e69060e4870190613757565b6001600160a01b039687166024870152604480358816908701529086166064860152908516608485015260a4803590951694840194909452151560c483015260c0519282900390829084905af1801561059957610583575b5060008051602061428083398151915280546001600160a01b031633148061056f575b6104e3575b5034610485575b60016000805160206142c08339815191525560c05180f35b60c0516104a3908080803460a4355af161049d613b41565b50613b71565b60405134815260a4356001600160a01b03169033907ffb55a98b33e2f35080e8e9656caf739c56946219253f8cd86917f7d33398667690602090a361046d565b6104eb613fbd565b6044356001600160a01b03161561021b57600780546001600160a01b0319166044356001600160a01b0316179055610521613fbd565b61052c604435613ff6565b5460c0516000805160206142a0833981519152916001600160a01b03604435811692911690839080a360c0516044356001600160a01b031691339180a380610466565b506044356001600160a01b03161515610461565b61058c906136b3565b60c051610192578061043e565b6040513d60c051823e3d90fd5b6105c06105bb82846004013560248601613a1e565b613a2e565b90602082015180151580610706575b6105df575b50600191500161039f565b60018060a01b038351169060408401519160ff6060860151169060808601519160a087015194823b15610192576106326040519687958694859463d505accf60e01b865260c05199303360048901613aa9565b039160c051905af18015610599576106f0575b5081516020928301516040516323b872dd60e01b81523360048201526001600160a01b0360a4358116602483015260448201929092529391849116818060648101039160c051905af19182156105995760c051926106b0575b506106aa600192613c29565b886105d4565b91506020823d6020116106e8575b816106cb602093836136c6565b81010312610192576106aa6106e1600193613af2565b925061069e565b3d91506106be565b6106f9906136b3565b60c0516101925788610645565b5060408301514211156105cf565b600080fd5b346101925760c051366003190112610192576040518060065480835260208093018091600660c051527ff652222313e28459528d920b65115c16c04f3efc82aaedc97be59f3f377c0d3f9060c0515b868282106107c857868661077e828803836136c6565b604051928392818401908285525180915260408401929160c0515b8281106107a857505050500390f35b83516001600160a01b031685528695509381019392810192600101610799565b83546001600160a01b031685529093019260019283019201610768565b34610192576020366003190112610192576107fe613687565b7ff0c57e16840df040f15088dc2f81fe391c3923bec73e23a9662efc9c229c6a009081549060ff8260401c1615916001600160401b0381168015908161096f575b6001149081610965575b15908161095c575b5061094a5767ffffffffffffffff19811660011784558261092b575b5061087661412b565b61087e61412b565b61088733613ff6565b61088f61412b565b61089761412b565b61089f61412b565b60016000805160206142c0833981519152556001600160601b0360a01b9060018060a01b03168160c05154161760c051553390600754161760075560016008556108ea575b60c05180f35b68ff00000000000000001981541690557fc7f505b2f371ae2175ee4913f4499e1f2633a7b5936321eed1cdaeb6115181d2602060405160018152a1806108e4565b68ffffffffffffffffff1916680100000000000000011783558361086d565b60405163f92ee8a960e01b8152600490fd5b90501585610851565b303b159150610849565b84915061083f565b346101925760c051366003190112610192576007546040516001600160a01b039091168152602090f35b346101925760203660031901126101925760206001600160a01b03806109c5613687565b1660c05152600a8252604060c051205416604051908152f35b346101925760c0513660031901126101925760c051546040516001600160a01b039091168152602090f35b3461019257602036600319011261019257600435610a25613fbd565b6127108111610a375760085560c05180f35b60405162461bcd60e51b815260206004820152600c60248201526b08ccaca40e8dede40d0d2ced60a31b6044820152606490fd5b346101925760c0513660031901126101925760405160408101908082106001600160401b03831117610ac857610ac49160405260058152640352e302e360dc1b6020820152604051918291602083526020830190613757565b0390f35b634e487b7160e01b600052604160045260246000fd5b34610192576020366003190112610192576001600160a01b03610aff613687565b1660c051526004602052602060ff604060c0512054166040519015158152f35b3461019257602036600319011261019257610b38613687565b610b40613fbd565b6001600160a01b03168015610b6a576001600160601b0360a01b600754161760075560c05160c051f35b60405162461bcd60e51b815260206004820152601560248201527424b73b30b634b2103332b29031b7b63632b1ba37b960591b6044820152606490fd5b346101925760c051366003190112610192576020600854604051908152f35b346101925760c05136600319011261019257600080516020614280833981519152546040516001600160a01b039091168152602090f35b346101925760c051366003190112610192576001546040516001600160a01b039091168152602090f35b34610192576020366003190112610192576001600160a01b03610c48613687565b1660c0515260056020526020604060c0512054604051908152f35b346101925760203660031901126101925760206001600160a01b0380610c87613687565b1660c0515260038252604060c051205416604051908152f35b346101925760c05136600319011261019257610cba613fbd565b60008051602061428083398151915280546001600160a01b031981169091556000906001600160a01b03167f8be0079c531659141344cd1fd0a4f28419497f9722a3daafe3b4186f6b6457e08280a360c05180f35b3461019257604036600319011261019257610d28613687565b610d3061369d565b90610d39613fbd565b60c080516001600160a01b039283169052600a602052516040812080546001600160a01b0319169390921692909217905580f35b60031960603682011261019257610d82613687565b906001600160401b03602435116101925761014090818160243536030112610192576001600160401b0360443511610192576044353603011261019257610dc7613c6d565b60c080516001600160a01b0383811690915260026020529051604090205416610df18115156137e4565b8060c05152600460205260ff604060c051205416611ecf575b3360c051526005602052604060c051205490610e2a60c460243501613830565b604051610e5681610e48866020830195602435600401358a88613844565b03601f1981018352826136c6565b51902060008051602061426083398151915260c05152601c52610eba610eaa610ea1603c60c05120610e9b610e946024803501602435600401613871565b3691613702565b9061406a565b909291926140a6565b6001600160a01b031633146138a3565b610ec860c460443501613830565b60018301831161171857604051610ef481610e4860208201946001880190604435600401358a88613844565b51902060008051602061426083398151915260c05152601c52610f76610f33610ea1603c60c05120610e9b610e94602460443501604435600401613871565b610f5e610f63610f4c6044803501604435600401613871565b6001600160a01b039391369190613702565b613bb3565b6001600160a01b039092169116146138ef565b60c051546001600160a01b0316610120610f9460243560c401613830565b6040516324b9c44160e21b81526001600160a01b03909116600482015291829060249082905afa80156105995760c051918291611ddc575b50611d52575b506044356004013560243560040135016024356004013511611d3c5761100660443560040135602435600401350184613d11565b8060443560040135602435600401350110611cf757604435600401356024356004013501151580611cdc575b6119f0575b8160c05152600460205260ff604060c05120541615611814575b60c0515b61106a610124602435016024356004016139e9565b9050811015611245576110956105bb8261108f610124602435016024356004016139e9565b90613a1e565b90602082015180151580611237575b80611220575b6110ba575b506001915001611055565b82516001600160a01b03166110d460243561010401613830565b9060408501519060ff6060870151169160808701519460a0880151833b156101925761111d906040519788968795869563d505accf60e01b875260c0519a309060048901613aa9565b039160c051905af180156105995761120a575b5081516111a0926020916001600160a01b031661115260243561010401613830565b9183611162606460443501613830565b9101516040516323b872dd60e01b81526001600160a01b03948516600482015293909116602484015260448301529093849190829081906064820190565b039160c051905af19182156105995760c051926111ca575b506111c4600192613c29565b866110af565b91506020823d602011611202575b816111e5602093836136c6565b81010312610192576111c46111fb600193613af2565b92506111b8565b3d91506111d8565b611213906136b3565b60c0516101925786611130565b5082516001600160a01b03888116911614156110aa565b5060408301514211156110a4565b50838360018060a01b0360c0515416610e9460446024350191611281610f5e61127385602435600401613871565b949095602435600401613871565b91611290606460243501613830565b9361129f608460243501613830565b60a0526112b060a460243501613830565b6112be60c460243501613830565b6112cc60e46024350161393b565b6112e5610f5e610e946044803501604435600401613871565b6112f3606460443501613830565b611301608460443501613830565b9161131060a460443501613830565b9361131f60c460443501613830565b9561132e60e46044350161393b565b978b3b156101925761136799604051608052635988f59760e01b6080515260c0519e6080519e6080519d60a05193600460805101613948565b03906080519060c051905af18015610599576117fb575b600080516020614280833981519152546001600160a01b03163314806117dc575b611730575b60028101809111611718573360c051526005602052604060c0512055811515806116fd575b611631575b506024356004013561155b575b60046044350135811015611552576113f99060443560040135613ae5565b80611489575b50503461141e5760016000805160206142c08339815191525560c05180f35b60c0516114419080808034611437604435606401613830565b5af161049d613b41565b6001600160a01b03611457604435606401613830565b166040513481527ffb55a98b33e2f35080e8e9656caf739c56946219253f8cd86917f7d33398667660203392a361046d565b611497606460443501613830565b823b15610192576040516340c10f1960e01b815260c0516001600160a01b0390921660048201526024810183905290818060448101038160c051875af180156105995761153c575b507fb5187db8729022d088cc50f8b09bdeaec0ac84d7686d287a7dd82dc25704f7f3906001600160a01b03611518604435606401613830565b604080516001600160a01b0396909616865260208601939093521692a280806113ff565b611545906136b3565b60c05161019257826114df565b5060c0516113f9565b61156960c460243501613830565b823b15610192576040516340c10f1960e01b815260c0516001600160a01b039092166004808301919091526024803591909101359082015290818060448101038160c051875af180156105995761161b575b506001600160a01b036115d260243560c401613830565b604080516001600160a01b038616815260243560040135602082015291909216917fb5187db8729022d088cc50f8b09bdeaec0ac84d7686d287a7dd82dc25704f7f391a26113db565b611624906136b3565b60c05161019257826115bb565b60075460405163a9059cbb60e01b81526001600160a01b0391821660048201526024810184905260c05190916020918391604491839187165af180156105995760c051906116c2575b6116849150613aff565b6040518281526001600160a01b03909116907f9dc46f23cfb5ddcad0ae7ea2be38d47fec07bb9382ec7e564efc69e036dd66ce90602090a2826113ce565b506020813d6020116116f5575b816116dc602093836136c6565b81010312610192576116f061168491613af2565b61167a565b3d91506116cf565b508260c05152600460205260ff604060c051205416156113c9565b634e487b7160e01b60c051526011600452602460c051fd5b61173e606460443501613830565b611746613fbd565b6001600160a01b0381161561021b57600780546001600160a01b0319166001600160a01b038316179055611778613fbd565b61178181613ff6565b6000805160206142808339815191525460c0516000805160206142a0833981519152926001600160a01b03908116921690839080a36001600160a01b036117cc604435606401613830565b1690339060c05160c051a36113a4565b506001600160a01b036117f3604435606401613830565b16151561139f565b6118066080516136b3565b60c0511561137e5760c05180fd5b61182361010460243501613830565b6040516370a0823160e01b81526001600160a01b039182166004820152906020908290602490829089165afa9081156105995760c051916119be575b508061186c575b50611051565b80602061187e61010460243501613830565b61188c606460443501613830565b6040516323b872dd60e01b81526001600160a01b0392831660048201529082166024820152604481019390935260c051839160649183918b165af19081156105995760c05191611984575b501561192e576001600160a01b036118f460243561010401613830565b166040519182527ee8ffc569c5f605999e8ad11ec9db2ef2254b66370f5b963df609fa59854eb2602060018060a01b03881693a384611866565b60405162461bcd60e51b815260206004820152602860248201527f52656d61696e696e67206f726967696e616c20746f6b656e207472616e7366656044820152671c8819985a5b195960c21b6064820152608490fd5b90506020813d6020116119b6575b8161199f602093836136c6565b81010312610192576119b090613af2565b866118d7565b3d9150611992565b90506020813d6020116119e8575b816119d9602093836136c6565b8101031261071457518561185f565b3d91506119cc565b60c051929190835b611a0d610124602435016024356004016139e9565b9050811015611cd357611a326105bb8261108f610124602435016024356004016139e9565b80516001600160a01b03908116908816811480611cb7575b80611ca9575b611a5e5750506001016119f8565b91509192939450611a7461010460243501613830565b90602083015190604084015160ff6060860151169260a06080870151960151833b1561019257611ac1906040519788968795869563d505accf60e01b875260c0519a309060048901613aa9565b039160c051905af1801561059957611c93575b5060015b8015611be8575b15611baa57611b416020611af861010460243501613830565b6040516323b872dd60e01b81526001600160a01b039091166004808301919091523060248084019190915235810135604480359290920135019082015291829081906064820190565b038160c05160018060a01b038a165af180156105995760c05190611b6f575b611b6a9150613c29565b611037565b506020813d602011611ba2575b81611b89602093836136c6565b8101031261019257611b9d611b6a91613af2565b611b60565b3d9150611b7c565b60405162461bcd60e51b8152602060048201526016602482015275496e73756666696369656e7420616c6c6f77616e636560501b6044820152606490fd5b50611c2c6020611bfd61010460243501613830565b604051636eb1769f60e11b81526001600160a01b03909116600482015230602482015291829081906044820190565b03816001600160a01b0389165afa9081156105995760c05191611c61575b506044356004013560243560040135011115611adf565b90506020813d602011611c8b575b81611c7c602093836136c6565b81010312610714575185611c4a565b3d9150611c6f565b611c9c906136b3565b60c0516101925784611ad4565b506040820151421115611a50565b5060443560040135602435600401350160208301511015611a4a565b50909192611ad8565b508160c05152600460205260ff604060c05120541615611032565b60405162461bcd60e51b815260206004820152601b60248201527f416d6f756e7420746f6f206c6f7720746f20636f7665722066656500000000006044820152606490fd5b634e487b7160e01b600052601160045260246000fd5b602001516001600160a01b0390811690611d7060243560c401613830565b1603611d7c5783610fd2565b60405162461bcd60e51b815260206004820152603260248201527f4f75747075742061646472657373206973206e6f7420746865206c6174657374604482015271040e0e4cae4dee8c2e8cac896caf290c2e6d60731b6064820152608490fd5b915050806101203d61012011611ec8575b611df781836136c6565b810103610120811261019257610100136101925760405190816101008101106001600160401b0361010084011117610ac8576101008201604052611e3a81613c15565b8252611e4860208201613c15565b6020830152611e5960408201613c15565b6040830152611e6a60608201613c15565b6060830152611e7b60808201613c15565b6080830152611e8c60a08201613af2565b60a0830152611e9d60c08201613af2565b60c083015260e081015160038110156101925760e0830152611ec29061010001613af2565b85610fcc565b503d611ded565b600080516020614280833981519152546001600160a01b031633148015611f55575b610e0a5760405162461bcd60e51b815260206004820152603260248201527f43726f73732d636861696e206d696e74696e6720726573747269637465642074604482015271379037bbb732b91037b9103932b630bcb2b960711b6064820152608490fd5b506001546001600160a01b03163314611ef1565b3461019257602036600319011261019257611f82613687565b611f8a613fbd565b60018060a01b03166001600160601b0360a01b600154161760015560c05160c051f35b346101925760c051366003190112610192577f00000000000000000000000000000000000000000000000000000000000000006001600160a01b031630036120195760206040517f360894a13ba1a3210667c828492db98dca3e2076cc3735a920a3ca505d382bbc8152f35b60405163703e46dd60e11b8152600490fd5b60403660031901126101925761203f613687565b6024356001600160401b0381116101925761205e903690600401613739565b906001600160a01b037f00000000000000000000000000000000000000000000000000000000000000008116308114908115612205575b50612019576120a2613fbd565b8116916040516352d1902d60e01b8152602081600481875afa60c05191816121d1575b506120e357604051634c9c8ce360e01b815260048101859052602490fd5b7f360894a13ba1a3210667c828492db98dca3e2076cc3735a920a3ca505d382bbc908181036121b95750823b156121a057836001600160601b0360a01b825416179055604051927fbc7cd75a20ee27fd9adebab32041f755214dbc6bffa90cc0225b39da2e5c2d3b60c05160c051a28051156121845761217d925060c0519060c05190602081519101845af4612177613b41565b916141fc565b5060c05180f35b50503461219157506108e4565b63b398979f60e01b8152600490fd5b604051634c9c8ce360e01b815260048101859052602490fd5b60249060405190632a87526960e21b82526004820152fd5b9091506020813d6020116121fd575b816121ed602093836136c6565b81010312610192575190856120c5565b3d91506121e0565b9050817f360894a13ba1a3210667c828492db98dca3e2076cc3735a920a3ca505d382bbc5416141584612095565b346101925760603660031901126101925761224c613687565b61225461369d565b60443580151580910361071457612269613fbd565b60018060a01b03809316918260c05152600260205283604060c051205416612337578260c05152600260205283604060c0512091166001600160601b0360a01b91818382541617905560c05152600360205282604060c05120918254161790556004602052604060c051209060ff801983541691161790556006546801000000000000000081101561231f578060016123059201600655613797565b909283549160031b92831b921b191617905560c05160c051f35b634e487b7160e01b60c051526041600452602460c051fd5b60405162461bcd60e51b815260206004820152601960248201527f546f6b656e207061697220616c726561647920657869737473000000000000006044820152606490fd5b34610192576020366003190112610192576004356001600160401b038111610192576123b1610f5e6020923690600401613739565b6040516001600160a01b039091168152f35b346101925760203660031901126101925760043560c051526009602052602060ff604060c0512054166040519015158152f35b346101925760203660031901126101925760206001600160a01b038061241a613687565b1660c0515260028252604060c051205416604051908152f35b60031960603682011261019257612448613687565b906001600160401b0390816024351161019257610120918282602435360301126101925760443511610192576044353603011261019257612487613c6d565b6000805160206142e0833981519152608060405160408152601c60408201527f537461727420756e7772617050616972576974685472616e7366657200000000606082015260c0516020820152a160c080516001600160a01b0383811690915260036020529051604090205416906125008215156137e4565b6000805160206142e08339815191526080604051604081526012604082015271151bdad95b881c185a5c8818da1958dad95960721b606082015260c0516020820152a160c080516001600160a01b0383169052600460205251604090205460ff166135ed575b3360c051526005602052604060c05120546000805160206142e0833981519152608060405160408152600d60408201526c139bdb98d94819995d18da1959609a1b6060820152836020820152a16125c160c460243501613830565b6040516125df81610e48856020830195602435600401358988613844565b51902060008051602061426083398151915260c05152601c526126a661262c603c60c0512061262361261d610e946024803501602435600401613871565b8261406a565b909391936140a6565b7f7e6a49f35e3e07bf6b560eeb6ef6c8b821c4499a2a6301de6547ab58b52b0be561269061266a610f5e610e94604460243501602435600401613871565b604080519485526001600160a01b03861660208601523390850152929081906060820190565b0390a16001600160a01b039182169116146138a3565b6126b460c460443501613830565b600182018211611718576040516126e081610e4860208201946001870190604435600401358988613844565b51902060008051602061426083398151915260c05152601c5261279361271f603c60c0512061262361261d610e94602460443501604435600401613871565b7f7e6a49f35e3e07bf6b560eeb6ef6c8b821c4499a2a6301de6547ab58b52b0be58261275a610f5e610e946044803501604435600401613871565b604080519485526001600160a01b0392831660208601529181169184019190915291606090a16001600160a01b039182169116146138ef565b6000805160206142e083398151915260806040516040815260146040820152735265676973746572696e67206b6579206c6f677360601b606082015260c0516020820152a160c051546001600160a01b03166127f86024356044810190600401613871565b9091612814610f5e610e94604460243501602435600401613871565b91612823606460243501613830565b93612832608460243501613830565b6101005261284460a460243501613830565b61285260c460243501613830565b61286060e46024350161393b565b612879610f5e610e946044803501604435600401613871565b612887606460443501613830565b612895608460443501613830565b916128a460a460443501613830565b936128b360c460443501613830565b956128c260e46044350161393b565b978b3b15610192576128fc9960405160e052635988f59760e01b60e0515260c0519e60e0519e60e0519d6101005193600460e05101613948565b039060e0519060c051905af18015610599576135dd575b600080516020614280833981519152546001600160a01b03163314806135be575b613512575b600281018111611718576002903360c05152600560205201604060c051205560c0515b612971610104602435016024356004016139e9565b9050811015612a9e576129966105bb8261108f610104602435016024356004016139e9565b90602082015180151580612a90575b6129b5575b50600191500161295c565b60018060a01b038351169060408401519160ff6060860151169060808601519160a087015194823b1561019257612a086040519687958694859463d505accf60e01b865260c05199303360048901613aa9565b039160c051905af1801561059957612a7a575b506000805160206142e08339815191526080600193848060a01b039051166040519060408252601a60408301527f5065726d69742070726f63657373656420666f7220746f6b656e00000000000060608301526020820152a1846129aa565b612a83906136b3565b60c0516101925784612a1b565b5060408301514211156129a5565b50906000805160206142e0833981519152608060405160408152600e60408201526d4275726e696e6720746f6b656e7360901b6060820152602435600401356020820152a160243560040135156134bf5760c080516001600160a01b0384169052600460205251604090205460ff16156134b957612b2060c460243501613830565b6001600160a01b0383163b1561019257604051632770a7eb60e21b815260c080516001600160a01b039384166004808501919091526024803590910135908401529051919290918391604491839188165af18015610599576134a3575b50612b8e6024356004013582613d11565b6004602435013581101561349a57612bac8160243560040135613ae5565b925b60018060a01b031660c05152600460205260ff604060c0512054166000146132bc57507fcca356c69c0991b2f138fe7c7f64cf9be89604118a06017a49e0001782bc6536612c27612c03606460443501613830565b604080516001600160a01b0390921682526020820195909552339490918291820190565b0390a35b6000805160206142e0833981519152608060405160408152601f60408201527f5472616e7366657272696e672072656d61696e696e672062616c616e63657300606082015260c0516020820152a160c0515b60065481101561329f57612c9081613797565b60018060a01b0391549060031b1c168060c05152600260205260018060a01b03604060c05120541691604051916370a0823160e01b8352336004840152602083602481845afa9283156105995760c0519361326b575b508261301d575b50905081612d00575b6001915001612c7d565b6040516370a0823160e01b815233600482015291602083602481845afa9283156105995760c05193612fe9575b5082612d3a575b50612cf6565b60c0519190825b612d56610104602435016024356004016139e9565b9050811015612fe157612d7b6105bb8261108f610104602435016024356004016139e9565b80516001600160a01b031683149081612fd1575b81612fc2575b50612da257600101612d41565b5090915060015b8015612f51575b15612efb57612e00602084612dc9606460443501613830565b6040516323b872dd60e01b81523360048201526001600160a01b039091166024820152604481019190915291829081906064820190565b038160c051865af19081156105995760c05191612ec1575b5015612e7c576001927fb5187db8729022d088cc50f8b09bdeaec0ac84d7686d287a7dd82dc25704f7f3906001600160a01b03612e59604435606401613830565b604080516001600160a01b0396909616865260208601939093521692a282612d34565b60405162461bcd60e51b815260206004820152601d60248201527f5772617070656420746f6b656e207472616e73666572206661696c65640000006044820152606490fd5b90506020813d602011612ef3575b81612edc602093836136c6565b8101031261019257612eed90613af2565b84612e18565b3d9150612ecf565b60405162461bcd60e51b815260206004820152602860248201527f496e73756666696369656e7420616c6c6f77616e636520666f7220777261707060448201526732b2103a37b5b2b760c11b6064820152608490fd5b50604051636eb1769f60e11b8152336004820152306024820152602081604481855afa801561059957849160c05191612f8d575b501015612db0565b9150506020813d602011612fba575b81612fa9602093836136c6565b810103126107145783905185612f85565b3d9150612f9c565b60409150015142111586612d95565b9050856020820151101590612d8f565b509091612da9565b9092506020813d602011613015575b81613005602093836136c6565b8101031261071457519183612d2d565b3d9150612ff8565b60c05192835b613038610104602435016024356004016139e9565b90508110156132625761305d6105bb8261108f610104602435016024356004016139e9565b80516001600160a01b031684149081613252575b81613243575b5061308457600101613023565b509091925060015b80156131d2575b1561317b576130ac602082612dc9606460443501613830565b038160c051875af19081156105995760c05191613141575b50156130fc576040519081527ee8ffc569c5f605999e8ad11ec9db2ef2254b66370f5b963df609fa59854eb260203392a38083612ced565b60405162461bcd60e51b815260206004820152601e60248201527f4f726967696e616c20746f6b656e207472616e73666572206661696c656400006044820152606490fd5b90506020813d602011613173575b8161315c602093836136c6565b810103126101925761316d90613af2565b856130c4565b3d915061314f565b60405162461bcd60e51b815260206004820152602960248201527f496e73756666696369656e7420616c6c6f77616e636520666f72206f726967696044820152683730b6103a37b5b2b760b91b6064820152608490fd5b50604051636eb1769f60e11b8152336004820152306024820152602081604481865afa801561059957829160c0519161320e575b501015613093565b9150506020813d60201161323b575b8161322a602093836136c6565b810103126107145781905186613206565b3d915061321d565b60409150015142111587613077565b9050826020820151101590613071565b5090919261308c565b9092506020813d602011613297575b81613287602093836136c6565b8101031261071457519184612ce6565b3d915061327a565b3461141e5760016000805160206142c08339815191525560c05180f35b806133b0575b50816132d0575b5050612c2b565b61331a916020916132e5606460443501613830565b60405163a9059cbb60e01b81526001600160a01b03909116600482015260248101929092529092839190829081906044820190565b039160c051905af19081156105995760c05191613376575b501561333f5780806132c9565b60405162461bcd60e51b815260206004820152600f60248201526e151c985b9cd9995c8819985a5b1959608a1b6044820152606490fd5b90506020813d6020116133a8575b81613391602093836136c6565b81010312610192576133a290613af2565b81613332565b3d9150613384565b60075460405163a9059cbb60e01b81526001600160a01b03909116600482015260248101829052906020828060448101038160c051875af1801561059957839260c05191613434575b507f9dc46f23cfb5ddcad0ae7ea2be38d47fec07bb9382ec7e564efc69e036dd66ce91613427602092613aff565b604051908152a2826132c2565b9250506020823d602011613492575b81613450602093836136c6565b810103126101925760207f9dc46f23cfb5ddcad0ae7ea2be38d47fec07bb9382ec7e564efc69e036dd66ce916134276134898695613af2565b925050916133f9565b3d9150613443565b60c05192612bae565b6134ac906136b3565b60c0516101925782612b7d565b33612b20565b60405162461bcd60e51b815260206004820152602560248201527f4275726e20616d6f756e74206d7573742062652067726561746572207468616e604482015264207a65726f60d81b6064820152608490fd5b613520606460443501613830565b613528613fbd565b6001600160a01b0381161561021b57600780546001600160a01b0319166001600160a01b03831617905561355a613fbd565b61356381613ff6565b6000805160206142808339815191525460c0516000805160206142a0833981519152926001600160a01b03908116921690839080a36001600160a01b036135ae604435606401613830565b1690339060c05160c051a3612939565b506001600160a01b036135d5604435606401613830565b161515612934565b6135e860e0516136b3565b612913565b600080516020614280833981519152546001600160a01b031633148015613673575b6125665760405162461bcd60e51b815260206004820152603260248201527f43726f73732d636861696e206275726e696e6720726573747269637465642074604482015271379037bbb732b91037b9103932b630bcb2b960711b6064820152608490fd5b506001546001600160a01b0316331461360f565b600435906001600160a01b038216820361071457565b602435906001600160a01b038216820361071457565b6001600160401b038111610ac857604052565b90601f801991011681019081106001600160401b03821117610ac857604052565b6001600160401b038111610ac857601f01601f191660200190565b92919261370e826136e7565b9161371c60405193846136c6565b829481845281830111610714578281602093846000960137010152565b9080601f830112156107145781602061375493359101613702565b90565b919082519283825260005b848110613783575050826000602080949584010152601f8019910116010190565b602081830181015184830182015201613762565b6006548110156137ce5760066000527ff652222313e28459528d920b65115c16c04f3efc82aaedc97be59f3f377c0d3f0190600090565b634e487b7160e01b600052603260045260246000fd5b156137eb57565b60405162461bcd60e51b815260206004820152601860248201527f546f6b656e2070616972206e6f7420737570706f7274656400000000000000006044820152606490fd5b356001600160a01b03811681036107145790565b92606894926001600160601b0319809360601b168552601485015260601b16603483015260488201520190565b903590601e198136030182121561071457018035906001600160401b0382116107145760200191813603831361071457565b156138aa57565b60405162461bcd60e51b815260206004820152601d60248201527f496e76616c696420756e636f6e6669726d6564207369676e61747572650000006044820152606490fd5b156138f657565b60405162461bcd60e51b815260206004820152601c60248201527f496e76616c696420636f6e6669726d696e67207369676e6174757265000000006044820152606490fd5b3580151581036107145790565b9c999394969a959891979e9d9b978091818f816101a08083528201526101c094859384830137010160009052601f1990601f01168d01019d8c600160a01b60019003809c81809c81809c81809c81809c1660208a0152166040880152166060860152166080840152169060a00152151560c08d01521660e08b0152166101008901521661012087015216610140850152166101608301521515906101800152565b903590601e198136030182121561071457018035906001600160401b038211610714576020019160c082023603831361071457565b91908110156137ce5760c0020190565b60c081360312610714576040519060c082018281106001600160401b03821117610ac85760405280356001600160a01b0381168103610714578252602081013560208301526040810135604083015260608101359060ff821682036107145760a091606084015260808101356080840152013560a082015290565b9360ff929897969360c0969260e087019a60018060a01b0380921688521660208701526040860152606085015216608083015260a08201520152565b91908203918211611d3c57565b5190811515820361071457565b15613b0657565b60405162461bcd60e51b8152602060048201526013602482015272119959481d1c985b9cd9995c8819985a5b1959606a1b6044820152606490fd5b3d15613b6c573d90613b52826136e7565b91613b6060405193846136c6565b82523d6000602084013e565b606090565b15613b7857565b60405162461bcd60e51b8152602060048201526013602482015272115512081d1c985b9cd9995c8819985a5b1959606a1b6044820152606490fd5b6040815103613bd05780516020909101206001600160a01b031690565b60405162461bcd60e51b815260206004820152601b60248201527f5075626c6963206b6579206d75737420626520363420627974657300000000006044820152606490fd5b51906001600160a01b038216820361071457565b15613c3057565b60405162461bcd60e51b8152602060048201526015602482015274151bdad95b881d1c985b9cd9995c8819985a5b1959605a1b6044820152606490fd5b6000805160206142c08339815191526002815414613c8b5760029055565b604051633ee5aeb560e01b8152600490fd5b81810292918115918404141715611d3c57565b8115613cba570490565b634e487b7160e01b600052601260045260246000fd5b519069ffffffffffffffffffff8216820361071457565b90816020910312610714575160ff811681036107145790565b60ff16604d8111611d3c57600a0a90565b90613d226127109160085490613c9d565b0460018060a01b0380921660009281845260049060209180835260409160ff838820541615613d56575b5050505050905090565b600a84528287205416938415613d4c578251633fabe5a360e21b81529360a0858481895afa948515613fb3578895613f61575b5087851315613f2a578351958187858163313ce56760e01b948582525afa968715613f20578997613eff575b5081908486518095819382525afa938415613ef657508793613ec7575b505060ff683635c9adc5dea00000921660128111600014613e6557601119019060ff8211613e52575090613e08613e0e92613d00565b90613c9d565b915b60ff811615613e4257613e2e92613e08613e2992613d00565b613cb0565b915b5081811115613e3d575090565b905090565b50613e4c91613cb0565b91613e30565b634e487b7160e01b875260119052602486fd5b60128195939510613e78575b5050613e10565b6012949192940360ff8111613eb457613e9090613d00565b918215613ea1575004913880613e71565b634e487b7160e01b875260129052602486fd5b634e487b7160e01b875260118352602487fd5b613ee7929350803d10613eef575b613edf81836136c6565b810190613ce7565b903880613dd2565b503d613ed5565b513d89823e3d90fd5b82919750613f1990823d8411613eef57613edf81836136c6565b9690613db5565b85513d8b823e3d90fd5b9050606492519162461bcd60e51b83528201526012602482015271125b9d985b1a59081c1c9a58d9481999595960721b6044820152fd5b90945060a0813d60a011613fab575b81613f7d60a093836136c6565b81010312613fa757613f8e81613cd0565b50613f9f6080868301519201613cd0565b509338613d89565b8780fd5b3d9150613f70565b84513d8a823e3d90fd5b600080516020614280833981519152546001600160a01b03163303613fde57565b60405163118cdaa760e01b8152336004820152602490fd5b6001600160a01b039081169081156140515760008051602061428083398151915280546001600160a01b031981168417909155167f8be0079c531659141344cd1fd0a4f28419497f9722a3daafe3b4186f6b6457e0600080a3565b604051631e4fbdf760e01b815260006004820152602490fd5b815191906041830361409b5761409492506020820151906060604084015193015160001a9061416c565b9192909190565b505060009160029190565b600481101561411557806140b8575050565b600181036140d25760405163f645eedf60e01b8152600490fd5b600281036140f35760405163fce698f760e01b815260048101839052602490fd5b6003146140fd5750565b602490604051906335e2f38360e21b82526004820152fd5b634e487b7160e01b600052602160045260246000fd5b60ff7ff0c57e16840df040f15088dc2f81fe391c3923bec73e23a9662efc9c229c6a005460401c161561415a57565b604051631afcd79f60e31b8152600490fd5b91907f7fffffffffffffffffffffffffffffff5d576e7357a4501ddfe92f46681b20a084116141f057926020929160ff608095604051948552168484015260408301526060820152600092839182805260015afa156141e45780516001600160a01b038116156141db57918190565b50809160019190565b604051903d90823e3d90fd5b50505060009160039190565b90614223575080511561421157805190602001fd5b60405163d6bda27560e01b8152600490fd5b81511580614256575b614234575090565b604051639996b31560e01b81526001600160a01b039091166004820152602490fd5b50803b1561422c56fe19457468657265756d205369676e6564204d6573736167653a0a3332000000009016d09d72d40fdae2fd8ceac6b6234c7706214fd39c1cd1e609a0528c199300b69157d514c6095da5c13b2b365be77ea013833d7ac38ad33874591a9df70e2b9b779b17422d0df92223018b32b4d1fa46e071723d6817e2486d003becc55f003f8b99da4d19c05414499f4a5f0607e7204caf30eba8c8eac2445f1157102fd3a264697066735822122085800d6915feda64c9d542800a032a43f9e5bc91412ca5adcdd09eab94e995b664736f6c63430008180033",
  "linkReferences": {},
  "deployedLinkReferences": {}
}