{
  "_format": "hh-sol-artifact-1",
  "contractName": "Bridge",
  "sourceName": "contracts/Bridge.sol",
  "abi": [
    {
      "inputs": [
        {
          "internalType": "address",
          "name": "target",
          "type": "address"
        }
      ],
      "name": "AddressEmptyCode",
      "type": "error"
    },
    {
      "inputs": [],
      "name": "AmountTooLow",
      "type": "error"
    },
    {
      "inputs": [],
      "name": "BurnAmountZero",
      "type": "error"
    },
    {
      "inputs": [],
      "name": "ECDSAInvalidSignature",
      "type": "error"
    },
    {
      "inputs": [
        {
          "internalType": "uint256",
          "name": "length",
          "type": "uint256"
        }
      ],
      "name": "ECDSAInvalidSignatureLength",
      "type": "error"
    },
    {
      "inputs": [
        {
          "internalType": "bytes32",
          "name": "s",
          "type": "bytes32"
        }
      ],
      "name": "ECDSAInvalidSignatureS",
      "type": "error"
    },
    {
      "inputs": [
        {
          "internalType": "address",
          "name": "implementation",
          "type": "address"
        }
      ],
      "name": "ERC1967InvalidImplementation",
      "type": "error"
    },
    {
      "inputs": [],
      "name": "ERC1967NonPayable",
      "type": "error"
    },
    {
      "inputs": [],
      "name": "EthTransferFailed",
      "type": "error"
    },
    {
      "inputs": [],
      "name": "FailedCall",
      "type": "error"
    },
    {
      "inputs": [],
      "name": "FeeTooHigh",
      "type": "error"
    },
    {
      "inputs": [],
      "name": "FeeTransferFailed",
      "type": "error"
    },
    {
      "inputs": [],
      "name": "InsufficientAllowance",
      "type": "error"
    },
    {
      "inputs": [
        {
          "internalType": "address",
          "name": "token",
          "type": "address"
        }
      ],
      "name": "InsufficientPermits",
      "type": "error"
    },
    {
      "inputs": [],
      "name": "InvalidConfirmingSignature",
      "type": "error"
    },
    {
      "inputs": [],
      "name": "InvalidFeeCollector",
      "type": "error"
    },
    {
      "inputs": [],
      "name": "InvalidInitialization",
      "type": "error"
    },
    {
      "inputs": [],
      "name": "InvalidPrerotatedKeyHash",
      "type": "error"
    },
    {
      "inputs": [],
      "name": "InvalidPriceFeed",
      "type": "error"
    },
    {
      "inputs": [],
      "name": "InvalidPublicKey",
      "type": "error"
    },
    {
      "inputs": [],
      "name": "InvalidUnconfirmedSignature",
      "type": "error"
    },
    {
      "inputs": [],
      "name": "NoTokenPairs",
      "type": "error"
    },
    {
      "inputs": [],
      "name": "NotInitializing",
      "type": "error"
    },
    {
      "inputs": [
        {
          "internalType": "address",
          "name": "owner",
          "type": "address"
        }
      ],
      "name": "OwnableInvalidOwner",
      "type": "error"
    },
    {
      "inputs": [
        {
          "internalType": "address",
          "name": "account",
          "type": "address"
        }
      ],
      "name": "OwnableUnauthorizedAccount",
      "type": "error"
    },
    {
      "inputs": [],
      "name": "ReentrancyGuardReentrantCall",
      "type": "error"
    },
    {
      "inputs": [],
      "name": "RestrictedToOwnerRelayer",
      "type": "error"
    },
    {
      "inputs": [],
      "name": "TokenPairExists",
      "type": "error"
    },
    {
      "inputs": [],
      "name": "TokenPairNotSupported",
      "type": "error"
    },
    {
      "inputs": [],
      "name": "TransferFailed",
      "type": "error"
    },
    {
      "inputs": [],
      "name": "UUPSUnauthorizedCallContext",
      "type": "error"
    },
    {
      "inputs": [
        {
          "internalType": "bytes32",
          "name": "slot",
          "type": "bytes32"
        }
      ],
      "name": "UUPSUnsupportedProxiableUUID",
      "type": "error"
    },
    {
      "inputs": [],
      "name": "ZeroAddress",
      "type": "error"
    },
    {
      "anonymous": false,
      "inputs": [
        {
          "indexed": false,
          "internalType": "uint64",
          "name": "version",
          "type": "uint64"
        }
      ],
      "name": "Initialized",
      "type": "event"
    },
    {
      "anonymous": false,
      "inputs": [
        {
          "indexed": true,
          "internalType": "address",
          "name": "previousOwner",
          "type": "address"
        },
        {
          "indexed": true,
          "internalType": "address",
          "name": "newOwner",
          "type": "address"
        }
      ],
      "name": "OwnershipTransferred",
      "type": "event"
    },
    {
      "anonymous": false,
      "inputs": [
        {
          "indexed": true,
          "internalType": "address",
          "name": "implementation",
          "type": "address"
        }
      ],
      "name": "Upgraded",
      "type": "event"
    },
    {
      "inputs": [],
      "name": "FEE_CAP_USD",
      "outputs": [
        {
          "internalType": "uint256",
          "name": "",
          "type": "uint256"
        }
      ],
      "stateMutability": "view",
      "type": "function"
    },
    {
      "inputs": [],
      "name": "FEE_DENOMINATOR",
      "outputs": [
        {
          "internalType": "uint256",
          "name": "",
          "type": "uint256"
        }
      ],
      "stateMutability": "view",
      "type": "function"
    },
    {
      "inputs": [],
      "name": "UPGRADE_INTERFACE_VERSION",
      "outputs": [
        {
          "internalType": "string",
          "name": "",
          "type": "string"
        }
      ],
      "stateMutability": "view",
      "type": "function"
    },
    {
      "inputs": [
        {
          "components": [
            {
              "internalType": "address",
              "name": "originalToken",
              "type": "address"
            },
            {
              "internalType": "string",
              "name": "tokenName",
              "type": "string"
            },
            {
              "internalType": "string",
              "name": "tokenSymbol",
              "type": "string"
            },
            {
              "internalType": "bool",
              "name": "isCrossChain",
              "type": "bool"
            },
            {
              "internalType": "address",
              "name": "wrappedToken",
              "type": "address"
            },
            {
              "internalType": "address",
              "name": "priceFeed",
              "type": "address"
            }
          ],
          "internalType": "struct Bridge.TokenPair[]",
          "name": "newTokenPairs",
          "type": "tuple[]"
        },
        {
          "components": [
            {
              "internalType": "bytes",
              "name": "signature",
              "type": "bytes"
            },
            {
              "internalType": "bytes",
              "name": "publicKey",
              "type": "bytes"
            },
            {
              "internalType": "address",
              "name": "publicKeyHash",
              "type": "address"
            },
            {
              "internalType": "address",
              "name": "prerotatedKeyHash",
              "type": "address"
            },
            {
              "internalType": "address",
              "name": "twicePrerotatedKeyHash",
              "type": "address"
            },
            {
              "internalType": "address",
              "name": "prevPublicKeyHash",
              "type": "address"
            },
            {
              "internalType": "address",
              "name": "outputAddress",
              "type": "address"
            },
            {
              "internalType": "bool",
              "name": "hasRelationship",
              "type": "bool"
            },
            {
              "components": [
                {
                  "internalType": "address",
                  "name": "token",
                  "type": "address"
                },
                {
                  "internalType": "uint256",
                  "name": "amount",
                  "type": "uint256"
                },
                {
                  "internalType": "uint256",
                  "name": "deadline",
                  "type": "uint256"
                },
                {
                  "internalType": "uint8",
                  "name": "v",
                  "type": "uint8"
                },
                {
                  "internalType": "bytes32",
                  "name": "r",
                  "type": "bytes32"
                },
                {
                  "internalType": "bytes32",
                  "name": "s",
                  "type": "bytes32"
                },
                {
                  "components": [
                    {
                      "internalType": "address",
                      "name": "recipientAddress",
                      "type": "address"
                    },
                    {
                      "internalType": "uint256",
                      "name": "amount",
                      "type": "uint256"
                    },
                    {
                      "internalType": "bool",
                      "name": "wrap",
                      "type": "bool"
                    },
                    {
                      "internalType": "bool",
                      "name": "unwrap",
                      "type": "bool"
                    }
                  ],
                  "internalType": "struct Bridge.Recipient[]",
                  "name": "recipients",
                  "type": "tuple[]"
                }
              ],
              "internalType": "struct Bridge.PermitData[]",
              "name": "permits",
              "type": "tuple[]"
            }
          ],
          "internalType": "struct Bridge.KeyData",
          "name": "unconfirmed",
          "type": "tuple"
        },
        {
          "components": [
            {
              "internalType": "bytes",
              "name": "signature",
              "type": "bytes"
            },
            {
              "internalType": "bytes",
              "name": "publicKey",
              "type": "bytes"
            },
            {
              "internalType": "address",
              "name": "publicKeyHash",
              "type": "address"
            },
            {
              "internalType": "address",
              "name": "prerotatedKeyHash",
              "type": "address"
            },
            {
              "internalType": "address",
              "name": "twicePrerotatedKeyHash",
              "type": "address"
            },
            {
              "internalType": "address",
              "name": "prevPublicKeyHash",
              "type": "address"
            },
            {
              "internalType": "address",
              "name": "outputAddress",
              "type": "address"
            },
            {
              "internalType": "bool",
              "name": "hasRelationship",
              "type": "bool"
            },
            {
              "components": [
                {
                  "internalType": "address",
                  "name": "token",
                  "type": "address"
                },
                {
                  "internalType": "uint256",
                  "name": "amount",
                  "type": "uint256"
                },
                {
                  "internalType": "uint256",
                  "name": "deadline",
                  "type": "uint256"
                },
                {
                  "internalType": "uint8",
                  "name": "v",
                  "type": "uint8"
                },
                {
                  "internalType": "bytes32",
                  "name": "r",
                  "type": "bytes32"
                },
                {
                  "internalType": "bytes32",
                  "name": "s",
                  "type": "bytes32"
                },
                {
                  "components": [
                    {
                      "internalType": "address",
                      "name": "recipientAddress",
                      "type": "address"
                    },
                    {
                      "internalType": "uint256",
                      "name": "amount",
                      "type": "uint256"
                    },
                    {
                      "internalType": "bool",
                      "name": "wrap",
                      "type": "bool"
                    },
                    {
                      "internalType": "bool",
                      "name": "unwrap",
                      "type": "bool"
                    }
                  ],
                  "internalType": "struct Bridge.Recipient[]",
                  "name": "recipients",
                  "type": "tuple[]"
                }
              ],
              "internalType": "struct Bridge.PermitData[]",
              "name": "permits",
              "type": "tuple[]"
            }
          ],
          "internalType": "struct Bridge.KeyData",
          "name": "confirming",
          "type": "tuple"
        }
      ],
      "name": "addMultipleTokenPairsAtomic",
      "outputs": [],
      "stateMutability": "payable",
      "type": "function"
    },
    {
      "inputs": [
        {
          "internalType": "address",
          "name": "originalToken",
          "type": "address"
        },
        {
          "internalType": "address",
          "name": "wrappedToken",
          "type": "address"
        },
        {
          "internalType": "bool",
          "name": "_isCrossChain",
          "type": "bool"
        }
      ],
      "name": "addTokenPair",
      "outputs": [],
      "stateMutability": "nonpayable",
      "type": "function"
    },
    {
      "inputs": [],
      "name": "ethPriceFeed",
      "outputs": [
        {
          "internalType": "contract AggregatorV3Interface",
          "name": "",
          "type": "address"
        }
      ],
      "stateMutability": "view",
      "type": "function"
    },
    {
      "inputs": [],
      "name": "feeCollector",
      "outputs": [
        {
          "internalType": "address",
          "name": "",
          "type": "address"
        }
      ],
      "stateMutability": "view",
      "type": "function"
    },
    {
      "inputs": [],
      "name": "feePercentage",
      "outputs": [
        {
          "internalType": "uint256",
          "name": "",
          "type": "uint256"
        }
      ],
      "stateMutability": "view",
      "type": "function"
    },
    {
      "inputs": [
        {
          "internalType": "bytes",
          "name": "publicKey",
          "type": "bytes"
        }
      ],
      "name": "getAddressFromPublicKey",
      "outputs": [
        {
          "internalType": "address",
          "name": "",
          "type": "address"
        }
      ],
      "stateMutability": "pure",
      "type": "function"
    },
    {
      "inputs": [],
      "name": "getSupportedTokens",
      "outputs": [
        {
          "internalType": "address[]",
          "name": "",
          "type": "address[]"
        }
      ],
      "stateMutability": "view",
      "type": "function"
    },
    {
      "inputs": [
        {
          "internalType": "address",
          "name": "_keyLogRegistry",
          "type": "address"
        },
        {
          "internalType": "address",
          "name": "_ethPriceFeed",
          "type": "address"
        }
      ],
      "name": "initialize",
      "outputs": [],
      "stateMutability": "nonpayable",
      "type": "function"
    },
    {
      "inputs": [],
      "name": "keyLogRegistry",
      "outputs": [
        {
          "internalType": "contract KeyLogRegistry",
          "name": "",
          "type": "address"
        }
      ],
      "stateMutability": "view",
      "type": "function"
    },
    {
      "inputs": [
        {
          "internalType": "address",
          "name": "",
          "type": "address"
        }
      ],
      "name": "nonces",
      "outputs": [
        {
          "internalType": "uint256",
          "name": "",
          "type": "uint256"
        }
      ],
      "stateMutability": "view",
      "type": "function"
    },
    {
      "inputs": [
        {
          "internalType": "address",
          "name": "originalToken",
          "type": "address"
        }
      ],
      "name": "originalToWrapped",
      "outputs": [
        {
          "internalType": "address",
          "name": "",
          "type": "address"
        }
      ],
      "stateMutability": "view",
      "type": "function"
    },
    {
      "inputs": [],
      "name": "owner",
      "outputs": [
        {
          "internalType": "address",
          "name": "",
          "type": "address"
        }
      ],
      "stateMutability": "view",
      "type": "function"
    },
    {
      "inputs": [],
      "name": "proxiableUUID",
      "outputs": [
        {
          "internalType": "bytes32",
          "name": "",
          "type": "bytes32"
        }
      ],
      "stateMutability": "view",
      "type": "function"
    },
    {
      "inputs": [
        {
          "components": [
            {
              "internalType": "uint256",
              "name": "amount",
              "type": "uint256"
            },
            {
              "internalType": "bytes",
              "name": "signature",
              "type": "bytes"
            },
            {
              "internalType": "bytes",
              "name": "publicKey",
              "type": "bytes"
            },
            {
              "internalType": "address",
              "name": "prerotatedKeyHash",
              "type": "address"
            },
            {
              "internalType": "address",
              "name": "twicePrerotatedKeyHash",
              "type": "address"
            },
            {
              "internalType": "address",
              "name": "prevPublicKeyHash",
              "type": "address"
            },
            {
              "internalType": "address",
              "name": "outputAddress",
              "type": "address"
            },
            {
              "internalType": "bool",
              "name": "hasRelationship",
              "type": "bool"
            },
            {
              "internalType": "address",
              "name": "tokenSource",
              "type": "address"
            },
            {
              "components": [
                {
                  "internalType": "address",
                  "name": "token",
                  "type": "address"
                },
                {
                  "internalType": "uint256",
                  "name": "amount",
                  "type": "uint256"
                },
                {
                  "internalType": "uint256",
                  "name": "deadline",
                  "type": "uint256"
                },
                {
                  "internalType": "uint8",
                  "name": "v",
                  "type": "uint8"
                },
                {
                  "internalType": "bytes32",
                  "name": "r",
                  "type": "bytes32"
                },
                {
                  "internalType": "bytes32",
                  "name": "s",
                  "type": "bytes32"
                },
                {
                  "components": [
                    {
                      "internalType": "address",
                      "name": "recipientAddress",
                      "type": "address"
                    },
                    {
                      "internalType": "uint256",
                      "name": "amount",
                      "type": "uint256"
                    },
                    {
                      "internalType": "bool",
                      "name": "wrap",
                      "type": "bool"
                    },
                    {
                      "internalType": "bool",
                      "name": "unwrap",
                      "type": "bool"
                    }
                  ],
                  "internalType": "struct Bridge.Recipient[]",
                  "name": "recipients",
                  "type": "tuple[]"
                }
              ],
              "internalType": "struct Bridge.PermitData[]",
              "name": "permits",
              "type": "tuple[]"
            }
          ],
          "internalType": "struct Bridge.Params",
          "name": "unconfirmed",
          "type": "tuple"
        },
        {
          "components": [
            {
              "internalType": "uint256",
              "name": "amount",
              "type": "uint256"
            },
            {
              "internalType": "bytes",
              "name": "signature",
              "type": "bytes"
            },
            {
              "internalType": "bytes",
              "name": "publicKey",
              "type": "bytes"
            },
            {
              "internalType": "address",
              "name": "prerotatedKeyHash",
              "type": "address"
            },
            {
              "internalType": "address",
              "name": "twicePrerotatedKeyHash",
              "type": "address"
            },
            {
              "internalType": "address",
              "name": "prevPublicKeyHash",
              "type": "address"
            },
            {
              "internalType": "address",
              "name": "outputAddress",
              "type": "address"
            },
            {
              "internalType": "bool",
              "name": "hasRelationship",
              "type": "bool"
            },
            {
              "internalType": "address",
              "name": "tokenSource",
              "type": "address"
            },
            {
              "components": [
                {
                  "internalType": "address",
                  "name": "token",
                  "type": "address"
                },
                {
                  "internalType": "uint256",
                  "name": "amount",
                  "type": "uint256"
                },
                {
                  "internalType": "uint256",
                  "name": "deadline",
                  "type": "uint256"
                },
                {
                  "internalType": "uint8",
                  "name": "v",
                  "type": "uint8"
                },
                {
                  "internalType": "bytes32",
                  "name": "r",
                  "type": "bytes32"
                },
                {
                  "internalType": "bytes32",
                  "name": "s",
                  "type": "bytes32"
                },
                {
                  "components": [
                    {
                      "internalType": "address",
                      "name": "recipientAddress",
                      "type": "address"
                    },
                    {
                      "internalType": "uint256",
                      "name": "amount",
                      "type": "uint256"
                    },
                    {
                      "internalType": "bool",
                      "name": "wrap",
                      "type": "bool"
                    },
                    {
                      "internalType": "bool",
                      "name": "unwrap",
                      "type": "bool"
                    }
                  ],
                  "internalType": "struct Bridge.Recipient[]",
                  "name": "recipients",
                  "type": "tuple[]"
                }
              ],
              "internalType": "struct Bridge.PermitData[]",
              "name": "permits",
              "type": "tuple[]"
            }
          ],
          "internalType": "struct Bridge.Params",
          "name": "confirming",
          "type": "tuple"
        }
      ],
      "name": "registerKeyPairWithTransfer",
      "outputs": [],
      "stateMutability": "payable",
      "type": "function"
    },
    {
      "inputs": [
        {
          "internalType": "bytes",
          "name": "publicKey",
          "type": "bytes"
        },
        {
          "internalType": "address",
          "name": "publicKeyHash",
          "type": "address"
        },
        {
          "internalType": "address",
          "name": "prerotatedKeyHash",
          "type": "address"
        },
        {
          "internalType": "address",
          "name": "twicePrerotatedKeyHash",
          "type": "address"
        },
        {
          "internalType": "address",
          "name": "prevPublicKeyHash",
          "type": "address"
        },
        {
          "internalType": "address",
          "name": "outputAddress",
          "type": "address"
        },
        {
          "internalType": "bool",
          "name": "hasRelationship",
          "type": "bool"
        },
        {
          "components": [
            {
              "internalType": "address",
              "name": "token",
              "type": "address"
            },
            {
              "internalType": "uint256",
              "name": "amount",
              "type": "uint256"
            },
            {
              "internalType": "uint256",
              "name": "deadline",
              "type": "uint256"
            },
            {
              "internalType": "uint8",
              "name": "v",
              "type": "uint8"
            },
            {
              "internalType": "bytes32",
              "name": "r",
              "type": "bytes32"
            },
            {
              "internalType": "bytes32",
              "name": "s",
              "type": "bytes32"
            },
            {
              "components": [
                {
                  "internalType": "address",
                  "name": "recipientAddress",
                  "type": "address"
                },
                {
                  "internalType": "uint256",
                  "name": "amount",
                  "type": "uint256"
                },
                {
                  "internalType": "bool",
                  "name": "wrap",
                  "type": "bool"
                },
                {
                  "internalType": "bool",
                  "name": "unwrap",
                  "type": "bool"
                }
              ],
              "internalType": "struct Bridge.Recipient[]",
              "name": "recipients",
              "type": "tuple[]"
            }
          ],
          "internalType": "struct Bridge.PermitData[]",
          "name": "permits",
          "type": "tuple[]"
        }
      ],
      "name": "registerKeyWithTransfer",
      "outputs": [],
      "stateMutability": "payable",
      "type": "function"
    },
    {
      "inputs": [],
      "name": "relayer",
      "outputs": [
        {
          "internalType": "address",
          "name": "",
          "type": "address"
        }
      ],
      "stateMutability": "view",
      "type": "function"
    },
    {
      "inputs": [],
      "name": "renounceOwnership",
      "outputs": [],
      "stateMutability": "nonpayable",
      "type": "function"
    },
    {
      "inputs": [
        {
          "internalType": "address",
          "name": "_ethPriceFeed",
          "type": "address"
        }
      ],
      "name": "setEthPriceFeed",
      "outputs": [],
      "stateMutability": "nonpayable",
      "type": "function"
    },
    {
      "inputs": [
        {
          "internalType": "address",
          "name": "_feeCollector",
          "type": "address"
        }
      ],
      "name": "setFeeCollector",
      "outputs": [],
      "stateMutability": "nonpayable",
      "type": "function"
    },
    {
      "inputs": [
        {
          "internalType": "uint256",
          "name": "_feePercentage",
          "type": "uint256"
        }
      ],
      "name": "setFeePercentage",
      "outputs": [],
      "stateMutability": "nonpayable",
      "type": "function"
    },
    {
      "inputs": [
        {
          "internalType": "address",
          "name": "_relayer",
          "type": "address"
        }
      ],
      "name": "setRelayer",
      "outputs": [],
      "stateMutability": "nonpayable",
      "type": "function"
    },
    {
      "inputs": [
        {
          "internalType": "address",
          "name": "token",
          "type": "address"
        },
        {
          "internalType": "address",
          "name": "priceFeed",
          "type": "address"
        }
      ],
      "name": "setTokenPriceFeed",
      "outputs": [],
      "stateMutability": "nonpayable",
      "type": "function"
    },
    {
      "inputs": [
        {
          "internalType": "uint256",
          "name": "",
          "type": "uint256"
        }
      ],
      "name": "supportedOriginalTokens",
      "outputs": [
        {
          "internalType": "address",
          "name": "",
          "type": "address"
        }
      ],
      "stateMutability": "view",
      "type": "function"
    },
    {
      "inputs": [
        {
          "internalType": "address",
          "name": "",
          "type": "address"
        }
      ],
      "name": "tokenPairs",
      "outputs": [
        {
          "internalType": "address",
          "name": "originalToken",
          "type": "address"
        },
        {
          "internalType": "address",
          "name": "wrappedToken",
          "type": "address"
        },
        {
          "internalType": "bool",
          "name": "isCrossChain",
          "type": "bool"
        }
      ],
      "stateMutability": "view",
      "type": "function"
    },
    {
      "inputs": [
        {
          "internalType": "address",
          "name": "",
          "type": "address"
        }
      ],
      "name": "tokenPriceFeeds",
      "outputs": [
        {
          "internalType": "contract AggregatorV3Interface",
          "name": "",
          "type": "address"
        }
      ],
      "stateMutability": "view",
      "type": "function"
    },
    {
      "inputs": [
        {
          "internalType": "address",
          "name": "newOwner",
          "type": "address"
        }
      ],
      "name": "transferOwnership",
      "outputs": [],
      "stateMutability": "nonpayable",
      "type": "function"
    },
    {
      "inputs": [
        {
          "internalType": "address",
          "name": "wrappedToken",
          "type": "address"
        },
        {
          "components": [
            {
              "internalType": "uint256",
              "name": "amount",
              "type": "uint256"
            },
            {
              "internalType": "bytes",
              "name": "signature",
              "type": "bytes"
            },
            {
              "internalType": "bytes",
              "name": "publicKey",
              "type": "bytes"
            },
            {
              "internalType": "address",
              "name": "prerotatedKeyHash",
              "type": "address"
            },
            {
              "internalType": "address",
              "name": "twicePrerotatedKeyHash",
              "type": "address"
            },
            {
              "internalType": "address",
              "name": "prevPublicKeyHash",
              "type": "address"
            },
            {
              "internalType": "address",
              "name": "outputAddress",
              "type": "address"
            },
            {
              "internalType": "bool",
              "name": "hasRelationship",
              "type": "bool"
            },
            {
              "internalType": "address",
              "name": "tokenSource",
              "type": "address"
            },
            {
              "components": [
                {
                  "internalType": "address",
                  "name": "token",
                  "type": "address"
                },
                {
                  "internalType": "uint256",
                  "name": "amount",
                  "type": "uint256"
                },
                {
                  "internalType": "uint256",
                  "name": "deadline",
                  "type": "uint256"
                },
                {
                  "internalType": "uint8",
                  "name": "v",
                  "type": "uint8"
                },
                {
                  "internalType": "bytes32",
                  "name": "r",
                  "type": "bytes32"
                },
                {
                  "internalType": "bytes32",
                  "name": "s",
                  "type": "bytes32"
                },
                {
                  "components": [
                    {
                      "internalType": "address",
                      "name": "recipientAddress",
                      "type": "address"
                    },
                    {
                      "internalType": "uint256",
                      "name": "amount",
                      "type": "uint256"
                    },
                    {
                      "internalType": "bool",
                      "name": "wrap",
                      "type": "bool"
                    },
                    {
                      "internalType": "bool",
                      "name": "unwrap",
                      "type": "bool"
                    }
                  ],
                  "internalType": "struct Bridge.Recipient[]",
                  "name": "recipients",
                  "type": "tuple[]"
                }
              ],
              "internalType": "struct Bridge.PermitData[]",
              "name": "permits",
              "type": "tuple[]"
            }
          ],
          "internalType": "struct Bridge.Params",
          "name": "unconfirmed",
          "type": "tuple"
        },
        {
          "components": [
            {
              "internalType": "uint256",
              "name": "amount",
              "type": "uint256"
            },
            {
              "internalType": "bytes",
              "name": "signature",
              "type": "bytes"
            },
            {
              "internalType": "bytes",
              "name": "publicKey",
              "type": "bytes"
            },
            {
              "internalType": "address",
              "name": "prerotatedKeyHash",
              "type": "address"
            },
            {
              "internalType": "address",
              "name": "twicePrerotatedKeyHash",
              "type": "address"
            },
            {
              "internalType": "address",
              "name": "prevPublicKeyHash",
              "type": "address"
            },
            {
              "internalType": "address",
              "name": "outputAddress",
              "type": "address"
            },
            {
              "internalType": "bool",
              "name": "hasRelationship",
              "type": "bool"
            },
            {
              "internalType": "address",
              "name": "tokenSource",
              "type": "address"
            },
            {
              "components": [
                {
                  "internalType": "address",
                  "name": "token",
                  "type": "address"
                },
                {
                  "internalType": "uint256",
                  "name": "amount",
                  "type": "uint256"
                },
                {
                  "internalType": "uint256",
                  "name": "deadline",
                  "type": "uint256"
                },
                {
                  "internalType": "uint8",
                  "name": "v",
                  "type": "uint8"
                },
                {
                  "internalType": "bytes32",
                  "name": "r",
                  "type": "bytes32"
                },
                {
                  "internalType": "bytes32",
                  "name": "s",
                  "type": "bytes32"
                },
                {
                  "components": [
                    {
                      "internalType": "address",
                      "name": "recipientAddress",
                      "type": "address"
                    },
                    {
                      "internalType": "uint256",
                      "name": "amount",
                      "type": "uint256"
                    },
                    {
                      "internalType": "bool",
                      "name": "wrap",
                      "type": "bool"
                    },
                    {
                      "internalType": "bool",
                      "name": "unwrap",
                      "type": "bool"
                    }
                  ],
                  "internalType": "struct Bridge.Recipient[]",
                  "name": "recipients",
                  "type": "tuple[]"
                }
              ],
              "internalType": "struct Bridge.PermitData[]",
              "name": "permits",
              "type": "tuple[]"
            }
          ],
          "internalType": "struct Bridge.Params",
          "name": "confirming",
          "type": "tuple"
        }
      ],
      "name": "unwrap",
      "outputs": [],
      "stateMutability": "payable",
      "type": "function"
    },
    {
      "inputs": [
        {
          "internalType": "address",
          "name": "newImplementation",
          "type": "address"
        },
        {
          "internalType": "bytes",
          "name": "data",
          "type": "bytes"
        }
      ],
      "name": "upgradeToAndCall",
      "outputs": [],
      "stateMutability": "payable",
      "type": "function"
    },
    {
      "inputs": [
        {
          "internalType": "address",
          "name": "originalToken",
          "type": "address"
        },
        {
          "components": [
            {
              "internalType": "uint256",
              "name": "amount",
              "type": "uint256"
            },
            {
              "internalType": "bytes",
              "name": "signature",
              "type": "bytes"
            },
            {
              "internalType": "bytes",
              "name": "publicKey",
              "type": "bytes"
            },
            {
              "internalType": "address",
              "name": "prerotatedKeyHash",
              "type": "address"
            },
            {
              "internalType": "address",
              "name": "twicePrerotatedKeyHash",
              "type": "address"
            },
            {
              "internalType": "address",
              "name": "prevPublicKeyHash",
              "type": "address"
            },
            {
              "internalType": "address",
              "name": "outputAddress",
              "type": "address"
            },
            {
              "internalType": "bool",
              "name": "hasRelationship",
              "type": "bool"
            },
            {
              "internalType": "address",
              "name": "tokenSource",
              "type": "address"
            },
            {
              "components": [
                {
                  "internalType": "address",
                  "name": "token",
                  "type": "address"
                },
                {
                  "internalType": "uint256",
                  "name": "amount",
                  "type": "uint256"
                },
                {
                  "internalType": "uint256",
                  "name": "deadline",
                  "type": "uint256"
                },
                {
                  "internalType": "uint8",
                  "name": "v",
                  "type": "uint8"
                },
                {
                  "internalType": "bytes32",
                  "name": "r",
                  "type": "bytes32"
                },
                {
                  "internalType": "bytes32",
                  "name": "s",
                  "type": "bytes32"
                },
                {
                  "components": [
                    {
                      "internalType": "address",
                      "name": "recipientAddress",
                      "type": "address"
                    },
                    {
                      "internalType": "uint256",
                      "name": "amount",
                      "type": "uint256"
                    },
                    {
                      "internalType": "bool",
                      "name": "wrap",
                      "type": "bool"
                    },
                    {
                      "internalType": "bool",
                      "name": "unwrap",
                      "type": "bool"
                    }
                  ],
                  "internalType": "struct Bridge.Recipient[]",
                  "name": "recipients",
                  "type": "tuple[]"
                }
              ],
              "internalType": "struct Bridge.PermitData[]",
              "name": "permits",
              "type": "tuple[]"
            }
          ],
          "internalType": "struct Bridge.Params",
          "name": "unconfirmed",
          "type": "tuple"
        },
        {
          "components": [
            {
              "internalType": "uint256",
              "name": "amount",
              "type": "uint256"
            },
            {
              "internalType": "bytes",
              "name": "signature",
              "type": "bytes"
            },
            {
              "internalType": "bytes",
              "name": "publicKey",
              "type": "bytes"
            },
            {
              "internalType": "address",
              "name": "prerotatedKeyHash",
              "type": "address"
            },
            {
              "internalType": "address",
              "name": "twicePrerotatedKeyHash",
              "type": "address"
            },
            {
              "internalType": "address",
              "name": "prevPublicKeyHash",
              "type": "address"
            },
            {
              "internalType": "address",
              "name": "outputAddress",
              "type": "address"
            },
            {
              "internalType": "bool",
              "name": "hasRelationship",
              "type": "bool"
            },
            {
              "internalType": "address",
              "name": "tokenSource",
              "type": "address"
            },
            {
              "components": [
                {
                  "internalType": "address",
                  "name": "token",
                  "type": "address"
                },
                {
                  "internalType": "uint256",
                  "name": "amount",
                  "type": "uint256"
                },
                {
                  "internalType": "uint256",
                  "name": "deadline",
                  "type": "uint256"
                },
                {
                  "internalType": "uint8",
                  "name": "v",
                  "type": "uint8"
                },
                {
                  "internalType": "bytes32",
                  "name": "r",
                  "type": "bytes32"
                },
                {
                  "internalType": "bytes32",
                  "name": "s",
                  "type": "bytes32"
                },
                {
                  "components": [
                    {
                      "internalType": "address",
                      "name": "recipientAddress",
                      "type": "address"
                    },
                    {
                      "internalType": "uint256",
                      "name": "amount",
                      "type": "uint256"
                    },
                    {
                      "internalType": "bool",
                      "name": "wrap",
                      "type": "bool"
                    },
                    {
                      "internalType": "bool",
                      "name": "unwrap",
                      "type": "bool"
                    }
                  ],
                  "internalType": "struct Bridge.Recipient[]",
                  "name": "recipients",
                  "type": "tuple[]"
                }
              ],
              "internalType": "struct Bridge.PermitData[]",
              "name": "permits",
              "type": "tuple[]"
            }
          ],
          "internalType": "struct Bridge.Params",
          "name": "confirming",
          "type": "tuple"
        }
      ],
      "name": "wrap",
      "outputs": [],
      "stateMutability": "payable",
      "type": "function"
    }
  ],
  "bytecode": "0x60a0806040523461002a5730608052615dc49081610030823960805181818161186901526119180152f35b600080fdfe60808060405260043610156200001457600080fd5b600090813560e01c908163081da8c11462002bc85750806308516fa914620026a6578063276c1ac01462002658578063334976c71462002520578063376b787a1462002320578063446b41201462001d0257806347bbbdf51462001ca3578063485cc9551462001ae95780634f1ef28614620018d457806352d1902d14620018545780636548e9bc146200180e578063674417ae14620017ac578063715018a6146200173c5780637ecebe0014620016ff5780638406c07914620016d457806387bec9821462000e075780638da5cb5b1462000dce5780639e65745514620005b6578063a001ecdd1462000596578063a42dce801462000536578063ad3cb1cc14620004bf578063ae06c1b7146200047c578063af7665ce1462000451578063b5057a7b1462000428578063bd9c47e314620003e8578063c011c9eb14620003a2578063c415b95c1462000377578063d3c7c2c714620002a9578063d73792a9146200028a578063d8397fd51462000241578063f2fde38b14620001ca5763f9baf7bf14620001a257600080fd5b34620001c75780600319360112620001c7576020604051683635c9adc5dea000008152f35b80fd5b5034620001c7576020366003190112620001c757620001e862002c3f565b620001f262003b87565b6001600160a01b0381169081156200022f576200022c916001600160601b0360a01b60025416176002556200022662003b87565b620040a6565b80f35b60405163d92e233d60e01b8152600490fd5b5034620001c7576020366003190112620001c75760043590600654821015620001c7576020620002718362002e37565b905460405160039290921b1c6001600160a01b03168152f35b5034620001c75780600319360112620001c75760206040516127108152f35b5034620001c75780600319360112620001c75760405180916006549081835260208093018092600683527ff652222313e28459528d920b65115c16c04f3efc82aaedc97be59f3f377c0d3f90835b8181106200035957505050846200031091038562002cb2565b60405193838594850191818652518092526040850193925b8281106200033857505050500390f35b83516001600160a01b03168552869550938101939281019260010162000328565b82546001600160a01b031684529286019260019283019201620002f7565b5034620001c75780600319360112620001c7576002546040516001600160a01b039091168152602090f35b5034620001c7576020366003190112620001c757620003c062002c3f565b620003ca62003b87565b60018060a01b03166001600160601b0360a01b600854161760085580f35b5034620001c7576020366003190112620001c7576020906001600160a01b0390604090826200041662002c3f565b16815260078452205416604051908152f35b5034620001c75780600319360112620001c757546040516001600160a01b039091168152602090f35b5034620001c75780600319360112620001c7576008546040516001600160a01b039091168152602090f35b5034620001c7576020366003190112620001c7576004356200049d62003b87565b6127108111620004ad5760035580f35b60405163cd4e616760e01b8152600490fd5b5034620001c75780600319360112620001c75760405160408101908082106001600160401b0383111762000520576200051c9160405260058152640352e302e360dc1b602082015260405191829160208352602083019062002df5565b0390f35b634e487b7160e01b600052604160045260246000fd5b5034620001c7576020366003190112620001c7576200055462002c3f565b6200055e62003b87565b6001600160a01b0316801562000584576001600160601b0360a01b600254161760025580f35b60405163bb0bac9960e01b8152600490fd5b5034620001c75780600319360112620001c7576020600354604051908152f35b50620005c23662002d8e565b909291620005cf620033a0565b6001600160a01b0381168352600460205260408084209051919060ff90600190620005fa8562002c82565b818060a01b038154168552015460018060a01b038116602085015260a01c16151560408301523384526005602052604084205494620006b1620006aa6200064460c0840162003120565b604080516001600160a01b03808816602083019081528735938301939093529092166060830152608082018a9052906200068c8160a081015b03601f19810183528262002cb2565b5190206200069e602085018562003151565b92903393369162002cf0565b9062003bc2565b1562000dbc57620006c560c0850162003120565b60018701871162000da857604080516001600160a01b038086166020830190815288359383019390935290921660608301526001880160808301526200075c91620006aa91906200071a8160a081016200067d565b5190206200072c602088018862003151565b9290620007536200074d6200074560408c018c62003151565b369162002cf0565b62003194565b93369162002cf0565b1562000d965784546001600160a01b03166101206200077e60c0840162003120565b6040516324b9c44160e21b81526001600160a01b03909116600482015291829060249082905afa801562000d8b578691879162000c7b575b5062000c3d575b50620007cb81358362003e19565b928382351062000c2b57620007e03462003ccb565b9384341062000c2b57620007f8610100840162003120565b6200080861012085018562002e85565b36906200081592620030a7565b6200082191866200373b565b62000830604084018462003151565b876200083f6060870162003120565b926200084e6080880162003120565b6200085c60a0890162003120565b906200086b60c08a0162003120565b956200087a60e08b0162003186565b62000889604087018762003151565b9890946200089a6060890162003120565b94620008a960808a0162003120565b96620008b860a08b0162003120565b98620008c760c08c0162003120565b9a60e001620008d69062003186565b9b3690620008e49262002cf0565b9b3690620008f29262002cf0565b94620008fe9b62003aaa565b60008051602062005d4f833981519152546001600160a01b031633148062000c0b575b62000bb9575b6002880180981162000ba5578697338852600560205260408820558015158062000b92575b62000acf575b6200095f90833562003143565b908162000a36575b5050503462000988575b83600160008051602062005d6f8339815191525580f35b81620009f9575b6001600160a01b0316620009a5575b8062000971565b620009b1903462003143565b80156200099e5782809291620009cb606083940162003120565b5af1620009d762003072565b5015620009e7578038806200099e565b604051630db2c7f160e31b8152600490fd5b928080808460018060a01b03600254165af162000a1562003072565b501562000a245783926200098f565b604051634033e4e360e01b8152600490fd5b602001516001600160a01b03169162000a529060c00162003120565b90823b1562000acb576040516340c10f1960e01b81526001600160a01b0392909216600483015260248201529085908290604490829084905af190811562000ac057859162000aa3575b8062000967565b62000aae9062002c9e565b62000abb57833862000a9c565b505050fd5b6040513d87823e3d90fd5b8680fd5b60025460405163a9059cbb60e01b81526001600160a01b03909116600482015260248101829052909650602081806044810103818b6001600160a01b0389165af190811562000b8757889162000b41575b501562000b2f57869562000952565b6040516312171d8360e31b8152600490fd5b90506020813d60201162000b7e575b8162000b5f6020938362002cb2565b8101031262000b7a5762000b739062003135565b3862000b20565b8780fd5b3d915062000b50565b6040513d8a823e3d90fd5b506001600160a01b03841615156200094c565b634e487b7160e01b87526011600452602487fd5b62000bc76060870162003120565b62000bd162003b87565b6001600160a01b0381169081156200022f5762000c05916001600160601b0360a01b60025416176002556200022662003b87565b62000927565b506001600160a01b0362000c226060880162003120565b16151562000921565b604051631fbaba3560e01b8152600490fd5b602001516001600160a01b039081169062000c5b60c0840162003120565b160362000c695738620007bd565b604051631a7ec90d60e01b8152600490fd5b915050806101203d6101201162000d83575b62000c99818362002cb2565b810103610120811262000acb576101001362000d7f5760405190816101008101106001600160401b03610100840111176200052057610100820160405262000ce1816200338b565b825262000cf1602082016200338b565b602083015262000d04604082016200338b565b604083015262000d17606082016200338b565b606083015262000d2a608082016200338b565b608083015262000d3d60a0820162003135565b60a083015262000d5060c0820162003135565b60c083015260e0810151600381101562000b7a5760e083015262000d78906101000162003135565b38620007b6565b8580fd5b503d62000c8d565b6040513d88823e3d90fd5b604051633bc0bb3d60e21b8152600490fd5b634e487b7160e01b86526011600452602486fd5b604051637a9e3e8360e01b8152600490fd5b5034620001c75780600319360112620001c75760008051602062005d4f833981519152546040516001600160a01b039091168152602090f35b5060031990606036830112620001c7576004356001600160401b038111620016cc5762000e3990369060040162002d5b565b926001600160401b0360243511620016d05761012090818160243536030112620010e7576001600160401b0360443511620010e75760443536030112620016cc5762000e8462003b87565b62000e8e620033a0565b8215620016ba573382526005602052604082205462000eee620006aa8262000ed562000ebf60446024350162003120565b6200067d6040519384928b8a602086016200325e565b80516020909101206200069e6024356004018062003151565b1562000dbc5762000f0460446024350162003120565b9060018101809111620016a65762000f6b916200067d62000f37620006aa9360405192839160208301958b8a886200325e565b51902062000f4b6004604435018062003151565b9290620007536200074d6200074560246044350160443560040162003151565b1562000d965762000faf62000f8560a46024350162003120565b62000fa862000fa06101046024350160243560040162002e85565b3691620030a7565b90620033d2565b815b6006548110156200113e5762000fc78162002e37565b90546001600160a01b039160031b1c811662000fe860243560440162003120565b6040516370a0823160e01b815292166004830152602082602481845afa91821562000ac0578592620010ff575b508162001028575b505060010162000fb1565b6200108b916020916200104060446024350162003120565b876200105160c46044350162003120565b6040516323b872dd60e01b81526001600160a01b039384166004820152921660248301526044820193909352938492839182906064820190565b03925af1908115620010f4578491620010ae575b501562000b2f5738806200101d565b90506020813d602011620010eb575b81620010cc6020938362002cb2565b81010312620010e757620010e09062003135565b386200109f565b8380fd5b3d9150620010bd565b6040513d86823e3d90fd5b9091506020813d60201162001135575b816200111e6020938362002cb2565b81010312620011305751903862001015565b600080fd5b3d91506200110f565b5091815b8181106200132a576200124a8362001164602480350160243560040162003151565b6200117760646024959395350162003120565b936200118860846024350162003120565b6200119860a46024350162003120565b95620011a960c46024350162003120565b91620011ba60e46024350162003186565b620011d060246044350160443560040162003151565b9190946064604435019a620011e58c62003120565b94620011f660846044350162003120565b96620012436200120b60a46044350162003120565b996200123a6200122060c46044350162003120565b9c6200123160e46044350162003186565b9e369162002cf0565b97369162002cf0565b9562003aaa565b6001600160a01b03806200125e8462003120565b16620012e1575b5033815260056020526040812091825460028101809111620012cd5782935534620012a2575b50600160008051602062005d6f8339815191525580f35b81808092620012b2349162003120565b5af1620012be62003072565b5015620009e75780826200128b565b634e487b7160e01b83526011600452602483fd5b620012ec8362003120565b90620012f762003b87565b81169081156200022f5762001323916001600160601b0360a01b60025416176002556200022662003b87565b8262001265565b8060051b84013560be1985360301811215620010e75760c0818601360312620010e757604051908160c08101106001600160401b0360c084011117620005205760c082016040526200137e81870162002c6d565b8252602081870101356001600160401b03811162000d7f57620013a79036908389010162002d2c565b6020830152604081870101356001600160401b03811162000d7f576200141291620013da60a0923690838b010162002d2c565b6040850152620013ef6060828a010162002d4d565b6060850152620014046080828a010162002c6d565b608085015287010162002c6d565b60a082015280516001600160a01b0390811685526004602052604085206001015416620016945760808101516001600160a01b03168015620015df575b8151606083015160405160019594939290911515906001600160a01b0316620014788362002c82565b825260a086811b87900384811660208086019182526040808701958652885184168d526004909152808c20955186549084166001600160a01b0319909116178655905194890180549451151590931b60ff60a01b9081169583166001600160a81b031995861617959095179092558551606087015192519215159493928992909116620015058262002c82565b81526020810195828060a01b038116875260408201958652828060a01b03168b52600460205260408b2090828060a01b039051166001600160601b0360a01b8254161781550193878060a01b039051169184549351151560a01b1692161717905562001579838060a01b03825116620031c4565b828060a01b0360a0820151169081151580620015cd575b6200159f575b50500162001142565b838060a01b039051168552600760205260408520906001600160601b0360a01b825416179055388062001596565b50838060a01b03815116151562001590565b506020810151604082015160018060a01b03865416906040519283611a2c8101106001600160401b03611a2c8601111762001680578392916200163b6200165292611a2c6200432387396080611a2c8701818152019062002df5565b90611a2c850182036020611a2c8701015262002df5565b90306040611a2c850101526060611a2c84010152039085f08015620010f4576001600160a01b03166200144f565b634e487b7160e01b88526041600452602488fd5b604051636bb9e87d60e01b8152600490fd5b634e487b7160e01b84526011600452602484fd5b604051630554f0a760e41b8152600490fd5b5080fd5b8280fd5b5034620001c75780600319360112620001c7576001546040516001600160a01b039091168152602090f35b5034620001c7576020366003190112620001c7576020906040906001600160a01b036200172b62002c3f565b168152600583522054604051908152f35b5034620001c75780600319360112620001c7576200175962003b87565b60008051602062005d4f83398151915280546001600160a01b031981169091556000906001600160a01b03167f8be0079c531659141344cd1fd0a4f28419497f9722a3daafe3b4186f6b6457e08280a380f35b5034620001c7576040366003190112620001c757620017ca62002c3f565b620017d462002c56565b90620017df62003b87565b6001600160a01b03908116835260076020526040832080546001600160a01b0319169290911691909117905580f35b5034620001c7576020366003190112620001c7576200182c62002c3f565b6200183662003b87565b60018060a01b03166001600160601b0360a01b600154161760015580f35b5034620001c75780600319360112620001c7577f00000000000000000000000000000000000000000000000000000000000000006001600160a01b03163003620018c25760206040517f360894a13ba1a3210667c828492db98dca3e2076cc3735a920a3ca505d382bbc8152f35b60405163703e46dd60e11b8152600490fd5b506040366003190112620001c757620018ec62002c3f565b6024356001600160401b038111620016d0576200190e90369060040162002d2c565b6001600160a01b037f0000000000000000000000000000000000000000000000000000000000000000811630811490811562001aba575b50620018c2576200195562003b87565b8216916040516352d1902d60e01b8152602081600481875afa85918162001a80575b506200199657604051634c9c8ce360e01b815260048101859052602490fd5b9284937f360894a13ba1a3210667c828492db98dca3e2076cc3735a920a3ca505d382bbc9081810362001a685750823b1562001a4f5780546001600160a01b0319168217905560405184917fbc7cd75a20ee27fd9adebab32041f755214dbc6bffa90cc0225b39da2e5c2d3b8380a283511562001a3257508083602062001a2e95519101845af462001a2762003072565b91620042ba565b5080f35b925050503462001a40575080f35b63b398979f60e01b8152600490fd5b604051634c9c8ce360e01b815260048101839052602490fd5b60249060405190632a87526960e21b82526004820152fd5b9091506020813d60201162001ab1575b8162001a9f6020938362002cb2565b8101031262000d7f5751903862001977565b3d915062001a90565b9050817f360894a13ba1a3210667c828492db98dca3e2076cc3735a920a3ca505d382bbc541614153862001945565b5034620001c7576040366003190112620001c75762001b0762002c3f565b62001b1162002c56565b7ff0c57e16840df040f15088dc2f81fe391c3923bec73e23a9662efc9c229c6a009182549160ff8360401c1615926001600160401b0381168015908162001c9a575b600114908162001c8f575b15908162001c85575b5062001c735767ffffffffffffffff19811660011785558362001c53575b5062001b906200411c565b62001b9a6200411c565b62001ba533620040a6565b62001baf6200411c565b62001bb96200411c565b62001bc36200411c565b600160008051602062005d6f8339815191525560018060a01b0390816001600160601b0360a01b9316838754161786553383600254161760025560016003551690600854161760085562001c15575080f35b68ff00000000000000001981541690557fc7f505b2f371ae2175ee4913f4499e1f2633a7b5936321eed1cdaeb6115181d2602060405160018152a180f35b68ffffffffffffffffff1916680100000000000000011784553862001b85565b60405163f92ee8a960e01b8152600490fd5b9050153862001b67565b303b15915062001b5e565b85915062001b53565b5034620001c7576020366003190112620001c7576060906001600160a01b039060ff906040908362001cd462002c3f565b16815260046020522091600181845416930154906040519384528116602084015260a01c1615156040820152f35b5062001d0e3662002d8e565b909162001d1a620033a0565b6001600160a01b0381168452600460205260408085209051929060019062001d428562002c82565b818060a01b038154168552015460ff60018060a01b0382169182602087015260a01c1615156040850152156200230e573385526005602052604085205462001dfe620006aa62001d9560c0880162003120565b604080516001600160a01b03808916602083019081528b35938301939093529092166060830152608082018590529062001dd38160a081016200067d565b51902062001de5602089018962003151565b9290620007536200074d6200074560408d018d62003151565b1562000dbc5762001e1260c0830162003120565b60018201821162000ba557604051602081019160018060a01b038616835288604083015260018060a01b031660608201526001830160808201526080815260a081018181106001600160401b0382111762000520576040525190209162001ea062001e81602083018362003151565b9094620006aa6040850196620007536200074d620007458a8962003151565b1562000d965784516001600160a01b031615620022ca57845162001ed0908735906001600160a01b031662003e19565b9262001ede84883562003143565b948488351062000c2b575b62001ef961012089018962002e85565b369062001f0692620030a7565b3362001f12926200373b565b62001f21604088018862003151565b909262001f3160608a0162003120565b9362001f4060808b0162003120565b9462001f4f60a08c0162003120565b9562001f5e60c08d0162003120565b9162001f6d60e08e0162003186565b9662001f7a908662003151565b979093606087019962001f8d8b62003120565b9462001f9c60808a0162003120565b9662001fab60a08b0162003120565b9862001fba60c08c0162003120565b9a60e00162001fc99062003186565b9b369062001fd79262002cf0565b9b369062001fe59262002cf0565b9462001ff19b62003aaa565b60008051602062005d4f833981519152546001600160a01b0316331480620022ad575b6200225d575b506002810180911162000da8573386526005602052604086205582516001600160a01b031615620021d6578062002139575b50806200206e575b5050505b600160008051602062005d6f8339815191525580f35b9051620020c892602092916001600160a01b031690620020919060c00162003120565b60405163a9059cbb60e01b81526001600160a01b039091166004820152602481019290925290928391908290869082906044820190565b03925af19081156200212e578291620020ec575b501562000b2f5738808062002054565b90506020813d60201162002125575b816200210a6020938362002cb2565b81010312620016cc576200211e9062003135565b38620020dc565b3d9150620020fb565b6040513d84823e3d90fd5b825160025460405163a9059cbb60e01b81526001600160a01b0391821660048201526024810193909352602091839160449183918a91165af190811562000ac057859162002190575b501562000b2f57386200204c565b90506020813d602011620021cd575b81620021ae6020938362002cb2565b81010312620021c957620021c29062003135565b3862002182565b8480fd5b3d91506200219f565b929080925062002227575b505080620021f1575b5062002058565b80471062000c2b5760025482918291829182916001600160a01b03165af16200221962003072565b501562000b2f5738620021ea565b81471062000c2b57838080936200224260c083950162003120565b5af16200224e62003072565b5015620009e7573880620021e1565b620022689062003120565b6200227262003b87565b6001600160a01b0381169081156200022f57620022a6916001600160601b0360a01b60025416176002556200022662003b87565b386200201a565b506001600160a01b03620022c18262003120565b16151562002014565b620022da8694939435346200304e565b93620022e68562003ccb565b9384620022f4818862003143565b96101562001ee957604051631fbaba3560e01b8152600490fd5b604051637879bad160e01b8152600490fd5b50610100366003190112620001c7576001600160401b0381600435828111620016cc576200235390369060040162002d2c565b916200235e62002c56565b6044356001600160a01b0381811695909391929086840362000d7f576064359185831680930362000acb576084359386851680950362000b7a5760a435878116968782036200251c5760c43592831515809403620025185760e4359081116200251857620023e3620023d9620023ea92369060040162002d5b565b62000fa0620033a0565b33620033d2565b338960008051602062005d4f833981519152541614806200250e575b620024d0575b5034620024ac575b508688541695863b15620024a8576200244f9589956040519b8c9a8b998a9863151cdb2f60e11b8a5260e060048b015260e48a019062002df5565b9616602488015260448701526064860152608485015260a484015260c483015203925af180156200212e57620024965750600160008051602062005d6f8339815191525580f35b620024a19062002c9e565b386200128b565b8880fd5b97808080939a34905af1620024c062003072565b5015620009e75788963862002414565b9850620024dc62003b87565b89156200022f57620025078b998b6001600160601b0360a01b60025416176002556200022662003b87565b386200240c565b508a151562002406565b8a80fd5b8980fd5b5034620001c7576060366003190112620001c7576200253e62002c3f565b6200254862002c56565b90604435801515809103620010e7576200256162003b87565b6001600160a01b038281168086526004602052604086206001015490929190811662001694576200022c9486916001604051956200259f8762002c82565b80875282602088019416968785528383816040808501998b8b52868152600460205220935116926001600160601b0360a01b93848254161781550195511694805496511515966affffffffffffffffffffff60a81b968760ff60a01b809a60a01b1692161717905560405191620026168362002c82565b82526020820197808952604083019788528b5260046020528360408c2092511690825416178155019451169184549351151560a01b16921617179055620031c4565b5034620001c7576020366003190112620001c757600435906001600160401b038211620001c7576020620026946200074d366004860162002d2c565b6040516001600160a01b039091168152f35b50600319604036820112620016cc57600435916001600160401b0391828411620016cc57836004019161014080838736030112620016cc57602492602435958611620016d0578536030112620001c75762002703949294620033a0565b809481906101248501915b6200271a838362002e85565b9050811015620028705762002730838362002e85565b8210156200285d578160051b81013560de198236030181121562000d7f576200275c9136910162002ed5565b6020808201511515806200284a575b6200277c575b50506001016200270e565b949593989786939192939760c0889401995b8a518051861015620028335785620027a69162003039565b5199620027b9898c01918251906200304e565b9a34620027c88351856200304e565b116200281b5780516001600160a01b0391908216156200022f578b80809381935116855190617530f1620027fb62003072565b5015620009e757600191620028129151906200304e565b9401936200278e565b60405163073c639b60e41b8152600481018c90528990fd5b509a95979650975097509160019150903862002771565b5081516001600160a01b0316156200276b565b634e487b7160e01b855260326004528585fd5b5090620023e362000fa062002889929694968462002e85565b835b600654811015620029eb57620028a18162002e37565b90546040516370a0823160e01b8152336004820152602092909160039190911b1c6001600160a01b031682828881845afa91821562000b87578892620029b6575b5081620028f6575b5050506001016200288b565b620029489183916200290b60c48c0162003120565b6040516323b872dd60e01b81523360048201526001600160a01b0390911660248201526044810192909252909283919082908b9082906064820190565b03925af1918215620029ab5787926200296d575b50501562000b2f57388080620028ea565b90809250813d8311620029a3575b62002987818362002cb2565b8101031262000d7f576200299b9062003135565b38806200295c565b503d6200297b565b6040513d89823e3d90fd5b9091508281813d8311620029e3575b620029d1818362002cb2565b8101031262000b7a57519038620028e2565b503d620029c5565b848387848a80341162002b6b575b5060008051602062005d4f833981519152546001600160a01b0390811633148062002b52575b62002b06575b506044830162002a359162003151565b919062002a456064850162003120565b62002a536084860162003120565b62002a6160a4870162003120565b9162002a7060c4880162003120565b9660e40162002a7f9062003186565b62002a91604487016004880162003151565b98909462002aa26064890162003120565b9462002ab160848a0162003120565b9662002ac060a48b0162003120565b9862002acf60c48c0162003120565b9a60e40162002ade9062003186565b9b369062002aec9262002cf0565b9b369062002afa9262002cf0565b94620020589b62003aaa565b62002b146064840162003120565b9062002b1f62003b87565b81169081156200022f5762002b4b916001600160601b0360a01b60025416176002556200022662003b87565b8462002a25565b508062002b626064850162003120565b16151562002a1f565b62002b77903462003143565b8015620029f95760c483016001600160a01b0362002b958262003120565b16156200022f578580809362002bac829462003120565b617530f162002bba62003072565b5015620009e75784620029f9565b8234620001c7576020366003190112620001c7576001600160a01b03906001906040908362002bf662002c3f565b16815260046020522062002c0a8462002c82565b82815416845201549181831690604060ff602083019584875260a01c161515910152156200230e576020915116604051908152f35b600435906001600160a01b03821682036200113057565b602435906001600160a01b03821682036200113057565b35906001600160a01b03821682036200113057565b606081019081106001600160401b038211176200052057604052565b6001600160401b0381116200052057604052565b90601f801991011681019081106001600160401b038211176200052057604052565b6001600160401b0381116200052057601f01601f191660200190565b92919262002cfe8262002cd4565b9162002d0e604051938462002cb2565b82948184528183011162001130578281602093846000960137010152565b9080601f83011215620011305781602062002d4a9335910162002cf0565b90565b359081151582036200113057565b9181601f8401121562001130578235916001600160401b03831162001130576020808501948460051b0101116200113057565b6003199160608284011262001130576004356001600160a01b03811681036200113057926024356001600160401b03918282116200113057610140918282828803011262001130576004019460443593841162001130578390030112620011305760040190565b919082519283825260005b84811062002e22575050826000602080949584010152601f8019910116010190565b60208183018101518483018201520162002e00565b60065481101562002e6f5760066000527ff652222313e28459528d920b65115c16c04f3efc82aaedc97be59f3f377c0d3f0190600090565b634e487b7160e01b600052603260045260246000fd5b903590601e19813603018212156200113057018035906001600160401b0382116200113057602001918160051b360383136200113057565b6001600160401b038111620005205760051b60200190565b919060e08382031262001130576040805190936001600160401b0360e083018181118482101762000520578652829562002f0f8362002c6d565b845260209081840135828601528084013581860152606092606085013560ff81168103620011305760608701526080946080810135608088015260a081013560a088015260c0810135908282116200113057019387601f86011215620011305784359262002f7d8462002ebd565b9862002f8c82519a8b62002cb2565b848a5285808b019560071b8801019681881162001130578601945b87861062002fbe5750505050505050505060c00152565b88868303126200113057825190898201908282108783111762003024578a928992865262002fec8962002c6d565b8152828901358382015262003003868a0162002d4d565b8682015262003014878a0162002d4d565b8782015281520195019462002fa7565b60246000634e487b7160e01b81526041600452fd5b805182101562002e6f5760209160051b010190565b919082018092116200305c57565b634e487b7160e01b600052601160045260246000fd5b3d15620030a2573d90620030868262002cd4565b9162003096604051938462002cb2565b82523d6000602084013e565b606090565b92919092620030b68462002ebd565b91620030c6604051938462002cb2565b829480845260208094019060051b830192828411620011305780915b848310620030f257505050505050565b82356001600160401b0381116200113057869162003114868493860162002ed5565b815201920191620030e2565b356001600160a01b0381168103620011305790565b519081151582036200113057565b919082039182116200305c57565b903590601e19813603018212156200113057018035906001600160401b03821162001130576020019181360383136200113057565b358015158103620011305790565b6040815103620031b25780516020909101206001600160a01b031690565b60405163145a1fdd60e31b8152600490fd5b600654680100000000000000008110156200052057806001620031eb920160065562002e37565b60018060a09493941b038084549260031b9316831b921b1916179055565b9035601e1982360301811215620011305701602081359101916001600160401b038211620011305781360383136200113057565b908060209392818452848401376000828201840152601f01601f1916010190565b91909493929460609082606085016060865252608092608085019360808260051b8701019483946000946000955b858710620032b2575050505050505050906040919460018060a01b031660208201520152565b9091929394959697607f198a8203018552883560be1984360301811215620016d057600191620033209160c0916001600160a01b0391870182620032f68262002c6d565b1682526200333e6020958695620033108785018562003209565b909180898801528601916200323d565b6040620033308185018562003209565b91868403908701526200323d565b926200334c8a830162002d4d565b15158a84015280620033608d840162002c6d565b168c8401526200337460a080930162002c6d565b169101529a0195019701959493969291906200328c565b51906001600160a01b03821682036200113057565b60008051602062005d6f8339815191526002815414620033c05760029055565b604051633ee5aeb560e01b8152600490fd5b9190916000915b83518310156200373557620033ef838562003039565b5190602082015115158062003726575b8062003712575b156200365c578151602083015160408401516060850151608086015160a087015192946001600160a01b031693929160ff16843b15620011305760009460e4938a938793604051998a98899763d505accf60e01b895260018060a01b0316600489015230602489015260448801526064870152608486015260a485015260c48401525af18015620035c0576200364a575b50600094855b60c084015180518210156200362a5781620034b89162003039565b51606081015115158062003621575b806200360e575b60208201519081620034e7575b5050506001016200349d565b929892620035459160209160009015620035cc575061dead5b88516040516323b872dd60e01b81526001600160a01b038c81166004830152928316602482015260448101939093529193849290911690829060009082906064820190565b03925af1908115620035c0576000916200357e575b501562000b2f57600191602062003574920151906200304e565b96903880620034db565b906020823d602011620035b7575b816200359b6020938362002cb2565b81010312620001c75750620035b09062003135565b386200355a565b3d91506200358c565b6040513d6000823e3d90fd5b604085015115159081620035fa575b5015620035e9573062003500565b83516001600160a01b031662003500565b89516001600160a01b0316159150620035db565b5084516001600160a01b031615620034ce565b506000620034c7565b50509294909391602001510362000b2f576001905b0191929092620033d9565b620036559062002c9e565b3862003497565b815192949093909290916001600160a01b039182161562003683575b50506001906200363f565b60c00194909391929060005b86518051821015620037005781620036a79162003039565b518660208201519182151580620036f3575b620036cb575b5050506001016200368f565b60008093819382935116617530f1620036e362003072565b5015620009e757388681620036bf565b50604081015115620036b9565b50509450916001919350903862003678565b5081516001600160a01b0316151562003406565b506040820151421115620033ff565b92505050565b929091926000925b845184101562003aa35762003759848662003039565b5192602084015115158062003a94575b8062003a80575b15620039ce578351602085015160408601516060870151608088015160a089015160ff909216946001600160a01b03169390843b15620011305760009460e4938692604051988997889663d505accf60e01b88528d60018060a01b0316600489015230602489015260448801526064870152608486015260a485015260c48401525af18015620035c057620039bc575b50600095865b60c08601518051821015620039995781620038219162003039565b51606081015115158062003986575b806200396f575b6020820151908162003850575b50505060010162003806565b929992620038ae916020916000901562003929575061dead5b8a516040516323b872dd60e01b81526001600160a01b038b81166004830152928316602482015260448101939093529193849290911690829060009082906064820190565b03925af1908115620035c057600091620038e7575b501562000b2f576001916020620038dd920151906200304e565b9790388062003844565b906020823d60201162003920575b81620039046020938362002cb2565b81010312620001c75750620039199062003135565b38620038c3565b3d9150620038f5565b60408501511515908162003957575b501562003946573062003869565b83516001600160a01b031662003869565b8b516001600160a01b038c8116911614915062003938565b5086516001600160a01b0387811691161462003837565b506001600160a01b038616151562003830565b50509293602090969195929601510362000b2f576001905b019291909362003743565b620039c79062002c9e565b3862003800565b939094919260018060a01b03908181511615620039f1575b5050600190620039b1565b60c0019590949193929160005b8751805182101562003a6f578162003a169162003039565b51876020820151918215158062003a62575b62003a3a575b505050600101620039fe565b60008093819382935116617530f162003a5262003072565b5015620009e75738878162003a2e565b5060408101511562003a28565b5050945094509091600138620039e6565b5083516001600160a01b0316151562003770565b50604084015142111562003769565b5050915050565b97929a95999498939096919862003acc60018060a01b03600054169b62003194565b918b3b156200113057604051632e91b77d60e01b815261018060048201529c8d9b8c9b62003b00906101848e019062002df5565b6001600160a01b039b8c1660248e0152908b1660448d0152908a1660648c015290891660848b015290151560a48a015290871660c489015290861660e48801529085166101048701529084166101248601529216610144840152151561016483015203815a6000948591f18015620035c05762003b7a5750565b62003b859062002c9e565b565b60008051602062005d4f833981519152546001600160a01b0316330362003baa57565b60405163118cdaa760e01b8152336004820152602490fd5b62003c09929162003bff917f19457468657265756d205369676e6564204d6573736167653a0a333200000000600052601c52603c6000206200415e565b909391936200419d565b6001600160a01b0391821691161490565b818102929181159184041417156200305c57565b811562003c39570490565b634e487b7160e01b600052601260045260246000fd5b519069ffffffffffffffffffff821682036200113057565b908160a0910312620011305762003c7e8162003c4f565b9160208201519160408101519162002d4a60806060840151930162003c4f565b9081602091031262001130575160ff81168103620011305790565b60ff16604d81116200305c57600a0a90565b62003cdd612710916003549062003c1a565b600854919004906001600160a01b03168062003cf7575090565b604051633fabe5a360e21b81529060a082600481845afa918215620035c05760009262003ddc575b50600082131562003dca5760206004916040519283809263313ce56760e01b82525afa8015620035c05762003d5e9160009162003d94575b5062003cb9565b90683635c9adc5dea0000091808302928304036200305c5762003d819162003c2e565b908181111562003d8f575090565b905090565b62003dbb915060203d60201162003dc2575b62003db2818362002cb2565b81019062003c9e565b3862003d57565b503d62003da6565b6040516352cc3f7d60e01b8152600490fd5b62003e0491925060a03d60a01162003e11575b62003dfb818362002cb2565b81019062003c67565b5050509050903862003d1f565b503d62003def565b9062003e2c612710916003549062003c1a565b0460018060a01b0380921660009080825260209060078252604090858285205416908162003e5e575050505050905090565b60a0939496835194858094633fabe5a360e21b825260049586915afa9485156200409c57889562004071575b50878513156200406157818852600786528388205416948351958187858163313ce56760e01b948582525afa9687156200405757899762004031575b5081908486518095819382525afa938415620040285750879362004004575b505060ff683635c9adc5dea0000092166012810362003f31575b505062003f1c9062003f1562003f229462003cb9565b9062003c1a565b62003c2e565b91508181111562003d8f575090565b929392601281111562003fa4576011190160ff811162003f915762003f569062003cb9565b8083029283040362003f7e575062003f22929162003f1562003f1c925b925081945062003eff565b634e487b7160e01b865260119052602485fd5b634e487b7160e01b875260118252602487fd5b60129291920360ff811162003ff15762003fbe9062003cb9565b91821562003fde57509162003f1562003f1c9262003f2295940462003f73565b634e487b7160e01b875260129052602486fd5b634e487b7160e01b875260118352602487fd5b6200401f929350803d1062003dc25762003db2818362002cb2565b90388062003ee5565b513d89823e3d90fd5b829197506200404f90823d841162003dc25762003db2818362002cb2565b969062003ec6565b85513d8b823e3d90fd5b83516352cc3f7d60e01b81528390fd5b6200408f91955060a03d60a01162003e115762003dfb818362002cb2565b5050509050933862003e8a565b84513d8a823e3d90fd5b6001600160a01b03908116908115620041035760008051602062005d4f83398151915280546001600160a01b031981168417909155167f8be0079c531659141344cd1fd0a4f28419497f9722a3daafe3b4186f6b6457e0600080a3565b604051631e4fbdf760e01b815260006004820152602490fd5b60ff7ff0c57e16840df040f15088dc2f81fe391c3923bec73e23a9662efc9c229c6a005460401c16156200414c57565b604051631afcd79f60e31b8152600490fd5b815191906041830362004192576200418b92506020820151906060604084015193015160001a9062004227565b9192909190565b505060009160029190565b6004811015620042115780620041b1575050565b60018103620041cc5760405163f645eedf60e01b8152600490fd5b60028103620041ee5760405163fce698f760e01b815260048101839052602490fd5b600314620041f95750565b602490604051906335e2f38360e21b82526004820152fd5b634e487b7160e01b600052602160045260246000fd5b91907f7fffffffffffffffffffffffffffffff5d576e7357a4501ddfe92f46681b20a08411620042ae57926020929160ff608095604051948552168484015260408301526060820152600092839182805260015afa15620042a25780516001600160a01b038116156200429957918190565b50809160019190565b604051903d90823e3d90fd5b50505060009160039190565b90620042e35750805115620042d157805190602001fd5b60405163d6bda27560e01b8152600490fd5b8151158062004318575b620042f6575090565b604051639996b31560e01b81526001600160a01b039091166004820152602490fd5b50803b15620042ed56fe610160604081815234620004775762001a2c80380380916200002282866200047c565b8439820191608081840312620004775780516001600160401b03929083811162000477578462000054918401620004c5565b916020948582015190858211620004775762000072918301620004c5565b946200008e60606200008685850162000520565b930162000520565b90835190848201828110888211176200037657855260019485835281830195603160f81b87528751898111620003765760038054918383811c931680156200046c575b868410146200045657601f928381116200040b575b50808684821160011462000398576000916200038c575b5060001982841b1c191690841b1781555b8b51918b8311620003765760049c8d548581811c911680156200036b575b8882101462000356578e8382116200030b575b50508d87928511600114620002a0575093839491849260009562000294575b50501b92600019911b1c19161789555b620001798762000535565b956101209687526200018b84620006da565b97610140988952838151910120938460e0525190209861010099808b524660a0528251938401947f8b73c3c69bb8fe3d512ecc4cf759cc79239f7b179b0ffacaa9a75d522b39400f86528385015260608401524660808401523060a084015260a0835260c0830198838a10908a11176200027f57508790525190206080523060c052600880546001600160a01b039384166001600160a01b031991821617909155600980549290931691161790556111fa938462000832853960805184610c88015260a05184610d54015260c05184610c52015260e05184610cd701525183610cfd0152518261051a015251816105440152f35b604190634e487b7160e01b6000525260246000fd5b0151935038806200015e565b929190601f1985169360005284886000209460005b8a89838310620002f35750505010620002d8575b50505050811b0189556200016e565b01519060f884600019921b161c1916905538808080620002c9565b868601518955909701969485019488935001620002b5565b600052876000208380870160051c8201928a88106200034c575b0160051c019086905b8281106200033f5750508e6200013f565b600081550186906200032e565b9250819262000325565b60228f634e487b7160e01b6000525260246000fd5b90607f16906200012c565b634e487b7160e01b600052604160045260246000fd5b90508b015138620000fd565b8592508c90601f1983168560005289600020928a6000915b838310620003e9575050508311620003d0575b5050811b0181556200010e565b8d015160001983861b60f8161c191690553880620003c3565b948482949597989293960151815501940192019087949392918f8b90620003b0565b82600052866000208480840160051c8201928985106200044c575b0160051c019085905b8281106200043f575050620000e6565b600081550185906200042f565b9250819262000426565b634e487b7160e01b600052602260045260246000fd5b92607f1692620000d1565b600080fd5b601f909101601f19168101906001600160401b038211908210176200037657604052565b60005b838110620004b45750506000910152565b8181015183820152602001620004a3565b81601f82011215620004775780516001600160401b038111620003765760405192620004fc601f8301601f1916602001856200047c565b8184526020828401011162000477576200051d9160208085019101620004a0565b90565b51906001600160a01b03821682036200047757565b80516020919082811015620005b5575090601f8251116200057357808251920151908083106200056457501790565b82600019910360031b1b161790565b604490620005a79260405193849263305a27a960e01b845280600485015282519283918260248701528686019101620004a0565b601f01601f19168101030190fd5b6001600160401b03811162000376576005928354926001938481811c91168015620006cf575b838210146200045657601f811162000698575b5081601f84116001146200062e575092829391839260009462000622575b50501b916000199060031b1c191617905560ff90565b0151925038806200060c565b919083601f1981168760005284600020946000905b888383106200067d575050501062000663575b505050811b01905560ff90565b015160001960f88460031b161c1916905538808062000656565b85870151885590960195948501948793509081019062000643565b8560005284601f846000209201871c820191601f8601881c015b828110620006c2575050620005ee565b60008155018590620006b2565b90607f1690620005db565b805160209081811015620007075750601f8251116200057357808251920151908083106200056457501790565b906001600160401b0382116200037657600654926001938481811c9116801562000826575b838210146200045657601f8111620007ec575b5081601f841160011462000780575092829391839260009462000774575b50501b916000199060031b1c19161760065560ff90565b0151925038806200075d565b919083601f198116600660005284600020946000905b88838310620007d15750505010620007b7575b505050811b0160065560ff90565b015160001960f88460031b161c19169055388080620007a9565b85870151885590960195948501948793509081019062000796565b600660005284601f84600020920160051c820191601f860160051c015b828110620008195750506200073f565b6000815501859062000809565b90607f16906200072c56fe608060408181526004918236101561001657600080fd5b600092833560e01c91826306fdde03146108d757508163095ea7b3146108ad57816318160ddd1461088e57816323b872dd14610789578163313ce5671461076d5781633644e5151461074957816340c10f191461069157816370a082311461065a5781637ecebe001461062257816384b0196e1461050257816395d89b411461040e5781639dc29fac14610329578163a9059cbb146102e4578163b5057a7b146102bb578163d505accf1461015357508063dd62ed3e1461010b5763e78cea92146100e057600080fd5b3461010757816003193601126101075760085490516001600160a01b039091168152602090f35b5080fd5b5034610107578060031936011261010757806020926101286109ef565b610130610a0a565b6001600160a01b0391821683526001865283832091168252845220549051908152f35b839150346101075760e03660031901126101075761016f6109ef565b610177610a0a565b906044359260643560843560ff811681036102b7578142116102a05760018060a01b0390818516928389526007602052898920908154916001830190558a519060208201927f6e71edae12b1b97f4d1f60370fef10105fa2faae0126114a169c64845d6126c98452868d840152858a1660608401528a608084015260a083015260c082015260c0815260e0810181811067ffffffffffffffff82111761028d578b5251902061025b916102529161022c610c4f565b908c519161190160f01b83526002830152602282015260c43591604260a43592206110af565b9092919261113f565b16818103610272578661026f878787610d7a565b80f35b87516325c0072360e11b815292830152602482015260449150fd5b634e487b7160e01b8b526041875260248bfd5b875163313c898160e11b8152808401839052602490fd5b8680fd5b50503461010757816003193601126101075760095490516001600160a01b039091168152602090f35b5050346101075780600319360112610107576102fe6109ef565b916103098333610acf565b15610326575061031f6020926024359033610e0d565b5160018152f35b80fd5b839150346101075782600319360112610107576103446109ef565b6008549091602435916001600160a01b03908116330361040a5783169283156103f3578385528460205285852054918383106103bf5750508184957fddf252ad1be2c89b69c2b068fc378daa952ba7f163c4a11628f55a4df523b3ef936020938688528785520381872055816002540360025551908152a380f35b865163391434e360e21b81526001600160a01b03909216908201908152602081018390526040810184905281906060010390fd5b8551634b637e8f60e11b8152808301869052602490fd5b8480fd5b919050346104fe57826003193601126104fe57805183819490845461043281610a20565b91828552602096600192886001821691826000146104d4575050600114610479575b858861047589610466848a0385610a8c565b519282849384528301906109af565b0390f35b815286935091907f8a35acfbc15ff81a39ae7d344fd709f28e8600b4aa8c65c6b64bfe7fe36bd19b5b8284106104bc575050508201018161046661047538610454565b8054848a0186015288955087949093019281016104a2565b60ff19168882015294151560051b8701909401945085935061046692506104759150389050610454565b8280fd5b919050346104fe57826003193601126104fe5761053e7f0000000000000000000000000000000000000000000000000000000000000000610eeb565b926105687f0000000000000000000000000000000000000000000000000000000000000000610fef565b90825192602092602085019585871067ffffffffffffffff88111761060f57509260206105c58388966105b8998b9996528686528151998a99600f60f81b8b5260e0868c015260e08b01906109af565b91898303908a01526109af565b924660608801523060808801528460a088015286840360c088015251928381520193925b8281106105f857505050500390f35b8351855286955093810193928101926001016105e9565b634e487b7160e01b845260419052602483fd5b5050346101075760203660031901126101075760209181906001600160a01b0361064a6109ef565b1681526007845220549051908152f35b5050346101075760203660031901126101075760209181906001600160a01b036106826109ef565b16815280845220549051908152f35b919050346104fe57806003193601126104fe576106ac6109ef565b60085460243592916001600160a01b0391821633036107455716928315610730576002549083820180921161071d575084927fddf252ad1be2c89b69c2b068fc378daa952ba7f163c4a11628f55a4df523b3ef9260209260025585855284835280852082815401905551908152a380f35b634e487b7160e01b865260119052602485fd5b84602492519163ec442f0560e01b8352820152fd5b8580fd5b505034610107578160031936011261010757602090610766610c4f565b9051908152f35b5050346101075781600319360112610107576020905160128152f35b90508234610326576060366003190112610326576107a56109ef565b6107ad610a0a565b91604435936107bc8484610acf565b15610107576001600160a01b038316808352600160209081528784203385529052868320549160001983106107fa575b60208861031f898989610e0d565b86831061086257811561084b5733156108345750825260016020908152868320338452815291869020908590039055829061031f876107ec565b8751634a1406b160e11b8152908101849052602490fd5b875163e602df0560e01b8152908101849052602490fd5b8751637dc7a0d960e11b8152339181019182526020820193909352604081018790528291506060010390fd5b5050346101075781600319360112610107576020906002549051908152f35b50503461010757806003193601126101075760209061031f6108cd6109ef565b6024359033610d7a565b84843461010757816003193601126101075782826003546108f781610a20565b908184526020956001918760018216918260001461098857505060011461092c575b5050506104759291610466910385610a8c565b9190869350600383527fc2575a0e9e593c00f959f8c92f12db2869c3395a3b0502d05e2516446f71f85b5b8284106109705750505082010181610466610475610919565b8054848a018601528895508794909301928101610957565b60ff19168782015293151560051b8601909301935084925061046691506104759050610919565b919082519283825260005b8481106109db575050826000602080949584010152601f8019910116010190565b6020818301810151848301820152016109ba565b600435906001600160a01b0382168203610a0557565b600080fd5b602435906001600160a01b0382168203610a0557565b90600182811c92168015610a50575b6020831014610a3a57565b634e487b7160e01b600052602260045260246000fd5b91607f1691610a2f565b6040810190811067ffffffffffffffff821117610a7657604052565b634e487b7160e01b600052604160045260246000fd5b90601f8019910116810190811067ffffffffffffffff821117610a7657604052565b51906001600160a01b0382168203610a0557565b51908115158203610a0557565b600954604080516324b9c44160e21b81526001600160a01b0393841660048201819052939290916101209182908490602490829088165afa918215610c44576000938493610b4b575b505050610b285750505050600090565b602001518116918214928315610b3f575b50505090565b16149050388080610b39565b818193959294503d8511610c3d575b610b648183610a8c565b810103928312610326576101008093126103265783519383850185811067ffffffffffffffff821117610c29578152610b9c83610aae565b8552610baa60208401610aae565b6020860152610bba818401610aae565b90850152610bca60608301610aae565b6060850152610bdb60808301610aae565b6080850152610bec60a08301610ac2565b60a0850152610bfd60c08301610ac2565b60c085015260e0820151906003821015610326575060e0840152610c219101610ac2565b388080610b18565b634e487b7160e01b83526041600452602483fd5b503d610b5a565b50513d6000823e3d90fd5b307f00000000000000000000000000000000000000000000000000000000000000006001600160a01b03161480610d51575b15610caa577f000000000000000000000000000000000000000000000000000000000000000090565b60405160208101907f8b73c3c69bb8fe3d512ecc4cf759cc79239f7b179b0ffacaa9a75d522b39400f82527f000000000000000000000000000000000000000000000000000000000000000060408201527f000000000000000000000000000000000000000000000000000000000000000060608201524660808201523060a082015260a0815260c0810181811067ffffffffffffffff821117610a765760405251902090565b507f00000000000000000000000000000000000000000000000000000000000000004614610c81565b6001600160a01b03908116918215610df45716918215610ddb5760207f8c5be1e5ebec7d5bd14f71427d1e84f3dd0314c0f7b2291e5b200ac8c7c3b925918360005260018252604060002085600052825280604060002055604051908152a3565b604051634a1406b160e11b815260006004820152602490fd5b60405163e602df0560e01b815260006004820152602490fd5b916001600160a01b03808416928315610ed25716928315610eb95760009083825281602052604082205490838210610e87575091604082827fddf252ad1be2c89b69c2b068fc378daa952ba7f163c4a11628f55a4df523b3ef958760209652828652038282205586815220818154019055604051908152a3565b60405163391434e360e21b81526001600160a01b03919091166004820152602481019190915260448101839052606490fd5b60405163ec442f0560e01b815260006004820152602490fd5b604051634b637e8f60e11b815260006004820152602490fd5b60ff8114610f295760ff811690601f8211610f175760405191610f0d83610a5a565b8252602082015290565b604051632cd44ac360e21b8152600490fd5b50604051600554816000610f3c83610a20565b80835292602090600190818116908115610fcb5750600114610f6a575b5050610f6792500382610a8c565b90565b91509260056000527f036b6384b5eca791c62761152d0c79bb0604c104a5fb6f4eb0703f3154bb3db0936000925b828410610fb35750610f679450505081016020013880610f59565b85548785018301529485019486945092810192610f98565b91505060209250610f6794915060ff191682840152151560051b8201013880610f59565b60ff81146110115760ff811690601f8211610f175760405191610f0d83610a5a565b5060405160065481600061102483610a20565b80835292602090600190818116908115610fcb575060011461104e575050610f6792500382610a8c565b91509260066000527ff652222313e28459528d920b65115c16c04f3efc82aaedc97be59f3f377c0d3f936000925b8284106110975750610f679450505081016020013880610f59565b8554878501830152948501948694509281019261107c565b91907f7fffffffffffffffffffffffffffffff5d576e7357a4501ddfe92f46681b20a0841161113357926020929160ff608095604051948552168484015260408301526060820152600092839182805260015afa156111275780516001600160a01b0381161561111e57918190565b50809160019190565b604051903d90823e3d90fd5b50505060009160039190565b60048110156111ae5780611151575050565b6001810361116b5760405163f645eedf60e01b8152600490fd5b6002810361118c5760405163fce698f760e01b815260048101839052602490fd5b6003146111965750565b602490604051906335e2f38360e21b82526004820152fd5b634e487b7160e01b600052602160045260246000fdfea2646970667358221220b795fa50e5767d9775d1eea6283ccacf9cd51f086091d71f972f86533319c81264736f6c634300081800339016d09d72d40fdae2fd8ceac6b6234c7706214fd39c1cd1e609a0528c1993009b779b17422d0df92223018b32b4d1fa46e071723d6817e2486d003becc55f00a2646970667358221220bab301aa946450f3f3db9f1450503606aa7374b5997ff25617e1e904745003cc64736f6c63430008180033",
  "linkReferences": {},
  "deployedLinkReferences": {}
}