{
  "_format": "hh-sol-artifact-1",
  "contractName": "Bridge",
  "sourceName": "contracts/Bridge.sol",
  "abi": [
    {
      "inputs": [
        {
          "internalType": "address",
          "name": "target",
          "type": "address"
        }
      ],
      "name": "AddressEmptyCode",
      "type": "error"
    },
    {
      "inputs": [],
      "name": "AmountTooLow",
      "type": "error"
    },
    {
      "inputs": [],
      "name": "BurnAmountZero",
      "type": "error"
    },
    {
      "inputs": [],
      "name": "ECDSAInvalidSignature",
      "type": "error"
    },
    {
      "inputs": [
        {
          "internalType": "uint256",
          "name": "length",
          "type": "uint256"
        }
      ],
      "name": "ECDSAInvalidSignatureLength",
      "type": "error"
    },
    {
      "inputs": [
        {
          "internalType": "bytes32",
          "name": "s",
          "type": "bytes32"
        }
      ],
      "name": "ECDSAInvalidSignatureS",
      "type": "error"
    },
    {
      "inputs": [
        {
          "internalType": "address",
          "name": "implementation",
          "type": "address"
        }
      ],
      "name": "ERC1967InvalidImplementation",
      "type": "error"
    },
    {
      "inputs": [],
      "name": "ERC1967NonPayable",
      "type": "error"
    },
    {
      "inputs": [],
      "name": "EthTransferFailed",
      "type": "error"
    },
    {
      "inputs": [],
      "name": "FailedCall",
      "type": "error"
    },
    {
      "inputs": [],
      "name": "FeeTransferFailed",
      "type": "error"
    },
    {
      "inputs": [],
      "name": "InsufficientAllowance",
      "type": "error"
    },
    {
      "inputs": [
        {
          "internalType": "address",
          "name": "token",
          "type": "address"
        }
      ],
      "name": "InsufficientPermits",
      "type": "error"
    },
    {
      "inputs": [],
      "name": "InvalidConfirmingSignature",
      "type": "error"
    },
    {
      "inputs": [],
      "name": "InvalidFeeCollector",
      "type": "error"
    },
    {
      "inputs": [],
      "name": "InvalidInitialization",
      "type": "error"
    },
    {
      "inputs": [],
      "name": "InvalidPrerotatedKeyHash",
      "type": "error"
    },
    {
      "inputs": [],
      "name": "InvalidPublicKey",
      "type": "error"
    },
    {
      "inputs": [],
      "name": "InvalidUnconfirmedSignature",
      "type": "error"
    },
    {
      "inputs": [],
      "name": "NoTokenPairs",
      "type": "error"
    },
    {
      "inputs": [],
      "name": "NotInitializing",
      "type": "error"
    },
    {
      "inputs": [
        {
          "internalType": "address",
          "name": "owner",
          "type": "address"
        }
      ],
      "name": "OwnableInvalidOwner",
      "type": "error"
    },
    {
      "inputs": [
        {
          "internalType": "address",
          "name": "account",
          "type": "address"
        }
      ],
      "name": "OwnableUnauthorizedAccount",
      "type": "error"
    },
    {
      "inputs": [],
      "name": "ReentrancyGuardReentrantCall",
      "type": "error"
    },
    {
      "inputs": [],
      "name": "RestrictedToOwnerRelayer",
      "type": "error"
    },
    {
      "inputs": [
        {
          "internalType": "address",
          "name": "token",
          "type": "address"
        }
      ],
      "name": "SafeERC20FailedOperation",
      "type": "error"
    },
    {
      "inputs": [],
      "name": "TokenPairExists",
      "type": "error"
    },
    {
      "inputs": [],
      "name": "TokenPairNotSupported",
      "type": "error"
    },
    {
      "inputs": [],
      "name": "TransferFailed",
      "type": "error"
    },
    {
      "inputs": [],
      "name": "UUPSUnauthorizedCallContext",
      "type": "error"
    },
    {
      "inputs": [
        {
          "internalType": "bytes32",
          "name": "slot",
          "type": "bytes32"
        }
      ],
      "name": "UUPSUnsupportedProxiableUUID",
      "type": "error"
    },
    {
      "inputs": [],
      "name": "ZeroAddress",
      "type": "error"
    },
    {
      "anonymous": false,
      "inputs": [
        {
          "indexed": false,
          "internalType": "uint64",
          "name": "version",
          "type": "uint64"
        }
      ],
      "name": "Initialized",
      "type": "event"
    },
    {
      "anonymous": false,
      "inputs": [
        {
          "indexed": true,
          "internalType": "address",
          "name": "previousOwner",
          "type": "address"
        },
        {
          "indexed": true,
          "internalType": "address",
          "name": "newOwner",
          "type": "address"
        }
      ],
      "name": "OwnershipTransferred",
      "type": "event"
    },
    {
      "anonymous": false,
      "inputs": [
        {
          "indexed": true,
          "internalType": "address",
          "name": "implementation",
          "type": "address"
        }
      ],
      "name": "Upgraded",
      "type": "event"
    },
    {
      "inputs": [],
      "name": "UPGRADE_INTERFACE_VERSION",
      "outputs": [
        {
          "internalType": "string",
          "name": "",
          "type": "string"
        }
      ],
      "stateMutability": "view",
      "type": "function"
    },
    {
      "inputs": [
        {
          "components": [
            {
              "internalType": "address",
              "name": "originalToken",
              "type": "address"
            },
            {
              "internalType": "string",
              "name": "tokenName",
              "type": "string"
            },
            {
              "internalType": "string",
              "name": "tokenSymbol",
              "type": "string"
            },
            {
              "internalType": "address",
              "name": "wrappedToken",
              "type": "address"
            }
          ],
          "internalType": "struct Bridge.TokenPair[]",
          "name": "newTokenPairs",
          "type": "tuple[]"
        },
        {
          "components": [
            {
              "internalType": "uint256",
              "name": "amount",
              "type": "uint256"
            },
            {
              "internalType": "bytes",
              "name": "signature",
              "type": "bytes"
            },
            {
              "internalType": "bytes",
              "name": "publicKey",
              "type": "bytes"
            },
            {
              "internalType": "address",
              "name": "prerotatedKeyHash",
              "type": "address"
            },
            {
              "internalType": "address",
              "name": "twicePrerotatedKeyHash",
              "type": "address"
            },
            {
              "internalType": "address",
              "name": "prevPublicKeyHash",
              "type": "address"
            },
            {
              "internalType": "address",
              "name": "outputAddress",
              "type": "address"
            },
            {
              "internalType": "bool",
              "name": "hasRelationship",
              "type": "bool"
            },
            {
              "internalType": "address",
              "name": "tokenSource",
              "type": "address"
            },
            {
              "components": [
                {
                  "internalType": "address",
                  "name": "token",
                  "type": "address"
                },
                {
                  "internalType": "uint256",
                  "name": "amount",
                  "type": "uint256"
                },
                {
                  "internalType": "uint256",
                  "name": "deadline",
                  "type": "uint256"
                },
                {
                  "internalType": "uint8",
                  "name": "v",
                  "type": "uint8"
                },
                {
                  "internalType": "bytes32",
                  "name": "r",
                  "type": "bytes32"
                },
                {
                  "internalType": "bytes32",
                  "name": "s",
                  "type": "bytes32"
                },
                {
                  "components": [
                    {
                      "internalType": "address",
                      "name": "recipientAddress",
                      "type": "address"
                    },
                    {
                      "internalType": "uint256",
                      "name": "amount",
                      "type": "uint256"
                    },
                    {
                      "internalType": "bool",
                      "name": "wrap",
                      "type": "bool"
                    },
                    {
                      "internalType": "bool",
                      "name": "unwrap",
                      "type": "bool"
                    },
                    {
                      "internalType": "bool",
                      "name": "mint",
                      "type": "bool"
                    }
                  ],
                  "internalType": "struct Bridge.Recipient[]",
                  "name": "recipients",
                  "type": "tuple[]"
                }
              ],
              "internalType": "struct Bridge.PermitData[]",
              "name": "permits",
              "type": "tuple[]"
            }
          ],
          "internalType": "struct Bridge.Params",
          "name": "unconfirmed",
          "type": "tuple"
        },
        {
          "components": [
            {
              "internalType": "uint256",
              "name": "amount",
              "type": "uint256"
            },
            {
              "internalType": "bytes",
              "name": "signature",
              "type": "bytes"
            },
            {
              "internalType": "bytes",
              "name": "publicKey",
              "type": "bytes"
            },
            {
              "internalType": "address",
              "name": "prerotatedKeyHash",
              "type": "address"
            },
            {
              "internalType": "address",
              "name": "twicePrerotatedKeyHash",
              "type": "address"
            },
            {
              "internalType": "address",
              "name": "prevPublicKeyHash",
              "type": "address"
            },
            {
              "internalType": "address",
              "name": "outputAddress",
              "type": "address"
            },
            {
              "internalType": "bool",
              "name": "hasRelationship",
              "type": "bool"
            },
            {
              "internalType": "address",
              "name": "tokenSource",
              "type": "address"
            },
            {
              "components": [
                {
                  "internalType": "address",
                  "name": "token",
                  "type": "address"
                },
                {
                  "internalType": "uint256",
                  "name": "amount",
                  "type": "uint256"
                },
                {
                  "internalType": "uint256",
                  "name": "deadline",
                  "type": "uint256"
                },
                {
                  "internalType": "uint8",
                  "name": "v",
                  "type": "uint8"
                },
                {
                  "internalType": "bytes32",
                  "name": "r",
                  "type": "bytes32"
                },
                {
                  "internalType": "bytes32",
                  "name": "s",
                  "type": "bytes32"
                },
                {
                  "components": [
                    {
                      "internalType": "address",
                      "name": "recipientAddress",
                      "type": "address"
                    },
                    {
                      "internalType": "uint256",
                      "name": "amount",
                      "type": "uint256"
                    },
                    {
                      "internalType": "bool",
                      "name": "wrap",
                      "type": "bool"
                    },
                    {
                      "internalType": "bool",
                      "name": "unwrap",
                      "type": "bool"
                    },
                    {
                      "internalType": "bool",
                      "name": "mint",
                      "type": "bool"
                    }
                  ],
                  "internalType": "struct Bridge.Recipient[]",
                  "name": "recipients",
                  "type": "tuple[]"
                }
              ],
              "internalType": "struct Bridge.PermitData[]",
              "name": "permits",
              "type": "tuple[]"
            }
          ],
          "internalType": "struct Bridge.Params",
          "name": "confirming",
          "type": "tuple"
        }
      ],
      "name": "addMultipleTokenPairsAtomic",
      "outputs": [],
      "stateMutability": "payable",
      "type": "function"
    },
    {
      "inputs": [
        {
          "internalType": "address",
          "name": "originalToken",
          "type": "address"
        },
        {
          "internalType": "address",
          "name": "wrappedToken",
          "type": "address"
        }
      ],
      "name": "addTokenPair",
      "outputs": [],
      "stateMutability": "nonpayable",
      "type": "function"
    },
    {
      "inputs": [],
      "name": "feeCollector",
      "outputs": [
        {
          "internalType": "address",
          "name": "",
          "type": "address"
        }
      ],
      "stateMutability": "view",
      "type": "function"
    },
    {
      "inputs": [],
      "name": "feeSigner",
      "outputs": [
        {
          "internalType": "address",
          "name": "",
          "type": "address"
        }
      ],
      "stateMutability": "view",
      "type": "function"
    },
    {
      "inputs": [
        {
          "internalType": "bytes",
          "name": "publicKey",
          "type": "bytes"
        }
      ],
      "name": "getAddressFromPublicKey",
      "outputs": [
        {
          "internalType": "address",
          "name": "",
          "type": "address"
        }
      ],
      "stateMutability": "pure",
      "type": "function"
    },
    {
      "inputs": [],
      "name": "getOwner",
      "outputs": [
        {
          "internalType": "address",
          "name": "",
          "type": "address"
        }
      ],
      "stateMutability": "view",
      "type": "function"
    },
    {
      "inputs": [],
      "name": "getSupportedTokens",
      "outputs": [
        {
          "internalType": "address[]",
          "name": "",
          "type": "address[]"
        }
      ],
      "stateMutability": "view",
      "type": "function"
    },
    {
      "inputs": [
        {
          "internalType": "address",
          "name": "_keyLogRegistry",
          "type": "address"
        }
      ],
      "name": "initialize",
      "outputs": [],
      "stateMutability": "nonpayable",
      "type": "function"
    },
    {
      "inputs": [],
      "name": "keyLogRegistry",
      "outputs": [
        {
          "internalType": "contract KeyLogRegistry",
          "name": "",
          "type": "address"
        }
      ],
      "stateMutability": "view",
      "type": "function"
    },
    {
      "inputs": [
        {
          "internalType": "address",
          "name": "",
          "type": "address"
        }
      ],
      "name": "nonces",
      "outputs": [
        {
          "internalType": "uint256",
          "name": "",
          "type": "uint256"
        }
      ],
      "stateMutability": "view",
      "type": "function"
    },
    {
      "inputs": [
        {
          "internalType": "address",
          "name": "originalToken",
          "type": "address"
        }
      ],
      "name": "originalToWrapped",
      "outputs": [
        {
          "internalType": "address",
          "name": "",
          "type": "address"
        }
      ],
      "stateMutability": "view",
      "type": "function"
    },
    {
      "inputs": [],
      "name": "owner",
      "outputs": [
        {
          "internalType": "address",
          "name": "",
          "type": "address"
        }
      ],
      "stateMutability": "view",
      "type": "function"
    },
    {
      "inputs": [],
      "name": "proxiableUUID",
      "outputs": [
        {
          "internalType": "bytes32",
          "name": "",
          "type": "bytes32"
        }
      ],
      "stateMutability": "view",
      "type": "function"
    },
    {
      "inputs": [
        {
          "internalType": "address",
          "name": "token",
          "type": "address"
        },
        {
          "components": [
            {
              "internalType": "uint256",
              "name": "amount",
              "type": "uint256"
            },
            {
              "internalType": "bytes",
              "name": "signature",
              "type": "bytes"
            },
            {
              "internalType": "bytes",
              "name": "publicKey",
              "type": "bytes"
            },
            {
              "internalType": "address",
              "name": "prerotatedKeyHash",
              "type": "address"
            },
            {
              "internalType": "address",
              "name": "twicePrerotatedKeyHash",
              "type": "address"
            },
            {
              "internalType": "address",
              "name": "prevPublicKeyHash",
              "type": "address"
            },
            {
              "internalType": "address",
              "name": "outputAddress",
              "type": "address"
            },
            {
              "internalType": "bool",
              "name": "hasRelationship",
              "type": "bool"
            },
            {
              "internalType": "address",
              "name": "tokenSource",
              "type": "address"
            },
            {
              "components": [
                {
                  "internalType": "address",
                  "name": "token",
                  "type": "address"
                },
                {
                  "internalType": "uint256",
                  "name": "amount",
                  "type": "uint256"
                },
                {
                  "internalType": "uint256",
                  "name": "deadline",
                  "type": "uint256"
                },
                {
                  "internalType": "uint8",
                  "name": "v",
                  "type": "uint8"
                },
                {
                  "internalType": "bytes32",
                  "name": "r",
                  "type": "bytes32"
                },
                {
                  "internalType": "bytes32",
                  "name": "s",
                  "type": "bytes32"
                },
                {
                  "components": [
                    {
                      "internalType": "address",
                      "name": "recipientAddress",
                      "type": "address"
                    },
                    {
                      "internalType": "uint256",
                      "name": "amount",
                      "type": "uint256"
                    },
                    {
                      "internalType": "bool",
                      "name": "wrap",
                      "type": "bool"
                    },
                    {
                      "internalType": "bool",
                      "name": "unwrap",
                      "type": "bool"
                    },
                    {
                      "internalType": "bool",
                      "name": "mint",
                      "type": "bool"
                    }
                  ],
                  "internalType": "struct Bridge.Recipient[]",
                  "name": "recipients",
                  "type": "tuple[]"
                }
              ],
              "internalType": "struct Bridge.PermitData[]",
              "name": "permits",
              "type": "tuple[]"
            }
          ],
          "internalType": "struct Bridge.Params",
          "name": "unconfirmed",
          "type": "tuple"
        },
        {
          "components": [
            {
              "internalType": "uint256",
              "name": "amount",
              "type": "uint256"
            },
            {
              "internalType": "bytes",
              "name": "signature",
              "type": "bytes"
            },
            {
              "internalType": "bytes",
              "name": "publicKey",
              "type": "bytes"
            },
            {
              "internalType": "address",
              "name": "prerotatedKeyHash",
              "type": "address"
            },
            {
              "internalType": "address",
              "name": "twicePrerotatedKeyHash",
              "type": "address"
            },
            {
              "internalType": "address",
              "name": "prevPublicKeyHash",
              "type": "address"
            },
            {
              "internalType": "address",
              "name": "outputAddress",
              "type": "address"
            },
            {
              "internalType": "bool",
              "name": "hasRelationship",
              "type": "bool"
            },
            {
              "internalType": "address",
              "name": "tokenSource",
              "type": "address"
            },
            {
              "components": [
                {
                  "internalType": "address",
                  "name": "token",
                  "type": "address"
                },
                {
                  "internalType": "uint256",
                  "name": "amount",
                  "type": "uint256"
                },
                {
                  "internalType": "uint256",
                  "name": "deadline",
                  "type": "uint256"
                },
                {
                  "internalType": "uint8",
                  "name": "v",
                  "type": "uint8"
                },
                {
                  "internalType": "bytes32",
                  "name": "r",
                  "type": "bytes32"
                },
                {
                  "internalType": "bytes32",
                  "name": "s",
                  "type": "bytes32"
                },
                {
                  "components": [
                    {
                      "internalType": "address",
                      "name": "recipientAddress",
                      "type": "address"
                    },
                    {
                      "internalType": "uint256",
                      "name": "amount",
                      "type": "uint256"
                    },
                    {
                      "internalType": "bool",
                      "name": "wrap",
                      "type": "bool"
                    },
                    {
                      "internalType": "bool",
                      "name": "unwrap",
                      "type": "bool"
                    },
                    {
                      "internalType": "bool",
                      "name": "mint",
                      "type": "bool"
                    }
                  ],
                  "internalType": "struct Bridge.Recipient[]",
                  "name": "recipients",
                  "type": "tuple[]"
                }
              ],
              "internalType": "struct Bridge.PermitData[]",
              "name": "permits",
              "type": "tuple[]"
            }
          ],
          "internalType": "struct Bridge.Params",
          "name": "confirming",
          "type": "tuple"
        }
      ],
      "name": "registerKeyPairWithTransfer",
      "outputs": [],
      "stateMutability": "payable",
      "type": "function"
    },
    {
      "inputs": [
        {
          "internalType": "bytes",
          "name": "publicKey",
          "type": "bytes"
        },
        {
          "internalType": "address",
          "name": "publicKeyHash",
          "type": "address"
        },
        {
          "internalType": "address",
          "name": "prerotatedKeyHash",
          "type": "address"
        },
        {
          "internalType": "address",
          "name": "twicePrerotatedKeyHash",
          "type": "address"
        },
        {
          "internalType": "address",
          "name": "prevPublicKeyHash",
          "type": "address"
        },
        {
          "internalType": "address",
          "name": "outputAddress",
          "type": "address"
        },
        {
          "internalType": "bool",
          "name": "hasRelationship",
          "type": "bool"
        },
        {
          "components": [
            {
              "internalType": "address",
              "name": "token",
              "type": "address"
            },
            {
              "internalType": "uint256",
              "name": "amount",
              "type": "uint256"
            },
            {
              "internalType": "uint256",
              "name": "deadline",
              "type": "uint256"
            },
            {
              "internalType": "uint8",
              "name": "v",
              "type": "uint8"
            },
            {
              "internalType": "bytes32",
              "name": "r",
              "type": "bytes32"
            },
            {
              "internalType": "bytes32",
              "name": "s",
              "type": "bytes32"
            },
            {
              "components": [
                {
                  "internalType": "address",
                  "name": "recipientAddress",
                  "type": "address"
                },
                {
                  "internalType": "uint256",
                  "name": "amount",
                  "type": "uint256"
                },
                {
                  "internalType": "bool",
                  "name": "wrap",
                  "type": "bool"
                },
                {
                  "internalType": "bool",
                  "name": "unwrap",
                  "type": "bool"
                },
                {
                  "internalType": "bool",
                  "name": "mint",
                  "type": "bool"
                }
              ],
              "internalType": "struct Bridge.Recipient[]",
              "name": "recipients",
              "type": "tuple[]"
            }
          ],
          "internalType": "struct Bridge.PermitData[]",
          "name": "permits",
          "type": "tuple[]"
        }
      ],
      "name": "registerKeyWithTransfer",
      "outputs": [],
      "stateMutability": "payable",
      "type": "function"
    },
    {
      "inputs": [],
      "name": "relayer",
      "outputs": [
        {
          "internalType": "address",
          "name": "",
          "type": "address"
        }
      ],
      "stateMutability": "view",
      "type": "function"
    },
    {
      "inputs": [],
      "name": "renounceOwnership",
      "outputs": [],
      "stateMutability": "nonpayable",
      "type": "function"
    },
    {
      "inputs": [
        {
          "internalType": "address",
          "name": "_feeCollector",
          "type": "address"
        }
      ],
      "name": "setFeeCollector",
      "outputs": [],
      "stateMutability": "nonpayable",
      "type": "function"
    },
    {
      "inputs": [
        {
          "internalType": "address",
          "name": "_signer",
          "type": "address"
        }
      ],
      "name": "setFeeSigner",
      "outputs": [],
      "stateMutability": "nonpayable",
      "type": "function"
    },
    {
      "inputs": [
        {
          "internalType": "address",
          "name": "_relayer",
          "type": "address"
        }
      ],
      "name": "setRelayer",
      "outputs": [],
      "stateMutability": "nonpayable",
      "type": "function"
    },
    {
      "inputs": [
        {
          "internalType": "uint256",
          "name": "",
          "type": "uint256"
        }
      ],
      "name": "supportedOriginalTokens",
      "outputs": [
        {
          "internalType": "address",
          "name": "",
          "type": "address"
        }
      ],
      "stateMutability": "view",
      "type": "function"
    },
    {
      "inputs": [
        {
          "internalType": "address",
          "name": "",
          "type": "address"
        }
      ],
      "name": "tokenPairs",
      "outputs": [
        {
          "internalType": "address",
          "name": "originalToken",
          "type": "address"
        },
        {
          "internalType": "address",
          "name": "wrappedToken",
          "type": "address"
        }
      ],
      "stateMutability": "view",
      "type": "function"
    },
    {
      "inputs": [
        {
          "internalType": "address",
          "name": "newOwner",
          "type": "address"
        }
      ],
      "name": "transferOwnership",
      "outputs": [],
      "stateMutability": "nonpayable",
      "type": "function"
    },
    {
      "inputs": [
        {
          "internalType": "address",
          "name": "wrappedToken",
          "type": "address"
        },
        {
          "components": [
            {
              "internalType": "address",
              "name": "token",
              "type": "address"
            },
            {
              "internalType": "uint256",
              "name": "fee",
              "type": "uint256"
            },
            {
              "internalType": "uint256",
              "name": "expires",
              "type": "uint256"
            },
            {
              "internalType": "bytes",
              "name": "signature",
              "type": "bytes"
            }
          ],
          "internalType": "struct Bridge.FeeInfo",
          "name": "feeInfo",
          "type": "tuple"
        },
        {
          "components": [
            {
              "internalType": "uint256",
              "name": "amount",
              "type": "uint256"
            },
            {
              "internalType": "bytes",
              "name": "signature",
              "type": "bytes"
            },
            {
              "internalType": "bytes",
              "name": "publicKey",
              "type": "bytes"
            },
            {
              "internalType": "address",
              "name": "prerotatedKeyHash",
              "type": "address"
            },
            {
              "internalType": "address",
              "name": "twicePrerotatedKeyHash",
              "type": "address"
            },
            {
              "internalType": "address",
              "name": "prevPublicKeyHash",
              "type": "address"
            },
            {
              "internalType": "address",
              "name": "outputAddress",
              "type": "address"
            },
            {
              "internalType": "bool",
              "name": "hasRelationship",
              "type": "bool"
            },
            {
              "internalType": "address",
              "name": "tokenSource",
              "type": "address"
            },
            {
              "components": [
                {
                  "internalType": "address",
                  "name": "token",
                  "type": "address"
                },
                {
                  "internalType": "uint256",
                  "name": "amount",
                  "type": "uint256"
                },
                {
                  "internalType": "uint256",
                  "name": "deadline",
                  "type": "uint256"
                },
                {
                  "internalType": "uint8",
                  "name": "v",
                  "type": "uint8"
                },
                {
                  "internalType": "bytes32",
                  "name": "r",
                  "type": "bytes32"
                },
                {
                  "internalType": "bytes32",
                  "name": "s",
                  "type": "bytes32"
                },
                {
                  "components": [
                    {
                      "internalType": "address",
                      "name": "recipientAddress",
                      "type": "address"
                    },
                    {
                      "internalType": "uint256",
                      "name": "amount",
                      "type": "uint256"
                    },
                    {
                      "internalType": "bool",
                      "name": "wrap",
                      "type": "bool"
                    },
                    {
                      "internalType": "bool",
                      "name": "unwrap",
                      "type": "bool"
                    },
                    {
                      "internalType": "bool",
                      "name": "mint",
                      "type": "bool"
                    }
                  ],
                  "internalType": "struct Bridge.Recipient[]",
                  "name": "recipients",
                  "type": "tuple[]"
                }
              ],
              "internalType": "struct Bridge.PermitData[]",
              "name": "permits",
              "type": "tuple[]"
            }
          ],
          "internalType": "struct Bridge.Params",
          "name": "unconfirmed",
          "type": "tuple"
        },
        {
          "components": [
            {
              "internalType": "uint256",
              "name": "amount",
              "type": "uint256"
            },
            {
              "internalType": "bytes",
              "name": "signature",
              "type": "bytes"
            },
            {
              "internalType": "bytes",
              "name": "publicKey",
              "type": "bytes"
            },
            {
              "internalType": "address",
              "name": "prerotatedKeyHash",
              "type": "address"
            },
            {
              "internalType": "address",
              "name": "twicePrerotatedKeyHash",
              "type": "address"
            },
            {
              "internalType": "address",
              "name": "prevPublicKeyHash",
              "type": "address"
            },
            {
              "internalType": "address",
              "name": "outputAddress",
              "type": "address"
            },
            {
              "internalType": "bool",
              "name": "hasRelationship",
              "type": "bool"
            },
            {
              "internalType": "address",
              "name": "tokenSource",
              "type": "address"
            },
            {
              "components": [
                {
                  "internalType": "address",
                  "name": "token",
                  "type": "address"
                },
                {
                  "internalType": "uint256",
                  "name": "amount",
                  "type": "uint256"
                },
                {
                  "internalType": "uint256",
                  "name": "deadline",
                  "type": "uint256"
                },
                {
                  "internalType": "uint8",
                  "name": "v",
                  "type": "uint8"
                },
                {
                  "internalType": "bytes32",
                  "name": "r",
                  "type": "bytes32"
                },
                {
                  "internalType": "bytes32",
                  "name": "s",
                  "type": "bytes32"
                },
                {
                  "components": [
                    {
                      "internalType": "address",
                      "name": "recipientAddress",
                      "type": "address"
                    },
                    {
                      "internalType": "uint256",
                      "name": "amount",
                      "type": "uint256"
                    },
                    {
                      "internalType": "bool",
                      "name": "wrap",
                      "type": "bool"
                    },
                    {
                      "internalType": "bool",
                      "name": "unwrap",
                      "type": "bool"
                    },
                    {
                      "internalType": "bool",
                      "name": "mint",
                      "type": "bool"
                    }
                  ],
                  "internalType": "struct Bridge.Recipient[]",
                  "name": "recipients",
                  "type": "tuple[]"
                }
              ],
              "internalType": "struct Bridge.PermitData[]",
              "name": "permits",
              "type": "tuple[]"
            }
          ],
          "internalType": "struct Bridge.Params",
          "name": "confirming",
          "type": "tuple"
        }
      ],
      "name": "unwrap",
      "outputs": [],
      "stateMutability": "payable",
      "type": "function"
    },
    {
      "inputs": [
        {
          "internalType": "address",
          "name": "newImplementation",
          "type": "address"
        },
        {
          "internalType": "bytes",
          "name": "data",
          "type": "bytes"
        }
      ],
      "name": "upgradeToAndCall",
      "outputs": [],
      "stateMutability": "payable",
      "type": "function"
    },
    {
      "inputs": [
        {
          "internalType": "address",
          "name": "originalToken",
          "type": "address"
        },
        {
          "components": [
            {
              "internalType": "address",
              "name": "token",
              "type": "address"
            },
            {
              "internalType": "uint256",
              "name": "fee",
              "type": "uint256"
            },
            {
              "internalType": "uint256",
              "name": "expires",
              "type": "uint256"
            },
            {
              "internalType": "bytes",
              "name": "signature",
              "type": "bytes"
            }
          ],
          "internalType": "struct Bridge.FeeInfo",
          "name": "feeInfo",
          "type": "tuple"
        },
        {
          "components": [
            {
              "internalType": "uint256",
              "name": "amount",
              "type": "uint256"
            },
            {
              "internalType": "bytes",
              "name": "signature",
              "type": "bytes"
            },
            {
              "internalType": "bytes",
              "name": "publicKey",
              "type": "bytes"
            },
            {
              "internalType": "address",
              "name": "prerotatedKeyHash",
              "type": "address"
            },
            {
              "internalType": "address",
              "name": "twicePrerotatedKeyHash",
              "type": "address"
            },
            {
              "internalType": "address",
              "name": "prevPublicKeyHash",
              "type": "address"
            },
            {
              "internalType": "address",
              "name": "outputAddress",
              "type": "address"
            },
            {
              "internalType": "bool",
              "name": "hasRelationship",
              "type": "bool"
            },
            {
              "internalType": "address",
              "name": "tokenSource",
              "type": "address"
            },
            {
              "components": [
                {
                  "internalType": "address",
                  "name": "token",
                  "type": "address"
                },
                {
                  "internalType": "uint256",
                  "name": "amount",
                  "type": "uint256"
                },
                {
                  "internalType": "uint256",
                  "name": "deadline",
                  "type": "uint256"
                },
                {
                  "internalType": "uint8",
                  "name": "v",
                  "type": "uint8"
                },
                {
                  "internalType": "bytes32",
                  "name": "r",
                  "type": "bytes32"
                },
                {
                  "internalType": "bytes32",
                  "name": "s",
                  "type": "bytes32"
                },
                {
                  "components": [
                    {
                      "internalType": "address",
                      "name": "recipientAddress",
                      "type": "address"
                    },
                    {
                      "internalType": "uint256",
                      "name": "amount",
                      "type": "uint256"
                    },
                    {
                      "internalType": "bool",
                      "name": "wrap",
                      "type": "bool"
                    },
                    {
                      "internalType": "bool",
                      "name": "unwrap",
                      "type": "bool"
                    },
                    {
                      "internalType": "bool",
                      "name": "mint",
                      "type": "bool"
                    }
                  ],
                  "internalType": "struct Bridge.Recipient[]",
                  "name": "recipients",
                  "type": "tuple[]"
                }
              ],
              "internalType": "struct Bridge.PermitData[]",
              "name": "permits",
              "type": "tuple[]"
            }
          ],
          "internalType": "struct Bridge.Params",
          "name": "unconfirmed",
          "type": "tuple"
        },
        {
          "components": [
            {
              "internalType": "uint256",
              "name": "amount",
              "type": "uint256"
            },
            {
              "internalType": "bytes",
              "name": "signature",
              "type": "bytes"
            },
            {
              "internalType": "bytes",
              "name": "publicKey",
              "type": "bytes"
            },
            {
              "internalType": "address",
              "name": "prerotatedKeyHash",
              "type": "address"
            },
            {
              "internalType": "address",
              "name": "twicePrerotatedKeyHash",
              "type": "address"
            },
            {
              "internalType": "address",
              "name": "prevPublicKeyHash",
              "type": "address"
            },
            {
              "internalType": "address",
              "name": "outputAddress",
              "type": "address"
            },
            {
              "internalType": "bool",
              "name": "hasRelationship",
              "type": "bool"
            },
            {
              "internalType": "address",
              "name": "tokenSource",
              "type": "address"
            },
            {
              "components": [
                {
                  "internalType": "address",
                  "name": "token",
                  "type": "address"
                },
                {
                  "internalType": "uint256",
                  "name": "amount",
                  "type": "uint256"
                },
                {
                  "internalType": "uint256",
                  "name": "deadline",
                  "type": "uint256"
                },
                {
                  "internalType": "uint8",
                  "name": "v",
                  "type": "uint8"
                },
                {
                  "internalType": "bytes32",
                  "name": "r",
                  "type": "bytes32"
                },
                {
                  "internalType": "bytes32",
                  "name": "s",
                  "type": "bytes32"
                },
                {
                  "components": [
                    {
                      "internalType": "address",
                      "name": "recipientAddress",
                      "type": "address"
                    },
                    {
                      "internalType": "uint256",
                      "name": "amount",
                      "type": "uint256"
                    },
                    {
                      "internalType": "bool",
                      "name": "wrap",
                      "type": "bool"
                    },
                    {
                      "internalType": "bool",
                      "name": "unwrap",
                      "type": "bool"
                    },
                    {
                      "internalType": "bool",
                      "name": "mint",
                      "type": "bool"
                    }
                  ],
                  "internalType": "struct Bridge.Recipient[]",
                  "name": "recipients",
                  "type": "tuple[]"
                }
              ],
              "internalType": "struct Bridge.PermitData[]",
              "name": "permits",
              "type": "tuple[]"
            }
          ],
          "internalType": "struct Bridge.Params",
          "name": "confirming",
          "type": "tuple"
        }
      ],
      "name": "wrap",
      "outputs": [],
      "stateMutability": "payable",
      "type": "function"
    }
  ],
  "bytecode": "0x60a0806040523461002a57306080526158149081610030823960805181818161106901526111180152f35b600080fdfe60808060405260043610156200001457600080fd5b600090813560e01c908163075693391462002a6b57508063081da8c11462002a0057806319bd211914620023a85780631a6d10fc1462001efc578063276c1ac01462001eae5780632ed95877146200133a57806347bbbdf514620012ed5780634f1ef28614620010d457806352d1902d14620010545780635ff591311462000e7a5780636548e9bc1462000e34578063715018a61462000dc45780637e1aa1781462000d7e5780637ecebe001462000d415780638406c0791462000d16578063893d20e81462000cdd5780638da5cb5b1462000cdd578063a42dce801462000c7d578063a7c87ec21462000b7e578063ad3cb1cc1462000b2e578063b5057a7b1462000b05578063b6f6abdc14620004da578063c415b95c14620004af578063c4d66de81462000310578063d3c7c2c71462000242578063d8397fd514620001df5763f2fde38b146200016657600080fd5b34620001dc576020366003190112620001dc576200018362002a92565b6200018d62003a0c565b6001600160a01b038116908115620001ca57620001c7916001600160601b0360a01b6002541617600255620001c162003a0c565b62003a47565b80f35b60405163d92e233d60e01b8152600490fd5b80fd5b5034620001dc576020366003190112620001dc576004356006548110156200023e5760066000527ff652222313e28459528d920b65115c16c04f3efc82aaedc97be59f3f377c0d3f01546040516001600160a01b039091168152602090f35b5080fd5b5034620001dc5780600319360112620001dc5760405180916006549081835260208093018092600683527ff652222313e28459528d920b65115c16c04f3efc82aaedc97be59f3f377c0d3f90835b818110620002f25750505084620002a991038562002b0a565b60405193838594850191818652518092526040850193925b828110620002d157505050500390f35b83516001600160a01b031685528695509381019392810192600101620002c1565b82546001600160a01b03168452928601926001928301920162000290565b5034620001dc576020366003190112620001dc576200032e62002a92565b7ff0c57e16840df040f15088dc2f81fe391c3923bec73e23a9662efc9c229c6a009081549060ff8260401c1615916001600160401b03811680159081620004a6575b60011490816200049b575b15908162000491575b506200047f5767ffffffffffffffff1981166001178455826200045f575b50620003ad62003b6c565b620003b762003b6c565b620003c23362003a47565b620003cc62003b6c565b620003d662003b6c565b620003e062003b6c565b6001600080516020620057bf833981519152556001600160601b0360a01b9060018060a01b0316818554161784553390600254161760025562000421575080f35b68ff00000000000000001981541690557fc7f505b2f371ae2175ee4913f4499e1f2633a7b5936321eed1cdaeb6115181d2602060405160018152a180f35b68ffffffffffffffffff19166801000000000000000117835538620003a2565b60405163f92ee8a960e01b8152600490fd5b9050153862000384565b303b1591506200037b565b84915062000370565b5034620001dc5780600319360112620001dc576002546040516001600160a01b039091168152602090f35b50620004e63662002be6565b91620004f1620031a8565b60018060a01b0380851691828752602060048152604088209080846001604051946200051d8662002ada565b805483168652015416920191825233895260058152604089205460c087019387359180620005bf620005b88d620005548a62002eea565b604080516001600160a01b039384168b8201908152602081018b905293909216908301526060820194909452836080820103936200059b601f199586810183528262002b0a565b519020620005ac888e018e62002eff565b92903393369162002b48565b90620031ef565b1562000af357620005d360c08c0162002eea565b916001810180911162000adf576200067a926200063762000663938f8f946200062a906040519586938d85019835908990606092959493608083019660018060a01b03809316845260208401521660408201520152565b0390810183528262002b0a565b519020620005b88c620006716200066b620006558a84018462002eff565b969093604081019062002eff565b369162002b48565b62002f88565b93369162002b48565b1562000acd5785808c54168c620006918862002eea565b916040519384936324b9c44160e21b85521660048401528260246101209586935afa801562000ac057899387938392620009a2575b505062000971575b505050620006dc9062003247565b91670de0b6b3a764000080620006f3858562002f58565b04938484106200095f5762000709903462002f58565b04978834106200095f578962000721918d9c62003317565b8215158062000955575b62000897575b50906200073e9162002f6c565b9083826200080c575b505050503462000769575b846001600080516020620057bf8339815191525580f35b82620007d3575b506200077f575b808062000752565b6200078b903462002f6c565b8015620007775782809291620007a5606083940162002eea565b5af1620007b162002eb5565b5015620007c15780388062000777565b604051630db2c7f160e31b8152600490fd5b93808084819497600254165af1620007ea62002eb5565b5015620007fa5783923862000770565b604051634033e4e360e01b8152600490fd5b6200081a9151169262002eea565b90823b1562000893576040516340c10f1960e01b81526001600160a01b0392909216600483015260248201529086908290604490829084905af1908115620008885786916200086c575b808362000747565b620008779062002af6565b6200088457843862000864565b8480fd5b6040513d88823e3d90fd5b8780fd5b60025460405163a9059cbb60e01b81529087166001600160a01b03166004820152602481018490529299919290918290829081806044810103918b5af19182156200094a578b9262000908575b505015620008f6579688973862000731565b6040516312171d8360e31b8152600490fd5b90809250813d831162000942575b62000922818362002b0a565b810103126200093e57620009369062002f7a565b3880620008e4565b8980fd5b503d62000916565b6040513d8d823e3d90fd5b508615156200072b565b604051631fbaba3560e01b8152600490fd5b01511686620009808762002eea565b16036200099057858338620006ce565b604051631a7ec90d60e01b8152600490fd5b93509350505080823d841162000ab8575b620009bf818362002b0a565b81010391821262000ab45761010080921262000ab4576040518281018181106001600160401b0382111762000a9e57604052620009fc8262003193565b815262000a0b86830162003193565b8682015262000a1d6040830162003193565b604082015262000a306060830162003193565b606082015262000a436080830162003193565b608082015262000a5660a0830162002f7a565b60a082015262000a6960c0830162002f7a565b60c082015260e0820151600381101562000a9a578993879362000a929260e08501520162002f7a565b3880620006c6565b8e80fd5b634e487b7160e01b600052604160045260246000fd5b8c80fd5b503d620009b3565b50604051903d90823e3d90fd5b604051633bc0bb3d60e21b8152600490fd5b634e487b7160e01b8e52601160045260248efd5b604051637a9e3e8360e01b8152600490fd5b5034620001dc5780600319360112620001dc57546040516001600160a01b039091168152602090f35b5034620001dc5780600319360112620001dc5762000b7a60405162000b538162002ada565b60058152640352e302e360dc1b602082015260405191829160208352602083019062002c69565b0390f35b5034620001dc576040366003190112620001dc5762000b9c62002a92565b62000ba662002aae565b9062000bb162003a0c565b6001600160a01b0381811680855260046020526040852060010154919391841662000c6b57620001c79360016040519262000bec8462002ada565b8084528260208501951694858152818952600460205283838160408c20975116966001600160601b0360a01b978882541617815501915116858254161790556040519062000c3a8262002ada565b8152602081019480865288526004602052826040892091511684825416178155019251169082541617905562003112565b604051636bb9e87d60e01b8152600490fd5b5034620001dc576020366003190112620001dc5762000c9b62002a92565b62000ca562003a0c565b6001600160a01b0316801562000ccb576001600160601b0360a01b600254161760025580f35b60405163bb0bac9960e01b8152600490fd5b5034620001dc5780600319360112620001dc576000805160206200579f833981519152546040516001600160a01b039091168152602090f35b5034620001dc5780600319360112620001dc576001546040516001600160a01b039091168152602090f35b5034620001dc576020366003190112620001dc576020906040906001600160a01b0362000d6d62002a92565b168152600583522054604051908152f35b5034620001dc576020366003190112620001dc5762000d9c62002a92565b62000da662003a0c565b60018060a01b03166001600160601b0360a01b600354161760035580f35b5034620001dc5780600319360112620001dc5762000de162003a0c565b6000805160206200579f83398151915280546001600160a01b031981169091556000906001600160a01b03167f8be0079c531659141344cd1fd0a4f28419497f9722a3daafe3b4186f6b6457e08280a380f35b5034620001dc576020366003190112620001dc5762000e5262002a92565b62000e5c62003a0c565b60018060a01b03166001600160601b0360a01b600154161760015580f35b506003196060368201126200023e5762000e9362002a92565b906024356001600160401b03808211620008845781600401916101408085833603011262001050576044359283116200105057826004019483360301126200104c5760449062000ee2620031a8565b338752600560205262000f7860408820549282620005b88962000f0960c488970162002eea565b604080516001600160a01b03938416602082019081528c3592820192909252919092166060820152608080820197909752958652601f199562000f4e60a08262002b0a565b51902091620006716200066b6200066362000f6d602485018d62002eff565b979094018c62002eff565b1562000af35762000f8c60c4840162002eea565b600183018093116200103857604080516001600160a01b03808a16602083019081526000938301939093529092166060830152608082019390935262001011936044939092620005b8929062000fe7908260a081016200062a565b51902091620006716200066b6200066362001006602485018b62002eff565b979094018a62002eff565b1562000acd57620010229262003317565b6001600080516020620057bf8339815191525580f35b634e487b7160e01b88526011600452602488fd5b8580fd5b8680fd5b5034620001dc5780600319360112620001dc577f00000000000000000000000000000000000000000000000000000000000000006001600160a01b03163003620010c25760206040517f360894a13ba1a3210667c828492db98dca3e2076cc3735a920a3ca505d382bbc8152f35b60405163703e46dd60e11b8152600490fd5b506040366003190112620001dc57620010ec62002a92565b6024356001600160401b038111620012e9576200110e90369060040162002b84565b6001600160a01b037f00000000000000000000000000000000000000000000000000000000000000008116308114908115620012ba575b50620010c2576200115562003a0c565b8216916040516352d1902d60e01b8152602081600481875afa85918162001280575b506200119657604051634c9c8ce360e01b815260048101859052602490fd5b9284937f360894a13ba1a3210667c828492db98dca3e2076cc3735a920a3ca505d382bbc90818103620012685750823b156200124f5780546001600160a01b0319168217905560405184917fbc7cd75a20ee27fd9adebab32041f755214dbc6bffa90cc0225b39da2e5c2d3b8380a2835115620012325750808360206200122e95519101845af46200122762002eb5565b9162003d0a565b5080f35b925050503462001240575080f35b63b398979f60e01b8152600490fd5b604051634c9c8ce360e01b815260048101839052602490fd5b60249060405190632a87526960e21b82526004820152fd5b9091506020813d602011620012b1575b816200129f6020938362002b0a565b810103126200104c5751903862001177565b3d915062001290565b9050817f360894a13ba1a3210667c828492db98dca3e2076cc3735a920a3ca505d382bbc541614153862001145565b8280fd5b5034620001dc576020366003190112620001dc576040906001600160a01b03908290826200131a62002a92565b168152600460205220906001818354169201541682519182526020820152f35b506003196060368201126200023e576004356001600160401b038111620012e9576200136b90369060040162002bb3565b916001600160401b036024351162001eaa576101409081816024353603011262000884576001600160401b0360443511620008845760443536030112620012e957620013b662003a0c565b620013c0620031a8565b811562001e9857620013e56200066b6200066360446024350160243560040162002eff565b338452600560205260408420549062001440620005b860405162001424816200141587878b8b602086016200300d565b03601f19810183528262002b0a565b60208151910120620005ac602480350160243560040162002eff565b1562000af35760018201821162001e8457620014b391620014156200147b620005b8936040519283916001602084019601908a8a886200300d565b5190206200149460246044350160443560040162002eff565b9290620006716200066b62000663604480350160443560040162002eff565b1562000acd57825b82811062001bef5760008460243561012481013590360360221901811215620012e957602435016001600160401b03600482013511620012e957600481013560051b36036024820113620012e957620015208391369060246004820135910162002cc3565b91815b8351831015620018f557620015398385620031da565b51916020830151151580620018e6575b80620018d2575b15620018225760018060a01b03835116602084015160408501519060ff60608701511692608087015160a088015190823b15620008935760e492889594928692604051988997889663d505accf60e01b885233600489015230602489015260448801526064870152608486015260a485015260c48401525af18015620018175762001805575b508194825b60c08501518051821015620017e45781620015f691620031da565b516020810151806200160e575b5050600101620015db565b6060829993990151151580620017d1575b15620016b75750855181516020830151916001600160a01b039081169116813b156200089357604051632770a7eb60e21b81526001600160a01b03919091166004820152602481019290925286908290604490829084905af1801562000888576200169c9260019492602092620016a5575b505b01519062002f34565b96908862001603565b620016b09062002af6565b8b62001691565b6080820151151580620017be575b15620017515750855181516020830151916001600160a01b039081169116813b1562000893576040516340c10f1960e01b81526001600160a01b03919091166004820152602481019290925286908290604490829084905af1801562000888576200169c92600194926020926200173f575b505b62001693565b6200174a9062002af6565b8b62001737565b9160208260019460406200169c950151151580620017ad575b156200178d575062001739858060a01b038a511683830151903090339062003abd565b6200173990868060a01b038b5116878060a01b0384511690339062003abd565b50858060a01b038a5116156200176a565b5086516001600160a01b031615620016c5565b5086516001600160a01b0316156200161f565b5050926020909591949295015103620008f6576001905b0191909262001523565b620018109062002af6565b85620015d6565b6040513d85823e3d90fd5b9290939160018060a01b038151161562001841575b50600190620017fb565b93929091835b60c08601518051821015620018c25762001863828792620031da565b5160208101519081151580620018b5575b62001886575b50505060010162001847565b51829182918291906001600160a01b0316617530f1620018a562002eb5565b5015620007c1578487806200187a565b5060408101511562001874565b5050916001919394509062001837565b5082516001600160a01b0316151562001550565b50604083015142111562001549565b906200190c60446024350160243560040162002eff565b92906200191e60646024350162002eea565b936200192f60846024350162002eea565b906200194060a46024350162002eea565b916200195160c46024350162002eea565b936200196260e46024350162003309565b9262001978604480350160443560040162002eff565b92906200198a60646044350162002eea565b6200199a60846044350162002eea565b90620019e7620019af60a46044350162002eea565b93620019de620019c460c46044350162002eea565b96620019d560e46044350162003309565b98369162002b48565b97369162002b48565b8b546001600160a01b03169890620019ff9062002f88565b90893b1562000ab457918c9d9e9593918d9c9d989795936040519e8f9d8e9c8d9b632e91b77d60e01b8d5260048d0161018090526101848d0162001a439162002c69565b6001600160a01b039b8c1660248e0152908b1660448d0152908a1660648c015290891660848b015290151560a48a015290871660c489015290861660e48801529085166101048701529084166101248601529216610144840152151561016483015203925af1801562001be45762001bd2575b506000805160206200579f833981519152546001600160a01b031633148062001bb0575b62001b5c575b3381526005602052604081208054906002820180921162001b4857553462001b1a575b506001600080516020620057bf8339815191525580f35b8080803462001b2e60646044350162002eea565b5af162001b3a62002eb5565b5015620007c1578162001b03565b634e487b7160e01b83526011600452602483fd5b62001b6c60646044350162002eea565b62001b7662003a0c565b6001600160a01b038116908115620001ca5762001baa916001600160601b0360a01b6002541617600255620001c162003a0c565b62001ae0565b506001600160a01b0362001bc960443560640162002eea565b16151562001ada565b62001bdd9062002af6565b8262001ab6565b6040513d84823e3d90fd5b8060051b82013590607e1983360301821215620008845760808284013603126200088457604051918260808101106001600160401b0360808501111762000a9e576080830160405262001c4481850162002ac5565b83526001600160401b0360208286010135116200104c5762001c6f3685830160208101350162002b84565b60208401526001600160401b0360408286010135116200104c5762001cb39060609062001ca53687830160408101350162002b84565b604086015285010162002ac5565b606083015281516001600160a01b039081168652600460205260408620600101541662000c6b5760608201516001600160a01b0316801562001dc4575b60019262001dbd91848060a01b038251166040519062001d108262002ada565b815260a086901b8690039182166020808301828152855185168c5260049091526040808c20935184549086166001600160a01b0319918216178555915193890180549486169483169490941790935584519251919390928892911662001d768262002ada565b815260208101938085528b52600460205260408b2090828060a01b03905116838254161781550191868060a01b0390511690825416179055838060a01b0390511662003112565b01620014bb565b506020820151604083015160018060a01b03875416906040519283611a2c8101106001600160401b03611a2c8601111762001e705783929162001e2062001e3792611a2c62003d7387396080611a2c8701818152019062002c69565b90611a2c850182036020611a2c8701015262002c69565b90306040611a2c850101526060611a2c84010152039086f0801562001e65576001600160a01b031662001cf0565b6040513d87823e3d90fd5b634e487b7160e01b89526041600452602489fd5b634e487b7160e01b85526011600452602485fd5b604051630554f0a760e41b8152600490fd5b8380fd5b5034620001dc576020366003190112620001dc57600435906001600160401b038211620001dc57602062001eea6200066b366004860162002b84565b6040516001600160a01b039091168152f35b5062001f083662002be6565b909162001f17949394620031a8565b60018060a01b0392838616855260209160048352604086208560016040519262001f418462002ada565b82815416845201541680858301521562002396573387526005845260408720549783359360c081019362001fba62001ffa620005b88d62001f828962002eea565b604080516001600160a01b03808b168f8301908152602081018f90529316918301919091526060820192909252909384906080830190565b039362001fd0601f199586810183528262002b0a565b51902062001fe18b87018762002eff565b9290620006716200066b6200066360408b018b62002eff565b1562000af3578b906200201060c08b0162002eea565b600183018093116200238257620005b88b620006716200066b620006558a8f9698620020776200066399620020849b6200062a6040519485928d8401978860609194939294608082019560018060a01b038092168352600060208401521660408201520152565b5190209584018462002eff565b1562000acd5783518916156200235657620020ad86620020a76127109362003247565b62002f58565b049182620020bc818862002f6c565b96106200095f57620020d091889162003317565b6002890180991162001038578798979697338852600586526040882055878251161515600014620022d657806200222e575b50826200216f575b505050509091503415158062002134575b5050506001600080516020620057bf8339815191525580f35b62002141575b806200211b565b8180809262002154606034920162002eea565b5af16200216062002eb5565b5015620007c15780386200213a565b839550620021bd9496620021869151169162002eea565b60405163a9059cbb60e01b81526001600160a01b039091166004820152602481019290925290928391908290889082906044820190565b03925af191821562002223578492620021e5575b505015620008f6578181388080806200210a565b90809250813d83116200221b575b620021ff818362002b0a565b81010312620012e957620022139062002f7a565b3880620021d1565b503d620021f3565b6040513d86823e3d90fd5b815160025460405163a9059cbb60e01b8152908a166001600160a01b03166004820152602481019290925291965090849082908916818b816044810103925af1908115620022cb5788916200228e575b5015620008f65786943862002102565b90508381813d8311620022c3575b620022a8818362002b0a565b810103126200089357620022bc9062002f7a565b386200227e565b503d6200229c565b6040513d8a823e3d90fd5b96955050915080925062002323575b505081620022f6575b505062001022565b8147106200095f57828080938193600254165af16200231462002eb5565b5015620008f6573880620022ee565b8147106200095f57848080936200233b829462002eea565b5af16200234762002eb5565b5015620007c1573880620022e5565b62002374906200236b620020a7973462002f34565b96879162003247565b9182620020bc818862002f6c565b634e487b7160e01b8d52601160045260248dfd5b604051637879bad160e01b8152600490fd5b50610100366003190112620001dc576001600160401b03600435818111620012e957620023da90369060040162002b84565b620023e462002aae565b906044356001600160a01b038116900362001eaa57836064356001600160a01b03811681036200023e57608435926001600160a01b0384168403620012e95760a4356001600160a01b0381169003620012e95760c43595861515870362001eaa5760e43511620012e95790949362002478620024663660e43560040162002bb3565b62002470620031a8565b369162002cc3565b9483955b80518710156200287c57620024928782620031da565b519560208701511515806200286d575b8062002859575b15620027975760018060a01b03875116602088015160408901519060ff60608b0151169260808b015160a08c015190823b156200261c5760e4928c9594928692604051988997889663d505accf60e01b885233600489015230602489015260448801526064870152608486015260a485015260c48401525af180156200278c576200277a575b508598865b60c089015180518210156200274e57816200254f91620031da565b5160208101518062002567575b505060010162002534565b8a906060839e949e01511515806200273b575b1562002620575050895181516020830151916001600160a01b039081169116813b156200261c57604051632770a7eb60e21b81526001600160a01b0391909116600482015260248101929092528a908290604490829084905af180156200261157620025f69260019492602092620025ff575001519062002f34565b9a908c6200255c565b6200260a9062002af6565b8f62001691565b6040513d8c823e3d90fd5b8b80fd5b608083015115158062002728575b15620026b9575050895181516020830151916001600160a01b039081169116813b156200261c576040516340c10f1960e01b81526001600160a01b0391909116600482015260248101929092528a908290604490829084905af180156200261157620025f69260019492602092620026a7575062001693565b620026b29062002af6565b8f62001737565b82600194926020926040620025f696015115158062002717575b15620026f757506200173990868060a01b0390511683830151903090339062003abd565b6200173991878060a01b03905116878060a01b0384511690339062003abd565b50868060a01b0382511615620026d3565b5081516001600160a01b0316156200262e565b5081516001600160a01b0316156200257a565b50509391966020909991969998959398015103620008f657600188945b0196919350919693946200247c565b620027859062002af6565b896200252f565b6040513d89823e3d90fd5b949793929196909560018060a01b0381511615620027be575b50906001889493926200276b565b9796929490959193875b60c08a015180518210156200284357620027e4828b92620031da565b516020810151908115158062002836575b62002807575b505050600101620027c8565b51829182918291906001600160a01b0316617530f16200282662002eb5565b5015620007c157888b80620027fb565b50604081015115620027f5565b50979850929650909490939192906001620027b0565b5086516001600160a01b03161515620024a9565b506040870151421115620024a2565b506000805160206200579f8339815191525493969495508694936001600160a01b0316331480620029eb575b62002991575b346200296e575b84546001600160a01b031692833b156200104c57620028f69286926040519889978896879563151cdb2f60e11b875260e0600488015260e487019062002c69565b6001600160a01b039485166024870152604480358616908701529084166064860152908316608485015260a4803590931692840192909252151560c483015203925af1801562001be4576200295c57506001600080516020620057bf8339815191525580f35b620029679062002af6565b8162001b03565b938080803460a4355af16200298262002eb5565b5015620007c1578593620028b5565b93506200299d62003a0c565b6044356001600160a01b031615620001ca57600280546001600160a01b0319166044356001600160a01b03161790558593620029d862003a0c565b620029e560443562003a47565b620028ae565b506044356001600160a01b03161515620028a8565b5034620001dc576020366003190112620001dc576001600160a01b03906040908262002a2b62002a92565b1681526004602052209060208160016040519462002a498662002ada565b8281541686520154169201918083521562002396576020915116604051908152f35b9050346200023e57816003193601126200023e576003546001600160a01b03168152602090f35b600435906001600160a01b038216820362002aa957565b600080fd5b602435906001600160a01b038216820362002aa957565b35906001600160a01b038216820362002aa957565b604081019081106001600160401b0382111762000a9e57604052565b6001600160401b03811162000a9e57604052565b90601f801991011681019081106001600160401b0382111762000a9e57604052565b6001600160401b03811162000a9e57601f01601f191660200190565b92919262002b568262002b2c565b9162002b66604051938462002b0a565b82948184528183011162002aa9578281602093846000960137010152565b9080601f8301121562002aa95781602062002ba29335910162002b48565b90565b3590811515820362002aa957565b9181601f8401121562002aa9578235916001600160401b03831162002aa9576020808501948460051b01011162002aa957565b6003199060808183011262002aa9576004356001600160a01b038116810362002aa957926001600160401b0360243581811162002aa957608085828603011262002aa957600401936044359082821162002aa957610140918282828803011262002aa9576004019460643593841162002aa957839003011262002aa95760040190565b919082519283825260005b84811062002c96575050826000602080949584010152601f8019910116010190565b60208183018101518483018201520162002c74565b6001600160401b03811162000a9e5760051b60200190565b9092919262002cd28162002cab565b9060409062002ce48251938462002b0a565b829581845260208094019160051b85019281841162002aa95785925b84841062002d115750505050505050565b6001600160401b03843581811162002aa95788019060e091828187031262002aa95784519283018381108382111762002ea057855262002d518162002ac5565b83528881013589840152848101358584015260608082013560ff8116810362002aa95781850152608092838301358486015260a091828401358387015260c093848101359083821162002aa957019189601f8401121562002aa9578c9583359262002dbc8462002cab565b9762002dcb8c51998a62002b0a565b84895286818a019502860101948c861162002aa957918f99979593918a8e9c9a98969401935b85851062002e12575050505050505084955082015281520193019262002d00565b919386989a9c8197929496989a9c50031262002aa9578f8c5191888301928084108785111762002ea0578e8a94815262002e4c8962002ac5565b8252838901358483015262002e63818a0162002ba5565b9082015262002e7485890162002ba5565b8582015262002e8586890162002ba5565b868201528152019401918f99979593918d9b99979562002df1565b60246000634e487b7160e01b81526041600452fd5b3d1562002ee5573d9062002ec98262002b2c565b9162002ed9604051938462002b0a565b82523d6000602084013e565b606090565b356001600160a01b038116810362002aa95790565b903590601e198136030182121562002aa957018035906001600160401b03821162002aa95760200191813603831362002aa957565b9190820180921162002f4257565b634e487b7160e01b600052601160045260246000fd5b8181029291811591840414171562002f4257565b9190820391821162002f4257565b5190811515820362002aa957565b604081510362002fa65780516020909101206001600160a01b031690565b60405163145a1fdd60e31b8152600490fd5b9035601e198236030181121562002aa95701602081359101916001600160401b03821162002aa957813603831362002aa957565b908060209392818452848401376000828201840152601f01601f1916010190565b91909493929460609082606085016060865252608092608085019360808260051b8701019483946000946000955b85871062003061575050505050505050906040919460018060a01b031660208201520152565b9091929394959697607f198a82030185528835607e1984360301811215620012e957600191620030d591889190860190876001600160a01b0380620030a68562002ac5565b168352620030fb82620030f36020988998620030c58a8a018a62002fb8565b9091808c8b015289019162002fec565b6040620030e5818a018a62002fb8565b91898403908a015262002fec565b950162002ac5565b169101529a0195019701959493969291906200303b565b6006546801000000000000000081101562000a9e5760018101806006558110156200317d5760066000527ff652222313e28459528d920b65115c16c04f3efc82aaedc97be59f3f377c0d3f0180546001600160a01b0319166001600160a01b03909216919091179055565b634e487b7160e01b600052603260045260246000fd5b51906001600160a01b038216820362002aa957565b600080516020620057bf8339815191526002815414620031c85760029055565b604051633ee5aeb560e01b8152600490fd5b80518210156200317d5760209160051b010190565b6200323692916200322c917f19457468657265756d205369676e6564204d6573736167653a0a333200000000600052601c52603c60002062003bae565b9093919362003bed565b6001600160a01b0391821691161490565b60408101359081421162002aa957620032608162002eea565b60208201359260405192602084019160018060a01b03809416835285604086015260608501526060845260808401918483106001600160401b0384111762000a9e57620032f9946200322c936040525190207f19457468657265756d205369676e6564204d6573736167653a0a333200000000600052601c52620032f262000663603c60002092606081019062002eff565b9062003bae565b806003541691160362002aa95790565b35801515810362002aa95790565b9091600093610120840135601e19853603018112156200104c5784018035906001600160401b03821162001050576020018160051b36038113620010505762003367919693959296369162002cc3565b9482945b86518610156200375657620033818688620031da565b5192602084015115158062003747575b8062003733575b156200367b5760018060a01b03845116602085015160408601519060ff60608801511692608088015160a089015190823b15620035085760e4928b9594928692604051988997889663d505accf60e01b885233600489015230602489015260448801526064870152608486015260a485015260c48401525af18015620008885762003669575b508497855b60c086015180518210156200364557816200343e91620031da565b5160208101518062003456575b505060010162003423565b6060829c939c01511515806200362e575b156200350c5750865181516020830151916001600160a01b039081169116813b156200350857604051632770a7eb60e21b81526001600160a01b03919091166004820152602481019290925289908290604490829084905af18015620034fd57620034e29260019492602092620034eb575001519062002f34565b9990386200344b565b620034f69062002af6565b3862001691565b6040513d8b823e3d90fd5b8a80fd5b608082015115158062003617575b15620035a45750865181516020830151916001600160a01b039081169116813b1562003508576040516340c10f1960e01b81526001600160a01b03919091166004820152602481019290925289908290604490829084905af18015620034fd57620034e2926001949260209262003592575062001693565b6200359d9062002af6565b3862001737565b916020826001946040620034e295015115158062003600575b15620035e0575062001739858060a01b038b511683830151903090339062003abd565b6200173990868060a01b038c5116878060a01b0384511690339062003abd565b508a5160a087901b8790038e8116911614620035bd565b5087516001600160a01b038b81169116146200351a565b5087516001600160a01b038b811691161462003467565b5050949790969192936020015103620008f6576001905b019491909592956200336b565b620036749062002af6565b386200341e565b9590919260018060a09996991b03908181511615620036a0575b50506001906200365c565b9796919460c0889792979901985b895180518210156200372057620036c7828b92620031da565b51896020820151918215158062003713575b620036ec575b50505050600101620036ae565b8392839283925116617530f16200370262002eb5565b5015620007c15788388981620036df565b50604081015115620036d9565b5097985091965094509260013862003695565b5083516001600160a01b0316151562003398565b50604084015142111562003391565b945094509091506200376c604082018262002eff565b6200377d6060849693960162002eea565b916200378c6080850162002eea565b906200379b60a0860162002eea565b93620037b860e0620037b060c0890162002eea565b970162003309565b93620037c8604084018462002eff565b939099606082019a620037db8c62002eea565b6200381d620037ed6080860162002eea565b92620019d56200380060a0880162002eea565b95620019d560e06200381560c08b0162002eea565b990162003309565b8c546001600160a01b03169990620038359062002f88565b908a3b1562003a0857918d9b9a9998969492918c989694926040519e8f9d8e9c8d9b632e91b77d60e01b8d5260048d0161018090526101848d016200387a9162002c69565b6001600160a01b039b8c1660248e0152908b1660448d0152908a1660648c015290891660848b015290151560a48a015290871660c489015290861660e48801529085166101048701529084166101248601529216610144840152151561016483015203925af1801562001be457620039f6575b506000805160206200579f833981519152549091906001600160a01b0316331480620039d9575b6200398a575b3382526005602052604082208054906002820180921162003976575581806200396c575b62003947575050565b818062003955819362002eea565b34905af16200396362002eb5565b5015620007c157565b503415156200393e565b634e487b7160e01b84526011600452602484fd5b620039958162002eea565b6200399f62003a0c565b6001600160a01b038116908115620001ca57620039d3916001600160601b0360a01b6002541617600255620001c162003a0c565b6200391a565b506001600160a01b03620039ed8262002eea565b16151562003914565b62003a019062002af6565b38620038ed565b8d80fd5b6000805160206200579f833981519152546001600160a01b0316330362003a2f57565b60405163118cdaa760e01b8152336004820152602490fd5b6001600160a01b0390811690811562003aa4576000805160206200579f83398151915280546001600160a01b031981168417909155167f8be0079c531659141344cd1fd0a4f28419497f9722a3daafe3b4186f6b6457e0600080a3565b604051631e4fbdf760e01b815260006004820152602490fd5b6040516323b872dd60e01b602082019081526001600160a01b039384166024830152938316604482015260648082019590955293845292909160a08201906001600160401b0382118383101762000a9e57602092600092604052519082865af11562003b60576000513d62003b5657508082163b155b62003b3c575050565b604051635274afe760e01b81529116600482015260249150fd5b6001141562003b33565b6040513d6000823e3d90fd5b60ff7ff0c57e16840df040f15088dc2f81fe391c3923bec73e23a9662efc9c229c6a005460401c161562003b9c57565b604051631afcd79f60e31b8152600490fd5b815191906041830362003be25762003bdb92506020820151906060604084015193015160001a9062003c77565b9192909190565b505060009160029190565b600481101562003c61578062003c01575050565b6001810362003c1c5760405163f645eedf60e01b8152600490fd5b6002810362003c3e5760405163fce698f760e01b815260048101839052602490fd5b60031462003c495750565b602490604051906335e2f38360e21b82526004820152fd5b634e487b7160e01b600052602160045260246000fd5b91907f7fffffffffffffffffffffffffffffff5d576e7357a4501ddfe92f46681b20a0841162003cfe57926020929160ff608095604051948552168484015260408301526060820152600092839182805260015afa1562003cf25780516001600160a01b0381161562003ce957918190565b50809160019190565b604051903d90823e3d90fd5b50505060009160039190565b9062003d33575080511562003d2157805190602001fd5b60405163d6bda27560e01b8152600490fd5b8151158062003d68575b62003d46575090565b604051639996b31560e01b81526001600160a01b039091166004820152602490fd5b50803b1562003d3d56fe610160604081815234620004775762001a2c80380380916200002282866200047c565b8439820191608081840312620004775780516001600160401b03929083811162000477578462000054918401620004c5565b916020948582015190858211620004775762000072918301620004c5565b946200008e60606200008685850162000520565b930162000520565b90835190848201828110888211176200037657855260019485835281830195603160f81b87528751898111620003765760038054918383811c931680156200046c575b868410146200045657601f928381116200040b575b50808684821160011462000398576000916200038c575b5060001982841b1c191690841b1781555b8b51918b8311620003765760049c8d548581811c911680156200036b575b8882101462000356578e8382116200030b575b50508d87928511600114620002a0575093839491849260009562000294575b50501b92600019911b1c19161789555b620001798762000535565b956101209687526200018b84620006da565b97610140988952838151910120938460e0525190209861010099808b524660a0528251938401947f8b73c3c69bb8fe3d512ecc4cf759cc79239f7b179b0ffacaa9a75d522b39400f86528385015260608401524660808401523060a084015260a0835260c0830198838a10908a11176200027f57508790525190206080523060c052600880546001600160a01b039384166001600160a01b031991821617909155600980549290931691161790556111fa938462000832853960805184610c88015260a05184610d54015260c05184610c52015260e05184610cd701525183610cfd0152518261051a015251816105440152f35b604190634e487b7160e01b6000525260246000fd5b0151935038806200015e565b929190601f1985169360005284886000209460005b8a89838310620002f35750505010620002d8575b50505050811b0189556200016e565b01519060f884600019921b161c1916905538808080620002c9565b868601518955909701969485019488935001620002b5565b600052876000208380870160051c8201928a88106200034c575b0160051c019086905b8281106200033f5750508e6200013f565b600081550186906200032e565b9250819262000325565b60228f634e487b7160e01b6000525260246000fd5b90607f16906200012c565b634e487b7160e01b600052604160045260246000fd5b90508b015138620000fd565b8592508c90601f1983168560005289600020928a6000915b838310620003e9575050508311620003d0575b5050811b0181556200010e565b8d015160001983861b60f8161c191690553880620003c3565b948482949597989293960151815501940192019087949392918f8b90620003b0565b82600052866000208480840160051c8201928985106200044c575b0160051c019085905b8281106200043f575050620000e6565b600081550185906200042f565b9250819262000426565b634e487b7160e01b600052602260045260246000fd5b92607f1692620000d1565b600080fd5b601f909101601f19168101906001600160401b038211908210176200037657604052565b60005b838110620004b45750506000910152565b8181015183820152602001620004a3565b81601f82011215620004775780516001600160401b038111620003765760405192620004fc601f8301601f1916602001856200047c565b8184526020828401011162000477576200051d9160208085019101620004a0565b90565b51906001600160a01b03821682036200047757565b80516020919082811015620005b5575090601f8251116200057357808251920151908083106200056457501790565b82600019910360031b1b161790565b604490620005a79260405193849263305a27a960e01b845280600485015282519283918260248701528686019101620004a0565b601f01601f19168101030190fd5b6001600160401b03811162000376576005928354926001938481811c91168015620006cf575b838210146200045657601f811162000698575b5081601f84116001146200062e575092829391839260009462000622575b50501b916000199060031b1c191617905560ff90565b0151925038806200060c565b919083601f1981168760005284600020946000905b888383106200067d575050501062000663575b505050811b01905560ff90565b015160001960f88460031b161c1916905538808062000656565b85870151885590960195948501948793509081019062000643565b8560005284601f846000209201871c820191601f8601881c015b828110620006c2575050620005ee565b60008155018590620006b2565b90607f1690620005db565b805160209081811015620007075750601f8251116200057357808251920151908083106200056457501790565b906001600160401b0382116200037657600654926001938481811c9116801562000826575b838210146200045657601f8111620007ec575b5081601f841160011462000780575092829391839260009462000774575b50501b916000199060031b1c19161760065560ff90565b0151925038806200075d565b919083601f198116600660005284600020946000905b88838310620007d15750505010620007b7575b505050811b0160065560ff90565b015160001960f88460031b161c19169055388080620007a9565b85870151885590960195948501948793509081019062000796565b600660005284601f84600020920160051c820191601f860160051c015b828110620008195750506200073f565b6000815501859062000809565b90607f16906200072c56fe608060408181526004918236101561001657600080fd5b600092833560e01c91826306fdde03146108d757508163095ea7b3146108ad57816318160ddd1461088e57816323b872dd14610789578163313ce5671461076d5781633644e5151461074957816340c10f191461069157816370a082311461065a5781637ecebe001461062257816384b0196e1461050257816395d89b411461040e5781639dc29fac14610329578163a9059cbb146102e4578163b5057a7b146102bb578163d505accf1461015357508063dd62ed3e1461010b5763e78cea92146100e057600080fd5b3461010757816003193601126101075760085490516001600160a01b039091168152602090f35b5080fd5b5034610107578060031936011261010757806020926101286109ef565b610130610a0a565b6001600160a01b0391821683526001865283832091168252845220549051908152f35b839150346101075760e03660031901126101075761016f6109ef565b610177610a0a565b906044359260643560843560ff811681036102b7578142116102a05760018060a01b0390818516928389526007602052898920908154916001830190558a519060208201927f6e71edae12b1b97f4d1f60370fef10105fa2faae0126114a169c64845d6126c98452868d840152858a1660608401528a608084015260a083015260c082015260c0815260e0810181811067ffffffffffffffff82111761028d578b5251902061025b916102529161022c610c4f565b908c519161190160f01b83526002830152602282015260c43591604260a43592206110af565b9092919261113f565b16818103610272578661026f878787610d7a565b80f35b87516325c0072360e11b815292830152602482015260449150fd5b634e487b7160e01b8b526041875260248bfd5b875163313c898160e11b8152808401839052602490fd5b8680fd5b50503461010757816003193601126101075760095490516001600160a01b039091168152602090f35b5050346101075780600319360112610107576102fe6109ef565b916103098333610acf565b15610326575061031f6020926024359033610e0d565b5160018152f35b80fd5b839150346101075782600319360112610107576103446109ef565b6008549091602435916001600160a01b03908116330361040a5783169283156103f3578385528460205285852054918383106103bf5750508184957fddf252ad1be2c89b69c2b068fc378daa952ba7f163c4a11628f55a4df523b3ef936020938688528785520381872055816002540360025551908152a380f35b865163391434e360e21b81526001600160a01b03909216908201908152602081018390526040810184905281906060010390fd5b8551634b637e8f60e11b8152808301869052602490fd5b8480fd5b919050346104fe57826003193601126104fe57805183819490845461043281610a20565b91828552602096600192886001821691826000146104d4575050600114610479575b858861047589610466848a0385610a8c565b519282849384528301906109af565b0390f35b815286935091907f8a35acfbc15ff81a39ae7d344fd709f28e8600b4aa8c65c6b64bfe7fe36bd19b5b8284106104bc575050508201018161046661047538610454565b8054848a0186015288955087949093019281016104a2565b60ff19168882015294151560051b8701909401945085935061046692506104759150389050610454565b8280fd5b919050346104fe57826003193601126104fe5761053e7f0000000000000000000000000000000000000000000000000000000000000000610eeb565b926105687f0000000000000000000000000000000000000000000000000000000000000000610fef565b90825192602092602085019585871067ffffffffffffffff88111761060f57509260206105c58388966105b8998b9996528686528151998a99600f60f81b8b5260e0868c015260e08b01906109af565b91898303908a01526109af565b924660608801523060808801528460a088015286840360c088015251928381520193925b8281106105f857505050500390f35b8351855286955093810193928101926001016105e9565b634e487b7160e01b845260419052602483fd5b5050346101075760203660031901126101075760209181906001600160a01b0361064a6109ef565b1681526007845220549051908152f35b5050346101075760203660031901126101075760209181906001600160a01b036106826109ef565b16815280845220549051908152f35b919050346104fe57806003193601126104fe576106ac6109ef565b60085460243592916001600160a01b0391821633036107455716928315610730576002549083820180921161071d575084927fddf252ad1be2c89b69c2b068fc378daa952ba7f163c4a11628f55a4df523b3ef9260209260025585855284835280852082815401905551908152a380f35b634e487b7160e01b865260119052602485fd5b84602492519163ec442f0560e01b8352820152fd5b8580fd5b505034610107578160031936011261010757602090610766610c4f565b9051908152f35b5050346101075781600319360112610107576020905160128152f35b90508234610326576060366003190112610326576107a56109ef565b6107ad610a0a565b91604435936107bc8484610acf565b15610107576001600160a01b038316808352600160209081528784203385529052868320549160001983106107fa575b60208861031f898989610e0d565b86831061086257811561084b5733156108345750825260016020908152868320338452815291869020908590039055829061031f876107ec565b8751634a1406b160e11b8152908101849052602490fd5b875163e602df0560e01b8152908101849052602490fd5b8751637dc7a0d960e11b8152339181019182526020820193909352604081018790528291506060010390fd5b5050346101075781600319360112610107576020906002549051908152f35b50503461010757806003193601126101075760209061031f6108cd6109ef565b6024359033610d7a565b84843461010757816003193601126101075782826003546108f781610a20565b908184526020956001918760018216918260001461098857505060011461092c575b5050506104759291610466910385610a8c565b9190869350600383527fc2575a0e9e593c00f959f8c92f12db2869c3395a3b0502d05e2516446f71f85b5b8284106109705750505082010181610466610475610919565b8054848a018601528895508794909301928101610957565b60ff19168782015293151560051b8601909301935084925061046691506104759050610919565b919082519283825260005b8481106109db575050826000602080949584010152601f8019910116010190565b6020818301810151848301820152016109ba565b600435906001600160a01b0382168203610a0557565b600080fd5b602435906001600160a01b0382168203610a0557565b90600182811c92168015610a50575b6020831014610a3a57565b634e487b7160e01b600052602260045260246000fd5b91607f1691610a2f565b6040810190811067ffffffffffffffff821117610a7657604052565b634e487b7160e01b600052604160045260246000fd5b90601f8019910116810190811067ffffffffffffffff821117610a7657604052565b51906001600160a01b0382168203610a0557565b51908115158203610a0557565b600954604080516324b9c44160e21b81526001600160a01b0393841660048201819052939290916101209182908490602490829088165afa918215610c44576000938493610b4b575b505050610b285750505050600090565b602001518116918214928315610b3f575b50505090565b16149050388080610b39565b818193959294503d8511610c3d575b610b648183610a8c565b810103928312610326576101008093126103265783519383850185811067ffffffffffffffff821117610c29578152610b9c83610aae565b8552610baa60208401610aae565b6020860152610bba818401610aae565b90850152610bca60608301610aae565b6060850152610bdb60808301610aae565b6080850152610bec60a08301610ac2565b60a0850152610bfd60c08301610ac2565b60c085015260e0820151906003821015610326575060e0840152610c219101610ac2565b388080610b18565b634e487b7160e01b83526041600452602483fd5b503d610b5a565b50513d6000823e3d90fd5b307f00000000000000000000000000000000000000000000000000000000000000006001600160a01b03161480610d51575b15610caa577f000000000000000000000000000000000000000000000000000000000000000090565b60405160208101907f8b73c3c69bb8fe3d512ecc4cf759cc79239f7b179b0ffacaa9a75d522b39400f82527f000000000000000000000000000000000000000000000000000000000000000060408201527f000000000000000000000000000000000000000000000000000000000000000060608201524660808201523060a082015260a0815260c0810181811067ffffffffffffffff821117610a765760405251902090565b507f00000000000000000000000000000000000000000000000000000000000000004614610c81565b6001600160a01b03908116918215610df45716918215610ddb5760207f8c5be1e5ebec7d5bd14f71427d1e84f3dd0314c0f7b2291e5b200ac8c7c3b925918360005260018252604060002085600052825280604060002055604051908152a3565b604051634a1406b160e11b815260006004820152602490fd5b60405163e602df0560e01b815260006004820152602490fd5b916001600160a01b03808416928315610ed25716928315610eb95760009083825281602052604082205490838210610e87575091604082827fddf252ad1be2c89b69c2b068fc378daa952ba7f163c4a11628f55a4df523b3ef958760209652828652038282205586815220818154019055604051908152a3565b60405163391434e360e21b81526001600160a01b03919091166004820152602481019190915260448101839052606490fd5b60405163ec442f0560e01b815260006004820152602490fd5b604051634b637e8f60e11b815260006004820152602490fd5b60ff8114610f295760ff811690601f8211610f175760405191610f0d83610a5a565b8252602082015290565b604051632cd44ac360e21b8152600490fd5b50604051600554816000610f3c83610a20565b80835292602090600190818116908115610fcb5750600114610f6a575b5050610f6792500382610a8c565b90565b91509260056000527f036b6384b5eca791c62761152d0c79bb0604c104a5fb6f4eb0703f3154bb3db0936000925b828410610fb35750610f679450505081016020013880610f59565b85548785018301529485019486945092810192610f98565b91505060209250610f6794915060ff191682840152151560051b8201013880610f59565b60ff81146110115760ff811690601f8211610f175760405191610f0d83610a5a565b5060405160065481600061102483610a20565b80835292602090600190818116908115610fcb575060011461104e575050610f6792500382610a8c565b91509260066000527ff652222313e28459528d920b65115c16c04f3efc82aaedc97be59f3f377c0d3f936000925b8284106110975750610f679450505081016020013880610f59565b8554878501830152948501948694509281019261107c565b91907f7fffffffffffffffffffffffffffffff5d576e7357a4501ddfe92f46681b20a0841161113357926020929160ff608095604051948552168484015260408301526060820152600092839182805260015afa156111275780516001600160a01b0381161561111e57918190565b50809160019190565b604051903d90823e3d90fd5b50505060009160039190565b60048110156111ae5780611151575050565b6001810361116b5760405163f645eedf60e01b8152600490fd5b6002810361118c5760405163fce698f760e01b815260048101839052602490fd5b6003146111965750565b602490604051906335e2f38360e21b82526004820152fd5b634e487b7160e01b600052602160045260246000fdfea264697066735822122059d74b869f50de5f6e6b1835b1e542232b94ad8309fc78b1c2d98093f5be3bf864736f6c634300081800339016d09d72d40fdae2fd8ceac6b6234c7706214fd39c1cd1e609a0528c1993009b779b17422d0df92223018b32b4d1fa46e071723d6817e2486d003becc55f00a26469706673582212206a6ef1b86e22b1650599e7f12aa3b6c298436123aca05340940590c5c3af479364736f6c63430008180033",
  "linkReferences": {},
  "deployedLinkReferences": {}
}