{
  "_format": "hh-sol-artifact-1",
  "contractName": "BridgeUpgrade",
  "sourceName": "contracts/BridgeUpgrade.sol",
  "abi": [
    {
      "inputs": [
        {
          "internalType": "address",
          "name": "target",
          "type": "address"
        }
      ],
      "name": "AddressEmptyCode",
      "type": "error"
    },
    {
      "inputs": [],
      "name": "AmountTooLow",
      "type": "error"
    },
    {
      "inputs": [],
      "name": "BurnAmountZero",
      "type": "error"
    },
    {
      "inputs": [],
      "name": "ECDSAInvalidSignature",
      "type": "error"
    },
    {
      "inputs": [
        {
          "internalType": "uint256",
          "name": "length",
          "type": "uint256"
        }
      ],
      "name": "ECDSAInvalidSignatureLength",
      "type": "error"
    },
    {
      "inputs": [
        {
          "internalType": "bytes32",
          "name": "s",
          "type": "bytes32"
        }
      ],
      "name": "ECDSAInvalidSignatureS",
      "type": "error"
    },
    {
      "inputs": [
        {
          "internalType": "address",
          "name": "implementation",
          "type": "address"
        }
      ],
      "name": "ERC1967InvalidImplementation",
      "type": "error"
    },
    {
      "inputs": [],
      "name": "ERC1967NonPayable",
      "type": "error"
    },
    {
      "inputs": [],
      "name": "EthTransferFailed",
      "type": "error"
    },
    {
      "inputs": [],
      "name": "FailedCall",
      "type": "error"
    },
    {
      "inputs": [],
      "name": "FeeTransferFailed",
      "type": "error"
    },
    {
      "inputs": [],
      "name": "InsufficientAllowance",
      "type": "error"
    },
    {
      "inputs": [],
      "name": "InsufficientBalance",
      "type": "error"
    },
    {
      "inputs": [
        {
          "internalType": "address",
          "name": "token",
          "type": "address"
        }
      ],
      "name": "InsufficientPermits",
      "type": "error"
    },
    {
      "inputs": [],
      "name": "InvalidFeeCollector",
      "type": "error"
    },
    {
      "inputs": [],
      "name": "InvalidFeeRate",
      "type": "error"
    },
    {
      "inputs": [],
      "name": "InvalidInitialization",
      "type": "error"
    },
    {
      "inputs": [],
      "name": "InvalidOwnershipTransfer",
      "type": "error"
    },
    {
      "inputs": [],
      "name": "InvalidPermits",
      "type": "error"
    },
    {
      "inputs": [],
      "name": "InvalidPrerotatedKeyHash",
      "type": "error"
    },
    {
      "inputs": [],
      "name": "InvalidPublicKey",
      "type": "error"
    },
    {
      "inputs": [],
      "name": "InvalidRecipientAmount",
      "type": "error"
    },
    {
      "inputs": [],
      "name": "InvalidRecipientForNonMatchingSigner",
      "type": "error"
    },
    {
      "inputs": [],
      "name": "InvalidSignature",
      "type": "error"
    },
    {
      "inputs": [],
      "name": "MissingPermit",
      "type": "error"
    },
    {
      "inputs": [],
      "name": "NoTokenPairs",
      "type": "error"
    },
    {
      "inputs": [],
      "name": "NotInitializing",
      "type": "error"
    },
    {
      "inputs": [
        {
          "internalType": "address",
          "name": "contractAddress",
          "type": "address"
        }
      ],
      "name": "NotOwnerOfTarget",
      "type": "error"
    },
    {
      "inputs": [
        {
          "internalType": "address",
          "name": "owner",
          "type": "address"
        }
      ],
      "name": "OwnableInvalidOwner",
      "type": "error"
    },
    {
      "inputs": [
        {
          "internalType": "address",
          "name": "account",
          "type": "address"
        }
      ],
      "name": "OwnableUnauthorizedAccount",
      "type": "error"
    },
    {
      "inputs": [],
      "name": "PermitDeadlineExpired",
      "type": "error"
    },
    {
      "inputs": [],
      "name": "ReentrancyGuardReentrantCall",
      "type": "error"
    },
    {
      "inputs": [
        {
          "internalType": "address",
          "name": "token",
          "type": "address"
        }
      ],
      "name": "SafeERC20FailedOperation",
      "type": "error"
    },
    {
      "inputs": [],
      "name": "TokenPairExists",
      "type": "error"
    },
    {
      "inputs": [],
      "name": "TokenPairNotSupported",
      "type": "error"
    },
    {
      "inputs": [],
      "name": "TransferFailed",
      "type": "error"
    },
    {
      "inputs": [],
      "name": "UUPSUnauthorizedCallContext",
      "type": "error"
    },
    {
      "inputs": [
        {
          "internalType": "bytes32",
          "name": "slot",
          "type": "bytes32"
        }
      ],
      "name": "UUPSUnsupportedProxiableUUID",
      "type": "error"
    },
    {
      "inputs": [
        {
          "internalType": "address",
          "name": "contractAddress",
          "type": "address"
        },
        {
          "internalType": "string",
          "name": "reason",
          "type": "string"
        }
      ],
      "name": "UpgradeFailed",
      "type": "error"
    },
    {
      "inputs": [],
      "name": "ZeroAddress",
      "type": "error"
    },
    {
      "anonymous": false,
      "inputs": [
        {
          "indexed": false,
          "internalType": "uint64",
          "name": "version",
          "type": "uint64"
        }
      ],
      "name": "Initialized",
      "type": "event"
    },
    {
      "anonymous": false,
      "inputs": [
        {
          "indexed": true,
          "internalType": "address",
          "name": "previousOwner",
          "type": "address"
        },
        {
          "indexed": true,
          "internalType": "address",
          "name": "newOwner",
          "type": "address"
        }
      ],
      "name": "OwnershipTransferred",
      "type": "event"
    },
    {
      "anonymous": false,
      "inputs": [
        {
          "indexed": true,
          "internalType": "address",
          "name": "implementation",
          "type": "address"
        }
      ],
      "name": "Upgraded",
      "type": "event"
    },
    {
      "inputs": [],
      "name": "UPGRADE_INTERFACE_VERSION",
      "outputs": [
        {
          "internalType": "string",
          "name": "",
          "type": "string"
        }
      ],
      "stateMutability": "view",
      "type": "function"
    },
    {
      "inputs": [
        {
          "internalType": "address",
          "name": "to",
          "type": "address"
        }
      ],
      "name": "emergencyWithdrawBNB",
      "outputs": [],
      "stateMutability": "nonpayable",
      "type": "function"
    },
    {
      "inputs": [],
      "name": "feeCollector",
      "outputs": [
        {
          "internalType": "address",
          "name": "",
          "type": "address"
        }
      ],
      "stateMutability": "view",
      "type": "function"
    },
    {
      "inputs": [],
      "name": "feeSigner",
      "outputs": [
        {
          "internalType": "address",
          "name": "",
          "type": "address"
        }
      ],
      "stateMutability": "view",
      "type": "function"
    },
    {
      "inputs": [
        {
          "internalType": "bytes",
          "name": "publicKey",
          "type": "bytes"
        }
      ],
      "name": "getAddressFromPublicKey",
      "outputs": [
        {
          "internalType": "address",
          "name": "",
          "type": "address"
        }
      ],
      "stateMutability": "pure",
      "type": "function"
    },
    {
      "inputs": [],
      "name": "getOwner",
      "outputs": [
        {
          "internalType": "address",
          "name": "",
          "type": "address"
        }
      ],
      "stateMutability": "view",
      "type": "function"
    },
    {
      "inputs": [],
      "name": "getSupportedTokens",
      "outputs": [
        {
          "internalType": "address[]",
          "name": "",
          "type": "address[]"
        }
      ],
      "stateMutability": "view",
      "type": "function"
    },
    {
      "inputs": [],
      "name": "getTestString",
      "outputs": [
        {
          "internalType": "string",
          "name": "",
          "type": "string"
        }
      ],
      "stateMutability": "pure",
      "type": "function"
    },
    {
      "inputs": [
        {
          "internalType": "address",
          "name": "_keyLogRegistry",
          "type": "address"
        },
        {
          "internalType": "address",
          "name": "_wrappedTokenBeacon",
          "type": "address"
        }
      ],
      "name": "initialize",
      "outputs": [],
      "stateMutability": "nonpayable",
      "type": "function"
    },
    {
      "inputs": [],
      "name": "keyLogRegistry",
      "outputs": [
        {
          "internalType": "contract KeyLogRegistry",
          "name": "",
          "type": "address"
        }
      ],
      "stateMutability": "view",
      "type": "function"
    },
    {
      "inputs": [
        {
          "internalType": "address",
          "name": "",
          "type": "address"
        }
      ],
      "name": "nonces",
      "outputs": [
        {
          "internalType": "uint256",
          "name": "",
          "type": "uint256"
        }
      ],
      "stateMutability": "view",
      "type": "function"
    },
    {
      "inputs": [
        {
          "internalType": "address",
          "name": "originalToken",
          "type": "address"
        }
      ],
      "name": "originalToWrapped",
      "outputs": [
        {
          "internalType": "address",
          "name": "",
          "type": "address"
        }
      ],
      "stateMutability": "view",
      "type": "function"
    },
    {
      "inputs": [],
      "name": "owner",
      "outputs": [
        {
          "internalType": "address",
          "name": "",
          "type": "address"
        }
      ],
      "stateMutability": "view",
      "type": "function"
    },
    {
      "inputs": [],
      "name": "proxiableUUID",
      "outputs": [
        {
          "internalType": "bytes32",
          "name": "",
          "type": "bytes32"
        }
      ],
      "stateMutability": "view",
      "type": "function"
    },
    {
      "inputs": [
        {
          "internalType": "address",
          "name": "token",
          "type": "address"
        },
        {
          "components": [
            {
              "internalType": "address",
              "name": "token",
              "type": "address"
            },
            {
              "internalType": "uint256",
              "name": "fee",
              "type": "uint256"
            },
            {
              "internalType": "uint256",
              "name": "expires",
              "type": "uint256"
            },
            {
              "internalType": "bytes",
              "name": "signature",
              "type": "bytes"
            }
          ],
          "internalType": "struct BridgeUpgrade.FeeInfo",
          "name": "fee",
          "type": "tuple"
        },
        {
          "components": [
            {
              "internalType": "address",
              "name": "originalToken",
              "type": "address"
            },
            {
              "internalType": "string",
              "name": "tokenName",
              "type": "string"
            },
            {
              "internalType": "string",
              "name": "tokenSymbol",
              "type": "string"
            },
            {
              "internalType": "address",
              "name": "wrappedToken",
              "type": "address"
            }
          ],
          "internalType": "struct BridgeUpgrade.TokenPair[]",
          "name": "newTokenPairs",
          "type": "tuple[]"
        },
        {
          "components": [
            {
              "internalType": "address",
              "name": "token",
              "type": "address"
            },
            {
              "internalType": "uint256",
              "name": "amount",
              "type": "uint256"
            },
            {
              "internalType": "uint256",
              "name": "deadline",
              "type": "uint256"
            },
            {
              "internalType": "uint8",
              "name": "v",
              "type": "uint8"
            },
            {
              "internalType": "bytes32",
              "name": "r",
              "type": "bytes32"
            },
            {
              "internalType": "bytes32",
              "name": "s",
              "type": "bytes32"
            },
            {
              "components": [
                {
                  "internalType": "address",
                  "name": "recipientAddress",
                  "type": "address"
                },
                {
                  "internalType": "uint256",
                  "name": "amount",
                  "type": "uint256"
                },
                {
                  "internalType": "bool",
                  "name": "wrap",
                  "type": "bool"
                },
                {
                  "internalType": "bool",
                  "name": "unwrap",
                  "type": "bool"
                },
                {
                  "internalType": "bool",
                  "name": "mint",
                  "type": "bool"
                },
                {
                  "internalType": "bool",
                  "name": "burn",
                  "type": "bool"
                }
              ],
              "internalType": "struct BridgeUpgrade.Recipient[]",
              "name": "recipients",
              "type": "tuple[]"
            }
          ],
          "internalType": "struct BridgeUpgrade.PermitData[]",
          "name": "permits",
          "type": "tuple[]"
        },
        {
          "components": [
            {
              "internalType": "uint256",
              "name": "amount",
              "type": "uint256"
            },
            {
              "internalType": "bytes",
              "name": "publicKey",
              "type": "bytes"
            },
            {
              "internalType": "address",
              "name": "prerotatedKeyHash",
              "type": "address"
            },
            {
              "internalType": "address",
              "name": "twicePrerotatedKeyHash",
              "type": "address"
            },
            {
              "internalType": "address",
              "name": "prevPublicKeyHash",
              "type": "address"
            },
            {
              "internalType": "address",
              "name": "outputAddress",
              "type": "address"
            }
          ],
          "internalType": "struct BridgeUpgrade.Params",
          "name": "unconfirmed",
          "type": "tuple"
        },
        {
          "internalType": "bytes",
          "name": "unconfirmedSignature",
          "type": "bytes"
        },
        {
          "components": [
            {
              "internalType": "uint256",
              "name": "amount",
              "type": "uint256"
            },
            {
              "internalType": "bytes",
              "name": "publicKey",
              "type": "bytes"
            },
            {
              "internalType": "address",
              "name": "prerotatedKeyHash",
              "type": "address"
            },
            {
              "internalType": "address",
              "name": "twicePrerotatedKeyHash",
              "type": "address"
            },
            {
              "internalType": "address",
              "name": "prevPublicKeyHash",
              "type": "address"
            },
            {
              "internalType": "address",
              "name": "outputAddress",
              "type": "address"
            }
          ],
          "internalType": "struct BridgeUpgrade.Params",
          "name": "confirming",
          "type": "tuple"
        },
        {
          "internalType": "bytes",
          "name": "confirmingSignature",
          "type": "bytes"
        }
      ],
      "name": "registerKeyPairWithTransfer",
      "outputs": [],
      "stateMutability": "payable",
      "type": "function"
    },
    {
      "inputs": [],
      "name": "relayer",
      "outputs": [
        {
          "internalType": "address",
          "name": "",
          "type": "address"
        }
      ],
      "stateMutability": "view",
      "type": "function"
    },
    {
      "inputs": [],
      "name": "renounceOwnership",
      "outputs": [],
      "stateMutability": "nonpayable",
      "type": "function"
    },
    {
      "inputs": [
        {
          "internalType": "address",
          "name": "_feeCollector",
          "type": "address"
        }
      ],
      "name": "setFeeCollector",
      "outputs": [],
      "stateMutability": "nonpayable",
      "type": "function"
    },
    {
      "inputs": [
        {
          "internalType": "address",
          "name": "_signer",
          "type": "address"
        }
      ],
      "name": "setFeeSigner",
      "outputs": [],
      "stateMutability": "nonpayable",
      "type": "function"
    },
    {
      "inputs": [
        {
          "internalType": "address",
          "name": "_wrappedTokenBeacon",
          "type": "address"
        }
      ],
      "name": "setWrappedTokenBeacon",
      "outputs": [],
      "stateMutability": "nonpayable",
      "type": "function"
    },
    {
      "inputs": [
        {
          "internalType": "uint256",
          "name": "",
          "type": "uint256"
        }
      ],
      "name": "supportedOriginalTokens",
      "outputs": [
        {
          "internalType": "address",
          "name": "",
          "type": "address"
        }
      ],
      "stateMutability": "view",
      "type": "function"
    },
    {
      "inputs": [
        {
          "internalType": "address",
          "name": "",
          "type": "address"
        }
      ],
      "name": "tokenPairs",
      "outputs": [
        {
          "internalType": "address",
          "name": "originalToken",
          "type": "address"
        },
        {
          "internalType": "address",
          "name": "wrappedToken",
          "type": "address"
        }
      ],
      "stateMutability": "view",
      "type": "function"
    },
    {
      "inputs": [
        {
          "internalType": "address",
          "name": "newOwner",
          "type": "address"
        }
      ],
      "name": "transferOwnership",
      "outputs": [],
      "stateMutability": "nonpayable",
      "type": "function"
    },
    {
      "inputs": [
        {
          "internalType": "address",
          "name": "newImplementation",
          "type": "address"
        },
        {
          "internalType": "bytes",
          "name": "data",
          "type": "bytes"
        }
      ],
      "name": "upgradeToAndCall",
      "outputs": [],
      "stateMutability": "payable",
      "type": "function"
    },
    {
      "inputs": [],
      "name": "wrappedTokenBeacon",
      "outputs": [
        {
          "internalType": "address",
          "name": "",
          "type": "address"
        }
      ],
      "stateMutability": "view",
      "type": "function"
    }
  ],
  "bytecode": "0x60a0806040523461002a5730608052613a449081610030823960805181818161243601526124e50152f35b600080fdfe60a08060405260043610156200001457600080fd5b60003560e01c9081630756933914620029f257508063081da8c11462002994578063276c1ac014620029475780632f91be4814620028f65780634290769614620028cb57806347bbbdf5146200286f578063485cc95514620026b25780634f1ef28614620024a157806352d1902d1462002421578063602db89014620023d5578063715018a614620023665780637e1aa17814620023175780637ecebe0014620022d95780638406c07914620022ae578063893d20e814620022755780638da5cb5b14620022755780638f2dd2de1462002226578063a42dce8014620021c5578063ad3cb1cc1462002175578063b5057a7b146200214a578063bc04f56114620003cb578063c415b95c14620003a0578063d3c7c2c714620002d0578063d8397fd514620002895763f2fde38b146200014c57600080fd5b346200025d5760203660031901126200025d576200016962002a18565b6200017362002ed5565b6001600160a01b03818116919082156200027757600054600080516020620039cf8339815191525460405163031fb6df60e31b81529083166001600160a01b039081166004830152841660248201529160209183916044918391165afa9081156200026b5760009162000224575b5015620002125762000210916001600160601b0360a01b60025416176002556200020a62002ed5565b6200319e565b005b60405163b012a29560e01b8152600490fd5b90506020813d60201162000262575b81620002426020938362002aac565b810103126200025d57620002569062002ec7565b38620001e1565b600080fd5b3d915062000233565b6040513d6000823e3d90fd5b60405163d92e233d60e01b8152600490fd5b346200025d5760203660031901126200025d576004356007548110156200025d57620002b760209162002bec565b905460405160039290921b1c6001600160a01b03168152f35b346200025d5760003660031901126200025d57604051806007548083526020809301809160076000527fa66cc928b5edb82af9bd49922954155ab7b0942694bea4ce44661d9a8736c6889060005b8682821062000382578686620003378288038362002aac565b604051928392818401908285525180915260408401929160005b8281106200036157505050500390f35b83516001600160a01b03168552869550938101939281019260010162000351565b83546001600160a01b0316855290930192600192830192016200031e565b346200025d5760003660031901126200025d576002546040516001600160a01b039091168152602090f35b6101003660031901126200025d57620003e362002a18565b6001600160401b03602435116200025d576080602435360360031901126200025d576044356001600160401b0381116200025d576200042790369060040162002b89565b91906064356001600160401b0381116200025d576200044b90369060040162002b89565b9390916001600160401b03608435116200025d5760c0608435360360031901126200025d576001600160401b0360a435116200025d57620004923660a43560040162002bbc565b6001600160401b0360c435116200025d5760c060c435360360031901126200025d576001600160401b0360e435116200025d57620004d63660e43560040162002bbc565b9190926002600080516020620039ef833981519152541462002138576002600080516020620039ef8339815191525533600052600660205260406000205491886040516200054781620005388760208301958d8d608435600401928962002ce2565b03601f19810183528262002aac565b5190206001600160a01b036200056260843560a40162002e5a565b1615620002775760406200058160246084350160843560040162002e6f565b9050036200212657620005c7620005ce93620005be620005b8620005b060246084350160843560040162002e6f565b369162002aea565b62002c3a565b93369162002aea565b9062002f10565b15620016d2576001600160a01b03620005ec60c43560a40162002e5a565b166200207e575b50505060005b82811062001d5f57506001600160a01b0391506200061e905060c43560a40162002e5a565b1615928062000afe575b50505062000906576000546001600160a01b031662000651608435602481019060040162002e6f565b91906200066360446084350162002e5a565b926200067460646084350162002e5a565b9362000684608480350162002e5a565b6200069460a46084350162002e5a565b620006aa602460c4350160c43560040162002e6f565b90620006bb604460c4350162002e5a565b94620006cc606460c4350162002e5a565b92620006dd608460c4350162002e5a565b94620006ee60a460c4350162002e5a565b968b3b156200025d576040516385687dcd60e01b815261014060048201529c8d9b8c9b62000723916101448e01919062002cc1565b6001600160a01b0395861660248d015290851660448c015290841660648b0152921660848901528782036003190160a4890152620007619262002cc1565b6001600160a01b0394851660c487015290841660e4860152908316610104850152911661012483015203815a6000948591f180156200026b57620008f4575b50600080516020620039cf833981519152546001600160a01b03163381146200080f575b505b336000526006602052604060002080549060028201809211620007f957556001600080516020620039ef83398151915255005b634e487b7160e01b600052601160045260246000fd5b6200081f604460c4350162002e5a565b6200082962002ed5565b6001600160a01b038116918215620002775760005460405163031fb6df60e31b81526001600160a01b03928316600482015283831660248201529160209183916044918391165afa9081156200026b57600091620008b2575b50156200021257620008ab916001600160601b0360a01b60025416176002556200020a62002ed5565b80620007c4565b90506020813d602011620008eb575b81620008d06020938362002aac565b810103126200025d57620008e49062002ec7565b8362000882565b3d9150620008c1565b620008ff9062002a7c565b80620007a0565b6000546001600160a01b031662000927608435602481019060040162002e6f565b6200093a60446084949394350162002e5a565b916200094b60646084350162002e5a565b936200095b608480350162002e5a565b6200096b60a46084350162002e5a565b93833b156200025d57600095620009a4958793604051998a98899788966330a6293b60e11b885260a0600489015260a488019162002cc1565b6001600160a01b039485166024870152908416604486015290831660648501529116608483015203925af180156200026b5762000aec575b50600080516020620039cf833981519152546001600160a01b031633811462000a07575b50620007c6565b62000a1760446084350162002e5a565b62000a2162002ed5565b6001600160a01b038116918215620002775760005460405163031fb6df60e31b81526001600160a01b03928316600482015283831660248201529160209183916044918391165afa9081156200026b5760009162000aaa575b5015620002125762000aa3916001600160601b0360a01b60025416176002556200020a62002ed5565b8062000a00565b90506020813d60201162000ae3575b8162000ac86020938362002aac565b810103126200025d5762000adc9062002ec7565b8362000a7a565b3d915062000ab9565b62000af79062002a7c565b80620009dc565b60005462000b5190610100906001600160a01b031662000b28608435602481019060040162002e6f565b604051631697653560e11b81526020600482015294859392849283929160248401919062002cc1565b03915afa80156200026b57859160009162001c7f575b508162001c76575b5062001c645760006080528362001c4b5762000b90604460c4350162002e5a565b6080525b62000bae620005b060246084350160843560040162002e6f565b90600090600062000bc160009462002c3a565b9260005b83811062001b77575b501562001b65578062001b41575b6200021257909192936000935b82851062000bfa5750505062000628565b62000c1662000c108685899a9697989962002f68565b62002f9a565b80519097600195909160009081906001600160a01b0387811691161462001a7b575b8a516001600160a01b03161515918262001a71575b508162001a67575b5062001776575b8515620015ce575b88516001600160a01b03161594600092835b60c08c0151805186101562001528578562000c919162003119565b5180519091906001600160a01b031615620002775760208201518d81156200151b57602001511062001509578c6060830151151580620014f2575b1562000fd957516040516370a0823160e01b815233600482015290602090829060249082906001600160a01b03165afa9081156200026b5760009162000fa1575b5060208301518091106200025d578d5162000d369190309033906001600160a01b031662003256565b8c516020830151906001600160a01b0316803b156200025d57604051632770a7eb60e21b815230600482015260248101929092526000908290604490829084905af180156200026b5762000f8f575b5060018060a01b038d511660005260056020526040600020916040519262000dad8462002a44565b80546001600160a01b039081168552600190910154811660208501528e518f91168062000f1257509062000e74929160019462000e0b62000def601262003149565b62000e056020860151602480350135906200315b565b6200316f565b62000e1b81602086015162003190565b878060a01b03835116801560001462000ecd575062000e3f919250608051620032b3565b8062000eb1575b505b62000e5d602082015160208401519062003190565b908162000e7e575b50506020905b01519062002ea4565b945b019362000c76565b906020929362000ea28262000ea8946080519033908b8060a01b0390511662003256565b62002ea4565b91908f62000e65565b62000ec690868060a01b0360025416620032b3565b3862000e46565b60805162000edc9291620032d1565b8062000eeb575b505062000e48565b62000f0a91878060a01b03905116878060a01b036002541690620032d1565b388062000ee3565b60405163313ce56760e01b815293929150602090849060049082905afa80156200026b578f909462000e0b62000def60019762000e749760009162000f59575b5062003149565b62000f80915060203d60201162000f87575b62000f77818362002aac565b8101906200312e565b3862000f52565b503d62000f6b565b62000f9a9062002a7c565b8d62000d85565b90506020813d60201162000fd0575b8162000fbf6020938362002aac565b810103126200025d57518e62000d0d565b3d915062000fb0565b5060a0820151151580620014db575b1562001075578c51825160208401516001600160a01b03928316939290911690833b156200025d57604051632770a7eb60e21b81526001600160a01b0390921660048301526024820152916000908390818381604481015b03925af180156200026b5760019362000e749360209262001063575b5062000e6b565b6200106e9062002a7c565b386200105c565b6080820151151580620014c4575b1562001147578c516001600160a01b0316806200110b5750620010ba620010af62000def601262003149565b602084015162003190565b8d5183516001600160a01b039182169392911690833b156200025d576040516340c10f1960e01b81526001600160a01b03909216600483015260248201529160009083908183816044810162001040565b60206004916040519283809263313ce56760e01b82525afa80156200026b5762000def620010af91620010ba9360009162000f59575062003149565b8c8a6040840151151580620014ad575b156200144457505060018060a01b038d5116600052600560205260406000209060405191620011868362002a44565b80546001600160a01b039081168452600190910154166020830152896200142b5781516040516370a0823160e01b815233600482015290602090829060249082906001600160a01b03165afa9081156200026b57600091620013f3575b506020840151116200025d575b8d516001600160a01b031680620013b75750620012546200122c62001216601262003149565b62000e056020870151602480350135906200315b565b928b1562001366578362001347575b602060018060a01b039101511692602085015162003190565b91803b156200025d576040516340c10f1960e01b81526080516001600160a01b0316600482015260248101939093526000908390604490829084905af19283156200026b578e62000e749360019562001335575b5060208201516020820151808210620012c8575b50505060209062000e6b565b90620012d49162003190565b908b82620012e6575b819250620012bc565b938291620013119360209596898060a01b0316156000146200131b5762000ea29150608051620032b3565b91908f8b620012dd565b62000ea2916080519033908b8060a01b0390511662003256565b620013409062002a7c565b38620012a8565b600254620013609085906001600160a01b0316620032b3565b6200123b565b6200138f60018060a01b038251166200138486602089015162003190565b903090339062003256565b83156200123b578051600254620013609186916001600160a01b039081169133911662003256565b60206004916040519283809263313ce56760e01b82525afa80156200026b57620012166200122c91620012549360009162000f59575062003149565b90506020813d60201162001422575b81620014116020938362002aac565b810103126200025d57518f620011e3565b3d915062001402565b966200143d9060208401519062002ea4565b96620011f0565b60019362000e7493926020926200145c575062000e6b565b8c156200148357506200147c858060a01b038251168383015190620032b3565b8f6200105c565b620014a790868060a01b03905116868060a01b038351168484015191339062003256565b6200147c565b5081516001600160a01b038b811691161462001157565b508c516001600160a01b0389811691161462001083565b508c516001600160a01b0389811691161462000fe8565b5080516001600160a01b038a811691161462000ccc565b60405163143d1ae760e21b8152600490fd5b5050946001915062000e76565b50935097955098909397929562001564575b60200151036200155257600101939490919262000be9565b6040516312171d8360e31b8152600490fd5b6200157482602083015162003190565b8062001582575b506200153a565b9091602091620015a9916001600160a01b038b16620015b15762000ea282608051620032b3565b91906200157b565b608051855162000ea291849133906001600160a01b031662003256565b42604460243501351062001764576001600160a01b03620015f460046024350162002e5a565b16620016f65762001606601262003149565b60248035013511620016e4576200162260243560040162002e5a565b604051602081019160018060a01b031682526024803501356040820152606060446024350135818301528152620016598162002a90565b5190207f19457468657265756d205369676e6564204d6573736167653a0a333200000000600052601c52620016bb620016b1603c600020620016aa620005b060646024350160243560040162002e6f565b9062003316565b9092919262003355565b6003546001600160a01b0391821691161462000c64575b604051638baa579f60e01b8152600490fd5b604051630adad23360e31b8152600490fd5b600460206001600160a01b0362001711602435840162002e5a565b166040519283809263313ce56760e01b82525afa80156200026b57620016069160009162001740575062003149565b6200175d915060203d60201162000f875762000f77818362002aac565b8b62000f52565b6040516305787bdf60e01b8152600490fd5b6040890151421162001764578851604051633644e51560e01b815290602090829060049082906001600160a01b03165afa9081156200026b5760009162001a2f575b5060208a8101518b51604051623f675f60e91b8152336004820152919290829060249082906001600160a01b03165afa9283156200026b578c91600094620019ef575b5081620016b1916040620018d494015160405160208101917f6e71edae12b1b97f4d1f60370fef10105fa2faae0126114a169c64845d6126c983523360408301526060973089840152608083015260a0988983015260c082015260c08152620018648162002a60565b51902060405190602082019261190160f01b84526022830152604290818301528152620018918162002a90565b519020608082015191858782015191015190604051936020850152604084015260ff60f81b9060f81b168583015260418252620018ce8262002a90565b62003316565b6001600160a01b038a81169116036200197e575b60018060a01b038b5116908b602081015160ff6040830151938301511694608083015192015191843b156200025d5760009460e4938692604051988997889663d505accf60e01b885233600489015230602489015260448801526064870152608486015260a485015260c48401525af180156200026b576200196c575b5062000c5c565b620019779062002a7c565b8962001965565b989694939560009a98919a5b60c08a01518051821015620019de576001600160a01b0390620019af90839062003119565b51511660018060a01b036080511603620019cc576001016200198a565b604051634d96a8a760e01b8152600490fd5b5050959394969899909799620018e8565b915092506020813d60201162001a26575b8162001a0f6020938362002aac565b810103126200025d5751918b90620018d4620017fb565b3d915062001a00565b90506020813d60201162001a5e575b8162001a4d6020938362002aac565b810103126200025d57518a620017b8565b3d915062001a3e565b9050158a62000c55565b1591508b62000c4d565b9997929190989694939560005b60c08a0151805182101562001b2f578162001aa39162003119565b5160408101511580159062001b21575b801562001b13575b801562001b05575b62001afb575b608081015162001af1575b60a0015162001ae7575b60010162001a88565b60019b5062001ade565b60019b5062001ad4565b6000975062001ac9565b5060a0810151151562001ac3565b506060810151151562001abb565b506080810151151562001ab3565b50509593949698909192979962000c38565b50600080516020620039cf833981519152546001600160a01b031633141562000bdc565b604051633bee968760e01b8152600490fd5b62001b8862000c1082868a62002f68565b80516001600160a01b0316801562001c41575b6001600160a01b038a161462001bb6575b5060010162000bc5565b979593919096949260c060009901985b8951805182101562001c2f578162001bde9162003119565b516080810151159081159162001c20575b5062001bfe5760010162001bc6565b5050909294965060019591939591825b62001c1a578962001bac565b62000bce565b60a09150015115158c62001bef565b50508093959791929496985062001c0e565b6001935062001b9b565b62001c5b60446084350162002e5a565b60805262000b94565b60405163772e719d60e11b8152600490fd5b90508562000b6f565b915050806101003d6101001162001d57575b62001c9d818362002aac565b81010361010081126200025d5760e0136200025d5760405162001cc08162002a60565b62001ccb8262002eb2565b815262001cdb6020830162002eb2565b602082015262001cee6040830162002eb2565b604082015262001d016060830162002eb2565b606082015262001d146080830162002eb2565b608082015262001d2760a0830162002ec7565b60a082015260c08201519060038210156200025d5760c00152849062001d509060e00162002ec7565b8662000b67565b503d62001c91565b8060051b820135607e19833603018112156200025d5760808184013603126200025d57604051908160808101106001600160401b0360808401111762001f72576080820160405262001db381850162002a2f565b82526001600160401b0360208286010135116200025d5762001dde3685830160208101350162002b26565b60208301526001600160401b0360408286010135116200025d5762001e0c3685830160408101350162002b26565b604083015262001e226060809286010162002a2f565b8282015281516001600160a01b03908116600090815260056020526040902060010154166200206c578101516001600160a01b0316801562001f88575b8151604051906001600160a01b031662001e798262002a44565b81526001600160a01b0391821660208083018281528551851660009081526005909252604091829020935184549086166001600160a01b0319918216178555905160019485018054918716918316919091179055855191519294909392911662001ee38262002a44565b815260208101938085526000526005602052604060002090828060a01b0390511683825416178155019160018060a01b039051169082541617905560018060a01b0390511690600754916801000000000000000083101562001f725762001f5283600180950160075562002bec565b819291549060031b91821b91858060a01b03901b191617905501620005f9565b634e487b7160e01b600052604160045260246000fd5b5062001fd062001ffe6020830151604084015162001fe360018060a01b0360005416916040519586946303bf912560e11b60208701526080602487015260a486019062002b47565b8481036023190160448601529062002b47565b90306064840152608483015203601f19810183528262002aac565b60045460405191906001600160a01b03166001600160401b0361049484019081119084111762001f7257829162002051916104946200353b85396104948401908152604060208201819052019062002b47565b03906000f080156200026b576001600160a01b031662001e5f565b604051636bb9e87d60e01b8152600490fd5b600181018111620007f957604051620020ae816200053860016020830195018b8a8a60c435600401928962002ce2565b5190206040620020c9602460c4350160c43560040162002e6f565b90500362002126576001600160a01b03620020e960c43560a40162002e5a565b16156200027757620005c76200211793620005be620005b8620005b0602460c4350160c43560040162002e6f565b15620016d257858080620005f3565b60405163145a1fdd60e31b8152600490fd5b604051633ee5aeb560e01b8152600490fd5b346200025d5760003660031901126200025d576000546040516001600160a01b039091168152602090f35b346200025d5760003660031901126200025d57620021c16040516200219a8162002a44565b60058152640352e302e360dc1b602082015260405191829160208352602083019062002b47565b0390f35b346200025d5760203660031901126200025d57620021e262002a18565b620021ec62002ed5565b6001600160a01b0316801562002214576001600160601b0360a01b6002541617600255600080f35b60405163bb0bac9960e01b8152600490fd5b346200025d5760203660031901126200025d576200224362002a18565b6200224d62002ed5565b6001600160a01b0316801562000277576001600160601b0360a01b6004541617600455600080f35b346200025d5760003660031901126200025d57600080516020620039cf833981519152546040516001600160a01b039091168152602090f35b346200025d5760003660031901126200025d576001546040516001600160a01b039091168152602090f35b346200025d5760203660031901126200025d576001600160a01b03620022fe62002a18565b1660005260066020526020604060002054604051908152f35b346200025d5760203660031901126200025d576200233462002a18565b6200233e62002ed5565b6001600160a01b0316801562000277576001600160601b0360a01b6003541617600355600080f35b346200025d5760003660031901126200025d576200238362002ed5565b600080516020620039cf83398151915280546001600160a01b031981169091556000906001600160a01b03167f8be0079c531659141344cd1fd0a4f28419497f9722a3daafe3b4186f6b6457e08280a3005b346200025d5760203660031901126200025d57620023f262002a18565b620023fc62002ed5565b479081156200025d57600080809381935af16200241862002c58565b50156200025d57005b346200025d5760003660031901126200025d577f00000000000000000000000000000000000000000000000000000000000000006001600160a01b031630036200248f5760206040517f360894a13ba1a3210667c828492db98dca3e2076cc3735a920a3ca505d382bbc8152f35b60405163703e46dd60e11b8152600490fd5b60403660031901126200025d57620024b862002a18565b6024356001600160401b0381116200025d57620024da90369060040162002b26565b906001600160a01b037f0000000000000000000000000000000000000000000000000000000000000000811630811490811562002683575b506200248f576200252262002ed5565b8116906040516352d1902d60e01b8152602081600481865afa6000918162002649575b506200256457604051634c9c8ce360e01b815260048101849052602490fd5b7f360894a13ba1a3210667c828492db98dca3e2076cc3735a920a3ca505d382bbc92919290818103620026315750823b15620026185780546001600160a01b03191682179055604051907fbc7cd75a20ee27fd9adebab32041f755214dbc6bffa90cc0225b39da2e5c2d3b600080a2825115620025fe57506000808360206200021095519101845af4620025f762002c58565b916200343f565b915050346200260957005b63b398979f60e01b8152600490fd5b604051634c9c8ce360e01b815260048101839052602490fd5b60249060405190632a87526960e21b82526004820152fd5b9091506020813d6020116200267a575b81620026686020938362002aac565b810103126200025d5751908562002545565b3d915062002659565b9050817f360894a13ba1a3210667c828492db98dca3e2076cc3735a920a3ca505d382bbc541614158462002512565b346200025d5760403660031901126200025d57620026cf62002a18565b6001600160a01b0390602435828116908190036200025d577ff0c57e16840df040f15088dc2f81fe391c3923bec73e23a9662efc9c229c6a009283549260ff8460401c1615936001600160401b0381168015908162002866575b60011490816200285b575b15908162002851575b506200283f5767ffffffffffffffff1981166001178655846200281f575b506200276662003214565b6200277062003214565b6200277b336200319e565b6200278562003214565b6200278f62003214565b6200279962003214565b6001600080516020620039ef8339815191525516801562000277576001600160601b0360a01b90816000541617600055338160025416176002556004541617600455620027e257005b68ff00000000000000001981541690557fc7f505b2f371ae2175ee4913f4499e1f2633a7b5936321eed1cdaeb6115181d2602060405160018152a1005b68ffffffffffffffffff191668010000000000000001178555856200275b565b60405163f92ee8a960e01b8152600490fd5b905015876200273d565b303b15915062002734565b86915062002729565b346200025d5760203660031901126200025d576001600160a01b03806200289562002a18565b16600090815260056020908152604091829020805460019091015483516001600160a01b03928616831681529416169083015290f35b346200025d5760003660031901126200025d576004546040516001600160a01b039091168152602090f35b346200025d5760003660031901126200025d57620021c16040516200291b8162002a44565b600a8152696272696467652076313160b01b602082015260405191829160208352602083019062002b47565b346200025d5760203660031901126200025d576004356001600160401b0381116200025d5762002982620005b8602092369060040162002b26565b6040516001600160a01b039091168152f35b346200025d5760203660031901126200025d576020806001600160a01b0380620029bd62002a18565b1660005260058252604060002090600160405192620029dc8462002a44565b8281541684520154169182910152604051908152f35b346200025d5760003660031901126200025d576003546001600160a01b03168152602090f35b600435906001600160a01b03821682036200025d57565b35906001600160a01b03821682036200025d57565b604081019081106001600160401b0382111762001f7257604052565b60e081019081106001600160401b0382111762001f7257604052565b6001600160401b03811162001f7257604052565b608081019081106001600160401b0382111762001f7257604052565b90601f801991011681019081106001600160401b0382111762001f7257604052565b6001600160401b03811162001f7257601f01601f191660200190565b92919262002af88262002ace565b9162002b08604051938462002aac565b8294818452818301116200025d578281602093846000960137010152565b9080601f830112156200025d5781602062002b449335910162002aea565b90565b919082519283825260005b84811062002b74575050826000602080949584010152601f8019910116010190565b60208183018101518483018201520162002b52565b9181601f840112156200025d578235916001600160401b0383116200025d576020808501948460051b0101116200025d57565b9181601f840112156200025d578235916001600160401b0383116200025d57602083818601950101116200025d57565b60075481101562002c245760076000527fa66cc928b5edb82af9bd49922954155ab7b0942694bea4ce44661d9a8736c6880190600090565b634e487b7160e01b600052603260045260246000fd5b6040815103620021265780516020909101206001600160a01b031690565b3d1562002c88573d9062002c6c8262002ace565b9162002c7c604051938462002aac565b82523d6000602084013e565b606090565b9035601e19823603018112156200025d5701602081359101916001600160401b0382116200025d5781360383136200025d57565b908060209392818452848401376000828201840152601f01601f1916010190565b94929095936080928387019060018060a01b0380991688528360209286848b01525260a0880160a08560051b8a010194826000906000915b83831062002db5575050505050509662002dac60a0809362002d698a9b8b604060609b9c9d8a039101528235885260c062002d588285018562002c8d565b9190928a015260c089019162002cc1565b968462002d796040840162002a2f565b1660408801528462002d8d8a840162002a2f565b16898801528462002da082840162002a2f565b16908701520162002a2f565b16910152930152565b909192939497609f198d82030186528835607e198436030181121562002e5657878f6001938d62002e3362002e1589869701928562002df48562002a2f565b16855262002e058785018562002c8d565b9091808988015286019162002cc1565b604062002e258185018562002c8d565b918684039087015262002cc1565b9262002e43606080930162002a2f565b169101529a019601949301919062002d1a565b8280fd5b356001600160a01b03811681036200025d5790565b903590601e19813603018212156200025d57018035906001600160401b0382116200025d576020019181360383136200025d57565b91908201809211620007f957565b51906001600160a01b03821682036200025d57565b519081151582036200025d57565b600080516020620039cf833981519152546001600160a01b0316330362002ef857565b60405163118cdaa760e01b8152336004820152602490fd5b62002f57929162002f4d917f19457468657265756d205369676e6564204d6573736167653a0a333200000000600052601c52603c60002062003316565b9093919362003355565b6001600160a01b0391821691161490565b919081101562002c245760051b8101359060de19813603018212156200025d570190565b359081151582036200025d57565b60e0813603126200025d57604080519162002fb58362002a60565b62002fc08162002a2f565b8352602080820135818501528282013583850152606090606083013560ff811681036200025d5760608601526080916080840135608087015260a09360a081013560a088015260c094858201356001600160401b03928382116200025d57019436601f870112156200025d5785359383851162001f72578851986200304b878760051b018b62002aac565b858a528689818c019702890101973689116200025d578701955b8887106200307c5750505050505050505082015290565b89873603126200025d578151908a8201908282108883111762003104578b928a928552620030aa8a62002a2f565b8152828a013583820152620030c1858b0162002f8c565b85820152620030d2868b0162002f8c565b86820152620030e3878b0162002f8c565b87820152620030f4888b0162002f8c565b8882015281520196019562003065565b60246000634e487b7160e01b81526041600452fd5b805182101562002c245760209160051b010190565b908160209103126200025d575160ff811681036200025d5790565b60ff16604d8111620007f957600a0a90565b81810292918115918404141715620007f957565b81156200317a570490565b634e487b7160e01b600052601260045260246000fd5b91908203918211620007f957565b6001600160a01b03908116908115620031fb57600080516020620039cf83398151915280546001600160a01b031981168417909155167f8be0079c531659141344cd1fd0a4f28419497f9722a3daafe3b4186f6b6457e0600080a3565b604051631e4fbdf760e01b815260006004820152602490fd5b60ff7ff0c57e16840df040f15088dc2f81fe391c3923bec73e23a9662efc9c229c6a005460401c16156200324457565b604051631afcd79f60e31b8152600490fd5b6040516323b872dd60e01b60208201526001600160a01b03928316602482015292909116604483015260648083019390935291815260a08101918183106001600160401b0384111762001f7257620032b192604052620033df565b565b60008080938193617530f1620032c862002c58565b50156200155257565b60405163a9059cbb60e01b60208201526001600160a01b03929092166024830152604480830193909352918152620032b1916200331060648362002aac565b620033df565b81519190604183036200334a576200334392506020820151906060604084015193015160001a90620034a7565b9192909190565b505060009160029190565b6004811015620033c9578062003369575050565b60018103620033845760405163f645eedf60e01b8152600490fd5b60028103620033a65760405163fce698f760e01b815260048101839052602490fd5b600314620033b15750565b602490604051906335e2f38360e21b82526004820152fd5b634e487b7160e01b600052602160045260246000fd5b906000602091828151910182855af1156200026b576000513d6200343557506001600160a01b0381163b155b620034135750565b604051635274afe760e01b81526001600160a01b039091166004820152602490fd5b600114156200340b565b906200346857508051156200345657805190602001fd5b60405163d6bda27560e01b8152600490fd5b815115806200349d575b6200347b575090565b604051639996b31560e01b81526001600160a01b039091166004820152602490fd5b50803b1562003472565b91907f7fffffffffffffffffffffffffffffff5d576e7357a4501ddfe92f46681b20a084116200352e57926020929160ff608095604051948552168484015260408301526060820152600092839182805260015afa15620035225780516001600160a01b038116156200351957918190565b50809160019190565b604051903d90823e3d90fd5b5050506000916003919056fe60a0604090808252346101eb57610494803803809161001e828561029a565b8339810182828203126101eb57610034826102d3565b60208084015191939091906001600160401b0382116101eb570182601f820112156101eb57805190610065826102e7565b936100728751958661029a565b8285528383830101116101eb57829060005b83811061028657505060009184010152823b15610266577fa3f0ad74e5423aebfd80d3ef4346578335a9a72aeaee59ff6cb3582b35133d5080546001600160a01b0319166001600160a01b038581169182179092558551635c60da1b60e01b8082529194928482600481895afa91821561025b57600092610224575b50813b1561020b575050837f1cf3b03a6cf19fa2baba4df148e9dcabedea7f8a5c07840e207e5c089be95d3e600080a2815115610202578290600487518096819382525afa9283156101f7576000936101b5575b5091600080848461019296519101845af4903d156101ac573d610176816102e7565b906101838851928361029a565b8152600081943d92013e610302565b505b6080525161012e908161036682396080518160180152f35b60609250610302565b92508183813d83116101f0575b6101cc818361029a565b810103126101eb576000806101e3610192956102d3565b945050610154565b600080fd5b503d6101c2565b85513d6000823e3d90fd5b50505050610194565b8751634c9c8ce360e01b81529116600482015260249150fd5b9091508481813d8311610254575b61023c818361029a565b810103126101eb5761024d906102d3565b9038610100565b503d610232565b88513d6000823e3d90fd5b8351631933b43b60e21b81526001600160a01b0384166004820152602490fd5b818101830151868201840152849201610084565b601f909101601f19168101906001600160401b038211908210176102bd57604052565b634e487b7160e01b600052604160045260246000fd5b51906001600160a01b03821682036101eb57565b6001600160401b0381116102bd57601f01601f191660200190565b90610329575080511561031757805190602001fd5b60405163d6bda27560e01b8152600490fd5b8151158061035c575b61033a575090565b604051639996b31560e01b81526001600160a01b039091166004820152602490fd5b50803b1561033256fe60806040819052635c60da1b60e01b81526020816004817f00000000000000000000000000000000000000000000000000000000000000006001600160a01b03165afa90811560a9576000916054575b5060da565b905060203d60201160a3575b601f8101601f191682019167ffffffffffffffff831181841017608d576088926040520160b5565b38604f565b634e487b7160e01b600052604160045260246000fd5b503d6060565b6040513d6000823e3d90fd5b602090607f19011260d5576080516001600160a01b038116810360d55790565b600080fd5b6000808092368280378136915af43d82803e1560f4573d90f35b3d90fdfea2646970667358221220b642a315c875b99fe477933660ffe34497f9b4c9976cb8843c721c1c7db2123d64736f6c634300081800339016d09d72d40fdae2fd8ceac6b6234c7706214fd39c1cd1e609a0528c1993009b779b17422d0df92223018b32b4d1fa46e071723d6817e2486d003becc55f00a2646970667358221220f3330686981f780d0b1ef352eb0f0389ad01f783363d5feee9cac8052c0e4ddc64736f6c63430008180033",
  "linkReferences": {},
  "deployedLinkReferences": {}
}