{
  "_format": "hh-sol-artifact-1",
  "contractName": "Bridge",
  "sourceName": "contracts/Bridge.sol",
  "abi": [
    {
      "inputs": [
        {
          "internalType": "address",
          "name": "target",
          "type": "address"
        }
      ],
      "name": "AddressEmptyCode",
      "type": "error"
    },
    {
      "inputs": [],
      "name": "AmountTooLow",
      "type": "error"
    },
    {
      "inputs": [],
      "name": "BurnAmountZero",
      "type": "error"
    },
    {
      "inputs": [],
      "name": "ECDSAInvalidSignature",
      "type": "error"
    },
    {
      "inputs": [
        {
          "internalType": "uint256",
          "name": "length",
          "type": "uint256"
        }
      ],
      "name": "ECDSAInvalidSignatureLength",
      "type": "error"
    },
    {
      "inputs": [
        {
          "internalType": "bytes32",
          "name": "s",
          "type": "bytes32"
        }
      ],
      "name": "ECDSAInvalidSignatureS",
      "type": "error"
    },
    {
      "inputs": [
        {
          "internalType": "address",
          "name": "implementation",
          "type": "address"
        }
      ],
      "name": "ERC1967InvalidImplementation",
      "type": "error"
    },
    {
      "inputs": [],
      "name": "ERC1967NonPayable",
      "type": "error"
    },
    {
      "inputs": [],
      "name": "EthTransferFailed",
      "type": "error"
    },
    {
      "inputs": [],
      "name": "FailedCall",
      "type": "error"
    },
    {
      "inputs": [],
      "name": "FeeTransferFailed",
      "type": "error"
    },
    {
      "inputs": [],
      "name": "InsufficientAllowance",
      "type": "error"
    },
    {
      "inputs": [
        {
          "internalType": "address",
          "name": "token",
          "type": "address"
        }
      ],
      "name": "InsufficientPermits",
      "type": "error"
    },
    {
      "inputs": [],
      "name": "InvalidConfirmingSignature",
      "type": "error"
    },
    {
      "inputs": [],
      "name": "InvalidFeeCollector",
      "type": "error"
    },
    {
      "inputs": [],
      "name": "InvalidFeeRate",
      "type": "error"
    },
    {
      "inputs": [],
      "name": "InvalidInitialization",
      "type": "error"
    },
    {
      "inputs": [],
      "name": "InvalidPrerotatedKeyHash",
      "type": "error"
    },
    {
      "inputs": [],
      "name": "InvalidPublicKey",
      "type": "error"
    },
    {
      "inputs": [],
      "name": "InvalidRecipientAmount",
      "type": "error"
    },
    {
      "inputs": [],
      "name": "InvalidUnconfirmedSignature",
      "type": "error"
    },
    {
      "inputs": [],
      "name": "NoTokenPairs",
      "type": "error"
    },
    {
      "inputs": [],
      "name": "NotInitializing",
      "type": "error"
    },
    {
      "inputs": [
        {
          "internalType": "address",
          "name": "owner",
          "type": "address"
        }
      ],
      "name": "OwnableInvalidOwner",
      "type": "error"
    },
    {
      "inputs": [
        {
          "internalType": "address",
          "name": "account",
          "type": "address"
        }
      ],
      "name": "OwnableUnauthorizedAccount",
      "type": "error"
    },
    {
      "inputs": [],
      "name": "PermitDeadlineExpired",
      "type": "error"
    },
    {
      "inputs": [],
      "name": "ReentrancyGuardReentrantCall",
      "type": "error"
    },
    {
      "inputs": [],
      "name": "RestrictedToOwnerRelayer",
      "type": "error"
    },
    {
      "inputs": [
        {
          "internalType": "address",
          "name": "token",
          "type": "address"
        }
      ],
      "name": "SafeERC20FailedOperation",
      "type": "error"
    },
    {
      "inputs": [],
      "name": "TokenPairExists",
      "type": "error"
    },
    {
      "inputs": [],
      "name": "TokenPairNotSupported",
      "type": "error"
    },
    {
      "inputs": [],
      "name": "TransferFailed",
      "type": "error"
    },
    {
      "inputs": [],
      "name": "UUPSUnauthorizedCallContext",
      "type": "error"
    },
    {
      "inputs": [
        {
          "internalType": "bytes32",
          "name": "slot",
          "type": "bytes32"
        }
      ],
      "name": "UUPSUnsupportedProxiableUUID",
      "type": "error"
    },
    {
      "inputs": [],
      "name": "ZeroAddress",
      "type": "error"
    },
    {
      "anonymous": false,
      "inputs": [
        {
          "indexed": false,
          "internalType": "uint64",
          "name": "version",
          "type": "uint64"
        }
      ],
      "name": "Initialized",
      "type": "event"
    },
    {
      "anonymous": false,
      "inputs": [
        {
          "indexed": true,
          "internalType": "address",
          "name": "previousOwner",
          "type": "address"
        },
        {
          "indexed": true,
          "internalType": "address",
          "name": "newOwner",
          "type": "address"
        }
      ],
      "name": "OwnershipTransferred",
      "type": "event"
    },
    {
      "anonymous": false,
      "inputs": [
        {
          "indexed": true,
          "internalType": "address",
          "name": "implementation",
          "type": "address"
        }
      ],
      "name": "Upgraded",
      "type": "event"
    },
    {
      "inputs": [],
      "name": "UPGRADE_INTERFACE_VERSION",
      "outputs": [
        {
          "internalType": "string",
          "name": "",
          "type": "string"
        }
      ],
      "stateMutability": "view",
      "type": "function"
    },
    {
      "inputs": [
        {
          "components": [
            {
              "internalType": "address",
              "name": "originalToken",
              "type": "address"
            },
            {
              "internalType": "string",
              "name": "tokenName",
              "type": "string"
            },
            {
              "internalType": "string",
              "name": "tokenSymbol",
              "type": "string"
            },
            {
              "internalType": "address",
              "name": "wrappedToken",
              "type": "address"
            }
          ],
          "internalType": "struct Bridge.TokenPair[]",
          "name": "newTokenPairs",
          "type": "tuple[]"
        },
        {
          "components": [
            {
              "internalType": "uint256",
              "name": "amount",
              "type": "uint256"
            },
            {
              "internalType": "bytes",
              "name": "signature",
              "type": "bytes"
            },
            {
              "internalType": "bytes",
              "name": "publicKey",
              "type": "bytes"
            },
            {
              "internalType": "address",
              "name": "prerotatedKeyHash",
              "type": "address"
            },
            {
              "internalType": "address",
              "name": "twicePrerotatedKeyHash",
              "type": "address"
            },
            {
              "internalType": "address",
              "name": "prevPublicKeyHash",
              "type": "address"
            },
            {
              "internalType": "address",
              "name": "outputAddress",
              "type": "address"
            },
            {
              "internalType": "bool",
              "name": "hasRelationship",
              "type": "bool"
            },
            {
              "internalType": "address",
              "name": "tokenSource",
              "type": "address"
            },
            {
              "components": [
                {
                  "internalType": "address",
                  "name": "token",
                  "type": "address"
                },
                {
                  "internalType": "uint256",
                  "name": "amount",
                  "type": "uint256"
                },
                {
                  "internalType": "uint256",
                  "name": "deadline",
                  "type": "uint256"
                },
                {
                  "internalType": "uint8",
                  "name": "v",
                  "type": "uint8"
                },
                {
                  "internalType": "bytes32",
                  "name": "r",
                  "type": "bytes32"
                },
                {
                  "internalType": "bytes32",
                  "name": "s",
                  "type": "bytes32"
                },
                {
                  "components": [
                    {
                      "internalType": "address",
                      "name": "recipientAddress",
                      "type": "address"
                    },
                    {
                      "internalType": "uint256",
                      "name": "amount",
                      "type": "uint256"
                    },
                    {
                      "internalType": "bool",
                      "name": "wrap",
                      "type": "bool"
                    },
                    {
                      "internalType": "bool",
                      "name": "unwrap",
                      "type": "bool"
                    },
                    {
                      "internalType": "bool",
                      "name": "mint",
                      "type": "bool"
                    }
                  ],
                  "internalType": "struct Bridge.Recipient[]",
                  "name": "recipients",
                  "type": "tuple[]"
                }
              ],
              "internalType": "struct Bridge.PermitData[]",
              "name": "permits",
              "type": "tuple[]"
            }
          ],
          "internalType": "struct Bridge.Params",
          "name": "unconfirmed",
          "type": "tuple"
        },
        {
          "components": [
            {
              "internalType": "uint256",
              "name": "amount",
              "type": "uint256"
            },
            {
              "internalType": "bytes",
              "name": "signature",
              "type": "bytes"
            },
            {
              "internalType": "bytes",
              "name": "publicKey",
              "type": "bytes"
            },
            {
              "internalType": "address",
              "name": "prerotatedKeyHash",
              "type": "address"
            },
            {
              "internalType": "address",
              "name": "twicePrerotatedKeyHash",
              "type": "address"
            },
            {
              "internalType": "address",
              "name": "prevPublicKeyHash",
              "type": "address"
            },
            {
              "internalType": "address",
              "name": "outputAddress",
              "type": "address"
            },
            {
              "internalType": "bool",
              "name": "hasRelationship",
              "type": "bool"
            },
            {
              "internalType": "address",
              "name": "tokenSource",
              "type": "address"
            },
            {
              "components": [
                {
                  "internalType": "address",
                  "name": "token",
                  "type": "address"
                },
                {
                  "internalType": "uint256",
                  "name": "amount",
                  "type": "uint256"
                },
                {
                  "internalType": "uint256",
                  "name": "deadline",
                  "type": "uint256"
                },
                {
                  "internalType": "uint8",
                  "name": "v",
                  "type": "uint8"
                },
                {
                  "internalType": "bytes32",
                  "name": "r",
                  "type": "bytes32"
                },
                {
                  "internalType": "bytes32",
                  "name": "s",
                  "type": "bytes32"
                },
                {
                  "components": [
                    {
                      "internalType": "address",
                      "name": "recipientAddress",
                      "type": "address"
                    },
                    {
                      "internalType": "uint256",
                      "name": "amount",
                      "type": "uint256"
                    },
                    {
                      "internalType": "bool",
                      "name": "wrap",
                      "type": "bool"
                    },
                    {
                      "internalType": "bool",
                      "name": "unwrap",
                      "type": "bool"
                    },
                    {
                      "internalType": "bool",
                      "name": "mint",
                      "type": "bool"
                    }
                  ],
                  "internalType": "struct Bridge.Recipient[]",
                  "name": "recipients",
                  "type": "tuple[]"
                }
              ],
              "internalType": "struct Bridge.PermitData[]",
              "name": "permits",
              "type": "tuple[]"
            }
          ],
          "internalType": "struct Bridge.Params",
          "name": "confirming",
          "type": "tuple"
        }
      ],
      "name": "addMultipleTokenPairsAtomic",
      "outputs": [],
      "stateMutability": "payable",
      "type": "function"
    },
    {
      "inputs": [
        {
          "internalType": "address",
          "name": "originalToken",
          "type": "address"
        },
        {
          "internalType": "address",
          "name": "wrappedToken",
          "type": "address"
        }
      ],
      "name": "addTokenPair",
      "outputs": [],
      "stateMutability": "nonpayable",
      "type": "function"
    },
    {
      "inputs": [],
      "name": "feeCollector",
      "outputs": [
        {
          "internalType": "address",
          "name": "",
          "type": "address"
        }
      ],
      "stateMutability": "view",
      "type": "function"
    },
    {
      "inputs": [],
      "name": "feeSigner",
      "outputs": [
        {
          "internalType": "address",
          "name": "",
          "type": "address"
        }
      ],
      "stateMutability": "view",
      "type": "function"
    },
    {
      "inputs": [
        {
          "internalType": "bytes",
          "name": "publicKey",
          "type": "bytes"
        }
      ],
      "name": "getAddressFromPublicKey",
      "outputs": [
        {
          "internalType": "address",
          "name": "",
          "type": "address"
        }
      ],
      "stateMutability": "pure",
      "type": "function"
    },
    {
      "inputs": [],
      "name": "getOwner",
      "outputs": [
        {
          "internalType": "address",
          "name": "",
          "type": "address"
        }
      ],
      "stateMutability": "view",
      "type": "function"
    },
    {
      "inputs": [],
      "name": "getSupportedTokens",
      "outputs": [
        {
          "internalType": "address[]",
          "name": "",
          "type": "address[]"
        }
      ],
      "stateMutability": "view",
      "type": "function"
    },
    {
      "inputs": [
        {
          "internalType": "address",
          "name": "_keyLogRegistry",
          "type": "address"
        }
      ],
      "name": "initialize",
      "outputs": [],
      "stateMutability": "nonpayable",
      "type": "function"
    },
    {
      "inputs": [],
      "name": "keyLogRegistry",
      "outputs": [
        {
          "internalType": "contract KeyLogRegistry",
          "name": "",
          "type": "address"
        }
      ],
      "stateMutability": "view",
      "type": "function"
    },
    {
      "inputs": [
        {
          "internalType": "address",
          "name": "",
          "type": "address"
        }
      ],
      "name": "nonces",
      "outputs": [
        {
          "internalType": "uint256",
          "name": "",
          "type": "uint256"
        }
      ],
      "stateMutability": "view",
      "type": "function"
    },
    {
      "inputs": [
        {
          "internalType": "address",
          "name": "originalToken",
          "type": "address"
        }
      ],
      "name": "originalToWrapped",
      "outputs": [
        {
          "internalType": "address",
          "name": "",
          "type": "address"
        }
      ],
      "stateMutability": "view",
      "type": "function"
    },
    {
      "inputs": [],
      "name": "owner",
      "outputs": [
        {
          "internalType": "address",
          "name": "",
          "type": "address"
        }
      ],
      "stateMutability": "view",
      "type": "function"
    },
    {
      "inputs": [],
      "name": "proxiableUUID",
      "outputs": [
        {
          "internalType": "bytes32",
          "name": "",
          "type": "bytes32"
        }
      ],
      "stateMutability": "view",
      "type": "function"
    },
    {
      "inputs": [
        {
          "internalType": "address",
          "name": "token",
          "type": "address"
        },
        {
          "components": [
            {
              "internalType": "uint256",
              "name": "amount",
              "type": "uint256"
            },
            {
              "internalType": "bytes",
              "name": "signature",
              "type": "bytes"
            },
            {
              "internalType": "bytes",
              "name": "publicKey",
              "type": "bytes"
            },
            {
              "internalType": "address",
              "name": "prerotatedKeyHash",
              "type": "address"
            },
            {
              "internalType": "address",
              "name": "twicePrerotatedKeyHash",
              "type": "address"
            },
            {
              "internalType": "address",
              "name": "prevPublicKeyHash",
              "type": "address"
            },
            {
              "internalType": "address",
              "name": "outputAddress",
              "type": "address"
            },
            {
              "internalType": "bool",
              "name": "hasRelationship",
              "type": "bool"
            },
            {
              "internalType": "address",
              "name": "tokenSource",
              "type": "address"
            },
            {
              "components": [
                {
                  "internalType": "address",
                  "name": "token",
                  "type": "address"
                },
                {
                  "internalType": "uint256",
                  "name": "amount",
                  "type": "uint256"
                },
                {
                  "internalType": "uint256",
                  "name": "deadline",
                  "type": "uint256"
                },
                {
                  "internalType": "uint8",
                  "name": "v",
                  "type": "uint8"
                },
                {
                  "internalType": "bytes32",
                  "name": "r",
                  "type": "bytes32"
                },
                {
                  "internalType": "bytes32",
                  "name": "s",
                  "type": "bytes32"
                },
                {
                  "components": [
                    {
                      "internalType": "address",
                      "name": "recipientAddress",
                      "type": "address"
                    },
                    {
                      "internalType": "uint256",
                      "name": "amount",
                      "type": "uint256"
                    },
                    {
                      "internalType": "bool",
                      "name": "wrap",
                      "type": "bool"
                    },
                    {
                      "internalType": "bool",
                      "name": "unwrap",
                      "type": "bool"
                    },
                    {
                      "internalType": "bool",
                      "name": "mint",
                      "type": "bool"
                    }
                  ],
                  "internalType": "struct Bridge.Recipient[]",
                  "name": "recipients",
                  "type": "tuple[]"
                }
              ],
              "internalType": "struct Bridge.PermitData[]",
              "name": "permits",
              "type": "tuple[]"
            }
          ],
          "internalType": "struct Bridge.Params",
          "name": "unconfirmed",
          "type": "tuple"
        },
        {
          "components": [
            {
              "internalType": "uint256",
              "name": "amount",
              "type": "uint256"
            },
            {
              "internalType": "bytes",
              "name": "signature",
              "type": "bytes"
            },
            {
              "internalType": "bytes",
              "name": "publicKey",
              "type": "bytes"
            },
            {
              "internalType": "address",
              "name": "prerotatedKeyHash",
              "type": "address"
            },
            {
              "internalType": "address",
              "name": "twicePrerotatedKeyHash",
              "type": "address"
            },
            {
              "internalType": "address",
              "name": "prevPublicKeyHash",
              "type": "address"
            },
            {
              "internalType": "address",
              "name": "outputAddress",
              "type": "address"
            },
            {
              "internalType": "bool",
              "name": "hasRelationship",
              "type": "bool"
            },
            {
              "internalType": "address",
              "name": "tokenSource",
              "type": "address"
            },
            {
              "components": [
                {
                  "internalType": "address",
                  "name": "token",
                  "type": "address"
                },
                {
                  "internalType": "uint256",
                  "name": "amount",
                  "type": "uint256"
                },
                {
                  "internalType": "uint256",
                  "name": "deadline",
                  "type": "uint256"
                },
                {
                  "internalType": "uint8",
                  "name": "v",
                  "type": "uint8"
                },
                {
                  "internalType": "bytes32",
                  "name": "r",
                  "type": "bytes32"
                },
                {
                  "internalType": "bytes32",
                  "name": "s",
                  "type": "bytes32"
                },
                {
                  "components": [
                    {
                      "internalType": "address",
                      "name": "recipientAddress",
                      "type": "address"
                    },
                    {
                      "internalType": "uint256",
                      "name": "amount",
                      "type": "uint256"
                    },
                    {
                      "internalType": "bool",
                      "name": "wrap",
                      "type": "bool"
                    },
                    {
                      "internalType": "bool",
                      "name": "unwrap",
                      "type": "bool"
                    },
                    {
                      "internalType": "bool",
                      "name": "mint",
                      "type": "bool"
                    }
                  ],
                  "internalType": "struct Bridge.Recipient[]",
                  "name": "recipients",
                  "type": "tuple[]"
                }
              ],
              "internalType": "struct Bridge.PermitData[]",
              "name": "permits",
              "type": "tuple[]"
            }
          ],
          "internalType": "struct Bridge.Params",
          "name": "confirming",
          "type": "tuple"
        }
      ],
      "name": "registerKeyPairWithTransfer",
      "outputs": [],
      "stateMutability": "payable",
      "type": "function"
    },
    {
      "inputs": [
        {
          "internalType": "bytes",
          "name": "publicKey",
          "type": "bytes"
        },
        {
          "internalType": "address",
          "name": "publicKeyHash",
          "type": "address"
        },
        {
          "internalType": "address",
          "name": "prerotatedKeyHash",
          "type": "address"
        },
        {
          "internalType": "address",
          "name": "twicePrerotatedKeyHash",
          "type": "address"
        },
        {
          "internalType": "address",
          "name": "prevPublicKeyHash",
          "type": "address"
        },
        {
          "internalType": "address",
          "name": "outputAddress",
          "type": "address"
        },
        {
          "internalType": "bool",
          "name": "hasRelationship",
          "type": "bool"
        },
        {
          "components": [
            {
              "internalType": "address",
              "name": "token",
              "type": "address"
            },
            {
              "internalType": "uint256",
              "name": "amount",
              "type": "uint256"
            },
            {
              "internalType": "uint256",
              "name": "deadline",
              "type": "uint256"
            },
            {
              "internalType": "uint8",
              "name": "v",
              "type": "uint8"
            },
            {
              "internalType": "bytes32",
              "name": "r",
              "type": "bytes32"
            },
            {
              "internalType": "bytes32",
              "name": "s",
              "type": "bytes32"
            },
            {
              "components": [
                {
                  "internalType": "address",
                  "name": "recipientAddress",
                  "type": "address"
                },
                {
                  "internalType": "uint256",
                  "name": "amount",
                  "type": "uint256"
                },
                {
                  "internalType": "bool",
                  "name": "wrap",
                  "type": "bool"
                },
                {
                  "internalType": "bool",
                  "name": "unwrap",
                  "type": "bool"
                },
                {
                  "internalType": "bool",
                  "name": "mint",
                  "type": "bool"
                }
              ],
              "internalType": "struct Bridge.Recipient[]",
              "name": "recipients",
              "type": "tuple[]"
            }
          ],
          "internalType": "struct Bridge.PermitData[]",
          "name": "permits",
          "type": "tuple[]"
        }
      ],
      "name": "registerKeyWithTransfer",
      "outputs": [],
      "stateMutability": "payable",
      "type": "function"
    },
    {
      "inputs": [],
      "name": "relayer",
      "outputs": [
        {
          "internalType": "address",
          "name": "",
          "type": "address"
        }
      ],
      "stateMutability": "view",
      "type": "function"
    },
    {
      "inputs": [],
      "name": "renounceOwnership",
      "outputs": [],
      "stateMutability": "nonpayable",
      "type": "function"
    },
    {
      "inputs": [
        {
          "internalType": "address",
          "name": "_feeCollector",
          "type": "address"
        }
      ],
      "name": "setFeeCollector",
      "outputs": [],
      "stateMutability": "nonpayable",
      "type": "function"
    },
    {
      "inputs": [
        {
          "internalType": "address",
          "name": "_signer",
          "type": "address"
        }
      ],
      "name": "setFeeSigner",
      "outputs": [],
      "stateMutability": "nonpayable",
      "type": "function"
    },
    {
      "inputs": [
        {
          "internalType": "address",
          "name": "_relayer",
          "type": "address"
        }
      ],
      "name": "setRelayer",
      "outputs": [],
      "stateMutability": "nonpayable",
      "type": "function"
    },
    {
      "inputs": [
        {
          "internalType": "uint256",
          "name": "",
          "type": "uint256"
        }
      ],
      "name": "supportedOriginalTokens",
      "outputs": [
        {
          "internalType": "address",
          "name": "",
          "type": "address"
        }
      ],
      "stateMutability": "view",
      "type": "function"
    },
    {
      "inputs": [
        {
          "internalType": "address",
          "name": "",
          "type": "address"
        }
      ],
      "name": "tokenPairs",
      "outputs": [
        {
          "internalType": "address",
          "name": "originalToken",
          "type": "address"
        },
        {
          "internalType": "address",
          "name": "wrappedToken",
          "type": "address"
        }
      ],
      "stateMutability": "view",
      "type": "function"
    },
    {
      "inputs": [
        {
          "internalType": "address",
          "name": "newOwner",
          "type": "address"
        }
      ],
      "name": "transferOwnership",
      "outputs": [],
      "stateMutability": "nonpayable",
      "type": "function"
    },
    {
      "inputs": [
        {
          "internalType": "address",
          "name": "wrappedToken",
          "type": "address"
        },
        {
          "components": [
            {
              "internalType": "address",
              "name": "token",
              "type": "address"
            },
            {
              "internalType": "uint256",
              "name": "fee",
              "type": "uint256"
            },
            {
              "internalType": "uint256",
              "name": "expires",
              "type": "uint256"
            },
            {
              "internalType": "bytes",
              "name": "signature",
              "type": "bytes"
            }
          ],
          "internalType": "struct Bridge.FeeInfo",
          "name": "feeInfo",
          "type": "tuple"
        },
        {
          "components": [
            {
              "internalType": "uint256",
              "name": "amount",
              "type": "uint256"
            },
            {
              "internalType": "bytes",
              "name": "signature",
              "type": "bytes"
            },
            {
              "internalType": "bytes",
              "name": "publicKey",
              "type": "bytes"
            },
            {
              "internalType": "address",
              "name": "prerotatedKeyHash",
              "type": "address"
            },
            {
              "internalType": "address",
              "name": "twicePrerotatedKeyHash",
              "type": "address"
            },
            {
              "internalType": "address",
              "name": "prevPublicKeyHash",
              "type": "address"
            },
            {
              "internalType": "address",
              "name": "outputAddress",
              "type": "address"
            },
            {
              "internalType": "bool",
              "name": "hasRelationship",
              "type": "bool"
            },
            {
              "internalType": "address",
              "name": "tokenSource",
              "type": "address"
            },
            {
              "components": [
                {
                  "internalType": "address",
                  "name": "token",
                  "type": "address"
                },
                {
                  "internalType": "uint256",
                  "name": "amount",
                  "type": "uint256"
                },
                {
                  "internalType": "uint256",
                  "name": "deadline",
                  "type": "uint256"
                },
                {
                  "internalType": "uint8",
                  "name": "v",
                  "type": "uint8"
                },
                {
                  "internalType": "bytes32",
                  "name": "r",
                  "type": "bytes32"
                },
                {
                  "internalType": "bytes32",
                  "name": "s",
                  "type": "bytes32"
                },
                {
                  "components": [
                    {
                      "internalType": "address",
                      "name": "recipientAddress",
                      "type": "address"
                    },
                    {
                      "internalType": "uint256",
                      "name": "amount",
                      "type": "uint256"
                    },
                    {
                      "internalType": "bool",
                      "name": "wrap",
                      "type": "bool"
                    },
                    {
                      "internalType": "bool",
                      "name": "unwrap",
                      "type": "bool"
                    },
                    {
                      "internalType": "bool",
                      "name": "mint",
                      "type": "bool"
                    }
                  ],
                  "internalType": "struct Bridge.Recipient[]",
                  "name": "recipients",
                  "type": "tuple[]"
                }
              ],
              "internalType": "struct Bridge.PermitData[]",
              "name": "permits",
              "type": "tuple[]"
            }
          ],
          "internalType": "struct Bridge.Params",
          "name": "unconfirmed",
          "type": "tuple"
        },
        {
          "components": [
            {
              "internalType": "uint256",
              "name": "amount",
              "type": "uint256"
            },
            {
              "internalType": "bytes",
              "name": "signature",
              "type": "bytes"
            },
            {
              "internalType": "bytes",
              "name": "publicKey",
              "type": "bytes"
            },
            {
              "internalType": "address",
              "name": "prerotatedKeyHash",
              "type": "address"
            },
            {
              "internalType": "address",
              "name": "twicePrerotatedKeyHash",
              "type": "address"
            },
            {
              "internalType": "address",
              "name": "prevPublicKeyHash",
              "type": "address"
            },
            {
              "internalType": "address",
              "name": "outputAddress",
              "type": "address"
            },
            {
              "internalType": "bool",
              "name": "hasRelationship",
              "type": "bool"
            },
            {
              "internalType": "address",
              "name": "tokenSource",
              "type": "address"
            },
            {
              "components": [
                {
                  "internalType": "address",
                  "name": "token",
                  "type": "address"
                },
                {
                  "internalType": "uint256",
                  "name": "amount",
                  "type": "uint256"
                },
                {
                  "internalType": "uint256",
                  "name": "deadline",
                  "type": "uint256"
                },
                {
                  "internalType": "uint8",
                  "name": "v",
                  "type": "uint8"
                },
                {
                  "internalType": "bytes32",
                  "name": "r",
                  "type": "bytes32"
                },
                {
                  "internalType": "bytes32",
                  "name": "s",
                  "type": "bytes32"
                },
                {
                  "components": [
                    {
                      "internalType": "address",
                      "name": "recipientAddress",
                      "type": "address"
                    },
                    {
                      "internalType": "uint256",
                      "name": "amount",
                      "type": "uint256"
                    },
                    {
                      "internalType": "bool",
                      "name": "wrap",
                      "type": "bool"
                    },
                    {
                      "internalType": "bool",
                      "name": "unwrap",
                      "type": "bool"
                    },
                    {
                      "internalType": "bool",
                      "name": "mint",
                      "type": "bool"
                    }
                  ],
                  "internalType": "struct Bridge.Recipient[]",
                  "name": "recipients",
                  "type": "tuple[]"
                }
              ],
              "internalType": "struct Bridge.PermitData[]",
              "name": "permits",
              "type": "tuple[]"
            }
          ],
          "internalType": "struct Bridge.Params",
          "name": "confirming",
          "type": "tuple"
        }
      ],
      "name": "unwrap",
      "outputs": [],
      "stateMutability": "payable",
      "type": "function"
    },
    {
      "inputs": [
        {
          "internalType": "address",
          "name": "newImplementation",
          "type": "address"
        },
        {
          "internalType": "bytes",
          "name": "data",
          "type": "bytes"
        }
      ],
      "name": "upgradeToAndCall",
      "outputs": [],
      "stateMutability": "payable",
      "type": "function"
    },
    {
      "inputs": [
        {
          "internalType": "address",
          "name": "originalToken",
          "type": "address"
        },
        {
          "components": [
            {
              "internalType": "address",
              "name": "token",
              "type": "address"
            },
            {
              "internalType": "uint256",
              "name": "fee",
              "type": "uint256"
            },
            {
              "internalType": "uint256",
              "name": "expires",
              "type": "uint256"
            },
            {
              "internalType": "bytes",
              "name": "signature",
              "type": "bytes"
            }
          ],
          "internalType": "struct Bridge.FeeInfo",
          "name": "feeInfo",
          "type": "tuple"
        },
        {
          "components": [
            {
              "internalType": "uint256",
              "name": "amount",
              "type": "uint256"
            },
            {
              "internalType": "bytes",
              "name": "signature",
              "type": "bytes"
            },
            {
              "internalType": "bytes",
              "name": "publicKey",
              "type": "bytes"
            },
            {
              "internalType": "address",
              "name": "prerotatedKeyHash",
              "type": "address"
            },
            {
              "internalType": "address",
              "name": "twicePrerotatedKeyHash",
              "type": "address"
            },
            {
              "internalType": "address",
              "name": "prevPublicKeyHash",
              "type": "address"
            },
            {
              "internalType": "address",
              "name": "outputAddress",
              "type": "address"
            },
            {
              "internalType": "bool",
              "name": "hasRelationship",
              "type": "bool"
            },
            {
              "internalType": "address",
              "name": "tokenSource",
              "type": "address"
            },
            {
              "components": [
                {
                  "internalType": "address",
                  "name": "token",
                  "type": "address"
                },
                {
                  "internalType": "uint256",
                  "name": "amount",
                  "type": "uint256"
                },
                {
                  "internalType": "uint256",
                  "name": "deadline",
                  "type": "uint256"
                },
                {
                  "internalType": "uint8",
                  "name": "v",
                  "type": "uint8"
                },
                {
                  "internalType": "bytes32",
                  "name": "r",
                  "type": "bytes32"
                },
                {
                  "internalType": "bytes32",
                  "name": "s",
                  "type": "bytes32"
                },
                {
                  "components": [
                    {
                      "internalType": "address",
                      "name": "recipientAddress",
                      "type": "address"
                    },
                    {
                      "internalType": "uint256",
                      "name": "amount",
                      "type": "uint256"
                    },
                    {
                      "internalType": "bool",
                      "name": "wrap",
                      "type": "bool"
                    },
                    {
                      "internalType": "bool",
                      "name": "unwrap",
                      "type": "bool"
                    },
                    {
                      "internalType": "bool",
                      "name": "mint",
                      "type": "bool"
                    }
                  ],
                  "internalType": "struct Bridge.Recipient[]",
                  "name": "recipients",
                  "type": "tuple[]"
                }
              ],
              "internalType": "struct Bridge.PermitData[]",
              "name": "permits",
              "type": "tuple[]"
            }
          ],
          "internalType": "struct Bridge.Params",
          "name": "unconfirmed",
          "type": "tuple"
        },
        {
          "components": [
            {
              "internalType": "uint256",
              "name": "amount",
              "type": "uint256"
            },
            {
              "internalType": "bytes",
              "name": "signature",
              "type": "bytes"
            },
            {
              "internalType": "bytes",
              "name": "publicKey",
              "type": "bytes"
            },
            {
              "internalType": "address",
              "name": "prerotatedKeyHash",
              "type": "address"
            },
            {
              "internalType": "address",
              "name": "twicePrerotatedKeyHash",
              "type": "address"
            },
            {
              "internalType": "address",
              "name": "prevPublicKeyHash",
              "type": "address"
            },
            {
              "internalType": "address",
              "name": "outputAddress",
              "type": "address"
            },
            {
              "internalType": "bool",
              "name": "hasRelationship",
              "type": "bool"
            },
            {
              "internalType": "address",
              "name": "tokenSource",
              "type": "address"
            },
            {
              "components": [
                {
                  "internalType": "address",
                  "name": "token",
                  "type": "address"
                },
                {
                  "internalType": "uint256",
                  "name": "amount",
                  "type": "uint256"
                },
                {
                  "internalType": "uint256",
                  "name": "deadline",
                  "type": "uint256"
                },
                {
                  "internalType": "uint8",
                  "name": "v",
                  "type": "uint8"
                },
                {
                  "internalType": "bytes32",
                  "name": "r",
                  "type": "bytes32"
                },
                {
                  "internalType": "bytes32",
                  "name": "s",
                  "type": "bytes32"
                },
                {
                  "components": [
                    {
                      "internalType": "address",
                      "name": "recipientAddress",
                      "type": "address"
                    },
                    {
                      "internalType": "uint256",
                      "name": "amount",
                      "type": "uint256"
                    },
                    {
                      "internalType": "bool",
                      "name": "wrap",
                      "type": "bool"
                    },
                    {
                      "internalType": "bool",
                      "name": "unwrap",
                      "type": "bool"
                    },
                    {
                      "internalType": "bool",
                      "name": "mint",
                      "type": "bool"
                    }
                  ],
                  "internalType": "struct Bridge.Recipient[]",
                  "name": "recipients",
                  "type": "tuple[]"
                }
              ],
              "internalType": "struct Bridge.PermitData[]",
              "name": "permits",
              "type": "tuple[]"
            }
          ],
          "internalType": "struct Bridge.Params",
          "name": "confirming",
          "type": "tuple"
        }
      ],
      "name": "wrap",
      "outputs": [],
      "stateMutability": "payable",
      "type": "function"
    }
  ],
  "bytecode": "0x60a0806040523461002a5730608052615c30908161003082396080518181816110a501526111540152f35b600080fdfe60808060405260043610156200001457600080fd5b600090813560e01c908163075693391462002c8657508063081da8c11462002c1b57806319bd211914620024ba5780631a6d10fc1462002107578063276c1ac014620020b95780632ed95877146200137657806347bbbdf514620013295780634f1ef286146200111057806352d1902d14620010905780635ff591311462000eb65780636548e9bc1462000e68578063715018a61462000df85780637e1aa1781462000daa5780637ecebe001462000d6d5780638406c0791462000d42578063893d20e81462000d095780638da5cb5b1462000d09578063a42dce801462000ca9578063a7c87ec21462000b92578063ad3cb1cc1462000b42578063b5057a7b1462000b19578063b6f6abdc1462000512578063c415b95c14620004e7578063c4d66de81462000340578063d3c7c2c71462000272578063d8397fd5146200020f5763f2fde38b146200016657600080fd5b346200020c5760203660031901126200020c576200018362002cad565b6200018d62003e15565b6001600160a01b03908082168015620001fa57600254928060008051602062005bbb833981519152541690841603620001e857620001e5926001600160601b0360a01b1617600255620001df62003e15565b62003e50565b80f35b60405163167c9f4d60e11b8152600490fd5b60405163d92e233d60e01b8152600490fd5b80fd5b50346200020c5760203660031901126200020c576004356006548110156200026e5760066000527ff652222313e28459528d920b65115c16c04f3efc82aaedc97be59f3f377c0d3f01546040516001600160a01b039091168152602090f35b5080fd5b50346200020c57806003193601126200020c5760405180916006549081835260208093018092600683527ff652222313e28459528d920b65115c16c04f3efc82aaedc97be59f3f377c0d3f90835b818110620003225750505084620002d991038562002d25565b60405193838594850191818652518092526040850193925b8281106200030157505050500390f35b83516001600160a01b031685528695509381019392810192600101620002f1565b82546001600160a01b031684529286019260019283019201620002c0565b50346200020c5760203660031901126200020c576200035e62002cad565b7ff0c57e16840df040f15088dc2f81fe391c3923bec73e23a9662efc9c229c6a009081549060ff8260401c1615916001600160401b03811680159081620004de575b6001149081620004d3575b159081620004c9575b50620004b75767ffffffffffffffff19811660011784558262000497575b50620003dd62003f88565b620003e762003f88565b620003f23362003e50565b620003fc62003f88565b6200040662003f88565b6200041062003f88565b600160008051602062005bdb833981519152556001600160a01b03168015620001fa576001600160601b0360a01b90818554161784553390600254161760025562000459575080f35b68ff00000000000000001981541690557fc7f505b2f371ae2175ee4913f4499e1f2633a7b5936321eed1cdaeb6115181d2602060405160018152a180f35b68ffffffffffffffffff19166801000000000000000117835538620003d2565b60405163f92ee8a960e01b8152600490fd5b90501538620003b4565b303b159150620003ab565b849150620003a0565b50346200020c57806003193601126200020c576002546040516001600160a01b039091168152602090f35b506200051e3662002e01565b9192906200052b620033b1565b6001600160a01b03821615620001fa576001600160a01b03821685526004602052604080862090519490620005608662002cf5565b80546001600160a01b03908116875260019091015416602086018190521562000b0757338652600560205260408620546200059e60c0840162003105565b604080516001600160a01b038088166020830190815287359383019390935290921660608301526080820183905290620005e68160a081015b03601f19810183528262002d25565b51902090620005f860c0870162003105565b60018201821162000af357604080516001600160a01b03808916602083019081528a359383019390935290921660608301526001909201608082015262000673916200066c916200064d8160a08101620005d7565b519020926200066060208701876200313e565b92903393369162002d63565b90620033f8565b1562000ae1576200066c620006c1916200069160208801886200313e565b9290620006b8620006b2620006aa60408c018c6200313e565b369162002d63565b62003195565b93369162002d63565b1562000acf5785546001600160a01b0316620006e060c0840162003105565b6040516324b9c44160e21b81526001600160a01b039091166004820152610120918290829060249082905afa91821562000ac45788918993620009a7575b5050816200097e575b506200096c578135156200095a57620007409062003450565b93670de0b6b3a7640000806200075887853562003173565b0495868435106200095a576200076f903462003173565b04928334106200095a578695816200078d8786620007a89562003562565b818015158062000951575b6200092e575b5050833562003187565b908162000896575b50505034620007d1575b82600160008051602062005bdb8339815191525580f35b8062000857575b620007e4903462003187565b8015158062000837575b15620007ba578280929162000807606083940162003105565b617530f162000815620030d0565b50156200082557803880620007ba565b604051630db2c7f160e31b8152600490fd5b506001600160a01b036200084e6060840162003105565b161515620007ee565b918080808560018060a01b0360025416617530f162000875620030d0565b501562000884578291620007d8565b604051634033e4e360e01b8152600490fd5b602001516001600160a01b031691620008b29060c00162003105565b90823b156200092a576040516340c10f1960e01b81526001600160a01b0392909216600483015260248201529084908290604490829084905af19081156200091f57849162000903575b80620007b0565b6200090e9062002d11565b6200091b578238620008fc565b5050fd5b6040513d86823e3d90fd5b8580fd5b60025462000949926001600160a01b03918216911662003dce565b38816200079e565b50600162000798565b604051631fbaba3560e01b8152600490fd5b604051631a7ec90d60e01b8152600490fd5b602001516001600160a01b0390811691506200099d60c0850162003105565b1614153862000727565b9150915080823d841162000abc575b620009c2818362002d25565b81010391821262000ab85761010080921262000ab857604051918083018381106001600160401b0382111762000aa25760405262000a00826200338e565b835262000a10602083016200338e565b602084015262000a23604083016200338e565b604084015262000a36606083016200338e565b606084015262000a49608083016200338e565b608084015262000a5c60a08301620033a3565b60a084015262000a6f60c08301620033a3565b60c084015260e082015191600383101562000a9e5762000a959260e085015201620033a3565b9038806200071e565b8980fd5b634e487b7160e01b600052604160045260246000fd5b8780fd5b503d620009b6565b6040513d8a823e3d90fd5b604051633bc0bb3d60e21b8152600490fd5b604051637a9e3e8360e01b8152600490fd5b634e487b7160e01b89526011600452602489fd5b604051637879bad160e01b8152600490fd5b50346200020c57806003193601126200020c57546040516001600160a01b039091168152602090f35b50346200020c57806003193601126200020c5762000b8e60405162000b678162002cf5565b60058152640352e302e360dc1b602082015260405191829160208352602083019062002e84565b0390f35b50346200020c5760403660031901126200020c5762000bb062002cad565b62000bba62002cc9565b9062000bc562003e15565b6001600160a01b03918183168015801562000c9e575b620001fa5780855260046020528360016040872001541662000c8c57620001e59360016040519262000c0d8462002cf5565b8084528260208501951694858152818952600460205283838160408c20975116966001600160601b0360a01b978882541617815501915116858254161790556040519062000c5b8262002cf5565b815260208101948086528852600460205282604089209151168482541617815501925116908254161790556200330d565b604051636bb9e87d60e01b8152600490fd5b508382161562000bdb565b50346200020c5760203660031901126200020c5762000cc762002cad565b62000cd162003e15565b6001600160a01b0316801562000cf7576001600160601b0360a01b600254161760025580f35b60405163bb0bac9960e01b8152600490fd5b50346200020c57806003193601126200020c5760008051602062005bbb833981519152546040516001600160a01b039091168152602090f35b50346200020c57806003193601126200020c576001546040516001600160a01b039091168152602090f35b50346200020c5760203660031901126200020c576020906040906001600160a01b0362000d9962002cad565b168152600583522054604051908152f35b50346200020c5760203660031901126200020c5762000dc862002cad565b62000dd262003e15565b6001600160a01b03168015620001fa576001600160601b0360a01b600354161760035580f35b50346200020c57806003193601126200020c5762000e1562003e15565b60008051602062005bbb83398151915280546001600160a01b031981169091556000906001600160a01b03167f8be0079c531659141344cd1fd0a4f28419497f9722a3daafe3b4186f6b6457e08280a380f35b50346200020c5760203660031901126200020c5762000e8662002cad565b62000e9062003e15565b6001600160a01b03168015620001fa576001600160601b0360a01b600154161760015580f35b506003196060368201126200026e5762000ecf62002cad565b906001600160401b036024358181116200108c5780600401916101408085843603011262001088576044359182116200108857816004019482360301126200092a5762000f1b620033b1565b3386526005602052604086205462000f3660c4840162003105565b604080516001600160a01b038981166020830190815288359383019390935292909216606083015260808083018490528252601f19929162000f7a60a08262002d25565b5190209162000f8c60c4850162003105565b600183018093116200107457604080516001600160a01b038b811660208301908152600093830193909352929092166060830152608082019390935260a09182018152620010159360449390926200066c929062000feb908262002d25565b51902095620006b8620006b2620006aa6200100a602485018c6200313e565b979094018b6200313e565b1562000ae1576200104d916200066c82620006b8620006b2620006aa620010426024604498018b6200313e565b979094018a6200313e565b1562000acf576200105e9262003562565b600160008051602062005bdb8339815191525580f35b634e487b7160e01b8a52601160045260248afd5b8680fd5b8480fd5b50346200020c57806003193601126200020c577f00000000000000000000000000000000000000000000000000000000000000006001600160a01b03163003620010fe5760206040517f360894a13ba1a3210667c828492db98dca3e2076cc3735a920a3ca505d382bbc8152f35b60405163703e46dd60e11b8152600490fd5b5060403660031901126200020c576200112862002cad565b6024356001600160401b03811162001325576200114a90369060040162002d9f565b6001600160a01b037f00000000000000000000000000000000000000000000000000000000000000008116308114908115620012f6575b50620010fe576200119162003e15565b8216916040516352d1902d60e01b8152602081600481875afa859181620012bc575b50620011d257604051634c9c8ce360e01b815260048101859052602490fd5b9284937f360894a13ba1a3210667c828492db98dca3e2076cc3735a920a3ca505d382bbc90818103620012a45750823b156200128b5780546001600160a01b0319168217905560405184917fbc7cd75a20ee27fd9adebab32041f755214dbc6bffa90cc0225b39da2e5c2d3b8380a28351156200126e5750808360206200126a95519101845af462001263620030d0565b9162004126565b5080f35b92505050346200127c575080f35b63b398979f60e01b8152600490fd5b604051634c9c8ce360e01b815260048101839052602490fd5b60249060405190632a87526960e21b82526004820152fd5b9091506020813d602011620012ed575b81620012db6020938362002d25565b810103126200092a57519038620011b3565b3d9150620012cc565b9050817f360894a13ba1a3210667c828492db98dca3e2076cc3735a920a3ca505d382bbc541614153862001181565b8280fd5b50346200020c5760203660031901126200020c576040906001600160a01b03908290826200135662002cad565b168152600460205220906001818354169201541682519182526020820152f35b506003196060368201126200026e576004356001600160401b0381116200132557620013a790369060040162002dce565b916001600160401b0360243511620020b557610140908181602435360301126200108c576001600160401b03604435116200108c57604435360301126200132557620013f262003e15565b620013fc620033b1565b8115620020a357600a8211620020a3576200142a620006b2620006aa6044602435016024356004016200313e565b3384526005602052604084205460405160208101906200145381620005d785878a8a8862003208565b519020916001820182116200208f57620014a591620005d76200148c6200066c936040519283916001602084019601908b8b8862003208565b519020926200066060248035016024356004016200313e565b1562000ae1576200066c620014e991620014ca6024604435016044356004016200313e565b9290620006b8620006b2620006aa60448035016044356004016200313e565b1562000acf57825b82811062001dfa576000846001600160a01b036200151460243560c40162003105565b1615801562001dd9575b620001fa573382526005602052604082208054906002820180921162001dc55755602219602435360301610124602435013512156200026e57602435610124810135016001600160401b036004820135116200132557600481013560051b3603602482011362001325576200159f8391369060246004820135910162002ede565b91815b835183101562001a8557620015b88385620033e3565b5191602083015115158062001a76575b8062001a62575b15620019155760408301514211620019035760018060a01b03835116602084015160408501519060ff60608701511692608087015160a088015190823b1562000ab85760e492889594928692604051988997889663d505accf60e01b885233600489015230602489015260448801526064870152608486015260a485015260c48401525af18015620018f857620018e6575b508194825b60c08501518051821015620018b357816200168191620033e3565b516020810151801515806200189f575b620016a2575b505060010162001666565b6020879993990151106200188d5760608101511515806200187a575b156200176057855181516020830151916001600160a01b039081169116813b1562000ab857604051632770a7eb60e21b81526001600160a01b03919091166004820152602481019290925286908290604490829084905af1801562001755576200173a926001949260209262001743575b505b0151906200311a565b96908862001697565b6200174e9062002d11565b8b6200172f565b6040513d88823e3d90fd5b608081015115158062001867575b15620017f957855181516020830151916001600160a01b039081169116813b1562000ab8576040516340c10f1960e01b81526001600160a01b03919091166004820152602481019290925286908290604490829084905af1801562001755576200173a9260019492602092620017e7575b505b62001731565b620017f29062002d11565b8b620017df565b60019160208260406200173a94015115158062001856575b156200183357620017e1858060a01b038a511683830151903090339062003ec6565b620017e1858060a01b038a5116868060a01b038351168484015191339062003ec6565b50848060a01b038951161562001811565b5085516001600160a01b0316156200176e565b5085516001600160a01b031615620016be565b60405163143d1ae760e21b8152600490fd5b5081516001600160a01b0316151562001691565b5050926020909591949295015103620018d4576001905b01919092620015a2565b6040516312171d8360e31b8152600490fd5b620018f19062002d11565b8562001661565b6040513d85823e3d90fd5b6040516305787bdf60e01b8152600490fd5b9290939160018060a01b038151161562001934575b50600190620018ca565b84939092845b60c08501518051821015620019c857816200195591620033e3565b51602081015180151580620019bb575b80620019a7575b6200197d575b50506001016200193a565b6020879993990151106200188d5760019160206200199e920151906200311a565b96908862001972565b5081516001600160a01b031615156200196c565b5060408201511562001965565b50509091929434106200095a57835b60c0860151805182101562001a5257620019f3828792620033e3565b516020810151908115158062001a45575b62001a16575b505050600101620019d7565b51829182918291906001600160a01b0316617530f162001a35620030d0565b5015620008255784878062001a0a565b5060408101511562001a04565b505091600191939450906200192a565b5082516001600160a01b03161515620015cf565b506040830151421115620015c8565b9062001a9c6044602435016024356004016200313e565b929062001aae60646024350162003105565b9362001abf60846024350162003105565b9062001ad060a46024350162003105565b9162001ae160c46024350162003105565b9362001af260e46024350162003554565b9262001b0860448035016044356004016200313e565b929062001b1a60646044350162003105565b62001b2a60846044350162003105565b9062001b7762001b3f60a46044350162003105565b9362001b6e62001b5460c46044350162003105565b9662001b6560e46044350162003554565b98369162002d63565b97369162002d63565b97604087511480159062001db8575b62001da6578b546001600160a01b03169862001ba29062003195565b90893b1562001da257918c9d9e9593918d9c9d989795936040519e8f9d8e9c8d9b632e91b77d60e01b8d5260048d0161018090526101848d0162001be69162002e84565b6001600160a01b039b8c1660248e0152908b1660448d0152908a1660648c015290891660848b015290151560a48a015290871660c489015290861660e48801529085166101048701529084166101248601529216610144840152151561016483015203925af1801562001d975762001d85575b5060008051602062005bbb833981519152546001600160a01b03163381148062001d63575b62001cfe575b503415158062001cdc575b62001cac575b50600160008051602062005bdb8339815191525580f35b8080803462001cc060646044350162003105565b617530f162001cce620030d0565b501562000825578162001c95565b506001600160a01b0362001cf560443560640162003105565b16151562001c8f565b62001d0e60646044350162003105565b62001d1862003e15565b6001600160a01b0381168015620001fa57600254926001600160a01b03841603620001e85762001d5c926001600160601b0360a01b1617600255620001df62003e15565b8262001c84565b506001600160a01b0362001d7c60443560640162003105565b16151562001c7e565b62001d909062002d11565b8262001c59565b6040513d84823e3d90fd5b8c80fd5b60405163145a1fdd60e31b8152600490fd5b5060408951141562001b86565b634e487b7160e01b84526011600452602484fd5b506001600160a01b0362001df260443560c40162003105565b16156200151e565b8060051b82013590607e19833603018212156200108c5760808284013603126200108c57604051918260808101106001600160401b0360808501111762000aa2576080830160405262001e4f81850162002ce0565b83526001600160401b0360208286010135116200092a5762001e7a3685830160208101350162002d9f565b60208401526001600160401b0360408286010135116200092a5762001ebe9060609062001eb03687830160408101350162002d9f565b604086015285010162002ce0565b606083015281516001600160a01b039081168652600460205260408620600101541662000c8c5760608201516001600160a01b0316801562001fcf575b60019262001fc891848060a01b038251166040519062001f1b8262002cf5565b815260a086901b8690039182166020808301828152855185168c5260049091526040808c20935184549086166001600160a01b0319918216178555915193890180549486169483169490941790935584519251919390928892911662001f818262002cf5565b815260208101938085528b52600460205260408b2090828060a01b03905116838254161781550191868060a01b0390511690825416179055838060a01b039051166200330d565b01620014f1565b506020820151604083015160018060a01b03875416906040519283611a2c8101106001600160401b03611a2c860111176200207b578392916200202b6200204292611a2c6200418f87396080611a2c8701818152019062002e84565b90611a2c850182036020611a2c8701015262002e84565b90306040611a2c850101526060611a2c84010152039086f0801562002070576001600160a01b031662001efb565b6040513d87823e3d90fd5b634e487b7160e01b89526041600452602489fd5b634e487b7160e01b86526011600452602486fd5b604051630554f0a760e41b8152600490fd5b8380fd5b50346200020c5760203660031901126200020c57600435906001600160401b0382116200020c576020620020f5620006b2366004860162002d9f565b6040516001600160a01b039091168152f35b50620021133662002e01565b906200212294939294620033b1565b6001600160a01b03908382168015620001fa578552602095600487526040862083600160405192620021548462002cf5565b82815416845201541680898301521562000b075733875260058852604087205483359360c08101938886620021c48d620005d787620021938b62003105565b6040519586948501978890606092959493608083019660018060a01b03809316845260208401521660408201520152565b519020620021d560c08a0162003105565b6001850190818611620024a6578d926200223c8d62002255946200222f6200066c95620005d76040519384928b8401968760609194939294608082019560018060a01b038092168352600060208401521660408201520152565b519020948701876200313e565b9290620006b8620006b2620006aa60408b018b6200313e565b1562000ae157620006aa6200228e916200066c8b8f620006b262002280620006b8928401846200313e565b96909360408101906200313e565b1562000acf5785156200095a57620022ba620022b3670de0b6b3a76400009262003450565b8762003173565b049788620022c9818862003187565b96106200095a57620022dd91889162003562565b60028101809111620024925760058899989798338952526040872055838151161515600014620023f1578684959697620023d5575b5082151580620023bf575b6200239b575b50505050341515908162002381575b5062002351575b5050600160008051602062005bdb8339815191525580f35b8180809262002364606034920162003105565b617530f162002372620030d0565b50156200082557803862002339565b9050620023916060830162003105565b1615153862002332565b620023b593620023ae9151169162003105565b9062003dce565b8038808062002323565b5083620023cc8362003105565b1615156200231d565b620023ea908583511686600254169062003dce565b3862002312565b509193508092501515806200247c575b62002447575b50508162002418575b50506200105e565b8147106200095a5782808093819360025416617530f162002438620030d0565b5015620018d457388062002410565b8147106200095a57848080936200245f829462003105565b617530f16200246d620030d0565b50156200082557388062002407565b5082620024898262003105565b16151562002401565b634e487b7160e01b88526011600452602488fd5b634e487b7160e01b8d52601160045260248dfd5b506101003660031901126200020c576001600160401b036004358181116200132557620024ec90369060040162002d9f565b620024f662002cc9565b906044356001600160a01b0381169003620020b557606435906001600160a01b03821682036200108c57608435916001600160a01b03831683036200092a5760a4356001600160a01b03811690036200092a5760c435948515158603620010885760e435116200092a57620025713660e43560040162002dce565b6200257e939193620033b1565b604082510362001da65760a4356001600160a01b031615620001fa5794620025ad879594899497369162002ede565b9483955b805187101562002a7f57620025c78782620033e3565b5195602087015115158062002a70575b8062002a5c575b15620028fb5760408701514211620019035760018060a01b03875116602088015160408901519060ff60608b0151169260808b015160a08c015190823b156200276d5760e4928c9594928692604051988997889663d505accf60e01b885233600489015230602489015260448801526064870152608486015260a485015260c48401525af18015620028f057620028de575b508598865b60c08901518051821015620028b257816200269091620033e3565b516020810151801515806200289e575b620026b1575b505060010162002675565b60208b9d939d0151106200188d5760608101511515806200288b575b156200277157895181516020830151916001600160a01b039081169116813b156200276d57604051632770a7eb60e21b81526001600160a01b0391909116600482015260248101929092528a908290604490829084905af1801562002762576200274792600194926020926200275057500151906200311a565b9a908c620026a6565b6200275b9062002d11565b8f6200172f565b6040513d8c823e3d90fd5b8b80fd5b608081015115158062002878575b156200280857895181516020830151916001600160a01b039081169116813b156200276d576040516340c10f1960e01b81526001600160a01b0391909116600482015260248101929092528a908290604490829084905af180156200276257620027479260019492602092620027f6575062001731565b620028019062002d11565b8f620017df565b60019160208260406200274794015115158062002867575b156200284357620017e18d868060a01b0390511683830151903090339062003ec6565b620017e18d868060a01b03905116868060a01b038351168484015191339062003ec6565b50848060a01b038d51161562002820565b5089516001600160a01b0316156200277f565b5089516001600160a01b031615620026cd565b5081516001600160a01b03161515620026a0565b50509391966020909991969998959398015103620018d457600188945b019691935091969394620025b1565b620028e99062002d11565b8962002670565b6040513d89823e3d90fd5b93919560018060a09a959397999a1b038151161562002925575b50600187989794959697620028cf565b95879895885b60c08901518051821015620029b957816200294691620033e3565b51602081015180151580620029ac575b8062002998575b6200296e575b50506001016200292b565b60208b9d939d0151106200188d5760019160206200298f920151906200311a565b9a908c62002963565b5081516001600160a01b031615156200295d565b5060408201511562002956565b50509295969894919493909334106200095a57875b60c08a0151805182101562002a4957620029ea828b92620033e3565b516020810151908115158062002a3c575b62002a0d575b505050600101620029ce565b51829182918291906001600160a01b0316617530f162002a2c620030d0565b50156200082557888b8062002a01565b50604081015115620029fb565b5096985092955090939092600162002915565b5086516001600160a01b03161515620025de565b506040870151421115620025d7565b5060008051602062005bbb8339815191525493969495508694936001600160a01b03163381148062002c06575b62002b98575b503462002b73575b84546001600160a01b031692833b156200092a5762002afb9286926040519889978896879563151cdb2f60e11b875260e0600488015260e487019062002e84565b6001600160a01b039485166024870152604480358616908701529084166064860152908316608485015260a4803590931692840192909252151560c483015203925af1801562001d975762002b615750600160008051602062005bdb8339815191525580f35b62002b6c9062002d11565b8162001c95565b938080803460a435617530f162002b89620030d0565b50156200082557859362002aba565b945062002ba462003e15565b6044356001600160a01b031615620001fa57600254946001600160a01b03861603620001e8576001600160a01b03199094166044356001600160a01b031617600255859362002bf262003e15565b62002bff60443562003e50565b8762002ab2565b506044356001600160a01b0316151562002aac565b50346200020c5760203660031901126200020c576001600160a01b03906040908262002c4662002cad565b1681526004602052209060208160016040519462002c648662002cf5565b8281541686520154169201918083521562000b07576020915116604051908152f35b9050346200026e57816003193601126200026e576003546001600160a01b03168152602090f35b600435906001600160a01b038216820362002cc457565b600080fd5b602435906001600160a01b038216820362002cc457565b35906001600160a01b038216820362002cc457565b604081019081106001600160401b0382111762000aa257604052565b6001600160401b03811162000aa257604052565b90601f801991011681019081106001600160401b0382111762000aa257604052565b6001600160401b03811162000aa257601f01601f191660200190565b92919262002d718262002d47565b9162002d81604051938462002d25565b82948184528183011162002cc4578281602093846000960137010152565b9080601f8301121562002cc45781602062002dbd9335910162002d63565b90565b3590811515820362002cc457565b9181601f8401121562002cc4578235916001600160401b03831162002cc4576020808501948460051b01011162002cc457565b6003199060808183011262002cc4576004356001600160a01b038116810362002cc457926001600160401b0360243581811162002cc457608085828603011262002cc457600401936044359082821162002cc457610140918282828803011262002cc4576004019460643593841162002cc457839003011262002cc45760040190565b919082519283825260005b84811062002eb1575050826000602080949584010152601f8019910116010190565b60208183018101518483018201520162002e8f565b6001600160401b03811162000aa25760051b60200190565b9092919262002eed8162002ec6565b9060409062002eff8251938462002d25565b829581845260208094019160051b85019281841162002cc45785925b84841062002f2c5750505050505050565b6001600160401b03843581811162002cc45788019060e091828187031262002cc457845192830183811083821117620030bb57855262002f6c8162002ce0565b83528881013589840152848101358584015260608082013560ff8116810362002cc45781850152608092838301358486015260a091828401358387015260c093848101359083821162002cc457019189601f8401121562002cc4578c9583359262002fd78462002ec6565b9762002fe68c51998a62002d25565b84895286818a019502860101948c861162002cc457918f99979593918a8e9c9a98969401935b8585106200302d575050505050505084955082015281520193019262002f1b565b919386989a9c8197929496989a9c50031262002cc4578f8c51918883019280841087851117620030bb578e8a948152620030678962002ce0565b825283890135848301526200307e818a0162002dc0565b908201526200308f85890162002dc0565b85820152620030a086890162002dc0565b868201528152019401918f99979593918d9b9997956200300c565b60246000634e487b7160e01b81526041600452fd5b3d1562003100573d90620030e48262002d47565b91620030f4604051938462002d25565b82523d6000602084013e565b606090565b356001600160a01b038116810362002cc45790565b919082018092116200312857565b634e487b7160e01b600052601160045260246000fd5b903590601e198136030182121562002cc457018035906001600160401b03821162002cc45760200191813603831362002cc457565b818102929181159184041417156200312857565b919082039182116200312857565b604081510362001da65780516020909101206001600160a01b031690565b9035601e198236030181121562002cc45701602081359101916001600160401b03821162002cc457813603831362002cc457565b908060209392818452848401376000828201840152601f01601f1916010190565b91909493929460609082606085016060865252608092608085019360808260051b8701019483946000946000955b8587106200325c575050505050505050906040919460018060a01b031660208201520152565b9091929394959697607f198a82030185528835607e19843603018112156200132557600191620032d091889190860190876001600160a01b0380620032a18562002ce0565b168352620032f682620032ee6020988998620032c08a8a018a620031b3565b9091808c8b0152890191620031e7565b6040620032e0818a018a620031b3565b91898403908a0152620031e7565b950162002ce0565b169101529a01950197019594939692919062003236565b6006546801000000000000000081101562000aa2576001810180600655811015620033785760066000527ff652222313e28459528d920b65115c16c04f3efc82aaedc97be59f3f377c0d3f0180546001600160a01b0319166001600160a01b03909216919091179055565b634e487b7160e01b600052603260045260246000fd5b51906001600160a01b038216820362002cc457565b5190811515820362002cc457565b60008051602062005bdb8339815191526002815414620033d15760029055565b604051633ee5aeb560e01b8152600490fd5b8051821015620033785760209160051b010190565b6200343f929162003435917f19457468657265756d205369676e6564204d6573736167653a0a333200000000600052601c52603c60002062003fca565b9093919362004009565b6001600160a01b0391821691161490565b604080820135914283106200354357602081013592670de0b6b3a764000084116200353257620034808262003105565b90835192602084019160018060a01b038094168352868686015260608501526060845260808401918483106001600160401b0384111762000aa2576200351194620034359387525190207f19457468657265756d205369676e6564204d6573736167653a0a333200000000600052601c526200350a620006aa603c6000209260608101906200313e565b9062003fca565b806003541691160362003522575090565b51633bc0bb3d60e21b8152600490fd5b8251630adad23360e31b8152600490fd5b81516305787bdf60e01b8152600490fd5b35801515810362002cc45790565b600093919290916001600160a01b036200357f60c0860162003105565b1615801562003daf575b620001fa573385526005602052604085208054906002820180921162003d9b5755610120840135601e19853603018112156200092a5784018035906001600160401b03821162001088576020018160051b360381136200108857620035f5919693959296369162002ede565b9482945b865186101562003ab5576200360f8688620033e3565b5192602084015115158062003aa6575b8062003a92575b156200393b576040840180514211620019035760018060a01b0385511690602086015190519060ff60608801511692608088015160a089015190823b15620037b45760e4928b9594928692604051988997889663d505accf60e01b885233600489015230602489015260448801526064870152608486015260a485015260c48401525af18015620017555762003929575b508497855b60c08601518051821015620039055781620036d791620033e3565b51602081015180151580620038f1575b620036f8575b5050600101620036bc565b6020889c939c0151106200188d576060810151151580620038da575b15620037b857865181516020830151916001600160a01b039081169116813b15620037b457604051632770a7eb60e21b81526001600160a01b03919091166004820152602481019290925289908290604490829084905af18015620037a9576200378e92600194926020926200379757500151906200311a565b999038620036ed565b620037a29062002d11565b386200172f565b6040513d8b823e3d90fd5b8a80fd5b6080810151151580620038c3575b156200384f57865181516020830151916001600160a01b039081169116813b15620037b4576040516340c10f1960e01b81526001600160a01b03919091166004820152602481019290925289908290604490829084905af18015620037a9576200378e92600194926020926200383d575062001731565b620038489062002d11565b38620017df565b60019160208260406200378e940151151580620038ac575b156200388957620017e1858060a01b038b511683830151903090339062003ec6565b620017e1858060a01b038b5116868060a01b038351168484015191339062003ec6565b50895160a086901b8690038d811691161462003867565b5086516001600160a01b038a8116911614620037c6565b5086516001600160a01b038a811691161462003714565b5081516001600160a01b03161515620036e7565b5050949790969192936020015103620018d4576001905b01949190959295620035f9565b620039349062002d11565b38620036b7565b9590919260018060a09996991b03815116156200395d575b506001906200391c565b94929093918796875b60c08801518051821015620039f457816200398191620033e3565b51602081015180151580620039e7575b80620039d3575b620039a9575b505060010162003966565b60208a9c939c0151106200188d576001916020620039ca920151906200311a565b9990386200399e565b5081516001600160a01b0316151562003998565b5060408201511562003991565b50509290939194959734106200095a57865b60c0890151805182101562003a815762003a22828a92620033e3565b516020810151908115158062003a74575b62003a45575b50505060010162003a06565b51829182918291906001600160a01b0316617530f162003a64620030d0565b5015620008255787388062003a39565b5060408101511562003a33565b505093929195965093600162003953565b5083516001600160a01b0316151562003626565b5060408401514211156200361f565b9450945090915062003acb60408201826200313e565b62003ad96060840162003105565b9162003ae86080850162003105565b9062003af760a0860162003105565b9362003b1460e062003b0c60c0890162003105565b970162003554565b938862003b2560408201826200313e565b949062003b356060840162003105565b62003b7762003b476080860162003105565b9262001b6562003b5a60a0880162003105565b9562001b6560e062003b6f60c08b0162003105565b990162003554565b98604088511480159062003d8e575b62001da6578c546001600160a01b03169962003ba29062003195565b908a3b1562003d8a57918d9b9a9998969492918c989694926040519e8f9d8e9c8d9b632e91b77d60e01b8d5260048d0161018090526101848d0162003be79162002e84565b6001600160a01b039b8c1660248e0152908b1660448d0152908a1660648c015290891660848b015290151560a48a015290871660c489015290861660e48801529085166101048701529084166101248601529216610144840152151561016483015203925af1801562001d975762003d78575b5060008051602062005bbb833981519152549091906001600160a01b03163381148062003d58575b62003cf5575b50818062003ceb575b8062003ccb575b62003ca1575050565b818062003cb2606082940162003105565b3490617530f162003cc2620030d0565b50156200082557565b506001600160a01b0362003ce26060830162003105565b16151562003c98565b5034151562003c91565b62003d036060830162003105565b62003d0d62003e15565b6001600160a01b0381168015620001fa57600254926001600160a01b03841603620001e85762003d51926001600160601b0360a01b1617600255620001df62003e15565b3862003c88565b506001600160a01b0362003d6f6060840162003105565b16151562003c82565b62003d839062002d11565b3862003c5a565b8d80fd5b5060408a51141562003b86565b634e487b7160e01b87526011600452602487fd5b506001600160a01b0362003dc660c0840162003105565b161562003589565b60405163a9059cbb60e01b60208201526001600160a01b0392909216602483015260448083019390935291815262003e139162003e0d60648362002d25565b62003f1c565b565b60008051602062005bbb833981519152546001600160a01b0316330362003e3857565b60405163118cdaa760e01b8152336004820152602490fd5b6001600160a01b0390811690811562003ead5760008051602062005bbb83398151915280546001600160a01b031981168417909155167f8be0079c531659141344cd1fd0a4f28419497f9722a3daafe3b4186f6b6457e0600080a3565b604051631e4fbdf760e01b815260006004820152602490fd5b6040516323b872dd60e01b60208201526001600160a01b03928316602482015292909116604483015260648083019390935291815260a08101918183106001600160401b0384111762000aa25762003e13926040525b906000602091828151910182855af11562003f7c576000513d62003f7257506001600160a01b0381163b155b62003f505750565b604051635274afe760e01b81526001600160a01b039091166004820152602490fd5b6001141562003f48565b6040513d6000823e3d90fd5b60ff7ff0c57e16840df040f15088dc2f81fe391c3923bec73e23a9662efc9c229c6a005460401c161562003fb857565b604051631afcd79f60e31b8152600490fd5b815191906041830362003ffe5762003ff792506020820151906060604084015193015160001a9062004093565b9192909190565b505060009160029190565b60048110156200407d57806200401d575050565b60018103620040385760405163f645eedf60e01b8152600490fd5b600281036200405a5760405163fce698f760e01b815260048101839052602490fd5b600314620040655750565b602490604051906335e2f38360e21b82526004820152fd5b634e487b7160e01b600052602160045260246000fd5b91907f7fffffffffffffffffffffffffffffff5d576e7357a4501ddfe92f46681b20a084116200411a57926020929160ff608095604051948552168484015260408301526060820152600092839182805260015afa156200410e5780516001600160a01b038116156200410557918190565b50809160019190565b604051903d90823e3d90fd5b50505060009160039190565b906200414f57508051156200413d57805190602001fd5b60405163d6bda27560e01b8152600490fd5b8151158062004184575b62004162575090565b604051639996b31560e01b81526001600160a01b039091166004820152602490fd5b50803b156200415956fe610160604081815234620004775762001a2c80380380916200002282866200047c565b8439820191608081840312620004775780516001600160401b03929083811162000477578462000054918401620004c5565b916020948582015190858211620004775762000072918301620004c5565b946200008e60606200008685850162000520565b930162000520565b90835190848201828110888211176200037657855260019485835281830195603160f81b87528751898111620003765760038054918383811c931680156200046c575b868410146200045657601f928381116200040b575b50808684821160011462000398576000916200038c575b5060001982841b1c191690841b1781555b8b51918b8311620003765760049c8d548581811c911680156200036b575b8882101462000356578e8382116200030b575b50508d87928511600114620002a0575093839491849260009562000294575b50501b92600019911b1c19161789555b620001798762000535565b956101209687526200018b84620006da565b97610140988952838151910120938460e0525190209861010099808b524660a0528251938401947f8b73c3c69bb8fe3d512ecc4cf759cc79239f7b179b0ffacaa9a75d522b39400f86528385015260608401524660808401523060a084015260a0835260c0830198838a10908a11176200027f57508790525190206080523060c052600880546001600160a01b039384166001600160a01b031991821617909155600980549290931691161790556111fa938462000832853960805184610c88015260a05184610d54015260c05184610c52015260e05184610cd701525183610cfd0152518261051a015251816105440152f35b604190634e487b7160e01b6000525260246000fd5b0151935038806200015e565b929190601f1985169360005284886000209460005b8a89838310620002f35750505010620002d8575b50505050811b0189556200016e565b01519060f884600019921b161c1916905538808080620002c9565b868601518955909701969485019488935001620002b5565b600052876000208380870160051c8201928a88106200034c575b0160051c019086905b8281106200033f5750508e6200013f565b600081550186906200032e565b9250819262000325565b60228f634e487b7160e01b6000525260246000fd5b90607f16906200012c565b634e487b7160e01b600052604160045260246000fd5b90508b015138620000fd565b8592508c90601f1983168560005289600020928a6000915b838310620003e9575050508311620003d0575b5050811b0181556200010e565b8d015160001983861b60f8161c191690553880620003c3565b948482949597989293960151815501940192019087949392918f8b90620003b0565b82600052866000208480840160051c8201928985106200044c575b0160051c019085905b8281106200043f575050620000e6565b600081550185906200042f565b9250819262000426565b634e487b7160e01b600052602260045260246000fd5b92607f1692620000d1565b600080fd5b601f909101601f19168101906001600160401b038211908210176200037657604052565b60005b838110620004b45750506000910152565b8181015183820152602001620004a3565b81601f82011215620004775780516001600160401b038111620003765760405192620004fc601f8301601f1916602001856200047c565b8184526020828401011162000477576200051d9160208085019101620004a0565b90565b51906001600160a01b03821682036200047757565b80516020919082811015620005b5575090601f8251116200057357808251920151908083106200056457501790565b82600019910360031b1b161790565b604490620005a79260405193849263305a27a960e01b845280600485015282519283918260248701528686019101620004a0565b601f01601f19168101030190fd5b6001600160401b03811162000376576005928354926001938481811c91168015620006cf575b838210146200045657601f811162000698575b5081601f84116001146200062e575092829391839260009462000622575b50501b916000199060031b1c191617905560ff90565b0151925038806200060c565b919083601f1981168760005284600020946000905b888383106200067d575050501062000663575b505050811b01905560ff90565b015160001960f88460031b161c1916905538808062000656565b85870151885590960195948501948793509081019062000643565b8560005284601f846000209201871c820191601f8601881c015b828110620006c2575050620005ee565b60008155018590620006b2565b90607f1690620005db565b805160209081811015620007075750601f8251116200057357808251920151908083106200056457501790565b906001600160401b0382116200037657600654926001938481811c9116801562000826575b838210146200045657601f8111620007ec575b5081601f841160011462000780575092829391839260009462000774575b50501b916000199060031b1c19161760065560ff90565b0151925038806200075d565b919083601f198116600660005284600020946000905b88838310620007d15750505010620007b7575b505050811b0160065560ff90565b015160001960f88460031b161c19169055388080620007a9565b85870151885590960195948501948793509081019062000796565b600660005284601f84600020920160051c820191601f860160051c015b828110620008195750506200073f565b6000815501859062000809565b90607f16906200072c56fe608060408181526004918236101561001657600080fd5b600092833560e01c91826306fdde03146108d757508163095ea7b3146108ad57816318160ddd1461088e57816323b872dd14610789578163313ce5671461076d5781633644e5151461074957816340c10f191461069157816370a082311461065a5781637ecebe001461062257816384b0196e1461050257816395d89b411461040e5781639dc29fac14610329578163a9059cbb146102e4578163b5057a7b146102bb578163d505accf1461015357508063dd62ed3e1461010b5763e78cea92146100e057600080fd5b3461010757816003193601126101075760085490516001600160a01b039091168152602090f35b5080fd5b5034610107578060031936011261010757806020926101286109ef565b610130610a0a565b6001600160a01b0391821683526001865283832091168252845220549051908152f35b839150346101075760e03660031901126101075761016f6109ef565b610177610a0a565b906044359260643560843560ff811681036102b7578142116102a05760018060a01b0390818516928389526007602052898920908154916001830190558a519060208201927f6e71edae12b1b97f4d1f60370fef10105fa2faae0126114a169c64845d6126c98452868d840152858a1660608401528a608084015260a083015260c082015260c0815260e0810181811067ffffffffffffffff82111761028d578b5251902061025b916102529161022c610c4f565b908c519161190160f01b83526002830152602282015260c43591604260a43592206110af565b9092919261113f565b16818103610272578661026f878787610d7a565b80f35b87516325c0072360e11b815292830152602482015260449150fd5b634e487b7160e01b8b526041875260248bfd5b875163313c898160e11b8152808401839052602490fd5b8680fd5b50503461010757816003193601126101075760095490516001600160a01b039091168152602090f35b5050346101075780600319360112610107576102fe6109ef565b916103098333610acf565b15610326575061031f6020926024359033610e0d565b5160018152f35b80fd5b839150346101075782600319360112610107576103446109ef565b6008549091602435916001600160a01b03908116330361040a5783169283156103f3578385528460205285852054918383106103bf5750508184957fddf252ad1be2c89b69c2b068fc378daa952ba7f163c4a11628f55a4df523b3ef936020938688528785520381872055816002540360025551908152a380f35b865163391434e360e21b81526001600160a01b03909216908201908152602081018390526040810184905281906060010390fd5b8551634b637e8f60e11b8152808301869052602490fd5b8480fd5b919050346104fe57826003193601126104fe57805183819490845461043281610a20565b91828552602096600192886001821691826000146104d4575050600114610479575b858861047589610466848a0385610a8c565b519282849384528301906109af565b0390f35b815286935091907f8a35acfbc15ff81a39ae7d344fd709f28e8600b4aa8c65c6b64bfe7fe36bd19b5b8284106104bc575050508201018161046661047538610454565b8054848a0186015288955087949093019281016104a2565b60ff19168882015294151560051b8701909401945085935061046692506104759150389050610454565b8280fd5b919050346104fe57826003193601126104fe5761053e7f0000000000000000000000000000000000000000000000000000000000000000610eeb565b926105687f0000000000000000000000000000000000000000000000000000000000000000610fef565b90825192602092602085019585871067ffffffffffffffff88111761060f57509260206105c58388966105b8998b9996528686528151998a99600f60f81b8b5260e0868c015260e08b01906109af565b91898303908a01526109af565b924660608801523060808801528460a088015286840360c088015251928381520193925b8281106105f857505050500390f35b8351855286955093810193928101926001016105e9565b634e487b7160e01b845260419052602483fd5b5050346101075760203660031901126101075760209181906001600160a01b0361064a6109ef565b1681526007845220549051908152f35b5050346101075760203660031901126101075760209181906001600160a01b036106826109ef565b16815280845220549051908152f35b919050346104fe57806003193601126104fe576106ac6109ef565b60085460243592916001600160a01b0391821633036107455716928315610730576002549083820180921161071d575084927fddf252ad1be2c89b69c2b068fc378daa952ba7f163c4a11628f55a4df523b3ef9260209260025585855284835280852082815401905551908152a380f35b634e487b7160e01b865260119052602485fd5b84602492519163ec442f0560e01b8352820152fd5b8580fd5b505034610107578160031936011261010757602090610766610c4f565b9051908152f35b5050346101075781600319360112610107576020905160128152f35b90508234610326576060366003190112610326576107a56109ef565b6107ad610a0a565b91604435936107bc8484610acf565b15610107576001600160a01b038316808352600160209081528784203385529052868320549160001983106107fa575b60208861031f898989610e0d565b86831061086257811561084b5733156108345750825260016020908152868320338452815291869020908590039055829061031f876107ec565b8751634a1406b160e11b8152908101849052602490fd5b875163e602df0560e01b8152908101849052602490fd5b8751637dc7a0d960e11b8152339181019182526020820193909352604081018790528291506060010390fd5b5050346101075781600319360112610107576020906002549051908152f35b50503461010757806003193601126101075760209061031f6108cd6109ef565b6024359033610d7a565b84843461010757816003193601126101075782826003546108f781610a20565b908184526020956001918760018216918260001461098857505060011461092c575b5050506104759291610466910385610a8c565b9190869350600383527fc2575a0e9e593c00f959f8c92f12db2869c3395a3b0502d05e2516446f71f85b5b8284106109705750505082010181610466610475610919565b8054848a018601528895508794909301928101610957565b60ff19168782015293151560051b8601909301935084925061046691506104759050610919565b919082519283825260005b8481106109db575050826000602080949584010152601f8019910116010190565b6020818301810151848301820152016109ba565b600435906001600160a01b0382168203610a0557565b600080fd5b602435906001600160a01b0382168203610a0557565b90600182811c92168015610a50575b6020831014610a3a57565b634e487b7160e01b600052602260045260246000fd5b91607f1691610a2f565b6040810190811067ffffffffffffffff821117610a7657604052565b634e487b7160e01b600052604160045260246000fd5b90601f8019910116810190811067ffffffffffffffff821117610a7657604052565b51906001600160a01b0382168203610a0557565b51908115158203610a0557565b600954604080516324b9c44160e21b81526001600160a01b0393841660048201819052939290916101209182908490602490829088165afa918215610c44576000938493610b4b575b505050610b285750505050600090565b602001518116918214928315610b3f575b50505090565b16149050388080610b39565b818193959294503d8511610c3d575b610b648183610a8c565b810103928312610326576101008093126103265783519383850185811067ffffffffffffffff821117610c29578152610b9c83610aae565b8552610baa60208401610aae565b6020860152610bba818401610aae565b90850152610bca60608301610aae565b6060850152610bdb60808301610aae565b6080850152610bec60a08301610ac2565b60a0850152610bfd60c08301610ac2565b60c085015260e0820151906003821015610326575060e0840152610c219101610ac2565b388080610b18565b634e487b7160e01b83526041600452602483fd5b503d610b5a565b50513d6000823e3d90fd5b307f00000000000000000000000000000000000000000000000000000000000000006001600160a01b03161480610d51575b15610caa577f000000000000000000000000000000000000000000000000000000000000000090565b60405160208101907f8b73c3c69bb8fe3d512ecc4cf759cc79239f7b179b0ffacaa9a75d522b39400f82527f000000000000000000000000000000000000000000000000000000000000000060408201527f000000000000000000000000000000000000000000000000000000000000000060608201524660808201523060a082015260a0815260c0810181811067ffffffffffffffff821117610a765760405251902090565b507f00000000000000000000000000000000000000000000000000000000000000004614610c81565b6001600160a01b03908116918215610df45716918215610ddb5760207f8c5be1e5ebec7d5bd14f71427d1e84f3dd0314c0f7b2291e5b200ac8c7c3b925918360005260018252604060002085600052825280604060002055604051908152a3565b604051634a1406b160e11b815260006004820152602490fd5b60405163e602df0560e01b815260006004820152602490fd5b916001600160a01b03808416928315610ed25716928315610eb95760009083825281602052604082205490838210610e87575091604082827fddf252ad1be2c89b69c2b068fc378daa952ba7f163c4a11628f55a4df523b3ef958760209652828652038282205586815220818154019055604051908152a3565b60405163391434e360e21b81526001600160a01b03919091166004820152602481019190915260448101839052606490fd5b60405163ec442f0560e01b815260006004820152602490fd5b604051634b637e8f60e11b815260006004820152602490fd5b60ff8114610f295760ff811690601f8211610f175760405191610f0d83610a5a565b8252602082015290565b604051632cd44ac360e21b8152600490fd5b50604051600554816000610f3c83610a20565b80835292602090600190818116908115610fcb5750600114610f6a575b5050610f6792500382610a8c565b90565b91509260056000527f036b6384b5eca791c62761152d0c79bb0604c104a5fb6f4eb0703f3154bb3db0936000925b828410610fb35750610f679450505081016020013880610f59565b85548785018301529485019486945092810192610f98565b91505060209250610f6794915060ff191682840152151560051b8201013880610f59565b60ff81146110115760ff811690601f8211610f175760405191610f0d83610a5a565b5060405160065481600061102483610a20565b80835292602090600190818116908115610fcb575060011461104e575050610f6792500382610a8c565b91509260066000527ff652222313e28459528d920b65115c16c04f3efc82aaedc97be59f3f377c0d3f936000925b8284106110975750610f679450505081016020013880610f59565b8554878501830152948501948694509281019261107c565b91907f7fffffffffffffffffffffffffffffff5d576e7357a4501ddfe92f46681b20a0841161113357926020929160ff608095604051948552168484015260408301526060820152600092839182805260015afa156111275780516001600160a01b0381161561111e57918190565b50809160019190565b604051903d90823e3d90fd5b50505060009160039190565b60048110156111ae5780611151575050565b6001810361116b5760405163f645eedf60e01b8152600490fd5b6002810361118c5760405163fce698f760e01b815260048101839052602490fd5b6003146111965750565b602490604051906335e2f38360e21b82526004820152fd5b634e487b7160e01b600052602160045260246000fdfea264697066735822122059d74b869f50de5f6e6b1835b1e542232b94ad8309fc78b1c2d98093f5be3bf864736f6c634300081800339016d09d72d40fdae2fd8ceac6b6234c7706214fd39c1cd1e609a0528c1993009b779b17422d0df92223018b32b4d1fa46e071723d6817e2486d003becc55f00a2646970667358221220719ede218b610bf98bdda7aecdd9700ddd6518f943b4654e24d6a1b88c19e2c364736f6c63430008180033",
  "linkReferences": {},
  "deployedLinkReferences": {}
}