{
  "_format": "hh-sol-artifact-1",
  "contractName": "Bridge",
  "sourceName": "contracts/Bridge.sol",
  "abi": [
    {
      "inputs": [
        {
          "internalType": "address",
          "name": "target",
          "type": "address"
        }
      ],
      "name": "AddressEmptyCode",
      "type": "error"
    },
    {
      "inputs": [],
      "name": "ECDSAInvalidSignature",
      "type": "error"
    },
    {
      "inputs": [
        {
          "internalType": "uint256",
          "name": "length",
          "type": "uint256"
        }
      ],
      "name": "ECDSAInvalidSignatureLength",
      "type": "error"
    },
    {
      "inputs": [
        {
          "internalType": "bytes32",
          "name": "s",
          "type": "bytes32"
        }
      ],
      "name": "ECDSAInvalidSignatureS",
      "type": "error"
    },
    {
      "inputs": [
        {
          "internalType": "address",
          "name": "implementation",
          "type": "address"
        }
      ],
      "name": "ERC1967InvalidImplementation",
      "type": "error"
    },
    {
      "inputs": [],
      "name": "ERC1967NonPayable",
      "type": "error"
    },
    {
      "inputs": [],
      "name": "FailedCall",
      "type": "error"
    },
    {
      "inputs": [],
      "name": "InvalidInitialization",
      "type": "error"
    },
    {
      "inputs": [],
      "name": "NotInitializing",
      "type": "error"
    },
    {
      "inputs": [
        {
          "internalType": "address",
          "name": "owner",
          "type": "address"
        }
      ],
      "name": "OwnableInvalidOwner",
      "type": "error"
    },
    {
      "inputs": [
        {
          "internalType": "address",
          "name": "account",
          "type": "address"
        }
      ],
      "name": "OwnableUnauthorizedAccount",
      "type": "error"
    },
    {
      "inputs": [],
      "name": "UUPSUnauthorizedCallContext",
      "type": "error"
    },
    {
      "inputs": [
        {
          "internalType": "bytes32",
          "name": "slot",
          "type": "bytes32"
        }
      ],
      "name": "UUPSUnsupportedProxiableUUID",
      "type": "error"
    },
    {
      "anonymous": false,
      "inputs": [
        {
          "indexed": true,
          "internalType": "address",
          "name": "token",
          "type": "address"
        },
        {
          "indexed": false,
          "internalType": "uint256",
          "name": "amount",
          "type": "uint256"
        }
      ],
      "name": "FeesCollected",
      "type": "event"
    },
    {
      "anonymous": false,
      "inputs": [
        {
          "indexed": false,
          "internalType": "uint64",
          "name": "version",
          "type": "uint64"
        }
      ],
      "name": "Initialized",
      "type": "event"
    },
    {
      "anonymous": false,
      "inputs": [
        {
          "indexed": true,
          "internalType": "address",
          "name": "previousOwner",
          "type": "address"
        },
        {
          "indexed": true,
          "internalType": "address",
          "name": "newOwner",
          "type": "address"
        }
      ],
      "name": "OwnershipTransferred",
      "type": "event"
    },
    {
      "anonymous": false,
      "inputs": [
        {
          "indexed": true,
          "internalType": "address",
          "name": "user",
          "type": "address"
        },
        {
          "indexed": true,
          "internalType": "address",
          "name": "originalToken",
          "type": "address"
        },
        {
          "indexed": false,
          "internalType": "uint256",
          "name": "amount",
          "type": "uint256"
        }
      ],
      "name": "TokensLocked",
      "type": "event"
    },
    {
      "anonymous": false,
      "inputs": [
        {
          "indexed": true,
          "internalType": "address",
          "name": "user",
          "type": "address"
        },
        {
          "indexed": false,
          "internalType": "address",
          "name": "wrappedToken",
          "type": "address"
        },
        {
          "indexed": false,
          "internalType": "uint256",
          "name": "amount",
          "type": "uint256"
        }
      ],
      "name": "TokensWrapped",
      "type": "event"
    },
    {
      "anonymous": false,
      "inputs": [
        {
          "indexed": true,
          "internalType": "address",
          "name": "originalToken",
          "type": "address"
        },
        {
          "indexed": false,
          "internalType": "address",
          "name": "targetAddress",
          "type": "address"
        },
        {
          "indexed": false,
          "internalType": "uint256",
          "name": "amount",
          "type": "uint256"
        },
        {
          "indexed": true,
          "internalType": "address",
          "name": "user",
          "type": "address"
        }
      ],
      "name": "UnwrapCrossChain",
      "type": "event"
    },
    {
      "anonymous": false,
      "inputs": [
        {
          "indexed": true,
          "internalType": "address",
          "name": "implementation",
          "type": "address"
        }
      ],
      "name": "Upgraded",
      "type": "event"
    },
    {
      "inputs": [],
      "name": "FEE_DENOMINATOR",
      "outputs": [
        {
          "internalType": "uint256",
          "name": "",
          "type": "uint256"
        }
      ],
      "stateMutability": "view",
      "type": "function"
    },
    {
      "inputs": [],
      "name": "UPGRADE_INTERFACE_VERSION",
      "outputs": [
        {
          "internalType": "string",
          "name": "",
          "type": "string"
        }
      ],
      "stateMutability": "view",
      "type": "function"
    },
    {
      "inputs": [
        {
          "internalType": "address",
          "name": "originalToken",
          "type": "address"
        },
        {
          "internalType": "address",
          "name": "wrappedToken",
          "type": "address"
        },
        {
          "internalType": "bool",
          "name": "_isCrossChain",
          "type": "bool"
        }
      ],
      "name": "addTokenPair",
      "outputs": [],
      "stateMutability": "nonpayable",
      "type": "function"
    },
    {
      "inputs": [],
      "name": "feeCollector",
      "outputs": [
        {
          "internalType": "address",
          "name": "",
          "type": "address"
        }
      ],
      "stateMutability": "view",
      "type": "function"
    },
    {
      "inputs": [],
      "name": "feePercentage",
      "outputs": [
        {
          "internalType": "uint256",
          "name": "",
          "type": "uint256"
        }
      ],
      "stateMutability": "view",
      "type": "function"
    },
    {
      "inputs": [
        {
          "internalType": "address",
          "name": "_keyLogRegistry",
          "type": "address"
        }
      ],
      "name": "initialize",
      "outputs": [],
      "stateMutability": "nonpayable",
      "type": "function"
    },
    {
      "inputs": [
        {
          "internalType": "address",
          "name": "",
          "type": "address"
        }
      ],
      "name": "isCrossChain",
      "outputs": [
        {
          "internalType": "bool",
          "name": "",
          "type": "bool"
        }
      ],
      "stateMutability": "view",
      "type": "function"
    },
    {
      "inputs": [],
      "name": "keyLogRegistry",
      "outputs": [
        {
          "internalType": "contract KeyLogRegistry",
          "name": "",
          "type": "address"
        }
      ],
      "stateMutability": "view",
      "type": "function"
    },
    {
      "inputs": [
        {
          "internalType": "address",
          "name": "originalToken",
          "type": "address"
        },
        {
          "internalType": "uint256",
          "name": "amount",
          "type": "uint256"
        },
        {
          "internalType": "bytes",
          "name": "publicKey",
          "type": "bytes"
        },
        {
          "internalType": "address",
          "name": "prerotatedKeyHash",
          "type": "address"
        },
        {
          "internalType": "address",
          "name": "twicePrerotatedKeyHash",
          "type": "address"
        }
      ],
      "name": "lockCrossChain",
      "outputs": [],
      "stateMutability": "nonpayable",
      "type": "function"
    },
    {
      "inputs": [
        {
          "internalType": "address",
          "name": "wrappedToken",
          "type": "address"
        },
        {
          "internalType": "address",
          "name": "user",
          "type": "address"
        },
        {
          "internalType": "uint256",
          "name": "amount",
          "type": "uint256"
        }
      ],
      "name": "mintWrappedToken",
      "outputs": [],
      "stateMutability": "nonpayable",
      "type": "function"
    },
    {
      "inputs": [
        {
          "internalType": "address",
          "name": "wrappedToken",
          "type": "address"
        },
        {
          "internalType": "address",
          "name": "user",
          "type": "address"
        },
        {
          "internalType": "uint256",
          "name": "amount",
          "type": "uint256"
        },
        {
          "internalType": "bytes32",
          "name": "lockHash",
          "type": "bytes32"
        }
      ],
      "name": "mintWrappedTokenWithLock",
      "outputs": [],
      "stateMutability": "nonpayable",
      "type": "function"
    },
    {
      "inputs": [
        {
          "internalType": "address",
          "name": "",
          "type": "address"
        }
      ],
      "name": "nonces",
      "outputs": [
        {
          "internalType": "uint256",
          "name": "",
          "type": "uint256"
        }
      ],
      "stateMutability": "view",
      "type": "function"
    },
    {
      "inputs": [
        {
          "internalType": "address",
          "name": "",
          "type": "address"
        }
      ],
      "name": "originalToWrapped",
      "outputs": [
        {
          "internalType": "address",
          "name": "",
          "type": "address"
        }
      ],
      "stateMutability": "view",
      "type": "function"
    },
    {
      "inputs": [],
      "name": "owner",
      "outputs": [
        {
          "internalType": "address",
          "name": "",
          "type": "address"
        }
      ],
      "stateMutability": "view",
      "type": "function"
    },
    {
      "inputs": [
        {
          "internalType": "bytes32",
          "name": "",
          "type": "bytes32"
        }
      ],
      "name": "processedLocks",
      "outputs": [
        {
          "internalType": "bool",
          "name": "",
          "type": "bool"
        }
      ],
      "stateMutability": "view",
      "type": "function"
    },
    {
      "inputs": [],
      "name": "proxiableUUID",
      "outputs": [
        {
          "internalType": "bytes32",
          "name": "",
          "type": "bytes32"
        }
      ],
      "stateMutability": "view",
      "type": "function"
    },
    {
      "inputs": [],
      "name": "relayer",
      "outputs": [
        {
          "internalType": "address",
          "name": "",
          "type": "address"
        }
      ],
      "stateMutability": "view",
      "type": "function"
    },
    {
      "inputs": [],
      "name": "renounceOwnership",
      "outputs": [],
      "stateMutability": "nonpayable",
      "type": "function"
    },
    {
      "inputs": [
        {
          "internalType": "address",
          "name": "_feeCollector",
          "type": "address"
        }
      ],
      "name": "setFeeCollector",
      "outputs": [],
      "stateMutability": "nonpayable",
      "type": "function"
    },
    {
      "inputs": [
        {
          "internalType": "uint256",
          "name": "_feePercentage",
          "type": "uint256"
        }
      ],
      "name": "setFeePercentage",
      "outputs": [],
      "stateMutability": "nonpayable",
      "type": "function"
    },
    {
      "inputs": [
        {
          "internalType": "address",
          "name": "_relayer",
          "type": "address"
        }
      ],
      "name": "setRelayer",
      "outputs": [],
      "stateMutability": "nonpayable",
      "type": "function"
    },
    {
      "inputs": [
        {
          "internalType": "address",
          "name": "newOwner",
          "type": "address"
        }
      ],
      "name": "transferOwnership",
      "outputs": [],
      "stateMutability": "nonpayable",
      "type": "function"
    },
    {
      "inputs": [
        {
          "internalType": "address",
          "name": "wrappedToken",
          "type": "address"
        },
        {
          "internalType": "uint256",
          "name": "amount",
          "type": "uint256"
        },
        {
          "internalType": "bytes",
          "name": "signature",
          "type": "bytes"
        },
        {
          "internalType": "bytes",
          "name": "publicKey",
          "type": "bytes"
        },
        {
          "internalType": "address",
          "name": "prerotatedKeyHash",
          "type": "address"
        },
        {
          "internalType": "address",
          "name": "twicePrerotatedKeyHash",
          "type": "address"
        },
        {
          "internalType": "address",
          "name": "prevPublicKeyHash",
          "type": "address"
        },
        {
          "internalType": "address",
          "name": "targetAddress",
          "type": "address"
        },
        {
          "internalType": "bool",
          "name": "hasRelationship",
          "type": "bool"
        }
      ],
      "name": "unwrap",
      "outputs": [],
      "stateMutability": "nonpayable",
      "type": "function"
    },
    {
      "inputs": [
        {
          "internalType": "address",
          "name": "newImplementation",
          "type": "address"
        },
        {
          "internalType": "bytes",
          "name": "data",
          "type": "bytes"
        }
      ],
      "name": "upgradeToAndCall",
      "outputs": [],
      "stateMutability": "payable",
      "type": "function"
    },
    {
      "inputs": [
        {
          "internalType": "address",
          "name": "originalToken",
          "type": "address"
        },
        {
          "internalType": "uint256",
          "name": "amount",
          "type": "uint256"
        },
        {
          "internalType": "bytes",
          "name": "signature",
          "type": "bytes"
        },
        {
          "internalType": "bytes",
          "name": "publicKey",
          "type": "bytes"
        },
        {
          "internalType": "address",
          "name": "prerotatedKeyHash",
          "type": "address"
        },
        {
          "internalType": "address",
          "name": "twicePrerotatedKeyHash",
          "type": "address"
        },
        {
          "internalType": "address",
          "name": "prevPublicKeyHash",
          "type": "address"
        },
        {
          "internalType": "address",
          "name": "outputAddress",
          "type": "address"
        },
        {
          "internalType": "bool",
          "name": "hasRelationship",
          "type": "bool"
        }
      ],
      "name": "wrap",
      "outputs": [],
      "stateMutability": "nonpayable",
      "type": "function"
    },
    {
      "inputs": [
        {
          "internalType": "address",
          "name": "originalToken",
          "type": "address"
        },
        {
          "internalType": "uint256",
          "name": "unconfirmedAmount",
          "type": "uint256"
        },
        {
          "internalType": "bytes",
          "name": "unconfirmedSignature",
          "type": "bytes"
        },
        {
          "internalType": "bytes",
          "name": "unconfirmedPublicKey",
          "type": "bytes"
        },
        {
          "internalType": "address",
          "name": "unconfirmedPrerotatedKeyHash",
          "type": "address"
        },
        {
          "internalType": "address",
          "name": "unconfirmedTwicePrerotatedKeyHash",
          "type": "address"
        },
        {
          "internalType": "address",
          "name": "unconfirmedPrevPublicKeyHash",
          "type": "address"
        },
        {
          "internalType": "address",
          "name": "unconfirmedOutputAddress",
          "type": "address"
        },
        {
          "internalType": "bool",
          "name": "unconfirmedHasRelationship",
          "type": "bool"
        },
        {
          "internalType": "uint256",
          "name": "confirmingAmount",
          "type": "uint256"
        },
        {
          "internalType": "bytes",
          "name": "confirmingSignature",
          "type": "bytes"
        },
        {
          "internalType": "bytes",
          "name": "confirmingPublicKey",
          "type": "bytes"
        },
        {
          "internalType": "address",
          "name": "confirmingPrerotatedKeyHash",
          "type": "address"
        },
        {
          "internalType": "address",
          "name": "confirmingTwicePrerotatedKeyHash",
          "type": "address"
        },
        {
          "internalType": "address",
          "name": "confirmingPrevPublicKeyHash",
          "type": "address"
        },
        {
          "internalType": "address",
          "name": "confirmingOutputAddress",
          "type": "address"
        },
        {
          "internalType": "bool",
          "name": "confirmingHasRelationship",
          "type": "bool"
        }
      ],
      "name": "wrapPair",
      "outputs": [],
      "stateMutability": "nonpayable",
      "type": "function"
    },
    {
      "inputs": [
        {
          "internalType": "address",
          "name": "",
          "type": "address"
        }
      ],
      "name": "wrappedToOriginal",
      "outputs": [
        {
          "internalType": "address",
          "name": "",
          "type": "address"
        }
      ],
      "stateMutability": "view",
      "type": "function"
    }
  ],
  "bytecode": "0x60a0806040523461002a573060805261243790816100308239608051818181610de90152610ea10152f35b600080fdfe61010080604052600436101561001457600080fd5b600060c05260c0513560e01c908163081da8c114611cd05750806309765f5314611c9d57806321deec4f14611b5d578063334976c714611ab957806333868f0b1461145a578063437ce5cf146110935780634f1ef28614610e5357806352d1902d14610dd55780635bf5520914610bec5780636548e9bc14610ba8578063715018a614610b395780637c0db61014610afc5780637ecebe0014610ac05780638406c07914610a965780638da5cb5b14610a5f578063931b6b60146108d3578063a001ecdd146108b4578063a42dce801461082c578063a8bc3e0a146107eb578063ad3cb1cc1461073e578063ae06c1b7146106dc578063b5057a7b146106b1578063b7a5b0e91461033b578063c415b95c14610311578063c4d66de8146101a2578063d73792a9146101845763f2fde38b1461014f57600080fd5b3461017e57602036600319011261017e5761017861016b611d0a565b6101736121b3565b61213f565b60c05180f35b60c05180fd5b3461017e5760c05136600319011261017e5760206040516127108152f35b3461017e57602036600319011261017e576101bb611d0a565b7ff0c57e16840df040f15088dc2f81fe391c3923bec73e23a9662efc9c229c6a009081549060ff8260401c1615916001600160401b03811680159081610309575b60011490816102ff575b1590816102f6575b506102e45767ffffffffffffffff1981166001178455826102c5575b506102336122ad565b61023b6122ad565b6102443361213f565b61024c6122ad565b6001600160601b0360a01b9060018060a01b03168160c05154161760c051553390600654161760065560646007556102845760c05180f35b68ff00000000000000001981541690557fc7f505b2f371ae2175ee4913f4499e1f2633a7b5936321eed1cdaeb6115181d2602060405160018152a180610178565b68ffffffffffffffffff1916680100000000000000011783558361022a565b60405163f92ee8a960e01b8152600490fd5b9050158561020e565b303b159150610206565b8491506101fc565b3461017e5760c05136600319011261017e576006546040516001600160a01b039091168152602090f35b3461017e5761034936611d79565b958495939294919a97600160a09b9a9b1b60019003891660c051526003602052600160a01b6001900360c0516040902054169a8b151561038890611ea9565b3360c0515260056020528a8d60c05160409020908154916103a883611fda565b90558c60405192839260208401956103c09387611ef5565b03601f19810182526103d29082611e36565b51902060c0517f19457468657265756d205369676e6564204d6573736167653a0a3332000000009052601c5260c051603c902091369061041192611e72565b61041a916121ec565b61042391612228565b610437906001600160a01b03163314611fe9565b600160a01b6001900360c05154169384888d6040519586928392633b583edb60e21b84528b8a3394898b600489019761046f98612041565b03815a93602094fa92831561062f5760c05193610680575b506003831015610668576104a160016104a89414156120a7565b3691611e72565b80516020909101206001600160a01b031693823b1561017e576104e88a96604051978896879586956355d3ea9960e01b875260c0519a33600489016120fd565b039160c051905af1801561062f57610652575b506001600160a01b0381163b1561017e57604051632770a7eb60e21b815260c0805133600484015260248301859052905191929091839160449183916001600160a01b03165af1801561062f5761063c575b508160c05152600460205260ff604060c0512054166000146105af57604080516001600160a01b03949094168452602084019190915233927fcca356c69c0991b2f138fe7c7f64cf9be89604118a06017a49e0001782bc65369190a360c05180f35b60405163a9059cbb60e01b81526001600160a01b03939093166004840152602483015260c05160209183916044918391905af1801561062f576105fb9160c05191610600575b50611f5a565b610178565b610622915060203d602011610628575b61061a8183611e36565b810190611f42565b826105f5565b503d610610565b6040513d60c051823e3d90fd5b61064590611e23565b60c05161017e578361054d565b61065b90611e23565b60c05161017e57846104fb565b634e487b7160e01b60c051526021600452602460c051fd5b6106a391935060203d6020116106aa575b61069b8183611e36565b810190612029565b918c610487565b503d610691565b3461017e5760c05136600319011261017e5760c051546040516001600160a01b039091168152602090f35b3461017e57602036600319011261017e576004356106f86121b3565b612710811161070a5760075560c05180f35b60405162461bcd60e51b815260206004820152600c60248201526b08ccaca40e8dede40d0d2ced60a31b6044820152606490fd5b3461017e5760c05136600319011261017e57604051604081018181106001600160401b038211176107d55760405260058152602090640352e302e360dc1b602082015260405180926020825282519081602084015260c051935b8285106107bc5750506040925060c051838284010152601f80199101168101030190f35b8481018201518686016040015293810193859350610798565b634e487b7160e01b600052604160045260246000fd5b3461017e57602036600319011261017e576001600160a01b0361080c611d0a565b1660c051526004602052602060ff604060c0512054166040519015158152f35b3461017e57602036600319011261017e57610845611d0a565b61084d6121b3565b6001600160a01b03168015610877576001600160601b0360a01b600654161760065560c05160c051f35b60405162461bcd60e51b815260206004820152601560248201527424b73b30b634b2103332b29031b7b63632b1ba37b960591b6044820152606490fd5b3461017e5760c05136600319011261017e576020600754604051908152f35b3461017e5760a036600319011261017e576108ec611d0a565b6024356044356001600160401b03811161017e5761090e903690600401611d4c565b90926001600160a01b03606435818116939290849003610a5a5781610931611d36565b6040516323b872dd60e01b81523360048201523060248201526044810188905291909216966020828060648101038160c0518c5af190811561062f5761098461099292869460c05191610a3b5750611f5a565b8260c0515416953691611e72565b602081519101201693833b1561017e57604051946355d3ea9960e01b865233600487015260248601526044850152166064830152600060848301523360a4830152600060c48301528160e48160c0519360c051905af1801561062f57610a25575b506040519081527ee8ffc569c5f605999e8ad11ec9db2ef2254b66370f5b963df609fa59854eb260203392a360c05180f35b610a2e90611e23565b60c05161017e57826109f3565b610a54915060203d6020116106285761061a8183611e36565b8b6105f5565b600080fd5b3461017e5760c05136600319011261017e576000805160206123e2833981519152546040516001600160a01b039091168152602090f35b3461017e5760c05136600319011261017e576001546040516001600160a01b039091168152602090f35b3461017e57602036600319011261017e576001600160a01b03610ae1611d0a565b1660c0515260056020526020604060c0512054604051908152f35b3461017e57602036600319011261017e5760206001600160a01b0380610b20611d0a565b1660c0515260038252604060c051205416604051908152f35b3461017e5760c05136600319011261017e57610b536121b3565b6000805160206123e283398151915280546001600160a01b031981169091556000906001600160a01b03167f8be0079c531659141344cd1fd0a4f28419497f9722a3daafe3b4186f6b6457e08280a360c05180f35b3461017e57602036600319011261017e57610bc1611d0a565b610bc96121b3565b60018060a01b03166001600160601b0360a01b600154161760015560c05160c051f35b3461017e57608036600319011261017e57610c05611d0a565b610c0d611d20565b60643591604435610c1c6121b3565b8360c051526020936008855260ff604060c051205416610d975760c0515260088452604060c05120600160ff19825416179055610c69612710610c6160075484611f22565b048092611f35565b9160018060a01b03809116948560c051526003815281604060c0512054169280610cf8575b50505050823b1561017e576040516340c10f1960e01b815260c0516001600160a01b0390931660048201526024810191909152918290818060448101039160c051905af1801561062f57610ce25760c05180f35b610ceb90611e23565b60c05161017e5780610178565b60065460405163a9059cbb60e01b815293166001600160a01b031660048401526024830181905281838060448101038160c051885af192831561062f577f9dc46f23cfb5ddcad0ae7ea2be38d47fec07bb9382ec7e564efc69e036dd66ce93610d6a9160c05191610d7a575b50611f98565b604051908152a283808080610c8e565b610d919150843d86116106285761061a8183611e36565b89610d64565b60405162461bcd60e51b8152600481018690526016602482015275131bd8dac8185b1c9958591e481c1c9bd8d95cdcd95960521b6044820152606490fd5b3461017e5760c05136600319011261017e577f00000000000000000000000000000000000000000000000000000000000000006001600160a01b03163003610e415760206040517f360894a13ba1a3210667c828492db98dca3e2076cc3735a920a3ca505d382bbc8152f35b60405163703e46dd60e11b8152600490fd5b604036600319011261017e57610e67611d0a565b6024356001600160401b03811161017e573660238201121561017e57610e97903690602481600401359101611e72565b6001600160a01b037f00000000000000000000000000000000000000000000000000000000000000008116308114908115611065575b50610e4157610eda6121b3565b821691604051916352d1902d60e01b83526020928381600481885afa60c0519181611036575b50610f1e57604051634c9c8ce360e01b815260048101869052602490fd5b7f360894a13ba1a3210667c828492db98dca3e2076cc3735a920a3ca505d382bbc9081810361101e5750823b1561100557846001600160601b0360a01b825416179055604051937fbc7cd75a20ee27fd9adebab32041f755214dbc6bffa90cc0225b39da2e5c2d3b60c05160c051a2805115610fe857610fd8935060c0519060c051908481519101845af4903d15610fdf573d92610fbb84611e57565b93610fc96040519586611e36565b845260c0513d9185013e61237e565b5060c05180f35b6060925061237e565b50505034610ff65750610178565b63b398979f60e01b8152600490fd5b604051634c9c8ce360e01b815260048101869052602490fd5b60249060405190632a87526960e21b82526004820152fd5b9091508481813d831161105e575b61104e8183611e36565b8101031261017e57519086610f00565b503d611044565b9050817f360894a13ba1a3210667c828492db98dca3e2076cc3735a920a3ca505d382bbc5416141584610ecd565b3461017e576110a136611d79565b9584959392949199989a97600160a01b60019003891660c051526002602052600160a01b6001900360c0516040902054169b8c15156110df90611ea9565b3360c0515260056020528a60c051604090208054906110fd82611fda565b90558d8c60405192839260208401956111169387611ef5565b03601f19810182526111289082611e36565b51902060c0517f19457468657265756d205369676e6564204d6573736167653a0a3332000000009052601c5260c051603c902091369061116792611e72565b611170916121ec565b61117991612228565b61118d906001600160a01b03163314611fe9565b600160a01b6001900360c05154169384888c6040519586928392633b583edb60e21b84528b8a3394898b60048901976111c598612041565b03815a93602094fa92831561062f5760c05193611439575b506003831015610668576104a160016111f79414156120a7565b80516020909101206001600160a01b031693823b1561017e576112378996604051978896879586956355d3ea9960e01b875260c0519a33600489016120fd565b039160c051905af1801561062f57611423575b5061271061125a60075484611f22565b0490611299602061126b8486611f35565b6040516323b872dd60e01b815233600482015230602482015260448101969096529491829081906064820190565b038160c05160018060a01b0387165af1801561062f576112c19160c051916114045750611f5a565b81611374575b5050823b1561017e576040516340c10f1960e01b815260c0516001600160a01b038416600483015260248201839052818060448101038160c051885af1801561062f5761135e575b50604080516001600160a01b039485168152602081019290925291909216917fb5187db8729022d088cc50f8b09bdeaec0ac84d7686d287a7dd82dc25704f7f391819081015b0390a260c05180f35b61136790611e23565b60c05161017e578361130f565b60065460405163a9059cbb60e01b81526001600160a01b0391821660048201526024810184905260c0519092916020918491604491839186165af190811561062f576113ec6020927f9dc46f23cfb5ddcad0ae7ea2be38d47fec07bb9382ec7e564efc69e036dd66ce9460c05191610d7a5750611f98565b6040519384526001600160a01b031692a283806112c7565b61141d915060203d6020116106285761061a8183611e36565b876105f5565b61142c90611e23565b60c05161017e578461124a565b61145391935060203d6020116106aa5761069b8183611e36565b918c6111dd565b3461017e5761022036600319011261017e57611474611d0a565b60a0526044356001600160401b03811161017e57611496903690600401611d4c565b906064356001600160401b03811161017e576114b6903690600401611d4c565b91906114c0611d36565b60a4356001600160a01b0381168103610a5a5760c4356001600160a01b0381168103610a5a5760e4356001600160a01b0381169003610a5a5761010435918215158303610a5a57610144356001600160401b03811161017e57611527903690600401611d4c565b959098610164356001600160401b03811161017e5761154a903690600401611d4c565b6080919091529961018435976001600160a01b0389168903610a5a576101a435996001600160a01b038b168b03610a5a576101c4356001600160a01b0381169003610a5a576101e4356001600160a01b0381169003610a5a576102043515156102043503610a5a5760a05160c080516001600160a01b03928316905260026020525160409020541660e08190526115e2901515611ea9565b3360c051526005602052604060c0512090815494600286018611611a5c5761167761167d9261168694600289019055604051602081019061163e816116308c60e43560243560a05188611ef5565b03601f198101835282611e36565b5190207f19457468657265756d205369676e6564204d6573736167653a0a33320000000060c05152601c52603c60c05120923691611e72565b906121ec565b90929192612228565b336001600160a01b0390911603611a7457600183018311611a5c5761167761167d926116cf9460405161163e8161163060016020830195016101e4356101243560a05188611ef5565b336001600160a01b0390911603611a175760c051546001600160a01b03169761171b916116fd913691611e72565b80516020909101206080516001600160a01b03909116993691611e72565b80516020909101206001600160a01b031693873b1561017e57604051633051a2b360e21b815233600482015260248101999099526001600160a01b0390811660448a01529081166064890152908116608488015260e48035821660a489015291151560c4880152908601919091529081166101048501529081166101248401526101c43581166101448401526101e4351661016483015261020435151561018483015260c0519082906101a490829084905af1801561062f57611a01575b50610124356024350180602435116119eb576127106117fa60075483611f22565b04611838602061180a8385611f35565b6040516323b872dd60e01b815233600482015230602482015260448101959095529391829081906064820190565b038160c05160018060a01b0360a051165af1801561062f576118629160c051916119cc5750611f5a565b8061191a575b5060e0513b1561017e576040516340c10f1960e01b815260c0516001600160a01b0360e43516600483015260248201839052818060448101038160c05160e0515af1801561062f57611904575b506040805160e0516001600160a01b039081168252602082019390935260e435909216917fb5187db8729022d088cc50f8b09bdeaec0ac84d7686d287a7dd82dc25704f7f39181908101611355565b61190d90611e23565b60c05161017e57816118b5565b60065460405163a9059cbb60e01b81526001600160a01b0391821660048201526024810183905260c05160a051919260209284926044928492165af1801561062f5761196e9160c051916119ad5750611f98565b60405190815260a0516001600160a01b0316907f9dc46f23cfb5ddcad0ae7ea2be38d47fec07bb9382ec7e564efc69e036dd66ce90602090a281611868565b6119c6915060203d6020116106285761061a8183611e36565b84610d64565b6119e5915060203d6020116106285761061a8183611e36565b846105f5565b634e487b7160e01b600052601160045260246000fd5b611a0a90611e23565b60c05161017e57806117d9565b60405162461bcd60e51b815260206004820152601c60248201527f496e76616c696420636f6e6669726d696e67207369676e6174757265000000006044820152606490fd5b634e487b7160e01b60c051526011600452602460c051fd5b60405162461bcd60e51b815260206004820152601d60248201527f496e76616c696420756e636f6e6669726d6564207369676e61747572650000006044820152606490fd5b3461017e57606036600319011261017e57611ad2611d0a565b611ada611d20565b9060443591821515809303610a5a57611af16121b3565b60018060a01b03809216918260c051526002602052604060c0512091166001600160601b0360a01b91818382541617905560c05152600360205281604060c051209182541617905560c051526004602052604060c051209060ff8019835416911617905560c05160c051f35b3461017e57606036600319011261017e57611b76611d0a565b611b7e611d20565b6001546001600160a01b03929083163303611c60578216918260c051526003602052604060c05120541660c05152600460205260ff604060c05120541615611c1b57813b1561017e576040516340c10f1960e01b815260c080516001600160a01b0393909316600483015260448035602484015290519193849283915af1801561062f57611c0c5760c05180f35b611c1590611e23565b80610178565b60405162461bcd60e51b815260206004820152601760248201527f4e6f7420612063726f73732d636861696e20746f6b656e0000000000000000006044820152606490fd5b60405162461bcd60e51b815260206004820152601560248201527413db9b1e481c995b185e595c8818d85b881b5a5b9d605a1b6044820152606490fd5b3461017e57602036600319011261017e5760043560c051526008602052602060ff604060c0512054166040519015158152f35b3461017e57602036600319011261017e576020906001600160a01b0380611cf5611d0a565b1660c0515260028352604060c0512054168152f35b600435906001600160a01b0382168203610a5a57565b602435906001600160a01b0382168203610a5a57565b608435906001600160a01b0382168203610a5a57565b9181601f84011215610a5a578235916001600160401b038311610a5a5760208381860195010111610a5a57565b90610120600319830112610a5a576001600160a01b03906004358281168103610a5a5792602435926001600160401b0392604435848111610a5a5783611dc191600401611d4c565b94909493606435918211610a5a57611ddb91600401611d4c565b929092916084358281168103610a5a579160a4358181168103610a5a579160c4358281168103610a5a579160e4359081168103610a5a5790610104358015158103610a5a5790565b6001600160401b0381116107d557604052565b90601f801991011681019081106001600160401b038211176107d557604052565b6001600160401b0381116107d557601f01601f191660200190565b929192611e7e82611e57565b91611e8c6040519384611e36565b829481845281830111610a5a578281602093846000960137010152565b15611eb057565b60405162461bcd60e51b815260206004820152601860248201527f546f6b656e2070616972206e6f7420737570706f7274656400000000000000006044820152606490fd5b92606894926001600160601b0319809360601b168552601485015260601b16603483015260488201520190565b818102929181159184041417156119eb57565b919082039182116119eb57565b90816020910312610a5a57518015158103610a5a5790565b15611f6157565b60405162461bcd60e51b815260206004820152600f60248201526e151c985b9cd9995c8819985a5b1959608a1b6044820152606490fd5b15611f9f57565b60405162461bcd60e51b8152602060048201526013602482015272119959481d1c985b9cd9995c8819985a5b1959606a1b6044820152606490fd5b60001981146119eb5760010190565b15611ff057565b60405162461bcd60e51b8152602060048201526011602482015270496e76616c6964207369676e617475726560781b6044820152606490fd5b90816020910312610a5a57516003811015610a5a5790565b809793929499989560c097928480600060018060a01b03998a98899788809716815260e060208201528160e082015261010095869384830137010152601f80199101168b01019b1660408a01521660608801521660808601521660a08401521515910152565b156120ae57565b60405162461bcd60e51b815260206004820152602160248201527f5472616e73616374696f6e20726571756972657320636f6e6669726d6174696f6044820152603760f91b6064820152608490fd5b6001600160a01b0391821681529181166020830152918216604082015291811660608301529182166080820152911660a082015290151560c082015260e00190565b6001600160a01b0390811690811561219a576000805160206123e283398151915280546001600160a01b031981168417909155167f8be0079c531659141344cd1fd0a4f28419497f9722a3daafe3b4186f6b6457e0600080a3565b604051631e4fbdf760e01b815260006004820152602490fd5b6000805160206123e2833981519152546001600160a01b031633036121d457565b60405163118cdaa760e01b8152336004820152602490fd5b815191906041830361221d5761221692506020820151906060604084015193015160001a906122ee565b9192909190565b505060009160029190565b6004811015612297578061223a575050565b600181036122545760405163f645eedf60e01b8152600490fd5b600281036122755760405163fce698f760e01b815260048101839052602490fd5b60031461227f5750565b602490604051906335e2f38360e21b82526004820152fd5b634e487b7160e01b600052602160045260246000fd5b60ff7ff0c57e16840df040f15088dc2f81fe391c3923bec73e23a9662efc9c229c6a005460401c16156122dc57565b604051631afcd79f60e31b8152600490fd5b91907f7fffffffffffffffffffffffffffffff5d576e7357a4501ddfe92f46681b20a0841161237257926020929160ff608095604051948552168484015260408301526060820152600092839182805260015afa156123665780516001600160a01b0381161561235d57918190565b50809160019190565b604051903d90823e3d90fd5b50505060009160039190565b906123a5575080511561239357805190602001fd5b60405163d6bda27560e01b8152600490fd5b815115806123d8575b6123b6575090565b604051639996b31560e01b81526001600160a01b039091166004820152602490fd5b50803b156123ae56fe9016d09d72d40fdae2fd8ceac6b6234c7706214fd39c1cd1e609a0528c199300a26469706673582212205d5fa7aeac9dc3f7391b6cadb038f2eb425f80d9b0dcd16654c1fd13e0aa5a8b64736f6c63430008180033",
  "linkReferences": {},
  "deployedLinkReferences": {}
}