{
  "_format": "hh-sol-artifact-1",
  "contractName": "BridgeUpgrade",
  "sourceName": "contracts/BridgeUpgrade.sol",
  "abi": [
    {
      "inputs": [
        {
          "internalType": "address",
          "name": "target",
          "type": "address"
        }
      ],
      "name": "AddressEmptyCode",
      "type": "error"
    },
    {
      "inputs": [],
      "name": "AmountTooLow",
      "type": "error"
    },
    {
      "inputs": [],
      "name": "BurnAmountZero",
      "type": "error"
    },
    {
      "inputs": [],
      "name": "ECDSAInvalidSignature",
      "type": "error"
    },
    {
      "inputs": [
        {
          "internalType": "uint256",
          "name": "length",
          "type": "uint256"
        }
      ],
      "name": "ECDSAInvalidSignatureLength",
      "type": "error"
    },
    {
      "inputs": [
        {
          "internalType": "bytes32",
          "name": "s",
          "type": "bytes32"
        }
      ],
      "name": "ECDSAInvalidSignatureS",
      "type": "error"
    },
    {
      "inputs": [
        {
          "internalType": "address",
          "name": "implementation",
          "type": "address"
        }
      ],
      "name": "ERC1967InvalidImplementation",
      "type": "error"
    },
    {
      "inputs": [],
      "name": "ERC1967NonPayable",
      "type": "error"
    },
    {
      "inputs": [],
      "name": "EthTransferFailed",
      "type": "error"
    },
    {
      "inputs": [],
      "name": "FailedCall",
      "type": "error"
    },
    {
      "inputs": [],
      "name": "FeeTransferFailed",
      "type": "error"
    },
    {
      "inputs": [],
      "name": "InsufficientAllowance",
      "type": "error"
    },
    {
      "inputs": [
        {
          "internalType": "address",
          "name": "token",
          "type": "address"
        }
      ],
      "name": "InsufficientPermits",
      "type": "error"
    },
    {
      "inputs": [],
      "name": "InvalidFeeCollector",
      "type": "error"
    },
    {
      "inputs": [],
      "name": "InvalidFeeRate",
      "type": "error"
    },
    {
      "inputs": [],
      "name": "InvalidInitialization",
      "type": "error"
    },
    {
      "inputs": [],
      "name": "InvalidPrerotatedKeyHash",
      "type": "error"
    },
    {
      "inputs": [],
      "name": "InvalidPublicKey",
      "type": "error"
    },
    {
      "inputs": [],
      "name": "InvalidRecipientAmount",
      "type": "error"
    },
    {
      "inputs": [],
      "name": "InvalidSignature",
      "type": "error"
    },
    {
      "inputs": [],
      "name": "MissingPermit",
      "type": "error"
    },
    {
      "inputs": [],
      "name": "NoTokenPairs",
      "type": "error"
    },
    {
      "inputs": [],
      "name": "NotInitializing",
      "type": "error"
    },
    {
      "inputs": [
        {
          "internalType": "address",
          "name": "contractAddress",
          "type": "address"
        }
      ],
      "name": "NotOwnerOfTarget",
      "type": "error"
    },
    {
      "inputs": [
        {
          "internalType": "address",
          "name": "owner",
          "type": "address"
        }
      ],
      "name": "OwnableInvalidOwner",
      "type": "error"
    },
    {
      "inputs": [
        {
          "internalType": "address",
          "name": "account",
          "type": "address"
        }
      ],
      "name": "OwnableUnauthorizedAccount",
      "type": "error"
    },
    {
      "inputs": [],
      "name": "PermitDeadlineExpired",
      "type": "error"
    },
    {
      "inputs": [],
      "name": "ReentrancyGuardReentrantCall",
      "type": "error"
    },
    {
      "inputs": [
        {
          "internalType": "address",
          "name": "token",
          "type": "address"
        }
      ],
      "name": "SafeERC20FailedOperation",
      "type": "error"
    },
    {
      "inputs": [],
      "name": "TokenPairExists",
      "type": "error"
    },
    {
      "inputs": [],
      "name": "TokenPairNotSupported",
      "type": "error"
    },
    {
      "inputs": [],
      "name": "TransferFailed",
      "type": "error"
    },
    {
      "inputs": [],
      "name": "UUPSUnauthorizedCallContext",
      "type": "error"
    },
    {
      "inputs": [
        {
          "internalType": "bytes32",
          "name": "slot",
          "type": "bytes32"
        }
      ],
      "name": "UUPSUnsupportedProxiableUUID",
      "type": "error"
    },
    {
      "inputs": [
        {
          "internalType": "address",
          "name": "contractAddress",
          "type": "address"
        },
        {
          "internalType": "string",
          "name": "reason",
          "type": "string"
        }
      ],
      "name": "UpgradeFailed",
      "type": "error"
    },
    {
      "inputs": [],
      "name": "ZeroAddress",
      "type": "error"
    },
    {
      "anonymous": false,
      "inputs": [
        {
          "indexed": false,
          "internalType": "uint64",
          "name": "version",
          "type": "uint64"
        }
      ],
      "name": "Initialized",
      "type": "event"
    },
    {
      "anonymous": false,
      "inputs": [
        {
          "indexed": true,
          "internalType": "address",
          "name": "previousOwner",
          "type": "address"
        },
        {
          "indexed": true,
          "internalType": "address",
          "name": "newOwner",
          "type": "address"
        }
      ],
      "name": "OwnershipTransferred",
      "type": "event"
    },
    {
      "anonymous": false,
      "inputs": [
        {
          "indexed": true,
          "internalType": "address",
          "name": "implementation",
          "type": "address"
        }
      ],
      "name": "Upgraded",
      "type": "event"
    },
    {
      "inputs": [],
      "name": "UPGRADE_INTERFACE_VERSION",
      "outputs": [
        {
          "internalType": "string",
          "name": "",
          "type": "string"
        }
      ],
      "stateMutability": "view",
      "type": "function"
    },
    {
      "inputs": [
        {
          "internalType": "address",
          "name": "to",
          "type": "address"
        }
      ],
      "name": "emergencyWithdrawBNB",
      "outputs": [],
      "stateMutability": "nonpayable",
      "type": "function"
    },
    {
      "inputs": [],
      "name": "feeCollector",
      "outputs": [
        {
          "internalType": "address",
          "name": "",
          "type": "address"
        }
      ],
      "stateMutability": "view",
      "type": "function"
    },
    {
      "inputs": [],
      "name": "feeSigner",
      "outputs": [
        {
          "internalType": "address",
          "name": "",
          "type": "address"
        }
      ],
      "stateMutability": "view",
      "type": "function"
    },
    {
      "inputs": [
        {
          "internalType": "bytes",
          "name": "publicKey",
          "type": "bytes"
        }
      ],
      "name": "getAddressFromPublicKey",
      "outputs": [
        {
          "internalType": "address",
          "name": "",
          "type": "address"
        }
      ],
      "stateMutability": "pure",
      "type": "function"
    },
    {
      "inputs": [],
      "name": "getOwner",
      "outputs": [
        {
          "internalType": "address",
          "name": "",
          "type": "address"
        }
      ],
      "stateMutability": "view",
      "type": "function"
    },
    {
      "inputs": [],
      "name": "getSupportedTokens",
      "outputs": [
        {
          "internalType": "address[]",
          "name": "",
          "type": "address[]"
        }
      ],
      "stateMutability": "view",
      "type": "function"
    },
    {
      "inputs": [
        {
          "internalType": "address",
          "name": "_keyLogRegistry",
          "type": "address"
        }
      ],
      "name": "initialize",
      "outputs": [],
      "stateMutability": "nonpayable",
      "type": "function"
    },
    {
      "inputs": [],
      "name": "keyLogRegistry",
      "outputs": [
        {
          "internalType": "contract KeyLogRegistry",
          "name": "",
          "type": "address"
        }
      ],
      "stateMutability": "view",
      "type": "function"
    },
    {
      "inputs": [
        {
          "internalType": "address",
          "name": "",
          "type": "address"
        }
      ],
      "name": "nonces",
      "outputs": [
        {
          "internalType": "uint256",
          "name": "",
          "type": "uint256"
        }
      ],
      "stateMutability": "view",
      "type": "function"
    },
    {
      "inputs": [
        {
          "internalType": "address",
          "name": "originalToken",
          "type": "address"
        }
      ],
      "name": "originalToWrapped",
      "outputs": [
        {
          "internalType": "address",
          "name": "",
          "type": "address"
        }
      ],
      "stateMutability": "view",
      "type": "function"
    },
    {
      "inputs": [],
      "name": "owner",
      "outputs": [
        {
          "internalType": "address",
          "name": "",
          "type": "address"
        }
      ],
      "stateMutability": "view",
      "type": "function"
    },
    {
      "inputs": [],
      "name": "proxiableUUID",
      "outputs": [
        {
          "internalType": "bytes32",
          "name": "",
          "type": "bytes32"
        }
      ],
      "stateMutability": "view",
      "type": "function"
    },
    {
      "inputs": [
        {
          "internalType": "address",
          "name": "token",
          "type": "address"
        },
        {
          "components": [
            {
              "internalType": "address",
              "name": "token",
              "type": "address"
            },
            {
              "internalType": "uint256",
              "name": "fee",
              "type": "uint256"
            },
            {
              "internalType": "uint256",
              "name": "expires",
              "type": "uint256"
            },
            {
              "internalType": "bytes",
              "name": "signature",
              "type": "bytes"
            }
          ],
          "internalType": "struct BridgeUpgrade.FeeInfo",
          "name": "fee",
          "type": "tuple"
        },
        {
          "components": [
            {
              "internalType": "address",
              "name": "originalToken",
              "type": "address"
            },
            {
              "internalType": "string",
              "name": "tokenName",
              "type": "string"
            },
            {
              "internalType": "string",
              "name": "tokenSymbol",
              "type": "string"
            },
            {
              "internalType": "address",
              "name": "wrappedToken",
              "type": "address"
            }
          ],
          "internalType": "struct BridgeUpgrade.TokenPair[]",
          "name": "newTokenPairs",
          "type": "tuple[]"
        },
        {
          "components": [
            {
              "internalType": "address",
              "name": "token",
              "type": "address"
            },
            {
              "internalType": "uint256",
              "name": "amount",
              "type": "uint256"
            },
            {
              "internalType": "uint256",
              "name": "deadline",
              "type": "uint256"
            },
            {
              "internalType": "uint8",
              "name": "v",
              "type": "uint8"
            },
            {
              "internalType": "bytes32",
              "name": "r",
              "type": "bytes32"
            },
            {
              "internalType": "bytes32",
              "name": "s",
              "type": "bytes32"
            },
            {
              "components": [
                {
                  "internalType": "address",
                  "name": "recipientAddress",
                  "type": "address"
                },
                {
                  "internalType": "uint256",
                  "name": "amount",
                  "type": "uint256"
                },
                {
                  "internalType": "bool",
                  "name": "wrap",
                  "type": "bool"
                },
                {
                  "internalType": "bool",
                  "name": "unwrap",
                  "type": "bool"
                },
                {
                  "internalType": "bool",
                  "name": "mint",
                  "type": "bool"
                },
                {
                  "internalType": "bool",
                  "name": "burn",
                  "type": "bool"
                }
              ],
              "internalType": "struct BridgeUpgrade.Recipient[]",
              "name": "recipients",
              "type": "tuple[]"
            }
          ],
          "internalType": "struct BridgeUpgrade.PermitData[]",
          "name": "permits",
          "type": "tuple[]"
        },
        {
          "components": [
            {
              "internalType": "uint256",
              "name": "amount",
              "type": "uint256"
            },
            {
              "internalType": "bytes",
              "name": "publicKey",
              "type": "bytes"
            },
            {
              "internalType": "address",
              "name": "prerotatedKeyHash",
              "type": "address"
            },
            {
              "internalType": "address",
              "name": "twicePrerotatedKeyHash",
              "type": "address"
            },
            {
              "internalType": "address",
              "name": "prevPublicKeyHash",
              "type": "address"
            },
            {
              "internalType": "address",
              "name": "outputAddress",
              "type": "address"
            }
          ],
          "internalType": "struct BridgeUpgrade.Params",
          "name": "unconfirmed",
          "type": "tuple"
        },
        {
          "internalType": "bytes",
          "name": "unconfirmedSignature",
          "type": "bytes"
        },
        {
          "components": [
            {
              "internalType": "uint256",
              "name": "amount",
              "type": "uint256"
            },
            {
              "internalType": "bytes",
              "name": "publicKey",
              "type": "bytes"
            },
            {
              "internalType": "address",
              "name": "prerotatedKeyHash",
              "type": "address"
            },
            {
              "internalType": "address",
              "name": "twicePrerotatedKeyHash",
              "type": "address"
            },
            {
              "internalType": "address",
              "name": "prevPublicKeyHash",
              "type": "address"
            },
            {
              "internalType": "address",
              "name": "outputAddress",
              "type": "address"
            }
          ],
          "internalType": "struct BridgeUpgrade.Params",
          "name": "confirming",
          "type": "tuple"
        },
        {
          "internalType": "bytes",
          "name": "confirmingSignature",
          "type": "bytes"
        }
      ],
      "name": "registerKeyPairWithTransfer",
      "outputs": [],
      "stateMutability": "payable",
      "type": "function"
    },
    {
      "inputs": [],
      "name": "relayer",
      "outputs": [
        {
          "internalType": "address",
          "name": "",
          "type": "address"
        }
      ],
      "stateMutability": "view",
      "type": "function"
    },
    {
      "inputs": [],
      "name": "renounceOwnership",
      "outputs": [],
      "stateMutability": "nonpayable",
      "type": "function"
    },
    {
      "inputs": [
        {
          "internalType": "address",
          "name": "_feeCollector",
          "type": "address"
        }
      ],
      "name": "setFeeCollector",
      "outputs": [],
      "stateMutability": "nonpayable",
      "type": "function"
    },
    {
      "inputs": [
        {
          "internalType": "address",
          "name": "_signer",
          "type": "address"
        }
      ],
      "name": "setFeeSigner",
      "outputs": [],
      "stateMutability": "nonpayable",
      "type": "function"
    },
    {
      "inputs": [
        {
          "internalType": "uint256",
          "name": "",
          "type": "uint256"
        }
      ],
      "name": "supportedOriginalTokens",
      "outputs": [
        {
          "internalType": "address",
          "name": "",
          "type": "address"
        }
      ],
      "stateMutability": "view",
      "type": "function"
    },
    {
      "inputs": [],
      "name": "testUpgrade",
      "outputs": [
        {
          "internalType": "string",
          "name": "",
          "type": "string"
        }
      ],
      "stateMutability": "pure",
      "type": "function"
    },
    {
      "inputs": [
        {
          "internalType": "address",
          "name": "",
          "type": "address"
        }
      ],
      "name": "tokenPairs",
      "outputs": [
        {
          "internalType": "address",
          "name": "originalToken",
          "type": "address"
        },
        {
          "internalType": "address",
          "name": "wrappedToken",
          "type": "address"
        }
      ],
      "stateMutability": "view",
      "type": "function"
    },
    {
      "inputs": [
        {
          "internalType": "address",
          "name": "newOwner",
          "type": "address"
        }
      ],
      "name": "transferOwnership",
      "outputs": [],
      "stateMutability": "nonpayable",
      "type": "function"
    },
    {
      "inputs": [
        {
          "internalType": "address",
          "name": "newImplementation",
          "type": "address"
        }
      ],
      "name": "upgradeKeyLogRegistry",
      "outputs": [
        {
          "internalType": "bool",
          "name": "",
          "type": "bool"
        }
      ],
      "stateMutability": "nonpayable",
      "type": "function"
    },
    {
      "inputs": [
        {
          "internalType": "address",
          "name": "newImplementation",
          "type": "address"
        },
        {
          "internalType": "bytes",
          "name": "data",
          "type": "bytes"
        }
      ],
      "name": "upgradeToAndCall",
      "outputs": [],
      "stateMutability": "payable",
      "type": "function"
    },
    {
      "inputs": [
        {
          "internalType": "address",
          "name": "originalToken",
          "type": "address"
        },
        {
          "internalType": "address",
          "name": "newImplementation",
          "type": "address"
        }
      ],
      "name": "upgradeWrappedToken",
      "outputs": [],
      "stateMutability": "nonpayable",
      "type": "function"
    }
  ],
  "bytecode": "0x60a0806040523461002a57306080526155fd90816100308239608051818181611f090152611fb80152f35b600080fdfe60808060405260043610156200001457600080fd5b600090813560e01c90816307569339146200228f57508063081da8c11462002224578063276c1ac014620021d657806347bbbdf514620021895780634f1ef2861462001f7457806352d1902d1462001ef4578063602db8901462001ea3578063715018a61462001e345780637e1aa1781462001de65780637ecebe001462001da95780638406c0791462001d7e578063893d20e81462001b255780638b0934ae1462001b5e5780638da5cb5b1462001b255780639d6aed0b1462001ad5578063a42dce801462001a75578063abdff85e1462001a37578063ad3cb1cc14620019e7578063b5057a7b14620019be578063bc04f56114620004b0578063c415b95c1462000485578063c4d66de814620002de578063d3c7c2c71462000210578063d8397fd514620001c75763f2fde38b146200014e57600080fd5b34620001c4576020366003190112620001c4576200016b620022b6565b62000175620028b7565b6001600160a01b038116908115620001b257620001af916001600160601b0360a01b6002541617600255620001a9620028b7565b62002bec565b80f35b60405163d92e233d60e01b8152600490fd5b80fd5b5034620001c4576020366003190112620001c45760043590600654821015620001c4576020620001f78362002461565b905460405160039290921b1c6001600160a01b03168152f35b5034620001c45780600319360112620001c45760405180916006549081835260208093018092600683527ff652222313e28459528d920b65115c16c04f3efc82aaedc97be59f3f377c0d3f90835b818110620002c057505050846200027791038562002317565b60405193838594850191818652518092526040850193925b8281106200029f57505050500390f35b83516001600160a01b0316855286955093810193928101926001016200028f565b82546001600160a01b0316845292860192600192830192016200025e565b5034620001c4576020366003190112620001c457620002fc620022b6565b7ff0c57e16840df040f15088dc2f81fe391c3923bec73e23a9662efc9c229c6a009081549060ff8260401c1615916001600160401b038116801590816200047c575b600114908162000471575b15908162000467575b50620004555767ffffffffffffffff19811660011784558262000435575b506200037b62002d22565b6200038562002d22565b620003903362002bec565b6200039a62002d22565b620003a462002d22565b620003ae62002d22565b6001600080516020620055a8833981519152556001600160a01b03168015620001b2576001600160601b0360a01b908185541617845533906002541617600255620003f7575080f35b68ff00000000000000001981541690557fc7f505b2f371ae2175ee4913f4499e1f2633a7b5936321eed1cdaeb6115181d2602060405160018152a180f35b68ffffffffffffffffff1916680100000000000000011783553862000370565b60405163f92ee8a960e01b8152600490fd5b9050153862000352565b303b15915062000349565b8491506200033e565b5034620001c45780600319360112620001c4576002546040516001600160a01b039091168152602090f35b50610100366003190112620001c457620004c9620022b6565b6001600160401b036024351162000d9b5760806024353603600319011262000d9b576044356001600160401b03811162000d9f576200050d903690600401620023fe565b916064356001600160401b038111620019ba5762000530903690600401620023fe565b9390926001600160401b0360843511620019b65760c060843536036003190112620019b6576001600160401b0360a43511620019b657620005773660a43560040162002431565b6001600160401b0360c4351162000a915760c060c4353603600319011262000a91576001600160401b0360e4351162000a9157620005bb3660e43560040162002431565b9190926002600080516020620055a88339815191525414620019a4576002600080516020620055a883398151915255338a52600560205260408a20549160405160208101906200062a816200061b878d8d8d6084356004019289620026d5565b03601f19810183528262002317565b5190206001600160a01b036200064560843560a40162002849565b1615620001b2576040620006646024608435016084356004016200285e565b9050036200197e57620006aa620006b193620006a16200069b620006936024608435016084356004016200285e565b369162002355565b620024af565b93369162002355565b90620029a9565b1562001340576001600160a01b03620006cf60c43560a40162002849565b16620018d7575b505050855b8281106200157657506001600160a01b03915062000700905060c43560a40162002849565b161515928062000a95575b5050506000146200096e57805481906001600160a01b03166200073860843560248101906004016200285e565b91906200074a60446084350162002849565b916200075b60646084350162002849565b916200076b608480350162002849565b946200077c60a46084350162002849565b9062000793602460c4350160c4356004016200285e565b96620007a4604460c4350162002849565b91620007b5606460c4350162002849565b620007c5608460c4350162002849565b91620007d660a460c4350162002849565b93893b156200096a578d9b8c986040519e8f9d8e9c8d9b6385687dcd60e01b8d5260048d0161014090526101448d01906200081192620026b4565b6001600160a01b0395861660248d015290851660448c015290841660648b0152921660848901528782036003190160a48901526200084f92620026b4565b6001600160a01b0394851660c487015290841660e4860152908316610104850152911661012483015203925af180156200095f5762000947575b505060008051602062005588833981519152546001600160a01b03163314620008f3575b33815260056020526040812080549060028201809211620008df57556001600080516020620055a88339815191525580f35b634e487b7160e01b83526011600452602483fd5b62000903604460c4350162002849565b6200090d620028b7565b6001600160a01b038116908115620001b25762000941916001600160601b0360a01b6002541617600255620001a9620028b7565b620008ad565b620009529062002303565b620001c457803862000889565b6040513d84823e3d90fd5b8d80fd5b805481906001600160a01b03166200099060843560248101906004016200285e565b620009a360446084949394350162002849565b91620009b460646084350162002849565b93620009c4608480350162002849565b620009d460a46084350162002849565b93833b1562000a9157879562000a0c958793604051998a98899788966330a6293b60e11b885260a0600489015260a4880191620026b4565b6001600160a01b039485166024870152908416604486015290831660648501529116608483015203925af180156200095f5762000a79575b50506000805160206200558883398151915254336001600160a01b0390911603620008ad576200090360446084350162002849565b62000a849062002303565b620001c457803862000a44565b8780fd5b83156200155f5762000aac604460c4350162002849565b905b85865b8281106200152a575015620015185790929185935b82851062000ad65750506200070b565b909192939462000af262000aec87868862002a01565b62002a33565b805160019591949190899081906001600160a01b0380861691161462001454575b86516001600160a01b0316151591826200144a575b508162001440575b506200138c575b8892861562001239575b85516001600160a01b031615918a91825b60c089015180518510156200119c578462000b6d9162002bb5565b5180519091906001600160a01b031615620001b25760208201518015620011905760208b0151106200117e57606082015115158062001167575b1562000da3578951602083015162000bcc91309033906001600160a01b031662002c62565b895160208301518f916001600160a01b0316803b1562000d9f57604051632770a7eb60e21b8152306004820152602481019290925282908290604490829084905af180156200095f5762000d80575b5090600192604062000ce6938d868060a01b0390511681526004602052206040519062000c4882620022e7565b858060a01b03815416825285808060a01b03910154166020820152670de0b6b3a764000062000c7c8c602085015162002bca565b0462000c8d81602085015162002bde565b8d878060a01b03845116801560001462000d3d575062000caf92935062002cbf565b8062000d21575b505b62000ccd60208d015160208301519062002bde565b8b8d8262000cf0575b5050506020905b01519062002893565b935b019262000b52565b9362000d118362000d1794936020969733908b8060a01b0390511662002c62565b62002893565b91908b8d62000cd6565b62000d3690858060a01b036002541662002cbf565b3862000cb6565b9062000d4a929162002cdd565b8062000d59575b505062000cb8565b62000d7891868060a01b03905116868060a01b03600254169062002cdd565b388062000d51565b9062000d8e81939262002303565b62000d9b57903862000c1b565b5080fd5b8280fd5b9060a081015115158062001150575b1562000e48578d60018060a01b038b511660018060a01b038351166020840151823b1562000e4457604051632770a7eb60e21b81526001600160a01b03909216600483015260248201529082908290818381604481015b03925af180156200095f5762000e2c575b5050600191602062000ce69262000cdd565b62000e379062002303565b6200096a578d3862000e1a565b8380fd5b608081015115158062001139575b1562000ed5578d62000e86670de0b6b3a764000062000e7a8b602086015162002bca565b04602084015162002bde565b8b5183516001600160a01b0391821692911690823b1562000e44576040516340c10f1960e01b81526001600160a01b039092166004830152602482015290829082908183816044810162000e09565b8a604082015115158062001122575b15620010c857508d670de0b6b3a764000062000f058a602085015162002bca565b0460018060a01b038c51168252600460205262000f72604083206040519062000f2e82620022e7565b80546001600160a01b039081168084526001909201541660208301528a156200108057508262001061575b602060018060a01b039101511691602085015162002bde565b90803b1562000d9f576040516340c10f1960e01b81526001600160a01b038d166004820152602481019290925282908290604490829084905af180156200095f5762001049575b505060019181602062000ce693015160208d015180821062000fe1575b505060209062000cdd565b9062000fed9162002bde565b8c8c8b8362000fff575b505062000fd6565b918360209596926200102895948a8060a01b031615600014620010335762000d11925062002cbf565b91908c8c8b62000ff7565b62000d119233908b8060a01b0390511662002c62565b620010549062002303565b6200096a578d3862000fb9565b6002546200107a9084906001600160a01b031662002cbf565b62000f59565b620010a0906200109585602089015162002bde565b903090339062002c62565b821562000f595780516002546200107a9185916001600160a01b039081169133911662002c62565b91602062000ce6926001941562000cdd578815620010fe57620010f8858060a01b03825116838301519062002cbf565b62000cdd565b620010f88d868060a01b03905116868060a01b038351168484015191339062002c62565b508a516001600160a01b0389811691161462000ee4565b5089516001600160a01b0388811691161462000e56565b5089516001600160a01b0388811691161462000db2565b5089516001600160a01b0388811691161462000ba7565b60405163143d1ae760e21b8152600490fd5b50936001915062000ce8565b509498925099945094959150620011d7575b6020015103620011c5576001019392909162000ac6565b6040516312171d8360e31b8152600490fd5b620011e782602083015162002bde565b80620011f5575b50620011ae565b90916020916200121a916001600160a01b038916620012225762000d11828962002cbf565b9190620011ee565b62000d1182893360018060a01b0389511662002c62565b92504260446024350135106200137a57670de0b6b3a76400006024803501351162001368576200126e60243560040162002849565b6040519060018060a01b0316602082015260248035013560408201526060604460243501358183015281528060808101106001600160401b03608083011117620013525760808101604052602081519101207f19457468657265756d205369676e6564204d6573736167653a0a3332000000008a52601c526200131d62001313603c8b206200130c620006936064602435016024356004016200285e565b9062002d64565b9092919262002da3565b6003546001600160a01b0390811691160362001340576024803501359262000b41565b604051638baa579f60e01b8152600490fd5b634e487b7160e01b600052604160045260246000fd5b604051630adad23360e31b8152600490fd5b6040516305787bdf60e01b8152600490fd5b604085015142116200137a578860018060a01b03865116602087015190604088015160ff60608a0151169260808a01519060a08b015191843b156200143c57869460e4938692604051988997889663d505accf60e01b885233600489015230602489015260448801526064870152608486015260a485015260c48401525af180156200095f5762001420575b505062000b37565b6200142b9062002303565b6200143857883862001418565b8880fd5b8680fd5b9050153862000b30565b1591503862000b28565b978a9997959396949291995b60c086015180518210156200150657816200147b9162002bb5565b51604081015115801590620014f8575b8015620014ea575b8015620014dc575b620014d3575b6080810151620014c9575b60a00151620014bf575b60010162001460565b60019950620014b6565b60019b50620014ac565b8c9750620014a1565b5060a081015115156200149b565b506060810151151562001493565b50608081015115156200148b565b50509798909193959294969862000b13565b604051633bee968760e01b8152600490fd5b6001600160a01b036200154362000aec83868a62002a01565b51161562001555575b60010162000ab1565b600191506200154c565b6200156f60446084350162002849565b9062000aae565b8060051b820135607e198336030181121562000a9157608081840136031262000a9157604051908160808101106001600160401b03608084011117620013525760808201604052620015ca818501620022d2565b82526001600160401b0360208286010135116200143857620015f53685830160208101350162002391565b60208301526001600160401b0360408286010135116200143857620016233685830160408101350162002391565b60408301526200163960608092860101620022d2565b8282015281516001600160a01b039081168a52600460205260408a206001015416620018c5578101516001600160a01b0316801562001794575b8151604051906001600160a01b03166200168d82620022e7565b81526001600160a01b039182166020808301828152855185168d5260049091526040808d20935184549086166001600160a01b03199182161785559151600194850180549187169184169190911790558551905192949193929116620016f382620022e7565b815260208101938085528c52600460205260408c2090828060a01b0390511683825416178155019160018060a01b039051169082541617905560018060a01b0390511660065468010000000000000000811015620017805790620017608260018095940160065562002461565b819291549060031b91821b91858060a01b03901b191617905501620006db565b634e487b7160e01b89526041600452602489fd5b50604051612320808201908282106001600160401b03831117620018b157908291620032688339039089f08015620018a6576200180d6200183b60208401516040850151620018208d60018060a01b03905416916040519586946323c56d0560e21b60208701526080602487015260a4860190620023d7565b84810360231901604486015290620023d7565b90306064840152608483015203601f19810183528262002317565b60405191826102d38101106001600160401b036102d385011117620018b15782916200188c916102d362002f9585396001600160a01b03166102d384019081526040602082018190520190620023d7565b039089f08015620018a6576001600160a01b031662001673565b6040513d8a823e3d90fd5b634e487b7160e01b8b52604160045260248bfd5b604051636bb9e87d60e01b8152600490fd5b600181018111620019905760405162001906816200061b600160208301950160c4356004018a8a8d89620026d5565b519020604062001921602460c4350160c4356004016200285e565b9050036200197e576001600160a01b036200194160c43560a40162002849565b1615620001b257620006aa6200196f93620006a16200069b62000693602460c4350160c4356004016200285e565b156200134057388080620006d6565b60405163145a1fdd60e31b8152600490fd5b634e487b7160e01b89526011600452602489fd5b604051633ee5aeb560e01b8152600490fd5b8580fd5b8480fd5b5034620001c45780600319360112620001c457546040516001600160a01b039091168152602090f35b5034620001c45780600319360112620001c45762001a3360405162001a0c81620022e7565b60058152640352e302e360dc1b6020820152604051918291602083526020830190620023d7565b0390f35b5034620001c4576020366003190112620001c457602062001a6b62001a5b620022b6565b62001a65620028b7565b620025b9565b6040519015158152f35b5034620001c4576020366003190112620001c45762001a93620022b6565b62001a9d620028b7565b6001600160a01b0316801562001ac3576001600160601b0360a01b600254161760025580f35b60405163bb0bac9960e01b8152600490fd5b5034620001c45780600319360112620001c45762001a3360405162001afa81620022e7565b6009815268313934b233b2903b1960b91b6020820152604051918291602083526020830190620023d7565b5034620001c45780600319360112620001c45760008051602062005588833981519152546040516001600160a01b039091168152602090f35b5034620001c4576040366003190112620001c45762001b7c620022b6565b6001600160a01b0391602435838116929083900362000d9b57839062001ba1620028b7565b16815260046020528260016040832001541692831562001d6c578060008051602062005588833981519152541690604051638da5cb5b60e01b8152602081600481895afa84918162001d28575b5062001c37576084866040519062fbda1760e01b825260048201526040602482015260156044820152742330b4b632b2103a37903332ba31b41037bbb732b960591b6064820152fd5b160362001d0f57823b15620001c45760405191631b2ce7f360e11b83526004830152808260248183875af1918262001cfd575b5090620001af575062001c7c62002502565b6308c379a01462001cc3575b6084906040519062fbda1760e01b8252600482015260406024820152600d60448201526c2ab735b737bbb71032b93937b960991b6064820152fd5b62001ccd62002521565b908162001cdc57905062001c88565b62001cf960405192839262fbda1760e01b84526004840162002595565b0390fd5b62001d089062002303565b3862001c6a565b604051637346438160e01b815260048101849052602490fd5b9091506020813d60201162001d63575b8162001d476020938362002317565b81010312620019ba57518281168103620019ba57903862001bee565b3d915062001d38565b604051637879bad160e01b8152600490fd5b5034620001c45780600319360112620001c4576001546040516001600160a01b039091168152602090f35b5034620001c4576020366003190112620001c4576020906040906001600160a01b0362001dd5620022b6565b168152600583522054604051908152f35b5034620001c4576020366003190112620001c45762001e04620022b6565b62001e0e620028b7565b6001600160a01b03168015620001b2576001600160601b0360a01b600354161760035580f35b5034620001c45780600319360112620001c45762001e51620028b7565b6000805160206200558883398151915280546001600160a01b0319811690915581906001600160a01b03167f8be0079c531659141344cd1fd0a4f28419497f9722a3daafe3b4186f6b6457e08280a380f35b5034620001c4576020366003190112620001c4578062001ec2620022b6565b62001ecc620028b7565b47801562001ef0578280929181925af162001ee6620024cd565b5015620001c45780f35b5050fd5b5034620001c45780600319360112620001c4577f00000000000000000000000000000000000000000000000000000000000000006001600160a01b0316300362001f625760206040517f360894a13ba1a3210667c828492db98dca3e2076cc3735a920a3ca505d382bbc8152f35b60405163703e46dd60e11b8152600490fd5b506040366003190112620001c45762001f8c620022b6565b6024356001600160401b03811162000d9f5762001fae90369060040162002391565b6001600160a01b037f000000000000000000000000000000000000000000000000000000000000000081163081149081156200215a575b5062001f625762001ff5620028b7565b8216916040516352d1902d60e01b8152602081600481875afa85918162002120575b506200203657604051634c9c8ce360e01b815260048101859052602490fd5b9284937f360894a13ba1a3210667c828492db98dca3e2076cc3735a920a3ca505d382bbc90818103620021085750823b15620020ef5780546001600160a01b0319168217905560405184917fbc7cd75a20ee27fd9adebab32041f755214dbc6bffa90cc0225b39da2e5c2d3b8380a2835115620020d2575080836020620020ce95519101845af4620020c7620024cd565b9162002e99565b5080f35b9250505034620020e0575080f35b63b398979f60e01b8152600490fd5b604051634c9c8ce360e01b815260048101839052602490fd5b60249060405190632a87526960e21b82526004820152fd5b9091506020813d60201162002151575b816200213f6020938362002317565b81010312620019b65751903862002017565b3d915062002130565b9050817f360894a13ba1a3210667c828492db98dca3e2076cc3735a920a3ca505d382bbc541614153862001fe5565b5034620001c4576020366003190112620001c4576040906001600160a01b0390829082620021b6620022b6565b168152600460205220906001818354169201541682519182526020820152f35b5034620001c4576020366003190112620001c457600435906001600160401b038211620001c4576020620022126200069b366004860162002391565b6040516001600160a01b039091168152f35b5034620001c4576020366003190112620001c4576001600160a01b0390604090826200224f620022b6565b168152600460205220906020816001604051946200226d86620022e7565b8281541686520154169201918083521562001d6c576020915116604051908152f35b90503462000d9b578160031936011262000d9b576003546001600160a01b03168152602090f35b600435906001600160a01b0382168203620022cd57565b600080fd5b35906001600160a01b0382168203620022cd57565b604081019081106001600160401b038211176200135257604052565b6001600160401b0381116200135257604052565b90601f801991011681019081106001600160401b038211176200135257604052565b6001600160401b0381116200135257601f01601f191660200190565b929192620023638262002339565b9162002373604051938462002317565b829481845281830111620022cd578281602093846000960137010152565b9080601f83011215620022cd57816020620023af9335910162002355565b90565b60005b838110620023c65750506000910152565b8181015183820152602001620023b5565b90602091620023f281518092818552858086019101620023b2565b601f01601f1916010190565b9181601f84011215620022cd578235916001600160401b038311620022cd576020808501948460051b010111620022cd57565b9181601f84011215620022cd578235916001600160401b038311620022cd5760208381860195010111620022cd57565b600654811015620024995760066000527ff652222313e28459528d920b65115c16c04f3efc82aaedc97be59f3f377c0d3f0190600090565b634e487b7160e01b600052603260045260246000fd5b60408151036200197e5780516020909101206001600160a01b031690565b3d15620024fd573d90620024e18262002339565b91620024f1604051938462002317565b82523d6000602084013e565b606090565b60009060033d116200251057565b905060046000803e60005160e01c90565b600060443d10620023af57604051600319913d83016004833e81516001600160401b03918282113d60248401111762002584578184019485519384116200258c573d85010160208487010111620025845750620023af9291016020019062002317565b949350505050565b50949350505050565b6001600160a01b039091168152604060208201819052620023af92910190620023d7565b60009160018060a01b0391838381541691823b1562000d9b5760248591836040519586948593631b2ce7f360e11b85521660048401525af190816200266a575b506200266257506200260a62002502565b6308c379a0146200264b575b6200262a62002624620024cd565b620028f2565b915460405162fbda1760e01b815292839262001cf992166004840162002595565b6200265562002521565b806200262a575062002616565b915050600190565b620026789094919462002303565b9238620025f9565b9035601e1982360301811215620022cd5701602081359101916001600160401b038211620022cd578136038313620022cd57565b908060209392818452848401376000828201840152601f01601f1916010190565b94929095936080928387019060018060a01b0380991688528360209286848b01525260a0880160a08560051b8a010194826000906000915b838310620027a857505050505050966200279f60a080936200275c8a9b8b604060609b9c9d8a039101528235885260c06200274b8285018562002680565b9190928a015260c0890191620026b4565b96846200276c60408401620022d2565b16604088015284620027808a8401620022d2565b16898801528462002793828401620022d2565b169087015201620022d2565b16910152930152565b909192939497609f198d82030186528835607e198436030181121562000d9f57878f6001938d6200282662002808898697019285620027e785620022d2565b168552620027f88785018562002680565b90918089880152860191620026b4565b6040620028188185018562002680565b9186840390870152620026b4565b92620028366060809301620022d2565b169101529a01960194930191906200270d565b356001600160a01b0381168103620022cd5790565b903590601e1981360301821215620022cd57018035906001600160401b038211620022cd57602001918136038313620022cd57565b91908201809211620028a157565b634e487b7160e01b600052601160045260246000fd5b60008051602062005588833981519152546001600160a01b03163303620028da57565b60405163118cdaa760e01b8152336004820152602490fd5b80516020820151906001600160e01b0319808316906004831062002993575b1662461bcd60e51b146200292457505090565b820191602081818501940312620022cd576001600160401b038211620022cd570181603f82011215620022cd576020810151620029618162002339565b9262002971604051948562002317565b81845260408284010111620022cd57620023af916040602085019101620023b2565b808092508360040360031b1b8416169062002911565b620029f09291620029e6917f19457468657265756d205369676e6564204d6573736167653a0a333200000000600052601c52603c60002062002d64565b9093919362002da3565b6001600160a01b0391821691161490565b9190811015620024995760051b8101359060de1981360301821215620022cd570190565b35908115158203620022cd57565b60e081360312620022cd5760408051916001600160401b0360e08401818111858210176200135257835262002a6882620022d2565b845260208083013581860152838301358486015260608084013560ff81168103620022cd5760608701526080926080850135608088015260a08086013560a089015260c0958681013590838211620022cd57019436601f87011215620022cd57853593838511620013525788519862002ae7878760051b018b62002317565b858a528689818c01970289010197368911620022cd578701955b88871062002b185750505050505050505082015290565b8987360312620022cd578151908a8201908282108883111762002ba0578b928a92855262002b468a620022d2565b8152828a01358382015262002b5d858b0162002a25565b8582015262002b6e868b0162002a25565b8682015262002b7f878b0162002a25565b8782015262002b90888b0162002a25565b8882015281520196019562002b01565b60246000634e487b7160e01b81526041600452fd5b8051821015620024995760209160051b010190565b81810292918115918404141715620028a157565b91908203918211620028a157565b6001600160a01b0390811690811562002c49576000805160206200558883398151915280546001600160a01b031981168417909155167f8be0079c531659141344cd1fd0a4f28419497f9722a3daafe3b4186f6b6457e0600080a3565b604051631e4fbdf760e01b815260006004820152602490fd5b6040516323b872dd60e01b60208201526001600160a01b03928316602482015292909116604483015260648083019390935291815260a08101918183106001600160401b03841117620013525762002cbd9260405262002e2d565b565b60008080938193617530f162002cd4620024cd565b5015620011c557565b60405163a9059cbb60e01b60208201526001600160a01b0392909216602483015260448083019390935291815262002cbd9162002d1c60648362002317565b62002e2d565b60ff7ff0c57e16840df040f15088dc2f81fe391c3923bec73e23a9662efc9c229c6a005460401c161562002d5257565b604051631afcd79f60e31b8152600490fd5b815191906041830362002d985762002d9192506020820151906060604084015193015160001a9062002f01565b9192909190565b505060009160029190565b600481101562002e17578062002db7575050565b6001810362002dd25760405163f645eedf60e01b8152600490fd5b6002810362002df45760405163fce698f760e01b815260048101839052602490fd5b60031462002dff5750565b602490604051906335e2f38360e21b82526004820152fd5b634e487b7160e01b600052602160045260246000fd5b906000602091828151910182855af11562002e8d576000513d62002e8357506001600160a01b0381163b155b62002e615750565b604051635274afe760e01b81526001600160a01b039091166004820152602490fd5b6001141562002e59565b6040513d6000823e3d90fd5b9062002ec2575080511562002eb057805190602001fd5b60405163d6bda27560e01b8152600490fd5b8151158062002ef7575b62002ed5575090565b604051639996b31560e01b81526001600160a01b039091166004820152602490fd5b50803b1562002ecc565b91907f7fffffffffffffffffffffffffffffff5d576e7357a4501ddfe92f46681b20a0841162002f8857926020929160ff608095604051948552168484015260408301526060820152600092839182805260015afa1562002f7c5780516001600160a01b0381161562002f7357918190565b50809160019190565b604051903d90823e3d90fd5b5050506000916003919056fe60806040526102d38038038061001481610194565b92833981019060408183031261018f5780516001600160a01b03811680820361018f5760208381015190936001600160401b03821161018f570184601f8201121561018f5780519061006d610068836101cf565b610194565b9582875285838301011161018f57849060005b83811061017b57505060009186010152813b15610163577f360894a13ba1a3210667c828492db98dca3e2076cc3735a920a3ca505d382bbc80546001600160a01b03191682179055604051907fbc7cd75a20ee27fd9adebab32041f755214dbc6bffa90cc0225b39da2e5c2d3b600080a28351156101455750600080848461012c96519101845af4903d1561013c573d61011c610068826101cf565b908152600081943d92013e6101ea565b505b6040516085908161024e8239f35b606092506101ea565b9250505034610154575061012e565b63b398979f60e01b8152600490fd5b60249060405190634c9c8ce360e01b82526004820152fd5b818101830151888201840152869201610080565b600080fd5b6040519190601f01601f191682016001600160401b038111838210176101b957604052565b634e487b7160e01b600052604160045260246000fd5b6001600160401b0381116101b957601f01601f191660200190565b9061021157508051156101ff57805190602001fd5b60405163d6bda27560e01b8152600490fd5b81511580610244575b610222575090565b604051639996b31560e01b81526001600160a01b039091166004820152602490fd5b50803b1561021a56fe60806040527f360894a13ba1a3210667c828492db98dca3e2076cc3735a920a3ca505d382bbc54600090819081906001600160a01b0316368280378136915af43d82803e15604b573d90f35b3d90fdfea264697066735822122070af672e60c4522755b7166f77bb24fe4913006b0895073c86f502fe23ee960d64736f6c6343000818003360a0806040523461002a57306080526122f09081610030823960805181818161121a01526112d30152f35b600080fdfe608080604052600436101561001357600080fd5b60003560e01c90816306fdde031461172e57508063095ea7b31461170857806318160ddd146116cb57806323b872dd146115d7578063313ce567146115bb5780633644e5151461159857806340c10f19146114b25780634f1ef2861461128457806352d1902d1461120757806370a08231146111c0578063715018a6146111445780637ecebe00146110eb57806384b0196e14610e5e5780638da5cb5b14610e315780638f15b414146105f757806395d89b41146105165780639dc29fac14610408578063a9059cbb146103c7578063ad3cb1cc1461037d578063b5057a7b14610354578063d505accf146101c9578063dd62ed3e14610180578063e78cea92146101575763f2fde38b1461012757600080fd5b3461015257602036600319011261015257610150610143611815565b61014b611bf4565b6119ec565b005b600080fd5b34610152576000366003190112610152576000546040516001600160a01b039091168152602090f35b3461015257604036600319011261015257610199611815565b6101aa6101a461182b565b91611927565b9060018060a01b03166000526020526020604060002054604051908152f35b346101525760e0366003190112610152576101e2611815565b6101ea61182b565b60443590606435926084359360ff851685036101525780421161033c5760018060a01b039081831695866000527f5ab42ced628888259c08ac98db1eb0cf702fc1501344311d8b100cd1bfe4bb006020526040600020908154916001830190556040519260208401927f6e71edae12b1b97f4d1f60370fef10105fa2faae0126114a169c64845d6126c98452896040860152858816606086015288608086015260a085015260c084015260c0835260e08301918383106001600160401b03841117610326576102f5936102ec936040525190206102c5611d41565b906040519161190160f01b83526002830152602282015260c43591604260a4359220611de5565b90929192611e75565b1684810361030857506101509350611c27565b60449085604051916325c0072360e11b835260048301526024820152fd5b634e487b7160e01b600052604160045260246000fd5b6024906040519063313c898160e11b82526004820152fd5b34610152576000366003190112610152576001546040516001600160a01b039091168152602090f35b34610152576000366003190112610152576103c360405161039d81611841565b60058152640352e302e360dc1b60208201526040519182916020835260208301906117d5565b0390f35b34610152576040366003190112610152576103e0611815565b6103ea8133611a7f565b15610152576103fd906024359033611c85565b602060405160018152f35b3461015257604036600319011261015257610421611815565b600054602435906001600160a01b0390811633036101525782169081156104fd57816000526000805160206121db83398151915280602052604060002054938285106104cc5750817fddf252ad1be2c89b69c2b068fc378daa952ba7f163c4a11628f55a4df523b3ef9260009560209386885284520360408620557f52c63247e1f47db19d5ce0460030c497f067ca4cebf71ba98eeadabe20bace02818154039055604051908152a3005b60405163391434e360e21b81526001600160a01b039190911660048201526024810185905260448101839052606490fd5b604051634b637e8f60e11b815260006004820152602490fd5b346101525760003660031901126101525760405160008051602061221b8339815191528054826000610547836118ed565b92838352602094600191866001821691826000146105d557505060011461058b575b50506105779250038361185c565b6103c36040519282849384528301906117d5565b85925060005260008051602061225b833981519152906000915b8583106105bd57505061057793508201018580610569565b805483890185015287945086939092019181016105a5565b925093505061057794915060ff191682840152151560051b8201018580610569565b34610152576080366003190112610152576004356001600160401b038111610152576106279036906004016118cf565b6024356001600160401b038111610152576106469036906004016118cf565b6001600160a01b036044358082169003610152576064359080821682036101525760008051602061227b83398151915254926001600160401b03841680159081610e21575b6001149081610e17575b159081610e0e575b50610dfc5760016001600160401b031985161760008051602061227b8339815191525560ff8460401c1615610dcf575b6106d5611db6565b6106dd611db6565b84516001600160401b038111610326576107056000805160206121bb833981519152546118ed565b601f8111610d59575b50806020601f8211600114610ccd57600091610cc2575b508160011b916000199060031b1c1916176000805160206121bb833981519152555b8051906001600160401b03821161032657819061077260008051602061221b833981519152546118ed565b601f8111610c41575b50602090601f8311600114610bb357600092610ba8575b50508160011b916000199060031b1c19161760008051602061221b833981519152555b6107bd611db6565b604051936107ca85611841565b60018552603160f81b60208601526107e0611db6565b8051906001600160401b03821161032657819061080b6000805160206121fb833981519152546118ed565b601f8111610b27575b50602090601f8311600114610a9957600092610a8e575b50508160011b916000199060031b1c1916176000805160206121fb833981519152555b8351936001600160401b038511610326577fa16a46d94261c7517cc8ff89f61c0ce93598e3c849801011dee649a6a557d1039061088b82546118ed565b601f8111610a3c575b50602090601f87116001146109c85760ff9691600091836109bd575b50508160011b916000199060031b1c19161790555b60007fa16a46d94261c7517cc8ff89f61c0ce93598e3c849801011dee649a6a557d1005560007fa16a46d94261c7517cc8ff89f61c0ce93598e3c849801011dee649a6a557d10155610915611db6565b61091d611db6565b6109286044356119ec565b610930611db6565b6bffffffffffffffffffffffff60a01b9181604435168360005416176000551690600154161760015560401c161561096457005b68ff00000000000000001960008051602061227b833981519152541660008051602061227b833981519152557fc7f505b2f371ae2175ee4913f4499e1f2633a7b5936321eed1cdaeb6115181d2602060405160018152a1005b0151905087806108b0565b90601f198716918360005260008051602061229b8339815191529260005b818110610a24575091600193918960ff9a9410610a0b575b505050811b0190556108c5565b015160001960f88460031b161c191690558780806109fe565b929360206001819287860151815501950193016109e6565b8260005260008051602061229b833981519152601f880160051c81019160208910610a84575b601f0160051c01905b818110610a785750610894565b60008155600101610a6b565b9091508190610a62565b01519050868061082b565b6000805160206121fb833981519152600090815260008051602061223b8339815191529350601f198516905b818110610b0f5750908460019594939210610af6575b505050811b016000805160206121fb8339815191525561084e565b015160001960f88460031b161c19169055868080610adb565b92936020600181928786015181550195019301610ac5565b9091506000805160206121fb833981519152600052601f830160051c60008051602061223b8339815191520160208410610b93575b908392915b601f820160051c60008051602061223b833981519152018110610b845750610814565b60008155849350600101610b61565b5060008051602061223b833981519152610b5c565b015190508680610792565b60008051602061221b833981519152600090815260008051602061225b8339815191529350601f198516905b818110610c295750908460019594939210610c10575b505050811b0160008051602061221b833981519152556107b5565b015160001960f88460031b161c19169055868080610bf5565b92936020600181928786015181550195019301610bdf565b90915060008051602061221b833981519152600052601f830160051c60008051602061225b8339815191520160208410610cad575b908392915b601f820160051c60008051602061225b833981519152018110610c9e575061077b565b60008155849350600101610c7b565b5060008051602061225b833981519152610c76565b905086015187610725565b6000805160206121bb833981519152600090815260008051602061219b8339815191529250601f198416905b818110610d4157509083600194939210610d28575b5050811b016000805160206121bb83398151915255610747565b88015160001960f88460031b161c191690558780610d0e565b9192602060018192868d015181550194019201610cf9565b6000805160206121bb833981519152600052601f820160051c60008051602061219b8339815191520160208310610dba575b601f820160051c60008051602061219b833981519152018110610dae575061070e565b60008155600101610d8b565b5060008051602061219b833981519152610d8b565b68ffffffffffffffffff198416680100000000000000011760008051602061227b833981519152556106cd565b60405163f92ee8a960e01b8152600490fd5b9050158661069d565b303b159150610695565b604086901c60ff1615915061068b565b34610152576000366003190112610152576020610e4c611974565b6040516001600160a01b039091168152f35b34610152576000366003190112610152577fa16a46d94261c7517cc8ff89f61c0ce93598e3c849801011dee649a6a557d1005415806110c2575b15610152576040516000906000805160206121fb83398151915280549282610ebf856118ed565b91828252602093600196856001821691826000146110a2575050600114611056575b50610eee9250038361185c565b604051906000827fa16a46d94261c7517cc8ff89f61c0ce93598e3c849801011dee649a6a557d10391825492610f23846118ed565b9384845285600182169182600014611036575050600114610fea575b50610f4c9250038361185c565b60405190808201928284106001600160401b038511176103265790849281610fa388948760405260008452610f9560405197600f60f81b895260e0858a015260e08901906117d5565b9087820360408901526117d5565b91466060870152306080870152600060a087015285830360c0870152519182815201949160005b828110610fd75785870386f35b8351875295810195928101928401610fca565b915050600052828260008051602061229b833981519152876000915b85831061101d575050610f4c935082010187610f3f565b8091929450548385890101520191018390878693611006565b60ff191685820152610f4c95151560051b8501019250899150610f3f9050565b915050600052828260008051602061223b833981519152866000915b858310611089575050610eee935082010186610ee1565b8091929450548385890101520191018390868693611072565b60ff191685820152610eee95151560051b8501019250889150610ee19050565b507fa16a46d94261c7517cc8ff89f61c0ce93598e3c849801011dee649a6a557d1015415610e98565b34610152576020366003190112610152576001600160a01b0361110c611815565b166000527f5ab42ced628888259c08ac98db1eb0cf702fc1501344311d8b100cd1bfe4bb006020526020604060002054604051908152f35b346101525760003660031901126101525761115d611bf4565b7f9016d09d72d40fdae2fd8ceac6b6234c7706214fd39c1cd1e609a0528c19930080546001600160a01b031981169091556000906001600160a01b03167f8be0079c531659141344cd1fd0a4f28419497f9722a3daafe3b4186f6b6457e08280a3005b34610152576020366003190112610152576001600160a01b036111e1611815565b166000526000805160206121db8339815191526020526020604060002054604051908152f35b34610152576000366003190112610152577f00000000000000000000000000000000000000000000000000000000000000006001600160a01b031630036112725760206040517f360894a13ba1a3210667c828492db98dca3e2076cc3735a920a3ca505d382bbc8152f35b60405163703e46dd60e11b8152600490fd5b604036600319011261015257611298611815565b6024356001600160401b0381116101525736602382011215610152576112c8903690602481600401359101611898565b906001600160a01b037f00000000000000000000000000000000000000000000000000000000000000008116308114908115611484575b506112725761130c611bf4565b6040516352d1902d60e01b8152908216916020918281600481875afa60009181611455575b5061134f57604051634c9c8ce360e01b815260048101859052602490fd5b9284937f360894a13ba1a3210667c828492db98dca3e2076cc3735a920a3ca505d382bbc9081810361143d5750823b156114245780546001600160a01b03191682179055604051907fbc7cd75a20ee27fd9adebab32041f755214dbc6bffa90cc0225b39da2e5c2d3b600080a283511561140a5750600080848461015096519101845af4903d15611401573d6113e48161187d565b906113f2604051928361185c565b8152600081943d92013e612137565b60609250612137565b925050503461141557005b63b398979f60e01b8152600490fd5b604051634c9c8ce360e01b815260048101839052602490fd5b60249060405190632a87526960e21b82526004820152fd5b9091508381813d831161147d575b61146d818361185c565b8101031261015257519086611331565b503d611463565b9050817f360894a13ba1a3210667c828492db98dca3e2076cc3735a920a3ca505d382bbc54161415846112ff565b34610152576040366003190112610152576114cb611815565b600054602435916001600160a01b039182163303610152571690811561157f577f52c63247e1f47db19d5ce0460030c497f067ca4cebf71ba98eeadabe20bace02805490828201809211611569576000927fddf252ad1be2c89b69c2b068fc378daa952ba7f163c4a11628f55a4df523b3ef92602092558484526000805160206121db833981519152825260408420818154019055604051908152a3005b634e487b7160e01b600052601160045260246000fd5b60405163ec442f0560e01b815260006004820152602490fd5b346101525760003660031901126101525760206115b3611d41565b604051908152f35b3461015257600036600319011261015257602060405160128152f35b34610152576060366003190112610152576115f0611815565b6115f861182b565b604435906116068184611a7f565b156101525761161483611927565b33600052602052604060002054926000198410611636575b6103fd9350611c85565b8284106116a5576001600160a01b0381161561168c57331561167357826103fd9461166083611927565b336000526020520360406000205561162c565b604051634a1406b160e11b815260006004820152602490fd5b60405163e602df0560e01b815260006004820152602490fd5b604051637dc7a0d960e11b81523360048201526024810185905260448101849052606490fd5b346101525760003660031901126101525760207f52c63247e1f47db19d5ce0460030c497f067ca4cebf71ba98eeadabe20bace0254604051908152f35b34610152576040366003190112610152576103fd611724611815565b6024359033611c27565b34610152576000366003190112610152576000805160206121bb833981519152805482600061175c836118ed565b92838352602094600191866001821691826000146105d557505060011461178b5750506105779250038361185c565b85925060005260008051602061219b833981519152906000915b8583106117bd57505061057793508201018580610569565b805483890185015287945086939092019181016117a5565b919082519283825260005b848110611801575050826000602080949584010152601f8019910116010190565b6020818301810151848301820152016117e0565b600435906001600160a01b038216820361015257565b602435906001600160a01b038216820361015257565b604081019081106001600160401b0382111761032657604052565b90601f801991011681019081106001600160401b0382111761032657604052565b6001600160401b03811161032657601f01601f191660200190565b9291926118a48261187d565b916118b2604051938461185c565b829481845281830111610152578281602093846000960137010152565b9080601f83011215610152578160206118ea93359101611898565b90565b90600182811c9216801561191d575b602083101461190757565b634e487b7160e01b600052602260045260246000fd5b91607f16916118fc565b6001600160a01b031660009081527f52c63247e1f47db19d5ce0460030c497f067ca4cebf71ba98eeadabe20bace016020526040902090565b51906001600160a01b038216820361015257565b600054604051631127a41d60e31b815290602090829060049082906001600160a01b03165afa9081156119e0576000916119ac575090565b90506020813d6020116119d8575b816119c76020938361185c565b81010312610152576118ea90611960565b3d91506119ba565b6040513d6000823e3d90fd5b6001600160a01b03908116908115611a59577f9016d09d72d40fdae2fd8ceac6b6234c7706214fd39c1cd1e609a0528c19930080546001600160a01b031981168417909155167f8be0079c531659141344cd1fd0a4f28419497f9722a3daafe3b4186f6b6457e0600080a3565b604051631e4fbdf760e01b815260006004820152602490fd5b5190811515820361015257565b600154604080516324b9c44160e21b81526001600160a01b03938416600482018190529392610100929083908390602490829088165afa918215611be9576000938493611afa575b505050611ad75750505050600190565b602001518116918214928315611aee575b50505090565b16149050388080611ae8565b90809350819492943d8311611be2575b611b14818361185c565b810103908112611bde5760e013611bc75782519260e084018481106001600160401b03821117611bca578152611b4983611960565b8452611b5760208401611960565b6020850152611b67818401611960565b90840152611b7760608301611960565b6060840152611b8860808301611960565b6080840152611b9960a08301611a72565b60a084015260c0820151906003821015611bc7575060c0830152611bbf9060e001611a72565b388080611ac7565b80fd5b634e487b7160e01b83526041600452602483fd5b5080fd5b503d611b0a565b50513d6000823e3d90fd5b611bfc611974565b336001600160a01b0390911603611c0f57565b60405163118cdaa760e01b8152336004820152602490fd5b916001600160a01b0380841692831561168c5716928315611673577f8c5be1e5ebec7d5bd14f71427d1e84f3dd0314c0f7b2291e5b200ac8c7c3b92591611c6f602092611927565b85600052825280604060002055604051908152a3565b916001600160a01b038084169283156104fd571692831561157f576000908382526000805160206121db83398151915280602052604083205491848310611d0e575082847fddf252ad1be2c89b69c2b068fc378daa952ba7f163c4a11628f55a4df523b3ef959360409388602097528652038282205586815220818154019055604051908152a3565b60405163391434e360e21b81526001600160a01b0391909116600482015260248101929092525060448101839052606490fd5b611d49611efa565b611d51612022565b6040519060208201927f8b73c3c69bb8fe3d512ecc4cf759cc79239f7b179b0ffacaa9a75d522b39400f8452604083015260608201524660808201523060a082015260a0815260c081018181106001600160401b038211176103265760405251902090565b60ff60008051602061227b8339815191525460401c1615611dd357565b604051631afcd79f60e31b8152600490fd5b91907f7fffffffffffffffffffffffffffffff5d576e7357a4501ddfe92f46681b20a08411611e6957926020929160ff608095604051948552168484015260408301526060820152600092839182805260015afa15611e5d5780516001600160a01b03811615611e5457918190565b50809160019190565b604051903d90823e3d90fd5b50505060009160039190565b6004811015611ee45780611e87575050565b60018103611ea15760405163f645eedf60e01b8152600490fd5b60028103611ec25760405163fce698f760e01b815260048101839052602490fd5b600314611ecc5750565b602490604051906335e2f38360e21b82526004820152fd5b634e487b7160e01b600052602160045260246000fd5b6040516000906000805160206121fb8339815191529181835491611f1d836118ed565b928383526020906020840196600191600181169081600014611ffe5750600114611faf575b505050611f519250038261185c565b51908115611f5d572090565b50507fa16a46d94261c7517cc8ff89f61c0ce93598e3c849801011dee649a6a557d100548015611f8a5790565b507fc5d2460186f7233c927e7db2dcc703c0e500b653ca82273b7bfad8045d85a47090565b600090815260008051602061223b8339815191529590935091905b828410611fe65750611f51945050508101602001388080611f42565b85548785018301529485019486945092810192611fca565b9250505060209250611f5194915060ff19168652151560051b820101388080611f42565b6040516000907fa16a46d94261c7517cc8ff89f61c0ce93598e3c849801011dee649a6a557d1039181835491612057836118ed565b92838352602090602084019660019160018116908160001461211357506001146120c4575b50505061208b9250038261185c565b51908115612097572090565b50507fa16a46d94261c7517cc8ff89f61c0ce93598e3c849801011dee649a6a557d101548015611f8a5790565b600090815260008051602061229b8339815191529590935091905b8284106120fb575061208b94505050810160200138808061207c565b855487850183015294850194869450928101926120df565b925050506020925061208b94915060ff19168652151560051b82010138808061207c565b9061215e575080511561214c57805190602001fd5b60405163d6bda27560e01b8152600490fd5b81511580612191575b61216f575090565b604051639996b31560e01b81526001600160a01b039091166004820152602490fd5b50803b1561216756fe2ae08a8e29253f69ac5d979a101956ab8f8d9d7ded63fa7a83b16fc47648eab052c63247e1f47db19d5ce0460030c497f067ca4cebf71ba98eeadabe20bace0352c63247e1f47db19d5ce0460030c497f067ca4cebf71ba98eeadabe20bace00a16a46d94261c7517cc8ff89f61c0ce93598e3c849801011dee649a6a557d10252c63247e1f47db19d5ce0460030c497f067ca4cebf71ba98eeadabe20bace0442ad5d3e1f2e6e70edcf6d991b8a3023d3fca8047a131592f9edb9fd9b89d57d46a2803e59a4de4e7a4c574b1243f25977ac4c77d5a1a4a609b5394cebb4a2aaf0c57e16840df040f15088dc2f81fe391c3923bec73e23a9662efc9c229c6a005f9ce34815f8e11431c7bb75a8e6886a91478f7ffc1dbb0a98dc240fddd76b75a2646970667358221220b5fce110faa0339b7e3c4987820ce7bf0016dd57e40aff3f49a6fad43fa2682764736f6c634300081800339016d09d72d40fdae2fd8ceac6b6234c7706214fd39c1cd1e609a0528c1993009b779b17422d0df92223018b32b4d1fa46e071723d6817e2486d003becc55f00a26469706673582212203e1273bb915fc9f484f68ba220de8dfe0446ca74801e7e6d5d41dd61286685c464736f6c63430008180033",
  "linkReferences": {},
  "deployedLinkReferences": {}
}