{
  "_format": "hh-sol-artifact-1",
  "contractName": "KeyLogRegistryUpgrade",
  "sourceName": "contracts/KeyLogRegistryUpgrade.sol",
  "abi": [
    {
      "inputs": [],
      "stateMutability": "nonpayable",
      "type": "constructor"
    },
    {
      "inputs": [
        {
          "internalType": "address",
          "name": "target",
          "type": "address"
        }
      ],
      "name": "AddressEmptyCode",
      "type": "error"
    },
    {
      "inputs": [
        {
          "internalType": "address",
          "name": "implementation",
          "type": "address"
        }
      ],
      "name": "ERC1967InvalidImplementation",
      "type": "error"
    },
    {
      "inputs": [],
      "name": "ERC1967NonPayable",
      "type": "error"
    },
    {
      "inputs": [],
      "name": "FailedCall",
      "type": "error"
    },
    {
      "inputs": [],
      "name": "InvalidInitialization",
      "type": "error"
    },
    {
      "inputs": [],
      "name": "NotInitializing",
      "type": "error"
    },
    {
      "inputs": [
        {
          "internalType": "address",
          "name": "owner",
          "type": "address"
        }
      ],
      "name": "OwnableInvalidOwner",
      "type": "error"
    },
    {
      "inputs": [
        {
          "internalType": "address",
          "name": "account",
          "type": "address"
        }
      ],
      "name": "OwnableUnauthorizedAccount",
      "type": "error"
    },
    {
      "inputs": [],
      "name": "UUPSUnauthorizedCallContext",
      "type": "error"
    },
    {
      "inputs": [
        {
          "internalType": "bytes32",
          "name": "slot",
          "type": "bytes32"
        }
      ],
      "name": "UUPSUnsupportedProxiableUUID",
      "type": "error"
    },
    {
      "inputs": [],
      "name": "ZeroAddress",
      "type": "error"
    },
    {
      "anonymous": false,
      "inputs": [
        {
          "indexed": false,
          "internalType": "uint64",
          "name": "version",
          "type": "uint64"
        }
      ],
      "name": "Initialized",
      "type": "event"
    },
    {
      "anonymous": false,
      "inputs": [
        {
          "indexed": true,
          "internalType": "address",
          "name": "publicKeyHash",
          "type": "address"
        },
        {
          "indexed": false,
          "internalType": "uint256",
          "name": "index",
          "type": "uint256"
        }
      ],
      "name": "KeyLogRegistered",
      "type": "event"
    },
    {
      "anonymous": false,
      "inputs": [
        {
          "indexed": true,
          "internalType": "address",
          "name": "publicKeyHash",
          "type": "address"
        },
        {
          "indexed": false,
          "internalType": "uint256",
          "name": "index",
          "type": "uint256"
        }
      ],
      "name": "KeyRotated",
      "type": "event"
    },
    {
      "anonymous": false,
      "inputs": [
        {
          "indexed": true,
          "internalType": "address",
          "name": "previousOwner",
          "type": "address"
        },
        {
          "indexed": true,
          "internalType": "address",
          "name": "newOwner",
          "type": "address"
        }
      ],
      "name": "OwnershipTransferred",
      "type": "event"
    },
    {
      "anonymous": false,
      "inputs": [
        {
          "indexed": true,
          "internalType": "address",
          "name": "implementation",
          "type": "address"
        }
      ],
      "name": "Upgraded",
      "type": "event"
    },
    {
      "inputs": [],
      "name": "UPGRADE_INTERFACE_VERSION",
      "outputs": [
        {
          "internalType": "string",
          "name": "",
          "type": "string"
        }
      ],
      "stateMutability": "view",
      "type": "function"
    },
    {
      "inputs": [],
      "name": "authorizedCaller",
      "outputs": [
        {
          "internalType": "address",
          "name": "",
          "type": "address"
        }
      ],
      "stateMutability": "view",
      "type": "function"
    },
    {
      "inputs": [
        {
          "internalType": "bytes",
          "name": "publicKey",
          "type": "bytes"
        }
      ],
      "name": "buildFromPublicKey",
      "outputs": [
        {
          "components": [
            {
              "internalType": "address",
              "name": "twicePrerotatedKeyHash",
              "type": "address"
            },
            {
              "internalType": "address",
              "name": "prerotatedKeyHash",
              "type": "address"
            },
            {
              "internalType": "address",
              "name": "publicKeyHash",
              "type": "address"
            },
            {
              "internalType": "address",
              "name": "prevPublicKeyHash",
              "type": "address"
            },
            {
              "internalType": "address",
              "name": "outputAddress",
              "type": "address"
            },
            {
              "internalType": "bool",
              "name": "isOnChain",
              "type": "bool"
            },
            {
              "internalType": "enum KeyLogRegistryUpgrade.KeyEventFlag",
              "name": "flag",
              "type": "uint8"
            }
          ],
          "internalType": "struct KeyLogRegistryUpgrade.KeyLogEntry[]",
          "name": "",
          "type": "tuple[]"
        }
      ],
      "stateMutability": "view",
      "type": "function"
    },
    {
      "inputs": [
        {
          "internalType": "address",
          "name": "",
          "type": "address"
        }
      ],
      "name": "byPrerotatedKeyHash",
      "outputs": [
        {
          "internalType": "uint256",
          "name": "",
          "type": "uint256"
        }
      ],
      "stateMutability": "view",
      "type": "function"
    },
    {
      "inputs": [
        {
          "internalType": "address",
          "name": "",
          "type": "address"
        }
      ],
      "name": "byPrevPublicKeyHash",
      "outputs": [
        {
          "internalType": "uint256",
          "name": "",
          "type": "uint256"
        }
      ],
      "stateMutability": "view",
      "type": "function"
    },
    {
      "inputs": [
        {
          "internalType": "address",
          "name": "",
          "type": "address"
        }
      ],
      "name": "byPublicKeyHash",
      "outputs": [
        {
          "internalType": "uint256",
          "name": "",
          "type": "uint256"
        }
      ],
      "stateMutability": "view",
      "type": "function"
    },
    {
      "inputs": [
        {
          "internalType": "address",
          "name": "",
          "type": "address"
        }
      ],
      "name": "byTwicePrerotatedKeyHash",
      "outputs": [
        {
          "internalType": "uint256",
          "name": "",
          "type": "uint256"
        }
      ],
      "stateMutability": "view",
      "type": "function"
    },
    {
      "inputs": [
        {
          "internalType": "bytes",
          "name": "publicKey",
          "type": "bytes"
        }
      ],
      "name": "getAddressFromPublicKey",
      "outputs": [
        {
          "internalType": "address",
          "name": "",
          "type": "address"
        }
      ],
      "stateMutability": "pure",
      "type": "function"
    },
    {
      "inputs": [
        {
          "internalType": "bytes",
          "name": "publicKey",
          "type": "bytes"
        }
      ],
      "name": "getCurrentIndex",
      "outputs": [
        {
          "internalType": "uint256",
          "name": "",
          "type": "uint256"
        }
      ],
      "stateMutability": "view",
      "type": "function"
    },
    {
      "inputs": [
        {
          "internalType": "bytes",
          "name": "publicKey",
          "type": "bytes"
        }
      ],
      "name": "getLatestChainEntry",
      "outputs": [
        {
          "components": [
            {
              "internalType": "address",
              "name": "twicePrerotatedKeyHash",
              "type": "address"
            },
            {
              "internalType": "address",
              "name": "prerotatedKeyHash",
              "type": "address"
            },
            {
              "internalType": "address",
              "name": "publicKeyHash",
              "type": "address"
            },
            {
              "internalType": "address",
              "name": "prevPublicKeyHash",
              "type": "address"
            },
            {
              "internalType": "address",
              "name": "outputAddress",
              "type": "address"
            },
            {
              "internalType": "bool",
              "name": "isOnChain",
              "type": "bool"
            },
            {
              "internalType": "enum KeyLogRegistryUpgrade.KeyEventFlag",
              "name": "flag",
              "type": "uint8"
            }
          ],
          "internalType": "struct KeyLogRegistryUpgrade.KeyLogEntry",
          "name": "",
          "type": "tuple"
        },
        {
          "internalType": "bool",
          "name": "",
          "type": "bool"
        }
      ],
      "stateMutability": "view",
      "type": "function"
    },
    {
      "inputs": [
        {
          "internalType": "address",
          "name": "publicKeyHash",
          "type": "address"
        }
      ],
      "name": "getLatestEntry",
      "outputs": [
        {
          "components": [
            {
              "internalType": "address",
              "name": "twicePrerotatedKeyHash",
              "type": "address"
            },
            {
              "internalType": "address",
              "name": "prerotatedKeyHash",
              "type": "address"
            },
            {
              "internalType": "address",
              "name": "publicKeyHash",
              "type": "address"
            },
            {
              "internalType": "address",
              "name": "prevPublicKeyHash",
              "type": "address"
            },
            {
              "internalType": "address",
              "name": "outputAddress",
              "type": "address"
            },
            {
              "internalType": "bool",
              "name": "isOnChain",
              "type": "bool"
            },
            {
              "internalType": "enum KeyLogRegistryUpgrade.KeyEventFlag",
              "name": "flag",
              "type": "uint8"
            }
          ],
          "internalType": "struct KeyLogRegistryUpgrade.KeyLogEntry",
          "name": "",
          "type": "tuple"
        },
        {
          "internalType": "bool",
          "name": "",
          "type": "bool"
        }
      ],
      "stateMutability": "view",
      "type": "function"
    },
    {
      "inputs": [
        {
          "internalType": "address",
          "name": "prerotatedKeyHash",
          "type": "address"
        }
      ],
      "name": "getLatestEntryByPrerotatedKeyHash",
      "outputs": [
        {
          "components": [
            {
              "internalType": "address",
              "name": "twicePrerotatedKeyHash",
              "type": "address"
            },
            {
              "internalType": "address",
              "name": "prerotatedKeyHash",
              "type": "address"
            },
            {
              "internalType": "address",
              "name": "publicKeyHash",
              "type": "address"
            },
            {
              "internalType": "address",
              "name": "prevPublicKeyHash",
              "type": "address"
            },
            {
              "internalType": "address",
              "name": "outputAddress",
              "type": "address"
            },
            {
              "internalType": "bool",
              "name": "isOnChain",
              "type": "bool"
            },
            {
              "internalType": "enum KeyLogRegistryUpgrade.KeyEventFlag",
              "name": "flag",
              "type": "uint8"
            }
          ],
          "internalType": "struct KeyLogRegistryUpgrade.KeyLogEntry",
          "name": "",
          "type": "tuple"
        },
        {
          "internalType": "bool",
          "name": "",
          "type": "bool"
        }
      ],
      "stateMutability": "view",
      "type": "function"
    },
    {
      "inputs": [
        {
          "internalType": "bytes",
          "name": "publicKey",
          "type": "bytes"
        }
      ],
      "name": "getPreviousEntry",
      "outputs": [
        {
          "components": [
            {
              "internalType": "address",
              "name": "twicePrerotatedKeyHash",
              "type": "address"
            },
            {
              "internalType": "address",
              "name": "prerotatedKeyHash",
              "type": "address"
            },
            {
              "internalType": "address",
              "name": "publicKeyHash",
              "type": "address"
            },
            {
              "internalType": "address",
              "name": "prevPublicKeyHash",
              "type": "address"
            },
            {
              "internalType": "address",
              "name": "outputAddress",
              "type": "address"
            },
            {
              "internalType": "bool",
              "name": "isOnChain",
              "type": "bool"
            },
            {
              "internalType": "enum KeyLogRegistryUpgrade.KeyEventFlag",
              "name": "flag",
              "type": "uint8"
            }
          ],
          "internalType": "struct KeyLogRegistryUpgrade.KeyLogEntry",
          "name": "",
          "type": "tuple"
        },
        {
          "internalType": "bool",
          "name": "",
          "type": "bool"
        }
      ],
      "stateMutability": "view",
      "type": "function"
    },
    {
      "inputs": [],
      "name": "getTestString",
      "outputs": [
        {
          "internalType": "string",
          "name": "",
          "type": "string"
        }
      ],
      "stateMutability": "pure",
      "type": "function"
    },
    {
      "inputs": [
        {
          "internalType": "address",
          "name": "initialOwner",
          "type": "address"
        }
      ],
      "name": "initialize",
      "outputs": [],
      "stateMutability": "nonpayable",
      "type": "function"
    },
    {
      "inputs": [
        {
          "internalType": "uint256",
          "name": "",
          "type": "uint256"
        }
      ],
      "name": "keyLogEntries",
      "outputs": [
        {
          "internalType": "address",
          "name": "twicePrerotatedKeyHash",
          "type": "address"
        },
        {
          "internalType": "address",
          "name": "prerotatedKeyHash",
          "type": "address"
        },
        {
          "internalType": "address",
          "name": "publicKeyHash",
          "type": "address"
        },
        {
          "internalType": "address",
          "name": "prevPublicKeyHash",
          "type": "address"
        },
        {
          "internalType": "address",
          "name": "outputAddress",
          "type": "address"
        },
        {
          "internalType": "bool",
          "name": "isOnChain",
          "type": "bool"
        },
        {
          "internalType": "enum KeyLogRegistryUpgrade.KeyEventFlag",
          "name": "flag",
          "type": "uint8"
        }
      ],
      "stateMutability": "view",
      "type": "function"
    },
    {
      "inputs": [],
      "name": "owner",
      "outputs": [
        {
          "internalType": "address",
          "name": "",
          "type": "address"
        }
      ],
      "stateMutability": "view",
      "type": "function"
    },
    {
      "inputs": [],
      "name": "proxiableUUID",
      "outputs": [
        {
          "internalType": "bytes32",
          "name": "",
          "type": "bytes32"
        }
      ],
      "stateMutability": "view",
      "type": "function"
    },
    {
      "inputs": [
        {
          "internalType": "bytes",
          "name": "publicKey",
          "type": "bytes"
        },
        {
          "internalType": "address",
          "name": "prerotatedKeyHash",
          "type": "address"
        },
        {
          "internalType": "address",
          "name": "twicePrerotatedKeyHash",
          "type": "address"
        },
        {
          "internalType": "address",
          "name": "prevPublicKeyHash",
          "type": "address"
        },
        {
          "internalType": "address",
          "name": "outputAddress",
          "type": "address"
        }
      ],
      "name": "registerKeyLog",
      "outputs": [],
      "stateMutability": "nonpayable",
      "type": "function"
    },
    {
      "inputs": [
        {
          "internalType": "bytes",
          "name": "unconfirmedPublicKey",
          "type": "bytes"
        },
        {
          "internalType": "address",
          "name": "unconfirmedPrerotatedKeyHash",
          "type": "address"
        },
        {
          "internalType": "address",
          "name": "unconfirmedTwicePrerotatedKeyHash",
          "type": "address"
        },
        {
          "internalType": "address",
          "name": "unconfirmedPrevPublicKeyHash",
          "type": "address"
        },
        {
          "internalType": "address",
          "name": "unconfirmedOutputAddress",
          "type": "address"
        },
        {
          "internalType": "bytes",
          "name": "confirmingPublicKey",
          "type": "bytes"
        },
        {
          "internalType": "address",
          "name": "confirmingPrerotatedKeyHash",
          "type": "address"
        },
        {
          "internalType": "address",
          "name": "confirmingTwicePrerotatedKeyHash",
          "type": "address"
        },
        {
          "internalType": "address",
          "name": "confirmingPrevPublicKeyHash",
          "type": "address"
        },
        {
          "internalType": "address",
          "name": "confirmingOutputAddress",
          "type": "address"
        }
      ],
      "name": "registerKeyLogPair",
      "outputs": [],
      "stateMutability": "nonpayable",
      "type": "function"
    },
    {
      "inputs": [],
      "name": "renounceOwnership",
      "outputs": [],
      "stateMutability": "nonpayable",
      "type": "function"
    },
    {
      "inputs": [
        {
          "internalType": "address",
          "name": "_caller",
          "type": "address"
        }
      ],
      "name": "setAuthorizedCaller",
      "outputs": [],
      "stateMutability": "nonpayable",
      "type": "function"
    },
    {
      "inputs": [
        {
          "internalType": "address",
          "name": "newOwner",
          "type": "address"
        }
      ],
      "name": "transferOwnership",
      "outputs": [],
      "stateMutability": "nonpayable",
      "type": "function"
    },
    {
      "inputs": [
        {
          "internalType": "address",
          "name": "newImplementation",
          "type": "address"
        },
        {
          "internalType": "bytes",
          "name": "data",
          "type": "bytes"
        }
      ],
      "name": "upgradeToAndCall",
      "outputs": [],
      "stateMutability": "payable",
      "type": "function"
    },
    {
      "inputs": [
        {
          "internalType": "bytes",
          "name": "publicKey",
          "type": "bytes"
        },
        {
          "internalType": "address",
          "name": "publicKeyHash",
          "type": "address"
        },
        {
          "internalType": "address",
          "name": "prerotatedKeyHash",
          "type": "address"
        },
        {
          "internalType": "address",
          "name": "twicePrerotatedKeyHash",
          "type": "address"
        },
        {
          "internalType": "address",
          "name": "prevPublicKeyHash",
          "type": "address"
        },
        {
          "internalType": "address",
          "name": "outputAddress",
          "type": "address"
        },
        {
          "internalType": "bytes",
          "name": "confirmingPublicKey",
          "type": "bytes"
        },
        {
          "internalType": "address",
          "name": "confirmingPublicKeyHash",
          "type": "address"
        },
        {
          "internalType": "address",
          "name": "confirmingPrerotatedKeyHash",
          "type": "address"
        },
        {
          "internalType": "address",
          "name": "confirmingTwicePrerotatedKeyHash",
          "type": "address"
        },
        {
          "internalType": "address",
          "name": "confirmingPrevPublicKeyHash",
          "type": "address"
        },
        {
          "internalType": "address",
          "name": "confirmingOutputAddress",
          "type": "address"
        },
        {
          "internalType": "bool",
          "name": "isPair",
          "type": "bool"
        }
      ],
      "name": "validateTransaction",
      "outputs": [
        {
          "internalType": "enum KeyLogRegistryUpgrade.KeyEventFlag",
          "name": "",
          "type": "uint8"
        },
        {
          "internalType": "enum KeyLogRegistryUpgrade.KeyEventFlag",
          "name": "",
          "type": "uint8"
        }
      ],
      "stateMutability": "view",
      "type": "function"
    }
  ],
  "bytecode": "0x60a080604052346100cc57306080527ff0c57e16840df040f15088dc2f81fe391c3923bec73e23a9662efc9c229c6a009081549060ff8260401c166100bd57506001600160401b036002600160401b031982821601610078575b60405161217990816100d282396080518181816110de01526111860152f35b6001600160401b031990911681179091556040519081527fc7f505b2f371ae2175ee4913f4499e1f2633a7b5936321eed1cdaeb6115181d290602090a1388080610059565b63f92ee8a960e01b8152600490fd5b600080fdfe6080604052600436101561001257600080fd5b60e060003560e01c90816325fb5bd9146114a7578163276c1ac0146114605781632bf2fac9146114265781632d2eca6a146113ee5781632f91be481461139f578163401795b2146113655781634f1ef2861461114857816352d1902d146110cb5781635ed9739c1461104057508063614c527614610c43578063715018a614610bd957806385687dcd146105ac5780638da5cb5b14610576578063919525511461055557806392e711041461053457806397dc97cb1461050b5780639fa17f91146104d1578063a375e47214610497578063a54f311c146103a6578063ad3cb1cc14610368578063c4d66de814610235578063cf8fbec9146101f2578063ee93aac2146101a6578063f2fde38b1461017b5763fb51e5bb1461013357600080fd5b34610176576020366003190112610176576004356001600160401b0381116101765761016d610168602092369060040161166c565b61198b565b51604051908152f35b600080fd5b34610176576020366003190112610176576101a461019761168a565b61019f611ff0565b611fbf565b005b34610176576020366003190112610176576004356001600160401b038111610176576101d96101de91369060040161166c565b611f77565b906101ee60405192839283611798565b0390f35b346101765760203660031901126101765761020b61168a565b610213611ff0565b600580546001600160a01b0319166001600160a01b0392909216919091179055005b346101765760203660031901126101765761024e61168a565b7ff0c57e16840df040f15088dc2f81fe391c3923bec73e23a9662efc9c229c6a0090815460ff8160401c1615916001600160401b03821680159081610360575b6001149081610356575b15908161034d575b5061033b5767ffffffffffffffff19821660011784556102d1918361031c575b506102c961207f565b61019f61207f565b6102d961207f565b6102df57005b68ff00000000000000001981541690557fc7f505b2f371ae2175ee4913f4499e1f2633a7b5936321eed1cdaeb6115181d2602060405160018152a1005b68ffffffffffffffffff191668010000000000000001178455846102c0565b60405163f92ee8a960e01b8152600490fd5b905015856102a0565b303b159150610298565b84915061028e565b34610176576000366003190112610176576101ee604051610388816115c3565b60058152640352e302e360dc1b6020820152604051918291826117b4565b34610176576101a0366003190112610176576001600160401b03600435818111610176576103d890369060040161166c565b6103e06116a0565b906103e96116b6565b926103f26116cc565b906103fb6116e2565b6001600160a01b039160a4359083821682036101765760c4359081116101765761042990369060040161166c565b6104316116f8565b61043961170e565b91610442611725565b9361014435958787168703610176576101643597881688036101765761018435988915158a036101765760409c6104959c61047c9c611dc5565b61048b84939293518094611585565b6020830190611585565bf35b34610176576020366003190112610176576001600160a01b036104b861168a565b1660005260016020526020604060002054604051908152f35b34610176576020366003190112610176576001600160a01b036104f261168a565b1660005260046020526020604060002054604051908152f35b34610176576000366003190112610176576005546040516001600160a01b039091168152602090f35b34610176576020366003190112610176576101de61055061168a565b611d2e565b34610176576020366003190112610176576101de61057161168a565b611ce9565b3461017657600036600319011261017657600080516020612124833981519152546040516001600160a01b039091168152602090f35b3461017657610140366003190112610176576001600160401b03600435818111610176576105de9036906004016117fd565b906105e76116a0565b906105f06116b6565b6105f86116cc565b906106016116e2565b9560a4359081116101765761061a9036906004016117fd565b9260c4356001600160a01b0381169003610176576106366116f8565b9761063f61170e565b94610648611725565b9360018060a01b036005541633148015610bb8575b156101765761069f6106b19161069761068061067b8c8f3691611635565b61182a565b9a61068f61067b368886611635565b9d3691611635565b933691611635565b916106a9816118b6565b92909161182a565b908215610ba35760a0810151156101765760408101516001600160a01b03908116908716036101765760208101516001600160a01b039081169083160361017657516001600160a01b03908116908b1603610176575b6001600160a01b03898116911603610176576001600160a01b038916600090815260036020526040902054610176576001600160a01b038616600090815260046020526040902054610176571580610b92575b15610b89576001600160a01b03888116908316036101765761077b9061182a565b6001600160a01b03898116911603610176576001600160a01b0360c435811690851603610176576001600160a01b0360c435811690841603610176576001600160a01b0388811690881603610176576001600160a01b03868116908616036101765760c4356001600160a01b0316600090815260036020526040902054610176576001600160a01b038916600090815260046020526040902054610176576040516108679161082982611592565b6001600160a01b038681168352898116602084015288811660408401528481166060840152166080820152600160a0820181905260c0820152611bdb565b6000549586600019810111610abe576001600160a01b03868116600090815260016020526040812089905592908116610b67575b50816001600160a01b038216610b42575b50506001600160a01b038316610b1d575b506109109150604051906108d082611592565b6001600160a01b03888116835260c4358116602084015287811660408401528481166060840152166080820152600160a0820152600260c0820152611bdb565b600054600019810195818711610abe576001600160a01b03868116600090815260016020526040812084905593908116610afb575b5060c4356001600160a01b03161592808415610ad4575b506001600160a01b038216610a9a575b5050600080516020612124833981519152546001600160a01b03908116915083168114610a21575b6040516000198501815286907f65b9775e0ec7a02caf84b2523694b517ace341c14dd2b3926a5591d7b5f5a9969060209088907fa9366f75c6c44e3c9ee299d368915abb2fa3108d469f3ab468ef239142dc725b906001600160a01b0389169082908590a26040518581526001600160a01b03831691908490a26040519384526001600160a01b031692a2005b6005549294926001600160a01b03163314908115610a90575b501561017657610a7e57602080927f65b9775e0ec7a02caf84b2523694b517ace341c14dd2b3926a5591d7b5f5a99694610a7560c435612029565b92945092610994565b60405163d92e233d60e01b8152600490fd5b9050331486610a3a565b610abe576001600160a01b031660009081526004602052604090205585808061096c565b634e487b7160e01b600052601160045260246000fd5b610abe5760c4356001600160a01b031660009081526003602052604090208390558061095c565b6001600160a01b03166000908152600260205260408120839055925087610945565b610abe576109109160018060a01b0316600052600460205284604060002055876108bd565b610abe576001600160a01b0316600090815260036020526040902086905588816108ac565b6001600160a01b0316600090815260026020526040812088905591508961089b565b61077b9061182a565b506001600160a01b0383161561075a565b506001600160a01b0385161561070757600080fd5b50600080516020612124833981519152546001600160a01b0316331461065d565b3461017657600036600319011261017657610bf2611ff0565b60008051602061212483398151915280546001600160a01b031981169091556000906001600160a01b03167f8be0079c531659141344cd1fd0a4f28419497f9722a3daafe3b4186f6b6457e08280a3005b346101765760a0366003190112610176576004356001600160401b03811161017657610c7390369060040161166c565b610c7b6116a0565b90610c846116b6565b90610c8d6116cc565b91610c966116e2565b6005546001600160a01b03163314801561101f575b1561017657610cd5610cbc8461182a565b936000604051610ccb816115de565b526106a9816118b6565b90821561100a5760a0810151156101765760408101516001600160a01b03908116908816036101765760208101516001600160a01b039081169083160361017657516001600160a01b0390811690881603610176575b6001600160a01b03858116911603610176576001600160a01b038616600090815260036020526040902054610176576001600160a01b038316600090815260046020526040902054610176571580610ff9575b15610fd6576001600160a01b0385811690821603610176576000905b6001600160a01b03908116949086168590036101765760038210159081610f4f5782158015610fc8575b90610e1c9160405191610dd683611592565b6001600160a01b0387811684528a81166020850152888116604085015216606083018190526080830198909852151560a0820152610e178460c08301611913565b611bdb565b600054600019810193818511610abe576001600160a01b03861660009081526001602052604081208390559680610fae575b506001600160a01b0388161596808815610f89575b506001600160a01b038216610f65575b50506040518481526001600160a01b03861691507fa9366f75c6c44e3c9ee299d368915abb2fa3108d469f3ab468ef239142dc725b90602090a2610f4f57600103610f12575b50600080516020612124833981519152546001600160a01b0390811691168114610edf57005b6005546001600160a01b03163314908115610f08575b501561017657610a7e576101a490612029565b9050331483610ef5565b6040519081526001600160a01b038216907f65b9775e0ec7a02caf84b2523694b517ace341c14dd2b3926a5591d7b5f5a99690602090a283610eb9565b634e487b7160e01b600052602160045260246000fd5b610abe576001600160a01b0316600090815260046020526040902055868080610e73565b610abe576001600160a01b038916600090815260036020526040902083905580610e63565b965060009660005260026020528160406000205588610e4e565b506000915060028314610dc4565b6001600160a01b0381811690861614610ff157600190610d9a565b600290610d9a565b506001600160a01b03841615610d7e565b506001600160a01b03861615610d2b57600080fd5b50600080516020612124833981519152546001600160a01b03163314610cab565b34610176576020906020600319360112610176576004356001600160401b038111610176576110776101688492369060040161166c565b60405192839260208401906020855283518092526020604086019401926000905b8382106110a55786860387f35b9184965082866110bb600194969884985161173c565b0196019201869594929391611098565b34610176576000366003190112610176577f00000000000000000000000000000000000000000000000000000000000000006001600160a01b031630036111365760206040517f360894a13ba1a3210667c828492db98dca3e2076cc3735a920a3ca505d382bbc8152f35b60405163703e46dd60e11b8152600490fd5b60403660031901126101765761115c61168a565b6024356001600160401b0381116101765761117b90369060040161166c565b906001600160a01b037f00000000000000000000000000000000000000000000000000000000000000008116308114908115611337575b50611136576111bf611ff0565b6040516352d1902d60e01b8152908216916020918281600481875afa60009181611308575b5061120257604051634c9c8ce360e01b815260048101859052602490fd5b9284937f360894a13ba1a3210667c828492db98dca3e2076cc3735a920a3ca505d382bbc908181036112f05750823b156112d75780546001600160a01b03191682179055604051907fbc7cd75a20ee27fd9adebab32041f755214dbc6bffa90cc0225b39da2e5c2d3b600080a28351156112bd575060008084846101a496519101845af4903d156112b4573d6112978161161a565b906112a560405192836115f9565b8152600081943d92013e6120c0565b606092506120c0565b92505050346112c857005b63b398979f60e01b8152600490fd5b604051634c9c8ce360e01b815260048101839052602490fd5b60249060405190632a87526960e21b82526004820152fd5b9091508381813d8311611330575b61132081836115f9565b81010312610176575190866111e4565b503d611316565b9050817f360894a13ba1a3210667c828492db98dca3e2076cc3735a920a3ca505d382bbc54161415846111b2565b34610176576020366003190112610176576001600160a01b0361138661168a565b1660005260026020526020604060002054604051908152f35b34610176576000366003190112610176576101ee6040516113bf816115c3565b601681527555706772616465642057726170706564546f6b656e2160501b6020820152604051918291826117b4565b34610176576020366003190112610176576004356001600160401b038111610176576114216101de91369060040161166c565b6118b6565b34610176576020366003190112610176576001600160a01b0361144761168a565b1660005260036020526020604060002054604051908152f35b34610176576020366003190112610176576004356001600160401b0381116101765761149561067b602092369060040161166c565b6040516001600160a01b039091168152f35b3461017657602036600319011261017657600435600054811015610176576114d060e091611537565b5061049560018060a01b03918281541692806001830154169181600282015416600483600384015416920154936040519687526020870152604086015260608501528116608084015260ff8160a01c16151560a084015260ff60c084019160a81c16611585565b90600091825481101561157157600590838052027f290decd9548b62a8d60345a988386fc84ba6bc95484008f6362f93160ef3e563019190565b634e487b7160e01b83526032600452602483fd5b906003821015610f4f5752565b60e081019081106001600160401b038211176115ad57604052565b634e487b7160e01b600052604160045260246000fd5b604081019081106001600160401b038211176115ad57604052565b602081019081106001600160401b038211176115ad57604052565b90601f801991011681019081106001600160401b038211176115ad57604052565b6001600160401b0381116115ad57601f01601f191660200190565b9291926116418261161a565b9161164f60405193846115f9565b829481845281830111610176578281602093846000960137010152565b9080601f830112156101765781602061168793359101611635565b90565b600435906001600160a01b038216820361017657565b602435906001600160a01b038216820361017657565b604435906001600160a01b038216820361017657565b606435906001600160a01b038216820361017657565b608435906001600160a01b038216820361017657565b60e435906001600160a01b038216820361017657565b61010435906001600160a01b038216820361017657565b61012435906001600160a01b038216820361017657565b9060c0806117969360018060a01b03808251168552806020830151166020860152806040830151166040860152806060830151166060860152608082015116608085015260a0810151151560a08501520151910190611585565b565b90929160e0906117ad8361010081019661173c565b1515910152565b6020808252825181830181905290939260005b8281106117e957505060409293506000838284010152601f8019910116010190565b8181018601518482016040015285016117c7565b9181601f84011215610176578235916001600160401b038311610176576020838186019501011161017657565b80516040810361017657602091909101206001600160a01b031690565b6040519061185482611592565b8160c06000918281528260208201528260408201528260608201528260808201528260a08201520152565b80511561188c5760200190565b634e487b7160e01b600052603260045260246000fd5b805182101561188c5760209160051b010190565b6118c8906118c2611847565b5061198b565b8051156118ed5780516000198101908111610abe576118e6916118a2565b5190600190565b506118f6611847565b90600090565b6001600160401b0381116115ad5760051b60200190565b6003821015610f4f5752565b9061179660405161192f81611592565b60c060ff8295600460018060a01b039182815416865282600182015416602087015282600282015416604087015282600382015416606087015201549081166080850152818160a01c16151560a085015260a81c169101611913565b6119949061182a565b906040805192610ca084018481106001600160401b038211176115ad5782526064845260005b610c808110611bc457506000906119cf611847565b506119d8611847565b505b6001600160a01b0390811682526001602081815284842054908115611bb5575b8115611ba6575b508015611b90576000198101908111611b7c57611a20611a2691611537565b5061191f565b91606083015116918215611a3b5750506119da565b909150949192939490611acc575b50611a5f611a56836118fc565b935193846115f9565b818352601f19611a6e836118fc565b0160005b818110611ab557505060005b828110611a8b5750505090565b80611a98600192846118a2565b51611aa382876118a2565b52611aae81866118a2565b5001611a7e565b602090611ac0611847565b82828801015201611a72565b809250611ad88261187f565b52611ae28161187f565b506020918201516001929083906001600160a01b03908116825b611b09575b505050611a49565b81166000528183528560002054928315600003611b01579091929460001995868101908111610abe57611a20611b3e91611537565b9586611b4a83886118a2565b52611b5582876118a2565b508114610abe578184849201960151168451861015611b775783929193611afc565b611b01565b634e487b7160e01b84526011600452602484fd5b5050509192505190611ba1826115de565b815290565b60049150528383205438611a01565b600381528585205491506119fa565b602090611bcf611847565b828288010152016119ba565b6000805468010000000000000000811015611cd557806001611bff92018355611537565b929092611cc157600460018060a01b0393848351166bffffffffffffffffffffffff60a01b908183541617825560018201866020860151168282541617905560028201866040860151168282541617905560038201908660608601511690825416179055019260808201511683549260c060ff60a01b60a0850151151560a01b16930151906003821015611cad57506001600160b01b0319909316171760a89190911b60ff60a81b16179055565b634e487b7160e01b81526021600452602490fd5b634e487b7160e01b82526004829052602482fd5b634e487b7160e01b82526041600452602482fd5b611cf1611847565b506001600160a01b031660009081526001602052604090205480156118ed576000198101908111610abe57611a20611d2891611537565b90600190565b611d36611847565b506001600160a01b039081166000908152600360205260408120548015611da5575b6000198101908111611d9157611a20611d7091611537565b91602083015116815260016020526040812054611d8e575090600190565b80fd5b634e487b7160e01b82526011600452602482fd5b506004602052604081205480611d585750919050611dc1611847565b9190565b9996929c9b90979394611de696929b95611dde8c6118b6565b98909c61182a565b9b8815611f625760a0810151156101765760408101516001600160a01b03908116838216036101765760208201518116818f160361017657808f925116911603610176575b6001600160a01b039b998c16998c168a9003610176578b60409d169760009d8e8a815260036020522054611f5e578d9e9f8d9e9c9d604091169c8d815260046020522054611f5a578d90159182611f4f575b505015611f3657868c821603611f32578c915b15611f115750509089611ea6819695949361182a565b91169485911603611f0d578816809603611f09578786911603611f055703611f0157841603611efd57835260036020526040832054611ef95716815260046020526040812054611d8e5750600190600290565b8280fd5b8380fd5b8580fd5b8780fd5b8880fd5b8980fd5b9597509a99985050505093508491501603611ef95716611d8e575090600190565b8c80fd5b808c168714611f4757600191611e90565b600291611e90565b161590508c38611e7d565b8e80fd5b8d80fd5b506001600160a01b03811615611e2b57600080fd5b611f7f611847565b506001600160a01b0390611f929061182a565b16600052600360205260406000205480156118ed576000198101908111610abe57611a20611d2891611537565b6001600160a01b03811615611fd75761179690612029565b604051631e4fbdf760e01b815260006004820152602490fd5b600080516020612124833981519152546001600160a01b0316330361201157565b60405163118cdaa760e01b8152336004820152602490fd5b60008051602061212483398151915280546001600160a01b039283166001600160a01b0319821681179092559091167f8be0079c531659141344cd1fd0a4f28419497f9722a3daafe3b4186f6b6457e0600080a3565b60ff7ff0c57e16840df040f15088dc2f81fe391c3923bec73e23a9662efc9c229c6a005460401c16156120ae57565b604051631afcd79f60e31b8152600490fd5b906120e757508051156120d557805190602001fd5b60405163d6bda27560e01b8152600490fd5b8151158061211a575b6120f8575090565b604051639996b31560e01b81526001600160a01b039091166004820152602490fd5b50803b156120f056fe9016d09d72d40fdae2fd8ceac6b6234c7706214fd39c1cd1e609a0528c199300a2646970667358221220dcd1c2d81029c227fe4f7b180f9535aaf9aea8173684f34c8c62abde67611aa864736f6c63430008180033",
  "linkReferences": {},
  "deployedLinkReferences": {}
}