{
  "_format": "hh-sol-artifact-1",
  "contractName": "KeyLogRegistry",
  "sourceName": "contracts/KeyLogRegistry.sol",
  "abi": [
    {
      "inputs": [],
      "stateMutability": "nonpayable",
      "type": "constructor"
    },
    {
      "inputs": [
        {
          "internalType": "address",
          "name": "target",
          "type": "address"
        }
      ],
      "name": "AddressEmptyCode",
      "type": "error"
    },
    {
      "inputs": [
        {
          "internalType": "address",
          "name": "implementation",
          "type": "address"
        }
      ],
      "name": "ERC1967InvalidImplementation",
      "type": "error"
    },
    {
      "inputs": [],
      "name": "ERC1967NonPayable",
      "type": "error"
    },
    {
      "inputs": [],
      "name": "FailedCall",
      "type": "error"
    },
    {
      "inputs": [],
      "name": "InvalidInitialization",
      "type": "error"
    },
    {
      "inputs": [],
      "name": "NotInitializing",
      "type": "error"
    },
    {
      "inputs": [
        {
          "internalType": "address",
          "name": "owner",
          "type": "address"
        }
      ],
      "name": "OwnableInvalidOwner",
      "type": "error"
    },
    {
      "inputs": [
        {
          "internalType": "address",
          "name": "account",
          "type": "address"
        }
      ],
      "name": "OwnableUnauthorizedAccount",
      "type": "error"
    },
    {
      "inputs": [],
      "name": "UUPSUnauthorizedCallContext",
      "type": "error"
    },
    {
      "inputs": [
        {
          "internalType": "bytes32",
          "name": "slot",
          "type": "bytes32"
        }
      ],
      "name": "UUPSUnsupportedProxiableUUID",
      "type": "error"
    },
    {
      "inputs": [],
      "name": "ZeroAddress",
      "type": "error"
    },
    {
      "anonymous": false,
      "inputs": [
        {
          "indexed": false,
          "internalType": "uint64",
          "name": "version",
          "type": "uint64"
        }
      ],
      "name": "Initialized",
      "type": "event"
    },
    {
      "anonymous": false,
      "inputs": [
        {
          "indexed": true,
          "internalType": "address",
          "name": "publicKeyHash",
          "type": "address"
        },
        {
          "indexed": false,
          "internalType": "uint256",
          "name": "index",
          "type": "uint256"
        }
      ],
      "name": "KeyLogRegistered",
      "type": "event"
    },
    {
      "anonymous": false,
      "inputs": [
        {
          "indexed": true,
          "internalType": "address",
          "name": "publicKeyHash",
          "type": "address"
        },
        {
          "indexed": false,
          "internalType": "uint256",
          "name": "index",
          "type": "uint256"
        }
      ],
      "name": "KeyRotated",
      "type": "event"
    },
    {
      "anonymous": false,
      "inputs": [
        {
          "indexed": true,
          "internalType": "address",
          "name": "previousOwner",
          "type": "address"
        },
        {
          "indexed": true,
          "internalType": "address",
          "name": "newOwner",
          "type": "address"
        }
      ],
      "name": "OwnershipTransferred",
      "type": "event"
    },
    {
      "anonymous": false,
      "inputs": [
        {
          "indexed": true,
          "internalType": "address",
          "name": "implementation",
          "type": "address"
        }
      ],
      "name": "Upgraded",
      "type": "event"
    },
    {
      "inputs": [],
      "name": "UPGRADE_INTERFACE_VERSION",
      "outputs": [
        {
          "internalType": "string",
          "name": "",
          "type": "string"
        }
      ],
      "stateMutability": "view",
      "type": "function"
    },
    {
      "inputs": [],
      "name": "authorizedCaller",
      "outputs": [
        {
          "internalType": "address",
          "name": "",
          "type": "address"
        }
      ],
      "stateMutability": "view",
      "type": "function"
    },
    {
      "inputs": [
        {
          "internalType": "bytes",
          "name": "publicKey",
          "type": "bytes"
        }
      ],
      "name": "buildFromPublicKey",
      "outputs": [
        {
          "components": [
            {
              "internalType": "address",
              "name": "twicePrerotatedKeyHash",
              "type": "address"
            },
            {
              "internalType": "address",
              "name": "prerotatedKeyHash",
              "type": "address"
            },
            {
              "internalType": "address",
              "name": "publicKeyHash",
              "type": "address"
            },
            {
              "internalType": "address",
              "name": "prevPublicKeyHash",
              "type": "address"
            },
            {
              "internalType": "address",
              "name": "outputAddress",
              "type": "address"
            },
            {
              "internalType": "bool",
              "name": "isOnChain",
              "type": "bool"
            },
            {
              "internalType": "enum KeyLogRegistry.KeyEventFlag",
              "name": "flag",
              "type": "uint8"
            }
          ],
          "internalType": "struct KeyLogRegistry.KeyLogEntry[]",
          "name": "",
          "type": "tuple[]"
        }
      ],
      "stateMutability": "view",
      "type": "function"
    },
    {
      "inputs": [
        {
          "internalType": "address",
          "name": "",
          "type": "address"
        }
      ],
      "name": "byPrerotatedKeyHash",
      "outputs": [
        {
          "internalType": "uint256",
          "name": "",
          "type": "uint256"
        }
      ],
      "stateMutability": "view",
      "type": "function"
    },
    {
      "inputs": [
        {
          "internalType": "address",
          "name": "",
          "type": "address"
        }
      ],
      "name": "byPrevPublicKeyHash",
      "outputs": [
        {
          "internalType": "uint256",
          "name": "",
          "type": "uint256"
        }
      ],
      "stateMutability": "view",
      "type": "function"
    },
    {
      "inputs": [
        {
          "internalType": "address",
          "name": "",
          "type": "address"
        }
      ],
      "name": "byPublicKeyHash",
      "outputs": [
        {
          "internalType": "uint256",
          "name": "",
          "type": "uint256"
        }
      ],
      "stateMutability": "view",
      "type": "function"
    },
    {
      "inputs": [
        {
          "internalType": "address",
          "name": "",
          "type": "address"
        }
      ],
      "name": "byTwicePrerotatedKeyHash",
      "outputs": [
        {
          "internalType": "uint256",
          "name": "",
          "type": "uint256"
        }
      ],
      "stateMutability": "view",
      "type": "function"
    },
    {
      "inputs": [
        {
          "internalType": "bytes",
          "name": "publicKey",
          "type": "bytes"
        }
      ],
      "name": "getAddressFromPublicKey",
      "outputs": [
        {
          "internalType": "address",
          "name": "",
          "type": "address"
        }
      ],
      "stateMutability": "pure",
      "type": "function"
    },
    {
      "inputs": [
        {
          "internalType": "bytes",
          "name": "publicKey",
          "type": "bytes"
        }
      ],
      "name": "getCurrentIndex",
      "outputs": [
        {
          "internalType": "uint256",
          "name": "",
          "type": "uint256"
        }
      ],
      "stateMutability": "view",
      "type": "function"
    },
    {
      "inputs": [
        {
          "internalType": "bytes",
          "name": "publicKey",
          "type": "bytes"
        }
      ],
      "name": "getLatestChainEntry",
      "outputs": [
        {
          "components": [
            {
              "internalType": "address",
              "name": "twicePrerotatedKeyHash",
              "type": "address"
            },
            {
              "internalType": "address",
              "name": "prerotatedKeyHash",
              "type": "address"
            },
            {
              "internalType": "address",
              "name": "publicKeyHash",
              "type": "address"
            },
            {
              "internalType": "address",
              "name": "prevPublicKeyHash",
              "type": "address"
            },
            {
              "internalType": "address",
              "name": "outputAddress",
              "type": "address"
            },
            {
              "internalType": "bool",
              "name": "isOnChain",
              "type": "bool"
            },
            {
              "internalType": "enum KeyLogRegistry.KeyEventFlag",
              "name": "flag",
              "type": "uint8"
            }
          ],
          "internalType": "struct KeyLogRegistry.KeyLogEntry",
          "name": "",
          "type": "tuple"
        },
        {
          "internalType": "bool",
          "name": "",
          "type": "bool"
        }
      ],
      "stateMutability": "view",
      "type": "function"
    },
    {
      "inputs": [
        {
          "internalType": "address",
          "name": "publicKeyHash",
          "type": "address"
        }
      ],
      "name": "getLatestEntry",
      "outputs": [
        {
          "components": [
            {
              "internalType": "address",
              "name": "twicePrerotatedKeyHash",
              "type": "address"
            },
            {
              "internalType": "address",
              "name": "prerotatedKeyHash",
              "type": "address"
            },
            {
              "internalType": "address",
              "name": "publicKeyHash",
              "type": "address"
            },
            {
              "internalType": "address",
              "name": "prevPublicKeyHash",
              "type": "address"
            },
            {
              "internalType": "address",
              "name": "outputAddress",
              "type": "address"
            },
            {
              "internalType": "bool",
              "name": "isOnChain",
              "type": "bool"
            },
            {
              "internalType": "enum KeyLogRegistry.KeyEventFlag",
              "name": "flag",
              "type": "uint8"
            }
          ],
          "internalType": "struct KeyLogRegistry.KeyLogEntry",
          "name": "",
          "type": "tuple"
        },
        {
          "internalType": "bool",
          "name": "",
          "type": "bool"
        }
      ],
      "stateMutability": "view",
      "type": "function"
    },
    {
      "inputs": [
        {
          "internalType": "address",
          "name": "prerotatedKeyHash",
          "type": "address"
        }
      ],
      "name": "getLatestEntryByPrerotatedKeyHash",
      "outputs": [
        {
          "components": [
            {
              "internalType": "address",
              "name": "twicePrerotatedKeyHash",
              "type": "address"
            },
            {
              "internalType": "address",
              "name": "prerotatedKeyHash",
              "type": "address"
            },
            {
              "internalType": "address",
              "name": "publicKeyHash",
              "type": "address"
            },
            {
              "internalType": "address",
              "name": "prevPublicKeyHash",
              "type": "address"
            },
            {
              "internalType": "address",
              "name": "outputAddress",
              "type": "address"
            },
            {
              "internalType": "bool",
              "name": "isOnChain",
              "type": "bool"
            },
            {
              "internalType": "enum KeyLogRegistry.KeyEventFlag",
              "name": "flag",
              "type": "uint8"
            }
          ],
          "internalType": "struct KeyLogRegistry.KeyLogEntry",
          "name": "",
          "type": "tuple"
        },
        {
          "internalType": "bool",
          "name": "",
          "type": "bool"
        }
      ],
      "stateMutability": "view",
      "type": "function"
    },
    {
      "inputs": [
        {
          "internalType": "bytes",
          "name": "publicKey",
          "type": "bytes"
        }
      ],
      "name": "getPreviousEntry",
      "outputs": [
        {
          "components": [
            {
              "internalType": "address",
              "name": "twicePrerotatedKeyHash",
              "type": "address"
            },
            {
              "internalType": "address",
              "name": "prerotatedKeyHash",
              "type": "address"
            },
            {
              "internalType": "address",
              "name": "publicKeyHash",
              "type": "address"
            },
            {
              "internalType": "address",
              "name": "prevPublicKeyHash",
              "type": "address"
            },
            {
              "internalType": "address",
              "name": "outputAddress",
              "type": "address"
            },
            {
              "internalType": "bool",
              "name": "isOnChain",
              "type": "bool"
            },
            {
              "internalType": "enum KeyLogRegistry.KeyEventFlag",
              "name": "flag",
              "type": "uint8"
            }
          ],
          "internalType": "struct KeyLogRegistry.KeyLogEntry",
          "name": "",
          "type": "tuple"
        },
        {
          "internalType": "bool",
          "name": "",
          "type": "bool"
        }
      ],
      "stateMutability": "view",
      "type": "function"
    },
    {
      "inputs": [
        {
          "internalType": "address",
          "name": "initialOwner",
          "type": "address"
        }
      ],
      "name": "initialize",
      "outputs": [],
      "stateMutability": "nonpayable",
      "type": "function"
    },
    {
      "inputs": [
        {
          "internalType": "uint256",
          "name": "",
          "type": "uint256"
        }
      ],
      "name": "keyLogEntries",
      "outputs": [
        {
          "internalType": "address",
          "name": "twicePrerotatedKeyHash",
          "type": "address"
        },
        {
          "internalType": "address",
          "name": "prerotatedKeyHash",
          "type": "address"
        },
        {
          "internalType": "address",
          "name": "publicKeyHash",
          "type": "address"
        },
        {
          "internalType": "address",
          "name": "prevPublicKeyHash",
          "type": "address"
        },
        {
          "internalType": "address",
          "name": "outputAddress",
          "type": "address"
        },
        {
          "internalType": "bool",
          "name": "isOnChain",
          "type": "bool"
        },
        {
          "internalType": "enum KeyLogRegistry.KeyEventFlag",
          "name": "flag",
          "type": "uint8"
        }
      ],
      "stateMutability": "view",
      "type": "function"
    },
    {
      "inputs": [],
      "name": "owner",
      "outputs": [
        {
          "internalType": "address",
          "name": "",
          "type": "address"
        }
      ],
      "stateMutability": "view",
      "type": "function"
    },
    {
      "inputs": [],
      "name": "proxiableUUID",
      "outputs": [
        {
          "internalType": "bytes32",
          "name": "",
          "type": "bytes32"
        }
      ],
      "stateMutability": "view",
      "type": "function"
    },
    {
      "inputs": [
        {
          "internalType": "bytes",
          "name": "publicKey",
          "type": "bytes"
        },
        {
          "internalType": "address",
          "name": "prerotatedKeyHash",
          "type": "address"
        },
        {
          "internalType": "address",
          "name": "twicePrerotatedKeyHash",
          "type": "address"
        },
        {
          "internalType": "address",
          "name": "prevPublicKeyHash",
          "type": "address"
        },
        {
          "internalType": "address",
          "name": "outputAddress",
          "type": "address"
        }
      ],
      "name": "registerKeyLog",
      "outputs": [],
      "stateMutability": "nonpayable",
      "type": "function"
    },
    {
      "inputs": [
        {
          "internalType": "bytes",
          "name": "unconfirmedPublicKey",
          "type": "bytes"
        },
        {
          "internalType": "address",
          "name": "unconfirmedPrerotatedKeyHash",
          "type": "address"
        },
        {
          "internalType": "address",
          "name": "unconfirmedTwicePrerotatedKeyHash",
          "type": "address"
        },
        {
          "internalType": "address",
          "name": "unconfirmedPrevPublicKeyHash",
          "type": "address"
        },
        {
          "internalType": "address",
          "name": "unconfirmedOutputAddress",
          "type": "address"
        },
        {
          "internalType": "bytes",
          "name": "confirmingPublicKey",
          "type": "bytes"
        },
        {
          "internalType": "address",
          "name": "confirmingPrerotatedKeyHash",
          "type": "address"
        },
        {
          "internalType": "address",
          "name": "confirmingTwicePrerotatedKeyHash",
          "type": "address"
        },
        {
          "internalType": "address",
          "name": "confirmingPrevPublicKeyHash",
          "type": "address"
        },
        {
          "internalType": "address",
          "name": "confirmingOutputAddress",
          "type": "address"
        }
      ],
      "name": "registerKeyLogPair",
      "outputs": [],
      "stateMutability": "nonpayable",
      "type": "function"
    },
    {
      "inputs": [],
      "name": "renounceOwnership",
      "outputs": [],
      "stateMutability": "nonpayable",
      "type": "function"
    },
    {
      "inputs": [
        {
          "internalType": "address",
          "name": "_caller",
          "type": "address"
        }
      ],
      "name": "setAuthorizedCaller",
      "outputs": [],
      "stateMutability": "nonpayable",
      "type": "function"
    },
    {
      "inputs": [
        {
          "internalType": "address",
          "name": "newOwner",
          "type": "address"
        }
      ],
      "name": "transferOwnership",
      "outputs": [],
      "stateMutability": "nonpayable",
      "type": "function"
    },
    {
      "inputs": [
        {
          "internalType": "address",
          "name": "newImplementation",
          "type": "address"
        },
        {
          "internalType": "bytes",
          "name": "data",
          "type": "bytes"
        }
      ],
      "name": "upgradeToAndCall",
      "outputs": [],
      "stateMutability": "payable",
      "type": "function"
    },
    {
      "inputs": [
        {
          "internalType": "bytes",
          "name": "publicKey",
          "type": "bytes"
        },
        {
          "internalType": "address",
          "name": "publicKeyHash",
          "type": "address"
        },
        {
          "internalType": "address",
          "name": "prerotatedKeyHash",
          "type": "address"
        },
        {
          "internalType": "address",
          "name": "twicePrerotatedKeyHash",
          "type": "address"
        },
        {
          "internalType": "address",
          "name": "prevPublicKeyHash",
          "type": "address"
        },
        {
          "internalType": "address",
          "name": "outputAddress",
          "type": "address"
        },
        {
          "internalType": "bytes",
          "name": "confirmingPublicKey",
          "type": "bytes"
        },
        {
          "internalType": "address",
          "name": "confirmingPublicKeyHash",
          "type": "address"
        },
        {
          "internalType": "address",
          "name": "confirmingPrerotatedKeyHash",
          "type": "address"
        },
        {
          "internalType": "address",
          "name": "confirmingTwicePrerotatedKeyHash",
          "type": "address"
        },
        {
          "internalType": "address",
          "name": "confirmingPrevPublicKeyHash",
          "type": "address"
        },
        {
          "internalType": "address",
          "name": "confirmingOutputAddress",
          "type": "address"
        },
        {
          "internalType": "bool",
          "name": "isPair",
          "type": "bool"
        }
      ],
      "name": "validateTransaction",
      "outputs": [
        {
          "internalType": "enum KeyLogRegistry.KeyEventFlag",
          "name": "",
          "type": "uint8"
        },
        {
          "internalType": "enum KeyLogRegistry.KeyEventFlag",
          "name": "",
          "type": "uint8"
        }
      ],
      "stateMutability": "view",
      "type": "function"
    }
  ],
  "bytecode": "0x60a080604052346100cc57306080527ff0c57e16840df040f15088dc2f81fe391c3923bec73e23a9662efc9c229c6a009081549060ff8260401c166100bd57506001600160401b036002600160401b031982821601610078575b60405161211190816100d2823960805181818161113f01526111e70152f35b6001600160401b031990911681179091556040519081527fc7f505b2f371ae2175ee4913f4499e1f2633a7b5936321eed1cdaeb6115181d290602090a1388080610059565b63f92ee8a960e01b8152600490fd5b600080fdfe6080604052600436101561001257600080fd5b60e060003560e01c90816325fb5bd9146114b9578163276c1ac0146114725781632bf2fac9146114385781632d2eca6a14611400578163401795b2146113c65781634f1ef286146111a957816352d1902d1461112c5781635ed9739c146110a157508063614c527614610ca4578063715018a614610c3a57806385687dcd1461060d5780638da5cb5b146105d757806391952551146105b657806392e711041461059557806397dc97cb1461056c5780639fa17f9114610532578063a375e472146104f8578063a54f311c14610407578063ad3cb1cc1461035d578063c4d66de81461022a578063cf8fbec9146101e7578063ee93aac21461019b578063f2fde38b146101705763fb51e5bb1461012857600080fd5b3461016b57602036600319011261016b576004356001600160401b03811161016b5761016261015d602092369060040161164d565b611923565b51604051908152f35b600080fd5b3461016b57602036600319011261016b5761019961018c61166b565b610194611f88565b611f57565b005b3461016b57602036600319011261016b576004356001600160401b03811161016b576101ce6101d391369060040161164d565b611f0f565b906101e360405192839283611779565b0390f35b3461016b57602036600319011261016b5761020061166b565b610208611f88565b600580546001600160a01b0319166001600160a01b0392909216919091179055005b3461016b57602036600319011261016b5761024361166b565b7ff0c57e16840df040f15088dc2f81fe391c3923bec73e23a9662efc9c229c6a0090815460ff8160401c1615916001600160401b03821680159081610355575b600114908161034b575b159081610342575b506103305767ffffffffffffffff19821660011784556102c69183610311575b506102be612017565b610194612017565b6102ce612017565b6102d457005b68ff00000000000000001981541690557fc7f505b2f371ae2175ee4913f4499e1f2633a7b5936321eed1cdaeb6115181d2602060405160018152a1005b68ffffffffffffffffff191668010000000000000001178455846102b5565b60405163f92ee8a960e01b8152600490fd5b90501585610295565b303b15915061028d565b849150610283565b3461016b57600036600319011261016b57604051604081018181106001600160401b038211176103f15760405260058152602090640352e302e360dc1b60208201526040518092602082528251908160208401526000935b8285106103d8575050604092506000838284010152601f80199101168101030190f35b84810182015186860160400152938101938593506103b5565b634e487b7160e01b600052604160045260246000fd5b3461016b576101a036600319011261016b576001600160401b0360043581811161016b5761043990369060040161164d565b610441611681565b9061044a611697565b926104536116ad565b9061045c6116c3565b6001600160a01b039160a43590838216820361016b5760c43590811161016b5761048a90369060040161164d565b6104926116d9565b61049a6116ef565b916104a3611706565b936101443595878716870361016b5761016435978816880361016b5761018435988915158a0361016b5760409c6104f69c6104dd9c611d5d565b6104ec84939293518094611597565b6020830190611597565bf35b3461016b57602036600319011261016b576001600160a01b0361051961166b565b1660005260016020526020604060002054604051908152f35b3461016b57602036600319011261016b576001600160a01b0361055361166b565b1660005260046020526020604060002054604051908152f35b3461016b57600036600319011261016b576005546040516001600160a01b039091168152602090f35b3461016b57602036600319011261016b576101d36105b161166b565b611cc6565b3461016b57602036600319011261016b576101d36105d261166b565b611c81565b3461016b57600036600319011261016b576000805160206120bc833981519152546040516001600160a01b039091168152602090f35b3461016b5761014036600319011261016b576001600160401b0360043581811161016b5761063f903690600401611795565b90610648611681565b90610651611697565b6106596116ad565b906106626116c3565b9560a43590811161016b5761067b903690600401611795565b9260c4356001600160a01b038116900361016b576106976116d9565b976106a06116ef565b946106a9611706565b9360018060a01b036005541633148015610c19575b1561016b57610700610712916106f86106e16106dc8c8f3691611616565b6117c2565b9a6106f06106dc368886611616565b9d3691611616565b933691611616565b9161070a8161184e565b9290916117c2565b908215610c045760a08101511561016b5760408101516001600160a01b039081169087160361016b5760208101516001600160a01b039081169083160361016b57516001600160a01b03908116908b160361016b575b6001600160a01b0389811691160361016b576001600160a01b03891660009081526003602052604090205461016b576001600160a01b03861660009081526004602052604090205461016b571580610bf3575b15610bea576001600160a01b038881169083160361016b576107dc906117c2565b6001600160a01b0389811691160361016b576001600160a01b0360c43581169085160361016b576001600160a01b0360c43581169084160361016b576001600160a01b038881169088160361016b576001600160a01b038681169086160361016b5760c4356001600160a01b031660009081526003602052604090205461016b576001600160a01b03891660009081526004602052604090205461016b576040516108c89161088a826115a4565b6001600160a01b038681168352898116602084015288811660408401528481166060840152166080820152600160a0820181905260c0820152611b73565b6000549586600019810111610b1f576001600160a01b03868116600090815260016020526040812089905592908116610bc8575b50816001600160a01b038216610ba3575b50506001600160a01b038316610b7e575b50610971915060405190610931826115a4565b6001600160a01b03888116835260c4358116602084015287811660408401528481166060840152166080820152600160a0820152600260c0820152611b73565b600054600019810195818711610b1f576001600160a01b03868116600090815260016020526040812084905593908116610b5c575b5060c4356001600160a01b03161592808415610b35575b506001600160a01b038216610afb575b50506000805160206120bc833981519152546001600160a01b03908116915083168114610a82575b6040516000198501815286907f65b9775e0ec7a02caf84b2523694b517ace341c14dd2b3926a5591d7b5f5a9969060209088907fa9366f75c6c44e3c9ee299d368915abb2fa3108d469f3ab468ef239142dc725b906001600160a01b0389169082908590a26040518581526001600160a01b03831691908490a26040519384526001600160a01b031692a2005b6005549294926001600160a01b03163314908115610af1575b501561016b57610adf57602080927f65b9775e0ec7a02caf84b2523694b517ace341c14dd2b3926a5591d7b5f5a99694610ad660c435611fc1565b929450926109f5565b60405163d92e233d60e01b8152600490fd5b9050331486610a9b565b610b1f576001600160a01b03166000908152600460205260409020558580806109cd565b634e487b7160e01b600052601160045260246000fd5b610b1f5760c4356001600160a01b03166000908152600360205260409020839055806109bd565b6001600160a01b031660009081526002602052604081208390559250876109a6565b610b1f576109719160018060a01b03166000526004602052846040600020558761091e565b610b1f576001600160a01b03166000908152600360205260409020869055888161090d565b6001600160a01b031660009081526002602052604081208890559150896108fc565b6107dc906117c2565b506001600160a01b038316156107bb565b506001600160a01b0385161561076857600080fd5b506000805160206120bc833981519152546001600160a01b031633146106be565b3461016b57600036600319011261016b57610c53611f88565b6000805160206120bc83398151915280546001600160a01b031981169091556000906001600160a01b03167f8be0079c531659141344cd1fd0a4f28419497f9722a3daafe3b4186f6b6457e08280a3005b3461016b5760a036600319011261016b576004356001600160401b03811161016b57610cd490369060040161164d565b610cdc611681565b90610ce5611697565b90610cee6116ad565b91610cf76116c3565b6005546001600160a01b031633148015611080575b1561016b57610d36610d1d846117c2565b936000604051610d2c816115bf565b5261070a8161184e565b90821561106b5760a08101511561016b5760408101516001600160a01b039081169088160361016b5760208101516001600160a01b039081169083160361016b57516001600160a01b039081169088160361016b575b6001600160a01b0385811691160361016b576001600160a01b03861660009081526003602052604090205461016b576001600160a01b03831660009081526004602052604090205461016b57158061105a575b15611037576001600160a01b038581169082160361016b576000905b6001600160a01b039081169490861685900361016b5760038210159081610fb05782158015611029575b90610e7d9160405191610e37836115a4565b6001600160a01b0387811684528a81166020850152888116604085015216606083018190526080830198909852151560a0820152610e788460c083016118ab565b611b73565b600054600019810193818511610b1f576001600160a01b0386166000908152600160205260408120839055968061100f575b506001600160a01b0388161596808815610fea575b506001600160a01b038216610fc6575b50506040518481526001600160a01b03861691507fa9366f75c6c44e3c9ee299d368915abb2fa3108d469f3ab468ef239142dc725b90602090a2610fb057600103610f73575b506000805160206120bc833981519152546001600160a01b0390811691168114610f4057005b6005546001600160a01b03163314908115610f69575b501561016b57610adf5761019990611fc1565b9050331483610f56565b6040519081526001600160a01b038216907f65b9775e0ec7a02caf84b2523694b517ace341c14dd2b3926a5591d7b5f5a99690602090a283610f1a565b634e487b7160e01b600052602160045260246000fd5b610b1f576001600160a01b0316600090815260046020526040902055868080610ed4565b610b1f576001600160a01b038916600090815260036020526040902083905580610ec4565b965060009660005260026020528160406000205588610eaf565b506000915060028314610e25565b6001600160a01b038181169086161461105257600190610dfb565b600290610dfb565b506001600160a01b03841615610ddf565b506001600160a01b03861615610d8c57600080fd5b506000805160206120bc833981519152546001600160a01b03163314610d0c565b3461016b57602090602060031936011261016b576004356001600160401b03811161016b576110d861015d8492369060040161164d565b60405192839260208401906020855283518092526020604086019401926000905b8382106111065786860387f35b91849650828661111c600194969884985161171d565b01960192018695949293916110f9565b3461016b57600036600319011261016b577f00000000000000000000000000000000000000000000000000000000000000006001600160a01b031630036111975760206040517f360894a13ba1a3210667c828492db98dca3e2076cc3735a920a3ca505d382bbc8152f35b60405163703e46dd60e11b8152600490fd5b604036600319011261016b576111bd61166b565b6024356001600160401b03811161016b576111dc90369060040161164d565b906001600160a01b037f00000000000000000000000000000000000000000000000000000000000000008116308114908115611398575b5061119757611220611f88565b6040516352d1902d60e01b8152908216916020918281600481875afa60009181611369575b5061126357604051634c9c8ce360e01b815260048101859052602490fd5b9284937f360894a13ba1a3210667c828492db98dca3e2076cc3735a920a3ca505d382bbc908181036113515750823b156113385780546001600160a01b03191682179055604051907fbc7cd75a20ee27fd9adebab32041f755214dbc6bffa90cc0225b39da2e5c2d3b600080a283511561131e5750600080848461019996519101845af4903d15611315573d6112f8816115fb565b9061130660405192836115da565b8152600081943d92013e612058565b60609250612058565b925050503461132957005b63b398979f60e01b8152600490fd5b604051634c9c8ce360e01b815260048101839052602490fd5b60249060405190632a87526960e21b82526004820152fd5b9091508381813d8311611391575b61138181836115da565b8101031261016b57519086611245565b503d611377565b9050817f360894a13ba1a3210667c828492db98dca3e2076cc3735a920a3ca505d382bbc5416141584611213565b3461016b57602036600319011261016b576001600160a01b036113e761166b565b1660005260026020526020604060002054604051908152f35b3461016b57602036600319011261016b576004356001600160401b03811161016b576114336101d391369060040161164d565b61184e565b3461016b57602036600319011261016b576001600160a01b0361145961166b565b1660005260036020526020604060002054604051908152f35b3461016b57602036600319011261016b576004356001600160401b03811161016b576114a76106dc602092369060040161164d565b6040516001600160a01b039091168152f35b3461016b57602036600319011261016b5760043560005481101561016b576114e260e091611549565b506104f660018060a01b03918281541692806001830154169181600282015416600483600384015416920154936040519687526020870152604086015260608501528116608084015260ff8160a01c16151560a084015260ff60c084019160a81c16611597565b90600091825481101561158357600590838052027f290decd9548b62a8d60345a988386fc84ba6bc95484008f6362f93160ef3e563019190565b634e487b7160e01b83526032600452602483fd5b906003821015610fb05752565b60e081019081106001600160401b038211176103f157604052565b602081019081106001600160401b038211176103f157604052565b90601f801991011681019081106001600160401b038211176103f157604052565b6001600160401b0381116103f157601f01601f191660200190565b929192611622826115fb565b9161163060405193846115da565b82948184528183011161016b578281602093846000960137010152565b9080601f8301121561016b5781602061166893359101611616565b90565b600435906001600160a01b038216820361016b57565b602435906001600160a01b038216820361016b57565b604435906001600160a01b038216820361016b57565b606435906001600160a01b038216820361016b57565b608435906001600160a01b038216820361016b57565b60e435906001600160a01b038216820361016b57565b61010435906001600160a01b038216820361016b57565b61012435906001600160a01b038216820361016b57565b9060c0806117779360018060a01b03808251168552806020830151166020860152806040830151166040860152806060830151166060860152608082015116608085015260a0810151151560a08501520151910190611597565b565b90929160e09061178e8361010081019661171d565b1515910152565b9181601f8401121561016b578235916001600160401b03831161016b576020838186019501011161016b57565b80516040810361016b57602091909101206001600160a01b031690565b604051906117ec826115a4565b8160c06000918281528260208201528260408201528260608201528260808201528260a08201520152565b8051156118245760200190565b634e487b7160e01b600052603260045260246000fd5b80518210156118245760209160051b010190565b6118609061185a6117df565b50611923565b8051156118855780516000198101908111610b1f5761187e9161183a565b5190600190565b5061188e6117df565b90600090565b6001600160401b0381116103f15760051b60200190565b6003821015610fb05752565b906117776040516118c7816115a4565b60c060ff8295600460018060a01b039182815416865282600182015416602087015282600282015416604087015282600382015416606087015201549081166080850152818160a01c16151560a085015260a81c1691016118ab565b61192c906117c2565b906040805192610ca084018481106001600160401b038211176103f15782526064845260005b610c808110611b5c57506000906119676117df565b506119706117df565b505b6001600160a01b0390811682526001602081815284842054908115611b4d575b8115611b3e575b508015611b28576000198101908111611b14576119b86119be91611549565b506118b7565b916060830151169182156119d3575050611972565b909150949192939490611a64575b506119f76119ee83611894565b935193846115da565b818352601f19611a0683611894565b0160005b818110611a4d57505060005b828110611a235750505090565b80611a306001928461183a565b51611a3b828761183a565b52611a46818661183a565b5001611a16565b602090611a586117df565b82828801015201611a0a565b809250611a7082611817565b52611a7a81611817565b506020918201516001929083906001600160a01b03908116825b611aa1575b5050506119e1565b81166000528183528560002054928315600003611a99579091929460001995868101908111610b1f576119b8611ad691611549565b9586611ae2838861183a565b52611aed828761183a565b508114610b1f578184849201960151168451861015611b0f5783929193611a94565b611a99565b634e487b7160e01b84526011600452602484fd5b5050509192505190611b39826115bf565b815290565b60049150528383205438611999565b60038152858520549150611992565b602090611b676117df565b82828801015201611952565b6000805468010000000000000000811015611c6d57806001611b9792018355611549565b929092611c5957600460018060a01b0393848351166bffffffffffffffffffffffff60a01b908183541617825560018201866020860151168282541617905560028201866040860151168282541617905560038201908660608601511690825416179055019260808201511683549260c060ff60a01b60a0850151151560a01b16930151906003821015611c4557506001600160b01b0319909316171760a89190911b60ff60a81b16179055565b634e487b7160e01b81526021600452602490fd5b634e487b7160e01b82526004829052602482fd5b634e487b7160e01b82526041600452602482fd5b611c896117df565b506001600160a01b03166000908152600160205260409020548015611885576000198101908111610b1f576119b8611cc091611549565b90600190565b611cce6117df565b506001600160a01b039081166000908152600360205260408120548015611d3d575b6000198101908111611d29576119b8611d0891611549565b91602083015116815260016020526040812054611d26575090600190565b80fd5b634e487b7160e01b82526011600452602482fd5b506004602052604081205480611cf05750919050611d596117df565b9190565b9996929c9b90979394611d7e96929b95611d768c61184e565b98909c6117c2565b9b8815611efa5760a08101511561016b5760408101516001600160a01b039081168382160361016b5760208201518116818f160361016b57808f92511691160361016b575b6001600160a01b039b998c16998c168a900361016b578b60409d169760009d8e8a815260036020522054611ef6578d9e9f8d9e9c9d604091169c8d815260046020522054611ef2578d90159182611ee7575b505015611ece57868c821603611eca578c915b15611ea95750509089611e3e81969594936117c2565b91169485911603611ea5578816809603611ea1578786911603611e9d5703611e9957841603611e9557835260036020526040832054611e915716815260046020526040812054611d265750600190600290565b8280fd5b8380fd5b8580fd5b8780fd5b8880fd5b8980fd5b9597509a99985050505093508491501603611e915716611d26575090600190565b8c80fd5b808c168714611edf57600191611e28565b600291611e28565b161590508c38611e15565b8e80fd5b8d80fd5b506001600160a01b03811615611dc357600080fd5b611f176117df565b506001600160a01b0390611f2a906117c2565b1660005260036020526040600020548015611885576000198101908111610b1f576119b8611cc091611549565b6001600160a01b03811615611f6f5761177790611fc1565b604051631e4fbdf760e01b815260006004820152602490fd5b6000805160206120bc833981519152546001600160a01b03163303611fa957565b60405163118cdaa760e01b8152336004820152602490fd5b6000805160206120bc83398151915280546001600160a01b039283166001600160a01b0319821681179092559091167f8be0079c531659141344cd1fd0a4f28419497f9722a3daafe3b4186f6b6457e0600080a3565b60ff7ff0c57e16840df040f15088dc2f81fe391c3923bec73e23a9662efc9c229c6a005460401c161561204657565b604051631afcd79f60e31b8152600490fd5b9061207f575080511561206d57805190602001fd5b60405163d6bda27560e01b8152600490fd5b815115806120b2575b612090575090565b604051639996b31560e01b81526001600160a01b039091166004820152602490fd5b50803b1561208856fe9016d09d72d40fdae2fd8ceac6b6234c7706214fd39c1cd1e609a0528c199300a26469706673582212208e95b7511a1b4e2d1da33048b0e85a5df104a20107dc1a70d6153d4f4fe2d97b64736f6c63430008180033",
  "linkReferences": {},
  "deployedLinkReferences": {}
}