{
  "_format": "hh-sol-artifact-1",
  "contractName": "KeyLogRegistry",
  "sourceName": "contracts/KeyLogRegistry.sol",
  "abi": [
    {
      "inputs": [],
      "stateMutability": "nonpayable",
      "type": "constructor"
    },
    {
      "inputs": [
        {
          "internalType": "address",
          "name": "target",
          "type": "address"
        }
      ],
      "name": "AddressEmptyCode",
      "type": "error"
    },
    {
      "inputs": [
        {
          "internalType": "address",
          "name": "implementation",
          "type": "address"
        }
      ],
      "name": "ERC1967InvalidImplementation",
      "type": "error"
    },
    {
      "inputs": [],
      "name": "ERC1967NonPayable",
      "type": "error"
    },
    {
      "inputs": [],
      "name": "FailedCall",
      "type": "error"
    },
    {
      "inputs": [],
      "name": "InvalidInitialization",
      "type": "error"
    },
    {
      "inputs": [],
      "name": "NotInitializing",
      "type": "error"
    },
    {
      "inputs": [
        {
          "internalType": "address",
          "name": "owner",
          "type": "address"
        }
      ],
      "name": "OwnableInvalidOwner",
      "type": "error"
    },
    {
      "inputs": [
        {
          "internalType": "address",
          "name": "account",
          "type": "address"
        }
      ],
      "name": "OwnableUnauthorizedAccount",
      "type": "error"
    },
    {
      "inputs": [],
      "name": "UUPSUnauthorizedCallContext",
      "type": "error"
    },
    {
      "inputs": [
        {
          "internalType": "bytes32",
          "name": "slot",
          "type": "bytes32"
        }
      ],
      "name": "UUPSUnsupportedProxiableUUID",
      "type": "error"
    },
    {
      "anonymous": false,
      "inputs": [
        {
          "indexed": false,
          "internalType": "uint64",
          "name": "version",
          "type": "uint64"
        }
      ],
      "name": "Initialized",
      "type": "event"
    },
    {
      "anonymous": false,
      "inputs": [
        {
          "indexed": true,
          "internalType": "address",
          "name": "publicKeyHash",
          "type": "address"
        },
        {
          "indexed": false,
          "internalType": "uint256",
          "name": "index",
          "type": "uint256"
        }
      ],
      "name": "KeyLogRegistered",
      "type": "event"
    },
    {
      "anonymous": false,
      "inputs": [
        {
          "indexed": true,
          "internalType": "address",
          "name": "publicKeyHash",
          "type": "address"
        },
        {
          "indexed": false,
          "internalType": "uint256",
          "name": "index",
          "type": "uint256"
        }
      ],
      "name": "KeyRotated",
      "type": "event"
    },
    {
      "anonymous": false,
      "inputs": [
        {
          "indexed": true,
          "internalType": "address",
          "name": "previousOwner",
          "type": "address"
        },
        {
          "indexed": true,
          "internalType": "address",
          "name": "newOwner",
          "type": "address"
        }
      ],
      "name": "OwnershipTransferred",
      "type": "event"
    },
    {
      "anonymous": false,
      "inputs": [
        {
          "indexed": true,
          "internalType": "address",
          "name": "implementation",
          "type": "address"
        }
      ],
      "name": "Upgraded",
      "type": "event"
    },
    {
      "inputs": [],
      "name": "UPGRADE_INTERFACE_VERSION",
      "outputs": [
        {
          "internalType": "string",
          "name": "",
          "type": "string"
        }
      ],
      "stateMutability": "view",
      "type": "function"
    },
    {
      "inputs": [],
      "name": "authorizedCaller",
      "outputs": [
        {
          "internalType": "address",
          "name": "",
          "type": "address"
        }
      ],
      "stateMutability": "view",
      "type": "function"
    },
    {
      "inputs": [
        {
          "internalType": "bytes",
          "name": "publicKey",
          "type": "bytes"
        }
      ],
      "name": "buildFromPublicKey",
      "outputs": [
        {
          "components": [
            {
              "internalType": "address",
              "name": "twicePrerotatedKeyHash",
              "type": "address"
            },
            {
              "internalType": "address",
              "name": "prerotatedKeyHash",
              "type": "address"
            },
            {
              "internalType": "address",
              "name": "publicKeyHash",
              "type": "address"
            },
            {
              "internalType": "address",
              "name": "prevPublicKeyHash",
              "type": "address"
            },
            {
              "internalType": "address",
              "name": "outputAddress",
              "type": "address"
            },
            {
              "internalType": "bool",
              "name": "isOnChain",
              "type": "bool"
            },
            {
              "internalType": "enum KeyLogRegistry.KeyEventFlag",
              "name": "flag",
              "type": "uint8"
            }
          ],
          "internalType": "struct KeyLogRegistry.KeyLogEntry[]",
          "name": "",
          "type": "tuple[]"
        }
      ],
      "stateMutability": "view",
      "type": "function"
    },
    {
      "inputs": [
        {
          "internalType": "address",
          "name": "",
          "type": "address"
        }
      ],
      "name": "byPrerotatedKeyHash",
      "outputs": [
        {
          "internalType": "uint256",
          "name": "",
          "type": "uint256"
        }
      ],
      "stateMutability": "view",
      "type": "function"
    },
    {
      "inputs": [
        {
          "internalType": "address",
          "name": "",
          "type": "address"
        }
      ],
      "name": "byPrevPublicKeyHash",
      "outputs": [
        {
          "internalType": "uint256",
          "name": "",
          "type": "uint256"
        }
      ],
      "stateMutability": "view",
      "type": "function"
    },
    {
      "inputs": [
        {
          "internalType": "address",
          "name": "",
          "type": "address"
        }
      ],
      "name": "byPublicKeyHash",
      "outputs": [
        {
          "internalType": "uint256",
          "name": "",
          "type": "uint256"
        }
      ],
      "stateMutability": "view",
      "type": "function"
    },
    {
      "inputs": [
        {
          "internalType": "address",
          "name": "",
          "type": "address"
        }
      ],
      "name": "byTwicePrerotatedKeyHash",
      "outputs": [
        {
          "internalType": "uint256",
          "name": "",
          "type": "uint256"
        }
      ],
      "stateMutability": "view",
      "type": "function"
    },
    {
      "inputs": [
        {
          "internalType": "bytes",
          "name": "publicKey",
          "type": "bytes"
        }
      ],
      "name": "getAddressFromPublicKey",
      "outputs": [
        {
          "internalType": "address",
          "name": "",
          "type": "address"
        }
      ],
      "stateMutability": "pure",
      "type": "function"
    },
    {
      "inputs": [
        {
          "internalType": "bytes",
          "name": "publicKey",
          "type": "bytes"
        }
      ],
      "name": "getCurrentIndex",
      "outputs": [
        {
          "internalType": "uint256",
          "name": "",
          "type": "uint256"
        }
      ],
      "stateMutability": "view",
      "type": "function"
    },
    {
      "inputs": [
        {
          "internalType": "bytes",
          "name": "publicKey",
          "type": "bytes"
        }
      ],
      "name": "getLatestChainEntry",
      "outputs": [
        {
          "components": [
            {
              "internalType": "address",
              "name": "twicePrerotatedKeyHash",
              "type": "address"
            },
            {
              "internalType": "address",
              "name": "prerotatedKeyHash",
              "type": "address"
            },
            {
              "internalType": "address",
              "name": "publicKeyHash",
              "type": "address"
            },
            {
              "internalType": "address",
              "name": "prevPublicKeyHash",
              "type": "address"
            },
            {
              "internalType": "address",
              "name": "outputAddress",
              "type": "address"
            },
            {
              "internalType": "bool",
              "name": "isOnChain",
              "type": "bool"
            },
            {
              "internalType": "enum KeyLogRegistry.KeyEventFlag",
              "name": "flag",
              "type": "uint8"
            }
          ],
          "internalType": "struct KeyLogRegistry.KeyLogEntry",
          "name": "",
          "type": "tuple"
        },
        {
          "internalType": "bool",
          "name": "",
          "type": "bool"
        }
      ],
      "stateMutability": "view",
      "type": "function"
    },
    {
      "inputs": [
        {
          "internalType": "address",
          "name": "publicKeyHash",
          "type": "address"
        }
      ],
      "name": "getLatestEntry",
      "outputs": [
        {
          "components": [
            {
              "internalType": "address",
              "name": "twicePrerotatedKeyHash",
              "type": "address"
            },
            {
              "internalType": "address",
              "name": "prerotatedKeyHash",
              "type": "address"
            },
            {
              "internalType": "address",
              "name": "publicKeyHash",
              "type": "address"
            },
            {
              "internalType": "address",
              "name": "prevPublicKeyHash",
              "type": "address"
            },
            {
              "internalType": "address",
              "name": "outputAddress",
              "type": "address"
            },
            {
              "internalType": "bool",
              "name": "isOnChain",
              "type": "bool"
            },
            {
              "internalType": "enum KeyLogRegistry.KeyEventFlag",
              "name": "flag",
              "type": "uint8"
            }
          ],
          "internalType": "struct KeyLogRegistry.KeyLogEntry",
          "name": "",
          "type": "tuple"
        },
        {
          "internalType": "bool",
          "name": "",
          "type": "bool"
        }
      ],
      "stateMutability": "view",
      "type": "function"
    },
    {
      "inputs": [
        {
          "internalType": "address",
          "name": "prerotatedKeyHash",
          "type": "address"
        }
      ],
      "name": "getLatestEntryByPrerotatedKeyHash",
      "outputs": [
        {
          "components": [
            {
              "internalType": "address",
              "name": "twicePrerotatedKeyHash",
              "type": "address"
            },
            {
              "internalType": "address",
              "name": "prerotatedKeyHash",
              "type": "address"
            },
            {
              "internalType": "address",
              "name": "publicKeyHash",
              "type": "address"
            },
            {
              "internalType": "address",
              "name": "prevPublicKeyHash",
              "type": "address"
            },
            {
              "internalType": "address",
              "name": "outputAddress",
              "type": "address"
            },
            {
              "internalType": "bool",
              "name": "isOnChain",
              "type": "bool"
            },
            {
              "internalType": "enum KeyLogRegistry.KeyEventFlag",
              "name": "flag",
              "type": "uint8"
            }
          ],
          "internalType": "struct KeyLogRegistry.KeyLogEntry",
          "name": "",
          "type": "tuple"
        },
        {
          "internalType": "bool",
          "name": "",
          "type": "bool"
        }
      ],
      "stateMutability": "view",
      "type": "function"
    },
    {
      "inputs": [
        {
          "internalType": "bytes",
          "name": "publicKey",
          "type": "bytes"
        }
      ],
      "name": "getPreviousEntry",
      "outputs": [
        {
          "components": [
            {
              "internalType": "address",
              "name": "twicePrerotatedKeyHash",
              "type": "address"
            },
            {
              "internalType": "address",
              "name": "prerotatedKeyHash",
              "type": "address"
            },
            {
              "internalType": "address",
              "name": "publicKeyHash",
              "type": "address"
            },
            {
              "internalType": "address",
              "name": "prevPublicKeyHash",
              "type": "address"
            },
            {
              "internalType": "address",
              "name": "outputAddress",
              "type": "address"
            },
            {
              "internalType": "bool",
              "name": "isOnChain",
              "type": "bool"
            },
            {
              "internalType": "enum KeyLogRegistry.KeyEventFlag",
              "name": "flag",
              "type": "uint8"
            }
          ],
          "internalType": "struct KeyLogRegistry.KeyLogEntry",
          "name": "",
          "type": "tuple"
        },
        {
          "internalType": "bool",
          "name": "",
          "type": "bool"
        }
      ],
      "stateMutability": "view",
      "type": "function"
    },
    {
      "inputs": [
        {
          "internalType": "address",
          "name": "initialOwner",
          "type": "address"
        }
      ],
      "name": "initialize",
      "outputs": [],
      "stateMutability": "nonpayable",
      "type": "function"
    },
    {
      "inputs": [
        {
          "internalType": "uint256",
          "name": "",
          "type": "uint256"
        }
      ],
      "name": "keyLogEntries",
      "outputs": [
        {
          "internalType": "address",
          "name": "twicePrerotatedKeyHash",
          "type": "address"
        },
        {
          "internalType": "address",
          "name": "prerotatedKeyHash",
          "type": "address"
        },
        {
          "internalType": "address",
          "name": "publicKeyHash",
          "type": "address"
        },
        {
          "internalType": "address",
          "name": "prevPublicKeyHash",
          "type": "address"
        },
        {
          "internalType": "address",
          "name": "outputAddress",
          "type": "address"
        },
        {
          "internalType": "bool",
          "name": "isOnChain",
          "type": "bool"
        },
        {
          "internalType": "enum KeyLogRegistry.KeyEventFlag",
          "name": "flag",
          "type": "uint8"
        }
      ],
      "stateMutability": "view",
      "type": "function"
    },
    {
      "inputs": [],
      "name": "owner",
      "outputs": [
        {
          "internalType": "address",
          "name": "",
          "type": "address"
        }
      ],
      "stateMutability": "view",
      "type": "function"
    },
    {
      "inputs": [],
      "name": "proxiableUUID",
      "outputs": [
        {
          "internalType": "bytes32",
          "name": "",
          "type": "bytes32"
        }
      ],
      "stateMutability": "view",
      "type": "function"
    },
    {
      "inputs": [
        {
          "internalType": "bytes",
          "name": "publicKey",
          "type": "bytes"
        },
        {
          "internalType": "address",
          "name": "prerotatedKeyHash",
          "type": "address"
        },
        {
          "internalType": "address",
          "name": "twicePrerotatedKeyHash",
          "type": "address"
        },
        {
          "internalType": "address",
          "name": "prevPublicKeyHash",
          "type": "address"
        },
        {
          "internalType": "address",
          "name": "outputAddress",
          "type": "address"
        }
      ],
      "name": "registerKeyLog",
      "outputs": [],
      "stateMutability": "nonpayable",
      "type": "function"
    },
    {
      "inputs": [
        {
          "internalType": "bytes",
          "name": "unconfirmedPublicKey",
          "type": "bytes"
        },
        {
          "internalType": "address",
          "name": "unconfirmedPrerotatedKeyHash",
          "type": "address"
        },
        {
          "internalType": "address",
          "name": "unconfirmedTwicePrerotatedKeyHash",
          "type": "address"
        },
        {
          "internalType": "address",
          "name": "unconfirmedPrevPublicKeyHash",
          "type": "address"
        },
        {
          "internalType": "address",
          "name": "unconfirmedOutputAddress",
          "type": "address"
        },
        {
          "internalType": "bytes",
          "name": "confirmingPublicKey",
          "type": "bytes"
        },
        {
          "internalType": "address",
          "name": "confirmingPrerotatedKeyHash",
          "type": "address"
        },
        {
          "internalType": "address",
          "name": "confirmingTwicePrerotatedKeyHash",
          "type": "address"
        },
        {
          "internalType": "address",
          "name": "confirmingPrevPublicKeyHash",
          "type": "address"
        },
        {
          "internalType": "address",
          "name": "confirmingOutputAddress",
          "type": "address"
        }
      ],
      "name": "registerKeyLogPair",
      "outputs": [],
      "stateMutability": "nonpayable",
      "type": "function"
    },
    {
      "inputs": [],
      "name": "renounceOwnership",
      "outputs": [],
      "stateMutability": "nonpayable",
      "type": "function"
    },
    {
      "inputs": [
        {
          "internalType": "address",
          "name": "_caller",
          "type": "address"
        }
      ],
      "name": "setAuthorizedCaller",
      "outputs": [],
      "stateMutability": "nonpayable",
      "type": "function"
    },
    {
      "inputs": [
        {
          "internalType": "address",
          "name": "newOwner",
          "type": "address"
        }
      ],
      "name": "transferOwnership",
      "outputs": [],
      "stateMutability": "nonpayable",
      "type": "function"
    },
    {
      "inputs": [
        {
          "internalType": "address",
          "name": "newImplementation",
          "type": "address"
        },
        {
          "internalType": "bytes",
          "name": "data",
          "type": "bytes"
        }
      ],
      "name": "upgradeToAndCall",
      "outputs": [],
      "stateMutability": "payable",
      "type": "function"
    },
    {
      "inputs": [
        {
          "internalType": "bytes",
          "name": "publicKey",
          "type": "bytes"
        },
        {
          "internalType": "address",
          "name": "publicKeyHash",
          "type": "address"
        },
        {
          "internalType": "address",
          "name": "prerotatedKeyHash",
          "type": "address"
        },
        {
          "internalType": "address",
          "name": "twicePrerotatedKeyHash",
          "type": "address"
        },
        {
          "internalType": "address",
          "name": "prevPublicKeyHash",
          "type": "address"
        },
        {
          "internalType": "address",
          "name": "outputAddress",
          "type": "address"
        },
        {
          "internalType": "bytes",
          "name": "confirmingPublicKey",
          "type": "bytes"
        },
        {
          "internalType": "address",
          "name": "confirmingPublicKeyHash",
          "type": "address"
        },
        {
          "internalType": "address",
          "name": "confirmingPrerotatedKeyHash",
          "type": "address"
        },
        {
          "internalType": "address",
          "name": "confirmingTwicePrerotatedKeyHash",
          "type": "address"
        },
        {
          "internalType": "address",
          "name": "confirmingPrevPublicKeyHash",
          "type": "address"
        },
        {
          "internalType": "address",
          "name": "confirmingOutputAddress",
          "type": "address"
        },
        {
          "internalType": "bool",
          "name": "isPair",
          "type": "bool"
        }
      ],
      "name": "validateTransaction",
      "outputs": [
        {
          "internalType": "enum KeyLogRegistry.KeyEventFlag",
          "name": "",
          "type": "uint8"
        },
        {
          "internalType": "enum KeyLogRegistry.KeyEventFlag",
          "name": "",
          "type": "uint8"
        }
      ],
      "stateMutability": "view",
      "type": "function"
    }
  ],
  "bytecode": "0x60a080604052346100cc57306080527ff0c57e16840df040f15088dc2f81fe391c3923bec73e23a9662efc9c229c6a009081549060ff8260401c166100bd57506001600160401b036002600160401b031982821601610078575b604051611ef690816100d28239608051818181610f370152610fdf0152f35b6001600160401b031990911681179091556040519081527fc7f505b2f371ae2175ee4913f4499e1f2633a7b5936321eed1cdaeb6115181d290602090a1388080610059565b63f92ee8a960e01b8152600490fd5b600080fdfe6080604052600436101561001257600080fd5b60e060003560e01c90816325fb5bd9146112b1578163276c1ac01461126a5781632bf2fac9146112305781632d2eca6a146111f8578163401795b2146111be5781634f1ef28614610fa157816352d1902d14610f245781635ed9739c14610e9957508063614c527614610bcb578063715018a614610b6157806385687dcd1461060d5780638da5cb5b146105d757806391952551146105b657806392e711041461059557806397dc97cb1461056c5780639fa17f9114610532578063a375e472146104f8578063a54f311c14610407578063ad3cb1cc1461035d578063c4d66de81461022a578063cf8fbec9146101e7578063ee93aac21461019b578063f2fde38b146101705763fb51e5bb1461012857600080fd5b3461016b57602036600319011261016b576004356001600160401b03811161016b5761016261015d6020923690600401611445565b61171b565b51604051908152f35b600080fd5b3461016b57602036600319011261016b5761019961018c611463565b610194611dc3565b611d4f565b005b3461016b57602036600319011261016b576004356001600160401b03811161016b576101ce6101d3913690600401611445565b611d07565b906101e360405192839283611571565b0390f35b3461016b57602036600319011261016b57610200611463565b610208611dc3565b600580546001600160a01b0319166001600160a01b0392909216919091179055005b3461016b57602036600319011261016b57610243611463565b7ff0c57e16840df040f15088dc2f81fe391c3923bec73e23a9662efc9c229c6a0090815460ff8160401c1615916001600160401b03821680159081610355575b600114908161034b575b159081610342575b506103305767ffffffffffffffff19821660011784556102c69183610311575b506102be611dfc565b610194611dfc565b6102ce611dfc565b6102d457005b68ff00000000000000001981541690557fc7f505b2f371ae2175ee4913f4499e1f2633a7b5936321eed1cdaeb6115181d2602060405160018152a1005b68ffffffffffffffffff191668010000000000000001178455846102b5565b60405163f92ee8a960e01b8152600490fd5b90501585610295565b303b15915061028d565b849150610283565b3461016b57600036600319011261016b57604051604081018181106001600160401b038211176103f15760405260058152602090640352e302e360dc1b60208201526040518092602082528251908160208401526000935b8285106103d8575050604092506000838284010152601f80199101168101030190f35b84810182015186860160400152938101938593506103b5565b634e487b7160e01b600052604160045260246000fd5b3461016b576101a036600319011261016b576001600160401b0360043581811161016b57610439903690600401611445565b610441611479565b9061044a61148f565b926104536114a5565b9061045c6114bb565b6001600160a01b039160a43590838216820361016b5760c43590811161016b5761048a903690600401611445565b6104926114d1565b61049a6114e7565b916104a36114fe565b936101443595878716870361016b5761016435978816880361016b5761018435988915158a0361016b5760409c6104f69c6104dd9c611b55565b6104ec8493929351809461138f565b602083019061138f565bf35b3461016b57602036600319011261016b576001600160a01b03610519611463565b1660005260016020526020604060002054604051908152f35b3461016b57602036600319011261016b576001600160a01b03610553611463565b1660005260046020526020604060002054604051908152f35b3461016b57600036600319011261016b576005546040516001600160a01b039091168152602090f35b3461016b57602036600319011261016b576101d36105b1611463565b611abe565b3461016b57602036600319011261016b576101d36105d2611463565b611a79565b3461016b57600036600319011261016b57600080516020611ea1833981519152546040516001600160a01b039091168152602090f35b3461016b5761014036600319011261016b576001600160401b0360043581811161016b5761063f90369060040161158d565b9190610649611479565b9161065261148f565b9161065b6114a5565b916106646114bb565b9060a43590811161016b5761067d90369060040161158d565b60c4359491906001600160a01b038616860361016b5761069b6114d1565b966106a46114e7565b916106ad6114fe565b9160018060a01b036005541633148015610b40575b1561016b57610705610717956106fd6106e68f8c6106e191369161140e565b6115ba565b9a6106f56106e136888661140e565b9f369161140e565b93369161140e565b9161070f81611646565b9690916115ba565b908615610b2b5760a08101511561016b5760408101516001600160a01b039081169089160361016b5760208101516001600160a01b039081169083160361016b57516001600160a01b03908116908d160361016b575b6001600160a01b0389811691160361016b576001600160a01b038b1660009081526003602052604090205461016b576001600160a01b031660008181526004602052604090205490949061016b571580610b1a575b15610b11576001600160a01b038a81169087160361016b576107e3906115ba565b6001600160a01b039a8b169a168a900361016b576001600160a01b038716830361016b576001600160a01b0390811691908716820361016b576001600160a01b0389168a900361016b576001600160a01b0390811697908616880361016b576001600160a01b03871660009081526003602052604090205461016b576001600160a01b031660008181526004602052604090205490939061016b576040516108cd9161088e8261139c565b8482526001600160a01b038b8116602084015288811660408401529081166060830181905296166080820152600160a0820181905260c082015261196b565b6000546000199485820199828b11610a5f576001600160a01b03881660009081526001602052604081208490559180610af7575b50816001600160a01b038216610ad2575b505083610ab5575b505061096691506040519061092e8261139c565b8382526001600160a01b0387166020830152604082018a9052606082018890526080820152600160a0820152600260c082015261196b565b60005491820194828611610a5f5787946000918660005260016020528460406000205580610a9b575b506001600160a01b038116610a75575b5081610a14575b847f65b9775e0ec7a02caf84b2523694b517ace341c14dd2b3926a5591d7b5f5a99660208883828c8a6040519182527fa9366f75c6c44e3c9ee299d368915abb2fa3108d469f3ab468ef239142dc725b92839160018060a01b031692a283604051848152a2604051908152a2005b909192949350610a5f577f65b9775e0ec7a02caf84b2523694b517ace341c14dd2b3926a5591d7b5f5a9969460209487938693600052600484526040600020559293948196506109a6565b634e487b7160e01b600052601160045260246000fd5b945080610a5f57879460018060a01b03166000526003602052826040600020558861099f565b91506000916000526002602052836040600020558961098f565b610a5f57610966926000526004602052604060002055898061091a565b610a5f576001600160a01b031660009081526003602052604090208290558b81610912565b91506000916000526002602052826040600020558c610901565b6107e3906115ba565b506001600160a01b038516156107c2565b506001600160a01b0387161561076d57600080fd5b50600080516020611ea1833981519152546001600160a01b031633146106c2565b3461016b57600036600319011261016b57610b7a611dc3565b600080516020611ea183398151915280546001600160a01b031981169091556000906001600160a01b03167f8be0079c531659141344cd1fd0a4f28419497f9722a3daafe3b4186f6b6457e08280a3005b3461016b5760a036600319011261016b576004356001600160401b03811161016b57610bfb903690600401611445565b610c4b610c06611479565b610c0e61148f565b90610c176114a5565b90610c206114bb565b91610c2a866115ba565b916000604051610c39816113b7565b52610c4387611646565b9690976115ba565b968615610e845760a08101511561016b5760408101516001600160a01b03919082168483160361016b5781602082015116828a160361016b575181169082160361016b575b6001600160a01b0392831696831687900361016b57821694856000526020946003865260406000205461016b57831690816000526004865260406000205461016b571580610e7a575b15610e5f57858385160361016b57826000945b169182870361016b5760038510159384610def578515908115610e50575b90610d51929160405192610d1d8461139c565b8584528a8a8501528b604085015216948560608401526080830152151560a0820152610d4c8660c083016116a3565b61196b565b60005491600019830196838811610a5f5760009189600052600188528460406000205580610e37575b508181610e1e575b505081610e05575b505050847fa9366f75c6c44e3c9ee299d368915abb2fa3108d469f3ab468ef239142dc725b84604051878152a2610def57600103610dc457005b7f65b9775e0ec7a02caf84b2523694b517ace341c14dd2b3926a5591d7b5f5a99691604051908152a2005b634e487b7160e01b600052602160045260246000fd5b610a5f5760005260048452604060002055858080610d8a565b610a5f5760005260038652826040600020558881610d82565b9150600091600052600287528360406000205589610d7a565b60009550600287149150610d0a565b8383168614610e715782600194610cec565b82600294610cec565b5082821615610cd9565b506001600160a01b03821615610c9057600080fd5b3461016b57602090602060031936011261016b576004356001600160401b03811161016b57610ed061015d84923690600401611445565b60405192839260208401906020855283518092526020604086019401926000905b838210610efe5786860387f35b918496508286610f146001949698849851611515565b0196019201869594929391610ef1565b3461016b57600036600319011261016b577f00000000000000000000000000000000000000000000000000000000000000006001600160a01b03163003610f8f5760206040517f360894a13ba1a3210667c828492db98dca3e2076cc3735a920a3ca505d382bbc8152f35b60405163703e46dd60e11b8152600490fd5b604036600319011261016b57610fb5611463565b6024356001600160401b03811161016b57610fd4903690600401611445565b906001600160a01b037f00000000000000000000000000000000000000000000000000000000000000008116308114908115611190575b50610f8f57611018611dc3565b6040516352d1902d60e01b8152908216916020918281600481875afa60009181611161575b5061105b57604051634c9c8ce360e01b815260048101859052602490fd5b9284937f360894a13ba1a3210667c828492db98dca3e2076cc3735a920a3ca505d382bbc908181036111495750823b156111305780546001600160a01b03191682179055604051907fbc7cd75a20ee27fd9adebab32041f755214dbc6bffa90cc0225b39da2e5c2d3b600080a28351156111165750600080848461019996519101845af4903d1561110d573d6110f0816113f3565b906110fe60405192836113d2565b8152600081943d92013e611e3d565b60609250611e3d565b925050503461112157005b63b398979f60e01b8152600490fd5b604051634c9c8ce360e01b815260048101839052602490fd5b60249060405190632a87526960e21b82526004820152fd5b9091508381813d8311611189575b61117981836113d2565b8101031261016b5751908661103d565b503d61116f565b9050817f360894a13ba1a3210667c828492db98dca3e2076cc3735a920a3ca505d382bbc541614158461100b565b3461016b57602036600319011261016b576001600160a01b036111df611463565b1660005260026020526020604060002054604051908152f35b3461016b57602036600319011261016b576004356001600160401b03811161016b5761122b6101d3913690600401611445565b611646565b3461016b57602036600319011261016b576001600160a01b03611251611463565b1660005260036020526020604060002054604051908152f35b3461016b57602036600319011261016b576004356001600160401b03811161016b5761129f6106e16020923690600401611445565b6040516001600160a01b039091168152f35b3461016b57602036600319011261016b5760043560005481101561016b576112da60e091611341565b506104f660018060a01b03918281541692806001830154169181600282015416600483600384015416920154936040519687526020870152604086015260608501528116608084015260ff8160a01c16151560a084015260ff60c084019160a81c1661138f565b90600091825481101561137b57600590838052027f290decd9548b62a8d60345a988386fc84ba6bc95484008f6362f93160ef3e563019190565b634e487b7160e01b83526032600452602483fd5b906003821015610def5752565b60e081019081106001600160401b038211176103f157604052565b602081019081106001600160401b038211176103f157604052565b90601f801991011681019081106001600160401b038211176103f157604052565b6001600160401b0381116103f157601f01601f191660200190565b92919261141a826113f3565b9161142860405193846113d2565b82948184528183011161016b578281602093846000960137010152565b9080601f8301121561016b578160206114609335910161140e565b90565b600435906001600160a01b038216820361016b57565b602435906001600160a01b038216820361016b57565b604435906001600160a01b038216820361016b57565b606435906001600160a01b038216820361016b57565b608435906001600160a01b038216820361016b57565b60e435906001600160a01b038216820361016b57565b61010435906001600160a01b038216820361016b57565b61012435906001600160a01b038216820361016b57565b9060c08061156f9360018060a01b03808251168552806020830151166020860152806040830151166040860152806060830151166060860152608082015116608085015260a0810151151560a0850152015191019061138f565b565b90929160e09061158683610100810196611515565b1515910152565b9181601f8401121561016b578235916001600160401b03831161016b576020838186019501011161016b57565b80516040810361016b57602091909101206001600160a01b031690565b604051906115e48261139c565b8160c06000918281528260208201528260408201528260608201528260808201528260a08201520152565b80511561161c5760200190565b634e487b7160e01b600052603260045260246000fd5b805182101561161c5760209160051b010190565b611658906116526115d7565b5061171b565b80511561167d5780516000198101908111610a5f5761167691611632565b5190600190565b506116866115d7565b90600090565b6001600160401b0381116103f15760051b60200190565b6003821015610def5752565b9061156f6040516116bf8161139c565b60c060ff8295600460018060a01b039182815416865282600182015416602087015282600282015416604087015282600382015416606087015201549081166080850152818160a01c16151560a085015260a81c1691016116a3565b611724906115ba565b906040805192610ca084018481106001600160401b038211176103f15782526064845260005b610c808110611954575060009061175f6115d7565b506117686115d7565b505b6001600160a01b0390811682526001602081815284842054908115611945575b8115611936575b50801561192057600019810190811161190c576117b06117b691611341565b506116af565b916060830151169182156117cb57505061176a565b90915094919293949061185c575b506117ef6117e68361168c565b935193846113d2565b818352601f196117fe8361168c565b0160005b81811061184557505060005b82811061181b5750505090565b8061182860019284611632565b516118338287611632565b5261183e8186611632565b500161180e565b6020906118506115d7565b82828801015201611802565b8092506118688261160f565b526118728161160f565b506020918201516001929083906001600160a01b03908116825b611899575b5050506117d9565b81166000528183528560002054928315600003611891579091929460001995868101908111610a5f576117b06118ce91611341565b95866118da8388611632565b526118e58287611632565b508114610a5f578184849201960151168451861015611907578392919361188c565b611891565b634e487b7160e01b84526011600452602484fd5b5050509192505190611931826113b7565b815290565b60049150528383205438611791565b6003815285852054915061178a565b60209061195f6115d7565b8282880101520161174a565b6000805468010000000000000000811015611a655780600161198f92018355611341565b929092611a5157600460018060a01b0393848351166bffffffffffffffffffffffff60a01b908183541617825560018201866020860151168282541617905560028201866040860151168282541617905560038201908660608601511690825416179055019260808201511683549260c060ff60a01b60a0850151151560a01b16930151906003821015611a3d57506001600160b01b0319909316171760a89190911b60ff60a81b16179055565b634e487b7160e01b81526021600452602490fd5b634e487b7160e01b82526004829052602482fd5b634e487b7160e01b82526041600452602482fd5b611a816115d7565b506001600160a01b0316600090815260016020526040902054801561167d576000198101908111610a5f576117b0611ab891611341565b90600190565b611ac66115d7565b506001600160a01b039081166000908152600360205260408120548015611b35575b6000198101908111611b21576117b0611b0091611341565b91602083015116815260016020526040812054611b1e575090600190565b80fd5b634e487b7160e01b82526011600452602482fd5b506004602052604081205480611ae85750919050611b516115d7565b9190565b9996929c9b90979394611b7696929b95611b6e8c611646565b98909c6115ba565b9b8815611cf25760a08101511561016b5760408101516001600160a01b039081168382160361016b5760208201518116818f160361016b57808f92511691160361016b575b6001600160a01b039b998c16998c168a900361016b578b60409d169760009d8e8a815260036020522054611cee578d9e9f8d9e9c9d604091169c8d815260046020522054611cea578d90159182611cdf575b505015611cc657868c821603611cc2578c915b15611ca15750509089611c3681969594936115ba565b91169485911603611c9d578816809603611c99578786911603611c955703611c9157841603611c8d57835260036020526040832054611c895716815260046020526040812054611b1e5750600190600290565b8280fd5b8380fd5b8580fd5b8780fd5b8880fd5b8980fd5b9597509a99985050505093508491501603611c895716611b1e575090600190565b8c80fd5b808c168714611cd757600191611c20565b600291611c20565b161590508c38611c0d565b8e80fd5b8d80fd5b506001600160a01b03811615611bbb57600080fd5b611d0f6115d7565b506001600160a01b0390611d22906115ba565b166000526003602052604060002054801561167d576000198101908111610a5f576117b0611ab891611341565b6001600160a01b03908116908115611daa57600080516020611ea183398151915280546001600160a01b031981168417909155167f8be0079c531659141344cd1fd0a4f28419497f9722a3daafe3b4186f6b6457e0600080a3565b604051631e4fbdf760e01b815260006004820152602490fd5b600080516020611ea1833981519152546001600160a01b03163303611de457565b60405163118cdaa760e01b8152336004820152602490fd5b60ff7ff0c57e16840df040f15088dc2f81fe391c3923bec73e23a9662efc9c229c6a005460401c1615611e2b57565b604051631afcd79f60e31b8152600490fd5b90611e645750805115611e5257805190602001fd5b60405163d6bda27560e01b8152600490fd5b81511580611e97575b611e75575090565b604051639996b31560e01b81526001600160a01b039091166004820152602490fd5b50803b15611e6d56fe9016d09d72d40fdae2fd8ceac6b6234c7706214fd39c1cd1e609a0528c199300a26469706673582212201ca301b826dd41df28b3d8f0bf5a104548c127c030feab66f762cc388b57876564736f6c63430008180033",
  "linkReferences": {},
  "deployedLinkReferences": {}
}