{
  "_format": "hh-sol-artifact-1",
  "contractName": "KeyLogRegistry",
  "sourceName": "contracts/KeyLogRegistry.sol",
  "abi": [
    {
      "inputs": [],
      "stateMutability": "nonpayable",
      "type": "constructor"
    },
    {
      "inputs": [
        {
          "internalType": "address",
          "name": "owner",
          "type": "address"
        }
      ],
      "name": "OwnableInvalidOwner",
      "type": "error"
    },
    {
      "inputs": [
        {
          "internalType": "address",
          "name": "account",
          "type": "address"
        }
      ],
      "name": "OwnableUnauthorizedAccount",
      "type": "error"
    },
    {
      "anonymous": false,
      "inputs": [
        {
          "indexed": true,
          "internalType": "address",
          "name": "publicKeyHash",
          "type": "address"
        },
        {
          "indexed": false,
          "internalType": "uint256",
          "name": "index",
          "type": "uint256"
        }
      ],
      "name": "KeyLogRegistered",
      "type": "event"
    },
    {
      "anonymous": false,
      "inputs": [
        {
          "indexed": true,
          "internalType": "address",
          "name": "publicKeyHash",
          "type": "address"
        },
        {
          "indexed": false,
          "internalType": "uint256",
          "name": "index",
          "type": "uint256"
        }
      ],
      "name": "KeyRotated",
      "type": "event"
    },
    {
      "anonymous": false,
      "inputs": [
        {
          "indexed": true,
          "internalType": "address",
          "name": "previousOwner",
          "type": "address"
        },
        {
          "indexed": true,
          "internalType": "address",
          "name": "newOwner",
          "type": "address"
        }
      ],
      "name": "OwnershipTransferred",
      "type": "event"
    },
    {
      "inputs": [],
      "name": "authorizedCaller",
      "outputs": [
        {
          "internalType": "address",
          "name": "",
          "type": "address"
        }
      ],
      "stateMutability": "view",
      "type": "function"
    },
    {
      "inputs": [
        {
          "internalType": "bytes",
          "name": "publicKey",
          "type": "bytes"
        }
      ],
      "name": "buildFromPublicKey",
      "outputs": [
        {
          "components": [
            {
              "internalType": "address",
              "name": "twicePrerotatedKeyHash",
              "type": "address"
            },
            {
              "internalType": "address",
              "name": "prerotatedKeyHash",
              "type": "address"
            },
            {
              "internalType": "address",
              "name": "publicKeyHash",
              "type": "address"
            },
            {
              "internalType": "address",
              "name": "prevPublicKeyHash",
              "type": "address"
            },
            {
              "internalType": "address",
              "name": "outputAddress",
              "type": "address"
            },
            {
              "internalType": "bool",
              "name": "hasRelationship",
              "type": "bool"
            },
            {
              "internalType": "bool",
              "name": "isOnChain",
              "type": "bool"
            },
            {
              "internalType": "enum KeyLogRegistry.KeyEventFlag",
              "name": "flag",
              "type": "uint8"
            }
          ],
          "internalType": "struct KeyLogRegistry.KeyLogEntry[]",
          "name": "",
          "type": "tuple[]"
        }
      ],
      "stateMutability": "view",
      "type": "function"
    },
    {
      "inputs": [
        {
          "internalType": "address",
          "name": "",
          "type": "address"
        },
        {
          "internalType": "uint256",
          "name": "",
          "type": "uint256"
        }
      ],
      "name": "byPrerotatedKeyHash",
      "outputs": [
        {
          "internalType": "uint256",
          "name": "",
          "type": "uint256"
        }
      ],
      "stateMutability": "view",
      "type": "function"
    },
    {
      "inputs": [
        {
          "internalType": "address",
          "name": "",
          "type": "address"
        },
        {
          "internalType": "uint256",
          "name": "",
          "type": "uint256"
        }
      ],
      "name": "byPrevPublicKeyHash",
      "outputs": [
        {
          "internalType": "uint256",
          "name": "",
          "type": "uint256"
        }
      ],
      "stateMutability": "view",
      "type": "function"
    },
    {
      "inputs": [
        {
          "internalType": "address",
          "name": "",
          "type": "address"
        },
        {
          "internalType": "uint256",
          "name": "",
          "type": "uint256"
        }
      ],
      "name": "byPublicKeyHash",
      "outputs": [
        {
          "internalType": "uint256",
          "name": "",
          "type": "uint256"
        }
      ],
      "stateMutability": "view",
      "type": "function"
    },
    {
      "inputs": [
        {
          "internalType": "bytes",
          "name": "publicKey",
          "type": "bytes"
        }
      ],
      "name": "getAddressFromPublicKey",
      "outputs": [
        {
          "internalType": "address",
          "name": "",
          "type": "address"
        }
      ],
      "stateMutability": "pure",
      "type": "function"
    },
    {
      "inputs": [
        {
          "internalType": "bytes",
          "name": "publicKey",
          "type": "bytes"
        }
      ],
      "name": "getCurrentIndex",
      "outputs": [
        {
          "internalType": "uint256",
          "name": "",
          "type": "uint256"
        }
      ],
      "stateMutability": "view",
      "type": "function"
    },
    {
      "inputs": [
        {
          "internalType": "bytes",
          "name": "publicKey",
          "type": "bytes"
        }
      ],
      "name": "getLatestChainEntry",
      "outputs": [
        {
          "components": [
            {
              "internalType": "address",
              "name": "twicePrerotatedKeyHash",
              "type": "address"
            },
            {
              "internalType": "address",
              "name": "prerotatedKeyHash",
              "type": "address"
            },
            {
              "internalType": "address",
              "name": "publicKeyHash",
              "type": "address"
            },
            {
              "internalType": "address",
              "name": "prevPublicKeyHash",
              "type": "address"
            },
            {
              "internalType": "address",
              "name": "outputAddress",
              "type": "address"
            },
            {
              "internalType": "bool",
              "name": "hasRelationship",
              "type": "bool"
            },
            {
              "internalType": "bool",
              "name": "isOnChain",
              "type": "bool"
            },
            {
              "internalType": "enum KeyLogRegistry.KeyEventFlag",
              "name": "flag",
              "type": "uint8"
            }
          ],
          "internalType": "struct KeyLogRegistry.KeyLogEntry",
          "name": "",
          "type": "tuple"
        },
        {
          "internalType": "bool",
          "name": "",
          "type": "bool"
        }
      ],
      "stateMutability": "view",
      "type": "function"
    },
    {
      "inputs": [
        {
          "internalType": "address",
          "name": "publicKeyHash",
          "type": "address"
        }
      ],
      "name": "getLatestEntry",
      "outputs": [
        {
          "components": [
            {
              "internalType": "address",
              "name": "twicePrerotatedKeyHash",
              "type": "address"
            },
            {
              "internalType": "address",
              "name": "prerotatedKeyHash",
              "type": "address"
            },
            {
              "internalType": "address",
              "name": "publicKeyHash",
              "type": "address"
            },
            {
              "internalType": "address",
              "name": "prevPublicKeyHash",
              "type": "address"
            },
            {
              "internalType": "address",
              "name": "outputAddress",
              "type": "address"
            },
            {
              "internalType": "bool",
              "name": "hasRelationship",
              "type": "bool"
            },
            {
              "internalType": "bool",
              "name": "isOnChain",
              "type": "bool"
            },
            {
              "internalType": "enum KeyLogRegistry.KeyEventFlag",
              "name": "flag",
              "type": "uint8"
            }
          ],
          "internalType": "struct KeyLogRegistry.KeyLogEntry",
          "name": "",
          "type": "tuple"
        },
        {
          "internalType": "bool",
          "name": "",
          "type": "bool"
        }
      ],
      "stateMutability": "view",
      "type": "function"
    },
    {
      "inputs": [
        {
          "internalType": "bytes",
          "name": "publicKey",
          "type": "bytes"
        }
      ],
      "name": "getPreviousEntry",
      "outputs": [
        {
          "components": [
            {
              "internalType": "address",
              "name": "twicePrerotatedKeyHash",
              "type": "address"
            },
            {
              "internalType": "address",
              "name": "prerotatedKeyHash",
              "type": "address"
            },
            {
              "internalType": "address",
              "name": "publicKeyHash",
              "type": "address"
            },
            {
              "internalType": "address",
              "name": "prevPublicKeyHash",
              "type": "address"
            },
            {
              "internalType": "address",
              "name": "outputAddress",
              "type": "address"
            },
            {
              "internalType": "bool",
              "name": "hasRelationship",
              "type": "bool"
            },
            {
              "internalType": "bool",
              "name": "isOnChain",
              "type": "bool"
            },
            {
              "internalType": "enum KeyLogRegistry.KeyEventFlag",
              "name": "flag",
              "type": "uint8"
            }
          ],
          "internalType": "struct KeyLogRegistry.KeyLogEntry",
          "name": "",
          "type": "tuple"
        },
        {
          "internalType": "bool",
          "name": "",
          "type": "bool"
        }
      ],
      "stateMutability": "view",
      "type": "function"
    },
    {
      "inputs": [
        {
          "internalType": "uint256",
          "name": "",
          "type": "uint256"
        }
      ],
      "name": "keyLogEntries",
      "outputs": [
        {
          "internalType": "address",
          "name": "twicePrerotatedKeyHash",
          "type": "address"
        },
        {
          "internalType": "address",
          "name": "prerotatedKeyHash",
          "type": "address"
        },
        {
          "internalType": "address",
          "name": "publicKeyHash",
          "type": "address"
        },
        {
          "internalType": "address",
          "name": "prevPublicKeyHash",
          "type": "address"
        },
        {
          "internalType": "address",
          "name": "outputAddress",
          "type": "address"
        },
        {
          "internalType": "bool",
          "name": "hasRelationship",
          "type": "bool"
        },
        {
          "internalType": "bool",
          "name": "isOnChain",
          "type": "bool"
        },
        {
          "internalType": "enum KeyLogRegistry.KeyEventFlag",
          "name": "flag",
          "type": "uint8"
        }
      ],
      "stateMutability": "view",
      "type": "function"
    },
    {
      "inputs": [],
      "name": "owner",
      "outputs": [
        {
          "internalType": "address",
          "name": "",
          "type": "address"
        }
      ],
      "stateMutability": "view",
      "type": "function"
    },
    {
      "inputs": [
        {
          "internalType": "bytes",
          "name": "publicKey",
          "type": "bytes"
        },
        {
          "internalType": "address",
          "name": "publicKeyHash",
          "type": "address"
        },
        {
          "internalType": "address",
          "name": "prerotatedKeyHash",
          "type": "address"
        },
        {
          "internalType": "address",
          "name": "twicePrerotatedKeyHash",
          "type": "address"
        },
        {
          "internalType": "address",
          "name": "prevPublicKeyHash",
          "type": "address"
        },
        {
          "internalType": "address",
          "name": "outputAddress",
          "type": "address"
        },
        {
          "internalType": "bool",
          "name": "hasRelationship",
          "type": "bool"
        }
      ],
      "name": "registerKeyLog",
      "outputs": [],
      "stateMutability": "nonpayable",
      "type": "function"
    },
    {
      "inputs": [
        {
          "internalType": "bytes",
          "name": "publicKey",
          "type": "bytes"
        },
        {
          "internalType": "address",
          "name": "unconfirmedPublicKeyHash",
          "type": "address"
        },
        {
          "internalType": "address",
          "name": "unconfirmedPrerotatedKeyHash",
          "type": "address"
        },
        {
          "internalType": "address",
          "name": "unconfirmedTwicePrerotatedKeyHash",
          "type": "address"
        },
        {
          "internalType": "address",
          "name": "unconfirmedPrevPublicKeyHash",
          "type": "address"
        },
        {
          "internalType": "address",
          "name": "unconfirmedOutputAddress",
          "type": "address"
        },
        {
          "internalType": "bool",
          "name": "unconfirmedHasRelationship",
          "type": "bool"
        },
        {
          "internalType": "address",
          "name": "confirmingPublicKeyHash",
          "type": "address"
        },
        {
          "internalType": "address",
          "name": "confirmingPrerotatedKeyHash",
          "type": "address"
        },
        {
          "internalType": "address",
          "name": "confirmingTwicePrerotatedKeyHash",
          "type": "address"
        },
        {
          "internalType": "address",
          "name": "confirmingPrevPublicKeyHash",
          "type": "address"
        },
        {
          "internalType": "address",
          "name": "confirmingOutputAddress",
          "type": "address"
        },
        {
          "internalType": "bool",
          "name": "confirmingHasRelationship",
          "type": "bool"
        }
      ],
      "name": "registerKeyLogPair",
      "outputs": [],
      "stateMutability": "nonpayable",
      "type": "function"
    },
    {
      "inputs": [],
      "name": "renounceOwnership",
      "outputs": [],
      "stateMutability": "nonpayable",
      "type": "function"
    },
    {
      "inputs": [
        {
          "internalType": "address",
          "name": "_caller",
          "type": "address"
        }
      ],
      "name": "setAuthorizedCaller",
      "outputs": [],
      "stateMutability": "nonpayable",
      "type": "function"
    },
    {
      "inputs": [
        {
          "internalType": "address",
          "name": "newOwner",
          "type": "address"
        }
      ],
      "name": "transferOwnership",
      "outputs": [],
      "stateMutability": "nonpayable",
      "type": "function"
    },
    {
      "inputs": [
        {
          "internalType": "bytes",
          "name": "publicKey",
          "type": "bytes"
        },
        {
          "internalType": "address",
          "name": "prerotatedKeyHash",
          "type": "address"
        },
        {
          "internalType": "address",
          "name": "twicePrerotatedKeyHash",
          "type": "address"
        },
        {
          "internalType": "address",
          "name": "prevPublicKeyHash",
          "type": "address"
        },
        {
          "internalType": "address",
          "name": "outputAddress",
          "type": "address"
        },
        {
          "internalType": "bool",
          "name": "hasRelationship",
          "type": "bool"
        }
      ],
      "name": "validateTransaction",
      "outputs": [
        {
          "internalType": "enum KeyLogRegistry.KeyEventFlag",
          "name": "",
          "type": "uint8"
        }
      ],
      "stateMutability": "view",
      "type": "function"
    }
  ],
  "bytecode": "0x6080806040523461007a5733156100645760008054336001600160a01b03198216811783556040519290916001600160a01b0316907f8be0079c531659141344cd1fd0a4f28419497f9722a3daafe3b4186f6b6457e09080a3611d0590816100808239f35b631e4fbdf760e01b815260006004820152602490fd5b600080fdfe6080604052600436101561001257600080fd5b60003560e01c806325fb5bd914610e95578063276c1ac014610e495780632a39b65e14610af95780632d2eca6a14610ac1578063386f1d9f14610a775780635988f597146104c05780635ed9739c1461043e57806367c27cd4146103e5578063715018a61461038c5780638da5cb5b14610363578063919525511461034257806397dc97cb14610319578063c47ada2c146102c1578063cf8fbec91461027e578063dfa3ad7914610204578063ee93aac2146101b8578063f2fde38b1461012a5763fb51e5bb146100e257600080fd5b34610125576020366003190112610125576004356001600160401b0381116101255761011c6101176020923690600401610fe5565b6116a6565b51604051908152f35b600080fd5b34610125576020366003190112610125576101436110a9565b61014b611ca3565b6001600160a01b0390811690811561019f57600054826bffffffffffffffffffffffff60a01b821617600055167f8be0079c531659141344cd1fd0a4f28419497f9722a3daafe3b4186f6b6457e0600080a3005b604051631e4fbdf760e01b815260006004820152602490fd5b34610125576020366003190112610125576004356001600160401b038111610125576101eb6101f0913690600401610fe5565b611c2b565b9061020060405192839283611136565b0390f35b346101255760c0366003190112610125576004356001600160401b03811161012557610234903690600401610fe5565b61023c61103b565b90610245611051565b5061024e611067565b61025661107d565b60a4359182151583036101255760209461026f94611a95565b61027c6040518092610f85565bf35b34610125576020366003190112610125576102976110a9565b61029f611ca3565b600580546001600160a01b0319166001600160a01b0392909216919091179055005b34610125576040366003190112610125576102da6110a9565b6001600160a01b03166000908152600460205260409020805460243591908210156101255760209161030b91611153565b90546040519160031b1c8152f35b34610125576000366003190112610125576005546040516001600160a01b039091168152602090f35b34610125576020366003190112610125576101f061035e6110a9565b6119d9565b34610125576000366003190112610125576000546040516001600160a01b039091168152602090f35b34610125576000366003190112610125576103a5611ca3565b600080546001600160a01b0319811682556001600160a01b03167f8be0079c531659141344cd1fd0a4f28419497f9722a3daafe3b4186f6b6457e08280a3005b34610125576040366003190112610125576103fe6110a9565b6001600160a01b03166000908152600360205260409020805460243591908210156101255760209161042f91611153565b90549060031b1c604051908152f35b3461012557602080600319360112610125576004356001600160401b03811161012557610117610472913690600401610fe5565b604051906020820160208352815180915260206040840192019360005b82811061049c5784840385f35b90919282610100826104b16001948a516110ce565b0196019101949291909461048f565b34610125576101a0366003190112610125576004356001600160401b038111610125576104f1903690600401610fe5565b6104f961103b565b610501611051565b9161050a611067565b9161051361107d565b61051b611093565b906105246110bf565b60e435939092906001600160a01b03851685036101255761010435956001600160a01b03871687036101255761012435916001600160a01b03831683036101255761014435956001600160a01b03871687036101255761016435996001600160a01b038b168b036101255761018435938415158503610125576105be9060018060a01b036005541633148015610a63575b6101eb906111cd565b15610a3657806105d660c0610622930151151561125d565b60408101516105f2906001600160a01b038b81169116146112a9565b602081015161060e906001600160a01b038781169116146112f5565b516001600160a01b038e8116911614611353565b818215610a20575b156109db578315806109c6575b15610981576001600160a01b03898116908d160361091e576001600160a01b0390811691908a1682036108b3576106bc926040519261067584610f92565b83526001600160a01b038d81166020850152908116604084018190529781166060840181905296166080830152151560a0820152600160c0820181905260e0820152611448565b600154600019998a820199918a1161085d57610752948660005260026020526106e98b604060002061153c565b80610897575b506001600160a01b038116610873575b506040519261070d84610f92565b6001600160a01b039081168452888116602085015287811660408501528681166060850152166080830152151560a0820152600160c0820152600260e0820152611448565b60015495860195861161085d577f65b9775e0ec7a02caf84b2523694b517ace341c14dd2b3926a5591d7b5f5a99694602094859360018060a01b038616600052600285526107a489604060002061153c565b6001600160a01b03811661083a575b506001600160a01b038116610817575b506040519081527fa9366f75c6c44e3c9ee299d368915abb2fa3108d469f3ab468ef239142dc725b928391a26040518581526001600160a01b03831691908490a26040519384526001600160a01b031692a2005b60018060a01b03166000526004835261083487604060002061153c565b876107c3565b60018060a01b03166000526003845261085788604060002061153c565b886107b3565b634e487b7160e01b600052601160045260246000fd5b60018060a01b0316600052600460205261089189604060002061153c565b8a6106ff565b60005260036020526108ad8a604060002061153c565b8b6106ef565b60405162461bcd60e51b815260206004820152603e60248201527f53657175656e6365206d69736d617463683a207477696365507265726f74617460448201527f65644b65794861736820213d20707265726f74617465644b65794861736800006064820152608490fd5b60405162461bcd60e51b815260206004820152603560248201527f53657175656e6365206d69736d617463683a20707265726f74617465644b6579604482015274090c2e6d040427a40e0eac4d8d2c696caf290c2e6d605b1b6064820152608490fd5b60405162461bcd60e51b815260206004820152601d60248201527f496e76616c696420636f6e6669726d696e6720636f6e646974696f6e730000006044820152606490fd5b506001600160a01b038b8116908b1614610637565b60405162461bcd60e51b815260206004820152601e60248201527f556e636f6e6669726d656420636f6e646974696f6e73206e6f74206d657400006044820152606490fd5b506001600160a01b03868116908d16141561062a565b506001600160a01b038716156106225760405162461bcd60e51b815280610a5f6004820161120a565b0390fd5b506000546001600160a01b031633146105b5565b3461012557604036600319011261012557610a906110a9565b6001600160a01b03166000908152600260205260409020805460243591908210156101255760209161030b91611153565b34610125576020366003190112610125576004356001600160401b03811161012557610af46101f0913690600401610fe5565b6115d0565b346101255760e0366003190112610125576004356001600160401b03811161012557610b29903690600401610fe5565b610b3161103b565b610b39611051565b91610b42611067565b90610b4b61107d565b610b53611093565b94610b7c610b5f6110bf565b9360018060a01b036005541633148015610a63576101eb906111cd565b908115610e205780610b9660c0610be2930151151561125d565b6040810151610bb2906001600160a01b038781169116146112a9565b6020810151610bce906001600160a01b038a81169116146112f5565b516001600160a01b03848116911614611353565b1580610e0f575b15610db657821580610da1575b610bff906113fc565b6000935b60038510159283610d3c578515908115610d92575b94610c7a93949560405193610c2c85610f92565b6001600160a01b039081168552868116602086015289811660408601529081166060850181905299166080840152151560a0830152151560c0820152610c758560e0830161143c565b611448565b60015460001981019590861161085d5760018060a01b0385166000526002602052610ca986604060002061153c565b80610d76575b506001600160a01b038116610d52575b506040518481526001600160a01b038416907fa9366f75c6c44e3c9ee299d368915abb2fa3108d469f3ab468ef239142dc725b90602090a2610d3c57600103610d0457005b6040519182526001600160a01b0316907f65b9775e0ec7a02caf84b2523694b517ace341c14dd2b3926a5591d7b5f5a99690602090a2005b634e487b7160e01b600052602160045260246000fd5b60018060a01b03166000526004602052610d7084604060002061153c565b84610cbf565b6000526003602052610d8c85604060002061153c565b85610caf565b60009450600287149150610c18565b506001600160a01b0386811690821614610bf6565b82158381610df9575b15610dcd5750600193610c03565b80610de4575b610ddc906113bb565b600293610c03565b506001600160a01b0386811690821614610dd3565b506001600160a01b038781169083161415610dbf565b506001600160a01b03821615610be9565b506001600160a01b03831615610be25760405162461bcd60e51b815280610a5f6004820161120a565b34610125576020366003190112610125576004356001600160401b03811161012557610e83610e7e6020923690600401610fe5565b61116b565b6040516001600160a01b039091168152f35b346101255760203660031901126101255760043560015481101561012557610ebf61010091610f34565b5061027c60018060a01b03918281541692806001830154169181600282015416600483600384015416920154936040519687526020870152604086015260608501528116608084015260ff8160a01c16151560a084015260ff8160a81c16151560c084015260ff60e084019160b01c16610f85565b600154811015610f6f576005906001600052027fb10e2d527612073b26eecdfd717e6a320cf44b4afac2b0732d9fcbe2b7fa0cf60190600090565b634e487b7160e01b600052603260045260246000fd5b906003821015610d3c5752565b61010081019081106001600160401b03821117610fae57604052565b634e487b7160e01b600052604160045260246000fd5b90601f801991011681019081106001600160401b03821117610fae57604052565b81601f82011215610125578035906001600160401b038211610fae5760405192611019601f8401601f191660200185610fc4565b8284526020838301011161012557816000926020809301838601378301015290565b602435906001600160a01b038216820361012557565b604435906001600160a01b038216820361012557565b606435906001600160a01b038216820361012557565b608435906001600160a01b038216820361012557565b60a435906001600160a01b038216820361012557565b600435906001600160a01b038216820361012557565b60c43590811515820361012557565b9060e0806111349360018060a01b03808251168552806020830151166020860152806040830151166040860152806060830151166060860152608082015116608085015260a0810151151560a085015260c0810151151560c08501520151910190610f85565b565b9092916101009061114c836101208101966110ce565b1515910152565b8054821015610f6f5760005260206000200190600090565b60408151036111885780516020909101206001600160a01b031690565b60405162461bcd60e51b815260206004820152601b60248201527f5075626c6963206b6579206d75737420626520363420627974657300000000006044820152606490fd5b156111d457565b60405162461bcd60e51b815260206004820152600e60248201526d139bdd08185d5d1a1bdc9a5e995960921b6044820152606490fd5b60809060208152603260208201527f496e63657074696f6e206576656e742063616e6e6f74206861766520612070726040820152710caecbee0eac4d8d2c6bed6caf2bed0c2e6d60731b60608201520190565b1561126457565b60405162461bcd60e51b815260206004820152601f60248201527f50726576696f757320656e747279206d757374206265206f6e2d636861696e006044820152606490fd5b156112b057565b60405162461bcd60e51b815260206004820152601c60248201527f496e76616c69642070726576207075626c6963206b65792068617368000000006044820152606490fd5b156112fc57565b60405162461bcd60e51b815260206004820152602960248201527f5075626c6963206b6579206d757374206d617463682070726576696f757320706044820152681c995c9bdd185d195960ba1b6064820152608490fd5b1561135a57565b60405162461bcd60e51b815260206004820152603360248201527f507265726f7461746564206b6579206d757374206d617463682070726576696f6044820152721d5cc81d1dda58d9481c1c995c9bdd185d1959606a1b6064820152608490fd5b156113c257565b60405162461bcd60e51b8152602060048201526012602482015271496e76616c696420636f6e6669726d696e6760701b6044820152606490fd5b1561140357565b60405162461bcd60e51b815260206004820152601160248201527024b73b30b634b21034b731b2b83a34b7b760791b6044820152606490fd5b6003821015610d3c5752565b600154600160401b811015610fae578060016114679201600155610f34565b91909161152657600460018060a01b0392838351166bffffffffffffffffffffffff60a01b90818354161782556001820185602086015116828254161790556002820185604086015116828254161790556003820190856060860151169082541617905501916080820151169082549160ff60a01b60a0830151151560a01b169060e060ff60a81b60c0850151151560a81b169301516003811015610d3c576001600160b81b031990941617171760b09190911b60ff60b01b16179055565b634e487b7160e01b600052600060045260246000fd5b8054600160401b811015610fae5761155991600182018155611153565b819291549060031b91821b91600019901b1916179055565b6040519061157e82610f92565b8160e06000918281528260208201528260408201528260608201528260808201528260a08201528260c08201520152565b805115610f6f5760200190565b8051821015610f6f5760209160051b010190565b6115e2906115dc611571565b506116a6565b805115611607578051600019810190811161085d57611600916115bc565b5190600190565b50611610611571565b90600090565b6001600160401b038111610fae5760051b60200190565b9061113460405161163d81610f92565b60e060ff8295600460018060a01b039182815416865282600182015416602087015282600282015416604087015282600382015416606087015201549081166080850152818160a01c16151560a0850152818160a81c16151560c085015260b01c16910161143c565b6116af9061116b565b906040805192610ca084018481106001600160401b03821117610fae5782526064845260005b610c8081106119c25750600090936116eb611571565b82955b6001600160a01b0390811680855260026020908152868620875181548082529188528288209093918484019190895b8181106119ae5750505083611733910384610fc4565b825115611922575050805160001981019190821161190e5761175b61176792611761926115bc565b51610f34565b5061162d565b9060608201511690811561177e5750955b956116ee565b929394959650505060015b611811575b506117a461179b83611616565b93519384610fc4565b818352601f196117b383611616565b0160005b8181106117fa57505060005b8281106117d05750505090565b806117dd600192846115bc565b516117e882876115bc565b526117f381866115bc565b50016117c3565b602090611805611571565b828288010152016117b7565b80925061181d826115af565b52611827816115af565b50602091820151600192906001600160a01b0390819081165b16600052600282528460002091855191828483829654958681520190600052836000206000955b8087106118f457505061187e929394500384610fc4565b8251928361189157505050505b3861178e565b60001995929391929186810190811161085d5761175b611761916118b4936115bc565b94856118c083876115bc565b526118cb82866115bc565b50811461085d578260018392019501511683518510156118ec578190611840565b50505061188b565b815483526001968701968894509286019290910190611867565b634e487b7160e01b86526011600452602486fd5b9091508552600381528585208651918281835491828152019288528188209188905b82821061199757505050508161195b910382610fc4565b805190811561198a57600019820191821161190e5761176161175b8893611981936115bc565b01511695611778565b5050509091929394611789565b835485529384019360019384019390910190611944565b82548452928501926001928301920161171d565b6020906119cd611571565b828288010152016116d5565b6119e1611571565b5060009060018060a01b0316815260206002602052604082209060405180928391602082549182815201918652602086209386905b828210611a7b57505050611a2c92500382610fc4565b805115611a6d578051600019810192908311611a59575061175b611a5392611761926115bc565b90600190565b634e487b7160e01b81526011600452602490fd5b5090611a77611571565b9190565b855484526001958601958795509381019390910190611a16565b90939291611aa2826115d0565b909160018060a01b038460208296519101201691801580611c21575b611bf357849015611bd05750611ad960c0840151151561125d565b8380604085015116911603611b8b578260208301511603611b505781611b0491511682861614611353565b82159283611b42575b15611b1b5750505050600190565b611b2d9383611b32575b5050506113bb565b600290565b8192935016911614388080611b25565b508084168183161415611b0d565b60405162461bcd60e51b81526020600482015260136024820152720a0eac4d8d2c640d6caf240dad2e6dac2e8c6d606b1b6044820152606490fd5b60405162461bcd60e51b815260206004820152601860248201527f50726576207075626c6963206b6579206d69736d6174636800000000000000006044820152606490fd5b925090501615611b045760405162461bcd60e51b815280610a5f6004820161120a565b50505050611c0c9392159283611c11575b5050506113fc565b600090565b8192935016911614388080611c04565b5084821615611abe565b611c33611571565b506001600160a01b0390611c469061116b565b16600090815260206004602052604082209060405180928391602082549182815201918652602086209386905b828210611c8957505050611a2c92500382610fc4565b855484526001958601958795509381019390910190611c73565b6000546001600160a01b03163303611cb757565b60405163118cdaa760e01b8152336004820152602490fdfea264697066735822122079e369444dd67be4b793034b6cd38cfa22c33c121e575319dac980e55aa2255b64736f6c63430008180033",
  "linkReferences": {},
  "deployedLinkReferences": {}
}