{
  "_format": "hh-sol-artifact-1",
  "contractName": "KeyLogRegistryUpgrade",
  "sourceName": "contracts/KeyLogRegistryUpgrade.sol",
  "abi": [
    {
      "inputs": [],
      "stateMutability": "nonpayable",
      "type": "constructor"
    },
    {
      "inputs": [
        {
          "internalType": "address",
          "name": "target",
          "type": "address"
        }
      ],
      "name": "AddressEmptyCode",
      "type": "error"
    },
    {
      "inputs": [
        {
          "internalType": "address",
          "name": "implementation",
          "type": "address"
        }
      ],
      "name": "ERC1967InvalidImplementation",
      "type": "error"
    },
    {
      "inputs": [],
      "name": "ERC1967NonPayable",
      "type": "error"
    },
    {
      "inputs": [],
      "name": "FailedCall",
      "type": "error"
    },
    {
      "inputs": [],
      "name": "InvalidInitialization",
      "type": "error"
    },
    {
      "inputs": [],
      "name": "InvalidOwnershipTransfer",
      "type": "error"
    },
    {
      "inputs": [],
      "name": "NotInitializing",
      "type": "error"
    },
    {
      "inputs": [
        {
          "internalType": "address",
          "name": "owner",
          "type": "address"
        }
      ],
      "name": "OwnableInvalidOwner",
      "type": "error"
    },
    {
      "inputs": [
        {
          "internalType": "address",
          "name": "account",
          "type": "address"
        }
      ],
      "name": "OwnableUnauthorizedAccount",
      "type": "error"
    },
    {
      "inputs": [],
      "name": "UUPSUnauthorizedCallContext",
      "type": "error"
    },
    {
      "inputs": [
        {
          "internalType": "bytes32",
          "name": "slot",
          "type": "bytes32"
        }
      ],
      "name": "UUPSUnsupportedProxiableUUID",
      "type": "error"
    },
    {
      "inputs": [],
      "name": "ZeroAddress",
      "type": "error"
    },
    {
      "anonymous": false,
      "inputs": [
        {
          "indexed": false,
          "internalType": "uint64",
          "name": "version",
          "type": "uint64"
        }
      ],
      "name": "Initialized",
      "type": "event"
    },
    {
      "anonymous": false,
      "inputs": [
        {
          "indexed": true,
          "internalType": "address",
          "name": "publicKeyHash",
          "type": "address"
        },
        {
          "indexed": false,
          "internalType": "uint256",
          "name": "index",
          "type": "uint256"
        }
      ],
      "name": "KeyLogRegistered",
      "type": "event"
    },
    {
      "anonymous": false,
      "inputs": [
        {
          "indexed": true,
          "internalType": "address",
          "name": "publicKeyHash",
          "type": "address"
        },
        {
          "indexed": false,
          "internalType": "uint256",
          "name": "index",
          "type": "uint256"
        }
      ],
      "name": "KeyRotated",
      "type": "event"
    },
    {
      "anonymous": false,
      "inputs": [
        {
          "indexed": true,
          "internalType": "address",
          "name": "previousOwner",
          "type": "address"
        },
        {
          "indexed": true,
          "internalType": "address",
          "name": "newOwner",
          "type": "address"
        }
      ],
      "name": "OwnershipTransferred",
      "type": "event"
    },
    {
      "anonymous": false,
      "inputs": [
        {
          "indexed": true,
          "internalType": "address",
          "name": "implementation",
          "type": "address"
        }
      ],
      "name": "Upgraded",
      "type": "event"
    },
    {
      "inputs": [],
      "name": "UPGRADE_INTERFACE_VERSION",
      "outputs": [
        {
          "internalType": "string",
          "name": "",
          "type": "string"
        }
      ],
      "stateMutability": "view",
      "type": "function"
    },
    {
      "inputs": [],
      "name": "authorizedCaller",
      "outputs": [
        {
          "internalType": "address",
          "name": "",
          "type": "address"
        }
      ],
      "stateMutability": "view",
      "type": "function"
    },
    {
      "inputs": [
        {
          "internalType": "bytes",
          "name": "publicKey",
          "type": "bytes"
        }
      ],
      "name": "buildFromPublicKey",
      "outputs": [
        {
          "components": [
            {
              "internalType": "address",
              "name": "twicePrerotatedKeyHash",
              "type": "address"
            },
            {
              "internalType": "address",
              "name": "prerotatedKeyHash",
              "type": "address"
            },
            {
              "internalType": "address",
              "name": "publicKeyHash",
              "type": "address"
            },
            {
              "internalType": "address",
              "name": "prevPublicKeyHash",
              "type": "address"
            },
            {
              "internalType": "address",
              "name": "outputAddress",
              "type": "address"
            },
            {
              "internalType": "bool",
              "name": "isOnChain",
              "type": "bool"
            },
            {
              "internalType": "enum KeyEventFlag",
              "name": "flag",
              "type": "uint8"
            }
          ],
          "internalType": "struct KeyLogEntry[]",
          "name": "",
          "type": "tuple[]"
        }
      ],
      "stateMutability": "view",
      "type": "function"
    },
    {
      "inputs": [
        {
          "internalType": "address",
          "name": "",
          "type": "address"
        }
      ],
      "name": "byPrerotatedKeyHash",
      "outputs": [
        {
          "internalType": "uint256",
          "name": "",
          "type": "uint256"
        }
      ],
      "stateMutability": "view",
      "type": "function"
    },
    {
      "inputs": [
        {
          "internalType": "address",
          "name": "",
          "type": "address"
        }
      ],
      "name": "byPrevPublicKeyHash",
      "outputs": [
        {
          "internalType": "uint256",
          "name": "",
          "type": "uint256"
        }
      ],
      "stateMutability": "view",
      "type": "function"
    },
    {
      "inputs": [
        {
          "internalType": "address",
          "name": "",
          "type": "address"
        }
      ],
      "name": "byPublicKeyHash",
      "outputs": [
        {
          "internalType": "uint256",
          "name": "",
          "type": "uint256"
        }
      ],
      "stateMutability": "view",
      "type": "function"
    },
    {
      "inputs": [
        {
          "internalType": "address",
          "name": "",
          "type": "address"
        }
      ],
      "name": "byTwicePrerotatedKeyHash",
      "outputs": [
        {
          "internalType": "uint256",
          "name": "",
          "type": "uint256"
        }
      ],
      "stateMutability": "view",
      "type": "function"
    },
    {
      "inputs": [
        {
          "internalType": "address",
          "name": "",
          "type": "address"
        }
      ],
      "name": "chainOf",
      "outputs": [
        {
          "internalType": "address",
          "name": "",
          "type": "address"
        }
      ],
      "stateMutability": "view",
      "type": "function"
    },
    {
      "inputs": [
        {
          "internalType": "bytes",
          "name": "publicKey",
          "type": "bytes"
        }
      ],
      "name": "getAddressFromPublicKey",
      "outputs": [
        {
          "internalType": "address",
          "name": "",
          "type": "address"
        }
      ],
      "stateMutability": "pure",
      "type": "function"
    },
    {
      "inputs": [
        {
          "internalType": "address",
          "name": "publicKeyHash",
          "type": "address"
        }
      ],
      "name": "getChainRoot",
      "outputs": [
        {
          "internalType": "address",
          "name": "root",
          "type": "address"
        },
        {
          "internalType": "bool",
          "name": "exists",
          "type": "bool"
        }
      ],
      "stateMutability": "view",
      "type": "function"
    },
    {
      "inputs": [
        {
          "internalType": "bytes",
          "name": "publicKey",
          "type": "bytes"
        }
      ],
      "name": "getCurrentIndex",
      "outputs": [
        {
          "internalType": "uint256",
          "name": "",
          "type": "uint256"
        }
      ],
      "stateMutability": "view",
      "type": "function"
    },
    {
      "inputs": [
        {
          "internalType": "bytes",
          "name": "publicKey",
          "type": "bytes"
        }
      ],
      "name": "getLatestChainEntry",
      "outputs": [
        {
          "components": [
            {
              "internalType": "address",
              "name": "twicePrerotatedKeyHash",
              "type": "address"
            },
            {
              "internalType": "address",
              "name": "prerotatedKeyHash",
              "type": "address"
            },
            {
              "internalType": "address",
              "name": "publicKeyHash",
              "type": "address"
            },
            {
              "internalType": "address",
              "name": "prevPublicKeyHash",
              "type": "address"
            },
            {
              "internalType": "address",
              "name": "outputAddress",
              "type": "address"
            },
            {
              "internalType": "bool",
              "name": "isOnChain",
              "type": "bool"
            },
            {
              "internalType": "enum KeyEventFlag",
              "name": "flag",
              "type": "uint8"
            }
          ],
          "internalType": "struct KeyLogEntry",
          "name": "",
          "type": "tuple"
        },
        {
          "internalType": "bool",
          "name": "",
          "type": "bool"
        }
      ],
      "stateMutability": "view",
      "type": "function"
    },
    {
      "inputs": [
        {
          "internalType": "address",
          "name": "publicKeyHash",
          "type": "address"
        }
      ],
      "name": "getLatestChainEntry",
      "outputs": [
        {
          "components": [
            {
              "internalType": "address",
              "name": "twicePrerotatedKeyHash",
              "type": "address"
            },
            {
              "internalType": "address",
              "name": "prerotatedKeyHash",
              "type": "address"
            },
            {
              "internalType": "address",
              "name": "publicKeyHash",
              "type": "address"
            },
            {
              "internalType": "address",
              "name": "prevPublicKeyHash",
              "type": "address"
            },
            {
              "internalType": "address",
              "name": "outputAddress",
              "type": "address"
            },
            {
              "internalType": "bool",
              "name": "isOnChain",
              "type": "bool"
            },
            {
              "internalType": "enum KeyEventFlag",
              "name": "flag",
              "type": "uint8"
            }
          ],
          "internalType": "struct KeyLogEntry",
          "name": "",
          "type": "tuple"
        },
        {
          "internalType": "bool",
          "name": "",
          "type": "bool"
        }
      ],
      "stateMutability": "view",
      "type": "function"
    },
    {
      "inputs": [
        {
          "internalType": "address",
          "name": "publicKeyHash",
          "type": "address"
        }
      ],
      "name": "getLatestEntry",
      "outputs": [
        {
          "components": [
            {
              "internalType": "address",
              "name": "twicePrerotatedKeyHash",
              "type": "address"
            },
            {
              "internalType": "address",
              "name": "prerotatedKeyHash",
              "type": "address"
            },
            {
              "internalType": "address",
              "name": "publicKeyHash",
              "type": "address"
            },
            {
              "internalType": "address",
              "name": "prevPublicKeyHash",
              "type": "address"
            },
            {
              "internalType": "address",
              "name": "outputAddress",
              "type": "address"
            },
            {
              "internalType": "bool",
              "name": "isOnChain",
              "type": "bool"
            },
            {
              "internalType": "enum KeyEventFlag",
              "name": "flag",
              "type": "uint8"
            }
          ],
          "internalType": "struct KeyLogEntry",
          "name": "",
          "type": "tuple"
        },
        {
          "internalType": "bool",
          "name": "",
          "type": "bool"
        }
      ],
      "stateMutability": "view",
      "type": "function"
    },
    {
      "inputs": [
        {
          "internalType": "address",
          "name": "prerotatedKeyHash",
          "type": "address"
        }
      ],
      "name": "getLatestEntryByPrerotatedKeyHash",
      "outputs": [
        {
          "components": [
            {
              "internalType": "address",
              "name": "twicePrerotatedKeyHash",
              "type": "address"
            },
            {
              "internalType": "address",
              "name": "prerotatedKeyHash",
              "type": "address"
            },
            {
              "internalType": "address",
              "name": "publicKeyHash",
              "type": "address"
            },
            {
              "internalType": "address",
              "name": "prevPublicKeyHash",
              "type": "address"
            },
            {
              "internalType": "address",
              "name": "outputAddress",
              "type": "address"
            },
            {
              "internalType": "bool",
              "name": "isOnChain",
              "type": "bool"
            },
            {
              "internalType": "enum KeyEventFlag",
              "name": "flag",
              "type": "uint8"
            }
          ],
          "internalType": "struct KeyLogEntry",
          "name": "",
          "type": "tuple"
        },
        {
          "internalType": "bool",
          "name": "",
          "type": "bool"
        }
      ],
      "stateMutability": "view",
      "type": "function"
    },
    {
      "inputs": [
        {
          "internalType": "bytes",
          "name": "publicKey",
          "type": "bytes"
        }
      ],
      "name": "getPreviousEntry",
      "outputs": [
        {
          "components": [
            {
              "internalType": "address",
              "name": "twicePrerotatedKeyHash",
              "type": "address"
            },
            {
              "internalType": "address",
              "name": "prerotatedKeyHash",
              "type": "address"
            },
            {
              "internalType": "address",
              "name": "publicKeyHash",
              "type": "address"
            },
            {
              "internalType": "address",
              "name": "prevPublicKeyHash",
              "type": "address"
            },
            {
              "internalType": "address",
              "name": "outputAddress",
              "type": "address"
            },
            {
              "internalType": "bool",
              "name": "isOnChain",
              "type": "bool"
            },
            {
              "internalType": "enum KeyEventFlag",
              "name": "flag",
              "type": "uint8"
            }
          ],
          "internalType": "struct KeyLogEntry",
          "name": "",
          "type": "tuple"
        },
        {
          "internalType": "bool",
          "name": "",
          "type": "bool"
        }
      ],
      "stateMutability": "view",
      "type": "function"
    },
    {
      "inputs": [],
      "name": "getTestString",
      "outputs": [
        {
          "internalType": "string",
          "name": "",
          "type": "string"
        }
      ],
      "stateMutability": "pure",
      "type": "function"
    },
    {
      "inputs": [
        {
          "internalType": "address",
          "name": "initialOwner",
          "type": "address"
        }
      ],
      "name": "initialize",
      "outputs": [],
      "stateMutability": "nonpayable",
      "type": "function"
    },
    {
      "inputs": [
        {
          "internalType": "address",
          "name": "currentOwner",
          "type": "address"
        },
        {
          "internalType": "address",
          "name": "newOwner",
          "type": "address"
        }
      ],
      "name": "isValidOwnershipTransfer",
      "outputs": [
        {
          "internalType": "bool",
          "name": "",
          "type": "bool"
        }
      ],
      "stateMutability": "view",
      "type": "function"
    },
    {
      "inputs": [
        {
          "internalType": "uint256",
          "name": "",
          "type": "uint256"
        }
      ],
      "name": "keyLogEntries",
      "outputs": [
        {
          "internalType": "address",
          "name": "twicePrerotatedKeyHash",
          "type": "address"
        },
        {
          "internalType": "address",
          "name": "prerotatedKeyHash",
          "type": "address"
        },
        {
          "internalType": "address",
          "name": "publicKeyHash",
          "type": "address"
        },
        {
          "internalType": "address",
          "name": "prevPublicKeyHash",
          "type": "address"
        },
        {
          "internalType": "address",
          "name": "outputAddress",
          "type": "address"
        },
        {
          "internalType": "bool",
          "name": "isOnChain",
          "type": "bool"
        },
        {
          "internalType": "enum KeyEventFlag",
          "name": "flag",
          "type": "uint8"
        }
      ],
      "stateMutability": "view",
      "type": "function"
    },
    {
      "inputs": [
        {
          "internalType": "address",
          "name": "",
          "type": "address"
        }
      ],
      "name": "latestInChain",
      "outputs": [
        {
          "internalType": "address",
          "name": "",
          "type": "address"
        }
      ],
      "stateMutability": "view",
      "type": "function"
    },
    {
      "inputs": [],
      "name": "owner",
      "outputs": [
        {
          "internalType": "address",
          "name": "",
          "type": "address"
        }
      ],
      "stateMutability": "view",
      "type": "function"
    },
    {
      "inputs": [],
      "name": "proxiableUUID",
      "outputs": [
        {
          "internalType": "bytes32",
          "name": "",
          "type": "bytes32"
        }
      ],
      "stateMutability": "view",
      "type": "function"
    },
    {
      "inputs": [
        {
          "components": [
            {
              "internalType": "bytes",
              "name": "publicKey",
              "type": "bytes"
            },
            {
              "internalType": "address",
              "name": "prerotatedKeyHash",
              "type": "address"
            },
            {
              "internalType": "address",
              "name": "twicePrerotatedKeyHash",
              "type": "address"
            },
            {
              "internalType": "address",
              "name": "prevPublicKeyHash",
              "type": "address"
            },
            {
              "internalType": "address",
              "name": "outputAddress",
              "type": "address"
            }
          ],
          "internalType": "struct KeyData",
          "name": "key",
          "type": "tuple"
        }
      ],
      "name": "registerKeyLog",
      "outputs": [],
      "stateMutability": "nonpayable",
      "type": "function"
    },
    {
      "inputs": [
        {
          "components": [
            {
              "internalType": "bytes",
              "name": "publicKey",
              "type": "bytes"
            },
            {
              "internalType": "address",
              "name": "prerotatedKeyHash",
              "type": "address"
            },
            {
              "internalType": "address",
              "name": "twicePrerotatedKeyHash",
              "type": "address"
            },
            {
              "internalType": "address",
              "name": "prevPublicKeyHash",
              "type": "address"
            },
            {
              "internalType": "address",
              "name": "outputAddress",
              "type": "address"
            }
          ],
          "internalType": "struct KeyData",
          "name": "unconfirmedKey",
          "type": "tuple"
        },
        {
          "components": [
            {
              "internalType": "bytes",
              "name": "publicKey",
              "type": "bytes"
            },
            {
              "internalType": "address",
              "name": "prerotatedKeyHash",
              "type": "address"
            },
            {
              "internalType": "address",
              "name": "twicePrerotatedKeyHash",
              "type": "address"
            },
            {
              "internalType": "address",
              "name": "prevPublicKeyHash",
              "type": "address"
            },
            {
              "internalType": "address",
              "name": "outputAddress",
              "type": "address"
            }
          ],
          "internalType": "struct KeyData",
          "name": "confirmingKey",
          "type": "tuple"
        }
      ],
      "name": "registerKeyLogPair",
      "outputs": [],
      "stateMutability": "nonpayable",
      "type": "function"
    },
    {
      "inputs": [],
      "name": "renounceOwnership",
      "outputs": [],
      "stateMutability": "nonpayable",
      "type": "function"
    },
    {
      "inputs": [
        {
          "internalType": "address",
          "name": "_caller",
          "type": "address"
        }
      ],
      "name": "setAuthorizedCaller",
      "outputs": [],
      "stateMutability": "nonpayable",
      "type": "function"
    },
    {
      "inputs": [
        {
          "internalType": "address",
          "name": "newOwner",
          "type": "address"
        }
      ],
      "name": "transferOwnership",
      "outputs": [],
      "stateMutability": "nonpayable",
      "type": "function"
    },
    {
      "inputs": [
        {
          "internalType": "address",
          "name": "newOwner",
          "type": "address"
        }
      ],
      "name": "transferOwnershipForKeyRotation",
      "outputs": [],
      "stateMutability": "nonpayable",
      "type": "function"
    },
    {
      "inputs": [
        {
          "internalType": "address",
          "name": "newImplementation",
          "type": "address"
        },
        {
          "internalType": "bytes",
          "name": "data",
          "type": "bytes"
        }
      ],
      "name": "upgradeToAndCall",
      "outputs": [],
      "stateMutability": "payable",
      "type": "function"
    },
    {
      "inputs": [
        {
          "components": [
            {
              "internalType": "bytes",
              "name": "publicKey",
              "type": "bytes"
            },
            {
              "internalType": "address",
              "name": "prerotatedKeyHash",
              "type": "address"
            },
            {
              "internalType": "address",
              "name": "twicePrerotatedKeyHash",
              "type": "address"
            },
            {
              "internalType": "address",
              "name": "prevPublicKeyHash",
              "type": "address"
            },
            {
              "internalType": "address",
              "name": "outputAddress",
              "type": "address"
            }
          ],
          "internalType": "struct KeyData",
          "name": "unconfirmed",
          "type": "tuple"
        },
        {
          "components": [
            {
              "internalType": "bytes",
              "name": "publicKey",
              "type": "bytes"
            },
            {
              "internalType": "address",
              "name": "prerotatedKeyHash",
              "type": "address"
            },
            {
              "internalType": "address",
              "name": "twicePrerotatedKeyHash",
              "type": "address"
            },
            {
              "internalType": "address",
              "name": "prevPublicKeyHash",
              "type": "address"
            },
            {
              "internalType": "address",
              "name": "outputAddress",
              "type": "address"
            }
          ],
          "internalType": "struct KeyData",
          "name": "confirming",
          "type": "tuple"
        },
        {
          "internalType": "bool",
          "name": "isPair",
          "type": "bool"
        }
      ],
      "name": "validateTransaction",
      "outputs": [
        {
          "internalType": "enum KeyEventFlag",
          "name": "",
          "type": "uint8"
        },
        {
          "internalType": "enum KeyEventFlag",
          "name": "",
          "type": "uint8"
        }
      ],
      "stateMutability": "view",
      "type": "function"
    }
  ],
  "bytecode": "0x60a06040523060805234801562000014575f80fd5b506200001f62000025565b620000d9565b7ff0c57e16840df040f15088dc2f81fe391c3923bec73e23a9662efc9c229c6a00805468010000000000000000900460ff1615620000765760405163f92ee8a960e01b815260040160405180910390fd5b80546001600160401b0390811614620000d65780546001600160401b0319166001600160401b0390811782556040519081527fc7f505b2f371ae2175ee4913f4499e1f2633a7b5936321eed1cdaeb6115181d29060200160405180910390a15b50565b608051613406620001005f395f81816123a2015281816123cb015261256101526134065ff3fe6080604052600436106101d0575f3560e01c806382fc3dd7116100fd578063ad3cb1cc11610092578063e5ce0af411610062578063e5ce0af41461063a578063ee93aac214610659578063f2fde38b14610678578063fb51e5bb14610697575f80fd5b8063ad3cb1cc14610572578063b0199d5e146105a2578063c4d66de8146105fc578063cf8fbec91461061b575f80fd5b806397dc97cb116100cd57806397dc97cb146104de5780639fa17f91146104fd578063a375e47214610528578063a5e49bda14610553575f80fd5b806382fc3dd71461045f5780638da5cb5b1461048c57806391952551146104a057806392e71104146104bf575f80fd5b80632dd1466d116101735780634f1ef286116101435780634f1ef286146103f857806352d1902d1461040b5780635ed9739c1461041f578063715018a61461044b575f80fd5b80632dd1466d1461032c5780632f91be481461034b578063401795b214610399578063471b08e0146103c4575f80fd5b806325fb5bd9116101ae57806325fb5bd914610275578063276c1ac0146102a75780632bf2fac9146102c65780632d2eca6a146102ff575f80fd5b806304a5e597146101d45780630d6814ff146101f557806318fdb6f814610246575b5f80fd5b3480156101df575f80fd5b506101f36101ee366004612d53565b6106b6565b005b348015610200575f80fd5b5061022961020f366004612d53565b60056020525f90815260409020546001600160a01b031681565b6040516001600160a01b0390911681526020015b60405180910390f35b348015610251575f80fd5b50610265610260366004612d6c565b610718565b604051901515815260200161023d565b348015610280575f80fd5b5061029461028f366004612d9d565b6107a6565b60405161023d9796959493929190612de8565b3480156102b2575f80fd5b506102296102c1366004612ed6565b61080e565b3480156102d1575f80fd5b506102f16102e0366004612d53565b60036020525f908152604090205481565b60405190815260200161023d565b34801561030a575f80fd5b5061031e610319366004612ed6565b61086c565b60405161023d929190612f6c565b348015610337575f80fd5b506101f3610346366004613030565b610894565b348015610356575f80fd5b5060408051808201909152601b81527f5570677261646564204b65794c6f67526567697374727920763621000000000060208201525b60405161023d91906130b2565b3480156103a4575f80fd5b506102f16103b3366004612d53565b60026020525f908152604090205481565b3480156103cf575f80fd5b506102296103de366004612d53565b60066020525f90815260409020546001600160a01b031681565b6101f36104063660046130e4565b610f26565b348015610416575f80fd5b506102f1610f45565b34801561042a575f80fd5b5061043e610439366004612ed6565b610f60565b60405161023d9190613125565b348015610456575f80fd5b506101f3610f7e565b34801561046a575f80fd5b5061047e61047936600461317f565b610f91565b60405161023d9291906131f2565b348015610497575f80fd5b5061022961186c565b3480156104ab575f80fd5b5061031e6104ba366004612d53565b61189a565b3480156104ca575f80fd5b5061031e6104d9366004612d53565b6119a5565b3480156104e9575f80fd5b50600754610229906001600160a01b031681565b348015610508575f80fd5b506102f1610517366004612d53565b60046020525f908152604090205481565b348015610533575f80fd5b506102f1610542366004612d53565b60016020525f908152604090205481565b34801561055e575f80fd5b5061031e61056d366004612d53565b611ac7565b34801561057d575f80fd5b5061038c604051806040016040528060058152602001640352e302e360dc1b81525081565b3480156105ad575f80fd5b506105dd6105bc366004612d53565b6001600160a01b039081165f90815260056020526040902054169081151590565b604080516001600160a01b03909316835290151560208301520161023d565b348015610607575f80fd5b506101f3610616366004612d53565b611c44565b348015610626575f80fd5b506101f3610635366004612d53565b611d5a565b348015610645575f80fd5b506101f361065436600461320d565b611d84565b348015610664575f80fd5b5061031e610673366004612ed6565b6121f6565b348015610683575f80fd5b506101f3610692366004612d53565b61223d565b3480156106a2575f80fd5b506102f16106b1366004612ed6565b612277565b6007546001600160a01b03163314806106e757506106d261186c565b6001600160a01b0316336001600160a01b0316145b61070c5760405162461bcd60e51b81526004016107039061323f565b60405180910390fd5b6107158161228a565b50565b5f6001600160a01b038316158061073657506001600160a01b038216155b1561074257505f6107a0565b5f8061074d85611ac7565b9150915080610760575f925050506107a0565b836001600160a01b031682602001516001600160a01b031614801561079b575060018260c00151600281111561079857610798612db4565b14155b925050505b92915050565b5f81815481106107b4575f80fd5b5f918252602090912060059091020180546001820154600283015460038401546004909401546001600160a01b0393841695509183169390831692908116919081169060ff600160a01b8204811691600160a81b90041687565b5f81516040146108605760405162461bcd60e51b815260206004820152601b60248201527f5075626c6963206b6579206d75737420626520363420627974657300000000006044820152606401610703565b50805160209091012090565b610874612cff565b5f8061087f8461080e565b905061088a81611ac7565b9250925050915091565b6007546001600160a01b03163314806108c557506108b061186c565b6001600160a01b0316336001600160a01b0316145b6108e15760405162461bcd60e51b81526004016107039061323f565b5f6108ee835f015161080e565b90505f6108fd835f015161080e565b90505f8061090d86866001610f91565b915091505f6040518060e0016040528088604001516001600160a01b0316815260200188602001516001600160a01b03168152602001866001600160a01b0316815260200188606001516001600160a01b0316815260200188608001516001600160a01b0316815260200160011515815260200184600281111561099357610993612db4565b90528154600180820184555f938452602093849020835160059093020180546001600160a01b03199081166001600160a01b03948516178255948401519181018054861692841692909217909155604083015160028083018054871692851692909217909155606084015160038301805490961690841617909455608083015160048201805460a0860151929094166001600160a81b031990941693909317600160a01b911515919091021780835560c084015193949193929160ff60a81b1990911690600160a81b908490811115610a6e57610a6e612db4565b0217905550505f8054909150610a869060019061327b565b9050610a9381600161328e565b6001600160a01b038087165f9081526001602052604090209190915560608801511615610ae257610ac581600161328e565b60608801516001600160a01b03165f908152600260205260409020555b60208701516001600160a01b031615610b1e57610b0081600161328e565b6020808901516001600160a01b03165f908152600390915260409020555b60408701516001600160a01b031615610b5757610b3c81600161328e565b6040808901516001600160a01b03165f908152600460205220555b5f6040518060e0016040528088604001516001600160a01b0316815260200188602001516001600160a01b03168152602001866001600160a01b0316815260200188606001516001600160a01b0316815260200188608001516001600160a01b03168152602001600115158152602001846002811115610bd957610bd9612db4565b90528154600180820184555f938452602093849020835160059093020180546001600160a01b03199081166001600160a01b03948516178255948401519181018054861692841692909217909155604083015160028083018054871692851692909217909155606084015160038301805490961690841617909455608083015160048201805460a0860151929094166001600160a81b031990941693909317600160a01b911515919091021780835560c084015193949193929160ff60a81b1990911690600160a81b908490811115610cb457610cb4612db4565b0217905550505f8054909150610ccc9060019061327b565b9050610cd981600161328e565b6001600160a01b038087165f9081526001602052604090209190915560608801511615610d2857610d0b81600161328e565b60608801516001600160a01b03165f908152600260205260409020555b60208701516001600160a01b031615610d6457610d4681600161328e565b6020808901516001600160a01b03165f908152600390915260409020555b60408701516001600160a01b031615610d9d57610d8281600161328e565b6040808901516001600160a01b03165f908152600460205220555b60608801515f906001600160a01b0316610db8575085610dd9565b5060608801516001600160a01b039081165f90815260056020526040902054165b6001600160a01b038088165f81815260056020908152604080832080548688166001600160a01b03199182168117909255958c1680855282852080548816831790559084526006909252909120805490931617909155610e3761186c565b6001600160a01b031603610e5257610e52886020015161228a565b866001600160a01b03167fa9366f75c6c44e3c9ee299d368915abb2fa3108d469f3ab468ef239142dc725b84604051610e8d91815260200190565b60405180910390a2856001600160a01b03167fa9366f75c6c44e3c9ee299d368915abb2fa3108d469f3ab468ef239142dc725b83604051610ed091815260200190565b60405180910390a2856001600160a01b03167f65b9775e0ec7a02caf84b2523694b517ace341c14dd2b3926a5591d7b5f5a99683604051610f1391815260200190565b60405180910390a2505050505050505050565b610f2e612397565b610f378261243b565b610f418282612495565b5050565b5f610f4e612556565b505f805160206133b183398151915290565b60605f610f6c8361080e565b9050610f778161259f565b9392505050565b610f86612a2e565b610f8f5f612a60565b565b5f805f80610fa28760600151611ac7565b915091505f610fb3885f015161080e565b90505f821561115a578360a0015161100d5760405162461bcd60e51b815260206004820152601f60248201527f50726576696f757320656e747279206d757374206265206f6e2d636861696e006044820152606401610703565b88606001516001600160a01b031684604001516001600160a01b0316146110765760405162461bcd60e51b815260206004820152601860248201527f50726576207075626c6963206b6579206d69736d6174636800000000000000006044820152606401610703565b816001600160a01b031684602001516001600160a01b0316146110d15760405162461bcd60e51b81526020600482015260136024820152720a0eac4d8d2c640d6caf240dad2e6dac2e8c6d606b1b6044820152606401610703565b88602001516001600160a01b0316845f01516001600160a01b0316146111555760405162461bcd60e51b815260206004820152603360248201527f507265726f7461746564206b6579206d757374206d617463682070726576696f6044820152721d5cc81d1dda58d9481c1c995c9bdd185d1959606a1b6064820152608401610703565b6111d0565b60608901516001600160a01b0316156111d05760405162461bcd60e51b815260206004820152603260248201527f496e63657074696f6e206576656e742063616e6e6f74206861766520612070726044820152710caecbee0eac4d8d2c6bed6caf2bed0c2e6d60731b6064820152608401610703565b60608901516001600160a01b03165f90815260026020526040902054156112095760405162461bcd60e51b8152600401610703906132a1565b6001600160a01b0382165f908152600160205260409020541561126e5760405162461bcd60e51b815260206004820152601c60248201527f5075626c6963206b6579206861736820616c72656164792075736564000000006044820152606401610703565b6020808a01516001600160a01b03165f90815260039091526040902054156112d85760405162461bcd60e51b815260206004820181905260248201527f507265726f7461746564206b6579206861736820616c726561647920757365646044820152606401610703565b6040808a01516001600160a01b03165f908152600460205220541561134e5760405162461bcd60e51b815260206004820152602660248201527f547769636520707265726f7461746564206b6579206861736820616c726561646044820152651e481d5cd95960d21b6064820152608401610703565b5f83158015611368575060608a01516001600160a01b0316155b156113d15789602001516001600160a01b03168a608001516001600160a01b0316146113ca5760405162461bcd60e51b815260206004820152601160248201527024b73b30b634b21034b731b2b83a34b7b760791b6044820152606401610703565b505f61145c565b89602001516001600160a01b03168a608001516001600160a01b0316146113fa5750600161145c565b89602001516001600160a01b03168a608001516001600160a01b0316146114585760405162461bcd60e51b8152602060048201526012602482015271496e76616c696420636f6e6669726d696e6760701b6044820152606401610703565b5060025b876114d55789608001516001600160a01b03168a602001516001600160a01b03161461149a5760405162461bcd60e51b8152600401610703906132e6565b60808901516001600160a01b0316156114c55760405162461bcd60e51b8152600401610703906132e6565b9550600194506118649350505050565b88516114e09061080e565b915088602001516001600160a01b03168a604001516001600160a01b0316146115825760405162461bcd60e51b815260206004820152604860248201527f53657175656e6365206d69736d617463683a207477696365507265726f74617460448201527f65644b65794861736820213d20636f6e6669726d696e67507265726f746174656064820152670c896caf290c2e6d60c31b608482015260a401610703565b88602001516001600160a01b031689608001516001600160a01b0316146115eb5760405162461bcd60e51b815260206004820152601d60248201527f496e76616c696420636f6e6669726d696e6720636f6e646974696f6e730000006044820152606401610703565b816001600160a01b03168a602001516001600160a01b03161461166e5760405162461bcd60e51b815260206004820152603560248201527f53657175656e6365206d69736d617463683a20707265726f74617465644b6579604482015274090c2e6d040427a40e0eac4d8d2c696caf290c2e6d605b1b6064820152608401610703565b826001600160a01b031689606001516001600160a01b0316146117035760405162461bcd60e51b815260206004820152604160248201527f436f6e6669726d696e6720707265765075626c69634b657948617368206d757360448201527f74206d6174636820756e636f6e6669726d6564207075626c69634b65794861736064820152600d60fb1b608482015260a401610703565b60608901516001600160a01b03165f908152600260205260409020541561173c5760405162461bcd60e51b8152600401610703906132a1565b6001600160a01b0382165f90815260016020526040902054156117a15760405162461bcd60e51b815260206004820152601c60248201527f5075626c6963206b6579206861736820616c72656164792075736564000000006044820152606401610703565b6020808a01516001600160a01b03165f908152600390915260409020541561181f5760405162461bcd60e51b815260206004820152602b60248201527f436f6e6669726d696e6720707265726f7461746564206b65792068617368206160448201526a1b1c9958591e481d5cd95960aa1b6064820152608401610703565b6040808a01516001600160a01b03165f90815260046020522054156118565760405162461bcd60e51b8152600401610703906132e6565b600160029650965050505050505b935093915050565b7f9016d09d72d40fdae2fd8ceac6b6234c7706214fd39c1cd1e609a0528c199300546001600160a01b031690565b6118a2612cff565b6001600160a01b0382165f908152600160205260408120548082036118d3576118c9612cff565b945f945092505050565b5f6118df60018361327b565b815481106118ef576118ef613337565b5f9182526020918290206040805160e081018252600590930290910180546001600160a01b0390811684526001808301548216958501959095526002808301548216938501939093526003820154811660608501526004820154908116608085015260ff600160a01b82048116151560a086015291949392859260c0850192600160a81b9004169081111561198657611986612db4565b600281111561199757611997612db4565b905250969095509350505050565b6119ad612cff565b6001600160a01b0382165f908152600360205260408120548082036119f557506001600160a01b0383165f90815260046020526040812054908190036119f5576118c9612cff565b5f80611a0260018461327b565b81548110611a1257611a12613337565b5f9182526020918290206040805160e081018252600590930290910180546001600160a01b03908116845260018201548116948401949094526002808201548516928401929092526003810154841660608401526004810154938416608084015260ff600160a01b85048116151560a08501529293909260c0850192600160a81b9092041690811115611aa757611aa7612db4565b6002811115611ab857611ab8612db4565b90525095600195509350505050565b611acf612cff565b5f80611af2846001600160a01b039081165f908152600560205260409020541690565b90506001600160a01b038116611b0a576118c9612cff565b6001600160a01b038082165f908152600660205260409020541680611b3c57611b31612cff565b955f95509350505050565b6001600160a01b0381165f9081526001602052604081205490819003611b7057611b64612cff565b965f9650945050505050565b5f611b7c60018361327b565b81548110611b8c57611b8c613337565b5f9182526020918290206040805160e081018252600590930290910180546001600160a01b0390811684526001808301548216958501959095526002808301548216938501939093526003820154811660608501526004820154908116608085015260ff600160a01b82048116151560a086015291949392859260c0850192600160a81b90041690811115611c2357611c23612db4565b6002811115611c3457611c34612db4565b9052509890975095505050505050565b7ff0c57e16840df040f15088dc2f81fe391c3923bec73e23a9662efc9c229c6a008054600160401b810460ff16159067ffffffffffffffff165f81158015611c895750825b90505f8267ffffffffffffffff166001148015611ca55750303b155b905081158015611cb3575080155b15611cd15760405163f92ee8a960e01b815260040160405180910390fd5b845467ffffffffffffffff191660011785558315611cfb57845460ff60401b1916600160401b1785555b611d0486612ad0565b611d0c612ae1565b8315611d5257845460ff60401b19168555604051600181527fc7f505b2f371ae2175ee4913f4499e1f2633a7b5936321eed1cdaeb6115181d29060200160405180910390a15b505050505050565b611d62612a2e565b600780546001600160a01b0319166001600160a01b0392909216919091179055565b6007546001600160a01b0316331480611db55750611da061186c565b6001600160a01b0316336001600160a01b0316145b611dd15760405162461bcd60e51b81526004016107039061323f565b5f611dde825f015161080e565b6040805160c0810182525f60a08201818152825260208201819052918101829052606081018290526080810182905291925090611e1d90849083610f91565b5090505f6040518060e0016040528085604001516001600160a01b0316815260200185602001516001600160a01b03168152602001846001600160a01b0316815260200185606001516001600160a01b0316815260200185608001516001600160a01b031681526020015f6002811115611e9957611e99612db4565b846002811115611eab57611eab612db4565b1480611ec857506002846002811115611ec657611ec6612db4565b145b15158152602001836002811115611ee157611ee1612db4565b90528154600180820184555f938452602093849020835160059093020180546001600160a01b03199081166001600160a01b03948516178255948401519181018054861692841692909217909155604083015160028083018054871692851692909217909155606084015160038301805490961690841617909455608083015160048201805460a0860151929094166001600160a81b031990941693909317600160a01b911515919091021780835560c084015193949193929160ff60a81b1990911690600160a81b908490811115611fbc57611fbc612db4565b0217905550505f8054909150611fd49060019061327b565b9050611fe181600161328e565b6001600160a01b038085165f90815260016020526040902091909155606085015116156120305761201381600161328e565b60608501516001600160a01b03165f908152600260205260409020555b60208401516001600160a01b03161561206c5761204e81600161328e565b6020808601516001600160a01b03165f908152600390915260409020555b60408401516001600160a01b0316156120a55761208a81600161328e565b6040808601516001600160a01b03165f908152600460205220555b826001600160a01b03167fa9366f75c6c44e3c9ee299d368915abb2fa3108d469f3ab468ef239142dc725b826040516120e091815260200190565b60405180910390a260018260028111156120fc576120fc612db4565b1461214557826001600160a01b03167f65b9775e0ec7a02caf84b2523694b517ace341c14dd2b3926a5591d7b5f5a9968260405161213c91815260200190565b60405180910390a25b60608401515f906001600160a01b0316612160575082612188565b5060608401516001600160a01b039081165f9081526005602052604090205416806121885750825b6001600160a01b038085165f81815260056020908152604080832080549587166001600160a01b03199687168117909155835260069091529020805490921681179091556121d461186c565b6001600160a01b0316036121ef576121ef856020015161228a565b5050505050565b6121fe612cff565b5f8060035f61220c8661080e565b6001600160a01b03166001600160a01b031681526020019081526020015f20549050805f036119f5576118c9612cff565b612245612a2e565b6001600160a01b03811661226e57604051631e4fbdf760e01b81525f6004820152602401610703565b61071581612a60565b5f8061228283610f60565b519392505050565b6007546001600160a01b03163314806122bb57506122a661186c565b6001600160a01b0316336001600160a01b0316145b6122d75760405162461bcd60e51b81526004016107039061323f565b6001600160a01b0381166122fe5760405163d92e233d60e01b815260040160405180910390fd5b306318fdb6f861230c61186c565b6040516001600160e01b031960e084901b1681526001600160a01b0391821660048201529084166024820152604401602060405180830381865afa158015612356573d5f803e3d5ffd5b505050506040513d601f19601f8201168201806040525081019061237a919061334b565b61226e5760405163b012a29560e01b815260040160405180910390fd5b306001600160a01b037f000000000000000000000000000000000000000000000000000000000000000016148061241d57507f00000000000000000000000000000000000000000000000000000000000000006001600160a01b03166124115f805160206133b1833981519152546001600160a01b031690565b6001600160a01b031614155b15610f8f5760405163703e46dd60e11b815260040160405180910390fd5b6007546001600160a01b031633146107155760405162461bcd60e51b815260206004820152601760248201527f4f6e6c79206272696467652063616e20757067726164650000000000000000006044820152606401610703565b816001600160a01b03166352d1902d6040518163ffffffff1660e01b8152600401602060405180830381865afa9250505080156124ef575060408051601f3d908101601f191682019092526124ec91810190613366565b60015b61251757604051634c9c8ce360e01b81526001600160a01b0383166004820152602401610703565b5f805160206133b1833981519152811461254757604051632a87526960e21b815260048101829052602401610703565b6125518383612ae9565b505050565b306001600160a01b037f00000000000000000000000000000000000000000000000000000000000000001614610f8f5760405163703e46dd60e11b815260040160405180910390fd5b604080516103e8808252617d2082019092526060915f9190816020015b6125c4612cff565b8152602001906001900390816125bc5790505090505f836125e3612cff565b5f6125ec612cff565b6001600160a01b0384165f908152600160205260408120549081900361262657506001600160a01b0384165f908152600360205260409020545b805f0361264757506001600160a01b0384165f908152600460205260409020545b805f0361268d57604080515f808252602082019092528161267e565b61266b612cff565b8152602001906001900390816126635790505b509a9950505050505050505050565b5f61269960018361327b565b815481106126a9576126a9613337565b5f9182526020918290206040805160e081018252600590930290910180546001600160a01b03908116845260018201548116948401949094526002808201548516928401929092526003810154841660608401526004810154938416608084015260ff600160a01b85048116151560a08501529293909260c0850192600160a81b909204169081111561273e5761273e612db4565b600281111561274f5761274f612db4565b90525060608101519092506001600160a01b0316612774578193506001925050612781565b81606001519450506125ec565b811561298257855185106127d75760405162461bcd60e51b815260206004820152601c60248201527f436861696e2065786365656473206d6178696d756d206c656e677468000000006044820152606401610703565b828686815181106127ea576127ea613337565b602002602001018190525084806128009061337d565b955050826020015193505b6001600160a01b0384165f90815260016020526040812054908190036128315750612982565b865186106128815760405162461bcd60e51b815260206004820152601c60248201527f436861696e2065786365656473206d6178696d756d206c656e677468000000006044820152606401610703565b5f61288d60018361327b565b8154811061289d5761289d613337565b5f9182526020918290206040805160e081018252600590930290910180546001600160a01b03908116845260018201548116948401949094526002808201548516928401929092526003810154841660608401526004810154938416608084015260ff600160a01b85048116151560a08501529293909260c0850192600160a81b909204169081111561293257612932612db4565b600281111561294357612943612db4565b8152505091508187878151811061295c5761295c613337565b602002602001018190525085806129729061337d565b965050816020015194505061280b565b5f8567ffffffffffffffff81111561299c5761299c612e39565b6040519080825280602002602001820160405280156129d557816020015b6129c2612cff565b8152602001906001900390816129ba5790505b5090505f5b86811015612a21578781815181106129f4576129f4613337565b6020026020010151828281518110612a0e57612a0e613337565b60209081029190910101526001016129da565b5098975050505050505050565b33612a3761186c565b6001600160a01b031614610f8f5760405163118cdaa760e01b8152336004820152602401610703565b7f9016d09d72d40fdae2fd8ceac6b6234c7706214fd39c1cd1e609a0528c19930080546001600160a01b031981166001600160a01b03848116918217845560405192169182907f8be0079c531659141344cd1fd0a4f28419497f9722a3daafe3b4186f6b6457e0905f90a3505050565b612ad8612b3e565b61071581612b87565b610f8f612b3e565b612af282612b8f565b6040516001600160a01b038316907fbc7cd75a20ee27fd9adebab32041f755214dbc6bffa90cc0225b39da2e5c2d3b905f90a2805115612b36576125518282612bf2565b610f41612c5b565b7ff0c57e16840df040f15088dc2f81fe391c3923bec73e23a9662efc9c229c6a0054600160401b900460ff16610f8f57604051631afcd79f60e31b815260040160405180910390fd5b612245612b3e565b806001600160a01b03163b5f03612bc457604051634c9c8ce360e01b81526001600160a01b0382166004820152602401610703565b5f805160206133b183398151915280546001600160a01b0319166001600160a01b0392909216919091179055565b60605f80846001600160a01b031684604051612c0e9190613395565b5f60405180830381855af49150503d805f8114612c46576040519150601f19603f3d011682016040523d82523d5f602084013e612c4b565b606091505b509150915061079b858383612c7a565b3415610f8f5760405163b398979f60e01b815260040160405180910390fd5b606082612c8f57612c8a82612cd6565b610f77565b8151158015612ca657506001600160a01b0384163b155b15612ccf57604051639996b31560e01b81526001600160a01b0385166004820152602401610703565b5092915050565b805115612ce65780518082602001fd5b60405163d6bda27560e01b815260040160405180910390fd5b6040805160e0810182525f80825260208201819052918101829052606081018290526080810182905260a081018290529060c082015290565b80356001600160a01b0381168114612d4e575f80fd5b919050565b5f60208284031215612d63575f80fd5b610f7782612d38565b5f8060408385031215612d7d575f80fd5b612d8683612d38565b9150612d9460208401612d38565b90509250929050565b5f60208284031215612dad575f80fd5b5035919050565b634e487b7160e01b5f52602160045260245ffd5b60038110612de457634e487b7160e01b5f52602160045260245ffd5b9052565b6001600160a01b0388811682528781166020830152868116604083015285811660608301528416608082015282151560a082015260e08101612e2d60c0830184612dc8565b98975050505050505050565b634e487b7160e01b5f52604160045260245ffd5b5f82601f830112612e5c575f80fd5b813567ffffffffffffffff80821115612e7757612e77612e39565b604051601f8301601f19908116603f01168101908282118183101715612e9f57612e9f612e39565b81604052838152866020858801011115612eb7575f80fd5b836020870160208301375f602085830101528094505050505092915050565b5f60208284031215612ee6575f80fd5b813567ffffffffffffffff811115612efc575f80fd5b612f0884828501612e4d565b949350505050565b60018060a01b038082511683528060208301511660208401528060408301511660408401528060608301511660608401528060808301511660808401525060a0810151151560a083015260c081015161255160c0840182612dc8565b6101008101612f7b8285612f10565b82151560e08301529392505050565b5f60a08284031215612f9a575f80fd5b60405160a0810167ffffffffffffffff8282108183111715612fbe57612fbe612e39565b816040528293508435915080821115612fd5575f80fd5b50612fe285828601612e4d565b825250612ff160208401612d38565b602082015261300260408401612d38565b604082015261301360608401612d38565b606082015261302460808401612d38565b60808201525092915050565b5f8060408385031215613041575f80fd5b823567ffffffffffffffff80821115613058575f80fd5b61306486838701612f8a565b93506020850135915080821115613079575f80fd5b5061308685828601612f8a565b9150509250929050565b5f5b838110156130aa578181015183820152602001613092565b50505f910152565b602081525f82518060208401526130d0816040850160208701613090565b601f01601f19169190910160400192915050565b5f80604083850312156130f5575f80fd5b6130fe83612d38565b9150602083013567ffffffffffffffff811115613119575f80fd5b61308685828601612e4d565b602080825282518282018190525f9190848201906040850190845b8181101561316657613153838551612f10565b9284019260e09290920191600101613140565b50909695505050505050565b8015158114610715575f80fd5b5f805f60608486031215613191575f80fd5b833567ffffffffffffffff808211156131a8575f80fd5b6131b487838801612f8a565b945060208601359150808211156131c9575f80fd5b506131d686828701612f8a565b92505060408401356131e781613172565b809150509250925092565b604081016132008285612dc8565b610f776020830184612dc8565b5f6020828403121561321d575f80fd5b813567ffffffffffffffff811115613233575f80fd5b612f0884828501612f8a565b6020808252600e908201526d139bdd08185d5d1a1bdc9a5e995960921b604082015260600190565b634e487b7160e01b5f52601160045260245ffd5b818103818111156107a0576107a0613267565b808201808211156107a0576107a0613267565b60208082526025908201527f50726576696f7573207075626c6963206b6579206861736820616c7265616479604082015264081d5cd95960da1b606082015260800190565b60208082526031908201527f436f6e6669726d696e6720747769636520707265726f7461746564206b6579206040820152701a185cda08185b1c9958591e481d5cd959607a1b606082015260800190565b634e487b7160e01b5f52603260045260245ffd5b5f6020828403121561335b575f80fd5b8151610f7781613172565b5f60208284031215613376575f80fd5b5051919050565b5f6001820161338e5761338e613267565b5060010190565b5f82516133a6818460208701613090565b919091019291505056fe360894a13ba1a3210667c828492db98dca3e2076cc3735a920a3ca505d382bbca2646970667358221220cae20aaba7a9bb7347d44758b3ddb42a5fd0236756ceb592e0d46068c03da98164736f6c63430008180033",
  "linkReferences": {},
  "deployedLinkReferences": {}
}