{
  "_format": "hh-sol-artifact-1",
  "contractName": "KeyLogRegistry",
  "sourceName": "contracts/KeyLogRegistry.sol",
  "abi": [
    {
      "inputs": [],
      "stateMutability": "nonpayable",
      "type": "constructor"
    },
    {
      "inputs": [
        {
          "internalType": "address",
          "name": "target",
          "type": "address"
        }
      ],
      "name": "AddressEmptyCode",
      "type": "error"
    },
    {
      "inputs": [
        {
          "internalType": "address",
          "name": "implementation",
          "type": "address"
        }
      ],
      "name": "ERC1967InvalidImplementation",
      "type": "error"
    },
    {
      "inputs": [],
      "name": "ERC1967NonPayable",
      "type": "error"
    },
    {
      "inputs": [],
      "name": "FailedCall",
      "type": "error"
    },
    {
      "inputs": [],
      "name": "InvalidInitialization",
      "type": "error"
    },
    {
      "inputs": [],
      "name": "InvalidOwnershipTransfer",
      "type": "error"
    },
    {
      "inputs": [],
      "name": "NotInitializing",
      "type": "error"
    },
    {
      "inputs": [
        {
          "internalType": "address",
          "name": "owner",
          "type": "address"
        }
      ],
      "name": "OwnableInvalidOwner",
      "type": "error"
    },
    {
      "inputs": [
        {
          "internalType": "address",
          "name": "account",
          "type": "address"
        }
      ],
      "name": "OwnableUnauthorizedAccount",
      "type": "error"
    },
    {
      "inputs": [],
      "name": "UUPSUnauthorizedCallContext",
      "type": "error"
    },
    {
      "inputs": [
        {
          "internalType": "bytes32",
          "name": "slot",
          "type": "bytes32"
        }
      ],
      "name": "UUPSUnsupportedProxiableUUID",
      "type": "error"
    },
    {
      "inputs": [],
      "name": "ZeroAddress",
      "type": "error"
    },
    {
      "anonymous": false,
      "inputs": [
        {
          "indexed": false,
          "internalType": "uint64",
          "name": "version",
          "type": "uint64"
        }
      ],
      "name": "Initialized",
      "type": "event"
    },
    {
      "anonymous": false,
      "inputs": [
        {
          "indexed": true,
          "internalType": "address",
          "name": "publicKeyHash",
          "type": "address"
        },
        {
          "indexed": false,
          "internalType": "uint256",
          "name": "index",
          "type": "uint256"
        }
      ],
      "name": "KeyLogRegistered",
      "type": "event"
    },
    {
      "anonymous": false,
      "inputs": [
        {
          "indexed": true,
          "internalType": "address",
          "name": "publicKeyHash",
          "type": "address"
        },
        {
          "indexed": false,
          "internalType": "uint256",
          "name": "index",
          "type": "uint256"
        }
      ],
      "name": "KeyRotated",
      "type": "event"
    },
    {
      "anonymous": false,
      "inputs": [
        {
          "indexed": true,
          "internalType": "address",
          "name": "previousOwner",
          "type": "address"
        },
        {
          "indexed": true,
          "internalType": "address",
          "name": "newOwner",
          "type": "address"
        }
      ],
      "name": "OwnershipTransferred",
      "type": "event"
    },
    {
      "anonymous": false,
      "inputs": [
        {
          "indexed": true,
          "internalType": "address",
          "name": "implementation",
          "type": "address"
        }
      ],
      "name": "Upgraded",
      "type": "event"
    },
    {
      "inputs": [],
      "name": "UPGRADE_INTERFACE_VERSION",
      "outputs": [
        {
          "internalType": "string",
          "name": "",
          "type": "string"
        }
      ],
      "stateMutability": "view",
      "type": "function"
    },
    {
      "inputs": [],
      "name": "authorizedCaller",
      "outputs": [
        {
          "internalType": "address",
          "name": "",
          "type": "address"
        }
      ],
      "stateMutability": "view",
      "type": "function"
    },
    {
      "inputs": [
        {
          "internalType": "bytes",
          "name": "publicKey",
          "type": "bytes"
        }
      ],
      "name": "buildFromPublicKey",
      "outputs": [
        {
          "components": [
            {
              "internalType": "address",
              "name": "twicePrerotatedKeyHash",
              "type": "address"
            },
            {
              "internalType": "address",
              "name": "prerotatedKeyHash",
              "type": "address"
            },
            {
              "internalType": "address",
              "name": "publicKeyHash",
              "type": "address"
            },
            {
              "internalType": "address",
              "name": "prevPublicKeyHash",
              "type": "address"
            },
            {
              "internalType": "address",
              "name": "outputAddress",
              "type": "address"
            },
            {
              "internalType": "bool",
              "name": "isOnChain",
              "type": "bool"
            },
            {
              "internalType": "enum KeyEventFlag",
              "name": "flag",
              "type": "uint8"
            }
          ],
          "internalType": "struct KeyLogEntry[]",
          "name": "",
          "type": "tuple[]"
        }
      ],
      "stateMutability": "view",
      "type": "function"
    },
    {
      "inputs": [
        {
          "internalType": "address",
          "name": "",
          "type": "address"
        }
      ],
      "name": "byPrerotatedKeyHash",
      "outputs": [
        {
          "internalType": "uint256",
          "name": "",
          "type": "uint256"
        }
      ],
      "stateMutability": "view",
      "type": "function"
    },
    {
      "inputs": [
        {
          "internalType": "address",
          "name": "",
          "type": "address"
        }
      ],
      "name": "byPrevPublicKeyHash",
      "outputs": [
        {
          "internalType": "uint256",
          "name": "",
          "type": "uint256"
        }
      ],
      "stateMutability": "view",
      "type": "function"
    },
    {
      "inputs": [
        {
          "internalType": "address",
          "name": "",
          "type": "address"
        }
      ],
      "name": "byPublicKeyHash",
      "outputs": [
        {
          "internalType": "uint256",
          "name": "",
          "type": "uint256"
        }
      ],
      "stateMutability": "view",
      "type": "function"
    },
    {
      "inputs": [
        {
          "internalType": "address",
          "name": "",
          "type": "address"
        }
      ],
      "name": "byTwicePrerotatedKeyHash",
      "outputs": [
        {
          "internalType": "uint256",
          "name": "",
          "type": "uint256"
        }
      ],
      "stateMutability": "view",
      "type": "function"
    },
    {
      "inputs": [
        {
          "internalType": "address",
          "name": "",
          "type": "address"
        }
      ],
      "name": "chainOf",
      "outputs": [
        {
          "internalType": "address",
          "name": "",
          "type": "address"
        }
      ],
      "stateMutability": "view",
      "type": "function"
    },
    {
      "inputs": [
        {
          "internalType": "bytes",
          "name": "publicKey",
          "type": "bytes"
        }
      ],
      "name": "getAddressFromPublicKey",
      "outputs": [
        {
          "internalType": "address",
          "name": "",
          "type": "address"
        }
      ],
      "stateMutability": "pure",
      "type": "function"
    },
    {
      "inputs": [
        {
          "internalType": "address",
          "name": "publicKeyHash",
          "type": "address"
        }
      ],
      "name": "getChainRoot",
      "outputs": [
        {
          "internalType": "address",
          "name": "root",
          "type": "address"
        },
        {
          "internalType": "bool",
          "name": "exists",
          "type": "bool"
        }
      ],
      "stateMutability": "view",
      "type": "function"
    },
    {
      "inputs": [
        {
          "internalType": "bytes",
          "name": "publicKey",
          "type": "bytes"
        }
      ],
      "name": "getCurrentIndex",
      "outputs": [
        {
          "internalType": "uint256",
          "name": "",
          "type": "uint256"
        }
      ],
      "stateMutability": "view",
      "type": "function"
    },
    {
      "inputs": [
        {
          "internalType": "bytes",
          "name": "publicKey",
          "type": "bytes"
        }
      ],
      "name": "getLatestChainEntry",
      "outputs": [
        {
          "components": [
            {
              "internalType": "address",
              "name": "twicePrerotatedKeyHash",
              "type": "address"
            },
            {
              "internalType": "address",
              "name": "prerotatedKeyHash",
              "type": "address"
            },
            {
              "internalType": "address",
              "name": "publicKeyHash",
              "type": "address"
            },
            {
              "internalType": "address",
              "name": "prevPublicKeyHash",
              "type": "address"
            },
            {
              "internalType": "address",
              "name": "outputAddress",
              "type": "address"
            },
            {
              "internalType": "bool",
              "name": "isOnChain",
              "type": "bool"
            },
            {
              "internalType": "enum KeyEventFlag",
              "name": "flag",
              "type": "uint8"
            }
          ],
          "internalType": "struct KeyLogEntry",
          "name": "",
          "type": "tuple"
        },
        {
          "internalType": "bool",
          "name": "",
          "type": "bool"
        }
      ],
      "stateMutability": "view",
      "type": "function"
    },
    {
      "inputs": [
        {
          "internalType": "address",
          "name": "publicKeyHash",
          "type": "address"
        }
      ],
      "name": "getLatestChainEntry",
      "outputs": [
        {
          "components": [
            {
              "internalType": "address",
              "name": "twicePrerotatedKeyHash",
              "type": "address"
            },
            {
              "internalType": "address",
              "name": "prerotatedKeyHash",
              "type": "address"
            },
            {
              "internalType": "address",
              "name": "publicKeyHash",
              "type": "address"
            },
            {
              "internalType": "address",
              "name": "prevPublicKeyHash",
              "type": "address"
            },
            {
              "internalType": "address",
              "name": "outputAddress",
              "type": "address"
            },
            {
              "internalType": "bool",
              "name": "isOnChain",
              "type": "bool"
            },
            {
              "internalType": "enum KeyEventFlag",
              "name": "flag",
              "type": "uint8"
            }
          ],
          "internalType": "struct KeyLogEntry",
          "name": "",
          "type": "tuple"
        },
        {
          "internalType": "bool",
          "name": "",
          "type": "bool"
        }
      ],
      "stateMutability": "view",
      "type": "function"
    },
    {
      "inputs": [
        {
          "internalType": "address",
          "name": "publicKeyHash",
          "type": "address"
        }
      ],
      "name": "getLatestEntry",
      "outputs": [
        {
          "components": [
            {
              "internalType": "address",
              "name": "twicePrerotatedKeyHash",
              "type": "address"
            },
            {
              "internalType": "address",
              "name": "prerotatedKeyHash",
              "type": "address"
            },
            {
              "internalType": "address",
              "name": "publicKeyHash",
              "type": "address"
            },
            {
              "internalType": "address",
              "name": "prevPublicKeyHash",
              "type": "address"
            },
            {
              "internalType": "address",
              "name": "outputAddress",
              "type": "address"
            },
            {
              "internalType": "bool",
              "name": "isOnChain",
              "type": "bool"
            },
            {
              "internalType": "enum KeyEventFlag",
              "name": "flag",
              "type": "uint8"
            }
          ],
          "internalType": "struct KeyLogEntry",
          "name": "",
          "type": "tuple"
        },
        {
          "internalType": "bool",
          "name": "",
          "type": "bool"
        }
      ],
      "stateMutability": "view",
      "type": "function"
    },
    {
      "inputs": [
        {
          "internalType": "address",
          "name": "prerotatedKeyHash",
          "type": "address"
        }
      ],
      "name": "getLatestEntryByPrerotatedKeyHash",
      "outputs": [
        {
          "components": [
            {
              "internalType": "address",
              "name": "twicePrerotatedKeyHash",
              "type": "address"
            },
            {
              "internalType": "address",
              "name": "prerotatedKeyHash",
              "type": "address"
            },
            {
              "internalType": "address",
              "name": "publicKeyHash",
              "type": "address"
            },
            {
              "internalType": "address",
              "name": "prevPublicKeyHash",
              "type": "address"
            },
            {
              "internalType": "address",
              "name": "outputAddress",
              "type": "address"
            },
            {
              "internalType": "bool",
              "name": "isOnChain",
              "type": "bool"
            },
            {
              "internalType": "enum KeyEventFlag",
              "name": "flag",
              "type": "uint8"
            }
          ],
          "internalType": "struct KeyLogEntry",
          "name": "",
          "type": "tuple"
        },
        {
          "internalType": "bool",
          "name": "",
          "type": "bool"
        }
      ],
      "stateMutability": "view",
      "type": "function"
    },
    {
      "inputs": [
        {
          "internalType": "bytes",
          "name": "publicKey",
          "type": "bytes"
        }
      ],
      "name": "getPreviousEntry",
      "outputs": [
        {
          "components": [
            {
              "internalType": "address",
              "name": "twicePrerotatedKeyHash",
              "type": "address"
            },
            {
              "internalType": "address",
              "name": "prerotatedKeyHash",
              "type": "address"
            },
            {
              "internalType": "address",
              "name": "publicKeyHash",
              "type": "address"
            },
            {
              "internalType": "address",
              "name": "prevPublicKeyHash",
              "type": "address"
            },
            {
              "internalType": "address",
              "name": "outputAddress",
              "type": "address"
            },
            {
              "internalType": "bool",
              "name": "isOnChain",
              "type": "bool"
            },
            {
              "internalType": "enum KeyEventFlag",
              "name": "flag",
              "type": "uint8"
            }
          ],
          "internalType": "struct KeyLogEntry",
          "name": "",
          "type": "tuple"
        },
        {
          "internalType": "bool",
          "name": "",
          "type": "bool"
        }
      ],
      "stateMutability": "view",
      "type": "function"
    },
    {
      "inputs": [
        {
          "internalType": "address",
          "name": "initialOwner",
          "type": "address"
        }
      ],
      "name": "initialize",
      "outputs": [],
      "stateMutability": "nonpayable",
      "type": "function"
    },
    {
      "inputs": [
        {
          "internalType": "address",
          "name": "currentOwner",
          "type": "address"
        },
        {
          "internalType": "address",
          "name": "newOwner",
          "type": "address"
        }
      ],
      "name": "isValidOwnershipTransfer",
      "outputs": [
        {
          "internalType": "bool",
          "name": "",
          "type": "bool"
        }
      ],
      "stateMutability": "view",
      "type": "function"
    },
    {
      "inputs": [
        {
          "internalType": "uint256",
          "name": "",
          "type": "uint256"
        }
      ],
      "name": "keyLogEntries",
      "outputs": [
        {
          "internalType": "address",
          "name": "twicePrerotatedKeyHash",
          "type": "address"
        },
        {
          "internalType": "address",
          "name": "prerotatedKeyHash",
          "type": "address"
        },
        {
          "internalType": "address",
          "name": "publicKeyHash",
          "type": "address"
        },
        {
          "internalType": "address",
          "name": "prevPublicKeyHash",
          "type": "address"
        },
        {
          "internalType": "address",
          "name": "outputAddress",
          "type": "address"
        },
        {
          "internalType": "bool",
          "name": "isOnChain",
          "type": "bool"
        },
        {
          "internalType": "enum KeyEventFlag",
          "name": "flag",
          "type": "uint8"
        }
      ],
      "stateMutability": "view",
      "type": "function"
    },
    {
      "inputs": [
        {
          "internalType": "address",
          "name": "",
          "type": "address"
        }
      ],
      "name": "latestInChain",
      "outputs": [
        {
          "internalType": "address",
          "name": "",
          "type": "address"
        }
      ],
      "stateMutability": "view",
      "type": "function"
    },
    {
      "inputs": [],
      "name": "owner",
      "outputs": [
        {
          "internalType": "address",
          "name": "",
          "type": "address"
        }
      ],
      "stateMutability": "view",
      "type": "function"
    },
    {
      "inputs": [],
      "name": "proxiableUUID",
      "outputs": [
        {
          "internalType": "bytes32",
          "name": "",
          "type": "bytes32"
        }
      ],
      "stateMutability": "view",
      "type": "function"
    },
    {
      "inputs": [
        {
          "components": [
            {
              "internalType": "bytes",
              "name": "publicKey",
              "type": "bytes"
            },
            {
              "internalType": "address",
              "name": "prerotatedKeyHash",
              "type": "address"
            },
            {
              "internalType": "address",
              "name": "twicePrerotatedKeyHash",
              "type": "address"
            },
            {
              "internalType": "address",
              "name": "prevPublicKeyHash",
              "type": "address"
            },
            {
              "internalType": "address",
              "name": "outputAddress",
              "type": "address"
            }
          ],
          "internalType": "struct KeyData",
          "name": "key",
          "type": "tuple"
        }
      ],
      "name": "registerKeyLog",
      "outputs": [],
      "stateMutability": "nonpayable",
      "type": "function"
    },
    {
      "inputs": [
        {
          "components": [
            {
              "internalType": "bytes",
              "name": "publicKey",
              "type": "bytes"
            },
            {
              "internalType": "address",
              "name": "prerotatedKeyHash",
              "type": "address"
            },
            {
              "internalType": "address",
              "name": "twicePrerotatedKeyHash",
              "type": "address"
            },
            {
              "internalType": "address",
              "name": "prevPublicKeyHash",
              "type": "address"
            },
            {
              "internalType": "address",
              "name": "outputAddress",
              "type": "address"
            }
          ],
          "internalType": "struct KeyData",
          "name": "unconfirmedKey",
          "type": "tuple"
        },
        {
          "components": [
            {
              "internalType": "bytes",
              "name": "publicKey",
              "type": "bytes"
            },
            {
              "internalType": "address",
              "name": "prerotatedKeyHash",
              "type": "address"
            },
            {
              "internalType": "address",
              "name": "twicePrerotatedKeyHash",
              "type": "address"
            },
            {
              "internalType": "address",
              "name": "prevPublicKeyHash",
              "type": "address"
            },
            {
              "internalType": "address",
              "name": "outputAddress",
              "type": "address"
            }
          ],
          "internalType": "struct KeyData",
          "name": "confirmingKey",
          "type": "tuple"
        }
      ],
      "name": "registerKeyLogPair",
      "outputs": [],
      "stateMutability": "nonpayable",
      "type": "function"
    },
    {
      "inputs": [],
      "name": "renounceOwnership",
      "outputs": [],
      "stateMutability": "nonpayable",
      "type": "function"
    },
    {
      "inputs": [
        {
          "internalType": "address",
          "name": "_caller",
          "type": "address"
        }
      ],
      "name": "setAuthorizedCaller",
      "outputs": [],
      "stateMutability": "nonpayable",
      "type": "function"
    },
    {
      "inputs": [
        {
          "internalType": "address",
          "name": "newOwner",
          "type": "address"
        }
      ],
      "name": "transferOwnership",
      "outputs": [],
      "stateMutability": "nonpayable",
      "type": "function"
    },
    {
      "inputs": [
        {
          "internalType": "address",
          "name": "newOwner",
          "type": "address"
        }
      ],
      "name": "transferOwnershipForKeyRotation",
      "outputs": [],
      "stateMutability": "nonpayable",
      "type": "function"
    },
    {
      "inputs": [
        {
          "internalType": "address",
          "name": "newImplementation",
          "type": "address"
        },
        {
          "internalType": "bytes",
          "name": "data",
          "type": "bytes"
        }
      ],
      "name": "upgradeToAndCall",
      "outputs": [],
      "stateMutability": "payable",
      "type": "function"
    },
    {
      "inputs": [
        {
          "components": [
            {
              "internalType": "bytes",
              "name": "publicKey",
              "type": "bytes"
            },
            {
              "internalType": "address",
              "name": "prerotatedKeyHash",
              "type": "address"
            },
            {
              "internalType": "address",
              "name": "twicePrerotatedKeyHash",
              "type": "address"
            },
            {
              "internalType": "address",
              "name": "prevPublicKeyHash",
              "type": "address"
            },
            {
              "internalType": "address",
              "name": "outputAddress",
              "type": "address"
            }
          ],
          "internalType": "struct KeyData",
          "name": "unconfirmed",
          "type": "tuple"
        },
        {
          "components": [
            {
              "internalType": "bytes",
              "name": "publicKey",
              "type": "bytes"
            },
            {
              "internalType": "address",
              "name": "prerotatedKeyHash",
              "type": "address"
            },
            {
              "internalType": "address",
              "name": "twicePrerotatedKeyHash",
              "type": "address"
            },
            {
              "internalType": "address",
              "name": "prevPublicKeyHash",
              "type": "address"
            },
            {
              "internalType": "address",
              "name": "outputAddress",
              "type": "address"
            }
          ],
          "internalType": "struct KeyData",
          "name": "confirming",
          "type": "tuple"
        },
        {
          "internalType": "bool",
          "name": "isPair",
          "type": "bool"
        }
      ],
      "name": "validateTransaction",
      "outputs": [
        {
          "internalType": "enum KeyEventFlag",
          "name": "",
          "type": "uint8"
        },
        {
          "internalType": "enum KeyEventFlag",
          "name": "",
          "type": "uint8"
        }
      ],
      "stateMutability": "view",
      "type": "function"
    }
  ],
  "bytecode": "0x60a06040523060805234801562000014575f80fd5b506200001f62000025565b620000d9565b7ff0c57e16840df040f15088dc2f81fe391c3923bec73e23a9662efc9c229c6a00805468010000000000000000900460ff1615620000765760405163f92ee8a960e01b815260040160405180910390fd5b80546001600160401b0390811614620000d65780546001600160401b0319166001600160401b0390811782556040519081527fc7f505b2f371ae2175ee4913f4499e1f2633a7b5936321eed1cdaeb6115181d29060200160405180910390a15b50565b6080516133ba620001005f395f81816123560152818161237f015261251501526133ba5ff3fe6080604052600436106101c5575f3560e01c80638da5cb5b116100f2578063ad3cb1cc11610092578063e5ce0af411610062578063e5ce0af4146105ee578063ee93aac21461060d578063f2fde38b1461062c578063fb51e5bb1461064b575f80fd5b8063ad3cb1cc14610519578063b0199d5e14610556578063c4d66de8146105b0578063cf8fbec9146105cf575f80fd5b806397dc97cb116100cd57806397dc97cb146104855780639fa17f91146104a4578063a375e472146104cf578063a5e49bda146104fa575f80fd5b80638da5cb5b14610433578063919525511461044757806392e7110414610466575f80fd5b80632dd1466d1161016857806352d1902d1161013857806352d1902d146103b25780635ed9739c146103c6578063715018a6146103f257806382fc3dd714610406575f80fd5b80632dd1466d14610321578063401795b214610340578063471b08e01461036b5780634f1ef2861461039f575f80fd5b806325fb5bd9116101a357806325fb5bd91461026a578063276c1ac01461029c5780632bf2fac9146102bb5780632d2eca6a146102f4575f80fd5b806304a5e597146101c95780630d6814ff146101ea57806318fdb6f81461023b575b5f80fd5b3480156101d4575f80fd5b506101e86101e3366004612d07565b61066a565b005b3480156101f5575f80fd5b5061021e610204366004612d07565b60056020525f90815260409020546001600160a01b031681565b6040516001600160a01b0390911681526020015b60405180910390f35b348015610246575f80fd5b5061025a610255366004612d20565b6106cc565b6040519015158152602001610232565b348015610275575f80fd5b50610289610284366004612d51565b61075a565b6040516102329796959493929190612d9c565b3480156102a7575f80fd5b5061021e6102b6366004612e8a565b6107c2565b3480156102c6575f80fd5b506102e66102d5366004612d07565b60036020525f908152604090205481565b604051908152602001610232565b3480156102ff575f80fd5b5061031361030e366004612e8a565b610820565b604051610232929190612f20565b34801561032c575f80fd5b506101e861033b366004612fe4565b610848565b34801561034b575f80fd5b506102e661035a366004612d07565b60026020525f908152604090205481565b348015610376575f80fd5b5061021e610385366004612d07565b60066020525f90815260409020546001600160a01b031681565b6101e86103ad366004613044565b610eda565b3480156103bd575f80fd5b506102e6610ef9565b3480156103d1575f80fd5b506103e56103e0366004612e8a565b610f14565b6040516102329190613085565b3480156103fd575f80fd5b506101e8610f32565b348015610411575f80fd5b506104256104203660046130df565b610f45565b604051610232929190613152565b34801561043e575f80fd5b5061021e611820565b348015610452575f80fd5b50610313610461366004612d07565b61184e565b348015610471575f80fd5b50610313610480366004612d07565b611959565b348015610490575f80fd5b5060075461021e906001600160a01b031681565b3480156104af575f80fd5b506102e66104be366004612d07565b60046020525f908152604090205481565b3480156104da575f80fd5b506102e66104e9366004612d07565b60016020525f908152604090205481565b348015610505575f80fd5b50610313610514366004612d07565b611a7b565b348015610524575f80fd5b50610549604051806040016040528060058152602001640352e302e360dc1b81525081565b604051610232919061318f565b348015610561575f80fd5b50610591610570366004612d07565b6001600160a01b039081165f90815260056020526040902054169081151590565b604080516001600160a01b039093168352901515602083015201610232565b3480156105bb575f80fd5b506101e86105ca366004612d07565b611bf8565b3480156105da575f80fd5b506101e86105e9366004612d07565b611d0e565b3480156105f9575f80fd5b506101e86106083660046131c1565b611d38565b348015610618575f80fd5b50610313610627366004612e8a565b6121aa565b348015610637575f80fd5b506101e8610646366004612d07565b6121f1565b348015610656575f80fd5b506102e6610665366004612e8a565b61222b565b6007546001600160a01b031633148061069b5750610686611820565b6001600160a01b0316336001600160a01b0316145b6106c05760405162461bcd60e51b81526004016106b7906131f3565b60405180910390fd5b6106c98161223e565b50565b5f6001600160a01b03831615806106ea57506001600160a01b038216155b156106f657505f610754565b5f8061070185611a7b565b9150915080610714575f92505050610754565b836001600160a01b031682602001516001600160a01b031614801561074f575060018260c00151600281111561074c5761074c612d68565b14155b925050505b92915050565b5f8181548110610768575f80fd5b5f918252602090912060059091020180546001820154600283015460038401546004909401546001600160a01b0393841695509183169390831692908116919081169060ff600160a01b8204811691600160a81b90041687565b5f81516040146108145760405162461bcd60e51b815260206004820152601b60248201527f5075626c6963206b6579206d757374206265203634206279746573000000000060448201526064016106b7565b50805160209091012090565b610828612cb3565b5f80610833846107c2565b905061083e81611a7b565b9250925050915091565b6007546001600160a01b03163314806108795750610864611820565b6001600160a01b0316336001600160a01b0316145b6108955760405162461bcd60e51b81526004016106b7906131f3565b5f6108a2835f01516107c2565b90505f6108b1835f01516107c2565b90505f806108c186866001610f45565b915091505f6040518060e0016040528088604001516001600160a01b0316815260200188602001516001600160a01b03168152602001866001600160a01b0316815260200188606001516001600160a01b0316815260200188608001516001600160a01b0316815260200160011515815260200184600281111561094757610947612d68565b90528154600180820184555f938452602093849020835160059093020180546001600160a01b03199081166001600160a01b03948516178255948401519181018054861692841692909217909155604083015160028083018054871692851692909217909155606084015160038301805490961690841617909455608083015160048201805460a0860151929094166001600160a81b031990941693909317600160a01b911515919091021780835560c084015193949193929160ff60a81b1990911690600160a81b908490811115610a2257610a22612d68565b0217905550505f8054909150610a3a9060019061322f565b9050610a47816001613242565b6001600160a01b038087165f9081526001602052604090209190915560608801511615610a9657610a79816001613242565b60608801516001600160a01b03165f908152600260205260409020555b60208701516001600160a01b031615610ad257610ab4816001613242565b6020808901516001600160a01b03165f908152600390915260409020555b60408701516001600160a01b031615610b0b57610af0816001613242565b6040808901516001600160a01b03165f908152600460205220555b5f6040518060e0016040528088604001516001600160a01b0316815260200188602001516001600160a01b03168152602001866001600160a01b0316815260200188606001516001600160a01b0316815260200188608001516001600160a01b03168152602001600115158152602001846002811115610b8d57610b8d612d68565b90528154600180820184555f938452602093849020835160059093020180546001600160a01b03199081166001600160a01b03948516178255948401519181018054861692841692909217909155604083015160028083018054871692851692909217909155606084015160038301805490961690841617909455608083015160048201805460a0860151929094166001600160a81b031990941693909317600160a01b911515919091021780835560c084015193949193929160ff60a81b1990911690600160a81b908490811115610c6857610c68612d68565b0217905550505f8054909150610c809060019061322f565b9050610c8d816001613242565b6001600160a01b038087165f9081526001602052604090209190915560608801511615610cdc57610cbf816001613242565b60608801516001600160a01b03165f908152600260205260409020555b60208701516001600160a01b031615610d1857610cfa816001613242565b6020808901516001600160a01b03165f908152600390915260409020555b60408701516001600160a01b031615610d5157610d36816001613242565b6040808901516001600160a01b03165f908152600460205220555b60608801515f906001600160a01b0316610d6c575085610d8d565b5060608801516001600160a01b039081165f90815260056020526040902054165b6001600160a01b038088165f81815260056020908152604080832080548688166001600160a01b03199182168117909255958c1680855282852080548816831790559084526006909252909120805490931617909155610deb611820565b6001600160a01b031603610e0657610e06886020015161223e565b866001600160a01b03167fa9366f75c6c44e3c9ee299d368915abb2fa3108d469f3ab468ef239142dc725b84604051610e4191815260200190565b60405180910390a2856001600160a01b03167fa9366f75c6c44e3c9ee299d368915abb2fa3108d469f3ab468ef239142dc725b83604051610e8491815260200190565b60405180910390a2856001600160a01b03167f65b9775e0ec7a02caf84b2523694b517ace341c14dd2b3926a5591d7b5f5a99683604051610ec791815260200190565b60405180910390a2505050505050505050565b610ee261234b565b610eeb826123ef565b610ef58282612449565b5050565b5f610f0261250a565b505f8051602061336583398151915290565b60605f610f20836107c2565b9050610f2b81612553565b9392505050565b610f3a6129e2565b610f435f612a14565b565b5f805f80610f568760600151611a7b565b915091505f610f67885f01516107c2565b90505f821561110e578360a00151610fc15760405162461bcd60e51b815260206004820152601f60248201527f50726576696f757320656e747279206d757374206265206f6e2d636861696e0060448201526064016106b7565b88606001516001600160a01b031684604001516001600160a01b03161461102a5760405162461bcd60e51b815260206004820152601860248201527f50726576207075626c6963206b6579206d69736d61746368000000000000000060448201526064016106b7565b816001600160a01b031684602001516001600160a01b0316146110855760405162461bcd60e51b81526020600482015260136024820152720a0eac4d8d2c640d6caf240dad2e6dac2e8c6d606b1b60448201526064016106b7565b88602001516001600160a01b0316845f01516001600160a01b0316146111095760405162461bcd60e51b815260206004820152603360248201527f507265726f7461746564206b6579206d757374206d617463682070726576696f6044820152721d5cc81d1dda58d9481c1c995c9bdd185d1959606a1b60648201526084016106b7565b611184565b60608901516001600160a01b0316156111845760405162461bcd60e51b815260206004820152603260248201527f496e63657074696f6e206576656e742063616e6e6f74206861766520612070726044820152710caecbee0eac4d8d2c6bed6caf2bed0c2e6d60731b60648201526084016106b7565b60608901516001600160a01b03165f90815260026020526040902054156111bd5760405162461bcd60e51b81526004016106b790613255565b6001600160a01b0382165f90815260016020526040902054156112225760405162461bcd60e51b815260206004820152601c60248201527f5075626c6963206b6579206861736820616c726561647920757365640000000060448201526064016106b7565b6020808a01516001600160a01b03165f908152600390915260409020541561128c5760405162461bcd60e51b815260206004820181905260248201527f507265726f7461746564206b6579206861736820616c7265616479207573656460448201526064016106b7565b6040808a01516001600160a01b03165f90815260046020522054156113025760405162461bcd60e51b815260206004820152602660248201527f547769636520707265726f7461746564206b6579206861736820616c726561646044820152651e481d5cd95960d21b60648201526084016106b7565b5f8315801561131c575060608a01516001600160a01b0316155b156113855789602001516001600160a01b03168a608001516001600160a01b03161461137e5760405162461bcd60e51b815260206004820152601160248201527024b73b30b634b21034b731b2b83a34b7b760791b60448201526064016106b7565b505f611410565b89602001516001600160a01b03168a608001516001600160a01b0316146113ae57506001611410565b89602001516001600160a01b03168a608001516001600160a01b03161461140c5760405162461bcd60e51b8152602060048201526012602482015271496e76616c696420636f6e6669726d696e6760701b60448201526064016106b7565b5060025b876114895789608001516001600160a01b03168a602001516001600160a01b03161461144e5760405162461bcd60e51b81526004016106b79061329a565b60808901516001600160a01b0316156114795760405162461bcd60e51b81526004016106b79061329a565b9550600194506118189350505050565b8851611494906107c2565b915088602001516001600160a01b03168a604001516001600160a01b0316146115365760405162461bcd60e51b815260206004820152604860248201527f53657175656e6365206d69736d617463683a207477696365507265726f74617460448201527f65644b65794861736820213d20636f6e6669726d696e67507265726f746174656064820152670c896caf290c2e6d60c31b608482015260a4016106b7565b88602001516001600160a01b031689608001516001600160a01b03161461159f5760405162461bcd60e51b815260206004820152601d60248201527f496e76616c696420636f6e6669726d696e6720636f6e646974696f6e7300000060448201526064016106b7565b816001600160a01b03168a602001516001600160a01b0316146116225760405162461bcd60e51b815260206004820152603560248201527f53657175656e6365206d69736d617463683a20707265726f74617465644b6579604482015274090c2e6d040427a40e0eac4d8d2c696caf290c2e6d605b1b60648201526084016106b7565b826001600160a01b031689606001516001600160a01b0316146116b75760405162461bcd60e51b815260206004820152604160248201527f436f6e6669726d696e6720707265765075626c69634b657948617368206d757360448201527f74206d6174636820756e636f6e6669726d6564207075626c69634b65794861736064820152600d60fb1b608482015260a4016106b7565b60608901516001600160a01b03165f90815260026020526040902054156116f05760405162461bcd60e51b81526004016106b790613255565b6001600160a01b0382165f90815260016020526040902054156117555760405162461bcd60e51b815260206004820152601c60248201527f5075626c6963206b6579206861736820616c726561647920757365640000000060448201526064016106b7565b6020808a01516001600160a01b03165f90815260039091526040902054156117d35760405162461bcd60e51b815260206004820152602b60248201527f436f6e6669726d696e6720707265726f7461746564206b65792068617368206160448201526a1b1c9958591e481d5cd95960aa1b60648201526084016106b7565b6040808a01516001600160a01b03165f908152600460205220541561180a5760405162461bcd60e51b81526004016106b79061329a565b600160029650965050505050505b935093915050565b7f9016d09d72d40fdae2fd8ceac6b6234c7706214fd39c1cd1e609a0528c199300546001600160a01b031690565b611856612cb3565b6001600160a01b0382165f908152600160205260408120548082036118875761187d612cb3565b945f945092505050565b5f61189360018361322f565b815481106118a3576118a36132eb565b5f9182526020918290206040805160e081018252600590930290910180546001600160a01b0390811684526001808301548216958501959095526002808301548216938501939093526003820154811660608501526004820154908116608085015260ff600160a01b82048116151560a086015291949392859260c0850192600160a81b9004169081111561193a5761193a612d68565b600281111561194b5761194b612d68565b905250969095509350505050565b611961612cb3565b6001600160a01b0382165f908152600360205260408120548082036119a957506001600160a01b0383165f90815260046020526040812054908190036119a95761187d612cb3565b5f806119b660018461322f565b815481106119c6576119c66132eb565b5f9182526020918290206040805160e081018252600590930290910180546001600160a01b03908116845260018201548116948401949094526002808201548516928401929092526003810154841660608401526004810154938416608084015260ff600160a01b85048116151560a08501529293909260c0850192600160a81b9092041690811115611a5b57611a5b612d68565b6002811115611a6c57611a6c612d68565b90525095600195509350505050565b611a83612cb3565b5f80611aa6846001600160a01b039081165f908152600560205260409020541690565b90506001600160a01b038116611abe5761187d612cb3565b6001600160a01b038082165f908152600660205260409020541680611af057611ae5612cb3565b955f95509350505050565b6001600160a01b0381165f9081526001602052604081205490819003611b2457611b18612cb3565b965f9650945050505050565b5f611b3060018361322f565b81548110611b4057611b406132eb565b5f9182526020918290206040805160e081018252600590930290910180546001600160a01b0390811684526001808301548216958501959095526002808301548216938501939093526003820154811660608501526004820154908116608085015260ff600160a01b82048116151560a086015291949392859260c0850192600160a81b90041690811115611bd757611bd7612d68565b6002811115611be857611be8612d68565b9052509890975095505050505050565b7ff0c57e16840df040f15088dc2f81fe391c3923bec73e23a9662efc9c229c6a008054600160401b810460ff16159067ffffffffffffffff165f81158015611c3d5750825b90505f8267ffffffffffffffff166001148015611c595750303b155b905081158015611c67575080155b15611c855760405163f92ee8a960e01b815260040160405180910390fd5b845467ffffffffffffffff191660011785558315611caf57845460ff60401b1916600160401b1785555b611cb886612a84565b611cc0612a95565b8315611d0657845460ff60401b19168555604051600181527fc7f505b2f371ae2175ee4913f4499e1f2633a7b5936321eed1cdaeb6115181d29060200160405180910390a15b505050505050565b611d166129e2565b600780546001600160a01b0319166001600160a01b0392909216919091179055565b6007546001600160a01b0316331480611d695750611d54611820565b6001600160a01b0316336001600160a01b0316145b611d855760405162461bcd60e51b81526004016106b7906131f3565b5f611d92825f01516107c2565b6040805160c0810182525f60a08201818152825260208201819052918101829052606081018290526080810182905291925090611dd190849083610f45565b5090505f6040518060e0016040528085604001516001600160a01b0316815260200185602001516001600160a01b03168152602001846001600160a01b0316815260200185606001516001600160a01b0316815260200185608001516001600160a01b031681526020015f6002811115611e4d57611e4d612d68565b846002811115611e5f57611e5f612d68565b1480611e7c57506002846002811115611e7a57611e7a612d68565b145b15158152602001836002811115611e9557611e95612d68565b90528154600180820184555f938452602093849020835160059093020180546001600160a01b03199081166001600160a01b03948516178255948401519181018054861692841692909217909155604083015160028083018054871692851692909217909155606084015160038301805490961690841617909455608083015160048201805460a0860151929094166001600160a81b031990941693909317600160a01b911515919091021780835560c084015193949193929160ff60a81b1990911690600160a81b908490811115611f7057611f70612d68565b0217905550505f8054909150611f889060019061322f565b9050611f95816001613242565b6001600160a01b038085165f9081526001602052604090209190915560608501511615611fe457611fc7816001613242565b60608501516001600160a01b03165f908152600260205260409020555b60208401516001600160a01b03161561202057612002816001613242565b6020808601516001600160a01b03165f908152600390915260409020555b60408401516001600160a01b0316156120595761203e816001613242565b6040808601516001600160a01b03165f908152600460205220555b826001600160a01b03167fa9366f75c6c44e3c9ee299d368915abb2fa3108d469f3ab468ef239142dc725b8260405161209491815260200190565b60405180910390a260018260028111156120b0576120b0612d68565b146120f957826001600160a01b03167f65b9775e0ec7a02caf84b2523694b517ace341c14dd2b3926a5591d7b5f5a996826040516120f091815260200190565b60405180910390a25b60608401515f906001600160a01b031661211457508261213c565b5060608401516001600160a01b039081165f90815260056020526040902054168061213c5750825b6001600160a01b038085165f81815260056020908152604080832080549587166001600160a01b0319968716811790915583526006909152902080549092168117909155612188611820565b6001600160a01b0316036121a3576121a3856020015161223e565b5050505050565b6121b2612cb3565b5f8060035f6121c0866107c2565b6001600160a01b03166001600160a01b031681526020019081526020015f20549050805f036119a95761187d612cb3565b6121f96129e2565b6001600160a01b03811661222257604051631e4fbdf760e01b81525f60048201526024016106b7565b6106c981612a14565b5f8061223683610f14565b519392505050565b6007546001600160a01b031633148061226f575061225a611820565b6001600160a01b0316336001600160a01b0316145b61228b5760405162461bcd60e51b81526004016106b7906131f3565b6001600160a01b0381166122b25760405163d92e233d60e01b815260040160405180910390fd5b306318fdb6f86122c0611820565b6040516001600160e01b031960e084901b1681526001600160a01b0391821660048201529084166024820152604401602060405180830381865afa15801561230a573d5f803e3d5ffd5b505050506040513d601f19601f8201168201806040525081019061232e91906132ff565b6122225760405163b012a29560e01b815260040160405180910390fd5b306001600160a01b037f00000000000000000000000000000000000000000000000000000000000000001614806123d157507f00000000000000000000000000000000000000000000000000000000000000006001600160a01b03166123c55f80516020613365833981519152546001600160a01b031690565b6001600160a01b031614155b15610f435760405163703e46dd60e11b815260040160405180910390fd5b6007546001600160a01b031633146106c95760405162461bcd60e51b815260206004820152601760248201527f4f6e6c79206272696467652063616e207570677261646500000000000000000060448201526064016106b7565b816001600160a01b03166352d1902d6040518163ffffffff1660e01b8152600401602060405180830381865afa9250505080156124a3575060408051601f3d908101601f191682019092526124a09181019061331a565b60015b6124cb57604051634c9c8ce360e01b81526001600160a01b03831660048201526024016106b7565b5f8051602061336583398151915281146124fb57604051632a87526960e21b8152600481018290526024016106b7565b6125058383612a9d565b505050565b306001600160a01b037f00000000000000000000000000000000000000000000000000000000000000001614610f435760405163703e46dd60e11b815260040160405180910390fd5b604080516103e8808252617d2082019092526060915f9190816020015b612578612cb3565b8152602001906001900390816125705790505090505f83612597612cb3565b5f6125a0612cb3565b6001600160a01b0384165f90815260016020526040812054908190036125da57506001600160a01b0384165f908152600360205260409020545b805f036125fb57506001600160a01b0384165f908152600460205260409020545b805f0361264157604080515f8082526020820190925281612632565b61261f612cb3565b8152602001906001900390816126175790505b509a9950505050505050505050565b5f61264d60018361322f565b8154811061265d5761265d6132eb565b5f9182526020918290206040805160e081018252600590930290910180546001600160a01b03908116845260018201548116948401949094526002808201548516928401929092526003810154841660608401526004810154938416608084015260ff600160a01b85048116151560a08501529293909260c0850192600160a81b90920416908111156126f2576126f2612d68565b600281111561270357612703612d68565b90525060608101519092506001600160a01b0316612728578193506001925050612735565b81606001519450506125a0565b8115612936578551851061278b5760405162461bcd60e51b815260206004820152601c60248201527f436861696e2065786365656473206d6178696d756d206c656e6774680000000060448201526064016106b7565b8286868151811061279e5761279e6132eb565b602002602001018190525084806127b490613331565b955050826020015193505b6001600160a01b0384165f90815260016020526040812054908190036127e55750612936565b865186106128355760405162461bcd60e51b815260206004820152601c60248201527f436861696e2065786365656473206d6178696d756d206c656e6774680000000060448201526064016106b7565b5f61284160018361322f565b81548110612851576128516132eb565b5f9182526020918290206040805160e081018252600590930290910180546001600160a01b03908116845260018201548116948401949094526002808201548516928401929092526003810154841660608401526004810154938416608084015260ff600160a01b85048116151560a08501529293909260c0850192600160a81b90920416908111156128e6576128e6612d68565b60028111156128f7576128f7612d68565b81525050915081878781518110612910576129106132eb565b6020026020010181905250858061292690613331565b96505081602001519450506127bf565b5f8567ffffffffffffffff81111561295057612950612ded565b60405190808252806020026020018201604052801561298957816020015b612976612cb3565b81526020019060019003908161296e5790505b5090505f5b868110156129d5578781815181106129a8576129a86132eb565b60200260200101518282815181106129c2576129c26132eb565b602090810291909101015260010161298e565b5098975050505050505050565b336129eb611820565b6001600160a01b031614610f435760405163118cdaa760e01b81523360048201526024016106b7565b7f9016d09d72d40fdae2fd8ceac6b6234c7706214fd39c1cd1e609a0528c19930080546001600160a01b031981166001600160a01b03848116918217845560405192169182907f8be0079c531659141344cd1fd0a4f28419497f9722a3daafe3b4186f6b6457e0905f90a3505050565b612a8c612af2565b6106c981612b3b565b610f43612af2565b612aa682612b43565b6040516001600160a01b038316907fbc7cd75a20ee27fd9adebab32041f755214dbc6bffa90cc0225b39da2e5c2d3b905f90a2805115612aea576125058282612ba6565b610ef5612c0f565b7ff0c57e16840df040f15088dc2f81fe391c3923bec73e23a9662efc9c229c6a0054600160401b900460ff16610f4357604051631afcd79f60e31b815260040160405180910390fd5b6121f9612af2565b806001600160a01b03163b5f03612b7857604051634c9c8ce360e01b81526001600160a01b03821660048201526024016106b7565b5f8051602061336583398151915280546001600160a01b0319166001600160a01b0392909216919091179055565b60605f80846001600160a01b031684604051612bc29190613349565b5f60405180830381855af49150503d805f8114612bfa576040519150601f19603f3d011682016040523d82523d5f602084013e612bff565b606091505b509150915061074f858383612c2e565b3415610f435760405163b398979f60e01b815260040160405180910390fd5b606082612c4357612c3e82612c8a565b610f2b565b8151158015612c5a57506001600160a01b0384163b155b15612c8357604051639996b31560e01b81526001600160a01b03851660048201526024016106b7565b5092915050565b805115612c9a5780518082602001fd5b60405163d6bda27560e01b815260040160405180910390fd5b6040805160e0810182525f80825260208201819052918101829052606081018290526080810182905260a081018290529060c082015290565b80356001600160a01b0381168114612d02575f80fd5b919050565b5f60208284031215612d17575f80fd5b610f2b82612cec565b5f8060408385031215612d31575f80fd5b612d3a83612cec565b9150612d4860208401612cec565b90509250929050565b5f60208284031215612d61575f80fd5b5035919050565b634e487b7160e01b5f52602160045260245ffd5b60038110612d9857634e487b7160e01b5f52602160045260245ffd5b9052565b6001600160a01b0388811682528781166020830152868116604083015285811660608301528416608082015282151560a082015260e08101612de160c0830184612d7c565b98975050505050505050565b634e487b7160e01b5f52604160045260245ffd5b5f82601f830112612e10575f80fd5b813567ffffffffffffffff80821115612e2b57612e2b612ded565b604051601f8301601f19908116603f01168101908282118183101715612e5357612e53612ded565b81604052838152866020858801011115612e6b575f80fd5b836020870160208301375f602085830101528094505050505092915050565b5f60208284031215612e9a575f80fd5b813567ffffffffffffffff811115612eb0575f80fd5b612ebc84828501612e01565b949350505050565b60018060a01b038082511683528060208301511660208401528060408301511660408401528060608301511660608401528060808301511660808401525060a0810151151560a083015260c081015161250560c0840182612d7c565b6101008101612f2f8285612ec4565b82151560e08301529392505050565b5f60a08284031215612f4e575f80fd5b60405160a0810167ffffffffffffffff8282108183111715612f7257612f72612ded565b816040528293508435915080821115612f89575f80fd5b50612f9685828601612e01565b825250612fa560208401612cec565b6020820152612fb660408401612cec565b6040820152612fc760608401612cec565b6060820152612fd860808401612cec565b60808201525092915050565b5f8060408385031215612ff5575f80fd5b823567ffffffffffffffff8082111561300c575f80fd5b61301886838701612f3e565b9350602085013591508082111561302d575f80fd5b5061303a85828601612f3e565b9150509250929050565b5f8060408385031215613055575f80fd5b61305e83612cec565b9150602083013567ffffffffffffffff811115613079575f80fd5b61303a85828601612e01565b602080825282518282018190525f9190848201906040850190845b818110156130c6576130b3838551612ec4565b9284019260e092909201916001016130a0565b50909695505050505050565b80151581146106c9575f80fd5b5f805f606084860312156130f1575f80fd5b833567ffffffffffffffff80821115613108575f80fd5b61311487838801612f3e565b94506020860135915080821115613129575f80fd5b5061313686828701612f3e565b9250506040840135613147816130d2565b809150509250925092565b604081016131608285612d7c565b610f2b6020830184612d7c565b5f5b8381101561318757818101518382015260200161316f565b50505f910152565b602081525f82518060208401526131ad81604085016020870161316d565b601f01601f19169190910160400192915050565b5f602082840312156131d1575f80fd5b813567ffffffffffffffff8111156131e7575f80fd5b612ebc84828501612f3e565b6020808252600e908201526d139bdd08185d5d1a1bdc9a5e995960921b604082015260600190565b634e487b7160e01b5f52601160045260245ffd5b818103818111156107545761075461321b565b808201808211156107545761075461321b565b60208082526025908201527f50726576696f7573207075626c6963206b6579206861736820616c7265616479604082015264081d5cd95960da1b606082015260800190565b60208082526031908201527f436f6e6669726d696e6720747769636520707265726f7461746564206b6579206040820152701a185cda08185b1c9958591e481d5cd959607a1b606082015260800190565b634e487b7160e01b5f52603260045260245ffd5b5f6020828403121561330f575f80fd5b8151610f2b816130d2565b5f6020828403121561332a575f80fd5b5051919050565b5f600182016133425761334261321b565b5060010190565b5f825161335a81846020870161316d565b919091019291505056fe360894a13ba1a3210667c828492db98dca3e2076cc3735a920a3ca505d382bbca2646970667358221220e426b61dc4b6744f862f2f163a2f3ebb87fd3197ef76d52a97536d37f1ab2c5764736f6c63430008180033",
  "linkReferences": {},
  "deployedLinkReferences": {}
}