{
  "_format": "hh-sol-artifact-1",
  "contractName": "KeyLogRegistry",
  "sourceName": "contracts/KeyLogRegistry.sol",
  "abi": [
    {
      "inputs": [],
      "stateMutability": "nonpayable",
      "type": "constructor"
    },
    {
      "inputs": [
        {
          "internalType": "address",
          "name": "owner",
          "type": "address"
        }
      ],
      "name": "OwnableInvalidOwner",
      "type": "error"
    },
    {
      "inputs": [
        {
          "internalType": "address",
          "name": "account",
          "type": "address"
        }
      ],
      "name": "OwnableUnauthorizedAccount",
      "type": "error"
    },
    {
      "anonymous": false,
      "inputs": [
        {
          "indexed": true,
          "internalType": "address",
          "name": "publicKeyHash",
          "type": "address"
        },
        {
          "indexed": false,
          "internalType": "uint256",
          "name": "index",
          "type": "uint256"
        }
      ],
      "name": "KeyLogRegistered",
      "type": "event"
    },
    {
      "anonymous": false,
      "inputs": [
        {
          "indexed": true,
          "internalType": "address",
          "name": "publicKeyHash",
          "type": "address"
        },
        {
          "indexed": false,
          "internalType": "uint256",
          "name": "index",
          "type": "uint256"
        }
      ],
      "name": "KeyRotated",
      "type": "event"
    },
    {
      "anonymous": false,
      "inputs": [
        {
          "indexed": true,
          "internalType": "address",
          "name": "previousOwner",
          "type": "address"
        },
        {
          "indexed": true,
          "internalType": "address",
          "name": "newOwner",
          "type": "address"
        }
      ],
      "name": "OwnershipTransferred",
      "type": "event"
    },
    {
      "inputs": [],
      "name": "authorizedCaller",
      "outputs": [
        {
          "internalType": "address",
          "name": "",
          "type": "address"
        }
      ],
      "stateMutability": "view",
      "type": "function"
    },
    {
      "inputs": [
        {
          "internalType": "bytes",
          "name": "publicKey",
          "type": "bytes"
        }
      ],
      "name": "buildFromPublicKey",
      "outputs": [
        {
          "components": [
            {
              "internalType": "address",
              "name": "twicePrerotatedKeyHash",
              "type": "address"
            },
            {
              "internalType": "address",
              "name": "prerotatedKeyHash",
              "type": "address"
            },
            {
              "internalType": "address",
              "name": "publicKeyHash",
              "type": "address"
            },
            {
              "internalType": "address",
              "name": "prevPublicKeyHash",
              "type": "address"
            },
            {
              "internalType": "address",
              "name": "outputAddress",
              "type": "address"
            },
            {
              "internalType": "bool",
              "name": "hasRelationship",
              "type": "bool"
            },
            {
              "internalType": "bool",
              "name": "isOnChain",
              "type": "bool"
            },
            {
              "internalType": "enum KeyLogRegistry.KeyEventFlag",
              "name": "flag",
              "type": "uint8"
            }
          ],
          "internalType": "struct KeyLogRegistry.KeyLogEntry[]",
          "name": "",
          "type": "tuple[]"
        }
      ],
      "stateMutability": "view",
      "type": "function"
    },
    {
      "inputs": [
        {
          "internalType": "address",
          "name": "",
          "type": "address"
        },
        {
          "internalType": "uint256",
          "name": "",
          "type": "uint256"
        }
      ],
      "name": "byPrerotatedKeyHash",
      "outputs": [
        {
          "internalType": "uint256",
          "name": "",
          "type": "uint256"
        }
      ],
      "stateMutability": "view",
      "type": "function"
    },
    {
      "inputs": [
        {
          "internalType": "address",
          "name": "",
          "type": "address"
        },
        {
          "internalType": "uint256",
          "name": "",
          "type": "uint256"
        }
      ],
      "name": "byPrevPublicKeyHash",
      "outputs": [
        {
          "internalType": "uint256",
          "name": "",
          "type": "uint256"
        }
      ],
      "stateMutability": "view",
      "type": "function"
    },
    {
      "inputs": [
        {
          "internalType": "address",
          "name": "",
          "type": "address"
        },
        {
          "internalType": "uint256",
          "name": "",
          "type": "uint256"
        }
      ],
      "name": "byPublicKeyHash",
      "outputs": [
        {
          "internalType": "uint256",
          "name": "",
          "type": "uint256"
        }
      ],
      "stateMutability": "view",
      "type": "function"
    },
    {
      "inputs": [
        {
          "internalType": "address",
          "name": "",
          "type": "address"
        },
        {
          "internalType": "uint256",
          "name": "",
          "type": "uint256"
        }
      ],
      "name": "byTwicePrerotatedKeyHash",
      "outputs": [
        {
          "internalType": "uint256",
          "name": "",
          "type": "uint256"
        }
      ],
      "stateMutability": "view",
      "type": "function"
    },
    {
      "inputs": [
        {
          "internalType": "bytes",
          "name": "publicKey",
          "type": "bytes"
        }
      ],
      "name": "getAddressFromPublicKey",
      "outputs": [
        {
          "internalType": "address",
          "name": "",
          "type": "address"
        }
      ],
      "stateMutability": "pure",
      "type": "function"
    },
    {
      "inputs": [
        {
          "internalType": "bytes",
          "name": "publicKey",
          "type": "bytes"
        }
      ],
      "name": "getCurrentIndex",
      "outputs": [
        {
          "internalType": "uint256",
          "name": "",
          "type": "uint256"
        }
      ],
      "stateMutability": "view",
      "type": "function"
    },
    {
      "inputs": [
        {
          "internalType": "bytes",
          "name": "publicKey",
          "type": "bytes"
        }
      ],
      "name": "getLatestChainEntry",
      "outputs": [
        {
          "components": [
            {
              "internalType": "address",
              "name": "twicePrerotatedKeyHash",
              "type": "address"
            },
            {
              "internalType": "address",
              "name": "prerotatedKeyHash",
              "type": "address"
            },
            {
              "internalType": "address",
              "name": "publicKeyHash",
              "type": "address"
            },
            {
              "internalType": "address",
              "name": "prevPublicKeyHash",
              "type": "address"
            },
            {
              "internalType": "address",
              "name": "outputAddress",
              "type": "address"
            },
            {
              "internalType": "bool",
              "name": "hasRelationship",
              "type": "bool"
            },
            {
              "internalType": "bool",
              "name": "isOnChain",
              "type": "bool"
            },
            {
              "internalType": "enum KeyLogRegistry.KeyEventFlag",
              "name": "flag",
              "type": "uint8"
            }
          ],
          "internalType": "struct KeyLogRegistry.KeyLogEntry",
          "name": "",
          "type": "tuple"
        },
        {
          "internalType": "bool",
          "name": "",
          "type": "bool"
        }
      ],
      "stateMutability": "view",
      "type": "function"
    },
    {
      "inputs": [
        {
          "internalType": "address",
          "name": "publicKeyHash",
          "type": "address"
        }
      ],
      "name": "getLatestEntry",
      "outputs": [
        {
          "components": [
            {
              "internalType": "address",
              "name": "twicePrerotatedKeyHash",
              "type": "address"
            },
            {
              "internalType": "address",
              "name": "prerotatedKeyHash",
              "type": "address"
            },
            {
              "internalType": "address",
              "name": "publicKeyHash",
              "type": "address"
            },
            {
              "internalType": "address",
              "name": "prevPublicKeyHash",
              "type": "address"
            },
            {
              "internalType": "address",
              "name": "outputAddress",
              "type": "address"
            },
            {
              "internalType": "bool",
              "name": "hasRelationship",
              "type": "bool"
            },
            {
              "internalType": "bool",
              "name": "isOnChain",
              "type": "bool"
            },
            {
              "internalType": "enum KeyLogRegistry.KeyEventFlag",
              "name": "flag",
              "type": "uint8"
            }
          ],
          "internalType": "struct KeyLogRegistry.KeyLogEntry",
          "name": "",
          "type": "tuple"
        },
        {
          "internalType": "bool",
          "name": "",
          "type": "bool"
        }
      ],
      "stateMutability": "view",
      "type": "function"
    },
    {
      "inputs": [
        {
          "internalType": "address",
          "name": "prerotatedKeyHash",
          "type": "address"
        }
      ],
      "name": "getLatestEntryByPrerotatedKeyHash",
      "outputs": [
        {
          "components": [
            {
              "internalType": "address",
              "name": "twicePrerotatedKeyHash",
              "type": "address"
            },
            {
              "internalType": "address",
              "name": "prerotatedKeyHash",
              "type": "address"
            },
            {
              "internalType": "address",
              "name": "publicKeyHash",
              "type": "address"
            },
            {
              "internalType": "address",
              "name": "prevPublicKeyHash",
              "type": "address"
            },
            {
              "internalType": "address",
              "name": "outputAddress",
              "type": "address"
            },
            {
              "internalType": "bool",
              "name": "hasRelationship",
              "type": "bool"
            },
            {
              "internalType": "bool",
              "name": "isOnChain",
              "type": "bool"
            },
            {
              "internalType": "enum KeyLogRegistry.KeyEventFlag",
              "name": "flag",
              "type": "uint8"
            }
          ],
          "internalType": "struct KeyLogRegistry.KeyLogEntry",
          "name": "",
          "type": "tuple"
        },
        {
          "internalType": "bool",
          "name": "",
          "type": "bool"
        }
      ],
      "stateMutability": "view",
      "type": "function"
    },
    {
      "inputs": [
        {
          "internalType": "bytes",
          "name": "publicKey",
          "type": "bytes"
        }
      ],
      "name": "getPreviousEntry",
      "outputs": [
        {
          "components": [
            {
              "internalType": "address",
              "name": "twicePrerotatedKeyHash",
              "type": "address"
            },
            {
              "internalType": "address",
              "name": "prerotatedKeyHash",
              "type": "address"
            },
            {
              "internalType": "address",
              "name": "publicKeyHash",
              "type": "address"
            },
            {
              "internalType": "address",
              "name": "prevPublicKeyHash",
              "type": "address"
            },
            {
              "internalType": "address",
              "name": "outputAddress",
              "type": "address"
            },
            {
              "internalType": "bool",
              "name": "hasRelationship",
              "type": "bool"
            },
            {
              "internalType": "bool",
              "name": "isOnChain",
              "type": "bool"
            },
            {
              "internalType": "enum KeyLogRegistry.KeyEventFlag",
              "name": "flag",
              "type": "uint8"
            }
          ],
          "internalType": "struct KeyLogRegistry.KeyLogEntry",
          "name": "",
          "type": "tuple"
        },
        {
          "internalType": "bool",
          "name": "",
          "type": "bool"
        }
      ],
      "stateMutability": "view",
      "type": "function"
    },
    {
      "inputs": [
        {
          "internalType": "uint256",
          "name": "",
          "type": "uint256"
        }
      ],
      "name": "keyLogEntries",
      "outputs": [
        {
          "internalType": "address",
          "name": "twicePrerotatedKeyHash",
          "type": "address"
        },
        {
          "internalType": "address",
          "name": "prerotatedKeyHash",
          "type": "address"
        },
        {
          "internalType": "address",
          "name": "publicKeyHash",
          "type": "address"
        },
        {
          "internalType": "address",
          "name": "prevPublicKeyHash",
          "type": "address"
        },
        {
          "internalType": "address",
          "name": "outputAddress",
          "type": "address"
        },
        {
          "internalType": "bool",
          "name": "hasRelationship",
          "type": "bool"
        },
        {
          "internalType": "bool",
          "name": "isOnChain",
          "type": "bool"
        },
        {
          "internalType": "enum KeyLogRegistry.KeyEventFlag",
          "name": "flag",
          "type": "uint8"
        }
      ],
      "stateMutability": "view",
      "type": "function"
    },
    {
      "inputs": [],
      "name": "owner",
      "outputs": [
        {
          "internalType": "address",
          "name": "",
          "type": "address"
        }
      ],
      "stateMutability": "view",
      "type": "function"
    },
    {
      "inputs": [
        {
          "internalType": "bytes",
          "name": "publicKey",
          "type": "bytes"
        },
        {
          "internalType": "address",
          "name": "publicKeyHash",
          "type": "address"
        },
        {
          "internalType": "address",
          "name": "prerotatedKeyHash",
          "type": "address"
        },
        {
          "internalType": "address",
          "name": "twicePrerotatedKeyHash",
          "type": "address"
        },
        {
          "internalType": "address",
          "name": "prevPublicKeyHash",
          "type": "address"
        },
        {
          "internalType": "address",
          "name": "outputAddress",
          "type": "address"
        },
        {
          "internalType": "bool",
          "name": "hasRelationship",
          "type": "bool"
        }
      ],
      "name": "registerKeyLog",
      "outputs": [],
      "stateMutability": "nonpayable",
      "type": "function"
    },
    {
      "inputs": [
        {
          "internalType": "bytes",
          "name": "publicKey",
          "type": "bytes"
        },
        {
          "internalType": "address",
          "name": "unconfirmedPrerotatedKeyHash",
          "type": "address"
        },
        {
          "internalType": "address",
          "name": "unconfirmedTwicePrerotatedKeyHash",
          "type": "address"
        },
        {
          "internalType": "address",
          "name": "unconfirmedPrevPublicKeyHash",
          "type": "address"
        },
        {
          "internalType": "address",
          "name": "unconfirmedOutputAddress",
          "type": "address"
        },
        {
          "internalType": "bool",
          "name": "unconfirmedHasRelationship",
          "type": "bool"
        },
        {
          "internalType": "address",
          "name": "confirmingPublicKeyHash",
          "type": "address"
        },
        {
          "internalType": "address",
          "name": "confirmingPrerotatedKeyHash",
          "type": "address"
        },
        {
          "internalType": "address",
          "name": "confirmingTwicePrerotatedKeyHash",
          "type": "address"
        },
        {
          "internalType": "address",
          "name": "confirmingPrevPublicKeyHash",
          "type": "address"
        },
        {
          "internalType": "address",
          "name": "confirmingOutputAddress",
          "type": "address"
        },
        {
          "internalType": "bool",
          "name": "confirmingHasRelationship",
          "type": "bool"
        }
      ],
      "name": "registerKeyLogPair",
      "outputs": [],
      "stateMutability": "nonpayable",
      "type": "function"
    },
    {
      "inputs": [],
      "name": "renounceOwnership",
      "outputs": [],
      "stateMutability": "nonpayable",
      "type": "function"
    },
    {
      "inputs": [
        {
          "internalType": "address",
          "name": "_caller",
          "type": "address"
        }
      ],
      "name": "setAuthorizedCaller",
      "outputs": [],
      "stateMutability": "nonpayable",
      "type": "function"
    },
    {
      "inputs": [
        {
          "internalType": "address",
          "name": "newOwner",
          "type": "address"
        }
      ],
      "name": "transferOwnership",
      "outputs": [],
      "stateMutability": "nonpayable",
      "type": "function"
    },
    {
      "inputs": [
        {
          "internalType": "bytes",
          "name": "publicKey",
          "type": "bytes"
        },
        {
          "internalType": "address",
          "name": "publicKeyHash",
          "type": "address"
        },
        {
          "internalType": "address",
          "name": "prerotatedKeyHash",
          "type": "address"
        },
        {
          "internalType": "address",
          "name": "twicePrerotatedKeyHash",
          "type": "address"
        },
        {
          "internalType": "address",
          "name": "prevPublicKeyHash",
          "type": "address"
        },
        {
          "internalType": "address",
          "name": "outputAddress",
          "type": "address"
        },
        {
          "internalType": "bool",
          "name": "hasRelationship",
          "type": "bool"
        },
        {
          "internalType": "bool",
          "name": "isPair",
          "type": "bool"
        },
        {
          "internalType": "address",
          "name": "confirmingPublicKeyHash",
          "type": "address"
        },
        {
          "internalType": "address",
          "name": "confirmingPrerotatedKeyHash",
          "type": "address"
        },
        {
          "internalType": "address",
          "name": "confirmingPrevPublicKeyHash",
          "type": "address"
        },
        {
          "internalType": "address",
          "name": "confirmingOutputAddress",
          "type": "address"
        },
        {
          "internalType": "bool",
          "name": "confirmingHasRelationship",
          "type": "bool"
        }
      ],
      "name": "validateTransaction",
      "outputs": [
        {
          "internalType": "enum KeyLogRegistry.KeyEventFlag",
          "name": "",
          "type": "uint8"
        },
        {
          "internalType": "enum KeyLogRegistry.KeyEventFlag",
          "name": "",
          "type": "uint8"
        }
      ],
      "stateMutability": "view",
      "type": "function"
    }
  ],
  "bytecode": "0x6080806040523461007a5733156100645760008054336001600160a01b03198216811783556040519290916001600160a01b0316907f8be0079c531659141344cd1fd0a4f28419497f9722a3daafe3b4186f6b6457e09080a361239790816100808239f35b631e4fbdf760e01b815260006004820152602490fd5b600080fdfe6080604052600436101561001257600080fd5b60003560e01c806325fb5bd914611525578063276c1ac0146114d95780632a39b65e14610f6f5780632d2eca6a14610f375780632e91b77d146105ea578063386f1d9f146105a05780635ed9739c1461051e57806367c27cd4146104c5578063715018a61461046c5780638da5cb5b14610443578063919525511461042257806392e711041461040157806397dc97cb146103d8578063c47ada2c1461038e578063cf8fbec91461034b578063ec194f4a14610272578063ee93aac214610226578063f2fde38b14610198578063fb51e5bb146101555763fcbe4ef3146100f857600080fd5b346101505760403660031901126101505761011161177e565b6001600160a01b03166000908152600560205260409020805460243591908210156101505760209161014291611828565b90546040519160031b1c8152f35b600080fd5b34610150576020366003190112610150576004356001600160401b0381116101505761018f61018a6020923690600401611675565b611b0c565b51604051908152f35b34610150576020366003190112610150576101b161177e565b6101b9612335565b6001600160a01b0390811690811561020d57600054826bffffffffffffffffffffffff60a01b821617600055167f8be0079c531659141344cd1fd0a4f28419497f9722a3daafe3b4186f6b6457e0600080a3005b604051631e4fbdf760e01b815260006004820152602490fd5b34610150576020366003190112610150576004356001600160401b0381116101505761025961025e913690600401611675565b6122bd565b9061026e6040519283928361180b565b0390f35b34610150576101a0366003190112610150576004356001600160401b038111610150576102a3903690600401611675565b6102ab6116cb565b6102b36116e1565b916102bc6116f7565b6102c461170d565b6102cc611723565b6102d4611794565b60e4358015158103610150576102e8611739565b906102f1611750565b926102fa611767565b61016435969095906001600160a01b03881688036101505761018435988915158a036101505760409c6103499c6103309c6120aa565b61033f84939293518094611615565b6020830190611615565bf35b346101505760203660031901126101505761036461177e565b61036c612335565b600680546001600160a01b0319166001600160a01b0392909216919091179055005b34610150576040366003190112610150576103a761177e565b6001600160a01b03166000908152600460205260409020805460243591908210156101505760209161014291611828565b34610150576000366003190112610150576006546040516001600160a01b039091168152602090f35b346101505760203660031901126101505761025e61041d61177e565b611ef8565b346101505760203660031901126101505761025e61043e61177e565b611e3c565b34610150576000366003190112610150576000546040516001600160a01b039091168152602090f35b3461015057600036600319011261015057610485612335565b600080546001600160a01b0319811682556001600160a01b03167f8be0079c531659141344cd1fd0a4f28419497f9722a3daafe3b4186f6b6457e08280a3005b34610150576040366003190112610150576104de61177e565b6001600160a01b03166000908152600360205260409020805460243591908210156101505760209161050f91611828565b90549060031b1c604051908152f35b3461015057602080600319360112610150576004356001600160401b0381116101505761018a610552913690600401611675565b604051906020820160208352815180915260206040840192019360005b82811061057c5784840385f35b90919282610100826105916001948a516117a3565b0196019101949291909461056f565b34610150576040366003190112610150576105b961177e565b6001600160a01b03166000908152600260205260409020805460243591908210156101505760209161014291611828565b3461015057610180366003190112610150576004356001600160401b0381116101505761061b903690600401611675565b6106236116cb565b61062b6116e1565b906106346116f7565b9061063d61170d565b60a435151560a435036101505760c435916001600160a01b03831683036101505760e435936001600160a01b03851685036101505761067a611739565b610682611750565b9361068b611767565b9761016435918215158303610150576006546001600160a01b031633148015610f23575b15610eed576106bd8b611840565b9a6106c781611a36565b82516020909301929092206001600160a01b0316908215610e7d5760c081015115610e385760408101516001600160a01b0390811690891603610df85760208101516001600160a01b0316829003610dbd57516001600160a01b0390811690891603610d5c575b6001600160a01b038d1603610d1c571580610d0b575b15610c895760a4351580610c74575b15610c3b575b6001600160a01b0389811690831603610bbf57821580610baa575b15610b65576001600160a01b0388811690871603610b02576001600160a01b038b811690881603610a8d576040516107f7916107af82611622565b6001600160a01b03848116835288811660208401528d81166040840152878116606084015216608082015260a435151560a0820152600160c0820181905260e08201526118ae565b60015494856000198101116109f3576108b19460018060a01b038c16600052600260205261082d600019880160406000206119a2565b6001600160a01b038116610a61575b506001600160a01b038116610a35575b506001600160a01b038116610a09575b506040519161086a83611622565b6001600160a01b0390811680845288821660208501528782166040850152868216606085015298166080830152151560a0820152600160c0820152600260e08201526118ae565b6001546000198101969087116109f3577f65b9775e0ec7a02caf84b2523694b517ace341c14dd2b3926a5591d7b5f5a99695602095869460018060a01b038716600052600286526109068a60406000206119a2565b6001600160a01b0381166109d0575b506001600160a01b0381166109ad575b5080610992575b5060405160001990920182527fa9366f75c6c44e3c9ee299d368915abb2fa3108d469f3ab468ef239142dc725b926001600160a01b0390911691839190a26040518581526001600160a01b03831691908490a26040519384526001600160a01b031692a2005b600052600583526109a78760406000206119a2565b8761092c565b60018060a01b0316600052600484526109ca8860406000206119a2565b88610925565b60018060a01b0316600052600385526109ed8960406000206119a2565b89610915565b634e487b7160e01b600052601160045260246000fd5b6001600160a01b03166000908152600560205260409020610a2f906000198601906119a2565b8961085c565b6001600160a01b03166000908152600460205260409020610a5b906000198701906119a2565b8a61084c565b6001600160a01b03166000908152600360205260409020610a87906000198801906119a2565b8b61083c565b60405162461bcd60e51b815260206004820152604160248201527f436f6e6669726d696e6720707265765075626c69634b657948617368206d757360448201527f74206d6174636820756e636f6e6669726d6564207075626c69634b65794861736064820152600d60fb1b608482015260a490fd5b60405162461bcd60e51b815260206004820152603560248201527f53657175656e6365206d69736d617463683a20707265726f74617465644b6579604482015274090c2e6d040427a40e0eac4d8d2c696caf290c2e6d605b1b6064820152608490fd5b60405162461bcd60e51b815260206004820152601d60248201527f496e76616c696420636f6e6669726d696e6720636f6e646974696f6e730000006044820152606490fd5b506001600160a01b038a8116908a1614610774565b60405162461bcd60e51b815260206004820152604860248201527f53657175656e6365206d69736d617463683a207477696365507265726f74617460448201527f65644b65794861736820213d20636f6e6669726d696e67507265726f746174656064820152670c896caf290c2e6d60c31b608482015260a490fd5b60405162461bcd60e51b815260206004820152601160248201527024b73b30b634b21034b731b2b83a34b7b760791b6044820152606490fd5b506001600160a01b0381811690871614610753565b60a4358015610cf5575b6107595760a4351580610ce0575b610759575b60405162461bcd60e51b8152602060048201526012602482015271496e76616c696420636f6e6669726d696e6760701b6044820152606490fd5b506001600160a01b0381811690871614610ca1565b506001600160a01b038181169087161415610c93565b506001600160a01b03851615610744565b60405162461bcd60e51b81526020600482015260186024820152770a0eac4d8d2c640d6caf240d0c2e6d040dad2e6dac2e8c6d60431b6044820152606490fd5b60405162461bcd60e51b815260206004820152603360248201527f507265726f7461746564206b6579206d757374206d617463682070726576696f6044820152721d5cc81d1dda58d9481c1c995c9bdd185d1959606a1b6064820152608490fd5b60405162461bcd60e51b81526020600482015260136024820152720a0eac4d8d2c640d6caf240dad2e6dac2e8c6d606b1b6044820152606490fd5b60405162461bcd60e51b81526020600482015260186024820152770a0e4caec40e0eac4d8d2c640d6caf240dad2e6dac2e8c6d60431b6044820152606490fd5b60405162461bcd60e51b815260206004820152601f60248201527f50726576696f757320656e747279206d757374206265206f6e2d636861696e006044820152606490fd5b506001600160a01b0387161561072e5760405162461bcd60e51b815260206004820152603260248201527f496e63657074696f6e206576656e742063616e6e6f74206861766520612070726044820152710caecbee0eac4d8d2c6bed6caf2bed0c2e6d60731b6064820152608490fd5b60405162461bcd60e51b815260206004820152600e60248201526d139bdd08185d5d1a1bdc9a5e995960921b6044820152606490fd5b506000546001600160a01b031633146106af565b34610150576020366003190112610150576004356001600160401b03811161015057610f6a61025e913690600401611675565b611a36565b346101505760e0366003190112610150576004356001600160401b03811161015057610f9f903690600401611675565b610fa76116cb565b610faf6116e1565b91610fb86116f7565b610fc061170d565b610fc8611723565b94610fd1611794565b91610fdb85611a36565b865160209788012090916001600160a01b039091169082156114695760c0810151156114245760408101516001600160a01b03908116908516036113e457808801516001600160a01b03168290036113a957516001600160a01b0390811690851603611348575b6001600160a01b038816036113085715806112f7575b1561126857821580611253575b1561121a576000935b600385101593846111a457851590811561120b575b906110e692916040519261109684611622565b6001600160a01b039081168085529681168a85018190528b82166040860152958116606085018190529b166080840152151560a0830152151560c08201526110e18660e083016118a2565b6118ae565b6001546000198101979088116109f35760018060a01b038716600052600286526111148860406000206119a2565b806111f0575b50806111d5575b50806111ba575b506040518581526001600160a01b038516907fa9366f75c6c44e3c9ee299d368915abb2fa3108d469f3ab468ef239142dc725b908590a26111a45760010361116c57005b6040519283526001600160a01b03909116917f65b9775e0ec7a02caf84b2523694b517ace341c14dd2b3926a5591d7b5f5a9969190a2005b634e487b7160e01b600052602160045260246000fd5b600052600583526111cf8560406000206119a2565b85611128565b600052600484526111ea8660406000206119a2565b86611121565b600052600385526112058760406000206119a2565b8761111a565b60009550600287149150611083565b60405162461bcd60e51b815260048101869052601160248201527024b73b30b634b21034b731b2b83a34b7b760791b6044820152606490fd5b506001600160a01b0387811690831614611065565b821583816112e1575b1561127f575060019361106e565b806112cc575b156112925760029361106e565b60405162461bcd60e51b8152600481018690526012602482015271496e76616c696420636f6e6669726d696e6760701b6044820152606490fd5b506001600160a01b0387811690831614611285565b506001600160a01b038881169084161415611271565b506001600160a01b03811615611058565b60405162461bcd60e51b81526004810187905260186024820152770a0eac4d8d2c640d6caf240d0c2e6d040dad2e6dac2e8c6d60431b6044820152606490fd5b60405162461bcd60e51b815260048101889052603360248201527f507265726f7461746564206b6579206d757374206d617463682070726576696f6044820152721d5cc81d1dda58d9481c1c995c9bdd185d1959606a1b6064820152608490fd5b60405162461bcd60e51b81526004810189905260136024820152720a0eac4d8d2c640d6caf240dad2e6dac2e8c6d606b1b6044820152606490fd5b60405162461bcd60e51b81526004810189905260186024820152770a0e4caec40e0eac4d8d2c640d6caf240dad2e6dac2e8c6d60431b6044820152606490fd5b60405162461bcd60e51b815260048101899052601f60248201527f50726576696f757320656e747279206d757374206265206f6e2d636861696e006044820152606490fd5b506001600160a01b038316156110425760405162461bcd60e51b815260048101889052603260248201527f496e63657074696f6e206576656e742063616e6e6f74206861766520612070726044820152710caecbee0eac4d8d2c6bed6caf2bed0c2e6d60731b6064820152608490fd5b34610150576020366003190112610150576004356001600160401b0381116101505761151361150e6020923690600401611675565b611840565b6040516001600160a01b039091168152f35b34610150576020366003190112610150576004356001548110156101505761154f610100916115c4565b5061034960018060a01b03918281541692806001830154169181600282015416600483600384015416920154936040519687526020870152604086015260608501528116608084015260ff8160a01c16151560a084015260ff8160a81c16151560c084015260ff60e084019160b01c16611615565b6001548110156115ff576005906001600052027fb10e2d527612073b26eecdfd717e6a320cf44b4afac2b0732d9fcbe2b7fa0cf60190600090565b634e487b7160e01b600052603260045260246000fd5b9060038210156111a45752565b61010081019081106001600160401b0382111761163e57604052565b634e487b7160e01b600052604160045260246000fd5b90601f801991011681019081106001600160401b0382111761163e57604052565b81601f82011215610150578035906001600160401b03821161163e57604051926116a9601f8401601f191660200185611654565b8284526020838301011161015057816000926020809301838601378301015290565b602435906001600160a01b038216820361015057565b604435906001600160a01b038216820361015057565b606435906001600160a01b038216820361015057565b608435906001600160a01b038216820361015057565b60a435906001600160a01b038216820361015057565b61010435906001600160a01b038216820361015057565b61012435906001600160a01b038216820361015057565b61014435906001600160a01b038216820361015057565b600435906001600160a01b038216820361015057565b60c43590811515820361015057565b9060e0806118099360018060a01b03808251168552806020830151166020860152806040830151166040860152806060830151166060860152608082015116608085015260a0810151151560a085015260c0810151151560c08501520151910190611615565b565b90929161010090611821836101208101966117a3565b1515910152565b80548210156115ff5760005260206000200190600090565b604081510361185d5780516020909101206001600160a01b031690565b60405162461bcd60e51b815260206004820152601b60248201527f5075626c6963206b6579206d75737420626520363420627974657300000000006044820152606490fd5b60038210156111a45752565b600154600160401b81101561163e578060016118cd92016001556115c4565b91909161198c57600460018060a01b0392838351166bffffffffffffffffffffffff60a01b90818354161782556001820185602086015116828254161790556002820185604086015116828254161790556003820190856060860151169082541617905501916080820151169082549160ff60a01b60a0830151151560a01b169060e060ff60a81b60c0850151151560a81b1693015160038110156111a4576001600160b81b031990941617171760b09190911b60ff60b01b16179055565b634e487b7160e01b600052600060045260246000fd5b8054600160401b81101561163e576119bf91600182018155611828565b819291549060031b91821b91600019901b1916179055565b604051906119e482611622565b8160e06000918281528260208201528260408201528260608201528260808201528260a08201528260c08201520152565b8051156115ff5760200190565b80518210156115ff5760209160051b010190565b611a4890611a426119d7565b50611b0c565b805115611a6d57805160001981019081116109f357611a6691611a22565b5190600190565b50611a766119d7565b90600090565b6001600160401b03811161163e5760051b60200190565b90611809604051611aa381611622565b60e060ff8295600460018060a01b039182815416865282600182015416602087015282600282015416604087015282600382015416606087015201549081166080850152818160a01c16151560a0850152818160a81c16151560c085015260b01c1691016118a2565b611b1590611840565b604080516001600160401b03939290610ca081018581118282101761163e5783526064815260005b610c808110611e255750600091611b526119d7565b50611b5b6119d7565b505b6001600160a01b0390811680845260026020908152858520865181548082529187528287209093918484019190885b818110611e115750505083611ba2910384611654565b825115611d8d575b50508051600019810191908211611d7957611bcb611bd792611bd192611a22565b516115c4565b50611a93565b90606082015116908115611beb5750611b5d565b919293949550506001611c7c575b50611c0f611c0683611a7c565b93519384611654565b818352601f19611c1e83611a7c565b0160005b818110611c6557505060005b828110611c3b5750505090565b80611c4860019284611a22565b51611c538287611a22565b52611c5e8186611a22565b5001611c2e565b602090611c706119d7565b82828801015201611c22565b809250611c8882611a15565b52611c9281611a15565b50602091820151600192906001600160a01b0390819081165b16600052600282528460002091855191828483829654958681520190600052836000206000955b808710611d5f575050611ce9929394500384611654565b82519283611cfc57505050505b38611bf9565b6000199592939192918681019081116109f357611bcb611bd191611d1f93611a22565b9485611d2b8387611a22565b52611d368286611a22565b5081146109f357826001839201950151168351851015611d57578190611cab565b505050611cf6565b815483526001968701968894509286019290910190611cd2565b634e487b7160e01b85526011600452602485fd5b855260048082528686208751815480825291885283882090945084840191885b818110611dfd5750505083611dc3910384611654565b8251611baa5792509596939492505081519485019285841090841117611dea575052815290565b634e487b7160e01b845260419052602483fd5b825484529285019260019283019201611dad565b825484529285019260019283019201611b8c565b602090611e306119d7565b82828501015201611b3d565b611e446119d7565b5060009060018060a01b0316815260206002602052604082209060405180928391602082549182815201918652602086209386905b828210611ede57505050611e8f92500382611654565b805115611ed0578051600019810192908311611ebc5750611bcb611eb692611bd192611a22565b90600190565b634e487b7160e01b81526011600452602490fd5b5090611eda6119d7565b9190565b855484526001958601958795509381019390910190611e79565b611f006119d7565b5060018060a01b0380911660009080825260209160048352604091828220908351808387829554938481520190865287862092865b8982821061209457505050611f4c92500383611654565b81511561202b575b50805160001981019190821161201757611bcb611f7492611bd192611a22565b938385015116815260028352818120908251809283918682549182815201918452868420935b8782821061200157505050611fb192500382611654565b51611fbe57505090600190565b60649250519062461bcd60e51b82526004820152601c60248201527f4e6f7420746865206c6174657374206b657920726f746174696f6e2e000000006044820152fd5b8554845260019586019587955093019201611f9a565b634e487b7160e01b83526011600452602483fd5b90508152600583528181208251808286829454938481520190855286852092855b8882821061207e5750505061206392500382611654565b8051156120705738611f54565b509392505050611eda6119d7565b855484526001958601958795509301920161204c565b8554845260019586019588955093019201611f35565b9b9591999a979894929693906120bf8d611a36565b8e516020909f019e909e206001600160a01b03169d9190821561224d5760c081015115610e385760408101516001600160a01b0390811690851603610df85760208101516001600160a01b03168f9003610dbd57516001600160a01b03908116908d1603610d5c575b6001600160a01b03169c8d9003610d1c5715908161223b575b50156121e2571590816121cc575b5015610c3b576000905b156121bd57506001600160a01b039081169216829003610bbf571591826121aa575b505015610b65576001600160a01b03908116911603610b02576001600160a01b031603610a8d57600190600290565b6001600160a01b0316149050388061217b565b97505050505050505090600190565b6001600160a01b0389811691161490503861214f565b9081159182612225575b156121fb575050600190612159565b8161220f575b5015610ca657600290612159565b6001600160a01b03898116911614905038612201565b506001600160a01b03818116908a1614156121ec565b6001600160a01b031615905038612141565b506001600160a01b038316156121285760405162461bcd60e51b815260206004820152603260248201527f496e63657074696f6e206576656e742063616e6e6f74206861766520612070726044820152710caecbee0eac4d8d2c6bed6caf2bed0c2e6d60731b6064820152608490fd5b6122c56119d7565b506001600160a01b03906122d890611840565b16600090815260206004602052604082209060405180928391602082549182815201918652602086209386905b82821061231b57505050611e8f92500382611654565b855484526001958601958795509381019390910190612305565b6000546001600160a01b0316330361234957565b60405163118cdaa760e01b8152336004820152602490fdfea26469706673582212208e0f52c5e75f7a01fe88a9f27fd12eeca9b293cb669d260edd3b29fac0bb971264736f6c63430008180033",
  "linkReferences": {},
  "deployedLinkReferences": {}
}