{
  "_format": "hh-sol-artifact-1",
  "contractName": "KeyLogRegistry",
  "sourceName": "contracts/KeyLogRegistry.sol",
  "abi": [
    {
      "inputs": [],
      "stateMutability": "nonpayable",
      "type": "constructor"
    },
    {
      "inputs": [
        {
          "internalType": "address",
          "name": "target",
          "type": "address"
        }
      ],
      "name": "AddressEmptyCode",
      "type": "error"
    },
    {
      "inputs": [
        {
          "internalType": "address",
          "name": "implementation",
          "type": "address"
        }
      ],
      "name": "ERC1967InvalidImplementation",
      "type": "error"
    },
    {
      "inputs": [],
      "name": "ERC1967NonPayable",
      "type": "error"
    },
    {
      "inputs": [],
      "name": "FailedCall",
      "type": "error"
    },
    {
      "inputs": [],
      "name": "InvalidInitialization",
      "type": "error"
    },
    {
      "inputs": [],
      "name": "InvalidOwnershipTransfer",
      "type": "error"
    },
    {
      "inputs": [],
      "name": "NotInitializing",
      "type": "error"
    },
    {
      "inputs": [
        {
          "internalType": "address",
          "name": "owner",
          "type": "address"
        }
      ],
      "name": "OwnableInvalidOwner",
      "type": "error"
    },
    {
      "inputs": [
        {
          "internalType": "address",
          "name": "account",
          "type": "address"
        }
      ],
      "name": "OwnableUnauthorizedAccount",
      "type": "error"
    },
    {
      "inputs": [],
      "name": "UUPSUnauthorizedCallContext",
      "type": "error"
    },
    {
      "inputs": [
        {
          "internalType": "bytes32",
          "name": "slot",
          "type": "bytes32"
        }
      ],
      "name": "UUPSUnsupportedProxiableUUID",
      "type": "error"
    },
    {
      "inputs": [],
      "name": "ZeroAddress",
      "type": "error"
    },
    {
      "anonymous": false,
      "inputs": [
        {
          "indexed": false,
          "internalType": "uint64",
          "name": "version",
          "type": "uint64"
        }
      ],
      "name": "Initialized",
      "type": "event"
    },
    {
      "anonymous": false,
      "inputs": [
        {
          "indexed": true,
          "internalType": "address",
          "name": "publicKeyHash",
          "type": "address"
        },
        {
          "indexed": false,
          "internalType": "uint256",
          "name": "index",
          "type": "uint256"
        }
      ],
      "name": "KeyLogRegistered",
      "type": "event"
    },
    {
      "anonymous": false,
      "inputs": [
        {
          "indexed": true,
          "internalType": "address",
          "name": "publicKeyHash",
          "type": "address"
        },
        {
          "indexed": false,
          "internalType": "uint256",
          "name": "index",
          "type": "uint256"
        }
      ],
      "name": "KeyRotated",
      "type": "event"
    },
    {
      "anonymous": false,
      "inputs": [
        {
          "indexed": true,
          "internalType": "address",
          "name": "previousOwner",
          "type": "address"
        },
        {
          "indexed": true,
          "internalType": "address",
          "name": "newOwner",
          "type": "address"
        }
      ],
      "name": "OwnershipTransferred",
      "type": "event"
    },
    {
      "anonymous": false,
      "inputs": [
        {
          "indexed": true,
          "internalType": "address",
          "name": "implementation",
          "type": "address"
        }
      ],
      "name": "Upgraded",
      "type": "event"
    },
    {
      "inputs": [],
      "name": "UPGRADE_INTERFACE_VERSION",
      "outputs": [
        {
          "internalType": "string",
          "name": "",
          "type": "string"
        }
      ],
      "stateMutability": "view",
      "type": "function"
    },
    {
      "inputs": [],
      "name": "authorizedCaller",
      "outputs": [
        {
          "internalType": "address",
          "name": "",
          "type": "address"
        }
      ],
      "stateMutability": "view",
      "type": "function"
    },
    {
      "inputs": [
        {
          "internalType": "bytes",
          "name": "publicKey",
          "type": "bytes"
        }
      ],
      "name": "buildFromPublicKey",
      "outputs": [
        {
          "components": [
            {
              "internalType": "address",
              "name": "twicePrerotatedKeyHash",
              "type": "address"
            },
            {
              "internalType": "address",
              "name": "prerotatedKeyHash",
              "type": "address"
            },
            {
              "internalType": "address",
              "name": "publicKeyHash",
              "type": "address"
            },
            {
              "internalType": "address",
              "name": "prevPublicKeyHash",
              "type": "address"
            },
            {
              "internalType": "address",
              "name": "outputAddress",
              "type": "address"
            },
            {
              "internalType": "bool",
              "name": "isOnChain",
              "type": "bool"
            },
            {
              "internalType": "enum KeyLogRegistry.KeyEventFlag",
              "name": "flag",
              "type": "uint8"
            }
          ],
          "internalType": "struct KeyLogRegistry.KeyLogEntry[]",
          "name": "",
          "type": "tuple[]"
        }
      ],
      "stateMutability": "view",
      "type": "function"
    },
    {
      "inputs": [
        {
          "internalType": "address",
          "name": "",
          "type": "address"
        }
      ],
      "name": "byPrerotatedKeyHash",
      "outputs": [
        {
          "internalType": "uint256",
          "name": "",
          "type": "uint256"
        }
      ],
      "stateMutability": "view",
      "type": "function"
    },
    {
      "inputs": [
        {
          "internalType": "address",
          "name": "",
          "type": "address"
        }
      ],
      "name": "byPrevPublicKeyHash",
      "outputs": [
        {
          "internalType": "uint256",
          "name": "",
          "type": "uint256"
        }
      ],
      "stateMutability": "view",
      "type": "function"
    },
    {
      "inputs": [
        {
          "internalType": "address",
          "name": "",
          "type": "address"
        }
      ],
      "name": "byPublicKeyHash",
      "outputs": [
        {
          "internalType": "uint256",
          "name": "",
          "type": "uint256"
        }
      ],
      "stateMutability": "view",
      "type": "function"
    },
    {
      "inputs": [
        {
          "internalType": "address",
          "name": "",
          "type": "address"
        }
      ],
      "name": "byTwicePrerotatedKeyHash",
      "outputs": [
        {
          "internalType": "uint256",
          "name": "",
          "type": "uint256"
        }
      ],
      "stateMutability": "view",
      "type": "function"
    },
    {
      "inputs": [
        {
          "internalType": "bytes",
          "name": "publicKey",
          "type": "bytes"
        }
      ],
      "name": "getAddressFromPublicKey",
      "outputs": [
        {
          "internalType": "address",
          "name": "",
          "type": "address"
        }
      ],
      "stateMutability": "pure",
      "type": "function"
    },
    {
      "inputs": [
        {
          "internalType": "bytes",
          "name": "publicKey",
          "type": "bytes"
        }
      ],
      "name": "getCurrentIndex",
      "outputs": [
        {
          "internalType": "uint256",
          "name": "",
          "type": "uint256"
        }
      ],
      "stateMutability": "view",
      "type": "function"
    },
    {
      "inputs": [
        {
          "internalType": "bytes",
          "name": "publicKey",
          "type": "bytes"
        }
      ],
      "name": "getLatestChainEntry",
      "outputs": [
        {
          "components": [
            {
              "internalType": "address",
              "name": "twicePrerotatedKeyHash",
              "type": "address"
            },
            {
              "internalType": "address",
              "name": "prerotatedKeyHash",
              "type": "address"
            },
            {
              "internalType": "address",
              "name": "publicKeyHash",
              "type": "address"
            },
            {
              "internalType": "address",
              "name": "prevPublicKeyHash",
              "type": "address"
            },
            {
              "internalType": "address",
              "name": "outputAddress",
              "type": "address"
            },
            {
              "internalType": "bool",
              "name": "isOnChain",
              "type": "bool"
            },
            {
              "internalType": "enum KeyLogRegistry.KeyEventFlag",
              "name": "flag",
              "type": "uint8"
            }
          ],
          "internalType": "struct KeyLogRegistry.KeyLogEntry",
          "name": "",
          "type": "tuple"
        },
        {
          "internalType": "bool",
          "name": "",
          "type": "bool"
        }
      ],
      "stateMutability": "view",
      "type": "function"
    },
    {
      "inputs": [
        {
          "internalType": "address",
          "name": "publicKeyHash",
          "type": "address"
        }
      ],
      "name": "getLatestChainEntry",
      "outputs": [
        {
          "components": [
            {
              "internalType": "address",
              "name": "twicePrerotatedKeyHash",
              "type": "address"
            },
            {
              "internalType": "address",
              "name": "prerotatedKeyHash",
              "type": "address"
            },
            {
              "internalType": "address",
              "name": "publicKeyHash",
              "type": "address"
            },
            {
              "internalType": "address",
              "name": "prevPublicKeyHash",
              "type": "address"
            },
            {
              "internalType": "address",
              "name": "outputAddress",
              "type": "address"
            },
            {
              "internalType": "bool",
              "name": "isOnChain",
              "type": "bool"
            },
            {
              "internalType": "enum KeyLogRegistry.KeyEventFlag",
              "name": "flag",
              "type": "uint8"
            }
          ],
          "internalType": "struct KeyLogRegistry.KeyLogEntry",
          "name": "",
          "type": "tuple"
        },
        {
          "internalType": "bool",
          "name": "",
          "type": "bool"
        }
      ],
      "stateMutability": "view",
      "type": "function"
    },
    {
      "inputs": [
        {
          "internalType": "address",
          "name": "publicKeyHash",
          "type": "address"
        }
      ],
      "name": "getLatestEntry",
      "outputs": [
        {
          "components": [
            {
              "internalType": "address",
              "name": "twicePrerotatedKeyHash",
              "type": "address"
            },
            {
              "internalType": "address",
              "name": "prerotatedKeyHash",
              "type": "address"
            },
            {
              "internalType": "address",
              "name": "publicKeyHash",
              "type": "address"
            },
            {
              "internalType": "address",
              "name": "prevPublicKeyHash",
              "type": "address"
            },
            {
              "internalType": "address",
              "name": "outputAddress",
              "type": "address"
            },
            {
              "internalType": "bool",
              "name": "isOnChain",
              "type": "bool"
            },
            {
              "internalType": "enum KeyLogRegistry.KeyEventFlag",
              "name": "flag",
              "type": "uint8"
            }
          ],
          "internalType": "struct KeyLogRegistry.KeyLogEntry",
          "name": "",
          "type": "tuple"
        },
        {
          "internalType": "bool",
          "name": "",
          "type": "bool"
        }
      ],
      "stateMutability": "view",
      "type": "function"
    },
    {
      "inputs": [
        {
          "internalType": "address",
          "name": "prerotatedKeyHash",
          "type": "address"
        }
      ],
      "name": "getLatestEntryByPrerotatedKeyHash",
      "outputs": [
        {
          "components": [
            {
              "internalType": "address",
              "name": "twicePrerotatedKeyHash",
              "type": "address"
            },
            {
              "internalType": "address",
              "name": "prerotatedKeyHash",
              "type": "address"
            },
            {
              "internalType": "address",
              "name": "publicKeyHash",
              "type": "address"
            },
            {
              "internalType": "address",
              "name": "prevPublicKeyHash",
              "type": "address"
            },
            {
              "internalType": "address",
              "name": "outputAddress",
              "type": "address"
            },
            {
              "internalType": "bool",
              "name": "isOnChain",
              "type": "bool"
            },
            {
              "internalType": "enum KeyLogRegistry.KeyEventFlag",
              "name": "flag",
              "type": "uint8"
            }
          ],
          "internalType": "struct KeyLogRegistry.KeyLogEntry",
          "name": "",
          "type": "tuple"
        },
        {
          "internalType": "bool",
          "name": "",
          "type": "bool"
        }
      ],
      "stateMutability": "view",
      "type": "function"
    },
    {
      "inputs": [
        {
          "internalType": "bytes",
          "name": "publicKey",
          "type": "bytes"
        }
      ],
      "name": "getPreviousEntry",
      "outputs": [
        {
          "components": [
            {
              "internalType": "address",
              "name": "twicePrerotatedKeyHash",
              "type": "address"
            },
            {
              "internalType": "address",
              "name": "prerotatedKeyHash",
              "type": "address"
            },
            {
              "internalType": "address",
              "name": "publicKeyHash",
              "type": "address"
            },
            {
              "internalType": "address",
              "name": "prevPublicKeyHash",
              "type": "address"
            },
            {
              "internalType": "address",
              "name": "outputAddress",
              "type": "address"
            },
            {
              "internalType": "bool",
              "name": "isOnChain",
              "type": "bool"
            },
            {
              "internalType": "enum KeyLogRegistry.KeyEventFlag",
              "name": "flag",
              "type": "uint8"
            }
          ],
          "internalType": "struct KeyLogRegistry.KeyLogEntry",
          "name": "",
          "type": "tuple"
        },
        {
          "internalType": "bool",
          "name": "",
          "type": "bool"
        }
      ],
      "stateMutability": "view",
      "type": "function"
    },
    {
      "inputs": [
        {
          "internalType": "address",
          "name": "initialOwner",
          "type": "address"
        }
      ],
      "name": "initialize",
      "outputs": [],
      "stateMutability": "nonpayable",
      "type": "function"
    },
    {
      "inputs": [
        {
          "internalType": "address",
          "name": "currentOwner",
          "type": "address"
        },
        {
          "internalType": "address",
          "name": "newOwner",
          "type": "address"
        }
      ],
      "name": "isValidOwnershipTransfer",
      "outputs": [
        {
          "internalType": "bool",
          "name": "",
          "type": "bool"
        }
      ],
      "stateMutability": "view",
      "type": "function"
    },
    {
      "inputs": [
        {
          "internalType": "uint256",
          "name": "",
          "type": "uint256"
        }
      ],
      "name": "keyLogEntries",
      "outputs": [
        {
          "internalType": "address",
          "name": "twicePrerotatedKeyHash",
          "type": "address"
        },
        {
          "internalType": "address",
          "name": "prerotatedKeyHash",
          "type": "address"
        },
        {
          "internalType": "address",
          "name": "publicKeyHash",
          "type": "address"
        },
        {
          "internalType": "address",
          "name": "prevPublicKeyHash",
          "type": "address"
        },
        {
          "internalType": "address",
          "name": "outputAddress",
          "type": "address"
        },
        {
          "internalType": "bool",
          "name": "isOnChain",
          "type": "bool"
        },
        {
          "internalType": "enum KeyLogRegistry.KeyEventFlag",
          "name": "flag",
          "type": "uint8"
        }
      ],
      "stateMutability": "view",
      "type": "function"
    },
    {
      "inputs": [],
      "name": "owner",
      "outputs": [
        {
          "internalType": "address",
          "name": "",
          "type": "address"
        }
      ],
      "stateMutability": "view",
      "type": "function"
    },
    {
      "inputs": [],
      "name": "proxiableUUID",
      "outputs": [
        {
          "internalType": "bytes32",
          "name": "",
          "type": "bytes32"
        }
      ],
      "stateMutability": "view",
      "type": "function"
    },
    {
      "inputs": [
        {
          "internalType": "bytes",
          "name": "publicKey",
          "type": "bytes"
        },
        {
          "internalType": "address",
          "name": "prerotatedKeyHash",
          "type": "address"
        },
        {
          "internalType": "address",
          "name": "twicePrerotatedKeyHash",
          "type": "address"
        },
        {
          "internalType": "address",
          "name": "prevPublicKeyHash",
          "type": "address"
        },
        {
          "internalType": "address",
          "name": "outputAddress",
          "type": "address"
        }
      ],
      "name": "registerKeyLog",
      "outputs": [],
      "stateMutability": "nonpayable",
      "type": "function"
    },
    {
      "inputs": [
        {
          "internalType": "bytes",
          "name": "unconfirmedPublicKey",
          "type": "bytes"
        },
        {
          "internalType": "address",
          "name": "unconfirmedPrerotatedKeyHash",
          "type": "address"
        },
        {
          "internalType": "address",
          "name": "unconfirmedTwicePrerotatedKeyHash",
          "type": "address"
        },
        {
          "internalType": "address",
          "name": "unconfirmedPrevPublicKeyHash",
          "type": "address"
        },
        {
          "internalType": "address",
          "name": "unconfirmedOutputAddress",
          "type": "address"
        },
        {
          "internalType": "bytes",
          "name": "confirmingPublicKey",
          "type": "bytes"
        },
        {
          "internalType": "address",
          "name": "confirmingPrerotatedKeyHash",
          "type": "address"
        },
        {
          "internalType": "address",
          "name": "confirmingTwicePrerotatedKeyHash",
          "type": "address"
        },
        {
          "internalType": "address",
          "name": "confirmingPrevPublicKeyHash",
          "type": "address"
        },
        {
          "internalType": "address",
          "name": "confirmingOutputAddress",
          "type": "address"
        }
      ],
      "name": "registerKeyLogPair",
      "outputs": [],
      "stateMutability": "nonpayable",
      "type": "function"
    },
    {
      "inputs": [],
      "name": "renounceOwnership",
      "outputs": [],
      "stateMutability": "nonpayable",
      "type": "function"
    },
    {
      "inputs": [
        {
          "internalType": "address",
          "name": "_caller",
          "type": "address"
        }
      ],
      "name": "setAuthorizedCaller",
      "outputs": [],
      "stateMutability": "nonpayable",
      "type": "function"
    },
    {
      "inputs": [
        {
          "internalType": "address",
          "name": "newOwner",
          "type": "address"
        }
      ],
      "name": "transferOwnership",
      "outputs": [],
      "stateMutability": "nonpayable",
      "type": "function"
    },
    {
      "inputs": [
        {
          "internalType": "address",
          "name": "newImplementation",
          "type": "address"
        },
        {
          "internalType": "bytes",
          "name": "data",
          "type": "bytes"
        }
      ],
      "name": "upgradeToAndCall",
      "outputs": [],
      "stateMutability": "payable",
      "type": "function"
    },
    {
      "inputs": [
        {
          "internalType": "bytes",
          "name": "publicKey",
          "type": "bytes"
        },
        {
          "internalType": "address",
          "name": "publicKeyHash",
          "type": "address"
        },
        {
          "internalType": "address",
          "name": "prerotatedKeyHash",
          "type": "address"
        },
        {
          "internalType": "address",
          "name": "twicePrerotatedKeyHash",
          "type": "address"
        },
        {
          "internalType": "address",
          "name": "prevPublicKeyHash",
          "type": "address"
        },
        {
          "internalType": "address",
          "name": "outputAddress",
          "type": "address"
        },
        {
          "internalType": "bytes",
          "name": "confirmingPublicKey",
          "type": "bytes"
        },
        {
          "internalType": "address",
          "name": "confirmingPublicKeyHash",
          "type": "address"
        },
        {
          "internalType": "address",
          "name": "confirmingPrerotatedKeyHash",
          "type": "address"
        },
        {
          "internalType": "address",
          "name": "confirmingTwicePrerotatedKeyHash",
          "type": "address"
        },
        {
          "internalType": "address",
          "name": "confirmingPrevPublicKeyHash",
          "type": "address"
        },
        {
          "internalType": "address",
          "name": "confirmingOutputAddress",
          "type": "address"
        },
        {
          "internalType": "bool",
          "name": "isPair",
          "type": "bool"
        }
      ],
      "name": "validateTransaction",
      "outputs": [
        {
          "internalType": "enum KeyLogRegistry.KeyEventFlag",
          "name": "",
          "type": "uint8"
        },
        {
          "internalType": "enum KeyLogRegistry.KeyEventFlag",
          "name": "",
          "type": "uint8"
        }
      ],
      "stateMutability": "view",
      "type": "function"
    }
  ],
  "bytecode": "0x60a080604052346100cc57306080527ff0c57e16840df040f15088dc2f81fe391c3923bec73e23a9662efc9c229c6a009081549060ff8260401c166100bd57506001600160401b036002600160401b031982821601610078575b60405161232f90816100d2823960805181818161125a01526113020152f35b6001600160401b031990911681179091556040519081527fc7f505b2f371ae2175ee4913f4499e1f2633a7b5936321eed1cdaeb6115181d290602090a1388080610059565b63f92ee8a960e01b8152600490fd5b600080fdfe6080604052600436101561001257600080fd5b60e060003560e01c90816318fdb6f81461166457816325fb5bd9146115d4578163276c1ac01461158d5781632bf2fac9146115535781632d2eca6a1461151b578163401795b2146114e15781634f1ef286146112c457816352d1902d146112475781635ed9739c146111b957508063614c527614610ded578063715018a614610d8357806385687dcd1461064c5780638da5cb5b1461061657806391952551146105f557806392e71104146105d457806397dc97cb146105ab5780639fa17f9114610571578063a375e47214610537578063a54f311c14610446578063a5e49bda14610425578063ad3cb1cc1461037b578063c4d66de814610248578063cf8fbec914610205578063ee93aac2146101b9578063f2fde38b1461018e5763fb51e5bb1461013e57600080fd5b34610189576020366003190112610189576004356001600160401b0381116101895761018061017b6101766020933690600401611850565b611979565b611f65565b51604051908152f35b600080fd5b34610189576020366003190112610189576101b76101aa61169a565b6101b26121a6565b611f1d565b005b34610189576020366003190112610189576004356001600160401b038111610189576101ec6101f1913690600401611850565b611ed5565b90610201604051928392836118ca565b0390f35b346101895760203660031901126101895761021e61169a565b6102266121a6565b600580546001600160a01b0319166001600160a01b0392909216919091179055005b346101895760203660031901126101895761026161169a565b7ff0c57e16840df040f15088dc2f81fe391c3923bec73e23a9662efc9c229c6a0090815460ff8160401c1615916001600160401b03821680159081610373575b6001149081610369575b159081610360575b5061034e5767ffffffffffffffff19821660011784556102e4918361032f575b506102dc612235565b6101b2612235565b6102ec612235565b6102f257005b68ff00000000000000001981541690557fc7f505b2f371ae2175ee4913f4499e1f2633a7b5936321eed1cdaeb6115181d2602060405160018152a1005b68ffffffffffffffffff191668010000000000000001178455846102d3565b60405163f92ee8a960e01b8152600490fd5b905015856102b3565b303b1591506102ab565b8491506102a1565b3461018957600036600319011261018957604051604081018181106001600160401b0382111761040f5760405260058152602090640352e302e360dc1b60208201526040518092602082528251908160208401526000935b8285106103f6575050604092506000838284010152601f80199101168101030190f35b84810182015186860160400152938101938593506103d3565b634e487b7160e01b600052604160045260246000fd5b34610189576020366003190112610189576101f161044161169a565b611ec3565b34610189576101a0366003190112610189576001600160401b0360043581811161018957610478903690600401611850565b6104806116b0565b906104896116c6565b926104926116dc565b9061049b6116f2565b6001600160a01b039160a4359083821682036101895760c435908111610189576104c9903690600401611850565b6104d1611708565b6104d961171e565b916104e2611735565b9361014435958787168703610189576101643597881688036101895761018435988915158a036101895760409c6105359c61051c9c611cb6565b61052b8493929351809461179a565b602083019061179a565bf35b34610189576020366003190112610189576001600160a01b0361055861169a565b1660005260016020526020604060002054604051908152f35b34610189576020366003190112610189576001600160a01b0361059261169a565b1660005260046020526020604060002054604051908152f35b34610189576000366003190112610189576005546040516001600160a01b039091168152602090f35b34610189576020366003190112610189576101f16105f061169a565b611c1f565b34610189576020366003190112610189576101f161061161169a565b611bd4565b34610189576000366003190112610189576000805160206122da833981519152546040516001600160a01b039091168152602090f35b3461018957610140366003190112610189576001600160401b036004358181116101895761067e9036906004016118e6565b906106876116b0565b906106906116c6565b6106986116dc565b906106a16116f2565b9560a435908111610189576106ba9036906004016118e6565b9260c4356001600160a01b0381169003610189576106d6611708565b976106df61171e565b946106e8611735565b9360018060a01b036005541633148015610d62575b156101895761073a61074c9161073261071b6101768c8f3691611819565b9a61072a610176368886611819565b9d3691611819565b933691611819565b9161074481611a05565b929091611979565b908215610d4d5760a0810151156101895760408101516001600160a01b03908116908716036101895760208101516001600160a01b039081169083160361018957516001600160a01b03908116908b1603610189575b6001600160a01b03898116911603610189576001600160a01b038416600090815260026020526040902054610189576001600160a01b038816600090815260016020526040902054610189576001600160a01b038916600090815260036020526040902054610189576001600160a01b038616600090815260046020526040902054610189571580610d3c575b15610d33576001600160a01b03888116908316036101895761085090611979565b6001600160a01b03898116911603610189576001600160a01b0360c435811690851603610189576001600160a01b0360c435811690841603610189576001600160a01b0388811690881603610189576001600160a01b0386811690861603610189576001600160a01b038516600090815260026020526040902054610189576001600160a01b0388166000908152600160205260409020546101895760c4356001600160a01b0316600090815260036020526040902054610189576001600160a01b0389166000908152600460205260409020546101895760405161097691610938826117a7565b6001600160a01b038681168352898116602084015288811660408401528481166060840152166080820152600160a0820181905260c0820152611a5a565b6000549586600019810111610c68576001600160a01b03868116600090815260016020526040812089905592908116610d11575b50816001600160a01b038216610cec575b50506001600160a01b038316610cc7575b50610a1f9150604051906109df826117a7565b6001600160a01b03888116835260c4358116602084015287811660408401528481166060840152166080820152600160a0820152600260c0820152611a5a565b600054600019810195818711610c68576001600160a01b03868116600090815260016020526040812084905593908116610ca5575b5060c4356001600160a01b03161592808415610c7e575b506001600160a01b038216610c44575b50506000805160206122da833981519152546001600160a01b0390811692915083168214610b31575b6040516000198501815286907f65b9775e0ec7a02caf84b2523694b517ace341c14dd2b3926a5591d7b5f5a9969060209088907fa9366f75c6c44e3c9ee299d368915abb2fa3108d469f3ab468ef239142dc725b906001600160a01b0389169082908590a26040518581526001600160a01b03831691908490a26040519384526001600160a01b031692a2005b6005549294926001600160a01b031633148015610c3b575b1561018957610c295760405163031fb6df60e31b8152600481019190915260c4356001600160a01b03166024820152602081604481305afa908115610c1d57600091610be2575b5015610bd057602080927f65b9775e0ec7a02caf84b2523694b517ace341c14dd2b3926a5591d7b5f5a99694610bc760c4356121df565b92945092610aa4565b60405163b012a29560e01b8152600490fd5b90506020813d602011610c15575b81610bfd602093836117dd565b81010312610189575180151581036101895785610b90565b3d9150610bf0565b6040513d6000823e3d90fd5b60405163d92e233d60e01b8152600490fd5b50813314610b49565b610c68576001600160a01b0316600090815260046020526040902055858080610a7b565b634e487b7160e01b600052601160045260246000fd5b610c685760c4356001600160a01b0316600090815260036020526040902083905580610a6b565b6001600160a01b03166000908152600260205260408120839055925087610a54565b610c6857610a1f9160018060a01b0316600052600460205284604060002055876109cc565b610c68576001600160a01b0316600090815260036020526040902086905588816109bb565b6001600160a01b031660009081526002602052604081208890559150896109aa565b61085090611979565b506001600160a01b0383161561082f565b506001600160a01b038516156107a257600080fd5b506000805160206122da833981519152546001600160a01b031633146106fd565b3461018957600036600319011261018957610d9c6121a6565b6000805160206122da83398151915280546001600160a01b031981169091556000906001600160a01b03167f8be0079c531659141344cd1fd0a4f28419497f9722a3daafe3b4186f6b6457e08280a3005b346101895760a0366003190112610189576004356001600160401b03811161018957610e1d903690600401611850565b610e256116b0565b90610e2e6116c6565b90610e376116dc565b91610e406116f2565b6005546001600160a01b03939084163314801561119f575b1561018957610e8b94610e6a82611979565b916000604051610e79816117c2565b52610e8381611a05565b979091611979565b90871561118f5760a0810151156101895786604082015116878416036101895786602082015116878316036101895751861688871603610189578580935b16958691160361018957811691826000526020956002875260406000205461018957856000526001875260406000205461018957828816948560005260038852604060002054610189578316908160005260048852604060002054610189571580611187575b1561116c57848383160361018957826000925b1680860361018957600383101590816110fd578315801561115e575b90610fa29160405191610f70836117a7565b858352898c8401528a60408401528860608401526080830152151560a0820152610f9d8560c08301611a4e565b611a5a565b600054600019810192818411610c68576000968960005260018b528260406000205580611145575b5087159680881561112c575b5081611113575b505050867fa9366f75c6c44e3c9ee299d368915abb2fa3108d469f3ab468ef239142dc725b89604051858152a26110fd578660018793036110cc575b505050806000805160206122da833981519152541693841461103757005b60055416331480156110c3575b1561018957610c29576040519163031fb6df60e31b8352600483015260248201528181604481305afa918215610c1d5760009261108c575b505015610bd0576101b7906121df565b90809250813d83116110bc575b6110a381836117dd565b810103126101895751801515810361018957828061107c565b503d611099565b50823314611044565b7f65b9775e0ec7a02caf84b2523694b517ace341c14dd2b3926a5591d7b5f5a99691604051908152a2838786611019565b634e487b7160e01b600052602160045260246000fd5b610c685760005260048952604060002055898080610fdd565b610c68578860005260038b528260406000205580610fd6565b965060009660005260028a52816040600020558b610fca565b506000915060028414610f5e565b818316851461117e5782600192610f42565b82600292610f42565b508315610f2f565b5085821661018957858093610ec9565b50836000805160206122da83398151915254163314610e58565b34610189576020906020600319360112610189576004356001600160401b038111610189576111f361017b61017685933690600401611850565b60405192839260208401906020855283518092526020604086019401926000905b8382106112215786860387f35b918496508286611237600194969884985161186e565b0196019201869594929391611214565b34610189576000366003190112610189577f00000000000000000000000000000000000000000000000000000000000000006001600160a01b031630036112b25760206040517f360894a13ba1a3210667c828492db98dca3e2076cc3735a920a3ca505d382bbc8152f35b60405163703e46dd60e11b8152600490fd5b6040366003190112610189576112d861169a565b6024356001600160401b038111610189576112f7903690600401611850565b906001600160a01b037f000000000000000000000000000000000000000000000000000000000000000081163081149081156114b3575b506112b25761133b6121a6565b6040516352d1902d60e01b8152908216916020918281600481875afa60009181611484575b5061137e57604051634c9c8ce360e01b815260048101859052602490fd5b9284937f360894a13ba1a3210667c828492db98dca3e2076cc3735a920a3ca505d382bbc9081810361146c5750823b156114535780546001600160a01b03191682179055604051907fbc7cd75a20ee27fd9adebab32041f755214dbc6bffa90cc0225b39da2e5c2d3b600080a2835115611439575060008084846101b796519101845af4903d15611430573d611413816117fe565b9061142160405192836117dd565b8152600081943d92013e612276565b60609250612276565b925050503461144457005b63b398979f60e01b8152600490fd5b604051634c9c8ce360e01b815260048101839052602490fd5b60249060405190632a87526960e21b82526004820152fd5b9091508381813d83116114ac575b61149c81836117dd565b8101031261018957519086611360565b503d611492565b9050817f360894a13ba1a3210667c828492db98dca3e2076cc3735a920a3ca505d382bbc541614158461132e565b34610189576020366003190112610189576001600160a01b0361150261169a565b1660005260026020526020604060002054604051908152f35b34610189576020366003190112610189576004356001600160401b0381116101895761154e6101f1913690600401611850565b611a05565b34610189576020366003190112610189576001600160a01b0361157461169a565b1660005260036020526020604060002054604051908152f35b34610189576020366003190112610189576004356001600160401b038111610189576115c26101766020923690600401611850565b6040516001600160a01b039091168152f35b3461018957602036600319011261018957600435600054811015610189576115fd60e09161174c565b5061053560018060a01b03918281541692806001830154169181600282015416600483600384015416920154936040519687526020870152604086015260608501528116608084015260ff8160a01c16151560a084015260ff60c084019160a81c1661179a565b3461018957604036600319011261018957602061169061168261169a565b61168a6116b0565b90611913565b6040519015158152f35b600435906001600160a01b038216820361018957565b602435906001600160a01b038216820361018957565b604435906001600160a01b038216820361018957565b606435906001600160a01b038216820361018957565b608435906001600160a01b038216820361018957565b60e435906001600160a01b038216820361018957565b61010435906001600160a01b038216820361018957565b61012435906001600160a01b038216820361018957565b90600091825481101561178657600590838052027f290decd9548b62a8d60345a988386fc84ba6bc95484008f6362f93160ef3e563019190565b634e487b7160e01b83526032600452602483fd5b9060038210156110fd5752565b60e081019081106001600160401b0382111761040f57604052565b602081019081106001600160401b0382111761040f57604052565b90601f801991011681019081106001600160401b0382111761040f57604052565b6001600160401b03811161040f57601f01601f191660200190565b929192611825826117fe565b9161183360405193846117dd565b829481845281830111610189578281602093846000960137010152565b9080601f830112156101895781602061186b93359101611819565b90565b9060c0806118c89360018060a01b03808251168552806020830151166020860152806040830151166040860152806060830151166060860152608082015116608085015260a0810151151560a0850152015191019061179a565b565b90929160e0906118df8361010081019661186e565b1515910152565b9181601f84011215610189578235916001600160401b038311610189576020838186019501011161018957565b6001600160a01b03919082811615801561196f575b6119675761193590611ec3565b9290921561196757806020840151169116149081611951575090565b60c09150015160038110156110fd576001141590565b505050600090565b5082821615611928565b80516040810361018957602091909101206001600160a01b031690565b604051906119a3826117a7565b8160c06000918281528260208201528260408201528260608201528260808201528260a08201520152565b8051156119db5760200190565b634e487b7160e01b600052603260045260246000fd5b80518210156119db5760209160051b010190565b61017b611a1a91611a14611996565b50611979565b805115611a3f5780516000198101908111610c6857611a38916119f1565b5190600190565b50611a48611996565b90600090565b60038210156110fd5752565b6000805468010000000000000000811015611b5457806001611a7e9201835561174c565b929092611b4057600460018060a01b0393848351166bffffffffffffffffffffffff60a01b908183541617825560018201866020860151168282541617905560028201866040860151168282541617905560038201908660608601511690825416179055019260808201511683549260c060ff60a01b60a0850151151560a01b16930151906003821015611b2c57506001600160b01b0319909316171760a89190911b60ff60a81b16179055565b634e487b7160e01b81526021600452602490fd5b634e487b7160e01b82526004829052602482fd5b634e487b7160e01b82526041600452602482fd5b906118c8604051611b78816117a7565b60c060ff8295600460018060a01b039182815416865282600182015416602087015282600282015416604087015282600382015416606087015201549081166080850152818160a01c16151560a085015260a81c169101611a4e565b611bdc611996565b506001600160a01b03166000908152600160205260409020548015611a3f576000198101908111610c6857611c13611c199161174c565b50611b68565b90600190565b611c27611996565b506001600160a01b039081166000908152600360205260408120548015611c96575b6000198101908111611c8257611c13611c619161174c565b91602083015116815260016020526040812054611c7f575090600190565b80fd5b634e487b7160e01b82526011600452602482fd5b506004602052604081205480611c495750919050611cb2611996565b9190565b979294611cd89a959b949997929b969196611cd08a611a05565b9c909a611979565b998c15611eae5760a0810151156101895760408101516001600160a01b039081168d8216036101895780602083015116818d160361018957808f925116911603610189575b6001600160a01b0399978a16978a16889003610189578960029b169b8c9160009e8f9e8f5260209d8e5260409e8f902054611eaa578f8f908f6001908e8352522054611eaa57908f8f908f9a999897969594938f600391169b8c8352522054611eaa57908f8f908f9c9b9a999897969594938f600491169d8e8352522054611eaa57159081611ea1575b5015611e8857858b821603611e84578d9e5b15611e5f5750899a9b9c9d5098611dd28198999a611979565b91169687911603611e5b578816809603611e57578786911603611e53578303611e4f578516908103611e4b5787526002855285872054611e475786526001845284862054611e435785526003835283852054611e3f5716835260049052812054611c7f5750600190600290565b8480fd5b8580fd5b8680fd5b8780fd5b8880fd5b8980fd5b8a80fd5b8b80fd5b9750505050965094965050508491501603611e805716611c7f575090600190565b8280fd5b8d80fd5b808b168614611e995760019e611db9565b60029e611db9565b90501538611da7565b8f80fd5b506001600160a01b038b1615611d1d57600080fd5b611a1a90611ecf611996565b50611f65565b611edd611996565b506001600160a01b0390611ef090611979565b1660005260036020526040600020548015611a3f576000198101908111610c6857611c13611c199161174c565b6001600160a01b03811615611f35576118c8906121df565b604051631e4fbdf760e01b815260006004820152602490fd5b6001600160401b03811161040f5760051b60200190565b906040805192610ca084018481106001600160401b0382111761040f5782526064845260005b610c80811061218f5750600090611fa0611996565b50611fa9611996565b505b6001600160a01b0390811682526001602081815284842054908115612180575b8115612171575b50801561215b57600019810190811161214757611c13611ff19161174c565b91606083015116918215612006575050611fab565b909150949192939490612097575b5061202a61202183611f4e565b935193846117dd565b818352601f1961203983611f4e565b0160005b81811061208057505060005b8281106120565750505090565b80612063600192846119f1565b5161206e82876119f1565b5261207981866119f1565b5001612049565b60209061208b611996565b8282880101520161203d565b8092506120a3826119ce565b526120ad816119ce565b506020918201516001929083906001600160a01b03908116825b6120d4575b505050612014565b811660005281835285600020549283156000036120cc579091929460001995868101908111610c6857611c136121099161174c565b958661211583886119f1565b5261212082876119f1565b508114610c6857818484920196015116845186101561214257839291936120c7565b6120cc565b634e487b7160e01b84526011600452602484fd5b505050919250519061216c826117c2565b815290565b60049150528383205438611fd2565b60038152858520549150611fcb565b60209061219a611996565b82828801015201611f8b565b6000805160206122da833981519152546001600160a01b031633036121c757565b60405163118cdaa760e01b8152336004820152602490fd5b6000805160206122da83398151915280546001600160a01b039283166001600160a01b0319821681179092559091167f8be0079c531659141344cd1fd0a4f28419497f9722a3daafe3b4186f6b6457e0600080a3565b60ff7ff0c57e16840df040f15088dc2f81fe391c3923bec73e23a9662efc9c229c6a005460401c161561226457565b604051631afcd79f60e31b8152600490fd5b9061229d575080511561228b57805190602001fd5b60405163d6bda27560e01b8152600490fd5b815115806122d0575b6122ae575090565b604051639996b31560e01b81526001600160a01b039091166004820152602490fd5b50803b156122a656fe9016d09d72d40fdae2fd8ceac6b6234c7706214fd39c1cd1e609a0528c199300a2646970667358221220d4a60fb36f89e3f7a2302e532346ecdad6853fb6b85df339d59f855bf2ffad0d64736f6c63430008180033",
  "linkReferences": {},
  "deployedLinkReferences": {}
}