{
  "_format": "hh-sol-artifact-1",
  "contractName": "KeyLogRegistryUpgrade",
  "sourceName": "contracts/KeyLogRegistryUpgrade.sol",
  "abi": [
    {
      "inputs": [],
      "stateMutability": "nonpayable",
      "type": "constructor"
    },
    {
      "inputs": [
        {
          "internalType": "address",
          "name": "target",
          "type": "address"
        }
      ],
      "name": "AddressEmptyCode",
      "type": "error"
    },
    {
      "inputs": [
        {
          "internalType": "address",
          "name": "implementation",
          "type": "address"
        }
      ],
      "name": "ERC1967InvalidImplementation",
      "type": "error"
    },
    {
      "inputs": [],
      "name": "ERC1967NonPayable",
      "type": "error"
    },
    {
      "inputs": [],
      "name": "FailedCall",
      "type": "error"
    },
    {
      "inputs": [],
      "name": "InvalidInitialization",
      "type": "error"
    },
    {
      "inputs": [],
      "name": "InvalidOwnershipTransfer",
      "type": "error"
    },
    {
      "inputs": [],
      "name": "NotInitializing",
      "type": "error"
    },
    {
      "inputs": [
        {
          "internalType": "address",
          "name": "owner",
          "type": "address"
        }
      ],
      "name": "OwnableInvalidOwner",
      "type": "error"
    },
    {
      "inputs": [
        {
          "internalType": "address",
          "name": "account",
          "type": "address"
        }
      ],
      "name": "OwnableUnauthorizedAccount",
      "type": "error"
    },
    {
      "inputs": [],
      "name": "UUPSUnauthorizedCallContext",
      "type": "error"
    },
    {
      "inputs": [
        {
          "internalType": "bytes32",
          "name": "slot",
          "type": "bytes32"
        }
      ],
      "name": "UUPSUnsupportedProxiableUUID",
      "type": "error"
    },
    {
      "inputs": [],
      "name": "ZeroAddress",
      "type": "error"
    },
    {
      "anonymous": false,
      "inputs": [
        {
          "indexed": false,
          "internalType": "uint64",
          "name": "version",
          "type": "uint64"
        }
      ],
      "name": "Initialized",
      "type": "event"
    },
    {
      "anonymous": false,
      "inputs": [
        {
          "indexed": true,
          "internalType": "address",
          "name": "publicKeyHash",
          "type": "address"
        },
        {
          "indexed": false,
          "internalType": "uint256",
          "name": "index",
          "type": "uint256"
        }
      ],
      "name": "KeyLogRegistered",
      "type": "event"
    },
    {
      "anonymous": false,
      "inputs": [
        {
          "indexed": true,
          "internalType": "address",
          "name": "publicKeyHash",
          "type": "address"
        },
        {
          "indexed": false,
          "internalType": "uint256",
          "name": "index",
          "type": "uint256"
        }
      ],
      "name": "KeyRotated",
      "type": "event"
    },
    {
      "anonymous": false,
      "inputs": [
        {
          "indexed": true,
          "internalType": "address",
          "name": "previousOwner",
          "type": "address"
        },
        {
          "indexed": true,
          "internalType": "address",
          "name": "newOwner",
          "type": "address"
        }
      ],
      "name": "OwnershipTransferred",
      "type": "event"
    },
    {
      "anonymous": false,
      "inputs": [
        {
          "indexed": true,
          "internalType": "address",
          "name": "implementation",
          "type": "address"
        }
      ],
      "name": "Upgraded",
      "type": "event"
    },
    {
      "inputs": [],
      "name": "UPGRADE_INTERFACE_VERSION",
      "outputs": [
        {
          "internalType": "string",
          "name": "",
          "type": "string"
        }
      ],
      "stateMutability": "view",
      "type": "function"
    },
    {
      "inputs": [],
      "name": "authorizedCaller",
      "outputs": [
        {
          "internalType": "address",
          "name": "",
          "type": "address"
        }
      ],
      "stateMutability": "view",
      "type": "function"
    },
    {
      "inputs": [
        {
          "internalType": "bytes",
          "name": "publicKey",
          "type": "bytes"
        }
      ],
      "name": "buildFromPublicKey",
      "outputs": [
        {
          "components": [
            {
              "internalType": "address",
              "name": "twicePrerotatedKeyHash",
              "type": "address"
            },
            {
              "internalType": "address",
              "name": "prerotatedKeyHash",
              "type": "address"
            },
            {
              "internalType": "address",
              "name": "publicKeyHash",
              "type": "address"
            },
            {
              "internalType": "address",
              "name": "prevPublicKeyHash",
              "type": "address"
            },
            {
              "internalType": "address",
              "name": "outputAddress",
              "type": "address"
            },
            {
              "internalType": "bool",
              "name": "isOnChain",
              "type": "bool"
            },
            {
              "internalType": "enum KeyEventFlag",
              "name": "flag",
              "type": "uint8"
            }
          ],
          "internalType": "struct KeyLogEntry[]",
          "name": "",
          "type": "tuple[]"
        }
      ],
      "stateMutability": "view",
      "type": "function"
    },
    {
      "inputs": [
        {
          "internalType": "address",
          "name": "",
          "type": "address"
        }
      ],
      "name": "byPrerotatedKeyHash",
      "outputs": [
        {
          "internalType": "uint256",
          "name": "",
          "type": "uint256"
        }
      ],
      "stateMutability": "view",
      "type": "function"
    },
    {
      "inputs": [
        {
          "internalType": "address",
          "name": "",
          "type": "address"
        }
      ],
      "name": "byPrevPublicKeyHash",
      "outputs": [
        {
          "internalType": "uint256",
          "name": "",
          "type": "uint256"
        }
      ],
      "stateMutability": "view",
      "type": "function"
    },
    {
      "inputs": [
        {
          "internalType": "address",
          "name": "",
          "type": "address"
        }
      ],
      "name": "byPublicKeyHash",
      "outputs": [
        {
          "internalType": "uint256",
          "name": "",
          "type": "uint256"
        }
      ],
      "stateMutability": "view",
      "type": "function"
    },
    {
      "inputs": [
        {
          "internalType": "address",
          "name": "",
          "type": "address"
        }
      ],
      "name": "byTwicePrerotatedKeyHash",
      "outputs": [
        {
          "internalType": "uint256",
          "name": "",
          "type": "uint256"
        }
      ],
      "stateMutability": "view",
      "type": "function"
    },
    {
      "inputs": [
        {
          "internalType": "bytes",
          "name": "publicKey",
          "type": "bytes"
        }
      ],
      "name": "getAddressFromPublicKey",
      "outputs": [
        {
          "internalType": "address",
          "name": "",
          "type": "address"
        }
      ],
      "stateMutability": "pure",
      "type": "function"
    },
    {
      "inputs": [
        {
          "internalType": "bytes",
          "name": "publicKey",
          "type": "bytes"
        }
      ],
      "name": "getCurrentIndex",
      "outputs": [
        {
          "internalType": "uint256",
          "name": "",
          "type": "uint256"
        }
      ],
      "stateMutability": "view",
      "type": "function"
    },
    {
      "inputs": [
        {
          "internalType": "bytes",
          "name": "publicKey",
          "type": "bytes"
        }
      ],
      "name": "getLatestChainEntry",
      "outputs": [
        {
          "components": [
            {
              "internalType": "address",
              "name": "twicePrerotatedKeyHash",
              "type": "address"
            },
            {
              "internalType": "address",
              "name": "prerotatedKeyHash",
              "type": "address"
            },
            {
              "internalType": "address",
              "name": "publicKeyHash",
              "type": "address"
            },
            {
              "internalType": "address",
              "name": "prevPublicKeyHash",
              "type": "address"
            },
            {
              "internalType": "address",
              "name": "outputAddress",
              "type": "address"
            },
            {
              "internalType": "bool",
              "name": "isOnChain",
              "type": "bool"
            },
            {
              "internalType": "enum KeyEventFlag",
              "name": "flag",
              "type": "uint8"
            }
          ],
          "internalType": "struct KeyLogEntry",
          "name": "",
          "type": "tuple"
        },
        {
          "internalType": "bool",
          "name": "",
          "type": "bool"
        }
      ],
      "stateMutability": "view",
      "type": "function"
    },
    {
      "inputs": [
        {
          "internalType": "address",
          "name": "publicKeyHash",
          "type": "address"
        }
      ],
      "name": "getLatestChainEntry",
      "outputs": [
        {
          "components": [
            {
              "internalType": "address",
              "name": "twicePrerotatedKeyHash",
              "type": "address"
            },
            {
              "internalType": "address",
              "name": "prerotatedKeyHash",
              "type": "address"
            },
            {
              "internalType": "address",
              "name": "publicKeyHash",
              "type": "address"
            },
            {
              "internalType": "address",
              "name": "prevPublicKeyHash",
              "type": "address"
            },
            {
              "internalType": "address",
              "name": "outputAddress",
              "type": "address"
            },
            {
              "internalType": "bool",
              "name": "isOnChain",
              "type": "bool"
            },
            {
              "internalType": "enum KeyEventFlag",
              "name": "flag",
              "type": "uint8"
            }
          ],
          "internalType": "struct KeyLogEntry",
          "name": "",
          "type": "tuple"
        },
        {
          "internalType": "bool",
          "name": "",
          "type": "bool"
        }
      ],
      "stateMutability": "view",
      "type": "function"
    },
    {
      "inputs": [
        {
          "internalType": "address",
          "name": "publicKeyHash",
          "type": "address"
        }
      ],
      "name": "getLatestEntry",
      "outputs": [
        {
          "components": [
            {
              "internalType": "address",
              "name": "twicePrerotatedKeyHash",
              "type": "address"
            },
            {
              "internalType": "address",
              "name": "prerotatedKeyHash",
              "type": "address"
            },
            {
              "internalType": "address",
              "name": "publicKeyHash",
              "type": "address"
            },
            {
              "internalType": "address",
              "name": "prevPublicKeyHash",
              "type": "address"
            },
            {
              "internalType": "address",
              "name": "outputAddress",
              "type": "address"
            },
            {
              "internalType": "bool",
              "name": "isOnChain",
              "type": "bool"
            },
            {
              "internalType": "enum KeyEventFlag",
              "name": "flag",
              "type": "uint8"
            }
          ],
          "internalType": "struct KeyLogEntry",
          "name": "",
          "type": "tuple"
        },
        {
          "internalType": "bool",
          "name": "",
          "type": "bool"
        }
      ],
      "stateMutability": "view",
      "type": "function"
    },
    {
      "inputs": [
        {
          "internalType": "address",
          "name": "prerotatedKeyHash",
          "type": "address"
        }
      ],
      "name": "getLatestEntryByPrerotatedKeyHash",
      "outputs": [
        {
          "components": [
            {
              "internalType": "address",
              "name": "twicePrerotatedKeyHash",
              "type": "address"
            },
            {
              "internalType": "address",
              "name": "prerotatedKeyHash",
              "type": "address"
            },
            {
              "internalType": "address",
              "name": "publicKeyHash",
              "type": "address"
            },
            {
              "internalType": "address",
              "name": "prevPublicKeyHash",
              "type": "address"
            },
            {
              "internalType": "address",
              "name": "outputAddress",
              "type": "address"
            },
            {
              "internalType": "bool",
              "name": "isOnChain",
              "type": "bool"
            },
            {
              "internalType": "enum KeyEventFlag",
              "name": "flag",
              "type": "uint8"
            }
          ],
          "internalType": "struct KeyLogEntry",
          "name": "",
          "type": "tuple"
        },
        {
          "internalType": "bool",
          "name": "",
          "type": "bool"
        }
      ],
      "stateMutability": "view",
      "type": "function"
    },
    {
      "inputs": [
        {
          "internalType": "bytes",
          "name": "publicKey",
          "type": "bytes"
        }
      ],
      "name": "getPreviousEntry",
      "outputs": [
        {
          "components": [
            {
              "internalType": "address",
              "name": "twicePrerotatedKeyHash",
              "type": "address"
            },
            {
              "internalType": "address",
              "name": "prerotatedKeyHash",
              "type": "address"
            },
            {
              "internalType": "address",
              "name": "publicKeyHash",
              "type": "address"
            },
            {
              "internalType": "address",
              "name": "prevPublicKeyHash",
              "type": "address"
            },
            {
              "internalType": "address",
              "name": "outputAddress",
              "type": "address"
            },
            {
              "internalType": "bool",
              "name": "isOnChain",
              "type": "bool"
            },
            {
              "internalType": "enum KeyEventFlag",
              "name": "flag",
              "type": "uint8"
            }
          ],
          "internalType": "struct KeyLogEntry",
          "name": "",
          "type": "tuple"
        },
        {
          "internalType": "bool",
          "name": "",
          "type": "bool"
        }
      ],
      "stateMutability": "view",
      "type": "function"
    },
    {
      "inputs": [],
      "name": "getTestString",
      "outputs": [
        {
          "internalType": "string",
          "name": "",
          "type": "string"
        }
      ],
      "stateMutability": "pure",
      "type": "function"
    },
    {
      "inputs": [
        {
          "internalType": "address",
          "name": "initialOwner",
          "type": "address"
        }
      ],
      "name": "initialize",
      "outputs": [],
      "stateMutability": "nonpayable",
      "type": "function"
    },
    {
      "inputs": [
        {
          "internalType": "address",
          "name": "currentOwner",
          "type": "address"
        },
        {
          "internalType": "address",
          "name": "newOwner",
          "type": "address"
        }
      ],
      "name": "isValidOwnershipTransfer",
      "outputs": [
        {
          "internalType": "bool",
          "name": "",
          "type": "bool"
        }
      ],
      "stateMutability": "view",
      "type": "function"
    },
    {
      "inputs": [
        {
          "internalType": "uint256",
          "name": "",
          "type": "uint256"
        }
      ],
      "name": "keyLogEntries",
      "outputs": [
        {
          "internalType": "address",
          "name": "twicePrerotatedKeyHash",
          "type": "address"
        },
        {
          "internalType": "address",
          "name": "prerotatedKeyHash",
          "type": "address"
        },
        {
          "internalType": "address",
          "name": "publicKeyHash",
          "type": "address"
        },
        {
          "internalType": "address",
          "name": "prevPublicKeyHash",
          "type": "address"
        },
        {
          "internalType": "address",
          "name": "outputAddress",
          "type": "address"
        },
        {
          "internalType": "bool",
          "name": "isOnChain",
          "type": "bool"
        },
        {
          "internalType": "enum KeyEventFlag",
          "name": "flag",
          "type": "uint8"
        }
      ],
      "stateMutability": "view",
      "type": "function"
    },
    {
      "inputs": [],
      "name": "owner",
      "outputs": [
        {
          "internalType": "address",
          "name": "",
          "type": "address"
        }
      ],
      "stateMutability": "view",
      "type": "function"
    },
    {
      "inputs": [],
      "name": "proxiableUUID",
      "outputs": [
        {
          "internalType": "bytes32",
          "name": "",
          "type": "bytes32"
        }
      ],
      "stateMutability": "view",
      "type": "function"
    },
    {
      "inputs": [
        {
          "components": [
            {
              "internalType": "bytes",
              "name": "publicKey",
              "type": "bytes"
            },
            {
              "internalType": "address",
              "name": "prerotatedKeyHash",
              "type": "address"
            },
            {
              "internalType": "address",
              "name": "twicePrerotatedKeyHash",
              "type": "address"
            },
            {
              "internalType": "address",
              "name": "prevPublicKeyHash",
              "type": "address"
            },
            {
              "internalType": "address",
              "name": "outputAddress",
              "type": "address"
            }
          ],
          "internalType": "struct KeyData",
          "name": "key",
          "type": "tuple"
        }
      ],
      "name": "registerKeyLog",
      "outputs": [],
      "stateMutability": "nonpayable",
      "type": "function"
    },
    {
      "inputs": [
        {
          "components": [
            {
              "internalType": "bytes",
              "name": "publicKey",
              "type": "bytes"
            },
            {
              "internalType": "address",
              "name": "prerotatedKeyHash",
              "type": "address"
            },
            {
              "internalType": "address",
              "name": "twicePrerotatedKeyHash",
              "type": "address"
            },
            {
              "internalType": "address",
              "name": "prevPublicKeyHash",
              "type": "address"
            },
            {
              "internalType": "address",
              "name": "outputAddress",
              "type": "address"
            }
          ],
          "internalType": "struct KeyData",
          "name": "unconfirmedKey",
          "type": "tuple"
        },
        {
          "components": [
            {
              "internalType": "bytes",
              "name": "publicKey",
              "type": "bytes"
            },
            {
              "internalType": "address",
              "name": "prerotatedKeyHash",
              "type": "address"
            },
            {
              "internalType": "address",
              "name": "twicePrerotatedKeyHash",
              "type": "address"
            },
            {
              "internalType": "address",
              "name": "prevPublicKeyHash",
              "type": "address"
            },
            {
              "internalType": "address",
              "name": "outputAddress",
              "type": "address"
            }
          ],
          "internalType": "struct KeyData",
          "name": "confirmingKey",
          "type": "tuple"
        }
      ],
      "name": "registerKeyLogPair",
      "outputs": [],
      "stateMutability": "nonpayable",
      "type": "function"
    },
    {
      "inputs": [],
      "name": "renounceOwnership",
      "outputs": [],
      "stateMutability": "nonpayable",
      "type": "function"
    },
    {
      "inputs": [
        {
          "internalType": "address",
          "name": "_caller",
          "type": "address"
        }
      ],
      "name": "setAuthorizedCaller",
      "outputs": [],
      "stateMutability": "nonpayable",
      "type": "function"
    },
    {
      "inputs": [
        {
          "internalType": "address",
          "name": "newOwner",
          "type": "address"
        }
      ],
      "name": "transferOwnership",
      "outputs": [],
      "stateMutability": "nonpayable",
      "type": "function"
    },
    {
      "inputs": [
        {
          "internalType": "address",
          "name": "newImplementation",
          "type": "address"
        },
        {
          "internalType": "bytes",
          "name": "data",
          "type": "bytes"
        }
      ],
      "name": "upgradeToAndCall",
      "outputs": [],
      "stateMutability": "payable",
      "type": "function"
    },
    {
      "inputs": [
        {
          "components": [
            {
              "internalType": "bytes",
              "name": "publicKey",
              "type": "bytes"
            },
            {
              "internalType": "address",
              "name": "prerotatedKeyHash",
              "type": "address"
            },
            {
              "internalType": "address",
              "name": "twicePrerotatedKeyHash",
              "type": "address"
            },
            {
              "internalType": "address",
              "name": "prevPublicKeyHash",
              "type": "address"
            },
            {
              "internalType": "address",
              "name": "outputAddress",
              "type": "address"
            }
          ],
          "internalType": "struct KeyData",
          "name": "unconfirmed",
          "type": "tuple"
        },
        {
          "components": [
            {
              "internalType": "bytes",
              "name": "publicKey",
              "type": "bytes"
            },
            {
              "internalType": "address",
              "name": "prerotatedKeyHash",
              "type": "address"
            },
            {
              "internalType": "address",
              "name": "twicePrerotatedKeyHash",
              "type": "address"
            },
            {
              "internalType": "address",
              "name": "prevPublicKeyHash",
              "type": "address"
            },
            {
              "internalType": "address",
              "name": "outputAddress",
              "type": "address"
            }
          ],
          "internalType": "struct KeyData",
          "name": "confirming",
          "type": "tuple"
        },
        {
          "internalType": "bool",
          "name": "isPair",
          "type": "bool"
        }
      ],
      "name": "validateTransaction",
      "outputs": [
        {
          "internalType": "enum KeyEventFlag",
          "name": "",
          "type": "uint8"
        },
        {
          "internalType": "enum KeyEventFlag",
          "name": "",
          "type": "uint8"
        }
      ],
      "stateMutability": "view",
      "type": "function"
    }
  ],
  "bytecode": "0x60a06040523060805234801562000014575f80fd5b506200001f62000025565b620000d9565b7ff0c57e16840df040f15088dc2f81fe391c3923bec73e23a9662efc9c229c6a00805468010000000000000000900460ff1615620000765760405163f92ee8a960e01b815260040160405180910390fd5b80546001600160401b0390811614620000d65780546001600160401b0319166001600160401b0390811782556040519081527fc7f505b2f371ae2175ee4913f4499e1f2633a7b5936321eed1cdaeb6115181d29060200160405180910390a15b50565b60805161311b620001005f395f818161219b015281816121c40152612308015261311b5ff3fe608060405260043610610195575f3560e01c80638da5cb5b116100e7578063ad3cb1cc11610087578063e5ce0af411610062578063e5ce0af41461051e578063ee93aac21461053d578063f2fde38b1461055c578063fb51e5bb1461057b575f80fd5b8063ad3cb1cc146104b0578063c4d66de8146104e0578063cf8fbec9146104ff575f80fd5b806397dc97cb116100c257806397dc97cb1461041c5780639fa17f911461043b578063a375e47214610466578063a5e49bda14610491575f80fd5b80638da5cb5b146103ca57806391952551146103de57806392e71104146103fd575f80fd5b80632f91be481161015257806352d1902d1161012d57806352d1902d146103495780635ed9739c1461035d578063715018a61461038957806382fc3dd71461039d575f80fd5b80632f91be48146102bd578063401795b21461030b5780634f1ef28614610336575f80fd5b806318fdb6f81461019957806325fb5bd9146101cd578063276c1ac0146101ff5780632bf2fac9146102365780632d2eca6a1461026f5780632dd1466d1461029c575b5f80fd5b3480156101a4575f80fd5b506101b86101b3366004612a68565b61059a565b60405190151581526020015b60405180910390f35b3480156101d8575f80fd5b506101ec6101e7366004612a99565b610628565b6040516101c49796959493929190612ae4565b34801561020a575f80fd5b5061021e610219366004612bd2565b610690565b6040516001600160a01b0390911681526020016101c4565b348015610241575f80fd5b50610261610250366004612c0c565b60036020525f908152604090205481565b6040519081526020016101c4565b34801561027a575f80fd5b5061028e610289366004612bd2565b6106f3565b6040516101c4929190612c81565b3480156102a7575f80fd5b506102bb6102b6366004612d45565b610755565b005b3480156102c8575f80fd5b5060408051808201909152601b81527f5570677261646564204b65794c6f67526567697374727920763621000000000060208201525b6040516101c49190612dc7565b348015610316575f80fd5b50610261610325366004612c0c565b60026020525f908152604090205481565b6102bb610344366004612df9565b610d5e565b348015610354575f80fd5b50610261610d7d565b348015610368575f80fd5b5061037c610377366004612bd2565b610d98565b6040516101c49190612e3a565b348015610394575f80fd5b506102bb610db6565b3480156103a8575f80fd5b506103bc6103b7366004612e94565b610dc9565b6040516101c4929190612f07565b3480156103d5575f80fd5b5061021e611710565b3480156103e9575f80fd5b5061028e6103f8366004612c0c565b61173e565b348015610408575f80fd5b5061028e610417366004612c0c565b61183f565b348015610427575f80fd5b5060055461021e906001600160a01b031681565b348015610446575f80fd5b50610261610455366004612c0c565b60046020525f908152604090205481565b348015610471575f80fd5b50610261610480366004612c0c565b60016020525f908152604090205481565b34801561049c575f80fd5b5061028e6104ab366004612c0c565b6119d3565b3480156104bb575f80fd5b506102fe604051806040016040528060058152602001640352e302e360dc1b81525081565b3480156104eb575f80fd5b506102bb6104fa366004612c0c565b6119e6565b34801561050a575f80fd5b506102bb610519366004612c0c565b611afc565b348015610529575f80fd5b506102bb610538366004612f22565b611b26565b348015610548575f80fd5b5061028e610557366004612bd2565b611f1a565b348015610567575f80fd5b506102bb610576366004612c0c565b612033565b348015610586575f80fd5b50610261610595366004612bd2565b612070565b5f6001600160a01b03831615806105b857506001600160a01b038216155b156105c457505f610622565b5f806105cf856119d3565b91509150806105e2575f92505050610622565b836001600160a01b031682602001516001600160a01b031614801561061d575060018260c00151600281111561061a5761061a612ab0565b14155b925050505b92915050565b5f8181548110610636575f80fd5b5f918252602090912060059091020180546001820154600283015460038401546004909401546001600160a01b0393841695509183169390831692908116919081169060ff600160a01b8204811691600160a81b90041687565b5f81516040146106e75760405162461bcd60e51b815260206004820152601b60248201527f5075626c6963206b6579206d757374206265203634206279746573000000000060448201526064015b60405180910390fd5b50805160209091012090565b6106fb612a14565b5f8061070684610d98565b905080515f0361072257610718612a14565b945f945092505050565b80600182516107319190612f68565b8151811061074157610741612f7b565b602002602001015160019250925050915091565b6005546001600160a01b03163314806107865750610771611710565b6001600160a01b0316336001600160a01b0316145b6107a25760405162461bcd60e51b81526004016106de90612f8f565b5f6107af835f0151610690565b90505f6107be835f0151610690565b90505f806107ce86866001610dc9565b915091505f6040518060e0016040528088604001516001600160a01b0316815260200188602001516001600160a01b03168152602001866001600160a01b0316815260200188606001516001600160a01b0316815260200188608001516001600160a01b0316815260200160011515815260200184600281111561085457610854612ab0565b90528154600180820184555f938452602093849020835160059093020180546001600160a01b03199081166001600160a01b03948516178255948401519181018054861692841692909217909155604083015160028083018054871692851692909217909155606084015160038301805490961690841617909455608083015160048201805460a0860151929094166001600160a81b031990941693909317600160a01b911515919091021780835560c084015193949193929160ff60a81b1990911690600160a81b90849081111561092f5761092f612ab0565b0217905550505f805490915061094790600190612f68565b9050610954816001612fb7565b6001600160a01b038087165f90815260016020526040902091909155606088015116156109a357610986816001612fb7565b60608801516001600160a01b03165f908152600260205260409020555b60208701516001600160a01b0316156109df576109c1816001612fb7565b6020808901516001600160a01b03165f908152600390915260409020555b60408701516001600160a01b031615610a18576109fd816001612fb7565b6040808901516001600160a01b03165f908152600460205220555b5f6040518060e0016040528088604001516001600160a01b0316815260200188602001516001600160a01b03168152602001866001600160a01b0316815260200188606001516001600160a01b0316815260200188608001516001600160a01b03168152602001600115158152602001846002811115610a9a57610a9a612ab0565b90528154600180820184555f938452602093849020835160059093020180546001600160a01b03199081166001600160a01b03948516178255948401519181018054861692841692909217909155604083015160028083018054871692851692909217909155606084015160038301805490961690841617909455608083015160048201805460a0860151929094166001600160a81b031990941693909317600160a01b911515919091021780835560c084015193949193929160ff60a81b1990911690600160a81b908490811115610b7557610b75612ab0565b0217905550505f8054909150610b8d90600190612f68565b9050610b9a816001612fb7565b6001600160a01b038087165f9081526001602052604090209190915560608801511615610be957610bcc816001612fb7565b60608801516001600160a01b03165f908152600260205260409020555b60208701516001600160a01b031615610c2557610c07816001612fb7565b6020808901516001600160a01b03165f908152600390915260409020555b60408701516001600160a01b031615610c5e57610c43816001612fb7565b6040808901516001600160a01b03165f908152600460205220555b856001600160a01b0316610c70611710565b6001600160a01b031603610c8b57610c8b8760200151612083565b856001600160a01b03167fa9366f75c6c44e3c9ee299d368915abb2fa3108d469f3ab468ef239142dc725b83604051610cc691815260200190565b60405180910390a2846001600160a01b03167fa9366f75c6c44e3c9ee299d368915abb2fa3108d469f3ab468ef239142dc725b82604051610d0991815260200190565b60405180910390a2846001600160a01b03167f65b9775e0ec7a02caf84b2523694b517ace341c14dd2b3926a5591d7b5f5a99682604051610d4c91815260200190565b60405180910390a25050505050505050565b610d66612190565b610d6f82612234565b610d79828261223c565b5050565b5f610d866122fd565b505f805160206130c683398151915290565b60605f610da483610690565b9050610daf81612346565b9392505050565b610dbe612743565b610dc75f612775565b565b5f805f80610dd9875f01516106f3565b915091505f610dea885f0151610690565b90505f610df9895f0151610690565b90508215610f9f578360a00151610e525760405162461bcd60e51b815260206004820152601f60248201527f50726576696f757320656e747279206d757374206265206f6e2d636861696e0060448201526064016106de565b88606001516001600160a01b031684604001516001600160a01b031614610ebb5760405162461bcd60e51b815260206004820152601860248201527f50726576207075626c6963206b6579206d69736d61746368000000000000000060448201526064016106de565b816001600160a01b031684602001516001600160a01b031614610f165760405162461bcd60e51b81526020600482015260136024820152720a0eac4d8d2c640d6caf240dad2e6dac2e8c6d606b1b60448201526064016106de565b88602001516001600160a01b0316845f01516001600160a01b031614610f9a5760405162461bcd60e51b815260206004820152603360248201527f507265726f7461746564206b6579206d757374206d617463682070726576696f6044820152721d5cc81d1dda58d9481c1c995c9bdd185d1959606a1b60648201526084016106de565b611015565b60608901516001600160a01b0316156110155760405162461bcd60e51b815260206004820152603260248201527f496e63657074696f6e206576656e742063616e6e6f74206861766520612070726044820152710caecbee0eac4d8d2c6bed6caf2bed0c2e6d60731b60648201526084016106de565b60608901516001600160a01b03165f908152600260205260409020541561104e5760405162461bcd60e51b81526004016106de90612fca565b6001600160a01b0382165f90815260016020526040902054156110b35760405162461bcd60e51b815260206004820152601c60248201527f5075626c6963206b6579206861736820616c726561647920757365640000000060448201526064016106de565b6020808a01516001600160a01b03165f908152600390915260409020541561111d5760405162461bcd60e51b815260206004820181905260248201527f507265726f7461746564206b6579206861736820616c7265616479207573656460448201526064016106de565b6040808a01516001600160a01b03165f90815260046020522054156111935760405162461bcd60e51b815260206004820152602660248201527f547769636520707265726f7461746564206b6579206861736820616c726561646044820152651e481d5cd95960d21b60648201526084016106de565b5f831580156111ad575060608a01516001600160a01b0316155b156112165789602001516001600160a01b03168a608001516001600160a01b03161461120f5760405162461bcd60e51b815260206004820152601160248201527024b73b30b634b21034b731b2b83a34b7b760791b60448201526064016106de565b505f6112a1565b89602001516001600160a01b03168a608001516001600160a01b03161461123f575060016112a1565b89602001516001600160a01b03168a608001516001600160a01b03161461129d5760405162461bcd60e51b8152602060048201526012602482015271496e76616c696420636f6e6669726d696e6760701b60448201526064016106de565b5060025b8761131a5789608001516001600160a01b03168a602001516001600160a01b0316146112df5760405162461bcd60e51b81526004016106de9061300f565b60808901516001600160a01b03161561130a5760405162461bcd60e51b81526004016106de9061300f565b9550600194506117089350505050565b816001600160a01b03166113308a5f0151610690565b6001600160a01b0316146113865760405162461bcd60e51b815260206004820152601b60248201527f496e76616c696420636f6e6669726d696e675075626c69634b6579000000000060448201526064016106de565b88602001516001600160a01b03168a604001516001600160a01b0316146114265760405162461bcd60e51b815260206004820152604860248201527f53657175656e6365206d69736d617463683a207477696365507265726f74617460448201527f65644b65794861736820213d20636f6e6669726d696e67507265726f746174656064820152670c896caf290c2e6d60c31b608482015260a4016106de565b88602001516001600160a01b031689608001516001600160a01b03161461148f5760405162461bcd60e51b815260206004820152601d60248201527f496e76616c696420636f6e6669726d696e6720636f6e646974696f6e7300000060448201526064016106de565b816001600160a01b03168a602001516001600160a01b0316146115125760405162461bcd60e51b815260206004820152603560248201527f53657175656e6365206d69736d617463683a20707265726f74617465644b6579604482015274090c2e6d040427a40e0eac4d8d2c696caf290c2e6d605b1b60648201526084016106de565b826001600160a01b031689606001516001600160a01b0316146115a75760405162461bcd60e51b815260206004820152604160248201527f436f6e6669726d696e6720707265765075626c69634b657948617368206d757360448201527f74206d6174636820756e636f6e6669726d6564207075626c69634b65794861736064820152600d60fb1b608482015260a4016106de565b60608901516001600160a01b03165f90815260026020526040902054156115e05760405162461bcd60e51b81526004016106de90612fca565b6001600160a01b0382165f90815260016020526040902054156116455760405162461bcd60e51b815260206004820152601c60248201527f5075626c6963206b6579206861736820616c726561647920757365640000000060448201526064016106de565b6020808a01516001600160a01b03165f90815260039091526040902054156116c35760405162461bcd60e51b815260206004820152602b60248201527f436f6e6669726d696e6720707265726f7461746564206b65792068617368206160448201526a1b1c9958591e481d5cd95960aa1b60648201526084016106de565b6040808a01516001600160a01b03165f90815260046020522054156116fa5760405162461bcd60e51b81526004016106de9061300f565b600160029650965050505050505b935093915050565b7f9016d09d72d40fdae2fd8ceac6b6234c7706214fd39c1cd1e609a0528c199300546001600160a01b031690565b611746612a14565b6001600160a01b0382165f9081526001602052604081205480820361176d57610718612a14565b5f611779600183612f68565b8154811061178957611789612f7b565b5f9182526020918290206040805160e081018252600590930290910180546001600160a01b0390811684526001808301548216958501959095526002808301548216938501939093526003820154811660608501526004820154908116608085015260ff600160a01b82048116151560a086015291949392859260c0850192600160a81b9004169081111561182057611820612ab0565b600281111561183157611831612ab0565b905250969095509350505050565b611847612a14565b6001600160a01b0382165f9081526003602052604081205480820361188f57506001600160a01b0383165f908152600460205260408120549081900361188f57610718612a14565b5f8061189c600184612f68565b815481106118ac576118ac612f7b565b5f9182526020918290206040805160e081018252600590930290910180546001600160a01b03908116845260018201548116948401949094526002808201548516928401929092526003810154841660608401526004810154938416608084015260ff600160a01b85048116151560a08501529293909260c0850192600160a81b909204169081111561194157611941612ab0565b600281111561195257611952612ab0565b9052506020808201516001600160a01b0381165f9081526001909252604090912054935090915082156119c75760405162461bcd60e51b815260206004820152601c60248201527f4e6f7420746865206c6174657374206b657920726f746174696f6e2e0000000060448201526064016106de565b50946001945092505050565b6119db612a14565b5f8061070684612346565b7ff0c57e16840df040f15088dc2f81fe391c3923bec73e23a9662efc9c229c6a008054600160401b810460ff16159067ffffffffffffffff165f81158015611a2b5750825b90505f8267ffffffffffffffff166001148015611a475750303b155b905081158015611a55575080155b15611a735760405163f92ee8a960e01b815260040160405180910390fd5b845467ffffffffffffffff191660011785558315611a9d57845460ff60401b1916600160401b1785555b611aa6866127e5565b611aae6127f6565b8315611af457845460ff60401b19168555604051600181527fc7f505b2f371ae2175ee4913f4499e1f2633a7b5936321eed1cdaeb6115181d29060200160405180910390a15b505050505050565b611b04612743565b600580546001600160a01b0319166001600160a01b0392909216919091179055565b6005546001600160a01b0316331480611b575750611b42611710565b6001600160a01b0316336001600160a01b0316145b611b735760405162461bcd60e51b81526004016106de90612f8f565b5f611b80825f0151610690565b6040805160c0810182525f60a08201818152825260208201819052918101829052606081018290526080810182905291925090611bbf90849083610dc9565b5090505f6040518060e0016040528085604001516001600160a01b0316815260200185602001516001600160a01b03168152602001846001600160a01b0316815260200185606001516001600160a01b0316815260200185608001516001600160a01b031681526020015f6002811115611c3b57611c3b612ab0565b846002811115611c4d57611c4d612ab0565b1480611c6a57506002846002811115611c6857611c68612ab0565b145b15158152602001836002811115611c8357611c83612ab0565b90528154600180820184555f938452602093849020835160059093020180546001600160a01b03199081166001600160a01b03948516178255948401519181018054861692841692909217909155604083015160028083018054871692851692909217909155606084015160038301805490961690841617909455608083015160048201805460a0860151929094166001600160a81b031990941693909317600160a01b911515919091021780835560c084015193949193929160ff60a81b1990911690600160a81b908490811115611d5e57611d5e612ab0565b0217905550505f8054909150611d7690600190612f68565b9050611d83816001612fb7565b6001600160a01b038085165f9081526001602052604090209190915560608501511615611dd257611db5816001612fb7565b60608501516001600160a01b03165f908152600260205260409020555b60208401516001600160a01b031615611e0e57611df0816001612fb7565b6020808601516001600160a01b03165f908152600390915260409020555b60408401516001600160a01b031615611e4757611e2c816001612fb7565b6040808601516001600160a01b03165f908152600460205220555b826001600160a01b03167fa9366f75c6c44e3c9ee299d368915abb2fa3108d469f3ab468ef239142dc725b82604051611e8291815260200190565b60405180910390a26001826002811115611e9e57611e9e612ab0565b14611ee757826001600160a01b03167f65b9775e0ec7a02caf84b2523694b517ace341c14dd2b3926a5591d7b5f5a99682604051611ede91815260200190565b60405180910390a25b826001600160a01b0316611ef9611710565b6001600160a01b031603611f1457611f148460200151612083565b50505050565b611f22612a14565b5f8060035f611f3086610690565b6001600160a01b03166001600160a01b031681526020019081526020015f20549050805f03611f6157610718612a14565b5f80611f6e600184612f68565b81548110611f7e57611f7e612f7b565b5f9182526020918290206040805160e081018252600590930290910180546001600160a01b03908116845260018201548116948401949094526002808201548516928401929092526003810154841660608401526004810154938416608084015260ff600160a01b85048116151560a08501529293909260c0850192600160a81b909204169081111561201357612013612ab0565b600281111561202457612024612ab0565b90525095600195509350505050565b61203b612743565b6001600160a01b03811661206457604051631e4fbdf760e01b81525f60048201526024016106de565b61206d81612775565b50565b5f8061207b83610d98565b519392505050565b6005546001600160a01b03163314806120b4575061209f611710565b6001600160a01b0316336001600160a01b0316145b6120d05760405162461bcd60e51b81526004016106de90612f8f565b6001600160a01b0381166120f75760405163d92e233d60e01b815260040160405180910390fd5b306318fdb6f8612105611710565b6040516001600160e01b031960e084901b1681526001600160a01b0391821660048201529084166024820152604401602060405180830381865afa15801561214f573d5f803e3d5ffd5b505050506040513d601f19601f820116820180604052508101906121739190613060565b6120645760405163b012a29560e01b815260040160405180910390fd5b306001600160a01b037f000000000000000000000000000000000000000000000000000000000000000016148061221657507f00000000000000000000000000000000000000000000000000000000000000006001600160a01b031661220a5f805160206130c6833981519152546001600160a01b031690565b6001600160a01b031614155b15610dc75760405163703e46dd60e11b815260040160405180910390fd5b61206d612743565b816001600160a01b03166352d1902d6040518163ffffffff1660e01b8152600401602060405180830381865afa925050508015612296575060408051601f3d908101601f191682019092526122939181019061307b565b60015b6122be57604051634c9c8ce360e01b81526001600160a01b03831660048201526024016106de565b5f805160206130c683398151915281146122ee57604051632a87526960e21b8152600481018290526024016106de565b6122f883836127fe565b505050565b306001600160a01b037f00000000000000000000000000000000000000000000000000000000000000001614610dc75760405163703e46dd60e11b815260040160405180910390fd5b604080516103e8808252617d2082019092526060915f9190816020015b61236b612a14565b8152602001906001900390816123635790505090505f8361238a612a14565b5f612393612a14565b6001600160a01b0384165f90815260016020526040812054908190036123cd57506001600160a01b0384165f908152600360205260409020545b805f036123ee57506001600160a01b0384165f908152600460205260409020545b805f0361243457604080515f8082526020820190925281612425565b612412612a14565b81526020019060019003908161240a5790505b509a9950505050505050505050565b5f612440600183612f68565b8154811061245057612450612f7b565b5f9182526020918290206040805160e081018252600590930290910180546001600160a01b03908116845260018201548116948401949094526002808201548516928401929092526003810154841660608401526004810154938416608084015260ff600160a01b85048116151560a08501529293909260c0850192600160a81b90920416908111156124e5576124e5612ab0565b60028111156124f6576124f6612ab0565b90525060608101519092506001600160a01b031661251b578193506001925050612528565b8160600151945050612393565b8115612697578286868151811061254157612541612f7b565b6020026020010181905250848061255790613092565b955050826020015193505b6001600160a01b0384165f90815260016020526040812054908190036125885750612697565b5f612594600183612f68565b815481106125a4576125a4612f7b565b5f9182526020918290206040805160e081018252600590930290910180546001600160a01b03908116845260018201548116948401949094526002808201548516928401929092526003810154841660608401526004810154938416608084015260ff600160a01b85048116151560a08501529293909260c0850192600160a81b909204169081111561263957612639612ab0565b600281111561264a5761264a612ab0565b8152505091508187878151811061266357612663612f7b565b6020026020010181905250858061267990613092565b96505081602001519450865186106126915750612697565b50612562565b5f8567ffffffffffffffff8111156126b1576126b1612b35565b6040519080825280602002602001820160405280156126ea57816020015b6126d7612a14565b8152602001906001900390816126cf5790505b5090505f5b868110156127365787818151811061270957612709612f7b565b602002602001015182828151811061272357612723612f7b565b60209081029190910101526001016126ef565b5098975050505050505050565b3361274c611710565b6001600160a01b031614610dc75760405163118cdaa760e01b81523360048201526024016106de565b7f9016d09d72d40fdae2fd8ceac6b6234c7706214fd39c1cd1e609a0528c19930080546001600160a01b031981166001600160a01b03848116918217845560405192169182907f8be0079c531659141344cd1fd0a4f28419497f9722a3daafe3b4186f6b6457e0905f90a3505050565b6127ed612853565b61206d8161289c565b610dc7612853565b612807826128a4565b6040516001600160a01b038316907fbc7cd75a20ee27fd9adebab32041f755214dbc6bffa90cc0225b39da2e5c2d3b905f90a280511561284b576122f88282612907565b610d79612970565b7ff0c57e16840df040f15088dc2f81fe391c3923bec73e23a9662efc9c229c6a0054600160401b900460ff16610dc757604051631afcd79f60e31b815260040160405180910390fd5b61203b612853565b806001600160a01b03163b5f036128d957604051634c9c8ce360e01b81526001600160a01b03821660048201526024016106de565b5f805160206130c683398151915280546001600160a01b0319166001600160a01b0392909216919091179055565b60605f80846001600160a01b03168460405161292391906130aa565b5f60405180830381855af49150503d805f811461295b576040519150601f19603f3d011682016040523d82523d5f602084013e612960565b606091505b509150915061061d85838361298f565b3415610dc75760405163b398979f60e01b815260040160405180910390fd5b6060826129a45761299f826129eb565b610daf565b81511580156129bb57506001600160a01b0384163b155b156129e457604051639996b31560e01b81526001600160a01b03851660048201526024016106de565b5092915050565b8051156129fb5780518082602001fd5b60405163d6bda27560e01b815260040160405180910390fd5b6040805160e0810182525f80825260208201819052918101829052606081018290526080810182905260a081018290529060c082015290565b80356001600160a01b0381168114612a63575f80fd5b919050565b5f8060408385031215612a79575f80fd5b612a8283612a4d565b9150612a9060208401612a4d565b90509250929050565b5f60208284031215612aa9575f80fd5b5035919050565b634e487b7160e01b5f52602160045260245ffd5b60038110612ae057634e487b7160e01b5f52602160045260245ffd5b9052565b6001600160a01b0388811682528781166020830152868116604083015285811660608301528416608082015282151560a082015260e08101612b2960c0830184612ac4565b98975050505050505050565b634e487b7160e01b5f52604160045260245ffd5b5f82601f830112612b58575f80fd5b813567ffffffffffffffff80821115612b7357612b73612b35565b604051601f8301601f19908116603f01168101908282118183101715612b9b57612b9b612b35565b81604052838152866020858801011115612bb3575f80fd5b836020870160208301375f602085830101528094505050505092915050565b5f60208284031215612be2575f80fd5b813567ffffffffffffffff811115612bf8575f80fd5b612c0484828501612b49565b949350505050565b5f60208284031215612c1c575f80fd5b610daf82612a4d565b60018060a01b038082511683528060208301511660208401528060408301511660408401528060608301511660608401528060808301511660808401525060a0810151151560a083015260c08101516122f860c0840182612ac4565b6101008101612c908285612c25565b82151560e08301529392505050565b5f60a08284031215612caf575f80fd5b60405160a0810167ffffffffffffffff8282108183111715612cd357612cd3612b35565b816040528293508435915080821115612cea575f80fd5b50612cf785828601612b49565b825250612d0660208401612a4d565b6020820152612d1760408401612a4d565b6040820152612d2860608401612a4d565b6060820152612d3960808401612a4d565b60808201525092915050565b5f8060408385031215612d56575f80fd5b823567ffffffffffffffff80821115612d6d575f80fd5b612d7986838701612c9f565b93506020850135915080821115612d8e575f80fd5b50612d9b85828601612c9f565b9150509250929050565b5f5b83811015612dbf578181015183820152602001612da7565b50505f910152565b602081525f8251806020840152612de5816040850160208701612da5565b601f01601f19169190910160400192915050565b5f8060408385031215612e0a575f80fd5b612e1383612a4d565b9150602083013567ffffffffffffffff811115612e2e575f80fd5b612d9b85828601612b49565b602080825282518282018190525f9190848201906040850190845b81811015612e7b57612e68838551612c25565b9284019260e09290920191600101612e55565b50909695505050505050565b801515811461206d575f80fd5b5f805f60608486031215612ea6575f80fd5b833567ffffffffffffffff80821115612ebd575f80fd5b612ec987838801612c9f565b94506020860135915080821115612ede575f80fd5b50612eeb86828701612c9f565b9250506040840135612efc81612e87565b809150509250925092565b60408101612f158285612ac4565b610daf6020830184612ac4565b5f60208284031215612f32575f80fd5b813567ffffffffffffffff811115612f48575f80fd5b612c0484828501612c9f565b634e487b7160e01b5f52601160045260245ffd5b8181038181111561062257610622612f54565b634e487b7160e01b5f52603260045260245ffd5b6020808252600e908201526d139bdd08185d5d1a1bdc9a5e995960921b604082015260600190565b8082018082111561062257610622612f54565b60208082526025908201527f50726576696f7573207075626c6963206b6579206861736820616c7265616479604082015264081d5cd95960da1b606082015260800190565b60208082526031908201527f436f6e6669726d696e6720747769636520707265726f7461746564206b6579206040820152701a185cda08185b1c9958591e481d5cd959607a1b606082015260800190565b5f60208284031215613070575f80fd5b8151610daf81612e87565b5f6020828403121561308b575f80fd5b5051919050565b5f600182016130a3576130a3612f54565b5060010190565b5f82516130bb818460208701612da5565b919091019291505056fe360894a13ba1a3210667c828492db98dca3e2076cc3735a920a3ca505d382bbca2646970667358221220d82b496c600474a4206bd1c0e93e90514b054c5842e6a999cdb000adfbfef2a164736f6c63430008180033",
  "linkReferences": {},
  "deployedLinkReferences": {}
}