{
  "_format": "hh-sol-artifact-1",
  "contractName": "KeyLogRegistry",
  "sourceName": "contracts/KeyLogRegistry.sol",
  "abi": [
    {
      "inputs": [],
      "stateMutability": "nonpayable",
      "type": "constructor"
    },
    {
      "inputs": [
        {
          "internalType": "address",
          "name": "owner",
          "type": "address"
        }
      ],
      "name": "OwnableInvalidOwner",
      "type": "error"
    },
    {
      "inputs": [
        {
          "internalType": "address",
          "name": "account",
          "type": "address"
        }
      ],
      "name": "OwnableUnauthorizedAccount",
      "type": "error"
    },
    {
      "anonymous": false,
      "inputs": [
        {
          "indexed": true,
          "internalType": "address",
          "name": "publicKeyHash",
          "type": "address"
        },
        {
          "indexed": false,
          "internalType": "uint256",
          "name": "index",
          "type": "uint256"
        }
      ],
      "name": "KeyLogRegistered",
      "type": "event"
    },
    {
      "anonymous": false,
      "inputs": [
        {
          "indexed": true,
          "internalType": "address",
          "name": "publicKeyHash",
          "type": "address"
        },
        {
          "indexed": false,
          "internalType": "uint256",
          "name": "index",
          "type": "uint256"
        }
      ],
      "name": "KeyRotated",
      "type": "event"
    },
    {
      "anonymous": false,
      "inputs": [
        {
          "indexed": true,
          "internalType": "address",
          "name": "previousOwner",
          "type": "address"
        },
        {
          "indexed": true,
          "internalType": "address",
          "name": "newOwner",
          "type": "address"
        }
      ],
      "name": "OwnershipTransferred",
      "type": "event"
    },
    {
      "inputs": [],
      "name": "authorizedCaller",
      "outputs": [
        {
          "internalType": "address",
          "name": "",
          "type": "address"
        }
      ],
      "stateMutability": "view",
      "type": "function"
    },
    {
      "inputs": [
        {
          "internalType": "bytes",
          "name": "publicKey",
          "type": "bytes"
        }
      ],
      "name": "buildFromPublicKey",
      "outputs": [
        {
          "components": [
            {
              "internalType": "address",
              "name": "twicePrerotatedKeyHash",
              "type": "address"
            },
            {
              "internalType": "address",
              "name": "prerotatedKeyHash",
              "type": "address"
            },
            {
              "internalType": "address",
              "name": "publicKeyHash",
              "type": "address"
            },
            {
              "internalType": "address",
              "name": "prevPublicKeyHash",
              "type": "address"
            },
            {
              "internalType": "address",
              "name": "outputAddress",
              "type": "address"
            },
            {
              "internalType": "bool",
              "name": "hasRelationship",
              "type": "bool"
            },
            {
              "internalType": "bool",
              "name": "isOnChain",
              "type": "bool"
            },
            {
              "internalType": "enum KeyLogRegistry.KeyEventFlag",
              "name": "flag",
              "type": "uint8"
            }
          ],
          "internalType": "struct KeyLogRegistry.KeyLogEntry[]",
          "name": "",
          "type": "tuple[]"
        }
      ],
      "stateMutability": "view",
      "type": "function"
    },
    {
      "inputs": [
        {
          "internalType": "address",
          "name": "",
          "type": "address"
        },
        {
          "internalType": "uint256",
          "name": "",
          "type": "uint256"
        }
      ],
      "name": "byPrerotatedKeyHash",
      "outputs": [
        {
          "internalType": "uint256",
          "name": "",
          "type": "uint256"
        }
      ],
      "stateMutability": "view",
      "type": "function"
    },
    {
      "inputs": [
        {
          "internalType": "address",
          "name": "",
          "type": "address"
        },
        {
          "internalType": "uint256",
          "name": "",
          "type": "uint256"
        }
      ],
      "name": "byPrevPublicKeyHash",
      "outputs": [
        {
          "internalType": "uint256",
          "name": "",
          "type": "uint256"
        }
      ],
      "stateMutability": "view",
      "type": "function"
    },
    {
      "inputs": [
        {
          "internalType": "address",
          "name": "",
          "type": "address"
        },
        {
          "internalType": "uint256",
          "name": "",
          "type": "uint256"
        }
      ],
      "name": "byPublicKeyHash",
      "outputs": [
        {
          "internalType": "uint256",
          "name": "",
          "type": "uint256"
        }
      ],
      "stateMutability": "view",
      "type": "function"
    },
    {
      "inputs": [
        {
          "internalType": "address",
          "name": "",
          "type": "address"
        },
        {
          "internalType": "uint256",
          "name": "",
          "type": "uint256"
        }
      ],
      "name": "byTwicePrerotatedKeyHash",
      "outputs": [
        {
          "internalType": "uint256",
          "name": "",
          "type": "uint256"
        }
      ],
      "stateMutability": "view",
      "type": "function"
    },
    {
      "inputs": [
        {
          "internalType": "bytes",
          "name": "publicKey",
          "type": "bytes"
        }
      ],
      "name": "getAddressFromPublicKey",
      "outputs": [
        {
          "internalType": "address",
          "name": "",
          "type": "address"
        }
      ],
      "stateMutability": "pure",
      "type": "function"
    },
    {
      "inputs": [
        {
          "internalType": "bytes",
          "name": "publicKey",
          "type": "bytes"
        }
      ],
      "name": "getCurrentIndex",
      "outputs": [
        {
          "internalType": "uint256",
          "name": "",
          "type": "uint256"
        }
      ],
      "stateMutability": "view",
      "type": "function"
    },
    {
      "inputs": [
        {
          "internalType": "bytes",
          "name": "publicKey",
          "type": "bytes"
        }
      ],
      "name": "getLatestChainEntry",
      "outputs": [
        {
          "components": [
            {
              "internalType": "address",
              "name": "twicePrerotatedKeyHash",
              "type": "address"
            },
            {
              "internalType": "address",
              "name": "prerotatedKeyHash",
              "type": "address"
            },
            {
              "internalType": "address",
              "name": "publicKeyHash",
              "type": "address"
            },
            {
              "internalType": "address",
              "name": "prevPublicKeyHash",
              "type": "address"
            },
            {
              "internalType": "address",
              "name": "outputAddress",
              "type": "address"
            },
            {
              "internalType": "bool",
              "name": "hasRelationship",
              "type": "bool"
            },
            {
              "internalType": "bool",
              "name": "isOnChain",
              "type": "bool"
            },
            {
              "internalType": "enum KeyLogRegistry.KeyEventFlag",
              "name": "flag",
              "type": "uint8"
            }
          ],
          "internalType": "struct KeyLogRegistry.KeyLogEntry",
          "name": "",
          "type": "tuple"
        },
        {
          "internalType": "bool",
          "name": "",
          "type": "bool"
        }
      ],
      "stateMutability": "view",
      "type": "function"
    },
    {
      "inputs": [
        {
          "internalType": "address",
          "name": "publicKeyHash",
          "type": "address"
        }
      ],
      "name": "getLatestEntry",
      "outputs": [
        {
          "components": [
            {
              "internalType": "address",
              "name": "twicePrerotatedKeyHash",
              "type": "address"
            },
            {
              "internalType": "address",
              "name": "prerotatedKeyHash",
              "type": "address"
            },
            {
              "internalType": "address",
              "name": "publicKeyHash",
              "type": "address"
            },
            {
              "internalType": "address",
              "name": "prevPublicKeyHash",
              "type": "address"
            },
            {
              "internalType": "address",
              "name": "outputAddress",
              "type": "address"
            },
            {
              "internalType": "bool",
              "name": "hasRelationship",
              "type": "bool"
            },
            {
              "internalType": "bool",
              "name": "isOnChain",
              "type": "bool"
            },
            {
              "internalType": "enum KeyLogRegistry.KeyEventFlag",
              "name": "flag",
              "type": "uint8"
            }
          ],
          "internalType": "struct KeyLogRegistry.KeyLogEntry",
          "name": "",
          "type": "tuple"
        },
        {
          "internalType": "bool",
          "name": "",
          "type": "bool"
        }
      ],
      "stateMutability": "view",
      "type": "function"
    },
    {
      "inputs": [
        {
          "internalType": "address",
          "name": "prerotatedKeyHash",
          "type": "address"
        }
      ],
      "name": "getLatestEntryByPrerotatedKeyHash",
      "outputs": [
        {
          "components": [
            {
              "internalType": "address",
              "name": "twicePrerotatedKeyHash",
              "type": "address"
            },
            {
              "internalType": "address",
              "name": "prerotatedKeyHash",
              "type": "address"
            },
            {
              "internalType": "address",
              "name": "publicKeyHash",
              "type": "address"
            },
            {
              "internalType": "address",
              "name": "prevPublicKeyHash",
              "type": "address"
            },
            {
              "internalType": "address",
              "name": "outputAddress",
              "type": "address"
            },
            {
              "internalType": "bool",
              "name": "hasRelationship",
              "type": "bool"
            },
            {
              "internalType": "bool",
              "name": "isOnChain",
              "type": "bool"
            },
            {
              "internalType": "enum KeyLogRegistry.KeyEventFlag",
              "name": "flag",
              "type": "uint8"
            }
          ],
          "internalType": "struct KeyLogRegistry.KeyLogEntry",
          "name": "",
          "type": "tuple"
        },
        {
          "internalType": "bool",
          "name": "",
          "type": "bool"
        }
      ],
      "stateMutability": "view",
      "type": "function"
    },
    {
      "inputs": [
        {
          "internalType": "bytes",
          "name": "publicKey",
          "type": "bytes"
        }
      ],
      "name": "getPreviousEntry",
      "outputs": [
        {
          "components": [
            {
              "internalType": "address",
              "name": "twicePrerotatedKeyHash",
              "type": "address"
            },
            {
              "internalType": "address",
              "name": "prerotatedKeyHash",
              "type": "address"
            },
            {
              "internalType": "address",
              "name": "publicKeyHash",
              "type": "address"
            },
            {
              "internalType": "address",
              "name": "prevPublicKeyHash",
              "type": "address"
            },
            {
              "internalType": "address",
              "name": "outputAddress",
              "type": "address"
            },
            {
              "internalType": "bool",
              "name": "hasRelationship",
              "type": "bool"
            },
            {
              "internalType": "bool",
              "name": "isOnChain",
              "type": "bool"
            },
            {
              "internalType": "enum KeyLogRegistry.KeyEventFlag",
              "name": "flag",
              "type": "uint8"
            }
          ],
          "internalType": "struct KeyLogRegistry.KeyLogEntry",
          "name": "",
          "type": "tuple"
        },
        {
          "internalType": "bool",
          "name": "",
          "type": "bool"
        }
      ],
      "stateMutability": "view",
      "type": "function"
    },
    {
      "inputs": [
        {
          "internalType": "uint256",
          "name": "",
          "type": "uint256"
        }
      ],
      "name": "keyLogEntries",
      "outputs": [
        {
          "internalType": "address",
          "name": "twicePrerotatedKeyHash",
          "type": "address"
        },
        {
          "internalType": "address",
          "name": "prerotatedKeyHash",
          "type": "address"
        },
        {
          "internalType": "address",
          "name": "publicKeyHash",
          "type": "address"
        },
        {
          "internalType": "address",
          "name": "prevPublicKeyHash",
          "type": "address"
        },
        {
          "internalType": "address",
          "name": "outputAddress",
          "type": "address"
        },
        {
          "internalType": "bool",
          "name": "hasRelationship",
          "type": "bool"
        },
        {
          "internalType": "bool",
          "name": "isOnChain",
          "type": "bool"
        },
        {
          "internalType": "enum KeyLogRegistry.KeyEventFlag",
          "name": "flag",
          "type": "uint8"
        }
      ],
      "stateMutability": "view",
      "type": "function"
    },
    {
      "inputs": [],
      "name": "owner",
      "outputs": [
        {
          "internalType": "address",
          "name": "",
          "type": "address"
        }
      ],
      "stateMutability": "view",
      "type": "function"
    },
    {
      "inputs": [
        {
          "internalType": "bytes",
          "name": "publicKey",
          "type": "bytes"
        },
        {
          "internalType": "address",
          "name": "publicKeyHash",
          "type": "address"
        },
        {
          "internalType": "address",
          "name": "prerotatedKeyHash",
          "type": "address"
        },
        {
          "internalType": "address",
          "name": "twicePrerotatedKeyHash",
          "type": "address"
        },
        {
          "internalType": "address",
          "name": "prevPublicKeyHash",
          "type": "address"
        },
        {
          "internalType": "address",
          "name": "outputAddress",
          "type": "address"
        },
        {
          "internalType": "bool",
          "name": "hasRelationship",
          "type": "bool"
        }
      ],
      "name": "registerKeyLog",
      "outputs": [],
      "stateMutability": "nonpayable",
      "type": "function"
    },
    {
      "inputs": [
        {
          "internalType": "bytes",
          "name": "publicKey",
          "type": "bytes"
        },
        {
          "internalType": "address",
          "name": "unconfirmedPublicKeyHash",
          "type": "address"
        },
        {
          "internalType": "address",
          "name": "unconfirmedPrerotatedKeyHash",
          "type": "address"
        },
        {
          "internalType": "address",
          "name": "unconfirmedTwicePrerotatedKeyHash",
          "type": "address"
        },
        {
          "internalType": "address",
          "name": "unconfirmedPrevPublicKeyHash",
          "type": "address"
        },
        {
          "internalType": "address",
          "name": "unconfirmedOutputAddress",
          "type": "address"
        },
        {
          "internalType": "bool",
          "name": "unconfirmedHasRelationship",
          "type": "bool"
        },
        {
          "internalType": "address",
          "name": "confirmingPublicKeyHash",
          "type": "address"
        },
        {
          "internalType": "address",
          "name": "confirmingPrerotatedKeyHash",
          "type": "address"
        },
        {
          "internalType": "address",
          "name": "confirmingTwicePrerotatedKeyHash",
          "type": "address"
        },
        {
          "internalType": "address",
          "name": "confirmingPrevPublicKeyHash",
          "type": "address"
        },
        {
          "internalType": "address",
          "name": "confirmingOutputAddress",
          "type": "address"
        },
        {
          "internalType": "bool",
          "name": "confirmingHasRelationship",
          "type": "bool"
        }
      ],
      "name": "registerKeyLogPair",
      "outputs": [],
      "stateMutability": "nonpayable",
      "type": "function"
    },
    {
      "inputs": [],
      "name": "renounceOwnership",
      "outputs": [],
      "stateMutability": "nonpayable",
      "type": "function"
    },
    {
      "inputs": [
        {
          "internalType": "address",
          "name": "_caller",
          "type": "address"
        }
      ],
      "name": "setAuthorizedCaller",
      "outputs": [],
      "stateMutability": "nonpayable",
      "type": "function"
    },
    {
      "inputs": [
        {
          "internalType": "address",
          "name": "newOwner",
          "type": "address"
        }
      ],
      "name": "transferOwnership",
      "outputs": [],
      "stateMutability": "nonpayable",
      "type": "function"
    },
    {
      "inputs": [
        {
          "internalType": "bytes",
          "name": "publicKey",
          "type": "bytes"
        },
        {
          "internalType": "address",
          "name": "publicKeyHash",
          "type": "address"
        },
        {
          "internalType": "address",
          "name": "prerotatedKeyHash",
          "type": "address"
        },
        {
          "internalType": "address",
          "name": "twicePrerotatedKeyHash",
          "type": "address"
        },
        {
          "internalType": "address",
          "name": "prevPublicKeyHash",
          "type": "address"
        },
        {
          "internalType": "address",
          "name": "outputAddress",
          "type": "address"
        },
        {
          "internalType": "bool",
          "name": "hasRelationship",
          "type": "bool"
        },
        {
          "internalType": "bool",
          "name": "isPair",
          "type": "bool"
        },
        {
          "internalType": "address",
          "name": "confirmingPublicKeyHash",
          "type": "address"
        },
        {
          "internalType": "address",
          "name": "confirmingPrerotatedKeyHash",
          "type": "address"
        },
        {
          "internalType": "address",
          "name": "confirmingPrevPublicKeyHash",
          "type": "address"
        },
        {
          "internalType": "address",
          "name": "confirmingOutputAddress",
          "type": "address"
        },
        {
          "internalType": "bool",
          "name": "confirmingHasRelationship",
          "type": "bool"
        }
      ],
      "name": "validateTransaction",
      "outputs": [
        {
          "internalType": "enum KeyLogRegistry.KeyEventFlag",
          "name": "",
          "type": "uint8"
        },
        {
          "internalType": "enum KeyLogRegistry.KeyEventFlag",
          "name": "",
          "type": "uint8"
        }
      ],
      "stateMutability": "view",
      "type": "function"
    }
  ],
  "bytecode": "0x6080806040523461007a5733156100645760008054336001600160a01b03198216811783556040519290916001600160a01b0316907f8be0079c531659141344cd1fd0a4f28419497f9722a3daafe3b4186f6b6457e09080a361219390816100808239f35b631e4fbdf760e01b815260006004820152602490fd5b600080fdfe6080604052600436101561001257600080fd5b60003560e01c806325fb5bd9146112d9578063276c1ac01461128d5780632a39b65e14610fb85780632d2eca6a14610f80578063386f1d9f14610f365780635988f597146105925780635ed9739c1461051057806367c27cd4146104b7578063715018a61461045e5780638da5cb5b14610435578063919525511461041457806392e71104146103f357806397dc97cb146103ca578063c47ada2c14610380578063cf8fbec91461033d578063ec194f4a14610272578063ee93aac214610226578063f2fde38b14610198578063fb51e5bb146101555763fcbe4ef3146100f857600080fd5b34610150576040366003190112610150576101116114ed565b6001600160a01b03166000908152600560205260409020805460243591908210156101505760209161014291611603565b90546040519160031b1c8152f35b600080fd5b34610150576020366003190112610150576004356001600160401b0381116101505761018f61018a6020923690600401611429565b6118e7565b51604051908152f35b34610150576020366003190112610150576101b16114ed565b6101b9612131565b6001600160a01b0390811690811561020d57600054826bffffffffffffffffffffffff60a01b821617600055167f8be0079c531659141344cd1fd0a4f28419497f9722a3daafe3b4186f6b6457e0600080a3005b604051631e4fbdf760e01b815260006004820152602490fd5b34610150576020366003190112610150576004356001600160401b0381116101505761025961025e913690600401611429565b6120b9565b9061026e604051928392836115e6565b0390f35b34610150576101a0366003190112610150576004356001600160401b038111610150576102a3903690600401611429565b6102ab61147f565b906102b4611495565b6102bc6114ab565b916102c56114c1565b936102ce6114d7565b926102d761155f565b9460e4359687151588036101505760409761033b97610322976102f8611503565b9361030161151a565b9561030a611531565b97610313611548565b9961031c61156e565b9b611e85565b610331849392935180946113c9565b60208301906113c9565bf35b34610150576020366003190112610150576103566114ed565b61035e612131565b600680546001600160a01b0319166001600160a01b0392909216919091179055005b34610150576040366003190112610150576103996114ed565b6001600160a01b03166000908152600460205260409020805460243591908210156101505760209161014291611603565b34610150576000366003190112610150576006546040516001600160a01b039091168152602090f35b346101505760203660031901126101505761025e61040f6114ed565b611cd3565b346101505760203660031901126101505761025e6104306114ed565b611c17565b34610150576000366003190112610150576000546040516001600160a01b039091168152602090f35b3461015057600036600319011261015057610477612131565b600080546001600160a01b0319811682556001600160a01b03167f8be0079c531659141344cd1fd0a4f28419497f9722a3daafe3b4186f6b6457e08280a3005b34610150576040366003190112610150576104d06114ed565b6001600160a01b03166000908152600360205260409020805460243591908210156101505760209161050191611603565b90549060031b1c604051908152f35b3461015057602080600319360112610150576004356001600160401b0381116101505761018a610544913690600401611429565b604051906020820160208352815180915260206040840192019360005b82811061056e5784840385f35b90919282610100826105836001948a5161157e565b01960191019492919094610561565b34610150576101a0366003190112610150576004356001600160401b038111610150576105c3903690600401611429565b6105cb61147f565b906105d4611495565b6105dc6114ab565b6105e46114c1565b6105ec6114d7565b926105f561155f565b60e435939092906001600160a01b038516850361015057610614611503565b9561061d61151a565b91610626611531565b9561062f611548565b9961063861156e565b9060018060a01b036006541633148015610f22575b15610eec5761065b81611811565b82516020909301929092206001600160a01b0316908215610e7b5760c081015115610e365760408101516001600160a01b03908116908a1603610df15760208101516001600160a01b0316829003610db657516001600160a01b03908116908a1603610d55575b6001600160a01b038e1603610d10571580610cff575b15610c8157811580610c6c575b15610c33575b6001600160a01b038a811690841603610bb75781159182610ba1575b15610b5c5715928380610b47575b15610b02576001600160a01b0389811690881603610a9f576001600160a01b038c811690891603610a2a576107959160405191610751836113d6565b6001600160a01b03858116845289811660208501528e8116604085015288811660608501521660808301521560a0820152600160c0820181905260e0820152611689565b60015494856000198101116109905761084e9460018060a01b038c1660005260026020526107cb6000198801604060002061177d565b6001600160a01b0381166109fe575b506001600160a01b0381166109d2575b506001600160a01b0381166109a6575b5060405191610808836113d6565b6001600160a01b03908116808452888216602085015287821660408501528682166060850152981660808301521560a0820152600160c0820152600260e0820152611689565b600154600019810196908711610990577f65b9775e0ec7a02caf84b2523694b517ace341c14dd2b3926a5591d7b5f5a99695602095869460018060a01b038716600052600286526108a38a604060002061177d565b6001600160a01b03811661096d575b506001600160a01b03811661094a575b508061092f575b5060405160001990920182527fa9366f75c6c44e3c9ee299d368915abb2fa3108d469f3ab468ef239142dc725b926001600160a01b0390911691839190a26040518581526001600160a01b03831691908490a26040519384526001600160a01b031692a2005b6000526005835261094487604060002061177d565b876108c9565b60018060a01b03166000526004845261096788604060002061177d565b886108c2565b60018060a01b03166000526003855261098a89604060002061177d565b896108b2565b634e487b7160e01b600052601160045260246000fd5b6001600160a01b031660009081526005602052604090206109cc9060001986019061177d565b896107fa565b6001600160a01b031660009081526004602052604090206109f89060001987019061177d565b8a6107ea565b6001600160a01b03166000908152600360205260409020610a249060001988019061177d565b8b6107da565b60405162461bcd60e51b815260206004820152604160248201527f436f6e6669726d696e6720707265765075626c69634b657948617368206d757360448201527f74206d6174636820756e636f6e6669726d6564207075626c69634b65794861736064820152600d60fb1b608482015260a490fd5b60405162461bcd60e51b815260206004820152603560248201527f53657175656e6365206d69736d617463683a20707265726f74617465644b6579604482015274090c2e6d040427a40e0eac4d8d2c696caf290c2e6d605b1b6064820152608490fd5b60405162461bcd60e51b815260206004820152601d60248201527f496e76616c696420636f6e6669726d696e6720636f6e646974696f6e730000006044820152606490fd5b506001600160a01b038b8116908b1614610715565b60405162461bcd60e51b815260206004820152601e60248201527f556e636f6e6669726d656420636f6e646974696f6e73206e6f74206d657400006044820152606490fd5b506001600160a01b038481169088161415610707565b60405162461bcd60e51b815260206004820152604860248201527f53657175656e6365206d69736d617463683a207477696365507265726f74617460448201527f65644b65794861736820213d20636f6e6669726d696e67507265726f746174656064820152670c896caf290c2e6d60c31b608482015260a490fd5b60405162461bcd60e51b815260206004820152601160248201527024b73b30b634b21034b731b2b83a34b7b760791b6044820152606490fd5b506001600160a01b03848116908816146106e5565b818215610ce9575b6106eb57811580610cd4575b6106eb575b60405162461bcd60e51b8152602060048201526012602482015271496e76616c696420636f6e6669726d696e6760701b6044820152606490fd5b506001600160a01b0384811690881614610c95565b506001600160a01b038481169088161415610c89565b506001600160a01b038616156106d8565b60405162461bcd60e51b815260206004820152601860248201527f5075626c6963206b65792068617368206d69736d6174636800000000000000006044820152606490fd5b60405162461bcd60e51b815260206004820152603360248201527f507265726f7461746564206b6579206d757374206d617463682070726576696f6044820152721d5cc81d1dda58d9481c1c995c9bdd185d1959606a1b6064820152608490fd5b60405162461bcd60e51b81526020600482015260136024820152720a0eac4d8d2c640d6caf240dad2e6dac2e8c6d606b1b6044820152606490fd5b60405162461bcd60e51b815260206004820152601860248201527f50726576207075626c6963206b6579206d69736d6174636800000000000000006044820152606490fd5b60405162461bcd60e51b815260206004820152601f60248201527f50726576696f757320656e747279206d757374206265206f6e2d636861696e006044820152606490fd5b506001600160a01b038816156106c2575b60405162461bcd60e51b815260206004820152603260248201527f496e63657074696f6e206576656e742063616e6e6f74206861766520612070726044820152710caecbee0eac4d8d2c6bed6caf2bed0c2e6d60731b6064820152608490fd5b60405162461bcd60e51b815260206004820152600e60248201526d139bdd08185d5d1a1bdc9a5e995960921b6044820152606490fd5b506000546001600160a01b0316331461064d565b3461015057604036600319011261015057610f4f6114ed565b6001600160a01b03166000908152600260205260409020805460243591908210156101505760209161014291611603565b34610150576020366003190112610150576004356001600160401b03811161015057610fb361025e913690600401611429565b611811565b346101505760e0366003190112610150576004356001600160401b03811161015057610fe8903690600401611429565b610ff061147f565b90610ff9611495565b906110026114ab565b61100a6114c1565b926110136114d7565b9361101c61155f565b9261102685611811565b909760018060a01b0387602082995191012016988260001461127e5760c081015115610e36578760408201511688861603610df157898860208301511603610db65751871685881603610d555786905b16809803610d10571580611274575b1561122f57831580611222575b15610c33576000945b600386101594856111a9578615918215611213575b90818080611108969594604051966110c7886113d6565b169889875216968760208701528c604087015216998a6060860152166080840152151560a0830152151560c08201526111038660e0830161167d565b611689565b6001546000198101959086116109905786600052600260205261112f86604060002061177d565b806111f7575b50806111db575b50806111bf575b50837fa9366f75c6c44e3c9ee299d368915abb2fa3108d469f3ab468ef239142dc725b6020604051868152a26111a95760010361117c57005b60207f65b9775e0ec7a02caf84b2523694b517ace341c14dd2b3926a5591d7b5f5a99691604051908152a2005b634e487b7160e01b600052602160045260246000fd5b60005260056020526111d583604060002061177d565b84611143565b60005260046020526111f184604060002061177d565b8561113c565b600052600360205261120d85604060002061177d565b86611135565b600096506002881492506110b0565b5084831685871614611092565b83158481611266575b15611246575060019461109b565b80611259575b15610c9a5760029461109b565b508483168587161461124c565b508584168688161415611238565b5084821615611085565b50868416610e8c578690611076565b34610150576020366003190112610150576004356001600160401b038111610150576112c76112c26020923690600401611429565b61161b565b6040516001600160a01b039091168152f35b34610150576020366003190112610150576004356001548110156101505761130361010091611378565b5061033b60018060a01b03918281541692806001830154169181600282015416600483600384015416920154936040519687526020870152604086015260608501528116608084015260ff8160a01c16151560a084015260ff8160a81c16151560c084015260ff60e084019160b01c166113c9565b6001548110156113b3576005906001600052027fb10e2d527612073b26eecdfd717e6a320cf44b4afac2b0732d9fcbe2b7fa0cf60190600090565b634e487b7160e01b600052603260045260246000fd5b9060038210156111a95752565b61010081019081106001600160401b038211176113f257604052565b634e487b7160e01b600052604160045260246000fd5b90601f801991011681019081106001600160401b038211176113f257604052565b81601f82011215610150578035906001600160401b0382116113f2576040519261145d601f8401601f191660200185611408565b8284526020838301011161015057816000926020809301838601378301015290565b602435906001600160a01b038216820361015057565b604435906001600160a01b038216820361015057565b606435906001600160a01b038216820361015057565b608435906001600160a01b038216820361015057565b60a435906001600160a01b038216820361015057565b600435906001600160a01b038216820361015057565b61010435906001600160a01b038216820361015057565b61012435906001600160a01b038216820361015057565b61014435906001600160a01b038216820361015057565b61016435906001600160a01b038216820361015057565b60c43590811515820361015057565b6101843590811515820361015057565b9060e0806115e49360018060a01b03808251168552806020830151166020860152806040830151166040860152806060830151166060860152608082015116608085015260a0810151151560a085015260c0810151151560c085015201519101906113c9565b565b909291610100906115fc8361012081019661157e565b1515910152565b80548210156113b35760005260206000200190600090565b60408151036116385780516020909101206001600160a01b031690565b60405162461bcd60e51b815260206004820152601b60248201527f5075626c6963206b6579206d75737420626520363420627974657300000000006044820152606490fd5b60038210156111a95752565b600154600160401b8110156113f2578060016116a89201600155611378565b91909161176757600460018060a01b0392838351166bffffffffffffffffffffffff60a01b90818354161782556001820185602086015116828254161790556002820185604086015116828254161790556003820190856060860151169082541617905501916080820151169082549160ff60a01b60a0830151151560a01b169060e060ff60a81b60c0850151151560a81b1693015160038110156111a9576001600160b81b031990941617171760b09190911b60ff60b01b16179055565b634e487b7160e01b600052600060045260246000fd5b8054600160401b8110156113f25761179a91600182018155611603565b819291549060031b91821b91600019901b1916179055565b604051906117bf826113d6565b8160e06000918281528260208201528260408201528260608201528260808201528260a08201528260c08201520152565b8051156113b35760200190565b80518210156113b35760209160051b010190565b6118239061181d6117b2565b506118e7565b805115611848578051600019810190811161099057611841916117fd565b5190600190565b506118516117b2565b90600090565b6001600160401b0381116113f25760051b60200190565b906115e460405161187e816113d6565b60e060ff8295600460018060a01b039182815416865282600182015416602087015282600282015416604087015282600382015416606087015201549081166080850152818160a01c16151560a0850152818160a81c16151560c085015260b01c16910161167d565b6118f09061161b565b604080516001600160401b03939290610ca08101858111828210176113f25783526064815260005b610c808110611c00575060009161192d6117b2565b506119366117b2565b505b6001600160a01b0390811680845260026020908152858520865181548082529187528287209093918484019190885b818110611bec575050508361197d910384611408565b825115611b68575b50508051600019810191908211611b54576119a66119b2926119ac926117fd565b51611378565b5061186e565b906060820151169081156119c65750611938565b919293949550506001611a57575b506119ea6119e183611857565b93519384611408565b818352601f196119f983611857565b0160005b818110611a4057505060005b828110611a165750505090565b80611a23600192846117fd565b51611a2e82876117fd565b52611a3981866117fd565b5001611a09565b602090611a4b6117b2565b828288010152016119fd565b809250611a63826117f0565b52611a6d816117f0565b50602091820151600192906001600160a01b0390819081165b16600052600282528460002091855191828483829654958681520190600052836000206000955b808710611b3a575050611ac4929394500384611408565b82519283611ad757505050505b386119d4565b600019959293919291868101908111610990576119a66119ac91611afa936117fd565b9485611b0683876117fd565b52611b1182866117fd565b50811461099057826001839201950151168351851015611b32578190611a86565b505050611ad1565b815483526001968701968894509286019290910190611aad565b634e487b7160e01b85526011600452602485fd5b855260048082528686208751815480825291885283882090945084840191885b818110611bd85750505083611b9e910384611408565b82516119855792509596939492505081519485019285841090841117611bc5575052815290565b634e487b7160e01b845260419052602483fd5b825484529285019260019283019201611b88565b825484529285019260019283019201611967565b602090611c0b6117b2565b82828501015201611918565b611c1f6117b2565b5060009060018060a01b0316815260206002602052604082209060405180928391602082549182815201918652602086209386905b828210611cb957505050611c6a92500382611408565b805115611cab578051600019810192908311611c9757506119a6611c91926119ac926117fd565b90600190565b634e487b7160e01b81526011600452602490fd5b5090611cb56117b2565b9190565b855484526001958601958795509381019390910190611c54565b611cdb6117b2565b5060018060a01b0380911660009080825260209160048352604091828220908351808387829554938481520190865287862092865b89828210611e6f57505050611d2792500383611408565b815115611e06575b508051600019810191908211611df2576119a6611d4f926119ac926117fd565b938385015116815260028352818120908251809283918682549182815201918452868420935b87828210611ddc57505050611d8c92500382611408565b51611d9957505090600190565b60649250519062461bcd60e51b82526004820152601c60248201527f4e6f7420746865206c6174657374206b657920726f746174696f6e2e000000006044820152fd5b8554845260019586019587955093019201611d75565b634e487b7160e01b83526011600452602483fd5b90508152600583528181208251808286829454938481520190855286852092855b88828210611e5957505050611e3e92500382611408565b805115611e4b5738611d2f565b509392505050611cb56117b2565b8554845260019586019587955093019201611e27565b8554845260019586019588955093019201611d10565b9b959493909a9798929691999a611e9b8d611811565b8e516020909f019e909e206001600160a01b03169d919082156120495760c081015115610e365760408101516001600160a01b0390811690851603610df15760208101516001600160a01b03168f9003610db657516001600160a01b03908116908d1603610d55575b6001600160a01b03169c8d9003610d1057159081612037575b5015611fe257831580611fcd575b15610c33576000905b15611fbc57506001600160a01b039081169416849003610bb7578115611fa5575b5015610b5c57159182611f92575b505015610b02576001600160a01b03908116911603610a9f576001600160a01b031603610a2a57600190600290565b6001600160a01b03161490503880611f63565b6001600160a01b0387811691161415905038611f55565b995050505050505050505090600190565b506001600160a01b03838116908a1614611f2b565b83158481612021575b15611ff95750600190611f34565b8061200c575b15610c9a57600290611f34565b506001600160a01b03838116908a1614611fff565b506001600160a01b03848116908b161415611feb565b6001600160a01b031615905038611f1d565b506001600160a01b03831615611f045760405162461bcd60e51b815260206004820152603260248201527f496e63657074696f6e206576656e742063616e6e6f74206861766520612070726044820152710caecbee0eac4d8d2c6bed6caf2bed0c2e6d60731b6064820152608490fd5b6120c16117b2565b506001600160a01b03906120d49061161b565b16600090815260206004602052604082209060405180928391602082549182815201918652602086209386905b82821061211757505050611c6a92500382611408565b855484526001958601958795509381019390910190612101565b6000546001600160a01b0316330361214557565b60405163118cdaa760e01b8152336004820152602490fdfea26469706673582212209b08c704b2383a1f6c52d8d72471cc5eae046984285709feebd8d8d4e971a72e64736f6c63430008180033",
  "linkReferences": {},
  "deployedLinkReferences": {}
}