{
  "_format": "hh-sol-artifact-1",
  "contractName": "KeyLogRegistryUpgrade",
  "sourceName": "contracts/KeyLogRegistryUpgrade.sol",
  "abi": [
    {
      "inputs": [],
      "stateMutability": "nonpayable",
      "type": "constructor"
    },
    {
      "inputs": [
        {
          "internalType": "address",
          "name": "target",
          "type": "address"
        }
      ],
      "name": "AddressEmptyCode",
      "type": "error"
    },
    {
      "inputs": [
        {
          "internalType": "address",
          "name": "implementation",
          "type": "address"
        }
      ],
      "name": "ERC1967InvalidImplementation",
      "type": "error"
    },
    {
      "inputs": [],
      "name": "ERC1967NonPayable",
      "type": "error"
    },
    {
      "inputs": [],
      "name": "FailedCall",
      "type": "error"
    },
    {
      "inputs": [],
      "name": "InvalidInitialization",
      "type": "error"
    },
    {
      "inputs": [],
      "name": "InvalidOwnershipTransfer",
      "type": "error"
    },
    {
      "inputs": [],
      "name": "NotInitializing",
      "type": "error"
    },
    {
      "inputs": [
        {
          "internalType": "address",
          "name": "owner",
          "type": "address"
        }
      ],
      "name": "OwnableInvalidOwner",
      "type": "error"
    },
    {
      "inputs": [
        {
          "internalType": "address",
          "name": "account",
          "type": "address"
        }
      ],
      "name": "OwnableUnauthorizedAccount",
      "type": "error"
    },
    {
      "inputs": [],
      "name": "UUPSUnauthorizedCallContext",
      "type": "error"
    },
    {
      "inputs": [
        {
          "internalType": "bytes32",
          "name": "slot",
          "type": "bytes32"
        }
      ],
      "name": "UUPSUnsupportedProxiableUUID",
      "type": "error"
    },
    {
      "inputs": [],
      "name": "ZeroAddress",
      "type": "error"
    },
    {
      "anonymous": false,
      "inputs": [
        {
          "indexed": false,
          "internalType": "uint64",
          "name": "version",
          "type": "uint64"
        }
      ],
      "name": "Initialized",
      "type": "event"
    },
    {
      "anonymous": false,
      "inputs": [
        {
          "indexed": true,
          "internalType": "address",
          "name": "publicKeyHash",
          "type": "address"
        },
        {
          "indexed": false,
          "internalType": "uint256",
          "name": "index",
          "type": "uint256"
        }
      ],
      "name": "KeyLogRegistered",
      "type": "event"
    },
    {
      "anonymous": false,
      "inputs": [
        {
          "indexed": true,
          "internalType": "address",
          "name": "publicKeyHash",
          "type": "address"
        },
        {
          "indexed": false,
          "internalType": "uint256",
          "name": "index",
          "type": "uint256"
        }
      ],
      "name": "KeyRotated",
      "type": "event"
    },
    {
      "anonymous": false,
      "inputs": [
        {
          "indexed": true,
          "internalType": "address",
          "name": "previousOwner",
          "type": "address"
        },
        {
          "indexed": true,
          "internalType": "address",
          "name": "newOwner",
          "type": "address"
        }
      ],
      "name": "OwnershipTransferred",
      "type": "event"
    },
    {
      "anonymous": false,
      "inputs": [
        {
          "indexed": true,
          "internalType": "address",
          "name": "implementation",
          "type": "address"
        }
      ],
      "name": "Upgraded",
      "type": "event"
    },
    {
      "inputs": [],
      "name": "UPGRADE_INTERFACE_VERSION",
      "outputs": [
        {
          "internalType": "string",
          "name": "",
          "type": "string"
        }
      ],
      "stateMutability": "view",
      "type": "function"
    },
    {
      "inputs": [],
      "name": "authorizedCaller",
      "outputs": [
        {
          "internalType": "address",
          "name": "",
          "type": "address"
        }
      ],
      "stateMutability": "view",
      "type": "function"
    },
    {
      "inputs": [
        {
          "internalType": "bytes",
          "name": "publicKey",
          "type": "bytes"
        }
      ],
      "name": "buildFromPublicKey",
      "outputs": [
        {
          "components": [
            {
              "internalType": "address",
              "name": "twicePrerotatedKeyHash",
              "type": "address"
            },
            {
              "internalType": "address",
              "name": "prerotatedKeyHash",
              "type": "address"
            },
            {
              "internalType": "address",
              "name": "publicKeyHash",
              "type": "address"
            },
            {
              "internalType": "address",
              "name": "prevPublicKeyHash",
              "type": "address"
            },
            {
              "internalType": "address",
              "name": "outputAddress",
              "type": "address"
            },
            {
              "internalType": "bool",
              "name": "isOnChain",
              "type": "bool"
            },
            {
              "internalType": "enum KeyLogRegistryUpgrade.KeyEventFlag",
              "name": "flag",
              "type": "uint8"
            }
          ],
          "internalType": "struct KeyLogRegistryUpgrade.KeyLogEntry[]",
          "name": "",
          "type": "tuple[]"
        }
      ],
      "stateMutability": "view",
      "type": "function"
    },
    {
      "inputs": [
        {
          "internalType": "address",
          "name": "",
          "type": "address"
        }
      ],
      "name": "byPrerotatedKeyHash",
      "outputs": [
        {
          "internalType": "uint256",
          "name": "",
          "type": "uint256"
        }
      ],
      "stateMutability": "view",
      "type": "function"
    },
    {
      "inputs": [
        {
          "internalType": "address",
          "name": "",
          "type": "address"
        }
      ],
      "name": "byPrevPublicKeyHash",
      "outputs": [
        {
          "internalType": "uint256",
          "name": "",
          "type": "uint256"
        }
      ],
      "stateMutability": "view",
      "type": "function"
    },
    {
      "inputs": [
        {
          "internalType": "address",
          "name": "",
          "type": "address"
        }
      ],
      "name": "byPublicKeyHash",
      "outputs": [
        {
          "internalType": "uint256",
          "name": "",
          "type": "uint256"
        }
      ],
      "stateMutability": "view",
      "type": "function"
    },
    {
      "inputs": [
        {
          "internalType": "address",
          "name": "",
          "type": "address"
        }
      ],
      "name": "byTwicePrerotatedKeyHash",
      "outputs": [
        {
          "internalType": "uint256",
          "name": "",
          "type": "uint256"
        }
      ],
      "stateMutability": "view",
      "type": "function"
    },
    {
      "inputs": [
        {
          "internalType": "bytes",
          "name": "publicKey",
          "type": "bytes"
        }
      ],
      "name": "getAddressFromPublicKey",
      "outputs": [
        {
          "internalType": "address",
          "name": "",
          "type": "address"
        }
      ],
      "stateMutability": "pure",
      "type": "function"
    },
    {
      "inputs": [
        {
          "internalType": "bytes",
          "name": "publicKey",
          "type": "bytes"
        }
      ],
      "name": "getCurrentIndex",
      "outputs": [
        {
          "internalType": "uint256",
          "name": "",
          "type": "uint256"
        }
      ],
      "stateMutability": "view",
      "type": "function"
    },
    {
      "inputs": [
        {
          "internalType": "bytes",
          "name": "publicKey",
          "type": "bytes"
        }
      ],
      "name": "getLatestChainEntry",
      "outputs": [
        {
          "components": [
            {
              "internalType": "address",
              "name": "twicePrerotatedKeyHash",
              "type": "address"
            },
            {
              "internalType": "address",
              "name": "prerotatedKeyHash",
              "type": "address"
            },
            {
              "internalType": "address",
              "name": "publicKeyHash",
              "type": "address"
            },
            {
              "internalType": "address",
              "name": "prevPublicKeyHash",
              "type": "address"
            },
            {
              "internalType": "address",
              "name": "outputAddress",
              "type": "address"
            },
            {
              "internalType": "bool",
              "name": "isOnChain",
              "type": "bool"
            },
            {
              "internalType": "enum KeyLogRegistryUpgrade.KeyEventFlag",
              "name": "flag",
              "type": "uint8"
            }
          ],
          "internalType": "struct KeyLogRegistryUpgrade.KeyLogEntry",
          "name": "",
          "type": "tuple"
        },
        {
          "internalType": "bool",
          "name": "",
          "type": "bool"
        }
      ],
      "stateMutability": "view",
      "type": "function"
    },
    {
      "inputs": [
        {
          "internalType": "address",
          "name": "publicKeyHash",
          "type": "address"
        }
      ],
      "name": "getLatestChainEntry",
      "outputs": [
        {
          "components": [
            {
              "internalType": "address",
              "name": "twicePrerotatedKeyHash",
              "type": "address"
            },
            {
              "internalType": "address",
              "name": "prerotatedKeyHash",
              "type": "address"
            },
            {
              "internalType": "address",
              "name": "publicKeyHash",
              "type": "address"
            },
            {
              "internalType": "address",
              "name": "prevPublicKeyHash",
              "type": "address"
            },
            {
              "internalType": "address",
              "name": "outputAddress",
              "type": "address"
            },
            {
              "internalType": "bool",
              "name": "isOnChain",
              "type": "bool"
            },
            {
              "internalType": "enum KeyLogRegistryUpgrade.KeyEventFlag",
              "name": "flag",
              "type": "uint8"
            }
          ],
          "internalType": "struct KeyLogRegistryUpgrade.KeyLogEntry",
          "name": "",
          "type": "tuple"
        },
        {
          "internalType": "bool",
          "name": "",
          "type": "bool"
        }
      ],
      "stateMutability": "view",
      "type": "function"
    },
    {
      "inputs": [
        {
          "internalType": "address",
          "name": "publicKeyHash",
          "type": "address"
        }
      ],
      "name": "getLatestEntry",
      "outputs": [
        {
          "components": [
            {
              "internalType": "address",
              "name": "twicePrerotatedKeyHash",
              "type": "address"
            },
            {
              "internalType": "address",
              "name": "prerotatedKeyHash",
              "type": "address"
            },
            {
              "internalType": "address",
              "name": "publicKeyHash",
              "type": "address"
            },
            {
              "internalType": "address",
              "name": "prevPublicKeyHash",
              "type": "address"
            },
            {
              "internalType": "address",
              "name": "outputAddress",
              "type": "address"
            },
            {
              "internalType": "bool",
              "name": "isOnChain",
              "type": "bool"
            },
            {
              "internalType": "enum KeyLogRegistryUpgrade.KeyEventFlag",
              "name": "flag",
              "type": "uint8"
            }
          ],
          "internalType": "struct KeyLogRegistryUpgrade.KeyLogEntry",
          "name": "",
          "type": "tuple"
        },
        {
          "internalType": "bool",
          "name": "",
          "type": "bool"
        }
      ],
      "stateMutability": "view",
      "type": "function"
    },
    {
      "inputs": [
        {
          "internalType": "address",
          "name": "prerotatedKeyHash",
          "type": "address"
        }
      ],
      "name": "getLatestEntryByPrerotatedKeyHash",
      "outputs": [
        {
          "components": [
            {
              "internalType": "address",
              "name": "twicePrerotatedKeyHash",
              "type": "address"
            },
            {
              "internalType": "address",
              "name": "prerotatedKeyHash",
              "type": "address"
            },
            {
              "internalType": "address",
              "name": "publicKeyHash",
              "type": "address"
            },
            {
              "internalType": "address",
              "name": "prevPublicKeyHash",
              "type": "address"
            },
            {
              "internalType": "address",
              "name": "outputAddress",
              "type": "address"
            },
            {
              "internalType": "bool",
              "name": "isOnChain",
              "type": "bool"
            },
            {
              "internalType": "enum KeyLogRegistryUpgrade.KeyEventFlag",
              "name": "flag",
              "type": "uint8"
            }
          ],
          "internalType": "struct KeyLogRegistryUpgrade.KeyLogEntry",
          "name": "",
          "type": "tuple"
        },
        {
          "internalType": "bool",
          "name": "",
          "type": "bool"
        }
      ],
      "stateMutability": "view",
      "type": "function"
    },
    {
      "inputs": [
        {
          "internalType": "bytes",
          "name": "publicKey",
          "type": "bytes"
        }
      ],
      "name": "getPreviousEntry",
      "outputs": [
        {
          "components": [
            {
              "internalType": "address",
              "name": "twicePrerotatedKeyHash",
              "type": "address"
            },
            {
              "internalType": "address",
              "name": "prerotatedKeyHash",
              "type": "address"
            },
            {
              "internalType": "address",
              "name": "publicKeyHash",
              "type": "address"
            },
            {
              "internalType": "address",
              "name": "prevPublicKeyHash",
              "type": "address"
            },
            {
              "internalType": "address",
              "name": "outputAddress",
              "type": "address"
            },
            {
              "internalType": "bool",
              "name": "isOnChain",
              "type": "bool"
            },
            {
              "internalType": "enum KeyLogRegistryUpgrade.KeyEventFlag",
              "name": "flag",
              "type": "uint8"
            }
          ],
          "internalType": "struct KeyLogRegistryUpgrade.KeyLogEntry",
          "name": "",
          "type": "tuple"
        },
        {
          "internalType": "bool",
          "name": "",
          "type": "bool"
        }
      ],
      "stateMutability": "view",
      "type": "function"
    },
    {
      "inputs": [],
      "name": "getTestString",
      "outputs": [
        {
          "internalType": "string",
          "name": "",
          "type": "string"
        }
      ],
      "stateMutability": "pure",
      "type": "function"
    },
    {
      "inputs": [
        {
          "internalType": "address",
          "name": "initialOwner",
          "type": "address"
        }
      ],
      "name": "initialize",
      "outputs": [],
      "stateMutability": "nonpayable",
      "type": "function"
    },
    {
      "inputs": [
        {
          "internalType": "address",
          "name": "currentOwner",
          "type": "address"
        },
        {
          "internalType": "address",
          "name": "newOwner",
          "type": "address"
        }
      ],
      "name": "isValidOwnershipTransfer",
      "outputs": [
        {
          "internalType": "bool",
          "name": "",
          "type": "bool"
        }
      ],
      "stateMutability": "view",
      "type": "function"
    },
    {
      "inputs": [
        {
          "internalType": "uint256",
          "name": "",
          "type": "uint256"
        }
      ],
      "name": "keyLogEntries",
      "outputs": [
        {
          "internalType": "address",
          "name": "twicePrerotatedKeyHash",
          "type": "address"
        },
        {
          "internalType": "address",
          "name": "prerotatedKeyHash",
          "type": "address"
        },
        {
          "internalType": "address",
          "name": "publicKeyHash",
          "type": "address"
        },
        {
          "internalType": "address",
          "name": "prevPublicKeyHash",
          "type": "address"
        },
        {
          "internalType": "address",
          "name": "outputAddress",
          "type": "address"
        },
        {
          "internalType": "bool",
          "name": "isOnChain",
          "type": "bool"
        },
        {
          "internalType": "enum KeyLogRegistryUpgrade.KeyEventFlag",
          "name": "flag",
          "type": "uint8"
        }
      ],
      "stateMutability": "view",
      "type": "function"
    },
    {
      "inputs": [],
      "name": "owner",
      "outputs": [
        {
          "internalType": "address",
          "name": "",
          "type": "address"
        }
      ],
      "stateMutability": "view",
      "type": "function"
    },
    {
      "inputs": [],
      "name": "proxiableUUID",
      "outputs": [
        {
          "internalType": "bytes32",
          "name": "",
          "type": "bytes32"
        }
      ],
      "stateMutability": "view",
      "type": "function"
    },
    {
      "inputs": [
        {
          "internalType": "bytes",
          "name": "publicKey",
          "type": "bytes"
        },
        {
          "internalType": "address",
          "name": "prerotatedKeyHash",
          "type": "address"
        },
        {
          "internalType": "address",
          "name": "twicePrerotatedKeyHash",
          "type": "address"
        },
        {
          "internalType": "address",
          "name": "prevPublicKeyHash",
          "type": "address"
        },
        {
          "internalType": "address",
          "name": "outputAddress",
          "type": "address"
        }
      ],
      "name": "registerKeyLog",
      "outputs": [],
      "stateMutability": "nonpayable",
      "type": "function"
    },
    {
      "inputs": [
        {
          "internalType": "bytes",
          "name": "unconfirmedPublicKey",
          "type": "bytes"
        },
        {
          "internalType": "address",
          "name": "unconfirmedPrerotatedKeyHash",
          "type": "address"
        },
        {
          "internalType": "address",
          "name": "unconfirmedTwicePrerotatedKeyHash",
          "type": "address"
        },
        {
          "internalType": "address",
          "name": "unconfirmedPrevPublicKeyHash",
          "type": "address"
        },
        {
          "internalType": "address",
          "name": "unconfirmedOutputAddress",
          "type": "address"
        },
        {
          "internalType": "bytes",
          "name": "confirmingPublicKey",
          "type": "bytes"
        },
        {
          "internalType": "address",
          "name": "confirmingPrerotatedKeyHash",
          "type": "address"
        },
        {
          "internalType": "address",
          "name": "confirmingTwicePrerotatedKeyHash",
          "type": "address"
        },
        {
          "internalType": "address",
          "name": "confirmingPrevPublicKeyHash",
          "type": "address"
        },
        {
          "internalType": "address",
          "name": "confirmingOutputAddress",
          "type": "address"
        }
      ],
      "name": "registerKeyLogPair",
      "outputs": [],
      "stateMutability": "nonpayable",
      "type": "function"
    },
    {
      "inputs": [],
      "name": "renounceOwnership",
      "outputs": [],
      "stateMutability": "nonpayable",
      "type": "function"
    },
    {
      "inputs": [
        {
          "internalType": "address",
          "name": "_caller",
          "type": "address"
        }
      ],
      "name": "setAuthorizedCaller",
      "outputs": [],
      "stateMutability": "nonpayable",
      "type": "function"
    },
    {
      "inputs": [
        {
          "internalType": "address",
          "name": "newOwner",
          "type": "address"
        }
      ],
      "name": "transferOwnership",
      "outputs": [],
      "stateMutability": "nonpayable",
      "type": "function"
    },
    {
      "inputs": [
        {
          "internalType": "address",
          "name": "newImplementation",
          "type": "address"
        },
        {
          "internalType": "bytes",
          "name": "data",
          "type": "bytes"
        }
      ],
      "name": "upgradeToAndCall",
      "outputs": [],
      "stateMutability": "payable",
      "type": "function"
    },
    {
      "inputs": [
        {
          "internalType": "bytes",
          "name": "publicKey",
          "type": "bytes"
        },
        {
          "internalType": "address",
          "name": "publicKeyHash",
          "type": "address"
        },
        {
          "internalType": "address",
          "name": "prerotatedKeyHash",
          "type": "address"
        },
        {
          "internalType": "address",
          "name": "twicePrerotatedKeyHash",
          "type": "address"
        },
        {
          "internalType": "address",
          "name": "prevPublicKeyHash",
          "type": "address"
        },
        {
          "internalType": "address",
          "name": "outputAddress",
          "type": "address"
        },
        {
          "internalType": "bytes",
          "name": "confirmingPublicKey",
          "type": "bytes"
        },
        {
          "internalType": "address",
          "name": "confirmingPublicKeyHash",
          "type": "address"
        },
        {
          "internalType": "address",
          "name": "confirmingPrerotatedKeyHash",
          "type": "address"
        },
        {
          "internalType": "address",
          "name": "confirmingTwicePrerotatedKeyHash",
          "type": "address"
        },
        {
          "internalType": "address",
          "name": "confirmingPrevPublicKeyHash",
          "type": "address"
        },
        {
          "internalType": "address",
          "name": "confirmingOutputAddress",
          "type": "address"
        },
        {
          "internalType": "bool",
          "name": "isPair",
          "type": "bool"
        }
      ],
      "name": "validateTransaction",
      "outputs": [
        {
          "internalType": "enum KeyLogRegistryUpgrade.KeyEventFlag",
          "name": "",
          "type": "uint8"
        },
        {
          "internalType": "enum KeyLogRegistryUpgrade.KeyEventFlag",
          "name": "",
          "type": "uint8"
        }
      ],
      "stateMutability": "view",
      "type": "function"
    }
  ],
  "bytecode": "0x60a080604052346100cc57306080527ff0c57e16840df040f15088dc2f81fe391c3923bec73e23a9662efc9c229c6a009081549060ff8260401c166100bd57506001600160401b036002600160401b031982821601610078575b60405161239e90816100d282396080518181816111f901526112a10152f35b6001600160401b031990911681179091556040519081527fc7f505b2f371ae2175ee4913f4499e1f2633a7b5936321eed1cdaeb6115181d290602090a1388080610059565b63f92ee8a960e01b8152600490fd5b600080fdfe6080604052600436101561001257600080fd5b60e060003560e01c90816318fdb6f81461165957816325fb5bd9146115c9578163276c1ac0146115825781632bf2fac9146115485781632d2eca6a146115105781632f91be48146114ba578163401795b2146114805781634f1ef2861461126357816352d1902d146111e65781635ed9739c1461115857508063614c527614610d8c578063715018a614610d2257806385687dcd146105eb5780638da5cb5b146105b5578063919525511461059457806392e711041461057357806397dc97cb1461054a5780639fa17f9114610510578063a375e472146104d6578063a54f311c146103e5578063a5e49bda146103c4578063ad3cb1cc14610386578063c4d66de814610253578063cf8fbec914610210578063ee93aac2146101c4578063f2fde38b146101995763fb51e5bb1461014957600080fd5b34610194576020366003190112610194576004356001600160401b0381116101945761018b6101866101816020933690600401611876565b6119e8565b611fd4565b51604051908152f35b600080fd5b34610194576020366003190112610194576101c26101b561168f565b6101bd612215565b611f8c565b005b34610194576020366003190112610194576004356001600160401b038111610194576101f76101fc913690600401611876565b611f44565b9061020c604051928392836118f0565b0390f35b346101945760203660031901126101945761022961168f565b610231612215565b600580546001600160a01b0319166001600160a01b0392909216919091179055005b346101945760203660031901126101945761026c61168f565b7ff0c57e16840df040f15088dc2f81fe391c3923bec73e23a9662efc9c229c6a0090815460ff8160401c1615916001600160401b0382168015908161037e575b6001149081610374575b15908161036b575b506103595767ffffffffffffffff19821660011784556102ef918361033a575b506102e76122a4565b6101bd6122a4565b6102f76122a4565b6102fd57005b68ff00000000000000001981541690557fc7f505b2f371ae2175ee4913f4499e1f2633a7b5936321eed1cdaeb6115181d2602060405160018152a1005b68ffffffffffffffffff191668010000000000000001178455846102de565b60405163f92ee8a960e01b8152600490fd5b905015856102be565b303b1591506102b6565b8491506102ac565b346101945760003660031901126101945761020c6040516103a6816117cd565b60058152640352e302e360dc1b60208201526040519182918261190c565b34610194576020366003190112610194576101fc6103e061168f565b611f32565b34610194576101a0366003190112610194576001600160401b0360043581811161019457610417903690600401611876565b61041f6116a5565b906104286116bb565b926104316116d1565b9061043a6116e7565b6001600160a01b039160a4359083821682036101945760c43590811161019457610468903690600401611876565b6104706116fd565b610478611713565b9161048161172a565b9361014435958787168703610194576101643597881688036101945761018435988915158a036101945760409c6104d49c6104bb9c611d25565b6104ca8493929351809461178f565b602083019061178f565bf35b34610194576020366003190112610194576001600160a01b036104f761168f565b1660005260016020526020604060002054604051908152f35b34610194576020366003190112610194576001600160a01b0361053161168f565b1660005260046020526020604060002054604051908152f35b34610194576000366003190112610194576005546040516001600160a01b039091168152602090f35b34610194576020366003190112610194576101fc61058f61168f565b611c8e565b34610194576020366003190112610194576101fc6105b061168f565b611c43565b3461019457600036600319011261019457600080516020612349833981519152546040516001600160a01b039091168152602090f35b3461019457610140366003190112610194576001600160401b036004358181116101945761061d903690600401611955565b906106266116a5565b9061062f6116bb565b6106376116d1565b906106406116e7565b9560a43590811161019457610659903690600401611955565b9260c4356001600160a01b0381169003610194576106756116fd565b9761067e611713565b9461068761172a565b9360018060a01b036005541633148015610d01575b15610194576106d96106eb916106d16106ba6101818c8f369161183f565b9a6106c961018136888661183f565b9d369161183f565b93369161183f565b916106e381611a74565b9290916119e8565b908215610cec5760a0810151156101945760408101516001600160a01b03908116908716036101945760208101516001600160a01b039081169083160361019457516001600160a01b03908116908b1603610194575b6001600160a01b03898116911603610194576001600160a01b038416600090815260026020526040902054610194576001600160a01b038816600090815260016020526040902054610194576001600160a01b038916600090815260036020526040902054610194576001600160a01b038616600090815260046020526040902054610194571580610cdb575b15610cd2576001600160a01b0388811690831603610194576107ef906119e8565b6001600160a01b03898116911603610194576001600160a01b0360c435811690851603610194576001600160a01b0360c435811690841603610194576001600160a01b0388811690881603610194576001600160a01b0386811690861603610194576001600160a01b038516600090815260026020526040902054610194576001600160a01b0388166000908152600160205260409020546101945760c4356001600160a01b0316600090815260036020526040902054610194576001600160a01b03891660009081526004602052604090205461019457604051610915916108d78261179c565b6001600160a01b038681168352898116602084015288811660408401528481166060840152166080820152600160a0820181905260c0820152611ac9565b6000549586600019810111610c07576001600160a01b03868116600090815260016020526040812089905592908116610cb0575b50816001600160a01b038216610c8b575b50506001600160a01b038316610c66575b506109be91506040519061097e8261179c565b6001600160a01b03888116835260c4358116602084015287811660408401528481166060840152166080820152600160a0820152600260c0820152611ac9565b600054600019810195818711610c07576001600160a01b03868116600090815260016020526040812084905593908116610c44575b5060c4356001600160a01b03161592808415610c1d575b506001600160a01b038216610be3575b5050600080516020612349833981519152546001600160a01b0390811692915083168214610ad0575b6040516000198501815286907f65b9775e0ec7a02caf84b2523694b517ace341c14dd2b3926a5591d7b5f5a9969060209088907fa9366f75c6c44e3c9ee299d368915abb2fa3108d469f3ab468ef239142dc725b906001600160a01b0389169082908590a26040518581526001600160a01b03831691908490a26040519384526001600160a01b031692a2005b6005549294926001600160a01b031633148015610bda575b1561019457610bc85760405163031fb6df60e31b8152600481019190915260c4356001600160a01b03166024820152602081604481305afa908115610bbc57600091610b81575b5015610b6f57602080927f65b9775e0ec7a02caf84b2523694b517ace341c14dd2b3926a5591d7b5f5a99694610b6660c43561224e565b92945092610a43565b60405163b012a29560e01b8152600490fd5b90506020813d602011610bb4575b81610b9c60209383611803565b81010312610194575180151581036101945785610b2f565b3d9150610b8f565b6040513d6000823e3d90fd5b60405163d92e233d60e01b8152600490fd5b50813314610ae8565b610c07576001600160a01b0316600090815260046020526040902055858080610a1a565b634e487b7160e01b600052601160045260246000fd5b610c075760c4356001600160a01b0316600090815260036020526040902083905580610a0a565b6001600160a01b031660009081526002602052604081208390559250876109f3565b610c07576109be9160018060a01b03166000526004602052846040600020558761096b565b610c07576001600160a01b03166000908152600360205260409020869055888161095a565b6001600160a01b03166000908152600260205260408120889055915089610949565b6107ef906119e8565b506001600160a01b038316156107ce565b506001600160a01b0385161561074157600080fd5b50600080516020612349833981519152546001600160a01b0316331461069c565b3461019457600036600319011261019457610d3b612215565b60008051602061234983398151915280546001600160a01b031981169091556000906001600160a01b03167f8be0079c531659141344cd1fd0a4f28419497f9722a3daafe3b4186f6b6457e08280a3005b346101945760a0366003190112610194576004356001600160401b03811161019457610dbc903690600401611876565b610dc46116a5565b90610dcd6116bb565b90610dd66116d1565b91610ddf6116e7565b6005546001600160a01b03939084163314801561113e575b1561019457610e2a94610e09826119e8565b916000604051610e18816117e8565b52610e2281611a74565b9790916119e8565b90871561112e5760a0810151156101945786604082015116878416036101945786602082015116878316036101945751861688871603610194578580935b16958691160361019457811691826000526020956002875260406000205461019457856000526001875260406000205461019457828816948560005260038852604060002054610194578316908160005260048852604060002054610194571580611126575b1561110b57848383160361019457826000925b16808603610194576003831015908161109c57831580156110fd575b90610f419160405191610f0f8361179c565b858352898c8401528a60408401528860608401526080830152151560a0820152610f3c8560c08301611abd565b611ac9565b600054600019810192818411610c07576000968960005260018b5282604060002055806110e4575b508715968088156110cb575b50816110b2575b505050867fa9366f75c6c44e3c9ee299d368915abb2fa3108d469f3ab468ef239142dc725b89604051858152a261109c5786600187930361106b575b505050806000805160206123498339815191525416938414610fd657005b6005541633148015611062575b1561019457610bc8576040519163031fb6df60e31b8352600483015260248201528181604481305afa918215610bbc5760009261102b575b505015610b6f576101c29061224e565b90809250813d831161105b575b6110428183611803565b810103126101945751801515810361019457828061101b565b503d611038565b50823314610fe3565b7f65b9775e0ec7a02caf84b2523694b517ace341c14dd2b3926a5591d7b5f5a99691604051908152a2838786610fb8565b634e487b7160e01b600052602160045260246000fd5b610c075760005260048952604060002055898080610f7c565b610c07578860005260038b528260406000205580610f75565b965060009660005260028a52816040600020558b610f69565b506000915060028414610efd565b818316851461111d5782600192610ee1565b82600292610ee1565b508315610ece565b5085821661019457858093610e68565b508360008051602061234983398151915254163314610df7565b34610194576020906020600319360112610194576004356001600160401b0381116101945761119261018661018185933690600401611876565b60405192839260208401906020855283518092526020604086019401926000905b8382106111c05786860387f35b9184965082866111d66001949698849851611894565b01960192018695949293916111b3565b34610194576000366003190112610194577f00000000000000000000000000000000000000000000000000000000000000006001600160a01b031630036112515760206040517f360894a13ba1a3210667c828492db98dca3e2076cc3735a920a3ca505d382bbc8152f35b60405163703e46dd60e11b8152600490fd5b60403660031901126101945761127761168f565b6024356001600160401b03811161019457611296903690600401611876565b906001600160a01b037f00000000000000000000000000000000000000000000000000000000000000008116308114908115611452575b50611251576112da612215565b6040516352d1902d60e01b8152908216916020918281600481875afa60009181611423575b5061131d57604051634c9c8ce360e01b815260048101859052602490fd5b9284937f360894a13ba1a3210667c828492db98dca3e2076cc3735a920a3ca505d382bbc9081810361140b5750823b156113f25780546001600160a01b03191682179055604051907fbc7cd75a20ee27fd9adebab32041f755214dbc6bffa90cc0225b39da2e5c2d3b600080a28351156113d8575060008084846101c296519101845af4903d156113cf573d6113b281611824565b906113c06040519283611803565b8152600081943d92013e6122e5565b606092506122e5565b92505050346113e357005b63b398979f60e01b8152600490fd5b604051634c9c8ce360e01b815260048101839052602490fd5b60249060405190632a87526960e21b82526004820152fd5b9091508381813d831161144b575b61143b8183611803565b81010312610194575190866112ff565b503d611431565b9050817f360894a13ba1a3210667c828492db98dca3e2076cc3735a920a3ca505d382bbc54161415846112cd565b34610194576020366003190112610194576001600160a01b036114a161168f565b1660005260026020526020604060002054604051908152f35b346101945760003660031901126101945761020c6040516114da816117cd565b601b81527f5570677261646564204b65794c6f67526567697374727920763521000000000060208201526040519182918261190c565b34610194576020366003190112610194576004356001600160401b038111610194576115436101fc913690600401611876565b611a74565b34610194576020366003190112610194576001600160a01b0361156961168f565b1660005260036020526020604060002054604051908152f35b34610194576020366003190112610194576004356001600160401b038111610194576115b76101816020923690600401611876565b6040516001600160a01b039091168152f35b3461019457602036600319011261019457600435600054811015610194576115f260e091611741565b506104d460018060a01b03918281541692806001830154169181600282015416600483600384015416920154936040519687526020870152604086015260608501528116608084015260ff8160a01c16151560a084015260ff60c084019160a81c1661178f565b3461019457604036600319011261019457602061168561167761168f565b61167f6116a5565b90611982565b6040519015158152f35b600435906001600160a01b038216820361019457565b602435906001600160a01b038216820361019457565b604435906001600160a01b038216820361019457565b606435906001600160a01b038216820361019457565b608435906001600160a01b038216820361019457565b60e435906001600160a01b038216820361019457565b61010435906001600160a01b038216820361019457565b61012435906001600160a01b038216820361019457565b90600091825481101561177b57600590838052027f290decd9548b62a8d60345a988386fc84ba6bc95484008f6362f93160ef3e563019190565b634e487b7160e01b83526032600452602483fd5b90600382101561109c5752565b60e081019081106001600160401b038211176117b757604052565b634e487b7160e01b600052604160045260246000fd5b604081019081106001600160401b038211176117b757604052565b602081019081106001600160401b038211176117b757604052565b90601f801991011681019081106001600160401b038211176117b757604052565b6001600160401b0381116117b757601f01601f191660200190565b92919261184b82611824565b916118596040519384611803565b829481845281830111610194578281602093846000960137010152565b9080601f83011215610194578160206118919335910161183f565b90565b9060c0806118ee9360018060a01b03808251168552806020830151166020860152806040830151166040860152806060830151166060860152608082015116608085015260a0810151151560a0850152015191019061178f565b565b90929160e09061190583610100810196611894565b1515910152565b6020808252825181830181905290939260005b82811061194157505060409293506000838284010152601f8019910116010190565b81810186015184820160400152850161191f565b9181601f84011215610194578235916001600160401b038311610194576020838186019501011161019457565b6001600160a01b0391908281161580156119de575b6119d6576119a490611f32565b929092156119d6578060208401511691161490816119c0575090565b60c091500151600381101561109c576001141590565b505050600090565b5082821615611997565b80516040810361019457602091909101206001600160a01b031690565b60405190611a128261179c565b8160c06000918281528260208201528260408201528260608201528260808201528260a08201520152565b805115611a4a5760200190565b634e487b7160e01b600052603260045260246000fd5b8051821015611a4a5760209160051b010190565b610186611a8991611a83611a05565b506119e8565b805115611aae5780516000198101908111610c0757611aa791611a60565b5190600190565b50611ab7611a05565b90600090565b600382101561109c5752565b6000805468010000000000000000811015611bc357806001611aed92018355611741565b929092611baf57600460018060a01b0393848351166bffffffffffffffffffffffff60a01b908183541617825560018201866020860151168282541617905560028201866040860151168282541617905560038201908660608601511690825416179055019260808201511683549260c060ff60a01b60a0850151151560a01b16930151906003821015611b9b57506001600160b01b0319909316171760a89190911b60ff60a81b16179055565b634e487b7160e01b81526021600452602490fd5b634e487b7160e01b82526004829052602482fd5b634e487b7160e01b82526041600452602482fd5b906118ee604051611be78161179c565b60c060ff8295600460018060a01b039182815416865282600182015416602087015282600282015416604087015282600382015416606087015201549081166080850152818160a01c16151560a085015260a81c169101611abd565b611c4b611a05565b506001600160a01b03166000908152600160205260409020548015611aae576000198101908111610c0757611c82611c8891611741565b50611bd7565b90600190565b611c96611a05565b506001600160a01b039081166000908152600360205260408120548015611d05575b6000198101908111611cf157611c82611cd091611741565b91602083015116815260016020526040812054611cee575090600190565b80fd5b634e487b7160e01b82526011600452602482fd5b506004602052604081205480611cb85750919050611d21611a05565b9190565b979294611d479a959b949997929b969196611d3f8a611a74565b9c909a6119e8565b998c15611f1d5760a0810151156101945760408101516001600160a01b039081168d8216036101945780602083015116818d160361019457808f925116911603610194575b6001600160a01b0399978a16978a16889003610194578960029b169b8c9160009e8f9e8f5260209d8e5260409e8f902054611f19578f8f908f6001908e8352522054611f1957908f8f908f9a999897969594938f600391169b8c8352522054611f1957908f8f908f9c9b9a999897969594938f600491169d8e8352522054611f1957159081611f10575b5015611ef757858b821603611ef3578d9e5b15611ece5750899a9b9c9d5098611e418198999a6119e8565b91169687911603611eca578816809603611ec6578786911603611ec2578303611ebe578516908103611eba5787526002855285872054611eb65786526001845284862054611eb25785526003835283852054611eae5716835260049052812054611cee5750600190600290565b8480fd5b8580fd5b8680fd5b8780fd5b8880fd5b8980fd5b8a80fd5b8b80fd5b9750505050965094965050508491501603611eef5716611cee575090600190565b8280fd5b8d80fd5b808b168614611f085760019e611e28565b60029e611e28565b90501538611e16565b8f80fd5b506001600160a01b038b1615611d8c57600080fd5b611a8990611f3e611a05565b50611fd4565b611f4c611a05565b506001600160a01b0390611f5f906119e8565b1660005260036020526040600020548015611aae576000198101908111610c0757611c82611c8891611741565b6001600160a01b03811615611fa4576118ee9061224e565b604051631e4fbdf760e01b815260006004820152602490fd5b6001600160401b0381116117b75760051b60200190565b906040805192610ca084018481106001600160401b038211176117b75782526064845260005b610c8081106121fe575060009061200f611a05565b50612018611a05565b505b6001600160a01b03908116825260016020818152848420549081156121ef575b81156121e0575b5080156121ca5760001981019081116121b657611c8261206091611741565b9160608301511691821561207557505061201a565b909150949192939490612106575b5061209961209083611fbd565b93519384611803565b818352601f196120a883611fbd565b0160005b8181106120ef57505060005b8281106120c55750505090565b806120d260019284611a60565b516120dd8287611a60565b526120e88186611a60565b50016120b8565b6020906120fa611a05565b828288010152016120ac565b80925061211282611a3d565b5261211c81611a3d565b506020918201516001929083906001600160a01b03908116825b612143575b505050612083565b8116600052818352856000205492831560000361213b579091929460001995868101908111610c0757611c8261217891611741565b95866121848388611a60565b5261218f8287611a60565b508114610c075781848492019601511684518610156121b15783929193612136565b61213b565b634e487b7160e01b84526011600452602484fd5b50505091925051906121db826117e8565b815290565b60049150528383205438612041565b6003815285852054915061203a565b602090612209611a05565b82828801015201611ffa565b600080516020612349833981519152546001600160a01b0316330361223657565b60405163118cdaa760e01b8152336004820152602490fd5b60008051602061234983398151915280546001600160a01b039283166001600160a01b0319821681179092559091167f8be0079c531659141344cd1fd0a4f28419497f9722a3daafe3b4186f6b6457e0600080a3565b60ff7ff0c57e16840df040f15088dc2f81fe391c3923bec73e23a9662efc9c229c6a005460401c16156122d357565b604051631afcd79f60e31b8152600490fd5b9061230c57508051156122fa57805190602001fd5b60405163d6bda27560e01b8152600490fd5b8151158061233f575b61231d575090565b604051639996b31560e01b81526001600160a01b039091166004820152602490fd5b50803b1561231556fe9016d09d72d40fdae2fd8ceac6b6234c7706214fd39c1cd1e609a0528c199300a264697066735822122087eb5e4481e790441810c81e79854936fc448b55f186076fc8fff24a7853bb2064736f6c63430008180033",
  "linkReferences": {},
  "deployedLinkReferences": {}
}