{
  "_format": "hh-sol-artifact-1",
  "contractName": "KeyLogRegistry",
  "sourceName": "contracts/KeyLogRegistry.sol",
  "abi": [
    {
      "inputs": [],
      "stateMutability": "nonpayable",
      "type": "constructor"
    },
    {
      "inputs": [
        {
          "internalType": "address",
          "name": "target",
          "type": "address"
        }
      ],
      "name": "AddressEmptyCode",
      "type": "error"
    },
    {
      "inputs": [
        {
          "internalType": "address",
          "name": "implementation",
          "type": "address"
        }
      ],
      "name": "ERC1967InvalidImplementation",
      "type": "error"
    },
    {
      "inputs": [],
      "name": "ERC1967NonPayable",
      "type": "error"
    },
    {
      "inputs": [],
      "name": "FailedCall",
      "type": "error"
    },
    {
      "inputs": [],
      "name": "InvalidInitialization",
      "type": "error"
    },
    {
      "inputs": [],
      "name": "InvalidOwnershipTransfer",
      "type": "error"
    },
    {
      "inputs": [],
      "name": "NotInitializing",
      "type": "error"
    },
    {
      "inputs": [
        {
          "internalType": "address",
          "name": "owner",
          "type": "address"
        }
      ],
      "name": "OwnableInvalidOwner",
      "type": "error"
    },
    {
      "inputs": [
        {
          "internalType": "address",
          "name": "account",
          "type": "address"
        }
      ],
      "name": "OwnableUnauthorizedAccount",
      "type": "error"
    },
    {
      "inputs": [],
      "name": "UUPSUnauthorizedCallContext",
      "type": "error"
    },
    {
      "inputs": [
        {
          "internalType": "bytes32",
          "name": "slot",
          "type": "bytes32"
        }
      ],
      "name": "UUPSUnsupportedProxiableUUID",
      "type": "error"
    },
    {
      "inputs": [],
      "name": "ZeroAddress",
      "type": "error"
    },
    {
      "anonymous": false,
      "inputs": [
        {
          "indexed": false,
          "internalType": "uint64",
          "name": "version",
          "type": "uint64"
        }
      ],
      "name": "Initialized",
      "type": "event"
    },
    {
      "anonymous": false,
      "inputs": [
        {
          "indexed": true,
          "internalType": "address",
          "name": "publicKeyHash",
          "type": "address"
        },
        {
          "indexed": false,
          "internalType": "uint256",
          "name": "index",
          "type": "uint256"
        }
      ],
      "name": "KeyLogRegistered",
      "type": "event"
    },
    {
      "anonymous": false,
      "inputs": [
        {
          "indexed": true,
          "internalType": "address",
          "name": "publicKeyHash",
          "type": "address"
        },
        {
          "indexed": false,
          "internalType": "uint256",
          "name": "index",
          "type": "uint256"
        }
      ],
      "name": "KeyRotated",
      "type": "event"
    },
    {
      "anonymous": false,
      "inputs": [
        {
          "indexed": true,
          "internalType": "address",
          "name": "previousOwner",
          "type": "address"
        },
        {
          "indexed": true,
          "internalType": "address",
          "name": "newOwner",
          "type": "address"
        }
      ],
      "name": "OwnershipTransferred",
      "type": "event"
    },
    {
      "anonymous": false,
      "inputs": [
        {
          "indexed": true,
          "internalType": "address",
          "name": "implementation",
          "type": "address"
        }
      ],
      "name": "Upgraded",
      "type": "event"
    },
    {
      "inputs": [],
      "name": "UPGRADE_INTERFACE_VERSION",
      "outputs": [
        {
          "internalType": "string",
          "name": "",
          "type": "string"
        }
      ],
      "stateMutability": "view",
      "type": "function"
    },
    {
      "inputs": [],
      "name": "authorizedCaller",
      "outputs": [
        {
          "internalType": "address",
          "name": "",
          "type": "address"
        }
      ],
      "stateMutability": "view",
      "type": "function"
    },
    {
      "inputs": [
        {
          "internalType": "bytes",
          "name": "publicKey",
          "type": "bytes"
        }
      ],
      "name": "buildFromPublicKey",
      "outputs": [
        {
          "components": [
            {
              "internalType": "address",
              "name": "twicePrerotatedKeyHash",
              "type": "address"
            },
            {
              "internalType": "address",
              "name": "prerotatedKeyHash",
              "type": "address"
            },
            {
              "internalType": "address",
              "name": "publicKeyHash",
              "type": "address"
            },
            {
              "internalType": "address",
              "name": "prevPublicKeyHash",
              "type": "address"
            },
            {
              "internalType": "address",
              "name": "outputAddress",
              "type": "address"
            },
            {
              "internalType": "bool",
              "name": "isOnChain",
              "type": "bool"
            },
            {
              "internalType": "enum KeyEventFlag",
              "name": "flag",
              "type": "uint8"
            }
          ],
          "internalType": "struct KeyLogEntry[]",
          "name": "",
          "type": "tuple[]"
        }
      ],
      "stateMutability": "view",
      "type": "function"
    },
    {
      "inputs": [
        {
          "internalType": "address",
          "name": "",
          "type": "address"
        }
      ],
      "name": "byPrerotatedKeyHash",
      "outputs": [
        {
          "internalType": "uint256",
          "name": "",
          "type": "uint256"
        }
      ],
      "stateMutability": "view",
      "type": "function"
    },
    {
      "inputs": [
        {
          "internalType": "address",
          "name": "",
          "type": "address"
        }
      ],
      "name": "byPrevPublicKeyHash",
      "outputs": [
        {
          "internalType": "uint256",
          "name": "",
          "type": "uint256"
        }
      ],
      "stateMutability": "view",
      "type": "function"
    },
    {
      "inputs": [
        {
          "internalType": "address",
          "name": "",
          "type": "address"
        }
      ],
      "name": "byPublicKeyHash",
      "outputs": [
        {
          "internalType": "uint256",
          "name": "",
          "type": "uint256"
        }
      ],
      "stateMutability": "view",
      "type": "function"
    },
    {
      "inputs": [
        {
          "internalType": "address",
          "name": "",
          "type": "address"
        }
      ],
      "name": "byTwicePrerotatedKeyHash",
      "outputs": [
        {
          "internalType": "uint256",
          "name": "",
          "type": "uint256"
        }
      ],
      "stateMutability": "view",
      "type": "function"
    },
    {
      "inputs": [
        {
          "internalType": "bytes",
          "name": "publicKey",
          "type": "bytes"
        }
      ],
      "name": "getAddressFromPublicKey",
      "outputs": [
        {
          "internalType": "address",
          "name": "",
          "type": "address"
        }
      ],
      "stateMutability": "pure",
      "type": "function"
    },
    {
      "inputs": [
        {
          "internalType": "bytes",
          "name": "publicKey",
          "type": "bytes"
        }
      ],
      "name": "getCurrentIndex",
      "outputs": [
        {
          "internalType": "uint256",
          "name": "",
          "type": "uint256"
        }
      ],
      "stateMutability": "view",
      "type": "function"
    },
    {
      "inputs": [
        {
          "internalType": "bytes",
          "name": "publicKey",
          "type": "bytes"
        }
      ],
      "name": "getLatestChainEntry",
      "outputs": [
        {
          "components": [
            {
              "internalType": "address",
              "name": "twicePrerotatedKeyHash",
              "type": "address"
            },
            {
              "internalType": "address",
              "name": "prerotatedKeyHash",
              "type": "address"
            },
            {
              "internalType": "address",
              "name": "publicKeyHash",
              "type": "address"
            },
            {
              "internalType": "address",
              "name": "prevPublicKeyHash",
              "type": "address"
            },
            {
              "internalType": "address",
              "name": "outputAddress",
              "type": "address"
            },
            {
              "internalType": "bool",
              "name": "isOnChain",
              "type": "bool"
            },
            {
              "internalType": "enum KeyEventFlag",
              "name": "flag",
              "type": "uint8"
            }
          ],
          "internalType": "struct KeyLogEntry",
          "name": "",
          "type": "tuple"
        },
        {
          "internalType": "bool",
          "name": "",
          "type": "bool"
        }
      ],
      "stateMutability": "view",
      "type": "function"
    },
    {
      "inputs": [
        {
          "internalType": "address",
          "name": "publicKeyHash",
          "type": "address"
        }
      ],
      "name": "getLatestChainEntry",
      "outputs": [
        {
          "components": [
            {
              "internalType": "address",
              "name": "twicePrerotatedKeyHash",
              "type": "address"
            },
            {
              "internalType": "address",
              "name": "prerotatedKeyHash",
              "type": "address"
            },
            {
              "internalType": "address",
              "name": "publicKeyHash",
              "type": "address"
            },
            {
              "internalType": "address",
              "name": "prevPublicKeyHash",
              "type": "address"
            },
            {
              "internalType": "address",
              "name": "outputAddress",
              "type": "address"
            },
            {
              "internalType": "bool",
              "name": "isOnChain",
              "type": "bool"
            },
            {
              "internalType": "enum KeyEventFlag",
              "name": "flag",
              "type": "uint8"
            }
          ],
          "internalType": "struct KeyLogEntry",
          "name": "",
          "type": "tuple"
        },
        {
          "internalType": "bool",
          "name": "",
          "type": "bool"
        }
      ],
      "stateMutability": "view",
      "type": "function"
    },
    {
      "inputs": [
        {
          "internalType": "address",
          "name": "publicKeyHash",
          "type": "address"
        }
      ],
      "name": "getLatestEntry",
      "outputs": [
        {
          "components": [
            {
              "internalType": "address",
              "name": "twicePrerotatedKeyHash",
              "type": "address"
            },
            {
              "internalType": "address",
              "name": "prerotatedKeyHash",
              "type": "address"
            },
            {
              "internalType": "address",
              "name": "publicKeyHash",
              "type": "address"
            },
            {
              "internalType": "address",
              "name": "prevPublicKeyHash",
              "type": "address"
            },
            {
              "internalType": "address",
              "name": "outputAddress",
              "type": "address"
            },
            {
              "internalType": "bool",
              "name": "isOnChain",
              "type": "bool"
            },
            {
              "internalType": "enum KeyEventFlag",
              "name": "flag",
              "type": "uint8"
            }
          ],
          "internalType": "struct KeyLogEntry",
          "name": "",
          "type": "tuple"
        },
        {
          "internalType": "bool",
          "name": "",
          "type": "bool"
        }
      ],
      "stateMutability": "view",
      "type": "function"
    },
    {
      "inputs": [
        {
          "internalType": "address",
          "name": "prerotatedKeyHash",
          "type": "address"
        }
      ],
      "name": "getLatestEntryByPrerotatedKeyHash",
      "outputs": [
        {
          "components": [
            {
              "internalType": "address",
              "name": "twicePrerotatedKeyHash",
              "type": "address"
            },
            {
              "internalType": "address",
              "name": "prerotatedKeyHash",
              "type": "address"
            },
            {
              "internalType": "address",
              "name": "publicKeyHash",
              "type": "address"
            },
            {
              "internalType": "address",
              "name": "prevPublicKeyHash",
              "type": "address"
            },
            {
              "internalType": "address",
              "name": "outputAddress",
              "type": "address"
            },
            {
              "internalType": "bool",
              "name": "isOnChain",
              "type": "bool"
            },
            {
              "internalType": "enum KeyEventFlag",
              "name": "flag",
              "type": "uint8"
            }
          ],
          "internalType": "struct KeyLogEntry",
          "name": "",
          "type": "tuple"
        },
        {
          "internalType": "bool",
          "name": "",
          "type": "bool"
        }
      ],
      "stateMutability": "view",
      "type": "function"
    },
    {
      "inputs": [
        {
          "internalType": "bytes",
          "name": "publicKey",
          "type": "bytes"
        }
      ],
      "name": "getPreviousEntry",
      "outputs": [
        {
          "components": [
            {
              "internalType": "address",
              "name": "twicePrerotatedKeyHash",
              "type": "address"
            },
            {
              "internalType": "address",
              "name": "prerotatedKeyHash",
              "type": "address"
            },
            {
              "internalType": "address",
              "name": "publicKeyHash",
              "type": "address"
            },
            {
              "internalType": "address",
              "name": "prevPublicKeyHash",
              "type": "address"
            },
            {
              "internalType": "address",
              "name": "outputAddress",
              "type": "address"
            },
            {
              "internalType": "bool",
              "name": "isOnChain",
              "type": "bool"
            },
            {
              "internalType": "enum KeyEventFlag",
              "name": "flag",
              "type": "uint8"
            }
          ],
          "internalType": "struct KeyLogEntry",
          "name": "",
          "type": "tuple"
        },
        {
          "internalType": "bool",
          "name": "",
          "type": "bool"
        }
      ],
      "stateMutability": "view",
      "type": "function"
    },
    {
      "inputs": [
        {
          "internalType": "address",
          "name": "initialOwner",
          "type": "address"
        }
      ],
      "name": "initialize",
      "outputs": [],
      "stateMutability": "nonpayable",
      "type": "function"
    },
    {
      "inputs": [
        {
          "internalType": "address",
          "name": "currentOwner",
          "type": "address"
        },
        {
          "internalType": "address",
          "name": "newOwner",
          "type": "address"
        }
      ],
      "name": "isValidOwnershipTransfer",
      "outputs": [
        {
          "internalType": "bool",
          "name": "",
          "type": "bool"
        }
      ],
      "stateMutability": "view",
      "type": "function"
    },
    {
      "inputs": [
        {
          "internalType": "uint256",
          "name": "",
          "type": "uint256"
        }
      ],
      "name": "keyLogEntries",
      "outputs": [
        {
          "internalType": "address",
          "name": "twicePrerotatedKeyHash",
          "type": "address"
        },
        {
          "internalType": "address",
          "name": "prerotatedKeyHash",
          "type": "address"
        },
        {
          "internalType": "address",
          "name": "publicKeyHash",
          "type": "address"
        },
        {
          "internalType": "address",
          "name": "prevPublicKeyHash",
          "type": "address"
        },
        {
          "internalType": "address",
          "name": "outputAddress",
          "type": "address"
        },
        {
          "internalType": "bool",
          "name": "isOnChain",
          "type": "bool"
        },
        {
          "internalType": "enum KeyEventFlag",
          "name": "flag",
          "type": "uint8"
        }
      ],
      "stateMutability": "view",
      "type": "function"
    },
    {
      "inputs": [],
      "name": "owner",
      "outputs": [
        {
          "internalType": "address",
          "name": "",
          "type": "address"
        }
      ],
      "stateMutability": "view",
      "type": "function"
    },
    {
      "inputs": [],
      "name": "proxiableUUID",
      "outputs": [
        {
          "internalType": "bytes32",
          "name": "",
          "type": "bytes32"
        }
      ],
      "stateMutability": "view",
      "type": "function"
    },
    {
      "inputs": [
        {
          "components": [
            {
              "internalType": "bytes",
              "name": "publicKey",
              "type": "bytes"
            },
            {
              "internalType": "address",
              "name": "prerotatedKeyHash",
              "type": "address"
            },
            {
              "internalType": "address",
              "name": "twicePrerotatedKeyHash",
              "type": "address"
            },
            {
              "internalType": "address",
              "name": "prevPublicKeyHash",
              "type": "address"
            },
            {
              "internalType": "address",
              "name": "outputAddress",
              "type": "address"
            }
          ],
          "internalType": "struct KeyData",
          "name": "key",
          "type": "tuple"
        }
      ],
      "name": "registerKeyLog",
      "outputs": [],
      "stateMutability": "nonpayable",
      "type": "function"
    },
    {
      "inputs": [
        {
          "components": [
            {
              "internalType": "bytes",
              "name": "publicKey",
              "type": "bytes"
            },
            {
              "internalType": "address",
              "name": "prerotatedKeyHash",
              "type": "address"
            },
            {
              "internalType": "address",
              "name": "twicePrerotatedKeyHash",
              "type": "address"
            },
            {
              "internalType": "address",
              "name": "prevPublicKeyHash",
              "type": "address"
            },
            {
              "internalType": "address",
              "name": "outputAddress",
              "type": "address"
            }
          ],
          "internalType": "struct KeyData",
          "name": "unconfirmedKey",
          "type": "tuple"
        },
        {
          "components": [
            {
              "internalType": "bytes",
              "name": "publicKey",
              "type": "bytes"
            },
            {
              "internalType": "address",
              "name": "prerotatedKeyHash",
              "type": "address"
            },
            {
              "internalType": "address",
              "name": "twicePrerotatedKeyHash",
              "type": "address"
            },
            {
              "internalType": "address",
              "name": "prevPublicKeyHash",
              "type": "address"
            },
            {
              "internalType": "address",
              "name": "outputAddress",
              "type": "address"
            }
          ],
          "internalType": "struct KeyData",
          "name": "confirmingKey",
          "type": "tuple"
        }
      ],
      "name": "registerKeyLogPair",
      "outputs": [],
      "stateMutability": "nonpayable",
      "type": "function"
    },
    {
      "inputs": [],
      "name": "renounceOwnership",
      "outputs": [],
      "stateMutability": "nonpayable",
      "type": "function"
    },
    {
      "inputs": [
        {
          "internalType": "address",
          "name": "_caller",
          "type": "address"
        }
      ],
      "name": "setAuthorizedCaller",
      "outputs": [],
      "stateMutability": "nonpayable",
      "type": "function"
    },
    {
      "inputs": [
        {
          "internalType": "address",
          "name": "newOwner",
          "type": "address"
        }
      ],
      "name": "transferOwnership",
      "outputs": [],
      "stateMutability": "nonpayable",
      "type": "function"
    },
    {
      "inputs": [
        {
          "internalType": "address",
          "name": "newImplementation",
          "type": "address"
        },
        {
          "internalType": "bytes",
          "name": "data",
          "type": "bytes"
        }
      ],
      "name": "upgradeToAndCall",
      "outputs": [],
      "stateMutability": "payable",
      "type": "function"
    },
    {
      "inputs": [
        {
          "components": [
            {
              "internalType": "bytes",
              "name": "publicKey",
              "type": "bytes"
            },
            {
              "internalType": "address",
              "name": "prerotatedKeyHash",
              "type": "address"
            },
            {
              "internalType": "address",
              "name": "twicePrerotatedKeyHash",
              "type": "address"
            },
            {
              "internalType": "address",
              "name": "prevPublicKeyHash",
              "type": "address"
            },
            {
              "internalType": "address",
              "name": "outputAddress",
              "type": "address"
            }
          ],
          "internalType": "struct KeyData",
          "name": "unconfirmed",
          "type": "tuple"
        },
        {
          "components": [
            {
              "internalType": "bytes",
              "name": "publicKey",
              "type": "bytes"
            },
            {
              "internalType": "address",
              "name": "prerotatedKeyHash",
              "type": "address"
            },
            {
              "internalType": "address",
              "name": "twicePrerotatedKeyHash",
              "type": "address"
            },
            {
              "internalType": "address",
              "name": "prevPublicKeyHash",
              "type": "address"
            },
            {
              "internalType": "address",
              "name": "outputAddress",
              "type": "address"
            }
          ],
          "internalType": "struct KeyData",
          "name": "confirming",
          "type": "tuple"
        },
        {
          "internalType": "bool",
          "name": "isPair",
          "type": "bool"
        }
      ],
      "name": "validateTransaction",
      "outputs": [
        {
          "internalType": "enum KeyEventFlag",
          "name": "",
          "type": "uint8"
        },
        {
          "internalType": "enum KeyEventFlag",
          "name": "",
          "type": "uint8"
        }
      ],
      "stateMutability": "view",
      "type": "function"
    }
  ],
  "bytecode": "0x60a06040523060805234801562000014575f80fd5b506200001f62000025565b620000d9565b7ff0c57e16840df040f15088dc2f81fe391c3923bec73e23a9662efc9c229c6a00805468010000000000000000900460ff1615620000765760405163f92ee8a960e01b815260040160405180910390fd5b80546001600160401b0390811614620000d65780546001600160401b0319166001600160401b0390811782556040519081527fc7f505b2f371ae2175ee4913f4499e1f2633a7b5936321eed1cdaeb6115181d29060200160405180910390a15b50565b6080516130c0620001005f395f81816121400152818161216901526122ad01526130c05ff3fe60806040526004361061017b575f3560e01c806391952551116100cd578063ad3cb1cc11610087578063e5ce0af411610062578063e5ce0af4146104c3578063ee93aac2146104e2578063f2fde38b14610501578063fb51e5bb14610520575f80fd5b8063ad3cb1cc14610448578063c4d66de814610485578063cf8fbec9146104a4575f80fd5b8063919525511461037657806392e711041461039557806397dc97cb146103b45780639fa17f91146103d3578063a375e472146103fe578063a5e49bda14610429575f80fd5b8063401795b2116101385780635ed9739c116101135780635ed9739c146102f5578063715018a61461032157806382fc3dd7146103355780638da5cb5b14610362575f80fd5b8063401795b2146102a35780634f1ef286146102ce57806352d1902d146102e1575f80fd5b806318fdb6f81461017f57806325fb5bd9146101b3578063276c1ac0146101e55780632bf2fac91461021c5780632d2eca6a146102555780632dd1466d14610282575b5f80fd5b34801561018a575f80fd5b5061019e610199366004612a0d565b61053f565b60405190151581526020015b60405180910390f35b3480156101be575f80fd5b506101d26101cd366004612a3e565b6105cd565b6040516101aa9796959493929190612a89565b3480156101f0575f80fd5b506102046101ff366004612b77565b610635565b6040516001600160a01b0390911681526020016101aa565b348015610227575f80fd5b50610247610236366004612bb1565b60036020525f908152604090205481565b6040519081526020016101aa565b348015610260575f80fd5b5061027461026f366004612b77565b610698565b6040516101aa929190612c26565b34801561028d575f80fd5b506102a161029c366004612cea565b6106fa565b005b3480156102ae575f80fd5b506102476102bd366004612bb1565b60026020525f908152604090205481565b6102a16102dc366004612d4a565b610d03565b3480156102ec575f80fd5b50610247610d22565b348015610300575f80fd5b5061031461030f366004612b77565b610d3d565b6040516101aa9190612d8b565b34801561032c575f80fd5b506102a1610d5b565b348015610340575f80fd5b5061035461034f366004612de5565b610d6e565b6040516101aa929190612e58565b34801561036d575f80fd5b506102046116b5565b348015610381575f80fd5b50610274610390366004612bb1565b6116e3565b3480156103a0575f80fd5b506102746103af366004612bb1565b6117e4565b3480156103bf575f80fd5b50600554610204906001600160a01b031681565b3480156103de575f80fd5b506102476103ed366004612bb1565b60046020525f908152604090205481565b348015610409575f80fd5b50610247610418366004612bb1565b60016020525f908152604090205481565b348015610434575f80fd5b50610274610443366004612bb1565b611978565b348015610453575f80fd5b50610478604051806040016040528060058152602001640352e302e360dc1b81525081565b6040516101aa9190612e95565b348015610490575f80fd5b506102a161049f366004612bb1565b61198b565b3480156104af575f80fd5b506102a16104be366004612bb1565b611aa1565b3480156104ce575f80fd5b506102a16104dd366004612ec7565b611acb565b3480156104ed575f80fd5b506102746104fc366004612b77565b611ebf565b34801561050c575f80fd5b506102a161051b366004612bb1565b611fd8565b34801561052b575f80fd5b5061024761053a366004612b77565b612015565b5f6001600160a01b038316158061055d57506001600160a01b038216155b1561056957505f6105c7565b5f8061057485611978565b9150915080610587575f925050506105c7565b836001600160a01b031682602001516001600160a01b03161480156105c2575060018260c0015160028111156105bf576105bf612a55565b14155b925050505b92915050565b5f81815481106105db575f80fd5b5f918252602090912060059091020180546001820154600283015460038401546004909401546001600160a01b0393841695509183169390831692908116919081169060ff600160a01b8204811691600160a81b90041687565b5f815160401461068c5760405162461bcd60e51b815260206004820152601b60248201527f5075626c6963206b6579206d757374206265203634206279746573000000000060448201526064015b60405180910390fd5b50805160209091012090565b6106a06129b9565b5f806106ab84610d3d565b905080515f036106c7576106bd6129b9565b945f945092505050565b80600182516106d69190612f0d565b815181106106e6576106e6612f20565b602002602001015160019250925050915091565b6005546001600160a01b031633148061072b57506107166116b5565b6001600160a01b0316336001600160a01b0316145b6107475760405162461bcd60e51b815260040161068390612f34565b5f610754835f0151610635565b90505f610763835f0151610635565b90505f8061077386866001610d6e565b915091505f6040518060e0016040528088604001516001600160a01b0316815260200188602001516001600160a01b03168152602001866001600160a01b0316815260200188606001516001600160a01b0316815260200188608001516001600160a01b031681526020016001151581526020018460028111156107f9576107f9612a55565b90528154600180820184555f938452602093849020835160059093020180546001600160a01b03199081166001600160a01b03948516178255948401519181018054861692841692909217909155604083015160028083018054871692851692909217909155606084015160038301805490961690841617909455608083015160048201805460a0860151929094166001600160a81b031990941693909317600160a01b911515919091021780835560c084015193949193929160ff60a81b1990911690600160a81b9084908111156108d4576108d4612a55565b0217905550505f80549091506108ec90600190612f0d565b90506108f9816001612f5c565b6001600160a01b038087165f90815260016020526040902091909155606088015116156109485761092b816001612f5c565b60608801516001600160a01b03165f908152600260205260409020555b60208701516001600160a01b03161561098457610966816001612f5c565b6020808901516001600160a01b03165f908152600390915260409020555b60408701516001600160a01b0316156109bd576109a2816001612f5c565b6040808901516001600160a01b03165f908152600460205220555b5f6040518060e0016040528088604001516001600160a01b0316815260200188602001516001600160a01b03168152602001866001600160a01b0316815260200188606001516001600160a01b0316815260200188608001516001600160a01b03168152602001600115158152602001846002811115610a3f57610a3f612a55565b90528154600180820184555f938452602093849020835160059093020180546001600160a01b03199081166001600160a01b03948516178255948401519181018054861692841692909217909155604083015160028083018054871692851692909217909155606084015160038301805490961690841617909455608083015160048201805460a0860151929094166001600160a81b031990941693909317600160a01b911515919091021780835560c084015193949193929160ff60a81b1990911690600160a81b908490811115610b1a57610b1a612a55565b0217905550505f8054909150610b3290600190612f0d565b9050610b3f816001612f5c565b6001600160a01b038087165f9081526001602052604090209190915560608801511615610b8e57610b71816001612f5c565b60608801516001600160a01b03165f908152600260205260409020555b60208701516001600160a01b031615610bca57610bac816001612f5c565b6020808901516001600160a01b03165f908152600390915260409020555b60408701516001600160a01b031615610c0357610be8816001612f5c565b6040808901516001600160a01b03165f908152600460205220555b856001600160a01b0316610c156116b5565b6001600160a01b031603610c3057610c308760200151612028565b856001600160a01b03167fa9366f75c6c44e3c9ee299d368915abb2fa3108d469f3ab468ef239142dc725b83604051610c6b91815260200190565b60405180910390a2846001600160a01b03167fa9366f75c6c44e3c9ee299d368915abb2fa3108d469f3ab468ef239142dc725b82604051610cae91815260200190565b60405180910390a2846001600160a01b03167f65b9775e0ec7a02caf84b2523694b517ace341c14dd2b3926a5591d7b5f5a99682604051610cf191815260200190565b60405180910390a25050505050505050565b610d0b612135565b610d14826121d9565b610d1e82826121e1565b5050565b5f610d2b6122a2565b505f8051602061306b83398151915290565b60605f610d4983610635565b9050610d54816122eb565b9392505050565b610d636126e8565b610d6c5f61271a565b565b5f805f80610d7e875f0151610698565b915091505f610d8f885f0151610635565b90505f610d9e895f0151610635565b90508215610f44578360a00151610df75760405162461bcd60e51b815260206004820152601f60248201527f50726576696f757320656e747279206d757374206265206f6e2d636861696e006044820152606401610683565b88606001516001600160a01b031684604001516001600160a01b031614610e605760405162461bcd60e51b815260206004820152601860248201527f50726576207075626c6963206b6579206d69736d6174636800000000000000006044820152606401610683565b816001600160a01b031684602001516001600160a01b031614610ebb5760405162461bcd60e51b81526020600482015260136024820152720a0eac4d8d2c640d6caf240dad2e6dac2e8c6d606b1b6044820152606401610683565b88602001516001600160a01b0316845f01516001600160a01b031614610f3f5760405162461bcd60e51b815260206004820152603360248201527f507265726f7461746564206b6579206d757374206d617463682070726576696f6044820152721d5cc81d1dda58d9481c1c995c9bdd185d1959606a1b6064820152608401610683565b610fba565b60608901516001600160a01b031615610fba5760405162461bcd60e51b815260206004820152603260248201527f496e63657074696f6e206576656e742063616e6e6f74206861766520612070726044820152710caecbee0eac4d8d2c6bed6caf2bed0c2e6d60731b6064820152608401610683565b60608901516001600160a01b03165f9081526002602052604090205415610ff35760405162461bcd60e51b815260040161068390612f6f565b6001600160a01b0382165f90815260016020526040902054156110585760405162461bcd60e51b815260206004820152601c60248201527f5075626c6963206b6579206861736820616c72656164792075736564000000006044820152606401610683565b6020808a01516001600160a01b03165f90815260039091526040902054156110c25760405162461bcd60e51b815260206004820181905260248201527f507265726f7461746564206b6579206861736820616c726561647920757365646044820152606401610683565b6040808a01516001600160a01b03165f90815260046020522054156111385760405162461bcd60e51b815260206004820152602660248201527f547769636520707265726f7461746564206b6579206861736820616c726561646044820152651e481d5cd95960d21b6064820152608401610683565b5f83158015611152575060608a01516001600160a01b0316155b156111bb5789602001516001600160a01b03168a608001516001600160a01b0316146111b45760405162461bcd60e51b815260206004820152601160248201527024b73b30b634b21034b731b2b83a34b7b760791b6044820152606401610683565b505f611246565b89602001516001600160a01b03168a608001516001600160a01b0316146111e457506001611246565b89602001516001600160a01b03168a608001516001600160a01b0316146112425760405162461bcd60e51b8152602060048201526012602482015271496e76616c696420636f6e6669726d696e6760701b6044820152606401610683565b5060025b876112bf5789608001516001600160a01b03168a602001516001600160a01b0316146112845760405162461bcd60e51b815260040161068390612fb4565b60808901516001600160a01b0316156112af5760405162461bcd60e51b815260040161068390612fb4565b9550600194506116ad9350505050565b816001600160a01b03166112d58a5f0151610635565b6001600160a01b03161461132b5760405162461bcd60e51b815260206004820152601b60248201527f496e76616c696420636f6e6669726d696e675075626c69634b657900000000006044820152606401610683565b88602001516001600160a01b03168a604001516001600160a01b0316146113cb5760405162461bcd60e51b815260206004820152604860248201527f53657175656e6365206d69736d617463683a207477696365507265726f74617460448201527f65644b65794861736820213d20636f6e6669726d696e67507265726f746174656064820152670c896caf290c2e6d60c31b608482015260a401610683565b88602001516001600160a01b031689608001516001600160a01b0316146114345760405162461bcd60e51b815260206004820152601d60248201527f496e76616c696420636f6e6669726d696e6720636f6e646974696f6e730000006044820152606401610683565b816001600160a01b03168a602001516001600160a01b0316146114b75760405162461bcd60e51b815260206004820152603560248201527f53657175656e6365206d69736d617463683a20707265726f74617465644b6579604482015274090c2e6d040427a40e0eac4d8d2c696caf290c2e6d605b1b6064820152608401610683565b826001600160a01b031689606001516001600160a01b03161461154c5760405162461bcd60e51b815260206004820152604160248201527f436f6e6669726d696e6720707265765075626c69634b657948617368206d757360448201527f74206d6174636820756e636f6e6669726d6564207075626c69634b65794861736064820152600d60fb1b608482015260a401610683565b60608901516001600160a01b03165f90815260026020526040902054156115855760405162461bcd60e51b815260040161068390612f6f565b6001600160a01b0382165f90815260016020526040902054156115ea5760405162461bcd60e51b815260206004820152601c60248201527f5075626c6963206b6579206861736820616c72656164792075736564000000006044820152606401610683565b6020808a01516001600160a01b03165f90815260039091526040902054156116685760405162461bcd60e51b815260206004820152602b60248201527f436f6e6669726d696e6720707265726f7461746564206b65792068617368206160448201526a1b1c9958591e481d5cd95960aa1b6064820152608401610683565b6040808a01516001600160a01b03165f908152600460205220541561169f5760405162461bcd60e51b815260040161068390612fb4565b600160029650965050505050505b935093915050565b7f9016d09d72d40fdae2fd8ceac6b6234c7706214fd39c1cd1e609a0528c199300546001600160a01b031690565b6116eb6129b9565b6001600160a01b0382165f90815260016020526040812054808203611712576106bd6129b9565b5f61171e600183612f0d565b8154811061172e5761172e612f20565b5f9182526020918290206040805160e081018252600590930290910180546001600160a01b0390811684526001808301548216958501959095526002808301548216938501939093526003820154811660608501526004820154908116608085015260ff600160a01b82048116151560a086015291949392859260c0850192600160a81b900416908111156117c5576117c5612a55565b60028111156117d6576117d6612a55565b905250969095509350505050565b6117ec6129b9565b6001600160a01b0382165f9081526003602052604081205480820361183457506001600160a01b0383165f9081526004602052604081205490819003611834576106bd6129b9565b5f80611841600184612f0d565b8154811061185157611851612f20565b5f9182526020918290206040805160e081018252600590930290910180546001600160a01b03908116845260018201548116948401949094526002808201548516928401929092526003810154841660608401526004810154938416608084015260ff600160a01b85048116151560a08501529293909260c0850192600160a81b90920416908111156118e6576118e6612a55565b60028111156118f7576118f7612a55565b9052506020808201516001600160a01b0381165f90815260019092526040909120549350909150821561196c5760405162461bcd60e51b815260206004820152601c60248201527f4e6f7420746865206c6174657374206b657920726f746174696f6e2e000000006044820152606401610683565b50946001945092505050565b6119806129b9565b5f806106ab846122eb565b7ff0c57e16840df040f15088dc2f81fe391c3923bec73e23a9662efc9c229c6a008054600160401b810460ff16159067ffffffffffffffff165f811580156119d05750825b90505f8267ffffffffffffffff1660011480156119ec5750303b155b9050811580156119fa575080155b15611a185760405163f92ee8a960e01b815260040160405180910390fd5b845467ffffffffffffffff191660011785558315611a4257845460ff60401b1916600160401b1785555b611a4b8661278a565b611a5361279b565b8315611a9957845460ff60401b19168555604051600181527fc7f505b2f371ae2175ee4913f4499e1f2633a7b5936321eed1cdaeb6115181d29060200160405180910390a15b505050505050565b611aa96126e8565b600580546001600160a01b0319166001600160a01b0392909216919091179055565b6005546001600160a01b0316331480611afc5750611ae76116b5565b6001600160a01b0316336001600160a01b0316145b611b185760405162461bcd60e51b815260040161068390612f34565b5f611b25825f0151610635565b6040805160c0810182525f60a08201818152825260208201819052918101829052606081018290526080810182905291925090611b6490849083610d6e565b5090505f6040518060e0016040528085604001516001600160a01b0316815260200185602001516001600160a01b03168152602001846001600160a01b0316815260200185606001516001600160a01b0316815260200185608001516001600160a01b031681526020015f6002811115611be057611be0612a55565b846002811115611bf257611bf2612a55565b1480611c0f57506002846002811115611c0d57611c0d612a55565b145b15158152602001836002811115611c2857611c28612a55565b90528154600180820184555f938452602093849020835160059093020180546001600160a01b03199081166001600160a01b03948516178255948401519181018054861692841692909217909155604083015160028083018054871692851692909217909155606084015160038301805490961690841617909455608083015160048201805460a0860151929094166001600160a81b031990941693909317600160a01b911515919091021780835560c084015193949193929160ff60a81b1990911690600160a81b908490811115611d0357611d03612a55565b0217905550505f8054909150611d1b90600190612f0d565b9050611d28816001612f5c565b6001600160a01b038085165f9081526001602052604090209190915560608501511615611d7757611d5a816001612f5c565b60608501516001600160a01b03165f908152600260205260409020555b60208401516001600160a01b031615611db357611d95816001612f5c565b6020808601516001600160a01b03165f908152600390915260409020555b60408401516001600160a01b031615611dec57611dd1816001612f5c565b6040808601516001600160a01b03165f908152600460205220555b826001600160a01b03167fa9366f75c6c44e3c9ee299d368915abb2fa3108d469f3ab468ef239142dc725b82604051611e2791815260200190565b60405180910390a26001826002811115611e4357611e43612a55565b14611e8c57826001600160a01b03167f65b9775e0ec7a02caf84b2523694b517ace341c14dd2b3926a5591d7b5f5a99682604051611e8391815260200190565b60405180910390a25b826001600160a01b0316611e9e6116b5565b6001600160a01b031603611eb957611eb98460200151612028565b50505050565b611ec76129b9565b5f8060035f611ed586610635565b6001600160a01b03166001600160a01b031681526020019081526020015f20549050805f03611f06576106bd6129b9565b5f80611f13600184612f0d565b81548110611f2357611f23612f20565b5f9182526020918290206040805160e081018252600590930290910180546001600160a01b03908116845260018201548116948401949094526002808201548516928401929092526003810154841660608401526004810154938416608084015260ff600160a01b85048116151560a08501529293909260c0850192600160a81b9092041690811115611fb857611fb8612a55565b6002811115611fc957611fc9612a55565b90525095600195509350505050565b611fe06126e8565b6001600160a01b03811661200957604051631e4fbdf760e01b81525f6004820152602401610683565b6120128161271a565b50565b5f8061202083610d3d565b519392505050565b6005546001600160a01b031633148061205957506120446116b5565b6001600160a01b0316336001600160a01b0316145b6120755760405162461bcd60e51b815260040161068390612f34565b6001600160a01b03811661209c5760405163d92e233d60e01b815260040160405180910390fd5b306318fdb6f86120aa6116b5565b6040516001600160e01b031960e084901b1681526001600160a01b0391821660048201529084166024820152604401602060405180830381865afa1580156120f4573d5f803e3d5ffd5b505050506040513d601f19601f820116820180604052508101906121189190613005565b6120095760405163b012a29560e01b815260040160405180910390fd5b306001600160a01b037f00000000000000000000000000000000000000000000000000000000000000001614806121bb57507f00000000000000000000000000000000000000000000000000000000000000006001600160a01b03166121af5f8051602061306b833981519152546001600160a01b031690565b6001600160a01b031614155b15610d6c5760405163703e46dd60e11b815260040160405180910390fd5b6120126126e8565b816001600160a01b03166352d1902d6040518163ffffffff1660e01b8152600401602060405180830381865afa92505050801561223b575060408051601f3d908101601f1916820190925261223891810190613020565b60015b61226357604051634c9c8ce360e01b81526001600160a01b0383166004820152602401610683565b5f8051602061306b833981519152811461229357604051632a87526960e21b815260048101829052602401610683565b61229d83836127a3565b505050565b306001600160a01b037f00000000000000000000000000000000000000000000000000000000000000001614610d6c5760405163703e46dd60e11b815260040160405180910390fd5b604080516103e8808252617d2082019092526060915f9190816020015b6123106129b9565b8152602001906001900390816123085790505090505f8361232f6129b9565b5f6123386129b9565b6001600160a01b0384165f908152600160205260408120549081900361237257506001600160a01b0384165f908152600360205260409020545b805f0361239357506001600160a01b0384165f908152600460205260409020545b805f036123d957604080515f80825260208201909252816123ca565b6123b76129b9565b8152602001906001900390816123af5790505b509a9950505050505050505050565b5f6123e5600183612f0d565b815481106123f5576123f5612f20565b5f9182526020918290206040805160e081018252600590930290910180546001600160a01b03908116845260018201548116948401949094526002808201548516928401929092526003810154841660608401526004810154938416608084015260ff600160a01b85048116151560a08501529293909260c0850192600160a81b909204169081111561248a5761248a612a55565b600281111561249b5761249b612a55565b90525060608101519092506001600160a01b03166124c05781935060019250506124cd565b8160600151945050612338565b811561263c57828686815181106124e6576124e6612f20565b602002602001018190525084806124fc90613037565b955050826020015193505b6001600160a01b0384165f908152600160205260408120549081900361252d575061263c565b5f612539600183612f0d565b8154811061254957612549612f20565b5f9182526020918290206040805160e081018252600590930290910180546001600160a01b03908116845260018201548116948401949094526002808201548516928401929092526003810154841660608401526004810154938416608084015260ff600160a01b85048116151560a08501529293909260c0850192600160a81b90920416908111156125de576125de612a55565b60028111156125ef576125ef612a55565b8152505091508187878151811061260857612608612f20565b6020026020010181905250858061261e90613037565b9650508160200151945086518610612636575061263c565b50612507565b5f8567ffffffffffffffff81111561265657612656612ada565b60405190808252806020026020018201604052801561268f57816020015b61267c6129b9565b8152602001906001900390816126745790505b5090505f5b868110156126db578781815181106126ae576126ae612f20565b60200260200101518282815181106126c8576126c8612f20565b6020908102919091010152600101612694565b5098975050505050505050565b336126f16116b5565b6001600160a01b031614610d6c5760405163118cdaa760e01b8152336004820152602401610683565b7f9016d09d72d40fdae2fd8ceac6b6234c7706214fd39c1cd1e609a0528c19930080546001600160a01b031981166001600160a01b03848116918217845560405192169182907f8be0079c531659141344cd1fd0a4f28419497f9722a3daafe3b4186f6b6457e0905f90a3505050565b6127926127f8565b61201281612841565b610d6c6127f8565b6127ac82612849565b6040516001600160a01b038316907fbc7cd75a20ee27fd9adebab32041f755214dbc6bffa90cc0225b39da2e5c2d3b905f90a28051156127f05761229d82826128ac565b610d1e612915565b7ff0c57e16840df040f15088dc2f81fe391c3923bec73e23a9662efc9c229c6a0054600160401b900460ff16610d6c57604051631afcd79f60e31b815260040160405180910390fd5b611fe06127f8565b806001600160a01b03163b5f0361287e57604051634c9c8ce360e01b81526001600160a01b0382166004820152602401610683565b5f8051602061306b83398151915280546001600160a01b0319166001600160a01b0392909216919091179055565b60605f80846001600160a01b0316846040516128c8919061304f565b5f60405180830381855af49150503d805f8114612900576040519150601f19603f3d011682016040523d82523d5f602084013e612905565b606091505b50915091506105c2858383612934565b3415610d6c5760405163b398979f60e01b815260040160405180910390fd5b6060826129495761294482612990565b610d54565b815115801561296057506001600160a01b0384163b155b1561298957604051639996b31560e01b81526001600160a01b0385166004820152602401610683565b5092915050565b8051156129a05780518082602001fd5b60405163d6bda27560e01b815260040160405180910390fd5b6040805160e0810182525f80825260208201819052918101829052606081018290526080810182905260a081018290529060c082015290565b80356001600160a01b0381168114612a08575f80fd5b919050565b5f8060408385031215612a1e575f80fd5b612a27836129f2565b9150612a35602084016129f2565b90509250929050565b5f60208284031215612a4e575f80fd5b5035919050565b634e487b7160e01b5f52602160045260245ffd5b60038110612a8557634e487b7160e01b5f52602160045260245ffd5b9052565b6001600160a01b0388811682528781166020830152868116604083015285811660608301528416608082015282151560a082015260e08101612ace60c0830184612a69565b98975050505050505050565b634e487b7160e01b5f52604160045260245ffd5b5f82601f830112612afd575f80fd5b813567ffffffffffffffff80821115612b1857612b18612ada565b604051601f8301601f19908116603f01168101908282118183101715612b4057612b40612ada565b81604052838152866020858801011115612b58575f80fd5b836020870160208301375f602085830101528094505050505092915050565b5f60208284031215612b87575f80fd5b813567ffffffffffffffff811115612b9d575f80fd5b612ba984828501612aee565b949350505050565b5f60208284031215612bc1575f80fd5b610d54826129f2565b60018060a01b038082511683528060208301511660208401528060408301511660408401528060608301511660608401528060808301511660808401525060a0810151151560a083015260c081015161229d60c0840182612a69565b6101008101612c358285612bca565b82151560e08301529392505050565b5f60a08284031215612c54575f80fd5b60405160a0810167ffffffffffffffff8282108183111715612c7857612c78612ada565b816040528293508435915080821115612c8f575f80fd5b50612c9c85828601612aee565b825250612cab602084016129f2565b6020820152612cbc604084016129f2565b6040820152612ccd606084016129f2565b6060820152612cde608084016129f2565b60808201525092915050565b5f8060408385031215612cfb575f80fd5b823567ffffffffffffffff80821115612d12575f80fd5b612d1e86838701612c44565b93506020850135915080821115612d33575f80fd5b50612d4085828601612c44565b9150509250929050565b5f8060408385031215612d5b575f80fd5b612d64836129f2565b9150602083013567ffffffffffffffff811115612d7f575f80fd5b612d4085828601612aee565b602080825282518282018190525f9190848201906040850190845b81811015612dcc57612db9838551612bca565b9284019260e09290920191600101612da6565b50909695505050505050565b8015158114612012575f80fd5b5f805f60608486031215612df7575f80fd5b833567ffffffffffffffff80821115612e0e575f80fd5b612e1a87838801612c44565b94506020860135915080821115612e2f575f80fd5b50612e3c86828701612c44565b9250506040840135612e4d81612dd8565b809150509250925092565b60408101612e668285612a69565b610d546020830184612a69565b5f5b83811015612e8d578181015183820152602001612e75565b50505f910152565b602081525f8251806020840152612eb3816040850160208701612e73565b601f01601f19169190910160400192915050565b5f60208284031215612ed7575f80fd5b813567ffffffffffffffff811115612eed575f80fd5b612ba984828501612c44565b634e487b7160e01b5f52601160045260245ffd5b818103818111156105c7576105c7612ef9565b634e487b7160e01b5f52603260045260245ffd5b6020808252600e908201526d139bdd08185d5d1a1bdc9a5e995960921b604082015260600190565b808201808211156105c7576105c7612ef9565b60208082526025908201527f50726576696f7573207075626c6963206b6579206861736820616c7265616479604082015264081d5cd95960da1b606082015260800190565b60208082526031908201527f436f6e6669726d696e6720747769636520707265726f7461746564206b6579206040820152701a185cda08185b1c9958591e481d5cd959607a1b606082015260800190565b5f60208284031215613015575f80fd5b8151610d5481612dd8565b5f60208284031215613030575f80fd5b5051919050565b5f6001820161304857613048612ef9565b5060010190565b5f8251613060818460208701612e73565b919091019291505056fe360894a13ba1a3210667c828492db98dca3e2076cc3735a920a3ca505d382bbca26469706673582212203037498e62f971394dc5ae57a73e417dada124bfce4c81200019e696e550a3e964736f6c63430008180033",
  "linkReferences": {},
  "deployedLinkReferences": {}
}