{
  "_format": "hh-sol-artifact-1",
  "contractName": "KeyLogRegistry",
  "sourceName": "contracts/KeyLogRegistry.sol",
  "abi": [
    {
      "inputs": [],
      "stateMutability": "nonpayable",
      "type": "constructor"
    },
    {
      "inputs": [
        {
          "internalType": "address",
          "name": "owner",
          "type": "address"
        }
      ],
      "name": "OwnableInvalidOwner",
      "type": "error"
    },
    {
      "inputs": [
        {
          "internalType": "address",
          "name": "account",
          "type": "address"
        }
      ],
      "name": "OwnableUnauthorizedAccount",
      "type": "error"
    },
    {
      "anonymous": false,
      "inputs": [
        {
          "indexed": true,
          "internalType": "address",
          "name": "publicKeyHash",
          "type": "address"
        },
        {
          "indexed": false,
          "internalType": "uint256",
          "name": "index",
          "type": "uint256"
        }
      ],
      "name": "KeyLogRegistered",
      "type": "event"
    },
    {
      "anonymous": false,
      "inputs": [
        {
          "indexed": true,
          "internalType": "address",
          "name": "publicKeyHash",
          "type": "address"
        },
        {
          "indexed": false,
          "internalType": "uint256",
          "name": "index",
          "type": "uint256"
        }
      ],
      "name": "KeyRotated",
      "type": "event"
    },
    {
      "anonymous": false,
      "inputs": [
        {
          "indexed": true,
          "internalType": "address",
          "name": "previousOwner",
          "type": "address"
        },
        {
          "indexed": true,
          "internalType": "address",
          "name": "newOwner",
          "type": "address"
        }
      ],
      "name": "OwnershipTransferred",
      "type": "event"
    },
    {
      "inputs": [],
      "name": "authorizedCaller",
      "outputs": [
        {
          "internalType": "address",
          "name": "",
          "type": "address"
        }
      ],
      "stateMutability": "view",
      "type": "function"
    },
    {
      "inputs": [
        {
          "internalType": "bytes",
          "name": "publicKey",
          "type": "bytes"
        }
      ],
      "name": "buildFromPublicKey",
      "outputs": [
        {
          "components": [
            {
              "internalType": "address",
              "name": "twicePrerotatedKeyHash",
              "type": "address"
            },
            {
              "internalType": "address",
              "name": "prerotatedKeyHash",
              "type": "address"
            },
            {
              "internalType": "address",
              "name": "publicKeyHash",
              "type": "address"
            },
            {
              "internalType": "address",
              "name": "prevPublicKeyHash",
              "type": "address"
            },
            {
              "internalType": "address",
              "name": "outputAddress",
              "type": "address"
            },
            {
              "internalType": "bool",
              "name": "hasRelationship",
              "type": "bool"
            },
            {
              "internalType": "bool",
              "name": "isOnChain",
              "type": "bool"
            },
            {
              "internalType": "enum KeyLogRegistry.KeyEventFlag",
              "name": "flag",
              "type": "uint8"
            }
          ],
          "internalType": "struct KeyLogRegistry.KeyLogEntry[]",
          "name": "",
          "type": "tuple[]"
        }
      ],
      "stateMutability": "view",
      "type": "function"
    },
    {
      "inputs": [
        {
          "internalType": "address",
          "name": "",
          "type": "address"
        }
      ],
      "name": "byPrerotatedKeyHash",
      "outputs": [
        {
          "internalType": "uint256",
          "name": "",
          "type": "uint256"
        }
      ],
      "stateMutability": "view",
      "type": "function"
    },
    {
      "inputs": [
        {
          "internalType": "address",
          "name": "",
          "type": "address"
        }
      ],
      "name": "byPrevPublicKeyHash",
      "outputs": [
        {
          "internalType": "uint256",
          "name": "",
          "type": "uint256"
        }
      ],
      "stateMutability": "view",
      "type": "function"
    },
    {
      "inputs": [
        {
          "internalType": "address",
          "name": "",
          "type": "address"
        }
      ],
      "name": "byPublicKeyHash",
      "outputs": [
        {
          "internalType": "uint256",
          "name": "",
          "type": "uint256"
        }
      ],
      "stateMutability": "view",
      "type": "function"
    },
    {
      "inputs": [
        {
          "internalType": "address",
          "name": "",
          "type": "address"
        }
      ],
      "name": "byTwicePrerotatedKeyHash",
      "outputs": [
        {
          "internalType": "uint256",
          "name": "",
          "type": "uint256"
        }
      ],
      "stateMutability": "view",
      "type": "function"
    },
    {
      "inputs": [
        {
          "internalType": "bytes",
          "name": "publicKey",
          "type": "bytes"
        }
      ],
      "name": "getAddressFromPublicKey",
      "outputs": [
        {
          "internalType": "address",
          "name": "",
          "type": "address"
        }
      ],
      "stateMutability": "pure",
      "type": "function"
    },
    {
      "inputs": [
        {
          "internalType": "bytes",
          "name": "publicKey",
          "type": "bytes"
        }
      ],
      "name": "getCurrentIndex",
      "outputs": [
        {
          "internalType": "uint256",
          "name": "",
          "type": "uint256"
        }
      ],
      "stateMutability": "view",
      "type": "function"
    },
    {
      "inputs": [
        {
          "internalType": "bytes",
          "name": "publicKey",
          "type": "bytes"
        }
      ],
      "name": "getLatestChainEntry",
      "outputs": [
        {
          "components": [
            {
              "internalType": "address",
              "name": "twicePrerotatedKeyHash",
              "type": "address"
            },
            {
              "internalType": "address",
              "name": "prerotatedKeyHash",
              "type": "address"
            },
            {
              "internalType": "address",
              "name": "publicKeyHash",
              "type": "address"
            },
            {
              "internalType": "address",
              "name": "prevPublicKeyHash",
              "type": "address"
            },
            {
              "internalType": "address",
              "name": "outputAddress",
              "type": "address"
            },
            {
              "internalType": "bool",
              "name": "hasRelationship",
              "type": "bool"
            },
            {
              "internalType": "bool",
              "name": "isOnChain",
              "type": "bool"
            },
            {
              "internalType": "enum KeyLogRegistry.KeyEventFlag",
              "name": "flag",
              "type": "uint8"
            }
          ],
          "internalType": "struct KeyLogRegistry.KeyLogEntry",
          "name": "",
          "type": "tuple"
        },
        {
          "internalType": "bool",
          "name": "",
          "type": "bool"
        }
      ],
      "stateMutability": "view",
      "type": "function"
    },
    {
      "inputs": [
        {
          "internalType": "address",
          "name": "publicKeyHash",
          "type": "address"
        }
      ],
      "name": "getLatestEntry",
      "outputs": [
        {
          "components": [
            {
              "internalType": "address",
              "name": "twicePrerotatedKeyHash",
              "type": "address"
            },
            {
              "internalType": "address",
              "name": "prerotatedKeyHash",
              "type": "address"
            },
            {
              "internalType": "address",
              "name": "publicKeyHash",
              "type": "address"
            },
            {
              "internalType": "address",
              "name": "prevPublicKeyHash",
              "type": "address"
            },
            {
              "internalType": "address",
              "name": "outputAddress",
              "type": "address"
            },
            {
              "internalType": "bool",
              "name": "hasRelationship",
              "type": "bool"
            },
            {
              "internalType": "bool",
              "name": "isOnChain",
              "type": "bool"
            },
            {
              "internalType": "enum KeyLogRegistry.KeyEventFlag",
              "name": "flag",
              "type": "uint8"
            }
          ],
          "internalType": "struct KeyLogRegistry.KeyLogEntry",
          "name": "",
          "type": "tuple"
        },
        {
          "internalType": "bool",
          "name": "",
          "type": "bool"
        }
      ],
      "stateMutability": "view",
      "type": "function"
    },
    {
      "inputs": [
        {
          "internalType": "address",
          "name": "prerotatedKeyHash",
          "type": "address"
        }
      ],
      "name": "getLatestEntryByPrerotatedKeyHash",
      "outputs": [
        {
          "components": [
            {
              "internalType": "address",
              "name": "twicePrerotatedKeyHash",
              "type": "address"
            },
            {
              "internalType": "address",
              "name": "prerotatedKeyHash",
              "type": "address"
            },
            {
              "internalType": "address",
              "name": "publicKeyHash",
              "type": "address"
            },
            {
              "internalType": "address",
              "name": "prevPublicKeyHash",
              "type": "address"
            },
            {
              "internalType": "address",
              "name": "outputAddress",
              "type": "address"
            },
            {
              "internalType": "bool",
              "name": "hasRelationship",
              "type": "bool"
            },
            {
              "internalType": "bool",
              "name": "isOnChain",
              "type": "bool"
            },
            {
              "internalType": "enum KeyLogRegistry.KeyEventFlag",
              "name": "flag",
              "type": "uint8"
            }
          ],
          "internalType": "struct KeyLogRegistry.KeyLogEntry",
          "name": "",
          "type": "tuple"
        },
        {
          "internalType": "bool",
          "name": "",
          "type": "bool"
        }
      ],
      "stateMutability": "view",
      "type": "function"
    },
    {
      "inputs": [
        {
          "internalType": "bytes",
          "name": "publicKey",
          "type": "bytes"
        }
      ],
      "name": "getPreviousEntry",
      "outputs": [
        {
          "components": [
            {
              "internalType": "address",
              "name": "twicePrerotatedKeyHash",
              "type": "address"
            },
            {
              "internalType": "address",
              "name": "prerotatedKeyHash",
              "type": "address"
            },
            {
              "internalType": "address",
              "name": "publicKeyHash",
              "type": "address"
            },
            {
              "internalType": "address",
              "name": "prevPublicKeyHash",
              "type": "address"
            },
            {
              "internalType": "address",
              "name": "outputAddress",
              "type": "address"
            },
            {
              "internalType": "bool",
              "name": "hasRelationship",
              "type": "bool"
            },
            {
              "internalType": "bool",
              "name": "isOnChain",
              "type": "bool"
            },
            {
              "internalType": "enum KeyLogRegistry.KeyEventFlag",
              "name": "flag",
              "type": "uint8"
            }
          ],
          "internalType": "struct KeyLogRegistry.KeyLogEntry",
          "name": "",
          "type": "tuple"
        },
        {
          "internalType": "bool",
          "name": "",
          "type": "bool"
        }
      ],
      "stateMutability": "view",
      "type": "function"
    },
    {
      "inputs": [
        {
          "internalType": "uint256",
          "name": "",
          "type": "uint256"
        }
      ],
      "name": "keyLogEntries",
      "outputs": [
        {
          "internalType": "address",
          "name": "twicePrerotatedKeyHash",
          "type": "address"
        },
        {
          "internalType": "address",
          "name": "prerotatedKeyHash",
          "type": "address"
        },
        {
          "internalType": "address",
          "name": "publicKeyHash",
          "type": "address"
        },
        {
          "internalType": "address",
          "name": "prevPublicKeyHash",
          "type": "address"
        },
        {
          "internalType": "address",
          "name": "outputAddress",
          "type": "address"
        },
        {
          "internalType": "bool",
          "name": "hasRelationship",
          "type": "bool"
        },
        {
          "internalType": "bool",
          "name": "isOnChain",
          "type": "bool"
        },
        {
          "internalType": "enum KeyLogRegistry.KeyEventFlag",
          "name": "flag",
          "type": "uint8"
        }
      ],
      "stateMutability": "view",
      "type": "function"
    },
    {
      "inputs": [],
      "name": "owner",
      "outputs": [
        {
          "internalType": "address",
          "name": "",
          "type": "address"
        }
      ],
      "stateMutability": "view",
      "type": "function"
    },
    {
      "inputs": [
        {
          "internalType": "bytes",
          "name": "publicKey",
          "type": "bytes"
        },
        {
          "internalType": "address",
          "name": "publicKeyHash",
          "type": "address"
        },
        {
          "internalType": "address",
          "name": "prerotatedKeyHash",
          "type": "address"
        },
        {
          "internalType": "address",
          "name": "twicePrerotatedKeyHash",
          "type": "address"
        },
        {
          "internalType": "address",
          "name": "prevPublicKeyHash",
          "type": "address"
        },
        {
          "internalType": "address",
          "name": "outputAddress",
          "type": "address"
        },
        {
          "internalType": "bool",
          "name": "hasRelationship",
          "type": "bool"
        }
      ],
      "name": "registerKeyLog",
      "outputs": [],
      "stateMutability": "nonpayable",
      "type": "function"
    },
    {
      "inputs": [
        {
          "internalType": "bytes",
          "name": "publicKey",
          "type": "bytes"
        },
        {
          "internalType": "address",
          "name": "unconfirmedPrerotatedKeyHash",
          "type": "address"
        },
        {
          "internalType": "address",
          "name": "unconfirmedTwicePrerotatedKeyHash",
          "type": "address"
        },
        {
          "internalType": "address",
          "name": "unconfirmedPrevPublicKeyHash",
          "type": "address"
        },
        {
          "internalType": "address",
          "name": "unconfirmedOutputAddress",
          "type": "address"
        },
        {
          "internalType": "bool",
          "name": "unconfirmedHasRelationship",
          "type": "bool"
        },
        {
          "internalType": "address",
          "name": "confirmingPublicKeyHash",
          "type": "address"
        },
        {
          "internalType": "address",
          "name": "confirmingPrerotatedKeyHash",
          "type": "address"
        },
        {
          "internalType": "address",
          "name": "confirmingTwicePrerotatedKeyHash",
          "type": "address"
        },
        {
          "internalType": "address",
          "name": "confirmingPrevPublicKeyHash",
          "type": "address"
        },
        {
          "internalType": "address",
          "name": "confirmingOutputAddress",
          "type": "address"
        },
        {
          "internalType": "bool",
          "name": "confirmingHasRelationship",
          "type": "bool"
        }
      ],
      "name": "registerKeyLogPair",
      "outputs": [],
      "stateMutability": "nonpayable",
      "type": "function"
    },
    {
      "inputs": [],
      "name": "renounceOwnership",
      "outputs": [],
      "stateMutability": "nonpayable",
      "type": "function"
    },
    {
      "inputs": [
        {
          "internalType": "address",
          "name": "_caller",
          "type": "address"
        }
      ],
      "name": "setAuthorizedCaller",
      "outputs": [],
      "stateMutability": "nonpayable",
      "type": "function"
    },
    {
      "inputs": [
        {
          "internalType": "address",
          "name": "newOwner",
          "type": "address"
        }
      ],
      "name": "transferOwnership",
      "outputs": [],
      "stateMutability": "nonpayable",
      "type": "function"
    },
    {
      "inputs": [
        {
          "internalType": "bytes",
          "name": "publicKey",
          "type": "bytes"
        },
        {
          "internalType": "address",
          "name": "publicKeyHash",
          "type": "address"
        },
        {
          "internalType": "address",
          "name": "prerotatedKeyHash",
          "type": "address"
        },
        {
          "internalType": "address",
          "name": "twicePrerotatedKeyHash",
          "type": "address"
        },
        {
          "internalType": "address",
          "name": "prevPublicKeyHash",
          "type": "address"
        },
        {
          "internalType": "address",
          "name": "outputAddress",
          "type": "address"
        },
        {
          "internalType": "bool",
          "name": "hasRelationship",
          "type": "bool"
        },
        {
          "internalType": "bool",
          "name": "isPair",
          "type": "bool"
        },
        {
          "internalType": "address",
          "name": "confirmingPublicKeyHash",
          "type": "address"
        },
        {
          "internalType": "address",
          "name": "confirmingPrerotatedKeyHash",
          "type": "address"
        },
        {
          "internalType": "address",
          "name": "confirmingTwicePrerotatedKeyHash",
          "type": "address"
        },
        {
          "internalType": "address",
          "name": "confirmingPrevPublicKeyHash",
          "type": "address"
        },
        {
          "internalType": "address",
          "name": "confirmingOutputAddress",
          "type": "address"
        },
        {
          "internalType": "bool",
          "name": "confirmingHasRelationship",
          "type": "bool"
        }
      ],
      "name": "validateTransaction",
      "outputs": [
        {
          "internalType": "enum KeyLogRegistry.KeyEventFlag",
          "name": "",
          "type": "uint8"
        },
        {
          "internalType": "enum KeyLogRegistry.KeyEventFlag",
          "name": "",
          "type": "uint8"
        }
      ],
      "stateMutability": "view",
      "type": "function"
    }
  ],
  "bytecode": "0x6080806040523461007a5733156100645760008054336001600160a01b03198216811783556040519290916001600160a01b0316907f8be0079c531659141344cd1fd0a4f28419497f9722a3daafe3b4186f6b6457e09080a3611b4c90816100808239f35b631e4fbdf760e01b815260006004820152602490fd5b600080fdfe6080604052600436101561001257600080fd5b60003560e01c806325fb5bd914610fd4578063276c1ac014610f885780632a39b65e14610bb05780632bf2fac914610b765780632d2eca6a14610b3e5780632e91b77d14610562578063401795b2146105285780635ed9739c146104a6578063715018a61461044d5780638da5cb5b14610424578063919525511461040357806392e71104146103e257806397dc97cb146103b95780639fa17f911461037f578063a375e47214610345578063cf8fbec914610302578063edffe2121461021a578063ee93aac2146101ce578063f2fde38b146101405763fb51e5bb146100f857600080fd5b3461013b57602036600319011261013b576004356001600160401b03811161013b5761013261012d602092369060040161112c565b611528565b51604051908152f35b600080fd5b3461013b57602036600319011261013b576101596111ec565b610161611aea565b6001600160a01b039081169081156101b557600054826bffffffffffffffffffffffff60a01b821617600055167f8be0079c531659141344cd1fd0a4f28419497f9722a3daafe3b4186f6b6457e0600080a3005b604051631e4fbdf760e01b815260006004820152602490fd5b3461013b57602036600319011261013b576004356001600160401b03811161013b5761020161020691369060040161112c565b611aa2565b90610216604051928392836112be565b0390f35b3461013b576101c036600319011261013b576004356001600160401b03811161013b5761024b90369060040161112c565b61025361117e565b61025b611194565b916102646111aa565b61026c6111c0565b6102746111d6565b61027c611247565b60e435801515810361013b57610290611202565b610298611219565b916102a1611230565b6001600160a01b0396610164359691959190888816880361013b5761018435988916890361013b576101a435998a15158b0361013b5760409d6103009d6102e79d611873565b6102f6849392935180946110c4565b60208301906110c4565bf35b3461013b57602036600319011261013b5761031b6111ec565b610323611aea565b600680546001600160a01b0319166001600160a01b0392909216919091179055005b3461013b57602036600319011261013b576001600160a01b036103666111ec565b1660005260026020526020604060002054604051908152f35b3461013b57602036600319011261013b576001600160a01b036103a06111ec565b1660005260056020526020604060002054604051908152f35b3461013b57600036600319011261013b576006546040516001600160a01b039091168152602090f35b3461013b57602036600319011261013b576102066103fe6111ec565b6117dc565b3461013b57602036600319011261013b5761020661041f6111ec565b611797565b3461013b57600036600319011261013b576000546040516001600160a01b039091168152602090f35b3461013b57600036600319011261013b57610466611aea565b600080546001600160a01b0319811682556001600160a01b03167f8be0079c531659141344cd1fd0a4f28419497f9722a3daafe3b4186f6b6457e08280a3005b3461013b5760208060031936011261013b576004356001600160401b03811161013b5761012d6104da91369060040161112c565b604051906020820160208352815180915260206040840192019360005b8281106105045784840385f35b90919282610100826105196001948a51611256565b019601910194929190946104f7565b3461013b57602036600319011261013b576001600160a01b036105496111ec565b1660005260036020526020604060002054604051908152f35b3461013b5761018036600319011261013b576004356001600160401b03811161013b5761059390369060040161112c565b61059b61117e565b906105a4611194565b916105ad6111aa565b906105b66111c0565b60a435151560a4350361013b5760c435926001600160a01b038416840361013b5760e435956001600160a01b038716870361013b576105f3611202565b916105fc611219565b93610605611230565b916101643591821515830361013b576006546001600160a01b031633148015610b2a575b1561013b576106378a6112db565b9961064181611457565b82516020909301929092206001600160a01b0316908215610b155760c08101511561013b5760408101516001600160a01b039081169086160361013b5760208101516001600160a01b031682900361013b57516001600160a01b03908116908b160361013b575b6001600160a01b038c160361013b576001600160a01b03891660009081526004602052604090205461013b576001600160a01b03861660009081526005602052604090205461013b576001600160a01b038c1660009081526004602052604090205461013b576001600160a01b03871660009081526005602052604090205461013b571580610b04575b15610ab85760a4351580610aa3575b1561013b575b6001600160a01b038b81169086160361013b57821580610a8e575b1561013b576001600160a01b038981169089160361013b576001600160a01b038a81169088160361013b576107e3906107996110d1565b6001600160a01b0387811682528a811660208301528c811660408301528481166060830152909116608082015260a435151560a0820152600160c0820181905260e0820152611304565b60015496876000198101116109c5576001600160a01b038a811660009081526002602052604081208a905592908116610a6c575b50816001600160a01b038216610a47575b50506001600160a01b038416610a22575b5061088e92506108476110d1565b6001600160a01b0385811682528a81166020830152888116604083015286811660608301529092166080830152151560a0820152600160c0820152600260e0820152611304565b600154916000198301968388116109c5576001600160a01b03868116600090815260026020526040812086905592908116610a00575b50816001600160a01b0382166109db575b50506001600160a01b038216610973575b6040516000198501815287907f65b9775e0ec7a02caf84b2523694b517ace341c14dd2b3926a5591d7b5f5a9969060209088907fa9366f75c6c44e3c9ee299d368915abb2fa3108d469f3ab468ef239142dc725b906001600160a01b038c169082908590a26040518581526001600160a01b03831691908490a26040519384526001600160a01b031692a2005b93929091936109c5576001600160a01b039091166000908152600560209081526040909120939093559091817f65b9775e0ec7a02caf84b2523694b517ace341c14dd2b3926a5591d7b5f5a9966108e6565b634e487b7160e01b600052601160045260246000fd5b6109c5576001600160a01b0316600090815260046020526040902083905587816108d5565b6001600160a01b031660009081526003602052604081208590559150886108c4565b6109c55761088e9260018060a01b031660005260056020528560406000205589610839565b6109c5576001600160a01b031660009081526004602052604090208790558a81610828565b6001600160a01b0316600090815260036020526040812089905591508b610817565b506001600160a01b03848116908c1614610762565b506001600160a01b0381811690891614610741565b60a4358015610aee575b6107475760a4351580610ad9575b61074757600080fd5b506001600160a01b0381811690891614610ad0565b506001600160a01b038181169089161415610ac2565b506001600160a01b03821615610732565b506001600160a01b038416156106a857600080fd5b506000546001600160a01b03163314610629565b3461013b57602036600319011261013b576004356001600160401b03811161013b57610b7161020691369060040161112c565b611457565b3461013b57602036600319011261013b576001600160a01b03610b976111ec565b1660005260046020526020604060002054604051908152f35b3461013b5760e036600319011261013b576004356001600160401b03811161013b57610be090369060040161112c565b610be861117e565b610bf0611194565b91610bf96111aa565b90610c026111c0565b91610c0b6111d6565b90610c14611247565b92610c1e81611457565b82516020909301929092206001600160a01b0316908215610f735760c08101511561013b5760408101516001600160a01b039081169088160361013b5760208101516001600160a01b031682900361013b57516001600160a01b039081169089160361013b575b6001600160a01b0387160361013b576001600160a01b03871660009081526004602052604090205461013b576001600160a01b03821660009081526005602052604090205461013b576000805260046020527f17ef568e3e12ab5b9c7254a8d58478811de00f9e6eb34345acd53bf8fd09d3ec5461013b57600560205260406000205461013b571580610f62575b15610f0d57821580610ef8575b1561013b576000935b60038510159384610e70578515908115610ee9575b90610d9c9291610d4c6110d1565b6001600160a01b0386811682528b811660208301528a8116604083015293841660608201819052969093166080840152151560a0830152151560c0820152610d978660e083016112f8565b611304565b600154916000198301968388116109c5576001600160a01b03871660009081526002602052604081208590559180610ecf575b50816001600160a01b038216610eaa575b50506001600160a01b038216610e86575b50506040518581526001600160a01b03851691507fa9366f75c6c44e3c9ee299d368915abb2fa3108d469f3ab468ef239142dc725b90602090a2610e7057600103610e3857005b6040519182526001600160a01b0316907f65b9775e0ec7a02caf84b2523694b517ace341c14dd2b3926a5591d7b5f5a99690602090a2005b634e487b7160e01b600052602160045260246000fd5b6109c5576001600160a01b0316600090815260056020526040902055848080610df1565b6109c5576001600160a01b031660009081526004602052604090208390558781610de0565b915060009160005260036020528360406000205588610dcf565b60009550600287149150610d3e565b506001600160a01b0382811690871614610d20565b82158381610f4c575b15610f245750600193610d29565b80610f37575b1561013b57600293610d29565b506001600160a01b0382811690871614610f2a565b506001600160a01b038381169088161415610f16565b506001600160a01b03841615610d13565b506001600160a01b03861615610c8557600080fd5b3461013b57602036600319011261013b576004356001600160401b03811161013b57610fc2610fbd602092369060040161112c565b6112db565b6040516001600160a01b039091168152f35b3461013b57602036600319011261013b5760043560015481101561013b57610ffe61010091611073565b5061030060018060a01b03918281541692806001830154169181600282015416600483600384015416920154936040519687526020870152604086015260608501528116608084015260ff8160a01c16151560a084015260ff8160a81c16151560c084015260ff60e084019160b01c166110c4565b6001548110156110ae576005906001600052027fb10e2d527612073b26eecdfd717e6a320cf44b4afac2b0732d9fcbe2b7fa0cf60190600090565b634e487b7160e01b600052603260045260246000fd5b906003821015610e705752565b6040519061010082018281106001600160401b038211176110f157604052565b634e487b7160e01b600052604160045260246000fd5b6040519190601f01601f191682016001600160401b038111838210176110f157604052565b81601f8201121561013b578035906001600160401b0382116110f15761115b601f8301601f1916602001611107565b928284526020838301011161013b57816000926020809301838601378301015290565b602435906001600160a01b038216820361013b57565b604435906001600160a01b038216820361013b57565b606435906001600160a01b038216820361013b57565b608435906001600160a01b038216820361013b57565b60a435906001600160a01b038216820361013b57565b600435906001600160a01b038216820361013b57565b61010435906001600160a01b038216820361013b57565b61012435906001600160a01b038216820361013b57565b61014435906001600160a01b038216820361013b57565b60c43590811515820361013b57565b9060e0806112bc9360018060a01b03808251168552806020830151166020860152806040830151166040860152806060830151166060860152608082015116608085015260a0810151151560a085015260c0810151151560c085015201519101906110c4565b565b909291610100906112d483610120810196611256565b1515910152565b80516040810361013b57602091909101206001600160a01b031690565b6003821015610e705752565b600154680100000000000000008110156110f1578060016113289201600155611073565b9190916113e757600460018060a01b0392838351166bffffffffffffffffffffffff60a01b90818354161782556001820185602086015116828254161790556002820185604086015116828254161790556003820190856060860151169082541617905501916080820151169082549160ff60a01b60a0830151151560a01b169060e060ff60a81b60c0850151151560a81b169301516003811015610e70576001600160b81b031990941617171760b09190911b60ff60b01b16179055565b634e487b7160e01b600052600060045260246000fd5b6114056110d1565b9060008083528060208401528060408401528060608401528060808401528060a08401528060c084015260e0830152565b8051156110ae5760200190565b80518210156110ae5760209160051b010190565b611469906114636113fd565b50611528565b80511561148e57805160001981019081116109c55761148791611443565b5190600190565b506114976113fd565b90600090565b6001600160401b0381116110f15760051b60200190565b906112bc60ff6114c26110d1565b93600460018060a01b039182815416875282600182015416602088015282600282015416604088015282600382015416606088015201549081166080860152818160a01c16151560a0860152818160a81c16151560c086015260b01c1660e084016112f8565b611531906112db565b604080516001600160401b0393929091610ca08301858111848210176110f15781526064835260005b610c808110611780575060009161156f6113fd565b506115786113fd565b505b6001600160a01b0390811683526002602090815282842054908115611771575b8115611762575b81156117305750600019810190811161171c576115c06115c691611073565b506114b4565b906060820151169081156115da575061157a565b9495509293919250611668565b50506115fa6115f58261149d565b611107565b81815291601f1961160a8361149d565b0160005b81811061165157505060005b8281106116275750505090565b8061163460019284611443565b5161163f8287611443565b5261164a8186611443565b500161161a565b60209061165c6113fd565b8282880101520161160e565b9080925061167584611436565b5261167f83611436565b5060209182015160019283916001600160a01b0391908216835b6116a6575b5050506115e7565b821660005260028152836000205493841560000361169e579091929394600019958681019081116109c5576115c06116dd91611073565b95866116e9838a611443565b526116f48289611443565b5081146109c5578285859201960151168651861015611717578493929194611699565b61169e565b634e487b7160e01b84526011600452602484fd5b959693945050508051938401918483109083111761174e5752815290565b634e487b7160e01b83526041600452602483fd5b600581528385205491506115a1565b6004815283852054915061159a565b60209061178b6113fd565b8282870101520161155a565b61179f6113fd565b506001600160a01b0316600090815260026020526040902054801561148e5760001981019081116109c5576115c06117d691611073565b90600190565b6117e46113fd565b506001600160a01b039081166000908152600460205260408120548015611853575b600019810190811161183f576115c061181e91611073565b9160208301511681526002602052604081205461183c575090600190565b80fd5b634e487b7160e01b82526011600452602482fd5b506005602052604081205480611806575091905061186f6113fd565b9190565b909b97999c969493919a9c95929561188a82611457565b83516020909401939093206001600160a01b0316908315611a8d5760c08101511561013b5760408101516001600160a01b039081169086160361013b5760208101516001600160a01b031682900361013b57516001600160a01b03908116908e160361013b575b6001600160a01b038e160361013b576001600160a01b038c1660009081526004602052604090205461013b576001600160a01b03871660009081526005602052604090205461013b576001600160a01b038a1660009081526004602052604090205461013b576001600160a01b031660009081526005602052604090205461013b57159081611a7b575b5015611a2257159081611a0c575b501561013b576000905b156119fd57506001600160a01b0384811691160361013b571591826119e6575b50501561013b576001600160a01b0390811691160361013b576001600160a01b0390811691160361013b57600190600290565b6001600160a01b03918216911614905038806119b3565b97505050505050505090600190565b6001600160a01b03898116911614905038611989565b9081159182611a65575b15611a3b575050600190611993565b81611a4f575b501561013b57600290611993565b6001600160a01b03898116911614905038611a41565b506001600160a01b03818116908a161415611a2c565b6001600160a01b03161590503861197b565b506001600160a01b038416156118f157600080fd5b611aaa6113fd565b506001600160a01b0390611abd906112db565b166000526004602052604060002054801561148e5760001981019081116109c5576115c06117d691611073565b6000546001600160a01b03163303611afe57565b60405163118cdaa760e01b8152336004820152602490fdfea2646970667358221220b85b1dbc3bddaa3840a76ca0eab86e09b2f1f49895a257e943ca81843e2602ce64736f6c63430008180033",
  "linkReferences": {},
  "deployedLinkReferences": {}
}