{
  "_format": "hh-sol-artifact-1",
  "contractName": "KeyLogRegistry",
  "sourceName": "contracts/KeyLogRegistry.sol",
  "abi": [
    {
      "inputs": [],
      "stateMutability": "nonpayable",
      "type": "constructor"
    },
    {
      "inputs": [
        {
          "internalType": "address",
          "name": "owner",
          "type": "address"
        }
      ],
      "name": "OwnableInvalidOwner",
      "type": "error"
    },
    {
      "inputs": [
        {
          "internalType": "address",
          "name": "account",
          "type": "address"
        }
      ],
      "name": "OwnableUnauthorizedAccount",
      "type": "error"
    },
    {
      "anonymous": false,
      "inputs": [
        {
          "indexed": true,
          "internalType": "address",
          "name": "publicKeyHash",
          "type": "address"
        },
        {
          "indexed": false,
          "internalType": "uint256",
          "name": "index",
          "type": "uint256"
        }
      ],
      "name": "KeyLogRegistered",
      "type": "event"
    },
    {
      "anonymous": false,
      "inputs": [
        {
          "indexed": true,
          "internalType": "address",
          "name": "publicKeyHash",
          "type": "address"
        },
        {
          "indexed": false,
          "internalType": "uint256",
          "name": "index",
          "type": "uint256"
        }
      ],
      "name": "KeyRotated",
      "type": "event"
    },
    {
      "anonymous": false,
      "inputs": [
        {
          "indexed": true,
          "internalType": "address",
          "name": "previousOwner",
          "type": "address"
        },
        {
          "indexed": true,
          "internalType": "address",
          "name": "newOwner",
          "type": "address"
        }
      ],
      "name": "OwnershipTransferred",
      "type": "event"
    },
    {
      "inputs": [],
      "name": "authorizedCaller",
      "outputs": [
        {
          "internalType": "address",
          "name": "",
          "type": "address"
        }
      ],
      "stateMutability": "view",
      "type": "function"
    },
    {
      "inputs": [
        {
          "internalType": "bytes",
          "name": "publicKey",
          "type": "bytes"
        }
      ],
      "name": "buildFromPublicKey",
      "outputs": [
        {
          "components": [
            {
              "internalType": "address",
              "name": "twicePrerotatedKeyHash",
              "type": "address"
            },
            {
              "internalType": "address",
              "name": "prerotatedKeyHash",
              "type": "address"
            },
            {
              "internalType": "address",
              "name": "publicKeyHash",
              "type": "address"
            },
            {
              "internalType": "address",
              "name": "prevPublicKeyHash",
              "type": "address"
            },
            {
              "internalType": "address",
              "name": "outputAddress",
              "type": "address"
            },
            {
              "internalType": "bool",
              "name": "isOnChain",
              "type": "bool"
            },
            {
              "internalType": "enum KeyLogRegistry.KeyEventFlag",
              "name": "flag",
              "type": "uint8"
            }
          ],
          "internalType": "struct KeyLogRegistry.KeyLogEntry[]",
          "name": "",
          "type": "tuple[]"
        }
      ],
      "stateMutability": "view",
      "type": "function"
    },
    {
      "inputs": [
        {
          "internalType": "address",
          "name": "",
          "type": "address"
        }
      ],
      "name": "byPrerotatedKeyHash",
      "outputs": [
        {
          "internalType": "uint256",
          "name": "",
          "type": "uint256"
        }
      ],
      "stateMutability": "view",
      "type": "function"
    },
    {
      "inputs": [
        {
          "internalType": "address",
          "name": "",
          "type": "address"
        }
      ],
      "name": "byPrevPublicKeyHash",
      "outputs": [
        {
          "internalType": "uint256",
          "name": "",
          "type": "uint256"
        }
      ],
      "stateMutability": "view",
      "type": "function"
    },
    {
      "inputs": [
        {
          "internalType": "address",
          "name": "",
          "type": "address"
        }
      ],
      "name": "byPublicKeyHash",
      "outputs": [
        {
          "internalType": "uint256",
          "name": "",
          "type": "uint256"
        }
      ],
      "stateMutability": "view",
      "type": "function"
    },
    {
      "inputs": [
        {
          "internalType": "address",
          "name": "",
          "type": "address"
        }
      ],
      "name": "byTwicePrerotatedKeyHash",
      "outputs": [
        {
          "internalType": "uint256",
          "name": "",
          "type": "uint256"
        }
      ],
      "stateMutability": "view",
      "type": "function"
    },
    {
      "inputs": [
        {
          "internalType": "bytes",
          "name": "publicKey",
          "type": "bytes"
        }
      ],
      "name": "getAddressFromPublicKey",
      "outputs": [
        {
          "internalType": "address",
          "name": "",
          "type": "address"
        }
      ],
      "stateMutability": "pure",
      "type": "function"
    },
    {
      "inputs": [
        {
          "internalType": "bytes",
          "name": "publicKey",
          "type": "bytes"
        }
      ],
      "name": "getCurrentIndex",
      "outputs": [
        {
          "internalType": "uint256",
          "name": "",
          "type": "uint256"
        }
      ],
      "stateMutability": "view",
      "type": "function"
    },
    {
      "inputs": [
        {
          "internalType": "bytes",
          "name": "publicKey",
          "type": "bytes"
        }
      ],
      "name": "getLatestChainEntry",
      "outputs": [
        {
          "components": [
            {
              "internalType": "address",
              "name": "twicePrerotatedKeyHash",
              "type": "address"
            },
            {
              "internalType": "address",
              "name": "prerotatedKeyHash",
              "type": "address"
            },
            {
              "internalType": "address",
              "name": "publicKeyHash",
              "type": "address"
            },
            {
              "internalType": "address",
              "name": "prevPublicKeyHash",
              "type": "address"
            },
            {
              "internalType": "address",
              "name": "outputAddress",
              "type": "address"
            },
            {
              "internalType": "bool",
              "name": "isOnChain",
              "type": "bool"
            },
            {
              "internalType": "enum KeyLogRegistry.KeyEventFlag",
              "name": "flag",
              "type": "uint8"
            }
          ],
          "internalType": "struct KeyLogRegistry.KeyLogEntry",
          "name": "",
          "type": "tuple"
        },
        {
          "internalType": "bool",
          "name": "",
          "type": "bool"
        }
      ],
      "stateMutability": "view",
      "type": "function"
    },
    {
      "inputs": [
        {
          "internalType": "address",
          "name": "publicKeyHash",
          "type": "address"
        }
      ],
      "name": "getLatestEntry",
      "outputs": [
        {
          "components": [
            {
              "internalType": "address",
              "name": "twicePrerotatedKeyHash",
              "type": "address"
            },
            {
              "internalType": "address",
              "name": "prerotatedKeyHash",
              "type": "address"
            },
            {
              "internalType": "address",
              "name": "publicKeyHash",
              "type": "address"
            },
            {
              "internalType": "address",
              "name": "prevPublicKeyHash",
              "type": "address"
            },
            {
              "internalType": "address",
              "name": "outputAddress",
              "type": "address"
            },
            {
              "internalType": "bool",
              "name": "isOnChain",
              "type": "bool"
            },
            {
              "internalType": "enum KeyLogRegistry.KeyEventFlag",
              "name": "flag",
              "type": "uint8"
            }
          ],
          "internalType": "struct KeyLogRegistry.KeyLogEntry",
          "name": "",
          "type": "tuple"
        },
        {
          "internalType": "bool",
          "name": "",
          "type": "bool"
        }
      ],
      "stateMutability": "view",
      "type": "function"
    },
    {
      "inputs": [
        {
          "internalType": "address",
          "name": "prerotatedKeyHash",
          "type": "address"
        }
      ],
      "name": "getLatestEntryByPrerotatedKeyHash",
      "outputs": [
        {
          "components": [
            {
              "internalType": "address",
              "name": "twicePrerotatedKeyHash",
              "type": "address"
            },
            {
              "internalType": "address",
              "name": "prerotatedKeyHash",
              "type": "address"
            },
            {
              "internalType": "address",
              "name": "publicKeyHash",
              "type": "address"
            },
            {
              "internalType": "address",
              "name": "prevPublicKeyHash",
              "type": "address"
            },
            {
              "internalType": "address",
              "name": "outputAddress",
              "type": "address"
            },
            {
              "internalType": "bool",
              "name": "isOnChain",
              "type": "bool"
            },
            {
              "internalType": "enum KeyLogRegistry.KeyEventFlag",
              "name": "flag",
              "type": "uint8"
            }
          ],
          "internalType": "struct KeyLogRegistry.KeyLogEntry",
          "name": "",
          "type": "tuple"
        },
        {
          "internalType": "bool",
          "name": "",
          "type": "bool"
        }
      ],
      "stateMutability": "view",
      "type": "function"
    },
    {
      "inputs": [
        {
          "internalType": "bytes",
          "name": "publicKey",
          "type": "bytes"
        }
      ],
      "name": "getPreviousEntry",
      "outputs": [
        {
          "components": [
            {
              "internalType": "address",
              "name": "twicePrerotatedKeyHash",
              "type": "address"
            },
            {
              "internalType": "address",
              "name": "prerotatedKeyHash",
              "type": "address"
            },
            {
              "internalType": "address",
              "name": "publicKeyHash",
              "type": "address"
            },
            {
              "internalType": "address",
              "name": "prevPublicKeyHash",
              "type": "address"
            },
            {
              "internalType": "address",
              "name": "outputAddress",
              "type": "address"
            },
            {
              "internalType": "bool",
              "name": "isOnChain",
              "type": "bool"
            },
            {
              "internalType": "enum KeyLogRegistry.KeyEventFlag",
              "name": "flag",
              "type": "uint8"
            }
          ],
          "internalType": "struct KeyLogRegistry.KeyLogEntry",
          "name": "",
          "type": "tuple"
        },
        {
          "internalType": "bool",
          "name": "",
          "type": "bool"
        }
      ],
      "stateMutability": "view",
      "type": "function"
    },
    {
      "inputs": [
        {
          "internalType": "uint256",
          "name": "",
          "type": "uint256"
        }
      ],
      "name": "keyLogEntries",
      "outputs": [
        {
          "internalType": "address",
          "name": "twicePrerotatedKeyHash",
          "type": "address"
        },
        {
          "internalType": "address",
          "name": "prerotatedKeyHash",
          "type": "address"
        },
        {
          "internalType": "address",
          "name": "publicKeyHash",
          "type": "address"
        },
        {
          "internalType": "address",
          "name": "prevPublicKeyHash",
          "type": "address"
        },
        {
          "internalType": "address",
          "name": "outputAddress",
          "type": "address"
        },
        {
          "internalType": "bool",
          "name": "isOnChain",
          "type": "bool"
        },
        {
          "internalType": "enum KeyLogRegistry.KeyEventFlag",
          "name": "flag",
          "type": "uint8"
        }
      ],
      "stateMutability": "view",
      "type": "function"
    },
    {
      "inputs": [],
      "name": "owner",
      "outputs": [
        {
          "internalType": "address",
          "name": "",
          "type": "address"
        }
      ],
      "stateMutability": "view",
      "type": "function"
    },
    {
      "inputs": [
        {
          "internalType": "bytes",
          "name": "publicKey",
          "type": "bytes"
        },
        {
          "internalType": "address",
          "name": "prerotatedKeyHash",
          "type": "address"
        },
        {
          "internalType": "address",
          "name": "twicePrerotatedKeyHash",
          "type": "address"
        },
        {
          "internalType": "address",
          "name": "prevPublicKeyHash",
          "type": "address"
        },
        {
          "internalType": "address",
          "name": "outputAddress",
          "type": "address"
        }
      ],
      "name": "registerKeyLog",
      "outputs": [],
      "stateMutability": "nonpayable",
      "type": "function"
    },
    {
      "inputs": [
        {
          "internalType": "bytes",
          "name": "unconfirmedPublicKey",
          "type": "bytes"
        },
        {
          "internalType": "address",
          "name": "unconfirmedPrerotatedKeyHash",
          "type": "address"
        },
        {
          "internalType": "address",
          "name": "unconfirmedTwicePrerotatedKeyHash",
          "type": "address"
        },
        {
          "internalType": "address",
          "name": "unconfirmedPrevPublicKeyHash",
          "type": "address"
        },
        {
          "internalType": "address",
          "name": "unconfirmedOutputAddress",
          "type": "address"
        },
        {
          "internalType": "bytes",
          "name": "confirmingPublicKey",
          "type": "bytes"
        },
        {
          "internalType": "address",
          "name": "confirmingPrerotatedKeyHash",
          "type": "address"
        },
        {
          "internalType": "address",
          "name": "confirmingTwicePrerotatedKeyHash",
          "type": "address"
        },
        {
          "internalType": "address",
          "name": "confirmingPrevPublicKeyHash",
          "type": "address"
        },
        {
          "internalType": "address",
          "name": "confirmingOutputAddress",
          "type": "address"
        }
      ],
      "name": "registerKeyLogPair",
      "outputs": [],
      "stateMutability": "nonpayable",
      "type": "function"
    },
    {
      "inputs": [],
      "name": "renounceOwnership",
      "outputs": [],
      "stateMutability": "nonpayable",
      "type": "function"
    },
    {
      "inputs": [
        {
          "internalType": "address",
          "name": "_caller",
          "type": "address"
        }
      ],
      "name": "setAuthorizedCaller",
      "outputs": [],
      "stateMutability": "nonpayable",
      "type": "function"
    },
    {
      "inputs": [
        {
          "internalType": "address",
          "name": "newOwner",
          "type": "address"
        }
      ],
      "name": "transferOwnership",
      "outputs": [],
      "stateMutability": "nonpayable",
      "type": "function"
    },
    {
      "inputs": [
        {
          "internalType": "bytes",
          "name": "publicKey",
          "type": "bytes"
        },
        {
          "internalType": "address",
          "name": "publicKeyHash",
          "type": "address"
        },
        {
          "internalType": "address",
          "name": "prerotatedKeyHash",
          "type": "address"
        },
        {
          "internalType": "address",
          "name": "twicePrerotatedKeyHash",
          "type": "address"
        },
        {
          "internalType": "address",
          "name": "prevPublicKeyHash",
          "type": "address"
        },
        {
          "internalType": "address",
          "name": "outputAddress",
          "type": "address"
        },
        {
          "internalType": "bytes",
          "name": "confirmingPublicKey",
          "type": "bytes"
        },
        {
          "internalType": "address",
          "name": "confirmingPublicKeyHash",
          "type": "address"
        },
        {
          "internalType": "address",
          "name": "confirmingPrerotatedKeyHash",
          "type": "address"
        },
        {
          "internalType": "address",
          "name": "confirmingTwicePrerotatedKeyHash",
          "type": "address"
        },
        {
          "internalType": "address",
          "name": "confirmingPrevPublicKeyHash",
          "type": "address"
        },
        {
          "internalType": "address",
          "name": "confirmingOutputAddress",
          "type": "address"
        },
        {
          "internalType": "bool",
          "name": "isPair",
          "type": "bool"
        }
      ],
      "name": "validateTransaction",
      "outputs": [
        {
          "internalType": "enum KeyLogRegistry.KeyEventFlag",
          "name": "",
          "type": "uint8"
        },
        {
          "internalType": "enum KeyLogRegistry.KeyEventFlag",
          "name": "",
          "type": "uint8"
        }
      ],
      "stateMutability": "view",
      "type": "function"
    }
  ],
  "bytecode": "0x6080806040523461007a5733156100645760008054336001600160a01b03198216811783556040519290916001600160a01b0316907f8be0079c531659141344cd1fd0a4f28419497f9722a3daafe3b4186f6b6457e09080a361192f90816100808239f35b631e4fbdf760e01b815260006004820152602490fd5b600080fdfe6040608081526004908136101561001557600080fd5b600060e0813560e01c90816325fb5bd914610e4c578163276c1ac014610e045781632bf2fac914610dcd5781632d2eca6a14610d90578163401795b214610d585781635ed9739c14610cd057508063614c5276146109b2578063715018a61461095857806385687dcd1461047f5780638da5cb5b14610457578063919525511461043057806392e711041461040957806397dc97cb146103e05780639fa17f91146103a8578063a375e47214610370578063a54f311c14610262578063cf8fbec91461021d578063ee93aac2146101d0578063f2fde38b146101455763fb51e5bb1461010057600080fd5b34610142576020366003190112610142578235906001600160401b038211610142575061013560209361013a92369101610ff1565b6112c0565b519051908152f35b80fd5b5091346101cc5760203660031901126101cc5761016061100f565b906101696118cd565b6001600160a01b039182169283156101b657505082546001600160a01b0319811683178455167f8be0079c531659141344cd1fd0a4f28419497f9722a3daafe3b4186f6b6457e08380a380f35b51631e4fbdf760e01b8152908101849052602490fd5b8280fd5b5034610142576020366003190112610142578235906001600160401b03821161014257506102076102199361020c92369101610ff1565b611885565b929091519283928361111d565b0390f35b50346101425760203660031901126101425761023761100f565b61023f6118cd565b60018060a01b03166bffffffffffffffffffffffff60a01b600654161760065580f35b50823461036c576101a036600319011261036c576001600160401b03908035828111610368576102959036908301610ff1565b9061029e611025565b906102a761103b565b906102b0611051565b906102b9611067565b6001600160a01b0396909160a4359188831683036103645760c435908111610364576102e791369101610ff1565b916102f061107d565b936102f9611093565b956103026110aa565b9761014435998b8b168b0361036057610164359b8c168c0361036057610184359c8d801515036101425750916103459b999795939161035e9d9b999795936116ef565b61035484939293518094610f2e565b6020830190610f2e565bf35b8c80fd5b8980fd5b8380fd5b5080fd5b50903461036c57602036600319011261036c5760209181906001600160a01b0361039861100f565b1681526002845220549051908152f35b50903461036c57602036600319011261036c5760209181906001600160a01b036103d061100f565b1681526005845220549051908152f35b50903461036c578160031936011261036c5760065490516001600160a01b039091168152602090f35b50903461036c57602036600319011261036c576102199061020c61042b61100f565b61165b565b50903461036c57602036600319011261036c576102199061020c61045261100f565b611616565b50903461036c578160031936011261036c57905490516001600160a01b039091168152602090f35b50903461036c5761014036600319011261036c576001600160401b03908335828111610368576104b29036908601611139565b9190926104bd611025565b926104c661103b565b906104cf611051565b906104d8611067565b9360a435908111610954576104f09036908b01611139565b909360c4359760018060a01b03998a8a16809a0361095057918a93918c96959361051861107d565b98610521611093565b9861052a6110aa565b9780600654163314918215610941575b505015610919576105939392916105818f9261057961056261055d368c87610fab565b611166565b9361057161055d368c86610fab565b9a3691610fab565b973691610fab565b9561058b816111d7565b969091611166565b928615610926575060a081015115610921578f808f83015116908b1603610921578f8060208301511690841603610921578f809151169084160361091d57908e809c9b9a99989796959493925b169b8c91160361091957908f98979695949392918f8f8e92169a8b8252602052205461091957908b8f96959493928f169687815260056020522054610919578d90158061090f575b156108ff5788908a16036108fb57908c61064781989796959493611166565b91169c8d911603610360578a8303610360578516928a8403610360578b870361036057851693888503610360578a8d528d602052898d205461036057851694858d526005602052898d20546103605790816106d4926106a4610f51565b928584528960208501528b8d8501521698896060840152166080820152600160a0820152600160c082015261152f565b6001549060001995868301978389116108cc57908d91848c848d815260026020528282822055836108e1575b5050505081816108b4575b505081610888575b50505061074f90610722610f51565b908482528960208301528a898301528360608301526080820152600160a0820152600260c082015261152f565b6001549283019683881161085f578991898b52600260205284888c205580610872575b5080610847575b509887989982989697986107ec575b8a877f65b9775e0ec7a02caf84b2523694b517ace341c14dd2b3926a5591d7b5f5a99660208c8c84838d8d84519081527fa9366f75c6c44e3c9ee299d368915abb2fa3108d469f3ab468ef239142dc725b928391a2848351858152a251908152a280f35b9091929394955061083457508752600560209081528488209190915585929190827f65b9775e0ec7a02caf84b2523694b517ace341c14dd2b3926a5591d7b5f5a99682610788565b634e487b7160e01b895260119052602488fd5b8161085f57895260208a905285892083905587610779565b634e487b7160e01b8a5260118b5260248afd5b915089918a52600360205283878b205538610772565b6108a1578b526005602052878b205561074f3880610713565b634e487b7160e01b8c5260118d5260248cfd5b6108cc578a8f8f90869382526020522055388161070b565b5050634e487b7160e01b8c5260118d5260248cfd5b8091929395509481526003602052205538848f8d90610700565b8d80fd5b6106478198979695949392611166565b5080851615610628565b8e80fd5b8f80fd5b508f80fd5b9050891661091d57908e809c9b9a99989796959493926105e0565b909150541633148f8f9061053a565b8b80fd5b8880fd5b50346101425780600319360112610142576109716118cd565b80546001600160a01b03198116825581906001600160a01b03167f8be0079c531659141344cd1fd0a4f28419497f9722a3daafe3b4186f6b6457e08280a380f35b509190346101cc5760a03660031901126101cc576001600160401b038235818111610ccc576109e49036908501610ff1565b926109ed611025565b906109f661103b565b906109ff611051565b92610a08611067565b92610a1288611166565b918751968888019088821090821117610cb95788526002875261060f60f31b602097880152610a4c90610a448a6111d7565b92909a611166565b998215610ca55760a08101511561095057898101516001600160a01b03919082168983160361036057818a82015116828d16036103605751811690821603610c7c575b6001600160a01b039384169984168a9003610c7c57831691828b52848852888b2054610c7c57831690818b5260058852888b2054610c7c571580610c9b575b15610c8057818386160361036457828a955b1695868303610c7c5760038610159384610c69578615908115610c5b575b90610b409291610b0c610f51565b92858452868c8501528d8d85015216988960608401526080830152151560a0820152610b3b8760c0830161124a565b61152f565b60015491600019830196838811610c3357908a91848b8e8095815260028d52205580610c46575b508181610c1e575b505081610bf5575b505050867fa9366f75c6c44e3c9ee299d368915abb2fa3108d469f3ab468ef239142dc725b868851878152a2610be25750600103610bb3578480f35b7f65b9775e0ec7a02caf84b2523694b517ace341c14dd2b3926a5591d7b5f5a9969251908152a2388080808480f35b634e487b7160e01b875260219052602486fd5b610c0b5789526005865286892055388080610b77565b634e487b7160e01b8a526011845260248afd5b610c33578b5284885282898c20553881610b6f565b634e487b7160e01b8c526011865260248cfd5b91508b918c5260038952838a8d205538610b67565b8c9550600288149150610afe565b634e487b7160e01b8c526021865260248cfd5b8a80fd5b8483168214610c925782600195610ae0565b82600295610ae0565b5082861615610ace565b506001600160a01b03871615610a8f578a80fd5b634e487b7160e01b8b526041855260248bfd5b8480fd5b828486346101cc5760209060206003193601126103685780356001600160401b038111610ccc5784610d0a61013588948794369101610ff1565b91805194859460208087019381885286518095528701950193905b838210610d325786860387f35b918496508286610d4860019496988498516110c1565b0196019201869594929391610d25565b82843461036c57602036600319011261036c5760209181906001600160a01b03610d8061100f565b1681526003845220549051908152f35b505034610142576020366003190112610142578235906001600160401b0382116101425750610dc86102199361020c92369101610ff1565b6111d7565b505091346101cc5760203660031901126101cc5760209282916001600160a01b03610df661100f565b168252845220549051908152f35b505034610142576020366003190112610142578235906001600160401b038211610142575061055d602093610e3b92369101610ff1565b90516001600160a01b039091168152f35b8385843461014257602036600319011261014257813590600154821015610142575060e092610e7d61035e92610edd565b5060018060a01b039081815416948260018301541693836002840154169184600385015416930154948151978852602088015286015260608501528116608084015260ff8160a01c16151560a084015260ff60c084019160a81c16610f2e565b600154811015610f18576005906001600052027fb10e2d527612073b26eecdfd717e6a320cf44b4afac2b0732d9fcbe2b7fa0cf60190600090565b634e487b7160e01b600052603260045260246000fd5b906003821015610f3b5752565b634e487b7160e01b600052602160045260246000fd5b6040519060e082018281106001600160401b03821117610f7057604052565b634e487b7160e01b600052604160045260246000fd5b6040519190601f01601f191682016001600160401b03811183821017610f7057604052565b9291926001600160401b038211610f7057610fcf601f8301601f1916602001610f86565b9382855282820111610fec57816000926020928387013784010152565b600080fd5b9080601f83011215610fec5781602061100c93359101610fab565b90565b600435906001600160a01b0382168203610fec57565b602435906001600160a01b0382168203610fec57565b604435906001600160a01b0382168203610fec57565b606435906001600160a01b0382168203610fec57565b608435906001600160a01b0382168203610fec57565b60e435906001600160a01b0382168203610fec57565b61010435906001600160a01b0382168203610fec57565b61012435906001600160a01b0382168203610fec57565b9060c08061111b9360018060a01b03808251168552806020830151166020860152806040830151166040860152806060830151166060860152608082015116608085015260a0810151151560a08501520151910190610f2e565b565b90929160e090611132836101008101966110c1565b1515910152565b9181601f84011215610fec578235916001600160401b038311610fec5760208381860195010111610fec57565b805160408103610fec57602091909101206001600160a01b031690565b61118b610f51565b9060008083528060208401528060408401528060608401528060808401528060a084015260c0830152565b805115610f185760200190565b8051821015610f185760209160051b010190565b6111e9906111e3611183565b506112c0565b805115611224578051600019810190811161120e57611207916111c3565b5190600190565b634e487b7160e01b600052601160045260246000fd5b5061122d611183565b90600090565b6001600160401b038111610f705760051b60200190565b6003821015610f3b5752565b9061111b60ff611264610f51565b84546001600160a01b039081168252600186015481166020830152600286015481166040830152600386015481166060830152600490950154948516608082015260a085811c83161515908201529360a81c1660c0840161124a565b6112c990611166565b604080516001600160401b0393929091610ca0830185811184821017610f705781526064835260005b610c8081106115185750600091611307611183565b50611310611183565b505b6001600160a01b0390811683526002602090815282842054908115611509575b81156114fa575b81156114c8575060001981019081116114b45761135861135e91610edd565b50611256565b906060820151169081156113725750611312565b9495509293919250611400565b505061139261138d82611233565b610f86565b81815291601f196113a283611233565b0160005b8181106113e957505060005b8281106113bf5750505090565b806113cc600192846111c3565b516113d782876111c3565b526113e281866111c3565b50016113b2565b6020906113f4611183565b828288010152016113a6565b9080925061140d846111b6565b52611417836111b6565b5060209182015160019283916001600160a01b0391908216835b61143e575b50505061137f565b82166000526002815283600020549384156000036114365790919293946000199586810190811161120e5761135861147591610edd565b9586611481838a6111c3565b5261148c82896111c3565b50811461120e5782858592019601511686518610156114af578493929194611431565b611436565b634e487b7160e01b84526011600452602484fd5b95969394505050805193840191848310908311176114e65752815290565b634e487b7160e01b83526041600452602483fd5b60058152838520549150611339565b60048152838520549150611332565b602090611523611183565b828287010152016112f2565b60015468010000000000000000811015610f70578060016115539201600155610edd565b91909161160057600460018060a01b0392838351166bffffffffffffffffffffffff60a01b90818354161782556001820185602086015116828254161790556002820185604086015116828254161790556003820190856060860151169082541617905501916080820151169082549160c060ff60a01b60a0840151151560a01b169201516003811015610f3b576001600160b01b0319909316171760a89190911b60ff60a81b16179055565b634e487b7160e01b600052600060045260246000fd5b61161e611183565b506001600160a01b0316600090815260026020526040902054801561122457600019810190811161120e5761135861165591610edd565b90600190565b611663611183565b506001600160a01b0390811660009081526004602052604081205480156116cf575b60001981019081116116bb5761135861169d91610edd565b91602083015116815260026020526040812054610142575090600190565b634e487b7160e01b82526011600452602482fd5b50600560205260408120548061168557509190506116eb611183565b9190565b9996929c9b9097939461171096929b956117088c6111d7565b98909c611166565b9b88156118705760a081015115610fec5760408101516001600160a01b0390811683821603610fec5760208201518116818f1603610fec57808f925116911603610fec575b6001600160a01b039b998c16998c168a9003610fec578b60409d169760009d8e8a8152600460205220546108fb578d9e9f8d9e9c9d604091169c8d815260056020522054610919578d90159182611865575b50501561184c57868c821603610360578c915b1561182b57505090896117d08196959493611166565b91169485911603610364578816809603610954578786911603611827570361182357841603610368578352600460205260408320546101cc57168152600560205260408120546101425750600190600290565b8580fd5b8780fd5b9597509a999850505050935084915016036101cc5716610142575090600190565b808c16871461185d576001916117ba565b6002916117ba565b161590508c386117a7565b506001600160a01b0381161561175557600080fd5b61188d611183565b506001600160a01b03906118a090611166565b166000526004602052604060002054801561122457600019810190811161120e5761135861165591610edd565b6000546001600160a01b031633036118e157565b60405163118cdaa760e01b8152336004820152602490fdfea2646970667358221220baf7bbc2f3e7b6a1a0cc434c5f861904bf348e81fc3268689ed81238f0070c7b64736f6c63430008180033",
  "linkReferences": {},
  "deployedLinkReferences": {}
}