{
  "_format": "hh-sol-artifact-1",
  "contractName": "KeyLogRegistry",
  "sourceName": "contracts/KeyLogRegistry.sol",
  "abi": [
    {
      "inputs": [],
      "stateMutability": "nonpayable",
      "type": "constructor"
    },
    {
      "inputs": [
        {
          "internalType": "address",
          "name": "owner",
          "type": "address"
        }
      ],
      "name": "OwnableInvalidOwner",
      "type": "error"
    },
    {
      "inputs": [
        {
          "internalType": "address",
          "name": "account",
          "type": "address"
        }
      ],
      "name": "OwnableUnauthorizedAccount",
      "type": "error"
    },
    {
      "anonymous": false,
      "inputs": [
        {
          "indexed": true,
          "internalType": "address",
          "name": "publicKeyHash",
          "type": "address"
        },
        {
          "indexed": false,
          "internalType": "uint256",
          "name": "index",
          "type": "uint256"
        }
      ],
      "name": "KeyLogRegistered",
      "type": "event"
    },
    {
      "anonymous": false,
      "inputs": [
        {
          "indexed": true,
          "internalType": "address",
          "name": "publicKeyHash",
          "type": "address"
        },
        {
          "indexed": false,
          "internalType": "uint256",
          "name": "index",
          "type": "uint256"
        }
      ],
      "name": "KeyRotated",
      "type": "event"
    },
    {
      "anonymous": false,
      "inputs": [
        {
          "indexed": true,
          "internalType": "address",
          "name": "previousOwner",
          "type": "address"
        },
        {
          "indexed": true,
          "internalType": "address",
          "name": "newOwner",
          "type": "address"
        }
      ],
      "name": "OwnershipTransferred",
      "type": "event"
    },
    {
      "inputs": [],
      "name": "authorizedCaller",
      "outputs": [
        {
          "internalType": "address",
          "name": "",
          "type": "address"
        }
      ],
      "stateMutability": "view",
      "type": "function"
    },
    {
      "inputs": [
        {
          "internalType": "bytes",
          "name": "publicKey",
          "type": "bytes"
        }
      ],
      "name": "buildFromPublicKey",
      "outputs": [
        {
          "components": [
            {
              "internalType": "address",
              "name": "twicePrerotatedKeyHash",
              "type": "address"
            },
            {
              "internalType": "address",
              "name": "prerotatedKeyHash",
              "type": "address"
            },
            {
              "internalType": "address",
              "name": "publicKeyHash",
              "type": "address"
            },
            {
              "internalType": "address",
              "name": "prevPublicKeyHash",
              "type": "address"
            },
            {
              "internalType": "address",
              "name": "outputAddress",
              "type": "address"
            },
            {
              "internalType": "bool",
              "name": "hasRelationship",
              "type": "bool"
            },
            {
              "internalType": "bool",
              "name": "isOnChain",
              "type": "bool"
            },
            {
              "internalType": "enum KeyLogRegistry.KeyEventFlag",
              "name": "flag",
              "type": "uint8"
            }
          ],
          "internalType": "struct KeyLogRegistry.KeyLogEntry[]",
          "name": "",
          "type": "tuple[]"
        }
      ],
      "stateMutability": "view",
      "type": "function"
    },
    {
      "inputs": [
        {
          "internalType": "address",
          "name": "",
          "type": "address"
        }
      ],
      "name": "byPrerotatedKeyHash",
      "outputs": [
        {
          "internalType": "uint256",
          "name": "",
          "type": "uint256"
        }
      ],
      "stateMutability": "view",
      "type": "function"
    },
    {
      "inputs": [
        {
          "internalType": "address",
          "name": "",
          "type": "address"
        }
      ],
      "name": "byPrevPublicKeyHash",
      "outputs": [
        {
          "internalType": "uint256",
          "name": "",
          "type": "uint256"
        }
      ],
      "stateMutability": "view",
      "type": "function"
    },
    {
      "inputs": [
        {
          "internalType": "address",
          "name": "",
          "type": "address"
        }
      ],
      "name": "byPublicKeyHash",
      "outputs": [
        {
          "internalType": "uint256",
          "name": "",
          "type": "uint256"
        }
      ],
      "stateMutability": "view",
      "type": "function"
    },
    {
      "inputs": [
        {
          "internalType": "address",
          "name": "",
          "type": "address"
        }
      ],
      "name": "byTwicePrerotatedKeyHash",
      "outputs": [
        {
          "internalType": "uint256",
          "name": "",
          "type": "uint256"
        }
      ],
      "stateMutability": "view",
      "type": "function"
    },
    {
      "inputs": [
        {
          "internalType": "bytes",
          "name": "publicKey",
          "type": "bytes"
        }
      ],
      "name": "getAddressFromPublicKey",
      "outputs": [
        {
          "internalType": "address",
          "name": "",
          "type": "address"
        }
      ],
      "stateMutability": "pure",
      "type": "function"
    },
    {
      "inputs": [
        {
          "internalType": "bytes",
          "name": "publicKey",
          "type": "bytes"
        }
      ],
      "name": "getCurrentIndex",
      "outputs": [
        {
          "internalType": "uint256",
          "name": "",
          "type": "uint256"
        }
      ],
      "stateMutability": "view",
      "type": "function"
    },
    {
      "inputs": [
        {
          "internalType": "bytes",
          "name": "publicKey",
          "type": "bytes"
        }
      ],
      "name": "getLatestChainEntry",
      "outputs": [
        {
          "components": [
            {
              "internalType": "address",
              "name": "twicePrerotatedKeyHash",
              "type": "address"
            },
            {
              "internalType": "address",
              "name": "prerotatedKeyHash",
              "type": "address"
            },
            {
              "internalType": "address",
              "name": "publicKeyHash",
              "type": "address"
            },
            {
              "internalType": "address",
              "name": "prevPublicKeyHash",
              "type": "address"
            },
            {
              "internalType": "address",
              "name": "outputAddress",
              "type": "address"
            },
            {
              "internalType": "bool",
              "name": "hasRelationship",
              "type": "bool"
            },
            {
              "internalType": "bool",
              "name": "isOnChain",
              "type": "bool"
            },
            {
              "internalType": "enum KeyLogRegistry.KeyEventFlag",
              "name": "flag",
              "type": "uint8"
            }
          ],
          "internalType": "struct KeyLogRegistry.KeyLogEntry",
          "name": "",
          "type": "tuple"
        },
        {
          "internalType": "bool",
          "name": "",
          "type": "bool"
        }
      ],
      "stateMutability": "view",
      "type": "function"
    },
    {
      "inputs": [
        {
          "internalType": "address",
          "name": "publicKeyHash",
          "type": "address"
        }
      ],
      "name": "getLatestEntry",
      "outputs": [
        {
          "components": [
            {
              "internalType": "address",
              "name": "twicePrerotatedKeyHash",
              "type": "address"
            },
            {
              "internalType": "address",
              "name": "prerotatedKeyHash",
              "type": "address"
            },
            {
              "internalType": "address",
              "name": "publicKeyHash",
              "type": "address"
            },
            {
              "internalType": "address",
              "name": "prevPublicKeyHash",
              "type": "address"
            },
            {
              "internalType": "address",
              "name": "outputAddress",
              "type": "address"
            },
            {
              "internalType": "bool",
              "name": "hasRelationship",
              "type": "bool"
            },
            {
              "internalType": "bool",
              "name": "isOnChain",
              "type": "bool"
            },
            {
              "internalType": "enum KeyLogRegistry.KeyEventFlag",
              "name": "flag",
              "type": "uint8"
            }
          ],
          "internalType": "struct KeyLogRegistry.KeyLogEntry",
          "name": "",
          "type": "tuple"
        },
        {
          "internalType": "bool",
          "name": "",
          "type": "bool"
        }
      ],
      "stateMutability": "view",
      "type": "function"
    },
    {
      "inputs": [
        {
          "internalType": "address",
          "name": "prerotatedKeyHash",
          "type": "address"
        }
      ],
      "name": "getLatestEntryByPrerotatedKeyHash",
      "outputs": [
        {
          "components": [
            {
              "internalType": "address",
              "name": "twicePrerotatedKeyHash",
              "type": "address"
            },
            {
              "internalType": "address",
              "name": "prerotatedKeyHash",
              "type": "address"
            },
            {
              "internalType": "address",
              "name": "publicKeyHash",
              "type": "address"
            },
            {
              "internalType": "address",
              "name": "prevPublicKeyHash",
              "type": "address"
            },
            {
              "internalType": "address",
              "name": "outputAddress",
              "type": "address"
            },
            {
              "internalType": "bool",
              "name": "hasRelationship",
              "type": "bool"
            },
            {
              "internalType": "bool",
              "name": "isOnChain",
              "type": "bool"
            },
            {
              "internalType": "enum KeyLogRegistry.KeyEventFlag",
              "name": "flag",
              "type": "uint8"
            }
          ],
          "internalType": "struct KeyLogRegistry.KeyLogEntry",
          "name": "",
          "type": "tuple"
        },
        {
          "internalType": "bool",
          "name": "",
          "type": "bool"
        }
      ],
      "stateMutability": "view",
      "type": "function"
    },
    {
      "inputs": [
        {
          "internalType": "bytes",
          "name": "publicKey",
          "type": "bytes"
        }
      ],
      "name": "getPreviousEntry",
      "outputs": [
        {
          "components": [
            {
              "internalType": "address",
              "name": "twicePrerotatedKeyHash",
              "type": "address"
            },
            {
              "internalType": "address",
              "name": "prerotatedKeyHash",
              "type": "address"
            },
            {
              "internalType": "address",
              "name": "publicKeyHash",
              "type": "address"
            },
            {
              "internalType": "address",
              "name": "prevPublicKeyHash",
              "type": "address"
            },
            {
              "internalType": "address",
              "name": "outputAddress",
              "type": "address"
            },
            {
              "internalType": "bool",
              "name": "hasRelationship",
              "type": "bool"
            },
            {
              "internalType": "bool",
              "name": "isOnChain",
              "type": "bool"
            },
            {
              "internalType": "enum KeyLogRegistry.KeyEventFlag",
              "name": "flag",
              "type": "uint8"
            }
          ],
          "internalType": "struct KeyLogRegistry.KeyLogEntry",
          "name": "",
          "type": "tuple"
        },
        {
          "internalType": "bool",
          "name": "",
          "type": "bool"
        }
      ],
      "stateMutability": "view",
      "type": "function"
    },
    {
      "inputs": [
        {
          "internalType": "uint256",
          "name": "",
          "type": "uint256"
        }
      ],
      "name": "keyLogEntries",
      "outputs": [
        {
          "internalType": "address",
          "name": "twicePrerotatedKeyHash",
          "type": "address"
        },
        {
          "internalType": "address",
          "name": "prerotatedKeyHash",
          "type": "address"
        },
        {
          "internalType": "address",
          "name": "publicKeyHash",
          "type": "address"
        },
        {
          "internalType": "address",
          "name": "prevPublicKeyHash",
          "type": "address"
        },
        {
          "internalType": "address",
          "name": "outputAddress",
          "type": "address"
        },
        {
          "internalType": "bool",
          "name": "hasRelationship",
          "type": "bool"
        },
        {
          "internalType": "bool",
          "name": "isOnChain",
          "type": "bool"
        },
        {
          "internalType": "enum KeyLogRegistry.KeyEventFlag",
          "name": "flag",
          "type": "uint8"
        }
      ],
      "stateMutability": "view",
      "type": "function"
    },
    {
      "inputs": [],
      "name": "owner",
      "outputs": [
        {
          "internalType": "address",
          "name": "",
          "type": "address"
        }
      ],
      "stateMutability": "view",
      "type": "function"
    },
    {
      "inputs": [
        {
          "internalType": "bytes",
          "name": "publicKey",
          "type": "bytes"
        },
        {
          "internalType": "address",
          "name": "publicKeyHash",
          "type": "address"
        },
        {
          "internalType": "address",
          "name": "prerotatedKeyHash",
          "type": "address"
        },
        {
          "internalType": "address",
          "name": "twicePrerotatedKeyHash",
          "type": "address"
        },
        {
          "internalType": "address",
          "name": "prevPublicKeyHash",
          "type": "address"
        },
        {
          "internalType": "address",
          "name": "outputAddress",
          "type": "address"
        },
        {
          "internalType": "bool",
          "name": "hasRelationship",
          "type": "bool"
        }
      ],
      "name": "registerKeyLog",
      "outputs": [],
      "stateMutability": "nonpayable",
      "type": "function"
    },
    {
      "inputs": [
        {
          "internalType": "bytes",
          "name": "publicKey",
          "type": "bytes"
        },
        {
          "internalType": "address",
          "name": "unconfirmedPrerotatedKeyHash",
          "type": "address"
        },
        {
          "internalType": "address",
          "name": "unconfirmedTwicePrerotatedKeyHash",
          "type": "address"
        },
        {
          "internalType": "address",
          "name": "unconfirmedPrevPublicKeyHash",
          "type": "address"
        },
        {
          "internalType": "address",
          "name": "unconfirmedOutputAddress",
          "type": "address"
        },
        {
          "internalType": "bool",
          "name": "unconfirmedHasRelationship",
          "type": "bool"
        },
        {
          "internalType": "address",
          "name": "confirmingPublicKeyHash",
          "type": "address"
        },
        {
          "internalType": "address",
          "name": "confirmingPrerotatedKeyHash",
          "type": "address"
        },
        {
          "internalType": "address",
          "name": "confirmingTwicePrerotatedKeyHash",
          "type": "address"
        },
        {
          "internalType": "address",
          "name": "confirmingPrevPublicKeyHash",
          "type": "address"
        },
        {
          "internalType": "address",
          "name": "confirmingOutputAddress",
          "type": "address"
        },
        {
          "internalType": "bool",
          "name": "confirmingHasRelationship",
          "type": "bool"
        }
      ],
      "name": "registerKeyLogPair",
      "outputs": [],
      "stateMutability": "nonpayable",
      "type": "function"
    },
    {
      "inputs": [],
      "name": "renounceOwnership",
      "outputs": [],
      "stateMutability": "nonpayable",
      "type": "function"
    },
    {
      "inputs": [
        {
          "internalType": "address",
          "name": "_caller",
          "type": "address"
        }
      ],
      "name": "setAuthorizedCaller",
      "outputs": [],
      "stateMutability": "nonpayable",
      "type": "function"
    },
    {
      "inputs": [
        {
          "internalType": "address",
          "name": "newOwner",
          "type": "address"
        }
      ],
      "name": "transferOwnership",
      "outputs": [],
      "stateMutability": "nonpayable",
      "type": "function"
    },
    {
      "inputs": [
        {
          "internalType": "bytes",
          "name": "publicKey",
          "type": "bytes"
        },
        {
          "internalType": "address",
          "name": "publicKeyHash",
          "type": "address"
        },
        {
          "internalType": "address",
          "name": "prerotatedKeyHash",
          "type": "address"
        },
        {
          "internalType": "address",
          "name": "twicePrerotatedKeyHash",
          "type": "address"
        },
        {
          "internalType": "address",
          "name": "prevPublicKeyHash",
          "type": "address"
        },
        {
          "internalType": "address",
          "name": "outputAddress",
          "type": "address"
        },
        {
          "internalType": "bool",
          "name": "hasRelationship",
          "type": "bool"
        },
        {
          "internalType": "bool",
          "name": "isPair",
          "type": "bool"
        },
        {
          "internalType": "address",
          "name": "confirmingPublicKeyHash",
          "type": "address"
        },
        {
          "internalType": "address",
          "name": "confirmingPrerotatedKeyHash",
          "type": "address"
        },
        {
          "internalType": "address",
          "name": "confirmingTwicePrerotatedKeyHash",
          "type": "address"
        },
        {
          "internalType": "address",
          "name": "confirmingPrevPublicKeyHash",
          "type": "address"
        },
        {
          "internalType": "address",
          "name": "confirmingOutputAddress",
          "type": "address"
        },
        {
          "internalType": "bool",
          "name": "confirmingHasRelationship",
          "type": "bool"
        }
      ],
      "name": "validateTransaction",
      "outputs": [
        {
          "internalType": "enum KeyLogRegistry.KeyEventFlag",
          "name": "",
          "type": "uint8"
        },
        {
          "internalType": "enum KeyLogRegistry.KeyEventFlag",
          "name": "",
          "type": "uint8"
        }
      ],
      "stateMutability": "view",
      "type": "function"
    }
  ],
  "bytecode": "0x6080806040523461007a5733156100645760008054336001600160a01b03198216811783556040519290916001600160a01b0316907f8be0079c531659141344cd1fd0a4f28419497f9722a3daafe3b4186f6b6457e09080a36121fb90816100808239f35b631e4fbdf760e01b815260006004820152602490fd5b600080fdfe6080604052600436101561001257600080fd5b60003560e01c806325fb5bd9146115a2578063276c1ac0146115565780632a39b65e146111035780632bf2fac9146110c95780632d2eca6a146110915780632e91b77d14610562578063401795b2146105285780635ed9739c146104a6578063715018a61461044d5780638da5cb5b14610424578063919525511461040357806392e71104146103e257806397dc97cb146103b95780639fa17f911461037f578063a375e47214610345578063cf8fbec914610302578063edffe2121461021a578063ee93aac2146101ce578063f2fde38b146101405763fb51e5bb146100f857600080fd5b3461013b57602036600319011261013b576004356001600160401b03811161013b5761013261012d60209236906004016116fa565b611b3b565b51604051908152f35b600080fd5b3461013b57602036600319011261013b576101596117ba565b610161612199565b6001600160a01b039081169081156101b557600054826bffffffffffffffffffffffff60a01b821617600055167f8be0079c531659141344cd1fd0a4f28419497f9722a3daafe3b4186f6b6457e0600080a3005b604051631e4fbdf760e01b815260006004820152602490fd5b3461013b57602036600319011261013b576004356001600160401b03811161013b576102016102069136906004016116fa565b612151565b906102166040519283928361188c565b0390f35b3461013b576101c036600319011261013b576004356001600160401b03811161013b5761024b9036906004016116fa565b61025361174c565b61025b611762565b91610264611778565b61026c61178e565b6102746117a4565b61027c611815565b60e435801515810361013b576102906117d0565b6102986117e7565b916102a16117fe565b6001600160a01b0396610164359691959190888816880361013b5761018435988916890361013b576101a435998a15158b0361013b5760409d6103009d6102e79d611ec7565b6102f684939293518094611692565b6020830190611692565bf35b3461013b57602036600319011261013b5761031b6117ba565b610323612199565b600680546001600160a01b0319166001600160a01b0392909216919091179055005b3461013b57602036600319011261013b576001600160a01b036103666117ba565b1660005260026020526020604060002054604051908152f35b3461013b57602036600319011261013b576001600160a01b036103a06117ba565b1660005260056020526020604060002054604051908152f35b3461013b57600036600319011261013b576006546040516001600160a01b039091168152602090f35b3461013b57602036600319011261013b576102066103fe6117ba565b611def565b3461013b57602036600319011261013b5761020661041f6117ba565b611daa565b3461013b57600036600319011261013b576000546040516001600160a01b039091168152602090f35b3461013b57600036600319011261013b57610466612199565b600080546001600160a01b0319811682556001600160a01b03167f8be0079c531659141344cd1fd0a4f28419497f9722a3daafe3b4186f6b6457e08280a3005b3461013b5760208060031936011261013b576004356001600160401b03811161013b5761012d6104da9136906004016116fa565b604051906020820160208352815180915260206040840192019360005b8281106105045784840385f35b90919282610100826105196001948a51611824565b019601910194929190946104f7565b3461013b57602036600319011261013b576001600160a01b036105496117ba565b1660005260036020526020604060002054604051908152f35b3461013b5761018036600319011261013b576004356001600160401b03811161013b576105939036906004016116fa565b61059b61174c565b906105a4611762565b916105ad611778565b906105b661178e565b60a435151560a4350361013b5760c435926001600160a01b038416840361013b5760e435956001600160a01b038716870361013b576105f36117d0565b916105fc6117e7565b936106056117fe565b916101643591821515830361013b576006546001600160a01b03163314801561107d575b15611047576106378a6118a9565b9961064181611a6a565b82516020909301929092206001600160a01b0316908215610fd75760c081015115610f925760408101516001600160a01b0390811690861603610f4d5760208101516001600160a01b0316829003610f1257516001600160a01b03908116908b1603610eb1575b6001600160a01b038c1603610e6c576001600160a01b038916600090815260046020526040902054610e28576001600160a01b038616600090815260056020526040902054610dd4576001600160a01b038c16600090815260046020526040902054610d7c576001600160a01b038716600090815260056020526040902054610d1d571580610d0c575b15610c8a5760a4351580610c75575b15610c3c575b6001600160a01b038b811690861603610bc057821580610bab575b15610b66576001600160a01b0389811690891603610b03576001600160a01b038a811690881603610a8e576107e39061079961169f565b6001600160a01b0387811682528a811660208301528c811660408301528481166060830152909116608082015260a435151560a0820152600160c0820181905260e0820152611917565b60015496876000198101116109c5576001600160a01b038a811660009081526002602052604081208a905592908116610a6c575b50816001600160a01b038216610a47575b50506001600160a01b038416610a22575b5061088e925061084761169f565b6001600160a01b0385811682528a81166020830152888116604083015286811660608301529092166080830152151560a0820152600160c0820152600260e0820152611917565b600154916000198301968388116109c5576001600160a01b03868116600090815260026020526040812086905592908116610a00575b50816001600160a01b0382166109db575b50506001600160a01b038216610973575b6040516000198501815287907f65b9775e0ec7a02caf84b2523694b517ace341c14dd2b3926a5591d7b5f5a9969060209088907fa9366f75c6c44e3c9ee299d368915abb2fa3108d469f3ab468ef239142dc725b906001600160a01b038c169082908590a26040518581526001600160a01b03831691908490a26040519384526001600160a01b031692a2005b93929091936109c5576001600160a01b039091166000908152600560209081526040909120939093559091817f65b9775e0ec7a02caf84b2523694b517ace341c14dd2b3926a5591d7b5f5a9966108e6565b634e487b7160e01b600052601160045260246000fd5b6109c5576001600160a01b0316600090815260046020526040902083905587816108d5565b6001600160a01b031660009081526003602052604081208590559150886108c4565b6109c55761088e9260018060a01b031660005260056020528560406000205589610839565b6109c5576001600160a01b031660009081526004602052604090208790558a81610828565b6001600160a01b0316600090815260036020526040812089905591508b610817565b60405162461bcd60e51b815260206004820152604160248201527f436f6e6669726d696e6720707265765075626c69634b657948617368206d757360448201527f74206d6174636820756e636f6e6669726d6564207075626c69634b65794861736064820152600d60fb1b608482015260a490fd5b60405162461bcd60e51b815260206004820152603560248201527f53657175656e6365206d69736d617463683a20707265726f74617465644b6579604482015274090c2e6d040427a40e0eac4d8d2c696caf290c2e6d605b1b6064820152608490fd5b60405162461bcd60e51b815260206004820152601d60248201527f496e76616c696420636f6e6669726d696e6720636f6e646974696f6e730000006044820152606490fd5b506001600160a01b03848116908c1614610762565b60405162461bcd60e51b815260206004820152604860248201527f53657175656e6365206d69736d617463683a207477696365507265726f74617460448201527f65644b65794861736820213d20636f6e6669726d696e67507265726f746174656064820152670c896caf290c2e6d60c31b608482015260a490fd5b60405162461bcd60e51b815260206004820152601160248201527024b73b30b634b21034b731b2b83a34b7b760791b6044820152606490fd5b506001600160a01b0381811690891614610741565b60a4358015610cf6575b6107475760a4351580610ce1575b610747575b60405162461bcd60e51b8152602060048201526012602482015271496e76616c696420636f6e6669726d696e6760701b6044820152606490fd5b506001600160a01b0381811690891614610ca2565b506001600160a01b038181169089161415610c94565b506001600160a01b03821615610732565b60405162461bcd60e51b815260206004820152603160248201527f436f6e6669726d696e6720747769636520707265726f7461746564206b6579206044820152701a185cda08185b1c9958591e481d5cd959607a1b6064820152608490fd5b60405162461bcd60e51b815260206004820152602a60248201527f436f6e6669726d696e67207265726f7461746564206b6579206861736820616c6044820152691c9958591e481d5cd95960b21b6064820152608490fd5b60405162461bcd60e51b815260206004820152602660248201527f547769636520707265726f7461746564206b6579206861736820616c726561646044820152651e481d5cd95960d21b6064820152608490fd5b606460405162461bcd60e51b815260206004820152602060248201527f507265726f7461746564206b6579206861736820616c726561647920757365646044820152fd5b60405162461bcd60e51b815260206004820152601860248201527f5075626c6963206b65792068617368206d69736d6174636800000000000000006044820152606490fd5b60405162461bcd60e51b815260206004820152603360248201527f507265726f7461746564206b6579206d757374206d617463682070726576696f6044820152721d5cc81d1dda58d9481c1c995c9bdd185d1959606a1b6064820152608490fd5b60405162461bcd60e51b81526020600482015260136024820152720a0eac4d8d2c640d6caf240dad2e6dac2e8c6d606b1b6044820152606490fd5b60405162461bcd60e51b815260206004820152601860248201527f50726576207075626c6963206b6579206d69736d6174636800000000000000006044820152606490fd5b60405162461bcd60e51b815260206004820152601f60248201527f50726576696f757320656e747279206d757374206265206f6e2d636861696e006044820152606490fd5b506001600160a01b038416156106a85760405162461bcd60e51b815260206004820152603260248201527f496e63657074696f6e206576656e742063616e6e6f74206861766520612070726044820152710caecbee0eac4d8d2c6bed6caf2bed0c2e6d60731b6064820152608490fd5b60405162461bcd60e51b815260206004820152600e60248201526d139bdd08185d5d1a1bdc9a5e995960921b6044820152606490fd5b506000546001600160a01b03163314610629565b3461013b57602036600319011261013b576004356001600160401b03811161013b576110c46102069136906004016116fa565b611a6a565b3461013b57602036600319011261013b576001600160a01b036110ea6117ba565b1660005260046020526020604060002054604051908152f35b3461013b5760e036600319011261013b576004356001600160401b03811161013b576111339036906004016116fa565b61113b61174c565b611143611762565b9161114c611778565b9061115561178e565b9161115e6117a4565b90611167611815565b9261117181611a6a565b82516020909301929092206001600160a01b03169082156114e65760c081015115610f925760408101516001600160a01b0390811690881603610f4d5760208101516001600160a01b0316829003610f1257516001600160a01b0390811690891603610eb1575b6001600160a01b03871603610e6c576001600160a01b038716600090815260046020526040902054610e28576001600160a01b038216600090815260056020526040902054610dd4576000805260046020527f17ef568e3e12ab5b9c7254a8d58478811de00f9e6eb34345acd53bf8fd09d3ec54610d7c576000805260056020527f05b8ccbb9d4d8fb16ea74ce3c29a41f1b461fbdaff4714a0d9a8eb05499746bc54610d1d5715806114d5575b156114805782158061146b575b15610c3c576000935b600385101593846113e357851590811561145c575b9061130f92916112bf61169f565b6001600160a01b0386811682528b811660208301528a8116604083015293841660608201819052969093166080840152151560a0830152151560c082015261130a8660e0830161190b565b611917565b600154916000198301968388116109c5576001600160a01b03871660009081526002602052604081208590559180611442575b50816001600160a01b03821661141d575b50506001600160a01b0382166113f9575b50506040518581526001600160a01b03851691507fa9366f75c6c44e3c9ee299d368915abb2fa3108d469f3ab468ef239142dc725b90602090a26113e3576001036113ab57005b6040519182526001600160a01b0316907f65b9775e0ec7a02caf84b2523694b517ace341c14dd2b3926a5591d7b5f5a99690602090a2005b634e487b7160e01b600052602160045260246000fd5b6109c5576001600160a01b0316600090815260056020526040902055848080611364565b6109c5576001600160a01b031660009081526004602052604090208390558781611353565b915060009160005260036020528360406000205588611342565b600095506002871491506112b1565b506001600160a01b0382811690871614611293565b821583816114bf575b15611497575060019361129c565b806114aa575b15610ca75760029361129c565b506001600160a01b038281169087161461149d565b506001600160a01b038381169088161415611489565b506001600160a01b03841615611286565b506001600160a01b038616156111d85760405162461bcd60e51b815260206004820152603260248201527f496e63657074696f6e206576656e742063616e6e6f74206861766520612070726044820152710caecbee0eac4d8d2c6bed6caf2bed0c2e6d60731b6064820152608490fd5b3461013b57602036600319011261013b576004356001600160401b03811161013b5761159061158b60209236906004016116fa565b6118a9565b6040516001600160a01b039091168152f35b3461013b57602036600319011261013b5760043560015481101561013b576115cc61010091611641565b5061030060018060a01b03918281541692806001830154169181600282015416600483600384015416920154936040519687526020870152604086015260608501528116608084015260ff8160a01c16151560a084015260ff8160a81c16151560c084015260ff60e084019160b01c16611692565b60015481101561167c576005906001600052027fb10e2d527612073b26eecdfd717e6a320cf44b4afac2b0732d9fcbe2b7fa0cf60190600090565b634e487b7160e01b600052603260045260246000fd5b9060038210156113e35752565b6040519061010082018281106001600160401b038211176116bf57604052565b634e487b7160e01b600052604160045260246000fd5b6040519190601f01601f191682016001600160401b038111838210176116bf57604052565b81601f8201121561013b578035906001600160401b0382116116bf57611729601f8301601f19166020016116d5565b928284526020838301011161013b57816000926020809301838601378301015290565b602435906001600160a01b038216820361013b57565b604435906001600160a01b038216820361013b57565b606435906001600160a01b038216820361013b57565b608435906001600160a01b038216820361013b57565b60a435906001600160a01b038216820361013b57565b600435906001600160a01b038216820361013b57565b61010435906001600160a01b038216820361013b57565b61012435906001600160a01b038216820361013b57565b61014435906001600160a01b038216820361013b57565b60c43590811515820361013b57565b9060e08061188a9360018060a01b03808251168552806020830151166020860152806040830151166040860152806060830151166060860152608082015116608085015260a0810151151560a085015260c0810151151560c08501520151910190611692565b565b909291610100906118a283610120810196611824565b1515910152565b60408151036118c65780516020909101206001600160a01b031690565b60405162461bcd60e51b815260206004820152601b60248201527f5075626c6963206b6579206d75737420626520363420627974657300000000006044820152606490fd5b60038210156113e35752565b600154680100000000000000008110156116bf5780600161193b9201600155611641565b9190916119fa57600460018060a01b0392838351166bffffffffffffffffffffffff60a01b90818354161782556001820185602086015116828254161790556002820185604086015116828254161790556003820190856060860151169082541617905501916080820151169082549160ff60a01b60a0830151151560a01b169060e060ff60a81b60c0850151151560a81b1693015160038110156113e3576001600160b81b031990941617171760b09190911b60ff60b01b16179055565b634e487b7160e01b600052600060045260246000fd5b611a1861169f565b9060008083528060208401528060408401528060608401528060808401528060a08401528060c084015260e0830152565b80511561167c5760200190565b805182101561167c5760209160051b010190565b611a7c90611a76611a10565b50611b3b565b805115611aa157805160001981019081116109c557611a9a91611a56565b5190600190565b50611aaa611a10565b90600090565b6001600160401b0381116116bf5760051b60200190565b9061188a60ff611ad561169f565b93600460018060a01b039182815416875282600182015416602088015282600282015416604088015282600382015416606088015201549081166080860152818160a01c16151560a0860152818160a81c16151560c086015260b01c1660e0840161190b565b611b44906118a9565b604080516001600160401b0393929091610ca08301858111848210176116bf5781526064835260005b610c808110611d935750600091611b82611a10565b50611b8b611a10565b505b6001600160a01b0390811683526002602090815282842054908115611d84575b8115611d75575b8115611d4357506000198101908111611d2f57611bd3611bd991611641565b50611ac7565b90606082015116908115611bed5750611b8d565b9495509293919250611c7b565b5050611c0d611c0882611ab0565b6116d5565b81815291601f19611c1d83611ab0565b0160005b818110611c6457505060005b828110611c3a5750505090565b80611c4760019284611a56565b51611c528287611a56565b52611c5d8186611a56565b5001611c2d565b602090611c6f611a10565b82828801015201611c21565b90809250611c8884611a49565b52611c9283611a49565b5060209182015160019283916001600160a01b0391908216835b611cb9575b505050611bfa565b8216600052600281528360002054938415600003611cb1579091929394600019958681019081116109c557611bd3611cf091611641565b9586611cfc838a611a56565b52611d078289611a56565b5081146109c5578285859201960151168651861015611d2a578493929194611cac565b611cb1565b634e487b7160e01b84526011600452602484fd5b9596939450505080519384019184831090831117611d615752815290565b634e487b7160e01b83526041600452602483fd5b60058152838520549150611bb4565b60048152838520549150611bad565b602090611d9e611a10565b82828701015201611b6d565b611db2611a10565b506001600160a01b03166000908152600260205260409020548015611aa15760001981019081116109c557611bd3611de991611641565b90600190565b611df7611a10565b506001600160a01b039081166000908152600460205260408120548015611ea7575b6000198101908111611e935790611e34611bd3604093611641565b92602084015116815260026020522054611e4e5790600190565b60405162461bcd60e51b815260206004820152601c60248201527f4e6f7420746865206c6174657374206b657920726f746174696f6e2e000000006044820152606490fd5b634e487b7160e01b82526011600452602482fd5b506005602052604081205480611e195750919050611ec3611a10565b9190565b909b97999c969493919a9c959295611ede82611a6a565b83516020909401939093206001600160a01b03169083156120e15760c081015115610f925760408101516001600160a01b0390811690861603610f4d5760208101516001600160a01b0316829003610f1257516001600160a01b03908116908e1603610eb1575b6001600160a01b038e1603610e6c576001600160a01b038c16600090815260046020526040902054610e28576001600160a01b038716600090815260056020526040902054610dd4576001600160a01b038a16600090815260046020526040902054610d7c576001600160a01b0316600090815260056020526040902054610d1d571590816120cf575b501561207657159081612060575b5015610c3c576000905b1561205157506001600160a01b03848116911603610bc05715918261203a575b505015610b66576001600160a01b03908116911603610b03576001600160a01b03908116911603610a8e57600190600290565b6001600160a01b0391821691161490503880612007565b97505050505050505090600190565b6001600160a01b03898116911614905038611fdd565b90811591826120b9575b1561208f575050600190611fe7565b816120a3575b5015610ca757600290611fe7565b6001600160a01b03898116911614905038612095565b506001600160a01b03818116908a161415612080565b6001600160a01b031615905038611fcf565b506001600160a01b03841615611f455760405162461bcd60e51b815260206004820152603260248201527f496e63657074696f6e206576656e742063616e6e6f74206861766520612070726044820152710caecbee0eac4d8d2c6bed6caf2bed0c2e6d60731b6064820152608490fd5b612159611a10565b506001600160a01b039061216c906118a9565b1660005260046020526040600020548015611aa15760001981019081116109c557611bd3611de991611641565b6000546001600160a01b031633036121ad57565b60405163118cdaa760e01b8152336004820152602490fdfea26469706673582212203bc65bd3b4133c559532a201a9591c09c78d3ea81c33a08ba1ee16973f25909464736f6c63430008180033",
  "linkReferences": {},
  "deployedLinkReferences": {}
}