{
  "_format": "hh-sol-artifact-1",
  "contractName": "KeyLogRegistry",
  "sourceName": "contracts/KeyLogRegistry.sol",
  "abi": [
    {
      "inputs": [],
      "stateMutability": "nonpayable",
      "type": "constructor"
    },
    {
      "inputs": [
        {
          "internalType": "address",
          "name": "owner",
          "type": "address"
        }
      ],
      "name": "OwnableInvalidOwner",
      "type": "error"
    },
    {
      "inputs": [
        {
          "internalType": "address",
          "name": "account",
          "type": "address"
        }
      ],
      "name": "OwnableUnauthorizedAccount",
      "type": "error"
    },
    {
      "anonymous": false,
      "inputs": [
        {
          "indexed": true,
          "internalType": "address",
          "name": "publicKeyHash",
          "type": "address"
        },
        {
          "indexed": false,
          "internalType": "uint256",
          "name": "index",
          "type": "uint256"
        }
      ],
      "name": "KeyLogRegistered",
      "type": "event"
    },
    {
      "anonymous": false,
      "inputs": [
        {
          "indexed": true,
          "internalType": "address",
          "name": "publicKeyHash",
          "type": "address"
        },
        {
          "indexed": false,
          "internalType": "uint256",
          "name": "index",
          "type": "uint256"
        }
      ],
      "name": "KeyRotated",
      "type": "event"
    },
    {
      "anonymous": false,
      "inputs": [
        {
          "indexed": true,
          "internalType": "address",
          "name": "previousOwner",
          "type": "address"
        },
        {
          "indexed": true,
          "internalType": "address",
          "name": "newOwner",
          "type": "address"
        }
      ],
      "name": "OwnershipTransferred",
      "type": "event"
    },
    {
      "inputs": [],
      "name": "authorizedCaller",
      "outputs": [
        {
          "internalType": "address",
          "name": "",
          "type": "address"
        }
      ],
      "stateMutability": "view",
      "type": "function"
    },
    {
      "inputs": [
        {
          "internalType": "bytes",
          "name": "publicKey",
          "type": "bytes"
        }
      ],
      "name": "buildFromPublicKey",
      "outputs": [
        {
          "components": [
            {
              "internalType": "address",
              "name": "twicePrerotatedKeyHash",
              "type": "address"
            },
            {
              "internalType": "address",
              "name": "prerotatedKeyHash",
              "type": "address"
            },
            {
              "internalType": "address",
              "name": "publicKeyHash",
              "type": "address"
            },
            {
              "internalType": "address",
              "name": "prevPublicKeyHash",
              "type": "address"
            },
            {
              "internalType": "address",
              "name": "outputAddress",
              "type": "address"
            },
            {
              "internalType": "bool",
              "name": "hasRelationship",
              "type": "bool"
            },
            {
              "internalType": "bool",
              "name": "isOnChain",
              "type": "bool"
            },
            {
              "internalType": "enum KeyLogRegistry.KeyEventFlag",
              "name": "flag",
              "type": "uint8"
            }
          ],
          "internalType": "struct KeyLogRegistry.KeyLogEntry[]",
          "name": "",
          "type": "tuple[]"
        }
      ],
      "stateMutability": "view",
      "type": "function"
    },
    {
      "inputs": [
        {
          "internalType": "address",
          "name": "",
          "type": "address"
        },
        {
          "internalType": "uint256",
          "name": "",
          "type": "uint256"
        }
      ],
      "name": "byPrerotatedKeyHash",
      "outputs": [
        {
          "internalType": "uint256",
          "name": "",
          "type": "uint256"
        }
      ],
      "stateMutability": "view",
      "type": "function"
    },
    {
      "inputs": [
        {
          "internalType": "address",
          "name": "",
          "type": "address"
        },
        {
          "internalType": "uint256",
          "name": "",
          "type": "uint256"
        }
      ],
      "name": "byPrevPublicKeyHash",
      "outputs": [
        {
          "internalType": "uint256",
          "name": "",
          "type": "uint256"
        }
      ],
      "stateMutability": "view",
      "type": "function"
    },
    {
      "inputs": [
        {
          "internalType": "address",
          "name": "",
          "type": "address"
        },
        {
          "internalType": "uint256",
          "name": "",
          "type": "uint256"
        }
      ],
      "name": "byPublicKeyHash",
      "outputs": [
        {
          "internalType": "uint256",
          "name": "",
          "type": "uint256"
        }
      ],
      "stateMutability": "view",
      "type": "function"
    },
    {
      "inputs": [
        {
          "internalType": "bytes",
          "name": "publicKey",
          "type": "bytes"
        }
      ],
      "name": "getAddressFromPublicKey",
      "outputs": [
        {
          "internalType": "address",
          "name": "",
          "type": "address"
        }
      ],
      "stateMutability": "pure",
      "type": "function"
    },
    {
      "inputs": [
        {
          "internalType": "bytes",
          "name": "publicKey",
          "type": "bytes"
        }
      ],
      "name": "getCurrentIndex",
      "outputs": [
        {
          "internalType": "uint256",
          "name": "",
          "type": "uint256"
        }
      ],
      "stateMutability": "view",
      "type": "function"
    },
    {
      "inputs": [
        {
          "internalType": "bytes",
          "name": "publicKey",
          "type": "bytes"
        }
      ],
      "name": "getLatestChainEntry",
      "outputs": [
        {
          "components": [
            {
              "internalType": "address",
              "name": "twicePrerotatedKeyHash",
              "type": "address"
            },
            {
              "internalType": "address",
              "name": "prerotatedKeyHash",
              "type": "address"
            },
            {
              "internalType": "address",
              "name": "publicKeyHash",
              "type": "address"
            },
            {
              "internalType": "address",
              "name": "prevPublicKeyHash",
              "type": "address"
            },
            {
              "internalType": "address",
              "name": "outputAddress",
              "type": "address"
            },
            {
              "internalType": "bool",
              "name": "hasRelationship",
              "type": "bool"
            },
            {
              "internalType": "bool",
              "name": "isOnChain",
              "type": "bool"
            },
            {
              "internalType": "enum KeyLogRegistry.KeyEventFlag",
              "name": "flag",
              "type": "uint8"
            }
          ],
          "internalType": "struct KeyLogRegistry.KeyLogEntry",
          "name": "",
          "type": "tuple"
        },
        {
          "internalType": "bool",
          "name": "",
          "type": "bool"
        }
      ],
      "stateMutability": "view",
      "type": "function"
    },
    {
      "inputs": [
        {
          "internalType": "address",
          "name": "publicKeyHash",
          "type": "address"
        }
      ],
      "name": "getLatestEntry",
      "outputs": [
        {
          "components": [
            {
              "internalType": "address",
              "name": "twicePrerotatedKeyHash",
              "type": "address"
            },
            {
              "internalType": "address",
              "name": "prerotatedKeyHash",
              "type": "address"
            },
            {
              "internalType": "address",
              "name": "publicKeyHash",
              "type": "address"
            },
            {
              "internalType": "address",
              "name": "prevPublicKeyHash",
              "type": "address"
            },
            {
              "internalType": "address",
              "name": "outputAddress",
              "type": "address"
            },
            {
              "internalType": "bool",
              "name": "hasRelationship",
              "type": "bool"
            },
            {
              "internalType": "bool",
              "name": "isOnChain",
              "type": "bool"
            },
            {
              "internalType": "enum KeyLogRegistry.KeyEventFlag",
              "name": "flag",
              "type": "uint8"
            }
          ],
          "internalType": "struct KeyLogRegistry.KeyLogEntry",
          "name": "",
          "type": "tuple"
        },
        {
          "internalType": "bool",
          "name": "",
          "type": "bool"
        }
      ],
      "stateMutability": "view",
      "type": "function"
    },
    {
      "inputs": [
        {
          "internalType": "bytes",
          "name": "publicKey",
          "type": "bytes"
        }
      ],
      "name": "getPreviousEntry",
      "outputs": [
        {
          "components": [
            {
              "internalType": "address",
              "name": "twicePrerotatedKeyHash",
              "type": "address"
            },
            {
              "internalType": "address",
              "name": "prerotatedKeyHash",
              "type": "address"
            },
            {
              "internalType": "address",
              "name": "publicKeyHash",
              "type": "address"
            },
            {
              "internalType": "address",
              "name": "prevPublicKeyHash",
              "type": "address"
            },
            {
              "internalType": "address",
              "name": "outputAddress",
              "type": "address"
            },
            {
              "internalType": "bool",
              "name": "hasRelationship",
              "type": "bool"
            },
            {
              "internalType": "bool",
              "name": "isOnChain",
              "type": "bool"
            },
            {
              "internalType": "enum KeyLogRegistry.KeyEventFlag",
              "name": "flag",
              "type": "uint8"
            }
          ],
          "internalType": "struct KeyLogRegistry.KeyLogEntry",
          "name": "",
          "type": "tuple"
        },
        {
          "internalType": "bool",
          "name": "",
          "type": "bool"
        }
      ],
      "stateMutability": "view",
      "type": "function"
    },
    {
      "inputs": [
        {
          "internalType": "uint256",
          "name": "",
          "type": "uint256"
        }
      ],
      "name": "keyLogEntries",
      "outputs": [
        {
          "internalType": "address",
          "name": "twicePrerotatedKeyHash",
          "type": "address"
        },
        {
          "internalType": "address",
          "name": "prerotatedKeyHash",
          "type": "address"
        },
        {
          "internalType": "address",
          "name": "publicKeyHash",
          "type": "address"
        },
        {
          "internalType": "address",
          "name": "prevPublicKeyHash",
          "type": "address"
        },
        {
          "internalType": "address",
          "name": "outputAddress",
          "type": "address"
        },
        {
          "internalType": "bool",
          "name": "hasRelationship",
          "type": "bool"
        },
        {
          "internalType": "bool",
          "name": "isOnChain",
          "type": "bool"
        },
        {
          "internalType": "enum KeyLogRegistry.KeyEventFlag",
          "name": "flag",
          "type": "uint8"
        }
      ],
      "stateMutability": "view",
      "type": "function"
    },
    {
      "inputs": [],
      "name": "owner",
      "outputs": [
        {
          "internalType": "address",
          "name": "",
          "type": "address"
        }
      ],
      "stateMutability": "view",
      "type": "function"
    },
    {
      "inputs": [
        {
          "internalType": "bytes",
          "name": "publicKey",
          "type": "bytes"
        },
        {
          "internalType": "address",
          "name": "publicKeyHash",
          "type": "address"
        },
        {
          "internalType": "address",
          "name": "prerotatedKeyHash",
          "type": "address"
        },
        {
          "internalType": "address",
          "name": "twicePrerotatedKeyHash",
          "type": "address"
        },
        {
          "internalType": "address",
          "name": "prevPublicKeyHash",
          "type": "address"
        },
        {
          "internalType": "address",
          "name": "outputAddress",
          "type": "address"
        },
        {
          "internalType": "bool",
          "name": "hasRelationship",
          "type": "bool"
        }
      ],
      "name": "registerKeyLog",
      "outputs": [],
      "stateMutability": "nonpayable",
      "type": "function"
    },
    {
      "inputs": [
        {
          "internalType": "bytes",
          "name": "publicKey",
          "type": "bytes"
        },
        {
          "internalType": "address",
          "name": "unconfirmedPublicKeyHash",
          "type": "address"
        },
        {
          "internalType": "address",
          "name": "unconfirmedPrerotatedKeyHash",
          "type": "address"
        },
        {
          "internalType": "address",
          "name": "unconfirmedTwicePrerotatedKeyHash",
          "type": "address"
        },
        {
          "internalType": "address",
          "name": "unconfirmedPrevPublicKeyHash",
          "type": "address"
        },
        {
          "internalType": "address",
          "name": "unconfirmedOutputAddress",
          "type": "address"
        },
        {
          "internalType": "bool",
          "name": "unconfirmedHasRelationship",
          "type": "bool"
        },
        {
          "internalType": "address",
          "name": "confirmingPublicKeyHash",
          "type": "address"
        },
        {
          "internalType": "address",
          "name": "confirmingPrerotatedKeyHash",
          "type": "address"
        },
        {
          "internalType": "address",
          "name": "confirmingTwicePrerotatedKeyHash",
          "type": "address"
        },
        {
          "internalType": "address",
          "name": "confirmingPrevPublicKeyHash",
          "type": "address"
        },
        {
          "internalType": "address",
          "name": "confirmingOutputAddress",
          "type": "address"
        },
        {
          "internalType": "bool",
          "name": "confirmingHasRelationship",
          "type": "bool"
        }
      ],
      "name": "registerKeyLogPair",
      "outputs": [],
      "stateMutability": "nonpayable",
      "type": "function"
    },
    {
      "inputs": [],
      "name": "renounceOwnership",
      "outputs": [],
      "stateMutability": "nonpayable",
      "type": "function"
    },
    {
      "inputs": [
        {
          "internalType": "address",
          "name": "_caller",
          "type": "address"
        }
      ],
      "name": "setAuthorizedCaller",
      "outputs": [],
      "stateMutability": "nonpayable",
      "type": "function"
    },
    {
      "inputs": [
        {
          "internalType": "address",
          "name": "newOwner",
          "type": "address"
        }
      ],
      "name": "transferOwnership",
      "outputs": [],
      "stateMutability": "nonpayable",
      "type": "function"
    },
    {
      "inputs": [
        {
          "internalType": "bytes",
          "name": "publicKey",
          "type": "bytes"
        },
        {
          "internalType": "address",
          "name": "publicKeyHash",
          "type": "address"
        },
        {
          "internalType": "address",
          "name": "prerotatedKeyHash",
          "type": "address"
        },
        {
          "internalType": "address",
          "name": "twicePrerotatedKeyHash",
          "type": "address"
        },
        {
          "internalType": "address",
          "name": "prevPublicKeyHash",
          "type": "address"
        },
        {
          "internalType": "address",
          "name": "outputAddress",
          "type": "address"
        },
        {
          "internalType": "bool",
          "name": "hasRelationship",
          "type": "bool"
        },
        {
          "internalType": "bool",
          "name": "isPair",
          "type": "bool"
        },
        {
          "internalType": "address",
          "name": "confirmingPublicKeyHash",
          "type": "address"
        },
        {
          "internalType": "address",
          "name": "confirmingPrerotatedKeyHash",
          "type": "address"
        },
        {
          "internalType": "address",
          "name": "confirmingPrevPublicKeyHash",
          "type": "address"
        },
        {
          "internalType": "address",
          "name": "confirmingOutputAddress",
          "type": "address"
        },
        {
          "internalType": "bool",
          "name": "confirmingHasRelationship",
          "type": "bool"
        }
      ],
      "name": "validateTransaction",
      "outputs": [
        {
          "internalType": "enum KeyLogRegistry.KeyEventFlag",
          "name": "",
          "type": "uint8"
        },
        {
          "internalType": "enum KeyLogRegistry.KeyEventFlag",
          "name": "",
          "type": "uint8"
        }
      ],
      "stateMutability": "view",
      "type": "function"
    }
  ],
  "bytecode": "0x6080806040523461007a5733156100645760008054336001600160a01b03198216811783556040519290916001600160a01b0316907f8be0079c531659141344cd1fd0a4f28419497f9722a3daafe3b4186f6b6457e09080a3611eda90816100808239f35b631e4fbdf760e01b815260006004820152602490fd5b600080fdfe6080604052600436101561001257600080fd5b60003560e01c806325fb5bd9146111d2578063276c1ac0146111865780632a39b65e14610ed65780632d2eca6a14610e9e578063386f1d9f14610e545780635988f597146105115780635ed9739c1461048f57806367c27cd414610436578063715018a6146103dd5780638da5cb5b146103b4578063919525511461039357806397dc97cb1461036a578063c47ada2c14610312578063cf8fbec9146102cf578063ec194f4a14610204578063ee93aac2146101b8578063f2fde38b1461012a5763fb51e5bb146100e257600080fd5b34610125576020366003190112610125576004356001600160401b0381116101255761011c6101176020923690600401611322565b6117e0565b51604051908152f35b600080fd5b34610125576020366003190112610125576101436113e6565b61014b611e78565b6001600160a01b0390811690811561019f57600054826bffffffffffffffffffffffff60a01b821617600055167f8be0079c531659141344cd1fd0a4f28419497f9722a3daafe3b4186f6b6457e0600080a3005b604051631e4fbdf760e01b815260006004820152602490fd5b34610125576020366003190112610125576004356001600160401b038111610125576101eb6101f0913690600401611322565b611e00565b90610200604051928392836114df565b0390f35b34610125576101a0366003190112610125576004356001600160401b03811161012557610235903690600401611322565b61023d611378565b9061024661138e565b61024e6113a4565b916102576113ba565b936102606113d0565b92610269611458565b9460e435968715158803610125576040976102cd976102b49761028a6113fc565b93610293611413565b9561029c61142a565b976102a5611441565b996102ae611467565b9b611bcc565b6102c3849392935180946112c2565b60208301906112c2565bf35b34610125576020366003190112610125576102e86113e6565b6102f0611e78565b600580546001600160a01b0319166001600160a01b0392909216919091179055005b346101255760403660031901126101255761032b6113e6565b6001600160a01b03166000908152600460205260409020805460243591908210156101255760209161035c916114fc565b90546040519160031b1c8152f35b34610125576000366003190112610125576005546040516001600160a01b039091168152602090f35b34610125576020366003190112610125576101f06103af6113e6565b611b10565b34610125576000366003190112610125576000546040516001600160a01b039091168152602090f35b34610125576000366003190112610125576103f6611e78565b600080546001600160a01b0319811682556001600160a01b03167f8be0079c531659141344cd1fd0a4f28419497f9722a3daafe3b4186f6b6457e08280a3005b346101255760403660031901126101255761044f6113e6565b6001600160a01b031660009081526003602052604090208054602435919082101561012557602091610480916114fc565b90549060031b1c604051908152f35b3461012557602080600319360112610125576004356001600160401b038111610125576101176104c3913690600401611322565b604051906020820160208352815180915260206040840192019360005b8281106104ed5784840385f35b90919282610100826105026001948a51611477565b019601910194929190946104e0565b34610125576101a0366003190112610125576004356001600160401b03811161012557610542903690600401611322565b61054a611378565b61055261138e565b9161055b6113a4565b906105646113ba565b9061056d6113d0565b91610576611458565b60e43593906001600160a01b0385168503610125576105936113fc565b9561059c611413565b926105a561142a565b956105ae611441565b926105b7611467565b9160018060a01b036005541633148015610e40575b15610e0a576105da8161170a565b82516020909301929092206001600160a01b0316908215610d995760c081015115610d545760408101516001600160a01b03908116908b1603610d0f5760208101516001600160a01b0316829003610cd457516001600160a01b03908116908f1603610c73575b6001600160a01b038d1603610c2e571580610c1d575b15610b9f57841580610b8a575b15610b51575b6001600160a01b0390811691908a168203610ad55784159485610abf575b15610a7a5715938480610a65575b15610a20576001600160a01b03898116908d16036109bd576001600160a01b038b8116908916036109485761071392604051926106d2846112cf565b83526001600160a01b038d811660208501528c8116604085015288811660608501521660808301521560a0820152600160c0820181905260e0820152611582565b60015498896000198101116108da576107ba9460018060a01b038a1660005260026020526107496000198c016040600020611676565b6001600160a01b03811661091c575b506001600160a01b0381166108f0575b5060405192610776846112cf565b6001600160a01b0390811684528781166020850152868116604085015285811660608501521660808301521560a0820152600160c0820152600260e0820152611582565b6001546000198101959086116108da577f65b9775e0ec7a02caf84b2523694b517ace341c14dd2b3926a5591d7b5f5a99694602094859360018060a01b0386166000526002855261080f896040600020611676565b6001600160a01b0381166108b7575b506001600160a01b038116610894575b5060405160001990920182527fa9366f75c6c44e3c9ee299d368915abb2fa3108d469f3ab468ef239142dc725b926001600160a01b0390911691839190a26040518581526001600160a01b03831691908490a26040519384526001600160a01b031692a2005b60018060a01b0316600052600483526108b1876040600020611676565b8761082e565b60018060a01b0316600052600384526108d4886040600020611676565b8861081e565b634e487b7160e01b600052601160045260246000fd5b6001600160a01b03166000908152600460205260409020610916906000198b0190611676565b89610768565b6001600160a01b03166000908152600360205260409020610942906000198c0190611676565b8a610758565b60405162461bcd60e51b815260206004820152604160248201527f436f6e6669726d696e6720707265765075626c69634b657948617368206d757360448201527f74206d6174636820756e636f6e6669726d6564207075626c69634b65794861736064820152600d60fb1b608482015260a490fd5b60405162461bcd60e51b815260206004820152603560248201527f53657175656e6365206d69736d617463683a20707265726f74617465644b6579604482015274090c2e6d040427a40e0eac4d8d2c696caf290c2e6d605b1b6064820152608490fd5b60405162461bcd60e51b815260206004820152601d60248201527f496e76616c696420636f6e6669726d696e6720636f6e646974696f6e730000006044820152606490fd5b506001600160a01b03848116908b1614610696565b60405162461bcd60e51b815260206004820152601e60248201527f556e636f6e6669726d656420636f6e646974696f6e73206e6f74206d657400006044820152606490fd5b506001600160a01b03838116908d161415610688565b60405162461bcd60e51b815260206004820152604860248201527f53657175656e6365206d69736d617463683a207477696365507265726f74617460448201527f65644b65794861736820213d20636f6e6669726d696e67507265726f746174656064820152670c896caf290c2e6d60c31b608482015260a490fd5b60405162461bcd60e51b815260206004820152601160248201527024b73b30b634b21034b731b2b83a34b7b760791b6044820152606490fd5b506001600160a01b03838116908d1614610664565b848515610c07575b61066a57841580610bf2575b61066a575b60405162461bcd60e51b8152602060048201526012602482015271496e76616c696420636f6e6669726d696e6760701b6044820152606490fd5b506001600160a01b03838116908d1614610bb3565b506001600160a01b03838116908d161415610ba7565b506001600160a01b03871615610657565b60405162461bcd60e51b815260206004820152601860248201527f5075626c6963206b65792068617368206d69736d6174636800000000000000006044820152606490fd5b60405162461bcd60e51b815260206004820152603360248201527f507265726f7461746564206b6579206d757374206d617463682070726576696f6044820152721d5cc81d1dda58d9481c1c995c9bdd185d1959606a1b6064820152608490fd5b60405162461bcd60e51b81526020600482015260136024820152720a0eac4d8d2c640d6caf240dad2e6dac2e8c6d606b1b6044820152606490fd5b60405162461bcd60e51b815260206004820152601860248201527f50726576207075626c6963206b6579206d69736d6174636800000000000000006044820152606490fd5b60405162461bcd60e51b815260206004820152601f60248201527f50726576696f757320656e747279206d757374206265206f6e2d636861696e006044820152606490fd5b506001600160a01b03891615610641575b60405162461bcd60e51b815260206004820152603260248201527f496e63657074696f6e206576656e742063616e6e6f74206861766520612070726044820152710caecbee0eac4d8d2c6bed6caf2bed0c2e6d60731b6064820152608490fd5b60405162461bcd60e51b815260206004820152600e60248201526d139bdd08185d5d1a1bdc9a5e995960921b6044820152606490fd5b506000546001600160a01b031633146105cc565b3461012557604036600319011261012557610e6d6113e6565b6001600160a01b03166000908152600260205260409020805460243591908210156101255760209161035c916114fc565b34610125576020366003190112610125576004356001600160401b03811161012557610ed16101f0913690600401611322565b61170a565b346101255760e0366003190112610125576004356001600160401b03811161012557610f06903690600401611322565b610f0e611378565b90610f1761138e565b610f1f6113a4565b91610f286113ba565b92610f316113d0565b93610f3a611458565b91610f448461170a565b909760018060a01b038660208298519101201698826000146111775760c081015115610d54578660408201511687861603610d0f57898760208301511603610cd45751861687871603610c735785905b16809803610c2e57158061116d575b156111285782158061111b575b15610b51576000945b600386101593846110be57861591821561110c575b9580806110249697988160405197610fe5896112cf565b16875216968760208701528b60408701521698896060860152166080840152151560a0830152151560c082015261101f8560e08301611576565b611582565b6001546000198101949085116108da5785600052600260205261104b856040600020611676565b806110f0575b50806110d4575b50837fa9366f75c6c44e3c9ee299d368915abb2fa3108d469f3ab468ef239142dc725b6020604051868152a26110be5760010361109157005b60207f65b9775e0ec7a02caf84b2523694b517ace341c14dd2b3926a5591d7b5f5a99691604051908152a2005b634e487b7160e01b600052602160045260246000fd5b60005260046020526110ea836040600020611676565b84611058565b6000526003602052611106846040600020611676565b85611051565b60009550600288149250610fce565b5083851684871614610fb0565b8215838161115f575b1561113f5750600194610fb9565b80611152575b15610bb857600294610fb9565b5083851684871614611145565b508486168588161415611131565b5083821615610fa3565b50858416610daa578590610f94565b34610125576020366003190112610125576004356001600160401b038111610125576111c06111bb6020923690600401611322565b611514565b6040516001600160a01b039091168152f35b3461012557602036600319011261012557600435600154811015610125576111fc61010091611271565b506102cd60018060a01b03918281541692806001830154169181600282015416600483600384015416920154936040519687526020870152604086015260608501528116608084015260ff8160a01c16151560a084015260ff8160a81c16151560c084015260ff60e084019160b01c166112c2565b6001548110156112ac576005906001600052027fb10e2d527612073b26eecdfd717e6a320cf44b4afac2b0732d9fcbe2b7fa0cf60190600090565b634e487b7160e01b600052603260045260246000fd5b9060038210156110be5752565b61010081019081106001600160401b038211176112eb57604052565b634e487b7160e01b600052604160045260246000fd5b90601f801991011681019081106001600160401b038211176112eb57604052565b81601f82011215610125578035906001600160401b0382116112eb5760405192611356601f8401601f191660200185611301565b8284526020838301011161012557816000926020809301838601378301015290565b602435906001600160a01b038216820361012557565b604435906001600160a01b038216820361012557565b606435906001600160a01b038216820361012557565b608435906001600160a01b038216820361012557565b60a435906001600160a01b038216820361012557565b600435906001600160a01b038216820361012557565b61010435906001600160a01b038216820361012557565b61012435906001600160a01b038216820361012557565b61014435906001600160a01b038216820361012557565b61016435906001600160a01b038216820361012557565b60c43590811515820361012557565b6101843590811515820361012557565b9060e0806114dd9360018060a01b03808251168552806020830151166020860152806040830151166040860152806060830151166060860152608082015116608085015260a0810151151560a085015260c0810151151560c085015201519101906112c2565b565b909291610100906114f583610120810196611477565b1515910152565b80548210156112ac5760005260206000200190600090565b60408151036115315780516020909101206001600160a01b031690565b60405162461bcd60e51b815260206004820152601b60248201527f5075626c6963206b6579206d75737420626520363420627974657300000000006044820152606490fd5b60038210156110be5752565b600154600160401b8110156112eb578060016115a19201600155611271565b91909161166057600460018060a01b0392838351166bffffffffffffffffffffffff60a01b90818354161782556001820185602086015116828254161790556002820185604086015116828254161790556003820190856060860151169082541617905501916080820151169082549160ff60a01b60a0830151151560a01b169060e060ff60a81b60c0850151151560a81b1693015160038110156110be576001600160b81b031990941617171760b09190911b60ff60b01b16179055565b634e487b7160e01b600052600060045260246000fd5b8054600160401b8110156112eb57611693916001820181556114fc565b819291549060031b91821b91600019901b1916179055565b604051906116b8826112cf565b8160e06000918281528260208201528260408201528260608201528260808201528260a08201528260c08201520152565b8051156112ac5760200190565b80518210156112ac5760209160051b010190565b61171c906117166116ab565b506117e0565b80511561174157805160001981019081116108da5761173a916116f6565b5190600190565b5061174a6116ab565b90600090565b6001600160401b0381116112eb5760051b60200190565b906114dd604051611777816112cf565b60e060ff8295600460018060a01b039182815416865282600182015416602087015282600282015416604087015282600382015416606087015201549081166080850152818160a01c16151560a0850152818160a81c16151560c085015260b01c169101611576565b6117e990611514565b604080516001600160401b03939290610ca08101858111828210176112eb5783526064815260005b610c808110611af957506000916118266116ab565b5061182f6116ab565b505b6001600160a01b0390811680845260026020908152858520865181548082529187528287209093918484019190885b818110611ae55750505083611876910384611301565b825115611a61575b50508051600019810191908211611a4d5761189f6118ab926118a5926116f6565b51611271565b50611767565b906060820151169081156118bf5750611831565b919293949550506001611950575b506118e36118da83611750565b93519384611301565b818352601f196118f283611750565b0160005b81811061193957505060005b82811061190f5750505090565b8061191c600192846116f6565b5161192782876116f6565b5261193281866116f6565b5001611902565b6020906119446116ab565b828288010152016118f6565b80925061195c826116e9565b52611966816116e9565b50602091820151600192906001600160a01b0390819081165b16600052600282528460002091855191828483829654958681520190600052836000206000955b808710611a335750506119bd929394500384611301565b825192836119d057505050505b386118cd565b6000199592939192918681019081116108da5761189f6118a5916119f3936116f6565b94856119ff83876116f6565b52611a0a82866116f6565b5081146108da57826001839201950151168351851015611a2b57819061197f565b5050506119ca565b8154835260019687019688945092860192909101906119a6565b634e487b7160e01b85526011600452602485fd5b855260048082528686208751815480825291885283882090945084840191885b818110611ad15750505083611a97910384611301565b825161187e5792509596939492505081519485019285841090841117611abe575052815290565b634e487b7160e01b845260419052602483fd5b825484529285019260019283019201611a81565b825484529285019260019283019201611860565b602090611b046116ab565b82828501015201611811565b611b186116ab565b5060009060018060a01b0316815260206002602052604082209060405180928391602082549182815201918652602086209386905b828210611bb257505050611b6392500382611301565b805115611ba4578051600019810192908311611b90575061189f611b8a926118a5926116f6565b90600190565b634e487b7160e01b81526011600452602490fd5b5090611bae6116ab565b9190565b855484526001958601958795509381019390910190611b4d565b9b959493909a9798929691999a611be28d61170a565b8e516020909f019e909e206001600160a01b03169d91908215611d905760c081015115610d545760408101516001600160a01b0390811690851603610d0f5760208101516001600160a01b03168f9003610cd457516001600160a01b03908116908d1603610c73575b6001600160a01b03169c8d9003610c2e57159081611d7e575b5015611d2957831580611d14575b15610b51576000905b15611d0357506001600160a01b039081169416849003610ad5578115611cec575b5015610a7a57159182611cd9575b505015610a20576001600160a01b039081169116036109bd576001600160a01b03160361094857600190600290565b6001600160a01b03161490503880611caa565b6001600160a01b0387811691161415905038611c9c565b995050505050505050505090600190565b506001600160a01b03838116908a1614611c72565b83158481611d68575b15611d405750600190611c7b565b80611d53575b15610bb857600290611c7b565b506001600160a01b03838116908a1614611d46565b506001600160a01b03848116908b161415611d32565b6001600160a01b031615905038611c64565b506001600160a01b03831615611c4b5760405162461bcd60e51b815260206004820152603260248201527f496e63657074696f6e206576656e742063616e6e6f74206861766520612070726044820152710caecbee0eac4d8d2c6bed6caf2bed0c2e6d60731b6064820152608490fd5b611e086116ab565b506001600160a01b0390611e1b90611514565b16600090815260206004602052604082209060405180928391602082549182815201918652602086209386905b828210611e5e57505050611b6392500382611301565b855484526001958601958795509381019390910190611e48565b6000546001600160a01b03163303611e8c57565b60405163118cdaa760e01b8152336004820152602490fdfea2646970667358221220edfc5d44d7d6d8735fb59f8845a80d1031d8659cbb903d882b23c3dda582406d64736f6c63430008180033",
  "linkReferences": {},
  "deployedLinkReferences": {}
}