{
  "_format": "hh-sol-artifact-1",
  "contractName": "KeyLogRegistry",
  "sourceName": "contracts/KeyLogRegistry.sol",
  "abi": [
    {
      "inputs": [],
      "stateMutability": "nonpayable",
      "type": "constructor"
    },
    {
      "inputs": [
        {
          "internalType": "address",
          "name": "owner",
          "type": "address"
        }
      ],
      "name": "OwnableInvalidOwner",
      "type": "error"
    },
    {
      "inputs": [
        {
          "internalType": "address",
          "name": "account",
          "type": "address"
        }
      ],
      "name": "OwnableUnauthorizedAccount",
      "type": "error"
    },
    {
      "anonymous": false,
      "inputs": [
        {
          "indexed": true,
          "internalType": "address",
          "name": "user",
          "type": "address"
        },
        {
          "indexed": false,
          "internalType": "uint256",
          "name": "entryCount",
          "type": "uint256"
        }
      ],
      "name": "KeyLogRegistered",
      "type": "event"
    },
    {
      "anonymous": false,
      "inputs": [
        {
          "indexed": true,
          "internalType": "address",
          "name": "user",
          "type": "address"
        },
        {
          "indexed": false,
          "internalType": "uint256",
          "name": "newIndex",
          "type": "uint256"
        }
      ],
      "name": "KeyRotated",
      "type": "event"
    },
    {
      "anonymous": false,
      "inputs": [
        {
          "indexed": true,
          "internalType": "address",
          "name": "previousOwner",
          "type": "address"
        },
        {
          "indexed": true,
          "internalType": "address",
          "name": "newOwner",
          "type": "address"
        }
      ],
      "name": "OwnershipTransferred",
      "type": "event"
    },
    {
      "inputs": [],
      "name": "authorizedCaller",
      "outputs": [
        {
          "internalType": "address",
          "name": "",
          "type": "address"
        }
      ],
      "stateMutability": "view",
      "type": "function"
    },
    {
      "inputs": [
        {
          "internalType": "address",
          "name": "user",
          "type": "address"
        }
      ],
      "name": "getCurrentIndex",
      "outputs": [
        {
          "internalType": "uint256",
          "name": "",
          "type": "uint256"
        }
      ],
      "stateMutability": "view",
      "type": "function"
    },
    {
      "inputs": [
        {
          "internalType": "address",
          "name": "",
          "type": "address"
        },
        {
          "internalType": "uint256",
          "name": "",
          "type": "uint256"
        }
      ],
      "name": "keyLogs",
      "outputs": [
        {
          "internalType": "address",
          "name": "twicePrerotatedKeyHash",
          "type": "address"
        },
        {
          "internalType": "address",
          "name": "prerotatedKeyHash",
          "type": "address"
        },
        {
          "internalType": "address",
          "name": "publicKeyHash",
          "type": "address"
        },
        {
          "internalType": "address",
          "name": "prevPublicKeyHash",
          "type": "address"
        },
        {
          "internalType": "address",
          "name": "outputAddress",
          "type": "address"
        },
        {
          "internalType": "bool",
          "name": "hasRelationship",
          "type": "bool"
        },
        {
          "internalType": "bool",
          "name": "isOnChain",
          "type": "bool"
        },
        {
          "internalType": "enum KeyLogRegistry.KeyEventFlag",
          "name": "flag",
          "type": "uint8"
        }
      ],
      "stateMutability": "view",
      "type": "function"
    },
    {
      "inputs": [],
      "name": "owner",
      "outputs": [
        {
          "internalType": "address",
          "name": "",
          "type": "address"
        }
      ],
      "stateMutability": "view",
      "type": "function"
    },
    {
      "inputs": [
        {
          "internalType": "address",
          "name": "user",
          "type": "address"
        },
        {
          "internalType": "address",
          "name": "publicKeyHash",
          "type": "address"
        },
        {
          "internalType": "address",
          "name": "prerotatedKeyHash",
          "type": "address"
        },
        {
          "internalType": "address",
          "name": "twicePrerotatedKeyHash",
          "type": "address"
        },
        {
          "internalType": "address",
          "name": "prevPublicKeyHash",
          "type": "address"
        },
        {
          "internalType": "address",
          "name": "outputAddress",
          "type": "address"
        },
        {
          "internalType": "bool",
          "name": "hasRelationship",
          "type": "bool"
        }
      ],
      "name": "registerKeyLog",
      "outputs": [],
      "stateMutability": "nonpayable",
      "type": "function"
    },
    {
      "inputs": [
        {
          "internalType": "address",
          "name": "user",
          "type": "address"
        },
        {
          "internalType": "address",
          "name": "unconfirmedPublicKeyHash",
          "type": "address"
        },
        {
          "internalType": "address",
          "name": "unconfirmedPrerotatedKeyHash",
          "type": "address"
        },
        {
          "internalType": "address",
          "name": "unconfirmedTwicePrerotatedKeyHash",
          "type": "address"
        },
        {
          "internalType": "address",
          "name": "unconfirmedPrevPublicKeyHash",
          "type": "address"
        },
        {
          "internalType": "address",
          "name": "unconfirmedOutputAddress",
          "type": "address"
        },
        {
          "internalType": "bool",
          "name": "unconfirmedHasRelationship",
          "type": "bool"
        },
        {
          "internalType": "address",
          "name": "confirmingPublicKeyHash",
          "type": "address"
        },
        {
          "internalType": "address",
          "name": "confirmingPrerotatedKeyHash",
          "type": "address"
        },
        {
          "internalType": "address",
          "name": "confirmingTwicePrerotatedKeyHash",
          "type": "address"
        },
        {
          "internalType": "address",
          "name": "confirmingPrevPublicKeyHash",
          "type": "address"
        },
        {
          "internalType": "address",
          "name": "confirmingOutputAddress",
          "type": "address"
        },
        {
          "internalType": "bool",
          "name": "confirmingHasRelationship",
          "type": "bool"
        }
      ],
      "name": "registerKeyLogPair",
      "outputs": [],
      "stateMutability": "nonpayable",
      "type": "function"
    },
    {
      "inputs": [],
      "name": "renounceOwnership",
      "outputs": [],
      "stateMutability": "nonpayable",
      "type": "function"
    },
    {
      "inputs": [
        {
          "internalType": "address",
          "name": "_caller",
          "type": "address"
        }
      ],
      "name": "setAuthorizedCaller",
      "outputs": [],
      "stateMutability": "nonpayable",
      "type": "function"
    },
    {
      "inputs": [
        {
          "internalType": "address",
          "name": "newOwner",
          "type": "address"
        }
      ],
      "name": "transferOwnership",
      "outputs": [],
      "stateMutability": "nonpayable",
      "type": "function"
    },
    {
      "inputs": [
        {
          "internalType": "address",
          "name": "user",
          "type": "address"
        },
        {
          "internalType": "bytes",
          "name": "publicKey",
          "type": "bytes"
        },
        {
          "internalType": "address",
          "name": "prerotatedKeyHash",
          "type": "address"
        },
        {
          "internalType": "address",
          "name": "twicePrerotatedKeyHash",
          "type": "address"
        },
        {
          "internalType": "address",
          "name": "prevPublicKeyHash",
          "type": "address"
        },
        {
          "internalType": "address",
          "name": "outputAddress",
          "type": "address"
        },
        {
          "internalType": "bool",
          "name": "hasRelationship",
          "type": "bool"
        }
      ],
      "name": "validateTransaction",
      "outputs": [
        {
          "internalType": "enum KeyLogRegistry.KeyEventFlag",
          "name": "",
          "type": "uint8"
        }
      ],
      "stateMutability": "view",
      "type": "function"
    }
  ],
  "bytecode": "0x6080806040523461007a5733156100645760008054336001600160a01b03198216811783556040519290916001600160a01b0316907f8be0079c531659141344cd1fd0a4f28419497f9722a3daafe3b4186f6b6457e09080a361153390816100808239f35b631e4fbdf760e01b815260006004820152602490fd5b600080fdfe608060405260048036101561001357600080fd5b60003560e01c806355d3ea99146108d057806364752eec146108a5578063715018a61461084c5780638da5cb5b146108235780639532b42b1461076b57806397dc97cb14610742578063c1468acc14610234578063cf8fbec9146101f1578063ed60fb6c1461011e5763f2fde38b1461008b57600080fd5b34610119576020366003190112610119576100a4610baf565b6100ac6114d1565b6001600160a01b039081169182156101015750600054826bffffffffffffffffffffffff60a01b821617600055167f8be0079c531659141344cd1fd0a4f28419497f9722a3daafe3b4186f6b6457e0600080a3005b602490600060405191631e4fbdf760e01b8352820152fd5b600080fd5b50346101195760e036600319011261011957610138610baf565b6024359067ffffffffffffffff92838311610119573660238401121561011957828101359384116101dc5750610177601f8401601f1916602001610cce565b8381523660248585010111610119576000602085819660246101cd970183860137830101526101a4610bdb565b6101ac610bf1565b506101b5610c07565b906101be610c1d565b926101c7610c33565b946111cb565b6101da6040518092610c74565bf35b604190634e487b7160e01b6000525260246000fd5b346101195760203660031901126101195761020a610baf565b6102126114d1565b600280546001600160a01b0319166001600160a01b0392909216919091179055005b5034610119576101a03660031901126101195761024f610baf565b90610258610bc5565b91610261610bdb565b610269610bf1565b93610272610c07565b9061027b610c1d565b91610284610c33565b9260e4356001600160a01b038116810361011957610104356001600160a01b03811681036101195761012435956001600160a01b03871687036101195761014435936001600160a01b03851685036101195761016435956001600160a01b03871687036101195761018435978815158903610119576002546001600160a01b03163314801561072e575b61031790610cf4565b6001600160a01b038c1660009081526001602052604090208054909b9015610727576103428d6110f0565b80156106f957806000198101116106e45761036e6103688e6103c9936000190190610c42565b50610d90565b61037d60c08201511515610e06565b6040810151610399906001600160a01b03878116911614610e52565b60208101516103b5906001600160a01b03868116911614610e9e565b516001600160a01b03838116911614610efc565b8485156106ce575b1561068a57891580610675575b15610631576001600160a01b03878116908216036105cf578e60018060a01b0387169060018060a01b03160361056557916104bb9b9c9d9e939161046c9593610425610c97565b6001600160a01b03968716815290861660208201529085166040820152908416606082015292166080830152151560a0820152600160c0820181905260e082015289610fe5565b610474610c97565b6001600160a01b03968716815290861660208201529085166040820152908416606082015292166080830152151560a0820152600160c0820152600260e082015282610fe5565b549160001983019083821161055057506040519081527f65b9775e0ec7a02caf84b2523694b517ace341c14dd2b3926a5591d7b5f5a996916020917fa9366f75c6c44e3c9ee299d368915abb2fa3108d469f3ab468ef239142dc725b906001600160a01b0383169082908590a26040518581526001600160a01b03831691908490a26040519384526001600160a01b031692a2005b601190634e487b7160e01b6000525260246000fd5b60848e60206040519162461bcd60e51b8352820152603e60248201527f53657175656e6365206d69736d617463683a207477696365507265726f74617460448201527f65644b65794861736820213d20707265726f74617465644b65794861736800006064820152fd5b60848e60206040519162461bcd60e51b8352820152603560248201527f53657175656e6365206d69736d617463683a20707265726f74617465644b6579604482015274090c2e6d040427a40e0eac4d8d2c696caf290c2e6d605b1b6064820152fd5b60648e60206040519162461bcd60e51b8352820152601d60248201527f496e76616c696420636f6e6669726d696e6720636f6e646974696f6e730000006044820152fd5b506001600160a01b03898116908716146103de565b60648e60206040519162461bcd60e51b8352820152601e60248201527f556e636f6e6669726d656420636f6e646974696f6e73206e6f74206d657400006044820152fd5b506001600160a01b0384811690821614156103d1565b60118f634e487b7160e01b6000525260246000fd5b506001600160a01b038316156103c9576107238e60405191829162461bcd60e51b83528201610d31565b0390fd5b6000610342565b506000546001600160a01b0316331461030e565b34610119576000366003190112610119576002546040516001600160a01b039091168152602090f35b503461011957604036600319011261011957610785610baf565b60243560018060a01b0380921660005260016020526040600020928354821015610119576107b96101da9261010095610c42565b509280845416938160018201541692826002830154169083600384015416920154936040519687526020870152604086015260608501528116608084015260ff8160a01c16151560a084015260ff8160a81c16151560c084015260ff60e084019160b01c16610c74565b34610119576000366003190112610119576000546040516001600160a01b039091168152602090f35b34610119576000366003190112610119576108656114d1565b600080546001600160a01b0319811682556001600160a01b03167f8be0079c531659141344cd1fd0a4f28419497f9722a3daafe3b4186f6b6457e08280a3005b346101195760203660031901126101195760206108c86108c3610baf565b6110f0565b604051908152f35b50346101195760e0366003190112610119576108ea610baf565b6108f2610bc5565b906108fb610bdb565b92610904610bf1565b9261090d610c07565b610915610c1d565b9161091e610c33565b9660018060a01b0396876002541633148015610ba2575b61093e90610cf4565b878716600052600160205260406000209182541515600014610b9a57610963886110f0565b995b8a1580610b7a576000198c018c8111610b65578b6109896103686109c99389610c42565b61099860c08201511515610e06565b6109ab82604083015116838c1614610e52565b6109be82602083015116838b1614610e9e565b51168c851614610efc565b80610b5b575b15610b1257801580610b05575b6109e590610fa5565b6000965b60038810159586610af057908b918915948a8615610ae1575b509883809281610a549a9b9c81610a17610c97565b9b168b521660208a0152166040880152166060860152166080840152151560a0830152151560c0820152610a4e8560e08301610d84565b82610fe5565b546040519081527fa9366f75c6c44e3c9ee299d368915abb2fa3108d469f3ab468ef239142dc725b602087871692a2610acc57600103610a9057005b6001840180941161055057507f65b9775e0ec7a02caf84b2523694b517ace341c14dd2b3926a5591d7b5f5a996916020916040519485521692a2005b602182634e487b7160e01b6000525260246000fd5b6000995060021495508a610a02565b60218a634e487b7160e01b6000525260246000fd5b50868a16828b16146109dc565b80158181610b4d575b15610b2957506001966109e9565b80610b40575b610b3890610f64565b6002966109e9565b50868a16828b1614610b2f565b508a83168b89161415610b1b565b50898616156109cf565b60118a634e487b7160e01b6000525260246000fd5b8a8716156109c95760405162461bcd60e51b815280610723818c01610d31565b600099610965565b5060005488163314610935565b600435906001600160a01b038216820361011957565b602435906001600160a01b038216820361011957565b604435906001600160a01b038216820361011957565b606435906001600160a01b038216820361011957565b608435906001600160a01b038216820361011957565b60a435906001600160a01b038216820361011957565b60c43590811515820361011957565b8054821015610c5e576000526005602060002091020190600090565b634e487b7160e01b600052603260045260246000fd5b906003821015610c815752565b634e487b7160e01b600052602160045260246000fd5b60405190610100820182811067ffffffffffffffff821117610cb857604052565b634e487b7160e01b600052604160045260246000fd5b6040519190601f01601f1916820167ffffffffffffffff811183821017610cb857604052565b15610cfb57565b60405162461bcd60e51b815260206004820152600e60248201526d139bdd08185d5d1a1bdc9a5e995960921b6044820152606490fd5b60809060208152603260208201527f496e63657074696f6e206576656e742063616e6e6f74206861766520612070726040820152710caecbee0eac4d8d2c6bed6caf2bed0c2e6d60731b60608201520190565b6003821015610c815752565b90610e0460ff610d9e610c97565b93600460018060a01b039182815416875282600182015416602088015282600282015416604088015282600382015416606088015201549081166080860152818160a01c16151560a0860152818160a81c16151560c086015260b01c1660e08401610d84565b565b15610e0d57565b60405162461bcd60e51b815260206004820152601f60248201527f50726576696f757320656e747279206d757374206265206f6e2d636861696e006044820152606490fd5b15610e5957565b60405162461bcd60e51b815260206004820152601c60248201527f496e76616c69642070726576207075626c6963206b65792068617368000000006044820152606490fd5b15610ea557565b60405162461bcd60e51b815260206004820152602960248201527f5075626c6963206b6579206d757374206d617463682070726576696f757320706044820152681c995c9bdd185d195960ba1b6064820152608490fd5b15610f0357565b60405162461bcd60e51b815260206004820152603360248201527f507265726f7461746564206b6579206d757374206d617463682070726576696f6044820152721d5cc81d1dda58d9481c1c995c9bdd185d1959606a1b6064820152608490fd5b15610f6b57565b60405162461bcd60e51b8152602060048201526012602482015271496e76616c696420636f6e6669726d696e6760701b6044820152606490fd5b15610fac57565b60405162461bcd60e51b815260206004820152601160248201527024b73b30b634b21034b731b2b83a34b7b760791b6044820152606490fd5b805468010000000000000000811015610cb85761100791600182018155610c42565b9190916110c657600460018060a01b0392838351166bffffffffffffffffffffffff60a01b90818354161782556001820185602086015116828254161790556002820185604086015116828254161790556003820190856060860151169082541617905501916080820151169082549160ff60a01b60a0830151151560a01b169060e060ff60a81b60c0850151151560a81b169301516003811015610c81576001600160b81b031990941617171760b09190911b60ff60b01b16179055565b634e487b7160e01b600052600060045260246000fd5b8051821015610c5e5760209160051b010190565b6001600160a01b03166000908152600160208181526040832080549193919067ffffffffffffffff82116111b7579083929160059061113460208460051b01610cce565b96838852602088019185526020852085925b85841061119057505050505050905b611160575b50505190565b825181101561118b5760c061117582856110dc565b5101511561118557810181611155565b91505090565b61115a565b9382829394956111a38398999a94610d90565b815201920193019190928796959493611146565b634e487b7160e01b83526041600452602483fd5b9091929360018060a01b038084516020809601201692600096828216885260019460018752604092838a2096875467ffffffffffffffff81116114bd5760058c6112198c8460051b01610cce565b8381529a90528a8d208d908c808d015b8584106114a0575050505050505086511561145157611247906110f0565b96865188101561141a57871593846113f15760001989018981116113dd5761126f90896110dc565b519261128060c08501511515610e06565b868285015116878616036113995786838501511603611360575050906112ad8480935116838a1614610efc565b82611355575b505015611302576112d795961594856112f3575b505050826112da575b5050610fa5565b90565b60c09250906112e8916110dc565b5101511538806112d0565b811691161492503880806112c7565b9250929493505082159283611347575b156113205750505050600190565b6113329383611337575b505050610f64565b600290565b819293501691161438808061132a565b508084168183161415611312565b1615905081386112b3565b60649250519062461bcd60e51b8252600482015260136024820152720a0eac4d8d2c640d6caf240dad2e6dac2e8c6d606b1b6044820152fd5b815162461bcd60e51b815260048101849052601860248201527f50726576207075626c6963206b6579206d69736d6174636800000000000000006044820152606490fd5b634e487b7160e01b8c52601160045260248cfd5b915050838216611403575082906112ad565b5162461bcd60e51b81528061072360048201610d31565b60649084519062461bcd60e51b82526004820152601160248201527012d95e481b1bd9c8195e1a185d5cdd1959607a1b6044820152fd5b505090989792945081935016611488576112d794959650159283611478575b505050610fa5565b8192935016911614388080611470565b865162461bcd60e51b81528061072360048201610d31565b869185916114ad85610d90565b8152019201920191908d90611229565b634e487b7160e01b8c52604160045260248cfd5b6000546001600160a01b031633036114e557565b60405163118cdaa760e01b8152336004820152602490fdfea2646970667358221220004ce86462ef91efcfe02ae8bca8030833890c0f109cb14d3a6d3095657fa63b64736f6c63430008180033",
  "linkReferences": {},
  "deployedLinkReferences": {}
}