{
  "_format": "hh-sol-artifact-1",
  "contractName": "KeyLogRegistry",
  "sourceName": "contracts/KeyLogRegistry.sol",
  "abi": [
    {
      "inputs": [],
      "stateMutability": "nonpayable",
      "type": "constructor"
    },
    {
      "inputs": [
        {
          "internalType": "address",
          "name": "owner",
          "type": "address"
        }
      ],
      "name": "OwnableInvalidOwner",
      "type": "error"
    },
    {
      "inputs": [
        {
          "internalType": "address",
          "name": "account",
          "type": "address"
        }
      ],
      "name": "OwnableUnauthorizedAccount",
      "type": "error"
    },
    {
      "anonymous": false,
      "inputs": [
        {
          "indexed": true,
          "internalType": "address",
          "name": "publicKeyHash",
          "type": "address"
        },
        {
          "indexed": false,
          "internalType": "uint256",
          "name": "index",
          "type": "uint256"
        }
      ],
      "name": "KeyLogRegistered",
      "type": "event"
    },
    {
      "anonymous": false,
      "inputs": [
        {
          "indexed": true,
          "internalType": "address",
          "name": "publicKeyHash",
          "type": "address"
        },
        {
          "indexed": false,
          "internalType": "uint256",
          "name": "index",
          "type": "uint256"
        }
      ],
      "name": "KeyRotated",
      "type": "event"
    },
    {
      "anonymous": false,
      "inputs": [
        {
          "indexed": true,
          "internalType": "address",
          "name": "previousOwner",
          "type": "address"
        },
        {
          "indexed": true,
          "internalType": "address",
          "name": "newOwner",
          "type": "address"
        }
      ],
      "name": "OwnershipTransferred",
      "type": "event"
    },
    {
      "inputs": [],
      "name": "authorizedCaller",
      "outputs": [
        {
          "internalType": "address",
          "name": "",
          "type": "address"
        }
      ],
      "stateMutability": "view",
      "type": "function"
    },
    {
      "inputs": [
        {
          "internalType": "bytes",
          "name": "publicKey",
          "type": "bytes"
        }
      ],
      "name": "buildFromPublicKey",
      "outputs": [
        {
          "components": [
            {
              "internalType": "address",
              "name": "twicePrerotatedKeyHash",
              "type": "address"
            },
            {
              "internalType": "address",
              "name": "prerotatedKeyHash",
              "type": "address"
            },
            {
              "internalType": "address",
              "name": "publicKeyHash",
              "type": "address"
            },
            {
              "internalType": "address",
              "name": "prevPublicKeyHash",
              "type": "address"
            },
            {
              "internalType": "address",
              "name": "outputAddress",
              "type": "address"
            },
            {
              "internalType": "bool",
              "name": "hasRelationship",
              "type": "bool"
            },
            {
              "internalType": "bool",
              "name": "isOnChain",
              "type": "bool"
            },
            {
              "internalType": "enum KeyLogRegistry.KeyEventFlag",
              "name": "flag",
              "type": "uint8"
            }
          ],
          "internalType": "struct KeyLogRegistry.KeyLogEntry[]",
          "name": "",
          "type": "tuple[]"
        }
      ],
      "stateMutability": "view",
      "type": "function"
    },
    {
      "inputs": [
        {
          "internalType": "address",
          "name": "",
          "type": "address"
        },
        {
          "internalType": "uint256",
          "name": "",
          "type": "uint256"
        }
      ],
      "name": "byPrerotatedKeyHash",
      "outputs": [
        {
          "internalType": "uint256",
          "name": "",
          "type": "uint256"
        }
      ],
      "stateMutability": "view",
      "type": "function"
    },
    {
      "inputs": [
        {
          "internalType": "address",
          "name": "",
          "type": "address"
        },
        {
          "internalType": "uint256",
          "name": "",
          "type": "uint256"
        }
      ],
      "name": "byPrevPublicKeyHash",
      "outputs": [
        {
          "internalType": "uint256",
          "name": "",
          "type": "uint256"
        }
      ],
      "stateMutability": "view",
      "type": "function"
    },
    {
      "inputs": [
        {
          "internalType": "address",
          "name": "",
          "type": "address"
        },
        {
          "internalType": "uint256",
          "name": "",
          "type": "uint256"
        }
      ],
      "name": "byPublicKeyHash",
      "outputs": [
        {
          "internalType": "uint256",
          "name": "",
          "type": "uint256"
        }
      ],
      "stateMutability": "view",
      "type": "function"
    },
    {
      "inputs": [
        {
          "internalType": "bytes",
          "name": "publicKey",
          "type": "bytes"
        }
      ],
      "name": "getAddressFromPublicKey",
      "outputs": [
        {
          "internalType": "address",
          "name": "",
          "type": "address"
        }
      ],
      "stateMutability": "pure",
      "type": "function"
    },
    {
      "inputs": [
        {
          "internalType": "bytes",
          "name": "publicKey",
          "type": "bytes"
        }
      ],
      "name": "getCurrentIndex",
      "outputs": [
        {
          "internalType": "uint256",
          "name": "",
          "type": "uint256"
        }
      ],
      "stateMutability": "view",
      "type": "function"
    },
    {
      "inputs": [
        {
          "internalType": "bytes",
          "name": "publicKey",
          "type": "bytes"
        }
      ],
      "name": "getLatestChainEntry",
      "outputs": [
        {
          "components": [
            {
              "internalType": "address",
              "name": "twicePrerotatedKeyHash",
              "type": "address"
            },
            {
              "internalType": "address",
              "name": "prerotatedKeyHash",
              "type": "address"
            },
            {
              "internalType": "address",
              "name": "publicKeyHash",
              "type": "address"
            },
            {
              "internalType": "address",
              "name": "prevPublicKeyHash",
              "type": "address"
            },
            {
              "internalType": "address",
              "name": "outputAddress",
              "type": "address"
            },
            {
              "internalType": "bool",
              "name": "hasRelationship",
              "type": "bool"
            },
            {
              "internalType": "bool",
              "name": "isOnChain",
              "type": "bool"
            },
            {
              "internalType": "enum KeyLogRegistry.KeyEventFlag",
              "name": "flag",
              "type": "uint8"
            }
          ],
          "internalType": "struct KeyLogRegistry.KeyLogEntry",
          "name": "",
          "type": "tuple"
        },
        {
          "internalType": "bool",
          "name": "",
          "type": "bool"
        }
      ],
      "stateMutability": "view",
      "type": "function"
    },
    {
      "inputs": [
        {
          "internalType": "address",
          "name": "publicKeyHash",
          "type": "address"
        }
      ],
      "name": "getLatestEntry",
      "outputs": [
        {
          "components": [
            {
              "internalType": "address",
              "name": "twicePrerotatedKeyHash",
              "type": "address"
            },
            {
              "internalType": "address",
              "name": "prerotatedKeyHash",
              "type": "address"
            },
            {
              "internalType": "address",
              "name": "publicKeyHash",
              "type": "address"
            },
            {
              "internalType": "address",
              "name": "prevPublicKeyHash",
              "type": "address"
            },
            {
              "internalType": "address",
              "name": "outputAddress",
              "type": "address"
            },
            {
              "internalType": "bool",
              "name": "hasRelationship",
              "type": "bool"
            },
            {
              "internalType": "bool",
              "name": "isOnChain",
              "type": "bool"
            },
            {
              "internalType": "enum KeyLogRegistry.KeyEventFlag",
              "name": "flag",
              "type": "uint8"
            }
          ],
          "internalType": "struct KeyLogRegistry.KeyLogEntry",
          "name": "",
          "type": "tuple"
        },
        {
          "internalType": "bool",
          "name": "",
          "type": "bool"
        }
      ],
      "stateMutability": "view",
      "type": "function"
    },
    {
      "inputs": [
        {
          "internalType": "bytes",
          "name": "publicKey",
          "type": "bytes"
        }
      ],
      "name": "getPreviousEntry",
      "outputs": [
        {
          "components": [
            {
              "internalType": "address",
              "name": "twicePrerotatedKeyHash",
              "type": "address"
            },
            {
              "internalType": "address",
              "name": "prerotatedKeyHash",
              "type": "address"
            },
            {
              "internalType": "address",
              "name": "publicKeyHash",
              "type": "address"
            },
            {
              "internalType": "address",
              "name": "prevPublicKeyHash",
              "type": "address"
            },
            {
              "internalType": "address",
              "name": "outputAddress",
              "type": "address"
            },
            {
              "internalType": "bool",
              "name": "hasRelationship",
              "type": "bool"
            },
            {
              "internalType": "bool",
              "name": "isOnChain",
              "type": "bool"
            },
            {
              "internalType": "enum KeyLogRegistry.KeyEventFlag",
              "name": "flag",
              "type": "uint8"
            }
          ],
          "internalType": "struct KeyLogRegistry.KeyLogEntry",
          "name": "",
          "type": "tuple"
        },
        {
          "internalType": "bool",
          "name": "",
          "type": "bool"
        }
      ],
      "stateMutability": "view",
      "type": "function"
    },
    {
      "inputs": [
        {
          "internalType": "uint256",
          "name": "",
          "type": "uint256"
        }
      ],
      "name": "keyLogEntries",
      "outputs": [
        {
          "internalType": "address",
          "name": "twicePrerotatedKeyHash",
          "type": "address"
        },
        {
          "internalType": "address",
          "name": "prerotatedKeyHash",
          "type": "address"
        },
        {
          "internalType": "address",
          "name": "publicKeyHash",
          "type": "address"
        },
        {
          "internalType": "address",
          "name": "prevPublicKeyHash",
          "type": "address"
        },
        {
          "internalType": "address",
          "name": "outputAddress",
          "type": "address"
        },
        {
          "internalType": "bool",
          "name": "hasRelationship",
          "type": "bool"
        },
        {
          "internalType": "bool",
          "name": "isOnChain",
          "type": "bool"
        },
        {
          "internalType": "enum KeyLogRegistry.KeyEventFlag",
          "name": "flag",
          "type": "uint8"
        }
      ],
      "stateMutability": "view",
      "type": "function"
    },
    {
      "inputs": [],
      "name": "owner",
      "outputs": [
        {
          "internalType": "address",
          "name": "",
          "type": "address"
        }
      ],
      "stateMutability": "view",
      "type": "function"
    },
    {
      "inputs": [
        {
          "internalType": "bytes",
          "name": "publicKey",
          "type": "bytes"
        },
        {
          "internalType": "address",
          "name": "publicKeyHash",
          "type": "address"
        },
        {
          "internalType": "address",
          "name": "prerotatedKeyHash",
          "type": "address"
        },
        {
          "internalType": "address",
          "name": "twicePrerotatedKeyHash",
          "type": "address"
        },
        {
          "internalType": "address",
          "name": "prevPublicKeyHash",
          "type": "address"
        },
        {
          "internalType": "address",
          "name": "outputAddress",
          "type": "address"
        },
        {
          "internalType": "bool",
          "name": "hasRelationship",
          "type": "bool"
        }
      ],
      "name": "registerKeyLog",
      "outputs": [],
      "stateMutability": "nonpayable",
      "type": "function"
    },
    {
      "inputs": [
        {
          "internalType": "bytes",
          "name": "publicKey",
          "type": "bytes"
        },
        {
          "internalType": "address",
          "name": "unconfirmedPublicKeyHash",
          "type": "address"
        },
        {
          "internalType": "address",
          "name": "unconfirmedPrerotatedKeyHash",
          "type": "address"
        },
        {
          "internalType": "address",
          "name": "unconfirmedTwicePrerotatedKeyHash",
          "type": "address"
        },
        {
          "internalType": "address",
          "name": "unconfirmedPrevPublicKeyHash",
          "type": "address"
        },
        {
          "internalType": "address",
          "name": "unconfirmedOutputAddress",
          "type": "address"
        },
        {
          "internalType": "bool",
          "name": "unconfirmedHasRelationship",
          "type": "bool"
        },
        {
          "internalType": "address",
          "name": "confirmingPublicKeyHash",
          "type": "address"
        },
        {
          "internalType": "address",
          "name": "confirmingPrerotatedKeyHash",
          "type": "address"
        },
        {
          "internalType": "address",
          "name": "confirmingTwicePrerotatedKeyHash",
          "type": "address"
        },
        {
          "internalType": "address",
          "name": "confirmingPrevPublicKeyHash",
          "type": "address"
        },
        {
          "internalType": "address",
          "name": "confirmingOutputAddress",
          "type": "address"
        },
        {
          "internalType": "bool",
          "name": "confirmingHasRelationship",
          "type": "bool"
        }
      ],
      "name": "registerKeyLogPair",
      "outputs": [],
      "stateMutability": "nonpayable",
      "type": "function"
    },
    {
      "inputs": [],
      "name": "renounceOwnership",
      "outputs": [],
      "stateMutability": "nonpayable",
      "type": "function"
    },
    {
      "inputs": [
        {
          "internalType": "address",
          "name": "_caller",
          "type": "address"
        }
      ],
      "name": "setAuthorizedCaller",
      "outputs": [],
      "stateMutability": "nonpayable",
      "type": "function"
    },
    {
      "inputs": [
        {
          "internalType": "address",
          "name": "newOwner",
          "type": "address"
        }
      ],
      "name": "transferOwnership",
      "outputs": [],
      "stateMutability": "nonpayable",
      "type": "function"
    },
    {
      "inputs": [
        {
          "internalType": "bytes",
          "name": "publicKey",
          "type": "bytes"
        },
        {
          "internalType": "address",
          "name": "publicKeyHash",
          "type": "address"
        },
        {
          "internalType": "address",
          "name": "prerotatedKeyHash",
          "type": "address"
        },
        {
          "internalType": "address",
          "name": "twicePrerotatedKeyHash",
          "type": "address"
        },
        {
          "internalType": "address",
          "name": "prevPublicKeyHash",
          "type": "address"
        },
        {
          "internalType": "address",
          "name": "outputAddress",
          "type": "address"
        },
        {
          "internalType": "bool",
          "name": "hasRelationship",
          "type": "bool"
        },
        {
          "internalType": "bool",
          "name": "isPair",
          "type": "bool"
        },
        {
          "internalType": "address",
          "name": "confirmingPublicKeyHash",
          "type": "address"
        },
        {
          "internalType": "address",
          "name": "confirmingPrerotatedKeyHash",
          "type": "address"
        },
        {
          "internalType": "address",
          "name": "confirmingPrevPublicKeyHash",
          "type": "address"
        },
        {
          "internalType": "address",
          "name": "confirmingOutputAddress",
          "type": "address"
        },
        {
          "internalType": "bool",
          "name": "confirmingHasRelationship",
          "type": "bool"
        }
      ],
      "name": "validateTransaction",
      "outputs": [
        {
          "internalType": "enum KeyLogRegistry.KeyEventFlag",
          "name": "",
          "type": "uint8"
        },
        {
          "internalType": "enum KeyLogRegistry.KeyEventFlag",
          "name": "",
          "type": "uint8"
        }
      ],
      "stateMutability": "view",
      "type": "function"
    }
  ],
  "bytecode": "0x6080806040523461007a5733156100645760008054336001600160a01b03198216811783556040519290916001600160a01b0316907f8be0079c531659141344cd1fd0a4f28419497f9722a3daafe3b4186f6b6457e09080a361221090816100808239f35b631e4fbdf760e01b815260006004820152602490fd5b600080fdfe6080604052600436101561001257600080fd5b60003560e01c806325fb5bd91461145e578063276c1ac0146114125780632a39b65e14610e995780632d2eca6a14610e61578063386f1d9f14610e175780635988f597146105115780635ed9739c1461048f57806367c27cd414610436578063715018a6146103dd5780638da5cb5b146103b4578063919525511461039357806397dc97cb1461036a578063c47ada2c14610312578063cf8fbec9146102cf578063ec194f4a14610204578063ee93aac2146101b8578063f2fde38b1461012a5763fb51e5bb146100e257600080fd5b34610125576020366003190112610125576004356001600160401b0381116101255761011c61011760209236906004016115ae565b611aa9565b51604051908152f35b600080fd5b3461012557602036600319011261012557610143611672565b61014b6121ae565b6001600160a01b0390811690811561019f57600054826bffffffffffffffffffffffff60a01b821617600055167f8be0079c531659141344cd1fd0a4f28419497f9722a3daafe3b4186f6b6457e0600080a3005b604051631e4fbdf760e01b815260006004820152602490fd5b34610125576020366003190112610125576004356001600160401b038111610125576101eb6101f09136906004016115ae565b612136565b906102006040519283928361176b565b0390f35b34610125576101a0366003190112610125576004356001600160401b038111610125576102359036906004016115ae565b61023d611604565b9061024661161a565b61024e611630565b91610257611646565b9361026061165c565b926102696116e4565b9460e435968715158803610125576040976102cd976102b49761028a611688565b9361029361169f565b9561029c6116b6565b976102a56116cd565b996102ae6116f3565b9b611f02565b6102c38493929351809461154e565b602083019061154e565bf35b34610125576020366003190112610125576102e8611672565b6102f06121ae565b600580546001600160a01b0319166001600160a01b0392909216919091179055005b346101255760403660031901126101255761032b611672565b6001600160a01b03166000908152600460205260409020805460243591908210156101255760209161035c91611788565b90546040519160031b1c8152f35b34610125576000366003190112610125576005546040516001600160a01b039091168152602090f35b34610125576020366003190112610125576101f06103af611672565b611e46565b34610125576000366003190112610125576000546040516001600160a01b039091168152602090f35b34610125576000366003190112610125576103f66121ae565b600080546001600160a01b0319811682556001600160a01b03167f8be0079c531659141344cd1fd0a4f28419497f9722a3daafe3b4186f6b6457e08280a3005b346101255760403660031901126101255761044f611672565b6001600160a01b03166000908152600360205260409020805460243591908210156101255760209161048091611788565b90549060031b1c604051908152f35b3461012557602080600319360112610125576004356001600160401b038111610125576101176104c39136906004016115ae565b604051906020820160208352815180915260206040840192019360005b8281106104ed5784840385f35b90919282610100826105026001948a51611703565b019601910194929190946104e0565b34610125576101a0366003190112610125576004356001600160401b038111610125576105429036906004016115ae565b61054a611604565b61055261161a565b9161055b611630565b90610564611646565b9061056d61165c565b916105766116e4565b60e43593906001600160a01b038516850361012557610593611688565b9561059c61169f565b926105a56116b6565b956105ae6116cd565b926105b76116f3565b9160018060a01b036005541633148015610e03575b6105d590611802565b6105de816119d3565b82516020909301929092206001600160a01b0316908215610d935760c081015115610d4e5760408101516001600160a01b03908116908b1603610d0e5760208101516001600160a01b0316829003610cd357516001600160a01b03908116908f1603610c72575b6001600160a01b038d1603610c32571580610c21575b15610ba357841580610b8e575b15610b55575b6001600160a01b0390811691908a168203610ad95784159485610ac3575b15610a7e5715938480610a69575b15610a24576001600160a01b03898116908d16036109c1576001600160a01b038b81169089160361094c5761071792604051926106d68461155b565b83526001600160a01b038d811660208501528c8116604085015288811660608501521660808301521560a0820152600160c0820181905260e082015261184b565b60015498896000198101116108de576107be9460018060a01b038a16600052600260205261074d6000198c01604060002061193f565b6001600160a01b038116610920575b506001600160a01b0381166108f4575b506040519261077a8461155b565b6001600160a01b0390811684528781166020850152868116604085015285811660608501521660808301521560a0820152600160c0820152600260e082015261184b565b6001546000198101959086116108de577f65b9775e0ec7a02caf84b2523694b517ace341c14dd2b3926a5591d7b5f5a99694602094859360018060a01b0386166000526002855261081389604060002061193f565b6001600160a01b0381166108bb575b506001600160a01b038116610898575b5060405160001990920182527fa9366f75c6c44e3c9ee299d368915abb2fa3108d469f3ab468ef239142dc725b926001600160a01b0390911691839190a26040518581526001600160a01b03831691908490a26040519384526001600160a01b031692a2005b60018060a01b0316600052600483526108b587604060002061193f565b87610832565b60018060a01b0316600052600384526108d888604060002061193f565b88610822565b634e487b7160e01b600052601160045260246000fd5b6001600160a01b0316600090815260046020526040902061091a906000198b019061193f565b8961076c565b6001600160a01b03166000908152600360205260409020610946906000198c019061193f565b8a61075c565b60405162461bcd60e51b815260206004820152604160248201527f436f6e6669726d696e6720707265765075626c69634b657948617368206d757360448201527f74206d6174636820756e636f6e6669726d6564207075626c69634b65794861736064820152600d60fb1b608482015260a490fd5b60405162461bcd60e51b815260206004820152603560248201527f53657175656e6365206d69736d617463683a20707265726f74617465644b6579604482015274090c2e6d040427a40e0eac4d8d2c696caf290c2e6d605b1b6064820152608490fd5b60405162461bcd60e51b815260206004820152601d60248201527f496e76616c696420636f6e6669726d696e6720636f6e646974696f6e730000006044820152606490fd5b506001600160a01b03848116908b161461069a565b60405162461bcd60e51b815260206004820152601e60248201527f556e636f6e6669726d656420636f6e646974696f6e73206e6f74206d657400006044820152606490fd5b506001600160a01b03838116908d16141561068c565b60405162461bcd60e51b815260206004820152604860248201527f53657175656e6365206d69736d617463683a207477696365507265726f74617460448201527f65644b65794861736820213d20636f6e6669726d696e67507265726f746174656064820152670c896caf290c2e6d60c31b608482015260a490fd5b60405162461bcd60e51b815260206004820152601160248201527024b73b30b634b21034b731b2b83a34b7b760791b6044820152606490fd5b506001600160a01b03838116908d1614610668565b848515610c0b575b61066e57841580610bf6575b61066e575b60405162461bcd60e51b8152602060048201526012602482015271496e76616c696420636f6e6669726d696e6760701b6044820152606490fd5b506001600160a01b03838116908d1614610bb7565b506001600160a01b03838116908d161415610bab565b506001600160a01b0387161561065b565b60405162461bcd60e51b81526020600482015260186024820152770a0eac4d8d2c640d6caf240d0c2e6d040dad2e6dac2e8c6d60431b6044820152606490fd5b60405162461bcd60e51b815260206004820152603360248201527f507265726f7461746564206b6579206d757374206d617463682070726576696f6044820152721d5cc81d1dda58d9481c1c995c9bdd185d1959606a1b6064820152608490fd5b60405162461bcd60e51b81526020600482015260136024820152720a0eac4d8d2c640d6caf240dad2e6dac2e8c6d606b1b6044820152606490fd5b60405162461bcd60e51b81526020600482015260186024820152770a0e4caec40e0eac4d8d2c640d6caf240dad2e6dac2e8c6d60431b6044820152606490fd5b60405162461bcd60e51b815260206004820152601f60248201527f50726576696f757320656e747279206d757374206265206f6e2d636861696e006044820152606490fd5b506001600160a01b038916156106455760405162461bcd60e51b815260206004820152603260248201527f496e63657074696f6e206576656e742063616e6e6f74206861766520612070726044820152710caecbee0eac4d8d2c6bed6caf2bed0c2e6d60731b6064820152608490fd5b506000546001600160a01b031633146105cc565b3461012557604036600319011261012557610e30611672565b6001600160a01b03166000908152600260205260409020805460243591908210156101255760209161035c91611788565b34610125576020366003190112610125576004356001600160401b03811161012557610e946101f09136906004016115ae565b6119d3565b346101255760e0366003190112610125576004356001600160401b03811161012557610ec99036906004016115ae565b610ed1611604565b610ed961161a565b91610ee2611630565b610eea611646565b610ef261165c565b94610efb6116e4565b9160018060a01b0360055416331480156113fe575b610f1990611802565b610f22856119d3565b865160209788012090916001600160a01b0390911690821561138e5760c0810151156113495760408101516001600160a01b039081169085160361130957808801516001600160a01b03168290036112ce57516001600160a01b039081169085160361126d575b6001600160a01b0388160361122d57158061121c575b1561118d57821580611178575b1561113f576000935b600385101592836110e4578515908115611130575b9461102d93949560405193610fde8561155b565b6001600160a01b0390811685529081168985018190528a82166040860152958116606085018190529a166080840152151560a0830152151560c08201526110288560e0830161183f565b61184b565b6001546000198101969087116108de5760018060a01b0386166000526002855261105b87604060002061193f565b80611115575b50806110fa575b506040518581526001600160a01b038516907fa9366f75c6c44e3c9ee299d368915abb2fa3108d469f3ab468ef239142dc725b908590a26110e4576001036110ac57005b6040519283526001600160a01b03909116917f65b9775e0ec7a02caf84b2523694b517ace341c14dd2b3926a5591d7b5f5a9969190a2005b634e487b7160e01b600052602160045260246000fd5b6000526004835261110f85604060002061193f565b85611068565b6000526003845261112a86604060002061193f565b86611061565b60009450600287149150610fca565b60405162461bcd60e51b815260048101869052601160248201527024b73b30b634b21034b731b2b83a34b7b760791b6044820152606490fd5b506001600160a01b0387811690831614610fac565b82158381611206575b156111a45750600193610fb5565b806111f1575b156111b757600293610fb5565b60405162461bcd60e51b8152600481018690526012602482015271496e76616c696420636f6e6669726d696e6760701b6044820152606490fd5b506001600160a01b03878116908316146111aa565b506001600160a01b038881169084161415611196565b506001600160a01b03811615610f9f565b60405162461bcd60e51b81526004810187905260186024820152770a0eac4d8d2c640d6caf240d0c2e6d040dad2e6dac2e8c6d60431b6044820152606490fd5b60405162461bcd60e51b815260048101889052603360248201527f507265726f7461746564206b6579206d757374206d617463682070726576696f6044820152721d5cc81d1dda58d9481c1c995c9bdd185d1959606a1b6064820152608490fd5b60405162461bcd60e51b81526004810189905260136024820152720a0eac4d8d2c640d6caf240dad2e6dac2e8c6d606b1b6044820152606490fd5b60405162461bcd60e51b81526004810189905260186024820152770a0e4caec40e0eac4d8d2c640d6caf240dad2e6dac2e8c6d60431b6044820152606490fd5b60405162461bcd60e51b815260048101899052601f60248201527f50726576696f757320656e747279206d757374206265206f6e2d636861696e006044820152606490fd5b506001600160a01b03831615610f895760405162461bcd60e51b815260048101889052603260248201527f496e63657074696f6e206576656e742063616e6e6f74206861766520612070726044820152710caecbee0eac4d8d2c6bed6caf2bed0c2e6d60731b6064820152608490fd5b506000546001600160a01b03163314610f10565b34610125576020366003190112610125576004356001600160401b0381116101255761144c61144760209236906004016115ae565b6117a0565b6040516001600160a01b039091168152f35b346101255760203660031901126101255760043560015481101561012557611488610100916114fd565b506102cd60018060a01b03918281541692806001830154169181600282015416600483600384015416920154936040519687526020870152604086015260608501528116608084015260ff8160a01c16151560a084015260ff8160a81c16151560c084015260ff60e084019160b01c1661154e565b600154811015611538576005906001600052027fb10e2d527612073b26eecdfd717e6a320cf44b4afac2b0732d9fcbe2b7fa0cf60190600090565b634e487b7160e01b600052603260045260246000fd5b9060038210156110e45752565b61010081019081106001600160401b0382111761157757604052565b634e487b7160e01b600052604160045260246000fd5b90601f801991011681019081106001600160401b0382111761157757604052565b81601f82011215610125578035906001600160401b03821161157757604051926115e2601f8401601f19166020018561158d565b8284526020838301011161012557816000926020809301838601378301015290565b602435906001600160a01b038216820361012557565b604435906001600160a01b038216820361012557565b606435906001600160a01b038216820361012557565b608435906001600160a01b038216820361012557565b60a435906001600160a01b038216820361012557565b600435906001600160a01b038216820361012557565b61010435906001600160a01b038216820361012557565b61012435906001600160a01b038216820361012557565b61014435906001600160a01b038216820361012557565b61016435906001600160a01b038216820361012557565b60c43590811515820361012557565b6101843590811515820361012557565b9060e0806117699360018060a01b03808251168552806020830151166020860152806040830151166040860152806060830151166060860152608082015116608085015260a0810151151560a085015260c0810151151560c0850152015191019061154e565b565b9092916101009061178183610120810196611703565b1515910152565b80548210156115385760005260206000200190600090565b60408151036117bd5780516020909101206001600160a01b031690565b60405162461bcd60e51b815260206004820152601b60248201527f5075626c6963206b6579206d75737420626520363420627974657300000000006044820152606490fd5b1561180957565b60405162461bcd60e51b815260206004820152600e60248201526d139bdd08185d5d1a1bdc9a5e995960921b6044820152606490fd5b60038210156110e45752565b600154600160401b8110156115775780600161186a92016001556114fd565b91909161192957600460018060a01b0392838351166bffffffffffffffffffffffff60a01b90818354161782556001820185602086015116828254161790556002820185604086015116828254161790556003820190856060860151169082541617905501916080820151169082549160ff60a01b60a0830151151560a01b169060e060ff60a81b60c0850151151560a81b1693015160038110156110e4576001600160b81b031990941617171760b09190911b60ff60b01b16179055565b634e487b7160e01b600052600060045260246000fd5b8054600160401b8110156115775761195c91600182018155611788565b819291549060031b91821b91600019901b1916179055565b604051906119818261155b565b8160e06000918281528260208201528260408201528260608201528260808201528260a08201528260c08201520152565b8051156115385760200190565b80518210156115385760209160051b010190565b6119e5906119df611974565b50611aa9565b805115611a0a57805160001981019081116108de57611a03916119bf565b5190600190565b50611a13611974565b90600090565b6001600160401b0381116115775760051b60200190565b90611769604051611a408161155b565b60e060ff8295600460018060a01b039182815416865282600182015416602087015282600282015416604087015282600382015416606087015201549081166080850152818160a01c16151560a0850152818160a81c16151560c085015260b01c16910161183f565b611ab2906117a0565b906040805192610ca084018481106001600160401b038211176115775782526064845260005b610c808110611e2f575060009093611aee611974565b948290611af9611974565b505b6001600160a01b039081168085526002602090815286862087518154808252918852828820909392918483019190895b818110611e1b5750505083611b4191038461158d565b825115611d305750508051600019810191908211611d1c57611b69611b7592611b6f926119bf565b516114fd565b50611a30565b90606082015116908115611b8c5750955b95611afb565b929394959650505060015b611c1f575b50611bb2611ba983611a19565b9351938461158d565b818352601f19611bc183611a19565b0160005b818110611c0857505060005b828110611bde5750505090565b80611beb600192846119bf565b51611bf682876119bf565b52611c0181866119bf565b5001611bd1565b602090611c13611974565b82828801015201611bc5565b809250611c2b826119b2565b52611c35816119b2565b50602091820151600192906001600160a01b0390819081165b16600052600282528460002091855191828483829654958681520190600052836000206000955b808710611d02575050611c8c92939450038461158d565b82519283611c9f57505050505b38611b9c565b6000199592939192918681019081116108de57611b69611b6f91611cc2936119bf565b9485611cce83876119bf565b52611cd982866119bf565b5081146108de57826001839201950151168351851015611cfa578190611c4e565b505050611c99565b815483526001968701968894509286019290910190611c75565b634e487b7160e01b86526011600452602486fd5b908092508652600381528686209187519283838254918281520191895283892090895b818110611e075750505083611d6991038461158d565b825115611d9c575b50508051600019810191908211611d1c57611b6f611b698893611d93936119bf565b01511695611b86565b9091508552600481528585208651918281835491828152019288528188209188905b828210611df0575050505081611dd591038261158d565b805115611de3573880611d71565b5050949091929394611b97565b835485529384019360019384019390910190611dbe565b825484529285019260019283019201611d53565b825484529284019260019283019201611b2b565b602090611e3a611974565b82828801015201611ad8565b611e4e611974565b5060009060018060a01b0316815260206002602052604082209060405180928391602082549182815201918652602086209386905b828210611ee857505050611e999250038261158d565b805115611eda578051600019810192908311611ec65750611b69611ec092611b6f926119bf565b90600190565b634e487b7160e01b81526011600452602490fd5b5090611ee4611974565b9190565b855484526001958601958795509381019390910190611e83565b9b959493909a9798929691999a611f188d6119d3565b8e516020909f019e909e206001600160a01b03169d919082156120c65760c081015115610d4e5760408101516001600160a01b0390811690851603610d0e5760208101516001600160a01b03168f9003610cd357516001600160a01b03908116908d1603610c72575b6001600160a01b03169c8d9003610c32571590816120b4575b501561205f5783158061204a575b15610b55576000905b1561203957506001600160a01b039081169416849003610ad9578115612022575b5015610a7e5715918261200f575b505015610a24576001600160a01b039081169116036109c1576001600160a01b03160361094c57600190600290565b6001600160a01b03161490503880611fe0565b6001600160a01b0387811691161415905038611fd2565b995050505050505050505090600190565b506001600160a01b03838116908a1614611fa8565b8315848161209e575b156120765750600190611fb1565b80612089575b15610bbc57600290611fb1565b506001600160a01b03838116908a161461207c565b506001600160a01b03848116908b161415612068565b6001600160a01b031615905038611f9a565b506001600160a01b03831615611f815760405162461bcd60e51b815260206004820152603260248201527f496e63657074696f6e206576656e742063616e6e6f74206861766520612070726044820152710caecbee0eac4d8d2c6bed6caf2bed0c2e6d60731b6064820152608490fd5b61213e611974565b506001600160a01b0390612151906117a0565b16600090815260206004602052604082209060405180928391602082549182815201918652602086209386905b82821061219457505050611e999250038261158d565b85548452600195860195879550938101939091019061217e565b6000546001600160a01b031633036121c257565b60405163118cdaa760e01b8152336004820152602490fdfea26469706673582212200e77b98891a06ff0829feeed0f1d691ba81744ce136ad24f2ee931861e2ff62864736f6c63430008180033",
  "linkReferences": {},
  "deployedLinkReferences": {}
}