{
  "_format": "hh-sol-artifact-1",
  "contractName": "MockERC20Upgrade",
  "sourceName": "contracts/MockERC20Upgrade.sol",
  "abi": [
    {
      "inputs": [
        {
          "internalType": "address",
          "name": "target",
          "type": "address"
        }
      ],
      "name": "AddressEmptyCode",
      "type": "error"
    },
    {
      "inputs": [],
      "name": "ECDSAInvalidSignature",
      "type": "error"
    },
    {
      "inputs": [
        {
          "internalType": "uint256",
          "name": "length",
          "type": "uint256"
        }
      ],
      "name": "ECDSAInvalidSignatureLength",
      "type": "error"
    },
    {
      "inputs": [
        {
          "internalType": "bytes32",
          "name": "s",
          "type": "bytes32"
        }
      ],
      "name": "ECDSAInvalidSignatureS",
      "type": "error"
    },
    {
      "inputs": [
        {
          "internalType": "address",
          "name": "implementation",
          "type": "address"
        }
      ],
      "name": "ERC1967InvalidImplementation",
      "type": "error"
    },
    {
      "inputs": [],
      "name": "ERC1967NonPayable",
      "type": "error"
    },
    {
      "inputs": [
        {
          "internalType": "address",
          "name": "spender",
          "type": "address"
        },
        {
          "internalType": "uint256",
          "name": "allowance",
          "type": "uint256"
        },
        {
          "internalType": "uint256",
          "name": "needed",
          "type": "uint256"
        }
      ],
      "name": "ERC20InsufficientAllowance",
      "type": "error"
    },
    {
      "inputs": [
        {
          "internalType": "address",
          "name": "sender",
          "type": "address"
        },
        {
          "internalType": "uint256",
          "name": "balance",
          "type": "uint256"
        },
        {
          "internalType": "uint256",
          "name": "needed",
          "type": "uint256"
        }
      ],
      "name": "ERC20InsufficientBalance",
      "type": "error"
    },
    {
      "inputs": [
        {
          "internalType": "address",
          "name": "approver",
          "type": "address"
        }
      ],
      "name": "ERC20InvalidApprover",
      "type": "error"
    },
    {
      "inputs": [
        {
          "internalType": "address",
          "name": "receiver",
          "type": "address"
        }
      ],
      "name": "ERC20InvalidReceiver",
      "type": "error"
    },
    {
      "inputs": [
        {
          "internalType": "address",
          "name": "sender",
          "type": "address"
        }
      ],
      "name": "ERC20InvalidSender",
      "type": "error"
    },
    {
      "inputs": [
        {
          "internalType": "address",
          "name": "spender",
          "type": "address"
        }
      ],
      "name": "ERC20InvalidSpender",
      "type": "error"
    },
    {
      "inputs": [
        {
          "internalType": "uint256",
          "name": "deadline",
          "type": "uint256"
        }
      ],
      "name": "ERC2612ExpiredSignature",
      "type": "error"
    },
    {
      "inputs": [
        {
          "internalType": "address",
          "name": "signer",
          "type": "address"
        },
        {
          "internalType": "address",
          "name": "owner",
          "type": "address"
        }
      ],
      "name": "ERC2612InvalidSigner",
      "type": "error"
    },
    {
      "inputs": [],
      "name": "FailedCall",
      "type": "error"
    },
    {
      "inputs": [
        {
          "internalType": "address",
          "name": "account",
          "type": "address"
        },
        {
          "internalType": "uint256",
          "name": "currentNonce",
          "type": "uint256"
        }
      ],
      "name": "InvalidAccountNonce",
      "type": "error"
    },
    {
      "inputs": [],
      "name": "InvalidInitialization",
      "type": "error"
    },
    {
      "inputs": [],
      "name": "NotInitializing",
      "type": "error"
    },
    {
      "inputs": [
        {
          "internalType": "address",
          "name": "owner",
          "type": "address"
        }
      ],
      "name": "OwnableInvalidOwner",
      "type": "error"
    },
    {
      "inputs": [
        {
          "internalType": "address",
          "name": "account",
          "type": "address"
        }
      ],
      "name": "OwnableUnauthorizedAccount",
      "type": "error"
    },
    {
      "inputs": [],
      "name": "UUPSUnauthorizedCallContext",
      "type": "error"
    },
    {
      "inputs": [
        {
          "internalType": "bytes32",
          "name": "slot",
          "type": "bytes32"
        }
      ],
      "name": "UUPSUnsupportedProxiableUUID",
      "type": "error"
    },
    {
      "anonymous": false,
      "inputs": [
        {
          "indexed": true,
          "internalType": "address",
          "name": "owner",
          "type": "address"
        },
        {
          "indexed": true,
          "internalType": "address",
          "name": "spender",
          "type": "address"
        },
        {
          "indexed": false,
          "internalType": "uint256",
          "name": "value",
          "type": "uint256"
        }
      ],
      "name": "Approval",
      "type": "event"
    },
    {
      "anonymous": false,
      "inputs": [],
      "name": "EIP712DomainChanged",
      "type": "event"
    },
    {
      "anonymous": false,
      "inputs": [
        {
          "indexed": false,
          "internalType": "uint64",
          "name": "version",
          "type": "uint64"
        }
      ],
      "name": "Initialized",
      "type": "event"
    },
    {
      "anonymous": false,
      "inputs": [
        {
          "indexed": true,
          "internalType": "address",
          "name": "previousOwner",
          "type": "address"
        },
        {
          "indexed": true,
          "internalType": "address",
          "name": "newOwner",
          "type": "address"
        }
      ],
      "name": "OwnershipTransferred",
      "type": "event"
    },
    {
      "anonymous": false,
      "inputs": [
        {
          "indexed": true,
          "internalType": "address",
          "name": "from",
          "type": "address"
        },
        {
          "indexed": true,
          "internalType": "address",
          "name": "to",
          "type": "address"
        },
        {
          "indexed": false,
          "internalType": "uint256",
          "name": "value",
          "type": "uint256"
        }
      ],
      "name": "Transfer",
      "type": "event"
    },
    {
      "anonymous": false,
      "inputs": [
        {
          "indexed": true,
          "internalType": "address",
          "name": "implementation",
          "type": "address"
        }
      ],
      "name": "Upgraded",
      "type": "event"
    },
    {
      "inputs": [],
      "name": "DOMAIN_SEPARATOR",
      "outputs": [
        {
          "internalType": "bytes32",
          "name": "",
          "type": "bytes32"
        }
      ],
      "stateMutability": "view",
      "type": "function"
    },
    {
      "inputs": [],
      "name": "UPGRADE_INTERFACE_VERSION",
      "outputs": [
        {
          "internalType": "string",
          "name": "",
          "type": "string"
        }
      ],
      "stateMutability": "view",
      "type": "function"
    },
    {
      "inputs": [
        {
          "internalType": "address",
          "name": "owner",
          "type": "address"
        },
        {
          "internalType": "address",
          "name": "spender",
          "type": "address"
        }
      ],
      "name": "allowance",
      "outputs": [
        {
          "internalType": "uint256",
          "name": "",
          "type": "uint256"
        }
      ],
      "stateMutability": "view",
      "type": "function"
    },
    {
      "inputs": [
        {
          "internalType": "address",
          "name": "spender",
          "type": "address"
        },
        {
          "internalType": "uint256",
          "name": "value",
          "type": "uint256"
        }
      ],
      "name": "approve",
      "outputs": [
        {
          "internalType": "bool",
          "name": "",
          "type": "bool"
        }
      ],
      "stateMutability": "nonpayable",
      "type": "function"
    },
    {
      "inputs": [
        {
          "internalType": "address",
          "name": "account",
          "type": "address"
        }
      ],
      "name": "balanceOf",
      "outputs": [
        {
          "internalType": "uint256",
          "name": "",
          "type": "uint256"
        }
      ],
      "stateMutability": "view",
      "type": "function"
    },
    {
      "inputs": [],
      "name": "bridge",
      "outputs": [
        {
          "internalType": "address",
          "name": "",
          "type": "address"
        }
      ],
      "stateMutability": "view",
      "type": "function"
    },
    {
      "inputs": [
        {
          "internalType": "address",
          "name": "from",
          "type": "address"
        },
        {
          "internalType": "uint256",
          "name": "amount",
          "type": "uint256"
        }
      ],
      "name": "burn",
      "outputs": [],
      "stateMutability": "nonpayable",
      "type": "function"
    },
    {
      "inputs": [],
      "name": "decimals",
      "outputs": [
        {
          "internalType": "uint8",
          "name": "",
          "type": "uint8"
        }
      ],
      "stateMutability": "view",
      "type": "function"
    },
    {
      "inputs": [],
      "name": "eip712Domain",
      "outputs": [
        {
          "internalType": "bytes1",
          "name": "fields",
          "type": "bytes1"
        },
        {
          "internalType": "string",
          "name": "name",
          "type": "string"
        },
        {
          "internalType": "string",
          "name": "version",
          "type": "string"
        },
        {
          "internalType": "uint256",
          "name": "chainId",
          "type": "uint256"
        },
        {
          "internalType": "address",
          "name": "verifyingContract",
          "type": "address"
        },
        {
          "internalType": "bytes32",
          "name": "salt",
          "type": "bytes32"
        },
        {
          "internalType": "uint256[]",
          "name": "extensions",
          "type": "uint256[]"
        }
      ],
      "stateMutability": "view",
      "type": "function"
    },
    {
      "inputs": [],
      "name": "getTestString",
      "outputs": [
        {
          "internalType": "string",
          "name": "",
          "type": "string"
        }
      ],
      "stateMutability": "pure",
      "type": "function"
    },
    {
      "inputs": [
        {
          "internalType": "string",
          "name": "name",
          "type": "string"
        },
        {
          "internalType": "string",
          "name": "symbol",
          "type": "string"
        },
        {
          "internalType": "address",
          "name": "_bridge",
          "type": "address"
        }
      ],
      "name": "initialize",
      "outputs": [],
      "stateMutability": "nonpayable",
      "type": "function"
    },
    {
      "inputs": [
        {
          "internalType": "address",
          "name": "to",
          "type": "address"
        },
        {
          "internalType": "uint256",
          "name": "amount",
          "type": "uint256"
        }
      ],
      "name": "mint",
      "outputs": [],
      "stateMutability": "nonpayable",
      "type": "function"
    },
    {
      "inputs": [],
      "name": "name",
      "outputs": [
        {
          "internalType": "string",
          "name": "",
          "type": "string"
        }
      ],
      "stateMutability": "view",
      "type": "function"
    },
    {
      "inputs": [
        {
          "internalType": "address",
          "name": "owner",
          "type": "address"
        }
      ],
      "name": "nonces",
      "outputs": [
        {
          "internalType": "uint256",
          "name": "",
          "type": "uint256"
        }
      ],
      "stateMutability": "view",
      "type": "function"
    },
    {
      "inputs": [],
      "name": "owner",
      "outputs": [
        {
          "internalType": "address",
          "name": "",
          "type": "address"
        }
      ],
      "stateMutability": "view",
      "type": "function"
    },
    {
      "inputs": [
        {
          "internalType": "address",
          "name": "owner",
          "type": "address"
        },
        {
          "internalType": "address",
          "name": "spender",
          "type": "address"
        },
        {
          "internalType": "uint256",
          "name": "value",
          "type": "uint256"
        },
        {
          "internalType": "uint256",
          "name": "deadline",
          "type": "uint256"
        },
        {
          "internalType": "uint8",
          "name": "v",
          "type": "uint8"
        },
        {
          "internalType": "bytes32",
          "name": "r",
          "type": "bytes32"
        },
        {
          "internalType": "bytes32",
          "name": "s",
          "type": "bytes32"
        }
      ],
      "name": "permit",
      "outputs": [],
      "stateMutability": "nonpayable",
      "type": "function"
    },
    {
      "inputs": [],
      "name": "proxiableUUID",
      "outputs": [
        {
          "internalType": "bytes32",
          "name": "",
          "type": "bytes32"
        }
      ],
      "stateMutability": "view",
      "type": "function"
    },
    {
      "inputs": [],
      "name": "renounceOwnership",
      "outputs": [],
      "stateMutability": "nonpayable",
      "type": "function"
    },
    {
      "inputs": [],
      "name": "symbol",
      "outputs": [
        {
          "internalType": "string",
          "name": "",
          "type": "string"
        }
      ],
      "stateMutability": "view",
      "type": "function"
    },
    {
      "inputs": [],
      "name": "totalSupply",
      "outputs": [
        {
          "internalType": "uint256",
          "name": "",
          "type": "uint256"
        }
      ],
      "stateMutability": "view",
      "type": "function"
    },
    {
      "inputs": [
        {
          "internalType": "address",
          "name": "to",
          "type": "address"
        },
        {
          "internalType": "uint256",
          "name": "value",
          "type": "uint256"
        }
      ],
      "name": "transfer",
      "outputs": [
        {
          "internalType": "bool",
          "name": "",
          "type": "bool"
        }
      ],
      "stateMutability": "nonpayable",
      "type": "function"
    },
    {
      "inputs": [
        {
          "internalType": "address",
          "name": "from",
          "type": "address"
        },
        {
          "internalType": "address",
          "name": "to",
          "type": "address"
        },
        {
          "internalType": "uint256",
          "name": "value",
          "type": "uint256"
        }
      ],
      "name": "transferFrom",
      "outputs": [
        {
          "internalType": "bool",
          "name": "",
          "type": "bool"
        }
      ],
      "stateMutability": "nonpayable",
      "type": "function"
    },
    {
      "inputs": [
        {
          "internalType": "address",
          "name": "newOwner",
          "type": "address"
        }
      ],
      "name": "transferOwnership",
      "outputs": [],
      "stateMutability": "nonpayable",
      "type": "function"
    },
    {
      "inputs": [
        {
          "internalType": "address",
          "name": "newImplementation",
          "type": "address"
        },
        {
          "internalType": "bytes",
          "name": "data",
          "type": "bytes"
        }
      ],
      "name": "upgradeToAndCall",
      "outputs": [],
      "stateMutability": "payable",
      "type": "function"
    }
  ],
  "bytecode": "0x60a0806040523461002a5730608052611fbe9081610030823960805181818161082601526108df0152f35b600080fdfe608080604052600436101561001357600080fd5b60003560e01c90816306fdde031461158a57508063077f224a14610d6f578063095ea7b314610d4957806318160ddd14610d0c57806323b872dd14610c275780632f91be4814610bd0578063313ce56714610bb45780633644e51514610b9157806340c10f1914610abe5780634f1ef2861461089057806352d1902d1461081357806370a08231146107cc578063715018a6146107505780637ecebe00146106f757806384b0196e146105d85780638da5cb5b146105ab57806395d89b41146104ca5780639dc29fac146103cf578063a9059cbb1461039e578063ad3cb1cc14610354578063d505accf146101c9578063dd62ed3e14610180578063e78cea92146101575763f2fde38b1461012757600080fd5b3461015257602036600319011261015257610150610143611741565b61014b611b6c565b6119f8565b005b600080fd5b34610152576000366003190112610152576000546040516001600160a01b039091168152602090f35b3461015257604036600319011261015257610199611741565b6101aa6101a4611757565b9161192e565b9060018060a01b03166000526020526020604060002054604051908152f35b346101525760e0366003190112610152576101e2611741565b6101ea611757565b60443590606435926084359360ff851685036101525780421161033c5760018060a01b039081831695866000527f5ab42ced628888259c08ac98db1eb0cf702fc1501344311d8b100cd1bfe4bb006020526040600020908154916001830190556040519260208401927f6e71edae12b1b97f4d1f60370fef10105fa2faae0126114a169c64845d6126c98452896040860152858816606086015288608086015260a085015260c084015260c0835260e08301918383106001600160401b03841117610326576102f5936102ec936040525190206102c5611c2c565b906040519161190160f01b83526002830152602282015260c43591604260a4359220611ca1565b90929192611d31565b1684810361030857506101509350611bce565b60449085604051916325c0072360e11b835260048301526024820152fd5b634e487b7160e01b600052604160045260246000fd5b6024906040519063313c898160e11b82526004820152fd5b346101525760003660031901126101525761039a60405161037481611695565b60058152640352e302e360dc1b6020820152604051918291602083526020830190611655565b0390f35b34610152576040366003190112610152576103c46103ba611741565b6024359033611a7e565b602060405160018152f35b34610152576040366003190112610152576103e8611741565b600054602435906001600160a01b0390811633036101525782169081156101525780156101525781600052600080516020611ec983398151915280602052604060002054938285106104995750817fddf252ad1be2c89b69c2b068fc378daa952ba7f163c4a11628f55a4df523b3ef9260009560209386885284520360408620557f52c63247e1f47db19d5ce0460030c497f067ca4cebf71ba98eeadabe20bace02818154039055604051908152a3005b60405163391434e360e21b81526001600160a01b039190911660048201526024810185905260448101839052606490fd5b3461015257600036600319011261015257604051600080516020611f0983398151915280548260006104fb8361176d565b928383526020946001918660018216918260001461058957505060011461053f575b505061052b925003836116b0565b61039a604051928284938452830190611655565b859250600052600080516020611f49833981519152906000915b85831061057157505061052b9350820101858061051d565b80548389018501528794508693909201918101610559565b925093505061052b94915060ff191682840152151560051b820101858061051d565b346101525760003660031901126101525760206105c6611967565b6040516001600160a01b039091168152f35b34610152576000366003190112610152577fa16a46d94261c7517cc8ff89f61c0ce93598e3c849801011dee649a6a557d1005415806106ce575b156101525761061f6117a7565b61062761186d565b6040516020808201928284106001600160401b03851117610326579160206106818594610673979660405260008452604051978897600f60f81b895260e0858a015260e0890190611655565b908782036040890152611655565b91466060870152306080870152600060a087015285830360c0870152519182815201929160005b8281106106b757505050500390f35b8351855286955093810193928101926001016106a8565b507fa16a46d94261c7517cc8ff89f61c0ce93598e3c849801011dee649a6a557d1015415610612565b34610152576020366003190112610152576001600160a01b03610718611741565b166000527f5ab42ced628888259c08ac98db1eb0cf702fc1501344311d8b100cd1bfe4bb006020526020604060002054604051908152f35b3461015257600036600319011261015257610769611b6c565b7f9016d09d72d40fdae2fd8ceac6b6234c7706214fd39c1cd1e609a0528c19930080546001600160a01b031981169091556000906001600160a01b03167f8be0079c531659141344cd1fd0a4f28419497f9722a3daafe3b4186f6b6457e08280a3005b34610152576020366003190112610152576001600160a01b036107ed611741565b16600052600080516020611ec98339815191526020526020604060002054604051908152f35b34610152576000366003190112610152577f00000000000000000000000000000000000000000000000000000000000000006001600160a01b0316300361087e5760206040517f360894a13ba1a3210667c828492db98dca3e2076cc3735a920a3ca505d382bbc8152f35b60405163703e46dd60e11b8152600490fd5b6040366003190112610152576108a4611741565b6024356001600160401b0381116101525736602382011215610152576108d49036906024816004013591016116ec565b906001600160a01b037f00000000000000000000000000000000000000000000000000000000000000008116308114908115610a90575b5061087e57610918611b6c565b6040516352d1902d60e01b8152908216916020918281600481875afa60009181610a61575b5061095b57604051634c9c8ce360e01b815260048101859052602490fd5b9284937f360894a13ba1a3210667c828492db98dca3e2076cc3735a920a3ca505d382bbc90818103610a495750823b15610a305780546001600160a01b03191682179055604051907fbc7cd75a20ee27fd9adebab32041f755214dbc6bffa90cc0225b39da2e5c2d3b600080a2835115610a165750600080848461015096519101845af4903d15610a0d573d6109f0816116d1565b906109fe60405192836116b0565b8152600081943d92013e611e65565b60609250611e65565b9250505034610a2157005b63b398979f60e01b8152600490fd5b604051634c9c8ce360e01b815260048101839052602490fd5b60249060405190632a87526960e21b82526004820152fd5b9091508381813d8311610a89575b610a7981836116b0565b810103126101525751908661093d565b503d610a6f565b9050817f360894a13ba1a3210667c828492db98dca3e2076cc3735a920a3ca505d382bbc541614158461090b565b3461015257604036600319011261015257610ad7611741565b600054602435916001600160a01b0391821633036101525716908115610152578015610152577f52c63247e1f47db19d5ce0460030c497f067ca4cebf71ba98eeadabe20bace02805490828201809211610b7b576000927fddf252ad1be2c89b69c2b068fc378daa952ba7f163c4a11628f55a4df523b3ef9260209255848452600080516020611ec9833981519152825260408420818154019055604051908152a3005b634e487b7160e01b600052601160045260246000fd5b34610152576000366003190112610152576020610bac611c2c565b604051908152f35b3461015257600036600319011261015257602060405160128152f35b346101525760003660031901126101525761039a604051610bf081611695565b60168152755570677261646564204d6f636b45524332302076372160501b6020820152604051918291602083526020830190611655565b3461015257606036600319011261015257610c40611741565b610c48611757565b60443590610c558361192e565b33600052602052604060002054926000198410610c77575b6103c49350611a7e565b828410610ce6576001600160a01b03811615610ccd573315610cb457826103c494610ca18361192e565b3360005260205203604060002055610c6d565b604051634a1406b160e11b815260006004820152602490fd5b60405163e602df0560e01b815260006004820152602490fd5b604051637dc7a0d960e11b81523360048201526024810185905260448101849052606490fd5b346101525760003660031901126101525760207f52c63247e1f47db19d5ce0460030c497f067ca4cebf71ba98eeadabe20bace0254604051908152f35b34610152576040366003190112610152576103c4610d65611741565b6024359033611bce565b34610152576060366003190112610152576004356001600160401b03811161015257610d9f903690600401611723565b6024356001600160401b03811161015257610dbe903690600401611723565b906044356001600160a01b038116900361015257600080516020611f69833981519152546001600160401b0381168015908161157a575b6001149081611570575b159081611567575b506115555760016001600160401b0319821617600080516020611f698339815191525560ff8160401c1615611528575b610e3f611b9f565b610e47611b9f565b81516001600160401b038111610326577f52c63247e1f47db19d5ce0460030c497f067ca4cebf71ba98eeadabe20bace0390610e83825461176d565b601f81116114c4575b50806020601f821160011461144357600091611438575b508160011b916000199060031b1c19161790555b82516001600160401b03811161032657610edf600080516020611f098339815191525461176d565b601f81116113be575b506020601f82116001146113325781929394600092611327575b50508160011b916000199060031b1c191617600080516020611f09833981519152555b610f2d611b9f565b60405190610f3a82611695565b60018252603160f81b6020830152610f50611b9f565b82516001600160401b03811161032657610f78600080516020611ee98339815191525461176d565b601f81116112ad575b506020601f82116001146112215781929394600092611216575b50508160011b916000199060031b1c191617600080516020611ee9833981519152555b8151916001600160401b038311610326577fa16a46d94261c7517cc8ff89f61c0ce93598e3c849801011dee649a6a557d10390610ffb825461176d565b601f81116111b2575b50602090601f851160011461112c5760ff949160009183611121575b50508160011b916000199060031b1c19161790555b60007fa16a46d94261c7517cc8ff89f61c0ce93598e3c849801011dee649a6a557d1005560007fa16a46d94261c7517cc8ff89f61c0ce93598e3c849801011dee649a6a557d10155611085611b9f565b61108d611b9f565b6110986044356119f8565b6110a0611b9f565b600080546001600160a01b0319166044356001600160a01b031617905560401c16156110c857005b68ff000000000000000019600080516020611f698339815191525416600080516020611f69833981519152557fc7f505b2f371ae2175ee4913f4499e1f2633a7b5936321eed1cdaeb6115181d2602060405160018152a1005b015190508580611020565b90601f19851691836000527f5f9ce34815f8e11431c7bb75a8e6886a91478f7ffc1dbb0a98dc240fddd76b759260005b81811061119a575091600193918760ff989410611181575b505050811b019055611035565b015160001960f88460031b161c19169055858080611174565b9293602060018192878601518155019501930161115c565b826000527f5f9ce34815f8e11431c7bb75a8e6886a91478f7ffc1dbb0a98dc240fddd76b75601f860160051c8101916020871061120c575b601f0160051c01905b8181106112005750611004565b600081556001016111f3565b90915081906111ea565b015190508480610f9b565b601f19821690600080516020611ee9833981519152600052600080516020611f298339815191529160005b8181106112955750958360019596971061127c575b505050811b01600080516020611ee983398151915255610fbe565b015160001960f88460031b161c19169055848080611261565b9192602060018192868b01518155019401920161124c565b600080516020611ee9833981519152600052601f820160051c600080516020611f29833981519152019060208310611311575b601f0160051c600080516020611f2983398151915201905b8181106113055750610f81565b600081556001016112f8565b600080516020611f2983398151915291506112e0565b015190508480610f02565b601f19821690600080516020611f09833981519152600052600080516020611f498339815191529160005b8181106113a65750958360019596971061138d575b505050811b01600080516020611f0983398151915255610f25565b015160001960f88460031b161c19169055848080611372565b9192602060018192868b01518155019401920161135d565b600080516020611f09833981519152600052601f820160051c600080516020611f49833981519152019060208310611422575b601f0160051c600080516020611f4983398151915201905b8181106114165750610ee8565b60008155600101611409565b600080516020611f4983398151915291506113f1565b905084015186610ea3565b60008481527f2ae08a8e29253f69ac5d979a101956ab8f8d9d7ded63fa7a83b16fc47648eab09250601f198416905b8181106114ac57509083600194939210611493575b5050811b019055610eb7565b86015160001960f88460031b161c191690558680611487565b9192602060018192868b015181550194019201611472565b826000527f2ae08a8e29253f69ac5d979a101956ab8f8d9d7ded63fa7a83b16fc47648eab0601f830160051c8101916020841061151e575b601f0160051c01905b8181106115125750610e8c565b60008155600101611505565b90915081906114fc565b68ffffffffffffffffff1981166801000000000000000117600080516020611f6983398151915255610e37565b60405163f92ee8a960e01b8152600490fd5b90501584610e07565b303b159150610dff565b604083901c60ff16159150610df5565b34610152576000366003190112610152577f52c63247e1f47db19d5ce0460030c497f067ca4cebf71ba98eeadabe20bace0380548260006115ca8361176d565b92838352602094600191866001821691826000146105895750506001146115f957505061052b925003836116b0565b8592506000527f2ae08a8e29253f69ac5d979a101956ab8f8d9d7ded63fa7a83b16fc47648eab0906000915b85831061163d57505061052b9350820101858061051d565b80548389018501528794508693909201918101611625565b919082519283825260005b848110611681575050826000602080949584010152601f8019910116010190565b602081830181015184830182015201611660565b604081019081106001600160401b0382111761032657604052565b90601f801991011681019081106001600160401b0382111761032657604052565b6001600160401b03811161032657601f01601f191660200190565b9291926116f8826116d1565b9161170660405193846116b0565b829481845281830111610152578281602093846000960137010152565b9080601f830112156101525781602061173e933591016116ec565b90565b600435906001600160a01b038216820361015257565b602435906001600160a01b038216820361015257565b90600182811c9216801561179d575b602083101461178757565b634e487b7160e01b600052602260045260246000fd5b91607f169161177c565b60405190600082600080516020611ee9833981519152918254926117ca8461176d565b8084529360209160019182811690811561184757506001146117f8575b5050506117f6925003836116b0565b565b6000908152600080516020611f298339815191529590935091905b82841061182f57506117f69450505081016020013880806117e7565b85548885018301529485019487945092810192611813565b92505050602092506117f694915060ff191682840152151560051b8201013880806117e7565b604051906000827fa16a46d94261c7517cc8ff89f61c0ce93598e3c849801011dee649a6a557d103918254926118a28461176d565b8084529360209160019182811690811561184757506001146118cd575050506117f6925003836116b0565b60009081527f5f9ce34815f8e11431c7bb75a8e6886a91478f7ffc1dbb0a98dc240fddd76b759590935091905b82841061191657506117f69450505081016020013880806117e7565b855488850183015294850194879450928101926118fa565b6001600160a01b031660009081527f52c63247e1f47db19d5ce0460030c497f067ca4cebf71ba98eeadabe20bace016020526040902090565b60008054604051631127a41d60e31b8152916001600160a01b03916020908490600490829086165afa9283156119eb5781936119a4575b50505090565b909192506020813d6020116119e3575b816119c1602093836116b0565b810103126119df575191821682036119dc575038808061199e565b80fd5b5080fd5b3d91506119b4565b50604051903d90823e3d90fd5b6001600160a01b03908116908115611a65577f9016d09d72d40fdae2fd8ceac6b6234c7706214fd39c1cd1e609a0528c19930080546001600160a01b031981168417909155167f8be0079c531659141344cd1fd0a4f28419497f9722a3daafe3b4186f6b6457e0600080a3565b604051631e4fbdf760e01b815260006004820152602490fd5b916001600160a01b03808416928315611b535716928315611b3a57600090838252600080516020611ec983398151915280602052604083205491848310611b07575082847fddf252ad1be2c89b69c2b068fc378daa952ba7f163c4a11628f55a4df523b3ef959360409388602097528652038282205586815220818154019055604051908152a3565b60405163391434e360e21b81526001600160a01b0391909116600482015260248101929092525060448101839052606490fd5b60405163ec442f0560e01b815260006004820152602490fd5b604051634b637e8f60e11b815260006004820152602490fd5b611b74611967565b336001600160a01b0390911603611b8757565b60405163118cdaa760e01b8152336004820152602490fd5b60ff600080516020611f698339815191525460401c1615611bbc57565b604051631afcd79f60e31b8152600490fd5b916001600160a01b03808416928315610ccd5716928315610cb4577f8c5be1e5ebec7d5bd14f71427d1e84f3dd0314c0f7b2291e5b200ac8c7c3b92591611c1660209261192e565b85600052825280604060002055604051908152a3565b611c34611db6565b611c3c611e20565b6040519060208201927f8b73c3c69bb8fe3d512ecc4cf759cc79239f7b179b0ffacaa9a75d522b39400f8452604083015260608201524660808201523060a082015260a0815260c081018181106001600160401b038211176103265760405251902090565b91907f7fffffffffffffffffffffffffffffff5d576e7357a4501ddfe92f46681b20a08411611d2557926020929160ff608095604051948552168484015260408301526060820152600092839182805260015afa15611d195780516001600160a01b03811615611d1057918190565b50809160019190565b604051903d90823e3d90fd5b50505060009160039190565b6004811015611da05780611d43575050565b60018103611d5d5760405163f645eedf60e01b8152600490fd5b60028103611d7e5760405163fce698f760e01b815260048101839052602490fd5b600314611d885750565b602490604051906335e2f38360e21b82526004820152fd5b634e487b7160e01b600052602160045260246000fd5b611dbe6117a7565b8051908115611dce576020012090565b50507fa16a46d94261c7517cc8ff89f61c0ce93598e3c849801011dee649a6a557d100548015611dfb5790565b507fc5d2460186f7233c927e7db2dcc703c0e500b653ca82273b7bfad8045d85a47090565b611e2861186d565b8051908115611e38576020012090565b50507fa16a46d94261c7517cc8ff89f61c0ce93598e3c849801011dee649a6a557d101548015611dfb5790565b90611e8c5750805115611e7a57805190602001fd5b60405163d6bda27560e01b8152600490fd5b81511580611ebf575b611e9d575090565b604051639996b31560e01b81526001600160a01b039091166004820152602490fd5b50803b15611e9556fe52c63247e1f47db19d5ce0460030c497f067ca4cebf71ba98eeadabe20bace00a16a46d94261c7517cc8ff89f61c0ce93598e3c849801011dee649a6a557d10252c63247e1f47db19d5ce0460030c497f067ca4cebf71ba98eeadabe20bace0442ad5d3e1f2e6e70edcf6d991b8a3023d3fca8047a131592f9edb9fd9b89d57d46a2803e59a4de4e7a4c574b1243f25977ac4c77d5a1a4a609b5394cebb4a2aaf0c57e16840df040f15088dc2f81fe391c3923bec73e23a9662efc9c229c6a00a264697066735822122071b2594505ad4925920323d3140f3cdeed848a3b366d0c919ea408b4c88c4e8664736f6c63430008180033",
  "linkReferences": {},
  "deployedLinkReferences": {}
}