{
  "_format": "hh-sol-artifact-1",
  "contractName": "MockERC20",
  "sourceName": "contracts/MockERC20.sol",
  "abi": [
    {
      "inputs": [
        {
          "internalType": "string",
          "name": "name",
          "type": "string"
        },
        {
          "internalType": "string",
          "name": "symbol",
          "type": "string"
        },
        {
          "internalType": "uint256",
          "name": "initialSupply",
          "type": "uint256"
        },
        {
          "internalType": "address",
          "name": "_bridge",
          "type": "address"
        }
      ],
      "stateMutability": "nonpayable",
      "type": "constructor"
    },
    {
      "inputs": [],
      "name": "ECDSAInvalidSignature",
      "type": "error"
    },
    {
      "inputs": [
        {
          "internalType": "uint256",
          "name": "length",
          "type": "uint256"
        }
      ],
      "name": "ECDSAInvalidSignatureLength",
      "type": "error"
    },
    {
      "inputs": [
        {
          "internalType": "bytes32",
          "name": "s",
          "type": "bytes32"
        }
      ],
      "name": "ECDSAInvalidSignatureS",
      "type": "error"
    },
    {
      "inputs": [
        {
          "internalType": "address",
          "name": "spender",
          "type": "address"
        },
        {
          "internalType": "uint256",
          "name": "allowance",
          "type": "uint256"
        },
        {
          "internalType": "uint256",
          "name": "needed",
          "type": "uint256"
        }
      ],
      "name": "ERC20InsufficientAllowance",
      "type": "error"
    },
    {
      "inputs": [
        {
          "internalType": "address",
          "name": "sender",
          "type": "address"
        },
        {
          "internalType": "uint256",
          "name": "balance",
          "type": "uint256"
        },
        {
          "internalType": "uint256",
          "name": "needed",
          "type": "uint256"
        }
      ],
      "name": "ERC20InsufficientBalance",
      "type": "error"
    },
    {
      "inputs": [
        {
          "internalType": "address",
          "name": "approver",
          "type": "address"
        }
      ],
      "name": "ERC20InvalidApprover",
      "type": "error"
    },
    {
      "inputs": [
        {
          "internalType": "address",
          "name": "receiver",
          "type": "address"
        }
      ],
      "name": "ERC20InvalidReceiver",
      "type": "error"
    },
    {
      "inputs": [
        {
          "internalType": "address",
          "name": "sender",
          "type": "address"
        }
      ],
      "name": "ERC20InvalidSender",
      "type": "error"
    },
    {
      "inputs": [
        {
          "internalType": "address",
          "name": "spender",
          "type": "address"
        }
      ],
      "name": "ERC20InvalidSpender",
      "type": "error"
    },
    {
      "inputs": [
        {
          "internalType": "uint256",
          "name": "deadline",
          "type": "uint256"
        }
      ],
      "name": "ERC2612ExpiredSignature",
      "type": "error"
    },
    {
      "inputs": [
        {
          "internalType": "address",
          "name": "signer",
          "type": "address"
        },
        {
          "internalType": "address",
          "name": "owner",
          "type": "address"
        }
      ],
      "name": "ERC2612InvalidSigner",
      "type": "error"
    },
    {
      "inputs": [
        {
          "internalType": "address",
          "name": "account",
          "type": "address"
        },
        {
          "internalType": "uint256",
          "name": "currentNonce",
          "type": "uint256"
        }
      ],
      "name": "InvalidAccountNonce",
      "type": "error"
    },
    {
      "inputs": [],
      "name": "InvalidShortString",
      "type": "error"
    },
    {
      "inputs": [
        {
          "internalType": "string",
          "name": "str",
          "type": "string"
        }
      ],
      "name": "StringTooLong",
      "type": "error"
    },
    {
      "anonymous": false,
      "inputs": [
        {
          "indexed": true,
          "internalType": "address",
          "name": "owner",
          "type": "address"
        },
        {
          "indexed": true,
          "internalType": "address",
          "name": "spender",
          "type": "address"
        },
        {
          "indexed": false,
          "internalType": "uint256",
          "name": "value",
          "type": "uint256"
        }
      ],
      "name": "Approval",
      "type": "event"
    },
    {
      "anonymous": false,
      "inputs": [],
      "name": "EIP712DomainChanged",
      "type": "event"
    },
    {
      "anonymous": false,
      "inputs": [
        {
          "indexed": true,
          "internalType": "address",
          "name": "from",
          "type": "address"
        },
        {
          "indexed": true,
          "internalType": "address",
          "name": "to",
          "type": "address"
        },
        {
          "indexed": false,
          "internalType": "uint256",
          "name": "value",
          "type": "uint256"
        }
      ],
      "name": "Transfer",
      "type": "event"
    },
    {
      "inputs": [],
      "name": "DOMAIN_SEPARATOR",
      "outputs": [
        {
          "internalType": "bytes32",
          "name": "",
          "type": "bytes32"
        }
      ],
      "stateMutability": "view",
      "type": "function"
    },
    {
      "inputs": [
        {
          "internalType": "address",
          "name": "owner",
          "type": "address"
        },
        {
          "internalType": "address",
          "name": "spender",
          "type": "address"
        }
      ],
      "name": "allowance",
      "outputs": [
        {
          "internalType": "uint256",
          "name": "",
          "type": "uint256"
        }
      ],
      "stateMutability": "view",
      "type": "function"
    },
    {
      "inputs": [
        {
          "internalType": "address",
          "name": "spender",
          "type": "address"
        },
        {
          "internalType": "uint256",
          "name": "value",
          "type": "uint256"
        }
      ],
      "name": "approve",
      "outputs": [
        {
          "internalType": "bool",
          "name": "",
          "type": "bool"
        }
      ],
      "stateMutability": "nonpayable",
      "type": "function"
    },
    {
      "inputs": [
        {
          "internalType": "address",
          "name": "account",
          "type": "address"
        }
      ],
      "name": "balanceOf",
      "outputs": [
        {
          "internalType": "uint256",
          "name": "",
          "type": "uint256"
        }
      ],
      "stateMutability": "view",
      "type": "function"
    },
    {
      "inputs": [],
      "name": "bridge",
      "outputs": [
        {
          "internalType": "address",
          "name": "",
          "type": "address"
        }
      ],
      "stateMutability": "view",
      "type": "function"
    },
    {
      "inputs": [
        {
          "internalType": "address",
          "name": "from",
          "type": "address"
        },
        {
          "internalType": "uint256",
          "name": "amount",
          "type": "uint256"
        }
      ],
      "name": "burn",
      "outputs": [],
      "stateMutability": "nonpayable",
      "type": "function"
    },
    {
      "inputs": [],
      "name": "decimals",
      "outputs": [
        {
          "internalType": "uint8",
          "name": "",
          "type": "uint8"
        }
      ],
      "stateMutability": "view",
      "type": "function"
    },
    {
      "inputs": [],
      "name": "eip712Domain",
      "outputs": [
        {
          "internalType": "bytes1",
          "name": "fields",
          "type": "bytes1"
        },
        {
          "internalType": "string",
          "name": "name",
          "type": "string"
        },
        {
          "internalType": "string",
          "name": "version",
          "type": "string"
        },
        {
          "internalType": "uint256",
          "name": "chainId",
          "type": "uint256"
        },
        {
          "internalType": "address",
          "name": "verifyingContract",
          "type": "address"
        },
        {
          "internalType": "bytes32",
          "name": "salt",
          "type": "bytes32"
        },
        {
          "internalType": "uint256[]",
          "name": "extensions",
          "type": "uint256[]"
        }
      ],
      "stateMutability": "view",
      "type": "function"
    },
    {
      "inputs": [
        {
          "internalType": "address",
          "name": "to",
          "type": "address"
        },
        {
          "internalType": "uint256",
          "name": "amount",
          "type": "uint256"
        }
      ],
      "name": "mint",
      "outputs": [],
      "stateMutability": "nonpayable",
      "type": "function"
    },
    {
      "inputs": [],
      "name": "name",
      "outputs": [
        {
          "internalType": "string",
          "name": "",
          "type": "string"
        }
      ],
      "stateMutability": "view",
      "type": "function"
    },
    {
      "inputs": [
        {
          "internalType": "address",
          "name": "owner",
          "type": "address"
        }
      ],
      "name": "nonces",
      "outputs": [
        {
          "internalType": "uint256",
          "name": "",
          "type": "uint256"
        }
      ],
      "stateMutability": "view",
      "type": "function"
    },
    {
      "inputs": [
        {
          "internalType": "address",
          "name": "owner",
          "type": "address"
        },
        {
          "internalType": "address",
          "name": "spender",
          "type": "address"
        },
        {
          "internalType": "uint256",
          "name": "value",
          "type": "uint256"
        },
        {
          "internalType": "uint256",
          "name": "deadline",
          "type": "uint256"
        },
        {
          "internalType": "uint8",
          "name": "v",
          "type": "uint8"
        },
        {
          "internalType": "bytes32",
          "name": "r",
          "type": "bytes32"
        },
        {
          "internalType": "bytes32",
          "name": "s",
          "type": "bytes32"
        }
      ],
      "name": "permit",
      "outputs": [],
      "stateMutability": "nonpayable",
      "type": "function"
    },
    {
      "inputs": [],
      "name": "symbol",
      "outputs": [
        {
          "internalType": "string",
          "name": "",
          "type": "string"
        }
      ],
      "stateMutability": "view",
      "type": "function"
    },
    {
      "inputs": [],
      "name": "totalSupply",
      "outputs": [
        {
          "internalType": "uint256",
          "name": "",
          "type": "uint256"
        }
      ],
      "stateMutability": "view",
      "type": "function"
    },
    {
      "inputs": [
        {
          "internalType": "address",
          "name": "to",
          "type": "address"
        },
        {
          "internalType": "uint256",
          "name": "value",
          "type": "uint256"
        }
      ],
      "name": "transfer",
      "outputs": [
        {
          "internalType": "bool",
          "name": "",
          "type": "bool"
        }
      ],
      "stateMutability": "nonpayable",
      "type": "function"
    },
    {
      "inputs": [
        {
          "internalType": "address",
          "name": "from",
          "type": "address"
        },
        {
          "internalType": "address",
          "name": "to",
          "type": "address"
        },
        {
          "internalType": "uint256",
          "name": "value",
          "type": "uint256"
        }
      ],
      "name": "transferFrom",
      "outputs": [
        {
          "internalType": "bool",
          "name": "",
          "type": "bool"
        }
      ],
      "stateMutability": "nonpayable",
      "type": "function"
    }
  ],
  "bytecode": "0x61016060409080825234620004e557620019418038038091620000238285620004ea565b8339810190608081830312620004e55780516001600160401b039390848111620004e557836200005591840162000533565b916020938482015190868211620004e5576200007391830162000533565b828201516060909201516001600160a01b038116959190869003620004e55783519684880188811082821117620003e457855260019687895283890197603160f81b89528751838111620003e45760038054918383811c93168015620004da575b88841014620004c457601f9283811162000479575b5080888482116001146200040657600091620003fa575b5060001982841b1c191690841b1781555b855191858311620003e45760049687548581811c91168015620003d9575b8a821014620003c45782811162000379575b50889184116001146200030e5793839491849260009562000302575b50501b92600019911b1c19161783555b62000178876200058e565b976101209889526200018a8a62000733565b97610140988952858151910120998a60e0525190209061010099828b524660a052875192868401917f8b73c3c69bb8fe3d512ecc4cf759cc79239f7b179b0ffacaa9a75d522b39400f83528985015260608401524660808401523060a084015260a0835260c083019383851090851117620002ed57838852825190206080523060c052600880546001600160a01b0319169190911790553315620002d657505060025490838201809211620002c157506000917fddf252ad1be2c89b69c2b068fc378daa952ba7f163c4a11628f55a4df523b3ef9160025533835282815284832084815401905584519384523393a351916110b693846200088b853960805184610c22015260a05184610cee015260c05184610bec015260e05184610c7101525183610c97015251826105250152518161054f0152f35b601190634e487b7160e01b6000525260246000fd5b63ec442f0560e01b8252600060c490910152602490fd5b604185634e487b7160e01b6000525260246000fd5b0151935038806200015d565b9190601f1984169288600052848a6000209460005b8c8983831062000361575050501062000346575b50505050811b0183556200016d565b01519060f884600019921b161c191690553880808062000337565b86860151895590970196948501948893500162000323565b88600052896000208380870160051c8201928c8810620003ba575b0160051c019086905b828110620003ad57505062000141565b600081550186906200039d565b9250819262000394565b602289634e487b7160e01b6000525260246000fd5b90607f16906200012f565b634e487b7160e01b600052604160045260246000fd5b90508b01513862000100565b8592508c90601f198316856000528b600020928c6000915b838310620004575750505083116200043e575b5050811b01815562000111565b8d015160001983861b60f8161c19169055388062000431565b948482949597989293960151815501940192019087949392918f8d906200041e565b82600052886000208480840160051c8201928b8510620004ba575b0160051c019085905b828110620004ad575050620000e9565b600081550185906200049d565b9250819262000494565b634e487b7160e01b600052602260045260246000fd5b92607f1692620000d4565b600080fd5b601f909101601f19168101906001600160401b03821190821017620003e457604052565b60005b838110620005225750506000910152565b818101518382015260200162000511565b81601f82011215620004e55780516001600160401b038111620003e457604051926200056a601f8301601f191660200185620004ea565b81845260208284010111620004e5576200058b91602080850191016200050e565b90565b805160209190828110156200060e575090601f825111620005cc5780825192015190808310620005bd57501790565b82600019910360031b1b161790565b604490620006009260405193849263305a27a960e01b8452806004850152825192839182602487015286860191016200050e565b601f01601f19168101030190fd5b6001600160401b038111620003e4576005928354926001938481811c9116801562000728575b83821014620004c457601f8111620006f1575b5081601f84116001146200068757509282939183926000946200067b575b50501b916000199060031b1c191617905560ff90565b01519250388062000665565b919083601f1981168760005284600020946000905b88838310620006d65750505010620006bc575b505050811b01905560ff90565b015160001960f88460031b161c19169055388080620006af565b8587015188559096019594850194879350908101906200069c565b8560005284601f846000209201871c820191601f8601881c015b8281106200071b57505062000647565b600081550185906200070b565b90607f169062000634565b805160209081811015620007605750601f825111620005cc5780825192015190808310620005bd57501790565b906001600160401b038211620003e457600654926001938481811c911680156200087f575b83821014620004c457601f811162000845575b5081601f8411600114620007d95750928293918392600094620007cd575b50501b916000199060031b1c19161760065560ff90565b015192503880620007b6565b919083601f198116600660005284600020946000905b888383106200082a575050501062000810575b505050811b0160065560ff90565b015160001960f88460031b161c1916905538808062000802565b858701518855909601959485019487935090810190620007ef565b600660005284601f84600020920160051c820191601f860160051c015b8281106200087257505062000798565b6000815501859062000862565b90607f16906200078556fe608060408181526004918236101561001657600080fd5b600092833560e01c91826306fdde031461091557508163095ea7b3146108eb57816318160ddd146108cc57816323b872dd146107d5578163313ce567146107b95781633644e5151461079557816340c10f191461069c57816370a08231146106655781637ecebe001461062d57816384b0196e1461050d57816395d89b41146104195781639dc29fac146102e1578163a9059cbb146102b0578163d505accf1461014857508063dd62ed3e146101005763e78cea92146100d557600080fd5b346100fc57816003193601126100fc5760085490516001600160a01b039091168152602090f35b5080fd5b50346100fc57806003193601126100fc578060209261011d610a2d565b610125610a48565b6001600160a01b0391821683526001865283832091168252845220549051908152f35b839150346100fc5760e03660031901126100fc57610164610a2d565b61016c610a48565b906044359260643560843560ff811681036102ac578142116102955760018060a01b0390818516928389526007602052898920908154916001830190558a519060208201927f6e71edae12b1b97f4d1f60370fef10105fa2faae0126114a169c64845d6126c98452868d840152858a1660608401528a608084015260a083015260c082015260c0815260e0810181811067ffffffffffffffff821117610282578b525190206102509161024791610221610be9565b908c519161190160f01b83526002830152602282015260c43591604260a4359220610f6b565b90929192610ffb565b168181036102675786610264878787610d14565b80f35b87516325c0072360e11b815292830152602482015260449150fd5b634e487b7160e01b8b526041875260248bfd5b875163313c898160e11b8152808401839052602490fd5b8680fd5b5050346100fc57806003193601126100fc576020906102da6102d0610a2d565b6024359033610b0b565b5160018152f35b8383346100fc57806003193601126100fc576102fb610a2d565b906024359060018060a01b03948560085416958633036103de5782518097638da5cb5b60e01b8252818460209a8b935afa90811561040f5790829188916103e2575b501632036103de5784169384156103de5783156103de5784865285875282862054918483106103aa57505091849591817fddf252ad1be2c89b69c2b068fc378daa952ba7f163c4a11628f55a4df523b3ef948688528785520381872055816002540360025551908152a380f35b835163391434e360e21b81526001600160a01b03909216908201908152602081018390526040810185905281906060010390fd5b8580fd5b6104029150893d8b11610408575b6103fa8183610aca565b810190610aec565b8961033d565b503d6103f0565b84513d89823e3d90fd5b91905034610509578260031936011261050957805183819490845461043d81610a5e565b91828552602096600192886001821691826000146104df575050600114610484575b858861048089610471848a0385610aca565b519282849384528301906109ed565b0390f35b815286935091907f8a35acfbc15ff81a39ae7d344fd709f28e8600b4aa8c65c6b64bfe7fe36bd19b5b8284106104c757505050820101816104716104803861045f565b8054848a0186015288955087949093019281016104ad565b60ff19168882015294151560051b870190940194508593506104719250610480915038905061045f565b8280fd5b919050346105095782600319360112610509576105497f0000000000000000000000000000000000000000000000000000000000000000610da7565b926105737f0000000000000000000000000000000000000000000000000000000000000000610eab565b90825192602092602085019585871067ffffffffffffffff88111761061a57509260206105d08388966105c3998b9996528686528151998a99600f60f81b8b5260e0868c015260e08b01906109ed565b91898303908a01526109ed565b924660608801523060808801528460a088015286840360c088015251928381520193925b82811061060357505050500390f35b8351855286955093810193928101926001016105f4565b634e487b7160e01b845260419052602483fd5b5050346100fc5760203660031901126100fc5760209181906001600160a01b03610655610a2d565b1681526007845220549051908152f35b5050346100fc5760203660031901126100fc5760209181906001600160a01b0361068d610a2d565b16815280845220549051908152f35b919050346105095780600319360112610509576106b7610a2d565b60085460243592916001600160a01b03918216338190036102ac5760208691855192838092638da5cb5b60e01b82525afa90811561040f579083918891610776575b501632036103de5716928315610772578215610772576002549083820180921161075f575084927fddf252ad1be2c89b69c2b068fc378daa952ba7f163c4a11628f55a4df523b3ef9260209260025585855284835280852082815401905551908152a380f35b634e487b7160e01b865260119052602485fd5b8480fd5b61078f915060203d602011610408576103fa8183610aca565b386106f9565b5050346100fc57816003193601126100fc576020906107b2610be9565b9051908152f35b5050346100fc57816003193601126100fc576020905160128152f35b905082346108c95760603660031901126108c9576107f1610a2d565b6107f9610a48565b916044359360018060a01b038316808352600160205286832033845260205286832054916000198310610835575b6020886102da898989610b0b565b86831061089d57811561088657331561086f575082526001602090815286832033845281529186902090859003905582906102da87610827565b8751634a1406b160e11b8152908101849052602490fd5b875163e602df0560e01b8152908101849052602490fd5b8751637dc7a0d960e11b8152339181019182526020820193909352604081018790528291506060010390fd5b80fd5b5050346100fc57816003193601126100fc576020906002549051908152f35b5050346100fc57806003193601126100fc576020906102da61090b610a2d565b6024359033610d14565b8484346100fc57816003193601126100fc57828260035461093581610a5e565b90818452602095600191876001821691826000146109c657505060011461096a575b5050506104809291610471910385610aca565b9190869350600383527fc2575a0e9e593c00f959f8c92f12db2869c3395a3b0502d05e2516446f71f85b5b8284106109ae5750505082010181610471610480610957565b8054848a018601528895508794909301928101610995565b60ff19168782015293151560051b8601909301935084925061047191506104809050610957565b919082519283825260005b848110610a19575050826000602080949584010152601f8019910116010190565b6020818301810151848301820152016109f8565b600435906001600160a01b0382168203610a4357565b600080fd5b602435906001600160a01b0382168203610a4357565b90600182811c92168015610a8e575b6020831014610a7857565b634e487b7160e01b600052602260045260246000fd5b91607f1691610a6d565b6040810190811067ffffffffffffffff821117610ab457604052565b634e487b7160e01b600052604160045260246000fd5b90601f8019910116810190811067ffffffffffffffff821117610ab457604052565b90816020910312610a4357516001600160a01b0381168103610a435790565b916001600160a01b03808416928315610bd05716928315610bb75760009083825281602052604082205490838210610b85575091604082827fddf252ad1be2c89b69c2b068fc378daa952ba7f163c4a11628f55a4df523b3ef958760209652828652038282205586815220818154019055604051908152a3565b60405163391434e360e21b81526001600160a01b03919091166004820152602481019190915260448101839052606490fd5b60405163ec442f0560e01b815260006004820152602490fd5b604051634b637e8f60e11b815260006004820152602490fd5b307f00000000000000000000000000000000000000000000000000000000000000006001600160a01b03161480610ceb575b15610c44577f000000000000000000000000000000000000000000000000000000000000000090565b60405160208101907f8b73c3c69bb8fe3d512ecc4cf759cc79239f7b179b0ffacaa9a75d522b39400f82527f000000000000000000000000000000000000000000000000000000000000000060408201527f000000000000000000000000000000000000000000000000000000000000000060608201524660808201523060a082015260a0815260c0810181811067ffffffffffffffff821117610ab45760405251902090565b507f00000000000000000000000000000000000000000000000000000000000000004614610c1b565b6001600160a01b03908116918215610d8e5716918215610d755760207f8c5be1e5ebec7d5bd14f71427d1e84f3dd0314c0f7b2291e5b200ac8c7c3b925918360005260018252604060002085600052825280604060002055604051908152a3565b604051634a1406b160e11b815260006004820152602490fd5b60405163e602df0560e01b815260006004820152602490fd5b60ff8114610de55760ff811690601f8211610dd35760405191610dc983610a98565b8252602082015290565b604051632cd44ac360e21b8152600490fd5b50604051600554816000610df883610a5e565b80835292602090600190818116908115610e875750600114610e26575b5050610e2392500382610aca565b90565b91509260056000527f036b6384b5eca791c62761152d0c79bb0604c104a5fb6f4eb0703f3154bb3db0936000925b828410610e6f5750610e239450505081016020013880610e15565b85548785018301529485019486945092810192610e54565b91505060209250610e2394915060ff191682840152151560051b8201013880610e15565b60ff8114610ecd5760ff811690601f8211610dd35760405191610dc983610a98565b50604051600654816000610ee083610a5e565b80835292602090600190818116908115610e875750600114610f0a575050610e2392500382610aca565b91509260066000527ff652222313e28459528d920b65115c16c04f3efc82aaedc97be59f3f377c0d3f936000925b828410610f535750610e239450505081016020013880610e15565b85548785018301529485019486945092810192610f38565b91907f7fffffffffffffffffffffffffffffff5d576e7357a4501ddfe92f46681b20a08411610fef57926020929160ff608095604051948552168484015260408301526060820152600092839182805260015afa15610fe35780516001600160a01b03811615610fda57918190565b50809160019190565b604051903d90823e3d90fd5b50505060009160039190565b600481101561106a578061100d575050565b600181036110275760405163f645eedf60e01b8152600490fd5b600281036110485760405163fce698f760e01b815260048101839052602490fd5b6003146110525750565b602490604051906335e2f38360e21b82526004820152fd5b634e487b7160e01b600052602160045260246000fdfea264697066735822122034f6c550f547d5d7a92cba88984981da49217e4045d47f05f325f167a6dd6b3864736f6c63430008180033",
  "linkReferences": {},
  "deployedLinkReferences": {}
}