{
  "_format": "hh-sol-artifact-1",
  "contractName": "MockERC20",
  "sourceName": "contracts/MockERC20.sol",
  "abi": [
    {
      "inputs": [
        {
          "internalType": "string",
          "name": "name",
          "type": "string"
        },
        {
          "internalType": "string",
          "name": "symbol",
          "type": "string"
        },
        {
          "internalType": "uint256",
          "name": "initialSupply",
          "type": "uint256"
        },
        {
          "internalType": "address",
          "name": "_bridge",
          "type": "address"
        }
      ],
      "stateMutability": "nonpayable",
      "type": "constructor"
    },
    {
      "inputs": [],
      "name": "ECDSAInvalidSignature",
      "type": "error"
    },
    {
      "inputs": [
        {
          "internalType": "uint256",
          "name": "length",
          "type": "uint256"
        }
      ],
      "name": "ECDSAInvalidSignatureLength",
      "type": "error"
    },
    {
      "inputs": [
        {
          "internalType": "bytes32",
          "name": "s",
          "type": "bytes32"
        }
      ],
      "name": "ECDSAInvalidSignatureS",
      "type": "error"
    },
    {
      "inputs": [
        {
          "internalType": "address",
          "name": "spender",
          "type": "address"
        },
        {
          "internalType": "uint256",
          "name": "allowance",
          "type": "uint256"
        },
        {
          "internalType": "uint256",
          "name": "needed",
          "type": "uint256"
        }
      ],
      "name": "ERC20InsufficientAllowance",
      "type": "error"
    },
    {
      "inputs": [
        {
          "internalType": "address",
          "name": "sender",
          "type": "address"
        },
        {
          "internalType": "uint256",
          "name": "balance",
          "type": "uint256"
        },
        {
          "internalType": "uint256",
          "name": "needed",
          "type": "uint256"
        }
      ],
      "name": "ERC20InsufficientBalance",
      "type": "error"
    },
    {
      "inputs": [
        {
          "internalType": "address",
          "name": "approver",
          "type": "address"
        }
      ],
      "name": "ERC20InvalidApprover",
      "type": "error"
    },
    {
      "inputs": [
        {
          "internalType": "address",
          "name": "receiver",
          "type": "address"
        }
      ],
      "name": "ERC20InvalidReceiver",
      "type": "error"
    },
    {
      "inputs": [
        {
          "internalType": "address",
          "name": "sender",
          "type": "address"
        }
      ],
      "name": "ERC20InvalidSender",
      "type": "error"
    },
    {
      "inputs": [
        {
          "internalType": "address",
          "name": "spender",
          "type": "address"
        }
      ],
      "name": "ERC20InvalidSpender",
      "type": "error"
    },
    {
      "inputs": [
        {
          "internalType": "uint256",
          "name": "deadline",
          "type": "uint256"
        }
      ],
      "name": "ERC2612ExpiredSignature",
      "type": "error"
    },
    {
      "inputs": [
        {
          "internalType": "address",
          "name": "signer",
          "type": "address"
        },
        {
          "internalType": "address",
          "name": "owner",
          "type": "address"
        }
      ],
      "name": "ERC2612InvalidSigner",
      "type": "error"
    },
    {
      "inputs": [
        {
          "internalType": "address",
          "name": "account",
          "type": "address"
        },
        {
          "internalType": "uint256",
          "name": "currentNonce",
          "type": "uint256"
        }
      ],
      "name": "InvalidAccountNonce",
      "type": "error"
    },
    {
      "inputs": [],
      "name": "InvalidShortString",
      "type": "error"
    },
    {
      "inputs": [
        {
          "internalType": "string",
          "name": "str",
          "type": "string"
        }
      ],
      "name": "StringTooLong",
      "type": "error"
    },
    {
      "anonymous": false,
      "inputs": [
        {
          "indexed": true,
          "internalType": "address",
          "name": "owner",
          "type": "address"
        },
        {
          "indexed": true,
          "internalType": "address",
          "name": "spender",
          "type": "address"
        },
        {
          "indexed": false,
          "internalType": "uint256",
          "name": "value",
          "type": "uint256"
        }
      ],
      "name": "Approval",
      "type": "event"
    },
    {
      "anonymous": false,
      "inputs": [],
      "name": "EIP712DomainChanged",
      "type": "event"
    },
    {
      "anonymous": false,
      "inputs": [
        {
          "indexed": true,
          "internalType": "address",
          "name": "from",
          "type": "address"
        },
        {
          "indexed": true,
          "internalType": "address",
          "name": "to",
          "type": "address"
        },
        {
          "indexed": false,
          "internalType": "uint256",
          "name": "value",
          "type": "uint256"
        }
      ],
      "name": "Transfer",
      "type": "event"
    },
    {
      "inputs": [],
      "name": "DOMAIN_SEPARATOR",
      "outputs": [
        {
          "internalType": "bytes32",
          "name": "",
          "type": "bytes32"
        }
      ],
      "stateMutability": "view",
      "type": "function"
    },
    {
      "inputs": [
        {
          "internalType": "address",
          "name": "owner",
          "type": "address"
        },
        {
          "internalType": "address",
          "name": "spender",
          "type": "address"
        }
      ],
      "name": "allowance",
      "outputs": [
        {
          "internalType": "uint256",
          "name": "",
          "type": "uint256"
        }
      ],
      "stateMutability": "view",
      "type": "function"
    },
    {
      "inputs": [
        {
          "internalType": "address",
          "name": "spender",
          "type": "address"
        },
        {
          "internalType": "uint256",
          "name": "value",
          "type": "uint256"
        }
      ],
      "name": "approve",
      "outputs": [
        {
          "internalType": "bool",
          "name": "",
          "type": "bool"
        }
      ],
      "stateMutability": "nonpayable",
      "type": "function"
    },
    {
      "inputs": [
        {
          "internalType": "address",
          "name": "account",
          "type": "address"
        }
      ],
      "name": "balanceOf",
      "outputs": [
        {
          "internalType": "uint256",
          "name": "",
          "type": "uint256"
        }
      ],
      "stateMutability": "view",
      "type": "function"
    },
    {
      "inputs": [],
      "name": "bridge",
      "outputs": [
        {
          "internalType": "address",
          "name": "",
          "type": "address"
        }
      ],
      "stateMutability": "view",
      "type": "function"
    },
    {
      "inputs": [
        {
          "internalType": "address",
          "name": "from",
          "type": "address"
        },
        {
          "internalType": "uint256",
          "name": "amount",
          "type": "uint256"
        }
      ],
      "name": "burn",
      "outputs": [],
      "stateMutability": "nonpayable",
      "type": "function"
    },
    {
      "inputs": [],
      "name": "decimals",
      "outputs": [
        {
          "internalType": "uint8",
          "name": "",
          "type": "uint8"
        }
      ],
      "stateMutability": "view",
      "type": "function"
    },
    {
      "inputs": [],
      "name": "eip712Domain",
      "outputs": [
        {
          "internalType": "bytes1",
          "name": "fields",
          "type": "bytes1"
        },
        {
          "internalType": "string",
          "name": "name",
          "type": "string"
        },
        {
          "internalType": "string",
          "name": "version",
          "type": "string"
        },
        {
          "internalType": "uint256",
          "name": "chainId",
          "type": "uint256"
        },
        {
          "internalType": "address",
          "name": "verifyingContract",
          "type": "address"
        },
        {
          "internalType": "bytes32",
          "name": "salt",
          "type": "bytes32"
        },
        {
          "internalType": "uint256[]",
          "name": "extensions",
          "type": "uint256[]"
        }
      ],
      "stateMutability": "view",
      "type": "function"
    },
    {
      "inputs": [
        {
          "internalType": "address",
          "name": "to",
          "type": "address"
        },
        {
          "internalType": "uint256",
          "name": "amount",
          "type": "uint256"
        }
      ],
      "name": "mint",
      "outputs": [],
      "stateMutability": "nonpayable",
      "type": "function"
    },
    {
      "inputs": [],
      "name": "name",
      "outputs": [
        {
          "internalType": "string",
          "name": "",
          "type": "string"
        }
      ],
      "stateMutability": "view",
      "type": "function"
    },
    {
      "inputs": [
        {
          "internalType": "address",
          "name": "owner",
          "type": "address"
        }
      ],
      "name": "nonces",
      "outputs": [
        {
          "internalType": "uint256",
          "name": "",
          "type": "uint256"
        }
      ],
      "stateMutability": "view",
      "type": "function"
    },
    {
      "inputs": [
        {
          "internalType": "address",
          "name": "owner",
          "type": "address"
        },
        {
          "internalType": "address",
          "name": "spender",
          "type": "address"
        },
        {
          "internalType": "uint256",
          "name": "value",
          "type": "uint256"
        },
        {
          "internalType": "uint256",
          "name": "deadline",
          "type": "uint256"
        },
        {
          "internalType": "uint8",
          "name": "v",
          "type": "uint8"
        },
        {
          "internalType": "bytes32",
          "name": "r",
          "type": "bytes32"
        },
        {
          "internalType": "bytes32",
          "name": "s",
          "type": "bytes32"
        }
      ],
      "name": "permit",
      "outputs": [],
      "stateMutability": "nonpayable",
      "type": "function"
    },
    {
      "inputs": [],
      "name": "symbol",
      "outputs": [
        {
          "internalType": "string",
          "name": "",
          "type": "string"
        }
      ],
      "stateMutability": "view",
      "type": "function"
    },
    {
      "inputs": [],
      "name": "totalSupply",
      "outputs": [
        {
          "internalType": "uint256",
          "name": "",
          "type": "uint256"
        }
      ],
      "stateMutability": "view",
      "type": "function"
    },
    {
      "inputs": [
        {
          "internalType": "address",
          "name": "to",
          "type": "address"
        },
        {
          "internalType": "uint256",
          "name": "value",
          "type": "uint256"
        }
      ],
      "name": "transfer",
      "outputs": [
        {
          "internalType": "bool",
          "name": "",
          "type": "bool"
        }
      ],
      "stateMutability": "nonpayable",
      "type": "function"
    },
    {
      "inputs": [
        {
          "internalType": "address",
          "name": "from",
          "type": "address"
        },
        {
          "internalType": "address",
          "name": "to",
          "type": "address"
        },
        {
          "internalType": "uint256",
          "name": "value",
          "type": "uint256"
        }
      ],
      "name": "transferFrom",
      "outputs": [
        {
          "internalType": "bool",
          "name": "",
          "type": "bool"
        }
      ],
      "stateMutability": "nonpayable",
      "type": "function"
    }
  ],
  "bytecode": "0x61016060409080825234620004e5576200186e8038038091620000238285620004ea565b8339810190608081830312620004e55780516001600160401b039390848111620004e557836200005591840162000533565b916020938482015190868211620004e5576200007391830162000533565b828201516060909201516001600160a01b038116959190869003620004e55783519684880188811082821117620003e457855260019687895283890197603160f81b89528751838111620003e45760038054918383811c93168015620004da575b88841014620004c457601f9283811162000479575b5080888482116001146200040657600091620003fa575b5060001982841b1c191690841b1781555b855191858311620003e45760049687548581811c91168015620003d9575b8a821014620003c45782811162000379575b50889184116001146200030e5793839491849260009562000302575b50501b92600019911b1c19161783555b62000178876200058e565b976101209889526200018a8a62000733565b97610140988952858151910120998a60e0525190209061010099828b524660a052875192868401917f8b73c3c69bb8fe3d512ecc4cf759cc79239f7b179b0ffacaa9a75d522b39400f83528985015260608401524660808401523060a084015260a0835260c083019383851090851117620002ed57838852825190206080523060c052600880546001600160a01b0319169190911790553315620002d657505060025490838201809211620002c157506000917fddf252ad1be2c89b69c2b068fc378daa952ba7f163c4a11628f55a4df523b3ef9160025533835282815284832084815401905584519384523393a35191610fe393846200088b853960805184610b4f015260a05184610c1b015260c05184610b19015260e05184610b9e01525183610bc4015251826104c1015251816104eb0152f35b601190634e487b7160e01b6000525260246000fd5b63ec442f0560e01b8252600060c490910152602490fd5b604185634e487b7160e01b6000525260246000fd5b0151935038806200015d565b9190601f1984169288600052848a6000209460005b8c8983831062000361575050501062000346575b50505050811b0183556200016d565b01519060f884600019921b161c191690553880808062000337565b86860151895590970196948501948893500162000323565b88600052896000208380870160051c8201928c8810620003ba575b0160051c019086905b828110620003ad57505062000141565b600081550186906200039d565b9250819262000394565b602289634e487b7160e01b6000525260246000fd5b90607f16906200012f565b634e487b7160e01b600052604160045260246000fd5b90508b01513862000100565b8592508c90601f198316856000528b600020928c6000915b838310620004575750505083116200043e575b5050811b01815562000111565b8d015160001983861b60f8161c19169055388062000431565b948482949597989293960151815501940192019087949392918f8d906200041e565b82600052886000208480840160051c8201928b8510620004ba575b0160051c019085905b828110620004ad575050620000e9565b600081550185906200049d565b9250819262000494565b634e487b7160e01b600052602260045260246000fd5b92607f1692620000d4565b600080fd5b601f909101601f19168101906001600160401b03821190821017620003e457604052565b60005b838110620005225750506000910152565b818101518382015260200162000511565b81601f82011215620004e55780516001600160401b038111620003e457604051926200056a601f8301601f191660200185620004ea565b81845260208284010111620004e5576200058b91602080850191016200050e565b90565b805160209190828110156200060e575090601f825111620005cc5780825192015190808310620005bd57501790565b82600019910360031b1b161790565b604490620006009260405193849263305a27a960e01b8452806004850152825192839182602487015286860191016200050e565b601f01601f19168101030190fd5b6001600160401b038111620003e4576005928354926001938481811c9116801562000728575b83821014620004c457601f8111620006f1575b5081601f84116001146200068757509282939183926000946200067b575b50501b916000199060031b1c191617905560ff90565b01519250388062000665565b919083601f1981168760005284600020946000905b88838310620006d65750505010620006bc575b505050811b01905560ff90565b015160001960f88460031b161c19169055388080620006af565b8587015188559096019594850194879350908101906200069c565b8560005284601f846000209201871c820191601f8601881c015b8281106200071b57505062000647565b600081550185906200070b565b90607f169062000634565b805160209081811015620007605750601f825111620005cc5780825192015190808310620005bd57501790565b906001600160401b038211620003e457600654926001938481811c911680156200087f575b83821014620004c457601f811162000845575b5081601f8411600114620007d95750928293918392600094620007cd575b50501b916000199060031b1c19161760065560ff90565b015192503880620007b6565b919083601f198116600660005284600020946000905b888383106200082a575050501062000810575b505050811b0160065560ff90565b015160001960f88460031b161c1916905538808062000802565b858701518855909601959485019487935090810190620007ef565b600660005284601f84600020920160051c820191601f860160051c015b8281106200087257505062000798565b6000815501859062000862565b90607f16906200078556fe608060408181526004918236101561001657600080fd5b600092833560e01c91826306fdde031461086157508163095ea7b31461083757816318160ddd1461081857816323b872dd14610721578163313ce567146107055781633644e515146106e157816340c10f191461063857816370a08231146106015781637ecebe00146105c957816384b0196e146104a957816395d89b41146103b55781639dc29fac146102e1578163a9059cbb146102b0578163d505accf1461014857508063dd62ed3e146101005763e78cea92146100d557600080fd5b346100fc57816003193601126100fc5760085490516001600160a01b039091168152602090f35b5080fd5b50346100fc57806003193601126100fc578060209261011d610979565b610125610994565b6001600160a01b0391821683526001865283832091168252845220549051908152f35b839150346100fc5760e03660031901126100fc57610164610979565b61016c610994565b906044359260643560843560ff811681036102ac578142116102955760018060a01b0390818516928389526007602052898920908154916001830190558a519060208201927f6e71edae12b1b97f4d1f60370fef10105fa2faae0126114a169c64845d6126c98452868d840152858a1660608401528a608084015260a083015260c082015260c0815260e0810181811067ffffffffffffffff821117610282578b525190206102509161024791610221610b16565b908c519161190160f01b83526002830152602282015260c43591604260a4359220610e98565b90929192610f28565b168181036102675786610264878787610c41565b80f35b87516325c0072360e11b815292830152602482015260449150fd5b634e487b7160e01b8b526041875260248bfd5b875163313c898160e11b8152808401839052602490fd5b8680fd5b5050346100fc57806003193601126100fc576020906102da6102d0610979565b6024359033610a38565b5160018152f35b839150346100fc57826003193601126100fc576102fc610979565b6008549091602435916001600160a01b0390811633036103b15783169283156103b15782156103b15783855284602052858520549183831061037d5750508184957fddf252ad1be2c89b69c2b068fc378daa952ba7f163c4a11628f55a4df523b3ef936020938688528785520381872055816002540360025551908152a380f35b865163391434e360e21b81526001600160a01b03909216908201908152602081018390526040810184905281906060010390fd5b8480fd5b919050346104a557826003193601126104a55780518381949084546103d9816109aa565b918285526020966001928860018216918260001461047b575050600114610420575b858861041c8961040d848a0385610a16565b51928284938452830190610939565b0390f35b815286935091907f8a35acfbc15ff81a39ae7d344fd709f28e8600b4aa8c65c6b64bfe7fe36bd19b5b828410610463575050508201018161040d61041c386103fb565b8054848a018601528895508794909301928101610449565b60ff19168882015294151560051b8701909401945085935061040d925061041c91503890506103fb565b8280fd5b919050346104a557826003193601126104a5576104e57f0000000000000000000000000000000000000000000000000000000000000000610cd4565b9261050f7f0000000000000000000000000000000000000000000000000000000000000000610dd8565b90825192602092602085019585871067ffffffffffffffff8811176105b6575092602061056c83889661055f998b9996528686528151998a99600f60f81b8b5260e0868c015260e08b0190610939565b91898303908a0152610939565b924660608801523060808801528460a088015286840360c088015251928381520193925b82811061059f57505050500390f35b835185528695509381019392810192600101610590565b634e487b7160e01b845260419052602483fd5b5050346100fc5760203660031901126100fc5760209181906001600160a01b036105f1610979565b1681526007845220549051908152f35b5050346100fc5760203660031901126100fc5760209181906001600160a01b03610629610979565b16815280845220549051908152f35b919050346104a557806003193601126104a557610653610979565b60085460243592916001600160a01b0391821633036106dd57169283156103b15782156103b157600254908382018092116106ca575084927fddf252ad1be2c89b69c2b068fc378daa952ba7f163c4a11628f55a4df523b3ef9260209260025585855284835280852082815401905551908152a380f35b634e487b7160e01b865260119052602485fd5b8580fd5b5050346100fc57816003193601126100fc576020906106fe610b16565b9051908152f35b5050346100fc57816003193601126100fc576020905160128152f35b905082346108155760603660031901126108155761073d610979565b610745610994565b916044359360018060a01b038316808352600160205286832033845260205286832054916000198310610781575b6020886102da898989610a38565b8683106107e95781156107d25733156107bb575082526001602090815286832033845281529186902090859003905582906102da87610773565b8751634a1406b160e11b8152908101849052602490fd5b875163e602df0560e01b8152908101849052602490fd5b8751637dc7a0d960e11b8152339181019182526020820193909352604081018790528291506060010390fd5b80fd5b5050346100fc57816003193601126100fc576020906002549051908152f35b5050346100fc57806003193601126100fc576020906102da610857610979565b6024359033610c41565b8484346100fc57816003193601126100fc578282600354610881816109aa565b90818452602095600191876001821691826000146109125750506001146108b6575b50505061041c929161040d910385610a16565b9190869350600383527fc2575a0e9e593c00f959f8c92f12db2869c3395a3b0502d05e2516446f71f85b5b8284106108fa575050508201018161040d61041c6108a3565b8054848a0186015288955087949093019281016108e1565b60ff19168782015293151560051b8601909301935084925061040d915061041c90506108a3565b919082519283825260005b848110610965575050826000602080949584010152601f8019910116010190565b602081830181015184830182015201610944565b600435906001600160a01b038216820361098f57565b600080fd5b602435906001600160a01b038216820361098f57565b90600182811c921680156109da575b60208310146109c457565b634e487b7160e01b600052602260045260246000fd5b91607f16916109b9565b6040810190811067ffffffffffffffff821117610a0057604052565b634e487b7160e01b600052604160045260246000fd5b90601f8019910116810190811067ffffffffffffffff821117610a0057604052565b916001600160a01b03808416928315610afd5716928315610ae45760009083825281602052604082205490838210610ab2575091604082827fddf252ad1be2c89b69c2b068fc378daa952ba7f163c4a11628f55a4df523b3ef958760209652828652038282205586815220818154019055604051908152a3565b60405163391434e360e21b81526001600160a01b03919091166004820152602481019190915260448101839052606490fd5b60405163ec442f0560e01b815260006004820152602490fd5b604051634b637e8f60e11b815260006004820152602490fd5b307f00000000000000000000000000000000000000000000000000000000000000006001600160a01b03161480610c18575b15610b71577f000000000000000000000000000000000000000000000000000000000000000090565b60405160208101907f8b73c3c69bb8fe3d512ecc4cf759cc79239f7b179b0ffacaa9a75d522b39400f82527f000000000000000000000000000000000000000000000000000000000000000060408201527f000000000000000000000000000000000000000000000000000000000000000060608201524660808201523060a082015260a0815260c0810181811067ffffffffffffffff821117610a005760405251902090565b507f00000000000000000000000000000000000000000000000000000000000000004614610b48565b6001600160a01b03908116918215610cbb5716918215610ca25760207f8c5be1e5ebec7d5bd14f71427d1e84f3dd0314c0f7b2291e5b200ac8c7c3b925918360005260018252604060002085600052825280604060002055604051908152a3565b604051634a1406b160e11b815260006004820152602490fd5b60405163e602df0560e01b815260006004820152602490fd5b60ff8114610d125760ff811690601f8211610d005760405191610cf6836109e4565b8252602082015290565b604051632cd44ac360e21b8152600490fd5b50604051600554816000610d25836109aa565b80835292602090600190818116908115610db45750600114610d53575b5050610d5092500382610a16565b90565b91509260056000527f036b6384b5eca791c62761152d0c79bb0604c104a5fb6f4eb0703f3154bb3db0936000925b828410610d9c5750610d509450505081016020013880610d42565b85548785018301529485019486945092810192610d81565b91505060209250610d5094915060ff191682840152151560051b8201013880610d42565b60ff8114610dfa5760ff811690601f8211610d005760405191610cf6836109e4565b50604051600654816000610e0d836109aa565b80835292602090600190818116908115610db45750600114610e37575050610d5092500382610a16565b91509260066000527ff652222313e28459528d920b65115c16c04f3efc82aaedc97be59f3f377c0d3f936000925b828410610e805750610d509450505081016020013880610d42565b85548785018301529485019486945092810192610e65565b91907f7fffffffffffffffffffffffffffffff5d576e7357a4501ddfe92f46681b20a08411610f1c57926020929160ff608095604051948552168484015260408301526060820152600092839182805260015afa15610f105780516001600160a01b03811615610f0757918190565b50809160019190565b604051903d90823e3d90fd5b50505060009160039190565b6004811015610f975780610f3a575050565b60018103610f545760405163f645eedf60e01b8152600490fd5b60028103610f755760405163fce698f760e01b815260048101839052602490fd5b600314610f7f5750565b602490604051906335e2f38360e21b82526004820152fd5b634e487b7160e01b600052602160045260246000fdfea2646970667358221220a49f5ef8caea861ff3427c89137214cdec4e109367730c343edf659d98700d2564736f6c63430008180033",
  "linkReferences": {},
  "deployedLinkReferences": {}
}