{
  "_format": "hh-sol-artifact-1",
  "contractName": "MockERC20",
  "sourceName": "contracts/MockERC20.sol",
  "abi": [
    {
      "inputs": [],
      "stateMutability": "nonpayable",
      "type": "constructor"
    },
    {
      "inputs": [
        {
          "internalType": "address",
          "name": "target",
          "type": "address"
        }
      ],
      "name": "AddressEmptyCode",
      "type": "error"
    },
    {
      "inputs": [],
      "name": "ECDSAInvalidSignature",
      "type": "error"
    },
    {
      "inputs": [
        {
          "internalType": "uint256",
          "name": "length",
          "type": "uint256"
        }
      ],
      "name": "ECDSAInvalidSignatureLength",
      "type": "error"
    },
    {
      "inputs": [
        {
          "internalType": "bytes32",
          "name": "s",
          "type": "bytes32"
        }
      ],
      "name": "ECDSAInvalidSignatureS",
      "type": "error"
    },
    {
      "inputs": [
        {
          "internalType": "address",
          "name": "implementation",
          "type": "address"
        }
      ],
      "name": "ERC1967InvalidImplementation",
      "type": "error"
    },
    {
      "inputs": [],
      "name": "ERC1967NonPayable",
      "type": "error"
    },
    {
      "inputs": [
        {
          "internalType": "address",
          "name": "spender",
          "type": "address"
        },
        {
          "internalType": "uint256",
          "name": "allowance",
          "type": "uint256"
        },
        {
          "internalType": "uint256",
          "name": "needed",
          "type": "uint256"
        }
      ],
      "name": "ERC20InsufficientAllowance",
      "type": "error"
    },
    {
      "inputs": [
        {
          "internalType": "address",
          "name": "sender",
          "type": "address"
        },
        {
          "internalType": "uint256",
          "name": "balance",
          "type": "uint256"
        },
        {
          "internalType": "uint256",
          "name": "needed",
          "type": "uint256"
        }
      ],
      "name": "ERC20InsufficientBalance",
      "type": "error"
    },
    {
      "inputs": [
        {
          "internalType": "address",
          "name": "approver",
          "type": "address"
        }
      ],
      "name": "ERC20InvalidApprover",
      "type": "error"
    },
    {
      "inputs": [
        {
          "internalType": "address",
          "name": "receiver",
          "type": "address"
        }
      ],
      "name": "ERC20InvalidReceiver",
      "type": "error"
    },
    {
      "inputs": [
        {
          "internalType": "address",
          "name": "sender",
          "type": "address"
        }
      ],
      "name": "ERC20InvalidSender",
      "type": "error"
    },
    {
      "inputs": [
        {
          "internalType": "address",
          "name": "spender",
          "type": "address"
        }
      ],
      "name": "ERC20InvalidSpender",
      "type": "error"
    },
    {
      "inputs": [
        {
          "internalType": "uint256",
          "name": "deadline",
          "type": "uint256"
        }
      ],
      "name": "ERC2612ExpiredSignature",
      "type": "error"
    },
    {
      "inputs": [
        {
          "internalType": "address",
          "name": "signer",
          "type": "address"
        },
        {
          "internalType": "address",
          "name": "owner",
          "type": "address"
        }
      ],
      "name": "ERC2612InvalidSigner",
      "type": "error"
    },
    {
      "inputs": [],
      "name": "FailedCall",
      "type": "error"
    },
    {
      "inputs": [
        {
          "internalType": "address",
          "name": "account",
          "type": "address"
        },
        {
          "internalType": "uint256",
          "name": "currentNonce",
          "type": "uint256"
        }
      ],
      "name": "InvalidAccountNonce",
      "type": "error"
    },
    {
      "inputs": [],
      "name": "InvalidInitialization",
      "type": "error"
    },
    {
      "inputs": [],
      "name": "NotInitializing",
      "type": "error"
    },
    {
      "inputs": [
        {
          "internalType": "address",
          "name": "owner",
          "type": "address"
        }
      ],
      "name": "OwnableInvalidOwner",
      "type": "error"
    },
    {
      "inputs": [
        {
          "internalType": "address",
          "name": "account",
          "type": "address"
        }
      ],
      "name": "OwnableUnauthorizedAccount",
      "type": "error"
    },
    {
      "inputs": [],
      "name": "UUPSUnauthorizedCallContext",
      "type": "error"
    },
    {
      "inputs": [
        {
          "internalType": "bytes32",
          "name": "slot",
          "type": "bytes32"
        }
      ],
      "name": "UUPSUnsupportedProxiableUUID",
      "type": "error"
    },
    {
      "anonymous": false,
      "inputs": [
        {
          "indexed": true,
          "internalType": "address",
          "name": "owner",
          "type": "address"
        },
        {
          "indexed": true,
          "internalType": "address",
          "name": "spender",
          "type": "address"
        },
        {
          "indexed": false,
          "internalType": "uint256",
          "name": "value",
          "type": "uint256"
        }
      ],
      "name": "Approval",
      "type": "event"
    },
    {
      "anonymous": false,
      "inputs": [],
      "name": "EIP712DomainChanged",
      "type": "event"
    },
    {
      "anonymous": false,
      "inputs": [
        {
          "indexed": false,
          "internalType": "uint64",
          "name": "version",
          "type": "uint64"
        }
      ],
      "name": "Initialized",
      "type": "event"
    },
    {
      "anonymous": false,
      "inputs": [
        {
          "indexed": true,
          "internalType": "address",
          "name": "previousOwner",
          "type": "address"
        },
        {
          "indexed": true,
          "internalType": "address",
          "name": "newOwner",
          "type": "address"
        }
      ],
      "name": "OwnershipTransferred",
      "type": "event"
    },
    {
      "anonymous": false,
      "inputs": [
        {
          "indexed": true,
          "internalType": "address",
          "name": "from",
          "type": "address"
        },
        {
          "indexed": true,
          "internalType": "address",
          "name": "to",
          "type": "address"
        },
        {
          "indexed": false,
          "internalType": "uint256",
          "name": "value",
          "type": "uint256"
        }
      ],
      "name": "Transfer",
      "type": "event"
    },
    {
      "anonymous": false,
      "inputs": [
        {
          "indexed": true,
          "internalType": "address",
          "name": "implementation",
          "type": "address"
        }
      ],
      "name": "Upgraded",
      "type": "event"
    },
    {
      "inputs": [],
      "name": "DOMAIN_SEPARATOR",
      "outputs": [
        {
          "internalType": "bytes32",
          "name": "",
          "type": "bytes32"
        }
      ],
      "stateMutability": "view",
      "type": "function"
    },
    {
      "inputs": [],
      "name": "UPGRADE_INTERFACE_VERSION",
      "outputs": [
        {
          "internalType": "string",
          "name": "",
          "type": "string"
        }
      ],
      "stateMutability": "view",
      "type": "function"
    },
    {
      "inputs": [
        {
          "internalType": "address",
          "name": "owner",
          "type": "address"
        },
        {
          "internalType": "address",
          "name": "spender",
          "type": "address"
        }
      ],
      "name": "allowance",
      "outputs": [
        {
          "internalType": "uint256",
          "name": "",
          "type": "uint256"
        }
      ],
      "stateMutability": "view",
      "type": "function"
    },
    {
      "inputs": [
        {
          "internalType": "address",
          "name": "spender",
          "type": "address"
        },
        {
          "internalType": "uint256",
          "name": "value",
          "type": "uint256"
        }
      ],
      "name": "approve",
      "outputs": [
        {
          "internalType": "bool",
          "name": "",
          "type": "bool"
        }
      ],
      "stateMutability": "nonpayable",
      "type": "function"
    },
    {
      "inputs": [
        {
          "internalType": "address",
          "name": "account",
          "type": "address"
        }
      ],
      "name": "balanceOf",
      "outputs": [
        {
          "internalType": "uint256",
          "name": "",
          "type": "uint256"
        }
      ],
      "stateMutability": "view",
      "type": "function"
    },
    {
      "inputs": [],
      "name": "bridge",
      "outputs": [
        {
          "internalType": "address",
          "name": "",
          "type": "address"
        }
      ],
      "stateMutability": "view",
      "type": "function"
    },
    {
      "inputs": [
        {
          "internalType": "address",
          "name": "from",
          "type": "address"
        },
        {
          "internalType": "uint256",
          "name": "amount",
          "type": "uint256"
        }
      ],
      "name": "burn",
      "outputs": [],
      "stateMutability": "nonpayable",
      "type": "function"
    },
    {
      "inputs": [],
      "name": "decimals",
      "outputs": [
        {
          "internalType": "uint8",
          "name": "",
          "type": "uint8"
        }
      ],
      "stateMutability": "view",
      "type": "function"
    },
    {
      "inputs": [],
      "name": "eip712Domain",
      "outputs": [
        {
          "internalType": "bytes1",
          "name": "fields",
          "type": "bytes1"
        },
        {
          "internalType": "string",
          "name": "name",
          "type": "string"
        },
        {
          "internalType": "string",
          "name": "version",
          "type": "string"
        },
        {
          "internalType": "uint256",
          "name": "chainId",
          "type": "uint256"
        },
        {
          "internalType": "address",
          "name": "verifyingContract",
          "type": "address"
        },
        {
          "internalType": "bytes32",
          "name": "salt",
          "type": "bytes32"
        },
        {
          "internalType": "uint256[]",
          "name": "extensions",
          "type": "uint256[]"
        }
      ],
      "stateMutability": "view",
      "type": "function"
    },
    {
      "inputs": [
        {
          "internalType": "string",
          "name": "name",
          "type": "string"
        },
        {
          "internalType": "string",
          "name": "symbol",
          "type": "string"
        },
        {
          "internalType": "address",
          "name": "_bridge",
          "type": "address"
        }
      ],
      "name": "initialize",
      "outputs": [],
      "stateMutability": "nonpayable",
      "type": "function"
    },
    {
      "inputs": [
        {
          "internalType": "address",
          "name": "to",
          "type": "address"
        },
        {
          "internalType": "uint256",
          "name": "amount",
          "type": "uint256"
        }
      ],
      "name": "mint",
      "outputs": [],
      "stateMutability": "nonpayable",
      "type": "function"
    },
    {
      "inputs": [],
      "name": "name",
      "outputs": [
        {
          "internalType": "string",
          "name": "",
          "type": "string"
        }
      ],
      "stateMutability": "view",
      "type": "function"
    },
    {
      "inputs": [
        {
          "internalType": "address",
          "name": "owner",
          "type": "address"
        }
      ],
      "name": "nonces",
      "outputs": [
        {
          "internalType": "uint256",
          "name": "",
          "type": "uint256"
        }
      ],
      "stateMutability": "view",
      "type": "function"
    },
    {
      "inputs": [],
      "name": "owner",
      "outputs": [
        {
          "internalType": "address",
          "name": "",
          "type": "address"
        }
      ],
      "stateMutability": "view",
      "type": "function"
    },
    {
      "inputs": [
        {
          "internalType": "address",
          "name": "owner",
          "type": "address"
        },
        {
          "internalType": "address",
          "name": "spender",
          "type": "address"
        },
        {
          "internalType": "uint256",
          "name": "value",
          "type": "uint256"
        },
        {
          "internalType": "uint256",
          "name": "deadline",
          "type": "uint256"
        },
        {
          "internalType": "uint8",
          "name": "v",
          "type": "uint8"
        },
        {
          "internalType": "bytes32",
          "name": "r",
          "type": "bytes32"
        },
        {
          "internalType": "bytes32",
          "name": "s",
          "type": "bytes32"
        }
      ],
      "name": "permit",
      "outputs": [],
      "stateMutability": "nonpayable",
      "type": "function"
    },
    {
      "inputs": [],
      "name": "proxiableUUID",
      "outputs": [
        {
          "internalType": "bytes32",
          "name": "",
          "type": "bytes32"
        }
      ],
      "stateMutability": "view",
      "type": "function"
    },
    {
      "inputs": [],
      "name": "renounceOwnership",
      "outputs": [],
      "stateMutability": "nonpayable",
      "type": "function"
    },
    {
      "inputs": [],
      "name": "symbol",
      "outputs": [
        {
          "internalType": "string",
          "name": "",
          "type": "string"
        }
      ],
      "stateMutability": "view",
      "type": "function"
    },
    {
      "inputs": [],
      "name": "totalSupply",
      "outputs": [
        {
          "internalType": "uint256",
          "name": "",
          "type": "uint256"
        }
      ],
      "stateMutability": "view",
      "type": "function"
    },
    {
      "inputs": [
        {
          "internalType": "address",
          "name": "to",
          "type": "address"
        },
        {
          "internalType": "uint256",
          "name": "value",
          "type": "uint256"
        }
      ],
      "name": "transfer",
      "outputs": [
        {
          "internalType": "bool",
          "name": "",
          "type": "bool"
        }
      ],
      "stateMutability": "nonpayable",
      "type": "function"
    },
    {
      "inputs": [
        {
          "internalType": "address",
          "name": "from",
          "type": "address"
        },
        {
          "internalType": "address",
          "name": "to",
          "type": "address"
        },
        {
          "internalType": "uint256",
          "name": "value",
          "type": "uint256"
        }
      ],
      "name": "transferFrom",
      "outputs": [
        {
          "internalType": "bool",
          "name": "",
          "type": "bool"
        }
      ],
      "stateMutability": "nonpayable",
      "type": "function"
    },
    {
      "inputs": [
        {
          "internalType": "address",
          "name": "newOwner",
          "type": "address"
        }
      ],
      "name": "transferOwnership",
      "outputs": [],
      "stateMutability": "nonpayable",
      "type": "function"
    },
    {
      "inputs": [
        {
          "internalType": "address",
          "name": "newImplementation",
          "type": "address"
        },
        {
          "internalType": "bytes",
          "name": "data",
          "type": "bytes"
        }
      ],
      "name": "upgradeToAndCall",
      "outputs": [],
      "stateMutability": "payable",
      "type": "function"
    }
  ],
  "bytecode": "0x60a060405230608052348015610013575f80fd5b5061001c610021565b6100d3565b7ff0c57e16840df040f15088dc2f81fe391c3923bec73e23a9662efc9c229c6a00805468010000000000000000900460ff16156100715760405163f92ee8a960e01b815260040160405180910390fd5b80546001600160401b03908116146100d05780546001600160401b0319166001600160401b0390811782556040519081527fc7f505b2f371ae2175ee4913f4499e1f2633a7b5936321eed1cdaeb6115181d29060200160405180910390a15b50565b608051611edf6100f95f395f8181610db701528181610de00152610f700152611edf5ff3fe60806040526004361061013c575f3560e01c8063715018a6116100b3578063a9059cbb1161006d578063a9059cbb14610363578063ad3cb1cc14610382578063d505accf146103b2578063dd62ed3e146103d1578063e78cea92146103f0578063f2fde38b1461040e575f80fd5b8063715018a6146102aa5780637ecebe00146102be57806384b0196e146102dd5780638da5cb5b1461030457806395d89b41146103305780639dc29fac14610344575f80fd5b8063313ce56711610104578063313ce567146102165780633644e5151461023157806340c10f19146102455780634f1ef2861461026457806352d1902d1461027757806370a082311461028b575f80fd5b806306fdde0314610140578063077f224a1461016a578063095ea7b31461018b57806318160ddd146101ba57806323b872dd146101f7575b5f80fd5b34801561014b575f80fd5b5061015461042d565b604051610161919061192d565b60405180910390f35b348015610175575f80fd5b506101896101843660046119f8565b6104d2565b005b348015610196575f80fd5b506101aa6101a5366004611a6b565b610617565b6040519015158152602001610161565b3480156101c5575f80fd5b507f52c63247e1f47db19d5ce0460030c497f067ca4cebf71ba98eeadabe20bace02545b604051908152602001610161565b348015610202575f80fd5b506101aa610211366004611a95565b610630565b348015610221575f80fd5b5060405160128152602001610161565b34801561023c575f80fd5b506101e9610655565b348015610250575f80fd5b5061018961025f366004611a6b565b610663565b610189610272366004611ad3565b610776565b348015610282575f80fd5b506101e9610791565b348015610296575f80fd5b506101e96102a5366004611b33565b6107ac565b3480156102b5575f80fd5b506101896107dc565b3480156102c9575f80fd5b506101e96102d8366004611b33565b6107ef565b3480156102e8575f80fd5b506102f16107f9565b6040516101619796959493929190611b4e565b34801561030f575f80fd5b506103186108a2565b6040516001600160a01b039091168152602001610161565b34801561033b575f80fd5b50610154610916565b34801561034f575f80fd5b5061018961035e366004611a6b565b610954565b34801561036e575f80fd5b506101aa61037d366004611a6b565b610a5e565b34801561038d575f80fd5b50610154604051806040016040528060058152602001640352e302e360dc1b81525081565b3480156103bd575f80fd5b506101896103cc366004611be5565b610a6b565b3480156103dc575f80fd5b506101e96103eb366004611c56565b610bc0565b3480156103fb575f80fd5b505f54610318906001600160a01b031681565b348015610419575f80fd5b50610189610428366004611b33565b610c09565b60605f5f80516020611e4a8339815191525b905080600301805461045090611c8d565b80601f016020809104026020016040519081016040528092919081815260200182805461047c90611c8d565b80156104c75780601f1061049e576101008083540402835291602001916104c7565b820191905f5260205f20905b8154815290600101906020018083116104aa57829003601f168201915b505050505091505090565b7ff0c57e16840df040f15088dc2f81fe391c3923bec73e23a9662efc9c229c6a008054600160401b810460ff16159067ffffffffffffffff165f811580156105175750825b90505f8267ffffffffffffffff1660011480156105335750303b155b905081158015610541575080155b1561055f5760405163f92ee8a960e01b815260040160405180910390fd5b845467ffffffffffffffff19166001178555831561058957845460ff60401b1916600160401b1785555b6105938888610c46565b61059c88610c58565b6105a586610c83565b6105ad610c94565b5f80546001600160a01b0319166001600160a01b038816179055831561060d57845460ff60401b19168555604051600181527fc7f505b2f371ae2175ee4913f4499e1f2633a7b5936321eed1cdaeb6115181d29060200160405180910390a15b5050505050505050565b5f33610624818585610c9c565b60019150505b92915050565b5f3361063d858285610cae565b610648858585610d12565b60019150505b9392505050565b5f61065e610d6f565b905090565b5f546001600160a01b031633146106b85760405162461bcd60e51b815260206004820152601460248201527313db9b1e48189c9a5919d94818d85b8818d85b1b60621b60448201526064015b60405180910390fd5b6001600160a01b03821661070e5760405162461bcd60e51b815260206004820152601b60248201527f43616e6e6f74206d696e7420746f207a65726f2061646472657373000000000060448201526064016106af565b5f81116107685760405162461bcd60e51b815260206004820152602260248201527f4d696e7420616d6f756e74206d7573742062652067726561746572207468616e604482015261020360f41b60648201526084016106af565b6107728282610d78565b5050565b61077e610dac565b61078782610e50565b6107728282610ea9565b5f61079a610f65565b505f80516020611e8a83398151915290565b5f805f80516020611e4a8339815191525b6001600160a01b039093165f9081526020939093525050604090205490565b6107e4610fae565b6107ed5f610fe0565b565b5f61062a82611050565b5f60608082808083815f80516020611e6a833981519152805490915015801561082457506001810154155b6108685760405162461bcd60e51b81526020600482015260156024820152741152540dcc4c8e88155b9a5b9a5d1a585b1a5e9959605a1b60448201526064016106af565b610870611078565b6108786110b6565b604080515f80825260208201909252600f60f81b9c939b5091995046985030975095509350915050565b5f805f9054906101000a90046001600160a01b03166001600160a01b031663893d20e86040518163ffffffff1660e01b8152600401602060405180830381865afa1580156108f2573d5f803e3d5ffd5b505050506040513d601f19601f8201168201806040525081019061065e9190611cc5565b7f52c63247e1f47db19d5ce0460030c497f067ca4cebf71ba98eeadabe20bace0480546060915f80516020611e4a8339815191529161045090611c8d565b5f546001600160a01b031633146109a45760405162461bcd60e51b815260206004820152601460248201527313db9b1e48189c9a5919d94818d85b8818d85b1b60621b60448201526064016106af565b6001600160a01b0382166109fa5760405162461bcd60e51b815260206004820152601d60248201527f43616e6e6f74206275726e2066726f6d207a65726f206164647265737300000060448201526064016106af565b5f8111610a545760405162461bcd60e51b815260206004820152602260248201527f4275726e20616d6f756e74206d7573742062652067726561746572207468616e604482015261020360f41b60648201526084016106af565b61077282826110cc565b5f33610624818585610d12565b83421115610a8f5760405163313c898160e11b8152600481018590526024016106af565b5f7f6e71edae12b1b97f4d1f60370fef10105fa2faae0126114a169c64845d6126c9888888610af98c6001600160a01b03165f9081527f5ab42ced628888259c08ac98db1eb0cf702fc1501344311d8b100cd1bfe4bb006020526040902080546001810190915590565b6040805160208101969096526001600160a01b0394851690860152929091166060840152608083015260a082015260c0810186905260e0016040516020818303038152906040528051906020012090505f610b5382611100565b90505f610b628287878761112c565b9050896001600160a01b0316816001600160a01b031614610ba9576040516325c0072360e11b81526001600160a01b0380831660048301528b1660248201526044016106af565b610bb48a8a8a610c9c565b50505050505050505050565b6001600160a01b039182165f9081527f52c63247e1f47db19d5ce0460030c497f067ca4cebf71ba98eeadabe20bace016020908152604080832093909416825291909152205490565b610c11610fae565b6001600160a01b038116610c3a57604051631e4fbdf760e01b81525f60048201526024016106af565b610c4381610fe0565b50565b610c4e611158565b61077282826111a1565b610c60611158565b610c4381604051806040016040528060018152602001603160f81b8152506111f1565b610c8b611158565b610c4381611250565b6107ed611158565b610ca98383836001611258565b505050565b5f610cb98484610bc0565b90505f19811015610d0c5781811015610cfe57604051637dc7a0d960e11b81526001600160a01b038416600482015260248101829052604481018390526064016106af565b610d0c84848484035f611258565b50505050565b6001600160a01b038316610d3b57604051634b637e8f60e11b81525f60048201526024016106af565b6001600160a01b038216610d645760405163ec442f0560e01b81525f60048201526024016106af565b610ca983838361133c565b5f61065e611475565b6001600160a01b038216610da15760405163ec442f0560e01b81525f60048201526024016106af565b6107725f838361133c565b306001600160a01b037f0000000000000000000000000000000000000000000000000000000000000000161480610e3257507f00000000000000000000000000000000000000000000000000000000000000006001600160a01b0316610e265f80516020611e8a833981519152546001600160a01b031690565b6001600160a01b031614155b156107ed5760405163703e46dd60e11b815260040160405180910390fd5b5f546001600160a01b03163314610c435760405162461bcd60e51b815260206004820152601760248201527f4f6e6c79206272696467652063616e207570677261646500000000000000000060448201526064016106af565b816001600160a01b03166352d1902d6040518163ffffffff1660e01b8152600401602060405180830381865afa925050508015610f03575060408051601f3d908101601f19168201909252610f0091810190611ce0565b60015b610f2b57604051634c9c8ce360e01b81526001600160a01b03831660048201526024016106af565b5f80516020611e8a8339815191528114610f5b57604051632a87526960e21b8152600481018290526024016106af565b610ca983836114e8565b306001600160a01b037f000000000000000000000000000000000000000000000000000000000000000016146107ed5760405163703e46dd60e11b815260040160405180910390fd5b33610fb76108a2565b6001600160a01b0316146107ed5760405163118cdaa760e01b81523360048201526024016106af565b7f9016d09d72d40fdae2fd8ceac6b6234c7706214fd39c1cd1e609a0528c19930080546001600160a01b031981166001600160a01b03848116918217845560405192169182907f8be0079c531659141344cd1fd0a4f28419497f9722a3daafe3b4186f6b6457e0905f90a3505050565b5f807f5ab42ced628888259c08ac98db1eb0cf702fc1501344311d8b100cd1bfe4bb006107bd565b7fa16a46d94261c7517cc8ff89f61c0ce93598e3c849801011dee649a6a557d10280546060915f80516020611e6a8339815191529161045090611c8d565b60605f5f80516020611e6a83398151915261043f565b6001600160a01b0382166110f557604051634b637e8f60e11b81525f60048201526024016106af565b610772825f8361133c565b5f61062a61110c610d6f565b8360405161190160f01b8152600281019290925260228201526042902090565b5f805f8061113c8888888861153d565b92509250925061114c8282611605565b50909695505050505050565b7ff0c57e16840df040f15088dc2f81fe391c3923bec73e23a9662efc9c229c6a0054600160401b900460ff166107ed57604051631afcd79f60e31b815260040160405180910390fd5b6111a9611158565b5f80516020611e4a8339815191527f52c63247e1f47db19d5ce0460030c497f067ca4cebf71ba98eeadabe20bace036111e28482611d3b565b5060048101610d0c8382611d3b565b6111f9611158565b5f80516020611e6a8339815191527fa16a46d94261c7517cc8ff89f61c0ce93598e3c849801011dee649a6a557d1026112328482611d3b565b50600381016112418382611d3b565b505f8082556001909101555050565b610c11611158565b5f80516020611e4a8339815191526001600160a01b03851661128f5760405163e602df0560e01b81525f60048201526024016106af565b6001600160a01b0384166112b857604051634a1406b160e11b81525f60048201526024016106af565b6001600160a01b038086165f9081526001830160209081526040808320938816835292905220839055811561133557836001600160a01b0316856001600160a01b03167f8c5be1e5ebec7d5bd14f71427d1e84f3dd0314c0f7b2291e5b200ac8c7c3b9258560405161132c91815260200190565b60405180910390a35b5050505050565b5f80516020611e4a8339815191526001600160a01b0384166113765781816002015f82825461136b9190611dfb565b909155506113e69050565b6001600160a01b0384165f90815260208290526040902054828110156113c85760405163391434e360e21b81526001600160a01b038616600482015260248101829052604481018490526064016106af565b6001600160a01b0385165f9081526020839052604090209083900390555b6001600160a01b038316611404576002810180548390039055611422565b6001600160a01b0383165f9081526020829052604090208054830190555b826001600160a01b0316846001600160a01b03167fddf252ad1be2c89b69c2b068fc378daa952ba7f163c4a11628f55a4df523b3ef8460405161146791815260200190565b60405180910390a350505050565b5f7f8b73c3c69bb8fe3d512ecc4cf759cc79239f7b179b0ffacaa9a75d522b39400f61149f6116bd565b6114a7611725565b60408051602081019490945283019190915260608201524660808201523060a082015260c00160405160208183030381529060405280519060200120905090565b6114f182611767565b6040516001600160a01b038316907fbc7cd75a20ee27fd9adebab32041f755214dbc6bffa90cc0225b39da2e5c2d3b905f90a280511561153557610ca982826117ca565b61077261183c565b5f80807f7fffffffffffffffffffffffffffffff5d576e7357a4501ddfe92f46681b20a084111561157657505f915060039050826115fb565b604080515f808252602082018084528a905260ff891692820192909252606081018790526080810186905260019060a0016020604051602081039080840390855afa1580156115c7573d5f803e3d5ffd5b5050604051601f1901519150506001600160a01b0381166115f257505f9250600191508290506115fb565b92505f91508190505b9450945094915050565b5f82600381111561161857611618611e1a565b03611621575050565b600182600381111561163557611635611e1a565b036116535760405163f645eedf60e01b815260040160405180910390fd5b600282600381111561166757611667611e1a565b036116885760405163fce698f760e01b8152600481018290526024016106af565b600382600381111561169c5761169c611e1a565b03610772576040516335e2f38360e21b8152600481018290526024016106af565b5f5f80516020611e6a833981519152816116d5611078565b8051909150156116ed57805160209091012092915050565b815480156116fc579392505050565b7fc5d2460186f7233c927e7db2dcc703c0e500b653ca82273b7bfad8045d85a470935050505090565b5f5f80516020611e6a8339815191528161173d6110b6565b80519091501561175557805160209091012092915050565b600182015480156116fc579392505050565b806001600160a01b03163b5f0361179c57604051634c9c8ce360e01b81526001600160a01b03821660048201526024016106af565b5f80516020611e8a83398151915280546001600160a01b0319166001600160a01b0392909216919091179055565b60605f80846001600160a01b0316846040516117e69190611e2e565b5f60405180830381855af49150503d805f811461181e576040519150601f19603f3d011682016040523d82523d5f602084013e611823565b606091505b509150915061183385838361185b565b95945050505050565b34156107ed5760405163b398979f60e01b815260040160405180910390fd5b6060826118705761186b826118b7565b61064e565b815115801561188757506001600160a01b0384163b155b156118b057604051639996b31560e01b81526001600160a01b03851660048201526024016106af565b508061064e565b8051156118c75780518082602001fd5b60405163d6bda27560e01b815260040160405180910390fd5b5f5b838110156118fa5781810151838201526020016118e2565b50505f910152565b5f81518084526119198160208601602086016118e0565b601f01601f19169290920160200192915050565b602081525f61064e6020830184611902565b634e487b7160e01b5f52604160045260245ffd5b5f67ffffffffffffffff8084111561196d5761196d61193f565b604051601f8501601f19908116603f011681019082821181831017156119955761199561193f565b816040528093508581528686860111156119ad575f80fd5b858560208301375f602087830101525050509392505050565b5f82601f8301126119d5575f80fd5b61064e83833560208501611953565b6001600160a01b0381168114610c43575f80fd5b5f805f60608486031215611a0a575f80fd5b833567ffffffffffffffff80821115611a21575f80fd5b611a2d878388016119c6565b94506020860135915080821115611a42575f80fd5b50611a4f868287016119c6565b9250506040840135611a60816119e4565b809150509250925092565b5f8060408385031215611a7c575f80fd5b8235611a87816119e4565b946020939093013593505050565b5f805f60608486031215611aa7575f80fd5b8335611ab2816119e4565b92506020840135611ac2816119e4565b929592945050506040919091013590565b5f8060408385031215611ae4575f80fd5b8235611aef816119e4565b9150602083013567ffffffffffffffff811115611b0a575f80fd5b8301601f81018513611b1a575f80fd5b611b2985823560208401611953565b9150509250929050565b5f60208284031215611b43575f80fd5b813561064e816119e4565b60ff60f81b881681525f602060e06020840152611b6e60e084018a611902565b8381036040850152611b80818a611902565b606085018990526001600160a01b038816608086015260a0850187905284810360c0860152855180825260208088019350909101905f5b81811015611bd357835183529284019291840191600101611bb7565b50909c9b505050505050505050505050565b5f805f805f805f60e0888a031215611bfb575f80fd5b8735611c06816119e4565b96506020880135611c16816119e4565b95506040880135945060608801359350608088013560ff81168114611c39575f80fd5b9699959850939692959460a0840135945060c09093013592915050565b5f8060408385031215611c67575f80fd5b8235611c72816119e4565b91506020830135611c82816119e4565b809150509250929050565b600181811c90821680611ca157607f821691505b602082108103611cbf57634e487b7160e01b5f52602260045260245ffd5b50919050565b5f60208284031215611cd5575f80fd5b815161064e816119e4565b5f60208284031215611cf0575f80fd5b5051919050565b601f821115610ca957805f5260205f20601f840160051c81016020851015611d1c5750805b601f840160051c820191505b81811015611335575f8155600101611d28565b815167ffffffffffffffff811115611d5557611d5561193f565b611d6981611d638454611c8d565b84611cf7565b602080601f831160018114611d9c575f8415611d855750858301515b5f19600386901b1c1916600185901b178555611df3565b5f85815260208120601f198616915b82811015611dca57888601518255948401946001909101908401611dab565b5085821015611de757878501515f19600388901b60f8161c191681555b505060018460011b0185555b505050505050565b8082018082111561062a57634e487b7160e01b5f52601160045260245ffd5b634e487b7160e01b5f52602160045260245ffd5b5f8251611e3f8184602087016118e0565b919091019291505056fe52c63247e1f47db19d5ce0460030c497f067ca4cebf71ba98eeadabe20bace00a16a46d94261c7517cc8ff89f61c0ce93598e3c849801011dee649a6a557d100360894a13ba1a3210667c828492db98dca3e2076cc3735a920a3ca505d382bbca264697066735822122000073d5ce3fd696aedd6b14ac9cfd28cc5d11d31f90a4022842a9b1c678efcf364736f6c63430008180033",
  "linkReferences": {},
  "deployedLinkReferences": {}
}