{
  "_format": "hh-sol-artifact-1",
  "contractName": "PriceFeedAggregatorV3",
  "sourceName": "contracts/PriceFeedAggregatorV3.sol",
  "abi": [
    {
      "inputs": [
        {
          "internalType": "int256",
          "name": "_price",
          "type": "int256"
        }
      ],
      "stateMutability": "nonpayable",
      "type": "constructor"
    },
    {
      "inputs": [],
      "name": "decimals",
      "outputs": [
        {
          "internalType": "uint8",
          "name": "",
          "type": "uint8"
        }
      ],
      "stateMutability": "view",
      "type": "function"
    },
    {
      "inputs": [],
      "name": "description",
      "outputs": [
        {
          "internalType": "string",
          "name": "",
          "type": "string"
        }
      ],
      "stateMutability": "pure",
      "type": "function"
    },
    {
      "inputs": [
        {
          "internalType": "uint80",
          "name": "_roundId",
          "type": "uint80"
        }
      ],
      "name": "getRoundData",
      "outputs": [
        {
          "internalType": "uint80",
          "name": "roundId",
          "type": "uint80"
        },
        {
          "internalType": "int256",
          "name": "answer",
          "type": "int256"
        },
        {
          "internalType": "uint256",
          "name": "startedAt",
          "type": "uint256"
        },
        {
          "internalType": "uint256",
          "name": "updatedAt",
          "type": "uint256"
        },
        {
          "internalType": "uint80",
          "name": "answeredInRound",
          "type": "uint80"
        }
      ],
      "stateMutability": "view",
      "type": "function"
    },
    {
      "inputs": [],
      "name": "latestRoundData",
      "outputs": [
        {
          "internalType": "uint80",
          "name": "roundId",
          "type": "uint80"
        },
        {
          "internalType": "int256",
          "name": "answer",
          "type": "int256"
        },
        {
          "internalType": "uint256",
          "name": "startedAt",
          "type": "uint256"
        },
        {
          "internalType": "uint256",
          "name": "updatedAt",
          "type": "uint256"
        },
        {
          "internalType": "uint80",
          "name": "answeredInRound",
          "type": "uint80"
        }
      ],
      "stateMutability": "view",
      "type": "function"
    },
    {
      "inputs": [],
      "name": "price",
      "outputs": [
        {
          "internalType": "int256",
          "name": "",
          "type": "int256"
        }
      ],
      "stateMutability": "view",
      "type": "function"
    },
    {
      "inputs": [
        {
          "internalType": "int256",
          "name": "_price",
          "type": "int256"
        }
      ],
      "name": "setPrice",
      "outputs": [],
      "stateMutability": "nonpayable",
      "type": "function"
    },
    {
      "inputs": [],
      "name": "timestamp",
      "outputs": [
        {
          "internalType": "uint256",
          "name": "",
          "type": "uint256"
        }
      ],
      "stateMutability": "view",
      "type": "function"
    },
    {
      "inputs": [],
      "name": "version",
      "outputs": [
        {
          "internalType": "uint256",
          "name": "",
          "type": "uint256"
        }
      ],
      "stateMutability": "pure",
      "type": "function"
    }
  ],
  "bytecode": "0x60803461006257601f6102fb38819003918201601f19168301916001600160401b03831184841017610067578084926020946040528339810103126100625751600860ff1960005416176000556001554260025560405161027d908161007e8239f35b600080fd5b634e487b7160e01b600052604160045260246000fdfe60806040818152600436101561001457600080fd5b600091823560e01c908163313ce5671461022a5750806354fd4d501461020f5780637284e416146101695780639a6fc8f514610115578063a035b1fe146100f7578063b80777ea146100d9578063f7a30806146100b75763feaf968c1461007a57600080fd5b346100b357816003193601126100b35760a090600154906002548181925193600185526020850152830152606082015260016080820152f35b5080fd5b82346100d65760203660031901126100d6576004356001554260025580f35b80fd5b50346100b357816003193601126100b3576020906002549051908152f35b50346100b357816003193601126100b3576020906001549051908152f35b50346100b35760203660031901126100b35760043569ffffffffffffffffffff81168091036101655760a09250600154916002548181925194848652602086015284015260608301526080820152f35b8280fd5b50346100b357816003193601126100b357805181810181811067ffffffffffffffff8211176101fb578252600f81526020906e135bd8dac8141c9a58d94811995959608a1b6020820152825193849260208452825192836020860152825b8481106101e557505050828201840152601f01601f19168101030190f35b81810183015188820188015287955082016101c7565b634e487b7160e01b84526041600452602484fd5b50346100b357816003193601126100b3576020905160038152f35b8390346100b357816003193601126100b35760ff60209254168152f3fea2646970667358221220a52394ac2063c80f647dda6dc36c8ebe22ef3c3b16bccf788bcd0406c832827464736f6c63430008180033",
  "linkReferences": {},
  "deployedLinkReferences": {}
}