{
  "_format": "hh-sol-artifact-1",
  "contractName": "TokenPairWrapper",
  "sourceName": "contracts/TokenPairWrapper.sol",
  "abi": [
    {
      "inputs": [
        {
          "internalType": "address",
          "name": "_bridge",
          "type": "address"
        },
        {
          "internalType": "address",
          "name": "_keyLogRegistry",
          "type": "address"
        }
      ],
      "stateMutability": "nonpayable",
      "type": "constructor"
    },
    {
      "inputs": [
        {
          "internalType": "address",
          "name": "owner",
          "type": "address"
        }
      ],
      "name": "OwnableInvalidOwner",
      "type": "error"
    },
    {
      "inputs": [
        {
          "internalType": "address",
          "name": "account",
          "type": "address"
        }
      ],
      "name": "OwnableUnauthorizedAccount",
      "type": "error"
    },
    {
      "anonymous": false,
      "inputs": [
        {
          "indexed": true,
          "internalType": "address",
          "name": "previousOwner",
          "type": "address"
        },
        {
          "indexed": true,
          "internalType": "address",
          "name": "newOwner",
          "type": "address"
        }
      ],
      "name": "OwnershipTransferred",
      "type": "event"
    },
    {
      "inputs": [
        {
          "components": [
            {
              "internalType": "address",
              "name": "originalToken",
              "type": "address"
            },
            {
              "internalType": "string",
              "name": "tokenName",
              "type": "string"
            },
            {
              "internalType": "string",
              "name": "tokenSymbol",
              "type": "string"
            },
            {
              "internalType": "bool",
              "name": "isCrossChain",
              "type": "bool"
            },
            {
              "internalType": "address",
              "name": "wrappedToken",
              "type": "address"
            }
          ],
          "internalType": "struct TokenPairWrapper.TokenPair[]",
          "name": "tokenPairs",
          "type": "tuple[]"
        },
        {
          "internalType": "bytes",
          "name": "currentPubKey",
          "type": "bytes"
        },
        {
          "internalType": "address",
          "name": "currentSigner",
          "type": "address"
        },
        {
          "internalType": "address",
          "name": "nextSigner",
          "type": "address"
        },
        {
          "internalType": "address",
          "name": "nextNextSigner",
          "type": "address"
        },
        {
          "internalType": "address",
          "name": "prevSigner",
          "type": "address"
        },
        {
          "internalType": "bytes",
          "name": "nextPubKey",
          "type": "bytes"
        },
        {
          "internalType": "address",
          "name": "nextNextNextSigner",
          "type": "address"
        }
      ],
      "name": "addMultipleTokenPairsAtomic",
      "outputs": [],
      "stateMutability": "payable",
      "type": "function"
    },
    {
      "inputs": [],
      "name": "bridge",
      "outputs": [
        {
          "internalType": "contract IBridge",
          "name": "",
          "type": "address"
        }
      ],
      "stateMutability": "view",
      "type": "function"
    },
    {
      "inputs": [],
      "name": "keyLogRegistry",
      "outputs": [
        {
          "internalType": "contract IKeyLogRegistry",
          "name": "",
          "type": "address"
        }
      ],
      "stateMutability": "view",
      "type": "function"
    },
    {
      "inputs": [],
      "name": "owner",
      "outputs": [
        {
          "internalType": "address",
          "name": "",
          "type": "address"
        }
      ],
      "stateMutability": "view",
      "type": "function"
    },
    {
      "inputs": [],
      "name": "renounceOwnership",
      "outputs": [],
      "stateMutability": "nonpayable",
      "type": "function"
    },
    {
      "inputs": [
        {
          "internalType": "address",
          "name": "newOwner",
          "type": "address"
        }
      ],
      "name": "transferOwnership",
      "outputs": [],
      "stateMutability": "nonpayable",
      "type": "function"
    },
    {
      "inputs": [],
      "name": "withdraw",
      "outputs": [],
      "stateMutability": "nonpayable",
      "type": "function"
    }
  ],
  "bytecode": "0x6080604090808252346200032a578181620028ab80380380916200002482856200037d565b8339810103126200032a576200003a81620003a1565b620000496020809301620003a1565b33156200031257600080546001600160a01b0319808216339081178455929490936001600160a01b0393620001449391929185167f8be0079c531659141344cd1fd0a4f28419497f9722a3daafe3b4186f6b6457e08880a383811693848660015416176001558216809560025416176002556200010f885191620000cd836200032f565b602983527f546f6b656e506169725772617070657220696e697469616c697a65642077697492838a820152683410213934b233b29d60b91b8b820152620003b6565b8751906200011d826200032f565b603182528782015270341025b2bca637b3a932b3b4b9ba393c9d60791b88820152620003b6565b620001868551620001558162000361565b601781527f546f6b656e5061697257726170706572206f776e65723a000000000000000000868201523390620003b6565b84518481600481638da5cb5b60e01b958682525afa9081156200030857908592918591620002c0575b50620001f1908751620001c28162000361565b601e81527f427269646765206f776e65722066726f6d20636f6e7374727563746f723a000085820152620003b6565b600486518094819382525afa918215620002b55780926200026c575b50506200025e917f4b65794c6f675265676973747279206f776e65722066726f6d20636f6e73747284519162000243836200032f565b60268352820152653ab1ba37b91d60d11b84820152620003b6565b5161245d90816200044e8239f35b9091508282813d8311620002ad575b6200028781836200037d565b81010312620002aa575090620002a16200025e92620003a1565b9091386200020d565b80fd5b503d6200027b565b8451903d90823e3d90fd5b8381939492503d831162000300575b620002db81836200037d565b81010312620002fc5790620001f1620002f58693620003a1565b90620001af565b8380fd5b503d620002cf565b86513d86823e3d90fd5b8351631e4fbdf760e01b815260006004820152602490fd5b600080fd5b606081019081106001600160401b038211176200034b57604052565b634e487b7160e01b600052604160045260246000fd5b604081019081106001600160401b038211176200034b57604052565b601f909101601f19168101906001600160401b038211908210176200034b57604052565b51906001600160a01b03821682036200032a57565b60405190602092602083019363319af33360e01b85526040602485015282519283606486015260005b84811062000438575050509162000425608482846000979596888481998501015260018060a01b03166044830152601f801991011681010360648101845201826200037d565b51906a636f6e736f6c652e6c6f675afa50565b818101830151868201608401528201620003df56fe608060405260043610156200001357600080fd5b6000803560e01c80633ccfd60b146200107f578063715018a614620010215780638da5cb5b1462000ff85780638e54461a1462000167578063b5057a7b146200013c578063e78cea9214620001115763f2fde38b146200007257600080fd5b346200010e5760203660031901126200010e576004356001600160a01b03818116918290036200010957620000a6620013c2565b8115620000f057600054826bffffffffffffffffffffffff60a01b821617600055167f8be0079c531659141344cd1fd0a4f28419497f9722a3daafe3b4186f6b6457e0600080a380f35b604051631e4fbdf760e01b815260048101849052602490fd5b600080fd5b80fd5b50346200010e57806003193601126200010e576001546040516001600160a01b039091168152602090f35b50346200010e57806003193601126200010e576002546040516001600160a01b039091168152602090f35b506101003660031901126200010e576001600160401b03600435116200010e573660236004350112156200010e576001600160401b0360043560040135116200010e573660246004356004013560051b6004350101116200010e57806024356001600160401b03811162000ff557620001e5903690600401620010cc565b6044356001600160a01b03811681036200084257606435916001600160a01b038316830362000ff1576084356001600160a01b038116810362000fed5760a435946001600160a01b038616860362000fe95760c4356001600160401b03811162000fe55762000259903690600401620010cc565b93909660e4359260018060a01b038416840362000fe1576200027a620013c2565b620002cd6040516200028c8162001142565b602681527f6164644d756c7469706c65546f6b656e506169727341746f6d69632063616c6c60208201526532b210313c9d60d11b60408201523390620013ef565b60018060a01b03600154166200030d81604051620002eb816200115e565b600f81526e213934b233b29030b2323932b9b99d60891b6020820152620013ef565b604051638da5cb5b60e01b80825290602081600481865afa801562000cec5762000368918e9162000fbd575b5060405162000348816200115e565b600d81526c213934b233b29037bbb732b91d60991b6020820152620013ef565b60018060a01b036002541690620003b78260405162000387816200115e565b601781527f4b65794c6f67526567697374727920616464726573733a0000000000000000006020820152620013ef565b604051908152602081600481855afa801562000cec5762000411918e9162000f99575b50604051620003e9816200115e565b601581527425b2bca637b3a932b3b4b9ba393c9037bbb732b91d60591b6020820152620013ef565b6040516397dc97cb60e01b8152602081600481855afa801562000cec5783918e9162000f75575b506200048e816040516200044c8162001142565b602981527f43757272656e74204b65794c6f67526567697374727920617574686f72697a65602082015268321031b0b63632b91d60b91b6040820152620013ef565b6001600160a01b03160362000deb575b50509950620004b360043560040135620011d9565b99620004c36040519b8c62001196565b600480350135808c52620004d790620011d9565b601f19013660208d0137899a5b600435600401358c106200084757509389989793899793600097936200058c89986200054960405162000517816200115e565b601e81527f5265676973746572696e67206b657920706169722077697468204554483a00006020820152349062001496565b6040519362000558856200117a565b8c8552604051946200056a866200117a565b8b865260206040519e8f90620005808262001125565b815201523691620011f1565b60408b8101919091526001600160a01b0388811660608d0181905286821660808e0152921660a08c015260c08b019190915260e08a018c90526101008a018c90526101208a019190915251986200061c90620005e88b6200117a565b8b8b5260405194620005fa866200117a565b8886526040519b6200060c8d62001125565b8d8d5260208d01523691620011f1565b60408a8101919091526001600160a01b0392831660608b0181905291831660808b015291841660a08a015260c089015260e08801899052610100880189905261012088019190915251916200070f90620006768462001142565b603584527f5265676973746572696e67206b657920706169723a2063757272656e745369676020850152746e65723d25732c206e6578745369676e65723d257360581b6040850152604051928391620006e960208401966307e763af60e51b88526060602486015260848501906200125c565b6001600160a01b0392831660448501529116606483015203601f19810183528262001196565b51906a636f6e736f6c652e6c6f675afa506001546001600160a01b031691823b15620008425762000779926200076685936040519586948593849363342489d160e11b85526040600486015260448501906200129e565b838103600319016024850152906200129e565b039134905af1801562000837576200081f575b50620007cf6040516200079f816200115e565b601f81527f4b6579207061697220726567697374726174696f6e2073756363656564656400602082015262001456565b6200081c604051620007e18162001142565b602281527f416c6c20746f6b656e207061697273206164646564207375636365737366756c6020820152616c7960f01b604082015262001456565b80f35b6200082a9062001111565b6200010e5780826200078c565b6040513d84823e3d90fd5b505050fd5b60248c60051b60043501013560c21960043536030181121562000ce85760a0908160231982600435013603011262000dcd576040519182818101106001600160401b03828501111762000dd5578201604052620008ab6024826004350101620010fc565b82526001600160401b036044826004350101351162000dcd57620008dd3660043583016044810135016024016200123b565b60208301526064816004350101356001600160401b03811162000dd157620009109060243691846004350101016200123b565b6040830152600435810160840135801515900362000dcd576004350160848101356060830152620009449060a401620010fc565b608082018190526001600160a01b03811662000d6157508051604051620009bc916001600160a01b0316906200097a8162001142565b602981527f4465706c6f79696e672057726170706564546f6b656e20666f72206f726967696020820152683730b62a37b5b2b71d60b91b6040820152620013ef565b60208101516040808301516001546002549251936001600160a01b039182169390911691906001600160401b03610f5d86019081119086111762000d4b578493929162000a2262000a3992610f5d620014cb88396080610f5d880181815201906200125c565b90610f5d860182036020610f5d880101526200125c565b916040610f5d850101526060610f5d8401015203908df0801562000d405760018060a01b03169062000aa38260405162000a73816200115e565b601981527f4465706c6f7965642057726170706564546f6b656e2061743a000000000000006020820152620013ef565b811562000cfb575b62000aed60405162000abd816200115e565b601a81527f43616c6c696e6720616464546f6b656e5061697220776974683a000000000000602082015262001456565b805160405162000b2d916001600160a01b03169062000b0c816200115e565b600e81526d37b934b3b4b730b62a37b5b2b71d60911b6020820152620013ef565b62000b608260405162000b40816200115e565b600d81526c3bb930b83832b22a37b5b2b71d60991b6020820152620013ef565b600080606083015115156040519062000b79826200115e565b600d82526c34b9a1b937b9b9a1b430b4b71d60991b602083015262000bd6604051809262000bc1602083019563c3b5563560e01b87526040602485015260648401906200125c565b90604483015203601f19810183528262001196565b51906a636f6e736f6c652e6c6f675afa5060015481516060909201516001600160a01b03918216929015159116823b1562000cf7579060648f9283604051958694859363334976c760e01b8552600485015260018060a01b038916602485015260448401525af1801562000cec57908d9162000cd0575b505062000c928d60405162000c62816200115e565b602081527f616464546f6b656e506169722073756363656564656420666f7220706169723a602082015262001496565b81518d101562000cbc576001600160a01b031660058d901b8201602001526001909b019a620004e4565b634e487b7160e01b8c52603260045260248cfd5b62000cdb9062001111565b62000ce8578b3862000c4d565b8b80fd5b6040513d8f823e3d90fd5b8e80fd5b60405162461bcd60e51b815260206004820152601e60248201527f57726170706564546f6b656e206465706c6f796d656e74206661696c656400006044820152606490fd5b6040513d8e823e3d90fd5b5050634e487b7160e01b8f52604160045260248ffd5b6040516001600160a01b038216929162000dc7919062000d818262001142565b602382527f5573696e67207072652d6465706c6f7965642057726170706564546f6b656e2060208301526230ba1d60e91b60408301526001600160a01b031690620013ef565b62000aab565b8c80fd5b8d80fd5b634e487b7160e01b600052604160045260246000fd5b803b1562000ce85760248c926040519e8f93849263cf8fbec960e01b845260048401525af1801562000f6a5762000f53575b899a5062000e7e60018060a01b036001541660405162000e3d8162001142565b602881527f536574204b65794c6f67526567697374727920617574686f72697a6564206361602082015267363632b9103a379d60c11b6040820152620013ef565b6002546040516397dc97cb60e01b815290602090829060049082906001600160a01b03165afa801562000f485762000f0a918c9162000f12575b5060405162000ec78162001142565b602a81527f5665726966696564204b65794c6f67526567697374727920617574686f72697a60208201526932b21031b0b63632b91d60b11b6040820152620013ef565b38806200049e565b62000f39915060203d60201162000f40575b62000f30818362001196565b810190620011b8565b3862000eb8565b503d62000f24565b6040513d8d823e3d90fd5b98909962000f619062001111565b97899062000e1d565b6040513d8c823e3d90fd5b62000f92915060203d60201162000f405762000f30818362001196565b3862000438565b62000fb6915060203d60201162000f405762000f30818362001196565b38620003da565b62000fda915060203d60201162000f405762000f30818362001196565b3862000339565b8980fd5b8780fd5b8680fd5b8580fd5b8480fd5b50fd5b50346200010e57806003193601126200010e57546040516001600160a01b039091168152602090f35b50346200010e57806003193601126200010e576200103e620013c2565b80546001600160a01b03198116825581906001600160a01b03167f8be0079c531659141344cd1fd0a4f28419497f9722a3daafe3b4186f6b6457e08280a380f35b50346200010e57806003193601126200010e576200109c620013c2565b8080808047818115620010c2575b3390f115620010b65780f35b604051903d90823e3d90fd5b506108fc620010aa565b9181601f8401121562000109578235916001600160401b0383116200010957602083818601950101116200010957565b35906001600160a01b03821682036200010957565b6001600160401b03811162000dd557604052565b61014081019081106001600160401b0382111762000dd557604052565b606081019081106001600160401b0382111762000dd557604052565b604081019081106001600160401b0382111762000dd557604052565b602081019081106001600160401b0382111762000dd557604052565b90601f801991011681019081106001600160401b0382111762000dd557604052565b908160209103126200010957516001600160a01b0381168103620001095790565b6001600160401b03811162000dd55760051b60200190565b9291926001600160401b03821162000dd557604051916200121d601f8201601f19166020018462001196565b82948184528183011162000109578281602093846000960137010152565b9080601f8301121562000109578160206200125993359101620011f1565b90565b919082519283825260005b84811062001289575050826000602080949584010152601f8019910116010190565b60208183018101518483018201520162001267565b906101409082518152620012c1602092838501519080858501528301906200125c565b91620012dc604093604086015184820360408601526200125c565b9160609060608601519460018060a01b03809616606083015260809580608089015116608084015260a0918160a08a01511660a085015260c0928260c08b01511660c086015260e09460e08b0151151560e082015261010084818d01511690820152610120809b01519a818a0391015286808b51998a8152019a01986000965b8988106200137257505050505050505050505090565b8a51805186168d52808a01518d8b0152808501518d8601528082015160ff168d830152808301518d840152808401518d85015286015185168c8701529a86019a998801996001909701966200135c565b6000546001600160a01b03163303620013d757565b60405163118cdaa760e01b8152336004820152602490fd5b60009190829162001443604051809262001423602083019563319af33360e01b87526040602485015260648401906200125c565b6001600160a01b0391909116604483015203601f19810183528262001196565b51906a636f6e736f6c652e6c6f675afa50565b60008091604051620014438162001487602082019463104c13eb60e21b86526020602484015260448301906200125c565b03601f19810183528262001196565b60009190829162001443604051809262000bc16020830195632d839cb360e21b87526040602485015260648401906200125c56fe608060405234620003685762000f5d803803806200001d816200036d565b9283398101608082820312620003685781516001600160401b0391908281116200036857816200004f91850162000393565b602091828501519084821162000368576200006c91860162000393565b92620000896060620000816040880162000405565b960162000405565b93825182811162000268576003918254916001958684811c941680156200035d575b8885101462000347578190601f94858111620002f1575b5088908583116001146200028a576000926200027e575b505060001982861b1c191690861b1783555b8051938411620002685760049586548681811c911680156200025d575b828210146200024857838111620001fd575b50809285116001146200018f575093839491849260009562000183575b50501b92600019911b1c19161790555b600580546001600160a01b039384166001600160a01b03199182161790915560068054929093169116179055604051610b4290816200041b8239f35b01519350388062000137565b92919084601f1981168860005285600020956000905b89838310620001e25750505010620001c7575b50505050811b01905562000147565b01519060f884600019921b161c1916905538808080620001b8565b858701518955909701969485019488935090810190620001a5565b87600052816000208480880160051c8201928489106200023e575b0160051c019087905b828110620002315750506200011a565b6000815501879062000221565b9250819262000218565b602288634e487b7160e01b6000525260246000fd5b90607f169062000108565b634e487b7160e01b600052604160045260246000fd5b015190503880620000d9565b90889350601f19831691876000528a6000209260005b8c828210620002da5750508411620002c1575b505050811b018355620000eb565b015160001983881b60f8161c19169055388080620002b3565b8385015186558c97909501949384019301620002a0565b90915085600052886000208580850160051c8201928b86106200033d575b918a91869594930160051c01915b8281106200032d575050620000c2565b600081558594508a91016200031d565b925081926200030f565b634e487b7160e01b600052602260045260246000fd5b93607f1693620000ab565b600080fd5b6040519190601f01601f191682016001600160401b038111838210176200026857604052565b919080601f84011215620003685782516001600160401b0381116200026857602090620003c9601f8201601f191683016200036d565b92818452828287010111620003685760005b818110620003f157508260009394955001015290565b8581018301518482018401528201620003db565b51906001600160a01b0382168203620003685756fe608060408181526004918236101561001657600080fd5b600092833560e01c91826306fdde031461065757508163095ea7b3146105ad57816318160ddd1461058e57816323b872dd14610488578163313ce5671461046c57816340c10f19146103af57816370a082311461037857816395d89b41146102735781639dc29fac1461019157508063a9059cbb1461014f578063b5057a7b14610127578063dd62ed3e146100df5763e78cea92146100b457600080fd5b346100db57816003193601126100db5760055490516001600160a01b039091168152602090f35b5080fd5b50346100db57806003193601126100db57806020926100fc610795565b6101046107b0565b6001600160a01b0391821683526001865283832091168252845220549051908152f35b50346100db57816003193601126100db5760065490516001600160a01b039091168152602090f35b50346100db57806003193601126100db5760209061018a61016e610795565b61018061017b82336108ae565b6107fe565b6024359033610a2e565b5160018152f35b839150346100db57826003193601126100db576101ac610795565b906024359060018060a01b036101c78160055416331461084a565b831692831561025c578385528460205285852054918383106102285750508184957fddf252ad1be2c89b69c2b068fc378daa952ba7f163c4a11628f55a4df523b3ef936020938688528785520381872055816002540360025551908152a380f35b865163391434e360e21b81526001600160a01b03909216908201908152602081018390526040810184905281906060010390fd5b8551634b637e8f60e11b8152808301869052602490fd5b8383346100db57816003193601126100db5780519180938054916001908360011c926001851694851561036e575b602095868610811461035b5785895290811561033757506001146102df575b6102db87876102d1828c03836107c6565b519182918261074c565b0390f35b81529295507f8a35acfbc15ff81a39ae7d344fd709f28e8600b4aa8c65c6b64bfe7fe36bd19b5b82841061032457505050826102db946102d1928201019486806102c0565b8054868501880152928601928101610306565b60ff19168887015250505050151560051b83010192506102d1826102db86806102c0565b634e487b7160e01b845260228352602484fd5b93607f16936102a1565b5050346100db5760203660031901126100db5760209181906001600160a01b036103a0610795565b16815280845220549051908152f35b919050346104685780600319360112610468576103ca610795565b60055460243592916001600160a01b03916103e8908316331461084a565b169283156104535760025490838201809211610440575084927fddf252ad1be2c89b69c2b068fc378daa952ba7f163c4a11628f55a4df523b3ef9260209260025585855284835280852082815401905551908152a380f35b634e487b7160e01b865260119052602485fd5b84602492519163ec442f0560e01b8352820152fd5b8280fd5b5050346100db57816003193601126100db576020905160128152f35b9050823461058b57606036600319011261058b576104a4610795565b6104ac6107b0565b91604435936104be61017b85856108ae565b6001600160a01b038316808352600160209081528784203385529052868320549160001983106104f7575b60208861018a898989610a2e565b86831061055f5781156105485733156105315750825260016020908152868320338452815291869020908590039055829061018a876104e9565b8751634a1406b160e11b8152908101849052602490fd5b875163e602df0560e01b8152908101849052602490fd5b8751637dc7a0d960e11b8152339181019182526020820193909352604081018790528291506060010390fd5b80fd5b5050346100db57816003193601126100db576020906002549051908152f35b9050346104685781600319360112610468576105c7610795565b602435903315610640576001600160a01b031691821561062957508083602095338152600187528181208582528752205582519081527f8c5be1e5ebec7d5bd14f71427d1e84f3dd0314c0f7b2291e5b200ac8c7c3b925843392a35160018152f35b8351634a1406b160e11b8152908101859052602490fd5b835163e602df0560e01b8152808401869052602490fd5b92915034610748578360031936011261074857600354600181811c918690828116801561073e575b602095868610821461072b575084885290811561070957506001146106b0575b6102db86866102d1828b03836107c6565b929550600383527fc2575a0e9e593c00f959f8c92f12db2869c3395a3b0502d05e2516446f71f85b5b8284106106f657505050826102db946102d192820101943861069f565b80548685018801529286019281016106d9565b60ff191687860152505050151560051b83010192506102d1826102db3861069f565b634e487b7160e01b845260229052602483fd5b93607f169361067f565b8380fd5b6020808252825181830181905290939260005b82811061078157505060409293506000838284010152601f8019910116010190565b81810186015184820160400152850161075f565b600435906001600160a01b03821682036107ab57565b600080fd5b602435906001600160a01b03821682036107ab57565b90601f8019910116810190811067ffffffffffffffff8211176107e857604052565b634e487b7160e01b600052604160045260246000fd5b1561080557565b60405162461bcd60e51b815260206004820152601c60248201527f496e76616c6964206b6579206c6f6720666f72207472616e73666572000000006044820152606490fd5b1561085157565b60405162461bcd60e51b815260206004820152601460248201527313db9b1e48189c9a5919d94818d85b8818d85b1b60621b6044820152606490fd5b51906001600160a01b03821682036107ab57565b519081151582036107ab57565b600654604080516324b9c44160e21b81526001600160a01b0393841660048201819052939290916101209182908490602490829088165afa918215610a2357600093849361092a575b5050506109075750505050600090565b60200151811691821492831561091e575b50505090565b16149050388080610918565b818193959294503d8511610a1c575b61094381836107c6565b81010392831261058b5761010080931261058b5783519383850185811067ffffffffffffffff821117610a0857815261097b8361088d565b85526109896020840161088d565b602086015261099981840161088d565b908501526109a96060830161088d565b60608501526109ba6080830161088d565b60808501526109cb60a083016108a1565b60a08501526109dc60c083016108a1565b60c085015260e082015190600382101561058b575060e0840152610a0091016108a1565b3880806108f7565b634e487b7160e01b83526041600452602483fd5b503d610939565b50513d6000823e3d90fd5b916001600160a01b03808416928315610af35716928315610ada5760009083825281602052604082205490838210610aa8575091604082827fddf252ad1be2c89b69c2b068fc378daa952ba7f163c4a11628f55a4df523b3ef958760209652828652038282205586815220818154019055604051908152a3565b60405163391434e360e21b81526001600160a01b03919091166004820152602481019190915260448101839052606490fd5b60405163ec442f0560e01b815260006004820152602490fd5b604051634b637e8f60e11b815260006004820152602490fdfea2646970667358221220c3e8c94a311bd2e0ebed9d7b0ad6a1242038326cbbb569f22ef01a8482b07b2c64736f6c63430008180033a26469706673582212206223cde53916b98047e494951cf38a2abec454794aa1f1afd3e44a7dc017568664736f6c63430008180033",
  "linkReferences": {},
  "deployedLinkReferences": {}
}