{
  "_format": "hh-sol-artifact-1",
  "contractName": "TokenPairWrapper",
  "sourceName": "contracts/TokenPairWrapper.sol",
  "abi": [
    {
      "inputs": [
        {
          "internalType": "address",
          "name": "_bridge",
          "type": "address"
        },
        {
          "internalType": "address",
          "name": "_keyLogRegistry",
          "type": "address"
        }
      ],
      "stateMutability": "nonpayable",
      "type": "constructor"
    },
    {
      "inputs": [
        {
          "internalType": "address",
          "name": "owner",
          "type": "address"
        }
      ],
      "name": "OwnableInvalidOwner",
      "type": "error"
    },
    {
      "inputs": [
        {
          "internalType": "address",
          "name": "account",
          "type": "address"
        }
      ],
      "name": "OwnableUnauthorizedAccount",
      "type": "error"
    },
    {
      "anonymous": false,
      "inputs": [
        {
          "indexed": true,
          "internalType": "address",
          "name": "previousOwner",
          "type": "address"
        },
        {
          "indexed": true,
          "internalType": "address",
          "name": "newOwner",
          "type": "address"
        }
      ],
      "name": "OwnershipTransferred",
      "type": "event"
    },
    {
      "inputs": [
        {
          "internalType": "address",
          "name": "originalToken",
          "type": "address"
        },
        {
          "internalType": "string",
          "name": "tokenName",
          "type": "string"
        },
        {
          "internalType": "string",
          "name": "tokenSymbol",
          "type": "string"
        },
        {
          "internalType": "bool",
          "name": "isCrossChain",
          "type": "bool"
        },
        {
          "internalType": "bytes",
          "name": "currentPubKey",
          "type": "bytes"
        },
        {
          "internalType": "address",
          "name": "currentSigner",
          "type": "address"
        },
        {
          "internalType": "address",
          "name": "nextSigner",
          "type": "address"
        },
        {
          "internalType": "address",
          "name": "nextNextSigner",
          "type": "address"
        },
        {
          "internalType": "address",
          "name": "prevSigner",
          "type": "address"
        },
        {
          "internalType": "bytes",
          "name": "nextPubKey",
          "type": "bytes"
        },
        {
          "internalType": "address",
          "name": "nextNextNextSigner",
          "type": "address"
        }
      ],
      "name": "addTokenPairAtomic",
      "outputs": [],
      "stateMutability": "payable",
      "type": "function"
    },
    {
      "inputs": [],
      "name": "bridge",
      "outputs": [
        {
          "internalType": "contract IBridge",
          "name": "",
          "type": "address"
        }
      ],
      "stateMutability": "view",
      "type": "function"
    },
    {
      "inputs": [],
      "name": "keyLogRegistry",
      "outputs": [
        {
          "internalType": "contract IKeyLogRegistry",
          "name": "",
          "type": "address"
        }
      ],
      "stateMutability": "view",
      "type": "function"
    },
    {
      "inputs": [],
      "name": "owner",
      "outputs": [
        {
          "internalType": "address",
          "name": "",
          "type": "address"
        }
      ],
      "stateMutability": "view",
      "type": "function"
    },
    {
      "inputs": [],
      "name": "renounceOwnership",
      "outputs": [],
      "stateMutability": "nonpayable",
      "type": "function"
    },
    {
      "inputs": [
        {
          "internalType": "address",
          "name": "newOwner",
          "type": "address"
        }
      ],
      "name": "transferOwnership",
      "outputs": [],
      "stateMutability": "nonpayable",
      "type": "function"
    },
    {
      "inputs": [],
      "name": "withdraw",
      "outputs": [],
      "stateMutability": "nonpayable",
      "type": "function"
    }
  ],
  "bytecode": "0x6080604090808252346200024c57818162002c3c803803809162000024828562000283565b8339810103126200024c576200003a81620002a7565b620000496020809301620002a7565b3315620002345760008054336001600160a01b031980831682178455929492916001600160a01b03919082167f8be0079c531659141344cd1fd0a4f28419497f9722a3daafe3b4186f6b6457e08780a380831693848360015416176001551690600254161760025584516060810181811060018060401b03821117620002205785926004949262000116928952602981527f546f6b656e506169725772617070657220696e697469616c697a65642077697485820152683410213934b233b29d60b91b89820152620002bc565b620001588651620001278162000251565b601781527f546f6b656e5061697257726170706572206f776e65723a000000000000000000848201523390620002bc565b8551638da5cb5b60e01b815292839182905afa91821562000215578092620001cc575b5050620001be917f427269646765206f776e65722066726f6d20636f6e7374727563746f723a0000845191620001b18362000251565b601e8352820152620002bc565b516128e89081620003548239f35b9091508282813d83116200020d575b620001e7818362000283565b810103126200020a57509062000201620001be92620002a7565b9091386200017b565b80fd5b503d620001db565b8451903d90823e3d90fd5b634e487b7160e01b85526041600452602485fd5b8351631e4fbdf760e01b815260006004820152602490fd5b600080fd5b604081019081106001600160401b038211176200026d57604052565b634e487b7160e01b600052604160045260246000fd5b601f909101601f19168101906001600160401b038211908210176200026d57604052565b51906001600160a01b03821682036200024c57565b60405190602092602083019363319af33360e01b85526040602485015282519283606486015260005b8481106200033e57505050916200032b608482846000979596888481998501015260018060a01b03166044830152601f8019910116810103606481018452018262000283565b51906a636f6e736f6c652e6c6f675afa50565b818101830151868201608401528201620002e556fe608060405260043610156200001357600080fd5b6000803560e01c80633ccfd60b1462000ab3578063715018a61462000a5557806376de8b5b146200018a5780638da5cb5b1462000161578063b5057a7b1462000136578063e78cea92146200010b5763f2fde38b146200007257600080fd5b346200010857602036600319011262000108576200008f62000b00565b6200009962000cf6565b6001600160a01b03908116908115620000ef57600054826bffffffffffffffffffffffff60a01b821617600055167f8be0079c531659141344cd1fd0a4f28419497f9722a3daafe3b4186f6b6457e0600080a380f35b604051631e4fbdf760e01b815260048101849052602490fd5b80fd5b503462000108578060031936011262000108576001546040516001600160a01b039091168152602090f35b503462000108578060031936011262000108576002546040516001600160a01b039091168152602090f35b50346200010857806003193601126200010857546040516001600160a01b039091168152602090f35b506101603660031901126200010857620001a362000b00565b60243567ffffffffffffffff8111620009e057620001c690369060040162000ba4565b60443567ffffffffffffffff811162000a5157620001e990369060040162000ba4565b906064358015158103620008ab5760843567ffffffffffffffff81116200088f576200021a90369060040162000c00565b909160a4356001600160a01b038116900362000a4d5760c4356001600160a01b038116900362000a4d5760e4356001600160a01b038116900362000a4d57610104356001600160a01b038116900362000a4d576101243567ffffffffffffffff811162000a49576200029190369060040162000c00565b9095909490610144356001600160a01b0381169003620008ba57620002b562000cf6565b620002f9604051620002c78162000b47565b601d81527f616464546f6b656e5061697241746f6d69632063616c6c65642062793a0000006020820152339062000d23565b8860018060a01b03600154166200033a81604051620003188162000b47565b600f81526e213934b233b29030b2323932b9b99d60891b602082015262000d23565b604051638da5cb5b60e01b8152602081600481855afa801562000a3e576200039391849162000a1a575b50604051620003738162000b47565b600d81526c213934b233b29037bbb732b91d60991b602082015262000d23565b6002546040516397dc97cb60e01b81526001600160a01b0390911690602081600481855afa8015620008845783918591620009e4575b506200041f81604051620003dd8162000b64565b602981527f43757272656e74204b65794c6f67526567697374727920617574686f72697a65602082015268321031b0b63632b91d60b91b604082015262000d23565b6001600160a01b03160362000922575b50505060018060a01b0360015416906040519283611a9f81011067ffffffffffffffff611a9f860111176200090e57839291620004856200049c92611a9f62000e1487396060611a9f8701818152019062000c52565b90611a9f850182036020611a9f8701015262000c52565b906040611a9f84010152039088f09586156200090357620004ff604051620004c48162000b47565b601981527f4465706c6f7965642057726170706564546f6b656e2061743a0000000000000060208201526001600160a01b0389169062000d23565b6001600160a01b03871615620008be57879662000553604051620005238162000b47565b601a81527f43616c6c696e6720616464546f6b656e5061697220776974683a000000000000602082015262000d8a565b6200058782604051620005668162000b47565b600e81526d37b934b3b4b730b62a37b5b2b71d60911b602082015262000d23565b620005c4604051620005998162000b47565b600d81526c3bb930b83832b22a37b5b2b71d60991b60208201526001600160a01b0383169062000d23565b600080604051620005d58162000b47565b600d81526c34b9a1b937b9b9a1b430b4b71d60991b602082015260405162000633816200061c602082019463c3b5563560e01b865260406024840152606483019062000c52565b891515604483015203601f19810183528262000b81565b51906a636f6e736f6c652e6c6f675afa506001546001600160a01b0316803b15620008ba5760405163334976c760e01b81526001600160a01b039384166004820152919092166024820152911515604483015286908290606490829084905af1908115620008af57869162000893575b5050620006e0604051620006b78162000b47565b6016815275185919151bdad95b94185a5c881cdd58d8d95959195960521b602082015262000d8a565b62000731604051620006f28162000b64565b602181527f5265676973746572696e672063757272656e74206b65792077697468204554486020820152601d60f91b60408201523460011c9062000dca565b6001546001600160a01b031691823b156200088f57604051635f42be8360e01b81529286928492839182916200077e9160c43591610104359160e43591849160a435916004890162000c94565b03913460011c905af19081156200088457849162000868575b5050620007e0604051620007ab8162000b47565b601e81527f526f746174696e6720746f206e657874206b65792077697468204554483a000060208201523460011c9062000dca565b6001546001600160a01b031691823b156200086357604051635f42be8360e01b81529284928492839182916200082d9160e4359160a435916101443591849160c435916004890162000c94565b03913460011c905af180156200085857620008455750f35b620008509062000b1c565b620001085780f35b6040513d84823e3d90fd5b505050fd5b620008739062000b1c565b6200088057823862000797565b5050fd5b6040513d86823e3d90fd5b8580fd5b6200089e9062000b1c565b620008ab578438620006a3565b8480fd5b6040513d88823e3d90fd5b8880fd5b60405162461bcd60e51b815260206004820152601e60248201527f57726170706564546f6b656e206465706c6f796d656e74206661696c656400006044820152606490fd5b6040513d89823e3d90fd5b634e487b7160e01b8b52604160045260248bfd5b803b15620009e05760248392604051948593849263cf8fbec960e01b845260048401525af18015620009d557620009bf575b50600154604051620009b6916001600160a01b031690620009758162000b64565b602881527f536574204b65794c6f67526567697374727920617574686f72697a6564206361602082015267363632b9103a379d60c11b604082015262000d23565b8838806200042f565b620009cd9099919962000b1c565b973862000954565b6040513d8c823e3d90fd5b8280fd5b62000a0b915060203d60201162000a12575b62000a02818362000b81565b81019062000c31565b38620003c9565b503d620009f6565b62000a37915060203d60201162000a125762000a02818362000b81565b3862000364565b6040513d85823e3d90fd5b8780fd5b8680fd5b8380fd5b5034620001085780600319360112620001085762000a7262000cf6565b80546001600160a01b03198116825581906001600160a01b03167f8be0079c531659141344cd1fd0a4f28419497f9722a3daafe3b4186f6b6457e08280a380f35b5034620001085780600319360112620001085762000ad062000cf6565b808080804781811562000af6575b3390f11562000aea5780f35b604051903d90823e3d90fd5b506108fc62000ade565b600435906001600160a01b038216820362000b1757565b600080fd5b67ffffffffffffffff811162000b3157604052565b634e487b7160e01b600052604160045260246000fd5b6040810190811067ffffffffffffffff82111762000b3157604052565b6060810190811067ffffffffffffffff82111762000b3157604052565b90601f8019910116810190811067ffffffffffffffff82111762000b3157604052565b81601f8201121562000b175780359067ffffffffffffffff821162000b31576040519262000bdd601f8401601f19166020018562000b81565b8284526020838301011162000b1757816000926020809301838601378301015290565b9181601f8401121562000b175782359167ffffffffffffffff831162000b17576020838186019501011162000b1757565b9081602091031262000b1757516001600160a01b038116810362000b175790565b919082519283825260005b84811062000c7f575050826000602080949584010152601f8019910116010190565b60208183018101518483018201520162000c5d565b93909560009660c0969499989360e087528060e088015280610100928389013788828289010152601f80199101168601019860018060a01b03948580948180941660208a01521660408801521660608601521660808401521660a08201520152565b6000546001600160a01b0316330362000d0b57565b60405163118cdaa760e01b8152336004820152602490fd5b60009190829162000d77604051809262000d57602083019563319af33360e01b875260406024850152606484019062000c52565b6001600160a01b0391909116604483015203601f19810183528262000b81565b51906a636f6e736f6c652e6c6f675afa50565b6000809160405162000d778162000dbb602082019463104c13eb60e21b865260206024840152604483019062000c52565b03601f19810183528262000b81565b60009190829162000d77604051809262000dfe6020830195632d839cb360e21b875260406024850152606484019062000c52565b90604483015203601f19810183528262000b8156fe610160604081815234620004aa5762001a9f8038038091620000228286620004af565b84398201606083820312620004aa5782516001600160401b039290838111620004aa578262000053918601620004f8565b9160209081860151858111620004aa57839162000072918801620004f8565b9501516001600160a01b03808216929091839003620004aa5783519084820182811088821117620003a957855260019485835281830195603160f81b87528751898111620003a95760038054918383811c931680156200049f575b868410146200048957601f928381116200043e575b508086848211600114620003cb57600091620003bf575b5060001982841b1c191690841b1781555b8b51918b8311620003a95760049c8d548581811c911680156200039e575b8882101462000389578e8382116200033e575b50508d87928511600114620002d35750938394918492600095620002c7575b50501b92600019911b1c19161789555b3315620002b157600580546001600160a01b03198082163390811790935595167f8be0079c531659141344cd1fd0a4f28419497f9722a3daafe3b4186f6b6457e0600080a3620001ba8762000553565b95610120968752620001cc84620006fb565b97610140988952838151910120938460e0525190209861010099808b524660a0528251938401947f8b73c3c69bb8fe3d512ecc4cf759cc79239f7b179b0ffacaa9a75d522b39400f86528385015260608401524660808401523060a084015260a0835260c0830198838a10908a11176200029c57508790525190206080523060c052600954161760095561124c938462000853853960805184610d8c015260a05184610e58015260c05184610d56015260e05184610ddb01525183610e010152518261063c015251816106660152f35b604190634e487b7160e01b6000525260246000fd5b51631e4fbdf760e01b81526000818a0152602490fd5b0151935038806200015a565b929190601f1985169360005284886000209460005b8a898383106200032657505050106200030b575b50505050811b0189556200016a565b01519060f884600019921b161c1916905538808080620002fc565b868601518955909701969485019488935001620002e8565b600052876000208380870160051c8201928a88106200037f575b0160051c019086905b828110620003725750508e6200013b565b6000815501869062000361565b9250819262000358565b60228f634e487b7160e01b6000525260246000fd5b90607f169062000128565b634e487b7160e01b600052604160045260246000fd5b90508b015138620000f9565b8592508c90601f1983168560005289600020928a6000915b8383106200041c57505050831162000403575b5050811b0181556200010a565b8d015160001983861b60f8161c191690553880620003f6565b948482949597989293960151815501940192019087949392918f8b90620003e3565b82600052866000208480840160051c8201928985106200047f575b0160051c019085905b82811062000472575050620000e2565b6000815501859062000462565b9250819262000459565b634e487b7160e01b600052602260045260246000fd5b92607f1692620000cd565b600080fd5b601f909101601f19168101906001600160401b03821190821017620003a957604052565b60005b838110620004e75750506000910152565b8181015183820152602001620004d6565b81601f82011215620004aa5780516001600160401b038111620003a957604051926200052f601f8301601f191660200185620004af565b81845260208284010111620004aa57620005509160208085019101620004d3565b90565b805160209081811015620005d15750601f8251116200058f57808251920151908083106200058057501790565b82600019910360031b1b161790565b604490620005c39260405193849263305a27a960e01b845280600485015282519283918260248701528686019101620004d3565b601f01601f19168101030190fd5b906001600160401b038211620003a957600654926001938481811c91168015620006f0575b838210146200048957601f8111620006b6575b5081601f84116001146200064a57509282939183926000946200063e575b50501b916000199060031b1c19161760065560ff90565b01519250388062000627565b919083601f198116600660005284600020946000905b888383106200069b575050501062000681575b505050811b0160065560ff90565b015160001960f88460031b161c1916905538808062000673565b85870151885590960195948501948793509081019062000660565b600660005284601f84600020920160051c820191601f860160051c015b828110620006e357505062000609565b60008155018590620006d3565b90607f1690620005f6565b805160209081811015620007285750601f8251116200058f57808251920151908083106200058057501790565b906001600160401b038211620003a957600754926001938481811c9116801562000847575b838210146200048957601f81116200080d575b5081601f8411600114620007a1575092829391839260009462000795575b50501b916000199060031b1c19161760075560ff90565b0151925038806200077e565b919083601f198116600760005284600020946000905b88838310620007f25750505010620007d8575b505050811b0160075560ff90565b015160001960f88460031b161c19169055388080620007ca565b858701518855909601959485019487935090810190620007b7565b600760005284601f84600020920160051c820191601f860160051c015b8281106200083a57505062000760565b600081550185906200082a565b90607f16906200074d56fe6080604081815260048036101561001557600080fd5b600092833560e01c90816306fdde0314610a4757508063095ea7b314610a1d57806318160ddd146109fe57806323b872dd1461090b578063313ce567146108ef5780633644e515146108cb57806340c10f191461081357806370a08231146107dc578063715018a61461077c5780637ecebe001461074457806384b0196e146106255780638da5cb5b146105fc5780638dd148021461057157806395d89b41146104825780639dc29fac146103a0578063a9059cbb1461036f578063d505accf14610207578063dd62ed3e146101be578063e78cea92146101915763f2fde38b146100ff57600080fd5b3461018d57602036600319011261018d57610118610b5f565b90610121610e7e565b6001600160a01b03918216928315610177575050600554826bffffffffffffffffffffffff60a01b821617600555167f8be0079c531659141344cd1fd0a4f28419497f9722a3daafe3b4186f6b6457e08380a380f35b51631e4fbdf760e01b8152908101849052602490fd5b8280fd5b5050346101ba57816003193601126101ba5760095490516001600160a01b039091168152602090f35b5080fd5b5050346101ba57806003193601126101ba57806020926101dc610b5f565b6101e4610b7a565b6001600160a01b0391821683526001865283832091168252845220549051908152f35b508290346101ba5760e03660031901126101ba57610223610b5f565b61022b610b7a565b906044359260643560843560ff8116810361036b578142116103545760018060a01b0390818516928389526008602052898920908154916001830190558a519060208201927f6e71edae12b1b97f4d1f60370fef10105fa2faae0126114a169c64845d6126c98452868d840152858a1660608401528a608084015260a083015260c082015260c0815260e0810181811067ffffffffffffffff821117610341578b5251902061030f91610306916102e0610d53565b908c519161190160f01b83526002830152602282015260c43591604260a4359220611101565b90929192611191565b168181036103265786610323878787610eaa565b80f35b87516325c0072360e11b815292830152602482015260449150fd5b634e487b7160e01b8b526041875260248bfd5b875163313c898160e11b8152808401839052602490fd5b8680fd5b5050346101ba57806003193601126101ba5760209061039961038f610b5f565b6024359033610c75565b5160018152f35b508290346101ba57826003193601126101ba576103bb610b5f565b906024359060018060a01b036103d681600954163314610c1e565b831692831561046b578385528460205285852054918383106104375750508184957fddf252ad1be2c89b69c2b068fc378daa952ba7f163c4a11628f55a4df523b3ef936020938688528785520381872055816002540360025551908152a380f35b865163391434e360e21b81526001600160a01b03909216908201908152602081018390526040810184905281906060010390fd5b8551634b637e8f60e11b8152808301869052602490fd5b50903461018d578260031936011261018d5780518381949084546104a581610b90565b91828552602096600192886001821691826000146105475750506001146104ec575b85886104e8896104d9848a0385610bfc565b51928284938452830190610b1f565b0390f35b815286935091907f8a35acfbc15ff81a39ae7d344fd709f28e8600b4aa8c65c6b64bfe7fe36bd19b5b82841061052f57505050820101816104d96104e8386104c7565b8054848a018601528895508794909301928101610515565b60ff19168882015294151560051b870190940194508593506104d992506104e891503890506104c7565b503461018d57602036600319011261018d5761058b610b5f565b610593610e7e565b6001600160a01b03169182156105c05750506bffffffffffffffffffffffff60a01b600954161760095580f35b906020606492519162461bcd60e51b83528201526016602482015275496e76616c696420427269646765206164647265737360501b6044820152fd5b5050346101ba57816003193601126101ba5760055490516001600160a01b039091168152602090f35b50903461018d578260031936011261018d576106607f0000000000000000000000000000000000000000000000000000000000000000610f3d565b9261068a7f0000000000000000000000000000000000000000000000000000000000000000611041565b90825192602092602085019585871067ffffffffffffffff88111761073157509260206106e78388966106da998b9996528686528151998a99600f60f81b8b5260e0868c015260e08b0190610b1f565b91898303908a0152610b1f565b924660608801523060808801528460a088015286840360c088015251928381520193925b82811061071a57505050500390f35b83518552869550938101939281019260010161070b565b634e487b7160e01b845260419052602483fd5b5050346101ba5760203660031901126101ba5760209181906001600160a01b0361076c610b5f565b1681526008845220549051908152f35b83346107d957806003193601126107d957610795610e7e565b600580546001600160a01b0319811690915581906001600160a01b03167f8be0079c531659141344cd1fd0a4f28419497f9722a3daafe3b4186f6b6457e08280a380f35b80fd5b5050346101ba5760203660031901126101ba5760209181906001600160a01b03610804610b5f565b16815280845220549051908152f35b50903461018d578060031936011261018d5761082d610b5f565b60095460243592916001600160a01b039161084b9083163314610c1e565b169283156108b657600254908382018092116108a3575084927fddf252ad1be2c89b69c2b068fc378daa952ba7f163c4a11628f55a4df523b3ef9260209260025585855284835280852082815401905551908152a380f35b634e487b7160e01b865260119052602485fd5b84602492519163ec442f0560e01b8352820152fd5b5050346101ba57816003193601126101ba576020906108e8610d53565b9051908152f35b5050346101ba57816003193601126101ba576020905160128152f35b5082346107d95760603660031901126107d957610926610b5f565b61092e610b7a565b916044359360018060a01b03831680835260016020528683203384526020528683205491600019831061096a575b602088610399898989610c75565b8683106109d25781156109bb5733156109a4575082526001602090815286832033845281529186902090859003905582906103998761095c565b8751634a1406b160e11b8152908101849052602490fd5b875163e602df0560e01b8152908101849052602490fd5b8751637dc7a0d960e11b8152339181019182526020820193909352604081018790528291506060010390fd5b5050346101ba57816003193601126101ba576020906002549051908152f35b5050346101ba57806003193601126101ba57602090610399610a3d610b5f565b6024359033610eaa565b8484346101ba57816003193601126101ba578282600354610a6781610b90565b9081845260209560019187600182169182600014610af8575050600114610a9c575b5050506104e892916104d9910385610bfc565b9190869350600383527fc2575a0e9e593c00f959f8c92f12db2869c3395a3b0502d05e2516446f71f85b5b828410610ae057505050820101816104d96104e8610a89565b8054848a018601528895508794909301928101610ac7565b60ff19168782015293151560051b860190930193508492506104d991506104e89050610a89565b919082519283825260005b848110610b4b575050826000602080949584010152601f8019910116010190565b602081830181015184830182015201610b2a565b600435906001600160a01b0382168203610b7557565b600080fd5b602435906001600160a01b0382168203610b7557565b90600182811c92168015610bc0575b6020831014610baa57565b634e487b7160e01b600052602260045260246000fd5b91607f1691610b9f565b6040810190811067ffffffffffffffff821117610be657604052565b634e487b7160e01b600052604160045260246000fd5b90601f8019910116810190811067ffffffffffffffff821117610be657604052565b15610c2557565b60405162461bcd60e51b815260206004820152602260248201527f4f6e6c79204272696467652063616e2063616c6c20746869732066756e63746960448201526137b760f11b6064820152608490fd5b916001600160a01b03808416928315610d3a5716928315610d215760009083825281602052604082205490838210610cef575091604082827fddf252ad1be2c89b69c2b068fc378daa952ba7f163c4a11628f55a4df523b3ef958760209652828652038282205586815220818154019055604051908152a3565b60405163391434e360e21b81526001600160a01b03919091166004820152602481019190915260448101839052606490fd5b60405163ec442f0560e01b815260006004820152602490fd5b604051634b637e8f60e11b815260006004820152602490fd5b307f00000000000000000000000000000000000000000000000000000000000000006001600160a01b03161480610e55575b15610dae577f000000000000000000000000000000000000000000000000000000000000000090565b60405160208101907f8b73c3c69bb8fe3d512ecc4cf759cc79239f7b179b0ffacaa9a75d522b39400f82527f000000000000000000000000000000000000000000000000000000000000000060408201527f000000000000000000000000000000000000000000000000000000000000000060608201524660808201523060a082015260a0815260c0810181811067ffffffffffffffff821117610be65760405251902090565b507f00000000000000000000000000000000000000000000000000000000000000004614610d85565b6005546001600160a01b03163303610e9257565b60405163118cdaa760e01b8152336004820152602490fd5b6001600160a01b03908116918215610f245716918215610f0b5760207f8c5be1e5ebec7d5bd14f71427d1e84f3dd0314c0f7b2291e5b200ac8c7c3b925918360005260018252604060002085600052825280604060002055604051908152a3565b604051634a1406b160e11b815260006004820152602490fd5b60405163e602df0560e01b815260006004820152602490fd5b60ff8114610f7b5760ff811690601f8211610f695760405191610f5f83610bca565b8252602082015290565b604051632cd44ac360e21b8152600490fd5b50604051600654816000610f8e83610b90565b8083529260209060019081811690811561101d5750600114610fbc575b5050610fb992500382610bfc565b90565b91509260066000527ff652222313e28459528d920b65115c16c04f3efc82aaedc97be59f3f377c0d3f936000925b8284106110055750610fb99450505081016020013880610fab565b85548785018301529485019486945092810192610fea565b91505060209250610fb994915060ff191682840152151560051b8201013880610fab565b60ff81146110635760ff811690601f8211610f695760405191610f5f83610bca565b5060405160075481600061107683610b90565b8083529260209060019081811690811561101d57506001146110a0575050610fb992500382610bfc565b91509260076000527fa66cc928b5edb82af9bd49922954155ab7b0942694bea4ce44661d9a8736c688936000925b8284106110e95750610fb99450505081016020013880610fab565b855487850183015294850194869450928101926110ce565b91907f7fffffffffffffffffffffffffffffff5d576e7357a4501ddfe92f46681b20a0841161118557926020929160ff608095604051948552168484015260408301526060820152600092839182805260015afa156111795780516001600160a01b0381161561117057918190565b50809160019190565b604051903d90823e3d90fd5b50505060009160039190565b600481101561120057806111a3575050565b600181036111bd5760405163f645eedf60e01b8152600490fd5b600281036111de5760405163fce698f760e01b815260048101839052602490fd5b6003146111e85750565b602490604051906335e2f38360e21b82526004820152fd5b634e487b7160e01b600052602160045260246000fdfea26469706673582212209c923afb989c249fd8d924edda8d4d4629fb10b419d8dcdfe393064b5686eb7464736f6c63430008180033a264697066735822122090c5fd842e1e0d5d82a91b30c6f0647ed2f46d025911ee70781d1fbf6f45e9af64736f6c63430008180033",
  "linkReferences": {},
  "deployedLinkReferences": {}
}