{
  "_format": "hh-sol-artifact-1",
  "contractName": "TokenPairWrapper",
  "sourceName": "contracts/TokenPairWrapper.sol",
  "abi": [
    {
      "inputs": [
        {
          "internalType": "address",
          "name": "_bridge",
          "type": "address"
        },
        {
          "internalType": "address",
          "name": "_keyLogRegistry",
          "type": "address"
        }
      ],
      "stateMutability": "nonpayable",
      "type": "constructor"
    },
    {
      "inputs": [
        {
          "internalType": "address",
          "name": "owner",
          "type": "address"
        }
      ],
      "name": "OwnableInvalidOwner",
      "type": "error"
    },
    {
      "inputs": [
        {
          "internalType": "address",
          "name": "account",
          "type": "address"
        }
      ],
      "name": "OwnableUnauthorizedAccount",
      "type": "error"
    },
    {
      "anonymous": false,
      "inputs": [
        {
          "indexed": true,
          "internalType": "address",
          "name": "previousOwner",
          "type": "address"
        },
        {
          "indexed": true,
          "internalType": "address",
          "name": "newOwner",
          "type": "address"
        }
      ],
      "name": "OwnershipTransferred",
      "type": "event"
    },
    {
      "inputs": [
        {
          "components": [
            {
              "internalType": "address",
              "name": "originalToken",
              "type": "address"
            },
            {
              "internalType": "string",
              "name": "tokenName",
              "type": "string"
            },
            {
              "internalType": "string",
              "name": "tokenSymbol",
              "type": "string"
            },
            {
              "internalType": "bool",
              "name": "isCrossChain",
              "type": "bool"
            },
            {
              "internalType": "address",
              "name": "wrappedToken",
              "type": "address"
            }
          ],
          "internalType": "struct TokenPairWrapper.TokenPair[]",
          "name": "tokenPairs",
          "type": "tuple[]"
        },
        {
          "internalType": "bytes",
          "name": "currentPubKey",
          "type": "bytes"
        },
        {
          "internalType": "address",
          "name": "currentSigner",
          "type": "address"
        },
        {
          "internalType": "address",
          "name": "nextSigner",
          "type": "address"
        },
        {
          "internalType": "address",
          "name": "nextNextSigner",
          "type": "address"
        },
        {
          "internalType": "address",
          "name": "prevSigner",
          "type": "address"
        },
        {
          "internalType": "bytes",
          "name": "nextPubKey",
          "type": "bytes"
        },
        {
          "internalType": "address",
          "name": "nextNextNextSigner",
          "type": "address"
        }
      ],
      "name": "addMultipleTokenPairsAtomic",
      "outputs": [],
      "stateMutability": "payable",
      "type": "function"
    },
    {
      "inputs": [],
      "name": "bridge",
      "outputs": [
        {
          "internalType": "contract IBridge",
          "name": "",
          "type": "address"
        }
      ],
      "stateMutability": "view",
      "type": "function"
    },
    {
      "inputs": [],
      "name": "keyLogRegistry",
      "outputs": [
        {
          "internalType": "contract IKeyLogRegistry",
          "name": "",
          "type": "address"
        }
      ],
      "stateMutability": "view",
      "type": "function"
    },
    {
      "inputs": [],
      "name": "owner",
      "outputs": [
        {
          "internalType": "address",
          "name": "",
          "type": "address"
        }
      ],
      "stateMutability": "view",
      "type": "function"
    },
    {
      "inputs": [],
      "name": "renounceOwnership",
      "outputs": [],
      "stateMutability": "nonpayable",
      "type": "function"
    },
    {
      "inputs": [
        {
          "internalType": "address",
          "name": "newOwner",
          "type": "address"
        }
      ],
      "name": "transferOwnership",
      "outputs": [],
      "stateMutability": "nonpayable",
      "type": "function"
    },
    {
      "inputs": [],
      "name": "withdraw",
      "outputs": [],
      "stateMutability": "nonpayable",
      "type": "function"
    }
  ],
  "bytecode": "0x6080604090808252346200032a5781816200333980380380916200002482856200037d565b8339810103126200032a576200003a81620003a1565b620000496020809301620003a1565b33156200031257600080546001600160a01b0319808216339081178455929490936001600160a01b0393620001449391929185167f8be0079c531659141344cd1fd0a4f28419497f9722a3daafe3b4186f6b6457e08880a383811693848660015416176001558216809560025416176002556200010f885191620000cd836200032f565b602983527f546f6b656e506169725772617070657220696e697469616c697a65642077697492838a820152683410213934b233b29d60b91b8b820152620003b6565b8751906200011d826200032f565b603182528782015270341025b2bca637b3a932b3b4b9ba393c9d60791b88820152620003b6565b620001868551620001558162000361565b601781527f546f6b656e5061697257726170706572206f776e65723a000000000000000000868201523390620003b6565b84518481600481638da5cb5b60e01b958682525afa9081156200030857908592918591620002c0575b50620001f1908751620001c28162000361565b601e81527f427269646765206f776e65722066726f6d20636f6e7374727563746f723a000085820152620003b6565b600486518094819382525afa918215620002b55780926200026c575b50506200025e917f4b65794c6f675265676973747279206f776e65722066726f6d20636f6e73747284519162000243836200032f565b60268352820152653ab1ba37b91d60d11b84820152620003b6565b51612eeb90816200044e8239f35b9091508282813d8311620002ad575b6200028781836200037d565b81010312620002aa575090620002a16200025e92620003a1565b9091386200020d565b80fd5b503d6200027b565b8451903d90823e3d90fd5b8381939492503d831162000300575b620002db81836200037d565b81010312620002fc5790620001f1620002f58693620003a1565b90620001af565b8380fd5b503d620002cf565b86513d86823e3d90fd5b8351631e4fbdf760e01b815260006004820152602490fd5b600080fd5b606081019081106001600160401b038211176200034b57604052565b634e487b7160e01b600052604160045260246000fd5b604081019081106001600160401b038211176200034b57604052565b601f909101601f19168101906001600160401b038211908210176200034b57604052565b51906001600160a01b03821682036200032a57565b60405190602092602083019363319af33360e01b85526040602485015282519283606486015260005b84811062000438575050509162000425608482846000979596888481998501015260018060a01b03166044830152601f801991011681010360648101845201826200037d565b51906a636f6e736f6c652e6c6f675afa50565b818101830151868201608401528201620003df56fe608060405260043610156200001357600080fd5b6000803560e01c80633ccfd60b146200103e578063715018a61462000fe05780638da5cb5b1462000fb75780638e54461a1462000167578063b5057a7b146200013c578063e78cea9214620001115763f2fde38b146200007257600080fd5b346200010e5760203660031901126200010e576004356001600160a01b03818116918290036200010957620000a662001381565b8115620000f057600054826bffffffffffffffffffffffff60a01b821617600055167f8be0079c531659141344cd1fd0a4f28419497f9722a3daafe3b4186f6b6457e0600080a380f35b604051631e4fbdf760e01b815260048101849052602490fd5b600080fd5b80fd5b50346200010e57806003193601126200010e576001546040516001600160a01b039091168152602090f35b50346200010e57806003193601126200010e576002546040516001600160a01b039091168152602090f35b506101003660031901126200010e576001600160401b03600435116200010e573660236004350112156200010e576001600160401b0360043560040135116200010e573660246004356004013560051b6004350101116200010e57806024356001600160401b03811162000fb457620001e59036906004016200108b565b6044356001600160a01b03811681036200084657606435916001600160a01b038316830362000fb0576084356001600160a01b038116810362000fac5760a435946001600160a01b038616860362000fa85760c4356001600160401b03811162000fa457620002599036906004016200108b565b93909660e4359260018060a01b038416840362000fa0576200027a62001381565b620002cd6040516200028c8162001101565b602681527f6164644d756c7469706c65546f6b656e506169727341746f6d69632063616c6c60208201526532b210313c9d60d11b60408201523390620013ae565b60018060a01b03600154166200030d81604051620002eb816200111d565b600f81526e213934b233b29030b2323932b9b99d60891b6020820152620013ae565b604051638da5cb5b60e01b8152602081600481855afa801562000d075762000366918d9162000f7c575b5060405162000346816200111d565b600d81526c213934b233b29037bbb732b91d60991b6020820152620013ae565b60018060a01b0360025416620003b48160405162000384816200111d565b601781527f4b65794c6f67526567697374727920616464726573733a0000000000000000006020820152620013ae565b604051638da5cb5b60e01b8152602081600481855afa801562000cf45762000415918e9162000f58575b50604051620003ed816200111d565b601581527425b2bca637b3a932b3b4b9ba393c9037bbb732b91d60591b6020820152620013ae565b6040516397dc97cb60e01b8152602081600481855afa801562000cf45783918e9162000f34575b506200049281604051620004508162001101565b602981527f43757272656e74204b65794c6f67526567697374727920617574686f72697a65602082015268321031b0b63632b91d60b91b6040820152620013ae565b6001600160a01b03160362000daa575b50509950620004b76004356004013562001198565b99620004c76040519b8c62001155565b600480350135808c52620004db9062001198565b601f19013660208d0137899a5b600435600401358c106200084b57509389989793899793600097936200059089986200054d6040516200051b816200111d565b601e81527f5265676973746572696e67206b657920706169722077697468204554483a00006020820152349062001455565b604051936200055c8562001139565b8c8552604051946200056e8662001139565b8b865260206040519e8f906200058482620010e4565b815201523691620011b0565b60408b8101919091526001600160a01b0388811660608d0181905286821660808e0152921660a08c015260c08b019190915260e08a018c90526101008a018c90526101208a019190915251986200062090620005ec8b62001139565b8b8b5260405194620005fe8662001139565b8886526040519b620006108d620010e4565b8d8d5260208d01523691620011b0565b60408a8101919091526001600160a01b0392831660608b0181905291831660808b015291841660a08a015260c089015260e088018990526101008801899052610120880191909152519162000713906200067a8462001101565b603584527f5265676973746572696e67206b657920706169723a2063757272656e745369676020850152746e65723d25732c206e6578745369676e65723d257360581b6040850152604051928391620006ed60208401966307e763af60e51b88526060602486015260848501906200121b565b6001600160a01b0392831660448501529116606483015203601f19810183528262001155565b51906a636f6e736f6c652e6c6f675afa506001546001600160a01b031691823b1562000846576200077d926200076a85936040519586948593849363342489d160e11b85526040600486015260448501906200125d565b838103600319016024850152906200125d565b039134905af180156200083b5762000823575b50620007d3604051620007a3816200111d565b601f81527f4b6579207061697220726567697374726174696f6e2073756363656564656400602082015262001415565b62000820604051620007e58162001101565b602281527f416c6c20746f6b656e207061697273206164646564207375636365737366756c6020820152616c7960f01b604082015262001415565b80f35b6200082e90620010d0565b6200010e57808262000790565b6040513d84823e3d90fd5b505050fd5b60248c60051b60043501013560c21960043536030181121562000cf05760a060043582013603602319011262000cf057604051908160a08101106001600160401b0360a08401111762000d945760a08201604052620008b16024826004350101620010bb565b82526001600160401b036044826004350101351162000d0357620008e3366004358301604481013501602401620011fa565b60208301526001600160401b036064826004350101351162000d035762000918366004358301606481013501602401620011fa565b6040830152600435810160840135801515900362000d035760043501608481013560608301526200094c9060a401620010bb565b608082018190526001600160a01b03811662000d2857508051604051620009c4916001600160a01b031690620009828162001101565b602981527f4465706c6f79696e672057726170706564546f6b656e20666f72206f726967696020820152683730b62a37b5b2b71d60b91b6040820152620013ae565b60208101516040808301516001546002549251936001600160a01b039182169390911691906001600160401b03611a2c86019081119086111762000d12578493929162000a2a62000a4192611a2c6200148a88396080611a2c880181815201906200121b565b90611a2c860182036020611a2c880101526200121b565b916040611a2c850101526060611a2c8401015203908df0801562000d075760018060a01b03169062000aab8260405162000a7b816200111d565b601981527f4465706c6f7965642057726170706564546f6b656e2061743a000000000000006020820152620013ae565b811562000d03575b62000af560405162000ac5816200111d565b601a81527f43616c6c696e6720616464546f6b656e5061697220776974683a000000000000602082015262001415565b805160405162000b35916001600160a01b03169062000b14816200111d565b600e81526d37b934b3b4b730b62a37b5b2b71d60911b6020820152620013ae565b62000b688260405162000b48816200111d565b600d81526c3bb930b83832b22a37b5b2b71d60991b6020820152620013ae565b600080606083015115156040519062000b81826200111d565b600d82526c34b9a1b937b9b9a1b430b4b71d60991b602083015262000bde604051809262000bc9602083019563c3b5563560e01b87526040602485015260648401906200121b565b90604483015203601f19810183528262001155565b51906a636f6e736f6c652e6c6f675afa5060015481516060909201516001600160a01b03918216929015159116823b1562000cff579060648f9283604051958694859363334976c760e01b8552600485015260018060a01b038916602485015260448401525af1801562000cf457908d9162000cd8575b505062000c9a8d60405162000c6a816200111d565b602081527f616464546f6b656e506169722073756363656564656420666f7220706169723a602082015262001455565b81518d101562000cc4576001600160a01b031660058d901b8201602001526001909b019a620004e8565b634e487b7160e01b8c52603260045260248cfd5b62000ce390620010d0565b62000cf0578b3862000c55565b8b80fd5b6040513d8f823e3d90fd5b8e80fd5b8c80fd5b6040513d8e823e3d90fd5b5050634e487b7160e01b8f52604160045260248ffd5b6040516001600160a01b038216929162000d8e919062000d488262001101565b602382527f5573696e67207072652d6465706c6f7965642057726170706564546f6b656e2060208301526230ba1d60e91b60408301526001600160a01b031690620013ae565b62000ab3565b634e487b7160e01b600052604160045260246000fd5b803b1562000cf05760248c926040519e8f93849263cf8fbec960e01b845260048401525af1801562000f295762000f12575b899a5062000e3d60018060a01b036001541660405162000dfc8162001101565b602881527f536574204b65794c6f67526567697374727920617574686f72697a6564206361602082015267363632b9103a379d60c11b6040820152620013ae565b6002546040516397dc97cb60e01b815290602090829060049082906001600160a01b03165afa801562000f075762000ec9918c9162000ed1575b5060405162000e868162001101565b602a81527f5665726966696564204b65794c6f67526567697374727920617574686f72697a60208201526932b21031b0b63632b91d60b11b6040820152620013ae565b3880620004a2565b62000ef8915060203d60201162000eff575b62000eef818362001155565b81019062001177565b3862000e77565b503d62000ee3565b6040513d8d823e3d90fd5b98909962000f2090620010d0565b97899062000ddc565b6040513d8c823e3d90fd5b62000f51915060203d60201162000eff5762000eef818362001155565b386200043c565b62000f75915060203d60201162000eff5762000eef818362001155565b38620003de565b62000f99915060203d60201162000eff5762000eef818362001155565b3862000337565b8980fd5b8780fd5b8680fd5b8580fd5b8480fd5b50fd5b50346200010e57806003193601126200010e57546040516001600160a01b039091168152602090f35b50346200010e57806003193601126200010e5762000ffd62001381565b80546001600160a01b03198116825581906001600160a01b03167f8be0079c531659141344cd1fd0a4f28419497f9722a3daafe3b4186f6b6457e08280a380f35b50346200010e57806003193601126200010e576200105b62001381565b808080804781811562001081575b3390f115620010755780f35b604051903d90823e3d90fd5b506108fc62001069565b9181601f8401121562000109578235916001600160401b0383116200010957602083818601950101116200010957565b35906001600160a01b03821682036200010957565b6001600160401b03811162000d9457604052565b61014081019081106001600160401b0382111762000d9457604052565b606081019081106001600160401b0382111762000d9457604052565b604081019081106001600160401b0382111762000d9457604052565b602081019081106001600160401b0382111762000d9457604052565b90601f801991011681019081106001600160401b0382111762000d9457604052565b908160209103126200010957516001600160a01b0381168103620001095790565b6001600160401b03811162000d945760051b60200190565b9291926001600160401b03821162000d945760405191620011dc601f8201601f19166020018462001155565b82948184528183011162000109578281602093846000960137010152565b9080601f8301121562000109578160206200121893359101620011b0565b90565b919082519283825260005b84811062001248575050826000602080949584010152601f8019910116010190565b60208183018101518483018201520162001226565b90610140908251815262001280602092838501519080858501528301906200121b565b916200129b604093604086015184820360408601526200121b565b9160609060608601519460018060a01b03809616606083015260809580608089015116608084015260a0918160a08a01511660a085015260c0928260c08b01511660c086015260e09460e08b0151151560e082015261010084818d01511690820152610120809b01519a818a0391015286808b51998a8152019a01986000965b8988106200133157505050505050505050505090565b8a51805186168d52808a01518d8b0152808501518d8601528082015160ff168d830152808301518d840152808401518d85015286015185168c8701529a86019a998801996001909701966200131b565b6000546001600160a01b031633036200139657565b60405163118cdaa760e01b8152336004820152602490fd5b600091908291620014026040518092620013e2602083019563319af33360e01b87526040602485015260648401906200121b565b6001600160a01b0391909116604483015203601f19810183528262001155565b51906a636f6e736f6c652e6c6f675afa50565b60008091604051620014028162001446602082019463104c13eb60e21b86526020602484015260448301906200121b565b03601f19810183528262001155565b60009190829162001402604051809262000bc96020830195632d839cb360e21b87526040602485015260648401906200121b56fe610160604081815234620004775762001a2c80380380916200002282866200047c565b8439820191608081840312620004775780516001600160401b03929083811162000477578462000054918401620004c5565b916020948582015190858211620004775762000072918301620004c5565b946200008e60606200008685850162000520565b930162000520565b90835190848201828110888211176200037657855260019485835281830195603160f81b87528751898111620003765760038054918383811c931680156200046c575b868410146200045657601f928381116200040b575b50808684821160011462000398576000916200038c575b5060001982841b1c191690841b1781555b8b51918b8311620003765760049c8d548581811c911680156200036b575b8882101462000356578e8382116200030b575b50508d87928511600114620002a0575093839491849260009562000294575b50501b92600019911b1c19161789555b620001798762000535565b956101209687526200018b84620006da565b97610140988952838151910120938460e0525190209861010099808b524660a0528251938401947f8b73c3c69bb8fe3d512ecc4cf759cc79239f7b179b0ffacaa9a75d522b39400f86528385015260608401524660808401523060a084015260a0835260c0830198838a10908a11176200027f57508790525190206080523060c052600880546001600160a01b039384166001600160a01b031991821617909155600980549290931691161790556111fa938462000832853960805184610c88015260a05184610d54015260c05184610c52015260e05184610cd701525183610cfd0152518261051a015251816105440152f35b604190634e487b7160e01b6000525260246000fd5b0151935038806200015e565b929190601f1985169360005284886000209460005b8a89838310620002f35750505010620002d8575b50505050811b0189556200016e565b01519060f884600019921b161c1916905538808080620002c9565b868601518955909701969485019488935001620002b5565b600052876000208380870160051c8201928a88106200034c575b0160051c019086905b8281106200033f5750508e6200013f565b600081550186906200032e565b9250819262000325565b60228f634e487b7160e01b6000525260246000fd5b90607f16906200012c565b634e487b7160e01b600052604160045260246000fd5b90508b015138620000fd565b8592508c90601f1983168560005289600020928a6000915b838310620003e9575050508311620003d0575b5050811b0181556200010e565b8d015160001983861b60f8161c191690553880620003c3565b948482949597989293960151815501940192019087949392918f8b90620003b0565b82600052866000208480840160051c8201928985106200044c575b0160051c019085905b8281106200043f575050620000e6565b600081550185906200042f565b9250819262000426565b634e487b7160e01b600052602260045260246000fd5b92607f1692620000d1565b600080fd5b601f909101601f19168101906001600160401b038211908210176200037657604052565b60005b838110620004b45750506000910152565b8181015183820152602001620004a3565b81601f82011215620004775780516001600160401b038111620003765760405192620004fc601f8301601f1916602001856200047c565b8184526020828401011162000477576200051d9160208085019101620004a0565b90565b51906001600160a01b03821682036200047757565b80516020919082811015620005b5575090601f8251116200057357808251920151908083106200056457501790565b82600019910360031b1b161790565b604490620005a79260405193849263305a27a960e01b845280600485015282519283918260248701528686019101620004a0565b601f01601f19168101030190fd5b6001600160401b03811162000376576005928354926001938481811c91168015620006cf575b838210146200045657601f811162000698575b5081601f84116001146200062e575092829391839260009462000622575b50501b916000199060031b1c191617905560ff90565b0151925038806200060c565b919083601f1981168760005284600020946000905b888383106200067d575050501062000663575b505050811b01905560ff90565b015160001960f88460031b161c1916905538808062000656565b85870151885590960195948501948793509081019062000643565b8560005284601f846000209201871c820191601f8601881c015b828110620006c2575050620005ee565b60008155018590620006b2565b90607f1690620005db565b805160209081811015620007075750601f8251116200057357808251920151908083106200056457501790565b906001600160401b0382116200037657600654926001938481811c9116801562000826575b838210146200045657601f8111620007ec575b5081601f841160011462000780575092829391839260009462000774575b50501b916000199060031b1c19161760065560ff90565b0151925038806200075d565b919083601f198116600660005284600020946000905b88838310620007d15750505010620007b7575b505050811b0160065560ff90565b015160001960f88460031b161c19169055388080620007a9565b85870151885590960195948501948793509081019062000796565b600660005284601f84600020920160051c820191601f860160051c015b828110620008195750506200073f565b6000815501859062000809565b90607f16906200072c56fe608060408181526004918236101561001657600080fd5b600092833560e01c91826306fdde03146108d757508163095ea7b3146108ad57816318160ddd1461088e57816323b872dd14610789578163313ce5671461076d5781633644e5151461074957816340c10f191461069157816370a082311461065a5781637ecebe001461062257816384b0196e1461050257816395d89b411461040e5781639dc29fac14610329578163a9059cbb146102e4578163b5057a7b146102bb578163d505accf1461015357508063dd62ed3e1461010b5763e78cea92146100e057600080fd5b3461010757816003193601126101075760085490516001600160a01b039091168152602090f35b5080fd5b5034610107578060031936011261010757806020926101286109ef565b610130610a0a565b6001600160a01b0391821683526001865283832091168252845220549051908152f35b839150346101075760e03660031901126101075761016f6109ef565b610177610a0a565b906044359260643560843560ff811681036102b7578142116102a05760018060a01b0390818516928389526007602052898920908154916001830190558a519060208201927f6e71edae12b1b97f4d1f60370fef10105fa2faae0126114a169c64845d6126c98452868d840152858a1660608401528a608084015260a083015260c082015260c0815260e0810181811067ffffffffffffffff82111761028d578b5251902061025b916102529161022c610c4f565b908c519161190160f01b83526002830152602282015260c43591604260a43592206110af565b9092919261113f565b16818103610272578661026f878787610d7a565b80f35b87516325c0072360e11b815292830152602482015260449150fd5b634e487b7160e01b8b526041875260248bfd5b875163313c898160e11b8152808401839052602490fd5b8680fd5b50503461010757816003193601126101075760095490516001600160a01b039091168152602090f35b5050346101075780600319360112610107576102fe6109ef565b916103098333610acf565b15610326575061031f6020926024359033610e0d565b5160018152f35b80fd5b839150346101075782600319360112610107576103446109ef565b6008549091602435916001600160a01b03908116330361040a5783169283156103f3578385528460205285852054918383106103bf5750508184957fddf252ad1be2c89b69c2b068fc378daa952ba7f163c4a11628f55a4df523b3ef936020938688528785520381872055816002540360025551908152a380f35b865163391434e360e21b81526001600160a01b03909216908201908152602081018390526040810184905281906060010390fd5b8551634b637e8f60e11b8152808301869052602490fd5b8480fd5b919050346104fe57826003193601126104fe57805183819490845461043281610a20565b91828552602096600192886001821691826000146104d4575050600114610479575b858861047589610466848a0385610a8c565b519282849384528301906109af565b0390f35b815286935091907f8a35acfbc15ff81a39ae7d344fd709f28e8600b4aa8c65c6b64bfe7fe36bd19b5b8284106104bc575050508201018161046661047538610454565b8054848a0186015288955087949093019281016104a2565b60ff19168882015294151560051b8701909401945085935061046692506104759150389050610454565b8280fd5b919050346104fe57826003193601126104fe5761053e7f0000000000000000000000000000000000000000000000000000000000000000610eeb565b926105687f0000000000000000000000000000000000000000000000000000000000000000610fef565b90825192602092602085019585871067ffffffffffffffff88111761060f57509260206105c58388966105b8998b9996528686528151998a99600f60f81b8b5260e0868c015260e08b01906109af565b91898303908a01526109af565b924660608801523060808801528460a088015286840360c088015251928381520193925b8281106105f857505050500390f35b8351855286955093810193928101926001016105e9565b634e487b7160e01b845260419052602483fd5b5050346101075760203660031901126101075760209181906001600160a01b0361064a6109ef565b1681526007845220549051908152f35b5050346101075760203660031901126101075760209181906001600160a01b036106826109ef565b16815280845220549051908152f35b919050346104fe57806003193601126104fe576106ac6109ef565b60085460243592916001600160a01b0391821633036107455716928315610730576002549083820180921161071d575084927fddf252ad1be2c89b69c2b068fc378daa952ba7f163c4a11628f55a4df523b3ef9260209260025585855284835280852082815401905551908152a380f35b634e487b7160e01b865260119052602485fd5b84602492519163ec442f0560e01b8352820152fd5b8580fd5b505034610107578160031936011261010757602090610766610c4f565b9051908152f35b5050346101075781600319360112610107576020905160128152f35b90508234610326576060366003190112610326576107a56109ef565b6107ad610a0a565b91604435936107bc8484610acf565b15610107576001600160a01b038316808352600160209081528784203385529052868320549160001983106107fa575b60208861031f898989610e0d565b86831061086257811561084b5733156108345750825260016020908152868320338452815291869020908590039055829061031f876107ec565b8751634a1406b160e11b8152908101849052602490fd5b875163e602df0560e01b8152908101849052602490fd5b8751637dc7a0d960e11b8152339181019182526020820193909352604081018790528291506060010390fd5b5050346101075781600319360112610107576020906002549051908152f35b50503461010757806003193601126101075760209061031f6108cd6109ef565b6024359033610d7a565b84843461010757816003193601126101075782826003546108f781610a20565b908184526020956001918760018216918260001461098857505060011461092c575b5050506104759291610466910385610a8c565b9190869350600383527fc2575a0e9e593c00f959f8c92f12db2869c3395a3b0502d05e2516446f71f85b5b8284106109705750505082010181610466610475610919565b8054848a018601528895508794909301928101610957565b60ff19168782015293151560051b8601909301935084925061046691506104759050610919565b919082519283825260005b8481106109db575050826000602080949584010152601f8019910116010190565b6020818301810151848301820152016109ba565b600435906001600160a01b0382168203610a0557565b600080fd5b602435906001600160a01b0382168203610a0557565b90600182811c92168015610a50575b6020831014610a3a57565b634e487b7160e01b600052602260045260246000fd5b91607f1691610a2f565b6040810190811067ffffffffffffffff821117610a7657604052565b634e487b7160e01b600052604160045260246000fd5b90601f8019910116810190811067ffffffffffffffff821117610a7657604052565b51906001600160a01b0382168203610a0557565b51908115158203610a0557565b600954604080516324b9c44160e21b81526001600160a01b0393841660048201819052939290916101209182908490602490829088165afa918215610c44576000938493610b4b575b505050610b285750505050600090565b602001518116918214928315610b3f575b50505090565b16149050388080610b39565b818193959294503d8511610c3d575b610b648183610a8c565b810103928312610326576101008093126103265783519383850185811067ffffffffffffffff821117610c29578152610b9c83610aae565b8552610baa60208401610aae565b6020860152610bba818401610aae565b90850152610bca60608301610aae565b6060850152610bdb60808301610aae565b6080850152610bec60a08301610ac2565b60a0850152610bfd60c08301610ac2565b60c085015260e0820151906003821015610326575060e0840152610c219101610ac2565b388080610b18565b634e487b7160e01b83526041600452602483fd5b503d610b5a565b50513d6000823e3d90fd5b307f00000000000000000000000000000000000000000000000000000000000000006001600160a01b03161480610d51575b15610caa577f000000000000000000000000000000000000000000000000000000000000000090565b60405160208101907f8b73c3c69bb8fe3d512ecc4cf759cc79239f7b179b0ffacaa9a75d522b39400f82527f000000000000000000000000000000000000000000000000000000000000000060408201527f000000000000000000000000000000000000000000000000000000000000000060608201524660808201523060a082015260a0815260c0810181811067ffffffffffffffff821117610a765760405251902090565b507f00000000000000000000000000000000000000000000000000000000000000004614610c81565b6001600160a01b03908116918215610df45716918215610ddb5760207f8c5be1e5ebec7d5bd14f71427d1e84f3dd0314c0f7b2291e5b200ac8c7c3b925918360005260018252604060002085600052825280604060002055604051908152a3565b604051634a1406b160e11b815260006004820152602490fd5b60405163e602df0560e01b815260006004820152602490fd5b916001600160a01b03808416928315610ed25716928315610eb95760009083825281602052604082205490838210610e87575091604082827fddf252ad1be2c89b69c2b068fc378daa952ba7f163c4a11628f55a4df523b3ef958760209652828652038282205586815220818154019055604051908152a3565b60405163391434e360e21b81526001600160a01b03919091166004820152602481019190915260448101839052606490fd5b60405163ec442f0560e01b815260006004820152602490fd5b604051634b637e8f60e11b815260006004820152602490fd5b60ff8114610f295760ff811690601f8211610f175760405191610f0d83610a5a565b8252602082015290565b604051632cd44ac360e21b8152600490fd5b50604051600554816000610f3c83610a20565b80835292602090600190818116908115610fcb5750600114610f6a575b5050610f6792500382610a8c565b90565b91509260056000527f036b6384b5eca791c62761152d0c79bb0604c104a5fb6f4eb0703f3154bb3db0936000925b828410610fb35750610f679450505081016020013880610f59565b85548785018301529485019486945092810192610f98565b91505060209250610f6794915060ff191682840152151560051b8201013880610f59565b60ff81146110115760ff811690601f8211610f175760405191610f0d83610a5a565b5060405160065481600061102483610a20565b80835292602090600190818116908115610fcb575060011461104e575050610f6792500382610a8c565b91509260066000527ff652222313e28459528d920b65115c16c04f3efc82aaedc97be59f3f377c0d3f936000925b8284106110975750610f679450505081016020013880610f59565b8554878501830152948501948694509281019261107c565b91907f7fffffffffffffffffffffffffffffff5d576e7357a4501ddfe92f46681b20a0841161113357926020929160ff608095604051948552168484015260408301526060820152600092839182805260015afa156111275780516001600160a01b0381161561111e57918190565b50809160019190565b604051903d90823e3d90fd5b50505060009160039190565b60048110156111ae5780611151575050565b6001810361116b5760405163f645eedf60e01b8152600490fd5b6002810361118c5760405163fce698f760e01b815260048101839052602490fd5b6003146111965750565b602490604051906335e2f38360e21b82526004820152fd5b634e487b7160e01b600052602160045260246000fdfea2646970667358221220b795fa50e5767d9775d1eea6283ccacf9cd51f086091d71f972f86533319c81264736f6c63430008180033a2646970667358221220c0a8651a11fc30f5ce58d477a053bcb99ea911dd78022cefe19ae40a7999faa864736f6c63430008180033",
  "linkReferences": {},
  "deployedLinkReferences": {}
}