{
  "_format": "hh-sol-artifact-1",
  "contractName": "WrappedTokenUpgrade",
  "sourceName": "contracts/WrappedTokenUpgrade.sol",
  "abi": [
    {
      "inputs": [],
      "stateMutability": "nonpayable",
      "type": "constructor"
    },
    {
      "inputs": [
        {
          "internalType": "address",
          "name": "target",
          "type": "address"
        }
      ],
      "name": "AddressEmptyCode",
      "type": "error"
    },
    {
      "inputs": [],
      "name": "ECDSAInvalidSignature",
      "type": "error"
    },
    {
      "inputs": [
        {
          "internalType": "uint256",
          "name": "length",
          "type": "uint256"
        }
      ],
      "name": "ECDSAInvalidSignatureLength",
      "type": "error"
    },
    {
      "inputs": [
        {
          "internalType": "bytes32",
          "name": "s",
          "type": "bytes32"
        }
      ],
      "name": "ECDSAInvalidSignatureS",
      "type": "error"
    },
    {
      "inputs": [
        {
          "internalType": "address",
          "name": "implementation",
          "type": "address"
        }
      ],
      "name": "ERC1967InvalidImplementation",
      "type": "error"
    },
    {
      "inputs": [],
      "name": "ERC1967NonPayable",
      "type": "error"
    },
    {
      "inputs": [
        {
          "internalType": "address",
          "name": "spender",
          "type": "address"
        },
        {
          "internalType": "uint256",
          "name": "allowance",
          "type": "uint256"
        },
        {
          "internalType": "uint256",
          "name": "needed",
          "type": "uint256"
        }
      ],
      "name": "ERC20InsufficientAllowance",
      "type": "error"
    },
    {
      "inputs": [
        {
          "internalType": "address",
          "name": "sender",
          "type": "address"
        },
        {
          "internalType": "uint256",
          "name": "balance",
          "type": "uint256"
        },
        {
          "internalType": "uint256",
          "name": "needed",
          "type": "uint256"
        }
      ],
      "name": "ERC20InsufficientBalance",
      "type": "error"
    },
    {
      "inputs": [
        {
          "internalType": "address",
          "name": "approver",
          "type": "address"
        }
      ],
      "name": "ERC20InvalidApprover",
      "type": "error"
    },
    {
      "inputs": [
        {
          "internalType": "address",
          "name": "receiver",
          "type": "address"
        }
      ],
      "name": "ERC20InvalidReceiver",
      "type": "error"
    },
    {
      "inputs": [
        {
          "internalType": "address",
          "name": "sender",
          "type": "address"
        }
      ],
      "name": "ERC20InvalidSender",
      "type": "error"
    },
    {
      "inputs": [
        {
          "internalType": "address",
          "name": "spender",
          "type": "address"
        }
      ],
      "name": "ERC20InvalidSpender",
      "type": "error"
    },
    {
      "inputs": [
        {
          "internalType": "uint256",
          "name": "deadline",
          "type": "uint256"
        }
      ],
      "name": "ERC2612ExpiredSignature",
      "type": "error"
    },
    {
      "inputs": [
        {
          "internalType": "address",
          "name": "signer",
          "type": "address"
        },
        {
          "internalType": "address",
          "name": "owner",
          "type": "address"
        }
      ],
      "name": "ERC2612InvalidSigner",
      "type": "error"
    },
    {
      "inputs": [],
      "name": "FailedCall",
      "type": "error"
    },
    {
      "inputs": [
        {
          "internalType": "address",
          "name": "account",
          "type": "address"
        },
        {
          "internalType": "uint256",
          "name": "currentNonce",
          "type": "uint256"
        }
      ],
      "name": "InvalidAccountNonce",
      "type": "error"
    },
    {
      "inputs": [],
      "name": "InvalidInitialization",
      "type": "error"
    },
    {
      "inputs": [],
      "name": "NotInitializing",
      "type": "error"
    },
    {
      "inputs": [
        {
          "internalType": "address",
          "name": "owner",
          "type": "address"
        }
      ],
      "name": "OwnableInvalidOwner",
      "type": "error"
    },
    {
      "inputs": [
        {
          "internalType": "address",
          "name": "account",
          "type": "address"
        }
      ],
      "name": "OwnableUnauthorizedAccount",
      "type": "error"
    },
    {
      "inputs": [],
      "name": "UUPSUnauthorizedCallContext",
      "type": "error"
    },
    {
      "inputs": [
        {
          "internalType": "bytes32",
          "name": "slot",
          "type": "bytes32"
        }
      ],
      "name": "UUPSUnsupportedProxiableUUID",
      "type": "error"
    },
    {
      "anonymous": false,
      "inputs": [
        {
          "indexed": true,
          "internalType": "address",
          "name": "owner",
          "type": "address"
        },
        {
          "indexed": true,
          "internalType": "address",
          "name": "spender",
          "type": "address"
        },
        {
          "indexed": false,
          "internalType": "uint256",
          "name": "value",
          "type": "uint256"
        }
      ],
      "name": "Approval",
      "type": "event"
    },
    {
      "anonymous": false,
      "inputs": [
        {
          "indexed": true,
          "internalType": "address",
          "name": "oldBridge",
          "type": "address"
        },
        {
          "indexed": true,
          "internalType": "address",
          "name": "newBridge",
          "type": "address"
        }
      ],
      "name": "BridgeUpdated",
      "type": "event"
    },
    {
      "anonymous": false,
      "inputs": [],
      "name": "EIP712DomainChanged",
      "type": "event"
    },
    {
      "anonymous": false,
      "inputs": [
        {
          "indexed": false,
          "internalType": "uint64",
          "name": "version",
          "type": "uint64"
        }
      ],
      "name": "Initialized",
      "type": "event"
    },
    {
      "anonymous": false,
      "inputs": [
        {
          "indexed": true,
          "internalType": "address",
          "name": "previousOwner",
          "type": "address"
        },
        {
          "indexed": true,
          "internalType": "address",
          "name": "newOwner",
          "type": "address"
        }
      ],
      "name": "OwnershipTransferred",
      "type": "event"
    },
    {
      "anonymous": false,
      "inputs": [
        {
          "indexed": true,
          "internalType": "address",
          "name": "from",
          "type": "address"
        },
        {
          "indexed": true,
          "internalType": "address",
          "name": "to",
          "type": "address"
        },
        {
          "indexed": false,
          "internalType": "uint256",
          "name": "value",
          "type": "uint256"
        }
      ],
      "name": "Transfer",
      "type": "event"
    },
    {
      "anonymous": false,
      "inputs": [
        {
          "indexed": true,
          "internalType": "address",
          "name": "implementation",
          "type": "address"
        }
      ],
      "name": "Upgraded",
      "type": "event"
    },
    {
      "inputs": [],
      "name": "DOMAIN_SEPARATOR",
      "outputs": [
        {
          "internalType": "bytes32",
          "name": "",
          "type": "bytes32"
        }
      ],
      "stateMutability": "view",
      "type": "function"
    },
    {
      "inputs": [],
      "name": "UPGRADE_INTERFACE_VERSION",
      "outputs": [
        {
          "internalType": "string",
          "name": "",
          "type": "string"
        }
      ],
      "stateMutability": "view",
      "type": "function"
    },
    {
      "inputs": [
        {
          "internalType": "address",
          "name": "owner",
          "type": "address"
        },
        {
          "internalType": "address",
          "name": "spender",
          "type": "address"
        }
      ],
      "name": "allowance",
      "outputs": [
        {
          "internalType": "uint256",
          "name": "",
          "type": "uint256"
        }
      ],
      "stateMutability": "view",
      "type": "function"
    },
    {
      "inputs": [
        {
          "internalType": "address",
          "name": "spender",
          "type": "address"
        },
        {
          "internalType": "uint256",
          "name": "value",
          "type": "uint256"
        }
      ],
      "name": "approve",
      "outputs": [
        {
          "internalType": "bool",
          "name": "",
          "type": "bool"
        }
      ],
      "stateMutability": "nonpayable",
      "type": "function"
    },
    {
      "inputs": [
        {
          "internalType": "address",
          "name": "account",
          "type": "address"
        }
      ],
      "name": "balanceOf",
      "outputs": [
        {
          "internalType": "uint256",
          "name": "",
          "type": "uint256"
        }
      ],
      "stateMutability": "view",
      "type": "function"
    },
    {
      "inputs": [],
      "name": "bridge",
      "outputs": [
        {
          "internalType": "address",
          "name": "",
          "type": "address"
        }
      ],
      "stateMutability": "view",
      "type": "function"
    },
    {
      "inputs": [
        {
          "internalType": "address",
          "name": "from",
          "type": "address"
        },
        {
          "internalType": "uint256",
          "name": "amount",
          "type": "uint256"
        }
      ],
      "name": "burn",
      "outputs": [],
      "stateMutability": "nonpayable",
      "type": "function"
    },
    {
      "inputs": [],
      "name": "decimals",
      "outputs": [
        {
          "internalType": "uint8",
          "name": "",
          "type": "uint8"
        }
      ],
      "stateMutability": "view",
      "type": "function"
    },
    {
      "inputs": [],
      "name": "eip712Domain",
      "outputs": [
        {
          "internalType": "bytes1",
          "name": "fields",
          "type": "bytes1"
        },
        {
          "internalType": "string",
          "name": "name",
          "type": "string"
        },
        {
          "internalType": "string",
          "name": "version",
          "type": "string"
        },
        {
          "internalType": "uint256",
          "name": "chainId",
          "type": "uint256"
        },
        {
          "internalType": "address",
          "name": "verifyingContract",
          "type": "address"
        },
        {
          "internalType": "bytes32",
          "name": "salt",
          "type": "bytes32"
        },
        {
          "internalType": "uint256[]",
          "name": "extensions",
          "type": "uint256[]"
        }
      ],
      "stateMutability": "view",
      "type": "function"
    },
    {
      "inputs": [],
      "name": "getTestString",
      "outputs": [
        {
          "internalType": "string",
          "name": "",
          "type": "string"
        }
      ],
      "stateMutability": "pure",
      "type": "function"
    },
    {
      "inputs": [
        {
          "internalType": "string",
          "name": "name",
          "type": "string"
        },
        {
          "internalType": "string",
          "name": "symbol",
          "type": "string"
        },
        {
          "internalType": "address",
          "name": "_bridge",
          "type": "address"
        },
        {
          "internalType": "address",
          "name": "_keyLogRegistry",
          "type": "address"
        },
        {
          "internalType": "uint8",
          "name": "decimals_",
          "type": "uint8"
        }
      ],
      "name": "initialize",
      "outputs": [],
      "stateMutability": "nonpayable",
      "type": "function"
    },
    {
      "inputs": [],
      "name": "keyLogRegistry",
      "outputs": [
        {
          "internalType": "address",
          "name": "",
          "type": "address"
        }
      ],
      "stateMutability": "view",
      "type": "function"
    },
    {
      "inputs": [
        {
          "internalType": "address",
          "name": "to",
          "type": "address"
        },
        {
          "internalType": "uint256",
          "name": "amount",
          "type": "uint256"
        }
      ],
      "name": "mint",
      "outputs": [],
      "stateMutability": "nonpayable",
      "type": "function"
    },
    {
      "inputs": [],
      "name": "name",
      "outputs": [
        {
          "internalType": "string",
          "name": "",
          "type": "string"
        }
      ],
      "stateMutability": "view",
      "type": "function"
    },
    {
      "inputs": [
        {
          "internalType": "address",
          "name": "owner",
          "type": "address"
        }
      ],
      "name": "nonces",
      "outputs": [
        {
          "internalType": "uint256",
          "name": "",
          "type": "uint256"
        }
      ],
      "stateMutability": "view",
      "type": "function"
    },
    {
      "inputs": [],
      "name": "owner",
      "outputs": [
        {
          "internalType": "address",
          "name": "",
          "type": "address"
        }
      ],
      "stateMutability": "view",
      "type": "function"
    },
    {
      "inputs": [
        {
          "internalType": "address",
          "name": "owner",
          "type": "address"
        },
        {
          "internalType": "address",
          "name": "spender",
          "type": "address"
        },
        {
          "internalType": "uint256",
          "name": "value",
          "type": "uint256"
        },
        {
          "internalType": "uint256",
          "name": "deadline",
          "type": "uint256"
        },
        {
          "internalType": "uint8",
          "name": "v",
          "type": "uint8"
        },
        {
          "internalType": "bytes32",
          "name": "r",
          "type": "bytes32"
        },
        {
          "internalType": "bytes32",
          "name": "s",
          "type": "bytes32"
        }
      ],
      "name": "permit",
      "outputs": [],
      "stateMutability": "nonpayable",
      "type": "function"
    },
    {
      "inputs": [],
      "name": "proxiableUUID",
      "outputs": [
        {
          "internalType": "bytes32",
          "name": "",
          "type": "bytes32"
        }
      ],
      "stateMutability": "view",
      "type": "function"
    },
    {
      "inputs": [],
      "name": "renounceOwnership",
      "outputs": [],
      "stateMutability": "nonpayable",
      "type": "function"
    },
    {
      "inputs": [],
      "name": "symbol",
      "outputs": [
        {
          "internalType": "string",
          "name": "",
          "type": "string"
        }
      ],
      "stateMutability": "view",
      "type": "function"
    },
    {
      "inputs": [],
      "name": "totalSupply",
      "outputs": [
        {
          "internalType": "uint256",
          "name": "",
          "type": "uint256"
        }
      ],
      "stateMutability": "view",
      "type": "function"
    },
    {
      "inputs": [
        {
          "internalType": "address",
          "name": "to",
          "type": "address"
        },
        {
          "internalType": "uint256",
          "name": "amount",
          "type": "uint256"
        }
      ],
      "name": "transfer",
      "outputs": [
        {
          "internalType": "bool",
          "name": "",
          "type": "bool"
        }
      ],
      "stateMutability": "nonpayable",
      "type": "function"
    },
    {
      "inputs": [
        {
          "internalType": "address",
          "name": "from",
          "type": "address"
        },
        {
          "internalType": "address",
          "name": "to",
          "type": "address"
        },
        {
          "internalType": "uint256",
          "name": "amount",
          "type": "uint256"
        }
      ],
      "name": "transferFrom",
      "outputs": [
        {
          "internalType": "bool",
          "name": "",
          "type": "bool"
        }
      ],
      "stateMutability": "nonpayable",
      "type": "function"
    },
    {
      "inputs": [
        {
          "internalType": "address",
          "name": "newOwner",
          "type": "address"
        }
      ],
      "name": "transferOwnership",
      "outputs": [],
      "stateMutability": "nonpayable",
      "type": "function"
    },
    {
      "inputs": [
        {
          "internalType": "address",
          "name": "newImplementation",
          "type": "address"
        },
        {
          "internalType": "bytes",
          "name": "data",
          "type": "bytes"
        }
      ],
      "name": "upgradeToAndCall",
      "outputs": [],
      "stateMutability": "payable",
      "type": "function"
    }
  ],
  "bytecode": "0x60a060405230608052348015610013575f80fd5b5061001c610021565b6100d3565b7ff0c57e16840df040f15088dc2f81fe391c3923bec73e23a9662efc9c229c6a00805468010000000000000000900460ff16156100715760405163f92ee8a960e01b815260040160405180910390fd5b80546001600160401b03908116146100d05780546001600160401b0319166001600160401b0390811782556040519081527fc7f505b2f371ae2175ee4913f4499e1f2633a7b5936321eed1cdaeb6115181d29060200160405180910390a15b50565b608051611eba6100f95f395f8181610c1201528181610c3b0152610dcb0152611eba5ff3fe608060405260043610610161575f3560e01c8063715018a6116100cd578063a9059cbb11610087578063d505accf11610062578063d505accf1461044b578063dd62ed3e1461046a578063e78cea9214610489578063f2fde38b146104a7575f80fd5b8063a9059cbb146103dd578063ad3cb1cc146103fc578063b5057a7b1461042c575f80fd5b8063715018a6146103245780637ecebe001461033857806384b0196e146103575780638da5cb5b1461037e57806395d89b41146103aa5780639dc29fac146103be575f80fd5b80633644e5151161011e5780633644e5151461028a57806340c10f191461029e5780634f1ef286146102bf57806352d1902d146102d2578063651d8366146102e657806370a0823114610305575f80fd5b806306fdde0314610165578063095ea7b31461018f57806318160ddd146101be57806323b872dd146101fb5780632f91be481461021a578063313ce5671461025f575b5f80fd5b348015610170575f80fd5b506101796104c6565b60405161018691906118ac565b60405180910390f35b34801561019a575f80fd5b506101ae6101a93660046118d2565b61056b565b6040519015158152602001610186565b3480156101c9575f80fd5b507f52c63247e1f47db19d5ce0460030c497f067ca4cebf71ba98eeadabe20bace02545b604051908152602001610186565b348015610206575f80fd5b506101ae6102153660046118fc565b610584565b348015610225575f80fd5b5060408051808201909152601a81527f55706772616465642057726170706564546f6b656e20763130210000000000006020820152610179565b34801561026a575f80fd5b50600154600160a01b900460ff1660405160ff9091168152602001610186565b348015610295575f80fd5b506101ed6105cc565b3480156102a9575f80fd5b506102bd6102b83660046118d2565b6105da565b005b6102bd6102cd3660046119c1565b610611565b3480156102dd575f80fd5b506101ed61062c565b3480156102f1575f80fd5b506102bd610300366004611a54565b610647565b348015610310575f80fd5b506101ed61031f366004611ae8565b6107b7565b34801561032f575f80fd5b506102bd6107e7565b348015610343575f80fd5b506101ed610352366004611ae8565b6107fa565b348015610362575f80fd5b5061036b610804565b6040516101869796959493929190611b03565b348015610389575f80fd5b506103926108ad565b6040516001600160a01b039091168152602001610186565b3480156103b5575f80fd5b50610179610921565b3480156103c9575f80fd5b506102bd6103d83660046118d2565b61095f565b3480156103e8575f80fd5b506101ae6103f73660046118d2565b610992565b348015610407575f80fd5b50610179604051806040016040528060058152602001640352e302e360dc1b81525081565b348015610437575f80fd5b50600154610392906001600160a01b031681565b348015610456575f80fd5b506102bd610465366004611b9a565b6109c6565b348015610475575f80fd5b506101ed610484366004611c03565b610b0f565b348015610494575f80fd5b505f54610392906001600160a01b031681565b3480156104b2575f80fd5b506102bd6104c1366004611ae8565b610b58565b60605f5f80516020611e258339815191525b90508060030180546104e990611c3a565b80601f016020809104026020016040519081016040528092919081815260200182805461051590611c3a565b80156105605780601f1061053757610100808354040283529160200191610560565b820191905f5260205f20905b81548152906001019060200180831161054357829003601f168201915b505050505091505090565b5f33610578818585610b95565b60019150505b92915050565b5f80546001600160a01b031633146105b75760405162461bcd60e51b81526004016105ae90611c72565b60405180910390fd5b6105c2848484610ba7565b90505b9392505050565b5f6105d5610bca565b905090565b5f546001600160a01b031633146106035760405162461bcd60e51b81526004016105ae90611c72565b61060d8282610bd3565b5050565b610619610c07565b61062282610cab565b61060d8282610d04565b5f610635610dc0565b505f80516020611e6583398151915290565b7ff0c57e16840df040f15088dc2f81fe391c3923bec73e23a9662efc9c229c6a008054600160401b810460ff16159067ffffffffffffffff165f8115801561068c5750825b90505f8267ffffffffffffffff1660011480156106a85750303b155b9050811580156106b6575080155b156106d45760405163f92ee8a960e01b815260040160405180910390fd5b845467ffffffffffffffff1916600117855583156106fe57845460ff60401b1916600160401b1785555b6107088a8a610e09565b6107118a610e1b565b61071a88610e46565b610722610e57565b5f80546001600160a01b0319166001600160a01b038a811691909117909155600180549189166001600160a81b031990921691909117600160a01b60ff89160217905583156107ab57845460ff60401b19168555604051600181527fc7f505b2f371ae2175ee4913f4499e1f2633a7b5936321eed1cdaeb6115181d29060200160405180910390a15b50505050505050505050565b5f805f80516020611e258339815191525b6001600160a01b039093165f9081526020939093525050604090205490565b6107ef610e5f565b6107f85f610e91565b565b5f61057e82610f01565b5f60608082808083815f80516020611e45833981519152805490915015801561082f57506001810154155b6108735760405162461bcd60e51b81526020600482015260156024820152741152540dcc4c8e88155b9a5b9a5d1a585b1a5e9959605a1b60448201526064016105ae565b61087b610f29565b610883610f67565b604080515f80825260208201909252600f60f81b9c939b5091995046985030975095509350915050565b5f805f9054906101000a90046001600160a01b03166001600160a01b031663893d20e86040518163ffffffff1660e01b8152600401602060405180830381865afa1580156108fd573d5f803e3d5ffd5b505050506040513d601f19601f820116820180604052508101906105d59190611ca0565b7f52c63247e1f47db19d5ce0460030c497f067ca4cebf71ba98eeadabe20bace0480546060915f80516020611e25833981519152916104e990611c3a565b5f546001600160a01b031633146109885760405162461bcd60e51b81526004016105ae90611c72565b61060d8282610f7d565b5f80546001600160a01b031633146109bc5760405162461bcd60e51b81526004016105ae90611c72565b6105c58383610fb1565b834211156109ea5760405163313c898160e11b8152600481018590526024016105ae565b5f7f6e71edae12b1b97f4d1f60370fef10105fa2faae0126114a169c64845d6126c9888888610a548c6001600160a01b03165f9081527f5ab42ced628888259c08ac98db1eb0cf702fc1501344311d8b100cd1bfe4bb006020526040902080546001810190915590565b6040805160208101969096526001600160a01b0394851690860152929091166060840152608083015260a082015260c0810186905260e0016040516020818303038152906040528051906020012090505f610aae82610fbe565b90505f610abd82878787610fea565b9050896001600160a01b0316816001600160a01b031614610b04576040516325c0072360e11b81526001600160a01b0380831660048301528b1660248201526044016105ae565b6107ab8a8a8a610b95565b6001600160a01b039182165f9081527f52c63247e1f47db19d5ce0460030c497f067ca4cebf71ba98eeadabe20bace016020908152604080832093909416825291909152205490565b610b60610e5f565b6001600160a01b038116610b8957604051631e4fbdf760e01b81525f60048201526024016105ae565b610b9281610e91565b50565b610ba28383836001611016565b505050565b5f33610bb48582856110fa565b610bbf85858561115e565b506001949350505050565b5f6105d56111bb565b6001600160a01b038216610bfc5760405163ec442f0560e01b81525f60048201526024016105ae565b61060d5f838361122e565b306001600160a01b037f0000000000000000000000000000000000000000000000000000000000000000161480610c8d57507f00000000000000000000000000000000000000000000000000000000000000006001600160a01b0316610c815f80516020611e65833981519152546001600160a01b031690565b6001600160a01b031614155b156107f85760405163703e46dd60e11b815260040160405180910390fd5b5f546001600160a01b03163314610b925760405162461bcd60e51b815260206004820152601760248201527f4f6e6c79206272696467652063616e207570677261646500000000000000000060448201526064016105ae565b816001600160a01b03166352d1902d6040518163ffffffff1660e01b8152600401602060405180830381865afa925050508015610d5e575060408051601f3d908101601f19168201909252610d5b91810190611cbb565b60015b610d8657604051634c9c8ce360e01b81526001600160a01b03831660048201526024016105ae565b5f80516020611e658339815191528114610db657604051632a87526960e21b8152600481018290526024016105ae565b610ba28383611367565b306001600160a01b037f000000000000000000000000000000000000000000000000000000000000000016146107f85760405163703e46dd60e11b815260040160405180910390fd5b610e116113bc565b61060d8282611405565b610e236113bc565b610b9281604051806040016040528060018152602001603160f81b815250611455565b610e4e6113bc565b610b92816114b4565b6107f86113bc565b33610e686108ad565b6001600160a01b0316146107f85760405163118cdaa760e01b81523360048201526024016105ae565b7f9016d09d72d40fdae2fd8ceac6b6234c7706214fd39c1cd1e609a0528c19930080546001600160a01b031981166001600160a01b03848116918217845560405192169182907f8be0079c531659141344cd1fd0a4f28419497f9722a3daafe3b4186f6b6457e0905f90a3505050565b5f807f5ab42ced628888259c08ac98db1eb0cf702fc1501344311d8b100cd1bfe4bb006107c8565b7fa16a46d94261c7517cc8ff89f61c0ce93598e3c849801011dee649a6a557d10280546060915f80516020611e45833981519152916104e990611c3a565b60605f5f80516020611e458339815191526104d8565b6001600160a01b038216610fa657604051634b637e8f60e11b81525f60048201526024016105ae565b61060d825f8361122e565b5f3361057881858561115e565b5f61057e610fca610bca565b8360405161190160f01b8152600281019290925260228201526042902090565b5f805f80610ffa888888886114bc565b92509250925061100a8282611584565b50909695505050505050565b5f80516020611e258339815191526001600160a01b03851661104d5760405163e602df0560e01b81525f60048201526024016105ae565b6001600160a01b03841661107657604051634a1406b160e11b81525f60048201526024016105ae565b6001600160a01b038086165f908152600183016020908152604080832093881683529290522083905581156110f357836001600160a01b0316856001600160a01b03167f8c5be1e5ebec7d5bd14f71427d1e84f3dd0314c0f7b2291e5b200ac8c7c3b925856040516110ea91815260200190565b60405180910390a35b5050505050565b5f6111058484610b0f565b90505f19811015611158578181101561114a57604051637dc7a0d960e11b81526001600160a01b038416600482015260248101829052604481018390526064016105ae565b61115884848484035f611016565b50505050565b6001600160a01b03831661118757604051634b637e8f60e11b81525f60048201526024016105ae565b6001600160a01b0382166111b05760405163ec442f0560e01b81525f60048201526024016105ae565b610ba283838361122e565b5f7f8b73c3c69bb8fe3d512ecc4cf759cc79239f7b179b0ffacaa9a75d522b39400f6111e561163c565b6111ed6116a4565b60408051602081019490945283019190915260608201524660808201523060a082015260c00160405160208183030381529060405280519060200120905090565b5f80516020611e258339815191526001600160a01b0384166112685781816002015f82825461125d9190611cd2565b909155506112d89050565b6001600160a01b0384165f90815260208290526040902054828110156112ba5760405163391434e360e21b81526001600160a01b038616600482015260248101829052604481018490526064016105ae565b6001600160a01b0385165f9081526020839052604090209083900390555b6001600160a01b0383166112f6576002810180548390039055611314565b6001600160a01b0383165f9081526020829052604090208054830190555b826001600160a01b0316846001600160a01b03167fddf252ad1be2c89b69c2b068fc378daa952ba7f163c4a11628f55a4df523b3ef8460405161135991815260200190565b60405180910390a350505050565b611370826116e6565b6040516001600160a01b038316907fbc7cd75a20ee27fd9adebab32041f755214dbc6bffa90cc0225b39da2e5c2d3b905f90a28051156113b457610ba28282611749565b61060d6117bb565b7ff0c57e16840df040f15088dc2f81fe391c3923bec73e23a9662efc9c229c6a0054600160401b900460ff166107f857604051631afcd79f60e31b815260040160405180910390fd5b61140d6113bc565b5f80516020611e258339815191527f52c63247e1f47db19d5ce0460030c497f067ca4cebf71ba98eeadabe20bace036114468482611d35565b50600481016111588382611d35565b61145d6113bc565b5f80516020611e458339815191527fa16a46d94261c7517cc8ff89f61c0ce93598e3c849801011dee649a6a557d1026114968482611d35565b50600381016114a58382611d35565b505f8082556001909101555050565b610b606113bc565b5f80807f7fffffffffffffffffffffffffffffff5d576e7357a4501ddfe92f46681b20a08411156114f557505f9150600390508261157a565b604080515f808252602082018084528a905260ff891692820192909252606081018790526080810186905260019060a0016020604051602081039080840390855afa158015611546573d5f803e3d5ffd5b5050604051601f1901519150506001600160a01b03811661157157505f92506001915082905061157a565b92505f91508190505b9450945094915050565b5f82600381111561159757611597611df5565b036115a0575050565b60018260038111156115b4576115b4611df5565b036115d25760405163f645eedf60e01b815260040160405180910390fd5b60028260038111156115e6576115e6611df5565b036116075760405163fce698f760e01b8152600481018290526024016105ae565b600382600381111561161b5761161b611df5565b0361060d576040516335e2f38360e21b8152600481018290526024016105ae565b5f5f80516020611e4583398151915281611654610f29565b80519091501561166c57805160209091012092915050565b8154801561167b579392505050565b7fc5d2460186f7233c927e7db2dcc703c0e500b653ca82273b7bfad8045d85a470935050505090565b5f5f80516020611e45833981519152816116bc610f67565b8051909150156116d457805160209091012092915050565b6001820154801561167b579392505050565b806001600160a01b03163b5f0361171b57604051634c9c8ce360e01b81526001600160a01b03821660048201526024016105ae565b5f80516020611e6583398151915280546001600160a01b0319166001600160a01b0392909216919091179055565b60605f80846001600160a01b0316846040516117659190611e09565b5f60405180830381855af49150503d805f811461179d576040519150601f19603f3d011682016040523d82523d5f602084013e6117a2565b606091505b50915091506117b28583836117da565b95945050505050565b34156107f85760405163b398979f60e01b815260040160405180910390fd5b6060826117ef576117ea82611836565b6105c5565b815115801561180657506001600160a01b0384163b155b1561182f57604051639996b31560e01b81526001600160a01b03851660048201526024016105ae565b50806105c5565b8051156118465780518082602001fd5b60405163d6bda27560e01b815260040160405180910390fd5b5f5b83811015611879578181015183820152602001611861565b50505f910152565b5f815180845261189881602086016020860161185f565b601f01601f19169290920160200192915050565b602081525f6105c56020830184611881565b6001600160a01b0381168114610b92575f80fd5b5f80604083850312156118e3575f80fd5b82356118ee816118be565b946020939093013593505050565b5f805f6060848603121561190e575f80fd5b8335611919816118be565b92506020840135611929816118be565b929592945050506040919091013590565b634e487b7160e01b5f52604160045260245ffd5b5f67ffffffffffffffff808411156119685761196861193a565b604051601f8501601f19908116603f011681019082821181831017156119905761199061193a565b816040528093508581528686860111156119a8575f80fd5b858560208301375f602087830101525050509392505050565b5f80604083850312156119d2575f80fd5b82356119dd816118be565b9150602083013567ffffffffffffffff8111156119f8575f80fd5b8301601f81018513611a08575f80fd5b611a178582356020840161194e565b9150509250929050565b5f82601f830112611a30575f80fd5b6105c58383356020850161194e565b803560ff81168114611a4f575f80fd5b919050565b5f805f805f60a08688031215611a68575f80fd5b853567ffffffffffffffff80821115611a7f575f80fd5b611a8b89838a01611a21565b96506020880135915080821115611aa0575f80fd5b50611aad88828901611a21565b9450506040860135611abe816118be565b92506060860135611ace816118be565b9150611adc60808701611a3f565b90509295509295909350565b5f60208284031215611af8575f80fd5b81356105c5816118be565b60ff60f81b881681525f602060e06020840152611b2360e084018a611881565b8381036040850152611b35818a611881565b606085018990526001600160a01b038816608086015260a0850187905284810360c0860152855180825260208088019350909101905f5b81811015611b8857835183529284019291840191600101611b6c565b50909c9b505050505050505050505050565b5f805f805f805f60e0888a031215611bb0575f80fd5b8735611bbb816118be565b96506020880135611bcb816118be565b95506040880135945060608801359350611be760808901611a3f565b925060a0880135915060c0880135905092959891949750929550565b5f8060408385031215611c14575f80fd5b8235611c1f816118be565b91506020830135611c2f816118be565b809150509250929050565b600181811c90821680611c4e57607f821691505b602082108103611c6c57634e487b7160e01b5f52602260045260245ffd5b50919050565b60208082526014908201527313db9b1e48189c9a5919d94818d85b8818d85b1b60621b604082015260600190565b5f60208284031215611cb0575f80fd5b81516105c5816118be565b5f60208284031215611ccb575f80fd5b5051919050565b8082018082111561057e57634e487b7160e01b5f52601160045260245ffd5b601f821115610ba257805f5260205f20601f840160051c81016020851015611d165750805b601f840160051c820191505b818110156110f3575f8155600101611d22565b815167ffffffffffffffff811115611d4f57611d4f61193a565b611d6381611d5d8454611c3a565b84611cf1565b602080601f831160018114611d96575f8415611d7f5750858301515b5f19600386901b1c1916600185901b178555611ded565b5f85815260208120601f198616915b82811015611dc457888601518255948401946001909101908401611da5565b5085821015611de157878501515f19600388901b60f8161c191681555b505060018460011b0185555b505050505050565b634e487b7160e01b5f52602160045260245ffd5b5f8251611e1a81846020870161185f565b919091019291505056fe52c63247e1f47db19d5ce0460030c497f067ca4cebf71ba98eeadabe20bace00a16a46d94261c7517cc8ff89f61c0ce93598e3c849801011dee649a6a557d100360894a13ba1a3210667c828492db98dca3e2076cc3735a920a3ca505d382bbca2646970667358221220441d664ba361b0741fb5056fdd4bbd36f28eee97112b6a30133e7fd2030d852a64736f6c63430008180033",
  "linkReferences": {},
  "deployedLinkReferences": {}
}