{
  "_format": "hh-sol-artifact-1",
  "contractName": "WrappedTokenFactory",
  "sourceName": "contracts/WrappedTokenFactory.sol",
  "abi": [
    {
      "inputs": [
        {
          "internalType": "address",
          "name": "target",
          "type": "address"
        }
      ],
      "name": "AddressEmptyCode",
      "type": "error"
    },
    {
      "inputs": [
        {
          "internalType": "address",
          "name": "implementation",
          "type": "address"
        }
      ],
      "name": "ERC1967InvalidImplementation",
      "type": "error"
    },
    {
      "inputs": [],
      "name": "ERC1967NonPayable",
      "type": "error"
    },
    {
      "inputs": [],
      "name": "FailedCall",
      "type": "error"
    },
    {
      "inputs": [],
      "name": "InvalidInitialization",
      "type": "error"
    },
    {
      "inputs": [],
      "name": "NotInitializing",
      "type": "error"
    },
    {
      "inputs": [
        {
          "internalType": "address",
          "name": "owner",
          "type": "address"
        }
      ],
      "name": "OwnableInvalidOwner",
      "type": "error"
    },
    {
      "inputs": [
        {
          "internalType": "address",
          "name": "account",
          "type": "address"
        }
      ],
      "name": "OwnableUnauthorizedAccount",
      "type": "error"
    },
    {
      "inputs": [],
      "name": "UUPSUnauthorizedCallContext",
      "type": "error"
    },
    {
      "inputs": [
        {
          "internalType": "bytes32",
          "name": "slot",
          "type": "bytes32"
        }
      ],
      "name": "UUPSUnsupportedProxiableUUID",
      "type": "error"
    },
    {
      "anonymous": false,
      "inputs": [
        {
          "indexed": false,
          "internalType": "uint64",
          "name": "version",
          "type": "uint64"
        }
      ],
      "name": "Initialized",
      "type": "event"
    },
    {
      "anonymous": false,
      "inputs": [
        {
          "indexed": true,
          "internalType": "address",
          "name": "previousOwner",
          "type": "address"
        },
        {
          "indexed": true,
          "internalType": "address",
          "name": "newOwner",
          "type": "address"
        }
      ],
      "name": "OwnershipTransferred",
      "type": "event"
    },
    {
      "anonymous": false,
      "inputs": [
        {
          "indexed": false,
          "internalType": "address",
          "name": "proxy",
          "type": "address"
        }
      ],
      "name": "TokenDeployed",
      "type": "event"
    },
    {
      "anonymous": false,
      "inputs": [
        {
          "indexed": true,
          "internalType": "address",
          "name": "implementation",
          "type": "address"
        }
      ],
      "name": "Upgraded",
      "type": "event"
    },
    {
      "inputs": [],
      "name": "UPGRADE_INTERFACE_VERSION",
      "outputs": [
        {
          "internalType": "string",
          "name": "",
          "type": "string"
        }
      ],
      "stateMutability": "view",
      "type": "function"
    },
    {
      "inputs": [],
      "name": "beacon",
      "outputs": [
        {
          "internalType": "address",
          "name": "",
          "type": "address"
        }
      ],
      "stateMutability": "view",
      "type": "function"
    },
    {
      "inputs": [],
      "name": "bridge",
      "outputs": [
        {
          "internalType": "address",
          "name": "",
          "type": "address"
        }
      ],
      "stateMutability": "view",
      "type": "function"
    },
    {
      "inputs": [
        {
          "internalType": "string",
          "name": "name",
          "type": "string"
        },
        {
          "internalType": "string",
          "name": "symbol",
          "type": "string"
        },
        {
          "internalType": "address",
          "name": "keyLogRegistry",
          "type": "address"
        }
      ],
      "name": "createToken",
      "outputs": [
        {
          "internalType": "address",
          "name": "",
          "type": "address"
        }
      ],
      "stateMutability": "nonpayable",
      "type": "function"
    },
    {
      "inputs": [
        {
          "internalType": "address",
          "name": "_beacon",
          "type": "address"
        },
        {
          "internalType": "address",
          "name": "_owner",
          "type": "address"
        },
        {
          "internalType": "address",
          "name": "_bridge",
          "type": "address"
        }
      ],
      "name": "initialize",
      "outputs": [],
      "stateMutability": "nonpayable",
      "type": "function"
    },
    {
      "inputs": [],
      "name": "owner",
      "outputs": [
        {
          "internalType": "address",
          "name": "",
          "type": "address"
        }
      ],
      "stateMutability": "view",
      "type": "function"
    },
    {
      "inputs": [],
      "name": "proxiableUUID",
      "outputs": [
        {
          "internalType": "bytes32",
          "name": "",
          "type": "bytes32"
        }
      ],
      "stateMutability": "view",
      "type": "function"
    },
    {
      "inputs": [],
      "name": "renounceOwnership",
      "outputs": [],
      "stateMutability": "nonpayable",
      "type": "function"
    },
    {
      "inputs": [
        {
          "internalType": "address",
          "name": "newOwner",
          "type": "address"
        }
      ],
      "name": "transferOwnership",
      "outputs": [],
      "stateMutability": "nonpayable",
      "type": "function"
    },
    {
      "inputs": [
        {
          "internalType": "address",
          "name": "newImplementation",
          "type": "address"
        },
        {
          "internalType": "bytes",
          "name": "data",
          "type": "bytes"
        }
      ],
      "name": "upgradeToAndCall",
      "outputs": [],
      "stateMutability": "payable",
      "type": "function"
    }
  ],
  "bytecode": "0x60a0806040523461002a573060805261103390816100308239608051818181610581015261063d0152f35b600080fdfe6040608081526004803610156200001557600080fd5b600091823560e01c9182634f1ef28614620005e657826352d1902d146200056a57826359659e90146200053f578263715018a614620004bf5782638da5cb5b146200048d578263ad3cb1cc1462000419578263afd8fd5f146200029d578263c0c53b8b146200010157508163e78cea9214620000d3575063f2fde38b146200009c57600080fd5b34620000d0576020366003190112620000d057620000cd620000bd62000847565b620000c762000a89565b62000a02565b80f35b80fd5b905034620000fd5781600319360112620000fd57905490516001600160a01b039091168152602090f35b5080fd5b909150346200029957606036600319011262000299576200012162000847565b60243591906001600160a01b03808416840362000295576200014262000863565b7ff0c57e16840df040f15088dc2f81fe391c3923bec73e23a9662efc9c229c6a0094855460ff81891c16159567ffffffffffffffff8216801590816200028c575b600114908162000281575b15908162000277575b5062000269575067ffffffffffffffff1981166001178755620001d191908662000249575b50620001c762000abf565b620000c762000abf565b620001db62000abf565b816bffffffffffffffffffffffff60a01b9316836001541617600155169085541617845562000208578280f35b805468ff00000000000000001916905551600181527fc7f505b2f371ae2175ee4913f4499e1f2633a7b5936321eed1cdaeb6115181d290602090a138808280f35b68ffffffffffffffffff19166801000000000000000117875538620001bc565b885163f92ee8a960e01b8152fd5b9050153862000197565b303b1591506200018e565b88915062000183565b8580fd5b8280fd5b9091503462000299576060366003190112620002995767ffffffffffffffff9080358281116200041557620002d690369083016200094e565b916024359080821162000295576200037a620002fa6200034c93369086016200094e565b946200030562000863565b956200031062000a89565b885488516323c56d0560e21b6020820152608060248201526001600160a01b039890968794928a16938a936200035f929060a48801906200090c565b868103602319016044880152906200090c565b92606485015216608483015203601f1981018452836200087a565b8360015416855193610494908186019386851090851117620004025750620003b792859492889262000b6a8739815281602082015201906200090c565b039084f08015620003f6576020935016907f91d24864a084ab70b268a1f865e757ca12006cf298d763b6be697302ef86498c838251848152a151908152f35b505051903d90823e3d90fd5b634e487b7160e01b895260419052602488fd5b8480fd5b838234620000fd5781600319360112620000fd578051918183019083821067ffffffffffffffff8311176200047a5750620004769350815260058252640352e302e360dc1b6020830152519182916020835260208301906200090c565b0390f35b634e487b7160e01b815260418552602490fd5b838234620000fd5781600319360112620000fd57602090620004ae6200096f565b90516001600160a01b039091168152f35b8334620000d05780600319360112620000d057620004dc62000a89565b7f9016d09d72d40fdae2fd8ceac6b6234c7706214fd39c1cd1e609a0528c19930080546001600160a01b0319811690915581906001600160a01b03167f8be0079c531659141344cd1fd0a4f28419497f9722a3daafe3b4186f6b6457e08280a380f35b838234620000fd5781600319360112620000fd5760015490516001600160a01b039091168152602090f35b908334620000d05780600319360112620000d057507f00000000000000000000000000000000000000000000000000000000000000006001600160a01b03163003620005d957602090517f360894a13ba1a3210667c828492db98dca3e2076cc3735a920a3ca505d382bbc8152f35b5163703e46dd60e11b8152fd5b9150806003193601126200029957620005fe62000847565b9060243567ffffffffffffffff81116200041557366023820112156200041557620006339036906024818701359101620008d0565b6001600160a01b037f0000000000000000000000000000000000000000000000000000000000000000811630811490811562000818575b5062000808576200067a62000a89565b82516352d1902d60e01b81529084169360209182818881895afa889181620007cf575b50620006ba578451634c9c8ce360e01b8152808801879052602490fd5b7f360894a13ba1a3210667c828492db98dca3e2076cc3735a920a3ca505d382bbc96929591939690818103620007b95750833b15620007a25780546001600160a01b0319168217905583518792917fbc7cd75a20ee27fd9adebab32041f755214dbc6bffa90cc0225b39da2e5c2d3b8480a2865115620007845750508085856200077597519101845af4913d1562000779573d620007666200075c82620008b3565b925192836200087a565b81528581943d92013e62000b01565b5080f35b506060925062000b01565b94509450505050346200079657505080f35b63b398979f60e01b8152fd5b8451634c9c8ce360e01b8152808401839052602490fd5b83602491875191632a87526960e21b8352820152fd5b9091508381813d831162000800575b620007ea81836200087a565b81010312620007fc575190386200069d565b8880fd5b503d620007de565b825163703e46dd60e11b81528590fd5b9050817f360894a13ba1a3210667c828492db98dca3e2076cc3735a920a3ca505d382bbc54161415386200066a565b600435906001600160a01b03821682036200085e57565b600080fd5b604435906001600160a01b03821682036200085e57565b90601f8019910116810190811067ffffffffffffffff8211176200089d57604052565b634e487b7160e01b600052604160045260246000fd5b67ffffffffffffffff81116200089d57601f01601f191660200190565b929192620008de82620008b3565b91620008ee60405193846200087a565b8294818452818301116200085e578281602093846000960137010152565b919082519283825260005b84811062000939575050826000602080949584010152601f8019910116010190565b60208183018101518483018201520162000917565b9080601f830112156200085e578160206200096c93359101620008d0565b90565b60008054604051631127a41d60e31b8152916001600160a01b03916020908490600490829086165afa928315620009f5578193620009ae575b50505090565b909192506020813d602011620009ec575b81620009ce602093836200087a565b81010312620000fd57519182168203620000d05750388080620009a8565b3d9150620009bf565b50604051903d90823e3d90fd5b6001600160a01b0390811690811562000a70577f9016d09d72d40fdae2fd8ceac6b6234c7706214fd39c1cd1e609a0528c19930080546001600160a01b031981168417909155167f8be0079c531659141344cd1fd0a4f28419497f9722a3daafe3b4186f6b6457e0600080a3565b604051631e4fbdf760e01b815260006004820152602490fd5b62000a936200096f565b336001600160a01b039091160362000aa757565b60405163118cdaa760e01b8152336004820152602490fd5b60ff7ff0c57e16840df040f15088dc2f81fe391c3923bec73e23a9662efc9c229c6a005460401c161562000aef57565b604051631afcd79f60e31b8152600490fd5b9062000b2a575080511562000b1857805190602001fd5b60405163d6bda27560e01b8152600490fd5b8151158062000b5f575b62000b3d575090565b604051639996b31560e01b81526001600160a01b039091166004820152602490fd5b50803b1562000b3456fe60a0604090808252346101eb57610494803803809161001e828561029a565b8339810182828203126101eb57610034826102d3565b60208084015191939091906001600160401b0382116101eb570182601f820112156101eb57805190610065826102e7565b936100728751958661029a565b8285528383830101116101eb57829060005b83811061028657505060009184010152823b15610266577fa3f0ad74e5423aebfd80d3ef4346578335a9a72aeaee59ff6cb3582b35133d5080546001600160a01b0319166001600160a01b038581169182179092558551635c60da1b60e01b8082529194928482600481895afa91821561025b57600092610224575b50813b1561020b575050837f1cf3b03a6cf19fa2baba4df148e9dcabedea7f8a5c07840e207e5c089be95d3e600080a2815115610202578290600487518096819382525afa9283156101f7576000936101b5575b5091600080848461019296519101845af4903d156101ac573d610176816102e7565b906101838851928361029a565b8152600081943d92013e610302565b505b6080525161012e908161036682396080518160180152f35b60609250610302565b92508183813d83116101f0575b6101cc818361029a565b810103126101eb576000806101e3610192956102d3565b945050610154565b600080fd5b503d6101c2565b85513d6000823e3d90fd5b50505050610194565b8751634c9c8ce360e01b81529116600482015260249150fd5b9091508481813d8311610254575b61023c818361029a565b810103126101eb5761024d906102d3565b9038610100565b503d610232565b88513d6000823e3d90fd5b8351631933b43b60e21b81526001600160a01b0384166004820152602490fd5b818101830151868201840152849201610084565b601f909101601f19168101906001600160401b038211908210176102bd57604052565b634e487b7160e01b600052604160045260246000fd5b51906001600160a01b03821682036101eb57565b6001600160401b0381116102bd57601f01601f191660200190565b90610329575080511561031757805190602001fd5b60405163d6bda27560e01b8152600490fd5b8151158061035c575b61033a575090565b604051639996b31560e01b81526001600160a01b039091166004820152602490fd5b50803b1561033256fe60806040819052635c60da1b60e01b81526020816004817f00000000000000000000000000000000000000000000000000000000000000006001600160a01b03165afa90811560a9576000916054575b5060da565b905060203d60201160a3575b601f8101601f191682019167ffffffffffffffff831181841017608d576088926040520160b5565b38604f565b634e487b7160e01b600052604160045260246000fd5b503d6060565b6040513d6000823e3d90fd5b602090607f19011260d5576080516001600160a01b038116810360d55790565b600080fd5b6000808092368280378136915af43d82803e1560f4573d90f35b3d90fdfea2646970667358221220b642a315c875b99fe477933660ffe34497f9b4c9976cb8843c721c1c7db2123d64736f6c63430008180033a264697066735822122043e9d965e7ab4fd792374432ff5ef85bb9a63254ffe9035c7eb75381d87b48ad64736f6c63430008180033",
  "linkReferences": {},
  "deployedLinkReferences": {}
}