{
  "_format": "hh-sol-artifact-1",
  "contractName": "WrappedToken",
  "sourceName": "contracts/WrappedToken.sol",
  "abi": [
    {
      "inputs": [
        {
          "internalType": "string",
          "name": "name",
          "type": "string"
        },
        {
          "internalType": "string",
          "name": "symbol",
          "type": "string"
        },
        {
          "internalType": "address",
          "name": "_bridge",
          "type": "address"
        }
      ],
      "stateMutability": "nonpayable",
      "type": "constructor"
    },
    {
      "inputs": [],
      "name": "ECDSAInvalidSignature",
      "type": "error"
    },
    {
      "inputs": [
        {
          "internalType": "uint256",
          "name": "length",
          "type": "uint256"
        }
      ],
      "name": "ECDSAInvalidSignatureLength",
      "type": "error"
    },
    {
      "inputs": [
        {
          "internalType": "bytes32",
          "name": "s",
          "type": "bytes32"
        }
      ],
      "name": "ECDSAInvalidSignatureS",
      "type": "error"
    },
    {
      "inputs": [
        {
          "internalType": "address",
          "name": "spender",
          "type": "address"
        },
        {
          "internalType": "uint256",
          "name": "allowance",
          "type": "uint256"
        },
        {
          "internalType": "uint256",
          "name": "needed",
          "type": "uint256"
        }
      ],
      "name": "ERC20InsufficientAllowance",
      "type": "error"
    },
    {
      "inputs": [
        {
          "internalType": "address",
          "name": "sender",
          "type": "address"
        },
        {
          "internalType": "uint256",
          "name": "balance",
          "type": "uint256"
        },
        {
          "internalType": "uint256",
          "name": "needed",
          "type": "uint256"
        }
      ],
      "name": "ERC20InsufficientBalance",
      "type": "error"
    },
    {
      "inputs": [
        {
          "internalType": "address",
          "name": "approver",
          "type": "address"
        }
      ],
      "name": "ERC20InvalidApprover",
      "type": "error"
    },
    {
      "inputs": [
        {
          "internalType": "address",
          "name": "receiver",
          "type": "address"
        }
      ],
      "name": "ERC20InvalidReceiver",
      "type": "error"
    },
    {
      "inputs": [
        {
          "internalType": "address",
          "name": "sender",
          "type": "address"
        }
      ],
      "name": "ERC20InvalidSender",
      "type": "error"
    },
    {
      "inputs": [
        {
          "internalType": "address",
          "name": "spender",
          "type": "address"
        }
      ],
      "name": "ERC20InvalidSpender",
      "type": "error"
    },
    {
      "inputs": [
        {
          "internalType": "uint256",
          "name": "deadline",
          "type": "uint256"
        }
      ],
      "name": "ERC2612ExpiredSignature",
      "type": "error"
    },
    {
      "inputs": [
        {
          "internalType": "address",
          "name": "signer",
          "type": "address"
        },
        {
          "internalType": "address",
          "name": "owner",
          "type": "address"
        }
      ],
      "name": "ERC2612InvalidSigner",
      "type": "error"
    },
    {
      "inputs": [
        {
          "internalType": "address",
          "name": "account",
          "type": "address"
        },
        {
          "internalType": "uint256",
          "name": "currentNonce",
          "type": "uint256"
        }
      ],
      "name": "InvalidAccountNonce",
      "type": "error"
    },
    {
      "inputs": [],
      "name": "InvalidShortString",
      "type": "error"
    },
    {
      "inputs": [
        {
          "internalType": "address",
          "name": "owner",
          "type": "address"
        }
      ],
      "name": "OwnableInvalidOwner",
      "type": "error"
    },
    {
      "inputs": [
        {
          "internalType": "address",
          "name": "account",
          "type": "address"
        }
      ],
      "name": "OwnableUnauthorizedAccount",
      "type": "error"
    },
    {
      "inputs": [
        {
          "internalType": "string",
          "name": "str",
          "type": "string"
        }
      ],
      "name": "StringTooLong",
      "type": "error"
    },
    {
      "anonymous": false,
      "inputs": [
        {
          "indexed": true,
          "internalType": "address",
          "name": "owner",
          "type": "address"
        },
        {
          "indexed": true,
          "internalType": "address",
          "name": "spender",
          "type": "address"
        },
        {
          "indexed": false,
          "internalType": "uint256",
          "name": "value",
          "type": "uint256"
        }
      ],
      "name": "Approval",
      "type": "event"
    },
    {
      "anonymous": false,
      "inputs": [],
      "name": "EIP712DomainChanged",
      "type": "event"
    },
    {
      "anonymous": false,
      "inputs": [
        {
          "indexed": true,
          "internalType": "address",
          "name": "previousOwner",
          "type": "address"
        },
        {
          "indexed": true,
          "internalType": "address",
          "name": "newOwner",
          "type": "address"
        }
      ],
      "name": "OwnershipTransferred",
      "type": "event"
    },
    {
      "anonymous": false,
      "inputs": [
        {
          "indexed": true,
          "internalType": "address",
          "name": "from",
          "type": "address"
        },
        {
          "indexed": true,
          "internalType": "address",
          "name": "to",
          "type": "address"
        },
        {
          "indexed": false,
          "internalType": "uint256",
          "name": "value",
          "type": "uint256"
        }
      ],
      "name": "Transfer",
      "type": "event"
    },
    {
      "inputs": [],
      "name": "DOMAIN_SEPARATOR",
      "outputs": [
        {
          "internalType": "bytes32",
          "name": "",
          "type": "bytes32"
        }
      ],
      "stateMutability": "view",
      "type": "function"
    },
    {
      "inputs": [
        {
          "internalType": "address",
          "name": "owner",
          "type": "address"
        },
        {
          "internalType": "address",
          "name": "spender",
          "type": "address"
        }
      ],
      "name": "allowance",
      "outputs": [
        {
          "internalType": "uint256",
          "name": "",
          "type": "uint256"
        }
      ],
      "stateMutability": "view",
      "type": "function"
    },
    {
      "inputs": [
        {
          "internalType": "address",
          "name": "spender",
          "type": "address"
        },
        {
          "internalType": "uint256",
          "name": "value",
          "type": "uint256"
        }
      ],
      "name": "approve",
      "outputs": [
        {
          "internalType": "bool",
          "name": "",
          "type": "bool"
        }
      ],
      "stateMutability": "nonpayable",
      "type": "function"
    },
    {
      "inputs": [
        {
          "internalType": "address",
          "name": "account",
          "type": "address"
        }
      ],
      "name": "balanceOf",
      "outputs": [
        {
          "internalType": "uint256",
          "name": "",
          "type": "uint256"
        }
      ],
      "stateMutability": "view",
      "type": "function"
    },
    {
      "inputs": [],
      "name": "bridge",
      "outputs": [
        {
          "internalType": "address",
          "name": "",
          "type": "address"
        }
      ],
      "stateMutability": "view",
      "type": "function"
    },
    {
      "inputs": [
        {
          "internalType": "address",
          "name": "from",
          "type": "address"
        },
        {
          "internalType": "uint256",
          "name": "amount",
          "type": "uint256"
        }
      ],
      "name": "burn",
      "outputs": [],
      "stateMutability": "nonpayable",
      "type": "function"
    },
    {
      "inputs": [],
      "name": "decimals",
      "outputs": [
        {
          "internalType": "uint8",
          "name": "",
          "type": "uint8"
        }
      ],
      "stateMutability": "view",
      "type": "function"
    },
    {
      "inputs": [],
      "name": "eip712Domain",
      "outputs": [
        {
          "internalType": "bytes1",
          "name": "fields",
          "type": "bytes1"
        },
        {
          "internalType": "string",
          "name": "name",
          "type": "string"
        },
        {
          "internalType": "string",
          "name": "version",
          "type": "string"
        },
        {
          "internalType": "uint256",
          "name": "chainId",
          "type": "uint256"
        },
        {
          "internalType": "address",
          "name": "verifyingContract",
          "type": "address"
        },
        {
          "internalType": "bytes32",
          "name": "salt",
          "type": "bytes32"
        },
        {
          "internalType": "uint256[]",
          "name": "extensions",
          "type": "uint256[]"
        }
      ],
      "stateMutability": "view",
      "type": "function"
    },
    {
      "inputs": [
        {
          "internalType": "address",
          "name": "to",
          "type": "address"
        },
        {
          "internalType": "uint256",
          "name": "amount",
          "type": "uint256"
        }
      ],
      "name": "mint",
      "outputs": [],
      "stateMutability": "nonpayable",
      "type": "function"
    },
    {
      "inputs": [],
      "name": "name",
      "outputs": [
        {
          "internalType": "string",
          "name": "",
          "type": "string"
        }
      ],
      "stateMutability": "view",
      "type": "function"
    },
    {
      "inputs": [
        {
          "internalType": "address",
          "name": "owner",
          "type": "address"
        }
      ],
      "name": "nonces",
      "outputs": [
        {
          "internalType": "uint256",
          "name": "",
          "type": "uint256"
        }
      ],
      "stateMutability": "view",
      "type": "function"
    },
    {
      "inputs": [],
      "name": "owner",
      "outputs": [
        {
          "internalType": "address",
          "name": "",
          "type": "address"
        }
      ],
      "stateMutability": "view",
      "type": "function"
    },
    {
      "inputs": [
        {
          "internalType": "address",
          "name": "owner",
          "type": "address"
        },
        {
          "internalType": "address",
          "name": "spender",
          "type": "address"
        },
        {
          "internalType": "uint256",
          "name": "value",
          "type": "uint256"
        },
        {
          "internalType": "uint256",
          "name": "deadline",
          "type": "uint256"
        },
        {
          "internalType": "uint8",
          "name": "v",
          "type": "uint8"
        },
        {
          "internalType": "bytes32",
          "name": "r",
          "type": "bytes32"
        },
        {
          "internalType": "bytes32",
          "name": "s",
          "type": "bytes32"
        }
      ],
      "name": "permit",
      "outputs": [],
      "stateMutability": "nonpayable",
      "type": "function"
    },
    {
      "inputs": [],
      "name": "renounceOwnership",
      "outputs": [],
      "stateMutability": "nonpayable",
      "type": "function"
    },
    {
      "inputs": [
        {
          "internalType": "address",
          "name": "_newBridge",
          "type": "address"
        }
      ],
      "name": "setBridge",
      "outputs": [],
      "stateMutability": "nonpayable",
      "type": "function"
    },
    {
      "inputs": [],
      "name": "symbol",
      "outputs": [
        {
          "internalType": "string",
          "name": "",
          "type": "string"
        }
      ],
      "stateMutability": "view",
      "type": "function"
    },
    {
      "inputs": [],
      "name": "totalSupply",
      "outputs": [
        {
          "internalType": "uint256",
          "name": "",
          "type": "uint256"
        }
      ],
      "stateMutability": "view",
      "type": "function"
    },
    {
      "inputs": [
        {
          "internalType": "address",
          "name": "to",
          "type": "address"
        },
        {
          "internalType": "uint256",
          "name": "value",
          "type": "uint256"
        }
      ],
      "name": "transfer",
      "outputs": [
        {
          "internalType": "bool",
          "name": "",
          "type": "bool"
        }
      ],
      "stateMutability": "nonpayable",
      "type": "function"
    },
    {
      "inputs": [
        {
          "internalType": "address",
          "name": "from",
          "type": "address"
        },
        {
          "internalType": "address",
          "name": "to",
          "type": "address"
        },
        {
          "internalType": "uint256",
          "name": "value",
          "type": "uint256"
        }
      ],
      "name": "transferFrom",
      "outputs": [
        {
          "internalType": "bool",
          "name": "",
          "type": "bool"
        }
      ],
      "stateMutability": "nonpayable",
      "type": "function"
    },
    {
      "inputs": [
        {
          "internalType": "address",
          "name": "newOwner",
          "type": "address"
        }
      ],
      "name": "transferOwnership",
      "outputs": [],
      "stateMutability": "nonpayable",
      "type": "function"
    }
  ],
  "bytecode": "0x610160604081815234620004aa5762001a9f8038038091620000228286620004af565b84398201606083820312620004aa5782516001600160401b039290838111620004aa578262000053918601620004f8565b9160209081860151858111620004aa57839162000072918801620004f8565b9501516001600160a01b03808216929091839003620004aa5783519084820182811088821117620003a957855260019485835281830195603160f81b87528751898111620003a95760038054918383811c931680156200049f575b868410146200048957601f928381116200043e575b508086848211600114620003cb57600091620003bf575b5060001982841b1c191690841b1781555b8b51918b8311620003a95760049c8d548581811c911680156200039e575b8882101462000389578e8382116200033e575b50508d87928511600114620002d35750938394918492600095620002c7575b50501b92600019911b1c19161789555b3315620002b157600580546001600160a01b03198082163390811790935595167f8be0079c531659141344cd1fd0a4f28419497f9722a3daafe3b4186f6b6457e0600080a3620001ba8762000553565b95610120968752620001cc84620006fb565b97610140988952838151910120938460e0525190209861010099808b524660a0528251938401947f8b73c3c69bb8fe3d512ecc4cf759cc79239f7b179b0ffacaa9a75d522b39400f86528385015260608401524660808401523060a084015260a0835260c0830198838a10908a11176200029c57508790525190206080523060c052600954161760095561124c938462000853853960805184610d8c015260a05184610e58015260c05184610d56015260e05184610ddb01525183610e010152518261063c015251816106660152f35b604190634e487b7160e01b6000525260246000fd5b51631e4fbdf760e01b81526000818a0152602490fd5b0151935038806200015a565b929190601f1985169360005284886000209460005b8a898383106200032657505050106200030b575b50505050811b0189556200016a565b01519060f884600019921b161c1916905538808080620002fc565b868601518955909701969485019488935001620002e8565b600052876000208380870160051c8201928a88106200037f575b0160051c019086905b828110620003725750508e6200013b565b6000815501869062000361565b9250819262000358565b60228f634e487b7160e01b6000525260246000fd5b90607f169062000128565b634e487b7160e01b600052604160045260246000fd5b90508b015138620000f9565b8592508c90601f1983168560005289600020928a6000915b8383106200041c57505050831162000403575b5050811b0181556200010a565b8d015160001983861b60f8161c191690553880620003f6565b948482949597989293960151815501940192019087949392918f8b90620003e3565b82600052866000208480840160051c8201928985106200047f575b0160051c019085905b82811062000472575050620000e2565b6000815501859062000462565b9250819262000459565b634e487b7160e01b600052602260045260246000fd5b92607f1692620000cd565b600080fd5b601f909101601f19168101906001600160401b03821190821017620003a957604052565b60005b838110620004e75750506000910152565b8181015183820152602001620004d6565b81601f82011215620004aa5780516001600160401b038111620003a957604051926200052f601f8301601f191660200185620004af565b81845260208284010111620004aa57620005509160208085019101620004d3565b90565b805160209081811015620005d15750601f8251116200058f57808251920151908083106200058057501790565b82600019910360031b1b161790565b604490620005c39260405193849263305a27a960e01b845280600485015282519283918260248701528686019101620004d3565b601f01601f19168101030190fd5b906001600160401b038211620003a957600654926001938481811c91168015620006f0575b838210146200048957601f8111620006b6575b5081601f84116001146200064a57509282939183926000946200063e575b50501b916000199060031b1c19161760065560ff90565b01519250388062000627565b919083601f198116600660005284600020946000905b888383106200069b575050501062000681575b505050811b0160065560ff90565b015160001960f88460031b161c1916905538808062000673565b85870151885590960195948501948793509081019062000660565b600660005284601f84600020920160051c820191601f860160051c015b828110620006e357505062000609565b60008155018590620006d3565b90607f1690620005f6565b805160209081811015620007285750601f8251116200058f57808251920151908083106200058057501790565b906001600160401b038211620003a957600754926001938481811c9116801562000847575b838210146200048957601f81116200080d575b5081601f8411600114620007a1575092829391839260009462000795575b50501b916000199060031b1c19161760075560ff90565b0151925038806200077e565b919083601f198116600760005284600020946000905b88838310620007f25750505010620007d8575b505050811b0160075560ff90565b015160001960f88460031b161c19169055388080620007ca565b858701518855909601959485019487935090810190620007b7565b600760005284601f84600020920160051c820191601f860160051c015b8281106200083a57505062000760565b600081550185906200082a565b90607f16906200074d56fe6080604081815260048036101561001557600080fd5b600092833560e01c90816306fdde0314610a4757508063095ea7b314610a1d57806318160ddd146109fe57806323b872dd1461090b578063313ce567146108ef5780633644e515146108cb57806340c10f191461081357806370a08231146107dc578063715018a61461077c5780637ecebe001461074457806384b0196e146106255780638da5cb5b146105fc5780638dd148021461057157806395d89b41146104825780639dc29fac146103a0578063a9059cbb1461036f578063d505accf14610207578063dd62ed3e146101be578063e78cea92146101915763f2fde38b146100ff57600080fd5b3461018d57602036600319011261018d57610118610b5f565b90610121610e7e565b6001600160a01b03918216928315610177575050600554826bffffffffffffffffffffffff60a01b821617600555167f8be0079c531659141344cd1fd0a4f28419497f9722a3daafe3b4186f6b6457e08380a380f35b51631e4fbdf760e01b8152908101849052602490fd5b8280fd5b5050346101ba57816003193601126101ba5760095490516001600160a01b039091168152602090f35b5080fd5b5050346101ba57806003193601126101ba57806020926101dc610b5f565b6101e4610b7a565b6001600160a01b0391821683526001865283832091168252845220549051908152f35b508290346101ba5760e03660031901126101ba57610223610b5f565b61022b610b7a565b906044359260643560843560ff8116810361036b578142116103545760018060a01b0390818516928389526008602052898920908154916001830190558a519060208201927f6e71edae12b1b97f4d1f60370fef10105fa2faae0126114a169c64845d6126c98452868d840152858a1660608401528a608084015260a083015260c082015260c0815260e0810181811067ffffffffffffffff821117610341578b5251902061030f91610306916102e0610d53565b908c519161190160f01b83526002830152602282015260c43591604260a4359220611101565b90929192611191565b168181036103265786610323878787610eaa565b80f35b87516325c0072360e11b815292830152602482015260449150fd5b634e487b7160e01b8b526041875260248bfd5b875163313c898160e11b8152808401839052602490fd5b8680fd5b5050346101ba57806003193601126101ba5760209061039961038f610b5f565b6024359033610c75565b5160018152f35b508290346101ba57826003193601126101ba576103bb610b5f565b906024359060018060a01b036103d681600954163314610c1e565b831692831561046b578385528460205285852054918383106104375750508184957fddf252ad1be2c89b69c2b068fc378daa952ba7f163c4a11628f55a4df523b3ef936020938688528785520381872055816002540360025551908152a380f35b865163391434e360e21b81526001600160a01b03909216908201908152602081018390526040810184905281906060010390fd5b8551634b637e8f60e11b8152808301869052602490fd5b50903461018d578260031936011261018d5780518381949084546104a581610b90565b91828552602096600192886001821691826000146105475750506001146104ec575b85886104e8896104d9848a0385610bfc565b51928284938452830190610b1f565b0390f35b815286935091907f8a35acfbc15ff81a39ae7d344fd709f28e8600b4aa8c65c6b64bfe7fe36bd19b5b82841061052f57505050820101816104d96104e8386104c7565b8054848a018601528895508794909301928101610515565b60ff19168882015294151560051b870190940194508593506104d992506104e891503890506104c7565b503461018d57602036600319011261018d5761058b610b5f565b610593610e7e565b6001600160a01b03169182156105c05750506bffffffffffffffffffffffff60a01b600954161760095580f35b906020606492519162461bcd60e51b83528201526016602482015275496e76616c696420427269646765206164647265737360501b6044820152fd5b5050346101ba57816003193601126101ba5760055490516001600160a01b039091168152602090f35b50903461018d578260031936011261018d576106607f0000000000000000000000000000000000000000000000000000000000000000610f3d565b9261068a7f0000000000000000000000000000000000000000000000000000000000000000611041565b90825192602092602085019585871067ffffffffffffffff88111761073157509260206106e78388966106da998b9996528686528151998a99600f60f81b8b5260e0868c015260e08b0190610b1f565b91898303908a0152610b1f565b924660608801523060808801528460a088015286840360c088015251928381520193925b82811061071a57505050500390f35b83518552869550938101939281019260010161070b565b634e487b7160e01b845260419052602483fd5b5050346101ba5760203660031901126101ba5760209181906001600160a01b0361076c610b5f565b1681526008845220549051908152f35b83346107d957806003193601126107d957610795610e7e565b600580546001600160a01b0319811690915581906001600160a01b03167f8be0079c531659141344cd1fd0a4f28419497f9722a3daafe3b4186f6b6457e08280a380f35b80fd5b5050346101ba5760203660031901126101ba5760209181906001600160a01b03610804610b5f565b16815280845220549051908152f35b50903461018d578060031936011261018d5761082d610b5f565b60095460243592916001600160a01b039161084b9083163314610c1e565b169283156108b657600254908382018092116108a3575084927fddf252ad1be2c89b69c2b068fc378daa952ba7f163c4a11628f55a4df523b3ef9260209260025585855284835280852082815401905551908152a380f35b634e487b7160e01b865260119052602485fd5b84602492519163ec442f0560e01b8352820152fd5b5050346101ba57816003193601126101ba576020906108e8610d53565b9051908152f35b5050346101ba57816003193601126101ba576020905160128152f35b5082346107d95760603660031901126107d957610926610b5f565b61092e610b7a565b916044359360018060a01b03831680835260016020528683203384526020528683205491600019831061096a575b602088610399898989610c75565b8683106109d25781156109bb5733156109a4575082526001602090815286832033845281529186902090859003905582906103998761095c565b8751634a1406b160e11b8152908101849052602490fd5b875163e602df0560e01b8152908101849052602490fd5b8751637dc7a0d960e11b8152339181019182526020820193909352604081018790528291506060010390fd5b5050346101ba57816003193601126101ba576020906002549051908152f35b5050346101ba57806003193601126101ba57602090610399610a3d610b5f565b6024359033610eaa565b8484346101ba57816003193601126101ba578282600354610a6781610b90565b9081845260209560019187600182169182600014610af8575050600114610a9c575b5050506104e892916104d9910385610bfc565b9190869350600383527fc2575a0e9e593c00f959f8c92f12db2869c3395a3b0502d05e2516446f71f85b5b828410610ae057505050820101816104d96104e8610a89565b8054848a018601528895508794909301928101610ac7565b60ff19168782015293151560051b860190930193508492506104d991506104e89050610a89565b919082519283825260005b848110610b4b575050826000602080949584010152601f8019910116010190565b602081830181015184830182015201610b2a565b600435906001600160a01b0382168203610b7557565b600080fd5b602435906001600160a01b0382168203610b7557565b90600182811c92168015610bc0575b6020831014610baa57565b634e487b7160e01b600052602260045260246000fd5b91607f1691610b9f565b6040810190811067ffffffffffffffff821117610be657604052565b634e487b7160e01b600052604160045260246000fd5b90601f8019910116810190811067ffffffffffffffff821117610be657604052565b15610c2557565b60405162461bcd60e51b815260206004820152602260248201527f4f6e6c79204272696467652063616e2063616c6c20746869732066756e63746960448201526137b760f11b6064820152608490fd5b916001600160a01b03808416928315610d3a5716928315610d215760009083825281602052604082205490838210610cef575091604082827fddf252ad1be2c89b69c2b068fc378daa952ba7f163c4a11628f55a4df523b3ef958760209652828652038282205586815220818154019055604051908152a3565b60405163391434e360e21b81526001600160a01b03919091166004820152602481019190915260448101839052606490fd5b60405163ec442f0560e01b815260006004820152602490fd5b604051634b637e8f60e11b815260006004820152602490fd5b307f00000000000000000000000000000000000000000000000000000000000000006001600160a01b03161480610e55575b15610dae577f000000000000000000000000000000000000000000000000000000000000000090565b60405160208101907f8b73c3c69bb8fe3d512ecc4cf759cc79239f7b179b0ffacaa9a75d522b39400f82527f000000000000000000000000000000000000000000000000000000000000000060408201527f000000000000000000000000000000000000000000000000000000000000000060608201524660808201523060a082015260a0815260c0810181811067ffffffffffffffff821117610be65760405251902090565b507f00000000000000000000000000000000000000000000000000000000000000004614610d85565b6005546001600160a01b03163303610e9257565b60405163118cdaa760e01b8152336004820152602490fd5b6001600160a01b03908116918215610f245716918215610f0b5760207f8c5be1e5ebec7d5bd14f71427d1e84f3dd0314c0f7b2291e5b200ac8c7c3b925918360005260018252604060002085600052825280604060002055604051908152a3565b604051634a1406b160e11b815260006004820152602490fd5b60405163e602df0560e01b815260006004820152602490fd5b60ff8114610f7b5760ff811690601f8211610f695760405191610f5f83610bca565b8252602082015290565b604051632cd44ac360e21b8152600490fd5b50604051600654816000610f8e83610b90565b8083529260209060019081811690811561101d5750600114610fbc575b5050610fb992500382610bfc565b90565b91509260066000527ff652222313e28459528d920b65115c16c04f3efc82aaedc97be59f3f377c0d3f936000925b8284106110055750610fb99450505081016020013880610fab565b85548785018301529485019486945092810192610fea565b91505060209250610fb994915060ff191682840152151560051b8201013880610fab565b60ff81146110635760ff811690601f8211610f695760405191610f5f83610bca565b5060405160075481600061107683610b90565b8083529260209060019081811690811561101d57506001146110a0575050610fb992500382610bfc565b91509260076000527fa66cc928b5edb82af9bd49922954155ab7b0942694bea4ce44661d9a8736c688936000925b8284106110e95750610fb99450505081016020013880610fab565b855487850183015294850194869450928101926110ce565b91907f7fffffffffffffffffffffffffffffff5d576e7357a4501ddfe92f46681b20a0841161118557926020929160ff608095604051948552168484015260408301526060820152600092839182805260015afa156111795780516001600160a01b0381161561117057918190565b50809160019190565b604051903d90823e3d90fd5b50505060009160039190565b600481101561120057806111a3575050565b600181036111bd5760405163f645eedf60e01b8152600490fd5b600281036111de5760405163fce698f760e01b815260048101839052602490fd5b6003146111e85750565b602490604051906335e2f38360e21b82526004820152fd5b634e487b7160e01b600052602160045260246000fdfea2646970667358221220de250f8837985a6b2165c772bce0dafd583c0dafcfc32b831b8a61d02e92fddf64736f6c63430008180033",
  "linkReferences": {},
  "deployedLinkReferences": {}
}