{
  "_format": "hh-sol-artifact-1",
  "contractName": "WrappedTokenFactory",
  "sourceName": "contracts/WrappedTokenFactory.sol",
  "abi": [
    {
      "inputs": [],
      "stateMutability": "nonpayable",
      "type": "constructor"
    },
    {
      "inputs": [
        {
          "internalType": "address",
          "name": "target",
          "type": "address"
        }
      ],
      "name": "AddressEmptyCode",
      "type": "error"
    },
    {
      "inputs": [
        {
          "internalType": "address",
          "name": "implementation",
          "type": "address"
        }
      ],
      "name": "ERC1967InvalidImplementation",
      "type": "error"
    },
    {
      "inputs": [],
      "name": "ERC1967NonPayable",
      "type": "error"
    },
    {
      "inputs": [],
      "name": "FailedCall",
      "type": "error"
    },
    {
      "inputs": [],
      "name": "InvalidInitialization",
      "type": "error"
    },
    {
      "inputs": [],
      "name": "NotInitializing",
      "type": "error"
    },
    {
      "inputs": [
        {
          "internalType": "address",
          "name": "owner",
          "type": "address"
        }
      ],
      "name": "OwnableInvalidOwner",
      "type": "error"
    },
    {
      "inputs": [
        {
          "internalType": "address",
          "name": "account",
          "type": "address"
        }
      ],
      "name": "OwnableUnauthorizedAccount",
      "type": "error"
    },
    {
      "inputs": [],
      "name": "UUPSUnauthorizedCallContext",
      "type": "error"
    },
    {
      "inputs": [
        {
          "internalType": "bytes32",
          "name": "slot",
          "type": "bytes32"
        }
      ],
      "name": "UUPSUnsupportedProxiableUUID",
      "type": "error"
    },
    {
      "anonymous": false,
      "inputs": [
        {
          "indexed": false,
          "internalType": "uint64",
          "name": "version",
          "type": "uint64"
        }
      ],
      "name": "Initialized",
      "type": "event"
    },
    {
      "anonymous": false,
      "inputs": [
        {
          "indexed": true,
          "internalType": "address",
          "name": "previousOwner",
          "type": "address"
        },
        {
          "indexed": true,
          "internalType": "address",
          "name": "newOwner",
          "type": "address"
        }
      ],
      "name": "OwnershipTransferred",
      "type": "event"
    },
    {
      "anonymous": false,
      "inputs": [
        {
          "indexed": false,
          "internalType": "address",
          "name": "proxy",
          "type": "address"
        }
      ],
      "name": "TokenDeployed",
      "type": "event"
    },
    {
      "anonymous": false,
      "inputs": [
        {
          "indexed": true,
          "internalType": "address",
          "name": "implementation",
          "type": "address"
        }
      ],
      "name": "Upgraded",
      "type": "event"
    },
    {
      "inputs": [],
      "name": "UPGRADE_INTERFACE_VERSION",
      "outputs": [
        {
          "internalType": "string",
          "name": "",
          "type": "string"
        }
      ],
      "stateMutability": "view",
      "type": "function"
    },
    {
      "inputs": [],
      "name": "beacon",
      "outputs": [
        {
          "internalType": "address",
          "name": "",
          "type": "address"
        }
      ],
      "stateMutability": "view",
      "type": "function"
    },
    {
      "inputs": [],
      "name": "bridge",
      "outputs": [
        {
          "internalType": "address",
          "name": "",
          "type": "address"
        }
      ],
      "stateMutability": "view",
      "type": "function"
    },
    {
      "inputs": [
        {
          "internalType": "string",
          "name": "name",
          "type": "string"
        },
        {
          "internalType": "string",
          "name": "symbol",
          "type": "string"
        },
        {
          "internalType": "address",
          "name": "keyLogRegistry",
          "type": "address"
        },
        {
          "internalType": "uint8",
          "name": "decimals_",
          "type": "uint8"
        }
      ],
      "name": "createToken",
      "outputs": [
        {
          "internalType": "address",
          "name": "",
          "type": "address"
        }
      ],
      "stateMutability": "nonpayable",
      "type": "function"
    },
    {
      "inputs": [
        {
          "internalType": "address",
          "name": "_beacon",
          "type": "address"
        },
        {
          "internalType": "address",
          "name": "_owner",
          "type": "address"
        },
        {
          "internalType": "address",
          "name": "_bridge",
          "type": "address"
        }
      ],
      "name": "initialize",
      "outputs": [],
      "stateMutability": "nonpayable",
      "type": "function"
    },
    {
      "inputs": [],
      "name": "owner",
      "outputs": [
        {
          "internalType": "address",
          "name": "",
          "type": "address"
        }
      ],
      "stateMutability": "view",
      "type": "function"
    },
    {
      "inputs": [],
      "name": "proxiableUUID",
      "outputs": [
        {
          "internalType": "bytes32",
          "name": "",
          "type": "bytes32"
        }
      ],
      "stateMutability": "view",
      "type": "function"
    },
    {
      "inputs": [],
      "name": "renounceOwnership",
      "outputs": [],
      "stateMutability": "nonpayable",
      "type": "function"
    },
    {
      "inputs": [
        {
          "internalType": "address",
          "name": "newOwner",
          "type": "address"
        }
      ],
      "name": "transferOwnership",
      "outputs": [],
      "stateMutability": "nonpayable",
      "type": "function"
    },
    {
      "inputs": [
        {
          "internalType": "address",
          "name": "newImplementation",
          "type": "address"
        },
        {
          "internalType": "bytes",
          "name": "data",
          "type": "bytes"
        }
      ],
      "name": "upgradeToAndCall",
      "outputs": [],
      "stateMutability": "payable",
      "type": "function"
    }
  ],
  "bytecode": "0x60a060405230608052348015610013575f80fd5b5061001c610021565b6100d3565b7ff0c57e16840df040f15088dc2f81fe391c3923bec73e23a9662efc9c229c6a00805468010000000000000000900460ff16156100715760405163f92ee8a960e01b815260040160405180910390fd5b80546001600160401b03908116146100d05780546001600160401b0319166001600160401b0390811782556040519081527fc7f505b2f371ae2175ee4913f4499e1f2633a7b5936321eed1cdaeb6115181d29060200160405180910390a15b50565b6080516114116100f95f395f8181610590015281816105ba015261075e01526114115ff3fe6080604052600436106200009b575f3560e01c8063ad3cb1cc116200005e578063ad3cb1cc146200014a578063c0c53b8b146200018b578063e142400e14620001af578063e78cea9214620001d3578063f2fde38b14620001f3575f80fd5b80634f1ef286146200009f57806352d1902d14620000b857806359659e9014620000e2578063715018a6146200011c5780638da5cb5b1462000133575b5f80fd5b620000b6620000b036600462000b51565b62000217565b005b348015620000c4575f80fd5b50620000cf6200023c565b6040519081526020015b60405180910390f35b348015620000ee575f80fd5b5060015462000103906001600160a01b031681565b6040516001600160a01b039091168152602001620000d9565b34801562000128575f80fd5b50620000b66200025a565b3480156200013f575f80fd5b506200010362000271565b34801562000156575f80fd5b506200017c604051806040016040528060058152602001640352e302e360dc1b81525081565b604051620000d9919062000c09565b34801562000197575f80fd5b50620000b6620001a936600462000c1d565b620002ed565b348015620001bb575f80fd5b5062000103620001cd36600462000c8d565b6200043e565b348015620001df575f80fd5b505f5462000103906001600160a01b031681565b348015620001ff575f80fd5b50620000b66200021136600462000d20565b6200053e565b6200022162000585565b6200022c826200062d565b62000238828262000688565b5050565b5f6200024762000753565b505f80516020620013bc83398151915290565b620002646200079d565b6200026f5f620007d3565b565b5f805f9054906101000a90046001600160a01b03166001600160a01b031663893d20e86040518163ffffffff1660e01b8152600401602060405180830381865afa158015620002c2573d5f803e3d5ffd5b505050506040513d601f19601f82011682018060405250810190620002e8919062000d3e565b905090565b7ff0c57e16840df040f15088dc2f81fe391c3923bec73e23a9662efc9c229c6a008054600160401b810460ff16159067ffffffffffffffff165f81158015620003335750825b90505f8267ffffffffffffffff166001148015620003505750303b155b9050811580156200035f575080155b156200037e5760405163f92ee8a960e01b815260040160405180910390fd5b845467ffffffffffffffff191660011785558315620003a957845460ff60401b1916600160401b1785555b620003b48762000843565b620003be62000858565b600180546001600160a01b03808b166001600160a01b0319928316179092555f80549289169290911691909117905583156200043457845460ff60401b19168555604051600181527fc7f505b2f371ae2175ee4913f4499e1f2633a7b5936321eed1cdaeb6115181d29060200160405180910390a15b5050505050505050565b5f620004496200079d565b5f805460405163328ec1b360e11b916200047a91899189916001600160a01b03909116908990899060240162000d5c565b60408051601f198184030181529181526020820180516001600160e01b03166001600160e01b03199094169390931790925260015491519092505f916001600160a01b0316908390620004cd9062000aa0565b620004da92919062000db1565b604051809103905ff080158015620004f4573d5f803e3d5ffd5b506040516001600160a01b03821681529091507f91d24864a084ab70b268a1f865e757ca12006cf298d763b6be697302ef86498c9060200160405180910390a19695505050505050565b620005486200079d565b6001600160a01b0381166200057757604051631e4fbdf760e01b81525f60048201526024015b60405180910390fd5b6200058281620007d3565b50565b306001600160a01b037f00000000000000000000000000000000000000000000000000000000000000001614806200060e57507f00000000000000000000000000000000000000000000000000000000000000006001600160a01b0316620006025f80516020620013bc833981519152546001600160a01b031690565b6001600160a01b031614155b156200026f5760405163703e46dd60e11b815260040160405180910390fd5b5f546001600160a01b03163314620005825760405162461bcd60e51b815260206004820152601760248201527f4f6e6c79206272696467652063616e207570677261646500000000000000000060448201526064016200056e565b816001600160a01b03166352d1902d6040518163ffffffff1660e01b8152600401602060405180830381865afa925050508015620006e5575060408051601f3d908101601f19168201909252620006e29181019062000dde565b60015b6200070f57604051634c9c8ce360e01b81526001600160a01b03831660048201526024016200056e565b5f80516020620013bc83398151915281146200074257604051632a87526960e21b8152600481018290526024016200056e565b6200074e838362000862565b505050565b306001600160a01b037f000000000000000000000000000000000000000000000000000000000000000016146200026f5760405163703e46dd60e11b815260040160405180910390fd5b33620007a862000271565b6001600160a01b0316146200026f5760405163118cdaa760e01b81523360048201526024016200056e565b7f9016d09d72d40fdae2fd8ceac6b6234c7706214fd39c1cd1e609a0528c19930080546001600160a01b031981166001600160a01b03848116918217845560405192169182907f8be0079c531659141344cd1fd0a4f28419497f9722a3daafe3b4186f6b6457e0905f90a3505050565b6200084d620008be565b620005828162000908565b6200026f620008be565b6200086d8262000912565b6040516001600160a01b038316907fbc7cd75a20ee27fd9adebab32041f755214dbc6bffa90cc0225b39da2e5c2d3b905f90a2805115620008b4576200074e828262000978565b62000238620009f0565b7ff0c57e16840df040f15088dc2f81fe391c3923bec73e23a9662efc9c229c6a0054600160401b900460ff166200026f57604051631afcd79f60e31b815260040160405180910390fd5b62000548620008be565b806001600160a01b03163b5f036200094957604051634c9c8ce360e01b81526001600160a01b03821660048201526024016200056e565b5f80516020620013bc83398151915280546001600160a01b0319166001600160a01b0392909216919091179055565b60605f80846001600160a01b03168460405162000996919062000df6565b5f60405180830381855af49150503d805f8114620009d0576040519150601f19603f3d011682016040523d82523d5f602084013e620009d5565b606091505b5091509150620009e785838362000a10565b95945050505050565b34156200026f5760405163b398979f60e01b815260040160405180910390fd5b60608262000a295762000a238262000a76565b62000a6f565b815115801562000a4157506001600160a01b0384163b155b1562000a6c57604051639996b31560e01b81526001600160a01b03851660048201526024016200056e565b50805b9392505050565b80511562000a875780518082602001fd5b60405163d6bda27560e01b815260040160405180910390fd5b6105a88062000e1483390190565b6001600160a01b038116811462000582575f80fd5b634e487b7160e01b5f52604160045260245ffd5b5f67ffffffffffffffff8084111562000af45762000af462000ac3565b604051601f8501601f19908116603f0116810190828211818310171562000b1f5762000b1f62000ac3565b8160405280935085815286868601111562000b38575f80fd5b858560208301375f602087830101525050509392505050565b5f806040838503121562000b63575f80fd5b823562000b708162000aae565b9150602083013567ffffffffffffffff81111562000b8c575f80fd5b8301601f8101851362000b9d575f80fd5b62000bae8582356020840162000ad7565b9150509250929050565b5f5b8381101562000bd457818101518382015260200162000bba565b50505f910152565b5f815180845262000bf581602086016020860162000bb8565b601f01601f19169290920160200192915050565b602081525f62000a6f602083018462000bdc565b5f805f6060848603121562000c30575f80fd5b833562000c3d8162000aae565b9250602084013562000c4f8162000aae565b9150604084013562000c618162000aae565b809150509250925092565b5f82601f83011262000c7c575f80fd5b62000a6f8383356020850162000ad7565b5f805f806080858703121562000ca1575f80fd5b843567ffffffffffffffff8082111562000cb9575f80fd5b62000cc78883890162000c6c565b9550602087013591508082111562000cdd575f80fd5b5062000cec8782880162000c6c565b935050604085013562000cff8162000aae565b9150606085013560ff8116811462000d15575f80fd5b939692955090935050565b5f6020828403121562000d31575f80fd5b813562000a6f8162000aae565b5f6020828403121562000d4f575f80fd5b815162000a6f8162000aae565b60a081525f62000d7060a083018862000bdc565b828103602084015262000d84818862000bdc565b6001600160a01b0396871660408501529490951660608301525060ff919091166080909101529392505050565b6001600160a01b03831681526040602082018190525f9062000dd69083018462000bdc565b949350505050565b5f6020828403121562000def575f80fd5b5051919050565b5f825162000e0981846020870162000bb8565b919091019291505056fe60a060405234801561000f575f80fd5b506040516105a83803806105a883398101604081905261002e91610387565b818161003a828261004f565b506001600160a01b0316608052506104769050565b6100588261010c565b6040516001600160a01b038316907f1cf3b03a6cf19fa2baba4df148e9dcabedea7f8a5c07840e207e5c089be95d3e905f90a2805115610100576100fb826001600160a01b0316635c60da1b6040518163ffffffff1660e01b8152600401602060405180830381865afa1580156100d1573d5f803e3d5ffd5b505050506040513d601f19601f820116820180604052508101906100f59190610442565b8261021a565b505050565b61010861028d565b5050565b806001600160a01b03163b5f0361014657604051631933b43b60e21b81526001600160a01b03821660048201526024015b60405180910390fd5b807fa3f0ad74e5423aebfd80d3ef4346578335a9a72aeaee59ff6cb3582b35133d5080546001600160a01b0319166001600160a01b0392831617905560408051635c60da1b60e01b815290515f92841691635c60da1b9160048083019260209291908290030181865afa1580156101bf573d5f803e3d5ffd5b505050506040513d601f19601f820116820180604052508101906101e39190610442565b9050806001600160a01b03163b5f0361010857604051634c9c8ce360e01b81526001600160a01b038216600482015260240161013d565b60605f80846001600160a01b031684604051610236919061045b565b5f60405180830381855af49150503d805f811461026e576040519150601f19603f3d011682016040523d82523d5f602084013e610273565b606091505b5090925090506102848583836102ae565b95945050505050565b34156102ac5760405163b398979f60e01b815260040160405180910390fd5b565b6060826102c3576102be8261030d565b610306565b81511580156102da57506001600160a01b0384163b155b1561030357604051639996b31560e01b81526001600160a01b038516600482015260240161013d565b50805b9392505050565b80511561031d5780518082602001fd5b60405163d6bda27560e01b815260040160405180910390fd5b80516001600160a01b038116811461034c575f80fd5b919050565b634e487b7160e01b5f52604160045260245ffd5b5f5b8381101561037f578181015183820152602001610367565b50505f910152565b5f8060408385031215610398575f80fd5b6103a183610336565b60208401519092506001600160401b03808211156103bd575f80fd5b818501915085601f8301126103d0575f80fd5b8151818111156103e2576103e2610351565b604051601f8201601f19908116603f0116810190838211818310171561040a5761040a610351565b81604052828152886020848701011115610422575f80fd5b610433836020830160208801610365565b80955050505050509250929050565b5f60208284031215610452575f80fd5b61030682610336565b5f825161046c818460208701610365565b9190910192915050565b60805161011b61048d5f395f601d015261011b5ff3fe6080604052600a600c565b005b60186014601a565b609d565b565b5f7f00000000000000000000000000000000000000000000000000000000000000006001600160a01b0316635c60da1b6040518163ffffffff1660e01b8152600401602060405180830381865afa1580156076573d5f803e3d5ffd5b505050506040513d601f19601f820116820180604052508101906098919060ba565b905090565b365f80375f80365f845af43d5f803e80801560b6573d5ff35b3d5ffd5b5f6020828403121560c9575f80fd5b81516001600160a01b038116811460de575f80fd5b939250505056fea2646970667358221220463051bc565486b78d20466cf8d3347387dcc0893c78b8618c818ffd87132f7b64736f6c63430008180033360894a13ba1a3210667c828492db98dca3e2076cc3735a920a3ca505d382bbca2646970667358221220175fcba8500e166a01e55339d3f60c37e029e255f0d820eef549832b2fc13afb64736f6c63430008180033",
  "linkReferences": {},
  "deployedLinkReferences": {}
}