{
  "_format": "hh-sol-artifact-1",
  "contractName": "WrappedToken",
  "sourceName": "contracts/WrappedToken.sol",
  "abi": [
    {
      "inputs": [
        {
          "internalType": "string",
          "name": "name",
          "type": "string"
        },
        {
          "internalType": "string",
          "name": "symbol",
          "type": "string"
        },
        {
          "internalType": "address",
          "name": "_bridge",
          "type": "address"
        },
        {
          "internalType": "address",
          "name": "_keyLogRegistry",
          "type": "address"
        }
      ],
      "stateMutability": "nonpayable",
      "type": "constructor"
    },
    {
      "inputs": [
        {
          "internalType": "address",
          "name": "spender",
          "type": "address"
        },
        {
          "internalType": "uint256",
          "name": "allowance",
          "type": "uint256"
        },
        {
          "internalType": "uint256",
          "name": "needed",
          "type": "uint256"
        }
      ],
      "name": "ERC20InsufficientAllowance",
      "type": "error"
    },
    {
      "inputs": [
        {
          "internalType": "address",
          "name": "sender",
          "type": "address"
        },
        {
          "internalType": "uint256",
          "name": "balance",
          "type": "uint256"
        },
        {
          "internalType": "uint256",
          "name": "needed",
          "type": "uint256"
        }
      ],
      "name": "ERC20InsufficientBalance",
      "type": "error"
    },
    {
      "inputs": [
        {
          "internalType": "address",
          "name": "approver",
          "type": "address"
        }
      ],
      "name": "ERC20InvalidApprover",
      "type": "error"
    },
    {
      "inputs": [
        {
          "internalType": "address",
          "name": "receiver",
          "type": "address"
        }
      ],
      "name": "ERC20InvalidReceiver",
      "type": "error"
    },
    {
      "inputs": [
        {
          "internalType": "address",
          "name": "sender",
          "type": "address"
        }
      ],
      "name": "ERC20InvalidSender",
      "type": "error"
    },
    {
      "inputs": [
        {
          "internalType": "address",
          "name": "spender",
          "type": "address"
        }
      ],
      "name": "ERC20InvalidSpender",
      "type": "error"
    },
    {
      "anonymous": false,
      "inputs": [
        {
          "indexed": true,
          "internalType": "address",
          "name": "owner",
          "type": "address"
        },
        {
          "indexed": true,
          "internalType": "address",
          "name": "spender",
          "type": "address"
        },
        {
          "indexed": false,
          "internalType": "uint256",
          "name": "value",
          "type": "uint256"
        }
      ],
      "name": "Approval",
      "type": "event"
    },
    {
      "anonymous": false,
      "inputs": [
        {
          "indexed": true,
          "internalType": "address",
          "name": "from",
          "type": "address"
        },
        {
          "indexed": true,
          "internalType": "address",
          "name": "to",
          "type": "address"
        },
        {
          "indexed": false,
          "internalType": "uint256",
          "name": "value",
          "type": "uint256"
        }
      ],
      "name": "Transfer",
      "type": "event"
    },
    {
      "inputs": [
        {
          "internalType": "address",
          "name": "owner",
          "type": "address"
        },
        {
          "internalType": "address",
          "name": "spender",
          "type": "address"
        }
      ],
      "name": "allowance",
      "outputs": [
        {
          "internalType": "uint256",
          "name": "",
          "type": "uint256"
        }
      ],
      "stateMutability": "view",
      "type": "function"
    },
    {
      "inputs": [
        {
          "internalType": "address",
          "name": "spender",
          "type": "address"
        },
        {
          "internalType": "uint256",
          "name": "value",
          "type": "uint256"
        }
      ],
      "name": "approve",
      "outputs": [
        {
          "internalType": "bool",
          "name": "",
          "type": "bool"
        }
      ],
      "stateMutability": "nonpayable",
      "type": "function"
    },
    {
      "inputs": [
        {
          "internalType": "address",
          "name": "account",
          "type": "address"
        }
      ],
      "name": "balanceOf",
      "outputs": [
        {
          "internalType": "uint256",
          "name": "",
          "type": "uint256"
        }
      ],
      "stateMutability": "view",
      "type": "function"
    },
    {
      "inputs": [],
      "name": "bridge",
      "outputs": [
        {
          "internalType": "address",
          "name": "",
          "type": "address"
        }
      ],
      "stateMutability": "view",
      "type": "function"
    },
    {
      "inputs": [
        {
          "internalType": "address",
          "name": "from",
          "type": "address"
        },
        {
          "internalType": "uint256",
          "name": "amount",
          "type": "uint256"
        }
      ],
      "name": "burn",
      "outputs": [],
      "stateMutability": "nonpayable",
      "type": "function"
    },
    {
      "inputs": [],
      "name": "decimals",
      "outputs": [
        {
          "internalType": "uint8",
          "name": "",
          "type": "uint8"
        }
      ],
      "stateMutability": "view",
      "type": "function"
    },
    {
      "inputs": [],
      "name": "keyLogRegistry",
      "outputs": [
        {
          "internalType": "contract KeyLogRegistry",
          "name": "",
          "type": "address"
        }
      ],
      "stateMutability": "view",
      "type": "function"
    },
    {
      "inputs": [
        {
          "internalType": "address",
          "name": "to",
          "type": "address"
        },
        {
          "internalType": "uint256",
          "name": "amount",
          "type": "uint256"
        }
      ],
      "name": "mint",
      "outputs": [],
      "stateMutability": "nonpayable",
      "type": "function"
    },
    {
      "inputs": [],
      "name": "name",
      "outputs": [
        {
          "internalType": "string",
          "name": "",
          "type": "string"
        }
      ],
      "stateMutability": "view",
      "type": "function"
    },
    {
      "inputs": [],
      "name": "symbol",
      "outputs": [
        {
          "internalType": "string",
          "name": "",
          "type": "string"
        }
      ],
      "stateMutability": "view",
      "type": "function"
    },
    {
      "inputs": [],
      "name": "totalSupply",
      "outputs": [
        {
          "internalType": "uint256",
          "name": "",
          "type": "uint256"
        }
      ],
      "stateMutability": "view",
      "type": "function"
    },
    {
      "inputs": [
        {
          "internalType": "address",
          "name": "to",
          "type": "address"
        },
        {
          "internalType": "uint256",
          "name": "amount",
          "type": "uint256"
        }
      ],
      "name": "transfer",
      "outputs": [
        {
          "internalType": "bool",
          "name": "",
          "type": "bool"
        }
      ],
      "stateMutability": "nonpayable",
      "type": "function"
    },
    {
      "inputs": [
        {
          "internalType": "address",
          "name": "from",
          "type": "address"
        },
        {
          "internalType": "address",
          "name": "to",
          "type": "address"
        },
        {
          "internalType": "uint256",
          "name": "amount",
          "type": "uint256"
        }
      ],
      "name": "transferFrom",
      "outputs": [
        {
          "internalType": "bool",
          "name": "",
          "type": "bool"
        }
      ],
      "stateMutability": "nonpayable",
      "type": "function"
    }
  ],
  "bytecode": "0x608060405234620003685762000f5d803803806200001d816200036d565b9283398101608082820312620003685781516001600160401b0391908281116200036857816200004f91850162000393565b602091828501519084821162000368576200006c91860162000393565b92620000896060620000816040880162000405565b960162000405565b93825182811162000268576003918254916001958684811c941680156200035d575b8885101462000347578190601f94858111620002f1575b5088908583116001146200028a576000926200027e575b505060001982861b1c191690861b1783555b8051938411620002685760049586548681811c911680156200025d575b828210146200024857838111620001fd575b50809285116001146200018f575093839491849260009562000183575b50501b92600019911b1c19161790555b600580546001600160a01b039384166001600160a01b03199182161790915560068054929093169116179055604051610b4290816200041b8239f35b01519350388062000137565b92919084601f1981168860005285600020956000905b89838310620001e25750505010620001c7575b50505050811b01905562000147565b01519060f884600019921b161c1916905538808080620001b8565b858701518955909701969485019488935090810190620001a5565b87600052816000208480880160051c8201928489106200023e575b0160051c019087905b828110620002315750506200011a565b6000815501879062000221565b9250819262000218565b602288634e487b7160e01b6000525260246000fd5b90607f169062000108565b634e487b7160e01b600052604160045260246000fd5b015190503880620000d9565b90889350601f19831691876000528a6000209260005b8c828210620002da5750508411620002c1575b505050811b018355620000eb565b015160001983881b60f8161c19169055388080620002b3565b8385015186558c97909501949384019301620002a0565b90915085600052886000208580850160051c8201928b86106200033d575b918a91869594930160051c01915b8281106200032d575050620000c2565b600081558594508a91016200031d565b925081926200030f565b634e487b7160e01b600052602260045260246000fd5b93607f1693620000ab565b600080fd5b6040519190601f01601f191682016001600160401b038111838210176200026857604052565b919080601f84011215620003685782516001600160401b0381116200026857602090620003c9601f8201601f191683016200036d565b92818452828287010111620003685760005b818110620003f157508260009394955001015290565b8581018301518482018401528201620003db565b51906001600160a01b0382168203620003685756fe608060408181526004918236101561001657600080fd5b600092833560e01c91826306fdde031461065757508163095ea7b3146105ad57816318160ddd1461058e57816323b872dd14610488578163313ce5671461046c57816340c10f19146103af57816370a082311461037857816395d89b41146102735781639dc29fac1461019157508063a9059cbb1461014f578063b5057a7b14610127578063dd62ed3e146100df5763e78cea92146100b457600080fd5b346100db57816003193601126100db5760055490516001600160a01b039091168152602090f35b5080fd5b50346100db57806003193601126100db57806020926100fc610795565b6101046107b0565b6001600160a01b0391821683526001865283832091168252845220549051908152f35b50346100db57816003193601126100db5760065490516001600160a01b039091168152602090f35b50346100db57806003193601126100db5760209061018a61016e610795565b61018061017b82336108ae565b6107fe565b6024359033610a2e565b5160018152f35b839150346100db57826003193601126100db576101ac610795565b906024359060018060a01b036101c78160055416331461084a565b831692831561025c578385528460205285852054918383106102285750508184957fddf252ad1be2c89b69c2b068fc378daa952ba7f163c4a11628f55a4df523b3ef936020938688528785520381872055816002540360025551908152a380f35b865163391434e360e21b81526001600160a01b03909216908201908152602081018390526040810184905281906060010390fd5b8551634b637e8f60e11b8152808301869052602490fd5b8383346100db57816003193601126100db5780519180938054916001908360011c926001851694851561036e575b602095868610811461035b5785895290811561033757506001146102df575b6102db87876102d1828c03836107c6565b519182918261074c565b0390f35b81529295507f8a35acfbc15ff81a39ae7d344fd709f28e8600b4aa8c65c6b64bfe7fe36bd19b5b82841061032457505050826102db946102d1928201019486806102c0565b8054868501880152928601928101610306565b60ff19168887015250505050151560051b83010192506102d1826102db86806102c0565b634e487b7160e01b845260228352602484fd5b93607f16936102a1565b5050346100db5760203660031901126100db5760209181906001600160a01b036103a0610795565b16815280845220549051908152f35b919050346104685780600319360112610468576103ca610795565b60055460243592916001600160a01b03916103e8908316331461084a565b169283156104535760025490838201809211610440575084927fddf252ad1be2c89b69c2b068fc378daa952ba7f163c4a11628f55a4df523b3ef9260209260025585855284835280852082815401905551908152a380f35b634e487b7160e01b865260119052602485fd5b84602492519163ec442f0560e01b8352820152fd5b8280fd5b5050346100db57816003193601126100db576020905160128152f35b9050823461058b57606036600319011261058b576104a4610795565b6104ac6107b0565b91604435936104be61017b85856108ae565b6001600160a01b038316808352600160209081528784203385529052868320549160001983106104f7575b60208861018a898989610a2e565b86831061055f5781156105485733156105315750825260016020908152868320338452815291869020908590039055829061018a876104e9565b8751634a1406b160e11b8152908101849052602490fd5b875163e602df0560e01b8152908101849052602490fd5b8751637dc7a0d960e11b8152339181019182526020820193909352604081018790528291506060010390fd5b80fd5b5050346100db57816003193601126100db576020906002549051908152f35b9050346104685781600319360112610468576105c7610795565b602435903315610640576001600160a01b031691821561062957508083602095338152600187528181208582528752205582519081527f8c5be1e5ebec7d5bd14f71427d1e84f3dd0314c0f7b2291e5b200ac8c7c3b925843392a35160018152f35b8351634a1406b160e11b8152908101859052602490fd5b835163e602df0560e01b8152808401869052602490fd5b92915034610748578360031936011261074857600354600181811c918690828116801561073e575b602095868610821461072b575084885290811561070957506001146106b0575b6102db86866102d1828b03836107c6565b929550600383527fc2575a0e9e593c00f959f8c92f12db2869c3395a3b0502d05e2516446f71f85b5b8284106106f657505050826102db946102d192820101943861069f565b80548685018801529286019281016106d9565b60ff191687860152505050151560051b83010192506102d1826102db3861069f565b634e487b7160e01b845260229052602483fd5b93607f169361067f565b8380fd5b6020808252825181830181905290939260005b82811061078157505060409293506000838284010152601f8019910116010190565b81810186015184820160400152850161075f565b600435906001600160a01b03821682036107ab57565b600080fd5b602435906001600160a01b03821682036107ab57565b90601f8019910116810190811067ffffffffffffffff8211176107e857604052565b634e487b7160e01b600052604160045260246000fd5b1561080557565b60405162461bcd60e51b815260206004820152601c60248201527f496e76616c6964206b6579206c6f6720666f72207472616e73666572000000006044820152606490fd5b1561085157565b60405162461bcd60e51b815260206004820152601460248201527313db9b1e48189c9a5919d94818d85b8818d85b1b60621b6044820152606490fd5b51906001600160a01b03821682036107ab57565b519081151582036107ab57565b600654604080516324b9c44160e21b81526001600160a01b0393841660048201819052939290916101209182908490602490829088165afa918215610a2357600093849361092a575b5050506109075750505050600090565b60200151811691821492831561091e575b50505090565b16149050388080610918565b818193959294503d8511610a1c575b61094381836107c6565b81010392831261058b5761010080931261058b5783519383850185811067ffffffffffffffff821117610a0857815261097b8361088d565b85526109896020840161088d565b602086015261099981840161088d565b908501526109a96060830161088d565b60608501526109ba6080830161088d565b60808501526109cb60a083016108a1565b60a08501526109dc60c083016108a1565b60c085015260e082015190600382101561058b575060e0840152610a0091016108a1565b3880806108f7565b634e487b7160e01b83526041600452602483fd5b503d610939565b50513d6000823e3d90fd5b916001600160a01b03808416928315610af35716928315610ada5760009083825281602052604082205490838210610aa8575091604082827fddf252ad1be2c89b69c2b068fc378daa952ba7f163c4a11628f55a4df523b3ef958760209652828652038282205586815220818154019055604051908152a3565b60405163391434e360e21b81526001600160a01b03919091166004820152602481019190915260448101839052606490fd5b60405163ec442f0560e01b815260006004820152602490fd5b604051634b637e8f60e11b815260006004820152602490fdfea2646970667358221220c3e8c94a311bd2e0ebed9d7b0ad6a1242038326cbbb569f22ef01a8482b07b2c64736f6c63430008180033",
  "linkReferences": {},
  "deployedLinkReferences": {}
}