{
  "_format": "hh-sol-artifact-1",
  "contractName": "WrappedTokenBeacon",
  "sourceName": "contracts/WrappedTokenBeacon.sol",
  "abi": [
    {
      "inputs": [
        {
          "internalType": "address",
          "name": "implementation",
          "type": "address"
        },
        {
          "internalType": "address",
          "name": "_bridgeAddress",
          "type": "address"
        }
      ],
      "stateMutability": "nonpayable",
      "type": "constructor"
    },
    {
      "inputs": [
        {
          "internalType": "address",
          "name": "implementation",
          "type": "address"
        }
      ],
      "name": "BeaconInvalidImplementation",
      "type": "error"
    },
    {
      "inputs": [
        {
          "internalType": "address",
          "name": "owner",
          "type": "address"
        }
      ],
      "name": "OwnableInvalidOwner",
      "type": "error"
    },
    {
      "inputs": [
        {
          "internalType": "address",
          "name": "account",
          "type": "address"
        }
      ],
      "name": "OwnableUnauthorizedAccount",
      "type": "error"
    },
    {
      "anonymous": false,
      "inputs": [
        {
          "indexed": true,
          "internalType": "address",
          "name": "previousOwner",
          "type": "address"
        },
        {
          "indexed": true,
          "internalType": "address",
          "name": "newOwner",
          "type": "address"
        }
      ],
      "name": "OwnershipTransferred",
      "type": "event"
    },
    {
      "anonymous": false,
      "inputs": [
        {
          "indexed": true,
          "internalType": "address",
          "name": "implementation",
          "type": "address"
        }
      ],
      "name": "Upgraded",
      "type": "event"
    },
    {
      "inputs": [],
      "name": "bridgeAddress",
      "outputs": [
        {
          "internalType": "address",
          "name": "",
          "type": "address"
        }
      ],
      "stateMutability": "view",
      "type": "function"
    },
    {
      "inputs": [],
      "name": "implementation",
      "outputs": [
        {
          "internalType": "address",
          "name": "",
          "type": "address"
        }
      ],
      "stateMutability": "view",
      "type": "function"
    },
    {
      "inputs": [],
      "name": "owner",
      "outputs": [
        {
          "internalType": "address",
          "name": "",
          "type": "address"
        }
      ],
      "stateMutability": "view",
      "type": "function"
    },
    {
      "inputs": [],
      "name": "renounceOwnership",
      "outputs": [],
      "stateMutability": "nonpayable",
      "type": "function"
    },
    {
      "inputs": [
        {
          "internalType": "address",
          "name": "newOwner",
          "type": "address"
        }
      ],
      "name": "transferOwnership",
      "outputs": [],
      "stateMutability": "nonpayable",
      "type": "function"
    },
    {
      "inputs": [
        {
          "internalType": "address",
          "name": "newImplementation",
          "type": "address"
        }
      ],
      "name": "upgradeTo",
      "outputs": [],
      "stateMutability": "nonpayable",
      "type": "function"
    }
  ],
  "bytecode": "0x60806040908082523461016d57818161053a80380380916100208285610185565b83398101031261016d57806100366020926101be565b6001600160a01b03929091839161004d91016101be565b16918351631127a41d60e31b8152602081600481875afa801561017a578291600091610139575b50169182156101215760005460018060a01b031993808583161760005583875192167f8be0079c531659141344cd1fd0a4f28419497f9722a3daafe3b4186f6b6457e0600080a3813b1561010a575016928382600154161760015551927fbc7cd75a20ee27fd9adebab32041f755214dbc6bffa90cc0225b39da2e5c2d3b600080a2600254161760025561036790816101d38239f35b63211eb15960e21b81529082166004820152602490fd5b8451631e4fbdf760e01b815260006004820152602490fd5b9150506020813d602011610172575b8161015560209383610185565b8101031261016d5761016782916101be565b38610074565b600080fd5b3d9150610148565b85513d6000823e3d90fd5b601f909101601f19168101906001600160401b038211908210176101a857604052565b634e487b7160e01b600052604160045260246000fd5b51906001600160a01b038216820361016d5756fe604060808152600436101561001357600080fd5b600090813560e01c80633659cfe6146101ca5780635c60da1b146101a2578063715018a6146101455780638da5cb5b14610118578063a3c573eb146100f05763f2fde38b1461006157600080fd5b346100ec5760203660031901126100ec576001600160a01b0360043581811692908390036100e8576100916102fe565b82156100d1575082546001600160a01b0319811683178455167f8be0079c531659141344cd1fd0a4f28419497f9722a3daafe3b4186f6b6457e08380a380f35b51631e4fbdf760e01b815260048101849052602490fd5b8380fd5b5080fd5b50346100ec57816003193601126100ec5760025490516001600160a01b039091168152602090f35b50346100ec57816003193601126100ec57602090610134610251565b90516001600160a01b039091168152f35b823461019f578060031936011261019f5761015e6102fe565b80546001600160a01b03198116825581906001600160a01b03167f8be0079c531659141344cd1fd0a4f28419497f9722a3daafe3b4186f6b6457e08280a380f35b80fd5b50346100ec57816003193601126100ec5760015490516001600160a01b039091168152602090f35b50346100ec5760203660031901126100ec576004356001600160a01b03811691908281036100e8576101fa6102fe565b3b1561023a5750600180546001600160a01b031916821790557fbc7cd75a20ee27fd9adebab32041f755214dbc6bffa90cc0225b39da2e5c2d3b8280a280f35b60249250519063211eb15960e21b82526004820152fd5b600254604051631127a41d60e31b81526001600160a01b03916020908290600490829086165afa9081156102f25760009161028d575b50905090565b60203d6020116102eb575b601f8101601f1916820167ffffffffffffffff8111838210176102d7576020918391604052810103126100ec5751918216820361019f57508038610287565b634e487b7160e01b84526041600452602484fd5b503d610298565b6040513d6000823e3d90fd5b610306610251565b336001600160a01b039091160361031957565b60405163118cdaa760e01b8152336004820152602490fdfea264697066735822122098630e2c5e9139905de9cb30524f3dc7799ede1f9efe0a1a5e4942ca19d6f04b64736f6c63430008180033",
  "linkReferences": {},
  "deployedLinkReferences": {}
}