{
  "_format": "hh-sol-artifact-1",
  "contractName": "WrappedToken",
  "sourceName": "contracts/WrappedToken.sol",
  "abi": [
    {
      "inputs": [
        {
          "internalType": "address",
          "name": "target",
          "type": "address"
        }
      ],
      "name": "AddressEmptyCode",
      "type": "error"
    },
    {
      "inputs": [],
      "name": "ECDSAInvalidSignature",
      "type": "error"
    },
    {
      "inputs": [
        {
          "internalType": "uint256",
          "name": "length",
          "type": "uint256"
        }
      ],
      "name": "ECDSAInvalidSignatureLength",
      "type": "error"
    },
    {
      "inputs": [
        {
          "internalType": "bytes32",
          "name": "s",
          "type": "bytes32"
        }
      ],
      "name": "ECDSAInvalidSignatureS",
      "type": "error"
    },
    {
      "inputs": [
        {
          "internalType": "address",
          "name": "implementation",
          "type": "address"
        }
      ],
      "name": "ERC1967InvalidImplementation",
      "type": "error"
    },
    {
      "inputs": [],
      "name": "ERC1967NonPayable",
      "type": "error"
    },
    {
      "inputs": [
        {
          "internalType": "address",
          "name": "spender",
          "type": "address"
        },
        {
          "internalType": "uint256",
          "name": "allowance",
          "type": "uint256"
        },
        {
          "internalType": "uint256",
          "name": "needed",
          "type": "uint256"
        }
      ],
      "name": "ERC20InsufficientAllowance",
      "type": "error"
    },
    {
      "inputs": [
        {
          "internalType": "address",
          "name": "sender",
          "type": "address"
        },
        {
          "internalType": "uint256",
          "name": "balance",
          "type": "uint256"
        },
        {
          "internalType": "uint256",
          "name": "needed",
          "type": "uint256"
        }
      ],
      "name": "ERC20InsufficientBalance",
      "type": "error"
    },
    {
      "inputs": [
        {
          "internalType": "address",
          "name": "approver",
          "type": "address"
        }
      ],
      "name": "ERC20InvalidApprover",
      "type": "error"
    },
    {
      "inputs": [
        {
          "internalType": "address",
          "name": "receiver",
          "type": "address"
        }
      ],
      "name": "ERC20InvalidReceiver",
      "type": "error"
    },
    {
      "inputs": [
        {
          "internalType": "address",
          "name": "sender",
          "type": "address"
        }
      ],
      "name": "ERC20InvalidSender",
      "type": "error"
    },
    {
      "inputs": [
        {
          "internalType": "address",
          "name": "spender",
          "type": "address"
        }
      ],
      "name": "ERC20InvalidSpender",
      "type": "error"
    },
    {
      "inputs": [
        {
          "internalType": "uint256",
          "name": "deadline",
          "type": "uint256"
        }
      ],
      "name": "ERC2612ExpiredSignature",
      "type": "error"
    },
    {
      "inputs": [
        {
          "internalType": "address",
          "name": "signer",
          "type": "address"
        },
        {
          "internalType": "address",
          "name": "owner",
          "type": "address"
        }
      ],
      "name": "ERC2612InvalidSigner",
      "type": "error"
    },
    {
      "inputs": [],
      "name": "FailedCall",
      "type": "error"
    },
    {
      "inputs": [
        {
          "internalType": "address",
          "name": "account",
          "type": "address"
        },
        {
          "internalType": "uint256",
          "name": "currentNonce",
          "type": "uint256"
        }
      ],
      "name": "InvalidAccountNonce",
      "type": "error"
    },
    {
      "inputs": [],
      "name": "InvalidInitialization",
      "type": "error"
    },
    {
      "inputs": [],
      "name": "NotInitializing",
      "type": "error"
    },
    {
      "inputs": [
        {
          "internalType": "address",
          "name": "owner",
          "type": "address"
        }
      ],
      "name": "OwnableInvalidOwner",
      "type": "error"
    },
    {
      "inputs": [
        {
          "internalType": "address",
          "name": "account",
          "type": "address"
        }
      ],
      "name": "OwnableUnauthorizedAccount",
      "type": "error"
    },
    {
      "inputs": [],
      "name": "UUPSUnauthorizedCallContext",
      "type": "error"
    },
    {
      "inputs": [
        {
          "internalType": "bytes32",
          "name": "slot",
          "type": "bytes32"
        }
      ],
      "name": "UUPSUnsupportedProxiableUUID",
      "type": "error"
    },
    {
      "anonymous": false,
      "inputs": [
        {
          "indexed": true,
          "internalType": "address",
          "name": "owner",
          "type": "address"
        },
        {
          "indexed": true,
          "internalType": "address",
          "name": "spender",
          "type": "address"
        },
        {
          "indexed": false,
          "internalType": "uint256",
          "name": "value",
          "type": "uint256"
        }
      ],
      "name": "Approval",
      "type": "event"
    },
    {
      "anonymous": false,
      "inputs": [],
      "name": "EIP712DomainChanged",
      "type": "event"
    },
    {
      "anonymous": false,
      "inputs": [
        {
          "indexed": false,
          "internalType": "uint64",
          "name": "version",
          "type": "uint64"
        }
      ],
      "name": "Initialized",
      "type": "event"
    },
    {
      "anonymous": false,
      "inputs": [
        {
          "indexed": true,
          "internalType": "address",
          "name": "previousOwner",
          "type": "address"
        },
        {
          "indexed": true,
          "internalType": "address",
          "name": "newOwner",
          "type": "address"
        }
      ],
      "name": "OwnershipTransferred",
      "type": "event"
    },
    {
      "anonymous": false,
      "inputs": [
        {
          "indexed": true,
          "internalType": "address",
          "name": "from",
          "type": "address"
        },
        {
          "indexed": true,
          "internalType": "address",
          "name": "to",
          "type": "address"
        },
        {
          "indexed": false,
          "internalType": "uint256",
          "name": "value",
          "type": "uint256"
        }
      ],
      "name": "Transfer",
      "type": "event"
    },
    {
      "anonymous": false,
      "inputs": [
        {
          "indexed": true,
          "internalType": "address",
          "name": "implementation",
          "type": "address"
        }
      ],
      "name": "Upgraded",
      "type": "event"
    },
    {
      "inputs": [],
      "name": "DOMAIN_SEPARATOR",
      "outputs": [
        {
          "internalType": "bytes32",
          "name": "",
          "type": "bytes32"
        }
      ],
      "stateMutability": "view",
      "type": "function"
    },
    {
      "inputs": [],
      "name": "UPGRADE_INTERFACE_VERSION",
      "outputs": [
        {
          "internalType": "string",
          "name": "",
          "type": "string"
        }
      ],
      "stateMutability": "view",
      "type": "function"
    },
    {
      "inputs": [
        {
          "internalType": "address",
          "name": "owner",
          "type": "address"
        },
        {
          "internalType": "address",
          "name": "spender",
          "type": "address"
        }
      ],
      "name": "allowance",
      "outputs": [
        {
          "internalType": "uint256",
          "name": "",
          "type": "uint256"
        }
      ],
      "stateMutability": "view",
      "type": "function"
    },
    {
      "inputs": [
        {
          "internalType": "address",
          "name": "spender",
          "type": "address"
        },
        {
          "internalType": "uint256",
          "name": "value",
          "type": "uint256"
        }
      ],
      "name": "approve",
      "outputs": [
        {
          "internalType": "bool",
          "name": "",
          "type": "bool"
        }
      ],
      "stateMutability": "nonpayable",
      "type": "function"
    },
    {
      "inputs": [
        {
          "internalType": "address",
          "name": "account",
          "type": "address"
        }
      ],
      "name": "balanceOf",
      "outputs": [
        {
          "internalType": "uint256",
          "name": "",
          "type": "uint256"
        }
      ],
      "stateMutability": "view",
      "type": "function"
    },
    {
      "inputs": [],
      "name": "bridge",
      "outputs": [
        {
          "internalType": "address",
          "name": "",
          "type": "address"
        }
      ],
      "stateMutability": "view",
      "type": "function"
    },
    {
      "inputs": [
        {
          "internalType": "address",
          "name": "from",
          "type": "address"
        },
        {
          "internalType": "uint256",
          "name": "amount",
          "type": "uint256"
        }
      ],
      "name": "burn",
      "outputs": [],
      "stateMutability": "nonpayable",
      "type": "function"
    },
    {
      "inputs": [],
      "name": "decimals",
      "outputs": [
        {
          "internalType": "uint8",
          "name": "",
          "type": "uint8"
        }
      ],
      "stateMutability": "view",
      "type": "function"
    },
    {
      "inputs": [],
      "name": "eip712Domain",
      "outputs": [
        {
          "internalType": "bytes1",
          "name": "fields",
          "type": "bytes1"
        },
        {
          "internalType": "string",
          "name": "name",
          "type": "string"
        },
        {
          "internalType": "string",
          "name": "version",
          "type": "string"
        },
        {
          "internalType": "uint256",
          "name": "chainId",
          "type": "uint256"
        },
        {
          "internalType": "address",
          "name": "verifyingContract",
          "type": "address"
        },
        {
          "internalType": "bytes32",
          "name": "salt",
          "type": "bytes32"
        },
        {
          "internalType": "uint256[]",
          "name": "extensions",
          "type": "uint256[]"
        }
      ],
      "stateMutability": "view",
      "type": "function"
    },
    {
      "inputs": [
        {
          "internalType": "string",
          "name": "name",
          "type": "string"
        },
        {
          "internalType": "string",
          "name": "symbol",
          "type": "string"
        },
        {
          "internalType": "address",
          "name": "_bridge",
          "type": "address"
        }
      ],
      "name": "initialize",
      "outputs": [],
      "stateMutability": "nonpayable",
      "type": "function"
    },
    {
      "inputs": [
        {
          "internalType": "address",
          "name": "to",
          "type": "address"
        },
        {
          "internalType": "uint256",
          "name": "amount",
          "type": "uint256"
        }
      ],
      "name": "mint",
      "outputs": [],
      "stateMutability": "nonpayable",
      "type": "function"
    },
    {
      "inputs": [],
      "name": "name",
      "outputs": [
        {
          "internalType": "string",
          "name": "",
          "type": "string"
        }
      ],
      "stateMutability": "view",
      "type": "function"
    },
    {
      "inputs": [
        {
          "internalType": "address",
          "name": "owner",
          "type": "address"
        }
      ],
      "name": "nonces",
      "outputs": [
        {
          "internalType": "uint256",
          "name": "",
          "type": "uint256"
        }
      ],
      "stateMutability": "view",
      "type": "function"
    },
    {
      "inputs": [],
      "name": "owner",
      "outputs": [
        {
          "internalType": "address",
          "name": "",
          "type": "address"
        }
      ],
      "stateMutability": "view",
      "type": "function"
    },
    {
      "inputs": [
        {
          "internalType": "address",
          "name": "owner",
          "type": "address"
        },
        {
          "internalType": "address",
          "name": "spender",
          "type": "address"
        },
        {
          "internalType": "uint256",
          "name": "value",
          "type": "uint256"
        },
        {
          "internalType": "uint256",
          "name": "deadline",
          "type": "uint256"
        },
        {
          "internalType": "uint8",
          "name": "v",
          "type": "uint8"
        },
        {
          "internalType": "bytes32",
          "name": "r",
          "type": "bytes32"
        },
        {
          "internalType": "bytes32",
          "name": "s",
          "type": "bytes32"
        }
      ],
      "name": "permit",
      "outputs": [],
      "stateMutability": "nonpayable",
      "type": "function"
    },
    {
      "inputs": [],
      "name": "proxiableUUID",
      "outputs": [
        {
          "internalType": "bytes32",
          "name": "",
          "type": "bytes32"
        }
      ],
      "stateMutability": "view",
      "type": "function"
    },
    {
      "inputs": [],
      "name": "renounceOwnership",
      "outputs": [],
      "stateMutability": "nonpayable",
      "type": "function"
    },
    {
      "inputs": [],
      "name": "symbol",
      "outputs": [
        {
          "internalType": "string",
          "name": "",
          "type": "string"
        }
      ],
      "stateMutability": "view",
      "type": "function"
    },
    {
      "inputs": [],
      "name": "totalSupply",
      "outputs": [
        {
          "internalType": "uint256",
          "name": "",
          "type": "uint256"
        }
      ],
      "stateMutability": "view",
      "type": "function"
    },
    {
      "inputs": [
        {
          "internalType": "address",
          "name": "to",
          "type": "address"
        },
        {
          "internalType": "uint256",
          "name": "amount",
          "type": "uint256"
        }
      ],
      "name": "transfer",
      "outputs": [
        {
          "internalType": "bool",
          "name": "",
          "type": "bool"
        }
      ],
      "stateMutability": "nonpayable",
      "type": "function"
    },
    {
      "inputs": [
        {
          "internalType": "address",
          "name": "from",
          "type": "address"
        },
        {
          "internalType": "address",
          "name": "to",
          "type": "address"
        },
        {
          "internalType": "uint256",
          "name": "amount",
          "type": "uint256"
        }
      ],
      "name": "transferFrom",
      "outputs": [
        {
          "internalType": "bool",
          "name": "",
          "type": "bool"
        }
      ],
      "stateMutability": "nonpayable",
      "type": "function"
    },
    {
      "inputs": [
        {
          "internalType": "address",
          "name": "newOwner",
          "type": "address"
        }
      ],
      "name": "transferOwnership",
      "outputs": [],
      "stateMutability": "nonpayable",
      "type": "function"
    },
    {
      "inputs": [
        {
          "internalType": "address",
          "name": "newImplementation",
          "type": "address"
        },
        {
          "internalType": "bytes",
          "name": "data",
          "type": "bytes"
        }
      ],
      "name": "upgradeToAndCall",
      "outputs": [],
      "stateMutability": "payable",
      "type": "function"
    }
  ],
  "bytecode": "0x60a0806040523461002a5730608052611f729081610030823960805181818161084101526108fa0152f35b600080fdfe608080604052600436101561001357600080fd5b60003560e01c90816306fdde031461157057508063077f224a14610d55578063095ea7b314610d2f57806318160ddd14610cf257806323b872dd14610bfe578063313ce56714610be25780633644e51514610bbf57806340c10f1914610ad95780634f1ef286146108ab57806352d1902d1461082e57806370a08231146107e7578063715018a61461076b5780637ecebe001461071257806384b0196e146105f35780638da5cb5b146105c657806395d89b41146104e55780639dc29fac146103d7578063a9059cbb14610393578063ad3cb1cc14610349578063d505accf146101be578063dd62ed3e14610175578063e78cea921461014c5763f2fde38b1461011c57600080fd5b3461014757602036600319011261014757610145610138611727565b610140611a64565b6119de565b005b600080fd5b34610147576000366003190112610147576000546040516001600160a01b039091168152602090f35b346101475760403660031901126101475761018e611727565b61019f61019961173d565b91611914565b9060018060a01b03166000526020526020604060002054604051908152f35b346101475760e0366003190112610147576101d7611727565b6101df61173d565b60443590606435926084359360ff85168503610147578042116103315760018060a01b039081831695866000527f5ab42ced628888259c08ac98db1eb0cf702fc1501344311d8b100cd1bfe4bb006020526040600020908154916001830190556040519260208401927f6e71edae12b1b97f4d1f60370fef10105fa2faae0126114a169c64845d6126c98452896040860152858816606086015288608086015260a085015260c084015260c0835260e08301918383106001600160401b0384111761031b576102ea936102e1936040525190206102ba611be0565b906040519161190160f01b83526002830152602282015260c43591604260a4359220611c55565b90929192611ce5565b168481036102fd57506101459350611ac6565b60449085604051916325c0072360e11b835260048301526024820152fd5b634e487b7160e01b600052604160045260246000fd5b6024906040519063313c898160e11b82526004820152fd5b346101475760003660031901126101475761038f6040516103698161167b565b60058152640352e302e360dc1b602082015260405191829160208352602083019061163b565b0390f35b34610147576040366003190112610147576103ac611727565b6000546001600160a01b03163303610147576103cc906024359033611b24565b602060405160018152f35b34610147576040366003190112610147576103f0611727565b600054602435906001600160a01b0390811633036101475782169081156104cc5781600052600080516020611e7d833981519152806020526040600020549382851061049b5750817fddf252ad1be2c89b69c2b068fc378daa952ba7f163c4a11628f55a4df523b3ef9260009560209386885284520360408620557f52c63247e1f47db19d5ce0460030c497f067ca4cebf71ba98eeadabe20bace02818154039055604051908152a3005b60405163391434e360e21b81526001600160a01b039190911660048201526024810185905260448101839052606490fd5b604051634b637e8f60e11b815260006004820152602490fd5b3461014757600036600319011261014757604051600080516020611ebd833981519152805482600061051683611753565b92838352602094600191866001821691826000146105a457505060011461055a575b505061054692500383611696565b61038f60405192828493845283019061163b565b859250600052600080516020611efd833981519152906000915b85831061058c57505061054693508201018580610538565b80548389018501528794508693909201918101610574565b925093505061054694915060ff191682840152151560051b8201018580610538565b346101475760003660031901126101475760206105e161194d565b6040516001600160a01b039091168152f35b34610147576000366003190112610147577fa16a46d94261c7517cc8ff89f61c0ce93598e3c849801011dee649a6a557d1005415806106e9575b156101475761063a61178d565b610642611853565b6040516020808201928284106001600160401b0385111761031b5791602061069c859461068e979660405260008452604051978897600f60f81b895260e0858a015260e089019061163b565b90878203604089015261163b565b91466060870152306080870152600060a087015285830360c0870152519182815201929160005b8281106106d257505050500390f35b8351855286955093810193928101926001016106c3565b507fa16a46d94261c7517cc8ff89f61c0ce93598e3c849801011dee649a6a557d101541561062d565b34610147576020366003190112610147576001600160a01b03610733611727565b166000527f5ab42ced628888259c08ac98db1eb0cf702fc1501344311d8b100cd1bfe4bb006020526020604060002054604051908152f35b3461014757600036600319011261014757610784611a64565b7f9016d09d72d40fdae2fd8ceac6b6234c7706214fd39c1cd1e609a0528c19930080546001600160a01b031981169091556000906001600160a01b03167f8be0079c531659141344cd1fd0a4f28419497f9722a3daafe3b4186f6b6457e08280a3005b34610147576020366003190112610147576001600160a01b03610808611727565b16600052600080516020611e7d8339815191526020526020604060002054604051908152f35b34610147576000366003190112610147577f00000000000000000000000000000000000000000000000000000000000000006001600160a01b031630036108995760206040517f360894a13ba1a3210667c828492db98dca3e2076cc3735a920a3ca505d382bbc8152f35b60405163703e46dd60e11b8152600490fd5b6040366003190112610147576108bf611727565b6024356001600160401b0381116101475736602382011215610147576108ef9036906024816004013591016116d2565b906001600160a01b037f00000000000000000000000000000000000000000000000000000000000000008116308114908115610aab575b5061089957610933611a64565b6040516352d1902d60e01b8152908216916020918281600481875afa60009181610a7c575b5061097657604051634c9c8ce360e01b815260048101859052602490fd5b9284937f360894a13ba1a3210667c828492db98dca3e2076cc3735a920a3ca505d382bbc90818103610a645750823b15610a4b5780546001600160a01b03191682179055604051907fbc7cd75a20ee27fd9adebab32041f755214dbc6bffa90cc0225b39da2e5c2d3b600080a2835115610a315750600080848461014596519101845af4903d15610a28573d610a0b816116b7565b90610a196040519283611696565b8152600081943d92013e611e19565b60609250611e19565b9250505034610a3c57005b63b398979f60e01b8152600490fd5b604051634c9c8ce360e01b815260048101839052602490fd5b60249060405190632a87526960e21b82526004820152fd5b9091508381813d8311610aa4575b610a948183611696565b8101031261014757519086610958565b503d610a8a565b9050817f360894a13ba1a3210667c828492db98dca3e2076cc3735a920a3ca505d382bbc5416141584610926565b3461014757604036600319011261014757610af2611727565b600054602435916001600160a01b0391821633036101475716908115610ba6577f52c63247e1f47db19d5ce0460030c497f067ca4cebf71ba98eeadabe20bace02805490828201809211610b90576000927fddf252ad1be2c89b69c2b068fc378daa952ba7f163c4a11628f55a4df523b3ef9260209255848452600080516020611e7d833981519152825260408420818154019055604051908152a3005b634e487b7160e01b600052601160045260246000fd5b60405163ec442f0560e01b815260006004820152602490fd5b34610147576000366003190112610147576020610bda611be0565b604051908152f35b3461014757600036600319011261014757602060405160128152f35b3461014757606036600319011261014757610c17611727565b610c1f61173d565b6000546001600160a01b039260443592918416330361014757610c4181611914565b33600052602052604060002054936000198510610c64575b506103cc9350611b24565b838510610ccc57811615610cb3573315610c9a57826103cc94610c8683611914565b336000526020520360406000205584610c59565b604051634a1406b160e11b815260006004820152602490fd5b60405163e602df0560e01b815260006004820152602490fd5b604051637dc7a0d960e11b81523360048201526024810186905260448101859052606490fd5b346101475760003660031901126101475760207f52c63247e1f47db19d5ce0460030c497f067ca4cebf71ba98eeadabe20bace0254604051908152f35b34610147576040366003190112610147576103cc610d4b611727565b6024359033611ac6565b34610147576060366003190112610147576004356001600160401b03811161014757610d85903690600401611709565b6024356001600160401b03811161014757610da4903690600401611709565b906044356001600160a01b038116900361014757600080516020611f1d833981519152546001600160401b03811680159081611560575b6001149081611556575b15908161154d575b5061153b5760016001600160401b0319821617600080516020611f1d8339815191525560ff8160401c161561150e575b610e25611a97565b610e2d611a97565b81516001600160401b03811161031b577f52c63247e1f47db19d5ce0460030c497f067ca4cebf71ba98eeadabe20bace0390610e698254611753565b601f81116114aa575b50806020601f82116001146114295760009161141e575b508160011b916000199060031b1c19161790555b82516001600160401b03811161031b57610ec5600080516020611ebd83398151915254611753565b601f81116113a4575b506020601f8211600114611318578192939460009261130d575b50508160011b916000199060031b1c191617600080516020611ebd833981519152555b610f13611a97565b60405190610f208261167b565b60018252603160f81b6020830152610f36611a97565b82516001600160401b03811161031b57610f5e600080516020611e9d83398151915254611753565b601f8111611293575b506020601f821160011461120757819293946000926111fc575b50508160011b916000199060031b1c191617600080516020611e9d833981519152555b8151916001600160401b03831161031b577fa16a46d94261c7517cc8ff89f61c0ce93598e3c849801011dee649a6a557d10390610fe18254611753565b601f8111611198575b50602090601f85116001146111125760ff949160009183611107575b50508160011b916000199060031b1c19161790555b60007fa16a46d94261c7517cc8ff89f61c0ce93598e3c849801011dee649a6a557d1005560007fa16a46d94261c7517cc8ff89f61c0ce93598e3c849801011dee649a6a557d1015561106b611a97565b611073611a97565b61107e6044356119de565b611086611a97565b600080546001600160a01b0319166044356001600160a01b031617905560401c16156110ae57005b68ff000000000000000019600080516020611f1d8339815191525416600080516020611f1d833981519152557fc7f505b2f371ae2175ee4913f4499e1f2633a7b5936321eed1cdaeb6115181d2602060405160018152a1005b015190508580611006565b90601f19851691836000527f5f9ce34815f8e11431c7bb75a8e6886a91478f7ffc1dbb0a98dc240fddd76b759260005b818110611180575091600193918760ff989410611167575b505050811b01905561101b565b015160001960f88460031b161c1916905585808061115a565b92936020600181928786015181550195019301611142565b826000527f5f9ce34815f8e11431c7bb75a8e6886a91478f7ffc1dbb0a98dc240fddd76b75601f860160051c810191602087106111f2575b601f0160051c01905b8181106111e65750610fea565b600081556001016111d9565b90915081906111d0565b015190508480610f81565b601f19821690600080516020611e9d833981519152600052600080516020611edd8339815191529160005b81811061127b57509583600195969710611262575b505050811b01600080516020611e9d83398151915255610fa4565b015160001960f88460031b161c19169055848080611247565b9192602060018192868b015181550194019201611232565b600080516020611e9d833981519152600052601f820160051c600080516020611edd8339815191520190602083106112f7575b601f0160051c600080516020611edd83398151915201905b8181106112eb5750610f67565b600081556001016112de565b600080516020611edd83398151915291506112c6565b015190508480610ee8565b601f19821690600080516020611ebd833981519152600052600080516020611efd8339815191529160005b81811061138c57509583600195969710611373575b505050811b01600080516020611ebd83398151915255610f0b565b015160001960f88460031b161c19169055848080611358565b9192602060018192868b015181550194019201611343565b600080516020611ebd833981519152600052601f820160051c600080516020611efd833981519152019060208310611408575b601f0160051c600080516020611efd83398151915201905b8181106113fc5750610ece565b600081556001016113ef565b600080516020611efd83398151915291506113d7565b905084015186610e89565b60008481527f2ae08a8e29253f69ac5d979a101956ab8f8d9d7ded63fa7a83b16fc47648eab09250601f198416905b81811061149257509083600194939210611479575b5050811b019055610e9d565b86015160001960f88460031b161c19169055868061146d565b9192602060018192868b015181550194019201611458565b826000527f2ae08a8e29253f69ac5d979a101956ab8f8d9d7ded63fa7a83b16fc47648eab0601f830160051c81019160208410611504575b601f0160051c01905b8181106114f85750610e72565b600081556001016114eb565b90915081906114e2565b68ffffffffffffffffff1981166801000000000000000117600080516020611f1d83398151915255610e1d565b60405163f92ee8a960e01b8152600490fd5b90501584610ded565b303b159150610de5565b604083901c60ff16159150610ddb565b34610147576000366003190112610147577f52c63247e1f47db19d5ce0460030c497f067ca4cebf71ba98eeadabe20bace0380548260006115b083611753565b92838352602094600191866001821691826000146105a45750506001146115df57505061054692500383611696565b8592506000527f2ae08a8e29253f69ac5d979a101956ab8f8d9d7ded63fa7a83b16fc47648eab0906000915b85831061162357505061054693508201018580610538565b8054838901850152879450869390920191810161160b565b919082519283825260005b848110611667575050826000602080949584010152601f8019910116010190565b602081830181015184830182015201611646565b604081019081106001600160401b0382111761031b57604052565b90601f801991011681019081106001600160401b0382111761031b57604052565b6001600160401b03811161031b57601f01601f191660200190565b9291926116de826116b7565b916116ec6040519384611696565b829481845281830111610147578281602093846000960137010152565b9080601f8301121561014757816020611724933591016116d2565b90565b600435906001600160a01b038216820361014757565b602435906001600160a01b038216820361014757565b90600182811c92168015611783575b602083101461176d57565b634e487b7160e01b600052602260045260246000fd5b91607f1691611762565b60405190600082600080516020611e9d833981519152918254926117b084611753565b8084529360209160019182811690811561182d57506001146117de575b5050506117dc92500383611696565b565b6000908152600080516020611edd8339815191529590935091905b82841061181557506117dc9450505081016020013880806117cd565b855488850183015294850194879450928101926117f9565b92505050602092506117dc94915060ff191682840152151560051b8201013880806117cd565b604051906000827fa16a46d94261c7517cc8ff89f61c0ce93598e3c849801011dee649a6a557d1039182549261188884611753565b8084529360209160019182811690811561182d57506001146118b3575050506117dc92500383611696565b60009081527f5f9ce34815f8e11431c7bb75a8e6886a91478f7ffc1dbb0a98dc240fddd76b759590935091905b8284106118fc57506117dc9450505081016020013880806117cd565b855488850183015294850194879450928101926118e0565b6001600160a01b031660009081527f52c63247e1f47db19d5ce0460030c497f067ca4cebf71ba98eeadabe20bace016020526040902090565b60008054604051631127a41d60e31b8152916001600160a01b03916020908490600490829086165afa9283156119d157819361198a575b50505090565b909192506020813d6020116119c9575b816119a760209383611696565b810103126119c5575191821682036119c25750388080611984565b80fd5b5080fd5b3d915061199a565b50604051903d90823e3d90fd5b6001600160a01b03908116908115611a4b577f9016d09d72d40fdae2fd8ceac6b6234c7706214fd39c1cd1e609a0528c19930080546001600160a01b031981168417909155167f8be0079c531659141344cd1fd0a4f28419497f9722a3daafe3b4186f6b6457e0600080a3565b604051631e4fbdf760e01b815260006004820152602490fd5b611a6c61194d565b336001600160a01b0390911603611a7f57565b60405163118cdaa760e01b8152336004820152602490fd5b60ff600080516020611f1d8339815191525460401c1615611ab457565b604051631afcd79f60e31b8152600490fd5b916001600160a01b03808416928315610cb35716928315610c9a577f8c5be1e5ebec7d5bd14f71427d1e84f3dd0314c0f7b2291e5b200ac8c7c3b92591611b0e602092611914565b85600052825280604060002055604051908152a3565b916001600160a01b038084169283156104cc5716928315610ba657600090838252600080516020611e7d83398151915280602052604083205491848310611bad575082847fddf252ad1be2c89b69c2b068fc378daa952ba7f163c4a11628f55a4df523b3ef959360409388602097528652038282205586815220818154019055604051908152a3565b60405163391434e360e21b81526001600160a01b0391909116600482015260248101929092525060448101839052606490fd5b611be8611d6a565b611bf0611dd4565b6040519060208201927f8b73c3c69bb8fe3d512ecc4cf759cc79239f7b179b0ffacaa9a75d522b39400f8452604083015260608201524660808201523060a082015260a0815260c081018181106001600160401b0382111761031b5760405251902090565b91907f7fffffffffffffffffffffffffffffff5d576e7357a4501ddfe92f46681b20a08411611cd957926020929160ff608095604051948552168484015260408301526060820152600092839182805260015afa15611ccd5780516001600160a01b03811615611cc457918190565b50809160019190565b604051903d90823e3d90fd5b50505060009160039190565b6004811015611d545780611cf7575050565b60018103611d115760405163f645eedf60e01b8152600490fd5b60028103611d325760405163fce698f760e01b815260048101839052602490fd5b600314611d3c5750565b602490604051906335e2f38360e21b82526004820152fd5b634e487b7160e01b600052602160045260246000fd5b611d7261178d565b8051908115611d82576020012090565b50507fa16a46d94261c7517cc8ff89f61c0ce93598e3c849801011dee649a6a557d100548015611daf5790565b507fc5d2460186f7233c927e7db2dcc703c0e500b653ca82273b7bfad8045d85a47090565b611ddc611853565b8051908115611dec576020012090565b50507fa16a46d94261c7517cc8ff89f61c0ce93598e3c849801011dee649a6a557d101548015611daf5790565b90611e405750805115611e2e57805190602001fd5b60405163d6bda27560e01b8152600490fd5b81511580611e73575b611e51575090565b604051639996b31560e01b81526001600160a01b039091166004820152602490fd5b50803b15611e4956fe52c63247e1f47db19d5ce0460030c497f067ca4cebf71ba98eeadabe20bace00a16a46d94261c7517cc8ff89f61c0ce93598e3c849801011dee649a6a557d10252c63247e1f47db19d5ce0460030c497f067ca4cebf71ba98eeadabe20bace0442ad5d3e1f2e6e70edcf6d991b8a3023d3fca8047a131592f9edb9fd9b89d57d46a2803e59a4de4e7a4c574b1243f25977ac4c77d5a1a4a609b5394cebb4a2aaf0c57e16840df040f15088dc2f81fe391c3923bec73e23a9662efc9c229c6a00a26469706673582212208f6a8b5d99ca73e080979244a3d62f3edcbe3bfcddc3c9934d31158f3beddef364736f6c63430008180033",
  "linkReferences": {},
  "deployedLinkReferences": {}
}