{
  "_format": "hh-sol-artifact-1",
  "contractName": "WrappedTokenUpgrade",
  "sourceName": "contracts/WrappedTokenUpgrade.sol",
  "abi": [
    {
      "inputs": [
        {
          "internalType": "address",
          "name": "target",
          "type": "address"
        }
      ],
      "name": "AddressEmptyCode",
      "type": "error"
    },
    {
      "inputs": [],
      "name": "ECDSAInvalidSignature",
      "type": "error"
    },
    {
      "inputs": [
        {
          "internalType": "uint256",
          "name": "length",
          "type": "uint256"
        }
      ],
      "name": "ECDSAInvalidSignatureLength",
      "type": "error"
    },
    {
      "inputs": [
        {
          "internalType": "bytes32",
          "name": "s",
          "type": "bytes32"
        }
      ],
      "name": "ECDSAInvalidSignatureS",
      "type": "error"
    },
    {
      "inputs": [
        {
          "internalType": "address",
          "name": "implementation",
          "type": "address"
        }
      ],
      "name": "ERC1967InvalidImplementation",
      "type": "error"
    },
    {
      "inputs": [],
      "name": "ERC1967NonPayable",
      "type": "error"
    },
    {
      "inputs": [
        {
          "internalType": "address",
          "name": "spender",
          "type": "address"
        },
        {
          "internalType": "uint256",
          "name": "allowance",
          "type": "uint256"
        },
        {
          "internalType": "uint256",
          "name": "needed",
          "type": "uint256"
        }
      ],
      "name": "ERC20InsufficientAllowance",
      "type": "error"
    },
    {
      "inputs": [
        {
          "internalType": "address",
          "name": "sender",
          "type": "address"
        },
        {
          "internalType": "uint256",
          "name": "balance",
          "type": "uint256"
        },
        {
          "internalType": "uint256",
          "name": "needed",
          "type": "uint256"
        }
      ],
      "name": "ERC20InsufficientBalance",
      "type": "error"
    },
    {
      "inputs": [
        {
          "internalType": "address",
          "name": "approver",
          "type": "address"
        }
      ],
      "name": "ERC20InvalidApprover",
      "type": "error"
    },
    {
      "inputs": [
        {
          "internalType": "address",
          "name": "receiver",
          "type": "address"
        }
      ],
      "name": "ERC20InvalidReceiver",
      "type": "error"
    },
    {
      "inputs": [
        {
          "internalType": "address",
          "name": "sender",
          "type": "address"
        }
      ],
      "name": "ERC20InvalidSender",
      "type": "error"
    },
    {
      "inputs": [
        {
          "internalType": "address",
          "name": "spender",
          "type": "address"
        }
      ],
      "name": "ERC20InvalidSpender",
      "type": "error"
    },
    {
      "inputs": [
        {
          "internalType": "uint256",
          "name": "deadline",
          "type": "uint256"
        }
      ],
      "name": "ERC2612ExpiredSignature",
      "type": "error"
    },
    {
      "inputs": [
        {
          "internalType": "address",
          "name": "signer",
          "type": "address"
        },
        {
          "internalType": "address",
          "name": "owner",
          "type": "address"
        }
      ],
      "name": "ERC2612InvalidSigner",
      "type": "error"
    },
    {
      "inputs": [],
      "name": "FailedCall",
      "type": "error"
    },
    {
      "inputs": [
        {
          "internalType": "address",
          "name": "account",
          "type": "address"
        },
        {
          "internalType": "uint256",
          "name": "currentNonce",
          "type": "uint256"
        }
      ],
      "name": "InvalidAccountNonce",
      "type": "error"
    },
    {
      "inputs": [],
      "name": "InvalidInitialization",
      "type": "error"
    },
    {
      "inputs": [],
      "name": "NotInitializing",
      "type": "error"
    },
    {
      "inputs": [
        {
          "internalType": "address",
          "name": "owner",
          "type": "address"
        }
      ],
      "name": "OwnableInvalidOwner",
      "type": "error"
    },
    {
      "inputs": [
        {
          "internalType": "address",
          "name": "account",
          "type": "address"
        }
      ],
      "name": "OwnableUnauthorizedAccount",
      "type": "error"
    },
    {
      "inputs": [],
      "name": "UUPSUnauthorizedCallContext",
      "type": "error"
    },
    {
      "inputs": [
        {
          "internalType": "bytes32",
          "name": "slot",
          "type": "bytes32"
        }
      ],
      "name": "UUPSUnsupportedProxiableUUID",
      "type": "error"
    },
    {
      "anonymous": false,
      "inputs": [
        {
          "indexed": true,
          "internalType": "address",
          "name": "owner",
          "type": "address"
        },
        {
          "indexed": true,
          "internalType": "address",
          "name": "spender",
          "type": "address"
        },
        {
          "indexed": false,
          "internalType": "uint256",
          "name": "value",
          "type": "uint256"
        }
      ],
      "name": "Approval",
      "type": "event"
    },
    {
      "anonymous": false,
      "inputs": [],
      "name": "EIP712DomainChanged",
      "type": "event"
    },
    {
      "anonymous": false,
      "inputs": [
        {
          "indexed": false,
          "internalType": "uint64",
          "name": "version",
          "type": "uint64"
        }
      ],
      "name": "Initialized",
      "type": "event"
    },
    {
      "anonymous": false,
      "inputs": [
        {
          "indexed": true,
          "internalType": "address",
          "name": "previousOwner",
          "type": "address"
        },
        {
          "indexed": true,
          "internalType": "address",
          "name": "newOwner",
          "type": "address"
        }
      ],
      "name": "OwnershipTransferred",
      "type": "event"
    },
    {
      "anonymous": false,
      "inputs": [
        {
          "indexed": true,
          "internalType": "address",
          "name": "from",
          "type": "address"
        },
        {
          "indexed": true,
          "internalType": "address",
          "name": "to",
          "type": "address"
        },
        {
          "indexed": false,
          "internalType": "uint256",
          "name": "value",
          "type": "uint256"
        }
      ],
      "name": "Transfer",
      "type": "event"
    },
    {
      "anonymous": false,
      "inputs": [
        {
          "indexed": true,
          "internalType": "address",
          "name": "implementation",
          "type": "address"
        }
      ],
      "name": "Upgraded",
      "type": "event"
    },
    {
      "inputs": [],
      "name": "DOMAIN_SEPARATOR",
      "outputs": [
        {
          "internalType": "bytes32",
          "name": "",
          "type": "bytes32"
        }
      ],
      "stateMutability": "view",
      "type": "function"
    },
    {
      "inputs": [],
      "name": "UPGRADE_INTERFACE_VERSION",
      "outputs": [
        {
          "internalType": "string",
          "name": "",
          "type": "string"
        }
      ],
      "stateMutability": "view",
      "type": "function"
    },
    {
      "inputs": [
        {
          "internalType": "address",
          "name": "owner",
          "type": "address"
        },
        {
          "internalType": "address",
          "name": "spender",
          "type": "address"
        }
      ],
      "name": "allowance",
      "outputs": [
        {
          "internalType": "uint256",
          "name": "",
          "type": "uint256"
        }
      ],
      "stateMutability": "view",
      "type": "function"
    },
    {
      "inputs": [
        {
          "internalType": "address",
          "name": "spender",
          "type": "address"
        },
        {
          "internalType": "uint256",
          "name": "value",
          "type": "uint256"
        }
      ],
      "name": "approve",
      "outputs": [
        {
          "internalType": "bool",
          "name": "",
          "type": "bool"
        }
      ],
      "stateMutability": "nonpayable",
      "type": "function"
    },
    {
      "inputs": [
        {
          "internalType": "address",
          "name": "account",
          "type": "address"
        }
      ],
      "name": "balanceOf",
      "outputs": [
        {
          "internalType": "uint256",
          "name": "",
          "type": "uint256"
        }
      ],
      "stateMutability": "view",
      "type": "function"
    },
    {
      "inputs": [],
      "name": "bridge",
      "outputs": [
        {
          "internalType": "address",
          "name": "",
          "type": "address"
        }
      ],
      "stateMutability": "view",
      "type": "function"
    },
    {
      "inputs": [
        {
          "internalType": "address",
          "name": "from",
          "type": "address"
        },
        {
          "internalType": "uint256",
          "name": "amount",
          "type": "uint256"
        }
      ],
      "name": "burn",
      "outputs": [],
      "stateMutability": "nonpayable",
      "type": "function"
    },
    {
      "inputs": [],
      "name": "decimals",
      "outputs": [
        {
          "internalType": "uint8",
          "name": "",
          "type": "uint8"
        }
      ],
      "stateMutability": "view",
      "type": "function"
    },
    {
      "inputs": [],
      "name": "eip712Domain",
      "outputs": [
        {
          "internalType": "bytes1",
          "name": "fields",
          "type": "bytes1"
        },
        {
          "internalType": "string",
          "name": "name",
          "type": "string"
        },
        {
          "internalType": "string",
          "name": "version",
          "type": "string"
        },
        {
          "internalType": "uint256",
          "name": "chainId",
          "type": "uint256"
        },
        {
          "internalType": "address",
          "name": "verifyingContract",
          "type": "address"
        },
        {
          "internalType": "bytes32",
          "name": "salt",
          "type": "bytes32"
        },
        {
          "internalType": "uint256[]",
          "name": "extensions",
          "type": "uint256[]"
        }
      ],
      "stateMutability": "view",
      "type": "function"
    },
    {
      "inputs": [],
      "name": "getTestString",
      "outputs": [
        {
          "internalType": "string",
          "name": "",
          "type": "string"
        }
      ],
      "stateMutability": "pure",
      "type": "function"
    },
    {
      "inputs": [
        {
          "internalType": "string",
          "name": "name",
          "type": "string"
        },
        {
          "internalType": "string",
          "name": "symbol",
          "type": "string"
        },
        {
          "internalType": "address",
          "name": "_bridge",
          "type": "address"
        },
        {
          "internalType": "address",
          "name": "_keyLogRegistry",
          "type": "address"
        }
      ],
      "name": "initialize",
      "outputs": [],
      "stateMutability": "nonpayable",
      "type": "function"
    },
    {
      "inputs": [],
      "name": "keyLogRegistry",
      "outputs": [
        {
          "internalType": "contract KeyLogRegistry",
          "name": "",
          "type": "address"
        }
      ],
      "stateMutability": "view",
      "type": "function"
    },
    {
      "inputs": [
        {
          "internalType": "address",
          "name": "to",
          "type": "address"
        },
        {
          "internalType": "uint256",
          "name": "amount",
          "type": "uint256"
        }
      ],
      "name": "mint",
      "outputs": [],
      "stateMutability": "nonpayable",
      "type": "function"
    },
    {
      "inputs": [],
      "name": "name",
      "outputs": [
        {
          "internalType": "string",
          "name": "",
          "type": "string"
        }
      ],
      "stateMutability": "view",
      "type": "function"
    },
    {
      "inputs": [
        {
          "internalType": "address",
          "name": "owner",
          "type": "address"
        }
      ],
      "name": "nonces",
      "outputs": [
        {
          "internalType": "uint256",
          "name": "",
          "type": "uint256"
        }
      ],
      "stateMutability": "view",
      "type": "function"
    },
    {
      "inputs": [],
      "name": "owner",
      "outputs": [
        {
          "internalType": "address",
          "name": "",
          "type": "address"
        }
      ],
      "stateMutability": "view",
      "type": "function"
    },
    {
      "inputs": [
        {
          "internalType": "address",
          "name": "owner",
          "type": "address"
        },
        {
          "internalType": "address",
          "name": "spender",
          "type": "address"
        },
        {
          "internalType": "uint256",
          "name": "value",
          "type": "uint256"
        },
        {
          "internalType": "uint256",
          "name": "deadline",
          "type": "uint256"
        },
        {
          "internalType": "uint8",
          "name": "v",
          "type": "uint8"
        },
        {
          "internalType": "bytes32",
          "name": "r",
          "type": "bytes32"
        },
        {
          "internalType": "bytes32",
          "name": "s",
          "type": "bytes32"
        }
      ],
      "name": "permit",
      "outputs": [],
      "stateMutability": "nonpayable",
      "type": "function"
    },
    {
      "inputs": [],
      "name": "proxiableUUID",
      "outputs": [
        {
          "internalType": "bytes32",
          "name": "",
          "type": "bytes32"
        }
      ],
      "stateMutability": "view",
      "type": "function"
    },
    {
      "inputs": [],
      "name": "renounceOwnership",
      "outputs": [],
      "stateMutability": "nonpayable",
      "type": "function"
    },
    {
      "inputs": [],
      "name": "symbol",
      "outputs": [
        {
          "internalType": "string",
          "name": "",
          "type": "string"
        }
      ],
      "stateMutability": "view",
      "type": "function"
    },
    {
      "inputs": [],
      "name": "totalSupply",
      "outputs": [
        {
          "internalType": "uint256",
          "name": "",
          "type": "uint256"
        }
      ],
      "stateMutability": "view",
      "type": "function"
    },
    {
      "inputs": [
        {
          "internalType": "address",
          "name": "to",
          "type": "address"
        },
        {
          "internalType": "uint256",
          "name": "amount",
          "type": "uint256"
        }
      ],
      "name": "transfer",
      "outputs": [
        {
          "internalType": "bool",
          "name": "",
          "type": "bool"
        }
      ],
      "stateMutability": "nonpayable",
      "type": "function"
    },
    {
      "inputs": [
        {
          "internalType": "address",
          "name": "from",
          "type": "address"
        },
        {
          "internalType": "address",
          "name": "to",
          "type": "address"
        },
        {
          "internalType": "uint256",
          "name": "amount",
          "type": "uint256"
        }
      ],
      "name": "transferFrom",
      "outputs": [
        {
          "internalType": "bool",
          "name": "",
          "type": "bool"
        }
      ],
      "stateMutability": "nonpayable",
      "type": "function"
    },
    {
      "inputs": [
        {
          "internalType": "address",
          "name": "newOwner",
          "type": "address"
        }
      ],
      "name": "transferOwnership",
      "outputs": [],
      "stateMutability": "nonpayable",
      "type": "function"
    },
    {
      "inputs": [
        {
          "internalType": "address",
          "name": "newImplementation",
          "type": "address"
        },
        {
          "internalType": "bytes",
          "name": "data",
          "type": "bytes"
        }
      ],
      "name": "upgradeToAndCall",
      "outputs": [],
      "stateMutability": "payable",
      "type": "function"
    }
  ],
  "bytecode": "0x60a0806040523461002a57306080526121e8908161003082396080518181816110db01526111940152f35b600080fdfe608080604052600436101561001357600080fd5b60003560e01c90816306fdde031461164d57508063095ea7b31461162757806318160ddd146115ea57806323b872dd146114f65780632f91be4814611498578063313ce5671461147c5780633644e5151461145957806340c10f19146113735780634f1ef2861461114557806352d1902d146110c857806370a0823114611081578063715018a6146110055780637ecebe0014610fac57806384b0196e14610e8d5780638da5cb5b14610e605780638f15b4141461060257806395d89b41146105215780639dc29fac14610413578063a9059cbb146103d2578063ad3cb1cc14610388578063b5057a7b1461035f578063d505accf146101d4578063dd62ed3e1461018b578063e78cea92146101625763f2fde38b1461013257600080fd5b3461015d57602036600319011261015d5761015b61014e611734565b610156611c9a565b611a92565b005b600080fd5b3461015d57600036600319011261015d576000546040516001600160a01b039091168152602090f35b3461015d57604036600319011261015d576101a4611734565b6101b56101af61174a565b916119cd565b9060018060a01b03166000526020526020604060002054604051908152f35b3461015d5760e036600319011261015d576101ed611734565b6101f561174a565b60443590606435926084359360ff8516850361015d578042116103475760018060a01b039081831695866000527f5ab42ced628888259c08ac98db1eb0cf702fc1501344311d8b100cd1bfe4bb006020526040600020908154916001830190556040519260208401927f6e71edae12b1b97f4d1f60370fef10105fa2faae0126114a169c64845d6126c98452896040860152858816606086015288608086015260a085015260c084015260c0835260e08301918383106001600160401b0384111761033157610300936102f7936040525190206102d0611de7565b906040519161190160f01b83526002830152602282015260c43591604260a4359220611e8b565b90929192611f1b565b16848103610313575061015b9350611ccd565b60449085604051916325c0072360e11b835260048301526024820152fd5b634e487b7160e01b600052604160045260246000fd5b6024906040519063313c898160e11b82526004820152fd5b3461015d57600036600319011261015d576001546040516001600160a01b039091168152602090f35b3461015d57600036600319011261015d576103ce6040516103a881611760565b60058152640352e302e360dc1b60208201526040519182916020835260208301906116f4565b0390f35b3461015d57604036600319011261015d576103eb611734565b6103f58133611b25565b1561015d57610408906024359033611d2b565b602060405160018152f35b3461015d57604036600319011261015d5761042c611734565b600054602435906001600160a01b03908116330361015d57821690811561050857816000526000805160206120f383398151915280602052604060002054938285106104d75750817fddf252ad1be2c89b69c2b068fc378daa952ba7f163c4a11628f55a4df523b3ef9260009560209386885284520360408620557f52c63247e1f47db19d5ce0460030c497f067ca4cebf71ba98eeadabe20bace02818154039055604051908152a3005b60405163391434e360e21b81526001600160a01b039190911660048201526024810185905260448101839052606490fd5b604051634b637e8f60e11b815260006004820152602490fd5b3461015d57600036600319011261015d5760405160008051602061213383398151915280548260006105528361180c565b92838352602094600191866001821691826000146105e0575050600114610596575b50506105829250038361177b565b6103ce6040519282849384528301906116f4565b859250600052600080516020612173833981519152906000915b8583106105c857505061058293508201018580610574565b805483890185015287945086939092019181016105b0565b925093505061058294915060ff191682840152151560051b8201018580610574565b3461015d57608036600319011261015d576004356001600160401b03811161015d576106329036906004016117ee565b6024356001600160401b03811161015d576106519036906004016117ee565b6001600160a01b03604435808216900361015d5760643590808216820361015d5760008051602061219383398151915254926001600160401b03841680159081610e50575b6001149081610e46575b159081610e3d575b50610e2b5760016001600160401b03198516176000805160206121938339815191525560ff8460401c1615610dfe575b6106e0611e5c565b6106e8611e5c565b84516001600160401b038111610331576107106000805160206120d38339815191525461180c565b601f8111610d88575b50806020601f8211600114610cfc57600091610cf1575b508160011b916000199060031b1c1916176000805160206120d3833981519152555b8051906001600160401b03821161033157819061077d6000805160206121338339815191525461180c565b601f8111610c70575b50602090601f8311600114610be257600092610bd7575b50508160011b916000199060031b1c191617600080516020612133833981519152555b6107c8611e5c565b604051936107d585611760565b60018552603160f81b60208601526107eb611e5c565b8051906001600160401b0382116103315781906108166000805160206121138339815191525461180c565b601f8111610b56575b50602090601f8311600114610ac857600092610abd575b50508160011b916000199060031b1c191617600080516020612113833981519152555b8351936001600160401b038511610331577fa16a46d94261c7517cc8ff89f61c0ce93598e3c849801011dee649a6a557d10390610896825461180c565b601f8111610a59575b50602090601f87116001146109d35760ff9691600091836109c8575b50508160011b916000199060031b1c19161790555b60007fa16a46d94261c7517cc8ff89f61c0ce93598e3c849801011dee649a6a557d1005560007fa16a46d94261c7517cc8ff89f61c0ce93598e3c849801011dee649a6a557d10155610920611e5c565b610928611e5c565b610933604435611a92565b61093b611e5c565b6bffffffffffffffffffffffff60a01b9181604435168360005416176000551690600154161760015560401c161561096f57005b68ff0000000000000000196000805160206121938339815191525416600080516020612193833981519152557fc7f505b2f371ae2175ee4913f4499e1f2633a7b5936321eed1cdaeb6115181d2602060405160018152a1005b0151905087806108bb565b90601f19871691836000527f5f9ce34815f8e11431c7bb75a8e6886a91478f7ffc1dbb0a98dc240fddd76b759260005b818110610a41575091600193918960ff9a9410610a28575b505050811b0190556108d0565b015160001960f88460031b161c19169055878080610a1b565b92936020600181928786015181550195019301610a03565b826000527f5f9ce34815f8e11431c7bb75a8e6886a91478f7ffc1dbb0a98dc240fddd76b75601f880160051c81019160208910610ab3575b601f0160051c01905b818110610aa7575061089f565b60008155600101610a9a565b9091508190610a91565b015190508680610836565b60008051602061211383398151915260009081526000805160206121538339815191529350601f198516905b818110610b3e5750908460019594939210610b25575b505050811b0160008051602061211383398151915255610859565b015160001960f88460031b161c19169055868080610b0a565b92936020600181928786015181550195019301610af4565b909150600080516020612113833981519152600052601f830160051c6000805160206121538339815191520160208410610bc2575b908392915b601f820160051c600080516020612153833981519152018110610bb3575061081f565b60008155849350600101610b90565b50600080516020612153833981519152610b8b565b01519050868061079d565b60008051602061213383398151915260009081526000805160206121738339815191529350601f198516905b818110610c585750908460019594939210610c3f575b505050811b01600080516020612133833981519152556107c0565b015160001960f88460031b161c19169055868080610c24565b92936020600181928786015181550195019301610c0e565b909150600080516020612133833981519152600052601f830160051c6000805160206121738339815191520160208410610cdc575b908392915b601f820160051c600080516020612173833981519152018110610ccd5750610786565b60008155849350600101610caa565b50600080516020612173833981519152610ca5565b905086015187610730565b6000805160206120d383398151915260009081526000805160206120b38339815191529250601f198416905b818110610d7057509083600194939210610d57575b5050811b016000805160206120d383398151915255610752565b88015160001960f88460031b161c191690558780610d3d565b9192602060018192868d015181550194019201610d28565b6000805160206120d3833981519152600052601f820160051c6000805160206120b38339815191520160208310610de9575b601f820160051c6000805160206120b3833981519152018110610ddd5750610719565b60008155600101610dba565b506000805160206120b3833981519152610dba565b68ffffffffffffffffff1984166801000000000000000117600080516020612193833981519152556106d8565b60405163f92ee8a960e01b8152600490fd5b905015866106a8565b303b1591506106a0565b604086901c60ff16159150610696565b3461015d57600036600319011261015d576020610e7b611a1a565b6040516001600160a01b039091168152f35b3461015d57600036600319011261015d577fa16a46d94261c7517cc8ff89f61c0ce93598e3c849801011dee649a6a557d100541580610f83575b1561015d57610ed4611846565b610edc61190c565b6040516020808201928284106001600160401b0385111761033157916020610f368594610f28979660405260008452604051978897600f60f81b895260e0858a015260e08901906116f4565b9087820360408901526116f4565b91466060870152306080870152600060a087015285830360c0870152519182815201929160005b828110610f6c57505050500390f35b835185528695509381019392810192600101610f5d565b507fa16a46d94261c7517cc8ff89f61c0ce93598e3c849801011dee649a6a557d1015415610ec7565b3461015d57602036600319011261015d576001600160a01b03610fcd611734565b166000527f5ab42ced628888259c08ac98db1eb0cf702fc1501344311d8b100cd1bfe4bb006020526020604060002054604051908152f35b3461015d57600036600319011261015d5761101e611c9a565b7f9016d09d72d40fdae2fd8ceac6b6234c7706214fd39c1cd1e609a0528c19930080546001600160a01b031981169091556000906001600160a01b03167f8be0079c531659141344cd1fd0a4f28419497f9722a3daafe3b4186f6b6457e08280a3005b3461015d57602036600319011261015d576001600160a01b036110a2611734565b166000526000805160206120f38339815191526020526020604060002054604051908152f35b3461015d57600036600319011261015d577f00000000000000000000000000000000000000000000000000000000000000006001600160a01b031630036111335760206040517f360894a13ba1a3210667c828492db98dca3e2076cc3735a920a3ca505d382bbc8152f35b60405163703e46dd60e11b8152600490fd5b604036600319011261015d57611159611734565b6024356001600160401b03811161015d573660238201121561015d576111899036906024816004013591016117b7565b906001600160a01b037f00000000000000000000000000000000000000000000000000000000000000008116308114908115611345575b50611133576111cd611c9a565b6040516352d1902d60e01b8152908216916020918281600481875afa60009181611316575b5061121057604051634c9c8ce360e01b815260048101859052602490fd5b9284937f360894a13ba1a3210667c828492db98dca3e2076cc3735a920a3ca505d382bbc908181036112fe5750823b156112e55780546001600160a01b03191682179055604051907fbc7cd75a20ee27fd9adebab32041f755214dbc6bffa90cc0225b39da2e5c2d3b600080a28351156112cb5750600080848461015b96519101845af4903d156112c2573d6112a58161179c565b906112b3604051928361177b565b8152600081943d92013e61204f565b6060925061204f565b92505050346112d657005b63b398979f60e01b8152600490fd5b604051634c9c8ce360e01b815260048101839052602490fd5b60249060405190632a87526960e21b82526004820152fd5b9091508381813d831161133e575b61132e818361177b565b8101031261015d575190866111f2565b503d611324565b9050817f360894a13ba1a3210667c828492db98dca3e2076cc3735a920a3ca505d382bbc54161415846111c0565b3461015d57604036600319011261015d5761138c611734565b600054602435916001600160a01b03918216330361015d5716908115611440577f52c63247e1f47db19d5ce0460030c497f067ca4cebf71ba98eeadabe20bace0280549082820180921161142a576000927fddf252ad1be2c89b69c2b068fc378daa952ba7f163c4a11628f55a4df523b3ef92602092558484526000805160206120f3833981519152825260408420818154019055604051908152a3005b634e487b7160e01b600052601160045260246000fd5b60405163ec442f0560e01b815260006004820152602490fd5b3461015d57600036600319011261015d576020611474611de7565b604051908152f35b3461015d57600036600319011261015d57602060405160128152f35b3461015d57600036600319011261015d576103ce6040516114b881611760565b601981527f55706772616465642057726170706564546f6b656e207635210000000000000060208201526040519182916020835260208301906116f4565b3461015d57606036600319011261015d5761150f611734565b61151761174a565b604435906115258184611b25565b1561015d57611533836119cd565b33600052602052604060002054926000198410611555575b6104089350611d2b565b8284106115c4576001600160a01b038116156115ab57331561159257826104089461157f836119cd565b336000526020520360406000205561154b565b604051634a1406b160e11b815260006004820152602490fd5b60405163e602df0560e01b815260006004820152602490fd5b604051637dc7a0d960e11b81523360048201526024810185905260448101849052606490fd5b3461015d57600036600319011261015d5760207f52c63247e1f47db19d5ce0460030c497f067ca4cebf71ba98eeadabe20bace0254604051908152f35b3461015d57604036600319011261015d57610408611643611734565b6024359033611ccd565b3461015d57600036600319011261015d576000805160206120d3833981519152805482600061167b8361180c565b92838352602094600191866001821691826000146105e05750506001146116aa5750506105829250038361177b565b8592506000526000805160206120b3833981519152906000915b8583106116dc57505061058293508201018580610574565b805483890185015287945086939092019181016116c4565b919082519283825260005b848110611720575050826000602080949584010152601f8019910116010190565b6020818301810151848301820152016116ff565b600435906001600160a01b038216820361015d57565b602435906001600160a01b038216820361015d57565b604081019081106001600160401b0382111761033157604052565b90601f801991011681019081106001600160401b0382111761033157604052565b6001600160401b03811161033157601f01601f191660200190565b9291926117c38261179c565b916117d1604051938461177b565b82948184528183011161015d578281602093846000960137010152565b9080601f8301121561015d57816020611809933591016117b7565b90565b90600182811c9216801561183c575b602083101461182657565b634e487b7160e01b600052602260045260246000fd5b91607f169161181b565b60405190600082600080516020612113833981519152918254926118698461180c565b808452936020916001918281169081156118e65750600114611897575b5050506118959250038361177b565b565b60009081526000805160206121538339815191529590935091905b8284106118ce5750611895945050508101602001388080611886565b855488850183015294850194879450928101926118b2565b925050506020925061189594915060ff191682840152151560051b820101388080611886565b604051906000827fa16a46d94261c7517cc8ff89f61c0ce93598e3c849801011dee649a6a557d103918254926119418461180c565b808452936020916001918281169081156118e6575060011461196c575050506118959250038361177b565b60009081527f5f9ce34815f8e11431c7bb75a8e6886a91478f7ffc1dbb0a98dc240fddd76b759590935091905b8284106119b55750611895945050508101602001388080611886565b85548885018301529485019487945092810192611999565b6001600160a01b031660009081527f52c63247e1f47db19d5ce0460030c497f067ca4cebf71ba98eeadabe20bace016020526040902090565b51906001600160a01b038216820361015d57565b600054604051631127a41d60e31b815290602090829060049082906001600160a01b03165afa908115611a8657600091611a52575090565b90506020813d602011611a7e575b81611a6d6020938361177b565b8101031261015d5761180990611a06565b3d9150611a60565b6040513d6000823e3d90fd5b6001600160a01b03908116908115611aff577f9016d09d72d40fdae2fd8ceac6b6234c7706214fd39c1cd1e609a0528c19930080546001600160a01b031981168417909155167f8be0079c531659141344cd1fd0a4f28419497f9722a3daafe3b4186f6b6457e0600080a3565b604051631e4fbdf760e01b815260006004820152602490fd5b5190811515820361015d57565b600154604080516324b9c44160e21b81526001600160a01b03938416600482018190529392610100929083908390602490829088165afa918215611c8f576000938493611ba0575b505050611b7d5750505050600190565b602001518116918214928315611b94575b50505090565b16149050388080611b8e565b90809350819492943d8311611c88575b611bba818361177b565b810103908112611c845760e013611c6d5782519260e084018481106001600160401b03821117611c70578152611bef83611a06565b8452611bfd60208401611a06565b6020850152611c0d818401611a06565b90840152611c1d60608301611a06565b6060840152611c2e60808301611a06565b6080840152611c3f60a08301611b18565b60a084015260c0820151906003821015611c6d575060c0830152611c659060e001611b18565b388080611b6d565b80fd5b634e487b7160e01b83526041600452602483fd5b5080fd5b503d611bb0565b50513d6000823e3d90fd5b611ca2611a1a565b336001600160a01b0390911603611cb557565b60405163118cdaa760e01b8152336004820152602490fd5b916001600160a01b038084169283156115ab5716928315611592577f8c5be1e5ebec7d5bd14f71427d1e84f3dd0314c0f7b2291e5b200ac8c7c3b92591611d156020926119cd565b85600052825280604060002055604051908152a3565b916001600160a01b038084169283156105085716928315611440576000908382526000805160206120f383398151915280602052604083205491848310611db4575082847fddf252ad1be2c89b69c2b068fc378daa952ba7f163c4a11628f55a4df523b3ef959360409388602097528652038282205586815220818154019055604051908152a3565b60405163391434e360e21b81526001600160a01b0391909116600482015260248101929092525060448101839052606490fd5b611def611fa0565b611df761200a565b6040519060208201927f8b73c3c69bb8fe3d512ecc4cf759cc79239f7b179b0ffacaa9a75d522b39400f8452604083015260608201524660808201523060a082015260a0815260c081018181106001600160401b038211176103315760405251902090565b60ff6000805160206121938339815191525460401c1615611e7957565b604051631afcd79f60e31b8152600490fd5b91907f7fffffffffffffffffffffffffffffff5d576e7357a4501ddfe92f46681b20a08411611f0f57926020929160ff608095604051948552168484015260408301526060820152600092839182805260015afa15611f035780516001600160a01b03811615611efa57918190565b50809160019190565b604051903d90823e3d90fd5b50505060009160039190565b6004811015611f8a5780611f2d575050565b60018103611f475760405163f645eedf60e01b8152600490fd5b60028103611f685760405163fce698f760e01b815260048101839052602490fd5b600314611f725750565b602490604051906335e2f38360e21b82526004820152fd5b634e487b7160e01b600052602160045260246000fd5b611fa8611846565b8051908115611fb8576020012090565b50507fa16a46d94261c7517cc8ff89f61c0ce93598e3c849801011dee649a6a557d100548015611fe55790565b507fc5d2460186f7233c927e7db2dcc703c0e500b653ca82273b7bfad8045d85a47090565b61201261190c565b8051908115612022576020012090565b50507fa16a46d94261c7517cc8ff89f61c0ce93598e3c849801011dee649a6a557d101548015611fe55790565b90612076575080511561206457805190602001fd5b60405163d6bda27560e01b8152600490fd5b815115806120a9575b612087575090565b604051639996b31560e01b81526001600160a01b039091166004820152602490fd5b50803b1561207f56fe2ae08a8e29253f69ac5d979a101956ab8f8d9d7ded63fa7a83b16fc47648eab052c63247e1f47db19d5ce0460030c497f067ca4cebf71ba98eeadabe20bace0352c63247e1f47db19d5ce0460030c497f067ca4cebf71ba98eeadabe20bace00a16a46d94261c7517cc8ff89f61c0ce93598e3c849801011dee649a6a557d10252c63247e1f47db19d5ce0460030c497f067ca4cebf71ba98eeadabe20bace0442ad5d3e1f2e6e70edcf6d991b8a3023d3fca8047a131592f9edb9fd9b89d57d46a2803e59a4de4e7a4c574b1243f25977ac4c77d5a1a4a609b5394cebb4a2aaf0c57e16840df040f15088dc2f81fe391c3923bec73e23a9662efc9c229c6a00a2646970667358221220ae7a5230c8be57f997c3189d88dcc054b9ebad833e58c0a3b337ef95f341bcc564736f6c63430008180033",
  "linkReferences": {},
  "deployedLinkReferences": {}
}