{
  "_format": "hh-sol-artifact-1",
  "contractName": "WrappedTokenFactoryUpgrade",
  "sourceName": "contracts/WrappedTokenFactoryUpgrade.sol",
  "abi": [
    {
      "inputs": [],
      "stateMutability": "nonpayable",
      "type": "constructor"
    },
    {
      "inputs": [
        {
          "internalType": "address",
          "name": "target",
          "type": "address"
        }
      ],
      "name": "AddressEmptyCode",
      "type": "error"
    },
    {
      "inputs": [
        {
          "internalType": "address",
          "name": "implementation",
          "type": "address"
        }
      ],
      "name": "ERC1967InvalidImplementation",
      "type": "error"
    },
    {
      "inputs": [],
      "name": "ERC1967NonPayable",
      "type": "error"
    },
    {
      "inputs": [],
      "name": "FailedCall",
      "type": "error"
    },
    {
      "inputs": [],
      "name": "InvalidInitialization",
      "type": "error"
    },
    {
      "inputs": [],
      "name": "NotInitializing",
      "type": "error"
    },
    {
      "inputs": [
        {
          "internalType": "address",
          "name": "owner",
          "type": "address"
        }
      ],
      "name": "OwnableInvalidOwner",
      "type": "error"
    },
    {
      "inputs": [
        {
          "internalType": "address",
          "name": "account",
          "type": "address"
        }
      ],
      "name": "OwnableUnauthorizedAccount",
      "type": "error"
    },
    {
      "inputs": [],
      "name": "UUPSUnauthorizedCallContext",
      "type": "error"
    },
    {
      "inputs": [
        {
          "internalType": "bytes32",
          "name": "slot",
          "type": "bytes32"
        }
      ],
      "name": "UUPSUnsupportedProxiableUUID",
      "type": "error"
    },
    {
      "anonymous": false,
      "inputs": [
        {
          "indexed": true,
          "internalType": "address",
          "name": "oldBridge",
          "type": "address"
        },
        {
          "indexed": true,
          "internalType": "address",
          "name": "newBridge",
          "type": "address"
        }
      ],
      "name": "BridgeUpdated",
      "type": "event"
    },
    {
      "anonymous": false,
      "inputs": [
        {
          "indexed": false,
          "internalType": "uint64",
          "name": "version",
          "type": "uint64"
        }
      ],
      "name": "Initialized",
      "type": "event"
    },
    {
      "anonymous": false,
      "inputs": [
        {
          "indexed": true,
          "internalType": "address",
          "name": "previousOwner",
          "type": "address"
        },
        {
          "indexed": true,
          "internalType": "address",
          "name": "newOwner",
          "type": "address"
        }
      ],
      "name": "OwnershipTransferred",
      "type": "event"
    },
    {
      "anonymous": false,
      "inputs": [
        {
          "indexed": false,
          "internalType": "address",
          "name": "proxy",
          "type": "address"
        }
      ],
      "name": "TokenDeployed",
      "type": "event"
    },
    {
      "anonymous": false,
      "inputs": [
        {
          "indexed": true,
          "internalType": "address",
          "name": "implementation",
          "type": "address"
        }
      ],
      "name": "Upgraded",
      "type": "event"
    },
    {
      "inputs": [],
      "name": "UPGRADE_INTERFACE_VERSION",
      "outputs": [
        {
          "internalType": "string",
          "name": "",
          "type": "string"
        }
      ],
      "stateMutability": "view",
      "type": "function"
    },
    {
      "inputs": [],
      "name": "beacon",
      "outputs": [
        {
          "internalType": "address",
          "name": "",
          "type": "address"
        }
      ],
      "stateMutability": "view",
      "type": "function"
    },
    {
      "inputs": [],
      "name": "bridge",
      "outputs": [
        {
          "internalType": "address",
          "name": "",
          "type": "address"
        }
      ],
      "stateMutability": "view",
      "type": "function"
    },
    {
      "inputs": [
        {
          "internalType": "string",
          "name": "name",
          "type": "string"
        },
        {
          "internalType": "string",
          "name": "symbol",
          "type": "string"
        },
        {
          "internalType": "address",
          "name": "keyLogRegistry",
          "type": "address"
        },
        {
          "internalType": "uint8",
          "name": "decimals_",
          "type": "uint8"
        }
      ],
      "name": "createToken",
      "outputs": [
        {
          "internalType": "address",
          "name": "",
          "type": "address"
        }
      ],
      "stateMutability": "nonpayable",
      "type": "function"
    },
    {
      "inputs": [],
      "name": "getTestString",
      "outputs": [
        {
          "internalType": "string",
          "name": "",
          "type": "string"
        }
      ],
      "stateMutability": "pure",
      "type": "function"
    },
    {
      "inputs": [
        {
          "internalType": "address",
          "name": "_beacon",
          "type": "address"
        },
        {
          "internalType": "address",
          "name": "_owner",
          "type": "address"
        },
        {
          "internalType": "address",
          "name": "_bridge",
          "type": "address"
        }
      ],
      "name": "initialize",
      "outputs": [],
      "stateMutability": "nonpayable",
      "type": "function"
    },
    {
      "inputs": [],
      "name": "owner",
      "outputs": [
        {
          "internalType": "address",
          "name": "",
          "type": "address"
        }
      ],
      "stateMutability": "view",
      "type": "function"
    },
    {
      "inputs": [],
      "name": "proxiableUUID",
      "outputs": [
        {
          "internalType": "bytes32",
          "name": "",
          "type": "bytes32"
        }
      ],
      "stateMutability": "view",
      "type": "function"
    },
    {
      "inputs": [],
      "name": "renounceOwnership",
      "outputs": [],
      "stateMutability": "nonpayable",
      "type": "function"
    },
    {
      "inputs": [
        {
          "internalType": "address",
          "name": "newOwner",
          "type": "address"
        }
      ],
      "name": "transferOwnership",
      "outputs": [],
      "stateMutability": "nonpayable",
      "type": "function"
    },
    {
      "inputs": [
        {
          "internalType": "address",
          "name": "newImplementation",
          "type": "address"
        },
        {
          "internalType": "bytes",
          "name": "data",
          "type": "bytes"
        }
      ],
      "name": "upgradeToAndCall",
      "outputs": [],
      "stateMutability": "payable",
      "type": "function"
    }
  ],
  "bytecode": "0x60a060405230608052348015610013575f80fd5b5061001c610021565b6100d3565b7ff0c57e16840df040f15088dc2f81fe391c3923bec73e23a9662efc9c229c6a00805468010000000000000000900460ff16156100715760405163f92ee8a960e01b815260040160405180910390fd5b80546001600160401b03908116146100d05780546001600160401b0319166001600160401b0390811782556040519081527fc7f505b2f371ae2175ee4913f4499e1f2633a7b5936321eed1cdaeb6115181d29060200160405180910390a15b50565b6080516114646100f95f395f81816105e30152818161060d01526107b101526114645ff3fe608060405260043610620000a7575f3560e01c80638da5cb5b116200006a5780638da5cb5b1462000195578063ad3cb1cc14620001ac578063c0c53b8b14620001de578063e142400e1462000202578063e78cea921462000226578063f2fde38b1462000246575f80fd5b80632f91be4814620000ab5780634f1ef286146200010557806352d1902d146200011e57806359659e901462000144578063715018a6146200017e575b5f80fd5b348015620000b7575f80fd5b506040805180820190915260208082527f55706772616465642057726170706564546f6b656e466163746f727920763521908201525b604051620000fc919062000b52565b60405180910390f35b6200011c6200011636600462000c09565b6200026a565b005b3480156200012a575f80fd5b50620001356200028f565b604051908152602001620000fc565b34801562000150575f80fd5b5060015462000165906001600160a01b031681565b6040516001600160a01b039091168152602001620000fc565b3480156200018a575f80fd5b506200011c620002ad565b348015620001a1575f80fd5b5062000165620002c4565b348015620001b8575f80fd5b50620000ed604051806040016040528060058152602001640352e302e360dc1b81525081565b348015620001ea575f80fd5b506200011c620001fc36600462000c70565b62000340565b3480156200020e575f80fd5b50620001656200022036600462000ce0565b62000491565b34801562000232575f80fd5b505f5462000165906001600160a01b031681565b34801562000252575f80fd5b506200011c6200026436600462000d73565b62000591565b62000274620005d8565b6200027f8262000680565b6200028b8282620006db565b5050565b5f6200029a620007a6565b505f805160206200140f83398151915290565b620002b7620007f0565b620002c25f62000826565b565b5f805f9054906101000a90046001600160a01b03166001600160a01b031663893d20e86040518163ffffffff1660e01b8152600401602060405180830381865afa15801562000315573d5f803e3d5ffd5b505050506040513d601f19601f820116820180604052508101906200033b919062000d91565b905090565b7ff0c57e16840df040f15088dc2f81fe391c3923bec73e23a9662efc9c229c6a008054600160401b810460ff16159067ffffffffffffffff165f81158015620003865750825b90505f8267ffffffffffffffff166001148015620003a35750303b155b905081158015620003b2575080155b15620003d15760405163f92ee8a960e01b815260040160405180910390fd5b845467ffffffffffffffff191660011785558315620003fc57845460ff60401b1916600160401b1785555b620004078762000896565b62000411620008ab565b600180546001600160a01b03808b166001600160a01b0319928316179092555f80549289169290911691909117905583156200048757845460ff60401b19168555604051600181527fc7f505b2f371ae2175ee4913f4499e1f2633a7b5936321eed1cdaeb6115181d29060200160405180910390a15b5050505050505050565b5f6200049c620007f0565b5f805460405163328ec1b360e11b91620004cd91899189916001600160a01b03909116908990899060240162000daf565b60408051601f198184030181529181526020820180516001600160e01b03166001600160e01b03199094169390931790925260015491519092505f916001600160a01b0316908390620005209062000af3565b6200052d92919062000e04565b604051809103905ff08015801562000547573d5f803e3d5ffd5b506040516001600160a01b03821681529091507f91d24864a084ab70b268a1f865e757ca12006cf298d763b6be697302ef86498c9060200160405180910390a19695505050505050565b6200059b620007f0565b6001600160a01b038116620005ca57604051631e4fbdf760e01b81525f60048201526024015b60405180910390fd5b620005d58162000826565b50565b306001600160a01b037f00000000000000000000000000000000000000000000000000000000000000001614806200066157507f00000000000000000000000000000000000000000000000000000000000000006001600160a01b0316620006555f805160206200140f833981519152546001600160a01b031690565b6001600160a01b031614155b15620002c25760405163703e46dd60e11b815260040160405180910390fd5b5f546001600160a01b03163314620005d55760405162461bcd60e51b815260206004820152601760248201527f4f6e6c79206272696467652063616e20757067726164650000000000000000006044820152606401620005c1565b816001600160a01b03166352d1902d6040518163ffffffff1660e01b8152600401602060405180830381865afa92505050801562000738575060408051601f3d908101601f19168201909252620007359181019062000e31565b60015b6200076257604051634c9c8ce360e01b81526001600160a01b0383166004820152602401620005c1565b5f805160206200140f83398151915281146200079557604051632a87526960e21b815260048101829052602401620005c1565b620007a18383620008b5565b505050565b306001600160a01b037f00000000000000000000000000000000000000000000000000000000000000001614620002c25760405163703e46dd60e11b815260040160405180910390fd5b33620007fb620002c4565b6001600160a01b031614620002c25760405163118cdaa760e01b8152336004820152602401620005c1565b7f9016d09d72d40fdae2fd8ceac6b6234c7706214fd39c1cd1e609a0528c19930080546001600160a01b031981166001600160a01b03848116918217845560405192169182907f8be0079c531659141344cd1fd0a4f28419497f9722a3daafe3b4186f6b6457e0905f90a3505050565b620008a062000911565b620005d5816200095b565b620002c262000911565b620008c08262000965565b6040516001600160a01b038316907fbc7cd75a20ee27fd9adebab32041f755214dbc6bffa90cc0225b39da2e5c2d3b905f90a28051156200090757620007a18282620009cb565b6200028b62000a43565b7ff0c57e16840df040f15088dc2f81fe391c3923bec73e23a9662efc9c229c6a0054600160401b900460ff16620002c257604051631afcd79f60e31b815260040160405180910390fd5b6200059b62000911565b806001600160a01b03163b5f036200099c57604051634c9c8ce360e01b81526001600160a01b0382166004820152602401620005c1565b5f805160206200140f83398151915280546001600160a01b0319166001600160a01b0392909216919091179055565b60605f80846001600160a01b031684604051620009e9919062000e49565b5f60405180830381855af49150503d805f811462000a23576040519150601f19603f3d011682016040523d82523d5f602084013e62000a28565b606091505b509150915062000a3a85838362000a63565b95945050505050565b3415620002c25760405163b398979f60e01b815260040160405180910390fd5b60608262000a7c5762000a768262000ac9565b62000ac2565b815115801562000a9457506001600160a01b0384163b155b1562000abf57604051639996b31560e01b81526001600160a01b0385166004820152602401620005c1565b50805b9392505050565b80511562000ada5780518082602001fd5b60405163d6bda27560e01b815260040160405180910390fd5b6105a88062000e6783390190565b5f5b8381101562000b1d57818101518382015260200162000b03565b50505f910152565b5f815180845262000b3e81602086016020860162000b01565b601f01601f19169290920160200192915050565b602081525f62000ac2602083018462000b25565b6001600160a01b0381168114620005d5575f80fd5b634e487b7160e01b5f52604160045260245ffd5b5f67ffffffffffffffff8084111562000bac5762000bac62000b7b565b604051601f8501601f19908116603f0116810190828211818310171562000bd75762000bd762000b7b565b8160405280935085815286868601111562000bf0575f80fd5b858560208301375f602087830101525050509392505050565b5f806040838503121562000c1b575f80fd5b823562000c288162000b66565b9150602083013567ffffffffffffffff81111562000c44575f80fd5b8301601f8101851362000c55575f80fd5b62000c668582356020840162000b8f565b9150509250929050565b5f805f6060848603121562000c83575f80fd5b833562000c908162000b66565b9250602084013562000ca28162000b66565b9150604084013562000cb48162000b66565b809150509250925092565b5f82601f83011262000ccf575f80fd5b62000ac28383356020850162000b8f565b5f805f806080858703121562000cf4575f80fd5b843567ffffffffffffffff8082111562000d0c575f80fd5b62000d1a8883890162000cbf565b9550602087013591508082111562000d30575f80fd5b5062000d3f8782880162000cbf565b935050604085013562000d528162000b66565b9150606085013560ff8116811462000d68575f80fd5b939692955090935050565b5f6020828403121562000d84575f80fd5b813562000ac28162000b66565b5f6020828403121562000da2575f80fd5b815162000ac28162000b66565b60a081525f62000dc360a083018862000b25565b828103602084015262000dd7818862000b25565b6001600160a01b0396871660408501529490951660608301525060ff919091166080909101529392505050565b6001600160a01b03831681526040602082018190525f9062000e299083018462000b25565b949350505050565b5f6020828403121562000e42575f80fd5b5051919050565b5f825162000e5c81846020870162000b01565b919091019291505056fe60a060405234801561000f575f80fd5b506040516105a83803806105a883398101604081905261002e91610387565b818161003a828261004f565b506001600160a01b0316608052506104769050565b6100588261010c565b6040516001600160a01b038316907f1cf3b03a6cf19fa2baba4df148e9dcabedea7f8a5c07840e207e5c089be95d3e905f90a2805115610100576100fb826001600160a01b0316635c60da1b6040518163ffffffff1660e01b8152600401602060405180830381865afa1580156100d1573d5f803e3d5ffd5b505050506040513d601f19601f820116820180604052508101906100f59190610442565b8261021a565b505050565b61010861028d565b5050565b806001600160a01b03163b5f0361014657604051631933b43b60e21b81526001600160a01b03821660048201526024015b60405180910390fd5b807fa3f0ad74e5423aebfd80d3ef4346578335a9a72aeaee59ff6cb3582b35133d5080546001600160a01b0319166001600160a01b0392831617905560408051635c60da1b60e01b815290515f92841691635c60da1b9160048083019260209291908290030181865afa1580156101bf573d5f803e3d5ffd5b505050506040513d601f19601f820116820180604052508101906101e39190610442565b9050806001600160a01b03163b5f0361010857604051634c9c8ce360e01b81526001600160a01b038216600482015260240161013d565b60605f80846001600160a01b031684604051610236919061045b565b5f60405180830381855af49150503d805f811461026e576040519150601f19603f3d011682016040523d82523d5f602084013e610273565b606091505b5090925090506102848583836102ae565b95945050505050565b34156102ac5760405163b398979f60e01b815260040160405180910390fd5b565b6060826102c3576102be8261030d565b610306565b81511580156102da57506001600160a01b0384163b155b1561030357604051639996b31560e01b81526001600160a01b038516600482015260240161013d565b50805b9392505050565b80511561031d5780518082602001fd5b60405163d6bda27560e01b815260040160405180910390fd5b80516001600160a01b038116811461034c575f80fd5b919050565b634e487b7160e01b5f52604160045260245ffd5b5f5b8381101561037f578181015183820152602001610367565b50505f910152565b5f8060408385031215610398575f80fd5b6103a183610336565b60208401519092506001600160401b03808211156103bd575f80fd5b818501915085601f8301126103d0575f80fd5b8151818111156103e2576103e2610351565b604051601f8201601f19908116603f0116810190838211818310171561040a5761040a610351565b81604052828152886020848701011115610422575f80fd5b610433836020830160208801610365565b80955050505050509250929050565b5f60208284031215610452575f80fd5b61030682610336565b5f825161046c818460208701610365565b9190910192915050565b60805161011b61048d5f395f601d015261011b5ff3fe6080604052600a600c565b005b60186014601a565b609d565b565b5f7f00000000000000000000000000000000000000000000000000000000000000006001600160a01b0316635c60da1b6040518163ffffffff1660e01b8152600401602060405180830381865afa1580156076573d5f803e3d5ffd5b505050506040513d601f19601f820116820180604052508101906098919060ba565b905090565b365f80375f80365f845af43d5f803e80801560b6573d5ff35b3d5ffd5b5f6020828403121560c9575f80fd5b81516001600160a01b038116811460de575f80fd5b939250505056fea2646970667358221220463051bc565486b78d20466cf8d3347387dcc0893c78b8618c818ffd87132f7b64736f6c63430008180033360894a13ba1a3210667c828492db98dca3e2076cc3735a920a3ca505d382bbca2646970667358221220d5af434477a4eba2a159474c4739838e1b361acf4ecc96178454848f41e8a37564736f6c63430008180033",
  "linkReferences": {},
  "deployedLinkReferences": {}
}