{
  "_format": "hh-sol-artifact-1",
  "contractName": "WrappedToken",
  "sourceName": "contracts/WrappedToken.sol",
  "abi": [
    {
      "inputs": [
        {
          "internalType": "address",
          "name": "target",
          "type": "address"
        }
      ],
      "name": "AddressEmptyCode",
      "type": "error"
    },
    {
      "inputs": [],
      "name": "ECDSAInvalidSignature",
      "type": "error"
    },
    {
      "inputs": [
        {
          "internalType": "uint256",
          "name": "length",
          "type": "uint256"
        }
      ],
      "name": "ECDSAInvalidSignatureLength",
      "type": "error"
    },
    {
      "inputs": [
        {
          "internalType": "bytes32",
          "name": "s",
          "type": "bytes32"
        }
      ],
      "name": "ECDSAInvalidSignatureS",
      "type": "error"
    },
    {
      "inputs": [
        {
          "internalType": "address",
          "name": "implementation",
          "type": "address"
        }
      ],
      "name": "ERC1967InvalidImplementation",
      "type": "error"
    },
    {
      "inputs": [],
      "name": "ERC1967NonPayable",
      "type": "error"
    },
    {
      "inputs": [
        {
          "internalType": "address",
          "name": "spender",
          "type": "address"
        },
        {
          "internalType": "uint256",
          "name": "allowance",
          "type": "uint256"
        },
        {
          "internalType": "uint256",
          "name": "needed",
          "type": "uint256"
        }
      ],
      "name": "ERC20InsufficientAllowance",
      "type": "error"
    },
    {
      "inputs": [
        {
          "internalType": "address",
          "name": "sender",
          "type": "address"
        },
        {
          "internalType": "uint256",
          "name": "balance",
          "type": "uint256"
        },
        {
          "internalType": "uint256",
          "name": "needed",
          "type": "uint256"
        }
      ],
      "name": "ERC20InsufficientBalance",
      "type": "error"
    },
    {
      "inputs": [
        {
          "internalType": "address",
          "name": "approver",
          "type": "address"
        }
      ],
      "name": "ERC20InvalidApprover",
      "type": "error"
    },
    {
      "inputs": [
        {
          "internalType": "address",
          "name": "receiver",
          "type": "address"
        }
      ],
      "name": "ERC20InvalidReceiver",
      "type": "error"
    },
    {
      "inputs": [
        {
          "internalType": "address",
          "name": "sender",
          "type": "address"
        }
      ],
      "name": "ERC20InvalidSender",
      "type": "error"
    },
    {
      "inputs": [
        {
          "internalType": "address",
          "name": "spender",
          "type": "address"
        }
      ],
      "name": "ERC20InvalidSpender",
      "type": "error"
    },
    {
      "inputs": [
        {
          "internalType": "uint256",
          "name": "deadline",
          "type": "uint256"
        }
      ],
      "name": "ERC2612ExpiredSignature",
      "type": "error"
    },
    {
      "inputs": [
        {
          "internalType": "address",
          "name": "signer",
          "type": "address"
        },
        {
          "internalType": "address",
          "name": "owner",
          "type": "address"
        }
      ],
      "name": "ERC2612InvalidSigner",
      "type": "error"
    },
    {
      "inputs": [],
      "name": "FailedCall",
      "type": "error"
    },
    {
      "inputs": [
        {
          "internalType": "address",
          "name": "account",
          "type": "address"
        },
        {
          "internalType": "uint256",
          "name": "currentNonce",
          "type": "uint256"
        }
      ],
      "name": "InvalidAccountNonce",
      "type": "error"
    },
    {
      "inputs": [],
      "name": "InvalidInitialization",
      "type": "error"
    },
    {
      "inputs": [],
      "name": "NotInitializing",
      "type": "error"
    },
    {
      "inputs": [
        {
          "internalType": "address",
          "name": "owner",
          "type": "address"
        }
      ],
      "name": "OwnableInvalidOwner",
      "type": "error"
    },
    {
      "inputs": [
        {
          "internalType": "address",
          "name": "account",
          "type": "address"
        }
      ],
      "name": "OwnableUnauthorizedAccount",
      "type": "error"
    },
    {
      "inputs": [],
      "name": "UUPSUnauthorizedCallContext",
      "type": "error"
    },
    {
      "inputs": [
        {
          "internalType": "bytes32",
          "name": "slot",
          "type": "bytes32"
        }
      ],
      "name": "UUPSUnsupportedProxiableUUID",
      "type": "error"
    },
    {
      "anonymous": false,
      "inputs": [
        {
          "indexed": true,
          "internalType": "address",
          "name": "owner",
          "type": "address"
        },
        {
          "indexed": true,
          "internalType": "address",
          "name": "spender",
          "type": "address"
        },
        {
          "indexed": false,
          "internalType": "uint256",
          "name": "value",
          "type": "uint256"
        }
      ],
      "name": "Approval",
      "type": "event"
    },
    {
      "anonymous": false,
      "inputs": [],
      "name": "EIP712DomainChanged",
      "type": "event"
    },
    {
      "anonymous": false,
      "inputs": [
        {
          "indexed": false,
          "internalType": "uint64",
          "name": "version",
          "type": "uint64"
        }
      ],
      "name": "Initialized",
      "type": "event"
    },
    {
      "anonymous": false,
      "inputs": [
        {
          "indexed": true,
          "internalType": "address",
          "name": "previousOwner",
          "type": "address"
        },
        {
          "indexed": true,
          "internalType": "address",
          "name": "newOwner",
          "type": "address"
        }
      ],
      "name": "OwnershipTransferred",
      "type": "event"
    },
    {
      "anonymous": false,
      "inputs": [
        {
          "indexed": true,
          "internalType": "address",
          "name": "from",
          "type": "address"
        },
        {
          "indexed": true,
          "internalType": "address",
          "name": "to",
          "type": "address"
        },
        {
          "indexed": false,
          "internalType": "uint256",
          "name": "value",
          "type": "uint256"
        }
      ],
      "name": "Transfer",
      "type": "event"
    },
    {
      "anonymous": false,
      "inputs": [
        {
          "indexed": true,
          "internalType": "address",
          "name": "implementation",
          "type": "address"
        }
      ],
      "name": "Upgraded",
      "type": "event"
    },
    {
      "inputs": [],
      "name": "DOMAIN_SEPARATOR",
      "outputs": [
        {
          "internalType": "bytes32",
          "name": "",
          "type": "bytes32"
        }
      ],
      "stateMutability": "view",
      "type": "function"
    },
    {
      "inputs": [],
      "name": "UPGRADE_INTERFACE_VERSION",
      "outputs": [
        {
          "internalType": "string",
          "name": "",
          "type": "string"
        }
      ],
      "stateMutability": "view",
      "type": "function"
    },
    {
      "inputs": [
        {
          "internalType": "address",
          "name": "owner",
          "type": "address"
        },
        {
          "internalType": "address",
          "name": "spender",
          "type": "address"
        }
      ],
      "name": "allowance",
      "outputs": [
        {
          "internalType": "uint256",
          "name": "",
          "type": "uint256"
        }
      ],
      "stateMutability": "view",
      "type": "function"
    },
    {
      "inputs": [
        {
          "internalType": "address",
          "name": "spender",
          "type": "address"
        },
        {
          "internalType": "uint256",
          "name": "value",
          "type": "uint256"
        }
      ],
      "name": "approve",
      "outputs": [
        {
          "internalType": "bool",
          "name": "",
          "type": "bool"
        }
      ],
      "stateMutability": "nonpayable",
      "type": "function"
    },
    {
      "inputs": [
        {
          "internalType": "address",
          "name": "account",
          "type": "address"
        }
      ],
      "name": "balanceOf",
      "outputs": [
        {
          "internalType": "uint256",
          "name": "",
          "type": "uint256"
        }
      ],
      "stateMutability": "view",
      "type": "function"
    },
    {
      "inputs": [],
      "name": "bridge",
      "outputs": [
        {
          "internalType": "address",
          "name": "",
          "type": "address"
        }
      ],
      "stateMutability": "view",
      "type": "function"
    },
    {
      "inputs": [
        {
          "internalType": "address",
          "name": "from",
          "type": "address"
        },
        {
          "internalType": "uint256",
          "name": "amount",
          "type": "uint256"
        }
      ],
      "name": "burn",
      "outputs": [],
      "stateMutability": "nonpayable",
      "type": "function"
    },
    {
      "inputs": [],
      "name": "decimals",
      "outputs": [
        {
          "internalType": "uint8",
          "name": "",
          "type": "uint8"
        }
      ],
      "stateMutability": "view",
      "type": "function"
    },
    {
      "inputs": [],
      "name": "eip712Domain",
      "outputs": [
        {
          "internalType": "bytes1",
          "name": "fields",
          "type": "bytes1"
        },
        {
          "internalType": "string",
          "name": "name",
          "type": "string"
        },
        {
          "internalType": "string",
          "name": "version",
          "type": "string"
        },
        {
          "internalType": "uint256",
          "name": "chainId",
          "type": "uint256"
        },
        {
          "internalType": "address",
          "name": "verifyingContract",
          "type": "address"
        },
        {
          "internalType": "bytes32",
          "name": "salt",
          "type": "bytes32"
        },
        {
          "internalType": "uint256[]",
          "name": "extensions",
          "type": "uint256[]"
        }
      ],
      "stateMutability": "view",
      "type": "function"
    },
    {
      "inputs": [
        {
          "internalType": "string",
          "name": "name",
          "type": "string"
        },
        {
          "internalType": "string",
          "name": "symbol",
          "type": "string"
        },
        {
          "internalType": "address",
          "name": "_bridge",
          "type": "address"
        },
        {
          "internalType": "address",
          "name": "_keyLogRegistry",
          "type": "address"
        }
      ],
      "name": "initialize",
      "outputs": [],
      "stateMutability": "nonpayable",
      "type": "function"
    },
    {
      "inputs": [],
      "name": "keyLogRegistry",
      "outputs": [
        {
          "internalType": "contract KeyLogRegistry",
          "name": "",
          "type": "address"
        }
      ],
      "stateMutability": "view",
      "type": "function"
    },
    {
      "inputs": [
        {
          "internalType": "address",
          "name": "to",
          "type": "address"
        },
        {
          "internalType": "uint256",
          "name": "amount",
          "type": "uint256"
        }
      ],
      "name": "mint",
      "outputs": [],
      "stateMutability": "nonpayable",
      "type": "function"
    },
    {
      "inputs": [],
      "name": "name",
      "outputs": [
        {
          "internalType": "string",
          "name": "",
          "type": "string"
        }
      ],
      "stateMutability": "view",
      "type": "function"
    },
    {
      "inputs": [
        {
          "internalType": "address",
          "name": "owner",
          "type": "address"
        }
      ],
      "name": "nonces",
      "outputs": [
        {
          "internalType": "uint256",
          "name": "",
          "type": "uint256"
        }
      ],
      "stateMutability": "view",
      "type": "function"
    },
    {
      "inputs": [],
      "name": "owner",
      "outputs": [
        {
          "internalType": "address",
          "name": "",
          "type": "address"
        }
      ],
      "stateMutability": "view",
      "type": "function"
    },
    {
      "inputs": [
        {
          "internalType": "address",
          "name": "owner",
          "type": "address"
        },
        {
          "internalType": "address",
          "name": "spender",
          "type": "address"
        },
        {
          "internalType": "uint256",
          "name": "value",
          "type": "uint256"
        },
        {
          "internalType": "uint256",
          "name": "deadline",
          "type": "uint256"
        },
        {
          "internalType": "uint8",
          "name": "v",
          "type": "uint8"
        },
        {
          "internalType": "bytes32",
          "name": "r",
          "type": "bytes32"
        },
        {
          "internalType": "bytes32",
          "name": "s",
          "type": "bytes32"
        }
      ],
      "name": "permit",
      "outputs": [],
      "stateMutability": "nonpayable",
      "type": "function"
    },
    {
      "inputs": [],
      "name": "proxiableUUID",
      "outputs": [
        {
          "internalType": "bytes32",
          "name": "",
          "type": "bytes32"
        }
      ],
      "stateMutability": "view",
      "type": "function"
    },
    {
      "inputs": [],
      "name": "renounceOwnership",
      "outputs": [],
      "stateMutability": "nonpayable",
      "type": "function"
    },
    {
      "inputs": [],
      "name": "symbol",
      "outputs": [
        {
          "internalType": "string",
          "name": "",
          "type": "string"
        }
      ],
      "stateMutability": "view",
      "type": "function"
    },
    {
      "inputs": [],
      "name": "totalSupply",
      "outputs": [
        {
          "internalType": "uint256",
          "name": "",
          "type": "uint256"
        }
      ],
      "stateMutability": "view",
      "type": "function"
    },
    {
      "inputs": [
        {
          "internalType": "address",
          "name": "to",
          "type": "address"
        },
        {
          "internalType": "uint256",
          "name": "amount",
          "type": "uint256"
        }
      ],
      "name": "transfer",
      "outputs": [
        {
          "internalType": "bool",
          "name": "",
          "type": "bool"
        }
      ],
      "stateMutability": "nonpayable",
      "type": "function"
    },
    {
      "inputs": [
        {
          "internalType": "address",
          "name": "from",
          "type": "address"
        },
        {
          "internalType": "address",
          "name": "to",
          "type": "address"
        },
        {
          "internalType": "uint256",
          "name": "amount",
          "type": "uint256"
        }
      ],
      "name": "transferFrom",
      "outputs": [
        {
          "internalType": "bool",
          "name": "",
          "type": "bool"
        }
      ],
      "stateMutability": "nonpayable",
      "type": "function"
    },
    {
      "inputs": [
        {
          "internalType": "address",
          "name": "newOwner",
          "type": "address"
        }
      ],
      "name": "transferOwnership",
      "outputs": [],
      "stateMutability": "nonpayable",
      "type": "function"
    },
    {
      "inputs": [
        {
          "internalType": "address",
          "name": "newImplementation",
          "type": "address"
        },
        {
          "internalType": "bytes",
          "name": "data",
          "type": "bytes"
        }
      ],
      "name": "upgradeToAndCall",
      "outputs": [],
      "stateMutability": "payable",
      "type": "function"
    }
  ],
  "bytecode": "0x60a0806040523461002a57306080526122f09081610030823960805181818161121a01526112d30152f35b600080fdfe608080604052600436101561001357600080fd5b60003560e01c90816306fdde031461172e57508063095ea7b31461170857806318160ddd146116cb57806323b872dd146115d7578063313ce567146115bb5780633644e5151461159857806340c10f19146114b25780634f1ef2861461128457806352d1902d1461120757806370a08231146111c0578063715018a6146111445780637ecebe00146110eb57806384b0196e14610e5e5780638da5cb5b14610e315780638f15b414146105f757806395d89b41146105165780639dc29fac14610408578063a9059cbb146103c7578063ad3cb1cc1461037d578063b5057a7b14610354578063d505accf146101c9578063dd62ed3e14610180578063e78cea92146101575763f2fde38b1461012757600080fd5b3461015257602036600319011261015257610150610143611815565b61014b611bf4565b6119ec565b005b600080fd5b34610152576000366003190112610152576000546040516001600160a01b039091168152602090f35b3461015257604036600319011261015257610199611815565b6101aa6101a461182b565b91611927565b9060018060a01b03166000526020526020604060002054604051908152f35b346101525760e0366003190112610152576101e2611815565b6101ea61182b565b60443590606435926084359360ff851685036101525780421161033c5760018060a01b039081831695866000527f5ab42ced628888259c08ac98db1eb0cf702fc1501344311d8b100cd1bfe4bb006020526040600020908154916001830190556040519260208401927f6e71edae12b1b97f4d1f60370fef10105fa2faae0126114a169c64845d6126c98452896040860152858816606086015288608086015260a085015260c084015260c0835260e08301918383106001600160401b03841117610326576102f5936102ec936040525190206102c5611d41565b906040519161190160f01b83526002830152602282015260c43591604260a4359220611de5565b90929192611e75565b1684810361030857506101509350611c27565b60449085604051916325c0072360e11b835260048301526024820152fd5b634e487b7160e01b600052604160045260246000fd5b6024906040519063313c898160e11b82526004820152fd5b34610152576000366003190112610152576001546040516001600160a01b039091168152602090f35b34610152576000366003190112610152576103c360405161039d81611841565b60058152640352e302e360dc1b60208201526040519182916020835260208301906117d5565b0390f35b34610152576040366003190112610152576103e0611815565b6103ea8133611a7f565b15610152576103fd906024359033611c85565b602060405160018152f35b3461015257604036600319011261015257610421611815565b600054602435906001600160a01b0390811633036101525782169081156104fd57816000526000805160206121db83398151915280602052604060002054938285106104cc5750817fddf252ad1be2c89b69c2b068fc378daa952ba7f163c4a11628f55a4df523b3ef9260009560209386885284520360408620557f52c63247e1f47db19d5ce0460030c497f067ca4cebf71ba98eeadabe20bace02818154039055604051908152a3005b60405163391434e360e21b81526001600160a01b039190911660048201526024810185905260448101839052606490fd5b604051634b637e8f60e11b815260006004820152602490fd5b346101525760003660031901126101525760405160008051602061221b8339815191528054826000610547836118ed565b92838352602094600191866001821691826000146105d557505060011461058b575b50506105779250038361185c565b6103c36040519282849384528301906117d5565b85925060005260008051602061225b833981519152906000915b8583106105bd57505061057793508201018580610569565b805483890185015287945086939092019181016105a5565b925093505061057794915060ff191682840152151560051b8201018580610569565b34610152576080366003190112610152576004356001600160401b038111610152576106279036906004016118cf565b6024356001600160401b038111610152576106469036906004016118cf565b6001600160a01b036044358082169003610152576064359080821682036101525760008051602061227b83398151915254926001600160401b03841680159081610e21575b6001149081610e17575b159081610e0e575b50610dfc5760016001600160401b031985161760008051602061227b8339815191525560ff8460401c1615610dcf575b6106d5611db6565b6106dd611db6565b84516001600160401b038111610326576107056000805160206121bb833981519152546118ed565b601f8111610d59575b50806020601f8211600114610ccd57600091610cc2575b508160011b916000199060031b1c1916176000805160206121bb833981519152555b8051906001600160401b03821161032657819061077260008051602061221b833981519152546118ed565b601f8111610c41575b50602090601f8311600114610bb357600092610ba8575b50508160011b916000199060031b1c19161760008051602061221b833981519152555b6107bd611db6565b604051936107ca85611841565b60018552603160f81b60208601526107e0611db6565b8051906001600160401b03821161032657819061080b6000805160206121fb833981519152546118ed565b601f8111610b27575b50602090601f8311600114610a9957600092610a8e575b50508160011b916000199060031b1c1916176000805160206121fb833981519152555b8351936001600160401b038511610326577fa16a46d94261c7517cc8ff89f61c0ce93598e3c849801011dee649a6a557d1039061088b82546118ed565b601f8111610a3c575b50602090601f87116001146109c85760ff9691600091836109bd575b50508160011b916000199060031b1c19161790555b60007fa16a46d94261c7517cc8ff89f61c0ce93598e3c849801011dee649a6a557d1005560007fa16a46d94261c7517cc8ff89f61c0ce93598e3c849801011dee649a6a557d10155610915611db6565b61091d611db6565b6109286044356119ec565b610930611db6565b6bffffffffffffffffffffffff60a01b9181604435168360005416176000551690600154161760015560401c161561096457005b68ff00000000000000001960008051602061227b833981519152541660008051602061227b833981519152557fc7f505b2f371ae2175ee4913f4499e1f2633a7b5936321eed1cdaeb6115181d2602060405160018152a1005b0151905087806108b0565b90601f198716918360005260008051602061229b8339815191529260005b818110610a24575091600193918960ff9a9410610a0b575b505050811b0190556108c5565b015160001960f88460031b161c191690558780806109fe565b929360206001819287860151815501950193016109e6565b8260005260008051602061229b833981519152601f880160051c81019160208910610a84575b601f0160051c01905b818110610a785750610894565b60008155600101610a6b565b9091508190610a62565b01519050868061082b565b6000805160206121fb833981519152600090815260008051602061223b8339815191529350601f198516905b818110610b0f5750908460019594939210610af6575b505050811b016000805160206121fb8339815191525561084e565b015160001960f88460031b161c19169055868080610adb565b92936020600181928786015181550195019301610ac5565b9091506000805160206121fb833981519152600052601f830160051c60008051602061223b8339815191520160208410610b93575b908392915b601f820160051c60008051602061223b833981519152018110610b845750610814565b60008155849350600101610b61565b5060008051602061223b833981519152610b5c565b015190508680610792565b60008051602061221b833981519152600090815260008051602061225b8339815191529350601f198516905b818110610c295750908460019594939210610c10575b505050811b0160008051602061221b833981519152556107b5565b015160001960f88460031b161c19169055868080610bf5565b92936020600181928786015181550195019301610bdf565b90915060008051602061221b833981519152600052601f830160051c60008051602061225b8339815191520160208410610cad575b908392915b601f820160051c60008051602061225b833981519152018110610c9e575061077b565b60008155849350600101610c7b565b5060008051602061225b833981519152610c76565b905086015187610725565b6000805160206121bb833981519152600090815260008051602061219b8339815191529250601f198416905b818110610d4157509083600194939210610d28575b5050811b016000805160206121bb83398151915255610747565b88015160001960f88460031b161c191690558780610d0e565b9192602060018192868d015181550194019201610cf9565b6000805160206121bb833981519152600052601f820160051c60008051602061219b8339815191520160208310610dba575b601f820160051c60008051602061219b833981519152018110610dae575061070e565b60008155600101610d8b565b5060008051602061219b833981519152610d8b565b68ffffffffffffffffff198416680100000000000000011760008051602061227b833981519152556106cd565b60405163f92ee8a960e01b8152600490fd5b9050158661069d565b303b159150610695565b604086901c60ff1615915061068b565b34610152576000366003190112610152576020610e4c611974565b6040516001600160a01b039091168152f35b34610152576000366003190112610152577fa16a46d94261c7517cc8ff89f61c0ce93598e3c849801011dee649a6a557d1005415806110c2575b15610152576040516000906000805160206121fb83398151915280549282610ebf856118ed565b91828252602093600196856001821691826000146110a2575050600114611056575b50610eee9250038361185c565b604051906000827fa16a46d94261c7517cc8ff89f61c0ce93598e3c849801011dee649a6a557d10391825492610f23846118ed565b9384845285600182169182600014611036575050600114610fea575b50610f4c9250038361185c565b60405190808201928284106001600160401b038511176103265790849281610fa388948760405260008452610f9560405197600f60f81b895260e0858a015260e08901906117d5565b9087820360408901526117d5565b91466060870152306080870152600060a087015285830360c0870152519182815201949160005b828110610fd75785870386f35b8351875295810195928101928401610fca565b915050600052828260008051602061229b833981519152876000915b85831061101d575050610f4c935082010187610f3f565b8091929450548385890101520191018390878693611006565b60ff191685820152610f4c95151560051b8501019250899150610f3f9050565b915050600052828260008051602061223b833981519152866000915b858310611089575050610eee935082010186610ee1565b8091929450548385890101520191018390868693611072565b60ff191685820152610eee95151560051b8501019250889150610ee19050565b507fa16a46d94261c7517cc8ff89f61c0ce93598e3c849801011dee649a6a557d1015415610e98565b34610152576020366003190112610152576001600160a01b0361110c611815565b166000527f5ab42ced628888259c08ac98db1eb0cf702fc1501344311d8b100cd1bfe4bb006020526020604060002054604051908152f35b346101525760003660031901126101525761115d611bf4565b7f9016d09d72d40fdae2fd8ceac6b6234c7706214fd39c1cd1e609a0528c19930080546001600160a01b031981169091556000906001600160a01b03167f8be0079c531659141344cd1fd0a4f28419497f9722a3daafe3b4186f6b6457e08280a3005b34610152576020366003190112610152576001600160a01b036111e1611815565b166000526000805160206121db8339815191526020526020604060002054604051908152f35b34610152576000366003190112610152577f00000000000000000000000000000000000000000000000000000000000000006001600160a01b031630036112725760206040517f360894a13ba1a3210667c828492db98dca3e2076cc3735a920a3ca505d382bbc8152f35b60405163703e46dd60e11b8152600490fd5b604036600319011261015257611298611815565b6024356001600160401b0381116101525736602382011215610152576112c8903690602481600401359101611898565b906001600160a01b037f00000000000000000000000000000000000000000000000000000000000000008116308114908115611484575b506112725761130c611bf4565b6040516352d1902d60e01b8152908216916020918281600481875afa60009181611455575b5061134f57604051634c9c8ce360e01b815260048101859052602490fd5b9284937f360894a13ba1a3210667c828492db98dca3e2076cc3735a920a3ca505d382bbc9081810361143d5750823b156114245780546001600160a01b03191682179055604051907fbc7cd75a20ee27fd9adebab32041f755214dbc6bffa90cc0225b39da2e5c2d3b600080a283511561140a5750600080848461015096519101845af4903d15611401573d6113e48161187d565b906113f2604051928361185c565b8152600081943d92013e612137565b60609250612137565b925050503461141557005b63b398979f60e01b8152600490fd5b604051634c9c8ce360e01b815260048101839052602490fd5b60249060405190632a87526960e21b82526004820152fd5b9091508381813d831161147d575b61146d818361185c565b8101031261015257519086611331565b503d611463565b9050817f360894a13ba1a3210667c828492db98dca3e2076cc3735a920a3ca505d382bbc54161415846112ff565b34610152576040366003190112610152576114cb611815565b600054602435916001600160a01b039182163303610152571690811561157f577f52c63247e1f47db19d5ce0460030c497f067ca4cebf71ba98eeadabe20bace02805490828201809211611569576000927fddf252ad1be2c89b69c2b068fc378daa952ba7f163c4a11628f55a4df523b3ef92602092558484526000805160206121db833981519152825260408420818154019055604051908152a3005b634e487b7160e01b600052601160045260246000fd5b60405163ec442f0560e01b815260006004820152602490fd5b346101525760003660031901126101525760206115b3611d41565b604051908152f35b3461015257600036600319011261015257602060405160128152f35b34610152576060366003190112610152576115f0611815565b6115f861182b565b604435906116068184611a7f565b156101525761161483611927565b33600052602052604060002054926000198410611636575b6103fd9350611c85565b8284106116a5576001600160a01b0381161561168c57331561167357826103fd9461166083611927565b336000526020520360406000205561162c565b604051634a1406b160e11b815260006004820152602490fd5b60405163e602df0560e01b815260006004820152602490fd5b604051637dc7a0d960e11b81523360048201526024810185905260448101849052606490fd5b346101525760003660031901126101525760207f52c63247e1f47db19d5ce0460030c497f067ca4cebf71ba98eeadabe20bace0254604051908152f35b34610152576040366003190112610152576103fd611724611815565b6024359033611c27565b34610152576000366003190112610152576000805160206121bb833981519152805482600061175c836118ed565b92838352602094600191866001821691826000146105d557505060011461178b5750506105779250038361185c565b85925060005260008051602061219b833981519152906000915b8583106117bd57505061057793508201018580610569565b805483890185015287945086939092019181016117a5565b919082519283825260005b848110611801575050826000602080949584010152601f8019910116010190565b6020818301810151848301820152016117e0565b600435906001600160a01b038216820361015257565b602435906001600160a01b038216820361015257565b604081019081106001600160401b0382111761032657604052565b90601f801991011681019081106001600160401b0382111761032657604052565b6001600160401b03811161032657601f01601f191660200190565b9291926118a48261187d565b916118b2604051938461185c565b829481845281830111610152578281602093846000960137010152565b9080601f83011215610152578160206118ea93359101611898565b90565b90600182811c9216801561191d575b602083101461190757565b634e487b7160e01b600052602260045260246000fd5b91607f16916118fc565b6001600160a01b031660009081527f52c63247e1f47db19d5ce0460030c497f067ca4cebf71ba98eeadabe20bace016020526040902090565b51906001600160a01b038216820361015257565b600054604051631127a41d60e31b815290602090829060049082906001600160a01b03165afa9081156119e0576000916119ac575090565b90506020813d6020116119d8575b816119c76020938361185c565b81010312610152576118ea90611960565b3d91506119ba565b6040513d6000823e3d90fd5b6001600160a01b03908116908115611a59577f9016d09d72d40fdae2fd8ceac6b6234c7706214fd39c1cd1e609a0528c19930080546001600160a01b031981168417909155167f8be0079c531659141344cd1fd0a4f28419497f9722a3daafe3b4186f6b6457e0600080a3565b604051631e4fbdf760e01b815260006004820152602490fd5b5190811515820361015257565b600154604080516324b9c44160e21b81526001600160a01b03938416600482018190529392610100929083908390602490829088165afa918215611be9576000938493611afa575b505050611ad75750505050600190565b602001518116918214928315611aee575b50505090565b16149050388080611ae8565b90809350819492943d8311611be2575b611b14818361185c565b810103908112611bde5760e013611bc75782519260e084018481106001600160401b03821117611bca578152611b4983611960565b8452611b5760208401611960565b6020850152611b67818401611960565b90840152611b7760608301611960565b6060840152611b8860808301611960565b6080840152611b9960a08301611a72565b60a084015260c0820151906003821015611bc7575060c0830152611bbf9060e001611a72565b388080611ac7565b80fd5b634e487b7160e01b83526041600452602483fd5b5080fd5b503d611b0a565b50513d6000823e3d90fd5b611bfc611974565b336001600160a01b0390911603611c0f57565b60405163118cdaa760e01b8152336004820152602490fd5b916001600160a01b0380841692831561168c5716928315611673577f8c5be1e5ebec7d5bd14f71427d1e84f3dd0314c0f7b2291e5b200ac8c7c3b92591611c6f602092611927565b85600052825280604060002055604051908152a3565b916001600160a01b038084169283156104fd571692831561157f576000908382526000805160206121db83398151915280602052604083205491848310611d0e575082847fddf252ad1be2c89b69c2b068fc378daa952ba7f163c4a11628f55a4df523b3ef959360409388602097528652038282205586815220818154019055604051908152a3565b60405163391434e360e21b81526001600160a01b0391909116600482015260248101929092525060448101839052606490fd5b611d49611efa565b611d51612022565b6040519060208201927f8b73c3c69bb8fe3d512ecc4cf759cc79239f7b179b0ffacaa9a75d522b39400f8452604083015260608201524660808201523060a082015260a0815260c081018181106001600160401b038211176103265760405251902090565b60ff60008051602061227b8339815191525460401c1615611dd357565b604051631afcd79f60e31b8152600490fd5b91907f7fffffffffffffffffffffffffffffff5d576e7357a4501ddfe92f46681b20a08411611e6957926020929160ff608095604051948552168484015260408301526060820152600092839182805260015afa15611e5d5780516001600160a01b03811615611e5457918190565b50809160019190565b604051903d90823e3d90fd5b50505060009160039190565b6004811015611ee45780611e87575050565b60018103611ea15760405163f645eedf60e01b8152600490fd5b60028103611ec25760405163fce698f760e01b815260048101839052602490fd5b600314611ecc5750565b602490604051906335e2f38360e21b82526004820152fd5b634e487b7160e01b600052602160045260246000fd5b6040516000906000805160206121fb8339815191529181835491611f1d836118ed565b928383526020906020840196600191600181169081600014611ffe5750600114611faf575b505050611f519250038261185c565b51908115611f5d572090565b50507fa16a46d94261c7517cc8ff89f61c0ce93598e3c849801011dee649a6a557d100548015611f8a5790565b507fc5d2460186f7233c927e7db2dcc703c0e500b653ca82273b7bfad8045d85a47090565b600090815260008051602061223b8339815191529590935091905b828410611fe65750611f51945050508101602001388080611f42565b85548785018301529485019486945092810192611fca565b9250505060209250611f5194915060ff19168652151560051b820101388080611f42565b6040516000907fa16a46d94261c7517cc8ff89f61c0ce93598e3c849801011dee649a6a557d1039181835491612057836118ed565b92838352602090602084019660019160018116908160001461211357506001146120c4575b50505061208b9250038261185c565b51908115612097572090565b50507fa16a46d94261c7517cc8ff89f61c0ce93598e3c849801011dee649a6a557d101548015611f8a5790565b600090815260008051602061229b8339815191529590935091905b8284106120fb575061208b94505050810160200138808061207c565b855487850183015294850194869450928101926120df565b925050506020925061208b94915060ff19168652151560051b82010138808061207c565b9061215e575080511561214c57805190602001fd5b60405163d6bda27560e01b8152600490fd5b81511580612191575b61216f575090565b604051639996b31560e01b81526001600160a01b039091166004820152602490fd5b50803b1561216756fe2ae08a8e29253f69ac5d979a101956ab8f8d9d7ded63fa7a83b16fc47648eab052c63247e1f47db19d5ce0460030c497f067ca4cebf71ba98eeadabe20bace0352c63247e1f47db19d5ce0460030c497f067ca4cebf71ba98eeadabe20bace00a16a46d94261c7517cc8ff89f61c0ce93598e3c849801011dee649a6a557d10252c63247e1f47db19d5ce0460030c497f067ca4cebf71ba98eeadabe20bace0442ad5d3e1f2e6e70edcf6d991b8a3023d3fca8047a131592f9edb9fd9b89d57d46a2803e59a4de4e7a4c574b1243f25977ac4c77d5a1a4a609b5394cebb4a2aaf0c57e16840df040f15088dc2f81fe391c3923bec73e23a9662efc9c229c6a005f9ce34815f8e11431c7bb75a8e6886a91478f7ffc1dbb0a98dc240fddd76b75a2646970667358221220ffb82a547194cbead0b337ac040323acaf8db76a84173e5ba25605772b2807c064736f6c63430008180033",
  "linkReferences": {},
  "deployedLinkReferences": {}
}