{
  "_format": "hh-sol-artifact-1",
  "contractName": "WrappedTokenBeacon",
  "sourceName": "contracts/WrappedTokenBeacon.sol",
  "abi": [
    {
      "inputs": [
        {
          "internalType": "address",
          "name": "implementation",
          "type": "address"
        },
        {
          "internalType": "address",
          "name": "_bridgeAddress",
          "type": "address"
        }
      ],
      "stateMutability": "nonpayable",
      "type": "constructor"
    },
    {
      "inputs": [
        {
          "internalType": "address",
          "name": "implementation",
          "type": "address"
        }
      ],
      "name": "BeaconInvalidImplementation",
      "type": "error"
    },
    {
      "inputs": [
        {
          "internalType": "address",
          "name": "owner",
          "type": "address"
        }
      ],
      "name": "OwnableInvalidOwner",
      "type": "error"
    },
    {
      "inputs": [
        {
          "internalType": "address",
          "name": "account",
          "type": "address"
        }
      ],
      "name": "OwnableUnauthorizedAccount",
      "type": "error"
    },
    {
      "anonymous": false,
      "inputs": [
        {
          "indexed": true,
          "internalType": "address",
          "name": "previousOwner",
          "type": "address"
        },
        {
          "indexed": true,
          "internalType": "address",
          "name": "newOwner",
          "type": "address"
        }
      ],
      "name": "OwnershipTransferred",
      "type": "event"
    },
    {
      "anonymous": false,
      "inputs": [
        {
          "indexed": true,
          "internalType": "address",
          "name": "implementation",
          "type": "address"
        }
      ],
      "name": "Upgraded",
      "type": "event"
    },
    {
      "inputs": [],
      "name": "bridgeAddress",
      "outputs": [
        {
          "internalType": "address",
          "name": "",
          "type": "address"
        }
      ],
      "stateMutability": "view",
      "type": "function"
    },
    {
      "inputs": [],
      "name": "implementation",
      "outputs": [
        {
          "internalType": "address",
          "name": "",
          "type": "address"
        }
      ],
      "stateMutability": "view",
      "type": "function"
    },
    {
      "inputs": [],
      "name": "owner",
      "outputs": [
        {
          "internalType": "address",
          "name": "",
          "type": "address"
        }
      ],
      "stateMutability": "view",
      "type": "function"
    },
    {
      "inputs": [],
      "name": "renounceOwnership",
      "outputs": [],
      "stateMutability": "nonpayable",
      "type": "function"
    },
    {
      "inputs": [
        {
          "internalType": "address",
          "name": "newOwner",
          "type": "address"
        }
      ],
      "name": "transferOwnership",
      "outputs": [],
      "stateMutability": "nonpayable",
      "type": "function"
    },
    {
      "inputs": [
        {
          "internalType": "address",
          "name": "newImplementation",
          "type": "address"
        }
      ],
      "name": "upgradeTo",
      "outputs": [],
      "stateMutability": "nonpayable",
      "type": "function"
    }
  ],
  "bytecode": "0x608060405234801561000f575f80fd5b5060405161057338038061057383398101604081905261002e916101e1565b81816001600160a01b031663893d20e86040518163ffffffff1660e01b8152600401602060405180830381865afa15801561006b573d5f803e3d5ffd5b505050506040513d601f19601f8201168201806040525081019061008f9190610212565b806001600160a01b0381166100be57604051631e4fbdf760e01b81525f60048201526024015b60405180910390fd5b6100c7816100f9565b506100d182610148565b5050600280546001600160a01b0319166001600160a01b039290921691909117905550610232565b5f80546001600160a01b038381166001600160a01b0319831681178455604051919092169283917f8be0079c531659141344cd1fd0a4f28419497f9722a3daafe3b4186f6b6457e09190a35050565b806001600160a01b03163b5f0361017d5760405163211eb15960e21b81526001600160a01b03821660048201526024016100b5565b600180546001600160a01b0319166001600160a01b0383169081179091556040517fbc7cd75a20ee27fd9adebab32041f755214dbc6bffa90cc0225b39da2e5c2d3b905f90a250565b80516001600160a01b03811681146101dc575f80fd5b919050565b5f80604083850312156101f2575f80fd5b6101fb836101c6565b9150610209602084016101c6565b90509250929050565b5f60208284031215610222575f80fd5b61022b826101c6565b9392505050565b6103348061023f5f395ff3fe608060405234801561000f575f80fd5b5060043610610060575f3560e01c80633659cfe6146100645780635c60da1b14610079578063715018a6146100a25780638da5cb5b146100aa578063a3c573eb146100b2578063f2fde38b146100c5575b5f80fd5b6100776100723660046102c1565b6100d8565b005b6001546001600160a01b03165b6040516001600160a01b03909116815260200160405180910390f35b6100776100ec565b6100866100ff565b600254610086906001600160a01b031681565b6100776100d33660046102c1565b61016f565b6100e06101ae565b6100e9816101e0565b50565b6100f46101ae565b6100fd5f61025e565b565b60025460408051631127a41d60e31b815290515f926001600160a01b03169163893d20e89160048083019260209291908290030181865afa158015610146573d5f803e3d5ffd5b505050506040513d601f19601f8201168201806040525081019061016a91906102e3565b905090565b6101776101ae565b6001600160a01b0381166101a557604051631e4fbdf760e01b81525f60048201526024015b60405180910390fd5b6100e98161025e565b336101b76100ff565b6001600160a01b0316146100fd5760405163118cdaa760e01b815233600482015260240161019c565b806001600160a01b03163b5f036102155760405163211eb15960e21b81526001600160a01b038216600482015260240161019c565b600180546001600160a01b0319166001600160a01b0383169081179091556040517fbc7cd75a20ee27fd9adebab32041f755214dbc6bffa90cc0225b39da2e5c2d3b905f90a250565b5f80546001600160a01b038381166001600160a01b0319831681178455604051919092169283917f8be0079c531659141344cd1fd0a4f28419497f9722a3daafe3b4186f6b6457e09190a35050565b6001600160a01b03811681146100e9575f80fd5b5f602082840312156102d1575f80fd5b81356102dc816102ad565b9392505050565b5f602082840312156102f3575f80fd5b81516102dc816102ad56fea2646970667358221220f7a4c1b88cda1ab1c08989c98e3840ead883a5052796c84c5b4ca3598f451f6464736f6c63430008180033",
  "linkReferences": {},
  "deployedLinkReferences": {}
}