{
  "_format": "hh-sol-artifact-1",
  "contractName": "WrappedTokenUpgrade",
  "sourceName": "contracts/WrappedTokenUpgrade.sol",
  "abi": [
    {
      "inputs": [
        {
          "internalType": "address",
          "name": "target",
          "type": "address"
        }
      ],
      "name": "AddressEmptyCode",
      "type": "error"
    },
    {
      "inputs": [],
      "name": "ECDSAInvalidSignature",
      "type": "error"
    },
    {
      "inputs": [
        {
          "internalType": "uint256",
          "name": "length",
          "type": "uint256"
        }
      ],
      "name": "ECDSAInvalidSignatureLength",
      "type": "error"
    },
    {
      "inputs": [
        {
          "internalType": "bytes32",
          "name": "s",
          "type": "bytes32"
        }
      ],
      "name": "ECDSAInvalidSignatureS",
      "type": "error"
    },
    {
      "inputs": [
        {
          "internalType": "address",
          "name": "implementation",
          "type": "address"
        }
      ],
      "name": "ERC1967InvalidImplementation",
      "type": "error"
    },
    {
      "inputs": [],
      "name": "ERC1967NonPayable",
      "type": "error"
    },
    {
      "inputs": [
        {
          "internalType": "address",
          "name": "spender",
          "type": "address"
        },
        {
          "internalType": "uint256",
          "name": "allowance",
          "type": "uint256"
        },
        {
          "internalType": "uint256",
          "name": "needed",
          "type": "uint256"
        }
      ],
      "name": "ERC20InsufficientAllowance",
      "type": "error"
    },
    {
      "inputs": [
        {
          "internalType": "address",
          "name": "sender",
          "type": "address"
        },
        {
          "internalType": "uint256",
          "name": "balance",
          "type": "uint256"
        },
        {
          "internalType": "uint256",
          "name": "needed",
          "type": "uint256"
        }
      ],
      "name": "ERC20InsufficientBalance",
      "type": "error"
    },
    {
      "inputs": [
        {
          "internalType": "address",
          "name": "approver",
          "type": "address"
        }
      ],
      "name": "ERC20InvalidApprover",
      "type": "error"
    },
    {
      "inputs": [
        {
          "internalType": "address",
          "name": "receiver",
          "type": "address"
        }
      ],
      "name": "ERC20InvalidReceiver",
      "type": "error"
    },
    {
      "inputs": [
        {
          "internalType": "address",
          "name": "sender",
          "type": "address"
        }
      ],
      "name": "ERC20InvalidSender",
      "type": "error"
    },
    {
      "inputs": [
        {
          "internalType": "address",
          "name": "spender",
          "type": "address"
        }
      ],
      "name": "ERC20InvalidSpender",
      "type": "error"
    },
    {
      "inputs": [
        {
          "internalType": "uint256",
          "name": "deadline",
          "type": "uint256"
        }
      ],
      "name": "ERC2612ExpiredSignature",
      "type": "error"
    },
    {
      "inputs": [
        {
          "internalType": "address",
          "name": "signer",
          "type": "address"
        },
        {
          "internalType": "address",
          "name": "owner",
          "type": "address"
        }
      ],
      "name": "ERC2612InvalidSigner",
      "type": "error"
    },
    {
      "inputs": [],
      "name": "FailedCall",
      "type": "error"
    },
    {
      "inputs": [
        {
          "internalType": "address",
          "name": "account",
          "type": "address"
        },
        {
          "internalType": "uint256",
          "name": "currentNonce",
          "type": "uint256"
        }
      ],
      "name": "InvalidAccountNonce",
      "type": "error"
    },
    {
      "inputs": [],
      "name": "InvalidInitialization",
      "type": "error"
    },
    {
      "inputs": [],
      "name": "NotInitializing",
      "type": "error"
    },
    {
      "inputs": [
        {
          "internalType": "address",
          "name": "owner",
          "type": "address"
        }
      ],
      "name": "OwnableInvalidOwner",
      "type": "error"
    },
    {
      "inputs": [
        {
          "internalType": "address",
          "name": "account",
          "type": "address"
        }
      ],
      "name": "OwnableUnauthorizedAccount",
      "type": "error"
    },
    {
      "inputs": [],
      "name": "UUPSUnauthorizedCallContext",
      "type": "error"
    },
    {
      "inputs": [
        {
          "internalType": "bytes32",
          "name": "slot",
          "type": "bytes32"
        }
      ],
      "name": "UUPSUnsupportedProxiableUUID",
      "type": "error"
    },
    {
      "anonymous": false,
      "inputs": [
        {
          "indexed": true,
          "internalType": "address",
          "name": "owner",
          "type": "address"
        },
        {
          "indexed": true,
          "internalType": "address",
          "name": "spender",
          "type": "address"
        },
        {
          "indexed": false,
          "internalType": "uint256",
          "name": "value",
          "type": "uint256"
        }
      ],
      "name": "Approval",
      "type": "event"
    },
    {
      "anonymous": false,
      "inputs": [
        {
          "indexed": true,
          "internalType": "address",
          "name": "oldBridge",
          "type": "address"
        },
        {
          "indexed": true,
          "internalType": "address",
          "name": "newBridge",
          "type": "address"
        }
      ],
      "name": "BridgeUpdated",
      "type": "event"
    },
    {
      "anonymous": false,
      "inputs": [],
      "name": "EIP712DomainChanged",
      "type": "event"
    },
    {
      "anonymous": false,
      "inputs": [
        {
          "indexed": false,
          "internalType": "uint64",
          "name": "version",
          "type": "uint64"
        }
      ],
      "name": "Initialized",
      "type": "event"
    },
    {
      "anonymous": false,
      "inputs": [
        {
          "indexed": true,
          "internalType": "address",
          "name": "previousOwner",
          "type": "address"
        },
        {
          "indexed": true,
          "internalType": "address",
          "name": "newOwner",
          "type": "address"
        }
      ],
      "name": "OwnershipTransferred",
      "type": "event"
    },
    {
      "anonymous": false,
      "inputs": [
        {
          "indexed": true,
          "internalType": "address",
          "name": "from",
          "type": "address"
        },
        {
          "indexed": true,
          "internalType": "address",
          "name": "to",
          "type": "address"
        },
        {
          "indexed": false,
          "internalType": "uint256",
          "name": "value",
          "type": "uint256"
        }
      ],
      "name": "Transfer",
      "type": "event"
    },
    {
      "anonymous": false,
      "inputs": [
        {
          "indexed": true,
          "internalType": "address",
          "name": "implementation",
          "type": "address"
        }
      ],
      "name": "Upgraded",
      "type": "event"
    },
    {
      "inputs": [],
      "name": "DOMAIN_SEPARATOR",
      "outputs": [
        {
          "internalType": "bytes32",
          "name": "",
          "type": "bytes32"
        }
      ],
      "stateMutability": "view",
      "type": "function"
    },
    {
      "inputs": [],
      "name": "UPGRADE_INTERFACE_VERSION",
      "outputs": [
        {
          "internalType": "string",
          "name": "",
          "type": "string"
        }
      ],
      "stateMutability": "view",
      "type": "function"
    },
    {
      "inputs": [
        {
          "internalType": "address",
          "name": "owner",
          "type": "address"
        },
        {
          "internalType": "address",
          "name": "spender",
          "type": "address"
        }
      ],
      "name": "allowance",
      "outputs": [
        {
          "internalType": "uint256",
          "name": "",
          "type": "uint256"
        }
      ],
      "stateMutability": "view",
      "type": "function"
    },
    {
      "inputs": [
        {
          "internalType": "address",
          "name": "spender",
          "type": "address"
        },
        {
          "internalType": "uint256",
          "name": "value",
          "type": "uint256"
        }
      ],
      "name": "approve",
      "outputs": [
        {
          "internalType": "bool",
          "name": "",
          "type": "bool"
        }
      ],
      "stateMutability": "nonpayable",
      "type": "function"
    },
    {
      "inputs": [
        {
          "internalType": "address",
          "name": "account",
          "type": "address"
        }
      ],
      "name": "balanceOf",
      "outputs": [
        {
          "internalType": "uint256",
          "name": "",
          "type": "uint256"
        }
      ],
      "stateMutability": "view",
      "type": "function"
    },
    {
      "inputs": [],
      "name": "bridge",
      "outputs": [
        {
          "internalType": "address",
          "name": "",
          "type": "address"
        }
      ],
      "stateMutability": "view",
      "type": "function"
    },
    {
      "inputs": [
        {
          "internalType": "address",
          "name": "from",
          "type": "address"
        },
        {
          "internalType": "uint256",
          "name": "amount",
          "type": "uint256"
        }
      ],
      "name": "burn",
      "outputs": [],
      "stateMutability": "nonpayable",
      "type": "function"
    },
    {
      "inputs": [],
      "name": "decimals",
      "outputs": [
        {
          "internalType": "uint8",
          "name": "",
          "type": "uint8"
        }
      ],
      "stateMutability": "view",
      "type": "function"
    },
    {
      "inputs": [],
      "name": "eip712Domain",
      "outputs": [
        {
          "internalType": "bytes1",
          "name": "fields",
          "type": "bytes1"
        },
        {
          "internalType": "string",
          "name": "name",
          "type": "string"
        },
        {
          "internalType": "string",
          "name": "version",
          "type": "string"
        },
        {
          "internalType": "uint256",
          "name": "chainId",
          "type": "uint256"
        },
        {
          "internalType": "address",
          "name": "verifyingContract",
          "type": "address"
        },
        {
          "internalType": "bytes32",
          "name": "salt",
          "type": "bytes32"
        },
        {
          "internalType": "uint256[]",
          "name": "extensions",
          "type": "uint256[]"
        }
      ],
      "stateMutability": "view",
      "type": "function"
    },
    {
      "inputs": [],
      "name": "getTestString",
      "outputs": [
        {
          "internalType": "string",
          "name": "",
          "type": "string"
        }
      ],
      "stateMutability": "pure",
      "type": "function"
    },
    {
      "inputs": [
        {
          "internalType": "string",
          "name": "name",
          "type": "string"
        },
        {
          "internalType": "string",
          "name": "symbol",
          "type": "string"
        },
        {
          "internalType": "address",
          "name": "_bridge",
          "type": "address"
        }
      ],
      "name": "initialize",
      "outputs": [],
      "stateMutability": "nonpayable",
      "type": "function"
    },
    {
      "inputs": [
        {
          "internalType": "address",
          "name": "to",
          "type": "address"
        },
        {
          "internalType": "uint256",
          "name": "amount",
          "type": "uint256"
        }
      ],
      "name": "mint",
      "outputs": [],
      "stateMutability": "nonpayable",
      "type": "function"
    },
    {
      "inputs": [],
      "name": "name",
      "outputs": [
        {
          "internalType": "string",
          "name": "",
          "type": "string"
        }
      ],
      "stateMutability": "view",
      "type": "function"
    },
    {
      "inputs": [
        {
          "internalType": "address",
          "name": "owner",
          "type": "address"
        }
      ],
      "name": "nonces",
      "outputs": [
        {
          "internalType": "uint256",
          "name": "",
          "type": "uint256"
        }
      ],
      "stateMutability": "view",
      "type": "function"
    },
    {
      "inputs": [],
      "name": "owner",
      "outputs": [
        {
          "internalType": "address",
          "name": "",
          "type": "address"
        }
      ],
      "stateMutability": "view",
      "type": "function"
    },
    {
      "inputs": [
        {
          "internalType": "address",
          "name": "owner",
          "type": "address"
        },
        {
          "internalType": "address",
          "name": "spender",
          "type": "address"
        },
        {
          "internalType": "uint256",
          "name": "value",
          "type": "uint256"
        },
        {
          "internalType": "uint256",
          "name": "deadline",
          "type": "uint256"
        },
        {
          "internalType": "uint8",
          "name": "v",
          "type": "uint8"
        },
        {
          "internalType": "bytes32",
          "name": "r",
          "type": "bytes32"
        },
        {
          "internalType": "bytes32",
          "name": "s",
          "type": "bytes32"
        }
      ],
      "name": "permit",
      "outputs": [],
      "stateMutability": "nonpayable",
      "type": "function"
    },
    {
      "inputs": [],
      "name": "proxiableUUID",
      "outputs": [
        {
          "internalType": "bytes32",
          "name": "",
          "type": "bytes32"
        }
      ],
      "stateMutability": "view",
      "type": "function"
    },
    {
      "inputs": [],
      "name": "renounceOwnership",
      "outputs": [],
      "stateMutability": "nonpayable",
      "type": "function"
    },
    {
      "inputs": [],
      "name": "symbol",
      "outputs": [
        {
          "internalType": "string",
          "name": "",
          "type": "string"
        }
      ],
      "stateMutability": "view",
      "type": "function"
    },
    {
      "inputs": [],
      "name": "totalSupply",
      "outputs": [
        {
          "internalType": "uint256",
          "name": "",
          "type": "uint256"
        }
      ],
      "stateMutability": "view",
      "type": "function"
    },
    {
      "inputs": [
        {
          "internalType": "address",
          "name": "to",
          "type": "address"
        },
        {
          "internalType": "uint256",
          "name": "amount",
          "type": "uint256"
        }
      ],
      "name": "transfer",
      "outputs": [
        {
          "internalType": "bool",
          "name": "",
          "type": "bool"
        }
      ],
      "stateMutability": "nonpayable",
      "type": "function"
    },
    {
      "inputs": [
        {
          "internalType": "address",
          "name": "from",
          "type": "address"
        },
        {
          "internalType": "address",
          "name": "to",
          "type": "address"
        },
        {
          "internalType": "uint256",
          "name": "amount",
          "type": "uint256"
        }
      ],
      "name": "transferFrom",
      "outputs": [
        {
          "internalType": "bool",
          "name": "",
          "type": "bool"
        }
      ],
      "stateMutability": "nonpayable",
      "type": "function"
    },
    {
      "inputs": [
        {
          "internalType": "address",
          "name": "newOwner",
          "type": "address"
        }
      ],
      "name": "transferOwnership",
      "outputs": [],
      "stateMutability": "nonpayable",
      "type": "function"
    },
    {
      "inputs": [
        {
          "internalType": "address",
          "name": "newImplementation",
          "type": "address"
        },
        {
          "internalType": "bytes",
          "name": "data",
          "type": "bytes"
        }
      ],
      "name": "upgradeToAndCall",
      "outputs": [],
      "stateMutability": "payable",
      "type": "function"
    }
  ],
  "bytecode": "0x60a060405230608052348015610013575f80fd5b50608051611dd361003a5f395f8181610c0001528181610c290152610d680152611dd35ff3fe608060405260043610610147575f3560e01c8063715018a6116100b3578063a9059cbb1161006d578063a9059cbb146103b3578063ad3cb1cc146103d2578063d505accf14610402578063dd62ed3e14610421578063e78cea9214610440578063f2fde38b1461045e575f80fd5b8063715018a6146102fa5780637ecebe001461030e57806384b0196e1461032d5780638da5cb5b1461035457806395d89b41146103805780639dc29fac14610394575f80fd5b8063313ce56711610104578063313ce567146102665780633644e5151461028157806340c10f19146102955780634f1ef286146102b457806352d1902d146102c757806370a08231146102db575f80fd5b806306fdde031461014b578063077f224a14610175578063095ea7b31461019657806318160ddd146101c557806323b872dd146102025780632f91be4814610221575b5f80fd5b348015610156575f80fd5b5061015f61047d565b60405161016c91906117f3565b60405180910390f35b348015610180575f80fd5b5061019461018f3660046118be565b610522565b005b3480156101a1575f80fd5b506101b56101b0366004611931565b610667565b604051901515815260200161016c565b3480156101d0575f80fd5b507f52c63247e1f47db19d5ce0460030c497f067ca4cebf71ba98eeadabe20bace02545b60405190815260200161016c565b34801561020d575f80fd5b506101b561021c36600461195b565b610680565b34801561022c575f80fd5b5060408051808201909152601a81527f55706772616465642057726170706564546f6b656e2076313021000000000000602082015261015f565b348015610271575f80fd5b506040516012815260200161016c565b34801561028c575f80fd5b506101f46106c8565b3480156102a0575f80fd5b506101946102af366004611931565b6106d6565b6101946102c2366004611999565b61070d565b3480156102d2575f80fd5b506101f4610728565b3480156102e6575f80fd5b506101f46102f53660046119f9565b610743565b348015610305575f80fd5b50610194610773565b348015610319575f80fd5b506101f46103283660046119f9565b610786565b348015610338575f80fd5b50610341610790565b60405161016c9796959493929190611a14565b34801561035f575f80fd5b50610368610839565b6040516001600160a01b03909116815260200161016c565b34801561038b575f80fd5b5061015f6108ad565b34801561039f575f80fd5b506101946103ae366004611931565b6108eb565b3480156103be575f80fd5b506101b56103cd366004611931565b61091e565b3480156103dd575f80fd5b5061015f604051806040016040528060058152602001640352e302e360dc1b81525081565b34801561040d575f80fd5b5061019461041c366004611aab565b610952565b34801561042c575f80fd5b506101f461043b366004611b1c565b610aa7565b34801561044b575f80fd5b505f54610368906001600160a01b031681565b348015610469575f80fd5b506101946104783660046119f9565b610af0565b60605f5f80516020611d3e8339815191525b90508060030180546104a090611b53565b80601f01602080910402602001604051908101604052809291908181526020018280546104cc90611b53565b80156105175780601f106104ee57610100808354040283529160200191610517565b820191905f5260205f20905b8154815290600101906020018083116104fa57829003601f168201915b505050505091505090565b7ff0c57e16840df040f15088dc2f81fe391c3923bec73e23a9662efc9c229c6a008054600160401b810460ff16159067ffffffffffffffff165f811580156105675750825b90505f8267ffffffffffffffff1660011480156105835750303b155b905081158015610591575080155b156105af5760405163f92ee8a960e01b815260040160405180910390fd5b845467ffffffffffffffff1916600117855583156105d957845460ff60401b1916600160401b1785555b6105e38888610b2d565b6105ec88610b3f565b6105f586610b6a565b6105fd610b7b565b5f80546001600160a01b0319166001600160a01b038816179055831561065d57845460ff60401b19168555604051600181527fc7f505b2f371ae2175ee4913f4499e1f2633a7b5936321eed1cdaeb6115181d29060200160405180910390a15b5050505050505050565b5f33610674818585610b83565b60019150505b92915050565b5f80546001600160a01b031633146106b35760405162461bcd60e51b81526004016106aa90611b8b565b60405180910390fd5b6106be848484610b95565b90505b9392505050565b5f6106d1610bb8565b905090565b5f546001600160a01b031633146106ff5760405162461bcd60e51b81526004016106aa90611b8b565b6107098282610bc1565b5050565b610715610bf5565b61071e82610c99565b6107098282610ca1565b5f610731610d5d565b505f80516020611d7e83398151915290565b5f805f80516020611d3e8339815191525b6001600160a01b039093165f9081526020939093525050604090205490565b61077b610da6565b6107845f610dd8565b565b5f61067a82610e48565b5f60608082808083815f80516020611d5e83398151915280549091501580156107bb57506001810154155b6107ff5760405162461bcd60e51b81526020600482015260156024820152741152540dcc4c8e88155b9a5b9a5d1a585b1a5e9959605a1b60448201526064016106aa565b610807610e70565b61080f610eae565b604080515f80825260208201909252600f60f81b9c939b5091995046985030975095509350915050565b5f805f9054906101000a90046001600160a01b03166001600160a01b031663893d20e86040518163ffffffff1660e01b8152600401602060405180830381865afa158015610889573d5f803e3d5ffd5b505050506040513d601f19601f820116820180604052508101906106d19190611bb9565b7f52c63247e1f47db19d5ce0460030c497f067ca4cebf71ba98eeadabe20bace0480546060915f80516020611d3e833981519152916104a090611b53565b5f546001600160a01b031633146109145760405162461bcd60e51b81526004016106aa90611b8b565b6107098282610ec4565b5f80546001600160a01b031633146109485760405162461bcd60e51b81526004016106aa90611b8b565b6106c18383610ef8565b834211156109765760405163313c898160e11b8152600481018590526024016106aa565b5f7f6e71edae12b1b97f4d1f60370fef10105fa2faae0126114a169c64845d6126c98888886109e08c6001600160a01b03165f9081527f5ab42ced628888259c08ac98db1eb0cf702fc1501344311d8b100cd1bfe4bb006020526040902080546001810190915590565b6040805160208101969096526001600160a01b0394851690860152929091166060840152608083015260a082015260c0810186905260e0016040516020818303038152906040528051906020012090505f610a3a82610f05565b90505f610a4982878787610f31565b9050896001600160a01b0316816001600160a01b031614610a90576040516325c0072360e11b81526001600160a01b0380831660048301528b1660248201526044016106aa565b610a9b8a8a8a610b83565b50505050505050505050565b6001600160a01b039182165f9081527f52c63247e1f47db19d5ce0460030c497f067ca4cebf71ba98eeadabe20bace016020908152604080832093909416825291909152205490565b610af8610da6565b6001600160a01b038116610b2157604051631e4fbdf760e01b81525f60048201526024016106aa565b610b2a81610dd8565b50565b610b35610f5d565b6107098282610fa6565b610b47610f5d565b610b2a81604051806040016040528060018152602001603160f81b815250610ffc565b610b72610f5d565b610b2a8161105b565b610784610f5d565b610b908383836001611063565b505050565b5f33610ba2858285611147565b610bad8585856111a5565b506001949350505050565b5f6106d1611202565b6001600160a01b038216610bea5760405163ec442f0560e01b81525f60048201526024016106aa565b6107095f8383611275565b306001600160a01b037f0000000000000000000000000000000000000000000000000000000000000000161480610c7b57507f00000000000000000000000000000000000000000000000000000000000000006001600160a01b0316610c6f5f80516020611d7e833981519152546001600160a01b031690565b6001600160a01b031614155b156107845760405163703e46dd60e11b815260040160405180910390fd5b610b2a610da6565b816001600160a01b03166352d1902d6040518163ffffffff1660e01b8152600401602060405180830381865afa925050508015610cfb575060408051601f3d908101601f19168201909252610cf891810190611bd4565b60015b610d2357604051634c9c8ce360e01b81526001600160a01b03831660048201526024016106aa565b5f80516020611d7e8339815191528114610d5357604051632a87526960e21b8152600481018290526024016106aa565b610b9083836113ae565b306001600160a01b037f000000000000000000000000000000000000000000000000000000000000000016146107845760405163703e46dd60e11b815260040160405180910390fd5b33610daf610839565b6001600160a01b0316146107845760405163118cdaa760e01b81523360048201526024016106aa565b7f9016d09d72d40fdae2fd8ceac6b6234c7706214fd39c1cd1e609a0528c19930080546001600160a01b031981166001600160a01b03848116918217845560405192169182907f8be0079c531659141344cd1fd0a4f28419497f9722a3daafe3b4186f6b6457e0905f90a3505050565b5f807f5ab42ced628888259c08ac98db1eb0cf702fc1501344311d8b100cd1bfe4bb00610754565b7fa16a46d94261c7517cc8ff89f61c0ce93598e3c849801011dee649a6a557d10280546060915f80516020611d5e833981519152916104a090611b53565b60605f5f80516020611d5e83398151915261048f565b6001600160a01b038216610eed57604051634b637e8f60e11b81525f60048201526024016106aa565b610709825f83611275565b5f336106748185856111a5565b5f61067a610f11610bb8565b8360405161190160f01b8152600281019290925260228201526042902090565b5f805f80610f4188888888611403565b925092509250610f5182826114cb565b50909695505050505050565b7ff0c57e16840df040f15088dc2f81fe391c3923bec73e23a9662efc9c229c6a0054600160401b900460ff1661078457604051631afcd79f60e31b815260040160405180910390fd5b610fae610f5d565b5f80516020611d3e8339815191527f52c63247e1f47db19d5ce0460030c497f067ca4cebf71ba98eeadabe20bace03610fe78482611c2f565b5060048101610ff68382611c2f565b50505050565b611004610f5d565b5f80516020611d5e8339815191527fa16a46d94261c7517cc8ff89f61c0ce93598e3c849801011dee649a6a557d10261103d8482611c2f565b506003810161104c8382611c2f565b505f8082556001909101555050565b610af8610f5d565b5f80516020611d3e8339815191526001600160a01b03851661109a5760405163e602df0560e01b81525f60048201526024016106aa565b6001600160a01b0384166110c357604051634a1406b160e11b81525f60048201526024016106aa565b6001600160a01b038086165f9081526001830160209081526040808320938816835292905220839055811561114057836001600160a01b0316856001600160a01b03167f8c5be1e5ebec7d5bd14f71427d1e84f3dd0314c0f7b2291e5b200ac8c7c3b9258560405161113791815260200190565b60405180910390a35b5050505050565b5f6111528484610aa7565b90505f19811015610ff6578181101561119757604051637dc7a0d960e11b81526001600160a01b038416600482015260248101829052604481018390526064016106aa565b610ff684848484035f611063565b6001600160a01b0383166111ce57604051634b637e8f60e11b81525f60048201526024016106aa565b6001600160a01b0382166111f75760405163ec442f0560e01b81525f60048201526024016106aa565b610b90838383611275565b5f7f8b73c3c69bb8fe3d512ecc4cf759cc79239f7b179b0ffacaa9a75d522b39400f61122c611583565b6112346115eb565b60408051602081019490945283019190915260608201524660808201523060a082015260c00160405160208183030381529060405280519060200120905090565b5f80516020611d3e8339815191526001600160a01b0384166112af5781816002015f8282546112a49190611cef565b9091555061131f9050565b6001600160a01b0384165f90815260208290526040902054828110156113015760405163391434e360e21b81526001600160a01b038616600482015260248101829052604481018490526064016106aa565b6001600160a01b0385165f9081526020839052604090209083900390555b6001600160a01b03831661133d57600281018054839003905561135b565b6001600160a01b0383165f9081526020829052604090208054830190555b826001600160a01b0316846001600160a01b03167fddf252ad1be2c89b69c2b068fc378daa952ba7f163c4a11628f55a4df523b3ef846040516113a091815260200190565b60405180910390a350505050565b6113b78261162d565b6040516001600160a01b038316907fbc7cd75a20ee27fd9adebab32041f755214dbc6bffa90cc0225b39da2e5c2d3b905f90a28051156113fb57610b908282611690565b610709611702565b5f80807f7fffffffffffffffffffffffffffffff5d576e7357a4501ddfe92f46681b20a084111561143c57505f915060039050826114c1565b604080515f808252602082018084528a905260ff891692820192909252606081018790526080810186905260019060a0016020604051602081039080840390855afa15801561148d573d5f803e3d5ffd5b5050604051601f1901519150506001600160a01b0381166114b857505f9250600191508290506114c1565b92505f91508190505b9450945094915050565b5f8260038111156114de576114de611d0e565b036114e7575050565b60018260038111156114fb576114fb611d0e565b036115195760405163f645eedf60e01b815260040160405180910390fd5b600282600381111561152d5761152d611d0e565b0361154e5760405163fce698f760e01b8152600481018290526024016106aa565b600382600381111561156257611562611d0e565b03610709576040516335e2f38360e21b8152600481018290526024016106aa565b5f5f80516020611d5e8339815191528161159b610e70565b8051909150156115b357805160209091012092915050565b815480156115c2579392505050565b7fc5d2460186f7233c927e7db2dcc703c0e500b653ca82273b7bfad8045d85a470935050505090565b5f5f80516020611d5e83398151915281611603610eae565b80519091501561161b57805160209091012092915050565b600182015480156115c2579392505050565b806001600160a01b03163b5f0361166257604051634c9c8ce360e01b81526001600160a01b03821660048201526024016106aa565b5f80516020611d7e83398151915280546001600160a01b0319166001600160a01b0392909216919091179055565b60605f80846001600160a01b0316846040516116ac9190611d22565b5f60405180830381855af49150503d805f81146116e4576040519150601f19603f3d011682016040523d82523d5f602084013e6116e9565b606091505b50915091506116f9858383611721565b95945050505050565b34156107845760405163b398979f60e01b815260040160405180910390fd5b606082611736576117318261177d565b6106c1565b815115801561174d57506001600160a01b0384163b155b1561177657604051639996b31560e01b81526001600160a01b03851660048201526024016106aa565b50806106c1565b80511561178d5780518082602001fd5b60405163d6bda27560e01b815260040160405180910390fd5b5f5b838110156117c05781810151838201526020016117a8565b50505f910152565b5f81518084526117df8160208601602086016117a6565b601f01601f19169290920160200192915050565b602081525f6106c160208301846117c8565b634e487b7160e01b5f52604160045260245ffd5b5f67ffffffffffffffff8084111561183357611833611805565b604051601f8501601f19908116603f0116810190828211818310171561185b5761185b611805565b81604052809350858152868686011115611873575f80fd5b858560208301375f602087830101525050509392505050565b5f82601f83011261189b575f80fd5b6106c183833560208501611819565b6001600160a01b0381168114610b2a575f80fd5b5f805f606084860312156118d0575f80fd5b833567ffffffffffffffff808211156118e7575f80fd5b6118f38783880161188c565b94506020860135915080821115611908575f80fd5b506119158682870161188c565b9250506040840135611926816118aa565b809150509250925092565b5f8060408385031215611942575f80fd5b823561194d816118aa565b946020939093013593505050565b5f805f6060848603121561196d575f80fd5b8335611978816118aa565b92506020840135611988816118aa565b929592945050506040919091013590565b5f80604083850312156119aa575f80fd5b82356119b5816118aa565b9150602083013567ffffffffffffffff8111156119d0575f80fd5b8301601f810185136119e0575f80fd5b6119ef85823560208401611819565b9150509250929050565b5f60208284031215611a09575f80fd5b81356106c1816118aa565b60ff60f81b881681525f602060e06020840152611a3460e084018a6117c8565b8381036040850152611a46818a6117c8565b606085018990526001600160a01b038816608086015260a0850187905284810360c0860152855180825260208088019350909101905f5b81811015611a9957835183529284019291840191600101611a7d565b50909c9b505050505050505050505050565b5f805f805f805f60e0888a031215611ac1575f80fd5b8735611acc816118aa565b96506020880135611adc816118aa565b95506040880135945060608801359350608088013560ff81168114611aff575f80fd5b9699959850939692959460a0840135945060c09093013592915050565b5f8060408385031215611b2d575f80fd5b8235611b38816118aa565b91506020830135611b48816118aa565b809150509250929050565b600181811c90821680611b6757607f821691505b602082108103611b8557634e487b7160e01b5f52602260045260245ffd5b50919050565b60208082526014908201527313db9b1e48189c9a5919d94818d85b8818d85b1b60621b604082015260600190565b5f60208284031215611bc9575f80fd5b81516106c1816118aa565b5f60208284031215611be4575f80fd5b5051919050565b601f821115610b9057805f5260205f20601f840160051c81016020851015611c105750805b601f840160051c820191505b81811015611140575f8155600101611c1c565b815167ffffffffffffffff811115611c4957611c49611805565b611c5d81611c578454611b53565b84611beb565b602080601f831160018114611c90575f8415611c795750858301515b5f19600386901b1c1916600185901b178555611ce7565b5f85815260208120601f198616915b82811015611cbe57888601518255948401946001909101908401611c9f565b5085821015611cdb57878501515f19600388901b60f8161c191681555b505060018460011b0185555b505050505050565b8082018082111561067a57634e487b7160e01b5f52601160045260245ffd5b634e487b7160e01b5f52602160045260245ffd5b5f8251611d338184602087016117a6565b919091019291505056fe52c63247e1f47db19d5ce0460030c497f067ca4cebf71ba98eeadabe20bace00a16a46d94261c7517cc8ff89f61c0ce93598e3c849801011dee649a6a557d100360894a13ba1a3210667c828492db98dca3e2076cc3735a920a3ca505d382bbca264697066735822122048367c4322ffc470c05028640870fb66b7cf4f9eba332acff01add75e30201ff64736f6c63430008180033",
  "linkReferences": {},
  "deployedLinkReferences": {}
}