{
  "_format": "hh-sol-artifact-1",
  "contractName": "WrappedTokenFactoryUpgrade",
  "sourceName": "contracts/WrappedTokenFactoryUpgrade.sol",
  "abi": [
    {
      "inputs": [
        {
          "internalType": "address",
          "name": "target",
          "type": "address"
        }
      ],
      "name": "AddressEmptyCode",
      "type": "error"
    },
    {
      "inputs": [
        {
          "internalType": "address",
          "name": "implementation",
          "type": "address"
        }
      ],
      "name": "ERC1967InvalidImplementation",
      "type": "error"
    },
    {
      "inputs": [],
      "name": "ERC1967NonPayable",
      "type": "error"
    },
    {
      "inputs": [],
      "name": "FailedCall",
      "type": "error"
    },
    {
      "inputs": [],
      "name": "InvalidInitialization",
      "type": "error"
    },
    {
      "inputs": [],
      "name": "NotInitializing",
      "type": "error"
    },
    {
      "inputs": [
        {
          "internalType": "address",
          "name": "owner",
          "type": "address"
        }
      ],
      "name": "OwnableInvalidOwner",
      "type": "error"
    },
    {
      "inputs": [
        {
          "internalType": "address",
          "name": "account",
          "type": "address"
        }
      ],
      "name": "OwnableUnauthorizedAccount",
      "type": "error"
    },
    {
      "inputs": [],
      "name": "UUPSUnauthorizedCallContext",
      "type": "error"
    },
    {
      "inputs": [
        {
          "internalType": "bytes32",
          "name": "slot",
          "type": "bytes32"
        }
      ],
      "name": "UUPSUnsupportedProxiableUUID",
      "type": "error"
    },
    {
      "anonymous": false,
      "inputs": [
        {
          "indexed": false,
          "internalType": "uint64",
          "name": "version",
          "type": "uint64"
        }
      ],
      "name": "Initialized",
      "type": "event"
    },
    {
      "anonymous": false,
      "inputs": [
        {
          "indexed": true,
          "internalType": "address",
          "name": "previousOwner",
          "type": "address"
        },
        {
          "indexed": true,
          "internalType": "address",
          "name": "newOwner",
          "type": "address"
        }
      ],
      "name": "OwnershipTransferred",
      "type": "event"
    },
    {
      "anonymous": false,
      "inputs": [
        {
          "indexed": false,
          "internalType": "address",
          "name": "proxy",
          "type": "address"
        }
      ],
      "name": "TokenDeployed",
      "type": "event"
    },
    {
      "anonymous": false,
      "inputs": [
        {
          "indexed": true,
          "internalType": "address",
          "name": "implementation",
          "type": "address"
        }
      ],
      "name": "Upgraded",
      "type": "event"
    },
    {
      "inputs": [],
      "name": "UPGRADE_INTERFACE_VERSION",
      "outputs": [
        {
          "internalType": "string",
          "name": "",
          "type": "string"
        }
      ],
      "stateMutability": "view",
      "type": "function"
    },
    {
      "inputs": [],
      "name": "beacon",
      "outputs": [
        {
          "internalType": "address",
          "name": "",
          "type": "address"
        }
      ],
      "stateMutability": "view",
      "type": "function"
    },
    {
      "inputs": [],
      "name": "bridge",
      "outputs": [
        {
          "internalType": "address",
          "name": "",
          "type": "address"
        }
      ],
      "stateMutability": "view",
      "type": "function"
    },
    {
      "inputs": [
        {
          "internalType": "string",
          "name": "name",
          "type": "string"
        },
        {
          "internalType": "string",
          "name": "symbol",
          "type": "string"
        },
        {
          "internalType": "address",
          "name": "keyLogRegistry",
          "type": "address"
        }
      ],
      "name": "createToken",
      "outputs": [
        {
          "internalType": "address",
          "name": "",
          "type": "address"
        }
      ],
      "stateMutability": "nonpayable",
      "type": "function"
    },
    {
      "inputs": [],
      "name": "getTestString",
      "outputs": [
        {
          "internalType": "string",
          "name": "",
          "type": "string"
        }
      ],
      "stateMutability": "pure",
      "type": "function"
    },
    {
      "inputs": [
        {
          "internalType": "address",
          "name": "_beacon",
          "type": "address"
        },
        {
          "internalType": "address",
          "name": "_owner",
          "type": "address"
        },
        {
          "internalType": "address",
          "name": "_bridge",
          "type": "address"
        }
      ],
      "name": "initialize",
      "outputs": [],
      "stateMutability": "nonpayable",
      "type": "function"
    },
    {
      "inputs": [],
      "name": "owner",
      "outputs": [
        {
          "internalType": "address",
          "name": "",
          "type": "address"
        }
      ],
      "stateMutability": "view",
      "type": "function"
    },
    {
      "inputs": [],
      "name": "proxiableUUID",
      "outputs": [
        {
          "internalType": "bytes32",
          "name": "",
          "type": "bytes32"
        }
      ],
      "stateMutability": "view",
      "type": "function"
    },
    {
      "inputs": [],
      "name": "renounceOwnership",
      "outputs": [],
      "stateMutability": "nonpayable",
      "type": "function"
    },
    {
      "inputs": [
        {
          "internalType": "address",
          "name": "newOwner",
          "type": "address"
        }
      ],
      "name": "transferOwnership",
      "outputs": [],
      "stateMutability": "nonpayable",
      "type": "function"
    },
    {
      "inputs": [
        {
          "internalType": "address",
          "name": "newImplementation",
          "type": "address"
        },
        {
          "internalType": "bytes",
          "name": "data",
          "type": "bytes"
        }
      ],
      "name": "upgradeToAndCall",
      "outputs": [],
      "stateMutability": "payable",
      "type": "function"
    }
  ],
  "bytecode": "0x60a0806040523461002a57306080526110999081610030823960805181818161056c01526106280152f35b600080fdfe6080604090808252600491823610156200001857600080fd5b600092833560e01c9283632f91be481462000832575082634f1ef28614620005d157826352d1902d146200055557826359659e90146200052a578263715018a614620004aa5782638da5cb5b1462000478578263ad3cb1cc1462000429578263afd8fd5f14620002ad578263c0c53b8b146200011157508163e78cea9214620000e3575063f2fde38b14620000ac57600080fd5b34620000e0576020366003190112620000e057620000dd620000cd620008d2565b620000d762000aef565b62000a68565b80f35b80fd5b9050346200010d57816003193601126200010d57905490516001600160a01b039091168152602090f35b5080fd5b90915034620002a9576060366003190112620002a95762000131620008d2565b60243591906001600160a01b038084168403620002a55762000152620008ee565b7ff0c57e16840df040f15088dc2f81fe391c3923bec73e23a9662efc9c229c6a0094855460ff81891c16159567ffffffffffffffff8216801590816200029c575b600114908162000291575b15908162000287575b5062000279575067ffffffffffffffff1981166001178755620001e191908662000259575b50620001d762000b25565b620000d762000b25565b620001eb62000b25565b816bffffffffffffffffffffffff60a01b9316836001541617600155169085541617845562000218578280f35b805468ff00000000000000001916905551600181527fc7f505b2f371ae2175ee4913f4499e1f2633a7b5936321eed1cdaeb6115181d290602090a138808280f35b68ffffffffffffffffff19166801000000000000000117875538620001cc565b885163f92ee8a960e01b8152fd5b90501538620001a7565b303b1591506200019e565b88915062000193565b8580fd5b8280fd5b90915034620002a9576060366003190112620002a95767ffffffffffffffff9080358281116200042557620002e69036908301620009b4565b9160243590808211620002a5576200038a6200030a6200035c9336908601620009b4565b9462000315620008ee565b956200032062000aef565b885488516323c56d0560e21b6020820152608060248201526001600160a01b039890968794928a16938a936200036f929060a488019062000890565b8681036023190160448801529062000890565b92606485015216608483015203601f19810184528362000938565b8360015416855193610494908186019386851090851117620004125750620003c792859492889262000bd087398152816020820152019062000890565b039084f0801562000406576020935016907f91d24864a084ab70b268a1f865e757ca12006cf298d763b6be697302ef86498c838251848152a151908152f35b505051903d90823e3d90fd5b634e487b7160e01b895260419052602488fd5b8480fd5b8382346200010d57816003193601126200010d57805162000474916200044f8262000905565b60058252640352e302e360dc1b60208301525191829160208352602083019062000890565b0390f35b8382346200010d57816003193601126200010d5760209062000499620009d5565b90516001600160a01b039091168152f35b8334620000e05780600319360112620000e057620004c762000aef565b7f9016d09d72d40fdae2fd8ceac6b6234c7706214fd39c1cd1e609a0528c19930080546001600160a01b0319811690915581906001600160a01b03167f8be0079c531659141344cd1fd0a4f28419497f9722a3daafe3b4186f6b6457e08280a380f35b8382346200010d57816003193601126200010d5760015490516001600160a01b039091168152602090f35b908334620000e05780600319360112620000e057507f00000000000000000000000000000000000000000000000000000000000000006001600160a01b03163003620005c457602090517f360894a13ba1a3210667c828492db98dca3e2076cc3735a920a3ca505d382bbc8152f35b5163703e46dd60e11b8152fd5b915080600319360112620002a957620005e9620008d2565b9060243567ffffffffffffffff811162000425573660238201121562000425576200061e903690602481870135910162000978565b6001600160a01b037f0000000000000000000000000000000000000000000000000000000000000000811630811490811562000803575b50620007f3576200066562000aef565b82516352d1902d60e01b81529084169360209182818881895afa889181620007ba575b50620006a5578451634c9c8ce360e01b8152808801879052602490fd5b7f360894a13ba1a3210667c828492db98dca3e2076cc3735a920a3ca505d382bbc96929591939690818103620007a45750833b156200078d5780546001600160a01b0319168217905583518792917fbc7cd75a20ee27fd9adebab32041f755214dbc6bffa90cc0225b39da2e5c2d3b8480a28651156200076f5750508085856200076097519101845af4913d1562000764573d6200075162000747826200095b565b9251928362000938565b81528581943d92013e62000b67565b5080f35b506060925062000b67565b94509450505050346200078157505080f35b63b398979f60e01b8152fd5b8451634c9c8ce360e01b8152808401839052602490fd5b83602491875191632a87526960e21b8352820152fd5b9091508381813d8311620007eb575b620007d5818362000938565b81010312620007e75751903862000688565b8880fd5b503d620007c9565b825163703e46dd60e11b81528590fd5b9050817f360894a13ba1a3210667c828492db98dca3e2076cc3735a920a3ca505d382bbc541614153862000655565b92505034620002a95782600319360112620002a957620004749250620008588262000905565b602082527f55706772616465642057726170706564546f6b656e466163746f7279207635216020830152519182916020835260208301905b919082519283825260005b848110620008bd575050826000602080949584010152601f8019910116010190565b6020818301810151848301820152016200089b565b600435906001600160a01b0382168203620008e957565b600080fd5b604435906001600160a01b0382168203620008e957565b6040810190811067ffffffffffffffff8211176200092257604052565b634e487b7160e01b600052604160045260246000fd5b90601f8019910116810190811067ffffffffffffffff8211176200092257604052565b67ffffffffffffffff81116200092257601f01601f191660200190565b92919262000986826200095b565b9162000996604051938462000938565b829481845281830111620008e9578281602093846000960137010152565b9080601f83011215620008e957816020620009d29335910162000978565b90565b60008054604051631127a41d60e31b8152916001600160a01b03916020908490600490829086165afa92831562000a5b57819362000a14575b50505090565b909192506020813d60201162000a52575b8162000a346020938362000938565b810103126200010d57519182168203620000e0575038808062000a0e565b3d915062000a25565b50604051903d90823e3d90fd5b6001600160a01b0390811690811562000ad6577f9016d09d72d40fdae2fd8ceac6b6234c7706214fd39c1cd1e609a0528c19930080546001600160a01b031981168417909155167f8be0079c531659141344cd1fd0a4f28419497f9722a3daafe3b4186f6b6457e0600080a3565b604051631e4fbdf760e01b815260006004820152602490fd5b62000af9620009d5565b336001600160a01b039091160362000b0d57565b60405163118cdaa760e01b8152336004820152602490fd5b60ff7ff0c57e16840df040f15088dc2f81fe391c3923bec73e23a9662efc9c229c6a005460401c161562000b5557565b604051631afcd79f60e31b8152600490fd5b9062000b90575080511562000b7e57805190602001fd5b60405163d6bda27560e01b8152600490fd5b8151158062000bc5575b62000ba3575090565b604051639996b31560e01b81526001600160a01b039091166004820152602490fd5b50803b1562000b9a56fe60a0604090808252346101eb57610494803803809161001e828561029a565b8339810182828203126101eb57610034826102d3565b60208084015191939091906001600160401b0382116101eb570182601f820112156101eb57805190610065826102e7565b936100728751958661029a565b8285528383830101116101eb57829060005b83811061028657505060009184010152823b15610266577fa3f0ad74e5423aebfd80d3ef4346578335a9a72aeaee59ff6cb3582b35133d5080546001600160a01b0319166001600160a01b038581169182179092558551635c60da1b60e01b8082529194928482600481895afa91821561025b57600092610224575b50813b1561020b575050837f1cf3b03a6cf19fa2baba4df148e9dcabedea7f8a5c07840e207e5c089be95d3e600080a2815115610202578290600487518096819382525afa9283156101f7576000936101b5575b5091600080848461019296519101845af4903d156101ac573d610176816102e7565b906101838851928361029a565b8152600081943d92013e610302565b505b6080525161012e908161036682396080518160180152f35b60609250610302565b92508183813d83116101f0575b6101cc818361029a565b810103126101eb576000806101e3610192956102d3565b945050610154565b600080fd5b503d6101c2565b85513d6000823e3d90fd5b50505050610194565b8751634c9c8ce360e01b81529116600482015260249150fd5b9091508481813d8311610254575b61023c818361029a565b810103126101eb5761024d906102d3565b9038610100565b503d610232565b88513d6000823e3d90fd5b8351631933b43b60e21b81526001600160a01b0384166004820152602490fd5b818101830151868201840152849201610084565b601f909101601f19168101906001600160401b038211908210176102bd57604052565b634e487b7160e01b600052604160045260246000fd5b51906001600160a01b03821682036101eb57565b6001600160401b0381116102bd57601f01601f191660200190565b90610329575080511561031757805190602001fd5b60405163d6bda27560e01b8152600490fd5b8151158061035c575b61033a575090565b604051639996b31560e01b81526001600160a01b039091166004820152602490fd5b50803b1561033256fe60806040819052635c60da1b60e01b81526020816004817f00000000000000000000000000000000000000000000000000000000000000006001600160a01b03165afa90811560a9576000916054575b5060da565b905060203d60201160a3575b601f8101601f191682019167ffffffffffffffff831181841017608d576088926040520160b5565b38604f565b634e487b7160e01b600052604160045260246000fd5b503d6060565b6040513d6000823e3d90fd5b602090607f19011260d5576080516001600160a01b038116810360d55790565b600080fd5b6000808092368280378136915af43d82803e1560f4573d90f35b3d90fdfea2646970667358221220b642a315c875b99fe477933660ffe34497f9b4c9976cb8843c721c1c7db2123d64736f6c63430008180033a26469706673582212208276a1ca4a0ff48d6a7c82fc68bb6c32fb6a5bbfaae3231d1ad37c865d0542f664736f6c63430008180033",
  "linkReferences": {},
  "deployedLinkReferences": {}
}