{
  "_format": "hh-sol-artifact-1",
  "contractName": "WrappedToken",
  "sourceName": "contracts/WrappedToken.sol",
  "abi": [
    {
      "inputs": [],
      "stateMutability": "nonpayable",
      "type": "constructor"
    },
    {
      "inputs": [
        {
          "internalType": "address",
          "name": "target",
          "type": "address"
        }
      ],
      "name": "AddressEmptyCode",
      "type": "error"
    },
    {
      "inputs": [],
      "name": "ECDSAInvalidSignature",
      "type": "error"
    },
    {
      "inputs": [
        {
          "internalType": "uint256",
          "name": "length",
          "type": "uint256"
        }
      ],
      "name": "ECDSAInvalidSignatureLength",
      "type": "error"
    },
    {
      "inputs": [
        {
          "internalType": "bytes32",
          "name": "s",
          "type": "bytes32"
        }
      ],
      "name": "ECDSAInvalidSignatureS",
      "type": "error"
    },
    {
      "inputs": [
        {
          "internalType": "address",
          "name": "implementation",
          "type": "address"
        }
      ],
      "name": "ERC1967InvalidImplementation",
      "type": "error"
    },
    {
      "inputs": [],
      "name": "ERC1967NonPayable",
      "type": "error"
    },
    {
      "inputs": [
        {
          "internalType": "address",
          "name": "spender",
          "type": "address"
        },
        {
          "internalType": "uint256",
          "name": "allowance",
          "type": "uint256"
        },
        {
          "internalType": "uint256",
          "name": "needed",
          "type": "uint256"
        }
      ],
      "name": "ERC20InsufficientAllowance",
      "type": "error"
    },
    {
      "inputs": [
        {
          "internalType": "address",
          "name": "sender",
          "type": "address"
        },
        {
          "internalType": "uint256",
          "name": "balance",
          "type": "uint256"
        },
        {
          "internalType": "uint256",
          "name": "needed",
          "type": "uint256"
        }
      ],
      "name": "ERC20InsufficientBalance",
      "type": "error"
    },
    {
      "inputs": [
        {
          "internalType": "address",
          "name": "approver",
          "type": "address"
        }
      ],
      "name": "ERC20InvalidApprover",
      "type": "error"
    },
    {
      "inputs": [
        {
          "internalType": "address",
          "name": "receiver",
          "type": "address"
        }
      ],
      "name": "ERC20InvalidReceiver",
      "type": "error"
    },
    {
      "inputs": [
        {
          "internalType": "address",
          "name": "sender",
          "type": "address"
        }
      ],
      "name": "ERC20InvalidSender",
      "type": "error"
    },
    {
      "inputs": [
        {
          "internalType": "address",
          "name": "spender",
          "type": "address"
        }
      ],
      "name": "ERC20InvalidSpender",
      "type": "error"
    },
    {
      "inputs": [
        {
          "internalType": "uint256",
          "name": "deadline",
          "type": "uint256"
        }
      ],
      "name": "ERC2612ExpiredSignature",
      "type": "error"
    },
    {
      "inputs": [
        {
          "internalType": "address",
          "name": "signer",
          "type": "address"
        },
        {
          "internalType": "address",
          "name": "owner",
          "type": "address"
        }
      ],
      "name": "ERC2612InvalidSigner",
      "type": "error"
    },
    {
      "inputs": [],
      "name": "FailedCall",
      "type": "error"
    },
    {
      "inputs": [
        {
          "internalType": "address",
          "name": "account",
          "type": "address"
        },
        {
          "internalType": "uint256",
          "name": "currentNonce",
          "type": "uint256"
        }
      ],
      "name": "InvalidAccountNonce",
      "type": "error"
    },
    {
      "inputs": [],
      "name": "InvalidInitialization",
      "type": "error"
    },
    {
      "inputs": [],
      "name": "NotInitializing",
      "type": "error"
    },
    {
      "inputs": [
        {
          "internalType": "address",
          "name": "owner",
          "type": "address"
        }
      ],
      "name": "OwnableInvalidOwner",
      "type": "error"
    },
    {
      "inputs": [
        {
          "internalType": "address",
          "name": "account",
          "type": "address"
        }
      ],
      "name": "OwnableUnauthorizedAccount",
      "type": "error"
    },
    {
      "inputs": [],
      "name": "UUPSUnauthorizedCallContext",
      "type": "error"
    },
    {
      "inputs": [
        {
          "internalType": "bytes32",
          "name": "slot",
          "type": "bytes32"
        }
      ],
      "name": "UUPSUnsupportedProxiableUUID",
      "type": "error"
    },
    {
      "anonymous": false,
      "inputs": [
        {
          "indexed": true,
          "internalType": "address",
          "name": "owner",
          "type": "address"
        },
        {
          "indexed": true,
          "internalType": "address",
          "name": "spender",
          "type": "address"
        },
        {
          "indexed": false,
          "internalType": "uint256",
          "name": "value",
          "type": "uint256"
        }
      ],
      "name": "Approval",
      "type": "event"
    },
    {
      "anonymous": false,
      "inputs": [],
      "name": "EIP712DomainChanged",
      "type": "event"
    },
    {
      "anonymous": false,
      "inputs": [
        {
          "indexed": false,
          "internalType": "uint64",
          "name": "version",
          "type": "uint64"
        }
      ],
      "name": "Initialized",
      "type": "event"
    },
    {
      "anonymous": false,
      "inputs": [
        {
          "indexed": true,
          "internalType": "address",
          "name": "previousOwner",
          "type": "address"
        },
        {
          "indexed": true,
          "internalType": "address",
          "name": "newOwner",
          "type": "address"
        }
      ],
      "name": "OwnershipTransferred",
      "type": "event"
    },
    {
      "anonymous": false,
      "inputs": [
        {
          "indexed": true,
          "internalType": "address",
          "name": "from",
          "type": "address"
        },
        {
          "indexed": true,
          "internalType": "address",
          "name": "to",
          "type": "address"
        },
        {
          "indexed": false,
          "internalType": "uint256",
          "name": "value",
          "type": "uint256"
        }
      ],
      "name": "Transfer",
      "type": "event"
    },
    {
      "anonymous": false,
      "inputs": [
        {
          "indexed": true,
          "internalType": "address",
          "name": "implementation",
          "type": "address"
        }
      ],
      "name": "Upgraded",
      "type": "event"
    },
    {
      "inputs": [],
      "name": "DOMAIN_SEPARATOR",
      "outputs": [
        {
          "internalType": "bytes32",
          "name": "",
          "type": "bytes32"
        }
      ],
      "stateMutability": "view",
      "type": "function"
    },
    {
      "inputs": [],
      "name": "UPGRADE_INTERFACE_VERSION",
      "outputs": [
        {
          "internalType": "string",
          "name": "",
          "type": "string"
        }
      ],
      "stateMutability": "view",
      "type": "function"
    },
    {
      "inputs": [
        {
          "internalType": "address",
          "name": "owner",
          "type": "address"
        },
        {
          "internalType": "address",
          "name": "spender",
          "type": "address"
        }
      ],
      "name": "allowance",
      "outputs": [
        {
          "internalType": "uint256",
          "name": "",
          "type": "uint256"
        }
      ],
      "stateMutability": "view",
      "type": "function"
    },
    {
      "inputs": [
        {
          "internalType": "address",
          "name": "spender",
          "type": "address"
        },
        {
          "internalType": "uint256",
          "name": "value",
          "type": "uint256"
        }
      ],
      "name": "approve",
      "outputs": [
        {
          "internalType": "bool",
          "name": "",
          "type": "bool"
        }
      ],
      "stateMutability": "nonpayable",
      "type": "function"
    },
    {
      "inputs": [
        {
          "internalType": "address",
          "name": "account",
          "type": "address"
        }
      ],
      "name": "balanceOf",
      "outputs": [
        {
          "internalType": "uint256",
          "name": "",
          "type": "uint256"
        }
      ],
      "stateMutability": "view",
      "type": "function"
    },
    {
      "inputs": [],
      "name": "bridge",
      "outputs": [
        {
          "internalType": "address",
          "name": "",
          "type": "address"
        }
      ],
      "stateMutability": "view",
      "type": "function"
    },
    {
      "inputs": [
        {
          "internalType": "address",
          "name": "from",
          "type": "address"
        },
        {
          "internalType": "uint256",
          "name": "amount",
          "type": "uint256"
        }
      ],
      "name": "burn",
      "outputs": [],
      "stateMutability": "nonpayable",
      "type": "function"
    },
    {
      "inputs": [],
      "name": "decimals",
      "outputs": [
        {
          "internalType": "uint8",
          "name": "",
          "type": "uint8"
        }
      ],
      "stateMutability": "view",
      "type": "function"
    },
    {
      "inputs": [],
      "name": "eip712Domain",
      "outputs": [
        {
          "internalType": "bytes1",
          "name": "fields",
          "type": "bytes1"
        },
        {
          "internalType": "string",
          "name": "name",
          "type": "string"
        },
        {
          "internalType": "string",
          "name": "version",
          "type": "string"
        },
        {
          "internalType": "uint256",
          "name": "chainId",
          "type": "uint256"
        },
        {
          "internalType": "address",
          "name": "verifyingContract",
          "type": "address"
        },
        {
          "internalType": "bytes32",
          "name": "salt",
          "type": "bytes32"
        },
        {
          "internalType": "uint256[]",
          "name": "extensions",
          "type": "uint256[]"
        }
      ],
      "stateMutability": "view",
      "type": "function"
    },
    {
      "inputs": [
        {
          "internalType": "string",
          "name": "name",
          "type": "string"
        },
        {
          "internalType": "string",
          "name": "symbol",
          "type": "string"
        },
        {
          "internalType": "address",
          "name": "_bridge",
          "type": "address"
        },
        {
          "internalType": "address",
          "name": "_keyLogRegistry",
          "type": "address"
        },
        {
          "internalType": "uint8",
          "name": "decimals_",
          "type": "uint8"
        }
      ],
      "name": "initialize",
      "outputs": [],
      "stateMutability": "nonpayable",
      "type": "function"
    },
    {
      "inputs": [],
      "name": "keyLogRegistry",
      "outputs": [
        {
          "internalType": "address",
          "name": "",
          "type": "address"
        }
      ],
      "stateMutability": "view",
      "type": "function"
    },
    {
      "inputs": [
        {
          "internalType": "address",
          "name": "to",
          "type": "address"
        },
        {
          "internalType": "uint256",
          "name": "amount",
          "type": "uint256"
        }
      ],
      "name": "mint",
      "outputs": [],
      "stateMutability": "nonpayable",
      "type": "function"
    },
    {
      "inputs": [],
      "name": "name",
      "outputs": [
        {
          "internalType": "string",
          "name": "",
          "type": "string"
        }
      ],
      "stateMutability": "view",
      "type": "function"
    },
    {
      "inputs": [
        {
          "internalType": "address",
          "name": "owner",
          "type": "address"
        }
      ],
      "name": "nonces",
      "outputs": [
        {
          "internalType": "uint256",
          "name": "",
          "type": "uint256"
        }
      ],
      "stateMutability": "view",
      "type": "function"
    },
    {
      "inputs": [],
      "name": "owner",
      "outputs": [
        {
          "internalType": "address",
          "name": "",
          "type": "address"
        }
      ],
      "stateMutability": "view",
      "type": "function"
    },
    {
      "inputs": [
        {
          "internalType": "address",
          "name": "owner",
          "type": "address"
        },
        {
          "internalType": "address",
          "name": "spender",
          "type": "address"
        },
        {
          "internalType": "uint256",
          "name": "value",
          "type": "uint256"
        },
        {
          "internalType": "uint256",
          "name": "deadline",
          "type": "uint256"
        },
        {
          "internalType": "uint8",
          "name": "v",
          "type": "uint8"
        },
        {
          "internalType": "bytes32",
          "name": "r",
          "type": "bytes32"
        },
        {
          "internalType": "bytes32",
          "name": "s",
          "type": "bytes32"
        }
      ],
      "name": "permit",
      "outputs": [],
      "stateMutability": "nonpayable",
      "type": "function"
    },
    {
      "inputs": [],
      "name": "proxiableUUID",
      "outputs": [
        {
          "internalType": "bytes32",
          "name": "",
          "type": "bytes32"
        }
      ],
      "stateMutability": "view",
      "type": "function"
    },
    {
      "inputs": [],
      "name": "renounceOwnership",
      "outputs": [],
      "stateMutability": "nonpayable",
      "type": "function"
    },
    {
      "inputs": [],
      "name": "symbol",
      "outputs": [
        {
          "internalType": "string",
          "name": "",
          "type": "string"
        }
      ],
      "stateMutability": "view",
      "type": "function"
    },
    {
      "inputs": [],
      "name": "totalSupply",
      "outputs": [
        {
          "internalType": "uint256",
          "name": "",
          "type": "uint256"
        }
      ],
      "stateMutability": "view",
      "type": "function"
    },
    {
      "inputs": [
        {
          "internalType": "address",
          "name": "to",
          "type": "address"
        },
        {
          "internalType": "uint256",
          "name": "amount",
          "type": "uint256"
        }
      ],
      "name": "transfer",
      "outputs": [
        {
          "internalType": "bool",
          "name": "",
          "type": "bool"
        }
      ],
      "stateMutability": "nonpayable",
      "type": "function"
    },
    {
      "inputs": [
        {
          "internalType": "address",
          "name": "from",
          "type": "address"
        },
        {
          "internalType": "address",
          "name": "to",
          "type": "address"
        },
        {
          "internalType": "uint256",
          "name": "amount",
          "type": "uint256"
        }
      ],
      "name": "transferFrom",
      "outputs": [
        {
          "internalType": "bool",
          "name": "",
          "type": "bool"
        }
      ],
      "stateMutability": "nonpayable",
      "type": "function"
    },
    {
      "inputs": [
        {
          "internalType": "address",
          "name": "newOwner",
          "type": "address"
        }
      ],
      "name": "transferOwnership",
      "outputs": [],
      "stateMutability": "nonpayable",
      "type": "function"
    },
    {
      "inputs": [
        {
          "internalType": "address",
          "name": "newImplementation",
          "type": "address"
        },
        {
          "internalType": "bytes",
          "name": "data",
          "type": "bytes"
        }
      ],
      "name": "upgradeToAndCall",
      "outputs": [],
      "stateMutability": "payable",
      "type": "function"
    }
  ],
  "bytecode": "0x60a060405230608052348015610013575f80fd5b5061001c610021565b6100d3565b7ff0c57e16840df040f15088dc2f81fe391c3923bec73e23a9662efc9c229c6a00805468010000000000000000900460ff16156100715760405163f92ee8a960e01b815260040160405180910390fd5b80546001600160401b03908116146100d05780546001600160401b0319166001600160401b0390811782556040519081527fc7f505b2f371ae2175ee4913f4499e1f2633a7b5936321eed1cdaeb6115181d29060200160405180910390a15b50565b608051611e5b6100f95f395f8181610bb301528181610bdc0152610d6c0152611e5b5ff3fe608060405260043610610147575f3560e01c80637ecebe00116100b3578063ad3cb1cc1161006d578063ad3cb1cc1461039d578063b5057a7b146103cd578063d505accf146103ec578063dd62ed3e1461040b578063e78cea921461042a578063f2fde38b14610448575f80fd5b80637ecebe00146102d957806384b0196e146102f85780638da5cb5b1461031f57806395d89b411461034b5780639dc29fac1461035f578063a9059cbb1461037e575f80fd5b806340c10f191161010457806340c10f191461023f5780634f1ef2861461026057806352d1902d14610273578063651d83661461028757806370a08231146102a6578063715018a6146102c5575f80fd5b806306fdde031461014b578063095ea7b31461017557806318160ddd146101a457806323b872dd146101e1578063313ce567146102005780633644e5151461022b575b5f80fd5b348015610156575f80fd5b5061015f610467565b60405161016c919061184d565b60405180910390f35b348015610180575f80fd5b5061019461018f366004611873565b61050c565b604051901515815260200161016c565b3480156101af575f80fd5b507f52c63247e1f47db19d5ce0460030c497f067ca4cebf71ba98eeadabe20bace02545b60405190815260200161016c565b3480156101ec575f80fd5b506101946101fb36600461189d565b610525565b34801561020b575f80fd5b50600154600160a01b900460ff1660405160ff909116815260200161016c565b348015610236575f80fd5b506101d361056d565b34801561024a575f80fd5b5061025e610259366004611873565b61057b565b005b61025e61026e366004611962565b6105b2565b34801561027e575f80fd5b506101d36105cd565b348015610292575f80fd5b5061025e6102a13660046119f5565b6105e8565b3480156102b1575f80fd5b506101d36102c0366004611a89565b610758565b3480156102d0575f80fd5b5061025e610788565b3480156102e4575f80fd5b506101d36102f3366004611a89565b61079b565b348015610303575f80fd5b5061030c6107a5565b60405161016c9796959493929190611aa4565b34801561032a575f80fd5b5061033361084e565b6040516001600160a01b03909116815260200161016c565b348015610356575f80fd5b5061015f6108c2565b34801561036a575f80fd5b5061025e610379366004611873565b610900565b348015610389575f80fd5b50610194610398366004611873565b610933565b3480156103a8575f80fd5b5061015f604051806040016040528060058152602001640352e302e360dc1b81525081565b3480156103d8575f80fd5b50600154610333906001600160a01b031681565b3480156103f7575f80fd5b5061025e610406366004611b3b565b610967565b348015610416575f80fd5b506101d3610425366004611ba4565b610ab0565b348015610435575f80fd5b505f54610333906001600160a01b031681565b348015610453575f80fd5b5061025e610462366004611a89565b610af9565b60605f5f80516020611dc68339815191525b905080600301805461048a90611bdb565b80601f01602080910402602001604051908101604052809291908181526020018280546104b690611bdb565b80156105015780601f106104d857610100808354040283529160200191610501565b820191905f5260205f20905b8154815290600101906020018083116104e457829003601f168201915b505050505091505090565b5f33610519818585610b36565b60019150505b92915050565b5f80546001600160a01b031633146105585760405162461bcd60e51b815260040161054f90611c13565b60405180910390fd5b610563848484610b48565b90505b9392505050565b5f610576610b6b565b905090565b5f546001600160a01b031633146105a45760405162461bcd60e51b815260040161054f90611c13565b6105ae8282610b74565b5050565b6105ba610ba8565b6105c382610c4c565b6105ae8282610ca5565b5f6105d6610d61565b505f80516020611e0683398151915290565b7ff0c57e16840df040f15088dc2f81fe391c3923bec73e23a9662efc9c229c6a008054600160401b810460ff16159067ffffffffffffffff165f8115801561062d5750825b90505f8267ffffffffffffffff1660011480156106495750303b155b905081158015610657575080155b156106755760405163f92ee8a960e01b815260040160405180910390fd5b845467ffffffffffffffff19166001178555831561069f57845460ff60401b1916600160401b1785555b6106a98a8a610daa565b6106b28a610dbc565b6106bb88610de7565b6106c3610df8565b5f80546001600160a01b0319166001600160a01b038a811691909117909155600180549189166001600160a81b031990921691909117600160a01b60ff891602179055831561074c57845460ff60401b19168555604051600181527fc7f505b2f371ae2175ee4913f4499e1f2633a7b5936321eed1cdaeb6115181d29060200160405180910390a15b50505050505050505050565b5f805f80516020611dc68339815191525b6001600160a01b039093165f9081526020939093525050604090205490565b610790610e00565b6107995f610e32565b565b5f61051f82610ea2565b5f60608082808083815f80516020611de683398151915280549091501580156107d057506001810154155b6108145760405162461bcd60e51b81526020600482015260156024820152741152540dcc4c8e88155b9a5b9a5d1a585b1a5e9959605a1b604482015260640161054f565b61081c610eca565b610824610f08565b604080515f80825260208201909252600f60f81b9c939b5091995046985030975095509350915050565b5f805f9054906101000a90046001600160a01b03166001600160a01b031663893d20e86040518163ffffffff1660e01b8152600401602060405180830381865afa15801561089e573d5f803e3d5ffd5b505050506040513d601f19601f820116820180604052508101906105769190611c41565b7f52c63247e1f47db19d5ce0460030c497f067ca4cebf71ba98eeadabe20bace0480546060915f80516020611dc68339815191529161048a90611bdb565b5f546001600160a01b031633146109295760405162461bcd60e51b815260040161054f90611c13565b6105ae8282610f1e565b5f80546001600160a01b0316331461095d5760405162461bcd60e51b815260040161054f90611c13565b6105668383610f52565b8342111561098b5760405163313c898160e11b81526004810185905260240161054f565b5f7f6e71edae12b1b97f4d1f60370fef10105fa2faae0126114a169c64845d6126c98888886109f58c6001600160a01b03165f9081527f5ab42ced628888259c08ac98db1eb0cf702fc1501344311d8b100cd1bfe4bb006020526040902080546001810190915590565b6040805160208101969096526001600160a01b0394851690860152929091166060840152608083015260a082015260c0810186905260e0016040516020818303038152906040528051906020012090505f610a4f82610f5f565b90505f610a5e82878787610f8b565b9050896001600160a01b0316816001600160a01b031614610aa5576040516325c0072360e11b81526001600160a01b0380831660048301528b16602482015260440161054f565b61074c8a8a8a610b36565b6001600160a01b039182165f9081527f52c63247e1f47db19d5ce0460030c497f067ca4cebf71ba98eeadabe20bace016020908152604080832093909416825291909152205490565b610b01610e00565b6001600160a01b038116610b2a57604051631e4fbdf760e01b81525f600482015260240161054f565b610b3381610e32565b50565b610b438383836001610fb7565b505050565b5f33610b5585828561109b565b610b608585856110ff565b506001949350505050565b5f61057661115c565b6001600160a01b038216610b9d5760405163ec442f0560e01b81525f600482015260240161054f565b6105ae5f83836111cf565b306001600160a01b037f0000000000000000000000000000000000000000000000000000000000000000161480610c2e57507f00000000000000000000000000000000000000000000000000000000000000006001600160a01b0316610c225f80516020611e06833981519152546001600160a01b031690565b6001600160a01b031614155b156107995760405163703e46dd60e11b815260040160405180910390fd5b5f546001600160a01b03163314610b335760405162461bcd60e51b815260206004820152601760248201527f4f6e6c79206272696467652063616e2075706772616465000000000000000000604482015260640161054f565b816001600160a01b03166352d1902d6040518163ffffffff1660e01b8152600401602060405180830381865afa925050508015610cff575060408051601f3d908101601f19168201909252610cfc91810190611c5c565b60015b610d2757604051634c9c8ce360e01b81526001600160a01b038316600482015260240161054f565b5f80516020611e068339815191528114610d5757604051632a87526960e21b81526004810182905260240161054f565b610b438383611308565b306001600160a01b037f000000000000000000000000000000000000000000000000000000000000000016146107995760405163703e46dd60e11b815260040160405180910390fd5b610db261135d565b6105ae82826113a6565b610dc461135d565b610b3381604051806040016040528060018152602001603160f81b8152506113f6565b610def61135d565b610b3381611455565b61079961135d565b33610e0961084e565b6001600160a01b0316146107995760405163118cdaa760e01b815233600482015260240161054f565b7f9016d09d72d40fdae2fd8ceac6b6234c7706214fd39c1cd1e609a0528c19930080546001600160a01b031981166001600160a01b03848116918217845560405192169182907f8be0079c531659141344cd1fd0a4f28419497f9722a3daafe3b4186f6b6457e0905f90a3505050565b5f807f5ab42ced628888259c08ac98db1eb0cf702fc1501344311d8b100cd1bfe4bb00610769565b7fa16a46d94261c7517cc8ff89f61c0ce93598e3c849801011dee649a6a557d10280546060915f80516020611de68339815191529161048a90611bdb565b60605f5f80516020611de6833981519152610479565b6001600160a01b038216610f4757604051634b637e8f60e11b81525f600482015260240161054f565b6105ae825f836111cf565b5f336105198185856110ff565b5f61051f610f6b610b6b565b8360405161190160f01b8152600281019290925260228201526042902090565b5f805f80610f9b8888888861145d565b925092509250610fab8282611525565b50909695505050505050565b5f80516020611dc68339815191526001600160a01b038516610fee5760405163e602df0560e01b81525f600482015260240161054f565b6001600160a01b03841661101757604051634a1406b160e11b81525f600482015260240161054f565b6001600160a01b038086165f9081526001830160209081526040808320938816835292905220839055811561109457836001600160a01b0316856001600160a01b03167f8c5be1e5ebec7d5bd14f71427d1e84f3dd0314c0f7b2291e5b200ac8c7c3b9258560405161108b91815260200190565b60405180910390a35b5050505050565b5f6110a68484610ab0565b90505f198110156110f957818110156110eb57604051637dc7a0d960e11b81526001600160a01b0384166004820152602481018290526044810183905260640161054f565b6110f984848484035f610fb7565b50505050565b6001600160a01b03831661112857604051634b637e8f60e11b81525f600482015260240161054f565b6001600160a01b0382166111515760405163ec442f0560e01b81525f600482015260240161054f565b610b438383836111cf565b5f7f8b73c3c69bb8fe3d512ecc4cf759cc79239f7b179b0ffacaa9a75d522b39400f6111866115dd565b61118e611645565b60408051602081019490945283019190915260608201524660808201523060a082015260c00160405160208183030381529060405280519060200120905090565b5f80516020611dc68339815191526001600160a01b0384166112095781816002015f8282546111fe9190611c73565b909155506112799050565b6001600160a01b0384165f908152602082905260409020548281101561125b5760405163391434e360e21b81526001600160a01b0386166004820152602481018290526044810184905260640161054f565b6001600160a01b0385165f9081526020839052604090209083900390555b6001600160a01b0383166112975760028101805483900390556112b5565b6001600160a01b0383165f9081526020829052604090208054830190555b826001600160a01b0316846001600160a01b03167fddf252ad1be2c89b69c2b068fc378daa952ba7f163c4a11628f55a4df523b3ef846040516112fa91815260200190565b60405180910390a350505050565b61131182611687565b6040516001600160a01b038316907fbc7cd75a20ee27fd9adebab32041f755214dbc6bffa90cc0225b39da2e5c2d3b905f90a280511561135557610b4382826116ea565b6105ae61175c565b7ff0c57e16840df040f15088dc2f81fe391c3923bec73e23a9662efc9c229c6a0054600160401b900460ff1661079957604051631afcd79f60e31b815260040160405180910390fd5b6113ae61135d565b5f80516020611dc68339815191527f52c63247e1f47db19d5ce0460030c497f067ca4cebf71ba98eeadabe20bace036113e78482611cd6565b50600481016110f98382611cd6565b6113fe61135d565b5f80516020611de68339815191527fa16a46d94261c7517cc8ff89f61c0ce93598e3c849801011dee649a6a557d1026114378482611cd6565b50600381016114468382611cd6565b505f8082556001909101555050565b610b0161135d565b5f80807f7fffffffffffffffffffffffffffffff5d576e7357a4501ddfe92f46681b20a084111561149657505f9150600390508261151b565b604080515f808252602082018084528a905260ff891692820192909252606081018790526080810186905260019060a0016020604051602081039080840390855afa1580156114e7573d5f803e3d5ffd5b5050604051601f1901519150506001600160a01b03811661151257505f92506001915082905061151b565b92505f91508190505b9450945094915050565b5f82600381111561153857611538611d96565b03611541575050565b600182600381111561155557611555611d96565b036115735760405163f645eedf60e01b815260040160405180910390fd5b600282600381111561158757611587611d96565b036115a85760405163fce698f760e01b81526004810182905260240161054f565b60038260038111156115bc576115bc611d96565b036105ae576040516335e2f38360e21b81526004810182905260240161054f565b5f5f80516020611de6833981519152816115f5610eca565b80519091501561160d57805160209091012092915050565b8154801561161c579392505050565b7fc5d2460186f7233c927e7db2dcc703c0e500b653ca82273b7bfad8045d85a470935050505090565b5f5f80516020611de68339815191528161165d610f08565b80519091501561167557805160209091012092915050565b6001820154801561161c579392505050565b806001600160a01b03163b5f036116bc57604051634c9c8ce360e01b81526001600160a01b038216600482015260240161054f565b5f80516020611e0683398151915280546001600160a01b0319166001600160a01b0392909216919091179055565b60605f80846001600160a01b0316846040516117069190611daa565b5f60405180830381855af49150503d805f811461173e576040519150601f19603f3d011682016040523d82523d5f602084013e611743565b606091505b509150915061175385838361177b565b95945050505050565b34156107995760405163b398979f60e01b815260040160405180910390fd5b6060826117905761178b826117d7565b610566565b81511580156117a757506001600160a01b0384163b155b156117d057604051639996b31560e01b81526001600160a01b038516600482015260240161054f565b5080610566565b8051156117e75780518082602001fd5b60405163d6bda27560e01b815260040160405180910390fd5b5f5b8381101561181a578181015183820152602001611802565b50505f910152565b5f8151808452611839816020860160208601611800565b601f01601f19169290920160200192915050565b602081525f6105666020830184611822565b6001600160a01b0381168114610b33575f80fd5b5f8060408385031215611884575f80fd5b823561188f8161185f565b946020939093013593505050565b5f805f606084860312156118af575f80fd5b83356118ba8161185f565b925060208401356118ca8161185f565b929592945050506040919091013590565b634e487b7160e01b5f52604160045260245ffd5b5f67ffffffffffffffff80841115611909576119096118db565b604051601f8501601f19908116603f01168101908282118183101715611931576119316118db565b81604052809350858152868686011115611949575f80fd5b858560208301375f602087830101525050509392505050565b5f8060408385031215611973575f80fd5b823561197e8161185f565b9150602083013567ffffffffffffffff811115611999575f80fd5b8301601f810185136119a9575f80fd5b6119b8858235602084016118ef565b9150509250929050565b5f82601f8301126119d1575f80fd5b610566838335602085016118ef565b803560ff811681146119f0575f80fd5b919050565b5f805f805f60a08688031215611a09575f80fd5b853567ffffffffffffffff80821115611a20575f80fd5b611a2c89838a016119c2565b96506020880135915080821115611a41575f80fd5b50611a4e888289016119c2565b9450506040860135611a5f8161185f565b92506060860135611a6f8161185f565b9150611a7d608087016119e0565b90509295509295909350565b5f60208284031215611a99575f80fd5b81356105668161185f565b60ff60f81b881681525f602060e06020840152611ac460e084018a611822565b8381036040850152611ad6818a611822565b606085018990526001600160a01b038816608086015260a0850187905284810360c0860152855180825260208088019350909101905f5b81811015611b2957835183529284019291840191600101611b0d565b50909c9b505050505050505050505050565b5f805f805f805f60e0888a031215611b51575f80fd5b8735611b5c8161185f565b96506020880135611b6c8161185f565b95506040880135945060608801359350611b88608089016119e0565b925060a0880135915060c0880135905092959891949750929550565b5f8060408385031215611bb5575f80fd5b8235611bc08161185f565b91506020830135611bd08161185f565b809150509250929050565b600181811c90821680611bef57607f821691505b602082108103611c0d57634e487b7160e01b5f52602260045260245ffd5b50919050565b60208082526014908201527313db9b1e48189c9a5919d94818d85b8818d85b1b60621b604082015260600190565b5f60208284031215611c51575f80fd5b81516105668161185f565b5f60208284031215611c6c575f80fd5b5051919050565b8082018082111561051f57634e487b7160e01b5f52601160045260245ffd5b601f821115610b4357805f5260205f20601f840160051c81016020851015611cb75750805b601f840160051c820191505b81811015611094575f8155600101611cc3565b815167ffffffffffffffff811115611cf057611cf06118db565b611d0481611cfe8454611bdb565b84611c92565b602080601f831160018114611d37575f8415611d205750858301515b5f19600386901b1c1916600185901b178555611d8e565b5f85815260208120601f198616915b82811015611d6557888601518255948401946001909101908401611d46565b5085821015611d8257878501515f19600388901b60f8161c191681555b505060018460011b0185555b505050505050565b634e487b7160e01b5f52602160045260245ffd5b5f8251611dbb818460208701611800565b919091019291505056fe52c63247e1f47db19d5ce0460030c497f067ca4cebf71ba98eeadabe20bace00a16a46d94261c7517cc8ff89f61c0ce93598e3c849801011dee649a6a557d100360894a13ba1a3210667c828492db98dca3e2076cc3735a920a3ca505d382bbca2646970667358221220699f6e3893801f77cbd7fd6257325eb42d116592d41e0a3fc7a76e43a28f569164736f6c63430008180033",
  "linkReferences": {},
  "deployedLinkReferences": {}
}