{
  "_format": "hh-sol-artifact-1",
  "contractName": "WrappedTokenFactoryUpgrade",
  "sourceName": "contracts/WrappedTokenFactoryUpgrade.sol",
  "abi": [
    {
      "inputs": [
        {
          "internalType": "address",
          "name": "target",
          "type": "address"
        }
      ],
      "name": "AddressEmptyCode",
      "type": "error"
    },
    {
      "inputs": [
        {
          "internalType": "address",
          "name": "implementation",
          "type": "address"
        }
      ],
      "name": "ERC1967InvalidImplementation",
      "type": "error"
    },
    {
      "inputs": [],
      "name": "ERC1967NonPayable",
      "type": "error"
    },
    {
      "inputs": [],
      "name": "FailedCall",
      "type": "error"
    },
    {
      "inputs": [],
      "name": "InvalidInitialization",
      "type": "error"
    },
    {
      "inputs": [],
      "name": "NotInitializing",
      "type": "error"
    },
    {
      "inputs": [
        {
          "internalType": "address",
          "name": "owner",
          "type": "address"
        }
      ],
      "name": "OwnableInvalidOwner",
      "type": "error"
    },
    {
      "inputs": [
        {
          "internalType": "address",
          "name": "account",
          "type": "address"
        }
      ],
      "name": "OwnableUnauthorizedAccount",
      "type": "error"
    },
    {
      "inputs": [],
      "name": "UUPSUnauthorizedCallContext",
      "type": "error"
    },
    {
      "inputs": [
        {
          "internalType": "bytes32",
          "name": "slot",
          "type": "bytes32"
        }
      ],
      "name": "UUPSUnsupportedProxiableUUID",
      "type": "error"
    },
    {
      "anonymous": false,
      "inputs": [
        {
          "indexed": true,
          "internalType": "address",
          "name": "oldBridge",
          "type": "address"
        },
        {
          "indexed": true,
          "internalType": "address",
          "name": "newBridge",
          "type": "address"
        }
      ],
      "name": "BridgeUpdated",
      "type": "event"
    },
    {
      "anonymous": false,
      "inputs": [
        {
          "indexed": false,
          "internalType": "uint64",
          "name": "version",
          "type": "uint64"
        }
      ],
      "name": "Initialized",
      "type": "event"
    },
    {
      "anonymous": false,
      "inputs": [
        {
          "indexed": true,
          "internalType": "address",
          "name": "previousOwner",
          "type": "address"
        },
        {
          "indexed": true,
          "internalType": "address",
          "name": "newOwner",
          "type": "address"
        }
      ],
      "name": "OwnershipTransferred",
      "type": "event"
    },
    {
      "anonymous": false,
      "inputs": [
        {
          "indexed": false,
          "internalType": "address",
          "name": "proxy",
          "type": "address"
        }
      ],
      "name": "TokenDeployed",
      "type": "event"
    },
    {
      "anonymous": false,
      "inputs": [
        {
          "indexed": true,
          "internalType": "address",
          "name": "implementation",
          "type": "address"
        }
      ],
      "name": "Upgraded",
      "type": "event"
    },
    {
      "inputs": [],
      "name": "UPGRADE_INTERFACE_VERSION",
      "outputs": [
        {
          "internalType": "string",
          "name": "",
          "type": "string"
        }
      ],
      "stateMutability": "view",
      "type": "function"
    },
    {
      "inputs": [],
      "name": "beacon",
      "outputs": [
        {
          "internalType": "address",
          "name": "",
          "type": "address"
        }
      ],
      "stateMutability": "view",
      "type": "function"
    },
    {
      "inputs": [],
      "name": "bridge",
      "outputs": [
        {
          "internalType": "address",
          "name": "",
          "type": "address"
        }
      ],
      "stateMutability": "view",
      "type": "function"
    },
    {
      "inputs": [
        {
          "internalType": "string",
          "name": "name",
          "type": "string"
        },
        {
          "internalType": "string",
          "name": "symbol",
          "type": "string"
        },
        {
          "internalType": "address",
          "name": "keyLogRegistry",
          "type": "address"
        }
      ],
      "name": "createToken",
      "outputs": [
        {
          "internalType": "address",
          "name": "",
          "type": "address"
        }
      ],
      "stateMutability": "nonpayable",
      "type": "function"
    },
    {
      "inputs": [],
      "name": "getTestString",
      "outputs": [
        {
          "internalType": "string",
          "name": "",
          "type": "string"
        }
      ],
      "stateMutability": "pure",
      "type": "function"
    },
    {
      "inputs": [
        {
          "internalType": "address",
          "name": "_beacon",
          "type": "address"
        },
        {
          "internalType": "address",
          "name": "_owner",
          "type": "address"
        },
        {
          "internalType": "address",
          "name": "_bridge",
          "type": "address"
        }
      ],
      "name": "initialize",
      "outputs": [],
      "stateMutability": "nonpayable",
      "type": "function"
    },
    {
      "inputs": [],
      "name": "owner",
      "outputs": [
        {
          "internalType": "address",
          "name": "",
          "type": "address"
        }
      ],
      "stateMutability": "view",
      "type": "function"
    },
    {
      "inputs": [],
      "name": "proxiableUUID",
      "outputs": [
        {
          "internalType": "bytes32",
          "name": "",
          "type": "bytes32"
        }
      ],
      "stateMutability": "view",
      "type": "function"
    },
    {
      "inputs": [],
      "name": "renounceOwnership",
      "outputs": [],
      "stateMutability": "nonpayable",
      "type": "function"
    },
    {
      "inputs": [
        {
          "internalType": "address",
          "name": "newOwner",
          "type": "address"
        }
      ],
      "name": "transferOwnership",
      "outputs": [],
      "stateMutability": "nonpayable",
      "type": "function"
    },
    {
      "inputs": [
        {
          "internalType": "address",
          "name": "newImplementation",
          "type": "address"
        },
        {
          "internalType": "bytes",
          "name": "data",
          "type": "bytes"
        }
      ],
      "name": "upgradeToAndCall",
      "outputs": [],
      "stateMutability": "payable",
      "type": "function"
    }
  ],
  "bytecode": "0x60a060405230608052348015610013575f80fd5b506080516113e661003a5f395f81816105e20152818161060c015261075f01526113e65ff3fe608060405260043610620000a7575f3560e01c80638da5cb5b116200006a5780638da5cb5b1462000195578063ad3cb1cc14620001ac578063afd8fd5f14620001de578063c0c53b8b1462000202578063e78cea921462000226578063f2fde38b1462000246575f80fd5b80632f91be4814620000ab5780634f1ef286146200010557806352d1902d146200011e57806359659e901462000144578063715018a6146200017e575b5f80fd5b348015620000b7575f80fd5b506040805180820190915260208082527f55706772616465642057726170706564546f6b656e466163746f727920763521908201525b604051620000fc919062000afe565b60405180910390f35b6200011c6200011636600462000bb5565b6200026a565b005b3480156200012a575f80fd5b50620001356200028f565b604051908152602001620000fc565b34801562000150575f80fd5b5060015462000165906001600160a01b031681565b6040516001600160a01b039091168152602001620000fc565b3480156200018a575f80fd5b506200011c620002ad565b348015620001a1575f80fd5b5062000165620002c4565b348015620001b8575f80fd5b50620000ed604051806040016040528060058152602001640352e302e360dc1b81525081565b348015620001ea575f80fd5b5062000165620001fc36600462000c3d565b62000340565b3480156200020e575f80fd5b506200011c6200022036600462000cb9565b6200043f565b34801562000232575f80fd5b505f5462000165906001600160a01b031681565b34801562000252575f80fd5b506200011c6200026436600462000cfd565b62000590565b62000274620005d7565b6200027f826200067f565b6200028b828262000689565b5050565b5f6200029a62000754565b505f805160206200139183398151915290565b620002b76200079e565b620002c25f620007d4565b565b5f805f9054906101000a90046001600160a01b03166001600160a01b031663893d20e86040518163ffffffff1660e01b8152600401602060405180830381865afa15801562000315573d5f803e3d5ffd5b505050506040513d601f19601f820116820180604052508101906200033b919062000d1b565b905090565b5f6200034b6200079e565b5f80546040516323c56d0560e21b916200037a91889188916001600160a01b0390911690889060240162000d39565b60408051601f198184030181529181526020820180516001600160e01b03166001600160e01b03199094169390931790925260015491519092505f916001600160a01b0316908390620003cd9062000a9f565b620003da92919062000d86565b604051809103905ff080158015620003f4573d5f803e3d5ffd5b506040516001600160a01b03821681529091507f91d24864a084ab70b268a1f865e757ca12006cf298d763b6be697302ef86498c9060200160405180910390a19150505b9392505050565b7ff0c57e16840df040f15088dc2f81fe391c3923bec73e23a9662efc9c229c6a008054600160401b810460ff16159067ffffffffffffffff165f81158015620004855750825b90505f8267ffffffffffffffff166001148015620004a25750303b155b905081158015620004b1575080155b15620004d05760405163f92ee8a960e01b815260040160405180910390fd5b845467ffffffffffffffff191660011785558315620004fb57845460ff60401b1916600160401b1785555b620005068762000844565b6200051062000859565b600180546001600160a01b03808b166001600160a01b0319928316179092555f80549289169290911691909117905583156200058657845460ff60401b19168555604051600181527fc7f505b2f371ae2175ee4913f4499e1f2633a7b5936321eed1cdaeb6115181d29060200160405180910390a15b5050505050505050565b6200059a6200079e565b6001600160a01b038116620005c957604051631e4fbdf760e01b81525f60048201526024015b60405180910390fd5b620005d481620007d4565b50565b306001600160a01b037f00000000000000000000000000000000000000000000000000000000000000001614806200066057507f00000000000000000000000000000000000000000000000000000000000000006001600160a01b0316620006545f8051602062001391833981519152546001600160a01b031690565b6001600160a01b031614155b15620002c25760405163703e46dd60e11b815260040160405180910390fd5b620005d46200079e565b816001600160a01b03166352d1902d6040518163ffffffff1660e01b8152600401602060405180830381865afa925050508015620006e6575060408051601f3d908101601f19168201909252620006e39181019062000db3565b60015b6200071057604051634c9c8ce360e01b81526001600160a01b0383166004820152602401620005c0565b5f805160206200139183398151915281146200074357604051632a87526960e21b815260048101829052602401620005c0565b6200074f838362000863565b505050565b306001600160a01b037f00000000000000000000000000000000000000000000000000000000000000001614620002c25760405163703e46dd60e11b815260040160405180910390fd5b33620007a9620002c4565b6001600160a01b031614620002c25760405163118cdaa760e01b8152336004820152602401620005c0565b7f9016d09d72d40fdae2fd8ceac6b6234c7706214fd39c1cd1e609a0528c19930080546001600160a01b031981166001600160a01b03848116918217845560405192169182907f8be0079c531659141344cd1fd0a4f28419497f9722a3daafe3b4186f6b6457e0905f90a3505050565b6200084e620008bf565b620005d48162000909565b620002c2620008bf565b6200086e8262000913565b6040516001600160a01b038316907fbc7cd75a20ee27fd9adebab32041f755214dbc6bffa90cc0225b39da2e5c2d3b905f90a2805115620008b5576200074f828262000979565b6200028b620009f1565b7ff0c57e16840df040f15088dc2f81fe391c3923bec73e23a9662efc9c229c6a0054600160401b900460ff16620002c257604051631afcd79f60e31b815260040160405180910390fd5b6200059a620008bf565b806001600160a01b03163b5f036200094a57604051634c9c8ce360e01b81526001600160a01b0382166004820152602401620005c0565b5f805160206200139183398151915280546001600160a01b0319166001600160a01b0392909216919091179055565b60605f80846001600160a01b03168460405162000997919062000dcb565b5f60405180830381855af49150503d805f8114620009d1576040519150601f19603f3d011682016040523d82523d5f602084013e620009d6565b606091505b5091509150620009e885838362000a11565b95945050505050565b3415620002c25760405163b398979f60e01b815260040160405180910390fd5b60608262000a2a5762000a248262000a75565b62000438565b815115801562000a4257506001600160a01b0384163b155b1562000a6d57604051639996b31560e01b81526001600160a01b0385166004820152602401620005c0565b508062000438565b80511562000a865780518082602001fd5b60405163d6bda27560e01b815260040160405180910390fd5b6105a88062000de983390190565b5f5b8381101562000ac957818101518382015260200162000aaf565b50505f910152565b5f815180845262000aea81602086016020860162000aad565b601f01601f19169290920160200192915050565b602081525f62000438602083018462000ad1565b6001600160a01b0381168114620005d4575f80fd5b634e487b7160e01b5f52604160045260245ffd5b5f67ffffffffffffffff8084111562000b585762000b5862000b27565b604051601f8501601f19908116603f0116810190828211818310171562000b835762000b8362000b27565b8160405280935085815286868601111562000b9c575f80fd5b858560208301375f602087830101525050509392505050565b5f806040838503121562000bc7575f80fd5b823562000bd48162000b12565b9150602083013567ffffffffffffffff81111562000bf0575f80fd5b8301601f8101851362000c01575f80fd5b62000c128582356020840162000b3b565b9150509250929050565b5f82601f83011262000c2c575f80fd5b620004388383356020850162000b3b565b5f805f6060848603121562000c50575f80fd5b833567ffffffffffffffff8082111562000c68575f80fd5b62000c768783880162000c1c565b9450602086013591508082111562000c8c575f80fd5b5062000c9b8682870162000c1c565b925050604084013562000cae8162000b12565b809150509250925092565b5f805f6060848603121562000ccc575f80fd5b833562000cd98162000b12565b9250602084013562000ceb8162000b12565b9150604084013562000cae8162000b12565b5f6020828403121562000d0e575f80fd5b8135620004388162000b12565b5f6020828403121562000d2c575f80fd5b8151620004388162000b12565b608081525f62000d4d608083018762000ad1565b828103602084015262000d61818762000ad1565b6001600160a01b03958616604085015293909416606090920191909152509392505050565b6001600160a01b03831681526040602082018190525f9062000dab9083018462000ad1565b949350505050565b5f6020828403121562000dc4575f80fd5b5051919050565b5f825162000dde81846020870162000aad565b919091019291505056fe60a060405234801561000f575f80fd5b506040516105a83803806105a883398101604081905261002e91610387565b818161003a828261004f565b506001600160a01b0316608052506104769050565b6100588261010c565b6040516001600160a01b038316907f1cf3b03a6cf19fa2baba4df148e9dcabedea7f8a5c07840e207e5c089be95d3e905f90a2805115610100576100fb826001600160a01b0316635c60da1b6040518163ffffffff1660e01b8152600401602060405180830381865afa1580156100d1573d5f803e3d5ffd5b505050506040513d601f19601f820116820180604052508101906100f59190610442565b8261021a565b505050565b61010861028d565b5050565b806001600160a01b03163b5f0361014657604051631933b43b60e21b81526001600160a01b03821660048201526024015b60405180910390fd5b807fa3f0ad74e5423aebfd80d3ef4346578335a9a72aeaee59ff6cb3582b35133d5080546001600160a01b0319166001600160a01b0392831617905560408051635c60da1b60e01b815290515f92841691635c60da1b9160048083019260209291908290030181865afa1580156101bf573d5f803e3d5ffd5b505050506040513d601f19601f820116820180604052508101906101e39190610442565b9050806001600160a01b03163b5f0361010857604051634c9c8ce360e01b81526001600160a01b038216600482015260240161013d565b60605f80846001600160a01b031684604051610236919061045b565b5f60405180830381855af49150503d805f811461026e576040519150601f19603f3d011682016040523d82523d5f602084013e610273565b606091505b5090925090506102848583836102ae565b95945050505050565b34156102ac5760405163b398979f60e01b815260040160405180910390fd5b565b6060826102c3576102be8261030d565b610306565b81511580156102da57506001600160a01b0384163b155b1561030357604051639996b31560e01b81526001600160a01b038516600482015260240161013d565b50805b9392505050565b80511561031d5780518082602001fd5b60405163d6bda27560e01b815260040160405180910390fd5b80516001600160a01b038116811461034c575f80fd5b919050565b634e487b7160e01b5f52604160045260245ffd5b5f5b8381101561037f578181015183820152602001610367565b50505f910152565b5f8060408385031215610398575f80fd5b6103a183610336565b60208401519092506001600160401b03808211156103bd575f80fd5b818501915085601f8301126103d0575f80fd5b8151818111156103e2576103e2610351565b604051601f8201601f19908116603f0116810190838211818310171561040a5761040a610351565b81604052828152886020848701011115610422575f80fd5b610433836020830160208801610365565b80955050505050509250929050565b5f60208284031215610452575f80fd5b61030682610336565b5f825161046c818460208701610365565b9190910192915050565b60805161011b61048d5f395f601d015261011b5ff3fe6080604052600a600c565b005b60186014601a565b609d565b565b5f7f00000000000000000000000000000000000000000000000000000000000000006001600160a01b0316635c60da1b6040518163ffffffff1660e01b8152600401602060405180830381865afa1580156076573d5f803e3d5ffd5b505050506040513d601f19601f820116820180604052508101906098919060ba565b905090565b365f80375f80365f845af43d5f803e80801560b6573d5ff35b3d5ffd5b5f6020828403121560c9575f80fd5b81516001600160a01b038116811460de575f80fd5b939250505056fea2646970667358221220463051bc565486b78d20466cf8d3347387dcc0893c78b8618c818ffd87132f7b64736f6c63430008180033360894a13ba1a3210667c828492db98dca3e2076cc3735a920a3ca505d382bbca2646970667358221220fb3defb924900436d3ca5b82882a5bebb2e1876b9029a6dcb91f9b552d9c17db64736f6c63430008180033",
  "linkReferences": {},
  "deployedLinkReferences": {}
}