{
  "_format": "hh-sol-artifact-1",
  "contractName": "WrappedToken",
  "sourceName": "contracts/WrappedToken.sol",
  "abi": [
    {
      "inputs": [
        {
          "internalType": "string",
          "name": "name",
          "type": "string"
        },
        {
          "internalType": "string",
          "name": "symbol",
          "type": "string"
        },
        {
          "internalType": "address",
          "name": "_bridge",
          "type": "address"
        },
        {
          "internalType": "address",
          "name": "_keyLogRegistry",
          "type": "address"
        }
      ],
      "stateMutability": "nonpayable",
      "type": "constructor"
    },
    {
      "inputs": [],
      "name": "ECDSAInvalidSignature",
      "type": "error"
    },
    {
      "inputs": [
        {
          "internalType": "uint256",
          "name": "length",
          "type": "uint256"
        }
      ],
      "name": "ECDSAInvalidSignatureLength",
      "type": "error"
    },
    {
      "inputs": [
        {
          "internalType": "bytes32",
          "name": "s",
          "type": "bytes32"
        }
      ],
      "name": "ECDSAInvalidSignatureS",
      "type": "error"
    },
    {
      "inputs": [
        {
          "internalType": "address",
          "name": "spender",
          "type": "address"
        },
        {
          "internalType": "uint256",
          "name": "allowance",
          "type": "uint256"
        },
        {
          "internalType": "uint256",
          "name": "needed",
          "type": "uint256"
        }
      ],
      "name": "ERC20InsufficientAllowance",
      "type": "error"
    },
    {
      "inputs": [
        {
          "internalType": "address",
          "name": "sender",
          "type": "address"
        },
        {
          "internalType": "uint256",
          "name": "balance",
          "type": "uint256"
        },
        {
          "internalType": "uint256",
          "name": "needed",
          "type": "uint256"
        }
      ],
      "name": "ERC20InsufficientBalance",
      "type": "error"
    },
    {
      "inputs": [
        {
          "internalType": "address",
          "name": "approver",
          "type": "address"
        }
      ],
      "name": "ERC20InvalidApprover",
      "type": "error"
    },
    {
      "inputs": [
        {
          "internalType": "address",
          "name": "receiver",
          "type": "address"
        }
      ],
      "name": "ERC20InvalidReceiver",
      "type": "error"
    },
    {
      "inputs": [
        {
          "internalType": "address",
          "name": "sender",
          "type": "address"
        }
      ],
      "name": "ERC20InvalidSender",
      "type": "error"
    },
    {
      "inputs": [
        {
          "internalType": "address",
          "name": "spender",
          "type": "address"
        }
      ],
      "name": "ERC20InvalidSpender",
      "type": "error"
    },
    {
      "inputs": [
        {
          "internalType": "uint256",
          "name": "deadline",
          "type": "uint256"
        }
      ],
      "name": "ERC2612ExpiredSignature",
      "type": "error"
    },
    {
      "inputs": [
        {
          "internalType": "address",
          "name": "signer",
          "type": "address"
        },
        {
          "internalType": "address",
          "name": "owner",
          "type": "address"
        }
      ],
      "name": "ERC2612InvalidSigner",
      "type": "error"
    },
    {
      "inputs": [
        {
          "internalType": "address",
          "name": "account",
          "type": "address"
        },
        {
          "internalType": "uint256",
          "name": "currentNonce",
          "type": "uint256"
        }
      ],
      "name": "InvalidAccountNonce",
      "type": "error"
    },
    {
      "inputs": [],
      "name": "InvalidShortString",
      "type": "error"
    },
    {
      "inputs": [
        {
          "internalType": "string",
          "name": "str",
          "type": "string"
        }
      ],
      "name": "StringTooLong",
      "type": "error"
    },
    {
      "anonymous": false,
      "inputs": [
        {
          "indexed": true,
          "internalType": "address",
          "name": "owner",
          "type": "address"
        },
        {
          "indexed": true,
          "internalType": "address",
          "name": "spender",
          "type": "address"
        },
        {
          "indexed": false,
          "internalType": "uint256",
          "name": "value",
          "type": "uint256"
        }
      ],
      "name": "Approval",
      "type": "event"
    },
    {
      "anonymous": false,
      "inputs": [],
      "name": "EIP712DomainChanged",
      "type": "event"
    },
    {
      "anonymous": false,
      "inputs": [
        {
          "indexed": true,
          "internalType": "address",
          "name": "from",
          "type": "address"
        },
        {
          "indexed": true,
          "internalType": "address",
          "name": "to",
          "type": "address"
        },
        {
          "indexed": false,
          "internalType": "uint256",
          "name": "value",
          "type": "uint256"
        }
      ],
      "name": "Transfer",
      "type": "event"
    },
    {
      "inputs": [],
      "name": "DOMAIN_SEPARATOR",
      "outputs": [
        {
          "internalType": "bytes32",
          "name": "",
          "type": "bytes32"
        }
      ],
      "stateMutability": "view",
      "type": "function"
    },
    {
      "inputs": [
        {
          "internalType": "address",
          "name": "owner",
          "type": "address"
        },
        {
          "internalType": "address",
          "name": "spender",
          "type": "address"
        }
      ],
      "name": "allowance",
      "outputs": [
        {
          "internalType": "uint256",
          "name": "",
          "type": "uint256"
        }
      ],
      "stateMutability": "view",
      "type": "function"
    },
    {
      "inputs": [
        {
          "internalType": "address",
          "name": "spender",
          "type": "address"
        },
        {
          "internalType": "uint256",
          "name": "value",
          "type": "uint256"
        }
      ],
      "name": "approve",
      "outputs": [
        {
          "internalType": "bool",
          "name": "",
          "type": "bool"
        }
      ],
      "stateMutability": "nonpayable",
      "type": "function"
    },
    {
      "inputs": [
        {
          "internalType": "address",
          "name": "account",
          "type": "address"
        }
      ],
      "name": "balanceOf",
      "outputs": [
        {
          "internalType": "uint256",
          "name": "",
          "type": "uint256"
        }
      ],
      "stateMutability": "view",
      "type": "function"
    },
    {
      "inputs": [],
      "name": "bridge",
      "outputs": [
        {
          "internalType": "address",
          "name": "",
          "type": "address"
        }
      ],
      "stateMutability": "view",
      "type": "function"
    },
    {
      "inputs": [
        {
          "internalType": "address",
          "name": "from",
          "type": "address"
        },
        {
          "internalType": "uint256",
          "name": "amount",
          "type": "uint256"
        }
      ],
      "name": "burn",
      "outputs": [],
      "stateMutability": "nonpayable",
      "type": "function"
    },
    {
      "inputs": [],
      "name": "decimals",
      "outputs": [
        {
          "internalType": "uint8",
          "name": "",
          "type": "uint8"
        }
      ],
      "stateMutability": "view",
      "type": "function"
    },
    {
      "inputs": [],
      "name": "eip712Domain",
      "outputs": [
        {
          "internalType": "bytes1",
          "name": "fields",
          "type": "bytes1"
        },
        {
          "internalType": "string",
          "name": "name",
          "type": "string"
        },
        {
          "internalType": "string",
          "name": "version",
          "type": "string"
        },
        {
          "internalType": "uint256",
          "name": "chainId",
          "type": "uint256"
        },
        {
          "internalType": "address",
          "name": "verifyingContract",
          "type": "address"
        },
        {
          "internalType": "bytes32",
          "name": "salt",
          "type": "bytes32"
        },
        {
          "internalType": "uint256[]",
          "name": "extensions",
          "type": "uint256[]"
        }
      ],
      "stateMutability": "view",
      "type": "function"
    },
    {
      "inputs": [],
      "name": "keyLogRegistry",
      "outputs": [
        {
          "internalType": "contract KeyLogRegistry",
          "name": "",
          "type": "address"
        }
      ],
      "stateMutability": "view",
      "type": "function"
    },
    {
      "inputs": [
        {
          "internalType": "address",
          "name": "to",
          "type": "address"
        },
        {
          "internalType": "uint256",
          "name": "amount",
          "type": "uint256"
        }
      ],
      "name": "mint",
      "outputs": [],
      "stateMutability": "nonpayable",
      "type": "function"
    },
    {
      "inputs": [],
      "name": "name",
      "outputs": [
        {
          "internalType": "string",
          "name": "",
          "type": "string"
        }
      ],
      "stateMutability": "view",
      "type": "function"
    },
    {
      "inputs": [
        {
          "internalType": "address",
          "name": "owner",
          "type": "address"
        }
      ],
      "name": "nonces",
      "outputs": [
        {
          "internalType": "uint256",
          "name": "",
          "type": "uint256"
        }
      ],
      "stateMutability": "view",
      "type": "function"
    },
    {
      "inputs": [
        {
          "internalType": "address",
          "name": "owner",
          "type": "address"
        },
        {
          "internalType": "address",
          "name": "spender",
          "type": "address"
        },
        {
          "internalType": "uint256",
          "name": "value",
          "type": "uint256"
        },
        {
          "internalType": "uint256",
          "name": "deadline",
          "type": "uint256"
        },
        {
          "internalType": "uint8",
          "name": "v",
          "type": "uint8"
        },
        {
          "internalType": "bytes32",
          "name": "r",
          "type": "bytes32"
        },
        {
          "internalType": "bytes32",
          "name": "s",
          "type": "bytes32"
        }
      ],
      "name": "permit",
      "outputs": [],
      "stateMutability": "nonpayable",
      "type": "function"
    },
    {
      "inputs": [],
      "name": "symbol",
      "outputs": [
        {
          "internalType": "string",
          "name": "",
          "type": "string"
        }
      ],
      "stateMutability": "view",
      "type": "function"
    },
    {
      "inputs": [],
      "name": "totalSupply",
      "outputs": [
        {
          "internalType": "uint256",
          "name": "",
          "type": "uint256"
        }
      ],
      "stateMutability": "view",
      "type": "function"
    },
    {
      "inputs": [
        {
          "internalType": "address",
          "name": "to",
          "type": "address"
        },
        {
          "internalType": "uint256",
          "name": "amount",
          "type": "uint256"
        }
      ],
      "name": "transfer",
      "outputs": [
        {
          "internalType": "bool",
          "name": "",
          "type": "bool"
        }
      ],
      "stateMutability": "nonpayable",
      "type": "function"
    },
    {
      "inputs": [
        {
          "internalType": "address",
          "name": "from",
          "type": "address"
        },
        {
          "internalType": "address",
          "name": "to",
          "type": "address"
        },
        {
          "internalType": "uint256",
          "name": "amount",
          "type": "uint256"
        }
      ],
      "name": "transferFrom",
      "outputs": [
        {
          "internalType": "bool",
          "name": "",
          "type": "bool"
        }
      ],
      "stateMutability": "nonpayable",
      "type": "function"
    }
  ],
  "bytecode": "0x610160604081815234620004775762001a1b80380380916200002282866200047c565b8439820191608081840312620004775780516001600160401b03929083811162000477578462000054918401620004c5565b916020948582015190858211620004775762000072918301620004c5565b946200008e60606200008685850162000520565b930162000520565b90835190848201828110888211176200037657855260019485835281830195603160f81b87528751898111620003765760038054918383811c931680156200046c575b868410146200045657601f928381116200040b575b50808684821160011462000398576000916200038c575b5060001982841b1c191690841b1781555b8b51918b8311620003765760049c8d548581811c911680156200036b575b8882101462000356578e8382116200030b575b50508d87928511600114620002a0575093839491849260009562000294575b50501b92600019911b1c19161789555b620001798762000535565b956101209687526200018b84620006da565b97610140988952838151910120938460e0525190209861010099808b524660a0528251938401947f8b73c3c69bb8fe3d512ecc4cf759cc79239f7b179b0ffacaa9a75d522b39400f86528385015260608401524660808401523060a084015260a0835260c0830198838a10908a11176200027f57508790525190206080523060c052600880546001600160a01b039384166001600160a01b031991821617909155600980549290931691161790556111e9938462000832853960805184610c77015260a05184610d43015260c05184610c41015260e05184610cc601525183610cec0152518261051a015251816105440152f35b604190634e487b7160e01b6000525260246000fd5b0151935038806200015e565b929190601f1985169360005284886000209460005b8a89838310620002f35750505010620002d8575b50505050811b0189556200016e565b01519060f884600019921b161c1916905538808080620002c9565b868601518955909701969485019488935001620002b5565b600052876000208380870160051c8201928a88106200034c575b0160051c019086905b8281106200033f5750508e6200013f565b600081550186906200032e565b9250819262000325565b60228f634e487b7160e01b6000525260246000fd5b90607f16906200012c565b634e487b7160e01b600052604160045260246000fd5b90508b015138620000fd565b8592508c90601f1983168560005289600020928a6000915b838310620003e9575050508311620003d0575b5050811b0181556200010e565b8d015160001983861b60f8161c191690553880620003c3565b948482949597989293960151815501940192019087949392918f8b90620003b0565b82600052866000208480840160051c8201928985106200044c575b0160051c019085905b8281106200043f575050620000e6565b600081550185906200042f565b9250819262000426565b634e487b7160e01b600052602260045260246000fd5b92607f1692620000d1565b600080fd5b601f909101601f19168101906001600160401b038211908210176200037657604052565b60005b838110620004b45750506000910152565b8181015183820152602001620004a3565b81601f82011215620004775780516001600160401b038111620003765760405192620004fc601f8301601f1916602001856200047c565b8184526020828401011162000477576200051d9160208085019101620004a0565b90565b51906001600160a01b03821682036200047757565b80516020919082811015620005b5575090601f8251116200057357808251920151908083106200056457501790565b82600019910360031b1b161790565b604490620005a79260405193849263305a27a960e01b845280600485015282519283918260248701528686019101620004a0565b601f01601f19168101030190fd5b6001600160401b03811162000376576005928354926001938481811c91168015620006cf575b838210146200045657601f811162000698575b5081601f84116001146200062e575092829391839260009462000622575b50501b916000199060031b1c191617905560ff90565b0151925038806200060c565b919083601f1981168760005284600020946000905b888383106200067d575050501062000663575b505050811b01905560ff90565b015160001960f88460031b161c1916905538808062000656565b85870151885590960195948501948793509081019062000643565b8560005284601f846000209201871c820191601f8601881c015b828110620006c2575050620005ee565b60008155018590620006b2565b90607f1690620005db565b805160209081811015620007075750601f8251116200057357808251920151908083106200056457501790565b906001600160401b0382116200037657600654926001938481811c9116801562000826575b838210146200045657601f8111620007ec575b5081601f841160011462000780575092829391839260009462000774575b50501b916000199060031b1c19161760065560ff90565b0151925038806200075d565b919083601f198116600660005284600020946000905b88838310620007d15750505010620007b7575b505050811b0160065560ff90565b015160001960f88460031b161c19169055388080620007a9565b85870151885590960195948501948793509081019062000796565b600660005284601f84600020920160051c820191601f860160051c015b828110620008195750506200073f565b6000815501859062000809565b90607f16906200072c56fe608060408181526004918236101561001657600080fd5b600092833560e01c91826306fdde03146108d757508163095ea7b3146108ad57816318160ddd1461088e57816323b872dd14610789578163313ce5671461076d5781633644e5151461074957816340c10f191461069157816370a082311461065a5781637ecebe001461062257816384b0196e1461050257816395d89b411461040e5781639dc29fac14610329578163a9059cbb146102e4578163b5057a7b146102bb578163d505accf1461015357508063dd62ed3e1461010b5763e78cea92146100e057600080fd5b3461010757816003193601126101075760085490516001600160a01b039091168152602090f35b5080fd5b5034610107578060031936011261010757806020926101286109ef565b610130610a0a565b6001600160a01b0391821683526001865283832091168252845220549051908152f35b839150346101075760e03660031901126101075761016f6109ef565b610177610a0a565b906044359260643560843560ff811681036102b7578142116102a05760018060a01b0390818516928389526007602052898920908154916001830190558a519060208201927f6e71edae12b1b97f4d1f60370fef10105fa2faae0126114a169c64845d6126c98452868d840152858a1660608401528a608084015260a083015260c082015260c0815260e0810181811067ffffffffffffffff82111761028d578b5251902061025b916102529161022c610c3e565b908c519161190160f01b83526002830152602282015260c43591604260a435922061109e565b9092919261112e565b16818103610272578661026f878787610d69565b80f35b87516325c0072360e11b815292830152602482015260449150fd5b634e487b7160e01b8b526041875260248bfd5b875163313c898160e11b8152808401839052602490fd5b8680fd5b50503461010757816003193601126101075760095490516001600160a01b039091168152602090f35b5050346101075780600319360112610107576102fe6109ef565b916103098333610acf565b15610326575061031f6020926024359033610dfc565b5160018152f35b80fd5b839150346101075782600319360112610107576103446109ef565b6008549091602435916001600160a01b03908116330361040a5783169283156103f3578385528460205285852054918383106103bf5750508184957fddf252ad1be2c89b69c2b068fc378daa952ba7f163c4a11628f55a4df523b3ef936020938688528785520381872055816002540360025551908152a380f35b865163391434e360e21b81526001600160a01b03909216908201908152602081018390526040810184905281906060010390fd5b8551634b637e8f60e11b8152808301869052602490fd5b8480fd5b919050346104fe57826003193601126104fe57805183819490845461043281610a20565b91828552602096600192886001821691826000146104d4575050600114610479575b858861047589610466848a0385610a8c565b519282849384528301906109af565b0390f35b815286935091907f8a35acfbc15ff81a39ae7d344fd709f28e8600b4aa8c65c6b64bfe7fe36bd19b5b8284106104bc575050508201018161046661047538610454565b8054848a0186015288955087949093019281016104a2565b60ff19168882015294151560051b8701909401945085935061046692506104759150389050610454565b8280fd5b919050346104fe57826003193601126104fe5761053e7f0000000000000000000000000000000000000000000000000000000000000000610eda565b926105687f0000000000000000000000000000000000000000000000000000000000000000610fde565b90825192602092602085019585871067ffffffffffffffff88111761060f57509260206105c58388966105b8998b9996528686528151998a99600f60f81b8b5260e0868c015260e08b01906109af565b91898303908a01526109af565b924660608801523060808801528460a088015286840360c088015251928381520193925b8281106105f857505050500390f35b8351855286955093810193928101926001016105e9565b634e487b7160e01b845260419052602483fd5b5050346101075760203660031901126101075760209181906001600160a01b0361064a6109ef565b1681526007845220549051908152f35b5050346101075760203660031901126101075760209181906001600160a01b036106826109ef565b16815280845220549051908152f35b919050346104fe57806003193601126104fe576106ac6109ef565b60085460243592916001600160a01b0391821633036107455716928315610730576002549083820180921161071d575084927fddf252ad1be2c89b69c2b068fc378daa952ba7f163c4a11628f55a4df523b3ef9260209260025585855284835280852082815401905551908152a380f35b634e487b7160e01b865260119052602485fd5b84602492519163ec442f0560e01b8352820152fd5b8580fd5b505034610107578160031936011261010757602090610766610c3e565b9051908152f35b5050346101075781600319360112610107576020905160128152f35b90508234610326576060366003190112610326576107a56109ef565b6107ad610a0a565b91604435936107bc8484610acf565b15610107576001600160a01b038316808352600160209081528784203385529052868320549160001983106107fa575b60208861031f898989610dfc565b86831061086257811561084b5733156108345750825260016020908152868320338452815291869020908590039055829061031f876107ec565b8751634a1406b160e11b8152908101849052602490fd5b875163e602df0560e01b8152908101849052602490fd5b8751637dc7a0d960e11b8152339181019182526020820193909352604081018790528291506060010390fd5b5050346101075781600319360112610107576020906002549051908152f35b50503461010757806003193601126101075760209061031f6108cd6109ef565b6024359033610d69565b84843461010757816003193601126101075782826003546108f781610a20565b908184526020956001918760018216918260001461098857505060011461092c575b5050506104759291610466910385610a8c565b9190869350600383527fc2575a0e9e593c00f959f8c92f12db2869c3395a3b0502d05e2516446f71f85b5b8284106109705750505082010181610466610475610919565b8054848a018601528895508794909301928101610957565b60ff19168782015293151560051b8601909301935084925061046691506104759050610919565b919082519283825260005b8481106109db575050826000602080949584010152601f8019910116010190565b6020818301810151848301820152016109ba565b600435906001600160a01b0382168203610a0557565b600080fd5b602435906001600160a01b0382168203610a0557565b90600182811c92168015610a50575b6020831014610a3a57565b634e487b7160e01b600052602260045260246000fd5b91607f1691610a2f565b6040810190811067ffffffffffffffff821117610a7657604052565b634e487b7160e01b600052604160045260246000fd5b90601f8019910116810190811067ffffffffffffffff821117610a7657604052565b51906001600160a01b0382168203610a0557565b51908115158203610a0557565b600954604080516324b9c44160e21b81526001600160a01b03938416600482018190529392610100929083908390602490829088165afa918215610c33576000938493610b4a575b505050610b275750505050600190565b602001518116918214928315610b3e575b50505090565b16149050388080610b38565b90809350819492943d8311610c2c575b610b648183610a8c565b8101039081126101075760e0136103265782519260e0840184811067ffffffffffffffff821117610c18578152610b9a83610aae565b8452610ba860208401610aae565b6020850152610bb8818401610aae565b90840152610bc860608301610aae565b6060840152610bd960808301610aae565b6080840152610bea60a08301610ac2565b60a084015260c0820151906003821015610326575060c0830152610c109060e001610ac2565b388080610b17565b634e487b7160e01b83526041600452602483fd5b503d610b5a565b50513d6000823e3d90fd5b307f00000000000000000000000000000000000000000000000000000000000000006001600160a01b03161480610d40575b15610c99577f000000000000000000000000000000000000000000000000000000000000000090565b60405160208101907f8b73c3c69bb8fe3d512ecc4cf759cc79239f7b179b0ffacaa9a75d522b39400f82527f000000000000000000000000000000000000000000000000000000000000000060408201527f000000000000000000000000000000000000000000000000000000000000000060608201524660808201523060a082015260a0815260c0810181811067ffffffffffffffff821117610a765760405251902090565b507f00000000000000000000000000000000000000000000000000000000000000004614610c70565b6001600160a01b03908116918215610de35716918215610dca5760207f8c5be1e5ebec7d5bd14f71427d1e84f3dd0314c0f7b2291e5b200ac8c7c3b925918360005260018252604060002085600052825280604060002055604051908152a3565b604051634a1406b160e11b815260006004820152602490fd5b60405163e602df0560e01b815260006004820152602490fd5b916001600160a01b03808416928315610ec15716928315610ea85760009083825281602052604082205490838210610e76575091604082827fddf252ad1be2c89b69c2b068fc378daa952ba7f163c4a11628f55a4df523b3ef958760209652828652038282205586815220818154019055604051908152a3565b60405163391434e360e21b81526001600160a01b03919091166004820152602481019190915260448101839052606490fd5b60405163ec442f0560e01b815260006004820152602490fd5b604051634b637e8f60e11b815260006004820152602490fd5b60ff8114610f185760ff811690601f8211610f065760405191610efc83610a5a565b8252602082015290565b604051632cd44ac360e21b8152600490fd5b50604051600554816000610f2b83610a20565b80835292602090600190818116908115610fba5750600114610f59575b5050610f5692500382610a8c565b90565b91509260056000527f036b6384b5eca791c62761152d0c79bb0604c104a5fb6f4eb0703f3154bb3db0936000925b828410610fa25750610f569450505081016020013880610f48565b85548785018301529485019486945092810192610f87565b91505060209250610f5694915060ff191682840152151560051b8201013880610f48565b60ff81146110005760ff811690601f8211610f065760405191610efc83610a5a565b5060405160065481600061101383610a20565b80835292602090600190818116908115610fba575060011461103d575050610f5692500382610a8c565b91509260066000527ff652222313e28459528d920b65115c16c04f3efc82aaedc97be59f3f377c0d3f936000925b8284106110865750610f569450505081016020013880610f48565b8554878501830152948501948694509281019261106b565b91907f7fffffffffffffffffffffffffffffff5d576e7357a4501ddfe92f46681b20a0841161112257926020929160ff608095604051948552168484015260408301526060820152600092839182805260015afa156111165780516001600160a01b0381161561110d57918190565b50809160019190565b604051903d90823e3d90fd5b50505060009160039190565b600481101561119d5780611140575050565b6001810361115a5760405163f645eedf60e01b8152600490fd5b6002810361117b5760405163fce698f760e01b815260048101839052602490fd5b6003146111855750565b602490604051906335e2f38360e21b82526004820152fd5b634e487b7160e01b600052602160045260246000fdfea26469706673582212208f7e064a754f45673ef1cb5be9ffdc3dce18c8f16c822b95b47dd22ed795b56864736f6c63430008180033",
  "linkReferences": {},
  "deployedLinkReferences": {}
}