{
  "_format": "hh-sol-artifact-1",
  "contractName": "WrappedToken",
  "sourceName": "contracts/WrappedToken.sol",
  "abi": [
    {
      "inputs": [
        {
          "internalType": "string",
          "name": "name",
          "type": "string"
        },
        {
          "internalType": "string",
          "name": "symbol",
          "type": "string"
        },
        {
          "internalType": "address",
          "name": "_bridge",
          "type": "address"
        }
      ],
      "stateMutability": "nonpayable",
      "type": "constructor"
    },
    {
      "inputs": [
        {
          "internalType": "address",
          "name": "spender",
          "type": "address"
        },
        {
          "internalType": "uint256",
          "name": "allowance",
          "type": "uint256"
        },
        {
          "internalType": "uint256",
          "name": "needed",
          "type": "uint256"
        }
      ],
      "name": "ERC20InsufficientAllowance",
      "type": "error"
    },
    {
      "inputs": [
        {
          "internalType": "address",
          "name": "sender",
          "type": "address"
        },
        {
          "internalType": "uint256",
          "name": "balance",
          "type": "uint256"
        },
        {
          "internalType": "uint256",
          "name": "needed",
          "type": "uint256"
        }
      ],
      "name": "ERC20InsufficientBalance",
      "type": "error"
    },
    {
      "inputs": [
        {
          "internalType": "address",
          "name": "approver",
          "type": "address"
        }
      ],
      "name": "ERC20InvalidApprover",
      "type": "error"
    },
    {
      "inputs": [
        {
          "internalType": "address",
          "name": "receiver",
          "type": "address"
        }
      ],
      "name": "ERC20InvalidReceiver",
      "type": "error"
    },
    {
      "inputs": [
        {
          "internalType": "address",
          "name": "sender",
          "type": "address"
        }
      ],
      "name": "ERC20InvalidSender",
      "type": "error"
    },
    {
      "inputs": [
        {
          "internalType": "address",
          "name": "spender",
          "type": "address"
        }
      ],
      "name": "ERC20InvalidSpender",
      "type": "error"
    },
    {
      "inputs": [
        {
          "internalType": "address",
          "name": "owner",
          "type": "address"
        }
      ],
      "name": "OwnableInvalidOwner",
      "type": "error"
    },
    {
      "inputs": [
        {
          "internalType": "address",
          "name": "account",
          "type": "address"
        }
      ],
      "name": "OwnableUnauthorizedAccount",
      "type": "error"
    },
    {
      "anonymous": false,
      "inputs": [
        {
          "indexed": true,
          "internalType": "address",
          "name": "owner",
          "type": "address"
        },
        {
          "indexed": true,
          "internalType": "address",
          "name": "spender",
          "type": "address"
        },
        {
          "indexed": false,
          "internalType": "uint256",
          "name": "value",
          "type": "uint256"
        }
      ],
      "name": "Approval",
      "type": "event"
    },
    {
      "anonymous": false,
      "inputs": [
        {
          "indexed": true,
          "internalType": "address",
          "name": "previousOwner",
          "type": "address"
        },
        {
          "indexed": true,
          "internalType": "address",
          "name": "newOwner",
          "type": "address"
        }
      ],
      "name": "OwnershipTransferred",
      "type": "event"
    },
    {
      "anonymous": false,
      "inputs": [
        {
          "indexed": true,
          "internalType": "address",
          "name": "from",
          "type": "address"
        },
        {
          "indexed": true,
          "internalType": "address",
          "name": "to",
          "type": "address"
        },
        {
          "indexed": false,
          "internalType": "uint256",
          "name": "value",
          "type": "uint256"
        }
      ],
      "name": "Transfer",
      "type": "event"
    },
    {
      "inputs": [
        {
          "internalType": "address",
          "name": "owner",
          "type": "address"
        },
        {
          "internalType": "address",
          "name": "spender",
          "type": "address"
        }
      ],
      "name": "allowance",
      "outputs": [
        {
          "internalType": "uint256",
          "name": "",
          "type": "uint256"
        }
      ],
      "stateMutability": "view",
      "type": "function"
    },
    {
      "inputs": [
        {
          "internalType": "address",
          "name": "spender",
          "type": "address"
        },
        {
          "internalType": "uint256",
          "name": "value",
          "type": "uint256"
        }
      ],
      "name": "approve",
      "outputs": [
        {
          "internalType": "bool",
          "name": "",
          "type": "bool"
        }
      ],
      "stateMutability": "nonpayable",
      "type": "function"
    },
    {
      "inputs": [
        {
          "internalType": "address",
          "name": "account",
          "type": "address"
        }
      ],
      "name": "balanceOf",
      "outputs": [
        {
          "internalType": "uint256",
          "name": "",
          "type": "uint256"
        }
      ],
      "stateMutability": "view",
      "type": "function"
    },
    {
      "inputs": [],
      "name": "bridge",
      "outputs": [
        {
          "internalType": "address",
          "name": "",
          "type": "address"
        }
      ],
      "stateMutability": "view",
      "type": "function"
    },
    {
      "inputs": [
        {
          "internalType": "address",
          "name": "from",
          "type": "address"
        },
        {
          "internalType": "uint256",
          "name": "amount",
          "type": "uint256"
        }
      ],
      "name": "burn",
      "outputs": [],
      "stateMutability": "nonpayable",
      "type": "function"
    },
    {
      "inputs": [],
      "name": "decimals",
      "outputs": [
        {
          "internalType": "uint8",
          "name": "",
          "type": "uint8"
        }
      ],
      "stateMutability": "view",
      "type": "function"
    },
    {
      "inputs": [
        {
          "internalType": "address",
          "name": "to",
          "type": "address"
        },
        {
          "internalType": "uint256",
          "name": "amount",
          "type": "uint256"
        }
      ],
      "name": "mint",
      "outputs": [],
      "stateMutability": "nonpayable",
      "type": "function"
    },
    {
      "inputs": [],
      "name": "name",
      "outputs": [
        {
          "internalType": "string",
          "name": "",
          "type": "string"
        }
      ],
      "stateMutability": "view",
      "type": "function"
    },
    {
      "inputs": [],
      "name": "owner",
      "outputs": [
        {
          "internalType": "address",
          "name": "",
          "type": "address"
        }
      ],
      "stateMutability": "view",
      "type": "function"
    },
    {
      "inputs": [],
      "name": "renounceOwnership",
      "outputs": [],
      "stateMutability": "nonpayable",
      "type": "function"
    },
    {
      "inputs": [
        {
          "internalType": "address",
          "name": "_newBridge",
          "type": "address"
        }
      ],
      "name": "setBridge",
      "outputs": [],
      "stateMutability": "nonpayable",
      "type": "function"
    },
    {
      "inputs": [],
      "name": "symbol",
      "outputs": [
        {
          "internalType": "string",
          "name": "",
          "type": "string"
        }
      ],
      "stateMutability": "view",
      "type": "function"
    },
    {
      "inputs": [],
      "name": "totalSupply",
      "outputs": [
        {
          "internalType": "uint256",
          "name": "",
          "type": "uint256"
        }
      ],
      "stateMutability": "view",
      "type": "function"
    },
    {
      "inputs": [
        {
          "internalType": "address",
          "name": "to",
          "type": "address"
        },
        {
          "internalType": "uint256",
          "name": "value",
          "type": "uint256"
        }
      ],
      "name": "transfer",
      "outputs": [
        {
          "internalType": "bool",
          "name": "",
          "type": "bool"
        }
      ],
      "stateMutability": "nonpayable",
      "type": "function"
    },
    {
      "inputs": [
        {
          "internalType": "address",
          "name": "from",
          "type": "address"
        },
        {
          "internalType": "address",
          "name": "to",
          "type": "address"
        },
        {
          "internalType": "uint256",
          "name": "value",
          "type": "uint256"
        }
      ],
      "name": "transferFrom",
      "outputs": [
        {
          "internalType": "bool",
          "name": "",
          "type": "bool"
        }
      ],
      "stateMutability": "nonpayable",
      "type": "function"
    },
    {
      "inputs": [
        {
          "internalType": "address",
          "name": "newOwner",
          "type": "address"
        }
      ],
      "name": "transferOwnership",
      "outputs": [],
      "stateMutability": "nonpayable",
      "type": "function"
    }
  ],
  "bytecode": "0x608060405234620003a05762000f30803803806200001d81620003a5565b9283398101606082820312620003a05781516001600160401b039190828111620003a057816200004f918501620003cb565b60209182850151848111620003a0576040916200006e918701620003cb565b9401516001600160a01b03948582169491859003620003a0578251828111620002a0576003918254916001958684811c9416801562000395575b888510146200037f578190601f9485811162000329575b508890858311600114620002c257600092620002b6575b505060001982861b1c191690861b1783555b8051938411620002a05760049586548681811c9116801562000295575b82821014620002805783811162000235575b5080928511600114620001c75750938394918492600095620001bb575b50501b92600019911b1c19161781555b3315620001a3575060058054336001600160a01b03198083168217909355604051949091167f8be0079c531659141344cd1fd0a4f28419497f9722a3daafe3b4186f6b6457e0600080a36006541617600655610af290816200043e8239f35b602490600060405191631e4fbdf760e01b8352820152fd5b01519350388062000134565b92919084601f1981168860005285600020956000905b898383106200021a5750505010620001ff575b50505050811b01815562000144565b01519060f884600019921b161c1916905538808080620001f0565b858701518955909701969485019488935090810190620001dd565b87600052816000208480880160051c82019284891062000276575b0160051c019087905b8281106200026957505062000117565b6000815501879062000259565b9250819262000250565b602288634e487b7160e01b6000525260246000fd5b90607f169062000105565b634e487b7160e01b600052604160045260246000fd5b015190503880620000d6565b90889350601f19831691876000528a6000209260005b8c828210620003125750508411620002f9575b505050811b018355620000e8565b015160001983881b60f8161c19169055388080620002eb565b8385015186558c97909501949384019301620002d8565b90915085600052886000208580850160051c8201928b861062000375575b918a91869594930160051c01915b82811062000365575050620000bf565b600081558594508a910162000355565b9250819262000347565b634e487b7160e01b600052602260045260246000fd5b93607f1693620000a8565b600080fd5b6040519190601f01601f191682016001600160401b03811183821017620002a057604052565b919080601f84011215620003a05782516001600160401b038111620002a05760209062000401601f8201601f19168301620003a5565b92818452828287010111620003a05760005b8181106200042957508260009394955001015290565b85810183015184820184015282016200041356fe6080604081815260048036101561001557600080fd5b600092833560e01c90816306fdde03146107ea57508063095ea7b31461074157806318160ddd1461072257806323b872dd1461062f578063313ce5671461061357806340c10f191461055b57806370a0823114610524578063715018a6146104c45780638da5cb5b1461049b5780638dd148021461041057806395d89b41146102ee5780639dc29fac1461020c578063a9059cbb146101db578063dd62ed3e14610192578063e78cea92146101655763f2fde38b146100d357600080fd5b34610161576020366003190112610161576100ec61092a565b906100f5610a90565b6001600160a01b0391821692831561014b575050600554826bffffffffffffffffffffffff60a01b821617600555167f8be0079c531659141344cd1fd0a4f28419497f9722a3daafe3b4186f6b6457e08380a380f35b51631e4fbdf760e01b8152908101849052602490fd5b8280fd5b50503461018e578160031936011261018e5760065490516001600160a01b039091168152602090f35b5080fd5b50503461018e578060031936011261018e57806020926101b061092a565b6101b8610945565b6001600160a01b0391821683526001865283832091168252845220549051908152f35b50503461018e578060031936011261018e576020906102056101fb61092a565b60243590336109b2565b5160018152f35b5082903461018e578260031936011261018e5761022761092a565b906024359060018060a01b036102428160065416331461095b565b83169283156102d7578385528460205285852054918383106102a35750508184957fddf252ad1be2c89b69c2b068fc378daa952ba7f163c4a11628f55a4df523b3ef936020938688528785520381872055816002540360025551908152a380f35b865163391434e360e21b81526001600160a01b03909216908201908152602081018390526040810184905281906060010390fd5b8551634b637e8f60e11b8152808301869052602490fd5b5091903461018e578160031936011261018e5780519082845460018160011c9060018316928315610406575b60209384841081146103f3578388529081156103d75750600114610382575b505050829003601f01601f191682019267ffffffffffffffff84118385101761036f575082918261036b9252826108e1565b0390f35b634e487b7160e01b815260418552602490fd5b8787529192508591837f8a35acfbc15ff81a39ae7d344fd709f28e8600b4aa8c65c6b64bfe7fe36bd19b5b8385106103c35750505050830101388080610339565b8054888601830152930192849082016103ad565b60ff1916878501525050151560051b8401019050388080610339565b634e487b7160e01b895260228a52602489fd5b91607f169161031a565b50346101615760203660031901126101615761042a61092a565b610432610a90565b6001600160a01b031691821561045f5750506bffffffffffffffffffffffff60a01b600654161760065580f35b906020606492519162461bcd60e51b83528201526016602482015275496e76616c696420427269646765206164647265737360501b6044820152fd5b50503461018e578160031936011261018e5760055490516001600160a01b039091168152602090f35b83346105215780600319360112610521576104dd610a90565b600580546001600160a01b0319811690915581906001600160a01b03167f8be0079c531659141344cd1fd0a4f28419497f9722a3daafe3b4186f6b6457e08280a380f35b80fd5b50503461018e57602036600319011261018e5760209181906001600160a01b0361054c61092a565b16815280845220549051908152f35b50903461016157806003193601126101615761057561092a565b60065460243592916001600160a01b0391610593908316331461095b565b169283156105fe57600254908382018092116105eb575084927fddf252ad1be2c89b69c2b068fc378daa952ba7f163c4a11628f55a4df523b3ef9260209260025585855284835280852082815401905551908152a380f35b634e487b7160e01b865260119052602485fd5b84602492519163ec442f0560e01b8352820152fd5b50503461018e578160031936011261018e576020905160128152f35b5082346105215760603660031901126105215761064a61092a565b610652610945565b916044359360018060a01b03831680835260016020528683203384526020528683205491600019831061068e575b6020886102058989896109b2565b8683106106f65781156106df5733156106c85750825260016020908152868320338452815291869020908590039055829061020587610680565b8751634a1406b160e11b8152908101849052602490fd5b875163e602df0560e01b8152908101849052602490fd5b8751637dc7a0d960e11b8152339181019182526020820193909352604081018790528291506060010390fd5b50503461018e578160031936011261018e576020906002549051908152f35b503461016157816003193601126101615761075a61092a565b6024359033156107d3576001600160a01b03169182156107bc57508083602095338152600187528181208582528752205582519081527f8c5be1e5ebec7d5bd14f71427d1e84f3dd0314c0f7b2291e5b200ac8c7c3b925843392a35160018152f35b8351634a1406b160e11b8152908101859052602490fd5b835163e602df0560e01b8152808401869052602490fd5b84915083346101615782600319360112610161578260035460018160011c90600183169283156108d7575b60209384841081146103f3578388529081156108bb575060011461086557505050829003601f01601f191682019267ffffffffffffffff84118385101761036f575082918261036b9252826108e1565b600387529192508591837fc2575a0e9e593c00f959f8c92f12db2869c3395a3b0502d05e2516446f71f85b5b8385106108a75750505050830101858080610339565b805488860183015293019284908201610891565b60ff1916878501525050151560051b8401019050858080610339565b91607f1691610815565b6020808252825181830181905290939260005b82811061091657505060409293506000838284010152601f8019910116010190565b8181018601518482016040015285016108f4565b600435906001600160a01b038216820361094057565b600080fd5b602435906001600160a01b038216820361094057565b1561096257565b60405162461bcd60e51b815260206004820152602260248201527f4f6e6c79204272696467652063616e2063616c6c20746869732066756e63746960448201526137b760f11b6064820152608490fd5b916001600160a01b03808416928315610a775716928315610a5e5760009083825281602052604082205490838210610a2c575091604082827fddf252ad1be2c89b69c2b068fc378daa952ba7f163c4a11628f55a4df523b3ef958760209652828652038282205586815220818154019055604051908152a3565b60405163391434e360e21b81526001600160a01b03919091166004820152602481019190915260448101839052606490fd5b60405163ec442f0560e01b815260006004820152602490fd5b604051634b637e8f60e11b815260006004820152602490fd5b6005546001600160a01b03163303610aa457565b60405163118cdaa760e01b8152336004820152602490fdfea2646970667358221220b87a97f128bb6367cbf4c2749fbe1e4307e644f0f3e610a4b8eca7f7335de74364736f6c63430008180033",
  "linkReferences": {},
  "deployedLinkReferences": {}
}